{
  "_format": "hh-sol-artifact-1",
  "contractName": "Proposals",
  "sourceName": "contracts/Proposals/Proposals.sol",
  "abi": [
    {
      "inputs": [],
      "name": "BoardOfDirectorAddressNotSet",
      "type": "error"
    },
    {
      "inputs": [],
      "name": "EnforcedPause",
      "type": "error"
    },
    {
      "inputs": [],
      "name": "ExpectedPause",
      "type": "error"
    },
    {
      "inputs": [],
      "name": "InvalidInitialization",
      "type": "error"
    },
    {
      "inputs": [],
      "name": "InvalidProposalContent",
      "type": "error"
    },
    {
      "inputs": [],
      "name": "InvalidProposalDates",
      "type": "error"
    },
    {
      "inputs": [],
      "name": "InvalidVote",
      "type": "error"
    },
    {
      "inputs": [],
      "name": "NoBoardMembers",
      "type": "error"
    },
    {
      "inputs": [],
      "name": "NotAllowed",
      "type": "error"
    },
    {
      "inputs": [],
      "name": "NotInitializing",
      "type": "error"
    },
    {
      "inputs": [],
      "name": "OnlyBoardMember",
      "type": "error"
    },
    {
      "inputs": [
        {
          "internalType": "address",
          "name": "owner",
          "type": "address"
        }
      ],
      "name": "OwnableInvalidOwner",
      "type": "error"
    },
    {
      "inputs": [
        {
          "internalType": "address",
          "name": "account",
          "type": "address"
        }
      ],
      "name": "OwnableUnauthorizedAccount",
      "type": "error"
    },
    {
      "inputs": [],
      "name": "ProposalAlreadyVoted",
      "type": "error"
    },
    {
      "inputs": [],
      "name": "ProposalNotFound",
      "type": "error"
    },
    {
      "inputs": [],
      "name": "ProposalVotingEnded",
      "type": "error"
    },
    {
      "inputs": [],
      "name": "ProposalVotingNotStarted",
      "type": "error"
    },
    {
      "inputs": [],
      "name": "ReentrancyGuardReentrantCall",
      "type": "error"
    },
    {
      "anonymous": false,
      "inputs": [
        {
          "indexed": false,
          "internalType": "uint64",
          "name": "version",
          "type": "uint64"
        }
      ],
      "name": "Initialized",
      "type": "event"
    },
    {
      "anonymous": false,
      "inputs": [
        {
          "indexed": true,
          "internalType": "address",
          "name": "previousOwner",
          "type": "address"
        },
        {
          "indexed": true,
          "internalType": "address",
          "name": "newOwner",
          "type": "address"
        }
      ],
      "name": "OwnershipTransferred",
      "type": "event"
    },
    {
      "anonymous": false,
      "inputs": [
        {
          "indexed": false,
          "internalType": "address",
          "name": "account",
          "type": "address"
        }
      ],
      "name": "Paused",
      "type": "event"
    },
    {
      "anonymous": false,
      "inputs": [
        {
          "indexed": true,
          "internalType": "uint256",
          "name": "proposalId",
          "type": "uint256"
        },
        {
          "indexed": false,
          "internalType": "string",
          "name": "title",
          "type": "string"
        },
        {
          "indexed": true,
          "internalType": "address",
          "name": "creator",
          "type": "address"
        },
        {
          "indexed": false,
          "internalType": "uint256",
          "name": "startDate",
          "type": "uint256"
        },
        {
          "indexed": false,
          "internalType": "uint256",
          "name": "endDate",
          "type": "uint256"
        }
      ],
      "name": "ProposalCreated",
      "type": "event"
    },
    {
      "anonymous": false,
      "inputs": [
        {
          "indexed": true,
          "internalType": "uint256",
          "name": "proposalId",
          "type": "uint256"
        },
        {
          "indexed": false,
          "internalType": "enum Proposals.ProposalState",
          "name": "state",
          "type": "uint8"
        },
        {
          "indexed": false,
          "internalType": "uint256",
          "name": "yesCount",
          "type": "uint256"
        },
        {
          "indexed": false,
          "internalType": "uint256",
          "name": "noCount",
          "type": "uint256"
        },
        {
          "indexed": false,
          "internalType": "uint256",
          "name": "abstainCount",
          "type": "uint256"
        }
      ],
      "name": "ProposalTallyResults",
      "type": "event"
    },
    {
      "anonymous": false,
      "inputs": [
        {
          "indexed": true,
          "internalType": "uint256",
          "name": "proposalId",
          "type": "uint256"
        },
        {
          "indexed": true,
          "internalType": "address",
          "name": "voter",
          "type": "address"
        },
        {
          "indexed": false,
          "internalType": "enum Proposals.VoteOption",
          "name": "vote",
          "type": "uint8"
        },
        {
          "indexed": false,
          "internalType": "uint256",
          "name": "timestamp",
          "type": "uint256"
        }
      ],
      "name": "ProposalVoted",
      "type": "event"
    },
    {
      "anonymous": false,
      "inputs": [
        {
          "indexed": false,
          "internalType": "address",
          "name": "account",
          "type": "address"
        }
      ],
      "name": "Unpaused",
      "type": "event"
    },
    {
      "inputs": [
        {
          "internalType": "uint256",
          "name": "proposalId",
          "type": "uint256"
        },
        {
          "internalType": "enum Proposals.VoteOption",
          "name": "vote",
          "type": "uint8"
        }
      ],
      "name": "castVote",
      "outputs": [],
      "stateMutability": "nonpayable",
      "type": "function"
    },
    {
      "inputs": [
        {
          "internalType": "string",
          "name": "title",
          "type": "string"
        },
        {
          "internalType": "string",
          "name": "description",
          "type": "string"
        },
        {
          "internalType": "string",
          "name": "proposalType",
          "type": "string"
        },
        {
          "internalType": "uint256",
          "name": "startDate",
          "type": "uint256"
        },
        {
          "internalType": "uint256",
          "name": "endDate",
          "type": "uint256"
        }
      ],
      "name": "createProposal",
      "outputs": [],
      "stateMutability": "nonpayable",
      "type": "function"
    },
    {
      "inputs": [],
      "name": "getBoardOfDirectors",
      "outputs": [
        {
          "internalType": "address[]",
          "name": "",
          "type": "address[]"
        }
      ],
      "stateMutability": "view",
      "type": "function"
    },
    {
      "inputs": [
        {
          "internalType": "uint256",
          "name": "proposalId",
          "type": "uint256"
        }
      ],
      "name": "getProposal",
      "outputs": [
        {
          "components": [
            {
              "internalType": "uint256",
              "name": "id",
              "type": "uint256"
            },
            {
              "internalType": "string",
              "name": "title",
              "type": "string"
            },
            {
              "internalType": "string",
              "name": "description",
              "type": "string"
            },
            {
              "internalType": "string",
              "name": "proposalType",
              "type": "string"
            },
            {
              "internalType": "uint256",
              "name": "startDate",
              "type": "uint256"
            },
            {
              "internalType": "uint256",
              "name": "endDate",
              "type": "uint256"
            },
            {
              "internalType": "address",
              "name": "creator",
              "type": "address"
            },
            {
              "internalType": "uint256",
              "name": "voteCount",
              "type": "uint256"
            },
            {
              "internalType": "uint256",
              "name": "totalVoters",
              "type": "uint256"
            },
            {
              "internalType": "uint256",
              "name": "yesCount",
              "type": "uint256"
            },
            {
              "internalType": "uint256",
              "name": "noCount",
              "type": "uint256"
            },
            {
              "internalType": "uint256",
              "name": "abstainCount",
              "type": "uint256"
            },
            {
              "internalType": "enum Proposals.ProposalState",
              "name": "state",
              "type": "uint8"
            }
          ],
          "internalType": "struct Proposals.ProposalView",
          "name": "",
          "type": "tuple"
        }
      ],
      "stateMutability": "view",
      "type": "function"
    },
    {
      "inputs": [
        {
          "internalType": "uint256",
          "name": "proposalId",
          "type": "uint256"
        },
        {
          "internalType": "address",
          "name": "voter",
          "type": "address"
        }
      ],
      "name": "hasVoted",
      "outputs": [
        {
          "internalType": "bool",
          "name": "",
          "type": "bool"
        }
      ],
      "stateMutability": "view",
      "type": "function"
    },
    {
      "inputs": [
        {
          "internalType": "address",
          "name": "_owner",
          "type": "address"
        }
      ],
      "name": "initialize",
      "outputs": [],
      "stateMutability": "nonpayable",
      "type": "function"
    },
    {
      "inputs": [],
      "name": "officerAddress",
      "outputs": [
        {
          "internalType": "address",
          "name": "",
          "type": "address"
        }
      ],
      "stateMutability": "view",
      "type": "function"
    },
    {
      "inputs": [],
      "name": "owner",
      "outputs": [
        {
          "internalType": "address",
          "name": "",
          "type": "address"
        }
      ],
      "stateMutability": "view",
      "type": "function"
    },
    {
      "inputs": [],
      "name": "paused",
      "outputs": [
        {
          "internalType": "bool",
          "name": "",
          "type": "bool"
        }
      ],
      "stateMutability": "view",
      "type": "function"
    },
    {
      "inputs": [],
      "name": "renounceOwnership",
      "outputs": [],
      "stateMutability": "nonpayable",
      "type": "function"
    },
    {
      "inputs": [
        {
          "internalType": "uint256",
          "name": "proposalId",
          "type": "uint256"
        }
      ],
      "name": "tallyResults",
      "outputs": [],
      "stateMutability": "nonpayable",
      "type": "function"
    },
    {
      "inputs": [
        {
          "internalType": "address",
          "name": "newOwner",
          "type": "address"
        }
      ],
      "name": "transferOwnership",
      "outputs": [],
      "stateMutability": "nonpayable",
      "type": "function"
    }
  ],
  "bytecode": "0x608060405234801561001057600080fd5b506118c5806100206000396000f3fe608060405234801561001057600080fd5b50600436106100b45760003560e01c80638da5cb5b116100715780638da5cb5b1461016c5780638e295bda1461019c57806393ec604f146101af578063c4d66de8146101c2578063c7f758a8146101d5578063f2fde38b146101f557600080fd5b80632fb3d0af146100b9578063315f77ef146100d7578063438596321461010257806356781388146101255780635c975abb1461013a578063715018a614610164575b600080fd5b6100c1610208565b6040516100ce919061121d565b60405180910390f35b6002546100ea906001600160a01b031681565b6040516001600160a01b0390911681526020016100ce565b61011561011036600461127f565b610291565b60405190151581526020016100ce565b6101386101333660046112af565b6102e7565b005b7fcd5ed15c6e187e77e9aee88184c21f4f2182ab5827cb3b7e07fbedcd63f033005460ff16610115565b610138610585565b7f9016d09d72d40fdae2fd8ceac6b6234c7706214fd39c1cd1e609a0528c199300546001600160a01b03166100ea565b6101386101aa36600461138f565b610599565b6101386101bd366004611429565b6107b1565b6101386101d0366004611442565b610952565b6101e86101e3366004611429565b610ada565b6040516100ce91906114d6565b610138610203366004611442565b610d5f565b6060610212610d9d565b50600061021d610d9d565b90506000819050806001600160a01b0316632fb3d0af6040518163ffffffff1660e01b8152600401600060405180830381865afa158015610262573d6000803e3d6000fd5b505050506040513d6000823e601f3d908101601f1916820160405261028a91908101906115c9565b9250505090565b6000828152602081905260408120805482036102c05760405163635e873760e01b815260040160405180910390fd5b6001600160a01b0383166000908152600d909101602052604090205460ff16905092915050565b6102ef610d9d565b5060006102fa610d9d565b60405163288c314960e21b81523360048201529091506001600160a01b0382169063a230c52490602401602060405180830381865afa158015610341573d6000803e3d6000fd5b505050506040513d601f19601f82011682018060405250810190610365919061167b565b61038257604051635eeccf8760e11b815260040160405180910390fd5b61038a610eef565b600083815260208190526040812080549091036103ba5760405163635e873760e01b815260040160405180910390fd5b80600401544210156103df57604051630820cb6d60e21b815260040160405180910390fd5b8060050154421115610404576040516376bf388f60e01b815260040160405180910390fd5b336000908152600d8201602052604090205460ff161561043757604051633dc416fb60e01b815260040160405180910390fd5b336000908152600d820160205260408120805460ff19166001179055600782018054916104638361169d565b909155506000905083600281111561047d5761047d6114ac565b0361049e576009810180549060006104948361169d565b91905055506104fa565b60018360028111156104b2576104b26114ac565b036104c957600a810180549060006104948361169d565b60028360028111156104dd576104dd6114ac565b036104fa57600b810180549060006104f48361169d565b91905055505b336001600160a01b0316847f5e1602e38ecc9ec3e587f14a5449e8f50d4e01badffb209bb275e3400571cb7a85426040516105369291906116c4565b60405180910390a3806008015481600701540361055657610556846107b1565b5061058060017f9b779b17422d0df92223018b32b4d1fa46e071723d6817e2486d003becc55f0055565b505050565b61058d610f5f565b6105976000610fba565b565b6105a1610d9d565b506105ac828261102b565b6105b68585611084565b60006105c0610d9d565b90506000816001600160a01b0316632fb3d0af6040518163ffffffff1660e01b8152600401600060405180830381865afa158015610602573d6000803e3d6000fd5b505050506040513d6000823e601f3d908101601f1916820160405261062a91908101906115c9565b5190508060000361064e5760405163dbb954e360e01b815260040160405180910390fd5b60405163288c314960e21b81523360048201526001600160a01b0383169063a230c52490602401602060405180830381865afa158015610692573d6000803e3d6000fd5b505050506040513d601f19601f820116820180604052508101906106b6919061167b565b6106d357604051635eeccf8760e11b815260040160405180910390fd5b6001805460008181526020819052604090209081559081016106f58982611764565b50600281016107048882611764565b50600381016107138782611764565b5060048101859055600581018490556006810180546001600160a01b031916339081179091556000600783015560088201839055600c8201805460ff191690556001546040517f331b791e5a0526c6d6f17a46c1d4139542c8579c245d9f8082d0b1462942f4fa9061078a908c908a908a90611824565b60405180910390a3600180549060006107a28361169d565b91905055505050505050505050565b60006107bb610d9d565b60405163288c314960e21b81523360048201529091506001600160a01b0382169063a230c52490602401602060405180830381865afa158015610802573d6000803e3d6000fd5b505050506040513d601f19601f82011682018060405250810190610826919061167b565b61084357604051635eeccf8760e11b815260040160405180910390fd5b600082815260208190526040812080549091036108735760405163635e873760e01b815260040160405180910390fd5b806004015442101561089857604051630820cb6d60e21b815260040160405180910390fd5b80600a0154816009015411156108c357600c810180546001919060ff191682805b02179055506108f9565b806009015481600a015411156108e957600c810180546002919060ff19166001836108b9565b600c8101805460ff191660031790555b600c8101546009820154600a830154600b84015460405187947f95d1c09aa397fded76333b7d520a049a1b97a597942fb53bca3a9f070062935f946109459460ff909216939092611849565b60405180910390a2505050565b7ff0c57e16840df040f15088dc2f81fe391c3923bec73e23a9662efc9c229c6a008054600160401b810460ff16159067ffffffffffffffff166000811580156109985750825b905060008267ffffffffffffffff1660011480156109b55750303b155b9050811580156109c3575080155b156109e15760405163f92ee8a960e01b815260040160405180910390fd5b845467ffffffffffffffff191660011785558315610a0b57845460ff60401b1916600160401b1785555b610a14866110df565b610a1c6110f0565b610a24611100565b6001805533610a7a5760405162461bcd60e51b815260206004820152601960248201527f6d73672e73656e6465722063616e6e6f74206265207a65726f0000000000000060448201526064015b60405180910390fd5b600280546001600160a01b031916331790558315610ad257845460ff60401b19168555604051600181527fc7f505b2f371ae2175ee4913f4499e1f2633a7b5936321eed1cdaeb6115181d29060200160405180910390a15b505050505050565b610ae261119c565b60008281526020819052604081208054909103610b125760405163635e873760e01b815260040160405180910390fd5b604051806101a0016040528082600001548152602001826001018054610b37906116e2565b80601f0160208091040260200160405190810160405280929190818152602001828054610b63906116e2565b8015610bb05780601f10610b8557610100808354040283529160200191610bb0565b820191906000526020600020905b815481529060010190602001808311610b9357829003601f168201915b50505050508152602001826002018054610bc9906116e2565b80601f0160208091040260200160405190810160405280929190818152602001828054610bf5906116e2565b8015610c425780601f10610c1757610100808354040283529160200191610c42565b820191906000526020600020905b815481529060010190602001808311610c2557829003601f168201915b50505050508152602001826003018054610c5b906116e2565b80601f0160208091040260200160405190810160405280929190818152602001828054610c87906116e2565b8015610cd45780601f10610ca957610100808354040283529160200191610cd4565b820191906000526020600020905b815481529060010190602001808311610cb757829003601f168201915b5050509183525050600483015460208201526005830154604082015260068301546001600160a01b0316606082015260078301546080820152600883015460a0820152600983015460c0820152600a83015460e0820152600b830154610100820152600c8301546101209091019060ff166003811115610d5657610d566114ac565b90529392505050565b610d67610f5f565b6001600160a01b038116610d9157604051631e4fbdf760e01b815260006004820152602401610a71565b610d9a81610fba565b50565b6002546000906001600160a01b0316610df85760405162461bcd60e51b815260206004820152601e60248201527f4f6666696365722061646472657373206e6f7420636f6e6669677572656400006044820152606401610a71565b60025460405163040a4ce560e21b815260206004820152601060248201526f426f6172644f664469726563746f727360801b60448201526000916001600160a01b031690631029339490606401602060405180830381865afa158015610e62573d6000803e3d6000fd5b505050506040513d601f19601f82011682018060405250810190610e869190611872565b90506001600160a01b038116610eea5760405162461bcd60e51b815260206004820152602360248201527f426f6172644f664469726563746f727320636f6e7472616374206e6f7420666f6044820152621d5b9960ea1b6064820152608401610a71565b919050565b7f9b779b17422d0df92223018b32b4d1fa46e071723d6817e2486d003becc55f00805460011901610f3357604051633ee5aeb560e01b815260040160405180910390fd5b60029055565b60017f9b779b17422d0df92223018b32b4d1fa46e071723d6817e2486d003becc55f0055565b33610f917f9016d09d72d40fdae2fd8ceac6b6234c7706214fd39c1cd1e609a0528c199300546001600160a01b031690565b6001600160a01b0316146105975760405163118cdaa760e01b8152336004820152602401610a71565b7f9016d09d72d40fdae2fd8ceac6b6234c7706214fd39c1cd1e609a0528c19930080546001600160a01b031981166001600160a01b03848116918217845560405192169182907f8be0079c531659141344cd1fd0a4f28419497f9722a3daafe3b4186f6b6457e090600090a3505050565b811580611036575080155b806110415750808210155b1561105f57604051637de4ac2360e01b815260040160405180910390fd5b4282101561108057604051637de4ac2360e01b815260040160405180910390fd5b5050565b8151158061109157508051155b156110af576040516303d4129b60e01b815260040160405180910390fd5b6064825111806110c157506101f48151115b15611080576040516303d4129b60e01b815260040160405180910390fd5b6110e7611110565b610d9a81611159565b6110f8611110565b610597611161565b611108611110565b610597611194565b7ff0c57e16840df040f15088dc2f81fe391c3923bec73e23a9662efc9c229c6a0054600160401b900460ff1661059757604051631afcd79f60e31b815260040160405180910390fd5b610d67611110565b611169611110565b7fcd5ed15c6e187e77e9aee88184c21f4f2182ab5827cb3b7e07fbedcd63f03300805460ff19169055565b610f39611110565b604051806101a0016040528060008152602001606081526020016060815260200160608152602001600081526020016000815260200160006001600160a01b03168152602001600081526020016000815260200160008152602001600081526020016000815260200160006003811115611218576112186114ac565b905290565b6020808252825182820181905260009190848201906040850190845b8181101561125e5783516001600160a01b031683529284019291840191600101611239565b50909695505050505050565b6001600160a01b0381168114610d9a57600080fd5b6000806040838503121561129257600080fd5b8235915060208301356112a48161126a565b809150509250929050565b600080604083850312156112c257600080fd5b823591506020830135600381106112a457600080fd5b634e487b7160e01b600052604160045260246000fd5b604051601f8201601f1916810167ffffffffffffffff81118282101715611317576113176112d8565b604052919050565b600082601f83011261133057600080fd5b813567ffffffffffffffff81111561134a5761134a6112d8565b61135d601f8201601f19166020016112ee565b81815284602083860101111561137257600080fd5b816020850160208301376000918101602001919091529392505050565b600080600080600060a086880312156113a757600080fd5b853567ffffffffffffffff808211156113bf57600080fd5b6113cb89838a0161131f565b965060208801359150808211156113e157600080fd5b6113ed89838a0161131f565b9550604088013591508082111561140357600080fd5b506114108882890161131f565b9598949750949560608101359550608001359392505050565b60006020828403121561143b57600080fd5b5035919050565b60006020828403121561145457600080fd5b813561145f8161126a565b9392505050565b6000815180845260005b8181101561148c57602081850181015186830182015201611470565b506000602082860101526020601f19601f83011685010191505092915050565b634e487b7160e01b600052602160045260246000fd5b600481106114d2576114d26114ac565b9052565b6020815281516020820152600060208301516101a08060408501526114ff6101c0850183611466565b91506040850151601f198086850301606087015261151d8483611466565b935060608701519150808685030160808701525061153b8382611466565b925050608085015160a085015260a085015160c085015260c085015161156c60e08601826001600160a01b03169052565b5060e085015161010085810191909152850151610120808601919091528501516101408086019190915285015161016080860191909152850151610180808601919091528501516115bf828601826114c2565b5090949350505050565b600060208083850312156115dc57600080fd5b825167ffffffffffffffff808211156115f457600080fd5b818501915085601f83011261160857600080fd5b81518181111561161a5761161a6112d8565b8060051b915061162b8483016112ee565b818152918301840191848101908884111561164557600080fd5b938501935b8385101561166f578451925061165f8361126a565b828252938501939085019061164a565b98975050505050505050565b60006020828403121561168d57600080fd5b8151801515811461145f57600080fd5b6000600182016116bd57634e487b7160e01b600052601160045260246000fd5b5060010190565b60408101600384106116d8576116d86114ac565b9281526020015290565b600181811c908216806116f657607f821691505b60208210810361171657634e487b7160e01b600052602260045260246000fd5b50919050565b601f821115610580576000816000526020600020601f850160051c810160208610156117455750805b601f850160051c820191505b81811015610ad257828155600101611751565b815167ffffffffffffffff81111561177e5761177e6112d8565b6117928161178c84546116e2565b8461171c565b602080601f8311600181146117c757600084156117af5750858301515b600019600386901b1c1916600185901b178555610ad2565b600085815260208120601f198616915b828110156117f6578886015182559484019460019091019084016117d7565b50858210156118145787850151600019600388901b60f8161c191681555b5050505050600190811b01905550565b6060815260006118376060830186611466565b60208301949094525060400152919050565b6080810161185782876114c2565b84602083015283604083015282606083015295945050505050565b60006020828403121561188457600080fd5b815161145f8161126a56fea26469706673582212203056029879981fc00d606a75fe0a5bc582439fd69e8803b186dd826b7211f76164736f6c63430008180033",
  "linkReferences": {},
  "deployedLinkReferences": {}
}