{
  "contracts/Voting/Voting.sol": {
    "Voting": {
      "abi": [
        {
          "inputs": [],
          "name": "EnforcedPause",
          "type": "error"
        },
        {
          "inputs": [],
          "name": "ExpectedPause",
          "type": "error"
        },
        {
          "inputs": [],
          "name": "InvalidInitialization",
          "type": "error"
        },
        {
          "inputs": [],
          "name": "NotInitializing",
          "type": "error"
        },
        {
          "inputs": [
            {
              "internalType": "address",
              "name": "owner",
              "type": "address"
            }
          ],
          "name": "OwnableInvalidOwner",
          "type": "error"
        },
        {
          "inputs": [
            {
              "internalType": "address",
              "name": "account",
              "type": "address"
            }
          ],
          "name": "OwnableUnauthorizedAccount",
          "type": "error"
        },
        {
          "inputs": [],
          "name": "ReentrancyGuardReentrantCall",
          "type": "error"
        },
        {
          "anonymous": false,
          "inputs": [
            {
              "indexed": true,
              "internalType": "address",
              "name": "voter",
              "type": "address"
            },
            {
              "indexed": true,
              "internalType": "uint256",
              "name": "proposalId",
              "type": "uint256"
            },
            {
              "indexed": false,
              "internalType": "uint256",
              "name": "vote",
              "type": "uint256"
            }
          ],
          "name": "DirectiveVoted",
          "type": "event"
        },
        {
          "anonymous": false,
          "inputs": [
            {
              "indexed": true,
              "internalType": "address",
              "name": "voter",
              "type": "address"
            },
            {
              "indexed": true,
              "internalType": "uint256",
              "name": "proposalId",
              "type": "uint256"
            },
            {
              "indexed": true,
              "internalType": "address",
              "name": "candidateAddress",
              "type": "address"
            }
          ],
          "name": "ElectionVoted",
          "type": "event"
        },
        {
          "anonymous": false,
          "inputs": [
            {
              "indexed": false,
              "internalType": "uint64",
              "name": "version",
              "type": "uint64"
            }
          ],
          "name": "Initialized",
          "type": "event"
        },
        {
          "anonymous": false,
          "inputs": [
            {
              "indexed": true,
              "internalType": "address",
              "name": "previousOwner",
              "type": "address"
            },
            {
              "indexed": true,
              "internalType": "address",
              "name": "newOwner",
              "type": "address"
            }
          ],
          "name": "OwnershipTransferred",
          "type": "event"
        },
        {
          "anonymous": false,
          "inputs": [
            {
              "indexed": false,
              "internalType": "address",
              "name": "account",
              "type": "address"
            }
          ],
          "name": "Paused",
          "type": "event"
        },
        {
          "anonymous": false,
          "inputs": [
            {
              "indexed": true,
              "internalType": "uint256",
              "name": "proposalId",
              "type": "uint256"
            },
            {
              "indexed": false,
              "internalType": "string",
              "name": "title",
              "type": "string"
            },
            {
              "indexed": false,
              "internalType": "string",
              "name": "description",
              "type": "string"
            }
          ],
          "name": "ProposalAdded",
          "type": "event"
        },
        {
          "anonymous": false,
          "inputs": [
            {
              "indexed": true,
              "internalType": "uint256",
              "name": "proposalId",
              "type": "uint256"
            },
            {
              "components": [
                {
                  "internalType": "string",
                  "name": "title",
                  "type": "string"
                },
                {
                  "internalType": "string",
                  "name": "description",
                  "type": "string"
                },
                {
                  "internalType": "string",
                  "name": "draftedBy",
                  "type": "string"
                },
                {
                  "internalType": "bool",
                  "name": "isElection",
                  "type": "bool"
                },
                {
                  "internalType": "bool",
                  "name": "isActive",
                  "type": "bool"
                },
                {
                  "components": [
                    {
                      "internalType": "uint256",
                      "name": "yes",
                      "type": "uint256"
                    },
                    {
                      "internalType": "uint256",
                      "name": "no",
                      "type": "uint256"
                    },
                    {
                      "internalType": "uint256",
                      "name": "abstain",
                      "type": "uint256"
                    }
                  ],
                  "internalType": "struct Types.DirectiveVotes",
                  "name": "votes",
                  "type": "tuple"
                },
                {
                  "components": [
                    {
                      "internalType": "string",
                      "name": "name",
                      "type": "string"
                    },
                    {
                      "internalType": "address",
                      "name": "candidateAddress",
                      "type": "address"
                    },
                    {
                      "internalType": "uint256",
                      "name": "votes",
                      "type": "uint256"
                    }
                  ],
                  "internalType": "struct Types.Candidate[]",
                  "name": "candidates",
                  "type": "tuple[]"
                },
                {
                  "components": [
                    {
                      "internalType": "string",
                      "name": "name",
                      "type": "string"
                    },
                    {
                      "internalType": "bool",
                      "name": "isEligible",
                      "type": "bool"
                    },
                    {
                      "internalType": "bool",
                      "name": "isVoted",
                      "type": "bool"
                    },
                    {
                      "internalType": "address",
                      "name": "memberAddress",
                      "type": "address"
                    }
                  ],
                  "internalType": "struct Types.Member[]",
                  "name": "voters",
                  "type": "tuple[]"
                }
              ],
              "indexed": false,
              "internalType": "struct Types.Proposal",
              "name": "proposal",
              "type": "tuple"
            }
          ],
          "name": "ProposalConcluded",
          "type": "event"
        },
        {
          "anonymous": false,
          "inputs": [
            {
              "indexed": false,
              "internalType": "address",
              "name": "account",
              "type": "address"
            }
          ],
          "name": "Unpaused",
          "type": "event"
        },
        {
          "inputs": [
            {
              "components": [
                {
                  "internalType": "string",
                  "name": "title",
                  "type": "string"
                },
                {
                  "internalType": "string",
                  "name": "description",
                  "type": "string"
                },
                {
                  "internalType": "string",
                  "name": "draftedBy",
                  "type": "string"
                },
                {
                  "internalType": "bool",
                  "name": "isElection",
                  "type": "bool"
                },
                {
                  "internalType": "bool",
                  "name": "isActive",
                  "type": "bool"
                },
                {
                  "components": [
                    {
                      "internalType": "uint256",
                      "name": "yes",
                      "type": "uint256"
                    },
                    {
                      "internalType": "uint256",
                      "name": "no",
                      "type": "uint256"
                    },
                    {
                      "internalType": "uint256",
                      "name": "abstain",
                      "type": "uint256"
                    }
                  ],
                  "internalType": "struct Types.DirectiveVotes",
                  "name": "votes",
                  "type": "tuple"
                },
                {
                  "components": [
                    {
                      "internalType": "string",
                      "name": "name",
                      "type": "string"
                    },
                    {
                      "internalType": "address",
                      "name": "candidateAddress",
                      "type": "address"
                    },
                    {
                      "internalType": "uint256",
                      "name": "votes",
                      "type": "uint256"
                    }
                  ],
                  "internalType": "struct Types.Candidate[]",
                  "name": "candidates",
                  "type": "tuple[]"
                },
                {
                  "components": [
                    {
                      "internalType": "string",
                      "name": "name",
                      "type": "string"
                    },
                    {
                      "internalType": "bool",
                      "name": "isEligible",
                      "type": "bool"
                    },
                    {
                      "internalType": "bool",
                      "name": "isVoted",
                      "type": "bool"
                    },
                    {
                      "internalType": "address",
                      "name": "memberAddress",
                      "type": "address"
                    }
                  ],
                  "internalType": "struct Types.Member[]",
                  "name": "voters",
                  "type": "tuple[]"
                }
              ],
              "internalType": "struct Types.Proposal",
              "name": "_proposal",
              "type": "tuple"
            }
          ],
          "name": "addProposal",
          "outputs": [],
          "stateMutability": "nonpayable",
          "type": "function"
        },
        {
          "inputs": [
            {
              "internalType": "uint256",
              "name": "proposalId",
              "type": "uint256"
            }
          ],
          "name": "concludeProposal",
          "outputs": [],
          "stateMutability": "nonpayable",
          "type": "function"
        },
        {
          "inputs": [],
          "name": "getProposals",
          "outputs": [
            {
              "components": [
                {
                  "internalType": "string",
                  "name": "title",
                  "type": "string"
                },
                {
                  "internalType": "string",
                  "name": "description",
                  "type": "string"
                },
                {
                  "internalType": "string",
                  "name": "draftedBy",
                  "type": "string"
                },
                {
                  "internalType": "bool",
                  "name": "isElection",
                  "type": "bool"
                },
                {
                  "internalType": "bool",
                  "name": "isActive",
                  "type": "bool"
                },
                {
                  "components": [
                    {
                      "internalType": "uint256",
                      "name": "yes",
                      "type": "uint256"
                    },
                    {
                      "internalType": "uint256",
                      "name": "no",
                      "type": "uint256"
                    },
                    {
                      "internalType": "uint256",
                      "name": "abstain",
                      "type": "uint256"
                    }
                  ],
                  "internalType": "struct Types.DirectiveVotes",
                  "name": "votes",
                  "type": "tuple"
                },
                {
                  "components": [
                    {
                      "internalType": "string",
                      "name": "name",
                      "type": "string"
                    },
                    {
                      "internalType": "address",
                      "name": "candidateAddress",
                      "type": "address"
                    },
                    {
                      "internalType": "uint256",
                      "name": "votes",
                      "type": "uint256"
                    }
                  ],
                  "internalType": "struct Types.Candidate[]",
                  "name": "candidates",
                  "type": "tuple[]"
                },
                {
                  "components": [
                    {
                      "internalType": "string",
                      "name": "name",
                      "type": "string"
                    },
                    {
                      "internalType": "bool",
                      "name": "isEligible",
                      "type": "bool"
                    },
                    {
                      "internalType": "bool",
                      "name": "isVoted",
                      "type": "bool"
                    },
                    {
                      "internalType": "address",
                      "name": "memberAddress",
                      "type": "address"
                    }
                  ],
                  "internalType": "struct Types.Member[]",
                  "name": "voters",
                  "type": "tuple[]"
                }
              ],
              "internalType": "struct Types.Proposal[]",
              "name": "",
              "type": "tuple[]"
            }
          ],
          "stateMutability": "view",
          "type": "function"
        },
        {
          "inputs": [],
          "name": "initialize",
          "outputs": [],
          "stateMutability": "nonpayable",
          "type": "function"
        },
        {
          "inputs": [],
          "name": "owner",
          "outputs": [
            {
              "internalType": "address",
              "name": "",
              "type": "address"
            }
          ],
          "stateMutability": "view",
          "type": "function"
        },
        {
          "inputs": [],
          "name": "pause",
          "outputs": [],
          "stateMutability": "nonpayable",
          "type": "function"
        },
        {
          "inputs": [],
          "name": "paused",
          "outputs": [
            {
              "internalType": "bool",
              "name": "",
              "type": "bool"
            }
          ],
          "stateMutability": "view",
          "type": "function"
        },
        {
          "inputs": [],
          "name": "proposalCount",
          "outputs": [
            {
              "internalType": "uint256",
              "name": "",
              "type": "uint256"
            }
          ],
          "stateMutability": "view",
          "type": "function"
        },
        {
          "inputs": [
            {
              "internalType": "uint256",
              "name": "",
              "type": "uint256"
            }
          ],
          "name": "proposals",
          "outputs": [
            {
              "internalType": "string",
              "name": "title",
              "type": "string"
            },
            {
              "internalType": "string",
              "name": "description",
              "type": "string"
            },
            {
              "internalType": "string",
              "name": "draftedBy",
              "type": "string"
            },
            {
              "internalType": "bool",
              "name": "isElection",
              "type": "bool"
            },
            {
              "internalType": "bool",
              "name": "isActive",
              "type": "bool"
            },
            {
              "components": [
                {
                  "internalType": "uint256",
                  "name": "yes",
                  "type": "uint256"
                },
                {
                  "internalType": "uint256",
                  "name": "no",
                  "type": "uint256"
                },
                {
                  "internalType": "uint256",
                  "name": "abstain",
                  "type": "uint256"
                }
              ],
              "internalType": "struct Types.DirectiveVotes",
              "name": "votes",
              "type": "tuple"
            }
          ],
          "stateMutability": "view",
          "type": "function"
        },
        {
          "inputs": [],
          "name": "renounceOwnership",
          "outputs": [],
          "stateMutability": "nonpayable",
          "type": "function"
        },
        {
          "inputs": [
            {
              "internalType": "address",
              "name": "newOwner",
              "type": "address"
            }
          ],
          "name": "transferOwnership",
          "outputs": [],
          "stateMutability": "nonpayable",
          "type": "function"
        },
        {
          "inputs": [],
          "name": "unpause",
          "outputs": [],
          "stateMutability": "nonpayable",
          "type": "function"
        },
        {
          "inputs": [
            {
              "internalType": "uint256",
              "name": "proposalId",
              "type": "uint256"
            },
            {
              "internalType": "uint256",
              "name": "vote",
              "type": "uint256"
            }
          ],
          "name": "voteDirective",
          "outputs": [],
          "stateMutability": "nonpayable",
          "type": "function"
        },
        {
          "inputs": [
            {
              "internalType": "uint256",
              "name": "proposalId",
              "type": "uint256"
            },
            {
              "internalType": "address",
              "name": "candidateAddress",
              "type": "address"
            }
          ],
          "name": "voteElection",
          "outputs": [],
          "stateMutability": "nonpayable",
          "type": "function"
        }
      ],
      "evm": {
        "bytecode": {
          "linkReferences": {},
          "object": "608060405234801561001057600080fd5b50612398806100206000396000f3fe608060405234801561001057600080fd5b50600436106100ea5760003560e01c80638129fc1c1161008c57806397b3418e1161006657806397b3418e146101d7578063da35c664146101ea578063ee473c7a14610201578063f2fde38b1461021457600080fd5b80638129fc1c1461018d5780638456cb59146101955780638da5cb5b1461019d57600080fd5b80635c975abb116100c85780635c975abb1461013a57806362564c481461015d578063715018a61461017257806377ee47f61461017a57600080fd5b8063013cf08b146100ef5780631b7864c11461011d5780633f4ba83a14610132575b600080fd5b6101026100fd36600461144f565b610227565b604051610114969594939291906114ae565b60405180910390f35b61013061012b36600461144f565b610418565b005b6101306104ba565b6000805160206123438339815191525460ff166040519015158152602001610114565b6101656104cc565b604051610114919061162c565b610130610a02565b61013061018836600461174c565b610a14565b610130610aae565b610130610bbd565b7f9016d09d72d40fdae2fd8ceac6b6234c7706214fd39c1cd1e609a0528c199300546040516001600160a01b039091168152602001610114565b6101306101e536600461178f565b610bcd565b6101f360015481565b604051908152602001610114565b61013061020f3660046117c6565b610d77565b6101306102223660046117f6565b610fef565b60006020819052908152604090208054819061024290611813565b80601f016020809104026020016040519081016040528092919081815260200182805461026e90611813565b80156102bb5780601f10610290576101008083540402835291602001916102bb565b820191906000526020600020905b81548152906001019060200180831161029e57829003601f168201915b5050505050908060010180546102d090611813565b80601f01602080910402602001604051908101604052809291908181526020018280546102fc90611813565b80156103495780601f1061031e57610100808354040283529160200191610349565b820191906000526020600020905b81548152906001019060200180831161032c57829003601f168201915b50505050509080600201805461035e90611813565b80601f016020809104026020016040519081016040528092919081815260200182805461038a90611813565b80156103d75780601f106103ac576101008083540402835291602001916103d7565b820191906000526020600020905b8154815290600101906020018083116103ba57829003601f168201915b50505050600383015460408051606081018252600486015481526005860154602082015260069095015490850152919260ff80841693610100900416915086565b61042061102d565b610428611088565b60015481106104525760405162461bcd60e51b815260040161044990611847565b60405180910390fd5b6000818152602081905260409081902060038101805461ff001981166101009182900460ff1615909102179055905182917fcb95882f06f221718b79ae67f60eae0a8cb05c652bde85806d28094728c5b7a2916104af9190611a07565b60405180910390a250565b6104c261102d565b6104ca6110b9565b565b60606000600154116105155760405162461bcd60e51b8152602060048201526012602482015271139bc81c1c9bdc1bdcd85b1cc8199bdd5b9960721b6044820152606401610449565b600060015467ffffffffffffffff81111561053257610532611add565b60405190808252806020026020018201604052801561056b57816020015b6105586113e4565b8152602001906001900390816105505790505b50905060005b6001548110156109fc5760008181526020819052604090819020815161010081019092528054829082906105a490611813565b80601f01602080910402602001604051908101604052809291908181526020018280546105d090611813565b801561061d5780601f106105f25761010080835404028352916020019161061d565b820191906000526020600020905b81548152906001019060200180831161060057829003601f168201915b5050505050815260200160018201805461063690611813565b80601f016020809104026020016040519081016040528092919081815260200182805461066290611813565b80156106af5780601f10610684576101008083540402835291602001916106af565b820191906000526020600020905b81548152906001019060200180831161069257829003601f168201915b505050505081526020016002820180546106c890611813565b80601f01602080910402602001604051908101604052809291908181526020018280546106f490611813565b80156107415780601f1061071657610100808354040283529160200191610741565b820191906000526020600020905b81548152906001019060200180831161072457829003601f168201915b5050509183525050600382015460ff808216151560208085019190915261010090920416151560408084019190915280516060818101835260048601548252600586015482850152600686015482840152840152600784018054825181850281018501909352808352608090940193919290919060009084015b828210156108a257838290600052602060002090600302016040518060600160405290816000820180546107ee90611813565b80601f016020809104026020016040519081016040528092919081815260200182805461081a90611813565b80156108675780601f1061083c57610100808354040283529160200191610867565b820191906000526020600020905b81548152906001019060200180831161084a57829003601f168201915b50505091835250506001828101546001600160a01b0316602080840191909152600290930154604090920191909152918352920191016107bb565b50505050815260200160088201805480602002602001604051908101604052809291908181526020016000905b828210156109cf578382906000526020600020906002020160405180608001604052908160008201805461090290611813565b80601f016020809104026020016040519081016040528092919081815260200182805461092e90611813565b801561097b5780601f106109505761010080835404028352916020019161097b565b820191906000526020600020905b81548152906001019060200180831161095e57829003601f168201915b505050918352505060019182015460ff8082161515602080850191909152610100830490911615156040840152620100009091046001600160a01b03166060909201919091529183529290920191016108cf565b50505050815250508282815181106109e9576109e9611af3565b6020908102919091010152600101610571565b50919050565b610a0a61102d565b6104ca6000611119565b610a1c61102d565b610a24611088565b60015460009081526020819052604090208190610a418282612162565b50506001547f2da739368218397c1f8267a798bce5722bae1a51d2855fb923312edf27460c60610a718380611b09565b610a7e6020860186611b09565b604051610a8e9493929190612302565b60405180910390a260018054906000610aa683612329565b919050555050565b7ff0c57e16840df040f15088dc2f81fe391c3923bec73e23a9662efc9c229c6a008054600160401b810460ff16159067ffffffffffffffff16600081158015610af45750825b905060008267ffffffffffffffff166001148015610b115750303b155b905081158015610b1f575080155b15610b3d5760405163f92ee8a960e01b815260040160405180910390fd5b845467ffffffffffffffff191660011785558315610b6757845460ff60401b1916600160401b1785555b610b703361118a565b8315610bb657845460ff60401b19168555604051600181527fc7f505b2f371ae2175ee4913f4499e1f2633a7b5936321eed1cdaeb6115181d29060200160405180910390a15b5050505050565b610bc561102d565b6104ca61119b565b610bd5611088565b6001548210610bf65760405162461bcd60e51b815260040161044990611847565b600082815260208190526040902060030154610100900460ff16610c555760405162461bcd60e51b815260206004820152601660248201527550726f706f73616c206973206e6f742061637469766560501b6044820152606401610449565b600082815260208190526040812090610c6e82336111e4565b600181015490915060ff16610cc55760405162461bcd60e51b815260206004820152601c60248201527f596f7520617265206e6f7420656c696769626c6520746f20766f7465000000006044820152606401610449565b6001810154610100900460ff1615610d185760405162461bcd60e51b8152602060048201526016602482015275165bdd481a185d9948185b1c9958591e481d9bdd195960521b6044820152606401610449565b610d2282846112d5565b60018101805461ff001916610100179055604051849033907fabe5d78d7c4aff0ea01d11f7334d89bf989faef45af0c780acf4ccff6bd5c8db90610d699087815260200190565b60405180910390a350505050565b610d7f611088565b6001548210610da05760405162461bcd60e51b815260040161044990611847565b600082815260208190526040902060030154610100900460ff16610dff5760405162461bcd60e51b815260206004820152601660248201527550726f706f73616c206973206e6f742061637469766560501b6044820152606401610449565b600082815260208190526040812090610e1882336111e4565b600181015490915060ff16610e6f5760405162461bcd60e51b815260206004820152601c60248201527f596f7520617265206e6f7420656c696769626c6520746f20766f7465000000006044820152606401610449565b6001810154610100900460ff1615610ec25760405162461bcd60e51b8152602060048201526016602482015275165bdd481a185d9948185b1c9958591e481d9bdd195960521b6044820152606401610449565b60005b6007830154811015610fa257836001600160a01b0316836007018281548110610ef057610ef0611af3565b60009182526020909120600160039092020101546001600160a01b031603610f9a57826007018181548110610f2757610f27611af3565b600091825260208220600260039092020101805491610f4583612329565b909155505060018201805461ff0019166101001790556040516001600160a01b03851690869033907fe8db14efb3e399b32db39dd2829b3af23451747dba46368ce6a3d5ccefebf88290600090a45050505050565b600101610ec5565b5060405162461bcd60e51b815260206004820152601860248201527f43616e64696461746520646f6573206e6f7420657869737400000000000000006044820152606401610449565b5050565b610ff761102d565b6001600160a01b03811661102157604051631e4fbdf760e01b815260006004820152602401610449565b61102a81611119565b50565b3361105f7f9016d09d72d40fdae2fd8ceac6b6234c7706214fd39c1cd1e609a0528c199300546001600160a01b031690565b6001600160a01b0316146104ca5760405163118cdaa760e01b8152336004820152602401610449565b6000805160206123438339815191525460ff16156104ca5760405163d93c066560e01b815260040160405180910390fd5b6110c1611363565b600080516020612343833981519152805460ff191681557f5db9ee0a495bf2e6ff9c91a7834c1ba4fdd244a5e8aa4e537bd38aeae4b073aa335b6040516001600160a01b03909116815260200160405180910390a150565b7f9016d09d72d40fdae2fd8ceac6b6234c7706214fd39c1cd1e609a0528c19930080546001600160a01b031981166001600160a01b03848116918217845560405192169182907f8be0079c531659141344cd1fd0a4f28419497f9722a3daafe3b4186f6b6457e090600090a3505050565b611192611393565b61102a816113dc565b6111a3611088565b600080516020612343833981519152805460ff191660011781557f62e78cea01bee320cd4e420270b5ea74000d11b0c9f74754ebdbfc544b05a258336110fb565b6000805b600884015481101561126e57826001600160a01b031684600801828154811061121357611213611af3565b60009182526020909120600290910201600101546201000090046001600160a01b0316036112665783600801818154811061125057611250611af3565b90600052602060002090600202019150506112cf565b6001016111e8565b5060405162461bcd60e51b815260206004820152602f60248201527f596f7520617265206e6f74207265676973746572656420746f20766f7465206960448201526e1b881d1a1a5cc81c1c9bdc1bdcd85b608a1b6064820152608401610449565b92915050565b806000036112f8576005820180549060006112ef83612329565b91905055505050565b80600103611312576004820180549060006112ef83612329565b8060020361132c576006820180549060006112ef83612329565b60405162461bcd60e51b815260206004820152600c60248201526b496e76616c696420766f746560a01b6044820152606401610449565b6000805160206123438339815191525460ff166104ca57604051638dfc202b60e01b815260040160405180910390fd5b7ff0c57e16840df040f15088dc2f81fe391c3923bec73e23a9662efc9c229c6a0054600160401b900460ff166104ca57604051631afcd79f60e31b815260040160405180910390fd5b610ff7611393565b60405180610100016040528060608152602001606081526020016060815260200160001515815260200160001515815260200161143b60405180606001604052806000815260200160008152602001600081525090565b815260200160608152602001606081525090565b60006020828403121561146157600080fd5b5035919050565b6000815180845260005b8181101561148e57602081850181015186830182015201611472565b506000602082860101526020601f19601f83011685010191505092915050565b60006101008083526114c28184018a611468565b905082810360208401526114d68189611468565b905082810360408401526114ea8188611468565b86151560608501528515156080850152845160a0850152602085015160c0850152604085015160e0850152915061151e9050565b979650505050505050565b600082825180855260208086019550808260051b84010181860160005b8481101561159d57601f1986840301895281516060815181865261156c82870182611468565b838801516001600160a01b031687890152604093840151939096019290925250509783019790830190600101611546565b5090979650505050505050565b600082825180855260208086019550808260051b84010181860160005b8481101561159d57601f198684030189528151608081518186526115ed82870182611468565b838801511515878901526040808501511515908801526060938401516001600160a01b03169390960192909252505097830197908301906001016115c7565b600060208083018184528085518083526040925060408601915060408160051b87010184880160005b8381101561173e57603f198984030185528151610140815181865261167c82870182611468565b915050888201518582038a8701526116948282611468565b91505087820151858203898701526116ac8282611468565b9150506060808301516116c28288018215159052565b505060808281015180151587830152505060a082810151805187830152602081015160c0880152604081015160e0880152505060c082015185820361010087015261170d8282611529565b91505060e0820151915084810361012086015261172a81836115aa565b968901969450505090860190600101611655565b509098975050505050505050565b60006020828403121561175e57600080fd5b813567ffffffffffffffff81111561177557600080fd5b8201610140818503121561178857600080fd5b9392505050565b600080604083850312156117a257600080fd5b50508035926020909101359150565b6001600160a01b038116811461102a57600080fd5b600080604083850312156117d957600080fd5b8235915060208301356117eb816117b1565b809150509250929050565b60006020828403121561180857600080fd5b8135611788816117b1565b600181811c9082168061182757607f821691505b6020821081036109fc57634e487b7160e01b600052602260045260246000fd5b60208082526017908201527f50726f706f73616c20646f6573206e6f74206578697374000000000000000000604082015260600190565b6000815461188b81611813565b8085526020600183811680156118a857600181146118c2576118f0565b60ff1985168884015283151560051b8801830195506118f0565b866000528260002060005b858110156118e85781548a82018601529083019084016118cd565b890184019650505b505050505092915050565b60008282548085526020808601955060208260051b84010185600052602060002060005b8481101561159d57858303601f1901895260608084526119418185018461187e565b6001848101546001600160a01b0316868801526002850154604090960195909552998501999360039093019291909101905061191f565b60008282548085526020808601955060208260051b84010185600052602060002060005b8481101561159d57858303601f1901895260808084526119be8185018461187e565b60018481015460ff8082161515888a0152600882901c161515604088015260101c6001600160a01b0316606090960195909552998501999360029093019291909101905061199c565b602081526000610140806020840152611a2461016084018561187e565b601f1980858303016040860152611a3e826001880161187e565b915080858303016060860152611a57826002880161187e565b91506003860154611a6f6080870160ff831615159052565b611a8360a0870160ff8360081c1615159052565b50600486015460c0860152600586015460e086015260068601546101008601528085830301610120860152611abb82600788016118fb565b915080858303018386015250611ad48160088701611978565b95945050505050565b634e487b7160e01b600052604160045260246000fd5b634e487b7160e01b600052603260045260246000fd5b6000808335601e19843603018112611b2057600080fd5b83018035915067ffffffffffffffff821115611b3b57600080fd5b602001915036819003821315611b5057600080fd5b9250929050565b5b81811015610feb5760008155600101611b58565b601f821115611ba557806000526020600020601f840160051c81016020851015611b935750805b610bb6601f850160051c830182611b57565b505050565b600019600383901b1c191660019190911b1790565b67ffffffffffffffff831115611bd757611bd7611add565b611beb83611be58354611813565b83611b6c565b6000601f841160018114611c195760008515611c075750838201355b611c118682611baa565b845550610bb6565b600083815260209020601f19861690835b82811015611c4a5786850135825560209485019460019092019101611c2a565b5086821015611c675760001960f88860031b161c19848701351681555b505060018560011b0183555050505050565b6000813580151581146112cf57600080fd5b6000808335601e19843603018112611ca257600080fd5b83018035915067ffffffffffffffff821115611cbd57600080fd5b6020019150600581901b3603821315611b5057600080fd5b60008235605e19833603018112611ceb57600080fd5b9190910192915050565b634e487b7160e01b600052601160045260246000fd5b611d158154611813565b8015610feb57601f811160018114611d2f57505060009055565b826000526020600020611d4d601f840160051c820160018301611b57565b60008085559055505050565b600081356112cf816117b1565b611d708283611b09565b67ffffffffffffffff811115611d8857611d88611add565b611d9c81611d968554611813565b85611b6c565b6000601f821160018114611dca5760008315611db85750838201355b611dc28482611baa565b865550611e24565b600085815260209020601f19841690835b82811015611dfb5786850135825560209485019460019092019101611ddb565b5084821015611e185760001960f88660031b161c19848701351681555b505060018360011b0185555b50505050611e5b611e3760208401611d59565b6001830180546001600160a01b0319166001600160a01b0392909216919091179055565b604082013560028201555050565b600160401b831115611e7d57611e7d611add565b805483825580841015611ef757600381600302600381048314611ea257611ea2611cf5565b85600302600381048714611eb857611eb8611cf5565b6000858152602081209283019291909101905b82821015611ef257611edc82611d0b565b8060018301558060028301558382019150611ecb565b505050505b5060008181526020812083915b85811015611f3557611f1f611f198487611cd5565b83611d66565b6020929092019160039190910190600101611f04565b505050505050565b60008235607e19833603018112611ceb57600080fd5b611f5d8283611b09565b67ffffffffffffffff811115611f7557611f75611add565b611f8381611d968554611813565b6000601f821160018114611fb15760008315611f9f5750838201355b611fa98482611baa565b86555061200b565b600085815260209020601f19841690835b82811015611fe25786850135825560209485019460019092019101611fc2565b5084821015611fff5760001960f88660031b161c19848701351681555b505060018360011b0185555b505050506001810161203661202260208501611c79565b825490151560ff1660ff1991909116178255565b61205f61204560408501611c79565b82805461ff00191691151560081b61ff0016919091179055565b611ba561206e60608501611d59565b82805462010000600160b01b03191660109290921b62010000600160b01b0316919091179055565b600160401b8311156120aa576120aa611add565b8054838255808410156121245760016001600160ff1b0382811683146120d2576120d2611cf5565b80861686146120e3576120e3611cf5565b5060008360005260206000208360011b81018760011b820191505b8082101561211f5761210f82611d0b565b82848301556002820191506120fe565b505050505b5060008181526020812083915b85811015611f355761214c6121468487611f3d565b83611f53565b6020929092019160029190910190600101612131565b61216c8283611b09565b67ffffffffffffffff81111561218457612184611add565b61219281611d968554611813565b6000601f8211600181146121c057600083156121ae5750838201355b6121b88482611baa565b86555061221a565b600085815260209020601f19841690835b828110156121f157868501358255602094850194600190920191016121d1565b508482101561220e5760001960f88660031b161c19848701351681555b505060018360011b0185555b5050505061222b6020830183611b09565b612239818360018601611bbf565b50506122486040830183611b09565b612256818360028601611bbf565b50506003810161226b61202260608501611c79565b61227a61204560808501611c79565b5060a0820135600482015560c0820135600582015560e082013560068201556122a7610100830183611c8b565b6122b5818360078601611e69565b50506122c5610120830183611c8b565b6122d3818360088601612096565b50505050565b81835281816020850137506000828201602090810191909152601f909101601f19169091010190565b6040815260006123166040830186886122d9565b828103602084015261151e8185876122d9565b60006001820161233b5761233b611cf5565b506001019056fecd5ed15c6e187e77e9aee88184c21f4f2182ab5827cb3b7e07fbedcd63f03300a2646970667358221220a0c35e0dd069902cb7fba620b942442c9b05b41bf002c6dcc18668f16d002a0664736f6c63430008180033",
          "opcodes": "PUSH1 0x80 PUSH1 0x40 MSTORE CALLVALUE DUP1 ISZERO PUSH2 0x10 JUMPI PUSH1 0x0 DUP1 REVERT JUMPDEST POP PUSH2 0x2398 DUP1 PUSH2 0x20 PUSH1 0x0 CODECOPY PUSH1 0x0 RETURN INVALID PUSH1 0x80 PUSH1 0x40 MSTORE CALLVALUE DUP1 ISZERO PUSH2 0x10 JUMPI PUSH1 0x0 DUP1 REVERT JUMPDEST POP PUSH1 0x4 CALLDATASIZE LT PUSH2 0xEA JUMPI PUSH1 0x0 CALLDATALOAD PUSH1 0xE0 SHR DUP1 PUSH4 0x8129FC1C GT PUSH2 0x8C JUMPI DUP1 PUSH4 0x97B3418E GT PUSH2 0x66 JUMPI DUP1 PUSH4 0x97B3418E EQ PUSH2 0x1D7 JUMPI DUP1 PUSH4 0xDA35C664 EQ PUSH2 0x1EA JUMPI DUP1 PUSH4 0xEE473C7A EQ PUSH2 0x201 JUMPI DUP1 PUSH4 0xF2FDE38B EQ PUSH2 0x214 JUMPI PUSH1 0x0 DUP1 REVERT JUMPDEST DUP1 PUSH4 0x8129FC1C EQ PUSH2 0x18D JUMPI DUP1 PUSH4 0x8456CB59 EQ PUSH2 0x195 JUMPI DUP1 PUSH4 0x8DA5CB5B EQ PUSH2 0x19D JUMPI PUSH1 0x0 DUP1 REVERT JUMPDEST DUP1 PUSH4 0x5C975ABB GT PUSH2 0xC8 JUMPI DUP1 PUSH4 0x5C975ABB EQ PUSH2 0x13A JUMPI DUP1 PUSH4 0x62564C48 EQ PUSH2 0x15D JUMPI DUP1 PUSH4 0x715018A6 EQ PUSH2 0x172 JUMPI DUP1 PUSH4 0x77EE47F6 EQ PUSH2 0x17A JUMPI PUSH1 0x0 DUP1 REVERT JUMPDEST DUP1 PUSH4 0x13CF08B EQ PUSH2 0xEF JUMPI DUP1 PUSH4 0x1B7864C1 EQ PUSH2 0x11D JUMPI DUP1 PUSH4 0x3F4BA83A EQ PUSH2 0x132 JUMPI JUMPDEST PUSH1 0x0 DUP1 REVERT JUMPDEST PUSH2 0x102 PUSH2 0xFD CALLDATASIZE PUSH1 0x4 PUSH2 0x144F JUMP JUMPDEST PUSH2 0x227 JUMP JUMPDEST PUSH1 0x40 MLOAD PUSH2 0x114 SWAP7 SWAP6 SWAP5 SWAP4 SWAP3 SWAP2 SWAP1 PUSH2 0x14AE JUMP JUMPDEST PUSH1 0x40 MLOAD DUP1 SWAP2 SUB SWAP1 RETURN JUMPDEST PUSH2 0x130 PUSH2 0x12B CALLDATASIZE PUSH1 0x4 PUSH2 0x144F JUMP JUMPDEST PUSH2 0x418 JUMP JUMPDEST STOP JUMPDEST PUSH2 0x130 PUSH2 0x4BA JUMP JUMPDEST PUSH1 0x0 DUP1 MLOAD PUSH1 0x20 PUSH2 0x2343 DUP4 CODECOPY DUP2 MLOAD SWAP2 MSTORE SLOAD PUSH1 0xFF AND PUSH1 0x40 MLOAD SWAP1 ISZERO ISZERO DUP2 MSTORE PUSH1 0x20 ADD PUSH2 0x114 JUMP JUMPDEST PUSH2 0x165 PUSH2 0x4CC JUMP JUMPDEST PUSH1 0x40 MLOAD PUSH2 0x114 SWAP2 SWAP1 PUSH2 0x162C JUMP JUMPDEST PUSH2 0x130 PUSH2 0xA02 JUMP JUMPDEST PUSH2 0x130 PUSH2 0x188 CALLDATASIZE PUSH1 0x4 PUSH2 0x174C JUMP JUMPDEST PUSH2 0xA14 JUMP JUMPDEST PUSH2 0x130 PUSH2 0xAAE JUMP JUMPDEST PUSH2 0x130 PUSH2 0xBBD JUMP JUMPDEST PUSH32 0x9016D09D72D40FDAE2FD8CEAC6B6234C7706214FD39C1CD1E609A0528C199300 SLOAD PUSH1 0x40 MLOAD PUSH1 0x1 PUSH1 0x1 PUSH1 0xA0 SHL SUB SWAP1 SWAP2 AND DUP2 MSTORE PUSH1 0x20 ADD PUSH2 0x114 JUMP JUMPDEST PUSH2 0x130 PUSH2 0x1E5 CALLDATASIZE PUSH1 0x4 PUSH2 0x178F JUMP JUMPDEST PUSH2 0xBCD JUMP JUMPDEST PUSH2 0x1F3 PUSH1 0x1 SLOAD DUP2 JUMP JUMPDEST PUSH1 0x40 MLOAD SWAP1 DUP2 MSTORE PUSH1 0x20 ADD PUSH2 0x114 JUMP JUMPDEST PUSH2 0x130 PUSH2 0x20F CALLDATASIZE PUSH1 0x4 PUSH2 0x17C6 JUMP JUMPDEST PUSH2 0xD77 JUMP JUMPDEST PUSH2 0x130 PUSH2 0x222 CALLDATASIZE PUSH1 0x4 PUSH2 0x17F6 JUMP JUMPDEST PUSH2 0xFEF JUMP JUMPDEST PUSH1 0x0 PUSH1 0x20 DUP2 SWAP1 MSTORE SWAP1 DUP2 MSTORE PUSH1 0x40 SWAP1 KECCAK256 DUP1 SLOAD DUP2 SWAP1 PUSH2 0x242 SWAP1 PUSH2 0x1813 JUMP JUMPDEST DUP1 PUSH1 0x1F ADD PUSH1 0x20 DUP1 SWAP2 DIV MUL PUSH1 0x20 ADD PUSH1 0x40 MLOAD SWAP1 DUP2 ADD PUSH1 0x40 MSTORE DUP1 SWAP3 SWAP2 SWAP1 DUP2 DUP2 MSTORE PUSH1 0x20 ADD DUP3 DUP1 SLOAD PUSH2 0x26E SWAP1 PUSH2 0x1813 JUMP JUMPDEST DUP1 ISZERO PUSH2 0x2BB JUMPI DUP1 PUSH1 0x1F LT PUSH2 0x290 JUMPI PUSH2 0x100 DUP1 DUP4 SLOAD DIV MUL DUP4 MSTORE SWAP2 PUSH1 0x20 ADD SWAP2 PUSH2 0x2BB JUMP JUMPDEST DUP3 ADD SWAP2 SWAP1 PUSH1 0x0 MSTORE PUSH1 0x20 PUSH1 0x0 KECCAK256 SWAP1 JUMPDEST DUP2 SLOAD DUP2 MSTORE SWAP1 PUSH1 0x1 ADD SWAP1 PUSH1 0x20 ADD DUP1 DUP4 GT PUSH2 0x29E JUMPI DUP3 SWAP1 SUB PUSH1 0x1F AND DUP3 ADD SWAP2 JUMPDEST POP POP POP POP POP SWAP1 DUP1 PUSH1 0x1 ADD DUP1 SLOAD PUSH2 0x2D0 SWAP1 PUSH2 0x1813 JUMP JUMPDEST DUP1 PUSH1 0x1F ADD PUSH1 0x20 DUP1 SWAP2 DIV MUL PUSH1 0x20 ADD PUSH1 0x40 MLOAD SWAP1 DUP2 ADD PUSH1 0x40 MSTORE DUP1 SWAP3 SWAP2 SWAP1 DUP2 DUP2 MSTORE PUSH1 0x20 ADD DUP3 DUP1 SLOAD PUSH2 0x2FC SWAP1 PUSH2 0x1813 JUMP JUMPDEST DUP1 ISZERO PUSH2 0x349 JUMPI DUP1 PUSH1 0x1F LT PUSH2 0x31E JUMPI PUSH2 0x100 DUP1 DUP4 SLOAD DIV MUL DUP4 MSTORE SWAP2 PUSH1 0x20 ADD SWAP2 PUSH2 0x349 JUMP JUMPDEST DUP3 ADD SWAP2 SWAP1 PUSH1 0x0 MSTORE PUSH1 0x20 PUSH1 0x0 KECCAK256 SWAP1 JUMPDEST DUP2 SLOAD DUP2 MSTORE SWAP1 PUSH1 0x1 ADD SWAP1 PUSH1 0x20 ADD DUP1 DUP4 GT PUSH2 0x32C JUMPI DUP3 SWAP1 SUB PUSH1 0x1F AND DUP3 ADD SWAP2 JUMPDEST POP POP POP POP POP SWAP1 DUP1 PUSH1 0x2 ADD DUP1 SLOAD PUSH2 0x35E SWAP1 PUSH2 0x1813 JUMP JUMPDEST DUP1 PUSH1 0x1F ADD PUSH1 0x20 DUP1 SWAP2 DIV MUL PUSH1 0x20 ADD PUSH1 0x40 MLOAD SWAP1 DUP2 ADD PUSH1 0x40 MSTORE DUP1 SWAP3 SWAP2 SWAP1 DUP2 DUP2 MSTORE PUSH1 0x20 ADD DUP3 DUP1 SLOAD PUSH2 0x38A SWAP1 PUSH2 0x1813 JUMP JUMPDEST DUP1 ISZERO PUSH2 0x3D7 JUMPI DUP1 PUSH1 0x1F LT PUSH2 0x3AC JUMPI PUSH2 0x100 DUP1 DUP4 SLOAD DIV MUL DUP4 MSTORE SWAP2 PUSH1 0x20 ADD SWAP2 PUSH2 0x3D7 JUMP JUMPDEST DUP3 ADD SWAP2 SWAP1 PUSH1 0x0 MSTORE PUSH1 0x20 PUSH1 0x0 KECCAK256 SWAP1 JUMPDEST DUP2 SLOAD DUP2 MSTORE SWAP1 PUSH1 0x1 ADD SWAP1 PUSH1 0x20 ADD DUP1 DUP4 GT PUSH2 0x3BA JUMPI DUP3 SWAP1 SUB PUSH1 0x1F AND DUP3 ADD SWAP2 JUMPDEST POP POP POP POP PUSH1 0x3 DUP4 ADD SLOAD PUSH1 0x40 DUP1 MLOAD PUSH1 0x60 DUP2 ADD DUP3 MSTORE PUSH1 0x4 DUP7 ADD SLOAD DUP2 MSTORE PUSH1 0x5 DUP7 ADD SLOAD PUSH1 0x20 DUP3 ADD MSTORE PUSH1 0x6 SWAP1 SWAP6 ADD SLOAD SWAP1 DUP6 ADD MSTORE SWAP2 SWAP3 PUSH1 0xFF DUP1 DUP5 AND SWAP4 PUSH2 0x100 SWAP1 DIV AND SWAP2 POP DUP7 JUMP JUMPDEST PUSH2 0x420 PUSH2 0x102D JUMP JUMPDEST PUSH2 0x428 PUSH2 0x1088 JUMP JUMPDEST PUSH1 0x1 SLOAD DUP2 LT PUSH2 0x452 JUMPI PUSH1 0x40 MLOAD PUSH3 0x461BCD PUSH1 0xE5 SHL DUP2 MSTORE PUSH1 0x4 ADD PUSH2 0x449 SWAP1 PUSH2 0x1847 JUMP JUMPDEST PUSH1 0x40 MLOAD DUP1 SWAP2 SUB SWAP1 REVERT JUMPDEST PUSH1 0x0 DUP2 DUP2 MSTORE PUSH1 0x20 DUP2 SWAP1 MSTORE PUSH1 0x40 SWAP1 DUP2 SWAP1 KECCAK256 PUSH1 0x3 DUP2 ADD DUP1 SLOAD PUSH2 0xFF00 NOT DUP2 AND PUSH2 0x100 SWAP2 DUP3 SWAP1 DIV PUSH1 0xFF AND ISZERO SWAP1 SWAP2 MUL OR SWAP1 SSTORE SWAP1 MLOAD DUP3 SWAP2 PUSH32 0xCB95882F06F221718B79AE67F60EAE0A8CB05C652BDE85806D28094728C5B7A2 SWAP2 PUSH2 0x4AF SWAP2 SWAP1 PUSH2 0x1A07 JUMP JUMPDEST PUSH1 0x40 MLOAD DUP1 SWAP2 SUB SWAP1 LOG2 POP JUMP JUMPDEST PUSH2 0x4C2 PUSH2 0x102D JUMP JUMPDEST PUSH2 0x4CA PUSH2 0x10B9 JUMP JUMPDEST JUMP JUMPDEST PUSH1 0x60 PUSH1 0x0 PUSH1 0x1 SLOAD GT PUSH2 0x515 JUMPI PUSH1 0x40 MLOAD PUSH3 0x461BCD PUSH1 0xE5 SHL DUP2 MSTORE PUSH1 0x20 PUSH1 0x4 DUP3 ADD MSTORE PUSH1 0x12 PUSH1 0x24 DUP3 ADD MSTORE PUSH18 0x139BC81C1C9BDC1BDCD85B1CC8199BDD5B99 PUSH1 0x72 SHL PUSH1 0x44 DUP3 ADD MSTORE PUSH1 0x64 ADD PUSH2 0x449 JUMP JUMPDEST PUSH1 0x0 PUSH1 0x1 SLOAD PUSH8 0xFFFFFFFFFFFFFFFF DUP2 GT ISZERO PUSH2 0x532 JUMPI PUSH2 0x532 PUSH2 0x1ADD JUMP JUMPDEST PUSH1 0x40 MLOAD SWAP1 DUP1 DUP3 MSTORE DUP1 PUSH1 0x20 MUL PUSH1 0x20 ADD DUP3 ADD PUSH1 0x40 MSTORE DUP1 ISZERO PUSH2 0x56B JUMPI DUP2 PUSH1 0x20 ADD JUMPDEST PUSH2 0x558 PUSH2 0x13E4 JUMP JUMPDEST DUP2 MSTORE PUSH1 0x20 ADD SWAP1 PUSH1 0x1 SWAP1 SUB SWAP1 DUP2 PUSH2 0x550 JUMPI SWAP1 POP JUMPDEST POP SWAP1 POP PUSH1 0x0 JUMPDEST PUSH1 0x1 SLOAD DUP2 LT ISZERO PUSH2 0x9FC JUMPI PUSH1 0x0 DUP2 DUP2 MSTORE PUSH1 0x20 DUP2 SWAP1 MSTORE PUSH1 0x40 SWAP1 DUP2 SWAP1 KECCAK256 DUP2 MLOAD PUSH2 0x100 DUP2 ADD SWAP1 SWAP3 MSTORE DUP1 SLOAD DUP3 SWAP1 DUP3 SWAP1 PUSH2 0x5A4 SWAP1 PUSH2 0x1813 JUMP JUMPDEST DUP1 PUSH1 0x1F ADD PUSH1 0x20 DUP1 SWAP2 DIV MUL PUSH1 0x20 ADD PUSH1 0x40 MLOAD SWAP1 DUP2 ADD PUSH1 0x40 MSTORE DUP1 SWAP3 SWAP2 SWAP1 DUP2 DUP2 MSTORE PUSH1 0x20 ADD DUP3 DUP1 SLOAD PUSH2 0x5D0 SWAP1 PUSH2 0x1813 JUMP JUMPDEST DUP1 ISZERO PUSH2 0x61D JUMPI DUP1 PUSH1 0x1F LT PUSH2 0x5F2 JUMPI PUSH2 0x100 DUP1 DUP4 SLOAD DIV MUL DUP4 MSTORE SWAP2 PUSH1 0x20 ADD SWAP2 PUSH2 0x61D JUMP JUMPDEST DUP3 ADD SWAP2 SWAP1 PUSH1 0x0 MSTORE PUSH1 0x20 PUSH1 0x0 KECCAK256 SWAP1 JUMPDEST DUP2 SLOAD DUP2 MSTORE SWAP1 PUSH1 0x1 ADD SWAP1 PUSH1 0x20 ADD DUP1 DUP4 GT PUSH2 0x600 JUMPI DUP3 SWAP1 SUB PUSH1 0x1F AND DUP3 ADD SWAP2 JUMPDEST POP POP POP POP POP DUP2 MSTORE PUSH1 0x20 ADD PUSH1 0x1 DUP3 ADD DUP1 SLOAD PUSH2 0x636 SWAP1 PUSH2 0x1813 JUMP JUMPDEST DUP1 PUSH1 0x1F ADD PUSH1 0x20 DUP1 SWAP2 DIV MUL PUSH1 0x20 ADD PUSH1 0x40 MLOAD SWAP1 DUP2 ADD PUSH1 0x40 MSTORE DUP1 SWAP3 SWAP2 SWAP1 DUP2 DUP2 MSTORE PUSH1 0x20 ADD DUP3 DUP1 SLOAD PUSH2 0x662 SWAP1 PUSH2 0x1813 JUMP JUMPDEST DUP1 ISZERO PUSH2 0x6AF JUMPI DUP1 PUSH1 0x1F LT PUSH2 0x684 JUMPI PUSH2 0x100 DUP1 DUP4 SLOAD DIV MUL DUP4 MSTORE SWAP2 PUSH1 0x20 ADD SWAP2 PUSH2 0x6AF JUMP JUMPDEST DUP3 ADD SWAP2 SWAP1 PUSH1 0x0 MSTORE PUSH1 0x20 PUSH1 0x0 KECCAK256 SWAP1 JUMPDEST DUP2 SLOAD DUP2 MSTORE SWAP1 PUSH1 0x1 ADD SWAP1 PUSH1 0x20 ADD DUP1 DUP4 GT PUSH2 0x692 JUMPI DUP3 SWAP1 SUB PUSH1 0x1F AND DUP3 ADD SWAP2 JUMPDEST POP POP POP POP POP DUP2 MSTORE PUSH1 0x20 ADD PUSH1 0x2 DUP3 ADD DUP1 SLOAD PUSH2 0x6C8 SWAP1 PUSH2 0x1813 JUMP JUMPDEST DUP1 PUSH1 0x1F ADD PUSH1 0x20 DUP1 SWAP2 DIV MUL PUSH1 0x20 ADD PUSH1 0x40 MLOAD SWAP1 DUP2 ADD PUSH1 0x40 MSTORE DUP1 SWAP3 SWAP2 SWAP1 DUP2 DUP2 MSTORE PUSH1 0x20 ADD DUP3 DUP1 SLOAD PUSH2 0x6F4 SWAP1 PUSH2 0x1813 JUMP JUMPDEST DUP1 ISZERO PUSH2 0x741 JUMPI DUP1 PUSH1 0x1F LT PUSH2 0x716 JUMPI PUSH2 0x100 DUP1 DUP4 SLOAD DIV MUL DUP4 MSTORE SWAP2 PUSH1 0x20 ADD SWAP2 PUSH2 0x741 JUMP JUMPDEST DUP3 ADD SWAP2 SWAP1 PUSH1 0x0 MSTORE PUSH1 0x20 PUSH1 0x0 KECCAK256 SWAP1 JUMPDEST DUP2 SLOAD DUP2 MSTORE SWAP1 PUSH1 0x1 ADD SWAP1 PUSH1 0x20 ADD DUP1 DUP4 GT PUSH2 0x724 JUMPI DUP3 SWAP1 SUB PUSH1 0x1F AND DUP3 ADD SWAP2 JUMPDEST POP POP POP SWAP2 DUP4 MSTORE POP POP PUSH1 0x3 DUP3 ADD SLOAD PUSH1 0xFF DUP1 DUP3 AND ISZERO ISZERO PUSH1 0x20 DUP1 DUP6 ADD SWAP2 SWAP1 SWAP2 MSTORE PUSH2 0x100 SWAP1 SWAP3 DIV AND ISZERO ISZERO PUSH1 0x40 DUP1 DUP5 ADD SWAP2 SWAP1 SWAP2 MSTORE DUP1 MLOAD PUSH1 0x60 DUP2 DUP2 ADD DUP4 MSTORE PUSH1 0x4 DUP7 ADD SLOAD DUP3 MSTORE PUSH1 0x5 DUP7 ADD SLOAD DUP3 DUP6 ADD MSTORE PUSH1 0x6 DUP7 ADD SLOAD DUP3 DUP5 ADD MSTORE DUP5 ADD MSTORE PUSH1 0x7 DUP5 ADD DUP1 SLOAD DUP3 MLOAD DUP2 DUP6 MUL DUP2 ADD DUP6 ADD SWAP1 SWAP4 MSTORE DUP1 DUP4 MSTORE PUSH1 0x80 SWAP1 SWAP5 ADD SWAP4 SWAP2 SWAP3 SWAP1 SWAP2 SWAP1 PUSH1 0x0 SWAP1 DUP5 ADD JUMPDEST DUP3 DUP3 LT ISZERO PUSH2 0x8A2 JUMPI DUP4 DUP3 SWAP1 PUSH1 0x0 MSTORE PUSH1 0x20 PUSH1 0x0 KECCAK256 SWAP1 PUSH1 0x3 MUL ADD PUSH1 0x40 MLOAD DUP1 PUSH1 0x60 ADD PUSH1 0x40 MSTORE SWAP1 DUP2 PUSH1 0x0 DUP3 ADD DUP1 SLOAD PUSH2 0x7EE SWAP1 PUSH2 0x1813 JUMP JUMPDEST DUP1 PUSH1 0x1F ADD PUSH1 0x20 DUP1 SWAP2 DIV MUL PUSH1 0x20 ADD PUSH1 0x40 MLOAD SWAP1 DUP2 ADD PUSH1 0x40 MSTORE DUP1 SWAP3 SWAP2 SWAP1 DUP2 DUP2 MSTORE PUSH1 0x20 ADD DUP3 DUP1 SLOAD PUSH2 0x81A SWAP1 PUSH2 0x1813 JUMP JUMPDEST DUP1 ISZERO PUSH2 0x867 JUMPI DUP1 PUSH1 0x1F LT PUSH2 0x83C JUMPI PUSH2 0x100 DUP1 DUP4 SLOAD DIV MUL DUP4 MSTORE SWAP2 PUSH1 0x20 ADD SWAP2 PUSH2 0x867 JUMP JUMPDEST DUP3 ADD SWAP2 SWAP1 PUSH1 0x0 MSTORE PUSH1 0x20 PUSH1 0x0 KECCAK256 SWAP1 JUMPDEST DUP2 SLOAD DUP2 MSTORE SWAP1 PUSH1 0x1 ADD SWAP1 PUSH1 0x20 ADD DUP1 DUP4 GT PUSH2 0x84A JUMPI DUP3 SWAP1 SUB PUSH1 0x1F AND DUP3 ADD SWAP2 JUMPDEST POP POP POP SWAP2 DUP4 MSTORE POP POP PUSH1 0x1 DUP3 DUP2 ADD SLOAD PUSH1 0x1 PUSH1 0x1 PUSH1 0xA0 SHL SUB AND PUSH1 0x20 DUP1 DUP5 ADD SWAP2 SWAP1 SWAP2 MSTORE PUSH1 0x2 SWAP1 SWAP4 ADD SLOAD PUSH1 0x40 SWAP1 SWAP3 ADD SWAP2 SWAP1 SWAP2 MSTORE SWAP2 DUP4 MSTORE SWAP3 ADD SWAP2 ADD PUSH2 0x7BB JUMP JUMPDEST POP POP POP POP DUP2 MSTORE PUSH1 0x20 ADD PUSH1 0x8 DUP3 ADD DUP1 SLOAD DUP1 PUSH1 0x20 MUL PUSH1 0x20 ADD PUSH1 0x40 MLOAD SWAP1 DUP2 ADD PUSH1 0x40 MSTORE DUP1 SWAP3 SWAP2 SWAP1 DUP2 DUP2 MSTORE PUSH1 0x20 ADD PUSH1 0x0 SWAP1 JUMPDEST DUP3 DUP3 LT ISZERO PUSH2 0x9CF JUMPI DUP4 DUP3 SWAP1 PUSH1 0x0 MSTORE PUSH1 0x20 PUSH1 0x0 KECCAK256 SWAP1 PUSH1 0x2 MUL ADD PUSH1 0x40 MLOAD DUP1 PUSH1 0x80 ADD PUSH1 0x40 MSTORE SWAP1 DUP2 PUSH1 0x0 DUP3 ADD DUP1 SLOAD PUSH2 0x902 SWAP1 PUSH2 0x1813 JUMP JUMPDEST DUP1 PUSH1 0x1F ADD PUSH1 0x20 DUP1 SWAP2 DIV MUL PUSH1 0x20 ADD PUSH1 0x40 MLOAD SWAP1 DUP2 ADD PUSH1 0x40 MSTORE DUP1 SWAP3 SWAP2 SWAP1 DUP2 DUP2 MSTORE PUSH1 0x20 ADD DUP3 DUP1 SLOAD PUSH2 0x92E SWAP1 PUSH2 0x1813 JUMP JUMPDEST DUP1 ISZERO PUSH2 0x97B JUMPI DUP1 PUSH1 0x1F LT PUSH2 0x950 JUMPI PUSH2 0x100 DUP1 DUP4 SLOAD DIV MUL DUP4 MSTORE SWAP2 PUSH1 0x20 ADD SWAP2 PUSH2 0x97B JUMP JUMPDEST DUP3 ADD SWAP2 SWAP1 PUSH1 0x0 MSTORE PUSH1 0x20 PUSH1 0x0 KECCAK256 SWAP1 JUMPDEST DUP2 SLOAD DUP2 MSTORE SWAP1 PUSH1 0x1 ADD SWAP1 PUSH1 0x20 ADD DUP1 DUP4 GT PUSH2 0x95E JUMPI DUP3 SWAP1 SUB PUSH1 0x1F AND DUP3 ADD SWAP2 JUMPDEST POP POP POP SWAP2 DUP4 MSTORE POP POP PUSH1 0x1 SWAP2 DUP3 ADD SLOAD PUSH1 0xFF DUP1 DUP3 AND ISZERO ISZERO PUSH1 0x20 DUP1 DUP6 ADD SWAP2 SWAP1 SWAP2 MSTORE PUSH2 0x100 DUP4 DIV SWAP1 SWAP2 AND ISZERO ISZERO PUSH1 0x40 DUP5 ADD MSTORE PUSH3 0x10000 SWAP1 SWAP2 DIV PUSH1 0x1 PUSH1 0x1 PUSH1 0xA0 SHL SUB AND PUSH1 0x60 SWAP1 SWAP3 ADD SWAP2 SWAP1 SWAP2 MSTORE SWAP2 DUP4 MSTORE SWAP3 SWAP1 SWAP3 ADD SWAP2 ADD PUSH2 0x8CF JUMP JUMPDEST POP POP POP POP DUP2 MSTORE POP POP DUP3 DUP3 DUP2 MLOAD DUP2 LT PUSH2 0x9E9 JUMPI PUSH2 0x9E9 PUSH2 0x1AF3 JUMP JUMPDEST PUSH1 0x20 SWAP1 DUP2 MUL SWAP2 SWAP1 SWAP2 ADD ADD MSTORE PUSH1 0x1 ADD PUSH2 0x571 JUMP JUMPDEST POP SWAP2 SWAP1 POP JUMP JUMPDEST PUSH2 0xA0A PUSH2 0x102D JUMP JUMPDEST PUSH2 0x4CA PUSH1 0x0 PUSH2 0x1119 JUMP JUMPDEST PUSH2 0xA1C PUSH2 0x102D JUMP JUMPDEST PUSH2 0xA24 PUSH2 0x1088 JUMP JUMPDEST PUSH1 0x1 SLOAD PUSH1 0x0 SWAP1 DUP2 MSTORE PUSH1 0x20 DUP2 SWAP1 MSTORE PUSH1 0x40 SWAP1 KECCAK256 DUP2 SWAP1 PUSH2 0xA41 DUP3 DUP3 PUSH2 0x2162 JUMP JUMPDEST POP POP PUSH1 0x1 SLOAD PUSH32 0x2DA739368218397C1F8267A798BCE5722BAE1A51D2855FB923312EDF27460C60 PUSH2 0xA71 DUP4 DUP1 PUSH2 0x1B09 JUMP JUMPDEST PUSH2 0xA7E PUSH1 0x20 DUP7 ADD DUP7 PUSH2 0x1B09 JUMP JUMPDEST PUSH1 0x40 MLOAD PUSH2 0xA8E SWAP5 SWAP4 SWAP3 SWAP2 SWAP1 PUSH2 0x2302 JUMP JUMPDEST PUSH1 0x40 MLOAD DUP1 SWAP2 SUB SWAP1 LOG2 PUSH1 0x1 DUP1 SLOAD SWAP1 PUSH1 0x0 PUSH2 0xAA6 DUP4 PUSH2 0x2329 JUMP JUMPDEST SWAP2 SWAP1 POP SSTORE POP POP JUMP JUMPDEST PUSH32 0xF0C57E16840DF040F15088DC2F81FE391C3923BEC73E23A9662EFC9C229C6A00 DUP1 SLOAD PUSH1 0x1 PUSH1 0x40 SHL DUP2 DIV PUSH1 0xFF AND ISZERO SWAP1 PUSH8 0xFFFFFFFFFFFFFFFF AND PUSH1 0x0 DUP2 ISZERO DUP1 ISZERO PUSH2 0xAF4 JUMPI POP DUP3 JUMPDEST SWAP1 POP PUSH1 0x0 DUP3 PUSH8 0xFFFFFFFFFFFFFFFF AND PUSH1 0x1 EQ DUP1 ISZERO PUSH2 0xB11 JUMPI POP ADDRESS EXTCODESIZE ISZERO JUMPDEST SWAP1 POP DUP2 ISZERO DUP1 ISZERO PUSH2 0xB1F JUMPI POP DUP1 ISZERO JUMPDEST ISZERO PUSH2 0xB3D JUMPI PUSH1 0x40 MLOAD PUSH4 0xF92EE8A9 PUSH1 0xE0 SHL DUP2 MSTORE PUSH1 0x4 ADD PUSH1 0x40 MLOAD DUP1 SWAP2 SUB SWAP1 REVERT JUMPDEST DUP5 SLOAD PUSH8 0xFFFFFFFFFFFFFFFF NOT AND PUSH1 0x1 OR DUP6 SSTORE DUP4 ISZERO PUSH2 0xB67 JUMPI DUP5 SLOAD PUSH1 0xFF PUSH1 0x40 SHL NOT AND PUSH1 0x1 PUSH1 0x40 SHL OR DUP6 SSTORE JUMPDEST PUSH2 0xB70 CALLER PUSH2 0x118A JUMP JUMPDEST DUP4 ISZERO PUSH2 0xBB6 JUMPI DUP5 SLOAD PUSH1 0xFF PUSH1 0x40 SHL NOT AND DUP6 SSTORE PUSH1 0x40 MLOAD PUSH1 0x1 DUP2 MSTORE PUSH32 0xC7F505B2F371AE2175EE4913F4499E1F2633A7B5936321EED1CDAEB6115181D2 SWAP1 PUSH1 0x20 ADD PUSH1 0x40 MLOAD DUP1 SWAP2 SUB SWAP1 LOG1 JUMPDEST POP POP POP POP POP JUMP JUMPDEST PUSH2 0xBC5 PUSH2 0x102D JUMP JUMPDEST PUSH2 0x4CA PUSH2 0x119B JUMP JUMPDEST PUSH2 0xBD5 PUSH2 0x1088 JUMP JUMPDEST PUSH1 0x1 SLOAD DUP3 LT PUSH2 0xBF6 JUMPI PUSH1 0x40 MLOAD PUSH3 0x461BCD PUSH1 0xE5 SHL DUP2 MSTORE PUSH1 0x4 ADD PUSH2 0x449 SWAP1 PUSH2 0x1847 JUMP JUMPDEST PUSH1 0x0 DUP3 DUP2 MSTORE PUSH1 0x20 DUP2 SWAP1 MSTORE PUSH1 0x40 SWAP1 KECCAK256 PUSH1 0x3 ADD SLOAD PUSH2 0x100 SWAP1 DIV PUSH1 0xFF AND PUSH2 0xC55 JUMPI PUSH1 0x40 MLOAD PUSH3 0x461BCD PUSH1 0xE5 SHL DUP2 MSTORE PUSH1 0x20 PUSH1 0x4 DUP3 ADD MSTORE PUSH1 0x16 PUSH1 0x24 DUP3 ADD MSTORE PUSH22 0x50726F706F73616C206973206E6F7420616374697665 PUSH1 0x50 SHL PUSH1 0x44 DUP3 ADD MSTORE PUSH1 0x64 ADD PUSH2 0x449 JUMP JUMPDEST PUSH1 0x0 DUP3 DUP2 MSTORE PUSH1 0x20 DUP2 SWAP1 MSTORE PUSH1 0x40 DUP2 KECCAK256 SWAP1 PUSH2 0xC6E DUP3 CALLER PUSH2 0x11E4 JUMP JUMPDEST PUSH1 0x1 DUP2 ADD SLOAD SWAP1 SWAP2 POP PUSH1 0xFF AND PUSH2 0xCC5 JUMPI PUSH1 0x40 MLOAD PUSH3 0x461BCD PUSH1 0xE5 SHL DUP2 MSTORE PUSH1 0x20 PUSH1 0x4 DUP3 ADD MSTORE PUSH1 0x1C PUSH1 0x24 DUP3 ADD MSTORE PUSH32 0x596F7520617265206E6F7420656C696769626C6520746F20766F746500000000 PUSH1 0x44 DUP3 ADD MSTORE PUSH1 0x64 ADD PUSH2 0x449 JUMP JUMPDEST PUSH1 0x1 DUP2 ADD SLOAD PUSH2 0x100 SWAP1 DIV PUSH1 0xFF AND ISZERO PUSH2 0xD18 JUMPI PUSH1 0x40 MLOAD PUSH3 0x461BCD PUSH1 0xE5 SHL DUP2 MSTORE PUSH1 0x20 PUSH1 0x4 DUP3 ADD MSTORE PUSH1 0x16 PUSH1 0x24 DUP3 ADD MSTORE PUSH22 0x165BDD481A185D9948185B1C9958591E481D9BDD1959 PUSH1 0x52 SHL PUSH1 0x44 DUP3 ADD MSTORE PUSH1 0x64 ADD PUSH2 0x449 JUMP JUMPDEST PUSH2 0xD22 DUP3 DUP5 PUSH2 0x12D5 JUMP JUMPDEST PUSH1 0x1 DUP2 ADD DUP1 SLOAD PUSH2 0xFF00 NOT AND PUSH2 0x100 OR SWAP1 SSTORE PUSH1 0x40 MLOAD DUP5 SWAP1 CALLER SWAP1 PUSH32 0xABE5D78D7C4AFF0EA01D11F7334D89BF989FAEF45AF0C780ACF4CCFF6BD5C8DB SWAP1 PUSH2 0xD69 SWAP1 DUP8 DUP2 MSTORE PUSH1 0x20 ADD SWAP1 JUMP JUMPDEST PUSH1 0x40 MLOAD DUP1 SWAP2 SUB SWAP1 LOG3 POP POP POP POP JUMP JUMPDEST PUSH2 0xD7F PUSH2 0x1088 JUMP JUMPDEST PUSH1 0x1 SLOAD DUP3 LT PUSH2 0xDA0 JUMPI PUSH1 0x40 MLOAD PUSH3 0x461BCD PUSH1 0xE5 SHL DUP2 MSTORE PUSH1 0x4 ADD PUSH2 0x449 SWAP1 PUSH2 0x1847 JUMP JUMPDEST PUSH1 0x0 DUP3 DUP2 MSTORE PUSH1 0x20 DUP2 SWAP1 MSTORE PUSH1 0x40 SWAP1 KECCAK256 PUSH1 0x3 ADD SLOAD PUSH2 0x100 SWAP1 DIV PUSH1 0xFF AND PUSH2 0xDFF JUMPI PUSH1 0x40 MLOAD PUSH3 0x461BCD PUSH1 0xE5 SHL DUP2 MSTORE PUSH1 0x20 PUSH1 0x4 DUP3 ADD MSTORE PUSH1 0x16 PUSH1 0x24 DUP3 ADD MSTORE PUSH22 0x50726F706F73616C206973206E6F7420616374697665 PUSH1 0x50 SHL PUSH1 0x44 DUP3 ADD MSTORE PUSH1 0x64 ADD PUSH2 0x449 JUMP JUMPDEST PUSH1 0x0 DUP3 DUP2 MSTORE PUSH1 0x20 DUP2 SWAP1 MSTORE PUSH1 0x40 DUP2 KECCAK256 SWAP1 PUSH2 0xE18 DUP3 CALLER PUSH2 0x11E4 JUMP JUMPDEST PUSH1 0x1 DUP2 ADD SLOAD SWAP1 SWAP2 POP PUSH1 0xFF AND PUSH2 0xE6F JUMPI PUSH1 0x40 MLOAD PUSH3 0x461BCD PUSH1 0xE5 SHL DUP2 MSTORE PUSH1 0x20 PUSH1 0x4 DUP3 ADD MSTORE PUSH1 0x1C PUSH1 0x24 DUP3 ADD MSTORE PUSH32 0x596F7520617265206E6F7420656C696769626C6520746F20766F746500000000 PUSH1 0x44 DUP3 ADD MSTORE PUSH1 0x64 ADD PUSH2 0x449 JUMP JUMPDEST PUSH1 0x1 DUP2 ADD SLOAD PUSH2 0x100 SWAP1 DIV PUSH1 0xFF AND ISZERO PUSH2 0xEC2 JUMPI PUSH1 0x40 MLOAD PUSH3 0x461BCD PUSH1 0xE5 SHL DUP2 MSTORE PUSH1 0x20 PUSH1 0x4 DUP3 ADD MSTORE PUSH1 0x16 PUSH1 0x24 DUP3 ADD MSTORE PUSH22 0x165BDD481A185D9948185B1C9958591E481D9BDD1959 PUSH1 0x52 SHL PUSH1 0x44 DUP3 ADD MSTORE PUSH1 0x64 ADD PUSH2 0x449 JUMP JUMPDEST PUSH1 0x0 JUMPDEST PUSH1 0x7 DUP4 ADD SLOAD DUP2 LT ISZERO PUSH2 0xFA2 JUMPI DUP4 PUSH1 0x1 PUSH1 0x1 PUSH1 0xA0 SHL SUB AND DUP4 PUSH1 0x7 ADD DUP3 DUP2 SLOAD DUP2 LT PUSH2 0xEF0 JUMPI PUSH2 0xEF0 PUSH2 0x1AF3 JUMP JUMPDEST PUSH1 0x0 SWAP2 DUP3 MSTORE PUSH1 0x20 SWAP1 SWAP2 KECCAK256 PUSH1 0x1 PUSH1 0x3 SWAP1 SWAP3 MUL ADD ADD SLOAD PUSH1 0x1 PUSH1 0x1 PUSH1 0xA0 SHL SUB AND SUB PUSH2 0xF9A JUMPI DUP3 PUSH1 0x7 ADD DUP2 DUP2 SLOAD DUP2 LT PUSH2 0xF27 JUMPI PUSH2 0xF27 PUSH2 0x1AF3 JUMP JUMPDEST PUSH1 0x0 SWAP2 DUP3 MSTORE PUSH1 0x20 DUP3 KECCAK256 PUSH1 0x2 PUSH1 0x3 SWAP1 SWAP3 MUL ADD ADD DUP1 SLOAD SWAP2 PUSH2 0xF45 DUP4 PUSH2 0x2329 JUMP JUMPDEST SWAP1 SWAP2 SSTORE POP POP PUSH1 0x1 DUP3 ADD DUP1 SLOAD PUSH2 0xFF00 NOT AND PUSH2 0x100 OR SWAP1 SSTORE PUSH1 0x40 MLOAD PUSH1 0x1 PUSH1 0x1 PUSH1 0xA0 SHL SUB DUP6 AND SWAP1 DUP7 SWAP1 CALLER SWAP1 PUSH32 0xE8DB14EFB3E399B32DB39DD2829B3AF23451747DBA46368CE6A3D5CCEFEBF882 SWAP1 PUSH1 0x0 SWAP1 LOG4 POP POP POP POP POP JUMP JUMPDEST PUSH1 0x1 ADD PUSH2 0xEC5 JUMP JUMPDEST POP PUSH1 0x40 MLOAD PUSH3 0x461BCD PUSH1 0xE5 SHL DUP2 MSTORE PUSH1 0x20 PUSH1 0x4 DUP3 ADD MSTORE PUSH1 0x18 PUSH1 0x24 DUP3 ADD MSTORE PUSH32 0x43616E64696461746520646F6573206E6F742065786973740000000000000000 PUSH1 0x44 DUP3 ADD MSTORE PUSH1 0x64 ADD PUSH2 0x449 JUMP JUMPDEST POP POP JUMP JUMPDEST PUSH2 0xFF7 PUSH2 0x102D JUMP JUMPDEST PUSH1 0x1 PUSH1 0x1 PUSH1 0xA0 SHL SUB DUP2 AND PUSH2 0x1021 JUMPI PUSH1 0x40 MLOAD PUSH4 0x1E4FBDF7 PUSH1 0xE0 SHL DUP2 MSTORE PUSH1 0x0 PUSH1 0x4 DUP3 ADD MSTORE PUSH1 0x24 ADD PUSH2 0x449 JUMP JUMPDEST PUSH2 0x102A DUP2 PUSH2 0x1119 JUMP JUMPDEST POP JUMP JUMPDEST CALLER PUSH2 0x105F PUSH32 0x9016D09D72D40FDAE2FD8CEAC6B6234C7706214FD39C1CD1E609A0528C199300 SLOAD PUSH1 0x1 PUSH1 0x1 PUSH1 0xA0 SHL SUB AND SWAP1 JUMP JUMPDEST PUSH1 0x1 PUSH1 0x1 PUSH1 0xA0 SHL SUB AND EQ PUSH2 0x4CA JUMPI PUSH1 0x40 MLOAD PUSH4 0x118CDAA7 PUSH1 0xE0 SHL DUP2 MSTORE CALLER PUSH1 0x4 DUP3 ADD MSTORE PUSH1 0x24 ADD PUSH2 0x449 JUMP JUMPDEST PUSH1 0x0 DUP1 MLOAD PUSH1 0x20 PUSH2 0x2343 DUP4 CODECOPY DUP2 MLOAD SWAP2 MSTORE SLOAD PUSH1 0xFF AND ISZERO PUSH2 0x4CA JUMPI PUSH1 0x40 MLOAD PUSH4 0xD93C0665 PUSH1 0xE0 SHL DUP2 MSTORE PUSH1 0x4 ADD PUSH1 0x40 MLOAD DUP1 SWAP2 SUB SWAP1 REVERT JUMPDEST PUSH2 0x10C1 PUSH2 0x1363 JUMP JUMPDEST PUSH1 0x0 DUP1 MLOAD PUSH1 0x20 PUSH2 0x2343 DUP4 CODECOPY DUP2 MLOAD SWAP2 MSTORE DUP1 SLOAD PUSH1 0xFF NOT AND DUP2 SSTORE PUSH32 0x5DB9EE0A495BF2E6FF9C91A7834C1BA4FDD244A5E8AA4E537BD38AEAE4B073AA CALLER JUMPDEST PUSH1 0x40 MLOAD PUSH1 0x1 PUSH1 0x1 PUSH1 0xA0 SHL SUB SWAP1 SWAP2 AND DUP2 MSTORE PUSH1 0x20 ADD PUSH1 0x40 MLOAD DUP1 SWAP2 SUB SWAP1 LOG1 POP JUMP JUMPDEST PUSH32 0x9016D09D72D40FDAE2FD8CEAC6B6234C7706214FD39C1CD1E609A0528C199300 DUP1 SLOAD PUSH1 0x1 PUSH1 0x1 PUSH1 0xA0 SHL SUB NOT DUP2 AND PUSH1 0x1 PUSH1 0x1 PUSH1 0xA0 SHL SUB DUP5 DUP2 AND SWAP2 DUP3 OR DUP5 SSTORE PUSH1 0x40 MLOAD SWAP3 AND SWAP2 DUP3 SWAP1 PUSH32 0x8BE0079C531659141344CD1FD0A4F28419497F9722A3DAAFE3B4186F6B6457E0 SWAP1 PUSH1 0x0 SWAP1 LOG3 POP POP POP JUMP JUMPDEST PUSH2 0x1192 PUSH2 0x1393 JUMP JUMPDEST PUSH2 0x102A DUP2 PUSH2 0x13DC JUMP JUMPDEST PUSH2 0x11A3 PUSH2 0x1088 JUMP JUMPDEST PUSH1 0x0 DUP1 MLOAD PUSH1 0x20 PUSH2 0x2343 DUP4 CODECOPY DUP2 MLOAD SWAP2 MSTORE DUP1 SLOAD PUSH1 0xFF NOT AND PUSH1 0x1 OR DUP2 SSTORE PUSH32 0x62E78CEA01BEE320CD4E420270B5EA74000D11B0C9F74754EBDBFC544B05A258 CALLER PUSH2 0x10FB JUMP JUMPDEST PUSH1 0x0 DUP1 JUMPDEST PUSH1 0x8 DUP5 ADD SLOAD DUP2 LT ISZERO PUSH2 0x126E JUMPI DUP3 PUSH1 0x1 PUSH1 0x1 PUSH1 0xA0 SHL SUB AND DUP5 PUSH1 0x8 ADD DUP3 DUP2 SLOAD DUP2 LT PUSH2 0x1213 JUMPI PUSH2 0x1213 PUSH2 0x1AF3 JUMP JUMPDEST PUSH1 0x0 SWAP2 DUP3 MSTORE PUSH1 0x20 SWAP1 SWAP2 KECCAK256 PUSH1 0x2 SWAP1 SWAP2 MUL ADD PUSH1 0x1 ADD SLOAD PUSH3 0x10000 SWAP1 DIV PUSH1 0x1 PUSH1 0x1 PUSH1 0xA0 SHL SUB AND SUB PUSH2 0x1266 JUMPI DUP4 PUSH1 0x8 ADD DUP2 DUP2 SLOAD DUP2 LT PUSH2 0x1250 JUMPI PUSH2 0x1250 PUSH2 0x1AF3 JUMP JUMPDEST SWAP1 PUSH1 0x0 MSTORE PUSH1 0x20 PUSH1 0x0 KECCAK256 SWAP1 PUSH1 0x2 MUL ADD SWAP2 POP POP PUSH2 0x12CF JUMP JUMPDEST PUSH1 0x1 ADD PUSH2 0x11E8 JUMP JUMPDEST POP PUSH1 0x40 MLOAD PUSH3 0x461BCD PUSH1 0xE5 SHL DUP2 MSTORE PUSH1 0x20 PUSH1 0x4 DUP3 ADD MSTORE PUSH1 0x2F PUSH1 0x24 DUP3 ADD MSTORE PUSH32 0x596F7520617265206E6F74207265676973746572656420746F20766F74652069 PUSH1 0x44 DUP3 ADD MSTORE PUSH15 0x1B881D1A1A5CC81C1C9BDC1BDCD85B PUSH1 0x8A SHL PUSH1 0x64 DUP3 ADD MSTORE PUSH1 0x84 ADD PUSH2 0x449 JUMP JUMPDEST SWAP3 SWAP2 POP POP JUMP JUMPDEST DUP1 PUSH1 0x0 SUB PUSH2 0x12F8 JUMPI PUSH1 0x5 DUP3 ADD DUP1 SLOAD SWAP1 PUSH1 0x0 PUSH2 0x12EF DUP4 PUSH2 0x2329 JUMP JUMPDEST SWAP2 SWAP1 POP SSTORE POP POP POP JUMP JUMPDEST DUP1 PUSH1 0x1 SUB PUSH2 0x1312 JUMPI PUSH1 0x4 DUP3 ADD DUP1 SLOAD SWAP1 PUSH1 0x0 PUSH2 0x12EF DUP4 PUSH2 0x2329 JUMP JUMPDEST DUP1 PUSH1 0x2 SUB PUSH2 0x132C JUMPI PUSH1 0x6 DUP3 ADD DUP1 SLOAD SWAP1 PUSH1 0x0 PUSH2 0x12EF DUP4 PUSH2 0x2329 JUMP JUMPDEST PUSH1 0x40 MLOAD PUSH3 0x461BCD PUSH1 0xE5 SHL DUP2 MSTORE PUSH1 0x20 PUSH1 0x4 DUP3 ADD MSTORE PUSH1 0xC PUSH1 0x24 DUP3 ADD MSTORE PUSH12 0x496E76616C696420766F7465 PUSH1 0xA0 SHL PUSH1 0x44 DUP3 ADD MSTORE PUSH1 0x64 ADD PUSH2 0x449 JUMP JUMPDEST PUSH1 0x0 DUP1 MLOAD PUSH1 0x20 PUSH2 0x2343 DUP4 CODECOPY DUP2 MLOAD SWAP2 MSTORE SLOAD PUSH1 0xFF AND PUSH2 0x4CA JUMPI PUSH1 0x40 MLOAD PUSH4 0x8DFC202B PUSH1 0xE0 SHL DUP2 MSTORE PUSH1 0x4 ADD PUSH1 0x40 MLOAD DUP1 SWAP2 SUB SWAP1 REVERT JUMPDEST PUSH32 0xF0C57E16840DF040F15088DC2F81FE391C3923BEC73E23A9662EFC9C229C6A00 SLOAD PUSH1 0x1 PUSH1 0x40 SHL SWAP1 DIV PUSH1 0xFF AND PUSH2 0x4CA JUMPI PUSH1 0x40 MLOAD PUSH4 0x1AFCD79F PUSH1 0xE3 SHL DUP2 MSTORE PUSH1 0x4 ADD PUSH1 0x40 MLOAD DUP1 SWAP2 SUB SWAP1 REVERT JUMPDEST PUSH2 0xFF7 PUSH2 0x1393 JUMP JUMPDEST PUSH1 0x40 MLOAD DUP1 PUSH2 0x100 ADD PUSH1 0x40 MSTORE DUP1 PUSH1 0x60 DUP2 MSTORE PUSH1 0x20 ADD PUSH1 0x60 DUP2 MSTORE PUSH1 0x20 ADD PUSH1 0x60 DUP2 MSTORE PUSH1 0x20 ADD PUSH1 0x0 ISZERO ISZERO DUP2 MSTORE PUSH1 0x20 ADD PUSH1 0x0 ISZERO ISZERO DUP2 MSTORE PUSH1 0x20 ADD PUSH2 0x143B PUSH1 0x40 MLOAD DUP1 PUSH1 0x60 ADD PUSH1 0x40 MSTORE DUP1 PUSH1 0x0 DUP2 MSTORE PUSH1 0x20 ADD PUSH1 0x0 DUP2 MSTORE PUSH1 0x20 ADD PUSH1 0x0 DUP2 MSTORE POP SWAP1 JUMP JUMPDEST DUP2 MSTORE PUSH1 0x20 ADD PUSH1 0x60 DUP2 MSTORE PUSH1 0x20 ADD PUSH1 0x60 DUP2 MSTORE POP SWAP1 JUMP JUMPDEST PUSH1 0x0 PUSH1 0x20 DUP3 DUP5 SUB SLT ISZERO PUSH2 0x1461 JUMPI PUSH1 0x0 DUP1 REVERT JUMPDEST POP CALLDATALOAD SWAP2 SWAP1 POP JUMP JUMPDEST PUSH1 0x0 DUP2 MLOAD DUP1 DUP5 MSTORE PUSH1 0x0 JUMPDEST DUP2 DUP2 LT ISZERO PUSH2 0x148E JUMPI PUSH1 0x20 DUP2 DUP6 ADD DUP2 ADD MLOAD DUP7 DUP4 ADD DUP3 ADD MSTORE ADD PUSH2 0x1472 JUMP JUMPDEST POP PUSH1 0x0 PUSH1 0x20 DUP3 DUP7 ADD ADD MSTORE PUSH1 0x20 PUSH1 0x1F NOT PUSH1 0x1F DUP4 ADD AND DUP6 ADD ADD SWAP2 POP POP SWAP3 SWAP2 POP POP JUMP JUMPDEST PUSH1 0x0 PUSH2 0x100 DUP1 DUP4 MSTORE PUSH2 0x14C2 DUP2 DUP5 ADD DUP11 PUSH2 0x1468 JUMP JUMPDEST SWAP1 POP DUP3 DUP2 SUB PUSH1 0x20 DUP5 ADD MSTORE PUSH2 0x14D6 DUP2 DUP10 PUSH2 0x1468 JUMP JUMPDEST SWAP1 POP DUP3 DUP2 SUB PUSH1 0x40 DUP5 ADD MSTORE PUSH2 0x14EA DUP2 DUP9 PUSH2 0x1468 JUMP JUMPDEST DUP7 ISZERO ISZERO PUSH1 0x60 DUP6 ADD MSTORE DUP6 ISZERO ISZERO PUSH1 0x80 DUP6 ADD MSTORE DUP5 MLOAD PUSH1 0xA0 DUP6 ADD MSTORE PUSH1 0x20 DUP6 ADD MLOAD PUSH1 0xC0 DUP6 ADD MSTORE PUSH1 0x40 DUP6 ADD MLOAD PUSH1 0xE0 DUP6 ADD MSTORE SWAP2 POP PUSH2 0x151E SWAP1 POP JUMP JUMPDEST SWAP8 SWAP7 POP POP POP POP POP POP POP JUMP JUMPDEST PUSH1 0x0 DUP3 DUP3 MLOAD DUP1 DUP6 MSTORE PUSH1 0x20 DUP1 DUP7 ADD SWAP6 POP DUP1 DUP3 PUSH1 0x5 SHL DUP5 ADD ADD DUP2 DUP7 ADD PUSH1 0x0 JUMPDEST DUP5 DUP2 LT ISZERO PUSH2 0x159D JUMPI PUSH1 0x1F NOT DUP7 DUP5 SUB ADD DUP10 MSTORE DUP2 MLOAD PUSH1 0x60 DUP2 MLOAD DUP2 DUP7 MSTORE PUSH2 0x156C DUP3 DUP8 ADD DUP3 PUSH2 0x1468 JUMP JUMPDEST DUP4 DUP9 ADD MLOAD PUSH1 0x1 PUSH1 0x1 PUSH1 0xA0 SHL SUB AND DUP8 DUP10 ADD MSTORE PUSH1 0x40 SWAP4 DUP5 ADD MLOAD SWAP4 SWAP1 SWAP7 ADD SWAP3 SWAP1 SWAP3 MSTORE POP POP SWAP8 DUP4 ADD SWAP8 SWAP1 DUP4 ADD SWAP1 PUSH1 0x1 ADD PUSH2 0x1546 JUMP JUMPDEST POP SWAP1 SWAP8 SWAP7 POP POP POP POP POP POP POP JUMP JUMPDEST PUSH1 0x0 DUP3 DUP3 MLOAD DUP1 DUP6 MSTORE PUSH1 0x20 DUP1 DUP7 ADD SWAP6 POP DUP1 DUP3 PUSH1 0x5 SHL DUP5 ADD ADD DUP2 DUP7 ADD PUSH1 0x0 JUMPDEST DUP5 DUP2 LT ISZERO PUSH2 0x159D JUMPI PUSH1 0x1F NOT DUP7 DUP5 SUB ADD DUP10 MSTORE DUP2 MLOAD PUSH1 0x80 DUP2 MLOAD DUP2 DUP7 MSTORE PUSH2 0x15ED DUP3 DUP8 ADD DUP3 PUSH2 0x1468 JUMP JUMPDEST DUP4 DUP9 ADD MLOAD ISZERO ISZERO DUP8 DUP10 ADD MSTORE PUSH1 0x40 DUP1 DUP6 ADD MLOAD ISZERO ISZERO SWAP1 DUP9 ADD MSTORE PUSH1 0x60 SWAP4 DUP5 ADD MLOAD PUSH1 0x1 PUSH1 0x1 PUSH1 0xA0 SHL SUB AND SWAP4 SWAP1 SWAP7 ADD SWAP3 SWAP1 SWAP3 MSTORE POP POP SWAP8 DUP4 ADD SWAP8 SWAP1 DUP4 ADD SWAP1 PUSH1 0x1 ADD PUSH2 0x15C7 JUMP JUMPDEST PUSH1 0x0 PUSH1 0x20 DUP1 DUP4 ADD DUP2 DUP5 MSTORE DUP1 DUP6 MLOAD DUP1 DUP4 MSTORE PUSH1 0x40 SWAP3 POP PUSH1 0x40 DUP7 ADD SWAP2 POP PUSH1 0x40 DUP2 PUSH1 0x5 SHL DUP8 ADD ADD DUP5 DUP9 ADD PUSH1 0x0 JUMPDEST DUP4 DUP2 LT ISZERO PUSH2 0x173E JUMPI PUSH1 0x3F NOT DUP10 DUP5 SUB ADD DUP6 MSTORE DUP2 MLOAD PUSH2 0x140 DUP2 MLOAD DUP2 DUP7 MSTORE PUSH2 0x167C DUP3 DUP8 ADD DUP3 PUSH2 0x1468 JUMP JUMPDEST SWAP2 POP POP DUP9 DUP3 ADD MLOAD DUP6 DUP3 SUB DUP11 DUP8 ADD MSTORE PUSH2 0x1694 DUP3 DUP3 PUSH2 0x1468 JUMP JUMPDEST SWAP2 POP POP DUP8 DUP3 ADD MLOAD DUP6 DUP3 SUB DUP10 DUP8 ADD MSTORE PUSH2 0x16AC DUP3 DUP3 PUSH2 0x1468 JUMP JUMPDEST SWAP2 POP POP PUSH1 0x60 DUP1 DUP4 ADD MLOAD PUSH2 0x16C2 DUP3 DUP9 ADD DUP3 ISZERO ISZERO SWAP1 MSTORE JUMP JUMPDEST POP POP PUSH1 0x80 DUP3 DUP2 ADD MLOAD DUP1 ISZERO ISZERO DUP8 DUP4 ADD MSTORE POP POP PUSH1 0xA0 DUP3 DUP2 ADD MLOAD DUP1 MLOAD DUP8 DUP4 ADD MSTORE PUSH1 0x20 DUP2 ADD MLOAD PUSH1 0xC0 DUP9 ADD MSTORE PUSH1 0x40 DUP2 ADD MLOAD PUSH1 0xE0 DUP9 ADD MSTORE POP POP PUSH1 0xC0 DUP3 ADD MLOAD DUP6 DUP3 SUB PUSH2 0x100 DUP8 ADD MSTORE PUSH2 0x170D DUP3 DUP3 PUSH2 0x1529 JUMP JUMPDEST SWAP2 POP POP PUSH1 0xE0 DUP3 ADD MLOAD SWAP2 POP DUP5 DUP2 SUB PUSH2 0x120 DUP7 ADD MSTORE PUSH2 0x172A DUP2 DUP4 PUSH2 0x15AA JUMP JUMPDEST SWAP7 DUP10 ADD SWAP7 SWAP5 POP POP POP SWAP1 DUP7 ADD SWAP1 PUSH1 0x1 ADD PUSH2 0x1655 JUMP JUMPDEST POP SWAP1 SWAP9 SWAP8 POP POP POP POP POP POP POP POP JUMP JUMPDEST PUSH1 0x0 PUSH1 0x20 DUP3 DUP5 SUB SLT ISZERO PUSH2 0x175E JUMPI PUSH1 0x0 DUP1 REVERT JUMPDEST DUP2 CALLDATALOAD PUSH8 0xFFFFFFFFFFFFFFFF DUP2 GT ISZERO PUSH2 0x1775 JUMPI PUSH1 0x0 DUP1 REVERT JUMPDEST DUP3 ADD PUSH2 0x140 DUP2 DUP6 SUB SLT ISZERO PUSH2 0x1788 JUMPI PUSH1 0x0 DUP1 REVERT JUMPDEST SWAP4 SWAP3 POP POP POP JUMP JUMPDEST PUSH1 0x0 DUP1 PUSH1 0x40 DUP4 DUP6 SUB SLT ISZERO PUSH2 0x17A2 JUMPI PUSH1 0x0 DUP1 REVERT JUMPDEST POP POP DUP1 CALLDATALOAD SWAP3 PUSH1 0x20 SWAP1 SWAP2 ADD CALLDATALOAD SWAP2 POP JUMP JUMPDEST PUSH1 0x1 PUSH1 0x1 PUSH1 0xA0 SHL SUB DUP2 AND DUP2 EQ PUSH2 0x102A JUMPI PUSH1 0x0 DUP1 REVERT JUMPDEST PUSH1 0x0 DUP1 PUSH1 0x40 DUP4 DUP6 SUB SLT ISZERO PUSH2 0x17D9 JUMPI PUSH1 0x0 DUP1 REVERT JUMPDEST DUP3 CALLDATALOAD SWAP2 POP PUSH1 0x20 DUP4 ADD CALLDATALOAD PUSH2 0x17EB DUP2 PUSH2 0x17B1 JUMP JUMPDEST DUP1 SWAP2 POP POP SWAP3 POP SWAP3 SWAP1 POP JUMP JUMPDEST PUSH1 0x0 PUSH1 0x20 DUP3 DUP5 SUB SLT ISZERO PUSH2 0x1808 JUMPI PUSH1 0x0 DUP1 REVERT JUMPDEST DUP2 CALLDATALOAD PUSH2 0x1788 DUP2 PUSH2 0x17B1 JUMP JUMPDEST PUSH1 0x1 DUP2 DUP2 SHR SWAP1 DUP3 AND DUP1 PUSH2 0x1827 JUMPI PUSH1 0x7F DUP3 AND SWAP2 POP JUMPDEST PUSH1 0x20 DUP3 LT DUP2 SUB PUSH2 0x9FC JUMPI PUSH4 0x4E487B71 PUSH1 0xE0 SHL PUSH1 0x0 MSTORE PUSH1 0x22 PUSH1 0x4 MSTORE PUSH1 0x24 PUSH1 0x0 REVERT JUMPDEST PUSH1 0x20 DUP1 DUP3 MSTORE PUSH1 0x17 SWAP1 DUP3 ADD MSTORE PUSH32 0x50726F706F73616C20646F6573206E6F74206578697374000000000000000000 PUSH1 0x40 DUP3 ADD MSTORE PUSH1 0x60 ADD SWAP1 JUMP JUMPDEST PUSH1 0x0 DUP2 SLOAD PUSH2 0x188B DUP2 PUSH2 0x1813 JUMP JUMPDEST DUP1 DUP6 MSTORE PUSH1 0x20 PUSH1 0x1 DUP4 DUP2 AND DUP1 ISZERO PUSH2 0x18A8 JUMPI PUSH1 0x1 DUP2 EQ PUSH2 0x18C2 JUMPI PUSH2 0x18F0 JUMP JUMPDEST PUSH1 0xFF NOT DUP6 AND DUP9 DUP5 ADD MSTORE DUP4 ISZERO ISZERO PUSH1 0x5 SHL DUP9 ADD DUP4 ADD SWAP6 POP PUSH2 0x18F0 JUMP JUMPDEST DUP7 PUSH1 0x0 MSTORE DUP3 PUSH1 0x0 KECCAK256 PUSH1 0x0 JUMPDEST DUP6 DUP2 LT ISZERO PUSH2 0x18E8 JUMPI DUP2 SLOAD DUP11 DUP3 ADD DUP7 ADD MSTORE SWAP1 DUP4 ADD SWAP1 DUP5 ADD PUSH2 0x18CD JUMP JUMPDEST DUP10 ADD DUP5 ADD SWAP7 POP POP JUMPDEST POP POP POP POP POP SWAP3 SWAP2 POP POP JUMP JUMPDEST PUSH1 0x0 DUP3 DUP3 SLOAD DUP1 DUP6 MSTORE PUSH1 0x20 DUP1 DUP7 ADD SWAP6 POP PUSH1 0x20 DUP3 PUSH1 0x5 SHL DUP5 ADD ADD DUP6 PUSH1 0x0 MSTORE PUSH1 0x20 PUSH1 0x0 KECCAK256 PUSH1 0x0 JUMPDEST DUP5 DUP2 LT ISZERO PUSH2 0x159D JUMPI DUP6 DUP4 SUB PUSH1 0x1F NOT ADD DUP10 MSTORE PUSH1 0x60 DUP1 DUP5 MSTORE PUSH2 0x1941 DUP2 DUP6 ADD DUP5 PUSH2 0x187E JUMP JUMPDEST PUSH1 0x1 DUP5 DUP2 ADD SLOAD PUSH1 0x1 PUSH1 0x1 PUSH1 0xA0 SHL SUB AND DUP7 DUP9 ADD MSTORE PUSH1 0x2 DUP6 ADD SLOAD PUSH1 0x40 SWAP1 SWAP7 ADD SWAP6 SWAP1 SWAP6 MSTORE SWAP10 DUP6 ADD SWAP10 SWAP4 PUSH1 0x3 SWAP1 SWAP4 ADD SWAP3 SWAP2 SWAP1 SWAP2 ADD SWAP1 POP PUSH2 0x191F JUMP JUMPDEST PUSH1 0x0 DUP3 DUP3 SLOAD DUP1 DUP6 MSTORE PUSH1 0x20 DUP1 DUP7 ADD SWAP6 POP PUSH1 0x20 DUP3 PUSH1 0x5 SHL DUP5 ADD ADD DUP6 PUSH1 0x0 MSTORE PUSH1 0x20 PUSH1 0x0 KECCAK256 PUSH1 0x0 JUMPDEST DUP5 DUP2 LT ISZERO PUSH2 0x159D JUMPI DUP6 DUP4 SUB PUSH1 0x1F NOT ADD DUP10 MSTORE PUSH1 0x80 DUP1 DUP5 MSTORE PUSH2 0x19BE DUP2 DUP6 ADD DUP5 PUSH2 0x187E JUMP JUMPDEST PUSH1 0x1 DUP5 DUP2 ADD SLOAD PUSH1 0xFF DUP1 DUP3 AND ISZERO ISZERO DUP9 DUP11 ADD MSTORE PUSH1 0x8 DUP3 SWAP1 SHR AND ISZERO ISZERO PUSH1 0x40 DUP9 ADD MSTORE PUSH1 0x10 SHR PUSH1 0x1 PUSH1 0x1 PUSH1 0xA0 SHL SUB AND PUSH1 0x60 SWAP1 SWAP7 ADD SWAP6 SWAP1 SWAP6 MSTORE SWAP10 DUP6 ADD SWAP10 SWAP4 PUSH1 0x2 SWAP1 SWAP4 ADD SWAP3 SWAP2 SWAP1 SWAP2 ADD SWAP1 POP PUSH2 0x199C JUMP JUMPDEST PUSH1 0x20 DUP2 MSTORE PUSH1 0x0 PUSH2 0x140 DUP1 PUSH1 0x20 DUP5 ADD MSTORE PUSH2 0x1A24 PUSH2 0x160 DUP5 ADD DUP6 PUSH2 0x187E JUMP JUMPDEST PUSH1 0x1F NOT DUP1 DUP6 DUP4 SUB ADD PUSH1 0x40 DUP7 ADD MSTORE PUSH2 0x1A3E DUP3 PUSH1 0x1 DUP9 ADD PUSH2 0x187E JUMP JUMPDEST SWAP2 POP DUP1 DUP6 DUP4 SUB ADD PUSH1 0x60 DUP7 ADD MSTORE PUSH2 0x1A57 DUP3 PUSH1 0x2 DUP9 ADD PUSH2 0x187E JUMP JUMPDEST SWAP2 POP PUSH1 0x3 DUP7 ADD SLOAD PUSH2 0x1A6F PUSH1 0x80 DUP8 ADD PUSH1 0xFF DUP4 AND ISZERO ISZERO SWAP1 MSTORE JUMP JUMPDEST PUSH2 0x1A83 PUSH1 0xA0 DUP8 ADD PUSH1 0xFF DUP4 PUSH1 0x8 SHR AND ISZERO ISZERO SWAP1 MSTORE JUMP JUMPDEST POP PUSH1 0x4 DUP7 ADD SLOAD PUSH1 0xC0 DUP7 ADD MSTORE PUSH1 0x5 DUP7 ADD SLOAD PUSH1 0xE0 DUP7 ADD MSTORE PUSH1 0x6 DUP7 ADD SLOAD PUSH2 0x100 DUP7 ADD MSTORE DUP1 DUP6 DUP4 SUB ADD PUSH2 0x120 DUP7 ADD MSTORE PUSH2 0x1ABB DUP3 PUSH1 0x7 DUP9 ADD PUSH2 0x18FB JUMP JUMPDEST SWAP2 POP DUP1 DUP6 DUP4 SUB ADD DUP4 DUP7 ADD MSTORE POP PUSH2 0x1AD4 DUP2 PUSH1 0x8 DUP8 ADD PUSH2 0x1978 JUMP JUMPDEST SWAP6 SWAP5 POP POP POP POP POP JUMP JUMPDEST PUSH4 0x4E487B71 PUSH1 0xE0 SHL PUSH1 0x0 MSTORE PUSH1 0x41 PUSH1 0x4 MSTORE PUSH1 0x24 PUSH1 0x0 REVERT JUMPDEST PUSH4 0x4E487B71 PUSH1 0xE0 SHL PUSH1 0x0 MSTORE PUSH1 0x32 PUSH1 0x4 MSTORE PUSH1 0x24 PUSH1 0x0 REVERT JUMPDEST PUSH1 0x0 DUP1 DUP4 CALLDATALOAD PUSH1 0x1E NOT DUP5 CALLDATASIZE SUB ADD DUP2 SLT PUSH2 0x1B20 JUMPI PUSH1 0x0 DUP1 REVERT JUMPDEST DUP4 ADD DUP1 CALLDATALOAD SWAP2 POP PUSH8 0xFFFFFFFFFFFFFFFF DUP3 GT ISZERO PUSH2 0x1B3B JUMPI PUSH1 0x0 DUP1 REVERT JUMPDEST PUSH1 0x20 ADD SWAP2 POP CALLDATASIZE DUP2 SWAP1 SUB DUP3 SGT ISZERO PUSH2 0x1B50 JUMPI PUSH1 0x0 DUP1 REVERT JUMPDEST SWAP3 POP SWAP3 SWAP1 POP JUMP JUMPDEST JUMPDEST DUP2 DUP2 LT ISZERO PUSH2 0xFEB JUMPI PUSH1 0x0 DUP2 SSTORE PUSH1 0x1 ADD PUSH2 0x1B58 JUMP JUMPDEST PUSH1 0x1F DUP3 GT ISZERO PUSH2 0x1BA5 JUMPI DUP1 PUSH1 0x0 MSTORE PUSH1 0x20 PUSH1 0x0 KECCAK256 PUSH1 0x1F DUP5 ADD PUSH1 0x5 SHR DUP2 ADD PUSH1 0x20 DUP6 LT ISZERO PUSH2 0x1B93 JUMPI POP DUP1 JUMPDEST PUSH2 0xBB6 PUSH1 0x1F DUP6 ADD PUSH1 0x5 SHR DUP4 ADD DUP3 PUSH2 0x1B57 JUMP JUMPDEST POP POP POP JUMP JUMPDEST PUSH1 0x0 NOT PUSH1 0x3 DUP4 SWAP1 SHL SHR NOT AND PUSH1 0x1 SWAP2 SWAP1 SWAP2 SHL OR SWAP1 JUMP JUMPDEST PUSH8 0xFFFFFFFFFFFFFFFF DUP4 GT ISZERO PUSH2 0x1BD7 JUMPI PUSH2 0x1BD7 PUSH2 0x1ADD JUMP JUMPDEST PUSH2 0x1BEB DUP4 PUSH2 0x1BE5 DUP4 SLOAD PUSH2 0x1813 JUMP JUMPDEST DUP4 PUSH2 0x1B6C JUMP JUMPDEST PUSH1 0x0 PUSH1 0x1F DUP5 GT PUSH1 0x1 DUP2 EQ PUSH2 0x1C19 JUMPI PUSH1 0x0 DUP6 ISZERO PUSH2 0x1C07 JUMPI POP DUP4 DUP3 ADD CALLDATALOAD JUMPDEST PUSH2 0x1C11 DUP7 DUP3 PUSH2 0x1BAA JUMP JUMPDEST DUP5 SSTORE POP PUSH2 0xBB6 JUMP JUMPDEST PUSH1 0x0 DUP4 DUP2 MSTORE PUSH1 0x20 SWAP1 KECCAK256 PUSH1 0x1F NOT DUP7 AND SWAP1 DUP4 JUMPDEST DUP3 DUP2 LT ISZERO PUSH2 0x1C4A JUMPI DUP7 DUP6 ADD CALLDATALOAD DUP3 SSTORE PUSH1 0x20 SWAP5 DUP6 ADD SWAP5 PUSH1 0x1 SWAP1 SWAP3 ADD SWAP2 ADD PUSH2 0x1C2A JUMP JUMPDEST POP DUP7 DUP3 LT ISZERO PUSH2 0x1C67 JUMPI PUSH1 0x0 NOT PUSH1 0xF8 DUP9 PUSH1 0x3 SHL AND SHR NOT DUP5 DUP8 ADD CALLDATALOAD AND DUP2 SSTORE JUMPDEST POP POP PUSH1 0x1 DUP6 PUSH1 0x1 SHL ADD DUP4 SSTORE POP POP POP POP POP JUMP JUMPDEST PUSH1 0x0 DUP2 CALLDATALOAD DUP1 ISZERO ISZERO DUP2 EQ PUSH2 0x12CF JUMPI PUSH1 0x0 DUP1 REVERT JUMPDEST PUSH1 0x0 DUP1 DUP4 CALLDATALOAD PUSH1 0x1E NOT DUP5 CALLDATASIZE SUB ADD DUP2 SLT PUSH2 0x1CA2 JUMPI PUSH1 0x0 DUP1 REVERT JUMPDEST DUP4 ADD DUP1 CALLDATALOAD SWAP2 POP PUSH8 0xFFFFFFFFFFFFFFFF DUP3 GT ISZERO PUSH2 0x1CBD JUMPI PUSH1 0x0 DUP1 REVERT JUMPDEST PUSH1 0x20 ADD SWAP2 POP PUSH1 0x5 DUP2 SWAP1 SHL CALLDATASIZE SUB DUP3 SGT ISZERO PUSH2 0x1B50 JUMPI PUSH1 0x0 DUP1 REVERT JUMPDEST PUSH1 0x0 DUP3 CALLDATALOAD PUSH1 0x5E NOT DUP4 CALLDATASIZE SUB ADD DUP2 SLT PUSH2 0x1CEB JUMPI PUSH1 0x0 DUP1 REVERT JUMPDEST SWAP2 SWAP1 SWAP2 ADD SWAP3 SWAP2 POP POP JUMP JUMPDEST PUSH4 0x4E487B71 PUSH1 0xE0 SHL PUSH1 0x0 MSTORE PUSH1 0x11 PUSH1 0x4 MSTORE PUSH1 0x24 PUSH1 0x0 REVERT JUMPDEST PUSH2 0x1D15 DUP2 SLOAD PUSH2 0x1813 JUMP JUMPDEST DUP1 ISZERO PUSH2 0xFEB JUMPI PUSH1 0x1F DUP2 GT PUSH1 0x1 DUP2 EQ PUSH2 0x1D2F JUMPI POP POP PUSH1 0x0 SWAP1 SSTORE JUMP JUMPDEST DUP3 PUSH1 0x0 MSTORE PUSH1 0x20 PUSH1 0x0 KECCAK256 PUSH2 0x1D4D PUSH1 0x1F DUP5 ADD PUSH1 0x5 SHR DUP3 ADD PUSH1 0x1 DUP4 ADD PUSH2 0x1B57 JUMP JUMPDEST PUSH1 0x0 DUP1 DUP6 SSTORE SWAP1 SSTORE POP POP POP JUMP JUMPDEST PUSH1 0x0 DUP2 CALLDATALOAD PUSH2 0x12CF DUP2 PUSH2 0x17B1 JUMP JUMPDEST PUSH2 0x1D70 DUP3 DUP4 PUSH2 0x1B09 JUMP JUMPDEST PUSH8 0xFFFFFFFFFFFFFFFF DUP2 GT ISZERO PUSH2 0x1D88 JUMPI PUSH2 0x1D88 PUSH2 0x1ADD JUMP JUMPDEST PUSH2 0x1D9C DUP2 PUSH2 0x1D96 DUP6 SLOAD PUSH2 0x1813 JUMP JUMPDEST DUP6 PUSH2 0x1B6C JUMP JUMPDEST PUSH1 0x0 PUSH1 0x1F DUP3 GT PUSH1 0x1 DUP2 EQ PUSH2 0x1DCA JUMPI PUSH1 0x0 DUP4 ISZERO PUSH2 0x1DB8 JUMPI POP DUP4 DUP3 ADD CALLDATALOAD JUMPDEST PUSH2 0x1DC2 DUP5 DUP3 PUSH2 0x1BAA JUMP JUMPDEST DUP7 SSTORE POP PUSH2 0x1E24 JUMP JUMPDEST PUSH1 0x0 DUP6 DUP2 MSTORE PUSH1 0x20 SWAP1 KECCAK256 PUSH1 0x1F NOT DUP5 AND SWAP1 DUP4 JUMPDEST DUP3 DUP2 LT ISZERO PUSH2 0x1DFB JUMPI DUP7 DUP6 ADD CALLDATALOAD DUP3 SSTORE PUSH1 0x20 SWAP5 DUP6 ADD SWAP5 PUSH1 0x1 SWAP1 SWAP3 ADD SWAP2 ADD PUSH2 0x1DDB JUMP JUMPDEST POP DUP5 DUP3 LT ISZERO PUSH2 0x1E18 JUMPI PUSH1 0x0 NOT PUSH1 0xF8 DUP7 PUSH1 0x3 SHL AND SHR NOT DUP5 DUP8 ADD CALLDATALOAD AND DUP2 SSTORE JUMPDEST POP POP PUSH1 0x1 DUP4 PUSH1 0x1 SHL ADD DUP6 SSTORE JUMPDEST POP POP POP POP PUSH2 0x1E5B PUSH2 0x1E37 PUSH1 0x20 DUP5 ADD PUSH2 0x1D59 JUMP JUMPDEST PUSH1 0x1 DUP4 ADD DUP1 SLOAD PUSH1 0x1 PUSH1 0x1 PUSH1 0xA0 SHL SUB NOT AND PUSH1 0x1 PUSH1 0x1 PUSH1 0xA0 SHL SUB SWAP3 SWAP1 SWAP3 AND SWAP2 SWAP1 SWAP2 OR SWAP1 SSTORE JUMP JUMPDEST PUSH1 0x40 DUP3 ADD CALLDATALOAD PUSH1 0x2 DUP3 ADD SSTORE POP POP JUMP JUMPDEST PUSH1 0x1 PUSH1 0x40 SHL DUP4 GT ISZERO PUSH2 0x1E7D JUMPI PUSH2 0x1E7D PUSH2 0x1ADD JUMP JUMPDEST DUP1 SLOAD DUP4 DUP3 SSTORE DUP1 DUP5 LT ISZERO PUSH2 0x1EF7 JUMPI PUSH1 0x3 DUP2 PUSH1 0x3 MUL PUSH1 0x3 DUP2 DIV DUP4 EQ PUSH2 0x1EA2 JUMPI PUSH2 0x1EA2 PUSH2 0x1CF5 JUMP JUMPDEST DUP6 PUSH1 0x3 MUL PUSH1 0x3 DUP2 DIV DUP8 EQ PUSH2 0x1EB8 JUMPI PUSH2 0x1EB8 PUSH2 0x1CF5 JUMP JUMPDEST PUSH1 0x0 DUP6 DUP2 MSTORE PUSH1 0x20 DUP2 KECCAK256 SWAP3 DUP4 ADD SWAP3 SWAP2 SWAP1 SWAP2 ADD SWAP1 JUMPDEST DUP3 DUP3 LT ISZERO PUSH2 0x1EF2 JUMPI PUSH2 0x1EDC DUP3 PUSH2 0x1D0B JUMP JUMPDEST DUP1 PUSH1 0x1 DUP4 ADD SSTORE DUP1 PUSH1 0x2 DUP4 ADD SSTORE DUP4 DUP3 ADD SWAP2 POP PUSH2 0x1ECB JUMP JUMPDEST POP POP POP POP JUMPDEST POP PUSH1 0x0 DUP2 DUP2 MSTORE PUSH1 0x20 DUP2 KECCAK256 DUP4 SWAP2 JUMPDEST DUP6 DUP2 LT ISZERO PUSH2 0x1F35 JUMPI PUSH2 0x1F1F PUSH2 0x1F19 DUP5 DUP8 PUSH2 0x1CD5 JUMP JUMPDEST DUP4 PUSH2 0x1D66 JUMP JUMPDEST PUSH1 0x20 SWAP3 SWAP1 SWAP3 ADD SWAP2 PUSH1 0x3 SWAP2 SWAP1 SWAP2 ADD SWAP1 PUSH1 0x1 ADD PUSH2 0x1F04 JUMP JUMPDEST POP POP POP POP POP POP JUMP JUMPDEST PUSH1 0x0 DUP3 CALLDATALOAD PUSH1 0x7E NOT DUP4 CALLDATASIZE SUB ADD DUP2 SLT PUSH2 0x1CEB JUMPI PUSH1 0x0 DUP1 REVERT JUMPDEST PUSH2 0x1F5D DUP3 DUP4 PUSH2 0x1B09 JUMP JUMPDEST PUSH8 0xFFFFFFFFFFFFFFFF DUP2 GT ISZERO PUSH2 0x1F75 JUMPI PUSH2 0x1F75 PUSH2 0x1ADD JUMP JUMPDEST PUSH2 0x1F83 DUP2 PUSH2 0x1D96 DUP6 SLOAD PUSH2 0x1813 JUMP JUMPDEST PUSH1 0x0 PUSH1 0x1F DUP3 GT PUSH1 0x1 DUP2 EQ PUSH2 0x1FB1 JUMPI PUSH1 0x0 DUP4 ISZERO PUSH2 0x1F9F JUMPI POP DUP4 DUP3 ADD CALLDATALOAD JUMPDEST PUSH2 0x1FA9 DUP5 DUP3 PUSH2 0x1BAA JUMP JUMPDEST DUP7 SSTORE POP PUSH2 0x200B JUMP JUMPDEST PUSH1 0x0 DUP6 DUP2 MSTORE PUSH1 0x20 SWAP1 KECCAK256 PUSH1 0x1F NOT DUP5 AND SWAP1 DUP4 JUMPDEST DUP3 DUP2 LT ISZERO PUSH2 0x1FE2 JUMPI DUP7 DUP6 ADD CALLDATALOAD DUP3 SSTORE PUSH1 0x20 SWAP5 DUP6 ADD SWAP5 PUSH1 0x1 SWAP1 SWAP3 ADD SWAP2 ADD PUSH2 0x1FC2 JUMP JUMPDEST POP DUP5 DUP3 LT ISZERO PUSH2 0x1FFF JUMPI PUSH1 0x0 NOT PUSH1 0xF8 DUP7 PUSH1 0x3 SHL AND SHR NOT DUP5 DUP8 ADD CALLDATALOAD AND DUP2 SSTORE JUMPDEST POP POP PUSH1 0x1 DUP4 PUSH1 0x1 SHL ADD DUP6 SSTORE JUMPDEST POP POP POP POP PUSH1 0x1 DUP2 ADD PUSH2 0x2036 PUSH2 0x2022 PUSH1 0x20 DUP6 ADD PUSH2 0x1C79 JUMP JUMPDEST DUP3 SLOAD SWAP1 ISZERO ISZERO PUSH1 0xFF AND PUSH1 0xFF NOT SWAP2 SWAP1 SWAP2 AND OR DUP3 SSTORE JUMP JUMPDEST PUSH2 0x205F PUSH2 0x2045 PUSH1 0x40 DUP6 ADD PUSH2 0x1C79 JUMP JUMPDEST DUP3 DUP1 SLOAD PUSH2 0xFF00 NOT AND SWAP2 ISZERO ISZERO PUSH1 0x8 SHL PUSH2 0xFF00 AND SWAP2 SWAP1 SWAP2 OR SWAP1 SSTORE JUMP JUMPDEST PUSH2 0x1BA5 PUSH2 0x206E PUSH1 0x60 DUP6 ADD PUSH2 0x1D59 JUMP JUMPDEST DUP3 DUP1 SLOAD PUSH3 0x10000 PUSH1 0x1 PUSH1 0xB0 SHL SUB NOT AND PUSH1 0x10 SWAP3 SWAP1 SWAP3 SHL PUSH3 0x10000 PUSH1 0x1 PUSH1 0xB0 SHL SUB AND SWAP2 SWAP1 SWAP2 OR SWAP1 SSTORE JUMP JUMPDEST PUSH1 0x1 PUSH1 0x40 SHL DUP4 GT ISZERO PUSH2 0x20AA JUMPI PUSH2 0x20AA PUSH2 0x1ADD JUMP JUMPDEST DUP1 SLOAD DUP4 DUP3 SSTORE DUP1 DUP5 LT ISZERO PUSH2 0x2124 JUMPI PUSH1 0x1 PUSH1 0x1 PUSH1 0x1 PUSH1 0xFF SHL SUB DUP3 DUP2 AND DUP4 EQ PUSH2 0x20D2 JUMPI PUSH2 0x20D2 PUSH2 0x1CF5 JUMP JUMPDEST DUP1 DUP7 AND DUP7 EQ PUSH2 0x20E3 JUMPI PUSH2 0x20E3 PUSH2 0x1CF5 JUMP JUMPDEST POP PUSH1 0x0 DUP4 PUSH1 0x0 MSTORE PUSH1 0x20 PUSH1 0x0 KECCAK256 DUP4 PUSH1 0x1 SHL DUP2 ADD DUP8 PUSH1 0x1 SHL DUP3 ADD SWAP2 POP JUMPDEST DUP1 DUP3 LT ISZERO PUSH2 0x211F JUMPI PUSH2 0x210F DUP3 PUSH2 0x1D0B JUMP JUMPDEST DUP3 DUP5 DUP4 ADD SSTORE PUSH1 0x2 DUP3 ADD SWAP2 POP PUSH2 0x20FE JUMP JUMPDEST POP POP POP POP JUMPDEST POP PUSH1 0x0 DUP2 DUP2 MSTORE PUSH1 0x20 DUP2 KECCAK256 DUP4 SWAP2 JUMPDEST DUP6 DUP2 LT ISZERO PUSH2 0x1F35 JUMPI PUSH2 0x214C PUSH2 0x2146 DUP5 DUP8 PUSH2 0x1F3D JUMP JUMPDEST DUP4 PUSH2 0x1F53 JUMP JUMPDEST PUSH1 0x20 SWAP3 SWAP1 SWAP3 ADD SWAP2 PUSH1 0x2 SWAP2 SWAP1 SWAP2 ADD SWAP1 PUSH1 0x1 ADD PUSH2 0x2131 JUMP JUMPDEST PUSH2 0x216C DUP3 DUP4 PUSH2 0x1B09 JUMP JUMPDEST PUSH8 0xFFFFFFFFFFFFFFFF DUP2 GT ISZERO PUSH2 0x2184 JUMPI PUSH2 0x2184 PUSH2 0x1ADD JUMP JUMPDEST PUSH2 0x2192 DUP2 PUSH2 0x1D96 DUP6 SLOAD PUSH2 0x1813 JUMP JUMPDEST PUSH1 0x0 PUSH1 0x1F DUP3 GT PUSH1 0x1 DUP2 EQ PUSH2 0x21C0 JUMPI PUSH1 0x0 DUP4 ISZERO PUSH2 0x21AE JUMPI POP DUP4 DUP3 ADD CALLDATALOAD JUMPDEST PUSH2 0x21B8 DUP5 DUP3 PUSH2 0x1BAA JUMP JUMPDEST DUP7 SSTORE POP PUSH2 0x221A JUMP JUMPDEST PUSH1 0x0 DUP6 DUP2 MSTORE PUSH1 0x20 SWAP1 KECCAK256 PUSH1 0x1F NOT DUP5 AND SWAP1 DUP4 JUMPDEST DUP3 DUP2 LT ISZERO PUSH2 0x21F1 JUMPI DUP7 DUP6 ADD CALLDATALOAD DUP3 SSTORE PUSH1 0x20 SWAP5 DUP6 ADD SWAP5 PUSH1 0x1 SWAP1 SWAP3 ADD SWAP2 ADD PUSH2 0x21D1 JUMP JUMPDEST POP DUP5 DUP3 LT ISZERO PUSH2 0x220E JUMPI PUSH1 0x0 NOT PUSH1 0xF8 DUP7 PUSH1 0x3 SHL AND SHR NOT DUP5 DUP8 ADD CALLDATALOAD AND DUP2 SSTORE JUMPDEST POP POP PUSH1 0x1 DUP4 PUSH1 0x1 SHL ADD DUP6 SSTORE JUMPDEST POP POP POP POP PUSH2 0x222B PUSH1 0x20 DUP4 ADD DUP4 PUSH2 0x1B09 JUMP JUMPDEST PUSH2 0x2239 DUP2 DUP4 PUSH1 0x1 DUP7 ADD PUSH2 0x1BBF JUMP JUMPDEST POP POP PUSH2 0x2248 PUSH1 0x40 DUP4 ADD DUP4 PUSH2 0x1B09 JUMP JUMPDEST PUSH2 0x2256 DUP2 DUP4 PUSH1 0x2 DUP7 ADD PUSH2 0x1BBF JUMP JUMPDEST POP POP PUSH1 0x3 DUP2 ADD PUSH2 0x226B PUSH2 0x2022 PUSH1 0x60 DUP6 ADD PUSH2 0x1C79 JUMP JUMPDEST PUSH2 0x227A PUSH2 0x2045 PUSH1 0x80 DUP6 ADD PUSH2 0x1C79 JUMP JUMPDEST POP PUSH1 0xA0 DUP3 ADD CALLDATALOAD PUSH1 0x4 DUP3 ADD SSTORE PUSH1 0xC0 DUP3 ADD CALLDATALOAD PUSH1 0x5 DUP3 ADD SSTORE PUSH1 0xE0 DUP3 ADD CALLDATALOAD PUSH1 0x6 DUP3 ADD SSTORE PUSH2 0x22A7 PUSH2 0x100 DUP4 ADD DUP4 PUSH2 0x1C8B JUMP JUMPDEST PUSH2 0x22B5 DUP2 DUP4 PUSH1 0x7 DUP7 ADD PUSH2 0x1E69 JUMP JUMPDEST POP POP PUSH2 0x22C5 PUSH2 0x120 DUP4 ADD DUP4 PUSH2 0x1C8B JUMP JUMPDEST PUSH2 0x22D3 DUP2 DUP4 PUSH1 0x8 DUP7 ADD PUSH2 0x2096 JUMP JUMPDEST POP POP POP POP JUMP JUMPDEST DUP2 DUP4 MSTORE DUP2 DUP2 PUSH1 0x20 DUP6 ADD CALLDATACOPY POP PUSH1 0x0 DUP3 DUP3 ADD PUSH1 0x20 SWAP1 DUP2 ADD SWAP2 SWAP1 SWAP2 MSTORE PUSH1 0x1F SWAP1 SWAP2 ADD PUSH1 0x1F NOT AND SWAP1 SWAP2 ADD ADD SWAP1 JUMP JUMPDEST PUSH1 0x40 DUP2 MSTORE PUSH1 0x0 PUSH2 0x2316 PUSH1 0x40 DUP4 ADD DUP7 DUP9 PUSH2 0x22D9 JUMP JUMPDEST DUP3 DUP2 SUB PUSH1 0x20 DUP5 ADD MSTORE PUSH2 0x151E DUP2 DUP6 DUP8 PUSH2 0x22D9 JUMP JUMPDEST PUSH1 0x0 PUSH1 0x1 DUP3 ADD PUSH2 0x233B JUMPI PUSH2 0x233B PUSH2 0x1CF5 JUMP JUMPDEST POP PUSH1 0x1 ADD SWAP1 JUMP INVALID 0xCD MCOPY 0xD1 TLOAD PUSH15 0x187E77E9AEE88184C21F4F2182AB58 0x27 0xCB EXTCODESIZE PUSH31 0x7FBEDCD63F03300A2646970667358221220A0C35E0DD069902CB7FBA620B9 TIMESTAMP PREVRANDAO 0x2C SWAP12 SDIV 0xB4 SHL CREATE MUL 0xC6 0xDC 0xC1 DUP7 PUSH9 0xF16D002A0664736F6C PUSH4 0x43000818 STOP CALLER "
        },
        "methodIdentifiers": {
          "addProposal((string,string,string,bool,bool,(uint256,uint256,uint256),(string,address,uint256)[],(string,bool,bool,address)[]))": "77ee47f6",
          "concludeProposal(uint256)": "1b7864c1",
          "getProposals()": "62564c48",
          "initialize()": "8129fc1c",
          "owner()": "8da5cb5b",
          "pause()": "8456cb59",
          "paused()": "5c975abb",
          "proposalCount()": "da35c664",
          "proposals(uint256)": "013cf08b",
          "renounceOwnership()": "715018a6",
          "transferOwnership(address)": "f2fde38b",
          "unpause()": "3f4ba83a",
          "voteDirective(uint256,uint256)": "97b3418e",
          "voteElection(uint256,address)": "ee473c7a"
        }
      },
      "storageLayout": {
        "storage": [
          {
            "astId": 871,
            "contract": "contracts/Voting/Voting.sol:Voting",
            "label": "proposals",
            "offset": 0,
            "slot": "0",
            "type": "t_mapping(t_uint256,t_struct(Proposal)846_storage)"
          },
          {
            "astId": 873,
            "contract": "contracts/Voting/Voting.sol:Voting",
            "label": "proposalCount",
            "offset": 0,
            "slot": "1",
            "type": "t_uint256"
          }
        ],
        "types": {
          "t_address": {
            "encoding": "inplace",
            "label": "address",
            "numberOfBytes": "20"
          },
          "t_array(t_struct(Candidate)815_storage)dyn_storage": {
            "base": "t_struct(Candidate)815_storage",
            "encoding": "dynamic_array",
            "label": "struct Types.Candidate[]",
            "numberOfBytes": "32"
          },
          "t_array(t_struct(Member)824_storage)dyn_storage": {
            "base": "t_struct(Member)824_storage",
            "encoding": "dynamic_array",
            "label": "struct Types.Member[]",
            "numberOfBytes": "32"
          },
          "t_bool": {
            "encoding": "inplace",
            "label": "bool",
            "numberOfBytes": "1"
          },
          "t_mapping(t_uint256,t_struct(Proposal)846_storage)": {
            "encoding": "mapping",
            "key": "t_uint256",
            "label": "mapping(uint256 => struct Types.Proposal)",
            "numberOfBytes": "32",
            "value": "t_struct(Proposal)846_storage"
          },
          "t_string_storage": {
            "encoding": "bytes",
            "label": "string",
            "numberOfBytes": "32"
          },
          "t_struct(Candidate)815_storage": {
            "encoding": "inplace",
            "label": "struct Types.Candidate",
            "members": [
              {
                "astId": 810,
                "contract": "contracts/Voting/Voting.sol:Voting",
                "label": "name",
                "offset": 0,
                "slot": "0",
                "type": "t_string_storage"
              },
              {
                "astId": 812,
                "contract": "contracts/Voting/Voting.sol:Voting",
                "label": "candidateAddress",
                "offset": 0,
                "slot": "1",
                "type": "t_address"
              },
              {
                "astId": 814,
                "contract": "contracts/Voting/Voting.sol:Voting",
                "label": "votes",
                "offset": 0,
                "slot": "2",
                "type": "t_uint256"
              }
            ],
            "numberOfBytes": "96"
          },
          "t_struct(DirectiveVotes)808_storage": {
            "encoding": "inplace",
            "label": "struct Types.DirectiveVotes",
            "members": [
              {
                "astId": 803,
                "contract": "contracts/Voting/Voting.sol:Voting",
                "label": "yes",
                "offset": 0,
                "slot": "0",
                "type": "t_uint256"
              },
              {
                "astId": 805,
                "contract": "contracts/Voting/Voting.sol:Voting",
                "label": "no",
                "offset": 0,
                "slot": "1",
                "type": "t_uint256"
              },
              {
                "astId": 807,
                "contract": "contracts/Voting/Voting.sol:Voting",
                "label": "abstain",
                "offset": 0,
                "slot": "2",
                "type": "t_uint256"
              }
            ],
            "numberOfBytes": "96"
          },
          "t_struct(Member)824_storage": {
            "encoding": "inplace",
            "label": "struct Types.Member",
            "members": [
              {
                "astId": 817,
                "contract": "contracts/Voting/Voting.sol:Voting",
                "label": "name",
                "offset": 0,
                "slot": "0",
                "type": "t_string_storage"
              },
              {
                "astId": 819,
                "contract": "contracts/Voting/Voting.sol:Voting",
                "label": "isEligible",
                "offset": 0,
                "slot": "1",
                "type": "t_bool"
              },
              {
                "astId": 821,
                "contract": "contracts/Voting/Voting.sol:Voting",
                "label": "isVoted",
                "offset": 1,
                "slot": "1",
                "type": "t_bool"
              },
              {
                "astId": 823,
                "contract": "contracts/Voting/Voting.sol:Voting",
                "label": "memberAddress",
                "offset": 2,
                "slot": "1",
                "type": "t_address"
              }
            ],
            "numberOfBytes": "64"
          },
          "t_struct(Proposal)846_storage": {
            "encoding": "inplace",
            "label": "struct Types.Proposal",
            "members": [
              {
                "astId": 826,
                "contract": "contracts/Voting/Voting.sol:Voting",
                "label": "title",
                "offset": 0,
                "slot": "0",
                "type": "t_string_storage"
              },
              {
                "astId": 828,
                "contract": "contracts/Voting/Voting.sol:Voting",
                "label": "description",
                "offset": 0,
                "slot": "1",
                "type": "t_string_storage"
              },
              {
                "astId": 830,
                "contract": "contracts/Voting/Voting.sol:Voting",
                "label": "draftedBy",
                "offset": 0,
                "slot": "2",
                "type": "t_string_storage"
              },
              {
                "astId": 832,
                "contract": "contracts/Voting/Voting.sol:Voting",
                "label": "isElection",
                "offset": 0,
                "slot": "3",
                "type": "t_bool"
              },
              {
                "astId": 834,
                "contract": "contracts/Voting/Voting.sol:Voting",
                "label": "isActive",
                "offset": 1,
                "slot": "3",
                "type": "t_bool"
              },
              {
                "astId": 837,
                "contract": "contracts/Voting/Voting.sol:Voting",
                "label": "votes",
                "offset": 0,
                "slot": "4",
                "type": "t_struct(DirectiveVotes)808_storage"
              },
              {
                "astId": 841,
                "contract": "contracts/Voting/Voting.sol:Voting",
                "label": "candidates",
                "offset": 0,
                "slot": "7",
                "type": "t_array(t_struct(Candidate)815_storage)dyn_storage"
              },
              {
                "astId": 845,
                "contract": "contracts/Voting/Voting.sol:Voting",
                "label": "voters",
                "offset": 0,
                "slot": "8",
                "type": "t_array(t_struct(Member)824_storage)dyn_storage"
              }
            ],
            "numberOfBytes": "288"
          },
          "t_uint256": {
            "encoding": "inplace",
            "label": "uint256",
            "numberOfBytes": "32"
          }
        }
      }
    }
  }
}