{
  "_format": "hh-sol-artifact-1",
  "contractName": "AdCampaignManager",
  "sourceName": "contracts/AdCampaignManager.sol",
  "abi": [
    {
      "inputs": [
        {
          "internalType": "uint256",
          "name": "_costPerClick",
          "type": "uint256"
        },
        {
          "internalType": "uint256",
          "name": "_costPerImpression",
          "type": "uint256"
        },
        {
          "internalType": "address",
          "name": "_bankContractAddress",
          "type": "address"
        }
      ],
      "stateMutability": "nonpayable",
      "type": "constructor"
    },
    {
      "inputs": [],
      "name": "EnforcedPause",
      "type": "error"
    },
    {
      "inputs": [],
      "name": "ExpectedPause",
      "type": "error"
    },
    {
      "inputs": [
        {
          "internalType": "address",
          "name": "owner",
          "type": "address"
        }
      ],
      "name": "OwnableInvalidOwner",
      "type": "error"
    },
    {
      "inputs": [
        {
          "internalType": "address",
          "name": "account",
          "type": "address"
        }
      ],
      "name": "OwnableUnauthorizedAccount",
      "type": "error"
    },
    {
      "inputs": [],
      "name": "ReentrancyGuardReentrantCall",
      "type": "error"
    },
    {
      "anonymous": false,
      "inputs": [
        {
          "indexed": false,
          "internalType": "string",
          "name": "campaignCode",
          "type": "string"
        },
        {
          "indexed": false,
          "internalType": "uint256",
          "name": "budget",
          "type": "uint256"
        }
      ],
      "name": "AdCampaignCreated",
      "type": "event"
    },
    {
      "anonymous": false,
      "inputs": [
        {
          "indexed": true,
          "internalType": "address",
          "name": "admin",
          "type": "address"
        }
      ],
      "name": "AdminAdded",
      "type": "event"
    },
    {
      "anonymous": false,
      "inputs": [
        {
          "indexed": true,
          "internalType": "address",
          "name": "admin",
          "type": "address"
        }
      ],
      "name": "AdminRemoved",
      "type": "event"
    },
    {
      "anonymous": false,
      "inputs": [
        {
          "indexed": false,
          "internalType": "string",
          "name": "campaignCode",
          "type": "string"
        },
        {
          "indexed": false,
          "internalType": "address",
          "name": "advertiser",
          "type": "address"
        },
        {
          "indexed": false,
          "internalType": "uint256",
          "name": "amount",
          "type": "uint256"
        }
      ],
      "name": "BudgetWithdrawn",
      "type": "event"
    },
    {
      "anonymous": false,
      "inputs": [
        {
          "indexed": true,
          "internalType": "address",
          "name": "previousOwner",
          "type": "address"
        },
        {
          "indexed": true,
          "internalType": "address",
          "name": "newOwner",
          "type": "address"
        }
      ],
      "name": "OwnershipTransferred",
      "type": "event"
    },
    {
      "anonymous": false,
      "inputs": [
        {
          "indexed": false,
          "internalType": "address",
          "name": "account",
          "type": "address"
        }
      ],
      "name": "Paused",
      "type": "event"
    },
    {
      "anonymous": false,
      "inputs": [
        {
          "indexed": false,
          "internalType": "string",
          "name": "campaignCode",
          "type": "string"
        },
        {
          "indexed": false,
          "internalType": "uint256",
          "name": "paymentAmount",
          "type": "uint256"
        }
      ],
      "name": "PaymentReleased",
      "type": "event"
    },
    {
      "anonymous": false,
      "inputs": [
        {
          "indexed": false,
          "internalType": "string",
          "name": "campaignCode",
          "type": "string"
        },
        {
          "indexed": false,
          "internalType": "uint256",
          "name": "paymentAmount",
          "type": "uint256"
        }
      ],
      "name": "PaymentReleasedOnWithdrawApproval",
      "type": "event"
    },
    {
      "anonymous": false,
      "inputs": [
        {
          "indexed": false,
          "internalType": "address",
          "name": "account",
          "type": "address"
        }
      ],
      "name": "Unpaused",
      "type": "event"
    },
    {
      "inputs": [],
      "name": "adCampaignCount",
      "outputs": [
        {
          "internalType": "uint256",
          "name": "",
          "type": "uint256"
        }
      ],
      "stateMutability": "view",
      "type": "function"
    },
    {
      "inputs": [
        {
          "internalType": "uint256",
          "name": "",
          "type": "uint256"
        }
      ],
      "name": "adCampaigns",
      "outputs": [
        {
          "internalType": "uint256",
          "name": "budget",
          "type": "uint256"
        },
        {
          "internalType": "uint256",
          "name": "amountSpent",
          "type": "uint256"
        },
        {
          "internalType": "enum AdCampaignManager.CampaignStatus",
          "name": "status",
          "type": "uint8"
        },
        {
          "internalType": "string",
          "name": "campaignCode",
          "type": "string"
        },
        {
          "internalType": "address",
          "name": "advertiser",
          "type": "address"
        }
      ],
      "stateMutability": "view",
      "type": "function"
    },
    {
      "inputs": [
        {
          "internalType": "address",
          "name": "admin",
          "type": "address"
        }
      ],
      "name": "addAdmin",
      "outputs": [],
      "stateMutability": "nonpayable",
      "type": "function"
    },
    {
      "inputs": [
        {
          "internalType": "address",
          "name": "",
          "type": "address"
        }
      ],
      "name": "admins",
      "outputs": [
        {
          "internalType": "bool",
          "name": "",
          "type": "bool"
        }
      ],
      "stateMutability": "view",
      "type": "function"
    },
    {
      "inputs": [],
      "name": "bankContractAddress",
      "outputs": [
        {
          "internalType": "address",
          "name": "",
          "type": "address"
        }
      ],
      "stateMutability": "view",
      "type": "function"
    },
    {
      "inputs": [
        {
          "internalType": "string",
          "name": "",
          "type": "string"
        }
      ],
      "name": "campaignCodesToId",
      "outputs": [
        {
          "internalType": "uint256",
          "name": "",
          "type": "uint256"
        }
      ],
      "stateMutability": "view",
      "type": "function"
    },
    {
      "inputs": [
        {
          "internalType": "string",
          "name": "campaignCode",
          "type": "string"
        },
        {
          "internalType": "uint256",
          "name": "currentAmountSpent",
          "type": "uint256"
        }
      ],
      "name": "claimPayment",
      "outputs": [],
      "stateMutability": "nonpayable",
      "type": "function"
    },
    {
      "inputs": [],
      "name": "costPerClick",
      "outputs": [
        {
          "internalType": "uint256",
          "name": "",
          "type": "uint256"
        }
      ],
      "stateMutability": "view",
      "type": "function"
    },
    {
      "inputs": [],
      "name": "costPerImpression",
      "outputs": [
        {
          "internalType": "uint256",
          "name": "",
          "type": "uint256"
        }
      ],
      "stateMutability": "view",
      "type": "function"
    },
    {
      "inputs": [],
      "name": "createAdCampaign",
      "outputs": [],
      "stateMutability": "payable",
      "type": "function"
    },
    {
      "inputs": [
        {
          "internalType": "string",
          "name": "campaignCode",
          "type": "string"
        }
      ],
      "name": "getAdCampaignByCode",
      "outputs": [
        {
          "components": [
            {
              "internalType": "uint256",
              "name": "budget",
              "type": "uint256"
            },
            {
              "internalType": "uint256",
              "name": "amountSpent",
              "type": "uint256"
            },
            {
              "internalType": "enum AdCampaignManager.CampaignStatus",
              "name": "status",
              "type": "uint8"
            },
            {
              "internalType": "string",
              "name": "campaignCode",
              "type": "string"
            },
            {
              "internalType": "address",
              "name": "advertiser",
              "type": "address"
            }
          ],
          "internalType": "struct AdCampaignManager.AdCampaign",
          "name": "",
          "type": "tuple"
        }
      ],
      "stateMutability": "view",
      "type": "function"
    },
    {
      "inputs": [],
      "name": "owner",
      "outputs": [
        {
          "internalType": "address",
          "name": "",
          "type": "address"
        }
      ],
      "stateMutability": "view",
      "type": "function"
    },
    {
      "inputs": [],
      "name": "pause",
      "outputs": [],
      "stateMutability": "nonpayable",
      "type": "function"
    },
    {
      "inputs": [],
      "name": "paused",
      "outputs": [
        {
          "internalType": "bool",
          "name": "",
          "type": "bool"
        }
      ],
      "stateMutability": "view",
      "type": "function"
    },
    {
      "inputs": [
        {
          "internalType": "address",
          "name": "admin",
          "type": "address"
        }
      ],
      "name": "removeAdmin",
      "outputs": [],
      "stateMutability": "nonpayable",
      "type": "function"
    },
    {
      "inputs": [],
      "name": "renounceOwnership",
      "outputs": [],
      "stateMutability": "nonpayable",
      "type": "function"
    },
    {
      "inputs": [
        {
          "internalType": "string",
          "name": "campaignCode",
          "type": "string"
        },
        {
          "internalType": "uint256",
          "name": "currentAmountSpent",
          "type": "uint256"
        }
      ],
      "name": "requestAndApproveWithdrawal",
      "outputs": [],
      "stateMutability": "nonpayable",
      "type": "function"
    },
    {
      "inputs": [
        {
          "internalType": "address",
          "name": "_bankContractAddress",
          "type": "address"
        }
      ],
      "name": "setBankContractAddress",
      "outputs": [],
      "stateMutability": "nonpayable",
      "type": "function"
    },
    {
      "inputs": [
        {
          "internalType": "uint256",
          "name": "_costPerClick",
          "type": "uint256"
        }
      ],
      "name": "setCostPerClick",
      "outputs": [],
      "stateMutability": "nonpayable",
      "type": "function"
    },
    {
      "inputs": [
        {
          "internalType": "uint256",
          "name": "_costPerImpression",
          "type": "uint256"
        }
      ],
      "name": "setCostPerImpression",
      "outputs": [],
      "stateMutability": "nonpayable",
      "type": "function"
    },
    {
      "inputs": [
        {
          "internalType": "address",
          "name": "newOwner",
          "type": "address"
        }
      ],
      "name": "transferOwnership",
      "outputs": [],
      "stateMutability": "nonpayable",
      "type": "function"
    },
    {
      "inputs": [],
      "name": "unpause",
      "outputs": [],
      "stateMutability": "nonpayable",
      "type": "function"
    },
    {
      "stateMutability": "payable",
      "type": "receive"
    }
  ],
  "bytecode": "0x60806040523480156200001157600080fd5b506040516200352238038062003522833981810160405281019062000037919062000313565b33600073ffffffffffffffffffffffffffffffffffffffff168173ffffffffffffffffffffffffffffffffffffffff1603620000ad5760006040517f1e4fbdf7000000000000000000000000000000000000000000000000000000008152600401620000a4919062000380565b60405180910390fd5b620000be81620001aa60201b60201c565b5060008060146101000a81548160ff02191690831515021790555060018081905550600073ffffffffffffffffffffffffffffffffffffffff168173ffffffffffffffffffffffffffffffffffffffff160362000152576040517f08c379a00000000000000000000000000000000000000000000000000000000081526004016200014990620003fe565b60405180910390fd5b826002819055508160038190555080600460006101000a81548173ffffffffffffffffffffffffffffffffffffffff021916908373ffffffffffffffffffffffffffffffffffffffff16021790555050505062000420565b60008060009054906101000a900473ffffffffffffffffffffffffffffffffffffffff169050816000806101000a81548173ffffffffffffffffffffffffffffffffffffffff021916908373ffffffffffffffffffffffffffffffffffffffff1602179055508173ffffffffffffffffffffffffffffffffffffffff168173ffffffffffffffffffffffffffffffffffffffff167f8be0079c531659141344cd1fd0a4f28419497f9722a3daafe3b4186f6b6457e060405160405180910390a35050565b600080fd5b6000819050919050565b620002888162000273565b81146200029457600080fd5b50565b600081519050620002a8816200027d565b92915050565b600073ffffffffffffffffffffffffffffffffffffffff82169050919050565b6000620002db82620002ae565b9050919050565b620002ed81620002ce565b8114620002f957600080fd5b50565b6000815190506200030d81620002e2565b92915050565b6000806000606084860312156200032f576200032e6200026e565b5b60006200033f8682870162000297565b9350506020620003528682870162000297565b92505060406200036586828701620002fc565b9150509250925092565b6200037a81620002ce565b82525050565b60006020820190506200039760008301846200036f565b92915050565b600082825260208201905092915050565b7f496e76616c69642062616e6b20636f6e74726163742061646472657373000000600082015250565b6000620003e6601d836200039d565b9150620003f382620003ae565b602082019050919050565b600060208201905081810360008301526200041981620003d7565b9050919050565b6130f280620004306000396000f3fe6080604052600436106101395760003560e01c8063715018a6116100ab578063bdbfc56d1161006f578063bdbfc56d146103c8578063cbef6132146103f1578063d0ac40131461041a578063e5034e0a14610457578063f2fde38b14610482578063f3e42b91146104ab57610140565b8063715018a6146103055780637aab369b1461031c5780638456cb59146103455780638da5cb5b1461035c578063a649d04f1461038757610140565b806342127a95116100fd57806342127a95146101f7578063429b62e5146102205780634b67b5381461025d5780635c975abb146102885780637007e2bf146102b357806370480275146102dc57610140565b80630bedb86d146101455780630da949df146101705780631785f53c1461017a5780633f4ba83a146101a3578063415eaedd146101ba57610140565b3661014057005b600080fd5b34801561015157600080fd5b5061015a6104d6565b6040516101679190611eb5565b60405180910390f35b6101786104dc565b005b34801561018657600080fd5b506101a1600480360381019061019c9190611f42565b6106c6565b005b3480156101af57600080fd5b506101b861076c565b005b3480156101c657600080fd5b506101e160048036038101906101dc91906120b5565b61077e565b6040516101ee9190612288565b60405180910390f35b34801561020357600080fd5b5061021e60048036038101906102199190611f42565b610949565b005b34801561022c57600080fd5b5061024760048036038101906102429190611f42565b610ac5565b60405161025491906122c5565b60405180910390f35b34801561026957600080fd5b50610272610ae5565b60405161027f9190611eb5565b60405180910390f35b34801561029457600080fd5b5061029d610aeb565b6040516102aa91906122c5565b60405180910390f35b3480156102bf57600080fd5b506102da60048036038101906102d5919061230c565b610b01565b005b3480156102e857600080fd5b5061030360048036038101906102fe9190611f42565b610bd4565b005b34801561031157600080fd5b5061031a610c7a565b005b34801561032857600080fd5b50610343600480360381019061033e9190612339565b610c8e565b005b34801561035157600080fd5b5061035a6110d3565b005b34801561036857600080fd5b506103716110e5565b60405161037e91906123a4565b60405180910390f35b34801561039357600080fd5b506103ae60048036038101906103a9919061230c565b61110e565b6040516103bf959493929190612418565b60405180910390f35b3480156103d457600080fd5b506103ef60048036038101906103ea919061230c565b6111f9565b005b3480156103fd57600080fd5b5061041860048036038101906104139190612339565b6112cc565b005b34801561042657600080fd5b50610441600480360381019061043c91906120b5565b6117e2565b60405161044e9190611eb5565b60405180910390f35b34801561046357600080fd5b5061046c611810565b60405161047991906123a4565b60405180910390f35b34801561048e57600080fd5b506104a960048036038101906104a49190611f42565b611836565b005b3480156104b757600080fd5b506104c06118bc565b6040516104cd9190611eb5565b60405180910390f35b60085481565b6104e46118c2565b6104ec611903565b6000341161052f576040517f08c379a0000000000000000000000000000000000000000000000000000000008152600401610526906124e4565b60405180910390fd5b6008600081548092919061054290612533565b91905055506000610551611949565b90506040518060a00160405280348152602001600081526020016000600181111561057f5761057e61210d565b5b81526020018281526020013373ffffffffffffffffffffffffffffffffffffffff16815250600660006008548152602001908152602001600020600082015181600001556020820151816001015560408201518160020160006101000a81548160ff021916908360018111156105f8576105f761210d565b5b021790555060608201518160030190816106129190612787565b5060808201518160040160006101000a81548173ffffffffffffffffffffffffffffffffffffffff021916908373ffffffffffffffffffffffffffffffffffffffff1602179055509050506008546005826040516106709190612895565b9081526020016040518091039020819055507fc79154d0a4bae450367237b7422a1e23347c6fcafb5c10d57932694982687b7381346040516106b39291906128ac565b60405180910390a1506106c46119c3565b565b6106ce6119cc565b6000600760008373ffffffffffffffffffffffffffffffffffffffff1673ffffffffffffffffffffffffffffffffffffffff16815260200190815260200160002060006101000a81548160ff0219169083151502179055508073ffffffffffffffffffffffffffffffffffffffff167fa3b62bc36326052d97ea62d63c3d60308ed4c3ea8ac079dd8499f1e9c4f80c0f60405160405180910390a250565b6107746119cc565b61077c611a53565b565b610786611e45565b60006005836040516107989190612895565b9081526020016040518091039020549050600081116107ec576040517f08c379a00000000000000000000000000000000000000000000000000000000081526004016107e390612928565b60405180910390fd5b600660008281526020019081526020016000206040518060a001604052908160008201548152602001600182015481526020016002820160009054906101000a900460ff1660018111156108435761084261210d565b5b60018111156108555761085461210d565b5b8152602001600382018054610869906125aa565b80601f0160208091040260200160405190810160405280929190818152602001828054610895906125aa565b80156108e25780601f106108b7576101008083540402835291602001916108e2565b820191906000526020600020905b8154815290600101906020018083116108c557829003601f168201915b505050505081526020016004820160009054906101000a900473ffffffffffffffffffffffffffffffffffffffff1673ffffffffffffffffffffffffffffffffffffffff1673ffffffffffffffffffffffffffffffffffffffff1681525050915050919050565b600760003373ffffffffffffffffffffffffffffffffffffffff1673ffffffffffffffffffffffffffffffffffffffff16815260200190815260200160002060009054906101000a900460ff16806109d357503373ffffffffffffffffffffffffffffffffffffffff166109bb6110e5565b73ffffffffffffffffffffffffffffffffffffffff16145b610a12576040517f08c379a0000000000000000000000000000000000000000000000000000000008152600401610a09906129ba565b60405180910390fd5b600073ffffffffffffffffffffffffffffffffffffffff168173ffffffffffffffffffffffffffffffffffffffff1603610a81576040517f08c379a0000000000000000000000000000000000000000000000000000000008152600401610a7890612a26565b60405180910390fd5b80600460006101000a81548173ffffffffffffffffffffffffffffffffffffffff021916908373ffffffffffffffffffffffffffffffffffffffff16021790555050565b60076020528060005260406000206000915054906101000a900460ff1681565b60025481565b60008060149054906101000a900460ff16905090565b600760003373ffffffffffffffffffffffffffffffffffffffff1673ffffffffffffffffffffffffffffffffffffffff16815260200190815260200160002060009054906101000a900460ff1680610b8b57503373ffffffffffffffffffffffffffffffffffffffff16610b736110e5565b73ffffffffffffffffffffffffffffffffffffffff16145b610bca576040517f08c379a0000000000000000000000000000000000000000000000000000000008152600401610bc1906129ba565b60405180910390fd5b8060038190555050565b610bdc6119cc565b6001600760008373ffffffffffffffffffffffffffffffffffffffff1673ffffffffffffffffffffffffffffffffffffffff16815260200190815260200160002060006101000a81548160ff0219169083151502179055508073ffffffffffffffffffffffffffffffffffffffff167f44d6d25963f097ad14f29f06854a01f575648a1ef82f30e562ccd3889717e33960405160405180910390a250565b610c826119cc565b610c8c6000611ab5565b565b600760003373ffffffffffffffffffffffffffffffffffffffff1673ffffffffffffffffffffffffffffffffffffffff16815260200190815260200160002060009054906101000a900460ff1680610d1857503373ffffffffffffffffffffffffffffffffffffffff16610d006110e5565b73ffffffffffffffffffffffffffffffffffffffff16145b610d57576040517f08c379a0000000000000000000000000000000000000000000000000000000008152600401610d4e906129ba565b60405180910390fd5b610d5f6118c2565b610d67611903565b6000600583604051610d799190612895565b908152602001604051809103902054905060008211610dcd576040517f08c379a0000000000000000000000000000000000000000000000000000000008152600401610dc490612ab8565b60405180910390fd5b60008111610e10576040517f08c379a0000000000000000000000000000000000000000000000000000000008152600401610e0790612928565b60405180910390fd5b600060066000838152602001908152602001600020905060006001811115610e3b57610e3a61210d565b5b8160020160009054906101000a900460ff166001811115610e5f57610e5e61210d565b5b14610e9f576040517f08c379a0000000000000000000000000000000000000000000000000000000008152600401610e9690612b24565b60405180910390fd5b6000816001015484610eb19190612b44565b905060008111610ef6576040517f08c379a0000000000000000000000000000000000000000000000000000000008152600401610eed90612bea565b60405180910390fd5b600082600101548360000154610f0c9190612b44565b9050600082821115610f1e5782610f20565b815b905080471015610f65576040517f08c379a0000000000000000000000000000000000000000000000000000000008152600401610f5c90612c56565b60405180910390fd5b808460010154610f759190612c76565b84600101819055508360000154846001015410610fba5760018460020160006101000a81548160ff02191690836001811115610fb457610fb361210d565b5b02179055505b6000600460009054906101000a900473ffffffffffffffffffffffffffffffffffffffff1673ffffffffffffffffffffffffffffffffffffffff168260405161100290612cdb565b60006040518083038185875af1925050503d806000811461103f576040519150601f19603f3d011682016040523d82523d6000602084013e611044565b606091505b5050905080611088576040517f08c379a000000000000000000000000000000000000000000000000000000000815260040161107f90612d3c565b60405180910390fd5b7f4a1f19202167cbf263d5e4ac0deb8eb1d58700a6e621b10a650d456ed5a5ad5388836040516110b99291906128ac565b60405180910390a15050505050506110cf6119c3565b5050565b6110db6119cc565b6110e3611b79565b565b60008060009054906101000a900473ffffffffffffffffffffffffffffffffffffffff16905090565b60066020528060005260406000206000915090508060000154908060010154908060020160009054906101000a900460ff1690806003018054611150906125aa565b80601f016020809104026020016040519081016040528092919081815260200182805461117c906125aa565b80156111c95780601f1061119e576101008083540402835291602001916111c9565b820191906000526020600020905b8154815290600101906020018083116111ac57829003601f168201915b5050505050908060040160009054906101000a900473ffffffffffffffffffffffffffffffffffffffff16905085565b600760003373ffffffffffffffffffffffffffffffffffffffff1673ffffffffffffffffffffffffffffffffffffffff16815260200190815260200160002060009054906101000a900460ff168061128357503373ffffffffffffffffffffffffffffffffffffffff1661126b6110e5565b73ffffffffffffffffffffffffffffffffffffffff16145b6112c2576040517f08c379a00000000000000000000000000000000000000000000000000000000081526004016112b9906129ba565b60405180910390fd5b8060028190555050565b6112d4611903565b60006005836040516112e69190612895565b90815260200160405180910390205490506000811161133a576040517f08c379a000000000000000000000000000000000000000000000000000000000815260040161133190612928565b60405180910390fd5b6000600660008381526020019081526020016000209050600060018111156113655761136461210d565b5b8160020160009054906101000a900460ff1660018111156113895761138861210d565b5b146113c9576040517f08c379a00000000000000000000000000000000000000000000000000000000081526004016113c090612b24565b60405180910390fd5b8060040160009054906101000a900473ffffffffffffffffffffffffffffffffffffffff1673ffffffffffffffffffffffffffffffffffffffff163373ffffffffffffffffffffffffffffffffffffffff1614806114705750600760003373ffffffffffffffffffffffffffffffffffffffff1673ffffffffffffffffffffffffffffffffffffffff16815260200190815260200160002060009054906101000a900460ff165b806114ad575061147e6110e5565b73ffffffffffffffffffffffffffffffffffffffff163373ffffffffffffffffffffffffffffffffffffffff16145b6114ec576040517f08c379a00000000000000000000000000000000000000000000000000000000081526004016114e390612dce565b60405180910390fd5b8281600101541115611533576040517f08c379a000000000000000000000000000000000000000000000000000000000815260040161152a90612e86565b60405180910390fd5b60008382600001546115459190612b44565b905060018260020160006101000a81548160ff0219169083600181111561156f5761156e61210d565b5b0217905550600081111561164d576000600460009054906101000a900473ffffffffffffffffffffffffffffffffffffffff1673ffffffffffffffffffffffffffffffffffffffff16826040516115c590612cdb565b60006040518083038185875af1925050503d8060008114611602576040519150601f19603f3d011682016040523d82523d6000602084013e611607565b606091505b505090508061164b576040517f08c379a000000000000000000000000000000000000000000000000000000000815260040161164290612d3c565b60405180910390fd5b505b600082600101548561165f9190612b44565b9050600081111561173a576000600460009054906101000a900473ffffffffffffffffffffffffffffffffffffffff1673ffffffffffffffffffffffffffffffffffffffff16826040516116b290612cdb565b60006040518083038185875af1925050503d80600081146116ef576040519150601f19603f3d011682016040523d82523d6000602084013e6116f4565b606091505b5050905080611738576040517f08c379a000000000000000000000000000000000000000000000000000000000815260040161172f90612d3c565b60405180910390fd5b505b7fba9059f3850aee53fbd909cc5b38d859e4a645f2ad3da7093ab74c7b88f24bf2868460040160009054906101000a900473ffffffffffffffffffffffffffffffffffffffff168460405161179193929190612ea6565b60405180910390a17fd94c2a1bdebb5c53e4d8c915ab66e4ac6cb53eb59bb0c69f423bb4f6f6084de386826040516117ca9291906128ac565b60405180910390a1505050506117de6119c3565b5050565b6005818051602081018201805184825260208301602085012081835280955050505050506000915090505481565b600460009054906101000a900473ffffffffffffffffffffffffffffffffffffffff1681565b61183e6119cc565b600073ffffffffffffffffffffffffffffffffffffffff168173ffffffffffffffffffffffffffffffffffffffff16036118b05760006040517f1e4fbdf70000000000000000000000000000000000000000000000000000000081526004016118a791906123a4565b60405180910390fd5b6118b981611ab5565b50565b60035481565b6118ca610aeb565b15611901576040517fd93c066500000000000000000000000000000000000000000000000000000000815260040160405180910390fd5b565b60026001540361193f576040517f3ee5aeb500000000000000000000000000000000000000000000000000000000815260040160405180910390fd5b6002600181905550565b60606000620f424042443360405160200161196693929190612f4d565b6040516020818303038152906040528051906020012060001c6119899190612fb9565b905061199442611bdc565b61199d82611bdc565b6040516020016119ae929190613082565b60405160208183030381529060405291505090565b60018081905550565b6119d4611caa565b73ffffffffffffffffffffffffffffffffffffffff166119f26110e5565b73ffffffffffffffffffffffffffffffffffffffff1614611a5157611a15611caa565b6040517f118cdaa7000000000000000000000000000000000000000000000000000000008152600401611a4891906123a4565b60405180910390fd5b565b611a5b611cb2565b60008060146101000a81548160ff0219169083151502179055507f5db9ee0a495bf2e6ff9c91a7834c1ba4fdd244a5e8aa4e537bd38aeae4b073aa611a9e611caa565b604051611aab91906123a4565b60405180910390a1565b60008060009054906101000a900473ffffffffffffffffffffffffffffffffffffffff169050816000806101000a81548173ffffffffffffffffffffffffffffffffffffffff021916908373ffffffffffffffffffffffffffffffffffffffff1602179055508173ffffffffffffffffffffffffffffffffffffffff168173ffffffffffffffffffffffffffffffffffffffff167f8be0079c531659141344cd1fd0a4f28419497f9722a3daafe3b4186f6b6457e060405160405180910390a35050565b611b816118c2565b6001600060146101000a81548160ff0219169083151502179055507f62e78cea01bee320cd4e420270b5ea74000d11b0c9f74754ebdbfc544b05a258611bc5611caa565b604051611bd291906123a4565b60405180910390a1565b606060006001611beb84611cf2565b01905060008167ffffffffffffffff811115611c0a57611c09611f8a565b5b6040519080825280601f01601f191660200182016040528015611c3c5781602001600182028036833780820191505090505b509050600082602001820190505b600115611c9f578080600190039150507f3031323334353637383961626364656600000000000000000000000000000000600a86061a8153600a8581611c9357611c92612f8a565b5b04945060008503611c4a575b819350505050919050565b600033905090565b611cba610aeb565b611cf0576040517f8dfc202b00000000000000000000000000000000000000000000000000000000815260040160405180910390fd5b565b600080600090507a184f03e93ff9f4daa797ed6e38ed64bf6a1f0100000000000000008310611d50577a184f03e93ff9f4daa797ed6e38ed64bf6a1f0100000000000000008381611d4657611d45612f8a565b5b0492506040810190505b6d04ee2d6d415b85acef81000000008310611d8d576d04ee2d6d415b85acef81000000008381611d8357611d82612f8a565b5b0492506020810190505b662386f26fc100008310611dbc57662386f26fc100008381611db257611db1612f8a565b5b0492506010810190505b6305f5e1008310611de5576305f5e1008381611ddb57611dda612f8a565b5b0492506008810190505b6127108310611e0a576127108381611e0057611dff612f8a565b5b0492506004810190505b60648310611e2d5760648381611e2357611e22612f8a565b5b0492506002810190505b600a8310611e3c576001810190505b80915050919050565b6040518060a00160405280600081526020016000815260200160006001811115611e7257611e7161210d565b5b815260200160608152602001600073ffffffffffffffffffffffffffffffffffffffff1681525090565b6000819050919050565b611eaf81611e9c565b82525050565b6000602082019050611eca6000830184611ea6565b92915050565b6000604051905090565b600080fd5b600080fd5b600073ffffffffffffffffffffffffffffffffffffffff82169050919050565b6000611f0f82611ee4565b9050919050565b611f1f81611f04565b8114611f2a57600080fd5b50565b600081359050611f3c81611f16565b92915050565b600060208284031215611f5857611f57611eda565b5b6000611f6684828501611f2d565b91505092915050565b600080fd5b600080fd5b6000601f19601f8301169050919050565b7f4e487b7100000000000000000000000000000000000000000000000000000000600052604160045260246000fd5b611fc282611f79565b810181811067ffffffffffffffff82111715611fe157611fe0611f8a565b5b80604052505050565b6000611ff4611ed0565b90506120008282611fb9565b919050565b600067ffffffffffffffff8211156120205761201f611f8a565b5b61202982611f79565b9050602081019050919050565b82818337600083830152505050565b600061205861205384612005565b611fea565b90508281526020810184848401111561207457612073611f74565b5b61207f848285612036565b509392505050565b600082601f83011261209c5761209b611f6f565b5b81356120ac848260208601612045565b91505092915050565b6000602082840312156120cb576120ca611eda565b5b600082013567ffffffffffffffff8111156120e9576120e8611edf565b5b6120f584828501612087565b91505092915050565b61210781611e9c565b82525050565b7f4e487b7100000000000000000000000000000000000000000000000000000000600052602160045260246000fd5b6002811061214d5761214c61210d565b5b50565b600081905061215e8261213c565b919050565b600061216e82612150565b9050919050565b61217e81612163565b82525050565b600081519050919050565b600082825260208201905092915050565b60005b838110156121be5780820151818401526020810190506121a3565b60008484015250505050565b60006121d582612184565b6121df818561218f565b93506121ef8185602086016121a0565b6121f881611f79565b840191505092915050565b61220c81611f04565b82525050565b600060a08301600083015161222a60008601826120fe565b50602083015161223d60208601826120fe565b5060408301516122506040860182612175565b506060830151848203606086015261226882826121ca565b915050608083015161227d6080860182612203565b508091505092915050565b600060208201905081810360008301526122a28184612212565b905092915050565b60008115159050919050565b6122bf816122aa565b82525050565b60006020820190506122da60008301846122b6565b92915050565b6122e981611e9c565b81146122f457600080fd5b50565b600081359050612306816122e0565b92915050565b60006020828403121561232257612321611eda565b5b6000612330848285016122f7565b91505092915050565b600080604083850312156123505761234f611eda565b5b600083013567ffffffffffffffff81111561236e5761236d611edf565b5b61237a85828601612087565b925050602061238b858286016122f7565b9150509250929050565b61239e81611f04565b82525050565b60006020820190506123b96000830184612395565b92915050565b6123c881612163565b82525050565b600082825260208201905092915050565b60006123ea82612184565b6123f481856123ce565b93506124048185602086016121a0565b61240d81611f79565b840191505092915050565b600060a08201905061242d6000830188611ea6565b61243a6020830187611ea6565b61244760408301866123bf565b818103606083015261245981856123df565b90506124686080830184612395565b9695505050505050565b7f746865206275646765742073686f756c6420626520677265617465722074686160008201527f6e207a65726f0000000000000000000000000000000000000000000000000000602082015250565b60006124ce6026836123ce565b91506124d982612472565b604082019050919050565b600060208201905081810360008301526124fd816124c1565b9050919050565b7f4e487b7100000000000000000000000000000000000000000000000000000000600052601160045260246000fd5b600061253e82611e9c565b91507fffffffffffffffffffffffffffffffffffffffffffffffffffffffffffffffff82036125705761256f612504565b5b600182019050919050565b7f4e487b7100000000000000000000000000000000000000000000000000000000600052602260045260246000fd5b600060028204905060018216806125c257607f821691505b6020821081036125d5576125d461257b565b5b50919050565b60008190508160005260206000209050919050565b60006020601f8301049050919050565b600082821b905092915050565b60006008830261263d7fffffffffffffffffffffffffffffffffffffffffffffffffffffffffffffffff82612600565b6126478683612600565b95508019841693508086168417925050509392505050565b6000819050919050565b600061268461267f61267a84611e9c565b61265f565b611e9c565b9050919050565b6000819050919050565b61269e83612669565b6126b26126aa8261268b565b84845461260d565b825550505050565b600090565b6126c76126ba565b6126d2818484612695565b505050565b5b818110156126f6576126eb6000826126bf565b6001810190506126d8565b5050565b601f82111561273b5761270c816125db565b612715846125f0565b81016020851015612724578190505b612738612730856125f0565b8301826126d7565b50505b505050565b600082821c905092915050565b600061275e60001984600802612740565b1980831691505092915050565b6000612777838361274d565b9150826002028217905092915050565b61279082612184565b67ffffffffffffffff8111156127a9576127a8611f8a565b5b6127b382546125aa565b6127be8282856126fa565b600060209050601f8311600181146127f157600084156127df578287015190505b6127e9858261276b565b865550612851565b601f1984166127ff866125db565b60005b8281101561282757848901518255600182019150602085019450602081019050612802565b868310156128445784890151612840601f89168261274d565b8355505b6001600288020188555050505b505050505050565b600081905092915050565b600061286f82612184565b6128798185612859565b93506128898185602086016121a0565b80840191505092915050565b60006128a18284612864565b915081905092915050565b600060408201905081810360008301526128c681856123df565b90506128d56020830184611ea6565b9392505050565b7f496e76616c69642063616d706169676e20636f64650000000000000000000000600082015250565b60006129126015836123ce565b915061291d826128dc565b602082019050919050565b6000602082019050818103600083015261294181612905565b9050919050565b7f43616c6c6572206973206e6f7420616e2061646d696e206f7220746865206f7760008201527f6e65720000000000000000000000000000000000000000000000000000000000602082015250565b60006129a46023836123ce565b91506129af82612948565b604082019050919050565b600060208201905081810360008301526129d381612997565b9050919050565b7f496e76616c69642062616e6b20636f6e74726163742061646472657373000000600082015250565b6000612a10601d836123ce565b9150612a1b826129da565b602082019050919050565b60006020820190508181036000830152612a3f81612a03565b9050919050565b7f7468652063757272656e7420616d6f756e74207370656e742073686f756c642060008201527f62652067726561746572207468616e207a65726f000000000000000000000000602082015250565b6000612aa26034836123ce565b9150612aad82612a46565b604082019050919050565b60006020820190508181036000830152612ad181612a95565b9050919050565b7f43616d706169676e206973206e6f742061637469766500000000000000000000600082015250565b6000612b0e6016836123ce565b9150612b1982612ad8565b602082019050919050565b60006020820190508181036000830152612b3d81612b01565b9050919050565b6000612b4f82611e9c565b9150612b5a83611e9c565b9250828203905081811115612b7257612b71612504565b5b92915050565b7f205468652063757272656e7420616d6f756e7420636c61696d65642073686f7560008201527f6c642062652067726561746572207468616e207a65726f000000000000000000602082015250565b6000612bd46037836123ce565b9150612bdf82612b78565b604082019050919050565b60006020820190508181036000830152612c0381612bc7565b9050919050565b7f496e73756666696369656e7420636f6e74726163742062616c616e6365000000600082015250565b6000612c40601d836123ce565b9150612c4b82612c0a565b602082019050919050565b60006020820190508181036000830152612c6f81612c33565b9050919050565b6000612c8182611e9c565b9150612c8c83611e9c565b9250828201905080821115612ca457612ca3612504565b5b92915050565b600081905092915050565b50565b6000612cc5600083612caa565b9150612cd082612cb5565b600082019050919050565b6000612ce682612cb8565b9150819050919050565b7f5472616e7366657220746f2062616e6b20636f6e7472616374206661696c6564600082015250565b6000612d266020836123ce565b9150612d3182612cf0565b602082019050919050565b60006020820190508181036000830152612d5581612d19565b9050919050565b7f4f6e6c792074686520616476657274697365722c61646d696e2c206f72206f7760008201527f6e65722063616e2072657175657374207769746864726177616c000000000000602082015250565b6000612db8603a836123ce565b9150612dc382612d5c565b604082019050919050565b60006020820190508181036000830152612de781612dab565b9050919050565b7f207468652063757272656e7420616d6f756e74207370656e742073686f756c6460008201527f2062652067726561746572207468616e2074686520616c726561647920636c6160208201527f696d656420416d6f756e74000000000000000000000000000000000000000000604082015250565b6000612e70604b836123ce565b9150612e7b82612dee565b606082019050919050565b60006020820190508181036000830152612e9f81612e63565b9050919050565b60006060820190508181036000830152612ec081866123df565b9050612ecf6020830185612395565b612edc6040830184611ea6565b949350505050565b6000819050919050565b612eff612efa82611e9c565b612ee4565b82525050565b60008160601b9050919050565b6000612f1d82612f05565b9050919050565b6000612f2f82612f12565b9050919050565b612f47612f4282611f04565b612f24565b82525050565b6000612f598286612eee565b602082019150612f698285612eee565b602082019150612f798284612f36565b601482019150819050949350505050565b7f4e487b7100000000000000000000000000000000000000000000000000000000600052601260045260246000fd5b6000612fc482611e9c565b9150612fcf83611e9c565b925082612fdf57612fde612f8a565b5b828206905092915050565b7f43414d504149474e2d0000000000000000000000000000000000000000000000600082015250565b6000613020600983612859565b915061302b82612fea565b600982019050919050565b7f2d00000000000000000000000000000000000000000000000000000000000000600082015250565b600061306c600183612859565b915061307782613036565b600182019050919050565b600061308d82613013565b91506130998285612864565b91506130a48261305f565b91506130b08284612864565b9150819050939250505056fea2646970667358221220a9f601e88e55fcf21dd8aece3d4fe2ec8b066cb1cfb745345b363951b7c72c3264736f6c63430008180033",
  "linkReferences": {},
  "deployedLinkReferences": {}
}