{
  "_format": "hh-sol-artifact-1",
  "contractName": "AdCampaignManager",
  "sourceName": "contracts/AdCampaignManager.sol",
  "abi": [
    {
      "inputs": [
        {
          "internalType": "uint256",
          "name": "_costPerClick",
          "type": "uint256"
        },
        {
          "internalType": "uint256",
          "name": "_costPerImpression",
          "type": "uint256"
        },
        {
          "internalType": "address",
          "name": "_bankContractAddress",
          "type": "address"
        }
      ],
      "stateMutability": "nonpayable",
      "type": "constructor"
    },
    {
      "inputs": [],
      "name": "EnforcedPause",
      "type": "error"
    },
    {
      "inputs": [],
      "name": "ExpectedPause",
      "type": "error"
    },
    {
      "inputs": [
        {
          "internalType": "address",
          "name": "owner",
          "type": "address"
        }
      ],
      "name": "OwnableInvalidOwner",
      "type": "error"
    },
    {
      "inputs": [
        {
          "internalType": "address",
          "name": "account",
          "type": "address"
        }
      ],
      "name": "OwnableUnauthorizedAccount",
      "type": "error"
    },
    {
      "inputs": [],
      "name": "ReentrancyGuardReentrantCall",
      "type": "error"
    },
    {
      "anonymous": false,
      "inputs": [
        {
          "indexed": false,
          "internalType": "string",
          "name": "campaignCode",
          "type": "string"
        },
        {
          "indexed": false,
          "internalType": "uint256",
          "name": "budget",
          "type": "uint256"
        }
      ],
      "name": "AdCampaignCreated",
      "type": "event"
    },
    {
      "anonymous": false,
      "inputs": [
        {
          "indexed": true,
          "internalType": "address",
          "name": "admin",
          "type": "address"
        }
      ],
      "name": "AdminAdded",
      "type": "event"
    },
    {
      "anonymous": false,
      "inputs": [
        {
          "indexed": true,
          "internalType": "address",
          "name": "admin",
          "type": "address"
        }
      ],
      "name": "AdminRemoved",
      "type": "event"
    },
    {
      "anonymous": false,
      "inputs": [
        {
          "indexed": false,
          "internalType": "string",
          "name": "campaignCode",
          "type": "string"
        },
        {
          "indexed": false,
          "internalType": "address",
          "name": "advertiser",
          "type": "address"
        },
        {
          "indexed": false,
          "internalType": "uint256",
          "name": "amount",
          "type": "uint256"
        }
      ],
      "name": "BudgetWithdrawn",
      "type": "event"
    },
    {
      "anonymous": false,
      "inputs": [
        {
          "indexed": true,
          "internalType": "address",
          "name": "previousOwner",
          "type": "address"
        },
        {
          "indexed": true,
          "internalType": "address",
          "name": "newOwner",
          "type": "address"
        }
      ],
      "name": "OwnershipTransferred",
      "type": "event"
    },
    {
      "anonymous": false,
      "inputs": [
        {
          "indexed": false,
          "internalType": "address",
          "name": "account",
          "type": "address"
        }
      ],
      "name": "Paused",
      "type": "event"
    },
    {
      "anonymous": false,
      "inputs": [
        {
          "indexed": false,
          "internalType": "string",
          "name": "campaignCode",
          "type": "string"
        },
        {
          "indexed": false,
          "internalType": "uint256",
          "name": "paymentAmount",
          "type": "uint256"
        }
      ],
      "name": "PaymentReleased",
      "type": "event"
    },
    {
      "anonymous": false,
      "inputs": [
        {
          "indexed": false,
          "internalType": "string",
          "name": "campaignCode",
          "type": "string"
        },
        {
          "indexed": false,
          "internalType": "uint256",
          "name": "paymentAmount",
          "type": "uint256"
        }
      ],
      "name": "PaymentReleasedOnWithdrawApproval",
      "type": "event"
    },
    {
      "anonymous": false,
      "inputs": [
        {
          "indexed": false,
          "internalType": "address",
          "name": "account",
          "type": "address"
        }
      ],
      "name": "Unpaused",
      "type": "event"
    },
    {
      "inputs": [],
      "name": "adCampaignCount",
      "outputs": [
        {
          "internalType": "uint256",
          "name": "",
          "type": "uint256"
        }
      ],
      "stateMutability": "view",
      "type": "function"
    },
    {
      "inputs": [
        {
          "internalType": "uint256",
          "name": "",
          "type": "uint256"
        }
      ],
      "name": "adCampaigns",
      "outputs": [
        {
          "internalType": "uint256",
          "name": "budget",
          "type": "uint256"
        },
        {
          "internalType": "uint256",
          "name": "amountSpent",
          "type": "uint256"
        },
        {
          "internalType": "enum AdCampaignManager.CampaignStatus",
          "name": "status",
          "type": "uint8"
        },
        {
          "internalType": "string",
          "name": "campaignCode",
          "type": "string"
        },
        {
          "internalType": "address",
          "name": "advertiser",
          "type": "address"
        }
      ],
      "stateMutability": "view",
      "type": "function"
    },
    {
      "inputs": [
        {
          "internalType": "address",
          "name": "admin",
          "type": "address"
        }
      ],
      "name": "addAdmin",
      "outputs": [],
      "stateMutability": "nonpayable",
      "type": "function"
    },
    {
      "inputs": [
        {
          "internalType": "address",
          "name": "",
          "type": "address"
        }
      ],
      "name": "admins",
      "outputs": [
        {
          "internalType": "bool",
          "name": "",
          "type": "bool"
        }
      ],
      "stateMutability": "view",
      "type": "function"
    },
    {
      "inputs": [],
      "name": "bankContractAddress",
      "outputs": [
        {
          "internalType": "address",
          "name": "",
          "type": "address"
        }
      ],
      "stateMutability": "view",
      "type": "function"
    },
    {
      "inputs": [
        {
          "internalType": "string",
          "name": "",
          "type": "string"
        }
      ],
      "name": "campaignCodesToId",
      "outputs": [
        {
          "internalType": "uint256",
          "name": "",
          "type": "uint256"
        }
      ],
      "stateMutability": "view",
      "type": "function"
    },
    {
      "inputs": [
        {
          "internalType": "string",
          "name": "campaignCode",
          "type": "string"
        },
        {
          "internalType": "uint256",
          "name": "currentAmountSpent",
          "type": "uint256"
        }
      ],
      "name": "claimPayment",
      "outputs": [],
      "stateMutability": "nonpayable",
      "type": "function"
    },
    {
      "inputs": [],
      "name": "costPerClick",
      "outputs": [
        {
          "internalType": "uint256",
          "name": "",
          "type": "uint256"
        }
      ],
      "stateMutability": "view",
      "type": "function"
    },
    {
      "inputs": [],
      "name": "costPerImpression",
      "outputs": [
        {
          "internalType": "uint256",
          "name": "",
          "type": "uint256"
        }
      ],
      "stateMutability": "view",
      "type": "function"
    },
    {
      "inputs": [],
      "name": "createAdCampaign",
      "outputs": [],
      "stateMutability": "payable",
      "type": "function"
    },
    {
      "inputs": [
        {
          "internalType": "string",
          "name": "campaignCode",
          "type": "string"
        }
      ],
      "name": "getAdCampaignByCode",
      "outputs": [
        {
          "components": [
            {
              "internalType": "uint256",
              "name": "budget",
              "type": "uint256"
            },
            {
              "internalType": "uint256",
              "name": "amountSpent",
              "type": "uint256"
            },
            {
              "internalType": "enum AdCampaignManager.CampaignStatus",
              "name": "status",
              "type": "uint8"
            },
            {
              "internalType": "string",
              "name": "campaignCode",
              "type": "string"
            },
            {
              "internalType": "address",
              "name": "advertiser",
              "type": "address"
            }
          ],
          "internalType": "struct AdCampaignManager.AdCampaign",
          "name": "",
          "type": "tuple"
        }
      ],
      "stateMutability": "view",
      "type": "function"
    },
    {
      "inputs": [],
      "name": "owner",
      "outputs": [
        {
          "internalType": "address",
          "name": "",
          "type": "address"
        }
      ],
      "stateMutability": "view",
      "type": "function"
    },
    {
      "inputs": [],
      "name": "pause",
      "outputs": [],
      "stateMutability": "nonpayable",
      "type": "function"
    },
    {
      "inputs": [],
      "name": "paused",
      "outputs": [
        {
          "internalType": "bool",
          "name": "",
          "type": "bool"
        }
      ],
      "stateMutability": "view",
      "type": "function"
    },
    {
      "inputs": [
        {
          "internalType": "address",
          "name": "admin",
          "type": "address"
        }
      ],
      "name": "removeAdmin",
      "outputs": [],
      "stateMutability": "nonpayable",
      "type": "function"
    },
    {
      "inputs": [],
      "name": "renounceOwnership",
      "outputs": [],
      "stateMutability": "nonpayable",
      "type": "function"
    },
    {
      "inputs": [
        {
          "internalType": "string",
          "name": "campaignCode",
          "type": "string"
        },
        {
          "internalType": "uint256",
          "name": "currentAmountSpent",
          "type": "uint256"
        }
      ],
      "name": "requestAndApproveWithdrawal",
      "outputs": [],
      "stateMutability": "nonpayable",
      "type": "function"
    },
    {
      "inputs": [
        {
          "internalType": "address",
          "name": "_bankContractAddress",
          "type": "address"
        }
      ],
      "name": "setBankContractAddress",
      "outputs": [],
      "stateMutability": "nonpayable",
      "type": "function"
    },
    {
      "inputs": [
        {
          "internalType": "uint256",
          "name": "_costPerClick",
          "type": "uint256"
        }
      ],
      "name": "setCostPerClick",
      "outputs": [],
      "stateMutability": "nonpayable",
      "type": "function"
    },
    {
      "inputs": [
        {
          "internalType": "uint256",
          "name": "_costPerImpression",
          "type": "uint256"
        }
      ],
      "name": "setCostPerImpression",
      "outputs": [],
      "stateMutability": "nonpayable",
      "type": "function"
    },
    {
      "inputs": [
        {
          "internalType": "address",
          "name": "newOwner",
          "type": "address"
        }
      ],
      "name": "transferOwnership",
      "outputs": [],
      "stateMutability": "nonpayable",
      "type": "function"
    },
    {
      "inputs": [],
      "name": "unpause",
      "outputs": [],
      "stateMutability": "nonpayable",
      "type": "function"
    },
    {
      "stateMutability": "payable",
      "type": "receive"
    }
  ],
  "bytecode": "0x60806040523480156200001157600080fd5b5060405162003176380380620031768339818101604052810190620000379190620002a1565b33600073ffffffffffffffffffffffffffffffffffffffff168173ffffffffffffffffffffffffffffffffffffffff1603620000ad5760006040517f1e4fbdf7000000000000000000000000000000000000000000000000000000008152600401620000a491906200030e565b60405180910390fd5b620000be816200013860201b60201c565b5060008060146101000a81548160ff02191690831515021790555060018081905550826002819055508160038190555080600460006101000a81548173ffffffffffffffffffffffffffffffffffffffff021916908373ffffffffffffffffffffffffffffffffffffffff1602179055505050506200032b565b60008060009054906101000a900473ffffffffffffffffffffffffffffffffffffffff169050816000806101000a81548173ffffffffffffffffffffffffffffffffffffffff021916908373ffffffffffffffffffffffffffffffffffffffff1602179055508173ffffffffffffffffffffffffffffffffffffffff168173ffffffffffffffffffffffffffffffffffffffff167f8be0079c531659141344cd1fd0a4f28419497f9722a3daafe3b4186f6b6457e060405160405180910390a35050565b600080fd5b6000819050919050565b620002168162000201565b81146200022257600080fd5b50565b60008151905062000236816200020b565b92915050565b600073ffffffffffffffffffffffffffffffffffffffff82169050919050565b600062000269826200023c565b9050919050565b6200027b816200025c565b81146200028757600080fd5b50565b6000815190506200029b8162000270565b92915050565b600080600060608486031215620002bd57620002bc620001fc565b5b6000620002cd8682870162000225565b9350506020620002e08682870162000225565b9250506040620002f3868287016200028a565b9150509250925092565b62000308816200025c565b82525050565b6000602082019050620003256000830184620002fd565b92915050565b612e3b806200033b6000396000f3fe6080604052600436106101395760003560e01c8063715018a6116100ab578063bdbfc56d1161006f578063bdbfc56d146103c8578063cbef6132146103f1578063d0ac40131461041a578063e5034e0a14610457578063f2fde38b14610482578063f3e42b91146104ab57610140565b8063715018a6146103055780637aab369b1461031c5780638456cb59146103455780638da5cb5b1461035c578063a649d04f1461038757610140565b806342127a95116100fd57806342127a95146101f7578063429b62e5146102205780634b67b5381461025d5780635c975abb146102885780637007e2bf146102b357806370480275146102dc57610140565b80630bedb86d146101455780630da949df146101705780631785f53c1461017a5780633f4ba83a146101a3578063415eaedd146101ba57610140565b3661014057005b600080fd5b34801561015157600080fd5b5061015a6104d6565b6040516101679190611d42565b60405180910390f35b6101786104dc565b005b34801561018657600080fd5b506101a1600480360381019061019c9190611dcf565b6106c6565b005b3480156101af57600080fd5b506101b861076c565b005b3480156101c657600080fd5b506101e160048036038101906101dc9190611f42565b61077e565b6040516101ee9190612115565b60405180910390f35b34801561020357600080fd5b5061021e60048036038101906102199190611dcf565b610949565b005b34801561022c57600080fd5b5061024760048036038101906102429190611dcf565b610ac5565b6040516102549190612152565b60405180910390f35b34801561026957600080fd5b50610272610ae5565b60405161027f9190611d42565b60405180910390f35b34801561029457600080fd5b5061029d610aeb565b6040516102aa9190612152565b60405180910390f35b3480156102bf57600080fd5b506102da60048036038101906102d59190612199565b610b01565b005b3480156102e857600080fd5b5061030360048036038101906102fe9190611dcf565b610bd4565b005b34801561031157600080fd5b5061031a610c7a565b005b34801561032857600080fd5b50610343600480360381019061033e91906121c6565b610c8e565b005b34801561035157600080fd5b5061035a61102a565b005b34801561036857600080fd5b5061037161103c565b60405161037e9190612231565b60405180910390f35b34801561039357600080fd5b506103ae60048036038101906103a99190612199565b611065565b6040516103bf9594939291906122a5565b60405180910390f35b3480156103d457600080fd5b506103ef60048036038101906103ea9190612199565b611150565b005b3480156103fd57600080fd5b50610418600480360381019061041391906121c6565b611223565b005b34801561042657600080fd5b50610441600480360381019061043c9190611f42565b61166f565b60405161044e9190611d42565b60405180910390f35b34801561046357600080fd5b5061046c61169d565b6040516104799190612231565b60405180910390f35b34801561048e57600080fd5b506104a960048036038101906104a49190611dcf565b6116c3565b005b3480156104b757600080fd5b506104c0611749565b6040516104cd9190611d42565b60405180910390f35b60085481565b6104e461174f565b6104ec611790565b6000341161052f576040517f08c379a000000000000000000000000000000000000000000000000000000000815260040161052690612371565b60405180910390fd5b60086000815480929190610542906123c0565b919050555060006105516117d6565b90506040518060a00160405280348152602001600081526020016000600181111561057f5761057e611f9a565b5b81526020018281526020013373ffffffffffffffffffffffffffffffffffffffff16815250600660006008548152602001908152602001600020600082015181600001556020820151816001015560408201518160020160006101000a81548160ff021916908360018111156105f8576105f7611f9a565b5b021790555060608201518160030190816106129190612614565b5060808201518160040160006101000a81548173ffffffffffffffffffffffffffffffffffffffff021916908373ffffffffffffffffffffffffffffffffffffffff1602179055509050506008546005826040516106709190612722565b9081526020016040518091039020819055507fc79154d0a4bae450367237b7422a1e23347c6fcafb5c10d57932694982687b7381346040516106b3929190612739565b60405180910390a1506106c4611850565b565b6106ce611859565b6000600760008373ffffffffffffffffffffffffffffffffffffffff1673ffffffffffffffffffffffffffffffffffffffff16815260200190815260200160002060006101000a81548160ff0219169083151502179055508073ffffffffffffffffffffffffffffffffffffffff167fa3b62bc36326052d97ea62d63c3d60308ed4c3ea8ac079dd8499f1e9c4f80c0f60405160405180910390a250565b610774611859565b61077c6118e0565b565b610786611cd2565b60006005836040516107989190612722565b9081526020016040518091039020549050600081116107ec576040517f08c379a00000000000000000000000000000000000000000000000000000000081526004016107e3906127b5565b60405180910390fd5b600660008281526020019081526020016000206040518060a001604052908160008201548152602001600182015481526020016002820160009054906101000a900460ff16600181111561084357610842611f9a565b5b600181111561085557610854611f9a565b5b815260200160038201805461086990612437565b80601f016020809104026020016040519081016040528092919081815260200182805461089590612437565b80156108e25780601f106108b7576101008083540402835291602001916108e2565b820191906000526020600020905b8154815290600101906020018083116108c557829003601f168201915b505050505081526020016004820160009054906101000a900473ffffffffffffffffffffffffffffffffffffffff1673ffffffffffffffffffffffffffffffffffffffff1673ffffffffffffffffffffffffffffffffffffffff1681525050915050919050565b600760003373ffffffffffffffffffffffffffffffffffffffff1673ffffffffffffffffffffffffffffffffffffffff16815260200190815260200160002060009054906101000a900460ff16806109d357503373ffffffffffffffffffffffffffffffffffffffff166109bb61103c565b73ffffffffffffffffffffffffffffffffffffffff16145b610a12576040517f08c379a0000000000000000000000000000000000000000000000000000000008152600401610a0990612847565b60405180910390fd5b600073ffffffffffffffffffffffffffffffffffffffff168173ffffffffffffffffffffffffffffffffffffffff1603610a81576040517f08c379a0000000000000000000000000000000000000000000000000000000008152600401610a78906128b3565b60405180910390fd5b80600460006101000a81548173ffffffffffffffffffffffffffffffffffffffff021916908373ffffffffffffffffffffffffffffffffffffffff16021790555050565b60076020528060005260406000206000915054906101000a900460ff1681565b60025481565b60008060149054906101000a900460ff16905090565b600760003373ffffffffffffffffffffffffffffffffffffffff1673ffffffffffffffffffffffffffffffffffffffff16815260200190815260200160002060009054906101000a900460ff1680610b8b57503373ffffffffffffffffffffffffffffffffffffffff16610b7361103c565b73ffffffffffffffffffffffffffffffffffffffff16145b610bca576040517f08c379a0000000000000000000000000000000000000000000000000000000008152600401610bc190612847565b60405180910390fd5b8060038190555050565b610bdc611859565b6001600760008373ffffffffffffffffffffffffffffffffffffffff1673ffffffffffffffffffffffffffffffffffffffff16815260200190815260200160002060006101000a81548160ff0219169083151502179055508073ffffffffffffffffffffffffffffffffffffffff167f44d6d25963f097ad14f29f06854a01f575648a1ef82f30e562ccd3889717e33960405160405180910390a250565b610c82611859565b610c8c6000611942565b565b600760003373ffffffffffffffffffffffffffffffffffffffff1673ffffffffffffffffffffffffffffffffffffffff16815260200190815260200160002060009054906101000a900460ff1680610d1857503373ffffffffffffffffffffffffffffffffffffffff16610d0061103c565b73ffffffffffffffffffffffffffffffffffffffff16145b610d57576040517f08c379a0000000000000000000000000000000000000000000000000000000008152600401610d4e90612847565b60405180910390fd5b610d5f61174f565b610d67611790565b6000600583604051610d799190612722565b908152602001604051809103902054905060008111610dcd576040517f08c379a0000000000000000000000000000000000000000000000000000000008152600401610dc4906127b5565b60405180910390fd5b600060066000838152602001908152602001600020905060006001811115610df857610df7611f9a565b5b8160020160009054906101000a900460ff166001811115610e1c57610e1b611f9a565b5b14610e5c576040517f08c379a0000000000000000000000000000000000000000000000000000000008152600401610e539061291f565b60405180910390fd5b6000816001015484610e6e919061293f565b905060008111610eb3576040517f08c379a0000000000000000000000000000000000000000000000000000000008152600401610eaa906129e5565b60405180910390fd5b600082600101548360000154610ec9919061293f565b9050600082821115610edb5782610edd565b815b905080471015610f22576040517f08c379a0000000000000000000000000000000000000000000000000000000008152600401610f1990612a51565b60405180910390fd5b808460010154610f329190612a71565b84600101819055508360000154846001015410610f775760018460020160006101000a81548160ff02191690836001811115610f7157610f70611f9a565b5b02179055505b600460009054906101000a900473ffffffffffffffffffffffffffffffffffffffff1673ffffffffffffffffffffffffffffffffffffffff166108fc829081150290604051600060405180830381858888f19350505050158015610fdf573d6000803e3d6000fd5b507f4a1f19202167cbf263d5e4ac0deb8eb1d58700a6e621b10a650d456ed5a5ad538782604051611011929190612739565b60405180910390a15050505050611026611850565b5050565b611032611859565b61103a611a06565b565b60008060009054906101000a900473ffffffffffffffffffffffffffffffffffffffff16905090565b60066020528060005260406000206000915090508060000154908060010154908060020160009054906101000a900460ff16908060030180546110a790612437565b80601f01602080910402602001604051908101604052809291908181526020018280546110d390612437565b80156111205780601f106110f557610100808354040283529160200191611120565b820191906000526020600020905b81548152906001019060200180831161110357829003601f168201915b5050505050908060040160009054906101000a900473ffffffffffffffffffffffffffffffffffffffff16905085565b600760003373ffffffffffffffffffffffffffffffffffffffff1673ffffffffffffffffffffffffffffffffffffffff16815260200190815260200160002060009054906101000a900460ff16806111da57503373ffffffffffffffffffffffffffffffffffffffff166111c261103c565b73ffffffffffffffffffffffffffffffffffffffff16145b611219576040517f08c379a000000000000000000000000000000000000000000000000000000000815260040161121090612847565b60405180910390fd5b8060028190555050565b61122b611790565b600060058360405161123d9190612722565b908152602001604051809103902054905060008111611291576040517f08c379a0000000000000000000000000000000000000000000000000000000008152600401611288906127b5565b60405180910390fd5b6000600660008381526020019081526020016000209050600060018111156112bc576112bb611f9a565b5b8160020160009054906101000a900460ff1660018111156112e0576112df611f9a565b5b14611320576040517f08c379a00000000000000000000000000000000000000000000000000000000081526004016113179061291f565b60405180910390fd5b8060040160009054906101000a900473ffffffffffffffffffffffffffffffffffffffff1673ffffffffffffffffffffffffffffffffffffffff163373ffffffffffffffffffffffffffffffffffffffff1614806113c75750600760003373ffffffffffffffffffffffffffffffffffffffff1673ffffffffffffffffffffffffffffffffffffffff16815260200190815260200160002060009054906101000a900460ff165b8061140457506113d561103c565b73ffffffffffffffffffffffffffffffffffffffff163373ffffffffffffffffffffffffffffffffffffffff16145b611443576040517f08c379a000000000000000000000000000000000000000000000000000000000815260040161143a90612b17565b60405180910390fd5b828160010154111561148a576040517f08c379a000000000000000000000000000000000000000000000000000000000815260040161148190612bcf565b60405180910390fd5b600083826000015461149c919061293f565b905060018260020160006101000a81548160ff021916908360018111156114c6576114c5611f9a565b5b02179055506000811115611540578160040160009054906101000a900473ffffffffffffffffffffffffffffffffffffffff1673ffffffffffffffffffffffffffffffffffffffff166108fc829081150290604051600060405180830381858888f1935050505015801561153e573d6000803e3d6000fd5b505b6000826001015485611552919061293f565b905060008111156115c757600460009054906101000a900473ffffffffffffffffffffffffffffffffffffffff1673ffffffffffffffffffffffffffffffffffffffff166108fc829081150290604051600060405180830381858888f193505050501580156115c5573d6000803e3d6000fd5b505b7fba9059f3850aee53fbd909cc5b38d859e4a645f2ad3da7093ab74c7b88f24bf2868460040160009054906101000a900473ffffffffffffffffffffffffffffffffffffffff168460405161161e93929190612bef565b60405180910390a17fd94c2a1bdebb5c53e4d8c915ab66e4ac6cb53eb59bb0c69f423bb4f6f6084de38682604051611657929190612739565b60405180910390a15050505061166b611850565b5050565b6005818051602081018201805184825260208301602085012081835280955050505050506000915090505481565b600460009054906101000a900473ffffffffffffffffffffffffffffffffffffffff1681565b6116cb611859565b600073ffffffffffffffffffffffffffffffffffffffff168173ffffffffffffffffffffffffffffffffffffffff160361173d5760006040517f1e4fbdf70000000000000000000000000000000000000000000000000000000081526004016117349190612231565b60405180910390fd5b61174681611942565b50565b60035481565b611757610aeb565b1561178e576040517fd93c066500000000000000000000000000000000000000000000000000000000815260040160405180910390fd5b565b6002600154036117cc576040517f3ee5aeb500000000000000000000000000000000000000000000000000000000815260040160405180910390fd5b6002600181905550565b60606000620f42404244336040516020016117f393929190612c96565b6040516020818303038152906040528051906020012060001c6118169190612d02565b905061182142611a69565b61182a82611a69565b60405160200161183b929190612dcb565b60405160208183030381529060405291505090565b60018081905550565b611861611b37565b73ffffffffffffffffffffffffffffffffffffffff1661187f61103c565b73ffffffffffffffffffffffffffffffffffffffff16146118de576118a2611b37565b6040517f118cdaa70000000000000000000000000000000000000000000000000000000081526004016118d59190612231565b60405180910390fd5b565b6118e8611b3f565b60008060146101000a81548160ff0219169083151502179055507f5db9ee0a495bf2e6ff9c91a7834c1ba4fdd244a5e8aa4e537bd38aeae4b073aa61192b611b37565b6040516119389190612231565b60405180910390a1565b60008060009054906101000a900473ffffffffffffffffffffffffffffffffffffffff169050816000806101000a81548173ffffffffffffffffffffffffffffffffffffffff021916908373ffffffffffffffffffffffffffffffffffffffff1602179055508173ffffffffffffffffffffffffffffffffffffffff168173ffffffffffffffffffffffffffffffffffffffff167f8be0079c531659141344cd1fd0a4f28419497f9722a3daafe3b4186f6b6457e060405160405180910390a35050565b611a0e61174f565b6001600060146101000a81548160ff0219169083151502179055507f62e78cea01bee320cd4e420270b5ea74000d11b0c9f74754ebdbfc544b05a258611a52611b37565b604051611a5f9190612231565b60405180910390a1565b606060006001611a7884611b7f565b01905060008167ffffffffffffffff811115611a9757611a96611e17565b5b6040519080825280601f01601f191660200182016040528015611ac95781602001600182028036833780820191505090505b509050600082602001820190505b600115611b2c578080600190039150507f3031323334353637383961626364656600000000000000000000000000000000600a86061a8153600a8581611b2057611b1f612cd3565b5b04945060008503611ad7575b819350505050919050565b600033905090565b611b47610aeb565b611b7d576040517f8dfc202b00000000000000000000000000000000000000000000000000000000815260040160405180910390fd5b565b600080600090507a184f03e93ff9f4daa797ed6e38ed64bf6a1f0100000000000000008310611bdd577a184f03e93ff9f4daa797ed6e38ed64bf6a1f0100000000000000008381611bd357611bd2612cd3565b5b0492506040810190505b6d04ee2d6d415b85acef81000000008310611c1a576d04ee2d6d415b85acef81000000008381611c1057611c0f612cd3565b5b0492506020810190505b662386f26fc100008310611c4957662386f26fc100008381611c3f57611c3e612cd3565b5b0492506010810190505b6305f5e1008310611c72576305f5e1008381611c6857611c67612cd3565b5b0492506008810190505b6127108310611c97576127108381611c8d57611c8c612cd3565b5b0492506004810190505b60648310611cba5760648381611cb057611caf612cd3565b5b0492506002810190505b600a8310611cc9576001810190505b80915050919050565b6040518060a00160405280600081526020016000815260200160006001811115611cff57611cfe611f9a565b5b815260200160608152602001600073ffffffffffffffffffffffffffffffffffffffff1681525090565b6000819050919050565b611d3c81611d29565b82525050565b6000602082019050611d576000830184611d33565b92915050565b6000604051905090565b600080fd5b600080fd5b600073ffffffffffffffffffffffffffffffffffffffff82169050919050565b6000611d9c82611d71565b9050919050565b611dac81611d91565b8114611db757600080fd5b50565b600081359050611dc981611da3565b92915050565b600060208284031215611de557611de4611d67565b5b6000611df384828501611dba565b91505092915050565b600080fd5b600080fd5b6000601f19601f8301169050919050565b7f4e487b7100000000000000000000000000000000000000000000000000000000600052604160045260246000fd5b611e4f82611e06565b810181811067ffffffffffffffff82111715611e6e57611e6d611e17565b5b80604052505050565b6000611e81611d5d565b9050611e8d8282611e46565b919050565b600067ffffffffffffffff821115611ead57611eac611e17565b5b611eb682611e06565b9050602081019050919050565b82818337600083830152505050565b6000611ee5611ee084611e92565b611e77565b905082815260208101848484011115611f0157611f00611e01565b5b611f0c848285611ec3565b509392505050565b600082601f830112611f2957611f28611dfc565b5b8135611f39848260208601611ed2565b91505092915050565b600060208284031215611f5857611f57611d67565b5b600082013567ffffffffffffffff811115611f7657611f75611d6c565b5b611f8284828501611f14565b91505092915050565b611f9481611d29565b82525050565b7f4e487b7100000000000000000000000000000000000000000000000000000000600052602160045260246000fd5b60028110611fda57611fd9611f9a565b5b50565b6000819050611feb82611fc9565b919050565b6000611ffb82611fdd565b9050919050565b61200b81611ff0565b82525050565b600081519050919050565b600082825260208201905092915050565b60005b8381101561204b578082015181840152602081019050612030565b60008484015250505050565b600061206282612011565b61206c818561201c565b935061207c81856020860161202d565b61208581611e06565b840191505092915050565b61209981611d91565b82525050565b600060a0830160008301516120b76000860182611f8b565b5060208301516120ca6020860182611f8b565b5060408301516120dd6040860182612002565b50606083015184820360608601526120f58282612057565b915050608083015161210a6080860182612090565b508091505092915050565b6000602082019050818103600083015261212f818461209f565b905092915050565b60008115159050919050565b61214c81612137565b82525050565b60006020820190506121676000830184612143565b92915050565b61217681611d29565b811461218157600080fd5b50565b6000813590506121938161216d565b92915050565b6000602082840312156121af576121ae611d67565b5b60006121bd84828501612184565b91505092915050565b600080604083850312156121dd576121dc611d67565b5b600083013567ffffffffffffffff8111156121fb576121fa611d6c565b5b61220785828601611f14565b925050602061221885828601612184565b9150509250929050565b61222b81611d91565b82525050565b60006020820190506122466000830184612222565b92915050565b61225581611ff0565b82525050565b600082825260208201905092915050565b600061227782612011565b612281818561225b565b935061229181856020860161202d565b61229a81611e06565b840191505092915050565b600060a0820190506122ba6000830188611d33565b6122c76020830187611d33565b6122d4604083018661224c565b81810360608301526122e6818561226c565b90506122f56080830184612222565b9695505050505050565b7f746865206275646765742073686f756c6420626520677265617465722074686160008201527f6e207a65726f0000000000000000000000000000000000000000000000000000602082015250565b600061235b60268361225b565b9150612366826122ff565b604082019050919050565b6000602082019050818103600083015261238a8161234e565b9050919050565b7f4e487b7100000000000000000000000000000000000000000000000000000000600052601160045260246000fd5b60006123cb82611d29565b91507fffffffffffffffffffffffffffffffffffffffffffffffffffffffffffffffff82036123fd576123fc612391565b5b600182019050919050565b7f4e487b7100000000000000000000000000000000000000000000000000000000600052602260045260246000fd5b6000600282049050600182168061244f57607f821691505b60208210810361246257612461612408565b5b50919050565b60008190508160005260206000209050919050565b60006020601f8301049050919050565b600082821b905092915050565b6000600883026124ca7fffffffffffffffffffffffffffffffffffffffffffffffffffffffffffffffff8261248d565b6124d4868361248d565b95508019841693508086168417925050509392505050565b6000819050919050565b600061251161250c61250784611d29565b6124ec565b611d29565b9050919050565b6000819050919050565b61252b836124f6565b61253f61253782612518565b84845461249a565b825550505050565b600090565b612554612547565b61255f818484612522565b505050565b5b818110156125835761257860008261254c565b600181019050612565565b5050565b601f8211156125c85761259981612468565b6125a28461247d565b810160208510156125b1578190505b6125c56125bd8561247d565b830182612564565b50505b505050565b600082821c905092915050565b60006125eb600019846008026125cd565b1980831691505092915050565b600061260483836125da565b9150826002028217905092915050565b61261d82612011565b67ffffffffffffffff81111561263657612635611e17565b5b6126408254612437565b61264b828285612587565b600060209050601f83116001811461267e576000841561266c578287015190505b61267685826125f8565b8655506126de565b601f19841661268c86612468565b60005b828110156126b45784890151825560018201915060208501945060208101905061268f565b868310156126d157848901516126cd601f8916826125da565b8355505b6001600288020188555050505b505050505050565b600081905092915050565b60006126fc82612011565b61270681856126e6565b935061271681856020860161202d565b80840191505092915050565b600061272e82846126f1565b915081905092915050565b60006040820190508181036000830152612753818561226c565b90506127626020830184611d33565b9392505050565b7f496e76616c69642063616d706169676e20636f64650000000000000000000000600082015250565b600061279f60158361225b565b91506127aa82612769565b602082019050919050565b600060208201905081810360008301526127ce81612792565b9050919050565b7f43616c6c6572206973206e6f7420616e2061646d696e206f7220746865206f7760008201527f6e65720000000000000000000000000000000000000000000000000000000000602082015250565b600061283160238361225b565b915061283c826127d5565b604082019050919050565b6000602082019050818103600083015261286081612824565b9050919050565b7f496e76616c69642062616e6b20636f6e74726163742061646472657373000000600082015250565b600061289d601d8361225b565b91506128a882612867565b602082019050919050565b600060208201905081810360008301526128cc81612890565b9050919050565b7f43616d706169676e206973206e6f742061637469766500000000000000000000600082015250565b600061290960168361225b565b9150612914826128d3565b602082019050919050565b60006020820190508181036000830152612938816128fc565b9050919050565b600061294a82611d29565b915061295583611d29565b925082820390508181111561296d5761296c612391565b5b92915050565b7f205468652063757272656e7420616d6f756e7420636c61696d65642073686f7560008201527f6c642062652067726561746572207468616e207a65726f000000000000000000602082015250565b60006129cf60378361225b565b91506129da82612973565b604082019050919050565b600060208201905081810360008301526129fe816129c2565b9050919050565b7f496e73756666696369656e7420636f6e74726163742062616c616e6365000000600082015250565b6000612a3b601d8361225b565b9150612a4682612a05565b602082019050919050565b60006020820190508181036000830152612a6a81612a2e565b9050919050565b6000612a7c82611d29565b9150612a8783611d29565b9250828201905080821115612a9f57612a9e612391565b5b92915050565b7f4f6e6c792074686520616476657274697365722c61646d696e2c206f72206f7760008201527f6e65722063616e2072657175657374207769746864726177616c000000000000602082015250565b6000612b01603a8361225b565b9150612b0c82612aa5565b604082019050919050565b60006020820190508181036000830152612b3081612af4565b9050919050565b7f207468652063757272656e7420616d6f756e74207370656e742073686f756c6460008201527f2062652067726561746572207468616e2074686520616c726561647920636c6160208201527f696d656420416d6f756e74000000000000000000000000000000000000000000604082015250565b6000612bb9604b8361225b565b9150612bc482612b37565b606082019050919050565b60006020820190508181036000830152612be881612bac565b9050919050565b60006060820190508181036000830152612c09818661226c565b9050612c186020830185612222565b612c256040830184611d33565b949350505050565b6000819050919050565b612c48612c4382611d29565b612c2d565b82525050565b60008160601b9050919050565b6000612c6682612c4e565b9050919050565b6000612c7882612c5b565b9050919050565b612c90612c8b82611d91565b612c6d565b82525050565b6000612ca28286612c37565b602082019150612cb28285612c37565b602082019150612cc28284612c7f565b601482019150819050949350505050565b7f4e487b7100000000000000000000000000000000000000000000000000000000600052601260045260246000fd5b6000612d0d82611d29565b9150612d1883611d29565b925082612d2857612d27612cd3565b5b828206905092915050565b7f43414d504149474e2d0000000000000000000000000000000000000000000000600082015250565b6000612d696009836126e6565b9150612d7482612d33565b600982019050919050565b7f2d00000000000000000000000000000000000000000000000000000000000000600082015250565b6000612db56001836126e6565b9150612dc082612d7f565b600182019050919050565b6000612dd682612d5c565b9150612de282856126f1565b9150612ded82612da8565b9150612df982846126f1565b9150819050939250505056fea26469706673582212202b0178d43448244af71f7174c01898ad896d5d077c3677b007f21dbe96b17d8d64736f6c63430008180033",
  "linkReferences": {},
  "deployedLinkReferences": {}
}