{
  "_format": "hh-sol-artifact-1",
  "contractName": "Bank",
  "sourceName": "contracts/Bank.sol",
  "abi": [
    {
      "inputs": [],
      "name": "EnforcedPause",
      "type": "error"
    },
    {
      "inputs": [],
      "name": "ExpectedPause",
      "type": "error"
    },
    {
      "inputs": [],
      "name": "InvalidInitialization",
      "type": "error"
    },
    {
      "inputs": [],
      "name": "NotInitializing",
      "type": "error"
    },
    {
      "inputs": [
        {
          "internalType": "address",
          "name": "owner",
          "type": "address"
        }
      ],
      "name": "OwnableInvalidOwner",
      "type": "error"
    },
    {
      "inputs": [
        {
          "internalType": "address",
          "name": "account",
          "type": "address"
        }
      ],
      "name": "OwnableUnauthorizedAccount",
      "type": "error"
    },
    {
      "inputs": [],
      "name": "ReentrancyGuardReentrantCall",
      "type": "error"
    },
    {
      "anonymous": false,
      "inputs": [
        {
          "indexed": true,
          "internalType": "address",
          "name": "depositor",
          "type": "address"
        },
        {
          "indexed": false,
          "internalType": "uint256",
          "name": "amount",
          "type": "uint256"
        }
      ],
      "name": "Deposited",
      "type": "event"
    },
    {
      "anonymous": false,
      "inputs": [
        {
          "indexed": false,
          "internalType": "uint64",
          "name": "version",
          "type": "uint64"
        }
      ],
      "name": "Initialized",
      "type": "event"
    },
    {
      "anonymous": false,
      "inputs": [
        {
          "indexed": true,
          "internalType": "address",
          "name": "previousOwner",
          "type": "address"
        },
        {
          "indexed": true,
          "internalType": "address",
          "name": "newOwner",
          "type": "address"
        }
      ],
      "name": "OwnershipTransferred",
      "type": "event"
    },
    {
      "anonymous": false,
      "inputs": [
        {
          "indexed": false,
          "internalType": "address",
          "name": "account",
          "type": "address"
        }
      ],
      "name": "Paused",
      "type": "event"
    },
    {
      "anonymous": false,
      "inputs": [
        {
          "indexed": true,
          "internalType": "address",
          "name": "addressWhoPushes",
          "type": "address"
        },
        {
          "indexed": false,
          "internalType": "address[]",
          "name": "teamMembers",
          "type": "address[]"
        },
        {
          "indexed": false,
          "internalType": "uint256",
          "name": "totalAmount",
          "type": "uint256"
        }
      ],
      "name": "PushTip",
      "type": "event"
    },
    {
      "anonymous": false,
      "inputs": [
        {
          "indexed": true,
          "internalType": "address",
          "name": "addressWhoSends",
          "type": "address"
        },
        {
          "indexed": false,
          "internalType": "address[]",
          "name": "teamMembers",
          "type": "address[]"
        },
        {
          "indexed": false,
          "internalType": "uint256",
          "name": "totalAmount",
          "type": "uint256"
        }
      ],
      "name": "SendTip",
      "type": "event"
    },
    {
      "anonymous": false,
      "inputs": [
        {
          "indexed": true,
          "internalType": "address",
          "name": "addressWhoChanged",
          "type": "address"
        },
        {
          "indexed": true,
          "internalType": "address",
          "name": "oldAddress",
          "type": "address"
        },
        {
          "indexed": true,
          "internalType": "address",
          "name": "newAddress",
          "type": "address"
        }
      ],
      "name": "TipsAddressChanged",
      "type": "event"
    },
    {
      "anonymous": false,
      "inputs": [
        {
          "indexed": true,
          "internalType": "address",
          "name": "sender",
          "type": "address"
        },
        {
          "indexed": true,
          "internalType": "address",
          "name": "to",
          "type": "address"
        },
        {
          "indexed": false,
          "internalType": "uint256",
          "name": "amount",
          "type": "uint256"
        }
      ],
      "name": "Transfer",
      "type": "event"
    },
    {
      "anonymous": false,
      "inputs": [
        {
          "indexed": false,
          "internalType": "address",
          "name": "account",
          "type": "address"
        }
      ],
      "name": "Unpaused",
      "type": "event"
    },
    {
      "inputs": [
        {
          "internalType": "address",
          "name": "_tipsAddress",
          "type": "address"
        }
      ],
      "name": "changeTipsAddress",
      "outputs": [],
      "stateMutability": "nonpayable",
      "type": "function"
    },
    {
      "inputs": [
        {
          "internalType": "address",
          "name": "_tipsAddress",
          "type": "address"
        }
      ],
      "name": "initialize",
      "outputs": [],
      "stateMutability": "nonpayable",
      "type": "function"
    },
    {
      "inputs": [],
      "name": "owner",
      "outputs": [
        {
          "internalType": "address",
          "name": "",
          "type": "address"
        }
      ],
      "stateMutability": "view",
      "type": "function"
    },
    {
      "inputs": [],
      "name": "pause",
      "outputs": [],
      "stateMutability": "nonpayable",
      "type": "function"
    },
    {
      "inputs": [],
      "name": "paused",
      "outputs": [
        {
          "internalType": "bool",
          "name": "",
          "type": "bool"
        }
      ],
      "stateMutability": "view",
      "type": "function"
    },
    {
      "inputs": [
        {
          "internalType": "address[]",
          "name": "_addresses",
          "type": "address[]"
        },
        {
          "internalType": "uint256",
          "name": "_amount",
          "type": "uint256"
        }
      ],
      "name": "pushTip",
      "outputs": [],
      "stateMutability": "payable",
      "type": "function"
    },
    {
      "inputs": [],
      "name": "renounceOwnership",
      "outputs": [],
      "stateMutability": "nonpayable",
      "type": "function"
    },
    {
      "inputs": [
        {
          "internalType": "address[]",
          "name": "_addresses",
          "type": "address[]"
        },
        {
          "internalType": "uint256",
          "name": "_amount",
          "type": "uint256"
        }
      ],
      "name": "sendTip",
      "outputs": [],
      "stateMutability": "payable",
      "type": "function"
    },
    {
      "inputs": [],
      "name": "tipsAddress",
      "outputs": [
        {
          "internalType": "address",
          "name": "",
          "type": "address"
        }
      ],
      "stateMutability": "view",
      "type": "function"
    },
    {
      "inputs": [
        {
          "internalType": "address",
          "name": "_to",
          "type": "address"
        },
        {
          "internalType": "uint256",
          "name": "_amount",
          "type": "uint256"
        }
      ],
      "name": "transfer",
      "outputs": [],
      "stateMutability": "payable",
      "type": "function"
    },
    {
      "inputs": [
        {
          "internalType": "address",
          "name": "newOwner",
          "type": "address"
        }
      ],
      "name": "transferOwnership",
      "outputs": [],
      "stateMutability": "nonpayable",
      "type": "function"
    },
    {
      "inputs": [],
      "name": "unpause",
      "outputs": [],
      "stateMutability": "nonpayable",
      "type": "function"
    },
    {
      "stateMutability": "payable",
      "type": "receive"
    }
  ],
  "bytecode": "0x608060405234801561001057600080fd5b50610caf806100206000396000f3fe6080604052600436106100ab5760003560e01c80638da5cb5b116100645780638da5cb5b1461018857806399e1e967146101d9578063a2a3af4c146101f9578063a9059cbb14610219578063c4d66de81461022c578063f2fde38b1461024c57600080fd5b80632475116d146100ec5780633f4ba83a14610101578063501e29f9146101165780635c975abb14610129578063715018a61461015e5780638456cb591461017357600080fd5b366100e75760405134815233907f2da466a7b24304f47e87fa2e1e5a81b9831ce54fec19055ce277ca2f39ba42c49060200160405180910390a2005b600080fd5b6100ff6100fa366004610aef565b61026c565b005b34801561010d57600080fd5b506100ff61032c565b6100ff610124366004610aef565b61033e565b34801561013557600080fd5b50600080516020610c5a8339815191525460ff1660405190151581526020015b60405180910390f35b34801561016a57600080fd5b506100ff6103f1565b34801561017f57600080fd5b506100ff610403565b34801561019457600080fd5b507f9016d09d72d40fdae2fd8ceac6b6234c7706214fd39c1cd1e609a0528c199300546001600160a01b03165b6040516001600160a01b039091168152602001610155565b3480156101e557600080fd5b506100ff6101f4366004610b86565b610413565b34801561020557600080fd5b506000546101c1906001600160a01b031681565b6100ff610227366004610ba8565b6104c8565b34801561023857600080fd5b506100ff610247366004610b86565b610685565b34801561025857600080fd5b506100ff610267366004610b86565b6107c0565b6102746107fe565b61027c610859565b600054604051635bed200160e11b81526001600160a01b039091169063b7da40029083906102b09087908790600401610c19565b6000604051808303818588803b1580156102c957600080fd5b505af11580156102dd573d6000803e3d6000fd5b5050505050336001600160a01b03167f58a9dc7d0a27b699b2315517c718ce61fcfd17fec85b5c8e124c1d3ed169743f84848460405161031f93929190610c35565b60405180910390a2505050565b6103346107fe565b61033c61088a565b565b6103466107fe565b61034e610859565b600054604051635afa31cb60e01b81526001600160a01b0390911690635afa31cb9083906103829087908790600401610c19565b6000604051808303818588803b15801561039b57600080fd5b505af11580156103af573d6000803e3d6000fd5b5050505050336001600160a01b03167fc014dc4ceab3e6dc4a844f9b2dddf37226790be6a1982d111c8f09179b7e13da84848460405161031f93929190610c35565b6103f96107fe565b61033c60006108ea565b61040b6107fe565b61033c61095b565b61041b6107fe565b610423610859565b6001600160a01b0381166104775760405162461bcd60e51b8152602060048201526016602482015275416464726573732063616e6e6f74206265207a65726f60501b60448201526064015b60405180910390fd5b600080546001600160a01b038381166001600160a01b03198316811784556040519190921692839133917f8eefab2ffac7936bcfa2484c360b710829828a93af13392f96a86bb17abcc80191a45050565b6104d06107fe565b6104d86109a4565b6104e0610859565b6001600160a01b03821661052f5760405162461bcd60e51b8152602060048201526016602482015275416464726573732063616e6e6f74206265207a65726f60501b604482015260640161046e565b6000811161057f5760405162461bcd60e51b815260206004820181905260248201527f416d6f756e74206d7573742062652067726561746572207468616e207a65726f604482015260640161046e565b6000826001600160a01b03168260405160006040518083038185875af1925050503d80600081146105cc576040519150601f19603f3d011682016040523d82523d6000602084013e6105d1565b606091505b50509050806106175760405162461bcd60e51b81526020600482015260126024820152712330b4b632b2103a37903a3930b739b332b960711b604482015260640161046e565b6040518281526001600160a01b0384169033907fddf252ad1be2c89b69c2b068fc378daa952ba7f163c4a11628f55a4df523b3ef9060200160405180910390a35061068160017f9b779b17422d0df92223018b32b4d1fa46e071723d6817e2486d003becc55f0055565b5050565b7ff0c57e16840df040f15088dc2f81fe391c3923bec73e23a9662efc9c229c6a008054600160401b810460ff16159067ffffffffffffffff166000811580156106cb5750825b905060008267ffffffffffffffff1660011480156106e85750303b155b9050811580156106f6575080155b156107145760405163f92ee8a960e01b815260040160405180910390fd5b845467ffffffffffffffff19166001178555831561073e57845460ff60401b1916600160401b1785555b61074733610a14565b61074f610a25565b610757610a35565b600080546001600160a01b0319166001600160a01b03881617905583156107b857845460ff60401b19168555604051600181527fc7f505b2f371ae2175ee4913f4499e1f2633a7b5936321eed1cdaeb6115181d29060200160405180910390a15b505050505050565b6107c86107fe565b6001600160a01b0381166107f257604051631e4fbdf760e01b81526000600482015260240161046e565b6107fb816108ea565b50565b336108307f9016d09d72d40fdae2fd8ceac6b6234c7706214fd39c1cd1e609a0528c199300546001600160a01b031690565b6001600160a01b03161461033c5760405163118cdaa760e01b815233600482015260240161046e565b600080516020610c5a8339815191525460ff161561033c5760405163d93c066560e01b815260040160405180910390fd5b610892610a45565b600080516020610c5a833981519152805460ff191681557f5db9ee0a495bf2e6ff9c91a7834c1ba4fdd244a5e8aa4e537bd38aeae4b073aa335b6040516001600160a01b03909116815260200160405180910390a150565b7f9016d09d72d40fdae2fd8ceac6b6234c7706214fd39c1cd1e609a0528c19930080546001600160a01b031981166001600160a01b03848116918217845560405192169182907f8be0079c531659141344cd1fd0a4f28419497f9722a3daafe3b4186f6b6457e090600090a3505050565b610963610859565b600080516020610c5a833981519152805460ff191660011781557f62e78cea01bee320cd4e420270b5ea74000d11b0c9f74754ebdbfc544b05a258336108cc565b7f9b779b17422d0df92223018b32b4d1fa46e071723d6817e2486d003becc55f008054600119016109e857604051633ee5aeb560e01b815260040160405180910390fd5b60029055565b60017f9b779b17422d0df92223018b32b4d1fa46e071723d6817e2486d003becc55f0055565b610a1c610a75565b6107fb81610abe565b610a2d610a75565b61033c610ac6565b610a3d610a75565b61033c610ace565b600080516020610c5a8339815191525460ff1661033c57604051638dfc202b60e01b815260040160405180910390fd5b7ff0c57e16840df040f15088dc2f81fe391c3923bec73e23a9662efc9c229c6a0054600160401b900460ff1661033c57604051631afcd79f60e31b815260040160405180910390fd5b6107c8610a75565b6109ee610a75565b610ad6610a75565b600080516020610c5a833981519152805460ff19169055565b600080600060408486031215610b0457600080fd5b833567ffffffffffffffff80821115610b1c57600080fd5b818601915086601f830112610b3057600080fd5b813581811115610b3f57600080fd5b8760208260051b8501011115610b5457600080fd5b6020928301989097509590910135949350505050565b80356001600160a01b0381168114610b8157600080fd5b919050565b600060208284031215610b9857600080fd5b610ba182610b6a565b9392505050565b60008060408385031215610bbb57600080fd5b610bc483610b6a565b946020939093013593505050565b8183526000602080850194508260005b85811015610c0e576001600160a01b03610bfb83610b6a565b1687529582019590820190600101610be2565b509495945050505050565b602081526000610c2d602083018486610bd2565b949350505050565b604081526000610c49604083018587610bd2565b905082602083015294935050505056fecd5ed15c6e187e77e9aee88184c21f4f2182ab5827cb3b7e07fbedcd63f03300a26469706673582212209ac458c46aaeef0bbf83d64d846a944580f658eee0116602d1b1fde0c8b6483964736f6c63430008180033",
  "linkReferences": {},
  "deployedLinkReferences": {}
}