{
  "_format": "hh-sol-artifact-1",
  "contractName": "BoardOfDirectors",
  "sourceName": "contracts/BoardOfDirectors.sol",
  "abi": [
    {
      "inputs": [],
      "name": "InvalidInitialization",
      "type": "error"
    },
    {
      "inputs": [],
      "name": "NotInitializing",
      "type": "error"
    },
    {
      "inputs": [],
      "name": "ReentrancyGuardReentrantCall",
      "type": "error"
    },
    {
      "anonymous": false,
      "inputs": [
        {
          "indexed": true,
          "internalType": "uint256",
          "name": "id",
          "type": "uint256"
        },
        {
          "indexed": true,
          "internalType": "address",
          "name": "target",
          "type": "address"
        },
        {
          "indexed": false,
          "internalType": "string",
          "name": "_description",
          "type": "string"
        },
        {
          "indexed": false,
          "internalType": "bytes",
          "name": "data",
          "type": "bytes"
        }
      ],
      "name": "ActionAdded",
      "type": "event"
    },
    {
      "anonymous": false,
      "inputs": [
        {
          "indexed": true,
          "internalType": "uint256",
          "name": "id",
          "type": "uint256"
        },
        {
          "indexed": true,
          "internalType": "address",
          "name": "target",
          "type": "address"
        },
        {
          "indexed": false,
          "internalType": "string",
          "name": "_description",
          "type": "string"
        },
        {
          "indexed": false,
          "internalType": "bytes",
          "name": "data",
          "type": "bytes"
        }
      ],
      "name": "ActionExecuted",
      "type": "event"
    },
    {
      "anonymous": false,
      "inputs": [
        {
          "indexed": true,
          "internalType": "uint256",
          "name": "id",
          "type": "uint256"
        },
        {
          "indexed": true,
          "internalType": "address",
          "name": "approver",
          "type": "address"
        }
      ],
      "name": "Approval",
      "type": "event"
    },
    {
      "anonymous": false,
      "inputs": [
        {
          "indexed": false,
          "internalType": "address[]",
          "name": "boardOfDirectors",
          "type": "address[]"
        }
      ],
      "name": "BoardOfDirectorsChanged",
      "type": "event"
    },
    {
      "anonymous": false,
      "inputs": [
        {
          "indexed": false,
          "internalType": "uint64",
          "name": "version",
          "type": "uint64"
        }
      ],
      "name": "Initialized",
      "type": "event"
    },
    {
      "anonymous": false,
      "inputs": [
        {
          "indexed": false,
          "internalType": "address[]",
          "name": "owners",
          "type": "address[]"
        }
      ],
      "name": "OwnersChanged",
      "type": "event"
    },
    {
      "anonymous": false,
      "inputs": [
        {
          "indexed": true,
          "internalType": "uint256",
          "name": "id",
          "type": "uint256"
        },
        {
          "indexed": true,
          "internalType": "address",
          "name": "approver",
          "type": "address"
        }
      ],
      "name": "Revocation",
      "type": "event"
    },
    {
      "inputs": [
        {
          "internalType": "uint256",
          "name": "",
          "type": "uint256"
        },
        {
          "internalType": "address",
          "name": "",
          "type": "address"
        }
      ],
      "name": "actionApprovals",
      "outputs": [
        {
          "internalType": "bool",
          "name": "",
          "type": "bool"
        }
      ],
      "stateMutability": "view",
      "type": "function"
    },
    {
      "inputs": [
        {
          "internalType": "uint256",
          "name": "",
          "type": "uint256"
        },
        {
          "internalType": "uint256",
          "name": "",
          "type": "uint256"
        }
      ],
      "name": "actionApprovers",
      "outputs": [
        {
          "internalType": "address",
          "name": "",
          "type": "address"
        }
      ],
      "stateMutability": "view",
      "type": "function"
    },
    {
      "inputs": [],
      "name": "actionCount",
      "outputs": [
        {
          "internalType": "uint256",
          "name": "",
          "type": "uint256"
        }
      ],
      "stateMutability": "view",
      "type": "function"
    },
    {
      "inputs": [
        {
          "internalType": "uint256",
          "name": "",
          "type": "uint256"
        }
      ],
      "name": "actions",
      "outputs": [
        {
          "internalType": "address",
          "name": "target",
          "type": "address"
        },
        {
          "internalType": "string",
          "name": "description",
          "type": "string"
        },
        {
          "internalType": "uint256",
          "name": "approvalCount",
          "type": "uint256"
        },
        {
          "internalType": "bool",
          "name": "isExecuted",
          "type": "bool"
        },
        {
          "internalType": "bytes",
          "name": "data",
          "type": "bytes"
        }
      ],
      "stateMutability": "view",
      "type": "function"
    },
    {
      "inputs": [
        {
          "internalType": "address",
          "name": "_target",
          "type": "address"
        },
        {
          "internalType": "string",
          "name": "_description",
          "type": "string"
        },
        {
          "internalType": "bytes",
          "name": "_data",
          "type": "bytes"
        }
      ],
      "name": "addAction",
      "outputs": [],
      "stateMutability": "nonpayable",
      "type": "function"
    },
    {
      "inputs": [
        {
          "internalType": "address",
          "name": "_owner",
          "type": "address"
        }
      ],
      "name": "addOwner",
      "outputs": [],
      "stateMutability": "nonpayable",
      "type": "function"
    },
    {
      "inputs": [
        {
          "internalType": "uint256",
          "name": "_actionId",
          "type": "uint256"
        }
      ],
      "name": "approvalCount",
      "outputs": [
        {
          "internalType": "uint256",
          "name": "",
          "type": "uint256"
        }
      ],
      "stateMutability": "view",
      "type": "function"
    },
    {
      "inputs": [
        {
          "internalType": "uint256",
          "name": "_actionId",
          "type": "uint256"
        }
      ],
      "name": "approve",
      "outputs": [],
      "stateMutability": "nonpayable",
      "type": "function"
    },
    {
      "inputs": [
        {
          "internalType": "uint256",
          "name": "",
          "type": "uint256"
        }
      ],
      "name": "boardOfDirectors",
      "outputs": [
        {
          "internalType": "address",
          "name": "",
          "type": "address"
        }
      ],
      "stateMutability": "view",
      "type": "function"
    },
    {
      "inputs": [
        {
          "internalType": "uint256",
          "name": "_actionId",
          "type": "uint256"
        }
      ],
      "name": "getActionApprovers",
      "outputs": [
        {
          "internalType": "address[]",
          "name": "",
          "type": "address[]"
        }
      ],
      "stateMutability": "view",
      "type": "function"
    },
    {
      "inputs": [
        {
          "internalType": "uint256",
          "name": "_startId",
          "type": "uint256"
        },
        {
          "internalType": "uint256",
          "name": "_limit",
          "type": "uint256"
        }
      ],
      "name": "getActions",
      "outputs": [
        {
          "components": [
            {
              "internalType": "address",
              "name": "target",
              "type": "address"
            },
            {
              "internalType": "string",
              "name": "description",
              "type": "string"
            },
            {
              "internalType": "uint256",
              "name": "approvalCount",
              "type": "uint256"
            },
            {
              "internalType": "bool",
              "name": "isExecuted",
              "type": "bool"
            },
            {
              "internalType": "bytes",
              "name": "data",
              "type": "bytes"
            }
          ],
          "internalType": "struct BoardOfDirectors.Action[]",
          "name": "",
          "type": "tuple[]"
        }
      ],
      "stateMutability": "view",
      "type": "function"
    },
    {
      "inputs": [],
      "name": "getBoardOfDirectors",
      "outputs": [
        {
          "internalType": "address[]",
          "name": "",
          "type": "address[]"
        }
      ],
      "stateMutability": "view",
      "type": "function"
    },
    {
      "inputs": [],
      "name": "getOwners",
      "outputs": [
        {
          "internalType": "address[]",
          "name": "",
          "type": "address[]"
        }
      ],
      "stateMutability": "view",
      "type": "function"
    },
    {
      "inputs": [
        {
          "internalType": "address[]",
          "name": "_owners",
          "type": "address[]"
        }
      ],
      "name": "initialize",
      "outputs": [],
      "stateMutability": "nonpayable",
      "type": "function"
    },
    {
      "inputs": [
        {
          "internalType": "uint256",
          "name": "_actionId",
          "type": "uint256"
        }
      ],
      "name": "isActionExecuted",
      "outputs": [
        {
          "internalType": "bool",
          "name": "",
          "type": "bool"
        }
      ],
      "stateMutability": "view",
      "type": "function"
    },
    {
      "inputs": [
        {
          "internalType": "uint256",
          "name": "",
          "type": "uint256"
        }
      ],
      "name": "owners",
      "outputs": [
        {
          "internalType": "address",
          "name": "",
          "type": "address"
        }
      ],
      "stateMutability": "view",
      "type": "function"
    },
    {
      "inputs": [
        {
          "internalType": "address",
          "name": "_owner",
          "type": "address"
        }
      ],
      "name": "removeOwner",
      "outputs": [],
      "stateMutability": "nonpayable",
      "type": "function"
    },
    {
      "inputs": [
        {
          "internalType": "uint256",
          "name": "_actionId",
          "type": "uint256"
        }
      ],
      "name": "revoke",
      "outputs": [],
      "stateMutability": "nonpayable",
      "type": "function"
    },
    {
      "inputs": [
        {
          "internalType": "address[]",
          "name": "_boardOfDirectors",
          "type": "address[]"
        }
      ],
      "name": "setBoardOfDirectors",
      "outputs": [],
      "stateMutability": "nonpayable",
      "type": "function"
    },
    {
      "inputs": [
        {
          "internalType": "address[]",
          "name": "_owners",
          "type": "address[]"
        }
      ],
      "name": "setOwners",
      "outputs": [],
      "stateMutability": "nonpayable",
      "type": "function"
    }
  ],
  "bytecode": "0x608060405234801561001057600080fd5b50611f67806100206000396000f3fe608060405234801561001057600080fd5b506004361061012c5760003560e01c8063a0e67e2b116100ad578063c71e8f7f11610071578063c71e8f7f146102ba578063d42e5488146102cd578063f575207c146102e0578063fa4d3698146102f3578063fb9868201461030657600080fd5b8063a0e67e2b14610242578063a224cee71461024a578063a8c24e261461025d578063b759f95414610270578063bd59a03d1461028357600080fd5b806340ad01ea116100f457806340ad01ea146101b55780637065cb48146101d857806371a5c572146101eb578063771164d4146101fe57806383240f831461021e57600080fd5b8063025e7c2714610131578063173825d91461016157806320c5429b1461017657806329da5738146101895780632fb3d0af146101a0575b600080fd5b61014461013f36600461172a565b610334565b6040516001600160a01b0390911681526020015b60405180910390f35b61017461016f36600461175f565b61035e565b005b61017461018436600461172a565b6104f0565b61019260025481565b604051908152602001610158565b6101a86106ba565b6040516101589190611781565b6101926101c336600461172a565b60009081526003602052604090206002015490565b6101746101e636600461175f565b61071c565b6101746101f9366004611815565b610870565b61021161020c3660046118c2565b61094a565b604051610158919061192a565b61023161022c36600461172a565b610be7565b6040516101589594939291906119e0565b6101a8610d38565b610174610258366004611815565b610d98565b61017461026b366004611a7c565b610f1d565b61017461027e36600461172a565b611112565b6102aa61029136600461172a565b6000908152600360208190526040909120015460ff1690565b6040519015158152602001610158565b6101446102c836600461172a565b6112e0565b6101a86102db36600461172a565b6112f0565b6101446102ee3660046118c2565b61135c565b610174610301366004611815565b611394565b6102aa610314366004611b1b565b600460209081526000928352604080842090915290825290205460ff1681565b6000818154811061034457600080fd5b6000918252602090912001546001600160a01b0316905081565b3330146103865760405162461bcd60e51b815260040161037d90611b47565b60405180910390fd5b60008054905b818110156104b257826001600160a01b0316600082815481106103b1576103b1611b7c565b6000918252602090912001546001600160a01b0316036104aa5760006103d8600184611ba8565b815481106103e8576103e8611b7c565b600091825260208220015481546001600160a01b0390911691908390811061041257610412611b7c565b6000918252602082200180546001600160a01b0319166001600160a01b03939093169290921790915580548061044a5761044a611bbb565b600082815260208120820160001990810180546001600160a01b03191690559091019091556040517f4d4e0931c18b0958388c890c5fb22106f83eb31c07fba54997f3495ad2ec6c269161049d91611bd1565b60405180910390a1505050565b60010161038c565b5060405162461bcd60e51b815260206004820152600f60248201526e13dddb995c881b9bdd08199bdd5b99608a1b604482015260640161037d565b50565b60015460005b8181101561065a576001818154811061051157610511611b7c565b6000918252602090912001546001600160a01b03163303610652576000838152600360208190526040909120015460ff16156105895760405162461bcd60e51b81526020600482015260176024820152761058dd1a5bdb88185b1c9958591e48195e1958dd5d1959604a1b604482015260640161037d565b600083815260046020908152604080832033845290915290205460ff166105e15760405162461bcd60e51b815260206004820152600c60248201526b139bdd08185c1c1c9bdd995960a21b604482015260640161037d565b60008381526004602090815260408083203384528252808320805460ff191690558583526003909152812060020180549161061b83611c15565b9091555050604051339084907f01f63c1b9d3957c18de0c44c6275215a4ad8986480fd414a049af3c3643ec9b390600090a3505050565b6001016104f6565b5060405162461bcd60e51b815260206004820152602e60248201527f4f6e6c7920626f617264206f66206469726563746f72732063616e2063616c6c60448201526d103a3434b990333ab731ba34b7b760911b606482015260840161037d565b6060600180548060200260200160405190810160405280929190818152602001828054801561071257602002820191906000526020600020905b81546001600160a01b031681526001909101906020018083116106f4575b5050505050905090565b33301461073b5760405162461bcd60e51b815260040161037d90611b47565b6001600160a01b0381166107615760405162461bcd60e51b815260040161037d90611c2c565b60008054905b818110156107ed57826001600160a01b03166000828154811061078c5761078c611b7c565b6000918252602090912001546001600160a01b0316036107e55760405162461bcd60e51b81526020600482015260146024820152734f776e657220616c72656164792065786973747360601b604482015260640161037d565b600101610767565b50600080546001810182558180527f290decd9548b62a8d60345a988386fc84ba6bc95484008f6362f93160ef3e5630180546001600160a01b0319166001600160a01b0385161790556040517f4d4e0931c18b0958388c890c5fb22106f83eb31c07fba54997f3495ad2ec6c269161086491611bd1565b60405180910390a15050565b60008054905b818110156108f7576000818154811061089157610891611b7c565b6000918252602090912001546001600160a01b031633036108ef5782516108bf9060019060208601906116b0565b507f752141a0ca1784bc0346da5668d09fafe5e628e052f654f7050cdafeb61c195b8360405161049d9190611781565b600101610876565b5060405162461bcd60e51b815260206004820152602160248201527f4f6e6c79206f776e65722063616e2063616c6c20746869732066756e6374696f6044820152603760f91b606482015260840161037d565b606060025483106109965760405162461bcd60e51b81526020600482015260166024820152755374617274206964206f7574206f6620626f756e647360501b604482015260640161037d565b60006109a28385611c5b565b90506002548111156109b357506002545b60006109bf8583611ba8565b67ffffffffffffffff8111156109d7576109d76117ce565b604051908082528060200260200182016040528015610a3257816020015b6040805160a08101825260008082526060602083018190529282018190528282015260808101919091528152602001906001900390816109f55790505b509050845b82811015610bdc57600081815260036020908152604091829020825160a0810190935280546001600160a01b031683526001810180549192840191610a7b90611c6e565b80601f0160208091040260200160405190810160405280929190818152602001828054610aa790611c6e565b8015610af45780601f10610ac957610100808354040283529160200191610af4565b820191906000526020600020905b815481529060010190602001808311610ad757829003601f168201915b505050918352505060028201546020820152600382015460ff1615156040820152600482018054606090920191610b2a90611c6e565b80601f0160208091040260200160405190810160405280929190818152602001828054610b5690611c6e565b8015610ba35780601f10610b7857610100808354040283529160200191610ba3565b820191906000526020600020905b815481529060010190602001808311610b8657829003601f168201915b505050505081525050828783610bb99190611ba8565b81518110610bc957610bc9611b7c565b6020908102919091010152600101610a37565b509150505b92915050565b600360205260009081526040902080546001820180546001600160a01b039092169291610c1390611c6e565b80601f0160208091040260200160405190810160405280929190818152602001828054610c3f90611c6e565b8015610c8c5780601f10610c6157610100808354040283529160200191610c8c565b820191906000526020600020905b815481529060010190602001808311610c6f57829003601f168201915b50505050600283015460038401546004850180549495929460ff909216935090610cb590611c6e565b80601f0160208091040260200160405190810160405280929190818152602001828054610ce190611c6e565b8015610d2e5780601f10610d0357610100808354040283529160200191610d2e565b820191906000526020600020905b815481529060010190602001808311610d1157829003601f168201915b5050505050905085565b60606000805480602002602001604051908101604052809291908181526020018280548015610712576020028201919060005260206000209081546001600160a01b031681526001909101906020018083116106f4575050505050905090565b7ff0c57e16840df040f15088dc2f81fe391c3923bec73e23a9662efc9c229c6a008054600160401b810460ff16159067ffffffffffffffff16600081158015610dde5750825b905060008267ffffffffffffffff166001148015610dfb5750303b155b905081158015610e09575080155b15610e275760405163f92ee8a960e01b815260040160405180910390fd5b845467ffffffffffffffff191660011785558315610e5157845460ff60401b1916600160401b1785555b855160005b81811015610eb15760006001600160a01b0316888281518110610e7b57610e7b611b7c565b60200260200101516001600160a01b031603610ea95760405162461bcd60e51b815260040161037d90611c2c565b600101610e56565b50610eba61149a565b8651610ecd9060009060208a01906116b0565b50508315610f1557845460ff60401b19168555604051600181527fc7f505b2f371ae2175ee4913f4499e1f2633a7b5936321eed1cdaeb6115181d29060200160405180910390a15b505050505050565b60015460005b8181101561065a5760018181548110610f3e57610f3e611b7c565b6000918252602090912001546001600160a01b0316330361110a576001600160a01b038516610fa85760405162461bcd60e51b8152602060048201526016602482015275496e76616c696420746172676574206164647265737360501b604482015260640161037d565b6040805160a0810182526001600160a01b03878116825260208083018881526001848601819052600060608601819052608086018a90526002548152600390935294909120835181546001600160a01b03191693169290921782555191929091908201906110169082611cf0565b5060408201516002820155606082015160038201805460ff19169115159190911790556080820151600482019061104d9082611cf0565b50506002805460009081526005602090815260408083208054600181810183559185528385200180546001600160a01b03191633908117909155855485526004845282852090855290925291829020805460ff19169091179055905490516001600160a01b03881692507fc484df370bd25a7feae253ddd56417813deedc701dceace2d06ffed0a991ea0e906110e69088908890611db0565b60405180910390a3600280549060006110fe83611dde565b91905055505050505050565b600101610f23565b60015460005b8181101561065a576001818154811061113357611133611b7c565b6000918252602090912001546001600160a01b031633036112d8576000838152600360208190526040909120015460ff16156111ab5760405162461bcd60e51b81526020600482015260176024820152761058dd1a5bdb88185b1c9958591e48195e1958dd5d1959604a1b604482015260640161037d565b600083815260046020908152604080832033845290915290205460ff16156112085760405162461bcd60e51b815260206004820152601060248201526f105b1c9958591e48185c1c1c9bdd995960821b604482015260640161037d565b600083815260046020908152604080832033808552908352818420805460ff19166001908117909155878552600584528285208054918201815585528385200180546001600160a01b03191690911790558583526003909152812060020180549161127283611dde565b9091555050604051339084907f5c5eba18d22f000d8abde369b6bed499233b5f42bad94d08eff5b60de7e663c090600090a36001546112b390600290611df7565b600084815260036020526040902060020154106112d3576112d3836114ac565b505050565b600101611118565b6001818154811061034457600080fd5b60008181526005602090815260409182902080548351818402810184019094528084526060939283018282801561135057602002820191906000526020600020905b81546001600160a01b03168152600190910190602001808311611332575b50505050509050919050565b6005602052816000526040600020818154811061137857600080fd5b6000918252602090912001546001600160a01b03169150829050565b3330146113b35760405162461bcd60e51b815260040161037d90611b47565b60008151116113f65760405162461bcd60e51b815260206004820152600f60248201526e13dddb995c9cc81c995c5d5a5c9959608a1b604482015260640161037d565b805160005b818110156114565760006001600160a01b031683828151811061142057611420611b7c565b60200260200101516001600160a01b03160361144e5760405162461bcd60e51b815260040161037d90611c2c565b6001016113fb565b50815161146a9060009060208501906116b0565b507f4d4e0931c18b0958388c890c5fb22106f83eb31c07fba54997f3495ad2ec6c26826040516108649190611781565b6114a26115ef565b6114aa611638565b565b6114b4611666565b600081815260036020526040808220805491519092916001600160a01b0316906114e2906004850190611e19565b6000604051808303816000865af19150503d806000811461151f576040519150601f19603f3d011682016040523d82523d6000602084013e611524565b606091505b50509050806115635760405162461bcd60e51b815260206004820152600b60248201526a10d85b1b0819985a5b195960aa1b604482015260640161037d565b60038201805460ff1916600190811790915582546040516001600160a01b039091169185917f7d209626d0bd190ffb6bee0fcebeb18f3e3ed37daf67d3d45a966b0a9496fbe8916115bc91908701906004880190611f0c565b60405180910390a350506104ed60017f9b779b17422d0df92223018b32b4d1fa46e071723d6817e2486d003becc55f0055565b7ff0c57e16840df040f15088dc2f81fe391c3923bec73e23a9662efc9c229c6a0054600160401b900460ff166114aa57604051631afcd79f60e31b815260040160405180910390fd5b6116406115ef565b60017f9b779b17422d0df92223018b32b4d1fa46e071723d6817e2486d003becc55f0055565b7f9b779b17422d0df92223018b32b4d1fa46e071723d6817e2486d003becc55f008054600119016116aa57604051633ee5aeb560e01b815260040160405180910390fd5b60029055565b828054828255906000526020600020908101928215611705579160200282015b8281111561170557825182546001600160a01b0319166001600160a01b039091161782556020909201916001909101906116d0565b50611711929150611715565b5090565b5b808211156117115760008155600101611716565b60006020828403121561173c57600080fd5b5035919050565b80356001600160a01b038116811461175a57600080fd5b919050565b60006020828403121561177157600080fd5b61177a82611743565b9392505050565b6020808252825182820181905260009190848201906040850190845b818110156117c25783516001600160a01b03168352928401929184019160010161179d565b50909695505050505050565b634e487b7160e01b600052604160045260246000fd5b604051601f8201601f1916810167ffffffffffffffff8111828210171561180d5761180d6117ce565b604052919050565b6000602080838503121561182857600080fd5b823567ffffffffffffffff8082111561184057600080fd5b818501915085601f83011261185457600080fd5b813581811115611866576118666117ce565b8060051b91506118778483016117e4565b818152918301840191848101908884111561189157600080fd5b938501935b838510156118b6576118a785611743565b82529385019390850190611896565b98975050505050505050565b600080604083850312156118d557600080fd5b50508035926020909101359150565b6000815180845260005b8181101561190a576020818501810151868301820152016118ee565b506000602082860101526020601f19601f83011685010191505092915050565b600060208083018184528085518083526040925060408601915060408160051b87010184880160005b838110156119d257888303603f19018552815180516001600160a01b031684528781015160a08986018190529061198c828701826118e4565b915050878201518886015260608083015115158187015250608080830151925085820381870152506119be81836118e4565b968901969450505090860190600101611953565b509098975050505050505050565b6001600160a01b038616815260a060208201819052600090611a04908301876118e4565b856040840152841515606084015282810360808401526118b681856118e4565b600067ffffffffffffffff831115611a3e57611a3e6117ce565b611a51601f8401601f19166020016117e4565b9050828152838383011115611a6557600080fd5b828260208301376000602084830101529392505050565b600080600060608486031215611a9157600080fd5b611a9a84611743565b9250602084013567ffffffffffffffff80821115611ab757600080fd5b818601915086601f830112611acb57600080fd5b611ada87833560208501611a24565b93506040860135915080821115611af057600080fd5b508401601f81018613611b0257600080fd5b611b1186823560208401611a24565b9150509250925092565b60008060408385031215611b2e57600080fd5b82359150611b3e60208401611743565b90509250929050565b6020808252818101527f4f6e6c792073656c662063616e2063616c6c20746869732066756e6374696f6e604082015260600190565b634e487b7160e01b600052603260045260246000fd5b634e487b7160e01b600052601160045260246000fd5b81810381811115610be157610be1611b92565b634e487b7160e01b600052603160045260246000fd5b6020808252825482820181905260008481528281209092916040850190845b818110156117c25783546001600160a01b031683526001938401939285019201611bf0565b600081611c2457611c24611b92565b506000190190565b602080825260159082015274496e76616c6964206f776e6572206164647265737360581b604082015260600190565b80820180821115610be157610be1611b92565b600181811c90821680611c8257607f821691505b602082108103611ca257634e487b7160e01b600052602260045260246000fd5b50919050565b601f8211156112d3576000816000526020600020601f850160051c81016020861015611cd15750805b601f850160051c820191505b81811015610f1557828155600101611cdd565b815167ffffffffffffffff811115611d0a57611d0a6117ce565b611d1e81611d188454611c6e565b84611ca8565b602080601f831160018114611d535760008415611d3b5750858301515b600019600386901b1c1916600185901b178555610f15565b600085815260208120601f198616915b82811015611d8257888601518255948401946001909101908401611d63565b5085821015611da05787850151600019600388901b60f8161c191681555b5050505050600190811b01905550565b604081526000611dc360408301856118e4565b8281036020840152611dd581856118e4565b95945050505050565b600060018201611df057611df0611b92565b5060010190565b600082611e1457634e487b7160e01b600052601260045260246000fd5b500490565b6000808354611e2781611c6e565b60018281168015611e3f5760018114611e5457611e83565b60ff1984168752821515830287019450611e83565b8760005260208060002060005b85811015611e7a5781548a820152908401908201611e61565b50505082870194505b50929695505050505050565b60008154611e9c81611c6e565b808552602060018381168015611eb95760018114611ed357611f01565b60ff1985168884015283151560051b880183019550611f01565b866000528260002060005b85811015611ef95781548a8201860152908301908401611ede565b890184019650505b505050505092915050565b604081526000611f1f6040830185611e8f565b8281036020840152611dd58185611e8f56fea2646970667358221220323bf417f4cfd0a4058ac4f9f6a28b4db5e8b29c472d2e1f79b4a20ce1f4adfe64736f6c63430008180033",
  "linkReferences": {},
  "deployedLinkReferences": {}
}