{
  "_format": "hh-sol-artifact-1",
  "contractName": "BoardOfDirectors",
  "sourceName": "contracts/BoardOfDirectors.sol",
  "abi": [
    {
      "inputs": [],
      "name": "InvalidInitialization",
      "type": "error"
    },
    {
      "inputs": [],
      "name": "NotInitializing",
      "type": "error"
    },
    {
      "inputs": [],
      "name": "ReentrancyGuardReentrantCall",
      "type": "error"
    },
    {
      "anonymous": false,
      "inputs": [
        {
          "indexed": true,
          "internalType": "uint256",
          "name": "id",
          "type": "uint256"
        },
        {
          "indexed": true,
          "internalType": "address",
          "name": "target",
          "type": "address"
        },
        {
          "indexed": false,
          "internalType": "string",
          "name": "_description",
          "type": "string"
        },
        {
          "indexed": false,
          "internalType": "bytes",
          "name": "data",
          "type": "bytes"
        }
      ],
      "name": "ActionAdded",
      "type": "event"
    },
    {
      "anonymous": false,
      "inputs": [
        {
          "indexed": true,
          "internalType": "uint256",
          "name": "id",
          "type": "uint256"
        },
        {
          "indexed": true,
          "internalType": "address",
          "name": "target",
          "type": "address"
        },
        {
          "indexed": false,
          "internalType": "string",
          "name": "_description",
          "type": "string"
        },
        {
          "indexed": false,
          "internalType": "bytes",
          "name": "data",
          "type": "bytes"
        }
      ],
      "name": "ActionExecuted",
      "type": "event"
    },
    {
      "anonymous": false,
      "inputs": [
        {
          "indexed": true,
          "internalType": "uint256",
          "name": "id",
          "type": "uint256"
        },
        {
          "indexed": true,
          "internalType": "address",
          "name": "approver",
          "type": "address"
        }
      ],
      "name": "Approval",
      "type": "event"
    },
    {
      "anonymous": false,
      "inputs": [
        {
          "indexed": false,
          "internalType": "address[]",
          "name": "boardOfDirectors",
          "type": "address[]"
        }
      ],
      "name": "BoardOfDirectorsChanged",
      "type": "event"
    },
    {
      "anonymous": false,
      "inputs": [
        {
          "indexed": false,
          "internalType": "uint64",
          "name": "version",
          "type": "uint64"
        }
      ],
      "name": "Initialized",
      "type": "event"
    },
    {
      "anonymous": false,
      "inputs": [
        {
          "indexed": false,
          "internalType": "address[]",
          "name": "owners",
          "type": "address[]"
        }
      ],
      "name": "OwnersChanged",
      "type": "event"
    },
    {
      "anonymous": false,
      "inputs": [
        {
          "indexed": true,
          "internalType": "uint256",
          "name": "id",
          "type": "uint256"
        },
        {
          "indexed": true,
          "internalType": "address",
          "name": "approver",
          "type": "address"
        }
      ],
      "name": "Revocation",
      "type": "event"
    },
    {
      "inputs": [
        {
          "internalType": "uint256",
          "name": "",
          "type": "uint256"
        },
        {
          "internalType": "address",
          "name": "",
          "type": "address"
        }
      ],
      "name": "actionApprovals",
      "outputs": [
        {
          "internalType": "bool",
          "name": "",
          "type": "bool"
        }
      ],
      "stateMutability": "view",
      "type": "function"
    },
    {
      "inputs": [
        {
          "internalType": "uint256",
          "name": "",
          "type": "uint256"
        },
        {
          "internalType": "uint256",
          "name": "",
          "type": "uint256"
        }
      ],
      "name": "actionApprovers",
      "outputs": [
        {
          "internalType": "address",
          "name": "",
          "type": "address"
        }
      ],
      "stateMutability": "view",
      "type": "function"
    },
    {
      "inputs": [],
      "name": "actionCount",
      "outputs": [
        {
          "internalType": "uint256",
          "name": "",
          "type": "uint256"
        }
      ],
      "stateMutability": "view",
      "type": "function"
    },
    {
      "inputs": [
        {
          "internalType": "uint256",
          "name": "",
          "type": "uint256"
        }
      ],
      "name": "actions",
      "outputs": [
        {
          "internalType": "address",
          "name": "target",
          "type": "address"
        },
        {
          "internalType": "string",
          "name": "description",
          "type": "string"
        },
        {
          "internalType": "uint256",
          "name": "approvalCount",
          "type": "uint256"
        },
        {
          "internalType": "bool",
          "name": "isExecuted",
          "type": "bool"
        },
        {
          "internalType": "bytes",
          "name": "data",
          "type": "bytes"
        }
      ],
      "stateMutability": "view",
      "type": "function"
    },
    {
      "inputs": [
        {
          "internalType": "address",
          "name": "_target",
          "type": "address"
        },
        {
          "internalType": "string",
          "name": "_description",
          "type": "string"
        },
        {
          "internalType": "bytes",
          "name": "_data",
          "type": "bytes"
        }
      ],
      "name": "addAction",
      "outputs": [],
      "stateMutability": "nonpayable",
      "type": "function"
    },
    {
      "inputs": [
        {
          "internalType": "address",
          "name": "_owner",
          "type": "address"
        }
      ],
      "name": "addOwner",
      "outputs": [],
      "stateMutability": "nonpayable",
      "type": "function"
    },
    {
      "inputs": [
        {
          "internalType": "uint256",
          "name": "_actionId",
          "type": "uint256"
        }
      ],
      "name": "approvalCount",
      "outputs": [
        {
          "internalType": "uint256",
          "name": "",
          "type": "uint256"
        }
      ],
      "stateMutability": "view",
      "type": "function"
    },
    {
      "inputs": [
        {
          "internalType": "uint256",
          "name": "_actionId",
          "type": "uint256"
        }
      ],
      "name": "approve",
      "outputs": [],
      "stateMutability": "nonpayable",
      "type": "function"
    },
    {
      "inputs": [
        {
          "internalType": "uint256",
          "name": "",
          "type": "uint256"
        }
      ],
      "name": "boardOfDirectors",
      "outputs": [
        {
          "internalType": "address",
          "name": "",
          "type": "address"
        }
      ],
      "stateMutability": "view",
      "type": "function"
    },
    {
      "inputs": [],
      "name": "executedActionCount",
      "outputs": [
        {
          "internalType": "uint256",
          "name": "",
          "type": "uint256"
        }
      ],
      "stateMutability": "view",
      "type": "function"
    },
    {
      "inputs": [
        {
          "internalType": "uint256",
          "name": "",
          "type": "uint256"
        }
      ],
      "name": "executedActions",
      "outputs": [
        {
          "internalType": "address",
          "name": "target",
          "type": "address"
        },
        {
          "internalType": "string",
          "name": "description",
          "type": "string"
        },
        {
          "internalType": "uint256",
          "name": "approvalCount",
          "type": "uint256"
        },
        {
          "internalType": "bool",
          "name": "isExecuted",
          "type": "bool"
        },
        {
          "internalType": "bytes",
          "name": "data",
          "type": "bytes"
        }
      ],
      "stateMutability": "view",
      "type": "function"
    },
    {
      "inputs": [
        {
          "internalType": "uint256",
          "name": "_actionId",
          "type": "uint256"
        }
      ],
      "name": "getActionApprovers",
      "outputs": [
        {
          "internalType": "address[]",
          "name": "",
          "type": "address[]"
        }
      ],
      "stateMutability": "view",
      "type": "function"
    },
    {
      "inputs": [],
      "name": "getBoardOfDirectors",
      "outputs": [
        {
          "internalType": "address[]",
          "name": "",
          "type": "address[]"
        }
      ],
      "stateMutability": "view",
      "type": "function"
    },
    {
      "inputs": [
        {
          "internalType": "uint256",
          "name": "_startId",
          "type": "uint256"
        },
        {
          "internalType": "uint256",
          "name": "_limit",
          "type": "uint256"
        }
      ],
      "name": "getExecutedActions",
      "outputs": [
        {
          "components": [
            {
              "internalType": "address",
              "name": "target",
              "type": "address"
            },
            {
              "internalType": "string",
              "name": "description",
              "type": "string"
            },
            {
              "internalType": "uint256",
              "name": "approvalCount",
              "type": "uint256"
            },
            {
              "internalType": "bool",
              "name": "isExecuted",
              "type": "bool"
            },
            {
              "internalType": "bytes",
              "name": "data",
              "type": "bytes"
            }
          ],
          "internalType": "struct BoardOfDirectors.Action[]",
          "name": "",
          "type": "tuple[]"
        }
      ],
      "stateMutability": "view",
      "type": "function"
    },
    {
      "inputs": [],
      "name": "getOwners",
      "outputs": [
        {
          "internalType": "address[]",
          "name": "",
          "type": "address[]"
        }
      ],
      "stateMutability": "view",
      "type": "function"
    },
    {
      "inputs": [
        {
          "internalType": "uint256",
          "name": "_startId",
          "type": "uint256"
        },
        {
          "internalType": "uint256",
          "name": "_limit",
          "type": "uint256"
        }
      ],
      "name": "getPendingActions",
      "outputs": [
        {
          "components": [
            {
              "internalType": "address",
              "name": "target",
              "type": "address"
            },
            {
              "internalType": "string",
              "name": "description",
              "type": "string"
            },
            {
              "internalType": "uint256",
              "name": "approvalCount",
              "type": "uint256"
            },
            {
              "internalType": "bool",
              "name": "isExecuted",
              "type": "bool"
            },
            {
              "internalType": "bytes",
              "name": "data",
              "type": "bytes"
            }
          ],
          "internalType": "struct BoardOfDirectors.Action[]",
          "name": "",
          "type": "tuple[]"
        }
      ],
      "stateMutability": "view",
      "type": "function"
    },
    {
      "inputs": [
        {
          "internalType": "address[]",
          "name": "_owners",
          "type": "address[]"
        }
      ],
      "name": "initialize",
      "outputs": [],
      "stateMutability": "nonpayable",
      "type": "function"
    },
    {
      "inputs": [
        {
          "internalType": "uint256",
          "name": "_actionId",
          "type": "uint256"
        }
      ],
      "name": "isActionExecuted",
      "outputs": [
        {
          "internalType": "bool",
          "name": "",
          "type": "bool"
        }
      ],
      "stateMutability": "view",
      "type": "function"
    },
    {
      "inputs": [
        {
          "internalType": "uint256",
          "name": "",
          "type": "uint256"
        }
      ],
      "name": "owners",
      "outputs": [
        {
          "internalType": "address",
          "name": "",
          "type": "address"
        }
      ],
      "stateMutability": "view",
      "type": "function"
    },
    {
      "inputs": [],
      "name": "pendingActionCount",
      "outputs": [
        {
          "internalType": "uint256",
          "name": "",
          "type": "uint256"
        }
      ],
      "stateMutability": "view",
      "type": "function"
    },
    {
      "inputs": [
        {
          "internalType": "uint256",
          "name": "",
          "type": "uint256"
        }
      ],
      "name": "pendingActions",
      "outputs": [
        {
          "internalType": "address",
          "name": "target",
          "type": "address"
        },
        {
          "internalType": "string",
          "name": "description",
          "type": "string"
        },
        {
          "internalType": "uint256",
          "name": "approvalCount",
          "type": "uint256"
        },
        {
          "internalType": "bool",
          "name": "isExecuted",
          "type": "bool"
        },
        {
          "internalType": "bytes",
          "name": "data",
          "type": "bytes"
        }
      ],
      "stateMutability": "view",
      "type": "function"
    },
    {
      "inputs": [
        {
          "internalType": "address",
          "name": "_owner",
          "type": "address"
        }
      ],
      "name": "removeOwner",
      "outputs": [],
      "stateMutability": "nonpayable",
      "type": "function"
    },
    {
      "inputs": [
        {
          "internalType": "uint256",
          "name": "_actionId",
          "type": "uint256"
        }
      ],
      "name": "revoke",
      "outputs": [],
      "stateMutability": "nonpayable",
      "type": "function"
    },
    {
      "inputs": [
        {
          "internalType": "address[]",
          "name": "_boardOfDirectors",
          "type": "address[]"
        }
      ],
      "name": "setBoardOfDirectors",
      "outputs": [],
      "stateMutability": "nonpayable",
      "type": "function"
    },
    {
      "inputs": [
        {
          "internalType": "address[]",
          "name": "_owners",
          "type": "address[]"
        }
      ],
      "name": "setOwners",
      "outputs": [],
      "stateMutability": "nonpayable",
      "type": "function"
    }
  ],
  "bytecode": "0x608060405234801561001057600080fd5b5061256e806100206000396000f3fe608060405234801561001057600080fd5b50600436106101735760003560e01c8063a0e67e2b116100de578063d28cf43611610097578063ec7cd91811610071578063ec7cd91814610368578063f575207c14610371578063fa4d369814610384578063fb9868201461039757600080fd5b8063d28cf43614610322578063d3dcbd2a14610342578063d42e54881461035557600080fd5b8063a0e67e2b14610298578063a224cee7146102a0578063a8c24e26146102b3578063b759f954146102c6578063bd59a03d146102d9578063c71e8f7f1461030f57600080fd5b80632fb3d0af116101305780632fb3d0af1461021457806340ad01ea146102295780637065cb481461024c57806371a5c5721461025f578063761ec1311461027257806383240f831461028557600080fd5b8063025e7c271461017857806303117ba2146101a8578063056c7cdb146101cc578063173825d9146101e357806320c5429b146101f857806329da57381461020b575b600080fd5b61018b610186366004611c56565b6103c5565b6040516001600160a01b0390911681526020015b60405180910390f35b6101bb6101b6366004611c56565b6103ef565b60405161019f959493929190611cb5565b6101d560035481565b60405190815260200161019f565b6101f66101f1366004611d21565b610540565b005b6101f6610206366004611c56565b6106d2565b6101d560025481565b61021c61089b565b60405161019f9190611d43565b6101d5610237366004611c56565b60009081526005602052604090206002015490565b6101f661025a366004611d21565b6108fd565b6101f661026d366004611dd7565b610a51565b6101bb610280366004611c56565b610b2b565b6101bb610293366004611c56565b610b57565b61021c610b83565b6101f66102ae366004611dd7565b610be3565b6101f66102c1366004611ed0565b610d68565b6101f66102d4366004611c56565b610ff2565b6102ff6102e7366004611c56565b60009081526005602052604090206003015460ff1690565b604051901515815260200161019f565b61018b61031d366004611c56565b6111bf565b610335610330366004611f6f565b6111cf565b60405161019f9190611f91565b610335610350366004611f6f565b61144a565b61021c610363366004611c56565b6116ba565b6101d560045481565b61018b61037f366004611f6f565b611726565b6101f6610392366004611dd7565b61175e565b6102ff6103a5366004612047565b600860209081526000928352604080842090915290825290205460ff1681565b600081815481106103d557600080fd5b6000918252602090912001546001600160a01b0316905081565b600660205260009081526040902080546001820180546001600160a01b03909216929161041b90612073565b80601f016020809104026020016040519081016040528092919081815260200182805461044790612073565b80156104945780601f1061046957610100808354040283529160200191610494565b820191906000526020600020905b81548152906001019060200180831161047757829003601f168201915b50505050600283015460038401546004850180549495929460ff9092169350906104bd90612073565b80601f01602080910402602001604051908101604052809291908181526020018280546104e990612073565b80156105365780601f1061050b57610100808354040283529160200191610536565b820191906000526020600020905b81548152906001019060200180831161051957829003601f168201915b5050505050905085565b3330146105685760405162461bcd60e51b815260040161055f906120ad565b60405180910390fd5b60008054905b8181101561069457826001600160a01b031660008281548110610593576105936120e2565b6000918252602090912001546001600160a01b03160361068c5760006105ba60018461210e565b815481106105ca576105ca6120e2565b600091825260208220015481546001600160a01b039091169190839081106105f4576105f46120e2565b6000918252602082200180546001600160a01b0319166001600160a01b03939093169290921790915580548061062c5761062c612121565b600082815260208120820160001990810180546001600160a01b03191690559091019091556040517f4d4e0931c18b0958388c890c5fb22106f83eb31c07fba54997f3495ad2ec6c269161067f91612137565b60405180910390a1505050565b60010161056e565b5060405162461bcd60e51b815260206004820152600f60248201526e13dddb995c881b9bdd08199bdd5b99608a1b604482015260640161055f565b50565b60015460005b8181101561083b57600181815481106106f3576106f36120e2565b6000918252602090912001546001600160a01b031633036108335760008381526005602052604090206003015460ff161561076a5760405162461bcd60e51b81526020600482015260176024820152761058dd1a5bdb88185b1c9958591e48195e1958dd5d1959604a1b604482015260640161055f565b600083815260086020908152604080832033845290915290205460ff166107c25760405162461bcd60e51b815260206004820152600c60248201526b139bdd08185c1c1c9bdd995960a21b604482015260640161055f565b60008381526008602090815260408083203384528252808320805460ff19169055858352600590915281206002018054916107fc8361217b565b9091555050604051339084907f01f63c1b9d3957c18de0c44c6275215a4ad8986480fd414a049af3c3643ec9b390600090a3505050565b6001016106d8565b5060405162461bcd60e51b815260206004820152602e60248201527f4f6e6c7920626f617264206f66206469726563746f72732063616e2063616c6c60448201526d103a3434b990333ab731ba34b7b760911b606482015260840161055f565b606060018054806020026020016040519081016040528092919081815260200182805480156108f357602002820191906000526020600020905b81546001600160a01b031681526001909101906020018083116108d5575b5050505050905090565b33301461091c5760405162461bcd60e51b815260040161055f906120ad565b6001600160a01b0381166109425760405162461bcd60e51b815260040161055f90612192565b60008054905b818110156109ce57826001600160a01b03166000828154811061096d5761096d6120e2565b6000918252602090912001546001600160a01b0316036109c65760405162461bcd60e51b81526020600482015260146024820152734f776e657220616c72656164792065786973747360601b604482015260640161055f565b600101610948565b50600080546001810182558180527f290decd9548b62a8d60345a988386fc84ba6bc95484008f6362f93160ef3e5630180546001600160a01b0319166001600160a01b0385161790556040517f4d4e0931c18b0958388c890c5fb22106f83eb31c07fba54997f3495ad2ec6c2691610a4591612137565b60405180910390a15050565b60008054905b81811015610ad85760008181548110610a7257610a726120e2565b6000918252602090912001546001600160a01b03163303610ad0578251610aa0906001906020860190611b6c565b507f752141a0ca1784bc0346da5668d09fafe5e628e052f654f7050cdafeb61c195b8360405161067f9190611d43565b600101610a57565b5060405162461bcd60e51b815260206004820152602160248201527f4f6e6c79206f776e65722063616e2063616c6c20746869732066756e6374696f6044820152603760f91b606482015260840161055f565b600760205260009081526040902080546001820180546001600160a01b03909216929161041b90612073565b600560205260009081526040902080546001820180546001600160a01b03909216929161041b90612073565b606060008054806020026020016040519081016040528092919081815260200182805480156108f3576020028201919060005260206000209081546001600160a01b031681526001909101906020018083116108d5575050505050905090565b7ff0c57e16840df040f15088dc2f81fe391c3923bec73e23a9662efc9c229c6a008054600160401b810460ff16159067ffffffffffffffff16600081158015610c295750825b905060008267ffffffffffffffff166001148015610c465750303b155b905081158015610c54575080155b15610c725760405163f92ee8a960e01b815260040160405180910390fd5b845467ffffffffffffffff191660011785558315610c9c57845460ff60401b1916600160401b1785555b855160005b81811015610cfc5760006001600160a01b0316888281518110610cc657610cc66120e2565b60200260200101516001600160a01b031603610cf45760405162461bcd60e51b815260040161055f90612192565b600101610ca1565b50610d05611864565b8651610d189060009060208a0190611b6c565b50508315610d6057845460ff60401b19168555604051600181527fc7f505b2f371ae2175ee4913f4499e1f2633a7b5936321eed1cdaeb6115181d29060200160405180910390a15b505050505050565b60015460005b8181101561083b5760018181548110610d8957610d896120e2565b6000918252602090912001546001600160a01b03163303610fea576001600160a01b038516610df35760405162461bcd60e51b8152602060048201526016602482015275496e76616c696420746172676574206164647265737360501b604482015260640161055f565b6040805160a0810182526001600160a01b03878116825260208083018881526001848601819052600060608601819052608086018a90526002548152600590935294909120835181546001600160a01b0319169316929092178255519192839290820190610e619082612209565b5060408201516002820155606082015160038201805460ff191691151591909117905560808201516004820190610e989082612209565b50506002546000908152600660209081526040909120835181546001600160a01b0319166001600160a01b03909116178155908301518392506001820190610ee09082612209565b5060408201516002820155606082015160038201805460ff191691151591909117905560808201516004820190610f179082612209565b50506002805460009081526009602090815260408083208054600181810183559185528385200180546001600160a01b03191633908117909155855485526008845282852090855290925291829020805460ff19169091179055905490516001600160a01b03891692507fc484df370bd25a7feae253ddd56417813deedc701dceace2d06ffed0a991ea0e90610fb090899089906122c9565b60405180910390a360028054906000610fc8836122f7565b909155505060038054906000610fdd836122f7565b9190505550505050505050565b600101610d6e565b60015460005b8181101561083b5760018181548110611013576110136120e2565b6000918252602090912001546001600160a01b031633036111b75760008381526005602052604090206003015460ff161561108a5760405162461bcd60e51b81526020600482015260176024820152761058dd1a5bdb88185b1c9958591e48195e1958dd5d1959604a1b604482015260640161055f565b600083815260086020908152604080832033845290915290205460ff16156110e75760405162461bcd60e51b815260206004820152601060248201526f105b1c9958591e48185c1c1c9bdd995960821b604482015260640161055f565b600083815260086020908152604080832033808552908352818420805460ff19166001908117909155878552600984528285208054918201815585528385200180546001600160a01b031916909117905585835260059091528120600201805491611151836122f7565b9091555050604051339084907f5c5eba18d22f000d8abde369b6bed499233b5f42bad94d08eff5b60de7e663c090600090a360015461119290600290612310565b600084815260056020526040902060020154106111b2576111b283611876565b505050565b600101610ff8565b600181815481106103d557600080fd5b6060600354831061121b5760405162461bcd60e51b81526020600482015260166024820152755374617274206964206f7574206f6620626f756e647360501b604482015260640161055f565b60006112278385612332565b905060035481111561123857506003545b6000611244858361210e565b67ffffffffffffffff81111561125c5761125c611d90565b60405190808252806020026020018201604052801561129557816020015b611282611bd1565b81526020019060019003908161127a5790505b509050845b8281101561143f57600081815260066020908152604091829020825160a0810190935280546001600160a01b0316835260018101805491928401916112de90612073565b80601f016020809104026020016040519081016040528092919081815260200182805461130a90612073565b80156113575780601f1061132c57610100808354040283529160200191611357565b820191906000526020600020905b81548152906001019060200180831161133a57829003601f168201915b505050918352505060028201546020820152600382015460ff161515604082015260048201805460609092019161138d90612073565b80601f01602080910402602001604051908101604052809291908181526020018280546113b990612073565b80156114065780601f106113db57610100808354040283529160200191611406565b820191906000526020600020905b8154815290600101906020018083116113e957829003601f168201915b50505050508152505082878361141c919061210e565b8151811061142c5761142c6120e2565b602090810291909101015260010161129a565b509150505b92915050565b606060045483106114965760405162461bcd60e51b81526020600482015260166024820152755374617274206964206f7574206f6620626f756e647360501b604482015260640161055f565b60006114a28385612332565b90506004548111156114b357506004545b60006114bf858361210e565b67ffffffffffffffff8111156114d7576114d7611d90565b60405190808252806020026020018201604052801561151057816020015b6114fd611bd1565b8152602001906001900390816114f55790505b509050845b8281101561143f57600081815260076020908152604091829020825160a0810190935280546001600160a01b03168352600181018054919284019161155990612073565b80601f016020809104026020016040519081016040528092919081815260200182805461158590612073565b80156115d25780601f106115a7576101008083540402835291602001916115d2565b820191906000526020600020905b8154815290600101906020018083116115b557829003601f168201915b505050918352505060028201546020820152600382015460ff161515604082015260048201805460609092019161160890612073565b80601f016020809104026020016040519081016040528092919081815260200182805461163490612073565b80156116815780601f1061165657610100808354040283529160200191611681565b820191906000526020600020905b81548152906001019060200180831161166457829003601f168201915b505050505081525050828783611697919061210e565b815181106116a7576116a76120e2565b6020908102919091010152600101611515565b60008181526009602090815260409182902080548351818402810184019094528084526060939283018282801561171a57602002820191906000526020600020905b81546001600160a01b031681526001909101906020018083116116fc575b50505050509050919050565b6009602052816000526040600020818154811061174257600080fd5b6000918252602090912001546001600160a01b03169150829050565b33301461177d5760405162461bcd60e51b815260040161055f906120ad565b60008151116117c05760405162461bcd60e51b815260206004820152600f60248201526e13dddb995c9cc81c995c5d5a5c9959608a1b604482015260640161055f565b805160005b818110156118205760006001600160a01b03168382815181106117ea576117ea6120e2565b60200260200101516001600160a01b0316036118185760405162461bcd60e51b815260040161055f90612192565b6001016117c5565b508151611834906000906020850190611b6c565b507f4d4e0931c18b0958388c890c5fb22106f83eb31c07fba54997f3495ad2ec6c2682604051610a459190611d43565b61186c611aab565b611874611af4565b565b61187e611b22565b600081815260056020526040808220805491519092916001600160a01b0316906118ac906004850190612345565b6000604051808303816000865af19150503d80600081146118e9576040519150601f19603f3d011682016040523d82523d6000602084013e6118ee565b606091505b505090508061192d5760405162461bcd60e51b815260206004820152600b60248201526a10d85b1b0819985a5b195960aa1b604482015260640161055f565b60038201805460ff191660019081179091556000848152600760205260409020835481546001600160a01b0319166001600160a01b0390911617815583918181019061197b908401826123bb565b5060028281015490820155600380830154908201805460ff191660ff90921615159190911790556004808201906119b4908401826123bb565b505050600083815260066020526040812080546001600160a01b0319168155906119e16001830182611c0b565b60006002830181905560038301805460ff19169055611a04906004840190611c0b565b505060038054906000611a168361217b565b909155505060048054906000611a2b836122f7565b909155505081546040516001600160a01b039091169084907f7d209626d0bd190ffb6bee0fcebeb18f3e3ed37daf67d3d45a966b0a9496fbe890611a789060018701906004880190612513565b60405180910390a350506106cf60017f9b779b17422d0df92223018b32b4d1fa46e071723d6817e2486d003becc55f0055565b7ff0c57e16840df040f15088dc2f81fe391c3923bec73e23a9662efc9c229c6a0054600160401b900460ff1661187457604051631afcd79f60e31b815260040160405180910390fd5b611afc611aab565b60017f9b779b17422d0df92223018b32b4d1fa46e071723d6817e2486d003becc55f0055565b7f9b779b17422d0df92223018b32b4d1fa46e071723d6817e2486d003becc55f00805460011901611b6657604051633ee5aeb560e01b815260040160405180910390fd5b60029055565b828054828255906000526020600020908101928215611bc1579160200282015b82811115611bc157825182546001600160a01b0319166001600160a01b03909116178255602090920191600190910190611b8c565b50611bcd929150611c41565b5090565b6040518060a0016040528060006001600160a01b031681526020016060815260200160008152602001600015158152602001606081525090565b508054611c1790612073565b6000825580601f10611c27575050565b601f0160209004906000526020600020908101906106cf91905b5b80821115611bcd5760008155600101611c42565b600060208284031215611c6857600080fd5b5035919050565b6000815180845260005b81811015611c9557602081850181015186830182015201611c79565b506000602082860101526020601f19601f83011685010191505092915050565b6001600160a01b038616815260a060208201819052600090611cd990830187611c6f565b85604084015284151560608401528281036080840152611cf98185611c6f565b98975050505050505050565b80356001600160a01b0381168114611d1c57600080fd5b919050565b600060208284031215611d3357600080fd5b611d3c82611d05565b9392505050565b6020808252825182820181905260009190848201906040850190845b81811015611d845783516001600160a01b031683529284019291840191600101611d5f565b50909695505050505050565b634e487b7160e01b600052604160045260246000fd5b604051601f8201601f1916810167ffffffffffffffff81118282101715611dcf57611dcf611d90565b604052919050565b60006020808385031215611dea57600080fd5b823567ffffffffffffffff80821115611e0257600080fd5b818501915085601f830112611e1657600080fd5b813581811115611e2857611e28611d90565b8060051b9150611e39848301611da6565b8181529183018401918481019088841115611e5357600080fd5b938501935b83851015611cf957611e6985611d05565b82529385019390850190611e58565b600067ffffffffffffffff831115611e9257611e92611d90565b611ea5601f8401601f1916602001611da6565b9050828152838383011115611eb957600080fd5b828260208301376000602084830101529392505050565b600080600060608486031215611ee557600080fd5b611eee84611d05565b9250602084013567ffffffffffffffff80821115611f0b57600080fd5b818601915086601f830112611f1f57600080fd5b611f2e87833560208501611e78565b93506040860135915080821115611f4457600080fd5b508401601f81018613611f5657600080fd5b611f6586823560208401611e78565b9150509250925092565b60008060408385031215611f8257600080fd5b50508035926020909101359150565b600060208083018184528085518083526040925060408601915060408160051b87010184880160005b8381101561203957888303603f19018552815180516001600160a01b031684528781015160a089860181905290611ff382870182611c6f565b915050878201518886015260608083015115158187015250608080830151925085820381870152506120258183611c6f565b968901969450505090860190600101611fba565b509098975050505050505050565b6000806040838503121561205a57600080fd5b8235915061206a60208401611d05565b90509250929050565b600181811c9082168061208757607f821691505b6020821081036120a757634e487b7160e01b600052602260045260246000fd5b50919050565b6020808252818101527f4f6e6c792073656c662063616e2063616c6c20746869732066756e6374696f6e604082015260600190565b634e487b7160e01b600052603260045260246000fd5b634e487b7160e01b600052601160045260246000fd5b81810381811115611444576114446120f8565b634e487b7160e01b600052603160045260246000fd5b6020808252825482820181905260008481528281209092916040850190845b81811015611d845783546001600160a01b031683526001938401939285019201612156565b60008161218a5761218a6120f8565b506000190190565b602080825260159082015274496e76616c6964206f776e6572206164647265737360581b604082015260600190565b601f8211156111b2576000816000526020600020601f850160051c810160208610156121ea5750805b601f850160051c820191505b81811015610d60578281556001016121f6565b815167ffffffffffffffff81111561222357612223611d90565b612237816122318454612073565b846121c1565b602080601f83116001811461226c57600084156122545750858301515b600019600386901b1c1916600185901b178555610d60565b600085815260208120601f198616915b8281101561229b5788860151825594840194600190910190840161227c565b50858210156122b95787850151600019600388901b60f8161c191681555b5050505050600190811b01905550565b6040815260006122dc6040830185611c6f565b82810360208401526122ee8185611c6f565b95945050505050565b600060018201612309576123096120f8565b5060010190565b60008261232d57634e487b7160e01b600052601260045260246000fd5b500490565b80820180821115611444576114446120f8565b600080835461235381612073565b6001828116801561236b5760018114612380576123af565b60ff19841687528215158302870194506123af565b8760005260208060002060005b858110156123a65781548a82015290840190820161238d565b50505082870194505b50929695505050505050565b8181036123c6575050565b6123d08254612073565b67ffffffffffffffff8111156123e8576123e8611d90565b6123f6816122318454612073565b6000601f82116001811461242a57600083156124125750848201545b600019600385901b1c1916600184901b17845561248f565b600085815260209020601f19841690600086815260209020845b838110156124645782860154825560019586019590910190602001612444565b50858310156124825781850154600019600388901b60f8161c191681555b50505060018360011b0184555b5050505050565b600081546124a381612073565b8085526020600183811680156124c057600181146124da57612508565b60ff1985168884015283151560051b880183019550612508565b866000528260002060005b858110156125005781548a82018601529083019084016124e5565b890184019650505b505050505092915050565b6040815260006125266040830185612496565b82810360208401526122ee818561249656fea26469706673582212204dd93e6a23c4a6521285bed1b22d2c38e749fc541119846da5e3aebc9a49fb8a64736f6c63430008180033",
  "linkReferences": {},
  "deployedLinkReferences": {}
}