{
  "_format": "hh-sol-artifact-1",
  "contractName": "BoardOfDirectors",
  "sourceName": "contracts/BoardOfDirectors.sol",
  "abi": [
    {
      "inputs": [],
      "name": "InvalidInitialization",
      "type": "error"
    },
    {
      "inputs": [],
      "name": "NotInitializing",
      "type": "error"
    },
    {
      "inputs": [],
      "name": "ReentrancyGuardReentrantCall",
      "type": "error"
    },
    {
      "anonymous": false,
      "inputs": [
        {
          "indexed": true,
          "internalType": "uint256",
          "name": "id",
          "type": "uint256"
        },
        {
          "indexed": true,
          "internalType": "address",
          "name": "target",
          "type": "address"
        },
        {
          "indexed": false,
          "internalType": "string",
          "name": "_description",
          "type": "string"
        },
        {
          "indexed": false,
          "internalType": "bytes",
          "name": "data",
          "type": "bytes"
        }
      ],
      "name": "ActionAdded",
      "type": "event"
    },
    {
      "anonymous": false,
      "inputs": [
        {
          "indexed": true,
          "internalType": "uint256",
          "name": "id",
          "type": "uint256"
        },
        {
          "indexed": true,
          "internalType": "address",
          "name": "target",
          "type": "address"
        },
        {
          "indexed": false,
          "internalType": "string",
          "name": "_description",
          "type": "string"
        },
        {
          "indexed": false,
          "internalType": "bytes",
          "name": "data",
          "type": "bytes"
        }
      ],
      "name": "ActionExecuted",
      "type": "event"
    },
    {
      "anonymous": false,
      "inputs": [
        {
          "indexed": true,
          "internalType": "uint256",
          "name": "id",
          "type": "uint256"
        },
        {
          "indexed": true,
          "internalType": "address",
          "name": "approver",
          "type": "address"
        }
      ],
      "name": "Approval",
      "type": "event"
    },
    {
      "anonymous": false,
      "inputs": [
        {
          "indexed": false,
          "internalType": "address[]",
          "name": "boardOfDirectors",
          "type": "address[]"
        }
      ],
      "name": "BoardOfDirectorsChanged",
      "type": "event"
    },
    {
      "anonymous": false,
      "inputs": [
        {
          "indexed": false,
          "internalType": "uint64",
          "name": "version",
          "type": "uint64"
        }
      ],
      "name": "Initialized",
      "type": "event"
    },
    {
      "anonymous": false,
      "inputs": [
        {
          "indexed": false,
          "internalType": "address[]",
          "name": "owners",
          "type": "address[]"
        }
      ],
      "name": "OwnersChanged",
      "type": "event"
    },
    {
      "inputs": [
        {
          "internalType": "uint256",
          "name": "",
          "type": "uint256"
        },
        {
          "internalType": "address",
          "name": "",
          "type": "address"
        }
      ],
      "name": "actionApprovals",
      "outputs": [
        {
          "internalType": "bool",
          "name": "",
          "type": "bool"
        }
      ],
      "stateMutability": "view",
      "type": "function"
    },
    {
      "inputs": [
        {
          "internalType": "uint256",
          "name": "",
          "type": "uint256"
        },
        {
          "internalType": "uint256",
          "name": "",
          "type": "uint256"
        }
      ],
      "name": "actionApprovers",
      "outputs": [
        {
          "internalType": "address",
          "name": "",
          "type": "address"
        }
      ],
      "stateMutability": "view",
      "type": "function"
    },
    {
      "inputs": [],
      "name": "actionCount",
      "outputs": [
        {
          "internalType": "uint256",
          "name": "",
          "type": "uint256"
        }
      ],
      "stateMutability": "view",
      "type": "function"
    },
    {
      "inputs": [
        {
          "internalType": "uint256",
          "name": "",
          "type": "uint256"
        }
      ],
      "name": "actions",
      "outputs": [
        {
          "internalType": "address",
          "name": "target",
          "type": "address"
        },
        {
          "internalType": "string",
          "name": "description",
          "type": "string"
        },
        {
          "internalType": "uint256",
          "name": "approvalCount",
          "type": "uint256"
        },
        {
          "internalType": "bool",
          "name": "isExecuted",
          "type": "bool"
        },
        {
          "internalType": "bytes",
          "name": "data",
          "type": "bytes"
        }
      ],
      "stateMutability": "view",
      "type": "function"
    },
    {
      "inputs": [
        {
          "internalType": "address",
          "name": "_target",
          "type": "address"
        },
        {
          "internalType": "string",
          "name": "_description",
          "type": "string"
        },
        {
          "internalType": "bytes",
          "name": "_data",
          "type": "bytes"
        }
      ],
      "name": "addAction",
      "outputs": [],
      "stateMutability": "nonpayable",
      "type": "function"
    },
    {
      "inputs": [
        {
          "internalType": "uint256",
          "name": "_actionId",
          "type": "uint256"
        }
      ],
      "name": "approvalCount",
      "outputs": [
        {
          "internalType": "uint256",
          "name": "",
          "type": "uint256"
        }
      ],
      "stateMutability": "view",
      "type": "function"
    },
    {
      "inputs": [
        {
          "internalType": "uint256",
          "name": "_actionId",
          "type": "uint256"
        }
      ],
      "name": "approve",
      "outputs": [],
      "stateMutability": "nonpayable",
      "type": "function"
    },
    {
      "inputs": [
        {
          "internalType": "uint256",
          "name": "",
          "type": "uint256"
        }
      ],
      "name": "boardOfDirectors",
      "outputs": [
        {
          "internalType": "address",
          "name": "",
          "type": "address"
        }
      ],
      "stateMutability": "view",
      "type": "function"
    },
    {
      "inputs": [
        {
          "internalType": "uint256",
          "name": "_actionId",
          "type": "uint256"
        }
      ],
      "name": "getActionApprovers",
      "outputs": [
        {
          "internalType": "address[]",
          "name": "",
          "type": "address[]"
        }
      ],
      "stateMutability": "view",
      "type": "function"
    },
    {
      "inputs": [
        {
          "internalType": "uint256",
          "name": "_startId",
          "type": "uint256"
        },
        {
          "internalType": "uint256",
          "name": "_limit",
          "type": "uint256"
        }
      ],
      "name": "getActions",
      "outputs": [
        {
          "components": [
            {
              "internalType": "address",
              "name": "target",
              "type": "address"
            },
            {
              "internalType": "string",
              "name": "description",
              "type": "string"
            },
            {
              "internalType": "uint256",
              "name": "approvalCount",
              "type": "uint256"
            },
            {
              "internalType": "bool",
              "name": "isExecuted",
              "type": "bool"
            },
            {
              "internalType": "bytes",
              "name": "data",
              "type": "bytes"
            }
          ],
          "internalType": "struct BoardOfDirectors.Action[]",
          "name": "",
          "type": "tuple[]"
        }
      ],
      "stateMutability": "view",
      "type": "function"
    },
    {
      "inputs": [],
      "name": "getBoardOfDirectors",
      "outputs": [
        {
          "internalType": "address[]",
          "name": "",
          "type": "address[]"
        }
      ],
      "stateMutability": "view",
      "type": "function"
    },
    {
      "inputs": [],
      "name": "getOwners",
      "outputs": [
        {
          "internalType": "address[]",
          "name": "",
          "type": "address[]"
        }
      ],
      "stateMutability": "view",
      "type": "function"
    },
    {
      "inputs": [
        {
          "internalType": "address[]",
          "name": "_owners",
          "type": "address[]"
        }
      ],
      "name": "initialize",
      "outputs": [],
      "stateMutability": "nonpayable",
      "type": "function"
    },
    {
      "inputs": [
        {
          "internalType": "uint256",
          "name": "_actionId",
          "type": "uint256"
        }
      ],
      "name": "isActionExecuted",
      "outputs": [
        {
          "internalType": "bool",
          "name": "",
          "type": "bool"
        }
      ],
      "stateMutability": "view",
      "type": "function"
    },
    {
      "inputs": [
        {
          "internalType": "uint256",
          "name": "",
          "type": "uint256"
        }
      ],
      "name": "owners",
      "outputs": [
        {
          "internalType": "address",
          "name": "",
          "type": "address"
        }
      ],
      "stateMutability": "view",
      "type": "function"
    },
    {
      "inputs": [
        {
          "internalType": "address[]",
          "name": "_boardOfDirectors",
          "type": "address[]"
        }
      ],
      "name": "setBoardOfDirectors",
      "outputs": [],
      "stateMutability": "nonpayable",
      "type": "function"
    },
    {
      "inputs": [
        {
          "internalType": "address[]",
          "name": "_owners",
          "type": "address[]"
        }
      ],
      "name": "setOwners",
      "outputs": [],
      "stateMutability": "nonpayable",
      "type": "function"
    }
  ],
  "bytecode": "0x608060405234801561001057600080fd5b50611a6d806100206000396000f3fe608060405234801561001057600080fd5b506004361061010b5760003560e01c8063a224cee7116100a2578063c71e8f7f11610071578063c71e8f7f14610260578063d42e548814610273578063f575207c14610286578063fa4d369814610299578063fb986820146102ac57600080fd5b8063a224cee7146101f0578063a8c24e2614610203578063b759f95414610216578063bd59a03d1461022957600080fd5b806371a5c572116100de57806371a5c5721461018f578063771164d4146101a457806383240f83146101c4578063a0e67e2b146101e857600080fd5b8063025e7c271461011057806329da5738146101405780632fb3d0af1461015757806340ad01ea1461016c575b600080fd5b61012361011e366004611327565b6102da565b6040516001600160a01b0390911681526020015b60405180910390f35b61014960025481565b604051908152602001610137565b61015f610304565b6040516101379190611340565b61014961017a366004611327565b60009081526003602052604090206002015490565b6101a261019d3660046113f0565b610366565b005b6101b76101b236600461149d565b610452565b6040516101379190611505565b6101d76101d2366004611327565b6106ef565b6040516101379594939291906115bb565b61015f610840565b6101a26101fe3660046113f0565b6108a0565b6101a2610211366004611657565b610a4d565b6101a2610224366004611327565b610ca2565b610250610237366004611327565b6000908152600360208190526040909120015460ff1690565b6040519015158152602001610137565b61012361026e366004611327565b610e76565b61015f610281366004611327565b610e86565b61012361029436600461149d565b610ef2565b6101a26102a73660046113f0565b610f2a565b6102506102ba3660046116f6565b600460209081526000928352604080842090915290825290205460ff1681565b600081815481106102ea57600080fd5b6000918252602090912001546001600160a01b0316905081565b6060600180548060200260200160405190810160405280929190818152602001828054801561035c57602002820191906000526020600020905b81546001600160a01b0316815260019091019060200180831161033e575b5050505050905090565b60008054905b818110156103fa576000818154811061038757610387611722565b6000918252602090912001546001600160a01b031633036103f25782516103b59060019060208601906112ad565b507f752141a0ca1784bc0346da5668d09fafe5e628e052f654f7050cdafeb61c195b836040516103e59190611340565b60405180910390a1505050565b60010161036c565b5060405162461bcd60e51b815260206004820152602160248201527f4f6e6c79206f776e65722063616e2063616c6c20746869732066756e6374696f6044820152603760f91b60648201526084015b60405180910390fd5b6060600254831061049e5760405162461bcd60e51b81526020600482015260166024820152755374617274206964206f7574206f6620626f756e647360501b6044820152606401610449565b60006104aa838561174e565b90506002548111156104bb57506002545b60006104c78583611761565b67ffffffffffffffff8111156104df576104df61138d565b60405190808252806020026020018201604052801561053a57816020015b6040805160a08101825260008082526060602083018190529282018190528282015260808101919091528152602001906001900390816104fd5790505b509050845b828110156106e457600081815260036020908152604091829020825160a0810190935280546001600160a01b03168352600181018054919284019161058390611774565b80601f01602080910402602001604051908101604052809291908181526020018280546105af90611774565b80156105fc5780601f106105d1576101008083540402835291602001916105fc565b820191906000526020600020905b8154815290600101906020018083116105df57829003601f168201915b505050918352505060028201546020820152600382015460ff161515604082015260048201805460609092019161063290611774565b80601f016020809104026020016040519081016040528092919081815260200182805461065e90611774565b80156106ab5780601f10610680576101008083540402835291602001916106ab565b820191906000526020600020905b81548152906001019060200180831161068e57829003601f168201915b5050505050815250508287836106c19190611761565b815181106106d1576106d1611722565b602090810291909101015260010161053f565b509150505b92915050565b600360205260009081526040902080546001820180546001600160a01b03909216929161071b90611774565b80601f016020809104026020016040519081016040528092919081815260200182805461074790611774565b80156107945780601f1061076957610100808354040283529160200191610794565b820191906000526020600020905b81548152906001019060200180831161077757829003601f168201915b50505050600283015460038401546004850180549495929460ff9092169350906107bd90611774565b80601f01602080910402602001604051908101604052809291908181526020018280546107e990611774565b80156108365780601f1061080b57610100808354040283529160200191610836565b820191906000526020600020905b81548152906001019060200180831161081957829003601f168201915b5050505050905085565b6060600080548060200260200160405190810160405280929190818152602001828054801561035c576020028201919060005260206000209081546001600160a01b0316815260019091019060200180831161033e575050505050905090565b7ff0c57e16840df040f15088dc2f81fe391c3923bec73e23a9662efc9c229c6a008054600160401b810460ff16159067ffffffffffffffff166000811580156108e65750825b905060008267ffffffffffffffff1660011480156109035750303b155b905081158015610911575080155b1561092f5760405163f92ee8a960e01b815260040160405180910390fd5b845467ffffffffffffffff19166001178555831561095957845460ff60401b1916600160401b1785555b855160005b818110156109e15760006001600160a01b031688828151811061098357610983611722565b60200260200101516001600160a01b0316036109d95760405162461bcd60e51b8152602060048201526015602482015274496e76616c6964206f776e6572206164647265737360581b6044820152606401610449565b60010161095e565b506109ea611094565b86516109fd9060009060208a01906112ad565b50508315610a4557845460ff60401b19168555604051600181527fc7f505b2f371ae2175ee4913f4499e1f2633a7b5936321eed1cdaeb6115181d29060200160405180910390a15b505050505050565b60015460005b81811015610c425760018181548110610a6e57610a6e611722565b6000918252602090912001546001600160a01b03163303610c3a576001600160a01b038516610ad85760405162461bcd60e51b8152602060048201526016602482015275496e76616c696420746172676574206164647265737360501b6044820152606401610449565b6040805160a0810182526001600160a01b03878116825260208083018881526001848601819052600060608601819052608086018a90526002548152600390935294909120835181546001600160a01b0319169316929092178255519192909190820190610b4690826117f6565b5060408201516002820155606082015160038201805460ff191691151591909117905560808201516004820190610b7d90826117f6565b50506002805460009081526005602090815260408083208054600181810183559185528385200180546001600160a01b03191633908117909155855485526004845282852090855290925291829020805460ff19169091179055905490516001600160a01b03881692507fc484df370bd25a7feae253ddd56417813deedc701dceace2d06ffed0a991ea0e90610c1690889088906118b6565b60405180910390a360028054906000610c2e836118e4565b91905055505050505050565b600101610a53565b5060405162461bcd60e51b815260206004820152602e60248201527f4f6e6c7920626f617264206f66206469726563746f72732063616e2063616c6c60448201526d103a3434b990333ab731ba34b7b760911b6064820152608401610449565b60015460005b81811015610c425760018181548110610cc357610cc3611722565b6000918252602090912001546001600160a01b03163303610e6e576000838152600360208190526040909120015460ff1615610d415760405162461bcd60e51b815260206004820152601760248201527f416374696f6e20616c72656164792065786563757465640000000000000000006044820152606401610449565b600083815260046020908152604080832033845290915290205460ff1615610d9e5760405162461bcd60e51b815260206004820152601060248201526f105b1c9958591e48185c1c1c9bdd995960821b6044820152606401610449565b600083815260046020908152604080832033808552908352818420805460ff19166001908117909155878552600584528285208054918201815585528385200180546001600160a01b031916909117905585835260039091528120600201805491610e08836118e4565b9091555050604051339084907f5c5eba18d22f000d8abde369b6bed499233b5f42bad94d08eff5b60de7e663c090600090a3600154610e49906002906118fd565b60008481526003602052604090206002015410610e6957610e69836110a6565b505050565b600101610ca8565b600181815481106102ea57600080fd5b600081815260056020908152604091829020805483518184028101840190945280845260609392830182828015610ee657602002820191906000526020600020905b81546001600160a01b03168152600190910190602001808311610ec8575b50505050509050919050565b60056020528160005260406000208181548110610f0e57600080fd5b6000918252602090912001546001600160a01b03169150829050565b333014610f795760405162461bcd60e51b815260206004820181905260248201527f4f6e6c792073656c662063616e2063616c6c20746869732066756e6374696f6e6044820152606401610449565b6000815111610fbc5760405162461bcd60e51b815260206004820152600f60248201526e13dddb995c9cc81c995c5d5a5c9959608a1b6044820152606401610449565b805160005b818110156110445760006001600160a01b0316838281518110610fe657610fe6611722565b60200260200101516001600160a01b03160361103c5760405162461bcd60e51b8152602060048201526015602482015274496e76616c6964206f776e6572206164647265737360581b6044820152606401610449565b600101610fc1565b5081516110589060009060208501906112ad565b507f4d4e0931c18b0958388c890c5fb22106f83eb31c07fba54997f3495ad2ec6c26826040516110889190611340565b60405180910390a15050565b61109c6111ec565b6110a4611235565b565b6110ae611263565b600081815260036020526040808220805491519092916001600160a01b0316906110dc90600485019061191f565b6000604051808303816000865af19150503d8060008114611119576040519150601f19603f3d011682016040523d82523d6000602084013e61111e565b606091505b505090508061115d5760405162461bcd60e51b815260206004820152600b60248201526a10d85b1b0819985a5b195960aa1b6044820152606401610449565b60038201805460ff1916600190811790915582546040516001600160a01b039091169185917f7d209626d0bd190ffb6bee0fcebeb18f3e3ed37daf67d3d45a966b0a9496fbe8916111b691908701906004880190611a12565b60405180910390a350506111e960017f9b779b17422d0df92223018b32b4d1fa46e071723d6817e2486d003becc55f0055565b50565b7ff0c57e16840df040f15088dc2f81fe391c3923bec73e23a9662efc9c229c6a0054600160401b900460ff166110a457604051631afcd79f60e31b815260040160405180910390fd5b61123d6111ec565b60017f9b779b17422d0df92223018b32b4d1fa46e071723d6817e2486d003becc55f0055565b7f9b779b17422d0df92223018b32b4d1fa46e071723d6817e2486d003becc55f008054600119016112a757604051633ee5aeb560e01b815260040160405180910390fd5b60029055565b828054828255906000526020600020908101928215611302579160200282015b8281111561130257825182546001600160a01b0319166001600160a01b039091161782556020909201916001909101906112cd565b5061130e929150611312565b5090565b5b8082111561130e5760008155600101611313565b60006020828403121561133957600080fd5b5035919050565b6020808252825182820181905260009190848201906040850190845b818110156113815783516001600160a01b03168352928401929184019160010161135c565b50909695505050505050565b634e487b7160e01b600052604160045260246000fd5b604051601f8201601f1916810167ffffffffffffffff811182821017156113cc576113cc61138d565b604052919050565b80356001600160a01b03811681146113eb57600080fd5b919050565b6000602080838503121561140357600080fd5b823567ffffffffffffffff8082111561141b57600080fd5b818501915085601f83011261142f57600080fd5b8135818111156114415761144161138d565b8060051b91506114528483016113a3565b818152918301840191848101908884111561146c57600080fd5b938501935b8385101561149157611482856113d4565b82529385019390850190611471565b98975050505050505050565b600080604083850312156114b057600080fd5b50508035926020909101359150565b6000815180845260005b818110156114e5576020818501810151868301820152016114c9565b506000602082860101526020601f19601f83011685010191505092915050565b600060208083018184528085518083526040925060408601915060408160051b87010184880160005b838110156115ad57888303603f19018552815180516001600160a01b031684528781015160a089860181905290611567828701826114bf565b9150508782015188860152606080830151151581870152506080808301519250858203818701525061159981836114bf565b96890196945050509086019060010161152e565b509098975050505050505050565b6001600160a01b038616815260a0602082018190526000906115df908301876114bf565b8560408401528415156060840152828103608084015261149181856114bf565b600067ffffffffffffffff8311156116195761161961138d565b61162c601f8401601f19166020016113a3565b905082815283838301111561164057600080fd5b828260208301376000602084830101529392505050565b60008060006060848603121561166c57600080fd5b611675846113d4565b9250602084013567ffffffffffffffff8082111561169257600080fd5b818601915086601f8301126116a657600080fd5b6116b5878335602085016115ff565b935060408601359150808211156116cb57600080fd5b508401601f810186136116dd57600080fd5b6116ec868235602084016115ff565b9150509250925092565b6000806040838503121561170957600080fd5b82359150611719602084016113d4565b90509250929050565b634e487b7160e01b600052603260045260246000fd5b634e487b7160e01b600052601160045260246000fd5b808201808211156106e9576106e9611738565b818103818111156106e9576106e9611738565b600181811c9082168061178857607f821691505b6020821081036117a857634e487b7160e01b600052602260045260246000fd5b50919050565b601f821115610e69576000816000526020600020601f850160051c810160208610156117d75750805b601f850160051c820191505b81811015610a45578281556001016117e3565b815167ffffffffffffffff8111156118105761181061138d565b6118248161181e8454611774565b846117ae565b602080601f83116001811461185957600084156118415750858301515b600019600386901b1c1916600185901b178555610a45565b600085815260208120601f198616915b8281101561188857888601518255948401946001909101908401611869565b50858210156118a65787850151600019600388901b60f8161c191681555b5050505050600190811b01905550565b6040815260006118c960408301856114bf565b82810360208401526118db81856114bf565b95945050505050565b6000600182016118f6576118f6611738565b5060010190565b60008261191a57634e487b7160e01b600052601260045260246000fd5b500490565b600080835461192d81611774565b60018281168015611945576001811461195a57611989565b60ff1984168752821515830287019450611989565b8760005260208060002060005b858110156119805781548a820152908401908201611967565b50505082870194505b50929695505050505050565b600081546119a281611774565b8085526020600183811680156119bf57600181146119d957611a07565b60ff1985168884015283151560051b880183019550611a07565b866000528260002060005b858110156119ff5781548a82018601529083019084016119e4565b890184019650505b505050505092915050565b604081526000611a256040830185611995565b82810360208401526118db818561199556fea264697066735822122085a50c05b2cad7a72134315430de3dae9688f88103a7328e4caf324a7c53d68e64736f6c63430008180033",
  "linkReferences": {},
  "deployedLinkReferences": {}
}