{
  "_format": "hh-sol-artifact-1",
  "contractName": "CashRemunerationEIP712",
  "sourceName": "contracts/CashRemunerationEIP712.sol",
  "abi": [
    {
      "inputs": [
        {
          "internalType": "address",
          "name": "account",
          "type": "address"
        }
      ],
      "name": "AddressInsufficientBalance",
      "type": "error"
    },
    {
      "inputs": [],
      "name": "ECDSAInvalidSignature",
      "type": "error"
    },
    {
      "inputs": [
        {
          "internalType": "uint256",
          "name": "length",
          "type": "uint256"
        }
      ],
      "name": "ECDSAInvalidSignatureLength",
      "type": "error"
    },
    {
      "inputs": [
        {
          "internalType": "bytes32",
          "name": "s",
          "type": "bytes32"
        }
      ],
      "name": "ECDSAInvalidSignatureS",
      "type": "error"
    },
    {
      "inputs": [],
      "name": "EnforcedPause",
      "type": "error"
    },
    {
      "inputs": [],
      "name": "ExpectedPause",
      "type": "error"
    },
    {
      "inputs": [],
      "name": "FailedInnerCall",
      "type": "error"
    },
    {
      "inputs": [],
      "name": "InvalidInitialization",
      "type": "error"
    },
    {
      "inputs": [],
      "name": "NotInitializing",
      "type": "error"
    },
    {
      "inputs": [
        {
          "internalType": "address",
          "name": "owner",
          "type": "address"
        }
      ],
      "name": "OwnableInvalidOwner",
      "type": "error"
    },
    {
      "inputs": [
        {
          "internalType": "address",
          "name": "account",
          "type": "address"
        }
      ],
      "name": "OwnableUnauthorizedAccount",
      "type": "error"
    },
    {
      "inputs": [],
      "name": "ReentrancyGuardReentrantCall",
      "type": "error"
    },
    {
      "inputs": [
        {
          "internalType": "address",
          "name": "expected",
          "type": "address"
        },
        {
          "internalType": "address",
          "name": "received",
          "type": "address"
        }
      ],
      "name": "UnauthorizedAccess",
      "type": "error"
    },
    {
      "anonymous": false,
      "inputs": [
        {
          "indexed": true,
          "internalType": "address",
          "name": "depositor",
          "type": "address"
        },
        {
          "indexed": false,
          "internalType": "uint256",
          "name": "amount",
          "type": "uint256"
        }
      ],
      "name": "Deposited",
      "type": "event"
    },
    {
      "anonymous": false,
      "inputs": [],
      "name": "EIP712DomainChanged",
      "type": "event"
    },
    {
      "anonymous": false,
      "inputs": [
        {
          "indexed": false,
          "internalType": "uint64",
          "name": "version",
          "type": "uint64"
        }
      ],
      "name": "Initialized",
      "type": "event"
    },
    {
      "anonymous": false,
      "inputs": [
        {
          "indexed": true,
          "internalType": "address",
          "name": "previousOwner",
          "type": "address"
        },
        {
          "indexed": true,
          "internalType": "address",
          "name": "newOwner",
          "type": "address"
        }
      ],
      "name": "OwnershipTransferred",
      "type": "event"
    },
    {
      "anonymous": false,
      "inputs": [
        {
          "indexed": false,
          "internalType": "address",
          "name": "account",
          "type": "address"
        }
      ],
      "name": "Paused",
      "type": "event"
    },
    {
      "anonymous": false,
      "inputs": [
        {
          "indexed": true,
          "internalType": "address",
          "name": "tokenAddress",
          "type": "address"
        }
      ],
      "name": "TokenSupportAdded",
      "type": "event"
    },
    {
      "anonymous": false,
      "inputs": [
        {
          "indexed": true,
          "internalType": "address",
          "name": "tokenAddress",
          "type": "address"
        }
      ],
      "name": "TokenSupportRemoved",
      "type": "event"
    },
    {
      "anonymous": false,
      "inputs": [
        {
          "indexed": false,
          "internalType": "address",
          "name": "account",
          "type": "address"
        }
      ],
      "name": "Unpaused",
      "type": "event"
    },
    {
      "anonymous": false,
      "inputs": [
        {
          "indexed": true,
          "internalType": "address",
          "name": "withdrawer",
          "type": "address"
        },
        {
          "indexed": false,
          "internalType": "uint256",
          "name": "amount",
          "type": "uint256"
        }
      ],
      "name": "Withdraw",
      "type": "event"
    },
    {
      "anonymous": false,
      "inputs": [
        {
          "indexed": true,
          "internalType": "address",
          "name": "withdrawer",
          "type": "address"
        },
        {
          "indexed": true,
          "internalType": "address",
          "name": "tokenAddress",
          "type": "address"
        },
        {
          "indexed": false,
          "internalType": "uint256",
          "name": "amount",
          "type": "uint256"
        }
      ],
      "name": "WithdrawToken",
      "type": "event"
    },
    {
      "inputs": [
        {
          "internalType": "address",
          "name": "tokenAddress",
          "type": "address"
        }
      ],
      "name": "addTokenSupport",
      "outputs": [],
      "stateMutability": "nonpayable",
      "type": "function"
    },
    {
      "inputs": [],
      "name": "eip712Domain",
      "outputs": [
        {
          "internalType": "bytes1",
          "name": "fields",
          "type": "bytes1"
        },
        {
          "internalType": "string",
          "name": "name",
          "type": "string"
        },
        {
          "internalType": "string",
          "name": "version",
          "type": "string"
        },
        {
          "internalType": "uint256",
          "name": "chainId",
          "type": "uint256"
        },
        {
          "internalType": "address",
          "name": "verifyingContract",
          "type": "address"
        },
        {
          "internalType": "bytes32",
          "name": "salt",
          "type": "bytes32"
        },
        {
          "internalType": "uint256[]",
          "name": "extensions",
          "type": "uint256[]"
        }
      ],
      "stateMutability": "view",
      "type": "function"
    },
    {
      "inputs": [],
      "name": "getBalance",
      "outputs": [
        {
          "internalType": "uint256",
          "name": "",
          "type": "uint256"
        }
      ],
      "stateMutability": "view",
      "type": "function"
    },
    {
      "inputs": [
        {
          "internalType": "address",
          "name": "owner",
          "type": "address"
        },
        {
          "internalType": "address",
          "name": "_usdcAddress",
          "type": "address"
        }
      ],
      "name": "initialize",
      "outputs": [],
      "stateMutability": "nonpayable",
      "type": "function"
    },
    {
      "inputs": [],
      "name": "owner",
      "outputs": [
        {
          "internalType": "address",
          "name": "",
          "type": "address"
        }
      ],
      "stateMutability": "view",
      "type": "function"
    },
    {
      "inputs": [
        {
          "internalType": "bytes32",
          "name": "",
          "type": "bytes32"
        }
      ],
      "name": "paidWageClaims",
      "outputs": [
        {
          "internalType": "bool",
          "name": "",
          "type": "bool"
        }
      ],
      "stateMutability": "view",
      "type": "function"
    },
    {
      "inputs": [],
      "name": "pause",
      "outputs": [],
      "stateMutability": "nonpayable",
      "type": "function"
    },
    {
      "inputs": [],
      "name": "paused",
      "outputs": [
        {
          "internalType": "bool",
          "name": "",
          "type": "bool"
        }
      ],
      "stateMutability": "view",
      "type": "function"
    },
    {
      "inputs": [
        {
          "internalType": "address",
          "name": "tokenAddress",
          "type": "address"
        }
      ],
      "name": "removeTokenSupport",
      "outputs": [],
      "stateMutability": "nonpayable",
      "type": "function"
    },
    {
      "inputs": [],
      "name": "renounceOwnership",
      "outputs": [],
      "stateMutability": "nonpayable",
      "type": "function"
    },
    {
      "inputs": [
        {
          "internalType": "address",
          "name": "",
          "type": "address"
        }
      ],
      "name": "supportedTokens",
      "outputs": [
        {
          "internalType": "bool",
          "name": "",
          "type": "bool"
        }
      ],
      "stateMutability": "view",
      "type": "function"
    },
    {
      "inputs": [
        {
          "internalType": "address",
          "name": "newOwner",
          "type": "address"
        }
      ],
      "name": "transferOwnership",
      "outputs": [],
      "stateMutability": "nonpayable",
      "type": "function"
    },
    {
      "inputs": [],
      "name": "unpause",
      "outputs": [],
      "stateMutability": "nonpayable",
      "type": "function"
    },
    {
      "inputs": [
        {
          "components": [
            {
              "internalType": "address",
              "name": "employeeAddress",
              "type": "address"
            },
            {
              "internalType": "uint8",
              "name": "hoursWorked",
              "type": "uint8"
            },
            {
              "components": [
                {
                  "internalType": "uint256",
                  "name": "hourlyRate",
                  "type": "uint256"
                },
                {
                  "internalType": "address",
                  "name": "tokenAddress",
                  "type": "address"
                }
              ],
              "internalType": "struct CashRemunerationEIP712.Wage[]",
              "name": "wages",
              "type": "tuple[]"
            },
            {
              "internalType": "uint256",
              "name": "date",
              "type": "uint256"
            }
          ],
          "internalType": "struct CashRemunerationEIP712.WageClaim",
          "name": "wageClaim",
          "type": "tuple"
        },
        {
          "internalType": "bytes",
          "name": "signature",
          "type": "bytes"
        }
      ],
      "name": "withdraw",
      "outputs": [],
      "stateMutability": "nonpayable",
      "type": "function"
    },
    {
      "stateMutability": "payable",
      "type": "receive"
    }
  ],
  "bytecode": "0x608060405234801561001057600080fd5b50611fdc806100206000396000f3fe6080604052600436106100e15760003560e01c8063733c237d1161007f5780638da5cb5b116100595780638da5cb5b1461026c578063d6ba1d3a14610299578063e836ac13146102c9578063f2fde38b146102e957600080fd5b8063733c237d1461020f5780638456cb591461022f57806384b0196e1461024457600080fd5b8063485cc955116100bb578063485cc955146101795780635c975abb1461019957806368c4ac26146101ca578063715018a6146101fa57600080fd5b806312065fe0146101225780632ba8d939146101425780633f4ba83a1461016457600080fd5b3661011d5760405134815233907f2da466a7b24304f47e87fa2e1e5a81b9831ce54fec19055ce277ca2f39ba42c49060200160405180910390a2005b600080fd5b34801561012e57600080fd5b506040514781526020015b60405180910390f35b34801561014e57600080fd5b5061016261015d3660046119dd565b610309565b005b34801561017057600080fd5b50610162610413565b34801561018557600080fd5b506101626101943660046119ff565b610425565b3480156101a557600080fd5b50600080516020611f878339815191525460ff165b6040519015158152602001610139565b3480156101d657600080fd5b506101ba6101e53660046119dd565b60006020819052908152604090205460ff1681565b34801561020657600080fd5b50610162610660565b34801561021b57600080fd5b5061016261022a3660046119dd565b610672565b34801561023b57600080fd5b50610162610785565b34801561025057600080fd5b50610259610795565b6040516101399796959493929190611a82565b34801561027857600080fd5b50610281610841565b6040516001600160a01b039091168152602001610139565b3480156102a557600080fd5b506101ba6102b4366004611b1b565b60016020526000908152604090205460ff1681565b3480156102d557600080fd5b506101626102e4366004611b34565b61086f565b3480156102f557600080fd5b506101626103043660046119dd565b610f40565b610311610f7e565b6001600160a01b03811661036c5760405162461bcd60e51b815260206004820152601c60248201527f546f6b656e20616464726573732063616e6e6f74206265207a65726f0000000060448201526064015b60405180910390fd5b6001600160a01b03811660009081526020819052604090205460ff166103ca5760405162461bcd60e51b8152602060048201526013602482015272151bdad95b881b9bdd081cdd5c1c1bdc9d1959606a1b6044820152606401610363565b6001600160a01b038116600081815260208190526040808220805460ff19169055517f1cef54ca6e1745ad87fa3077491d9fc42257e9f1a2d7cad58a4e52bd14dfc6269190a250565b61041b610f7e565b610423610fb0565b565b7ff0c57e16840df040f15088dc2f81fe391c3923bec73e23a9662efc9c229c6a008054600160401b810460ff16159067ffffffffffffffff1660008115801561046b5750825b905060008267ffffffffffffffff1660011480156104885750303b155b905081158015610496575080155b156104b45760405163f92ee8a960e01b815260040160405180910390fd5b845467ffffffffffffffff1916600117855583156104de57845460ff60401b1916600160401b1785555b6001600160a01b0387166105345760405162461bcd60e51b815260206004820152601c60248201527f4f776e657220616464726573732063616e6e6f74206265207a65726f000000006044820152606401610363565b6001600160a01b03861661058a5760405162461bcd60e51b815260206004820152601b60248201527f5553444320616464726573732063616e6e6f74206265207a65726f00000000006044820152606401610363565b61059387611010565b61059b611021565b6105a3611031565b6105ee6040518060400160405280601081526020016f21b0b9b42932b6bab732b930ba34b7b760811b815250604051806040016040528060018152602001603160f81b815250611041565b6001600160a01b0386166000908152602081905260409020805460ff19166001179055831561065757845460ff60401b19168555604051600181527fc7f505b2f371ae2175ee4913f4499e1f2633a7b5936321eed1cdaeb6115181d29060200160405180910390a15b50505050505050565b610668610f7e565b6104236000611057565b61067a610f7e565b6001600160a01b0381166106d05760405162461bcd60e51b815260206004820152601c60248201527f546f6b656e20616464726573732063616e6e6f74206265207a65726f000000006044820152606401610363565b6001600160a01b03811660009081526020819052604090205460ff16156107395760405162461bcd60e51b815260206004820152601760248201527f546f6b656e20616c726561647920737570706f727465640000000000000000006044820152606401610363565b6001600160a01b038116600081815260208190526040808220805460ff19166001179055517f8f50fda9bf5d3b403c53b7e91646abd507f8cebf2577655d55d7de3926168b179190a250565b61078d610f7e565b6104236110c8565b60006060808280808381600080516020611f3a83398151915280549091501580156107c257506001810154155b6108065760405162461bcd60e51b81526020600482015260156024820152741152540dcc4c8e88155b9a5b9a5d1a585b1a5e9959605a1b6044820152606401610363565b61080e611111565b6108166111d4565b60408051600080825260208201909252600f60f81b9c939b5091995046985030975095509350915050565b7f9016d09d72d40fdae2fd8ceac6b6234c7706214fd39c1cd1e609a0528c199300546001600160a01b031690565b610877611213565b61087f611244565b61088c60208401846119dd565b6001600160a01b0316336001600160a01b0316146108ec5760405162461bcd60e51b815260206004820152601760248201527f57697468647261776572206e6f7420617070726f7665640000000000000000006044820152606401610363565b60006108f661128e565b6108ff8561129d565b60405161190160f01b602082015260228101929092526042820152606201604051602081830303815290604052805190602001209050600061097984848080601f016020809104026020016040519081016040528093929190818152602001838380828437600092019190915250869392505061138c9050565b9050610983610841565b6001600160a01b0316816001600160a01b0316146109d0576109a3610841565b604051634116c50f60e01b81526001600160a01b0391821660048201529082166024820152604401610363565b600084846040516109e2929190611be9565b604080519182900390912060008181526001602052919091205490915060ff1615610a435760405162461bcd60e51b815260206004820152601160248201527015d859d948185b1c9958591e481c185a59607a1b6044820152606401610363565b60008181526001602081905260408220805460ff191690911790555b610a6c6040880188611bf9565b90508160ff161015610f0e576000610a876040890189611bf9565b8360ff16818110610a9a57610a9a611c4a565b9050604002016020016020810190610ab291906119dd565b6001600160a01b031603610b83576000610acf6040890189611bf9565b8360ff16818110610ae257610ae2611c4a565b90506040020160000135886020016020810190610aff9190611c60565b60ff16610b0c9190611c99565b9050610b2e81610b1f60208b018b6119dd565b6001600160a01b0316906113b8565b610b3b60208901896119dd565b6001600160a01b03167f884edad9ce6fa2440d8a54cc123490eb96d2768479d49ff9c7366125a942436482604051610b7591815260200190565b60405180910390a250610efc565b600080610b9360408a018a611bf9565b8460ff16818110610ba657610ba6611c4a565b9050604002016020016020810190610bbe91906119dd565b6001600160a01b0316815260208101919091526040016000205460ff16610c1d5760405162461bcd60e51b8152602060048201526013602482015272151bdad95b881b9bdd081cdd5c1c1bdc9d1959606a1b6044820152606401610363565b610c2a6040880188611bf9565b8260ff16818110610c3d57610c3d611c4a565b90506040020160000135876020016020810190610c5a9190611c60565b60ff16610c679190611c99565b610c746040890189611bf9565b8360ff16818110610c8757610c87611c4a565b9050604002016020016020810190610c9f91906119dd565b6040516370a0823160e01b81523060048201526001600160a01b0391909116906370a0823190602401602060405180830381865afa158015610ce5573d6000803e3d6000fd5b505050506040513d601f19601f82011682018060405250810190610d099190611cb0565b1015610d575760405162461bcd60e51b815260206004820152601a60248201527f496e73756666696369656e7420746f6b656e2062616c616e63650000000000006044820152606401610363565b6000610d666040890189611bf9565b8360ff16818110610d7957610d79611c4a565b90506040020160000135886020016020810190610d969190611c60565b60ff16610da39190611c99565b9050610db26040890189611bf9565b8360ff16818110610dc557610dc5611c4a565b9050604002016020016020810190610ddd91906119dd565b6001600160a01b031663a9059cbb610df860208b018b6119dd565b6040516001600160e01b031960e084901b1681526001600160a01b039091166004820152602481018490526044016020604051808303816000875af1158015610e45573d6000803e3d6000fd5b505050506040513d601f19601f82011682018060405250810190610e699190611cc9565b50610e776040890189611bf9565b8360ff16818110610e8a57610e8a611c4a565b9050604002016020016020810190610ea291906119dd565b6001600160a01b0316610eb860208a018a6119dd565b6001600160a01b03167f037238854fe57fbf51f09946f854fc3916fe83938d6521f09bd05463839f130483604051610ef291815260200190565b60405180910390a3505b80610f0681611ceb565b915050610a5f565b50505050610f3b60017f9b779b17422d0df92223018b32b4d1fa46e071723d6817e2486d003becc55f0055565b505050565b610f48610f7e565b6001600160a01b038116610f7257604051631e4fbdf760e01b815260006004820152602401610363565b610f7b81611057565b50565b33610f87610841565b6001600160a01b0316146104235760405163118cdaa760e01b8152336004820152602401610363565b610fb8611475565b600080516020611f87833981519152805460ff191681557f5db9ee0a495bf2e6ff9c91a7834c1ba4fdd244a5e8aa4e537bd38aeae4b073aa335b6040516001600160a01b03909116815260200160405180910390a150565b6110186114a5565b610f7b816114ee565b6110296114a5565b6104236114f6565b6110396114a5565b6104236114fe565b6110496114a5565b611053828261151f565b5050565b7f9016d09d72d40fdae2fd8ceac6b6234c7706214fd39c1cd1e609a0528c19930080546001600160a01b031981166001600160a01b03848116918217845560405192169182907f8be0079c531659141344cd1fd0a4f28419497f9722a3daafe3b4186f6b6457e090600090a3505050565b6110d0611213565b600080516020611f87833981519152805460ff191660011781557f62e78cea01bee320cd4e420270b5ea74000d11b0c9f74754ebdbfc544b05a25833610ff2565b7fa16a46d94261c7517cc8ff89f61c0ce93598e3c849801011dee649a6a557d1028054606091600080516020611f3a8339815191529161115090611d0a565b80601f016020809104026020016040519081016040528092919081815260200182805461117c90611d0a565b80156111c95780601f1061119e576101008083540402835291602001916111c9565b820191906000526020600020905b8154815290600101906020018083116111ac57829003601f168201915b505050505091505090565b7fa16a46d94261c7517cc8ff89f61c0ce93598e3c849801011dee649a6a557d1038054606091600080516020611f3a8339815191529161115090611d0a565b600080516020611f878339815191525460ff16156104235760405163d93c066560e01b815260040160405180910390fd5b7f9b779b17422d0df92223018b32b4d1fa46e071723d6817e2486d003becc55f0080546001190161128857604051633ee5aeb560e01b815260040160405180910390fd5b60029055565b6000611298611580565b905090565b60006040518060800160405280604e8152602001611eec604e91396040518060600160405280602d8152602001611f5a602d91396040516020016112e2929190611d44565b60408051601f19818403018152919052805160209182012090611307908401846119dd565b6113176040850160208601611c60565b61132c6113276040870187611bf9565b6115f4565b856060013560405160200161136f9594939291909485526001600160a01b0393909316602085015260ff9190911660408401526060830152608082015260a00190565b604051602081830303815290604052805190602001209050919050565b60008060008061139c86866116bd565b9250925092506113ac828261170a565b50909150505b92915050565b804710156113db5760405163cd78605960e01b8152306004820152602401610363565b6000826001600160a01b03168260405160006040518083038185875af1925050503d8060008114611428576040519150601f19603f3d011682016040523d82523d6000602084013e61142d565b606091505b5050905080610f3b57604051630a12f52160e11b815260040160405180910390fd5b60017f9b779b17422d0df92223018b32b4d1fa46e071723d6817e2486d003becc55f0055565b600080516020611f878339815191525460ff1661042357604051638dfc202b60e01b815260040160405180910390fd5b7ff0c57e16840df040f15088dc2f81fe391c3923bec73e23a9662efc9c229c6a0054600160401b900460ff1661042357604051631afcd79f60e31b815260040160405180910390fd5b610f486114a5565b61144f6114a5565b6115066114a5565b600080516020611f87833981519152805460ff19169055565b6115276114a5565b600080516020611f3a8339815191527fa16a46d94261c7517cc8ff89f61c0ce93598e3c849801011dee649a6a557d1026115618482611dc3565b50600381016115708382611dc3565b5060008082556001909101555050565b60007f8b73c3c69bb8fe3d512ecc4cf759cc79239f7b179b0ffacaa9a75d522b39400f6115ab6117c3565b6115b361182d565b60408051602081019490945283019190915260608201524660808201523060a082015260c00160405160208183030381529060405280519060200120905090565b6000808267ffffffffffffffff81111561161057611610611bd3565b604051908082528060200260200182016040528015611639578160200160208202803683370190505b50905060005b8381101561168c5761166785858381811061165c5761165c611c4a565b905060400201611871565b82828151811061167957611679611c4a565b602090810291909101015260010161163f565b508060405160200161169e9190611e83565b6040516020818303038152906040528051906020012091505092915050565b600080600083516041036116f75760208401516040850151606086015160001a6116e9888285856118f2565b955095509550505050611703565b50508151600091506002905b9250925092565b600082600381111561171e5761171e611eb9565b03611727575050565b600182600381111561173b5761173b611eb9565b036117595760405163f645eedf60e01b815260040160405180910390fd5b600282600381111561176d5761176d611eb9565b0361178e5760405163fce698f760e01b815260048101829052602401610363565b60038260038111156117a2576117a2611eb9565b03611053576040516335e2f38360e21b815260048101829052602401610363565b6000600080516020611f3a833981519152816117dd611111565b8051909150156117f557805160209091012092915050565b81548015611804579392505050565b7fc5d2460186f7233c927e7db2dcc703c0e500b653ca82273b7bfad8045d85a470935050505090565b6000600080516020611f3a833981519152816118476111d4565b80519091501561185f57805160209091012092915050565b60018201548015611804579392505050565b60006040518060600160405280602d8152602001611f5a602d913960405160200161189c9190611ecf565b6040516020818303038152906040528051906020012082600001358360200160208101906118ca91906119dd565b6040805160208101949094528301919091526001600160a01b0316606082015260800161136f565b600080807f7fffffffffffffffffffffffffffffff5d576e7357a4501ddfe92f46681b20a084111561192d57506000915060039050826119b7565b604080516000808252602082018084528a905260ff891692820192909252606081018790526080810186905260019060a0016020604051602081039080840390855afa158015611981573d6000803e3d6000fd5b5050604051601f1901519150506001600160a01b0381166119ad575060009250600191508290506119b7565b9250600091508190505b9450945094915050565b80356001600160a01b03811681146119d857600080fd5b919050565b6000602082840312156119ef57600080fd5b6119f8826119c1565b9392505050565b60008060408385031215611a1257600080fd5b611a1b836119c1565b9150611a29602084016119c1565b90509250929050565b60005b83811015611a4d578181015183820152602001611a35565b50506000910152565b60008151808452611a6e816020860160208601611a32565b601f01601f19169290920160200192915050565b60ff60f81b881681526000602060e06020840152611aa360e084018a611a56565b8381036040850152611ab5818a611a56565b606085018990526001600160a01b038816608086015260a0850187905284810360c08601528551808252602080880193509091019060005b81811015611b0957835183529284019291840191600101611aed565b50909c9b505050505050505050505050565b600060208284031215611b2d57600080fd5b5035919050565b600080600060408486031215611b4957600080fd5b833567ffffffffffffffff80821115611b6157600080fd5b9085019060808288031215611b7557600080fd5b90935060208501359080821115611b8b57600080fd5b818601915086601f830112611b9f57600080fd5b813581811115611bae57600080fd5b876020828501011115611bc057600080fd5b6020830194508093505050509250925092565b634e487b7160e01b600052604160045260246000fd5b8183823760009101908152919050565b6000808335601e19843603018112611c1057600080fd5b83018035915067ffffffffffffffff821115611c2b57600080fd5b6020019150600681901b3603821315611c4357600080fd5b9250929050565b634e487b7160e01b600052603260045260246000fd5b600060208284031215611c7257600080fd5b813560ff811681146119f857600080fd5b634e487b7160e01b600052601160045260246000fd5b80820281158282048414176113b2576113b2611c83565b600060208284031215611cc257600080fd5b5051919050565b600060208284031215611cdb57600080fd5b815180151581146119f857600080fd5b600060ff821660ff8103611d0157611d01611c83565b60010192915050565b600181811c90821680611d1e57607f821691505b602082108103611d3e57634e487b7160e01b600052602260045260246000fd5b50919050565b60008351611d56818460208801611a32565b835190830190611d6a818360208801611a32565b01949350505050565b601f821115610f3b576000816000526020600020601f850160051c81016020861015611d9c5750805b601f850160051c820191505b81811015611dbb57828155600101611da8565b505050505050565b815167ffffffffffffffff811115611ddd57611ddd611bd3565b611df181611deb8454611d0a565b84611d73565b602080601f831160018114611e265760008415611e0e5750858301515b600019600386901b1c1916600185901b178555611dbb565b600085815260208120601f198616915b82811015611e5557888601518255948401946001909101908401611e36565b5085821015611e735787850151600019600388901b60f8161c191681555b5050505050600190811b01905550565b815160009082906020808601845b83811015611ead57815185529382019390820190600101611e91565b50929695505050505050565b634e487b7160e01b600052602160045260246000fd5b60008251611ee1818460208701611a32565b919091019291505056fe57616765436c61696d286164647265737320656d706c6f796565416464726573732c75696e743820686f757273576f726b65642c576167655b5d2077616765732c75696e74323536206461746529a16a46d94261c7517cc8ff89f61c0ce93598e3c849801011dee649a6a557d100576167652875696e7432353620686f75726c79526174652c6164647265737320746f6b656e4164647265737329cd5ed15c6e187e77e9aee88184c21f4f2182ab5827cb3b7e07fbedcd63f03300a26469706673582212202cf2458145e6c0354747b6829265cc5db0a545325bfef16cfe504fd978e0772b64736f6c63430008180033",
  "linkReferences": {},
  "deployedLinkReferences": {}
}