{
  "_format": "hh-sol-artifact-1",
  "contractName": "ExpenseAccountEIP712",
  "sourceName": "contracts/expense-account/ExpenseAccountEIP712.sol",
  "abi": [
    {
      "inputs": [
        {
          "internalType": "address",
          "name": "account",
          "type": "address"
        }
      ],
      "name": "AddressInsufficientBalance",
      "type": "error"
    },
    {
      "inputs": [
        {
          "internalType": "uint256",
          "name": "amount",
          "type": "uint256"
        }
      ],
      "name": "AmountPerPeriodExceeded",
      "type": "error"
    },
    {
      "inputs": [
        {
          "internalType": "uint256",
          "name": "amount",
          "type": "uint256"
        }
      ],
      "name": "AmountPerTransactionExceeded",
      "type": "error"
    },
    {
      "inputs": [],
      "name": "ECDSAInvalidSignature",
      "type": "error"
    },
    {
      "inputs": [
        {
          "internalType": "uint256",
          "name": "length",
          "type": "uint256"
        }
      ],
      "name": "ECDSAInvalidSignatureLength",
      "type": "error"
    },
    {
      "inputs": [
        {
          "internalType": "bytes32",
          "name": "s",
          "type": "bytes32"
        }
      ],
      "name": "ECDSAInvalidSignatureS",
      "type": "error"
    },
    {
      "inputs": [],
      "name": "EnforcedPause",
      "type": "error"
    },
    {
      "inputs": [],
      "name": "ExpectedPause",
      "type": "error"
    },
    {
      "inputs": [],
      "name": "FailedInnerCall",
      "type": "error"
    },
    {
      "inputs": [],
      "name": "InvalidInitialization",
      "type": "error"
    },
    {
      "inputs": [],
      "name": "NotInitializing",
      "type": "error"
    },
    {
      "inputs": [
        {
          "internalType": "address",
          "name": "owner",
          "type": "address"
        }
      ],
      "name": "OwnableInvalidOwner",
      "type": "error"
    },
    {
      "inputs": [
        {
          "internalType": "address",
          "name": "account",
          "type": "address"
        }
      ],
      "name": "OwnableUnauthorizedAccount",
      "type": "error"
    },
    {
      "inputs": [],
      "name": "ReentrancyGuardReentrantCall",
      "type": "error"
    },
    {
      "inputs": [
        {
          "internalType": "address",
          "name": "expected",
          "type": "address"
        },
        {
          "internalType": "address",
          "name": "received",
          "type": "address"
        }
      ],
      "name": "UnauthorizedAccess",
      "type": "error"
    },
    {
      "anonymous": false,
      "inputs": [
        {
          "indexed": true,
          "internalType": "bytes32",
          "name": "signatureHash",
          "type": "bytes32"
        }
      ],
      "name": "ApprovalActivated",
      "type": "event"
    },
    {
      "anonymous": false,
      "inputs": [
        {
          "indexed": true,
          "internalType": "bytes32",
          "name": "signatureHash",
          "type": "bytes32"
        }
      ],
      "name": "ApprovalDeactivated",
      "type": "event"
    },
    {
      "anonymous": false,
      "inputs": [
        {
          "indexed": true,
          "internalType": "address",
          "name": "depositor",
          "type": "address"
        },
        {
          "indexed": false,
          "internalType": "uint256",
          "name": "amount",
          "type": "uint256"
        }
      ],
      "name": "Deposited",
      "type": "event"
    },
    {
      "anonymous": false,
      "inputs": [],
      "name": "EIP712DomainChanged",
      "type": "event"
    },
    {
      "anonymous": false,
      "inputs": [
        {
          "indexed": false,
          "internalType": "uint64",
          "name": "version",
          "type": "uint64"
        }
      ],
      "name": "Initialized",
      "type": "event"
    },
    {
      "anonymous": false,
      "inputs": [
        {
          "indexed": true,
          "internalType": "address",
          "name": "previousOwner",
          "type": "address"
        },
        {
          "indexed": true,
          "internalType": "address",
          "name": "newOwner",
          "type": "address"
        }
      ],
      "name": "OwnershipTransferred",
      "type": "event"
    },
    {
      "anonymous": false,
      "inputs": [
        {
          "indexed": false,
          "internalType": "address",
          "name": "account",
          "type": "address"
        }
      ],
      "name": "Paused",
      "type": "event"
    },
    {
      "anonymous": false,
      "inputs": [
        {
          "indexed": true,
          "internalType": "address",
          "name": "withdrawer",
          "type": "address"
        },
        {
          "indexed": true,
          "internalType": "address",
          "name": "to",
          "type": "address"
        },
        {
          "indexed": false,
          "internalType": "uint256",
          "name": "amount",
          "type": "uint256"
        }
      ],
      "name": "Transfer",
      "type": "event"
    },
    {
      "anonymous": false,
      "inputs": [
        {
          "indexed": false,
          "internalType": "address",
          "name": "account",
          "type": "address"
        }
      ],
      "name": "Unpaused",
      "type": "event"
    },
    {
      "inputs": [
        {
          "internalType": "bytes32",
          "name": "signatureHash",
          "type": "bytes32"
        }
      ],
      "name": "activateApproval",
      "outputs": [],
      "stateMutability": "nonpayable",
      "type": "function"
    },
    {
      "inputs": [
        {
          "internalType": "bytes32",
          "name": "",
          "type": "bytes32"
        }
      ],
      "name": "balances",
      "outputs": [
        {
          "internalType": "uint256",
          "name": "transactionCount",
          "type": "uint256"
        },
        {
          "internalType": "uint256",
          "name": "amountWithdrawn",
          "type": "uint256"
        },
        {
          "internalType": "enum ExpenseAccountEIP712.ApprovalState",
          "name": "state",
          "type": "uint8"
        }
      ],
      "stateMutability": "view",
      "type": "function"
    },
    {
      "inputs": [
        {
          "internalType": "bytes32",
          "name": "signatureHash",
          "type": "bytes32"
        }
      ],
      "name": "deactivateApproval",
      "outputs": [],
      "stateMutability": "nonpayable",
      "type": "function"
    },
    {
      "inputs": [],
      "name": "eip712Domain",
      "outputs": [
        {
          "internalType": "bytes1",
          "name": "fields",
          "type": "bytes1"
        },
        {
          "internalType": "string",
          "name": "name",
          "type": "string"
        },
        {
          "internalType": "string",
          "name": "version",
          "type": "string"
        },
        {
          "internalType": "uint256",
          "name": "chainId",
          "type": "uint256"
        },
        {
          "internalType": "address",
          "name": "verifyingContract",
          "type": "address"
        },
        {
          "internalType": "bytes32",
          "name": "salt",
          "type": "bytes32"
        },
        {
          "internalType": "uint256[]",
          "name": "extensions",
          "type": "uint256[]"
        }
      ],
      "stateMutability": "view",
      "type": "function"
    },
    {
      "inputs": [],
      "name": "getBalance",
      "outputs": [
        {
          "internalType": "uint256",
          "name": "",
          "type": "uint256"
        }
      ],
      "stateMutability": "view",
      "type": "function"
    },
    {
      "inputs": [
        {
          "internalType": "address",
          "name": "owner",
          "type": "address"
        }
      ],
      "name": "initialize",
      "outputs": [],
      "stateMutability": "nonpayable",
      "type": "function"
    },
    {
      "inputs": [],
      "name": "owner",
      "outputs": [
        {
          "internalType": "address",
          "name": "",
          "type": "address"
        }
      ],
      "stateMutability": "view",
      "type": "function"
    },
    {
      "inputs": [],
      "name": "pause",
      "outputs": [],
      "stateMutability": "nonpayable",
      "type": "function"
    },
    {
      "inputs": [],
      "name": "paused",
      "outputs": [
        {
          "internalType": "bool",
          "name": "",
          "type": "bool"
        }
      ],
      "stateMutability": "view",
      "type": "function"
    },
    {
      "inputs": [],
      "name": "renounceOwnership",
      "outputs": [],
      "stateMutability": "nonpayable",
      "type": "function"
    },
    {
      "inputs": [
        {
          "internalType": "address",
          "name": "to",
          "type": "address"
        },
        {
          "internalType": "uint256",
          "name": "amount",
          "type": "uint256"
        },
        {
          "components": [
            {
              "internalType": "address",
              "name": "approvedAddress",
              "type": "address"
            },
            {
              "components": [
                {
                  "internalType": "enum ExpenseAccountEIP712.BudgetType",
                  "name": "budgetType",
                  "type": "uint8"
                },
                {
                  "internalType": "uint256",
                  "name": "value",
                  "type": "uint256"
                }
              ],
              "internalType": "struct ExpenseAccountEIP712.BudgetData[]",
              "name": "budgetData",
              "type": "tuple[]"
            },
            {
              "internalType": "uint256",
              "name": "expiry",
              "type": "uint256"
            }
          ],
          "internalType": "struct ExpenseAccountEIP712.BudgetLimit",
          "name": "limit",
          "type": "tuple"
        },
        {
          "internalType": "bytes",
          "name": "signature",
          "type": "bytes"
        }
      ],
      "name": "transfer",
      "outputs": [],
      "stateMutability": "nonpayable",
      "type": "function"
    },
    {
      "inputs": [
        {
          "internalType": "address",
          "name": "newOwner",
          "type": "address"
        }
      ],
      "name": "transferOwnership",
      "outputs": [],
      "stateMutability": "nonpayable",
      "type": "function"
    },
    {
      "inputs": [],
      "name": "unpause",
      "outputs": [],
      "stateMutability": "nonpayable",
      "type": "function"
    },
    {
      "stateMutability": "payable",
      "type": "receive"
    }
  ],
  "bytecode": "0x608060405234801561001057600080fd5b50611d77806100206000396000f3fe6080604052600436106100c65760003560e01c806384b0196e1161007f578063bccb212a11610059578063bccb212a1461025b578063c4d66de81461027b578063de9825341461029b578063f2fde38b146102bb57600080fd5b806384b0196e146101b85780638909aa3f146101e05780638da5cb5b1461022e57600080fd5b806309520c401461010757806312065fe0146101295780633f4ba83a146101495780635c975abb1461015e578063715018a61461018e5780638456cb59146101a357600080fd5b366101025760405134815233907f2da466a7b24304f47e87fa2e1e5a81b9831ce54fec19055ce277ca2f39ba42c49060200160405180910390a2005b600080fd5b34801561011357600080fd5b50610127610122366004611765565b6102db565b005b34801561013557600080fd5b506040514781526020015b60405180910390f35b34801561015557600080fd5b50610127610682565b34801561016a57600080fd5b50600080516020611d228339815191525460ff166040519015158152602001610140565b34801561019a57600080fd5b50610127610694565b3480156101af57600080fd5b506101276106a6565b3480156101c457600080fd5b506101cd6106b6565b604051610140979695949392919061186c565b3480156101ec57600080fd5b5061021f6101fb366004611905565b60006020819052908152604090208054600182015460029092015490919060ff1683565b60405161014093929190611952565b34801561023a57600080fd5b50610243610762565b6040516001600160a01b039091168152602001610140565b34801561026757600080fd5b50610127610276366004611905565b610790565b34801561028757600080fd5b50610127610296366004611977565b6107e0565b3480156102a757600080fd5b506101276102b6366004611905565b61094c565b3480156102c757600080fd5b506101276102d6366004611977565b61099a565b6102e36109d8565b6102eb610a09565b60026000808484604051610300929190611999565b6040805191829003909120825260208201929092520160002060029081015460ff16908111156103325761033261191e565b036103785760405162461bcd60e51b8152602060048201526011602482015270417070726f76616c20696e61637469766560781b60448201526064015b60405180910390fd5b6103856020840184611977565b6001600160a01b0316336001600160a01b0316146103e55760405162461bcd60e51b815260206004820152601760248201527f57697468647261776572206e6f7420617070726f766564000000000000000000604482015260640161036f565b6001600160a01b03851661042e5760405162461bcd60e51b815260206004820152601060248201526f1059191c995cdcc81c995c5d5a5c995960821b604482015260640161036f565b6000841161047e5760405162461bcd60e51b815260206004820181905260248201527f416d6f756e74206d7573742062652067726561746572207468616e207a65726f604482015260640161036f565b600061048d60208501856119a9565b9050116104d05760405162461bcd60e51b8152602060048201526011602482015270456d70747920627564676574206461746160781b604482015260640161036f565b60006104e36104de85610a53565b610b1b565b9050600061052984848080601f0160208091040260200160405190810160405280939291908181526020018383808284376000920191909152508693925050610b4e9050565b9050610533610762565b6001600160a01b0316816001600160a01b03161461058057610553610762565b604051634116c50f60e01b81526001600160a01b039182166004820152908216602482015260440161036f565b84604001354211156105cc5760405162461bcd60e51b8152602060048201526015602482015274105d5d1a1bdc9a5e985d1a5bdb88195e1c1a5c9959605a1b604482015260640161036f565b6105e46105dc60208701876119a9565b888787610b78565b6105f76001600160a01b03881687610e9e565b6001600160a01b03871661060e6020870187611977565b6001600160a01b03167fddf252ad1be2c89b69c2b068fc378daa952ba7f163c4a11628f55a4df523b3ef8860405161064891815260200190565b60405180910390a3505061067b60017f9b779b17422d0df92223018b32b4d1fa46e071723d6817e2486d003becc55f0055565b5050505050565b61068a610f60565b610692610f92565b565b61069c610f60565b6106926000610ff2565b6106ae610f60565b610692611063565b60006060808280808381600080516020611cb783398151915280549091501580156106e357506001810154155b6107275760405162461bcd60e51b81526020600482015260156024820152741152540dcc4c8e88155b9a5b9a5d1a585b1a5e9959605a1b604482015260640161036f565b61072f6110ac565b61073761116f565b60408051600080825260208201909252600f60f81b9c939b5091995046985030975095509350915050565b7f9016d09d72d40fdae2fd8ceac6b6234c7706214fd39c1cd1e609a0528c199300546001600160a01b031690565b610798610f60565b6000818152602081905260408082206002908101805460ff191690911790555182917fe7d3eeb38329f442545ad499afa197225d3b880a08e091ad2c2c244d6236fa0e91a250565b7ff0c57e16840df040f15088dc2f81fe391c3923bec73e23a9662efc9c229c6a008054600160401b810460ff16159067ffffffffffffffff166000811580156108265750825b905060008267ffffffffffffffff1660011480156108435750303b155b905081158015610851575080155b1561086f5760405163f92ee8a960e01b815260040160405180910390fd5b845467ffffffffffffffff19166001178555831561089957845460ff60401b1916600160401b1785555b6108a2866111ae565b6108aa6111bf565b6108b26111cf565b6108fe6040518060400160405280601181526020017010d390d15e1c195b9cd95058d8dbdd5b9d607a1b815250604051806040016040528060018152602001603160f81b8152506111df565b831561094457845460ff60401b19168555604051600181527fc7f505b2f371ae2175ee4913f4499e1f2633a7b5936321eed1cdaeb6115181d29060200160405180910390a15b505050505050565b610954610f60565b600081815260208190526040808220600201805460ff191660011790555182917f5e927cbcc58ec12d6f3fbe317ac4ef30466cfcdddf0be5c85eefab4670b73c3691a250565b6109a2610f60565b6001600160a01b0381166109cc57604051631e4fbdf760e01b81526000600482015260240161036f565b6109d581610ff2565b50565b600080516020611d228339815191525460ff16156106925760405163d93c066560e01b815260040160405180910390fd5b7f9b779b17422d0df92223018b32b4d1fa46e071723d6817e2486d003becc55f00805460011901610a4d57604051633ee5aeb560e01b815260040160405180910390fd5b60029055565b60006040518060800160405280604b8152602001611cd7604b91396040518060600160405280602a8152602001611c8d602a9139604051602001610a98929190611a10565b60408051601f19818403018152919052805160209182012090610abd90840184611977565b610ad2610acd60208601866119a9565b6111f5565b6040805160208101949094526001600160a01b03909216838301526060830152830135608082015260a0015b604051602081830303815290604052805190602001209050919050565b6000610b48610b286112d1565b8360405161190160f01b8152600281019290925260228201526042902090565b92915050565b600080600080610b5e86866112e0565b925092509250610b6e828261132d565b5090949350505050565b60008282604051610b8a929190611999565b60405190819003902090506000805b60ff8116871115610e4b57600088888360ff16818110610bbb57610bbb611a3f565b610bd19260206040909202019081019150611a55565b6002811115610be257610be261191e565b03610c8d5787878260ff16818110610bfc57610bfc611a3f565b905060400201602001356000808581526020019081526020016000206000015410610c695760405162461bcd60e51b815260206004820152601960248201527f5472616e73616374696f6e206c696d6974207265616368656400000000000000604482015260640161036f565b6000838152602081905260408120805491610c8383611a8c565b9190505550610e39565b600188888360ff16818110610ca457610ca4611a3f565b610cba9260206040909202019081019150611a55565b6002811115610ccb57610ccb61191e565b03610d845787878260ff16818110610ce557610ce5611a3f565b905060400201602001358660008086815260200190815260200160002060010154610d109190611aa5565b1115610d4f57600083815260208190526040902060010154610d33908790611aa5565b6040516320435cc160e01b815260040161036f91815260200190565b81610d7f5760008381526020819052604081206001018054889290610d75908490611aa5565b9091555060019250505b610e39565b600288888360ff16818110610d9b57610d9b611a3f565b610db19260206040909202019081019150611a55565b6002811115610dc257610dc261191e565b03610e395787878260ff16818110610ddc57610ddc611a3f565b90506040020160200135861115610e095760405163da56a10960e01b81526004810187905260240161036f565b81610e395760008381526020819052604081206001018054889290610e2f908490611aa5565b9091555060019250505b80610e4381611ab8565b915050610b99565b50600082815260208190526040812060029081015460ff1690811115610e7357610e7361191e565b03610e95576000828152602081905260409020600201805460ff191660011790555b50505050505050565b80471015610ec15760405163cd78605960e01b815230600482015260240161036f565b6000826001600160a01b03168260405160006040518083038185875af1925050503d8060008114610f0e576040519150601f19603f3d011682016040523d82523d6000602084013e610f13565b606091505b5050905080610f3557604051630a12f52160e11b815260040160405180910390fd5b505050565b60017f9b779b17422d0df92223018b32b4d1fa46e071723d6817e2486d003becc55f0055565b33610f69610762565b6001600160a01b0316146106925760405163118cdaa760e01b815233600482015260240161036f565b610f9a6113e6565b600080516020611d22833981519152805460ff191681557f5db9ee0a495bf2e6ff9c91a7834c1ba4fdd244a5e8aa4e537bd38aeae4b073aa335b6040516001600160a01b03909116815260200160405180910390a150565b7f9016d09d72d40fdae2fd8ceac6b6234c7706214fd39c1cd1e609a0528c19930080546001600160a01b031981166001600160a01b03848116918217845560405192169182907f8be0079c531659141344cd1fd0a4f28419497f9722a3daafe3b4186f6b6457e090600090a3505050565b61106b6109d8565b600080516020611d22833981519152805460ff191660011781557f62e78cea01bee320cd4e420270b5ea74000d11b0c9f74754ebdbfc544b05a25833610fd4565b7fa16a46d94261c7517cc8ff89f61c0ce93598e3c849801011dee649a6a557d1028054606091600080516020611cb7833981519152916110eb90611ad7565b80601f016020809104026020016040519081016040528092919081815260200182805461111790611ad7565b80156111645780601f1061113957610100808354040283529160200191611164565b820191906000526020600020905b81548152906001019060200180831161114757829003601f168201915b505050505091505090565b7fa16a46d94261c7517cc8ff89f61c0ce93598e3c849801011dee649a6a557d1038054606091600080516020611cb7833981519152916110eb90611ad7565b6111b6611416565b6109d58161145f565b6111c7611416565b610692611467565b6111d7611416565b61069261146f565b6111e7611416565b6111f18282611490565b5050565b6000808267ffffffffffffffff811115611211576112116119fa565b60405190808252806020026020018201604052801561123a578160200160208202803683370190505b50905060005b60ff81168411156112a05761126e85858360ff1681811061126357611263611a3f565b9050604002016114f1565b828260ff168151811061128357611283611a3f565b60209081029190910101528061129881611ab8565b915050611240565b50806040516020016112b29190611b11565b6040516020818303038152906040528051906020012091505092915050565b60006112db611558565b905090565b6000806000835160410361131a5760208401516040850151606086015160001a61130c888285856115cc565b955095509550505050611326565b50508151600091506002905b9250925092565b60008260038111156113415761134161191e565b0361134a575050565b600182600381111561135e5761135e61191e565b0361137c5760405163f645eedf60e01b815260040160405180910390fd5b60028260038111156113905761139061191e565b036113b15760405163fce698f760e01b81526004810182905260240161036f565b60038260038111156113c5576113c561191e565b036111f1576040516335e2f38360e21b81526004810182905260240161036f565b600080516020611d228339815191525460ff1661069257604051638dfc202b60e01b815260040160405180910390fd5b7ff0c57e16840df040f15088dc2f81fe391c3923bec73e23a9662efc9c229c6a0054600160401b900460ff1661069257604051631afcd79f60e31b815260040160405180910390fd5b6109a2611416565b610f3a611416565b611477611416565b600080516020611d22833981519152805460ff19169055565b611498611416565b600080516020611cb78339815191527fa16a46d94261c7517cc8ff89f61c0ce93598e3c849801011dee649a6a557d1026114d28482611b8f565b50600381016114e18382611b8f565b5060008082556001909101555050565b60006040518060600160405280602a8152602001611c8d602a913960405160200161151c9190611c4f565b60408051601f1981840301815291905280516020918201209061154190840184611a55565b8360200135604051602001610afe93929190611c6b565b60007f8b73c3c69bb8fe3d512ecc4cf759cc79239f7b179b0ffacaa9a75d522b39400f61158361169b565b61158b611705565b60408051602081019490945283019190915260608201524660808201523060a082015260c00160405160208183030381529060405280519060200120905090565b600080807f7fffffffffffffffffffffffffffffff5d576e7357a4501ddfe92f46681b20a08411156116075750600091506003905082611691565b604080516000808252602082018084528a905260ff891692820192909252606081018790526080810186905260019060a0016020604051602081039080840390855afa15801561165b573d6000803e3d6000fd5b5050604051601f1901519150506001600160a01b03811661168757506000925060019150829050611691565b9250600091508190505b9450945094915050565b6000600080516020611cb7833981519152816116b56110ac565b8051909150156116cd57805160209091012092915050565b815480156116dc579392505050565b7fc5d2460186f7233c927e7db2dcc703c0e500b653ca82273b7bfad8045d85a470935050505090565b6000600080516020611cb78339815191528161171f61116f565b80519091501561173757805160209091012092915050565b600182015480156116dc579392505050565b80356001600160a01b038116811461176057600080fd5b919050565b60008060008060006080868803121561177d57600080fd5b61178686611749565b945060208601359350604086013567ffffffffffffffff808211156117aa57600080fd5b908701906060828a0312156117be57600080fd5b909350606087013590808211156117d457600080fd5b818801915088601f8301126117e857600080fd5b8135818111156117f757600080fd5b89602082850101111561180957600080fd5b9699959850939650602001949392505050565b60005b8381101561183757818101518382015260200161181f565b50506000910152565b6000815180845261185881602086016020860161181c565b601f01601f19169290920160200192915050565b60ff60f81b881681526000602060e0602084015261188d60e084018a611840565b838103604085015261189f818a611840565b606085018990526001600160a01b038816608086015260a0850187905284810360c08601528551808252602080880193509091019060005b818110156118f3578351835292840192918401916001016118d7565b50909c9b505050505050505050505050565b60006020828403121561191757600080fd5b5035919050565b634e487b7160e01b600052602160045260246000fd5b600381106109d557634e487b7160e01b600052602160045260246000fd5b838152602081018390526060810161196983611934565b826040830152949350505050565b60006020828403121561198957600080fd5b61199282611749565b9392505050565b8183823760009101908152919050565b6000808335601e198436030181126119c057600080fd5b83018035915067ffffffffffffffff8211156119db57600080fd5b6020019150600681901b36038213156119f357600080fd5b9250929050565b634e487b7160e01b600052604160045260246000fd5b60008351611a2281846020880161181c565b835190830190611a3681836020880161181c565b01949350505050565b634e487b7160e01b600052603260045260246000fd5b600060208284031215611a6757600080fd5b81356003811061199257600080fd5b634e487b7160e01b600052601160045260246000fd5b600060018201611a9e57611a9e611a76565b5060010190565b80820180821115610b4857610b48611a76565b600060ff821660ff8103611ace57611ace611a76565b60010192915050565b600181811c90821680611aeb57607f821691505b602082108103611b0b57634e487b7160e01b600052602260045260246000fd5b50919050565b815160009082906020808601845b83811015611b3b57815185529382019390820190600101611b1f565b50929695505050505050565b601f821115610f35576000816000526020600020601f850160051c81016020861015611b705750805b601f850160051c820191505b8181101561094457828155600101611b7c565b815167ffffffffffffffff811115611ba957611ba96119fa565b611bbd81611bb78454611ad7565b84611b47565b602080601f831160018114611bf25760008415611bda5750858301515b600019600386901b1c1916600185901b178555610944565b600085815260208120601f198616915b82811015611c2157888601518255948401946001909101908401611c02565b5085821015611c3f5787850151600019600388901b60f8161c191681555b5050505050600190811b01905550565b60008251611c6181846020870161181c565b9190910192915050565b83815260608101611c7b84611934565b60208201939093526040015291905056fe427564676574446174612875696e743820627564676574547970652c75696e743235362076616c756529a16a46d94261c7517cc8ff89f61c0ce93598e3c849801011dee649a6a557d1004275646765744c696d6974286164647265737320617070726f766564416464726573732c427564676574446174615b5d20627564676574446174612c75696e743235362065787069727929cd5ed15c6e187e77e9aee88184c21f4f2182ab5827cb3b7e07fbedcd63f03300a2646970667358221220e202799fe41d798f60d2066468920aa36227789c5a27e4ff068084d47342817164736f6c63430008180033",
  "linkReferences": {},
  "deployedLinkReferences": {}
}