{
  "_format": "hh-sol-artifact-1",
  "contractName": "ExpenseAccountEIP712",
  "sourceName": "contracts/expense-account/ExpenseAccountEIP712.sol",
  "abi": [
    {
      "inputs": [
        {
          "internalType": "address",
          "name": "account",
          "type": "address"
        }
      ],
      "name": "AddressInsufficientBalance",
      "type": "error"
    },
    {
      "inputs": [
        {
          "internalType": "uint256",
          "name": "amount",
          "type": "uint256"
        }
      ],
      "name": "AmountPerPeriodExceeded",
      "type": "error"
    },
    {
      "inputs": [
        {
          "internalType": "uint256",
          "name": "amount",
          "type": "uint256"
        }
      ],
      "name": "AmountPerTransactionExceeded",
      "type": "error"
    },
    {
      "inputs": [],
      "name": "ECDSAInvalidSignature",
      "type": "error"
    },
    {
      "inputs": [
        {
          "internalType": "uint256",
          "name": "length",
          "type": "uint256"
        }
      ],
      "name": "ECDSAInvalidSignatureLength",
      "type": "error"
    },
    {
      "inputs": [
        {
          "internalType": "bytes32",
          "name": "s",
          "type": "bytes32"
        }
      ],
      "name": "ECDSAInvalidSignatureS",
      "type": "error"
    },
    {
      "inputs": [],
      "name": "EnforcedPause",
      "type": "error"
    },
    {
      "inputs": [],
      "name": "ExpectedPause",
      "type": "error"
    },
    {
      "inputs": [],
      "name": "FailedInnerCall",
      "type": "error"
    },
    {
      "inputs": [],
      "name": "InvalidInitialization",
      "type": "error"
    },
    {
      "inputs": [],
      "name": "NotInitializing",
      "type": "error"
    },
    {
      "inputs": [
        {
          "internalType": "address",
          "name": "owner",
          "type": "address"
        }
      ],
      "name": "OwnableInvalidOwner",
      "type": "error"
    },
    {
      "inputs": [
        {
          "internalType": "address",
          "name": "account",
          "type": "address"
        }
      ],
      "name": "OwnableUnauthorizedAccount",
      "type": "error"
    },
    {
      "inputs": [],
      "name": "ReentrancyGuardReentrantCall",
      "type": "error"
    },
    {
      "inputs": [
        {
          "internalType": "address",
          "name": "expected",
          "type": "address"
        },
        {
          "internalType": "address",
          "name": "received",
          "type": "address"
        }
      ],
      "name": "UnauthorizedAccess",
      "type": "error"
    },
    {
      "anonymous": false,
      "inputs": [
        {
          "indexed": true,
          "internalType": "bytes32",
          "name": "signatureHash",
          "type": "bytes32"
        }
      ],
      "name": "ApprovalActivated",
      "type": "event"
    },
    {
      "anonymous": false,
      "inputs": [
        {
          "indexed": true,
          "internalType": "bytes32",
          "name": "signatureHash",
          "type": "bytes32"
        }
      ],
      "name": "ApprovalDeactivated",
      "type": "event"
    },
    {
      "anonymous": false,
      "inputs": [
        {
          "indexed": true,
          "internalType": "address",
          "name": "depositor",
          "type": "address"
        },
        {
          "indexed": false,
          "internalType": "uint256",
          "name": "amount",
          "type": "uint256"
        }
      ],
      "name": "Deposited",
      "type": "event"
    },
    {
      "anonymous": false,
      "inputs": [],
      "name": "EIP712DomainChanged",
      "type": "event"
    },
    {
      "anonymous": false,
      "inputs": [
        {
          "indexed": false,
          "internalType": "uint64",
          "name": "version",
          "type": "uint64"
        }
      ],
      "name": "Initialized",
      "type": "event"
    },
    {
      "anonymous": false,
      "inputs": [
        {
          "indexed": true,
          "internalType": "address",
          "name": "previousOwner",
          "type": "address"
        },
        {
          "indexed": true,
          "internalType": "address",
          "name": "newOwner",
          "type": "address"
        }
      ],
      "name": "OwnershipTransferred",
      "type": "event"
    },
    {
      "anonymous": false,
      "inputs": [
        {
          "indexed": false,
          "internalType": "address",
          "name": "account",
          "type": "address"
        }
      ],
      "name": "Paused",
      "type": "event"
    },
    {
      "anonymous": false,
      "inputs": [
        {
          "indexed": true,
          "internalType": "address",
          "name": "addressWhoChanged",
          "type": "address"
        },
        {
          "indexed": false,
          "internalType": "string",
          "name": "tokenSymbol",
          "type": "string"
        },
        {
          "indexed": true,
          "internalType": "address",
          "name": "oldAddress",
          "type": "address"
        },
        {
          "indexed": true,
          "internalType": "address",
          "name": "newAddress",
          "type": "address"
        }
      ],
      "name": "TokenAddressChanged",
      "type": "event"
    },
    {
      "anonymous": false,
      "inputs": [
        {
          "indexed": true,
          "internalType": "address",
          "name": "depositor",
          "type": "address"
        },
        {
          "indexed": true,
          "internalType": "address",
          "name": "token",
          "type": "address"
        },
        {
          "indexed": false,
          "internalType": "uint256",
          "name": "amount",
          "type": "uint256"
        }
      ],
      "name": "TokenDeposited",
      "type": "event"
    },
    {
      "anonymous": false,
      "inputs": [
        {
          "indexed": true,
          "internalType": "address",
          "name": "withdrawer",
          "type": "address"
        },
        {
          "indexed": true,
          "internalType": "address",
          "name": "to",
          "type": "address"
        },
        {
          "indexed": true,
          "internalType": "address",
          "name": "token",
          "type": "address"
        },
        {
          "indexed": false,
          "internalType": "uint256",
          "name": "amount",
          "type": "uint256"
        }
      ],
      "name": "TokenTransfer",
      "type": "event"
    },
    {
      "anonymous": false,
      "inputs": [
        {
          "indexed": true,
          "internalType": "address",
          "name": "withdrawer",
          "type": "address"
        },
        {
          "indexed": true,
          "internalType": "address",
          "name": "to",
          "type": "address"
        },
        {
          "indexed": false,
          "internalType": "uint256",
          "name": "amount",
          "type": "uint256"
        }
      ],
      "name": "Transfer",
      "type": "event"
    },
    {
      "anonymous": false,
      "inputs": [
        {
          "indexed": false,
          "internalType": "address",
          "name": "account",
          "type": "address"
        }
      ],
      "name": "Unpaused",
      "type": "event"
    },
    {
      "inputs": [
        {
          "internalType": "bytes32",
          "name": "signatureHash",
          "type": "bytes32"
        }
      ],
      "name": "activateApproval",
      "outputs": [],
      "stateMutability": "nonpayable",
      "type": "function"
    },
    {
      "inputs": [
        {
          "internalType": "bytes32",
          "name": "",
          "type": "bytes32"
        }
      ],
      "name": "balances",
      "outputs": [
        {
          "internalType": "uint256",
          "name": "transactionCount",
          "type": "uint256"
        },
        {
          "internalType": "uint256",
          "name": "amountWithdrawn",
          "type": "uint256"
        },
        {
          "internalType": "enum ExpenseAccountEIP712.ApprovalState",
          "name": "state",
          "type": "uint8"
        }
      ],
      "stateMutability": "view",
      "type": "function"
    },
    {
      "inputs": [
        {
          "internalType": "string",
          "name": "symbol",
          "type": "string"
        },
        {
          "internalType": "address",
          "name": "newAddress",
          "type": "address"
        }
      ],
      "name": "changeTokenAddress",
      "outputs": [],
      "stateMutability": "nonpayable",
      "type": "function"
    },
    {
      "inputs": [
        {
          "internalType": "bytes32",
          "name": "signatureHash",
          "type": "bytes32"
        }
      ],
      "name": "deactivateApproval",
      "outputs": [],
      "stateMutability": "nonpayable",
      "type": "function"
    },
    {
      "inputs": [
        {
          "internalType": "address",
          "name": "token",
          "type": "address"
        },
        {
          "internalType": "uint256",
          "name": "amount",
          "type": "uint256"
        }
      ],
      "name": "depositToken",
      "outputs": [],
      "stateMutability": "nonpayable",
      "type": "function"
    },
    {
      "inputs": [],
      "name": "eip712Domain",
      "outputs": [
        {
          "internalType": "bytes1",
          "name": "fields",
          "type": "bytes1"
        },
        {
          "internalType": "string",
          "name": "name",
          "type": "string"
        },
        {
          "internalType": "string",
          "name": "version",
          "type": "string"
        },
        {
          "internalType": "uint256",
          "name": "chainId",
          "type": "uint256"
        },
        {
          "internalType": "address",
          "name": "verifyingContract",
          "type": "address"
        },
        {
          "internalType": "bytes32",
          "name": "salt",
          "type": "bytes32"
        },
        {
          "internalType": "uint256[]",
          "name": "extensions",
          "type": "uint256[]"
        }
      ],
      "stateMutability": "view",
      "type": "function"
    },
    {
      "inputs": [],
      "name": "getBalance",
      "outputs": [
        {
          "internalType": "uint256",
          "name": "",
          "type": "uint256"
        }
      ],
      "stateMutability": "view",
      "type": "function"
    },
    {
      "inputs": [
        {
          "internalType": "address",
          "name": "token",
          "type": "address"
        }
      ],
      "name": "getTokenBalance",
      "outputs": [
        {
          "internalType": "uint256",
          "name": "",
          "type": "uint256"
        }
      ],
      "stateMutability": "view",
      "type": "function"
    },
    {
      "inputs": [
        {
          "internalType": "address",
          "name": "owner",
          "type": "address"
        },
        {
          "internalType": "address",
          "name": "_usdtAddress",
          "type": "address"
        },
        {
          "internalType": "address",
          "name": "_usdcAddress",
          "type": "address"
        }
      ],
      "name": "initialize",
      "outputs": [],
      "stateMutability": "nonpayable",
      "type": "function"
    },
    {
      "inputs": [
        {
          "internalType": "address",
          "name": "_token",
          "type": "address"
        }
      ],
      "name": "isTokenSupported",
      "outputs": [
        {
          "internalType": "bool",
          "name": "",
          "type": "bool"
        }
      ],
      "stateMutability": "view",
      "type": "function"
    },
    {
      "inputs": [],
      "name": "owner",
      "outputs": [
        {
          "internalType": "address",
          "name": "",
          "type": "address"
        }
      ],
      "stateMutability": "view",
      "type": "function"
    },
    {
      "inputs": [],
      "name": "pause",
      "outputs": [],
      "stateMutability": "nonpayable",
      "type": "function"
    },
    {
      "inputs": [],
      "name": "paused",
      "outputs": [
        {
          "internalType": "bool",
          "name": "",
          "type": "bool"
        }
      ],
      "stateMutability": "view",
      "type": "function"
    },
    {
      "inputs": [],
      "name": "renounceOwnership",
      "outputs": [],
      "stateMutability": "nonpayable",
      "type": "function"
    },
    {
      "inputs": [
        {
          "internalType": "string",
          "name": "",
          "type": "string"
        }
      ],
      "name": "supportedTokens",
      "outputs": [
        {
          "internalType": "address",
          "name": "",
          "type": "address"
        }
      ],
      "stateMutability": "view",
      "type": "function"
    },
    {
      "inputs": [
        {
          "internalType": "address",
          "name": "to",
          "type": "address"
        },
        {
          "internalType": "uint256",
          "name": "amount",
          "type": "uint256"
        },
        {
          "components": [
            {
              "internalType": "address",
              "name": "approvedAddress",
              "type": "address"
            },
            {
              "components": [
                {
                  "internalType": "enum ExpenseAccountEIP712.BudgetType",
                  "name": "budgetType",
                  "type": "uint8"
                },
                {
                  "internalType": "uint256",
                  "name": "value",
                  "type": "uint256"
                }
              ],
              "internalType": "struct ExpenseAccountEIP712.BudgetData[]",
              "name": "budgetData",
              "type": "tuple[]"
            },
            {
              "internalType": "uint256",
              "name": "expiry",
              "type": "uint256"
            }
          ],
          "internalType": "struct ExpenseAccountEIP712.BudgetLimit",
          "name": "limit",
          "type": "tuple"
        },
        {
          "internalType": "bytes",
          "name": "signature",
          "type": "bytes"
        }
      ],
      "name": "transfer",
      "outputs": [],
      "stateMutability": "nonpayable",
      "type": "function"
    },
    {
      "inputs": [
        {
          "internalType": "address",
          "name": "newOwner",
          "type": "address"
        }
      ],
      "name": "transferOwnership",
      "outputs": [],
      "stateMutability": "nonpayable",
      "type": "function"
    },
    {
      "inputs": [
        {
          "internalType": "address",
          "name": "to",
          "type": "address"
        },
        {
          "internalType": "address",
          "name": "token",
          "type": "address"
        },
        {
          "internalType": "uint256",
          "name": "amount",
          "type": "uint256"
        },
        {
          "components": [
            {
              "internalType": "address",
              "name": "approvedAddress",
              "type": "address"
            },
            {
              "components": [
                {
                  "internalType": "enum ExpenseAccountEIP712.BudgetType",
                  "name": "budgetType",
                  "type": "uint8"
                },
                {
                  "internalType": "uint256",
                  "name": "value",
                  "type": "uint256"
                }
              ],
              "internalType": "struct ExpenseAccountEIP712.BudgetData[]",
              "name": "budgetData",
              "type": "tuple[]"
            },
            {
              "internalType": "uint256",
              "name": "expiry",
              "type": "uint256"
            }
          ],
          "internalType": "struct ExpenseAccountEIP712.BudgetLimit",
          "name": "limit",
          "type": "tuple"
        },
        {
          "internalType": "bytes",
          "name": "signature",
          "type": "bytes"
        }
      ],
      "name": "transferToken",
      "outputs": [],
      "stateMutability": "nonpayable",
      "type": "function"
    },
    {
      "inputs": [],
      "name": "unpause",
      "outputs": [],
      "stateMutability": "nonpayable",
      "type": "function"
    },
    {
      "stateMutability": "payable",
      "type": "receive"
    }
  ],
  "bytecode": "0x608060405234801561001057600080fd5b50612a1b806100206000396000f3fe6080604052600436106101185760003560e01c806384b0196e116100a0578063bccb212a11610064578063bccb212a14610371578063c0c53b8b14610391578063de982534146103b1578063f2fde38b146103d1578063ffc7a53c146103f157600080fd5b806384b0196e1461026d5780638909aa3f1461029557806389919cdd146102e35780638da5cb5b1461033c578063ab38a4851461035157600080fd5b80633f4ba83a116100e75780633f4ba83a146101dd5780635c975abb146101f2578063715018a61461022357806375151b63146102385780638456cb591461025857600080fd5b806309520c401461015957806312065fe01461017b578063338b5dea1461019d5780633aecd0e3146101bd57600080fd5b366101545760405134815233907f2da466a7b24304f47e87fa2e1e5a81b9831ce54fec19055ce277ca2f39ba42c49060200160405180910390a2005b600080fd5b34801561016557600080fd5b50610179610174366004612160565b610411565b005b34801561018757600080fd5b50475b6040519081526020015b60405180910390f35b3480156101a957600080fd5b506101796101b83660046121e5565b610770565b3480156101c957600080fd5b5061018a6101d836600461220f565b6108db565b3480156101e957600080fd5b50610179610970565b3480156101fe57600080fd5b506000805160206129a68339815191525460ff165b6040519015158152602001610194565b34801561022f57600080fd5b50610179610982565b34801561024457600080fd5b5061021361025336600461220f565b610994565b34801561026457600080fd5b50610179610a0a565b34801561027957600080fd5b50610282610a1a565b6040516101949796959493929190612281565b3480156102a157600080fd5b506102d46102b036600461231a565b60006020819052908152604090208054600182015460029092015490919060ff1683565b60405161019493929190612367565b3480156102ef57600080fd5b506103246102fe3660046123a2565b80516020818301810180516001825292820191909301209152546001600160a01b031681565b6040516001600160a01b039091168152602001610194565b34801561034857600080fd5b50610324610ac6565b34801561035d57600080fd5b5061017961036c366004612453565b610af4565b34801561037d57600080fd5b5061017961038c36600461231a565b610cf5565b34801561039d57600080fd5b506101796103ac3660046124a7565b610d45565b3480156103bd57600080fd5b506101796103cc36600461231a565b610f26565b3480156103dd57600080fd5b506101796103ec36600461220f565b610f74565b3480156103fd57600080fd5b5061017961040c3660046124e1565b610fb2565b6104196113a0565b6104216113d1565b60026000808484604051610436929190612576565b6040805191829003909120825260208201929092520160002060029081015460ff169081111561046857610468612333565b036104ae5760405162461bcd60e51b8152602060048201526011602482015270417070726f76616c20696e61637469766560781b60448201526064015b60405180910390fd5b6104bb602084018461220f565b6001600160a01b0316336001600160a01b0316146105155760405162461bcd60e51b815260206004820152601760248201527615da5d1a191c985dd95c881b9bdd08185c1c1c9bdd9959604a1b60448201526064016104a5565b6001600160a01b03851661055e5760405162461bcd60e51b815260206004820152601060248201526f1059191c995cdcc81c995c5d5a5c995960821b60448201526064016104a5565b6000841161057e5760405162461bcd60e51b81526004016104a590612586565b600061058d60208501856125bb565b9050116105d05760405162461bcd60e51b8152602060048201526011602482015270456d70747920627564676574206461746160781b60448201526064016104a5565b60006105e36105de85611409565b6114d1565b9050600061062984848080601f01602080910402602001604051908101604052809392919081815260200183838082843760009201919091525086939250506114fe9050565b9050610633610ac6565b6001600160a01b0316816001600160a01b03161461068057610653610ac6565b604051634116c50f60e01b81526001600160a01b03918216600482015290821660248201526044016104a5565b84604001354211156106cc5760405162461bcd60e51b8152602060048201526015602482015274105d5d1a1bdc9a5e985d1a5bdb88195e1c1a5c9959605a1b60448201526064016104a5565b6106e46106dc60208701876125bb565b888787611528565b6106f76001600160a01b0388168761184e565b6001600160a01b03871661070e602087018761220f565b6001600160a01b03167fddf252ad1be2c89b69c2b068fc378daa952ba7f163c4a11628f55a4df523b3ef8860405161074891815260200190565b60405180910390a3505061076960016000805160206129c683398151915255565b5050505050565b6107786113d1565b6107806113a0565b61078982610994565b6107a55760405162461bcd60e51b81526004016104a590612605565b600081116107c55760405162461bcd60e51b81526004016104a590612586565b6040516323b872dd60e01b8152336004820152306024820152604481018290526001600160a01b038316906323b872dd906064016020604051808303816000875af1158015610818573d6000803e3d6000fd5b505050506040513d601f19601f8201168201806040525081019061083c9190612630565b6108805760405162461bcd60e51b8152602060048201526015602482015274151bdad95b881d1c985b9cd9995c8819985a5b1959605a1b60448201526064016104a5565b6040518181526001600160a01b0383169033907ff1444b5cad7ce70cb018d1b8edc8618fe303f3c7f034d8d572a6e27facbf2bef9060200160405180910390a36108d760016000805160206129c683398151915255565b5050565b60006108e682610994565b6109025760405162461bcd60e51b81526004016104a590612605565b6040516370a0823160e01b81523060048201526001600160a01b038316906370a0823190602401602060405180830381865afa158015610946573d6000803e3d6000fd5b505050506040513d601f19601f8201168201806040525081019061096a9190612652565b92915050565b6109786118fe565b610980611930565b565b61098a6118fe565b6109806000611990565b600060016040516109af90631554d11560e21b815260040190565b908152604051908190036020019020546001600160a01b038381169116148061096a5750604051635553444360e01b8152600190600401908152604051908190036020019020546001600160a01b0383811691161492915050565b610a126118fe565b610980611a01565b6000606080828080838160008051602061293b8339815191528054909150158015610a4757506001810154155b610a8b5760405162461bcd60e51b81526020600482015260156024820152741152540dcc4c8e88155b9a5b9a5d1a585b1a5e9959605a1b60448201526064016104a5565b610a93611a4a565b610a9b611b0d565b60408051600080825260208201909252600f60f81b9c939b5091995046985030975095509350915050565b7f9016d09d72d40fdae2fd8ceac6b6234c7706214fd39c1cd1e609a0528c199300546001600160a01b031690565b610afc6118fe565b610b046113a0565b6001600160a01b038116610b535760405162461bcd60e51b8152602060048201526016602482015275416464726573732063616e6e6f74206265207a65726f60501b60448201526064016104a5565b604051631554d11560e21b6020820152602401604051602081830303815290604052805190602001208383604051602001610b8f929190612576565b604051602081830303815290604052805190602001201480610c005750604051635553444360e01b6020820152602401604051602081830303815290604052805190602001208383604051602001610be8929190612576565b60405160208183030381529060405280519060200120145b610c435760405162461bcd60e51b8152602060048201526014602482015273125b9d985b1a59081d1bdad95b881cde5b589bdb60621b60448201526064016104a5565b600060018484604051610c57929190612576565b908152604051908190036020018120546001600160a01b031691508290600190610c849087908790612576565b90815260405190819003602001812080546001600160a01b039384166001600160a01b03199091161790558382169183169033907ffa0e1aca71e09b7065691fdf3ee6adb50937ef393f5e4c3fca1235dd97702f8c90610ce7908990899061266b565b60405180910390a450505050565b610cfd6118fe565b6000818152602081905260408082206002908101805460ff191690911790555182917fe7d3eeb38329f442545ad499afa197225d3b880a08e091ad2c2c244d6236fa0e91a250565b7ff0c57e16840df040f15088dc2f81fe391c3923bec73e23a9662efc9c229c6a008054600160401b810460ff16159067ffffffffffffffff16600081158015610d8b5750825b905060008267ffffffffffffffff166001148015610da85750303b155b905081158015610db6575080155b15610dd45760405163f92ee8a960e01b815260040160405180910390fd5b845467ffffffffffffffff191660011785558315610dfe57845460ff60401b1916600160401b1785555b610e0788611b4c565b610e0f611b5d565b610e17611b6d565b610e636040518060400160405280601181526020017010d390d15e1c195b9cd95058d8dbdd5b9d607a1b815250604051806040016040528060018152602001603160f81b815250611b7d565b866001604051610e7d90631554d11560e21b815260040190565b9081526040805191829003602001822080546001600160a01b039485166001600160a01b031991821617909155635553444360e01b8352600160048401529051918290036024019091208054928916929091169190911790558315610f1c57845460ff60401b19168555604051600181527fc7f505b2f371ae2175ee4913f4499e1f2633a7b5936321eed1cdaeb6115181d29060200160405180910390a15b5050505050505050565b610f2e6118fe565b600081815260208190526040808220600201805460ff191660011790555182917f5e927cbcc58ec12d6f3fbe317ac4ef30466cfcdddf0be5c85eefab4670b73c3691a250565b610f7c6118fe565b6001600160a01b038116610fa657604051631e4fbdf760e01b8152600060048201526024016104a5565b610faf81611990565b50565b610fba6113a0565b610fc26113d1565b610fcb85610994565b610fe75760405162461bcd60e51b81526004016104a590612605565b60026000808484604051610ffc929190612576565b6040805191829003909120825260208201929092520160002060029081015460ff169081111561102e5761102e612333565b0361106f5760405162461bcd60e51b8152602060048201526011602482015270417070726f76616c20696e61637469766560781b60448201526064016104a5565b61107c602084018461220f565b6001600160a01b0316336001600160a01b0316146110d65760405162461bcd60e51b815260206004820152601760248201527615da5d1a191c985dd95c881b9bdd08185c1c1c9bdd9959604a1b60448201526064016104a5565b6001600160a01b03861661111f5760405162461bcd60e51b815260206004820152601060248201526f1059191c995cdcc81c995c5d5a5c995960821b60448201526064016104a5565b6000841161113f5760405162461bcd60e51b81526004016104a590612586565b600061114e60208501856125bb565b9050116111915760405162461bcd60e51b8152602060048201526011602482015270456d70747920627564676574206461746160781b60448201526064016104a5565b600061119f6105de85611409565b905060006111e584848080601f01602080910402602001604051908101604052809392919081815260200183838082843760009201919091525086939250506114fe9050565b90506111ef610ac6565b6001600160a01b0316816001600160a01b03161461120f57610653610ac6565b846040013542111561125b5760405162461bcd60e51b8152602060048201526015602482015274105d5d1a1bdc9a5e985d1a5bdb88195e1c1a5c9959605a1b60448201526064016104a5565b61126b6106dc60208701876125bb565b60405163a9059cbb60e01b81526001600160a01b0389811660048301526024820188905288169063a9059cbb906044016020604051808303816000875af11580156112ba573d6000803e3d6000fd5b505050506040513d601f19601f820116820180604052508101906112de9190612630565b6113225760405162461bcd60e51b8152602060048201526015602482015274151bdad95b881d1c985b9cd9995c8819985a5b1959605a1b60448201526064016104a5565b6001600160a01b0380881690891661133d602088018861220f565b6001600160a01b03167fae33cb06d7303f889d953bb09540983050163c1c4c98b330db432a911cfb63fd8960405161137791815260200190565b60405180910390a4505061139860016000805160206129c683398151915255565b505050505050565b6000805160206129a68339815191525460ff16156109805760405163d93c066560e01b815260040160405180910390fd5b6000805160206129c683398151915280546001190161140357604051633ee5aeb560e01b815260040160405180910390fd5b60029055565b60006040518060800160405280604b815260200161295b604b91396040518060600160405280602a8152602001612911602a913960405160200161144e92919061269a565b60408051601f198184030181529190528051602091820120906114739084018461220f565b61148861148360208601866125bb565b611b8f565b6040805160208101949094526001600160a01b03909216838301526060830152830135608082015260a0015b604051602081830303815290604052805190602001209050919050565b600061096a6114de611c6b565b8360405161190160f01b8152600281019290925260228201526042902090565b60008060008061150e8686611c7a565b92509250925061151e8282611cc7565b5090949350505050565b6000828260405161153a929190612576565b60405190819003902090506000805b60ff81168711156117fb57600088888360ff1681811061156b5761156b6126c9565b61158192602060409092020190810191506126df565b600281111561159257611592612333565b0361163d5787878260ff168181106115ac576115ac6126c9565b9050604002016020013560008085815260200190815260200160002060000154106116195760405162461bcd60e51b815260206004820152601960248201527f5472616e73616374696f6e206c696d697420726561636865640000000000000060448201526064016104a5565b600083815260208190526040812080549161163383612716565b91905055506117e9565b600188888360ff16818110611654576116546126c9565b61166a92602060409092020190810191506126df565b600281111561167b5761167b612333565b036117345787878260ff16818110611695576116956126c9565b9050604002016020013586600080868152602001908152602001600020600101546116c0919061272f565b11156116ff576000838152602081905260409020600101546116e390879061272f565b6040516320435cc160e01b81526004016104a591815260200190565b8161172f576000838152602081905260408120600101805488929061172590849061272f565b9091555060019250505b6117e9565b600288888360ff1681811061174b5761174b6126c9565b61176192602060409092020190810191506126df565b600281111561177257611772612333565b036117e95787878260ff1681811061178c5761178c6126c9565b905060400201602001358611156117b95760405163da56a10960e01b8152600481018790526024016104a5565b816117e957600083815260208190526040812060010180548892906117df90849061272f565b9091555060019250505b806117f381612742565b915050611549565b50600082815260208190526040812060029081015460ff169081111561182357611823612333565b03611845576000828152602081905260409020600201805460ff191660011790555b50505050505050565b804710156118715760405163cd78605960e01b81523060048201526024016104a5565b6000826001600160a01b03168260405160006040518083038185875af1925050503d80600081146118be576040519150601f19603f3d011682016040523d82523d6000602084013e6118c3565b606091505b50509050806118e557604051630a12f52160e11b815260040160405180910390fd5b505050565b60016000805160206129c683398151915255565b33611907610ac6565b6001600160a01b0316146109805760405163118cdaa760e01b81523360048201526024016104a5565b611938611d80565b6000805160206129a6833981519152805460ff191681557f5db9ee0a495bf2e6ff9c91a7834c1ba4fdd244a5e8aa4e537bd38aeae4b073aa335b6040516001600160a01b03909116815260200160405180910390a150565b7f9016d09d72d40fdae2fd8ceac6b6234c7706214fd39c1cd1e609a0528c19930080546001600160a01b031981166001600160a01b03848116918217845560405192169182907f8be0079c531659141344cd1fd0a4f28419497f9722a3daafe3b4186f6b6457e090600090a3505050565b611a096113a0565b6000805160206129a6833981519152805460ff191660011781557f62e78cea01bee320cd4e420270b5ea74000d11b0c9f74754ebdbfc544b05a25833611972565b7fa16a46d94261c7517cc8ff89f61c0ce93598e3c849801011dee649a6a557d102805460609160008051602061293b83398151915291611a8990612761565b80601f0160208091040260200160405190810160405280929190818152602001828054611ab590612761565b8015611b025780601f10611ad757610100808354040283529160200191611b02565b820191906000526020600020905b815481529060010190602001808311611ae557829003601f168201915b505050505091505090565b7fa16a46d94261c7517cc8ff89f61c0ce93598e3c849801011dee649a6a557d103805460609160008051602061293b83398151915291611a8990612761565b611b54611db0565b610faf81611df9565b611b65611db0565b610980611e01565b611b75611db0565b610980611e09565b611b85611db0565b6108d78282611e2a565b6000808267ffffffffffffffff811115611bab57611bab61238c565b604051908082528060200260200182016040528015611bd4578160200160208202803683370190505b50905060005b60ff8116841115611c3a57611c0885858360ff16818110611bfd57611bfd6126c9565b905060400201611e8b565b828260ff1681518110611c1d57611c1d6126c9565b602090810291909101015280611c3281612742565b915050611bda565b5080604051602001611c4c9190612795565b6040516020818303038152906040528051906020012091505092915050565b6000611c75611ef2565b905090565b60008060008351604103611cb45760208401516040850151606086015160001a611ca688828585611f66565b955095509550505050611cc0565b50508151600091506002905b9250925092565b6000826003811115611cdb57611cdb612333565b03611ce4575050565b6001826003811115611cf857611cf8612333565b03611d165760405163f645eedf60e01b815260040160405180910390fd5b6002826003811115611d2a57611d2a612333565b03611d4b5760405163fce698f760e01b8152600481018290526024016104a5565b6003826003811115611d5f57611d5f612333565b036108d7576040516335e2f38360e21b8152600481018290526024016104a5565b6000805160206129a68339815191525460ff1661098057604051638dfc202b60e01b815260040160405180910390fd5b7ff0c57e16840df040f15088dc2f81fe391c3923bec73e23a9662efc9c229c6a0054600160401b900460ff1661098057604051631afcd79f60e31b815260040160405180910390fd5b610f7c611db0565b6118ea611db0565b611e11611db0565b6000805160206129a6833981519152805460ff19169055565b611e32611db0565b60008051602061293b8339815191527fa16a46d94261c7517cc8ff89f61c0ce93598e3c849801011dee649a6a557d102611e6c8482612813565b5060038101611e7b8382612813565b5060008082556001909101555050565b60006040518060600160405280602a8152602001612911602a9139604051602001611eb691906128d3565b60408051601f19818403018152919052805160209182012090611edb908401846126df565b83602001356040516020016114b4939291906128ef565b60007f8b73c3c69bb8fe3d512ecc4cf759cc79239f7b179b0ffacaa9a75d522b39400f611f1d612035565b611f2561209f565b60408051602081019490945283019190915260608201524660808201523060a082015260c00160405160208183030381529060405280519060200120905090565b600080807f7fffffffffffffffffffffffffffffff5d576e7357a4501ddfe92f46681b20a0841115611fa1575060009150600390508261202b565b604080516000808252602082018084528a905260ff891692820192909252606081018790526080810186905260019060a0016020604051602081039080840390855afa158015611ff5573d6000803e3d6000fd5b5050604051601f1901519150506001600160a01b0381166120215750600092506001915082905061202b565b9250600091508190505b9450945094915050565b600060008051602061293b8339815191528161204f611a4a565b80519091501561206757805160209091012092915050565b81548015612076579392505050565b7fc5d2460186f7233c927e7db2dcc703c0e500b653ca82273b7bfad8045d85a470935050505090565b600060008051602061293b833981519152816120b9611b0d565b8051909150156120d157805160209091012092915050565b60018201548015612076579392505050565b80356001600160a01b03811681146120fa57600080fd5b919050565b60006060828403121561211157600080fd5b50919050565b60008083601f84011261212957600080fd5b50813567ffffffffffffffff81111561214157600080fd5b60208301915083602082850101111561215957600080fd5b9250929050565b60008060008060006080868803121561217857600080fd5b612181866120e3565b945060208601359350604086013567ffffffffffffffff808211156121a557600080fd5b6121b189838a016120ff565b945060608801359150808211156121c757600080fd5b506121d488828901612117565b969995985093965092949392505050565b600080604083850312156121f857600080fd5b612201836120e3565b946020939093013593505050565b60006020828403121561222157600080fd5b61222a826120e3565b9392505050565b60005b8381101561224c578181015183820152602001612234565b50506000910152565b6000815180845261226d816020860160208601612231565b601f01601f19169290920160200192915050565b60ff60f81b881681526000602060e060208401526122a260e084018a612255565b83810360408501526122b4818a612255565b606085018990526001600160a01b038816608086015260a0850187905284810360c08601528551808252602080880193509091019060005b81811015612308578351835292840192918401916001016122ec565b50909c9b505050505050505050505050565b60006020828403121561232c57600080fd5b5035919050565b634e487b7160e01b600052602160045260246000fd5b60038110610faf57634e487b7160e01b600052602160045260246000fd5b838152602081018390526060810161237e83612349565b826040830152949350505050565b634e487b7160e01b600052604160045260246000fd5b6000602082840312156123b457600080fd5b813567ffffffffffffffff808211156123cc57600080fd5b818401915084601f8301126123e057600080fd5b8135818111156123f2576123f261238c565b604051601f8201601f19908116603f0116810190838211818310171561241a5761241a61238c565b8160405282815287602084870101111561243357600080fd5b826020860160208301376000928101602001929092525095945050505050565b60008060006040848603121561246857600080fd5b833567ffffffffffffffff81111561247f57600080fd5b61248b86828701612117565b909450925061249e9050602085016120e3565b90509250925092565b6000806000606084860312156124bc57600080fd5b6124c5846120e3565b92506124d3602085016120e3565b915061249e604085016120e3565b60008060008060008060a087890312156124fa57600080fd5b612503876120e3565b9550612511602088016120e3565b945060408701359350606087013567ffffffffffffffff8082111561253557600080fd5b6125418a838b016120ff565b9450608089013591508082111561255757600080fd5b5061256489828a01612117565b979a9699509497509295939492505050565b8183823760009101908152919050565b6020808252818101527f416d6f756e74206d7573742062652067726561746572207468616e207a65726f604082015260600190565b6000808335601e198436030181126125d257600080fd5b83018035915067ffffffffffffffff8211156125ed57600080fd5b6020019150600681901b360382131561215957600080fd5b6020808252601190820152702ab739bab83837b93a32b2103a37b5b2b760791b604082015260600190565b60006020828403121561264257600080fd5b8151801515811461222a57600080fd5b60006020828403121561266457600080fd5b5051919050565b60208152816020820152818360408301376000818301604090810191909152601f909201601f19160101919050565b600083516126ac818460208801612231565b8351908301906126c0818360208801612231565b01949350505050565b634e487b7160e01b600052603260045260246000fd5b6000602082840312156126f157600080fd5b81356003811061222a57600080fd5b634e487b7160e01b600052601160045260246000fd5b60006001820161272857612728612700565b5060010190565b8082018082111561096a5761096a612700565b600060ff821660ff810361275857612758612700565b60010192915050565b600181811c9082168061277557607f821691505b60208210810361211157634e487b7160e01b600052602260045260246000fd5b815160009082906020808601845b838110156127bf578151855293820193908201906001016127a3565b50929695505050505050565b601f8211156118e5576000816000526020600020601f850160051c810160208610156127f45750805b601f850160051c820191505b8181101561139857828155600101612800565b815167ffffffffffffffff81111561282d5761282d61238c565b6128418161283b8454612761565b846127cb565b602080601f831160018114612876576000841561285e5750858301515b600019600386901b1c1916600185901b178555611398565b600085815260208120601f198616915b828110156128a557888601518255948401946001909101908401612886565b50858210156128c35787850151600019600388901b60f8161c191681555b5050505050600190811b01905550565b600082516128e5818460208701612231565b9190910192915050565b838152606081016128ff84612349565b60208201939093526040015291905056fe427564676574446174612875696e743820627564676574547970652c75696e743235362076616c756529a16a46d94261c7517cc8ff89f61c0ce93598e3c849801011dee649a6a557d1004275646765744c696d6974286164647265737320617070726f766564416464726573732c427564676574446174615b5d20627564676574446174612c75696e743235362065787069727929cd5ed15c6e187e77e9aee88184c21f4f2182ab5827cb3b7e07fbedcd63f033009b779b17422d0df92223018b32b4d1fa46e071723d6817e2486d003becc55f00a2646970667358221220f1e63b3f535b12e64deb8f8931a9b30bf91d7439370768ec972a7cd2db31132264736f6c63430008180033",
  "linkReferences": {},
  "deployedLinkReferences": {}
}