{
  "_format": "hh-sol-artifact-1",
  "contractName": "ExpenseAccountEIP712",
  "sourceName": "contracts/expense-account/ExpenseAccountEIP712.sol",
  "abi": [
    {
      "inputs": [
        {
          "internalType": "address",
          "name": "account",
          "type": "address"
        }
      ],
      "name": "AddressInsufficientBalance",
      "type": "error"
    },
    {
      "inputs": [
        {
          "internalType": "uint256",
          "name": "amount",
          "type": "uint256"
        }
      ],
      "name": "AmountPerPeriodExceeded",
      "type": "error"
    },
    {
      "inputs": [
        {
          "internalType": "uint256",
          "name": "amount",
          "type": "uint256"
        }
      ],
      "name": "AmountPerTransactionExceeded",
      "type": "error"
    },
    {
      "inputs": [],
      "name": "ECDSAInvalidSignature",
      "type": "error"
    },
    {
      "inputs": [
        {
          "internalType": "uint256",
          "name": "length",
          "type": "uint256"
        }
      ],
      "name": "ECDSAInvalidSignatureLength",
      "type": "error"
    },
    {
      "inputs": [
        {
          "internalType": "bytes32",
          "name": "s",
          "type": "bytes32"
        }
      ],
      "name": "ECDSAInvalidSignatureS",
      "type": "error"
    },
    {
      "inputs": [],
      "name": "EnforcedPause",
      "type": "error"
    },
    {
      "inputs": [],
      "name": "ExpectedPause",
      "type": "error"
    },
    {
      "inputs": [],
      "name": "FailedInnerCall",
      "type": "error"
    },
    {
      "inputs": [],
      "name": "InvalidInitialization",
      "type": "error"
    },
    {
      "inputs": [],
      "name": "NotInitializing",
      "type": "error"
    },
    {
      "inputs": [
        {
          "internalType": "address",
          "name": "owner",
          "type": "address"
        }
      ],
      "name": "OwnableInvalidOwner",
      "type": "error"
    },
    {
      "inputs": [
        {
          "internalType": "address",
          "name": "account",
          "type": "address"
        }
      ],
      "name": "OwnableUnauthorizedAccount",
      "type": "error"
    },
    {
      "inputs": [],
      "name": "ReentrancyGuardReentrantCall",
      "type": "error"
    },
    {
      "inputs": [
        {
          "internalType": "address",
          "name": "expected",
          "type": "address"
        },
        {
          "internalType": "address",
          "name": "received",
          "type": "address"
        }
      ],
      "name": "UnauthorizedAccess",
      "type": "error"
    },
    {
      "anonymous": false,
      "inputs": [
        {
          "indexed": true,
          "internalType": "bytes32",
          "name": "signatureHash",
          "type": "bytes32"
        }
      ],
      "name": "ApprovalActivated",
      "type": "event"
    },
    {
      "anonymous": false,
      "inputs": [
        {
          "indexed": true,
          "internalType": "bytes32",
          "name": "signatureHash",
          "type": "bytes32"
        }
      ],
      "name": "ApprovalDeactivated",
      "type": "event"
    },
    {
      "anonymous": false,
      "inputs": [
        {
          "indexed": true,
          "internalType": "address",
          "name": "depositor",
          "type": "address"
        },
        {
          "indexed": false,
          "internalType": "uint256",
          "name": "amount",
          "type": "uint256"
        }
      ],
      "name": "Deposited",
      "type": "event"
    },
    {
      "anonymous": false,
      "inputs": [],
      "name": "EIP712DomainChanged",
      "type": "event"
    },
    {
      "anonymous": false,
      "inputs": [
        {
          "indexed": false,
          "internalType": "uint64",
          "name": "version",
          "type": "uint64"
        }
      ],
      "name": "Initialized",
      "type": "event"
    },
    {
      "anonymous": false,
      "inputs": [
        {
          "indexed": true,
          "internalType": "address",
          "name": "previousOwner",
          "type": "address"
        },
        {
          "indexed": true,
          "internalType": "address",
          "name": "newOwner",
          "type": "address"
        }
      ],
      "name": "OwnershipTransferred",
      "type": "event"
    },
    {
      "anonymous": false,
      "inputs": [
        {
          "indexed": false,
          "internalType": "address",
          "name": "account",
          "type": "address"
        }
      ],
      "name": "Paused",
      "type": "event"
    },
    {
      "anonymous": false,
      "inputs": [
        {
          "indexed": true,
          "internalType": "address",
          "name": "addressWhoChanged",
          "type": "address"
        },
        {
          "indexed": false,
          "internalType": "string",
          "name": "tokenSymbol",
          "type": "string"
        },
        {
          "indexed": true,
          "internalType": "address",
          "name": "oldAddress",
          "type": "address"
        },
        {
          "indexed": true,
          "internalType": "address",
          "name": "newAddress",
          "type": "address"
        }
      ],
      "name": "TokenAddressChanged",
      "type": "event"
    },
    {
      "anonymous": false,
      "inputs": [
        {
          "indexed": true,
          "internalType": "address",
          "name": "depositor",
          "type": "address"
        },
        {
          "indexed": true,
          "internalType": "address",
          "name": "token",
          "type": "address"
        },
        {
          "indexed": false,
          "internalType": "uint256",
          "name": "amount",
          "type": "uint256"
        }
      ],
      "name": "TokenDeposited",
      "type": "event"
    },
    {
      "anonymous": false,
      "inputs": [
        {
          "indexed": true,
          "internalType": "address",
          "name": "withdrawer",
          "type": "address"
        },
        {
          "indexed": true,
          "internalType": "address",
          "name": "to",
          "type": "address"
        },
        {
          "indexed": true,
          "internalType": "address",
          "name": "token",
          "type": "address"
        },
        {
          "indexed": false,
          "internalType": "uint256",
          "name": "amount",
          "type": "uint256"
        }
      ],
      "name": "TokenTransfer",
      "type": "event"
    },
    {
      "anonymous": false,
      "inputs": [
        {
          "indexed": true,
          "internalType": "address",
          "name": "withdrawer",
          "type": "address"
        },
        {
          "indexed": true,
          "internalType": "address",
          "name": "to",
          "type": "address"
        },
        {
          "indexed": false,
          "internalType": "uint256",
          "name": "amount",
          "type": "uint256"
        }
      ],
      "name": "Transfer",
      "type": "event"
    },
    {
      "anonymous": false,
      "inputs": [
        {
          "indexed": false,
          "internalType": "address",
          "name": "account",
          "type": "address"
        }
      ],
      "name": "Unpaused",
      "type": "event"
    },
    {
      "inputs": [
        {
          "internalType": "bytes32",
          "name": "signatureHash",
          "type": "bytes32"
        }
      ],
      "name": "activateApproval",
      "outputs": [],
      "stateMutability": "nonpayable",
      "type": "function"
    },
    {
      "inputs": [
        {
          "internalType": "bytes32",
          "name": "",
          "type": "bytes32"
        }
      ],
      "name": "balances",
      "outputs": [
        {
          "internalType": "uint256",
          "name": "transactionCount",
          "type": "uint256"
        },
        {
          "internalType": "uint256",
          "name": "amountWithdrawn",
          "type": "uint256"
        },
        {
          "internalType": "enum ExpenseAccountEIP712.ApprovalState",
          "name": "state",
          "type": "uint8"
        }
      ],
      "stateMutability": "view",
      "type": "function"
    },
    {
      "inputs": [
        {
          "internalType": "string",
          "name": "symbol",
          "type": "string"
        },
        {
          "internalType": "address",
          "name": "newAddress",
          "type": "address"
        }
      ],
      "name": "changeTokenAddress",
      "outputs": [],
      "stateMutability": "nonpayable",
      "type": "function"
    },
    {
      "inputs": [
        {
          "internalType": "bytes32",
          "name": "signatureHash",
          "type": "bytes32"
        }
      ],
      "name": "deactivateApproval",
      "outputs": [],
      "stateMutability": "nonpayable",
      "type": "function"
    },
    {
      "inputs": [
        {
          "internalType": "address",
          "name": "token",
          "type": "address"
        },
        {
          "internalType": "uint256",
          "name": "amount",
          "type": "uint256"
        }
      ],
      "name": "depositToken",
      "outputs": [],
      "stateMutability": "nonpayable",
      "type": "function"
    },
    {
      "inputs": [],
      "name": "eip712Domain",
      "outputs": [
        {
          "internalType": "bytes1",
          "name": "fields",
          "type": "bytes1"
        },
        {
          "internalType": "string",
          "name": "name",
          "type": "string"
        },
        {
          "internalType": "string",
          "name": "version",
          "type": "string"
        },
        {
          "internalType": "uint256",
          "name": "chainId",
          "type": "uint256"
        },
        {
          "internalType": "address",
          "name": "verifyingContract",
          "type": "address"
        },
        {
          "internalType": "bytes32",
          "name": "salt",
          "type": "bytes32"
        },
        {
          "internalType": "uint256[]",
          "name": "extensions",
          "type": "uint256[]"
        }
      ],
      "stateMutability": "view",
      "type": "function"
    },
    {
      "inputs": [],
      "name": "getBalance",
      "outputs": [
        {
          "internalType": "uint256",
          "name": "",
          "type": "uint256"
        }
      ],
      "stateMutability": "view",
      "type": "function"
    },
    {
      "inputs": [
        {
          "internalType": "address",
          "name": "token",
          "type": "address"
        }
      ],
      "name": "getTokenBalance",
      "outputs": [
        {
          "internalType": "uint256",
          "name": "",
          "type": "uint256"
        }
      ],
      "stateMutability": "view",
      "type": "function"
    },
    {
      "inputs": [
        {
          "internalType": "address",
          "name": "owner",
          "type": "address"
        },
        {
          "internalType": "address",
          "name": "_usdtAddress",
          "type": "address"
        },
        {
          "internalType": "address",
          "name": "_usdcAddress",
          "type": "address"
        }
      ],
      "name": "initialize",
      "outputs": [],
      "stateMutability": "nonpayable",
      "type": "function"
    },
    {
      "inputs": [
        {
          "internalType": "address",
          "name": "_token",
          "type": "address"
        }
      ],
      "name": "isTokenSupported",
      "outputs": [
        {
          "internalType": "bool",
          "name": "",
          "type": "bool"
        }
      ],
      "stateMutability": "view",
      "type": "function"
    },
    {
      "inputs": [],
      "name": "owner",
      "outputs": [
        {
          "internalType": "address",
          "name": "",
          "type": "address"
        }
      ],
      "stateMutability": "view",
      "type": "function"
    },
    {
      "inputs": [],
      "name": "pause",
      "outputs": [],
      "stateMutability": "nonpayable",
      "type": "function"
    },
    {
      "inputs": [],
      "name": "paused",
      "outputs": [
        {
          "internalType": "bool",
          "name": "",
          "type": "bool"
        }
      ],
      "stateMutability": "view",
      "type": "function"
    },
    {
      "inputs": [],
      "name": "renounceOwnership",
      "outputs": [],
      "stateMutability": "nonpayable",
      "type": "function"
    },
    {
      "inputs": [
        {
          "internalType": "string",
          "name": "",
          "type": "string"
        }
      ],
      "name": "supportedTokens",
      "outputs": [
        {
          "internalType": "address",
          "name": "",
          "type": "address"
        }
      ],
      "stateMutability": "view",
      "type": "function"
    },
    {
      "inputs": [
        {
          "internalType": "address",
          "name": "to",
          "type": "address"
        },
        {
          "internalType": "uint256",
          "name": "amount",
          "type": "uint256"
        },
        {
          "components": [
            {
              "internalType": "address",
              "name": "approvedAddress",
              "type": "address"
            },
            {
              "components": [
                {
                  "internalType": "enum ExpenseAccountEIP712.BudgetType",
                  "name": "budgetType",
                  "type": "uint8"
                },
                {
                  "internalType": "uint256",
                  "name": "value",
                  "type": "uint256"
                },
                {
                  "internalType": "address",
                  "name": "token",
                  "type": "address"
                }
              ],
              "internalType": "struct ExpenseAccountEIP712.BudgetData[]",
              "name": "budgetData",
              "type": "tuple[]"
            },
            {
              "internalType": "uint256",
              "name": "expiry",
              "type": "uint256"
            }
          ],
          "internalType": "struct ExpenseAccountEIP712.BudgetLimit",
          "name": "limit",
          "type": "tuple"
        },
        {
          "internalType": "bytes",
          "name": "signature",
          "type": "bytes"
        }
      ],
      "name": "transfer",
      "outputs": [],
      "stateMutability": "nonpayable",
      "type": "function"
    },
    {
      "inputs": [
        {
          "internalType": "address",
          "name": "newOwner",
          "type": "address"
        }
      ],
      "name": "transferOwnership",
      "outputs": [],
      "stateMutability": "nonpayable",
      "type": "function"
    },
    {
      "inputs": [
        {
          "internalType": "address",
          "name": "to",
          "type": "address"
        },
        {
          "internalType": "address",
          "name": "token",
          "type": "address"
        },
        {
          "internalType": "uint256",
          "name": "amount",
          "type": "uint256"
        },
        {
          "components": [
            {
              "internalType": "address",
              "name": "approvedAddress",
              "type": "address"
            },
            {
              "components": [
                {
                  "internalType": "enum ExpenseAccountEIP712.BudgetType",
                  "name": "budgetType",
                  "type": "uint8"
                },
                {
                  "internalType": "uint256",
                  "name": "value",
                  "type": "uint256"
                },
                {
                  "internalType": "address",
                  "name": "token",
                  "type": "address"
                }
              ],
              "internalType": "struct ExpenseAccountEIP712.BudgetData[]",
              "name": "budgetData",
              "type": "tuple[]"
            },
            {
              "internalType": "uint256",
              "name": "expiry",
              "type": "uint256"
            }
          ],
          "internalType": "struct ExpenseAccountEIP712.BudgetLimit",
          "name": "limit",
          "type": "tuple"
        },
        {
          "internalType": "bytes",
          "name": "signature",
          "type": "bytes"
        }
      ],
      "name": "transferToken",
      "outputs": [],
      "stateMutability": "nonpayable",
      "type": "function"
    },
    {
      "inputs": [],
      "name": "unpause",
      "outputs": [],
      "stateMutability": "nonpayable",
      "type": "function"
    },
    {
      "stateMutability": "payable",
      "type": "receive"
    }
  ],
  "bytecode": "0x608060405234801561001057600080fd5b50612a9f806100206000396000f3fe6080604052600436106101185760003560e01c806384b0196e116100a0578063b42375f411610064578063b42375f414610371578063bccb212a14610391578063c0c53b8b146103b1578063de982534146103d1578063f2fde38b146103f157600080fd5b806384b0196e1461026d5780638909aa3f1461029557806389919cdd146102e35780638da5cb5b1461033c578063ab38a4851461035157600080fd5b80635bb963b5116100e75780635bb963b5146101d25780635c975abb146101f2578063715018a61461022357806375151b63146102385780638456cb591461025857600080fd5b806312065fe014610159578063338b5dea1461017b5780633aecd0e31461019d5780633f4ba83a146101bd57600080fd5b366101545760405134815233907f2da466a7b24304f47e87fa2e1e5a81b9831ce54fec19055ce277ca2f39ba42c49060200160405180910390a2005b600080fd5b34801561016557600080fd5b50475b6040519081526020015b60405180910390f35b34801561018757600080fd5b5061019b610196366004612163565b610411565b005b3480156101a957600080fd5b506101686101b836600461218d565b610585565b3480156101c957600080fd5b5061019b61061a565b3480156101de57600080fd5b5061019b6101ed366004612210565b61062c565b3480156101fe57600080fd5b506000805160206129f28339815191525460ff165b6040519015158152602001610172565b34801561022f57600080fd5b5061019b610988565b34801561024457600080fd5b5061021361025336600461218d565b61099a565b34801561026457600080fd5b5061019b610a10565b34801561027957600080fd5b50610282610a20565b60405161017297969594939291906122e5565b3480156102a157600080fd5b506102d46102b036600461237e565b60006020819052908152604090208054600182015460029092015490919060ff1683565b604051610172939291906123cb565b3480156102ef57600080fd5b506103246102fe366004612406565b80516020818301810180516001825292820191909301209152546001600160a01b031681565b6040516001600160a01b039091168152602001610172565b34801561034857600080fd5b50610324610acc565b34801561035d57600080fd5b5061019b61036c3660046124b7565b610afa565b34801561037d57600080fd5b5061019b61038c36600461250b565b610cfb565b34801561039d57600080fd5b5061019b6103ac36600461237e565b6110f2565b3480156103bd57600080fd5b5061019b6103cc3660046125a0565b611142565b3480156103dd57600080fd5b5061019b6103ec36600461237e565b611323565b3480156103fd57600080fd5b5061019b61040c36600461218d565b611371565b6104196113af565b6104216113e7565b61042a8261099a565b61044f5760405162461bcd60e51b8152600401610446906125da565b60405180910390fd5b6000811161046f5760405162461bcd60e51b815260040161044690612605565b6040516323b872dd60e01b8152336004820152306024820152604481018290526001600160a01b038316906323b872dd906064016020604051808303816000875af11580156104c2573d6000803e3d6000fd5b505050506040513d601f19601f820116820180604052508101906104e6919061263a565b61052a5760405162461bcd60e51b8152602060048201526015602482015274151bdad95b881d1c985b9cd9995c8819985a5b1959605a1b6044820152606401610446565b6040518181526001600160a01b0383169033907ff1444b5cad7ce70cb018d1b8edc8618fe303f3c7f034d8d572a6e27facbf2bef9060200160405180910390a36105816001600080516020612a1283398151915255565b5050565b60006105908261099a565b6105ac5760405162461bcd60e51b8152600401610446906125da565b6040516370a0823160e01b81523060048201526001600160a01b038316906370a0823190602401602060405180830381865afa1580156105f0573d6000803e3d6000fd5b505050506040513d601f19601f82011682018060405250810190610614919061265c565b92915050565b61062261142c565b61062a61145e565b565b6106346113e7565b61063c6113af565b60026000808484604051610651929190612675565b6040805191829003909120825260208201929092520160002060029081015460ff169081111561068357610683612397565b036106c45760405162461bcd60e51b8152602060048201526011602482015270417070726f76616c20696e61637469766560781b6044820152606401610446565b6106d1602084018461218d565b6001600160a01b0316336001600160a01b03161461072b5760405162461bcd60e51b815260206004820152601760248201527615da5d1a191c985dd95c881b9bdd08185c1c1c9bdd9959604a1b6044820152606401610446565b6001600160a01b0385166107745760405162461bcd60e51b815260206004820152601060248201526f1059191c995cdcc81c995c5d5a5c995960821b6044820152606401610446565b600084116107945760405162461bcd60e51b815260040161044690612605565b60006107a36020850185612685565b9050116107e65760405162461bcd60e51b8152602060048201526011602482015270456d70747920627564676574206461746160781b6044820152606401610446565b60006107f96107f4856114be565b611586565b9050600061083f84848080601f01602080910402602001604051908101604052809392919081815260200183838082843760009201919091525086939250506115b39050565b9050610849610acc565b6001600160a01b0316816001600160a01b03161461089657610869610acc565b604051634116c50f60e01b81526001600160a01b0391821660048201529082166024820152604401610446565b84604001354211156108e25760405162461bcd60e51b8152602060048201526015602482015274105d5d1a1bdc9a5e985d1a5bdb88195e1c1a5c9959605a1b6044820152606401610446565b6108fc6108f26020870187612685565b88878760006115dd565b61090f6001600160a01b03881687611947565b6001600160a01b038716610926602087018761218d565b6001600160a01b03167fddf252ad1be2c89b69c2b068fc378daa952ba7f163c4a11628f55a4df523b3ef8860405161096091815260200190565b60405180910390a350506109816001600080516020612a1283398151915255565b5050505050565b61099061142c565b61062a60006119e3565b600060016040516109b590631554d11560e21b815260040190565b908152604051908190036020019020546001600160a01b03838116911614806106145750604051635553444360e01b8152600190600401908152604051908190036020019020546001600160a01b0383811691161492915050565b610a1861142c565b61062a611a54565b600060608082808083816000805160206129878339815191528054909150158015610a4d57506001810154155b610a915760405162461bcd60e51b81526020600482015260156024820152741152540dcc4c8e88155b9a5b9a5d1a585b1a5e9959605a1b6044820152606401610446565b610a99611a9d565b610aa1611b60565b60408051600080825260208201909252600f60f81b9c939b5091995046985030975095509350915050565b7f9016d09d72d40fdae2fd8ceac6b6234c7706214fd39c1cd1e609a0528c199300546001600160a01b031690565b610b0261142c565b610b0a6113e7565b6001600160a01b038116610b595760405162461bcd60e51b8152602060048201526016602482015275416464726573732063616e6e6f74206265207a65726f60501b6044820152606401610446565b604051631554d11560e21b6020820152602401604051602081830303815290604052805190602001208383604051602001610b95929190612675565b604051602081830303815290604052805190602001201480610c065750604051635553444360e01b6020820152602401604051602081830303815290604052805190602001208383604051602001610bee929190612675565b60405160208183030381529060405280519060200120145b610c495760405162461bcd60e51b8152602060048201526014602482015273125b9d985b1a59081d1bdad95b881cde5b589bdb60621b6044820152606401610446565b600060018484604051610c5d929190612675565b908152604051908190036020018120546001600160a01b031691508290600190610c8a9087908790612675565b90815260405190819003602001812080546001600160a01b039384166001600160a01b03199091161790558382169183169033907ffa0e1aca71e09b7065691fdf3ee6adb50937ef393f5e4c3fca1235dd97702f8c90610ced90899089906126ce565b60405180910390a450505050565b610d036113e7565b610d0b6113af565b610d148561099a565b610d305760405162461bcd60e51b8152600401610446906125da565b60026000808484604051610d45929190612675565b6040805191829003909120825260208201929092520160002060029081015460ff1690811115610d7757610d77612397565b03610db85760405162461bcd60e51b8152602060048201526011602482015270417070726f76616c20696e61637469766560781b6044820152606401610446565b610dc5602084018461218d565b6001600160a01b0316336001600160a01b031614610e1f5760405162461bcd60e51b815260206004820152601760248201527615da5d1a191c985dd95c881b9bdd08185c1c1c9bdd9959604a1b6044820152606401610446565b6001600160a01b038616610e685760405162461bcd60e51b815260206004820152601060248201526f1059191c995cdcc81c995c5d5a5c995960821b6044820152606401610446565b60008411610e885760405162461bcd60e51b815260040161044690612605565b6000610e976020850185612685565b905011610eda5760405162461bcd60e51b8152602060048201526011602482015270456d70747920627564676574206461746160781b6044820152606401610446565b6000610ee86107f4856114be565b90506000610f2e84848080601f01602080910402602001604051908101604052809392919081815260200183838082843760009201919091525086939250506115b39050565b9050610f38610acc565b6001600160a01b0316816001600160a01b031614610f5857610869610acc565b8460400135421115610fa45760405162461bcd60e51b8152602060048201526015602482015274105d5d1a1bdc9a5e985d1a5bdb88195e1c1a5c9959605a1b6044820152606401610446565b610fbd610fb46020870187612685565b8887878c6115dd565b60405163a9059cbb60e01b81526001600160a01b0389811660048301526024820188905288169063a9059cbb906044016020604051808303816000875af115801561100c573d6000803e3d6000fd5b505050506040513d601f19601f82011682018060405250810190611030919061263a565b6110745760405162461bcd60e51b8152602060048201526015602482015274151bdad95b881d1c985b9cd9995c8819985a5b1959605a1b6044820152606401610446565b6001600160a01b0380881690891661108f602088018861218d565b6001600160a01b03167fae33cb06d7303f889d953bb09540983050163c1c4c98b330db432a911cfb63fd896040516110c991815260200190565b60405180910390a450506110ea6001600080516020612a1283398151915255565b505050505050565b6110fa61142c565b6000818152602081905260408082206002908101805460ff191690911790555182917fe7d3eeb38329f442545ad499afa197225d3b880a08e091ad2c2c244d6236fa0e91a250565b7ff0c57e16840df040f15088dc2f81fe391c3923bec73e23a9662efc9c229c6a008054600160401b810460ff16159067ffffffffffffffff166000811580156111885750825b905060008267ffffffffffffffff1660011480156111a55750303b155b9050811580156111b3575080155b156111d15760405163f92ee8a960e01b815260040160405180910390fd5b845467ffffffffffffffff1916600117855583156111fb57845460ff60401b1916600160401b1785555b61120488611b9f565b61120c611bb0565b611214611bc0565b6112606040518060400160405280601181526020017010d390d15e1c195b9cd95058d8dbdd5b9d607a1b815250604051806040016040528060018152602001603160f81b815250611bd0565b86600160405161127a90631554d11560e21b815260040190565b9081526040805191829003602001822080546001600160a01b039485166001600160a01b031991821617909155635553444360e01b835260016004840152905191829003602401909120805492891692909116919091179055831561131957845460ff60401b19168555604051600181527fc7f505b2f371ae2175ee4913f4499e1f2633a7b5936321eed1cdaeb6115181d29060200160405180910390a15b5050505050505050565b61132b61142c565b600081815260208190526040808220600201805460ff191660011790555182917f5e927cbcc58ec12d6f3fbe317ac4ef30466cfcdddf0be5c85eefab4670b73c3691a250565b61137961142c565b6001600160a01b0381166113a357604051631e4fbdf760e01b815260006004820152602401610446565b6113ac816119e3565b50565b600080516020612a128339815191528054600119016113e157604051633ee5aeb560e01b815260040160405180910390fd5b60029055565b6000805160206129f28339815191525460ff161561062a5760405163d93c066560e01b815260040160405180910390fd5b6001600080516020612a1283398151915255565b33611435610acc565b6001600160a01b03161461062a5760405163118cdaa760e01b8152336004820152602401610446565b611466611be2565b6000805160206129f2833981519152805460ff191681557f5db9ee0a495bf2e6ff9c91a7834c1ba4fdd244a5e8aa4e537bd38aeae4b073aa335b6040516001600160a01b03909116815260200160405180910390a150565b60006040518060800160405280604b81526020016129a7604b9139604051806060016040528060388152602001612a32603891396040516020016115039291906126fd565b60408051601f198184030181529190528051602091820120906115289084018461218d565b61153d6115386020860186612685565b611c12565b6040805160208101949094526001600160a01b03909216838301526060830152830135608082015260a0015b604051602081830303815290604052805190602001209050919050565b6000610614611593611cee565b8360405161190160f01b8152600281019290925260228201526042902090565b6000806000806115c38686611cfd565b9250925092506115d38282611d4a565b5090949350505050565b600083836040516115ef929190612675565b60405190819003902090506000805b60ff81168811156118f557836001600160a01b031689898360ff168181106116285761162861272c565b9050606002016040016020810190611640919061218d565b6001600160a01b0316036118e357600089898360ff168181106116655761166561272c565b61167b9260206060909202019081019150612742565b600281111561168c5761168c612397565b036117375788888260ff168181106116a6576116a661272c565b9050606002016020013560008085815260200190815260200160002060000154106117135760405162461bcd60e51b815260206004820152601960248201527f5472616e73616374696f6e206c696d69742072656163686564000000000000006044820152606401610446565b600083815260208190526040812080549161172d83612779565b91905055506118e3565b600189898360ff1681811061174e5761174e61272c565b6117649260206060909202019081019150612742565b600281111561177557611775612397565b0361182e5788888260ff1681811061178f5761178f61272c565b9050606002016020013587600080868152602001908152602001600020600101546117ba9190612792565b11156117f9576000838152602081905260409020600101546117dd908890612792565b6040516320435cc160e01b815260040161044691815260200190565b81611829576000838152602081905260408120600101805489929061181f908490612792565b9091555060019250505b6118e3565b600289898360ff168181106118455761184561272c565b61185b9260206060909202019081019150612742565b600281111561186c5761186c612397565b036118e35788888260ff168181106118865761188661272c565b905060600201602001358711156118b35760405163da56a10960e01b815260048101889052602401610446565b816118e357600083815260208190526040812060010180548992906118d9908490612792565b9091555060019250505b806118ed816127a5565b9150506115fe565b50600082815260208190526040812060029081015460ff169081111561191d5761191d612397565b0361131957506000908152602081905260409020600201805460ff19166001179055505050505050565b8047101561196a5760405163cd78605960e01b8152306004820152602401610446565b6000826001600160a01b03168260405160006040518083038185875af1925050503d80600081146119b7576040519150601f19603f3d011682016040523d82523d6000602084013e6119bc565b606091505b50509050806119de57604051630a12f52160e11b815260040160405180910390fd5b505050565b7f9016d09d72d40fdae2fd8ceac6b6234c7706214fd39c1cd1e609a0528c19930080546001600160a01b031981166001600160a01b03848116918217845560405192169182907f8be0079c531659141344cd1fd0a4f28419497f9722a3daafe3b4186f6b6457e090600090a3505050565b611a5c6113e7565b6000805160206129f2833981519152805460ff191660011781557f62e78cea01bee320cd4e420270b5ea74000d11b0c9f74754ebdbfc544b05a258336114a0565b7fa16a46d94261c7517cc8ff89f61c0ce93598e3c849801011dee649a6a557d102805460609160008051602061298783398151915291611adc906127c4565b80601f0160208091040260200160405190810160405280929190818152602001828054611b08906127c4565b8015611b555780601f10611b2a57610100808354040283529160200191611b55565b820191906000526020600020905b815481529060010190602001808311611b3857829003601f168201915b505050505091505090565b7fa16a46d94261c7517cc8ff89f61c0ce93598e3c849801011dee649a6a557d103805460609160008051602061298783398151915291611adc906127c4565b611ba7611e03565b6113ac81611e4c565b611bb8611e03565b61062a611e54565b611bc8611e03565b61062a611e5c565b611bd8611e03565b6105818282611e7d565b6000805160206129f28339815191525460ff1661062a57604051638dfc202b60e01b815260040160405180910390fd5b6000808267ffffffffffffffff811115611c2e57611c2e6123f0565b604051908082528060200260200182016040528015611c57578160200160208202803683370190505b50905060005b60ff8116841115611cbd57611c8b85858360ff16818110611c8057611c8061272c565b905060600201611ede565b828260ff1681518110611ca057611ca061272c565b602090810291909101015280611cb5816127a5565b915050611c5d565b5080604051602001611ccf91906127f8565b6040516020818303038152906040528051906020012091505092915050565b6000611cf8611f56565b905090565b60008060008351604103611d375760208401516040850151606086015160001a611d2988828585611fca565b955095509550505050611d43565b50508151600091506002905b9250925092565b6000826003811115611d5e57611d5e612397565b03611d67575050565b6001826003811115611d7b57611d7b612397565b03611d995760405163f645eedf60e01b815260040160405180910390fd5b6002826003811115611dad57611dad612397565b03611dce5760405163fce698f760e01b815260048101829052602401610446565b6003826003811115611de257611de2612397565b03610581576040516335e2f38360e21b815260048101829052602401610446565b7ff0c57e16840df040f15088dc2f81fe391c3923bec73e23a9662efc9c229c6a0054600160401b900460ff1661062a57604051631afcd79f60e31b815260040160405180910390fd5b611379611e03565b611418611e03565b611e64611e03565b6000805160206129f2833981519152805460ff19169055565b611e85611e03565b6000805160206129878339815191527fa16a46d94261c7517cc8ff89f61c0ce93598e3c849801011dee649a6a557d102611ebf8482612876565b5060038101611ece8382612876565b5060008082556001909101555050565b6000604051806060016040528060388152602001612a3260389139604051602001611f099190612936565b60408051601f19818403018152919052805160209182012090611f2e90840184612742565b6020840135611f43606086016040870161218d565b6040516020016115699493929190612952565b60007f8b73c3c69bb8fe3d512ecc4cf759cc79239f7b179b0ffacaa9a75d522b39400f611f81612099565b611f89612103565b60408051602081019490945283019190915260608201524660808201523060a082015260c00160405160208183030381529060405280519060200120905090565b600080807f7fffffffffffffffffffffffffffffff5d576e7357a4501ddfe92f46681b20a0841115612005575060009150600390508261208f565b604080516000808252602082018084528a905260ff891692820192909252606081018790526080810186905260019060a0016020604051602081039080840390855afa158015612059573d6000803e3d6000fd5b5050604051601f1901519150506001600160a01b0381166120855750600092506001915082905061208f565b9250600091508190505b9450945094915050565b6000600080516020612987833981519152816120b3611a9d565b8051909150156120cb57805160209091012092915050565b815480156120da579392505050565b7fc5d2460186f7233c927e7db2dcc703c0e500b653ca82273b7bfad8045d85a470935050505090565b60006000805160206129878339815191528161211d611b60565b80519091501561213557805160209091012092915050565b600182015480156120da579392505050565b80356001600160a01b038116811461215e57600080fd5b919050565b6000806040838503121561217657600080fd5b61217f83612147565b946020939093013593505050565b60006020828403121561219f57600080fd5b6121a882612147565b9392505050565b6000606082840312156121c157600080fd5b50919050565b60008083601f8401126121d957600080fd5b50813567ffffffffffffffff8111156121f157600080fd5b60208301915083602082850101111561220957600080fd5b9250929050565b60008060008060006080868803121561222857600080fd5b61223186612147565b945060208601359350604086013567ffffffffffffffff8082111561225557600080fd5b61226189838a016121af565b9450606088013591508082111561227757600080fd5b50612284888289016121c7565b969995985093965092949392505050565b60005b838110156122b0578181015183820152602001612298565b50506000910152565b600081518084526122d1816020860160208601612295565b601f01601f19169290920160200192915050565b60ff60f81b881681526000602060e0602084015261230660e084018a6122b9565b8381036040850152612318818a6122b9565b606085018990526001600160a01b038816608086015260a0850187905284810360c08601528551808252602080880193509091019060005b8181101561236c57835183529284019291840191600101612350565b50909c9b505050505050505050505050565b60006020828403121561239057600080fd5b5035919050565b634e487b7160e01b600052602160045260246000fd5b600381106113ac57634e487b7160e01b600052602160045260246000fd5b83815260208101839052606081016123e2836123ad565b826040830152949350505050565b634e487b7160e01b600052604160045260246000fd5b60006020828403121561241857600080fd5b813567ffffffffffffffff8082111561243057600080fd5b818401915084601f83011261244457600080fd5b813581811115612456576124566123f0565b604051601f8201601f19908116603f0116810190838211818310171561247e5761247e6123f0565b8160405282815287602084870101111561249757600080fd5b826020860160208301376000928101602001929092525095945050505050565b6000806000604084860312156124cc57600080fd5b833567ffffffffffffffff8111156124e357600080fd5b6124ef868287016121c7565b9094509250612502905060208501612147565b90509250925092565b60008060008060008060a0878903121561252457600080fd5b61252d87612147565b955061253b60208801612147565b945060408701359350606087013567ffffffffffffffff8082111561255f57600080fd5b61256b8a838b016121af565b9450608089013591508082111561258157600080fd5b5061258e89828a016121c7565b979a9699509497509295939492505050565b6000806000606084860312156125b557600080fd5b6125be84612147565b92506125cc60208501612147565b915061250260408501612147565b6020808252601190820152702ab739bab83837b93a32b2103a37b5b2b760791b604082015260600190565b6020808252818101527f416d6f756e74206d7573742062652067726561746572207468616e207a65726f604082015260600190565b60006020828403121561264c57600080fd5b815180151581146121a857600080fd5b60006020828403121561266e57600080fd5b5051919050565b8183823760009101908152919050565b6000808335601e1984360301811261269c57600080fd5b83018035915067ffffffffffffffff8211156126b757600080fd5b602001915060608102360382131561220957600080fd5b60208152816020820152818360408301376000818301604090810191909152601f909201601f19160101919050565b6000835161270f818460208801612295565b835190830190612723818360208801612295565b01949350505050565b634e487b7160e01b600052603260045260246000fd5b60006020828403121561275457600080fd5b8135600381106121a857600080fd5b634e487b7160e01b600052601160045260246000fd5b60006001820161278b5761278b612763565b5060010190565b8082018082111561061457610614612763565b600060ff821660ff81036127bb576127bb612763565b60010192915050565b600181811c908216806127d857607f821691505b6020821081036121c157634e487b7160e01b600052602260045260246000fd5b815160009082906020808601845b8381101561282257815185529382019390820190600101612806565b50929695505050505050565b601f8211156119de576000816000526020600020601f850160051c810160208610156128575750805b601f850160051c820191505b818110156110ea57828155600101612863565b815167ffffffffffffffff811115612890576128906123f0565b6128a48161289e84546127c4565b8461282e565b602080601f8311600181146128d957600084156128c15750858301515b600019600386901b1c1916600185901b1785556110ea565b600085815260208120601f198616915b82811015612908578886015182559484019460019091019084016128e9565b50858210156129265787850151600019600388901b60f8161c191681555b5050505050600190811b01905550565b60008251612948818460208701612295565b9190910192915050565b84815260808101612962856123ad565b602082019490945260408101929092526001600160a01b031660609091015291905056fea16a46d94261c7517cc8ff89f61c0ce93598e3c849801011dee649a6a557d1004275646765744c696d6974286164647265737320617070726f766564416464726573732c427564676574446174615b5d20627564676574446174612c75696e743235362065787069727929cd5ed15c6e187e77e9aee88184c21f4f2182ab5827cb3b7e07fbedcd63f033009b779b17422d0df92223018b32b4d1fa46e071723d6817e2486d003becc55f00427564676574446174612875696e743820627564676574547970652c75696e743235362076616c75652c6164647265737320746f6b656e29a26469706673582212204253315549bf68080bc58cba7fce8fc26769fca6d542d7a52af85ee4077f29c564736f6c63430008180033",
  "linkReferences": {},
  "deployedLinkReferences": {}
}