{
  "_format": "hh-sol-artifact-1",
  "contractName": "ExpenseAccountEIP712",
  "sourceName": "contracts/expense-account/ExpenseAccountEIP712.sol",
  "abi": [
    {
      "inputs": [
        {
          "internalType": "uint256",
          "name": "amount",
          "type": "uint256"
        }
      ],
      "name": "AuthorizedAmountExceeded",
      "type": "error"
    },
    {
      "inputs": [],
      "name": "EnforcedPause",
      "type": "error"
    },
    {
      "inputs": [],
      "name": "ExpectedPause",
      "type": "error"
    },
    {
      "inputs": [],
      "name": "InvalidInitialization",
      "type": "error"
    },
    {
      "inputs": [],
      "name": "NotInitializing",
      "type": "error"
    },
    {
      "inputs": [
        {
          "internalType": "address",
          "name": "owner",
          "type": "address"
        }
      ],
      "name": "OwnableInvalidOwner",
      "type": "error"
    },
    {
      "inputs": [
        {
          "internalType": "address",
          "name": "account",
          "type": "address"
        }
      ],
      "name": "OwnableUnauthorizedAccount",
      "type": "error"
    },
    {
      "inputs": [],
      "name": "ReentrancyGuardReentrantCall",
      "type": "error"
    },
    {
      "inputs": [
        {
          "internalType": "address",
          "name": "expected",
          "type": "address"
        },
        {
          "internalType": "address",
          "name": "received",
          "type": "address"
        }
      ],
      "name": "UnauthorizedAccess",
      "type": "error"
    },
    {
      "anonymous": false,
      "inputs": [
        {
          "indexed": true,
          "internalType": "address",
          "name": "depositor",
          "type": "address"
        },
        {
          "indexed": false,
          "internalType": "uint256",
          "name": "amount",
          "type": "uint256"
        }
      ],
      "name": "Deposited",
      "type": "event"
    },
    {
      "anonymous": false,
      "inputs": [],
      "name": "EIP712DomainChanged",
      "type": "event"
    },
    {
      "anonymous": false,
      "inputs": [
        {
          "indexed": false,
          "internalType": "uint64",
          "name": "version",
          "type": "uint64"
        }
      ],
      "name": "Initialized",
      "type": "event"
    },
    {
      "anonymous": false,
      "inputs": [
        {
          "indexed": true,
          "internalType": "address",
          "name": "previousOwner",
          "type": "address"
        },
        {
          "indexed": true,
          "internalType": "address",
          "name": "newOwner",
          "type": "address"
        }
      ],
      "name": "OwnershipTransferred",
      "type": "event"
    },
    {
      "anonymous": false,
      "inputs": [
        {
          "indexed": false,
          "internalType": "address",
          "name": "account",
          "type": "address"
        }
      ],
      "name": "Paused",
      "type": "event"
    },
    {
      "anonymous": false,
      "inputs": [
        {
          "indexed": true,
          "internalType": "address",
          "name": "withdrawer",
          "type": "address"
        },
        {
          "indexed": true,
          "internalType": "address",
          "name": "to",
          "type": "address"
        },
        {
          "indexed": false,
          "internalType": "uint256",
          "name": "amount",
          "type": "uint256"
        }
      ],
      "name": "Transfer",
      "type": "event"
    },
    {
      "anonymous": false,
      "inputs": [
        {
          "indexed": false,
          "internalType": "address",
          "name": "account",
          "type": "address"
        }
      ],
      "name": "Unpaused",
      "type": "event"
    },
    {
      "inputs": [
        {
          "internalType": "bytes32",
          "name": "",
          "type": "bytes32"
        }
      ],
      "name": "balances",
      "outputs": [
        {
          "internalType": "uint256",
          "name": "transactionCount",
          "type": "uint256"
        },
        {
          "internalType": "uint256",
          "name": "amountWithdrawn",
          "type": "uint256"
        }
      ],
      "stateMutability": "view",
      "type": "function"
    },
    {
      "inputs": [],
      "name": "eip712Domain",
      "outputs": [
        {
          "internalType": "bytes1",
          "name": "fields",
          "type": "bytes1"
        },
        {
          "internalType": "string",
          "name": "name",
          "type": "string"
        },
        {
          "internalType": "string",
          "name": "version",
          "type": "string"
        },
        {
          "internalType": "uint256",
          "name": "chainId",
          "type": "uint256"
        },
        {
          "internalType": "address",
          "name": "verifyingContract",
          "type": "address"
        },
        {
          "internalType": "bytes32",
          "name": "salt",
          "type": "bytes32"
        },
        {
          "internalType": "uint256[]",
          "name": "extensions",
          "type": "uint256[]"
        }
      ],
      "stateMutability": "view",
      "type": "function"
    },
    {
      "inputs": [],
      "name": "getBalance",
      "outputs": [
        {
          "internalType": "uint256",
          "name": "",
          "type": "uint256"
        }
      ],
      "stateMutability": "view",
      "type": "function"
    },
    {
      "inputs": [
        {
          "internalType": "address",
          "name": "owner",
          "type": "address"
        }
      ],
      "name": "initialize",
      "outputs": [],
      "stateMutability": "nonpayable",
      "type": "function"
    },
    {
      "inputs": [],
      "name": "owner",
      "outputs": [
        {
          "internalType": "address",
          "name": "",
          "type": "address"
        }
      ],
      "stateMutability": "view",
      "type": "function"
    },
    {
      "inputs": [],
      "name": "pause",
      "outputs": [],
      "stateMutability": "nonpayable",
      "type": "function"
    },
    {
      "inputs": [],
      "name": "paused",
      "outputs": [
        {
          "internalType": "bool",
          "name": "",
          "type": "bool"
        }
      ],
      "stateMutability": "view",
      "type": "function"
    },
    {
      "inputs": [],
      "name": "renounceOwnership",
      "outputs": [],
      "stateMutability": "nonpayable",
      "type": "function"
    },
    {
      "inputs": [
        {
          "internalType": "address",
          "name": "to",
          "type": "address"
        },
        {
          "internalType": "uint256",
          "name": "amount",
          "type": "uint256"
        },
        {
          "components": [
            {
              "internalType": "address",
              "name": "approvedAddress",
              "type": "address"
            },
            {
              "internalType": "enum ExpenseAccountEIP712.BudgetType",
              "name": "budgetType",
              "type": "uint8"
            },
            {
              "internalType": "uint256",
              "name": "value",
              "type": "uint256"
            },
            {
              "internalType": "uint256",
              "name": "expiry",
              "type": "uint256"
            }
          ],
          "internalType": "struct ExpenseAccountEIP712.BudgetLimit",
          "name": "limit",
          "type": "tuple"
        },
        {
          "internalType": "uint8",
          "name": "v",
          "type": "uint8"
        },
        {
          "internalType": "bytes32",
          "name": "r",
          "type": "bytes32"
        },
        {
          "internalType": "bytes32",
          "name": "s",
          "type": "bytes32"
        }
      ],
      "name": "transfer",
      "outputs": [],
      "stateMutability": "nonpayable",
      "type": "function"
    },
    {
      "inputs": [
        {
          "internalType": "address",
          "name": "newOwner",
          "type": "address"
        }
      ],
      "name": "transferOwnership",
      "outputs": [],
      "stateMutability": "nonpayable",
      "type": "function"
    },
    {
      "inputs": [],
      "name": "unpause",
      "outputs": [],
      "stateMutability": "nonpayable",
      "type": "function"
    },
    {
      "stateMutability": "payable",
      "type": "receive"
    }
  ],
  "bytecode": "0x608060405234801561001057600080fd5b506113f7806100206000396000f3fe6080604052600436106100a05760003560e01c806384b0196e1161006457806384b0196e146101725780638909aa3f1461019a5780638da5cb5b146101e35780639434070d14610210578063c4d66de814610230578063f2fde38b1461025057600080fd5b806312065fe0146100e15780633f4ba83a146101015780635c975abb14610118578063715018a6146101485780638456cb591461015d57600080fd5b366100dc5760405134815233907f2da466a7b24304f47e87fa2e1e5a81b9831ce54fec19055ce277ca2f39ba42c49060200160405180910390a2005b600080fd5b3480156100ed57600080fd5b506040514781526020015b60405180910390f35b34801561010d57600080fd5b50610116610270565b005b34801561012457600080fd5b506000805160206113a28339815191525460ff1660405190151581526020016100f8565b34801561015457600080fd5b50610116610282565b34801561016957600080fd5b50610116610294565b34801561017e57600080fd5b506101876102a4565b6040516100f89796959493929190610ff0565b3480156101a657600080fd5b506101ce6101b5366004611089565b6000602081905290815260409020805460019091015482565b604080519283526020830191909152016100f8565b3480156101ef57600080fd5b506101f8610355565b6040516001600160a01b0390911681526020016100f8565b34801561021c57600080fd5b5061011661022b3660046110be565b610383565b34801561023c57600080fd5b5061011661024b366004611133565b61085d565b34801561025c57600080fd5b5061011661026b366004611133565b6109c9565b610278610a07565b610280610a39565b565b61028a610a07565b6102806000610a99565b61029c610a07565b610280610b0a565b6000606080828080838160008051602061138283398151915280549091501580156102d157506001810154155b61031a5760405162461bcd60e51b81526020600482015260156024820152741152540dcc4c8e88155b9a5b9a5d1a585b1a5e9959605a1b60448201526064015b60405180910390fd5b610322610b53565b61032a610c16565b60408051600080825260208201909252600f60f81b9c939b5091995046985030975095509350915050565b7f9016d09d72d40fdae2fd8ceac6b6234c7706214fd39c1cd1e609a0528c199300546001600160a01b031690565b61038b610c55565b6103986020850185611133565b6001600160a01b0316336001600160a01b0316146103f85760405162461bcd60e51b815260206004820152601760248201527f57697468647261776572206e6f7420617070726f7665640000000000000000006044820152606401610311565b6001600160a01b0386166104415760405162461bcd60e51b815260206004820152601060248201526f1059191c995cdcc81c995c5d5a5c995960821b6044820152606401610311565b600085116104915760405162461bcd60e51b815260206004820181905260248201527f416d6f756e74206d7573742062652067726561746572207468616e207a65726f6044820152606401610311565b600061049b610c86565b6104a486610c95565b60405161190160f01b60208201526022810192909252604282015260620160408051601f198184030181528282528051602091820120600080855291840180845281905260ff88169284019290925260608301869052608083018590529092509060019060a0016020604051602081039080840390855afa15801561052d573d6000803e3d6000fd5b505050602060405103519050610541610355565b6001600160a01b0316816001600160a01b03161461058e57610561610355565b604051634116c50f60e01b81526001600160a01b0391821660048201529082166024820152604401610311565b85606001354211156105da5760405162461bcd60e51b8152602060048201526015602482015274105d5d1a1bdc9a5e985d1a5bdb88195e1c1a5c9959605a1b6044820152606401610311565b60006105ec6040880160208901611181565b60028111156105fd576105fd61116b565b036106c05760008281526020819052604090819020549087013510156106655760405162461bcd60e51b815260206004820152601960248201527f5472616e73616374696f6e206c696d69742072656163686564000000000000006044820152606401610311565b600082815260208190526040812080549161067f836111b8565b90915550506040516001600160a01b0389169088156108fc029089906000818181858888f193505050501580156106ba573d6000803e3d6000fd5b506107fa565b60016106d26040880160208901611181565b60028111156106e3576106e361116b565b0361076e578560400135876000808581526020019081526020016000206001015461070e91906111d1565b111561074d576000828152602081905260409020600101546107319088906111d1565b604051638a2457c760e01b815260040161031191815260200190565b6000828152602081905260408120600101805489929061067f9084906111d1565b85604001358711156107c25760405162461bcd60e51b815260206004820152601a60248201527f417574686f72697a656420616d6f756e742065786365656465640000000000006044820152606401610311565b6040516001600160a01b0389169088156108fc029089906000818181858888f193505050501580156107f8573d6000803e3d6000fd5b505b6001600160a01b0388166108116020880188611133565b6001600160a01b03167fddf252ad1be2c89b69c2b068fc378daa952ba7f163c4a11628f55a4df523b3ef8960405161084b91815260200190565b60405180910390a35050505050505050565b7ff0c57e16840df040f15088dc2f81fe391c3923bec73e23a9662efc9c229c6a008054600160401b810460ff16159067ffffffffffffffff166000811580156108a35750825b905060008267ffffffffffffffff1660011480156108c05750303b155b9050811580156108ce575080155b156108ec5760405163f92ee8a960e01b815260040160405180910390fd5b845467ffffffffffffffff19166001178555831561091657845460ff60401b1916600160401b1785555b61091f86610d10565b610927610d21565b61092f610d31565b61097b6040518060400160405280601181526020017010d390d15e1c195b9cd95058d8dbdd5b9d607a1b815250604051806040016040528060018152602001603160f81b815250610d41565b83156109c157845460ff60401b19168555604051600181527fc7f505b2f371ae2175ee4913f4499e1f2633a7b5936321eed1cdaeb6115181d29060200160405180910390a15b505050505050565b6109d1610a07565b6001600160a01b0381166109fb57604051631e4fbdf760e01b815260006004820152602401610311565b610a0481610a99565b50565b33610a10610355565b6001600160a01b0316146102805760405163118cdaa760e01b8152336004820152602401610311565b610a41610d57565b6000805160206113a2833981519152805460ff191681557f5db9ee0a495bf2e6ff9c91a7834c1ba4fdd244a5e8aa4e537bd38aeae4b073aa335b6040516001600160a01b03909116815260200160405180910390a150565b7f9016d09d72d40fdae2fd8ceac6b6234c7706214fd39c1cd1e609a0528c19930080546001600160a01b031981166001600160a01b03848116918217845560405192169182907f8be0079c531659141344cd1fd0a4f28419497f9722a3daafe3b4186f6b6457e090600090a3505050565b610b12610c55565b6000805160206113a2833981519152805460ff191660011781557f62e78cea01bee320cd4e420270b5ea74000d11b0c9f74754ebdbfc544b05a25833610a7b565b7fa16a46d94261c7517cc8ff89f61c0ce93598e3c849801011dee649a6a557d102805460609160008051602061138283398151915291610b92906111ea565b80601f0160208091040260200160405190810160405280929190818152602001828054610bbe906111ea565b8015610c0b5780601f10610be057610100808354040283529160200191610c0b565b820191906000526020600020905b815481529060010190602001808311610bee57829003601f168201915b505050505091505090565b7fa16a46d94261c7517cc8ff89f61c0ce93598e3c849801011dee649a6a557d103805460609160008051602061138283398151915291610b92906111ea565b6000805160206113a28339815191525460ff16156102805760405163d93c066560e01b815260040160405180910390fd5b6000610c90610d87565b905090565b60007f22a4a275070c491b4f22d948d5ecc0ba895dc0f2816390f6ce6dd8bab66bda9a610cc56020840184611133565b610cd56040850160208601611181565b84604001358560600135604051602001610cf3959493929190611224565b604051602081830303815290604052805190602001209050919050565b610d18610dfb565b610a0481610e44565b610d29610dfb565b610280610e4c565b610d39610dfb565b610280610e7a565b610d49610dfb565b610d538282610e9b565b5050565b6000805160206113a28339815191525460ff1661028057604051638dfc202b60e01b815260040160405180910390fd5b60007f8b73c3c69bb8fe3d512ecc4cf759cc79239f7b179b0ffacaa9a75d522b39400f610db2610efc565b610dba610f66565b60408051602081019490945283019190915260608201524660808201523060a082015260c00160405160208183030381529060405280519060200120905090565b7ff0c57e16840df040f15088dc2f81fe391c3923bec73e23a9662efc9c229c6a0054600160401b900460ff1661028057604051631afcd79f60e31b815260040160405180910390fd5b6109d1610dfb565b610e54610dfb565b60017f9b779b17422d0df92223018b32b4d1fa46e071723d6817e2486d003becc55f0055565b610e82610dfb565b6000805160206113a2833981519152805460ff19169055565b610ea3610dfb565b6000805160206113828339815191527fa16a46d94261c7517cc8ff89f61c0ce93598e3c849801011dee649a6a557d102610edd84826112c1565b5060038101610eec83826112c1565b5060008082556001909101555050565b600060008051602061138283398151915281610f16610b53565b805190915015610f2e57805160209091012092915050565b81548015610f3d579392505050565b7fc5d2460186f7233c927e7db2dcc703c0e500b653ca82273b7bfad8045d85a470935050505090565b600060008051602061138283398151915281610f80610c16565b805190915015610f9857805160209091012092915050565b60018201548015610f3d579392505050565b6000815180845260005b81811015610fd057602081850181015186830182015201610fb4565b506000602082860101526020601f19601f83011685010191505092915050565b60ff60f81b881681526000602060e0602084015261101160e084018a610faa565b8381036040850152611023818a610faa565b606085018990526001600160a01b038816608086015260a0850187905284810360c08601528551808252602080880193509091019060005b818110156110775783518352928401929184019160010161105b565b50909c9b505050505050505050505050565b60006020828403121561109b57600080fd5b5035919050565b80356001600160a01b03811681146110b957600080fd5b919050565b6000806000806000808688036101208112156110d957600080fd5b6110e2886110a2565b9650602088013595506080603f19820112156110fd57600080fd5b5060408701935060c087013560ff8116811461111857600080fd5b9598949750929560e081013594610100909101359350915050565b60006020828403121561114557600080fd5b61114e826110a2565b9392505050565b634e487b7160e01b600052604160045260246000fd5b634e487b7160e01b600052602160045260246000fd5b60006020828403121561119357600080fd5b81356003811061114e57600080fd5b634e487b7160e01b600052601160045260246000fd5b6000600182016111ca576111ca6111a2565b5060010190565b808201808211156111e4576111e46111a2565b92915050565b600181811c908216806111fe57607f821691505b60208210810361121e57634e487b7160e01b600052602260045260246000fd5b50919050565b8581526001600160a01b038516602082015260a081016003851061125857634e487b7160e01b600052602160045260246000fd5b8460408301528360608301528260808301529695505050505050565b601f8211156112bc576000816000526020600020601f850160051c8101602086101561129d5750805b601f850160051c820191505b818110156109c1578281556001016112a9565b505050565b815167ffffffffffffffff8111156112db576112db611155565b6112ef816112e984546111ea565b84611274565b602080601f831160018114611324576000841561130c5750858301515b600019600386901b1c1916600185901b1785556109c1565b600085815260208120601f198616915b8281101561135357888601518255948401946001909101908401611334565b50858210156113715787850151600019600388901b60f8161c191681555b5050505050600190811b0190555056fea16a46d94261c7517cc8ff89f61c0ce93598e3c849801011dee649a6a557d100cd5ed15c6e187e77e9aee88184c21f4f2182ab5827cb3b7e07fbedcd63f03300a26469706673582212206679dc011e477d2dc2756634f1f5c6da37bab4d2a1a68fde1087661978bc1eed64736f6c63430008180033",
  "linkReferences": {},
  "deployedLinkReferences": {}
}