{
  "_format": "hh-sol-artifact-1",
  "contractName": "Officer",
  "sourceName": "contracts/Officer.sol",
  "abi": [
    {
      "inputs": [],
      "name": "EnforcedPause",
      "type": "error"
    },
    {
      "inputs": [],
      "name": "ExpectedPause",
      "type": "error"
    },
    {
      "inputs": [],
      "name": "InvalidInitialization",
      "type": "error"
    },
    {
      "inputs": [],
      "name": "NotInitializing",
      "type": "error"
    },
    {
      "inputs": [
        {
          "internalType": "address",
          "name": "owner",
          "type": "address"
        }
      ],
      "name": "OwnableInvalidOwner",
      "type": "error"
    },
    {
      "inputs": [
        {
          "internalType": "address",
          "name": "account",
          "type": "address"
        }
      ],
      "name": "OwnableUnauthorizedAccount",
      "type": "error"
    },
    {
      "inputs": [],
      "name": "ReentrancyGuardReentrantCall",
      "type": "error"
    },
    {
      "anonymous": false,
      "inputs": [
        {
          "indexed": false,
          "internalType": "string",
          "name": "contractType",
          "type": "string"
        },
        {
          "indexed": false,
          "internalType": "address",
          "name": "contractAddress",
          "type": "address"
        }
      ],
      "name": "ContractDeployed",
      "type": "event"
    },
    {
      "anonymous": false,
      "inputs": [
        {
          "indexed": false,
          "internalType": "uint64",
          "name": "version",
          "type": "uint64"
        }
      ],
      "name": "Initialized",
      "type": "event"
    },
    {
      "anonymous": false,
      "inputs": [
        {
          "indexed": true,
          "internalType": "address",
          "name": "previousOwner",
          "type": "address"
        },
        {
          "indexed": true,
          "internalType": "address",
          "name": "newOwner",
          "type": "address"
        }
      ],
      "name": "OwnershipTransferred",
      "type": "event"
    },
    {
      "anonymous": false,
      "inputs": [
        {
          "indexed": false,
          "internalType": "address",
          "name": "account",
          "type": "address"
        }
      ],
      "name": "Paused",
      "type": "event"
    },
    {
      "anonymous": false,
      "inputs": [
        {
          "indexed": false,
          "internalType": "address[]",
          "name": "founders",
          "type": "address[]"
        },
        {
          "indexed": false,
          "internalType": "address[]",
          "name": "members",
          "type": "address[]"
        }
      ],
      "name": "TeamCreated",
      "type": "event"
    },
    {
      "anonymous": false,
      "inputs": [
        {
          "indexed": false,
          "internalType": "address",
          "name": "account",
          "type": "address"
        }
      ],
      "name": "Unpaused",
      "type": "event"
    },
    {
      "inputs": [],
      "name": "bankAccountBeacon",
      "outputs": [
        {
          "internalType": "address",
          "name": "",
          "type": "address"
        }
      ],
      "stateMutability": "view",
      "type": "function"
    },
    {
      "inputs": [],
      "name": "bodContractBeacon",
      "outputs": [
        {
          "internalType": "address",
          "name": "",
          "type": "address"
        }
      ],
      "stateMutability": "view",
      "type": "function"
    },
    {
      "inputs": [
        {
          "internalType": "address[]",
          "name": "_founders",
          "type": "address[]"
        },
        {
          "internalType": "address[]",
          "name": "_members",
          "type": "address[]"
        }
      ],
      "name": "createTeam",
      "outputs": [],
      "stateMutability": "nonpayable",
      "type": "function"
    },
    {
      "inputs": [
        {
          "internalType": "address",
          "name": "tipsAddress",
          "type": "address"
        }
      ],
      "name": "deployBankAccount",
      "outputs": [],
      "stateMutability": "nonpayable",
      "type": "function"
    },
    {
      "inputs": [],
      "name": "deployVotingContract",
      "outputs": [],
      "stateMutability": "nonpayable",
      "type": "function"
    },
    {
      "inputs": [],
      "name": "employeeContractBeacon",
      "outputs": [
        {
          "internalType": "address",
          "name": "",
          "type": "address"
        }
      ],
      "stateMutability": "view",
      "type": "function"
    },
    {
      "inputs": [],
      "name": "getTeam",
      "outputs": [
        {
          "internalType": "address[]",
          "name": "",
          "type": "address[]"
        },
        {
          "internalType": "address[]",
          "name": "",
          "type": "address[]"
        },
        {
          "internalType": "address",
          "name": "",
          "type": "address"
        },
        {
          "internalType": "address",
          "name": "",
          "type": "address"
        },
        {
          "internalType": "address",
          "name": "",
          "type": "address"
        }
      ],
      "stateMutability": "view",
      "type": "function"
    },
    {
      "inputs": [
        {
          "internalType": "address",
          "name": "_bankAccountBeacon",
          "type": "address"
        },
        {
          "internalType": "address",
          "name": "_votingContractBeacon",
          "type": "address"
        },
        {
          "internalType": "address",
          "name": "_bodContractBeacon",
          "type": "address"
        }
      ],
      "name": "initialize",
      "outputs": [],
      "stateMutability": "nonpayable",
      "type": "function"
    },
    {
      "inputs": [],
      "name": "owner",
      "outputs": [
        {
          "internalType": "address",
          "name": "",
          "type": "address"
        }
      ],
      "stateMutability": "view",
      "type": "function"
    },
    {
      "inputs": [],
      "name": "pause",
      "outputs": [],
      "stateMutability": "nonpayable",
      "type": "function"
    },
    {
      "inputs": [],
      "name": "paused",
      "outputs": [
        {
          "internalType": "bool",
          "name": "",
          "type": "bool"
        }
      ],
      "stateMutability": "view",
      "type": "function"
    },
    {
      "inputs": [],
      "name": "renounceOwnership",
      "outputs": [],
      "stateMutability": "nonpayable",
      "type": "function"
    },
    {
      "inputs": [
        {
          "internalType": "address",
          "name": "newOwner",
          "type": "address"
        }
      ],
      "name": "transferOwnership",
      "outputs": [],
      "stateMutability": "nonpayable",
      "type": "function"
    },
    {
      "inputs": [
        {
          "internalType": "address",
          "name": "newOwner",
          "type": "address"
        }
      ],
      "name": "transferOwnershipToBOD",
      "outputs": [],
      "stateMutability": "nonpayable",
      "type": "function"
    },
    {
      "inputs": [],
      "name": "unpause",
      "outputs": [],
      "stateMutability": "nonpayable",
      "type": "function"
    },
    {
      "inputs": [],
      "name": "votingContractBeacon",
      "outputs": [
        {
          "internalType": "address",
          "name": "",
          "type": "address"
        }
      ],
      "stateMutability": "view",
      "type": "function"
    }
  ],
  "bytecode": "0x608060405234801561001057600080fd5b50611d5e806100206000396000f3fe60806040523480156200001157600080fd5b5060043610620001155760003560e01c80638da5cb5b11620000a3578063d2d7b54a116200006e578063d2d7b54a1462000217578063ec12649a146200022e578063f2fde38b1462000242578063f37606b5146200025957600080fd5b80638da5cb5b14620001ce578063abbb972014620001d8578063bc11665f14620001ec578063c0c53b8b146200020057600080fd5b8063658e515511620000e4578063658e51551462000193578063715018a6146200019d5780638456cb5914620001a75780638bce6edd14620001b157600080fd5b80630346a03c146200011a5780633f4ba83a146200014b5780635c975abb14620001575780636324bef2146200017c575b600080fd5b6007546200012e906001600160a01b031681565b6040516001600160a01b0390911681526020015b60405180910390f35b6200015562000270565b005b60008051602062001d098339815191525460ff16604051901515815260200162000142565b620001556200018d36600462001344565b62000350565b62000155620003b1565b6200015562000833565b6200015562000849565b620001bb620008c0565b60405162000142959493929190620013b0565b6200012e620009b8565b6008546200012e906001600160a01b031681565b6006546200012e906001600160a01b031681565b620001556200021136600462001404565b620009e6565b620001556200022836600462001515565b62000b51565b6005546200012e906001600160a01b031681565b620001556200025336600462001344565b62000dbc565b620001556200026a36600462001344565b62000dfd565b6200027a620009b8565b6001600160a01b0316330362000296576200029462001078565b565b60005b600054811015620002ec5760008181548110620002ba57620002ba62001580565b6000918252602090912001546001600160a01b03163303620002e357620002e062001078565b50565b60010162000299565b5060405162461bcd60e51b815260206004820152602d60248201527f596f7520617265206e6f7420617574686f72697a656420746f20706572666f7260448201526c36903a3434b99030b1ba34b7b760991b60648201526084015b60405180910390fd5b6200035a620010db565b620003658162000dbc565b806001600160a01b031662000379620009b8565b6001600160a01b03167f8be0079c531659141344cd1fd0a4f28419497f9722a3daafe3b4186f6b6457e060405160405180910390a350565b620003bb620009b8565b6001600160a01b03163303620005da57620003d5620010db565b600754604080513360248083019190915282518083039091018152604490910182526020810180516001600160e01b031663189acdbd60e31b17905290516000926001600160a01b031691906200042c9062001319565b6200043992919062001596565b604051809103906000f08015801562000456573d6000803e3d6000fd5b50600380546001600160a01b0319166001600160a01b03831690811790915560405191925060008051602062001ce983398151915291620004989190620015f7565b60405180910390a160408051600180825281830190925260009160208083019080368337505060035482519293506001600160a01b031691839150600090620004e557620004e562001580565b6001600160a01b039283166020918202929092010152600854604051600092919091169063a224cee760e01b906200052290859060240162001630565b60408051601f198184030181529181526020820180516001600160e01b03166001600160e01b0319909416939093179092529051620005619062001319565b6200056e92919062001596565b604051809103906000f0801580156200058b573d6000803e3d6000fd5b50600480546001600160a01b0319166001600160a01b03831690811790915560405191925060008051602062001ce983398151915291620005cd919062001645565b60405180910390a1505050565b60005b600054811015620002ec5760008181548110620005fe57620005fe62001580565b6000918252602090912001546001600160a01b031633036200082a5762000624620010db565b600754604080513360248083019190915282518083039091018152604490910182526020810180516001600160e01b031663189acdbd60e31b17905290516000926001600160a01b031691906200067b9062001319565b6200068892919062001596565b604051809103906000f080158015620006a5573d6000803e3d6000fd5b50600380546001600160a01b0319166001600160a01b03831690811790915560405191925060008051602062001ce983398151915291620006e79190620015f7565b60405180910390a160408051600180825281830190925260009160208083019080368337505060035482519293506001600160a01b03169183915060009062000734576200073462001580565b6001600160a01b039283166020918202929092010152600854604051600092919091169063a224cee760e01b906200077190859060240162001630565b60408051601f198184030181529181526020820180516001600160e01b03166001600160e01b0319909416939093179092529051620007b09062001319565b620007bd92919062001596565b604051809103906000f080158015620007da573d6000803e3d6000fd5b50600480546001600160a01b0319166001600160a01b03831690811790915560405191925060008051602062001ce9833981519152916200081c919062001645565b60405180910390a150505050565b600101620005dd565b6200083d6200110e565b62000294600062001144565b62000853620009b8565b6001600160a01b031633036200086d5762000294620011b5565b60005b600054811015620002ec576000818154811062000891576200089162001580565b6000918252602090912001546001600160a01b03163303620008b757620002e0620011b5565b60010162000870565b6002546003546004546000805460408051602080840282018101909252828152606096879694958695869586956001956001600160a01b039586169593841694909316929187918301828280156200094257602002820191906000526020600020905b81546001600160a01b0316815260019091019060200180831162000923575b5050505050945083805480602002602001604051908101604052809291908181526020018280548015620009a057602002820191906000526020600020905b81546001600160a01b0316815260019091019060200180831162000981575b50505050509350945094509450945094509091929394565b7f9016d09d72d40fdae2fd8ceac6b6234c7706214fd39c1cd1e609a0528c199300546001600160a01b031690565b7ff0c57e16840df040f15088dc2f81fe391c3923bec73e23a9662efc9c229c6a008054600160401b810460ff16159067ffffffffffffffff1660008115801562000a2d5750825b905060008267ffffffffffffffff16600114801562000a4b5750303b155b90508115801562000a5a575080155b1562000a795760405163f92ee8a960e01b815260040160405180910390fd5b845467ffffffffffffffff19166001178555831562000aa457845460ff60401b1916600160401b1785555b62000aaf3362001202565b62000ab962001217565b62000ac36200122b565b600580546001600160a01b03808b166001600160a01b031992831617909255600780548a84169083161790556008805492891692909116919091179055831562000b4757845460ff60401b19168555604051600181527fc7f505b2f371ae2175ee4913f4499e1f2633a7b5936321eed1cdaeb6115181d29060200160405180910390a15b5050505050505050565b62000b5b620010db565b600082511162000bae5760405162461bcd60e51b815260206004820152601e60248201527f4d7573742068617665206174206c65617374206f6e6520666f756e6465720000604482015260640162000347565b60005b825181101562000c985760006001600160a01b031683828151811062000bdb5762000bdb62001580565b60200260200101516001600160a01b03160362000c3b5760405162461bcd60e51b815260206004820152601760248201527f496e76616c696420666f756e6465722061646472657373000000000000000000604482015260640162000347565b600083828151811062000c525762000c5262001580565b60209081029190910181015182546001808201855560009485529290932090920180546001600160a01b0319166001600160a01b03909316929092179091550162000bb1565b5060005b815181101562000d7c5760006001600160a01b031682828151811062000cc65762000cc662001580565b60200260200101516001600160a01b03160362000d1f5760405162461bcd60e51b8152602060048201526016602482015275496e76616c6964206d656d626572206164647265737360501b604482015260640162000347565b600182828151811062000d365762000d3662001580565b60209081029190910181015182546001808201855560009485529290932090920180546001600160a01b0319166001600160a01b03909316929092179091550162000c9c565b507f14bbcd93381ec042bd0247a11fa75d4fef24b31e785ca44971c6fc162c4f05af828260405162000db09291906200167b565b60405180910390a15050565b62000dc66200110e565b6001600160a01b03811662000df257604051631e4fbdf760e01b81526000600482015260240162000347565b620002e08162001144565b62000e07620009b8565b6001600160a01b0316330362000f235762000e21620010db565b6002546001600160a01b03161562000e4d5760405162461bcd60e51b81526004016200034790620016ad565b6005546040516001600160a01b038381166024830152336044830152600092169063485cc95560e01b9060640160408051601f198184030181529181526020820180516001600160e01b03166001600160e01b031990941693909317909252905162000eb99062001319565b62000ec692919062001596565b604051809103906000f08015801562000ee3573d6000803e3d6000fd5b50600280546001600160a01b0319166001600160a01b03831617905560405190915060008051602062001ce98339815191529062000db0908390620016f3565b60005b600054811015620002ec576000818154811062000f475762000f4762001580565b6000918252602090912001546001600160a01b031633036200106f5762000f6d620010db565b6002546001600160a01b03161562000f995760405162461bcd60e51b81526004016200034790620016ad565b6005546040516001600160a01b038481166024830152336044830152600092169063485cc95560e01b9060640160408051601f198184030181529181526020820180516001600160e01b03166001600160e01b0319909416939093179092529051620010059062001319565b6200101292919062001596565b604051809103906000f0801580156200102f573d6000803e3d6000fd5b50600280546001600160a01b0319166001600160a01b03831617905560405190915060008051602062001ce983398151915290620005cd908390620016f3565b60010162000f26565b620010826200123f565b60008051602062001d09833981519152805460ff191681557f5db9ee0a495bf2e6ff9c91a7834c1ba4fdd244a5e8aa4e537bd38aeae4b073aa335b6040516001600160a01b03909116815260200160405180910390a150565b60008051602062001d098339815191525460ff1615620002945760405163d93c066560e01b815260040160405180910390fd5b3362001119620009b8565b6001600160a01b031614620002945760405163118cdaa760e01b815233600482015260240162000347565b7f9016d09d72d40fdae2fd8ceac6b6234c7706214fd39c1cd1e609a0528c19930080546001600160a01b031981166001600160a01b03848116918217845560405192169182907f8be0079c531659141344cd1fd0a4f28419497f9722a3daafe3b4186f6b6457e090600090a3505050565b620011bf620010db565b60008051602062001d09833981519152805460ff191660011781557f62e78cea01bee320cd4e420270b5ea74000d11b0c9f74754ebdbfc544b05a25833620010bd565b6200120c62001271565b620002e081620012bb565b6200122162001271565b62000294620012c5565b6200123562001271565b62000294620012f5565b60008051602062001d098339815191525460ff166200029457604051638dfc202b60e01b815260040160405180910390fd5b7ff0c57e16840df040f15088dc2f81fe391c3923bec73e23a9662efc9c229c6a0054600160401b900460ff166200029457604051631afcd79f60e31b815260040160405180910390fd5b62000dc662001271565b620012cf62001271565b60017f9b779b17422d0df92223018b32b4d1fa46e071723d6817e2486d003becc55f0055565b620012ff62001271565b60008051602062001d09833981519152805460ff19169055565b6105bf806200172a83390190565b80356001600160a01b03811681146200133f57600080fd5b919050565b6000602082840312156200135757600080fd5b620013628262001327565b9392505050565b60008151808452602080850194506020840160005b83811015620013a55781516001600160a01b0316875295820195908201906001016200137e565b509495945050505050565b60a081526000620013c560a083018862001369565b8281036020840152620013d9818862001369565b6001600160a01b03968716604085015294861660608401525050921660809092019190915292915050565b6000806000606084860312156200141a57600080fd5b620014258462001327565b9250620014356020850162001327565b9150620014456040850162001327565b90509250925092565b634e487b7160e01b600052604160045260246000fd5b600082601f8301126200147657600080fd5b8135602067ffffffffffffffff808311156200149657620014966200144e565b8260051b604051601f19603f83011681018181108482111715620014be57620014be6200144e565b6040529384526020818701810194908101925087851115620014df57600080fd5b6020870191505b848210156200150a57620014fa8262001327565b83529183019190830190620014e6565b979650505050505050565b600080604083850312156200152957600080fd5b823567ffffffffffffffff808211156200154257600080fd5b620015508683870162001464565b935060208501359150808211156200156757600080fd5b50620015768582860162001464565b9150509250929050565b634e487b7160e01b600052603260045260246000fd5b60018060a01b03831681526000602060406020840152835180604085015260005b81811015620015d557858101830151858201606001528201620015b7565b506000606082860101526060601f19601f830116850101925050509392505050565b6040808252600e908201526d159bdd1a5b99d0dbdb9d1c9858dd60921b60608201526001600160a01b0391909116602082015260800190565b60208152600062001362602083018462001369565b6040808252600b908201526a109bd110dbdb9d1c9858dd60aa1b60608201526001600160a01b0391909116602082015260800190565b60408152600062001690604083018562001369565b8281036020840152620016a4818562001369565b95945050505050565b60208082526026908201527f42616e6b206163636f756e7420636f6e747261637420616c72656164792064656040820152651c1b1bde595960d21b606082015260800190565b6040808252600b908201526a10985b9ad058d8dbdd5b9d60aa1b60608201526001600160a01b039190911660208201526080019056fe60a06040526040516105bf3803806105bf83398101604081905261002291610387565b61002c828261003e565b506001600160a01b031660805261047e565b610047826100fe565b6040516001600160a01b038316907f1cf3b03a6cf19fa2baba4df148e9dcabedea7f8a5c07840e207e5c089be95d3e90600090a28051156100f2576100ed826001600160a01b0316635c60da1b6040518163ffffffff1660e01b8152600401602060405180830381865afa1580156100c3573d6000803e3d6000fd5b505050506040513d601f19601f820116820180604052508101906100e79190610447565b82610211565b505050565b6100fa610288565b5050565b806001600160a01b03163b60000361013957604051631933b43b60e21b81526001600160a01b03821660048201526024015b60405180910390fd5b807fa3f0ad74e5423aebfd80d3ef4346578335a9a72aeaee59ff6cb3582b35133d5080546001600160a01b0319166001600160a01b0392831617905560408051635c60da1b60e01b81529051600092841691635c60da1b9160048083019260209291908290030181865afa1580156101b5573d6000803e3d6000fd5b505050506040513d601f19601f820116820180604052508101906101d99190610447565b9050806001600160a01b03163b6000036100fa57604051634c9c8ce360e01b81526001600160a01b0382166004820152602401610130565b6060600080846001600160a01b03168460405161022e9190610462565b600060405180830381855af49150503d8060008114610269576040519150601f19603f3d011682016040523d82523d6000602084013e61026e565b606091505b50909250905061027f8583836102a9565b95945050505050565b34156102a75760405163b398979f60e01b815260040160405180910390fd5b565b6060826102be576102b982610308565b610301565b81511580156102d557506001600160a01b0384163b155b156102fe57604051639996b31560e01b81526001600160a01b0385166004820152602401610130565b50805b9392505050565b8051156103185780518082602001fd5b604051630a12f52160e11b815260040160405180910390fd5b80516001600160a01b038116811461034857600080fd5b919050565b634e487b7160e01b600052604160045260246000fd5b60005b8381101561037e578181015183820152602001610366565b50506000910152565b6000806040838503121561039a57600080fd5b6103a383610331565b60208401519092506001600160401b03808211156103c057600080fd5b818501915085601f8301126103d457600080fd5b8151818111156103e6576103e661034d565b604051601f8201601f19908116603f0116810190838211818310171561040e5761040e61034d565b8160405282815288602084870101111561042757600080fd5b610438836020830160208801610363565b80955050505050509250929050565b60006020828403121561045957600080fd5b61030182610331565b60008251610474818460208701610363565b9190910192915050565b6080516101276104986000396000601e01526101276000f3fe6080604052600a600c565b005b60186014601a565b60a0565b565b60007f00000000000000000000000000000000000000000000000000000000000000006001600160a01b0316635c60da1b6040518163ffffffff1660e01b8152600401602060405180830381865afa1580156079573d6000803e3d6000fd5b505050506040513d601f19601f82011682018060405250810190609b919060c3565b905090565b3660008037600080366000845af43d6000803e80801560be573d6000f35b3d6000fd5b60006020828403121560d457600080fd5b81516001600160a01b038116811460ea57600080fd5b939250505056fea264697066735822122038063abf0acf0012aa106601a36fadbbf1a7604cc3cbd26cfa83a39a16756e2164736f6c634300081800334da8c8e82a6cdcd021dddec73a637b429d2b0a9b303638f1258ff8a35c3e5d86cd5ed15c6e187e77e9aee88184c21f4f2182ab5827cb3b7e07fbedcd63f03300a2646970667358221220a61d07e8338211a75f65cb20618107155d0f0398d57810aba07a4d6608bdb97164736f6c63430008180033",
  "linkReferences": {},
  "deployedLinkReferences": {}
}