{
  "_format": "hh-sol-artifact-1",
  "contractName": "Officer",
  "sourceName": "contracts/Officer.sol",
  "abi": [
    {
      "inputs": [],
      "name": "EnforcedPause",
      "type": "error"
    },
    {
      "inputs": [],
      "name": "ExpectedPause",
      "type": "error"
    },
    {
      "inputs": [],
      "name": "InvalidInitialization",
      "type": "error"
    },
    {
      "inputs": [],
      "name": "NotInitializing",
      "type": "error"
    },
    {
      "inputs": [
        {
          "internalType": "address",
          "name": "owner",
          "type": "address"
        }
      ],
      "name": "OwnableInvalidOwner",
      "type": "error"
    },
    {
      "inputs": [
        {
          "internalType": "address",
          "name": "account",
          "type": "address"
        }
      ],
      "name": "OwnableUnauthorizedAccount",
      "type": "error"
    },
    {
      "inputs": [],
      "name": "ReentrancyGuardReentrantCall",
      "type": "error"
    },
    {
      "anonymous": false,
      "inputs": [
        {
          "indexed": false,
          "internalType": "string",
          "name": "contractType",
          "type": "string"
        },
        {
          "indexed": false,
          "internalType": "address",
          "name": "beaconAddress",
          "type": "address"
        }
      ],
      "name": "BeaconConfigured",
      "type": "event"
    },
    {
      "anonymous": false,
      "inputs": [
        {
          "indexed": false,
          "internalType": "string",
          "name": "contractType",
          "type": "string"
        },
        {
          "indexed": false,
          "internalType": "address",
          "name": "deployedAddress",
          "type": "address"
        }
      ],
      "name": "ContractDeployed",
      "type": "event"
    },
    {
      "anonymous": false,
      "inputs": [
        {
          "indexed": false,
          "internalType": "uint64",
          "name": "version",
          "type": "uint64"
        }
      ],
      "name": "Initialized",
      "type": "event"
    },
    {
      "anonymous": false,
      "inputs": [
        {
          "indexed": true,
          "internalType": "address",
          "name": "previousOwner",
          "type": "address"
        },
        {
          "indexed": true,
          "internalType": "address",
          "name": "newOwner",
          "type": "address"
        }
      ],
      "name": "OwnershipTransferred",
      "type": "event"
    },
    {
      "anonymous": false,
      "inputs": [
        {
          "indexed": false,
          "internalType": "address",
          "name": "account",
          "type": "address"
        }
      ],
      "name": "Paused",
      "type": "event"
    },
    {
      "anonymous": false,
      "inputs": [
        {
          "indexed": false,
          "internalType": "address[]",
          "name": "founders",
          "type": "address[]"
        },
        {
          "indexed": false,
          "internalType": "address[]",
          "name": "members",
          "type": "address[]"
        }
      ],
      "name": "TeamCreated",
      "type": "event"
    },
    {
      "anonymous": false,
      "inputs": [
        {
          "indexed": false,
          "internalType": "address",
          "name": "account",
          "type": "address"
        }
      ],
      "name": "Unpaused",
      "type": "event"
    },
    {
      "inputs": [
        {
          "internalType": "string",
          "name": "contractType",
          "type": "string"
        },
        {
          "internalType": "address",
          "name": "beaconAddress",
          "type": "address"
        }
      ],
      "name": "configureBeacon",
      "outputs": [],
      "stateMutability": "nonpayable",
      "type": "function"
    },
    {
      "inputs": [
        {
          "internalType": "string",
          "name": "",
          "type": "string"
        }
      ],
      "name": "contractBeacons",
      "outputs": [
        {
          "internalType": "address",
          "name": "",
          "type": "address"
        }
      ],
      "stateMutability": "view",
      "type": "function"
    },
    {
      "inputs": [
        {
          "internalType": "uint256",
          "name": "",
          "type": "uint256"
        }
      ],
      "name": "contractTypes",
      "outputs": [
        {
          "internalType": "string",
          "name": "",
          "type": "string"
        }
      ],
      "stateMutability": "view",
      "type": "function"
    },
    {
      "inputs": [
        {
          "internalType": "address[]",
          "name": "_founders",
          "type": "address[]"
        },
        {
          "internalType": "address[]",
          "name": "_members",
          "type": "address[]"
        }
      ],
      "name": "createTeam",
      "outputs": [],
      "stateMutability": "nonpayable",
      "type": "function"
    },
    {
      "inputs": [
        {
          "components": [
            {
              "internalType": "string",
              "name": "contractType",
              "type": "string"
            },
            {
              "internalType": "bytes",
              "name": "initializerData",
              "type": "bytes"
            }
          ],
          "internalType": "struct Officer.DeploymentData[]",
          "name": "deployments",
          "type": "tuple[]"
        }
      ],
      "name": "deployAllContracts",
      "outputs": [
        {
          "internalType": "address[]",
          "name": "",
          "type": "address[]"
        }
      ],
      "stateMutability": "nonpayable",
      "type": "function"
    },
    {
      "inputs": [
        {
          "internalType": "string",
          "name": "contractType",
          "type": "string"
        },
        {
          "internalType": "bytes",
          "name": "initializerData",
          "type": "bytes"
        }
      ],
      "name": "deployBeaconProxy",
      "outputs": [
        {
          "internalType": "address",
          "name": "",
          "type": "address"
        }
      ],
      "stateMutability": "nonpayable",
      "type": "function"
    },
    {
      "inputs": [],
      "name": "getConfiguredContractTypes",
      "outputs": [
        {
          "internalType": "string[]",
          "name": "",
          "type": "string[]"
        }
      ],
      "stateMutability": "view",
      "type": "function"
    },
    {
      "inputs": [],
      "name": "getDeployedContracts",
      "outputs": [
        {
          "internalType": "address[]",
          "name": "",
          "type": "address[]"
        }
      ],
      "stateMutability": "view",
      "type": "function"
    },
    {
      "inputs": [],
      "name": "getTeam",
      "outputs": [
        {
          "internalType": "address[]",
          "name": "",
          "type": "address[]"
        },
        {
          "internalType": "address[]",
          "name": "",
          "type": "address[]"
        }
      ],
      "stateMutability": "view",
      "type": "function"
    },
    {
      "inputs": [
        {
          "internalType": "address",
          "name": "_owner",
          "type": "address"
        },
        {
          "components": [
            {
              "internalType": "string",
              "name": "beaconType",
              "type": "string"
            },
            {
              "internalType": "address",
              "name": "beaconAddress",
              "type": "address"
            }
          ],
          "internalType": "struct Officer.BeaconConfig[]",
          "name": "beaconConfigs",
          "type": "tuple[]"
        }
      ],
      "name": "initialize",
      "outputs": [],
      "stateMutability": "nonpayable",
      "type": "function"
    },
    {
      "inputs": [],
      "name": "owner",
      "outputs": [
        {
          "internalType": "address",
          "name": "",
          "type": "address"
        }
      ],
      "stateMutability": "view",
      "type": "function"
    },
    {
      "inputs": [],
      "name": "pause",
      "outputs": [],
      "stateMutability": "nonpayable",
      "type": "function"
    },
    {
      "inputs": [],
      "name": "paused",
      "outputs": [
        {
          "internalType": "bool",
          "name": "",
          "type": "bool"
        }
      ],
      "stateMutability": "view",
      "type": "function"
    },
    {
      "inputs": [],
      "name": "renounceOwnership",
      "outputs": [],
      "stateMutability": "nonpayable",
      "type": "function"
    },
    {
      "inputs": [
        {
          "internalType": "address",
          "name": "newOwner",
          "type": "address"
        }
      ],
      "name": "transferOwnership",
      "outputs": [],
      "stateMutability": "nonpayable",
      "type": "function"
    },
    {
      "inputs": [],
      "name": "unpause",
      "outputs": [],
      "stateMutability": "nonpayable",
      "type": "function"
    }
  ],
  "bytecode": "0x608060405234801561001057600080fd5b50612c90806100206000396000f3fe60806040523480156200001157600080fd5b5060043610620001155760003560e01c80638bce6edd11620000a3578063bda8beab116200006e578063bda8beab146200022e578063d2d7b54a1462000265578063e99548a5146200027c578063f2fde38b14620002a257600080fd5b80638bce6edd14620001da5780638da5cb5b14620001f457806395373b7714620001fe578063aa9a068f146200022457600080fd5b8063715018a611620000e4578063715018a6146200017d578063799391f614620001875780638456cb5914620001a05780638934332d14620001aa57600080fd5b8063028316c6146200011a5780632d73d91014620001335780633f4ba83a146200014a5780635c975abb1462000154575b600080fd5b620001316200012b36600462001ce2565b620002b9565b005b620001316200014436600462001e4b565b62000589565b620001316200095c565b60008051602062002c3b8339815191525460ff1660405190151581526020015b60405180910390f35b62000131620009d8565b62000191620009ee565b60405162000174919062001fc0565b6200013162000ad1565b620001c1620001bb36600462002028565b62000b48565b6040516001600160a01b03909116815260200162000174565b620001e462000e75565b60405162000174929190620020e1565b620001c162000f40565b620002156200020f36600462002113565b62000f6e565b6040516200017491906200218c565b6200021562001606565b620001c16200023f366004620021a8565b80516020818301810180516002825292820191909301209152546001600160a01b031681565b62000131620002763660046200225a565b6200166a565b620002936200028d366004620022c4565b620018d5565b604051620001749190620022de565b62000131620002b3366004620022f3565b6200198a565b620002c362000f40565b6001600160a01b03163303620003d75760006001600160a01b031660028484604051620002f292919062002311565b908152604051908190036020019020546001600160a01b0316036200035257600380546001810182556000919091527fc2575a0e9e593c00f959f8c92f12db2869c3395a3b0502d05e2516446f71f85b0162000350838583620023b2565b505b80600284846040516200036792919062002311565b90815260405190819003602001812080546001600160a01b03939093166001600160a01b0319909316929092179091557f2881466ae3b4402eb0e3d707416581efa9ce464c26cca0b40d5b290f48a94e2290620003ca90859085908590620024a8565b60405180910390a1505050565b60005b600054811015620005255760008181548110620003fb57620003fb620024d6565b6000918252602090912001546001600160a01b031633036200051c5760006001600160a01b0316600285856040516200043692919062002311565b908152604051908190036020019020546001600160a01b0316036200049657600380546001810182556000919091527fc2575a0e9e593c00f959f8c92f12db2869c3395a3b0502d05e2516446f71f85b0162000494848683620023b2565b505b8160028585604051620004ab92919062002311565b90815260405190819003602001812080546001600160a01b03939093166001600160a01b0319909316929092179091557f2881466ae3b4402eb0e3d707416581efa9ce464c26cca0b40d5b290f48a94e22906200050e90869086908690620024a8565b60405180910390a150505050565b600101620003da565b5060405162461bcd60e51b815260206004820152602d60248201527f596f7520617265206e6f7420617574686f72697a656420746f20706572666f7260448201526c36903a3434b99030b1ba34b7b760991b60648201526084015b60405180910390fd5b7ff0c57e16840df040f15088dc2f81fe391c3923bec73e23a9662efc9c229c6a008054600160401b810460ff1615906001600160401b0316600081158015620005cf5750825b90506000826001600160401b03166001148015620005ec5750303b155b905081158015620005fb575080155b156200061a5760405163f92ee8a960e01b815260040160405180910390fd5b845467ffffffffffffffff1916600117855583156200064557845460ff60401b1916600160401b1785555b6200065087620019cb565b6200065a620019e0565b62000664620019f4565b60005b86518110156200090b5760006001600160a01b0316878281518110620006915762000691620024d6565b6020026020010151602001516001600160a01b031603620006ee5760405162461bcd60e51b8152602060048201526016602482015275496e76616c696420626561636f6e206164647265737360501b604482015260640162000580565b6000878281518110620007055762000705620024d6565b6020026020010151600001515111620007555760405162461bcd60e51b8152602060048201526011602482015270456d70747920626561636f6e207479706560781b604482015260640162000580565b60005b818110156200080157878181518110620007765762000776620024d6565b602002602001015160000151805190602001208883815181106200079e576200079e620024d6565b6020026020010151600001518051906020012003620007f85760405162461bcd60e51b81526020600482015260156024820152744475706c696361746520626561636f6e207479706560581b604482015260640162000580565b60010162000758565b50868181518110620008175762000817620024d6565b60200260200101516020015160028883815181106200083a576200083a620024d6565b602002602001015160000151604051620008559190620024ec565b908152602001604051809103902060006101000a8154816001600160a01b0302191690836001600160a01b031602179055507f2881466ae3b4402eb0e3d707416581efa9ce464c26cca0b40d5b290f48a94e22878281518110620008bd57620008bd620024d6565b602002602001015160000151888381518110620008de57620008de620024d6565b602002602001015160200151604051620008fa9291906200250a565b60405180910390a160010162000667565b5083156200095357845460ff60401b19168555604051600181527fc7f505b2f371ae2175ee4913f4499e1f2633a7b5936321eed1cdaeb6115181d29060200160405180910390a15b50505050505050565b6200096662000f40565b6001600160a01b0316330362000982576200098062001a08565b565b60005b600054811015620005255760008181548110620009a657620009a6620024d6565b6000918252602090912001546001600160a01b03163303620009cf57620009cc62001a08565b50565b60010162000985565b620009e262001a6b565b62000980600062001aa1565b60606003805480602002602001604051908101604052809291908181526020016000905b8282101562000ac857838290600052602060002001805462000a349062002321565b80601f016020809104026020016040519081016040528092919081815260200182805462000a629062002321565b801562000ab35780601f1062000a875761010080835404028352916020019162000ab3565b820191906000526020600020905b81548152906001019060200180831162000a9557829003601f168201915b50505050508152602001906001019062000a12565b50505050905090565b62000adb62000f40565b6001600160a01b0316330362000af5576200098062001b12565b60005b60005481101562000525576000818154811062000b195762000b19620024d6565b6000918252602090912001546001600160a01b0316330362000b3f57620009cc62001b12565b60010162000af8565b600062000b5462001b5f565b62000b5e62000f40565b6001600160a01b0316330362000cc95760006001600160a01b03166002868660405162000b8d92919062002311565b908152604051908190036020019020546001600160a01b03160362000bc65760405162461bcd60e51b8152600401620005809062002536565b60006002868660405162000bdc92919062002311565b908152604051908190036020018120546001600160a01b0316908590859062000c059062001c6c565b62000c139392919062002582565b604051809103906000f08015801562000c30573d6000803e3d6000fd5b50600480546001810182556000919091527f8a35acfbc15ff81a39ae7d344fd709f28e8600b4aa8c65c6b64bfe7fe36bd19b0180546001600160a01b0319166001600160a01b03831617905560405190915081907f4da8c8e82a6cdcd021dddec73a637b429d2b0a9b303638f1258ff8a35c3e5d869062000cb790899089908590620024a8565b60405180910390a1915062000e6d9050565b60005b60005481101562000525576000818154811062000ced5762000ced620024d6565b6000918252602090912001546001600160a01b0316330362000e645760006001600160a01b03166002878760405162000d2892919062002311565b908152604051908190036020019020546001600160a01b03160362000d615760405162461bcd60e51b8152600401620005809062002536565b60006002878760405162000d7792919062002311565b908152604051908190036020018120546001600160a01b0316908690869062000da09062001c6c565b62000dae9392919062002582565b604051809103906000f08015801562000dcb573d6000803e3d6000fd5b50600480546001810182556000919091527f8a35acfbc15ff81a39ae7d344fd709f28e8600b4aa8c65c6b64bfe7fe36bd19b0180546001600160a01b0319166001600160a01b03831617905560405190915081907f4da8c8e82a6cdcd021dddec73a637b429d2b0a9b303638f1258ff8a35c3e5d869062000e52908a908a908590620024a8565b60405180910390a19250505062000e6d565b60010162000ccc565b949350505050565b606080600060018180548060200260200160405190810160405280929190818152602001828054801562000ed357602002820191906000526020600020905b81546001600160a01b0316815260019091019060200180831162000eb4575b505050505091508080548060200260200160405190810160405280929190818152602001828054801562000f3157602002820191906000526020600020905b81546001600160a01b0316815260019091019060200180831162000f12575b50505050509050915091509091565b7f9016d09d72d40fdae2fd8ceac6b6234c7706214fd39c1cd1e609a0528c199300546001600160a01b031690565b606062000f7a62001b5f565b62000f8462000f40565b6001600160a01b03163303620012b7576000826001600160401b0381111562000fb15762000fb162001d3b565b60405190808252806020026020018201604052801562000fdb578160200160208202803683370190505b50905060005b83811015620012ae576000858583818110620010015762001001620024d6565b9050602002810190620010159190620025a9565b620010219080620025c0565b905011620010725760405162461bcd60e51b815260206004820152601d60248201527f436f6e747261637420747970652063616e6e6f7420626520656d707479000000604482015260640162000580565b6000858583818110620010895762001089620024d6565b90506020028101906200109d9190620025a9565b620010ad906020810190620025c0565b905011858583818110620010c557620010c5620024d6565b9050602002810190620010d99190620025a9565b620010e59080620025c0565b604051602001620010f892919062002609565b60405160208183030381529060405290620011285760405162461bcd60e51b8152600401620005809190620022de565b5060006002868684818110620011425762001142620024d6565b9050602002810190620011569190620025a9565b620011629080620025c0565b6040516200117292919062002311565b908152604051908190036020019020546001600160a01b03161415858583818110620011a257620011a2620024d6565b9050602002810190620011b69190620025a9565b620011c29080620025c0565b604051602001620011d592919062002642565b60405160208183030381529060405290620012055760405162461bcd60e51b8152600401620005809190620022de565b50620012788585838181106200121f576200121f620024d6565b9050602002810190620012339190620025a9565b6200123f9080620025c0565b878785818110620012545762001254620024d6565b9050602002810190620012689190620025a9565b620001bb906020810190620025c0565b8282815181106200128d576200128d620024d6565b6001600160a01b039092166020928302919091019091015260010162000fe1565b50905062001600565b60005b600054811015620005255760008181548110620012db57620012db620024d6565b6000918252602090912001546001600160a01b03163303620015f7576000836001600160401b0381111562001314576200131462001d3b565b6040519080825280602002602001820160405280156200133e578160200160208202803683370190505b50905060005b84811015620015ed576000868683818110620013645762001364620024d6565b9050602002810190620013789190620025a9565b620013849080620025c0565b905011620013d55760405162461bcd60e51b815260206004820152601d60248201527f436f6e747261637420747970652063616e6e6f7420626520656d707479000000604482015260640162000580565b6000868683818110620013ec57620013ec620024d6565b9050602002810190620014009190620025a9565b62001410906020810190620025c0565b905011868683818110620014285762001428620024d6565b90506020028101906200143c9190620025a9565b620014489080620025c0565b6040516020016200145b92919062002609565b604051602081830303815290604052906200148b5760405162461bcd60e51b8152600401620005809190620022de565b5060006002878784818110620014a557620014a5620024d6565b9050602002810190620014b99190620025a9565b620014c59080620025c0565b604051620014d592919062002311565b908152604051908190036020019020546001600160a01b03161415868683818110620015055762001505620024d6565b9050602002810190620015199190620025a9565b620015259080620025c0565b6040516020016200153892919062002642565b60405160208183030381529060405290620015685760405162461bcd60e51b8152600401620005809190620022de565b50620015b7868683818110620015825762001582620024d6565b9050602002810190620015969190620025a9565b620015a29080620025c0565b888885818110620012545762001254620024d6565b828281518110620015cc57620015cc620024d6565b6001600160a01b039092166020928302919091019091015260010162001344565b5091505062001600565b600101620012ba565b92915050565b606060048054806020026020016040519081016040528092919081815260200182805480156200166057602002820191906000526020600020905b81546001600160a01b0316815260019091019060200180831162001641575b5050505050905090565b6200167462001b5f565b6000825111620016c75760405162461bcd60e51b815260206004820152601e60248201527f4d7573742068617665206174206c65617374206f6e6520666f756e6465720000604482015260640162000580565b60005b8251811015620017b15760006001600160a01b0316838281518110620016f457620016f4620024d6565b60200260200101516001600160a01b031603620017545760405162461bcd60e51b815260206004820152601760248201527f496e76616c696420666f756e6465722061646472657373000000000000000000604482015260640162000580565b60008382815181106200176b576200176b620024d6565b60209081029190910181015182546001808201855560009485529290932090920180546001600160a01b0319166001600160a01b039093169290921790915501620016ca565b5060005b8151811015620018955760006001600160a01b0316828281518110620017df57620017df620024d6565b60200260200101516001600160a01b031603620018385760405162461bcd60e51b8152602060048201526016602482015275496e76616c6964206d656d626572206164647265737360501b604482015260640162000580565b60018282815181106200184f576200184f620024d6565b60209081029190910181015182546001808201855560009485529290932090920180546001600160a01b0319166001600160a01b039093169290921790915501620017b5565b507f14bbcd93381ec042bd0247a11fa75d4fef24b31e785ca44971c6fc162c4f05af8282604051620018c9929190620020e1565b60405180910390a15050565b60038181548110620018e657600080fd5b906000526020600020016000915090508054620019039062002321565b80601f0160208091040260200160405190810160405280929190818152602001828054620019319062002321565b8015620019825780601f10620019565761010080835404028352916020019162001982565b820191906000526020600020905b8154815290600101906020018083116200196457829003601f168201915b505050505081565b6200199462001a6b565b6001600160a01b038116620019c057604051631e4fbdf760e01b81526000600482015260240162000580565b620009cc8162001aa1565b620019d562001b92565b620009cc8162001bdc565b620019ea62001b92565b6200098062001be6565b620019fe62001b92565b6200098062001c16565b62001a1262001c3a565b60008051602062002c3b833981519152805460ff191681557f5db9ee0a495bf2e6ff9c91a7834c1ba4fdd244a5e8aa4e537bd38aeae4b073aa335b6040516001600160a01b03909116815260200160405180910390a150565b3362001a7662000f40565b6001600160a01b031614620009805760405163118cdaa760e01b815233600482015260240162000580565b7f9016d09d72d40fdae2fd8ceac6b6234c7706214fd39c1cd1e609a0528c19930080546001600160a01b031981166001600160a01b03848116918217845560405192169182907f8be0079c531659141344cd1fd0a4f28419497f9722a3daafe3b4186f6b6457e090600090a3505050565b62001b1c62001b5f565b60008051602062002c3b833981519152805460ff191660011781557f62e78cea01bee320cd4e420270b5ea74000d11b0c9f74754ebdbfc544b05a2583362001a4d565b60008051602062002c3b8339815191525460ff1615620009805760405163d93c066560e01b815260040160405180910390fd5b7ff0c57e16840df040f15088dc2f81fe391c3923bec73e23a9662efc9c229c6a0054600160401b900460ff166200098057604051631afcd79f60e31b815260040160405180910390fd5b6200199462001b92565b62001bf062001b92565b60017f9b779b17422d0df92223018b32b4d1fa46e071723d6817e2486d003becc55f0055565b62001c2062001b92565b60008051602062002c3b833981519152805460ff19169055565b60008051602062002c3b8339815191525460ff166200098057604051638dfc202b60e01b815260040160405180910390fd5b6105bf806200267c83390190565b60008083601f84011262001c8d57600080fd5b5081356001600160401b0381111562001ca557600080fd5b60208301915083602082850101111562001cbe57600080fd5b9250929050565b80356001600160a01b038116811462001cdd57600080fd5b919050565b60008060006040848603121562001cf857600080fd5b83356001600160401b0381111562001d0f57600080fd5b62001d1d8682870162001c7a565b909450925062001d3290506020850162001cc5565b90509250925092565b634e487b7160e01b600052604160045260246000fd5b604080519081016001600160401b038111828210171562001d765762001d7662001d3b565b60405290565b604051601f8201601f191681016001600160401b038111828210171562001da75762001da762001d3b565b604052919050565b60006001600160401b0382111562001dcb5762001dcb62001d3b565b5060051b60200190565b600082601f83011262001de757600080fd5b81356001600160401b0381111562001e035762001e0362001d3b565b62001e18601f8201601f191660200162001d7c565b81815284602083860101111562001e2e57600080fd5b816020850160208301376000918101602001919091529392505050565b600080604080848603121562001e6057600080fd5b62001e6b8462001cc5565b92506020808501356001600160401b038082111562001e8957600080fd5b818701915087601f83011262001e9e57600080fd5b813562001eb562001eaf8262001daf565b62001d7c565b81815260059190911b8301840190848101908a83111562001ed557600080fd5b8585015b8381101562001f5a5780358581111562001ef35760008081fd5b8601808d03601f190189131562001f0a5760008081fd5b62001f1462001d51565b888201358781111562001f275760008081fd5b62001f378f8b8386010162001dd5565b82525062001f478a830162001cc5565b818a015284525091860191860162001ed9565b50809750505050505050509250929050565b60005b8381101562001f8957818101518382015260200162001f6f565b50506000910152565b6000815180845262001fac81602086016020860162001f6c565b601f01601f19169290920160200192915050565b600060208083016020845280855180835260408601915060408160051b87010192506020870160005b828110156200201b57603f198886030184526200200885835162001f92565b9450928501929085019060010162001fe9565b5092979650505050505050565b600080600080604085870312156200203f57600080fd5b84356001600160401b03808211156200205757600080fd5b620020658883890162001c7a565b909650945060208701359150808211156200207f57600080fd5b506200208e8782880162001c7a565b95989497509550505050565b60008151808452602080850194506020840160005b83811015620020d65781516001600160a01b031687529582019590820190600101620020af565b509495945050505050565b604081526000620020f660408301856200209a565b82810360208401526200210a81856200209a565b95945050505050565b600080602083850312156200212757600080fd5b82356001600160401b03808211156200213f57600080fd5b818501915085601f8301126200215457600080fd5b8135818111156200216457600080fd5b8660208260051b85010111156200217a57600080fd5b60209290920196919550909350505050565b602081526000620021a160208301846200209a565b9392505050565b600060208284031215620021bb57600080fd5b81356001600160401b03811115620021d257600080fd5b62000e6d8482850162001dd5565b600082601f830112620021f257600080fd5b813560206200220562001eaf8362001daf565b8083825260208201915060208460051b8701019350868411156200222857600080fd5b602086015b848110156200224f57620022418162001cc5565b83529183019183016200222d565b509695505050505050565b600080604083850312156200226e57600080fd5b82356001600160401b03808211156200228657600080fd5b6200229486838701620021e0565b93506020850135915080821115620022ab57600080fd5b50620022ba85828601620021e0565b9150509250929050565b600060208284031215620022d757600080fd5b5035919050565b602081526000620021a1602083018462001f92565b6000602082840312156200230657600080fd5b620021a18262001cc5565b8183823760009101908152919050565b600181811c908216806200233657607f821691505b6020821081036200235757634e487b7160e01b600052602260045260246000fd5b50919050565b601f821115620023ad576000816000526020600020601f850160051c81016020861015620023885750805b601f850160051c820191505b81811015620023a95782815560010162002394565b5050505b505050565b6001600160401b03831115620023cc57620023cc62001d3b565b620023e483620023dd835462002321565b836200235d565b6000601f8411600181146200241b5760008515620024025750838201355b600019600387901b1c1916600186901b17835562002478565b600083815260209020601f19861690835b828110156200244e57868501358255602094850194600190920191016200242c565b50868210156200246c5760001960f88860031b161c19848701351681555b505060018560011b0183555b5050505050565b81835281816020850137506000828201602090810191909152601f909101601f19169091010190565b604081526000620024be6040830185876200247f565b905060018060a01b0383166020830152949350505050565b634e487b7160e01b600052603260045260246000fd5b600082516200250081846020870162001f6c565b9190910192915050565b6040815260006200251f604083018562001f92565b905060018060a01b03831660208301529392505050565b6020808252602c908201527f426561636f6e206e6f7420636f6e6669677572656420666f722074686973206360408201526b6f6e7472616374207479706560a01b606082015260800190565b6001600160a01b03841681526040602082018190526000906200210a90830184866200247f565b60008235603e198336030181126200250057600080fd5b6000808335601e19843603018112620025d857600080fd5b8301803591506001600160401b03821115620025f357600080fd5b60200191503681900382131562001cbe57600080fd5b7f4d697373696e6720696e697469616c697a6572206461746120666f722000000081528183601d83013760009101601d01908152919050565b7f426561636f6e206e6f7420636f6e6669677572656420666f722000000000000081528183601a83013760009101601a0190815291905056fe60a06040526040516105bf3803806105bf83398101604081905261002291610387565b61002c828261003e565b506001600160a01b031660805261047e565b610047826100fe565b6040516001600160a01b038316907f1cf3b03a6cf19fa2baba4df148e9dcabedea7f8a5c07840e207e5c089be95d3e90600090a28051156100f2576100ed826001600160a01b0316635c60da1b6040518163ffffffff1660e01b8152600401602060405180830381865afa1580156100c3573d6000803e3d6000fd5b505050506040513d601f19601f820116820180604052508101906100e79190610447565b82610211565b505050565b6100fa610288565b5050565b806001600160a01b03163b60000361013957604051631933b43b60e21b81526001600160a01b03821660048201526024015b60405180910390fd5b807fa3f0ad74e5423aebfd80d3ef4346578335a9a72aeaee59ff6cb3582b35133d5080546001600160a01b0319166001600160a01b0392831617905560408051635c60da1b60e01b81529051600092841691635c60da1b9160048083019260209291908290030181865afa1580156101b5573d6000803e3d6000fd5b505050506040513d601f19601f820116820180604052508101906101d99190610447565b9050806001600160a01b03163b6000036100fa57604051634c9c8ce360e01b81526001600160a01b0382166004820152602401610130565b6060600080846001600160a01b03168460405161022e9190610462565b600060405180830381855af49150503d8060008114610269576040519150601f19603f3d011682016040523d82523d6000602084013e61026e565b606091505b50909250905061027f8583836102a9565b95945050505050565b34156102a75760405163b398979f60e01b815260040160405180910390fd5b565b6060826102be576102b982610308565b610301565b81511580156102d557506001600160a01b0384163b155b156102fe57604051639996b31560e01b81526001600160a01b0385166004820152602401610130565b50805b9392505050565b8051156103185780518082602001fd5b604051630a12f52160e11b815260040160405180910390fd5b80516001600160a01b038116811461034857600080fd5b919050565b634e487b7160e01b600052604160045260246000fd5b60005b8381101561037e578181015183820152602001610366565b50506000910152565b6000806040838503121561039a57600080fd5b6103a383610331565b60208401519092506001600160401b03808211156103c057600080fd5b818501915085601f8301126103d457600080fd5b8151818111156103e6576103e661034d565b604051601f8201601f19908116603f0116810190838211818310171561040e5761040e61034d565b8160405282815288602084870101111561042757600080fd5b610438836020830160208801610363565b80955050505050509250929050565b60006020828403121561045957600080fd5b61030182610331565b60008251610474818460208701610363565b9190910192915050565b6080516101276104986000396000601e01526101276000f3fe6080604052600a600c565b005b60186014601a565b60a0565b565b60007f00000000000000000000000000000000000000000000000000000000000000006001600160a01b0316635c60da1b6040518163ffffffff1660e01b8152600401602060405180830381865afa1580156079573d6000803e3d6000fd5b505050506040513d601f19601f82011682018060405250810190609b919060c3565b905090565b3660008037600080366000845af43d6000803e80801560be573d6000f35b3d6000fd5b60006020828403121560d457600080fd5b81516001600160a01b038116811460ea57600080fd5b939250505056fea264697066735822122038063abf0acf0012aa106601a36fadbbf1a7604cc3cbd26cfa83a39a16756e2164736f6c63430008180033cd5ed15c6e187e77e9aee88184c21f4f2182ab5827cb3b7e07fbedcd63f03300a2646970667358221220dde556279120d80244c454c8ffe9c550d8b0ea856ebfc026309771d47be1eed864736f6c63430008180033",
  "linkReferences": {},
  "deployedLinkReferences": {}
}