{
  "_format": "hh-sol-artifact-1",
  "contractName": "Officer",
  "sourceName": "contracts/Officer.sol",
  "abi": [
    {
      "inputs": [],
      "name": "EnforcedPause",
      "type": "error"
    },
    {
      "inputs": [],
      "name": "ExpectedPause",
      "type": "error"
    },
    {
      "inputs": [],
      "name": "InvalidInitialization",
      "type": "error"
    },
    {
      "inputs": [],
      "name": "NotInitializing",
      "type": "error"
    },
    {
      "inputs": [
        {
          "internalType": "address",
          "name": "owner",
          "type": "address"
        }
      ],
      "name": "OwnableInvalidOwner",
      "type": "error"
    },
    {
      "inputs": [
        {
          "internalType": "address",
          "name": "account",
          "type": "address"
        }
      ],
      "name": "OwnableUnauthorizedAccount",
      "type": "error"
    },
    {
      "inputs": [],
      "name": "ReentrancyGuardReentrantCall",
      "type": "error"
    },
    {
      "anonymous": false,
      "inputs": [
        {
          "indexed": false,
          "internalType": "string",
          "name": "contractType",
          "type": "string"
        },
        {
          "indexed": false,
          "internalType": "address",
          "name": "contractAddress",
          "type": "address"
        }
      ],
      "name": "ContractDeployed",
      "type": "event"
    },
    {
      "anonymous": false,
      "inputs": [
        {
          "indexed": false,
          "internalType": "uint64",
          "name": "version",
          "type": "uint64"
        }
      ],
      "name": "Initialized",
      "type": "event"
    },
    {
      "anonymous": false,
      "inputs": [
        {
          "indexed": true,
          "internalType": "address",
          "name": "previousOwner",
          "type": "address"
        },
        {
          "indexed": true,
          "internalType": "address",
          "name": "newOwner",
          "type": "address"
        }
      ],
      "name": "OwnershipTransferred",
      "type": "event"
    },
    {
      "anonymous": false,
      "inputs": [
        {
          "indexed": false,
          "internalType": "address",
          "name": "account",
          "type": "address"
        }
      ],
      "name": "Paused",
      "type": "event"
    },
    {
      "anonymous": false,
      "inputs": [
        {
          "indexed": false,
          "internalType": "address[]",
          "name": "founders",
          "type": "address[]"
        },
        {
          "indexed": false,
          "internalType": "address[]",
          "name": "members",
          "type": "address[]"
        }
      ],
      "name": "TeamCreated",
      "type": "event"
    },
    {
      "anonymous": false,
      "inputs": [
        {
          "indexed": false,
          "internalType": "address",
          "name": "account",
          "type": "address"
        }
      ],
      "name": "Unpaused",
      "type": "event"
    },
    {
      "inputs": [],
      "name": "bankAccountBeacon",
      "outputs": [
        {
          "internalType": "address",
          "name": "",
          "type": "address"
        }
      ],
      "stateMutability": "view",
      "type": "function"
    },
    {
      "inputs": [
        {
          "internalType": "address[]",
          "name": "_founders",
          "type": "address[]"
        },
        {
          "internalType": "address[]",
          "name": "_members",
          "type": "address[]"
        }
      ],
      "name": "createTeam",
      "outputs": [],
      "stateMutability": "nonpayable",
      "type": "function"
    },
    {
      "inputs": [
        {
          "internalType": "address",
          "name": "tipsAddress",
          "type": "address"
        }
      ],
      "name": "deployBankAccount",
      "outputs": [],
      "stateMutability": "nonpayable",
      "type": "function"
    },
    {
      "inputs": [],
      "name": "deployVotingContract",
      "outputs": [],
      "stateMutability": "nonpayable",
      "type": "function"
    },
    {
      "inputs": [],
      "name": "employeeContractBeacon",
      "outputs": [
        {
          "internalType": "address",
          "name": "",
          "type": "address"
        }
      ],
      "stateMutability": "view",
      "type": "function"
    },
    {
      "inputs": [],
      "name": "getTeam",
      "outputs": [
        {
          "internalType": "address[]",
          "name": "",
          "type": "address[]"
        },
        {
          "internalType": "address[]",
          "name": "",
          "type": "address[]"
        },
        {
          "internalType": "address",
          "name": "",
          "type": "address"
        },
        {
          "internalType": "address",
          "name": "",
          "type": "address"
        }
      ],
      "stateMutability": "view",
      "type": "function"
    },
    {
      "inputs": [
        {
          "internalType": "address",
          "name": "_bankAccountBeacon",
          "type": "address"
        },
        {
          "internalType": "address",
          "name": "_votingContractBeacon",
          "type": "address"
        }
      ],
      "name": "initialize",
      "outputs": [],
      "stateMutability": "nonpayable",
      "type": "function"
    },
    {
      "inputs": [],
      "name": "owner",
      "outputs": [
        {
          "internalType": "address",
          "name": "",
          "type": "address"
        }
      ],
      "stateMutability": "view",
      "type": "function"
    },
    {
      "inputs": [],
      "name": "paused",
      "outputs": [
        {
          "internalType": "bool",
          "name": "",
          "type": "bool"
        }
      ],
      "stateMutability": "view",
      "type": "function"
    },
    {
      "inputs": [],
      "name": "renounceOwnership",
      "outputs": [],
      "stateMutability": "nonpayable",
      "type": "function"
    },
    {
      "inputs": [
        {
          "internalType": "address",
          "name": "newOwner",
          "type": "address"
        }
      ],
      "name": "transferOwnership",
      "outputs": [],
      "stateMutability": "nonpayable",
      "type": "function"
    },
    {
      "inputs": [
        {
          "internalType": "address",
          "name": "newOwner",
          "type": "address"
        }
      ],
      "name": "transferOwnershipToBOD",
      "outputs": [],
      "stateMutability": "nonpayable",
      "type": "function"
    },
    {
      "inputs": [],
      "name": "votingContractBeacon",
      "outputs": [
        {
          "internalType": "address",
          "name": "",
          "type": "address"
        }
      ],
      "stateMutability": "view",
      "type": "function"
    }
  ],
  "bytecode": "0x608060405234801561001057600080fd5b506118fe806100206000396000f3fe60806040523480156200001157600080fd5b5060043610620000e05760003560e01c80638bce6edd1162000097578063d2d7b54a116200006e578063d2d7b54a14620001ca578063ec12649a14620001e1578063f2fde38b14620001f5578063f37606b5146200020c57600080fd5b80638bce6edd14620001905780638da5cb5b14620001ac578063bc11665f14620001b657600080fd5b80630346a03c14620000e5578063485cc95514620001165780635c975abb146200012f5780636324bef21462000165578063658e5155146200017c578063715018a61462000186575b600080fd5b600654620000f9906001600160a01b031681565b6040516001600160a01b0390911681526020015b60405180910390f35b6200012d6200012736600462000ee1565b62000223565b005b7fcd5ed15c6e187e77e9aee88184c21f4f2182ab5827cb3b7e07fbedcd63f033005460ff1660405190151581526020016200010d565b6200012d6200017636600462000f19565b62000380565b6200012d620003d7565b6200012d620006cc565b6200019a620006e4565b6040516200010d949392919062000f85565b620000f9620007ce565b600554620000f9906001600160a01b031681565b6200012d620001db3660046200109a565b620007fc565b600454620000f9906001600160a01b031681565b6200012d6200020636600462000f19565b62000a6d565b6200012d6200021d36600462000f19565b62000ab1565b7ff0c57e16840df040f15088dc2f81fe391c3923bec73e23a9662efc9c229c6a008054600160401b810460ff16159067ffffffffffffffff166000811580156200026a5750825b905060008267ffffffffffffffff166001148015620002885750303b155b90508115801562000297575080155b15620002b65760405163f92ee8a960e01b815260040160405180910390fd5b845467ffffffffffffffff191660011785558315620002e157845460ff60401b1916600160401b1785555b620002ec3362000d19565b620002f662000d2e565b6200030062000d42565b600480546001600160a01b03808a166001600160a01b031992831617909255600680549289169290911691909117905583156200037757845460ff60401b19168555604051600181527fc7f505b2f371ae2175ee4913f4499e1f2633a7b5936321eed1cdaeb6115181d29060200160405180910390a15b50505050505050565b6200038b8162000a6d565b806001600160a01b03166200039f620007ce565b6001600160a01b03167f8be0079c531659141344cd1fd0a4f28419497f9722a3daafe3b4186f6b6457e060405160405180910390a350565b620003e1620007ce565b6001600160a01b031633036200050e576003546001600160a01b031615620004265760405162461bcd60e51b81526004016200041d9062001105565b60405180910390fd5b6006546001600160a01b0316620004515760405162461bcd60e51b81526004016200041d9062001149565b60065460408051600481526024810182526020810180516001600160e01b031663204a7f0760e21b17905290516000926001600160a01b03169190620004979062000eb6565b620004a49291906200118b565b604051809103906000f080158015620004c1573d6000803e3d6000fd5b50600380546001600160a01b0319166001600160a01b038316908117909155604051919250600080516020620018a983398151915291620005039190620011ec565b60405180910390a150565b60005b6000548110156200066c576000818154811062000532576200053262001225565b6000918252602090912001546001600160a01b0316330362000663576003546001600160a01b0316156200057a5760405162461bcd60e51b81526004016200041d9062001105565b6006546001600160a01b0316620005a55760405162461bcd60e51b81526004016200041d9062001149565b60065460408051600481526024810182526020810180516001600160e01b031663204a7f0760e21b17905290516000926001600160a01b03169190620005eb9062000eb6565b620005f89291906200118b565b604051809103906000f08015801562000615573d6000803e3d6000fd5b50600380546001600160a01b0319166001600160a01b038316908117909155604051919250600080516020620018a983398151915291620006579190620011ec565b60405180910390a15050565b60010162000511565b5060405162461bcd60e51b815260206004820152602d60248201527f596f7520617265206e6f7420617574686f72697a656420746f20706572666f7260448201526c36903a3434b99030b1ba34b7b760991b60648201526084016200041d565b620006d662000d56565b620006e2600062000d8c565b565b60025460035460008054604080516020808402820181019092528281526060958695859485946001946001600160a01b0394851694909316929186918301828280156200075b57602002820191906000526020600020905b81546001600160a01b031681526001909101906020018083116200073c575b5050505050935082805480602002602001604051908101604052809291908181526020018280548015620007b957602002820191906000526020600020905b81546001600160a01b031681526001909101906020018083116200079a575b50505050509250935093509350935090919293565b7f9016d09d72d40fdae2fd8ceac6b6234c7706214fd39c1cd1e609a0528c199300546001600160a01b031690565b60008251116200084f5760405162461bcd60e51b815260206004820152601e60248201527f4d7573742068617665206174206c65617374206f6e6520666f756e646572000060448201526064016200041d565b600280546001600160a01b031990811690915560038054909116905560005b8251811015620009555760006001600160a01b031683828151811062000898576200089862001225565b60200260200101516001600160a01b031603620008f85760405162461bcd60e51b815260206004820152601760248201527f496e76616c696420666f756e646572206164647265737300000000000000000060448201526064016200041d565b60008382815181106200090f576200090f62001225565b60209081029190910181015182546001808201855560009485529290932090920180546001600160a01b0319166001600160a01b0390931692909217909155016200086e565b5060005b815181101562000a395760006001600160a01b031682828151811062000983576200098362001225565b60200260200101516001600160a01b031603620009dc5760405162461bcd60e51b8152602060048201526016602482015275496e76616c6964206d656d626572206164647265737360501b60448201526064016200041d565b6001828281518110620009f357620009f362001225565b60209081029190910181015182546001808201855560009485529290932090920180546001600160a01b0319166001600160a01b03909316929092179091550162000959565b507f14bbcd93381ec042bd0247a11fa75d4fef24b31e785ca44971c6fc162c4f05af8282604051620006579291906200123b565b62000a7762000d56565b6001600160a01b03811662000aa357604051631e4fbdf760e01b8152600060048201526024016200041d565b62000aae8162000d8c565b50565b62000abb620007ce565b6001600160a01b0316330362000bc7576002546001600160a01b03161562000af75760405162461bcd60e51b81526004016200041d906200126d565b6004546040516001600160a01b038381166024830152600092169063189acdbd60e31b9060440160408051601f198184030181529181526020820180516001600160e01b03166001600160e01b031990941693909317909252905162000b5d9062000eb6565b62000b6a9291906200118b565b604051809103906000f08015801562000b87573d6000803e3d6000fd5b50600280546001600160a01b0319166001600160a01b038316179055604051909150600080516020620018a98339815191529062000657908390620012b3565b60005b6000548110156200066c576000818154811062000beb5762000beb62001225565b6000918252602090912001546001600160a01b0316330362000d10576002546001600160a01b03161562000c335760405162461bcd60e51b81526004016200041d906200126d565b6004546040516001600160a01b038481166024830152600092169063189acdbd60e31b9060440160408051601f198184030181529181526020820180516001600160e01b03166001600160e01b031990941693909317909252905162000c999062000eb6565b62000ca69291906200118b565b604051809103906000f08015801562000cc3573d6000803e3d6000fd5b50600280546001600160a01b0319166001600160a01b038316179055604051909150600080516020620018a98339815191529062000d03908390620012b3565b60405180910390a1505050565b60010162000bca565b62000d2362000dfd565b62000aae8162000e47565b62000d3862000dfd565b620006e262000e51565b62000d4c62000dfd565b620006e262000e81565b3362000d61620007ce565b6001600160a01b031614620006e25760405163118cdaa760e01b81523360048201526024016200041d565b7f9016d09d72d40fdae2fd8ceac6b6234c7706214fd39c1cd1e609a0528c19930080546001600160a01b031981166001600160a01b03848116918217845560405192169182907f8be0079c531659141344cd1fd0a4f28419497f9722a3daafe3b4186f6b6457e090600090a3505050565b7ff0c57e16840df040f15088dc2f81fe391c3923bec73e23a9662efc9c229c6a0054600160401b900460ff16620006e257604051631afcd79f60e31b815260040160405180910390fd5b62000a7762000dfd565b62000e5b62000dfd565b60017f9b779b17422d0df92223018b32b4d1fa46e071723d6817e2486d003becc55f0055565b62000e8b62000dfd565b7fcd5ed15c6e187e77e9aee88184c21f4f2182ab5827cb3b7e07fbedcd63f03300805460ff19169055565b6105bf80620012ea83390190565b80356001600160a01b038116811462000edc57600080fd5b919050565b6000806040838503121562000ef557600080fd5b62000f008362000ec4565b915062000f106020840162000ec4565b90509250929050565b60006020828403121562000f2c57600080fd5b62000f378262000ec4565b9392505050565b60008151808452602080850194506020840160005b8381101562000f7a5781516001600160a01b03168752958201959082019060010162000f53565b509495945050505050565b60808152600062000f9a608083018762000f3e565b828103602084015262000fae818762000f3e565b6001600160a01b03958616604085015293909416606090920191909152509392505050565b634e487b7160e01b600052604160045260246000fd5b600082601f83011262000ffb57600080fd5b8135602067ffffffffffffffff808311156200101b576200101b62000fd3565b8260051b604051601f19603f8301168101818110848211171562001043576200104362000fd3565b60405293845260208187018101949081019250878511156200106457600080fd5b6020870191505b848210156200108f576200107f8262000ec4565b835291830191908301906200106b565b979650505050505050565b60008060408385031215620010ae57600080fd5b823567ffffffffffffffff80821115620010c757600080fd5b620010d58683870162000fe9565b93506020850135915080821115620010ec57600080fd5b50620010fb8582860162000fe9565b9150509250929050565b60208082526024908201527f476f7665726e616e636520636f6e747261637420616c7265616479206465706c6040820152631bde595960e21b606082015260800190565b60208082526022908201527f496e76616c696420676f7665726e616e636520636f6e7472616374206265616360408201526137b760f11b606082015260800190565b60018060a01b03831681526000602060406020840152835180604085015260005b81811015620011ca57858101830151858201606001528201620011ac565b506000606082860101526060601f19601f830116850101925050509392505050565b6040808252600e908201526d159bdd1a5b99d0dbdb9d1c9858dd60921b60608201526001600160a01b0391909116602082015260800190565b634e487b7160e01b600052603260045260246000fd5b60408152600062001250604083018562000f3e565b828103602084015262001264818562000f3e565b95945050505050565b60208082526026908201527f42616e6b206163636f756e7420636f6e747261637420616c72656164792064656040820152651c1b1bde595960d21b606082015260800190565b6040808252600b908201526a10985b9ad058d8dbdd5b9d60aa1b60608201526001600160a01b039190911660208201526080019056fe60a06040526040516105bf3803806105bf83398101604081905261002291610387565b61002c828261003e565b506001600160a01b031660805261047e565b610047826100fe565b6040516001600160a01b038316907f1cf3b03a6cf19fa2baba4df148e9dcabedea7f8a5c07840e207e5c089be95d3e90600090a28051156100f2576100ed826001600160a01b0316635c60da1b6040518163ffffffff1660e01b8152600401602060405180830381865afa1580156100c3573d6000803e3d6000fd5b505050506040513d601f19601f820116820180604052508101906100e79190610447565b82610211565b505050565b6100fa610288565b5050565b806001600160a01b03163b60000361013957604051631933b43b60e21b81526001600160a01b03821660048201526024015b60405180910390fd5b807fa3f0ad74e5423aebfd80d3ef4346578335a9a72aeaee59ff6cb3582b35133d5080546001600160a01b0319166001600160a01b0392831617905560408051635c60da1b60e01b81529051600092841691635c60da1b9160048083019260209291908290030181865afa1580156101b5573d6000803e3d6000fd5b505050506040513d601f19601f820116820180604052508101906101d99190610447565b9050806001600160a01b03163b6000036100fa57604051634c9c8ce360e01b81526001600160a01b0382166004820152602401610130565b6060600080846001600160a01b03168460405161022e9190610462565b600060405180830381855af49150503d8060008114610269576040519150601f19603f3d011682016040523d82523d6000602084013e61026e565b606091505b50909250905061027f8583836102a9565b95945050505050565b34156102a75760405163b398979f60e01b815260040160405180910390fd5b565b6060826102be576102b982610308565b610301565b81511580156102d557506001600160a01b0384163b155b156102fe57604051639996b31560e01b81526001600160a01b0385166004820152602401610130565b50805b9392505050565b8051156103185780518082602001fd5b604051630a12f52160e11b815260040160405180910390fd5b80516001600160a01b038116811461034857600080fd5b919050565b634e487b7160e01b600052604160045260246000fd5b60005b8381101561037e578181015183820152602001610366565b50506000910152565b6000806040838503121561039a57600080fd5b6103a383610331565b60208401519092506001600160401b03808211156103c057600080fd5b818501915085601f8301126103d457600080fd5b8151818111156103e6576103e661034d565b604051601f8201601f19908116603f0116810190838211818310171561040e5761040e61034d565b8160405282815288602084870101111561042757600080fd5b610438836020830160208801610363565b80955050505050509250929050565b60006020828403121561045957600080fd5b61030182610331565b60008251610474818460208701610363565b9190910192915050565b6080516101276104986000396000601e01526101276000f3fe6080604052600a600c565b005b60186014601a565b60a0565b565b60007f00000000000000000000000000000000000000000000000000000000000000006001600160a01b0316635c60da1b6040518163ffffffff1660e01b8152600401602060405180830381865afa1580156079573d6000803e3d6000fd5b505050506040513d601f19601f82011682018060405250810190609b919060c3565b905090565b3660008037600080366000845af43d6000803e80801560be573d6000f35b3d6000fd5b60006020828403121560d457600080fd5b81516001600160a01b038116811460ea57600080fd5b939250505056fea264697066735822122038063abf0acf0012aa106601a36fadbbf1a7604cc3cbd26cfa83a39a16756e2164736f6c634300081800334da8c8e82a6cdcd021dddec73a637b429d2b0a9b303638f1258ff8a35c3e5d86a26469706673582212206ced0c4170caa603519a1cf750b0de0caef0677295e0a650f5f3c122cdb7bc0464736f6c63430008180033",
  "linkReferences": {},
  "deployedLinkReferences": {}
}