{
  "_format": "hh-sol-artifact-1",
  "contractName": "Officer",
  "sourceName": "contracts/Officer.sol",
  "abi": [
    {
      "inputs": [],
      "name": "EnforcedPause",
      "type": "error"
    },
    {
      "inputs": [],
      "name": "ExpectedPause",
      "type": "error"
    },
    {
      "inputs": [],
      "name": "InvalidInitialization",
      "type": "error"
    },
    {
      "inputs": [],
      "name": "NotInitializing",
      "type": "error"
    },
    {
      "inputs": [
        {
          "internalType": "address",
          "name": "owner",
          "type": "address"
        }
      ],
      "name": "OwnableInvalidOwner",
      "type": "error"
    },
    {
      "inputs": [
        {
          "internalType": "address",
          "name": "account",
          "type": "address"
        }
      ],
      "name": "OwnableUnauthorizedAccount",
      "type": "error"
    },
    {
      "inputs": [],
      "name": "ReentrancyGuardReentrantCall",
      "type": "error"
    },
    {
      "anonymous": false,
      "inputs": [
        {
          "indexed": false,
          "internalType": "string",
          "name": "contractType",
          "type": "string"
        },
        {
          "indexed": false,
          "internalType": "address",
          "name": "beaconAddress",
          "type": "address"
        }
      ],
      "name": "BeaconConfigured",
      "type": "event"
    },
    {
      "anonymous": false,
      "inputs": [
        {
          "indexed": false,
          "internalType": "string",
          "name": "contractType",
          "type": "string"
        },
        {
          "indexed": false,
          "internalType": "address",
          "name": "deployedAddress",
          "type": "address"
        }
      ],
      "name": "ContractDeployed",
      "type": "event"
    },
    {
      "anonymous": false,
      "inputs": [
        {
          "indexed": false,
          "internalType": "uint64",
          "name": "version",
          "type": "uint64"
        }
      ],
      "name": "Initialized",
      "type": "event"
    },
    {
      "anonymous": false,
      "inputs": [
        {
          "indexed": true,
          "internalType": "address",
          "name": "previousOwner",
          "type": "address"
        },
        {
          "indexed": true,
          "internalType": "address",
          "name": "newOwner",
          "type": "address"
        }
      ],
      "name": "OwnershipTransferred",
      "type": "event"
    },
    {
      "anonymous": false,
      "inputs": [
        {
          "indexed": false,
          "internalType": "address",
          "name": "account",
          "type": "address"
        }
      ],
      "name": "Paused",
      "type": "event"
    },
    {
      "anonymous": false,
      "inputs": [
        {
          "indexed": false,
          "internalType": "address[]",
          "name": "founders",
          "type": "address[]"
        },
        {
          "indexed": false,
          "internalType": "address[]",
          "name": "members",
          "type": "address[]"
        }
      ],
      "name": "TeamCreated",
      "type": "event"
    },
    {
      "anonymous": false,
      "inputs": [
        {
          "indexed": false,
          "internalType": "address",
          "name": "account",
          "type": "address"
        }
      ],
      "name": "Unpaused",
      "type": "event"
    },
    {
      "inputs": [
        {
          "internalType": "string",
          "name": "contractType",
          "type": "string"
        },
        {
          "internalType": "address",
          "name": "beaconAddress",
          "type": "address"
        }
      ],
      "name": "configureBeacon",
      "outputs": [],
      "stateMutability": "nonpayable",
      "type": "function"
    },
    {
      "inputs": [
        {
          "internalType": "string",
          "name": "",
          "type": "string"
        }
      ],
      "name": "contractBeacons",
      "outputs": [
        {
          "internalType": "address",
          "name": "",
          "type": "address"
        }
      ],
      "stateMutability": "view",
      "type": "function"
    },
    {
      "inputs": [
        {
          "internalType": "uint256",
          "name": "",
          "type": "uint256"
        }
      ],
      "name": "contractTypes",
      "outputs": [
        {
          "internalType": "string",
          "name": "",
          "type": "string"
        }
      ],
      "stateMutability": "view",
      "type": "function"
    },
    {
      "inputs": [
        {
          "internalType": "address[]",
          "name": "_founders",
          "type": "address[]"
        },
        {
          "internalType": "address[]",
          "name": "_members",
          "type": "address[]"
        }
      ],
      "name": "createTeam",
      "outputs": [],
      "stateMutability": "nonpayable",
      "type": "function"
    },
    {
      "inputs": [
        {
          "components": [
            {
              "internalType": "string",
              "name": "contractType",
              "type": "string"
            },
            {
              "internalType": "bytes",
              "name": "initializerData",
              "type": "bytes"
            }
          ],
          "internalType": "struct Officer.DeploymentData[]",
          "name": "deployments",
          "type": "tuple[]"
        }
      ],
      "name": "deployAllContracts",
      "outputs": [
        {
          "internalType": "address[]",
          "name": "",
          "type": "address[]"
        }
      ],
      "stateMutability": "nonpayable",
      "type": "function"
    },
    {
      "inputs": [
        {
          "internalType": "string",
          "name": "contractType",
          "type": "string"
        },
        {
          "internalType": "bytes",
          "name": "initializerData",
          "type": "bytes"
        }
      ],
      "name": "deployBeaconProxy",
      "outputs": [
        {
          "internalType": "address",
          "name": "",
          "type": "address"
        }
      ],
      "stateMutability": "nonpayable",
      "type": "function"
    },
    {
      "inputs": [],
      "name": "getConfiguredContractTypes",
      "outputs": [
        {
          "internalType": "string[]",
          "name": "",
          "type": "string[]"
        }
      ],
      "stateMutability": "view",
      "type": "function"
    },
    {
      "inputs": [],
      "name": "getDeployedContracts",
      "outputs": [
        {
          "components": [
            {
              "internalType": "string",
              "name": "contractType",
              "type": "string"
            },
            {
              "internalType": "address",
              "name": "contractAddress",
              "type": "address"
            }
          ],
          "internalType": "struct Officer.DeployedContract[]",
          "name": "",
          "type": "tuple[]"
        }
      ],
      "stateMutability": "view",
      "type": "function"
    },
    {
      "inputs": [],
      "name": "expenseAccountEip712Beacon",
      "outputs": [
        {
          "internalType": "address",
          "name": "",
          "type": "address"
        }
      ],
      "stateMutability": "view",
      "type": "function"
    },
    {
      "inputs": [],
      "name": "expenseAccountEip712Beacon",
      "outputs": [
        {
          "internalType": "address",
          "name": "",
          "type": "address"
        }
      ],
      "stateMutability": "view",
      "type": "function"
    },
    {
      "inputs": [],
      "name": "getTeam",
      "outputs": [
        {
          "internalType": "address[]",
          "name": "",
          "type": "address[]"
        },
        {
          "internalType": "address[]",
          "name": "",
          "type": "address[]"
        },
        {
          "components": [
            {
              "internalType": "string",
              "name": "contractType",
              "type": "string"
            },
            {
              "internalType": "address",
              "name": "contractAddress",
              "type": "address"
            }
          ],
          "internalType": "struct Officer.DeployedContract[]",
          "name": "",
          "type": "tuple[]"
        }
      ],
      "stateMutability": "view",
      "type": "function"
    },
    {
      "inputs": [
        {
          "internalType": "address",
          "name": "_owner",
          "type": "address"
        },
        {
          "components": [
            {
              "internalType": "string",
              "name": "beaconType",
              "type": "string"
            },
            {
              "internalType": "address",
              "name": "beaconAddress",
              "type": "address"
            }
          ],
          "internalType": "struct Officer.BeaconConfig[]",
          "name": "beaconConfigs",
          "type": "tuple[]"
        }
      ],
      "name": "initialize",
      "outputs": [],
      "stateMutability": "nonpayable",
      "type": "function"
    },
    {
      "inputs": [],
      "name": "investorBeacon",
      "outputs": [
        {
          "internalType": "address",
          "name": "",
          "type": "address"
        }
      ],
      "stateMutability": "view",
      "type": "function"
    },
    {
      "inputs": [],
      "name": "investorContract",
      "outputs": [
        {
          "internalType": "address",
          "name": "",
          "type": "address"
        }
      ],
      "stateMutability": "view",
      "type": "function"
    },
    {
      "inputs": [],
      "name": "owner",
      "outputs": [
        {
          "internalType": "address",
          "name": "",
          "type": "address"
        }
      ],
      "stateMutability": "view",
      "type": "function"
    },
    {
      "inputs": [],
      "name": "pause",
      "outputs": [],
      "stateMutability": "nonpayable",
      "type": "function"
    },
    {
      "inputs": [],
      "name": "paused",
      "outputs": [
        {
          "internalType": "bool",
          "name": "",
          "type": "bool"
        }
      ],
      "stateMutability": "view",
      "type": "function"
    },
    {
      "inputs": [],
      "name": "renounceOwnership",
      "outputs": [],
      "stateMutability": "nonpayable",
      "type": "function"
    },
    {
      "inputs": [
        {
          "internalType": "address",
          "name": "newOwner",
          "type": "address"
        }
      ],
      "name": "transferOwnership",
      "outputs": [],
      "stateMutability": "nonpayable",
      "type": "function"
    },
    {
      "inputs": [],
      "name": "unpause",
      "outputs": [],
      "stateMutability": "nonpayable",
      "type": "function"
    }
  ],
  "bytecode": "0x608060405234801561001057600080fd5b506138f2806100206000396000f3fe60806040523480156200001157600080fd5b5060043610620001155760003560e01c80638bce6edd11620000a3578063bda8beab116200006e578063bda8beab146200023e578063d2d7b54a1462000275578063e99548a5146200028c578063f2fde38b14620002b257600080fd5b80638bce6edd14620001da5780638da5cb5b14620001f557806395373b7714620001ff578063aa9a068f146200022557600080fd5b8063715018a611620000e4578063715018a6146200017d578063799391f614620001875780638456cb5914620001a05780638934332d14620001aa57600080fd5b8063028316c6146200011a5780632d73d91014620001335780633f4ba83a146200014a5780635c975abb1462000154575b600080fd5b620001316200012b366004620026ae565b620002c9565b005b620001316200014436600462002817565b62000599565b620001316200096c565b6000805160206200387d8339815191525460ff1660405190151581526020015b60405180910390f35b62000131620009e8565b62000191620009fe565b6040516200017491906200298c565b6200013162000ae1565b620001c1620001bb366004620029f4565b62000b58565b6040516001600160a01b03909116815260200162000174565b620001e462001547565b604051620001749392919062002b28565b620001c162001721565b620002166200021036600462002b71565b6200174f565b60405162000174919062002bea565b6200022f62001f31565b60405162000174919062002c06565b620001c16200024f36600462002c1b565b80516020818301810180516002825292820191909301209152546001600160a01b031681565b620001316200028636600462002ccd565b62002036565b620002a36200029d36600462002d37565b620022a1565b60405162000174919062002d51565b62000131620002c336600462002d66565b62002356565b620002d362001721565b6001600160a01b03163303620003e75760006001600160a01b0316600284846040516200030292919062002d84565b908152604051908190036020019020546001600160a01b0316036200036257600380546001810182556000919091527fc2575a0e9e593c00f959f8c92f12db2869c3395a3b0502d05e2516446f71f85b016200036083858362002e25565b505b80600284846040516200037792919062002d84565b90815260405190819003602001812080546001600160a01b03939093166001600160a01b0319909316929092179091557f2881466ae3b4402eb0e3d707416581efa9ce464c26cca0b40d5b290f48a94e2290620003da9085908590859062002f1b565b60405180910390a1505050565b60005b6000548110156200053557600081815481106200040b576200040b62002f49565b6000918252602090912001546001600160a01b031633036200052c5760006001600160a01b0316600285856040516200044692919062002d84565b908152604051908190036020019020546001600160a01b031603620004a657600380546001810182556000919091527fc2575a0e9e593c00f959f8c92f12db2869c3395a3b0502d05e2516446f71f85b01620004a484868362002e25565b505b8160028585604051620004bb92919062002d84565b90815260405190819003602001812080546001600160a01b03939093166001600160a01b0319909316929092179091557f2881466ae3b4402eb0e3d707416581efa9ce464c26cca0b40d5b290f48a94e22906200051e9086908690869062002f1b565b60405180910390a150505050565b600101620003ea565b5060405162461bcd60e51b815260206004820152602d60248201527f596f7520617265206e6f7420617574686f72697a656420746f20706572666f7260448201526c36903a3434b99030b1ba34b7b760991b60648201526084015b60405180910390fd5b7ff0c57e16840df040f15088dc2f81fe391c3923bec73e23a9662efc9c229c6a008054600160401b810460ff1615906001600160401b0316600081158015620005df5750825b90506000826001600160401b03166001148015620005fc5750303b155b9050811580156200060b575080155b156200062a5760405163f92ee8a960e01b815260040160405180910390fd5b845467ffffffffffffffff1916600117855583156200065557845460ff60401b1916600160401b1785555b620006608762002397565b6200066a620023ac565b62000674620023c0565b60005b86518110156200091b5760006001600160a01b0316878281518110620006a157620006a162002f49565b6020026020010151602001516001600160a01b031603620006fe5760405162461bcd60e51b8152602060048201526016602482015275496e76616c696420626561636f6e206164647265737360501b604482015260640162000590565b600087828151811062000715576200071562002f49565b6020026020010151600001515111620007655760405162461bcd60e51b8152602060048201526011602482015270456d70747920626561636f6e207479706560781b604482015260640162000590565b60005b81811015620008115787818151811062000786576200078662002f49565b60200260200101516000015180519060200120888381518110620007ae57620007ae62002f49565b6020026020010151600001518051906020012003620008085760405162461bcd60e51b81526020600482015260156024820152744475706c696361746520626561636f6e207479706560581b604482015260640162000590565b60010162000768565b5086818151811062000827576200082762002f49565b60200260200101516020015160028883815181106200084a576200084a62002f49565b60200260200101516000015160405162000865919062002f5f565b908152602001604051809103902060006101000a8154816001600160a01b0302191690836001600160a01b031602179055507f2881466ae3b4402eb0e3d707416581efa9ce464c26cca0b40d5b290f48a94e22878281518110620008cd57620008cd62002f49565b602002602001015160000151888381518110620008ee57620008ee62002f49565b6020026020010151602001516040516200090a92919062002f7d565b60405180910390a160010162000677565b5083156200096357845460ff60401b19168555604051600181527fc7f505b2f371ae2175ee4913f4499e1f2633a7b5936321eed1cdaeb6115181d29060200160405180910390a15b50505050505050565b6200097662001721565b6001600160a01b03163303620009925762000990620023d4565b565b60005b600054811015620005355760008181548110620009b657620009b662002f49565b6000918252602090912001546001600160a01b03163303620009df57620009dc620023d4565b50565b60010162000995565b620009f262002437565b6200099060006200246d565b60606003805480602002602001604051908101604052809291908181526020016000905b8282101562000ad857838290600052602060002001805462000a449062002d94565b80601f016020809104026020016040519081016040528092919081815260200182805462000a729062002d94565b801562000ac35780601f1062000a975761010080835404028352916020019162000ac3565b820191906000526020600020905b81548152906001019060200180831162000aa557829003601f168201915b50505050508152602001906001019062000a22565b50505050905090565b62000aeb62001721565b6001600160a01b0316330362000b055762000990620024de565b60005b60005481101562000535576000818154811062000b295762000b2962002f49565b6000918252602090912001546001600160a01b0316330362000b4f57620009dc620024de565b60010162000b08565b600062000b646200252b565b62000b6e62001721565b6001600160a01b031633036200103a5760006001600160a01b03166002868660405162000b9d92919062002d84565b908152604051908190036020019020546001600160a01b03160362000bd65760405162461bcd60e51b8152600401620005909062002fa9565b604080518082018252601081526f426f6172644f664469726563746f727360801b602090910152516000805160206200389d8339815191529062000c1e908790879062002d84565b60405180910390200362000c465760405162461bcd60e51b8152600401620005909062002ff5565b60006002868660405162000c5c92919062002d84565b908152604051908190036020018120546001600160a01b0316908590859062000c859062002638565b62000c939392919062003045565b604051809103906000f08015801562000cb0573d6000803e3d6000fd5b506040805160606020601f8a018190040282018101835291810188815292935083926004928291908b908b908190850183828082843760009201829052509385525050506001600160a01b038516602092830152835460018101855593815220815191926002020190819062000d27908262003075565b5060209190910151600190910180546001600160a01b0319166001600160a01b039092169190911790556040516000805160206200385d8339815191529062000d769089908990859062002f1b565b60405180910390a16040805180820182526006815265566f74696e6760d01b602090910152517e708f6dff7e47936b7b782b66cd2970ffdb146eb7167cefdda540e2e8d4c3189062000dcc908990899062002d84565b60405180910390200362001030576000600260405162000e02906f426f6172644f664469726563746f727360801b815260100190565b9081526040805191829003602090810183205460018085528484019093526001600160a01b0316935060009291908083019080368337019050509050828160008151811062000e555762000e5562002f49565b60200260200101906001600160a01b031690816001600160a01b03168152505060008263a224cee760e01b8360405160240162000e93919062002bea565b60408051601f198184030181529181526020820180516001600160e01b03166001600160e01b031990941693909317909252905162000ed29062002638565b62000edf92919062003141565b604051809103906000f08015801562000efc573d6000803e3d6000fd5b506040805160808101825260109181019182526f426f6172644f664469726563746f727360801b60608201529081526001600160a01b0382166020820152600480546001810182556000919091528151929350909160029091027f8a35acfbc15ff81a39ae7d344fd709f28e8600b4aa8c65c6b64bfe7fe36bd19b0190819062000f87908262003075565b5060209190910151600190910180546001600160a01b0319166001600160a01b0392831617905560405163ec17219360e01b815282821660048201529085169063ec17219390602401600060405180830381600087803b15801562000feb57600080fd5b505af115801562001000573d6000803e3d6000fd5b505050506000805160206200385d8339815191528160405162001024919062003167565b60405180910390a15050505b91506200153f9050565b60005b6000548110156200053557600081815481106200105e576200105e62002f49565b6000918252602090912001546001600160a01b03163303620015365760006001600160a01b0316600287876040516200109992919062002d84565b908152604051908190036020019020546001600160a01b031603620010d25760405162461bcd60e51b8152600401620005909062002fa9565b604080518082018252601081526f426f6172644f664469726563746f727360801b602090910152516000805160206200389d833981519152906200111a908890889062002d84565b604051809103902003620011425760405162461bcd60e51b8152600401620005909062002ff5565b6000600287876040516200115892919062002d84565b908152604051908190036020018120546001600160a01b03169086908690620011819062002638565b6200118f9392919062003045565b604051809103906000f080158015620011ac573d6000803e3d6000fd5b506040805160606020601f8b018190040282018101835291810189815292935083926004928291908c908c908190850183828082843760009201829052509385525050506001600160a01b038516602092830152835460018101855593815220815191926002020190819062001223908262003075565b5060209190910151600190910180546001600160a01b0319166001600160a01b039092169190911790556040516000805160206200385d8339815191529062001272908a908a90859062002f1b565b60405180910390a16040805180820182526006815265566f74696e6760d01b602090910152517e708f6dff7e47936b7b782b66cd2970ffdb146eb7167cefdda540e2e8d4c31890620012c8908a908a9062002d84565b6040518091039020036200152c5760006002604051620012fe906f426f6172644f664469726563746f727360801b815260100190565b9081526040805191829003602090810183205460018085528484019093526001600160a01b0316935060009291908083019080368337019050509050828160008151811062001351576200135162002f49565b60200260200101906001600160a01b031690816001600160a01b03168152505060008263a224cee760e01b836040516024016200138f919062002bea565b60408051601f198184030181529181526020820180516001600160e01b03166001600160e01b0319909416939093179092529051620013ce9062002638565b620013db92919062003141565b604051809103906000f080158015620013f8573d6000803e3d6000fd5b506040805160808101825260109181019182526f426f6172644f664469726563746f727360801b60608201529081526001600160a01b0382166020820152600480546001810182556000919091528151929350909160029091027f8a35acfbc15ff81a39ae7d344fd709f28e8600b4aa8c65c6b64bfe7fe36bd19b0190819062001483908262003075565b5060209190910151600190910180546001600160a01b0319166001600160a01b0392831617905560405163ec17219360e01b815282821660048201529085169063ec17219390602401600060405180830381600087803b158015620014e757600080fd5b505af1158015620014fc573d6000803e3d6000fd5b505050506000805160206200385d8339815191528160405162001520919062003167565b60405180910390a15050505b925050506200153f565b6001016200103d565b949350505050565b606080606060006001600482805480602002602001604051908101604052809291908181526020018280548015620015a957602002820191906000526020600020905b81546001600160a01b031681526001909101906020018083116200158a575b50505050509250818054806020026020016040519081016040528092919081815260200182805480156200160757602002820191906000526020600020905b81546001600160a01b03168152600190910190602001808311620015e8575b5050505050915080805480602002602001604051908101604052809291908181526020016000905b82821015620017105783829060005260206000209060020201604051806040016040529081600082018054620016659062002d94565b80601f0160208091040260200160405190810160405280929190818152602001828054620016939062002d94565b8015620016e45780601f10620016b857610100808354040283529160200191620016e4565b820191906000526020600020905b815481529060010190602001808311620016c657829003601f168201915b50505091835250506001918201546001600160a01b03166020918201529183529290920191016200162f565b505050509050925092509250909192565b7f9016d09d72d40fdae2fd8ceac6b6234c7706214fd39c1cd1e609a0528c199300546001600160a01b031690565b60606200175b6200252b565b6200176562001721565b6001600160a01b0316330362001b3d576000826001600160401b0381111562001792576200179262002707565b604051908082528060200260200182016040528015620017bc578160200160208202803683370190505b50905060005b8381101562001b34576000858583818110620017e257620017e262002f49565b9050602002810190620017f69190620031a2565b620018029080620031b9565b905011620018535760405162461bcd60e51b815260206004820152601d60248201527f436f6e747261637420747970652063616e6e6f7420626520656d707479000000604482015260640162000590565b60008585838181106200186a576200186a62002f49565b90506020028101906200187e9190620031a2565b6200188e906020810190620031b9565b905011858583818110620018a657620018a662002f49565b9050602002810190620018ba9190620031a2565b620018c69080620031b9565b604051602001620018d992919062003202565b60405160208183030381529060405290620019095760405162461bcd60e51b815260040162000590919062002d51565b506000600286868481811062001923576200192362002f49565b9050602002810190620019379190620031a2565b620019439080620031b9565b6040516200195392919062002d84565b908152604051908190036020019020546001600160a01b0316141585858381811062001983576200198362002f49565b9050602002810190620019979190620031a2565b620019a39080620031b9565b604051602001620019b69291906200323b565b60405160208183030381529060405290620019e65760405162461bcd60e51b815260040162000590919062002d51565b5060408051808201909152601081526f426f6172644f664469726563746f727360801b6020909101526000805160206200389d83398151915285858381811062001a345762001a3462002f49565b905060200281019062001a489190620031a2565b62001a549080620031b9565b60405162001a6492919062002d84565b60405180910390200362001a8c5760405162461bcd60e51b8152600401620005909062002ff5565b62001afe85858381811062001aa55762001aa562002f49565b905060200281019062001ab99190620031a2565b62001ac59080620031b9565b87878581811062001ada5762001ada62002f49565b905060200281019062001aee9190620031a2565b620001bb906020810190620031b9565b82828151811062001b135762001b1362002f49565b6001600160a01b0390921660209283029190910190910152600101620017c2565b50905062001f2b565b60005b60005481101562000535576000818154811062001b615762001b6162002f49565b6000918252602090912001546001600160a01b0316330362001f22576000836001600160401b0381111562001b9a5762001b9a62002707565b60405190808252806020026020018201604052801562001bc4578160200160208202803683370190505b50905060005b8481101562001f1857600086868381811062001bea5762001bea62002f49565b905060200281019062001bfe9190620031a2565b62001c0a9080620031b9565b90501162001c5b5760405162461bcd60e51b815260206004820152601d60248201527f436f6e747261637420747970652063616e6e6f7420626520656d707479000000604482015260640162000590565b600086868381811062001c725762001c7262002f49565b905060200281019062001c869190620031a2565b62001c96906020810190620031b9565b90501186868381811062001cae5762001cae62002f49565b905060200281019062001cc29190620031a2565b62001cce9080620031b9565b60405160200162001ce192919062003202565b6040516020818303038152906040529062001d115760405162461bcd60e51b815260040162000590919062002d51565b506000600287878481811062001d2b5762001d2b62002f49565b905060200281019062001d3f9190620031a2565b62001d4b9080620031b9565b60405162001d5b92919062002d84565b908152604051908190036020019020546001600160a01b0316141586868381811062001d8b5762001d8b62002f49565b905060200281019062001d9f9190620031a2565b62001dab9080620031b9565b60405160200162001dbe9291906200323b565b6040516020818303038152906040529062001dee5760405162461bcd60e51b815260040162000590919062002d51565b5060408051808201909152601081526f426f6172644f664469726563746f727360801b6020909101526000805160206200389d83398151915286868381811062001e3c5762001e3c62002f49565b905060200281019062001e509190620031a2565b62001e5c9080620031b9565b60405162001e6c92919062002d84565b60405180910390200362001e945760405162461bcd60e51b8152600401620005909062002ff5565b62001ee286868381811062001ead5762001ead62002f49565b905060200281019062001ec19190620031a2565b62001ecd9080620031b9565b88888581811062001ada5762001ada62002f49565b82828151811062001ef75762001ef762002f49565b6001600160a01b039092166020928302919091019091015260010162001bca565b5091505062001f2b565b60010162001b40565b92915050565b60606004805480602002602001604051908101604052809291908181526020016000905b8282101562000ad8578382906000526020600020906002020160405180604001604052908160008201805462001f8b9062002d94565b80601f016020809104026020016040519081016040528092919081815260200182805462001fb99062002d94565b80156200200a5780601f1062001fde576101008083540402835291602001916200200a565b820191906000526020600020905b81548152906001019060200180831162001fec57829003601f168201915b50505091835250506001918201546001600160a01b031660209182015291835292909201910162001f55565b620020406200252b565b6000825111620020935760405162461bcd60e51b815260206004820152601e60248201527f4d7573742068617665206174206c65617374206f6e6520666f756e6465720000604482015260640162000590565b60005b82518110156200217d5760006001600160a01b0316838281518110620020c057620020c062002f49565b60200260200101516001600160a01b031603620021205760405162461bcd60e51b815260206004820152601760248201527f496e76616c696420666f756e6465722061646472657373000000000000000000604482015260640162000590565b600083828151811062002137576200213762002f49565b60209081029190910181015182546001808201855560009485529290932090920180546001600160a01b0319166001600160a01b03909316929092179091550162002096565b5060005b8151811015620022615760006001600160a01b0316828281518110620021ab57620021ab62002f49565b60200260200101516001600160a01b031603620022045760405162461bcd60e51b8152602060048201526016602482015275496e76616c6964206d656d626572206164647265737360501b604482015260640162000590565b60018282815181106200221b576200221b62002f49565b60209081029190910181015182546001808201855560009485529290932090920180546001600160a01b0319166001600160a01b03909316929092179091550162002181565b507f14bbcd93381ec042bd0247a11fa75d4fef24b31e785ca44971c6fc162c4f05af82826040516200229592919062003274565b60405180910390a15050565b60038181548110620022b257600080fd5b906000526020600020016000915090508054620022cf9062002d94565b80601f0160208091040260200160405190810160405280929190818152602001828054620022fd9062002d94565b80156200234e5780601f1062002322576101008083540402835291602001916200234e565b820191906000526020600020905b8154815290600101906020018083116200233057829003601f168201915b505050505081565b6200236062002437565b6001600160a01b0381166200238c57604051631e4fbdf760e01b81526000600482015260240162000590565b620009dc816200246d565b620023a16200255e565b620009dc81620025a8565b620023b66200255e565b62000990620025b2565b620023ca6200255e565b62000990620025e2565b620023de62002606565b6000805160206200387d833981519152805460ff191681557f5db9ee0a495bf2e6ff9c91a7834c1ba4fdd244a5e8aa4e537bd38aeae4b073aa335b6040516001600160a01b03909116815260200160405180910390a150565b336200244262001721565b6001600160a01b031614620009905760405163118cdaa760e01b815233600482015260240162000590565b7f9016d09d72d40fdae2fd8ceac6b6234c7706214fd39c1cd1e609a0528c19930080546001600160a01b031981166001600160a01b03848116918217845560405192169182907f8be0079c531659141344cd1fd0a4f28419497f9722a3daafe3b4186f6b6457e090600090a3505050565b620024e86200252b565b6000805160206200387d833981519152805460ff191660011781557f62e78cea01bee320cd4e420270b5ea74000d11b0c9f74754ebdbfc544b05a2583362002419565b6000805160206200387d8339815191525460ff1615620009905760405163d93c066560e01b815260040160405180910390fd5b7ff0c57e16840df040f15088dc2f81fe391c3923bec73e23a9662efc9c229c6a0054600160401b900460ff166200099057604051631afcd79f60e31b815260040160405180910390fd5b620023606200255e565b620025bc6200255e565b60017f9b779b17422d0df92223018b32b4d1fa46e071723d6817e2486d003becc55f0055565b620025ec6200255e565b6000805160206200387d833981519152805460ff19169055565b6000805160206200387d8339815191525460ff166200099057604051638dfc202b60e01b815260040160405180910390fd5b6105bf806200329e83390190565b60008083601f8401126200265957600080fd5b5081356001600160401b038111156200267157600080fd5b6020830191508360208285010111156200268a57600080fd5b9250929050565b80356001600160a01b0381168114620026a957600080fd5b919050565b600080600060408486031215620026c457600080fd5b83356001600160401b03811115620026db57600080fd5b620026e98682870162002646565b9094509250620026fe90506020850162002691565b90509250925092565b634e487b7160e01b600052604160045260246000fd5b604080519081016001600160401b038111828210171562002742576200274262002707565b60405290565b604051601f8201601f191681016001600160401b038111828210171562002773576200277362002707565b604052919050565b60006001600160401b0382111562002797576200279762002707565b5060051b60200190565b600082601f830112620027b357600080fd5b81356001600160401b03811115620027cf57620027cf62002707565b620027e4601f8201601f191660200162002748565b818152846020838601011115620027fa57600080fd5b816020850160208301376000918101602001919091529392505050565b60008060408084860312156200282c57600080fd5b620028378462002691565b92506020808501356001600160401b03808211156200285557600080fd5b818701915087601f8301126200286a57600080fd5b8135620028816200287b826200277b565b62002748565b81815260059190911b8301840190848101908a831115620028a157600080fd5b8585015b838110156200292657803585811115620028bf5760008081fd5b8601808d03601f1901891315620028d65760008081fd5b620028e06200271d565b8882013587811115620028f35760008081fd5b620029038f8b83860101620027a1565b825250620029138a830162002691565b818a0152845250918601918601620028a5565b50809750505050505050509250929050565b60005b83811015620029555781810151838201526020016200293b565b50506000910152565b600081518084526200297881602086016020860162002938565b601f01601f19169290920160200192915050565b600060208083016020845280855180835260408601915060408160051b87010192506020870160005b82811015620029e757603f19888603018452620029d48583516200295e565b94509285019290850190600101620029b5565b5092979650505050505050565b6000806000806040858703121562002a0b57600080fd5b84356001600160401b038082111562002a2357600080fd5b62002a318883890162002646565b9096509450602087013591508082111562002a4b57600080fd5b5062002a5a8782880162002646565b95989497509550505050565b60008151808452602080850194506020840160005b8381101562002aa25781516001600160a01b03168752958201959082019060010162002a7b565b509495945050505050565b600082825180855260208086019550808260051b84010181860160005b8481101562002b1b57601f1986840301895281516040815181865262002af3828701826200295e565b928701516001600160a01b031695870195909552509884019892509083019060010162002aca565b5090979650505050505050565b60608152600062002b3d606083018662002a66565b828103602084015262002b51818662002a66565b9050828103604084015262002b67818562002aad565b9695505050505050565b6000806020838503121562002b8557600080fd5b82356001600160401b038082111562002b9d57600080fd5b818501915085601f83011262002bb257600080fd5b81358181111562002bc257600080fd5b8660208260051b850101111562002bd857600080fd5b60209290920196919550909350505050565b60208152600062002bff602083018462002a66565b9392505050565b60208152600062002bff602083018462002aad565b60006020828403121562002c2e57600080fd5b81356001600160401b0381111562002c4557600080fd5b6200153f84828501620027a1565b600082601f83011262002c6557600080fd5b8135602062002c786200287b836200277b565b8083825260208201915060208460051b87010193508684111562002c9b57600080fd5b602086015b8481101562002cc25762002cb48162002691565b835291830191830162002ca0565b509695505050505050565b6000806040838503121562002ce157600080fd5b82356001600160401b038082111562002cf957600080fd5b62002d078683870162002c53565b9350602085013591508082111562002d1e57600080fd5b5062002d2d8582860162002c53565b9150509250929050565b60006020828403121562002d4a57600080fd5b5035919050565b60208152600062002bff60208301846200295e565b60006020828403121562002d7957600080fd5b62002bff8262002691565b8183823760009101908152919050565b600181811c9082168062002da957607f821691505b60208210810362002dca57634e487b7160e01b600052602260045260246000fd5b50919050565b601f82111562002e20576000816000526020600020601f850160051c8101602086101562002dfb5750805b601f850160051c820191505b8181101562002e1c5782815560010162002e07565b5050505b505050565b6001600160401b0383111562002e3f5762002e3f62002707565b62002e578362002e50835462002d94565b8362002dd0565b6000601f84116001811462002e8e576000851562002e755750838201355b600019600387901b1c1916600186901b17835562002eeb565b600083815260209020601f19861690835b8281101562002ec1578685013582556020948501946001909201910162002e9f565b508682101562002edf5760001960f88860031b161c19848701351681555b505060018560011b0183555b5050505050565b81835281816020850137506000828201602090810191909152601f909101601f19169091010190565b60408152600062002f3160408301858762002ef2565b905060018060a01b0383166020830152949350505050565b634e487b7160e01b600052603260045260246000fd5b6000825162002f7381846020870162002938565b9190910192915050565b60408152600062002f9260408301856200295e565b905060018060a01b03831660208301529392505050565b6020808252602c908201527f426561636f6e206e6f7420636f6e6669677572656420666f722074686973206360408201526b6f6e7472616374207479706560a01b606082015260800190565b60208082526030908201527f426f6172644f664469726563746f7273206d757374206265206465706c6f796560408201526f64207468726f75676820566f74696e6760801b606082015260800190565b6001600160a01b03841681526040602082018190526000906200306c908301848662002ef2565b95945050505050565b81516001600160401b0381111562003091576200309162002707565b620030a981620030a2845462002d94565b8462002dd0565b602080601f831160018114620030e15760008415620030c85750858301515b600019600386901b1c1916600185901b17855562002e1c565b600085815260208120601f198616915b828110156200311257888601518255948401946001909101908401620030f1565b5085821015620031315787850151600019600388901b60f8161c191681555b5050505050600190811b01905550565b6001600160a01b03831681526040602082018190526000906200153f908301846200295e565b60408082526010908201526f426f6172644f664469726563746f727360801b60608201526001600160a01b0391909116602082015260800190565b60008235603e1983360301811262002f7357600080fd5b6000808335601e19843603018112620031d157600080fd5b8301803591506001600160401b03821115620031ec57600080fd5b6020019150368190038213156200268a57600080fd5b7f4d697373696e6720696e697469616c697a6572206461746120666f722000000081528183601d83013760009101601d01908152919050565b7f426561636f6e206e6f7420636f6e6669677572656420666f722000000000000081528183601a83013760009101601a01908152919050565b60408152600062003289604083018562002a66565b82810360208401526200306c818562002a6656fe60a06040526040516105bf3803806105bf83398101604081905261002291610387565b61002c828261003e565b506001600160a01b031660805261047e565b610047826100fe565b6040516001600160a01b038316907f1cf3b03a6cf19fa2baba4df148e9dcabedea7f8a5c07840e207e5c089be95d3e90600090a28051156100f2576100ed826001600160a01b0316635c60da1b6040518163ffffffff1660e01b8152600401602060405180830381865afa1580156100c3573d6000803e3d6000fd5b505050506040513d601f19601f820116820180604052508101906100e79190610447565b82610211565b505050565b6100fa610288565b5050565b806001600160a01b03163b60000361013957604051631933b43b60e21b81526001600160a01b03821660048201526024015b60405180910390fd5b807fa3f0ad74e5423aebfd80d3ef4346578335a9a72aeaee59ff6cb3582b35133d5080546001600160a01b0319166001600160a01b0392831617905560408051635c60da1b60e01b81529051600092841691635c60da1b9160048083019260209291908290030181865afa1580156101b5573d6000803e3d6000fd5b505050506040513d601f19601f820116820180604052508101906101d99190610447565b9050806001600160a01b03163b6000036100fa57604051634c9c8ce360e01b81526001600160a01b0382166004820152602401610130565b6060600080846001600160a01b03168460405161022e9190610462565b600060405180830381855af49150503d8060008114610269576040519150601f19603f3d011682016040523d82523d6000602084013e61026e565b606091505b50909250905061027f8583836102a9565b95945050505050565b34156102a75760405163b398979f60e01b815260040160405180910390fd5b565b6060826102be576102b982610308565b610301565b81511580156102d557506001600160a01b0384163b155b156102fe57604051639996b31560e01b81526001600160a01b0385166004820152602401610130565b50805b9392505050565b8051156103185780518082602001fd5b604051630a12f52160e11b815260040160405180910390fd5b80516001600160a01b038116811461034857600080fd5b919050565b634e487b7160e01b600052604160045260246000fd5b60005b8381101561037e578181015183820152602001610366565b50506000910152565b6000806040838503121561039a57600080fd5b6103a383610331565b60208401519092506001600160401b03808211156103c057600080fd5b818501915085601f8301126103d457600080fd5b8151818111156103e6576103e661034d565b604051601f8201601f19908116603f0116810190838211818310171561040e5761040e61034d565b8160405282815288602084870101111561042757600080fd5b610438836020830160208801610363565b80955050505050509250929050565b60006020828403121561045957600080fd5b61030182610331565b60008251610474818460208701610363565b9190910192915050565b6080516101276104986000396000601e01526101276000f3fe6080604052600a600c565b005b60186014601a565b60a0565b565b60007f00000000000000000000000000000000000000000000000000000000000000006001600160a01b0316635c60da1b6040518163ffffffff1660e01b8152600401602060405180830381865afa1580156079573d6000803e3d6000fd5b505050506040513d601f19601f82011682018060405250810190609b919060c3565b905090565b3660008037600080366000845af43d6000803e80801560be573d6000f35b3d6000fd5b60006020828403121560d457600080fd5b81516001600160a01b038116811460ea57600080fd5b939250505056fea264697066735822122038063abf0acf0012aa106601a36fadbbf1a7604cc3cbd26cfa83a39a16756e2164736f6c634300081800334da8c8e82a6cdcd021dddec73a637b429d2b0a9b303638f1258ff8a35c3e5d86cd5ed15c6e187e77e9aee88184c21f4f2182ab5827cb3b7e07fbedcd63f03300f1a08d73ffcd13e8240c82e3e89399af5f14314ed5d20cf2ad0e1edb868887c7a264697066735822122058381caf5dfba9235de645411beca2f1b76fced015d53016f767aa97f1f94e7e64736f6c63430008180033",
  "linkReferences": {},
  "deployedLinkReferences": {}
}