{
  "_format": "hh-sol-artifact-1",
  "contractName": "Officer",
  "sourceName": "contracts/Officer.sol",
  "abi": [
    {
      "inputs": [],
      "name": "EnforcedPause",
      "type": "error"
    },
    {
      "inputs": [],
      "name": "ExpectedPause",
      "type": "error"
    },
    {
      "inputs": [],
      "name": "InvalidInitialization",
      "type": "error"
    },
    {
      "inputs": [],
      "name": "NotInitializing",
      "type": "error"
    },
    {
      "inputs": [
        {
          "internalType": "address",
          "name": "owner",
          "type": "address"
        }
      ],
      "name": "OwnableInvalidOwner",
      "type": "error"
    },
    {
      "inputs": [
        {
          "internalType": "address",
          "name": "account",
          "type": "address"
        }
      ],
      "name": "OwnableUnauthorizedAccount",
      "type": "error"
    },
    {
      "inputs": [],
      "name": "ReentrancyGuardReentrantCall",
      "type": "error"
    },
    {
      "anonymous": false,
      "inputs": [
        {
          "indexed": true,
          "internalType": "address",
          "name": "proxyAddress",
          "type": "address"
        }
      ],
      "name": "BankDeployed",
      "type": "event"
    },
    {
      "anonymous": false,
      "inputs": [
        {
          "indexed": false,
          "internalType": "string",
          "name": "contractType",
          "type": "string"
        },
        {
          "indexed": false,
          "internalType": "address",
          "name": "beaconAddress",
          "type": "address"
        }
      ],
      "name": "BeaconConfigured",
      "type": "event"
    },
    {
      "anonymous": false,
      "inputs": [
        {
          "indexed": false,
          "internalType": "address[]",
          "name": "beaconProxies",
          "type": "address[]"
        }
      ],
      "name": "BeaconProxiesDeployed",
      "type": "event"
    },
    {
      "anonymous": false,
      "inputs": [
        {
          "indexed": true,
          "internalType": "address",
          "name": "proxyAddress",
          "type": "address"
        },
        {
          "indexed": true,
          "internalType": "string",
          "name": "contractType",
          "type": "string"
        }
      ],
      "name": "BeaconProxyDeployed",
      "type": "event"
    },
    {
      "anonymous": false,
      "inputs": [
        {
          "indexed": true,
          "internalType": "address",
          "name": "proxyAddress",
          "type": "address"
        }
      ],
      "name": "BoardOfDirectorsDeployed",
      "type": "event"
    },
    {
      "anonymous": false,
      "inputs": [
        {
          "indexed": true,
          "internalType": "address",
          "name": "proxyAddress",
          "type": "address"
        }
      ],
      "name": "CashRemunerationEIP712Deployed",
      "type": "event"
    },
    {
      "anonymous": false,
      "inputs": [
        {
          "indexed": false,
          "internalType": "string",
          "name": "contractType",
          "type": "string"
        },
        {
          "indexed": false,
          "internalType": "address",
          "name": "deployedAddress",
          "type": "address"
        }
      ],
      "name": "ContractDeployed",
      "type": "event"
    },
    {
      "anonymous": false,
      "inputs": [
        {
          "indexed": true,
          "internalType": "address",
          "name": "proxyAddress",
          "type": "address"
        }
      ],
      "name": "ExpenseAccountEIP712Deployed",
      "type": "event"
    },
    {
      "anonymous": false,
      "inputs": [
        {
          "indexed": false,
          "internalType": "uint64",
          "name": "version",
          "type": "uint64"
        }
      ],
      "name": "Initialized",
      "type": "event"
    },
    {
      "anonymous": false,
      "inputs": [
        {
          "indexed": true,
          "internalType": "address",
          "name": "proxyAddress",
          "type": "address"
        }
      ],
      "name": "InvestorsDeployed",
      "type": "event"
    },
    {
      "anonymous": false,
      "inputs": [
        {
          "indexed": true,
          "internalType": "address",
          "name": "previousOwner",
          "type": "address"
        },
        {
          "indexed": true,
          "internalType": "address",
          "name": "newOwner",
          "type": "address"
        }
      ],
      "name": "OwnershipTransferred",
      "type": "event"
    },
    {
      "anonymous": false,
      "inputs": [
        {
          "indexed": false,
          "internalType": "address",
          "name": "account",
          "type": "address"
        }
      ],
      "name": "Paused",
      "type": "event"
    },
    {
      "anonymous": false,
      "inputs": [
        {
          "indexed": false,
          "internalType": "address",
          "name": "account",
          "type": "address"
        }
      ],
      "name": "Unpaused",
      "type": "event"
    },
    {
      "anonymous": false,
      "inputs": [
        {
          "indexed": true,
          "internalType": "address",
          "name": "proxyAddress",
          "type": "address"
        }
      ],
      "name": "VotingDeployed",
      "type": "event"
    },
    {
      "inputs": [
        {
          "internalType": "string",
          "name": "contractType",
          "type": "string"
        },
        {
          "internalType": "address",
          "name": "beaconAddress",
          "type": "address"
        }
      ],
      "name": "configureBeacon",
      "outputs": [],
      "stateMutability": "nonpayable",
      "type": "function"
    },
    {
      "inputs": [
        {
          "internalType": "string",
          "name": "",
          "type": "string"
        }
      ],
      "name": "contractBeacons",
      "outputs": [
        {
          "internalType": "address",
          "name": "",
          "type": "address"
        }
      ],
      "stateMutability": "view",
      "type": "function"
    },
    {
      "inputs": [
        {
          "internalType": "uint256",
          "name": "",
          "type": "uint256"
        }
      ],
      "name": "contractTypes",
      "outputs": [
        {
          "internalType": "string",
          "name": "",
          "type": "string"
        }
      ],
      "stateMutability": "view",
      "type": "function"
    },
    {
      "inputs": [
        {
          "components": [
            {
              "internalType": "string",
              "name": "contractType",
              "type": "string"
            },
            {
              "internalType": "bytes",
              "name": "initializerData",
              "type": "bytes"
            }
          ],
          "internalType": "struct DeploymentData[]",
          "name": "deployments",
          "type": "tuple[]"
        }
      ],
      "name": "deployAllContracts",
      "outputs": [
        {
          "internalType": "address[]",
          "name": "",
          "type": "address[]"
        }
      ],
      "stateMutability": "nonpayable",
      "type": "function"
    },
    {
      "inputs": [
        {
          "internalType": "string",
          "name": "contractType",
          "type": "string"
        },
        {
          "internalType": "bytes",
          "name": "initializerData",
          "type": "bytes"
        }
      ],
      "name": "deployBeaconProxy",
      "outputs": [
        {
          "internalType": "address",
          "name": "",
          "type": "address"
        }
      ],
      "stateMutability": "nonpayable",
      "type": "function"
    },
    {
      "inputs": [],
      "name": "getConfiguredContractTypes",
      "outputs": [
        {
          "internalType": "string[]",
          "name": "",
          "type": "string[]"
        }
      ],
      "stateMutability": "view",
      "type": "function"
    },
    {
      "inputs": [],
      "name": "getDeployedContracts",
      "outputs": [
        {
          "components": [
            {
              "internalType": "string",
              "name": "contractType",
              "type": "string"
            },
            {
              "internalType": "address",
              "name": "contractAddress",
              "type": "address"
            }
          ],
          "internalType": "struct Officer.DeployedContract[]",
          "name": "",
          "type": "tuple[]"
        }
      ],
      "stateMutability": "view",
      "type": "function"
    },
    {
      "inputs": [],
      "name": "getTeam",
      "outputs": [
        {
          "components": [
            {
              "internalType": "string",
              "name": "contractType",
              "type": "string"
            },
            {
              "internalType": "address",
              "name": "contractAddress",
              "type": "address"
            }
          ],
          "internalType": "struct Officer.DeployedContract[]",
          "name": "",
          "type": "tuple[]"
        }
      ],
      "stateMutability": "view",
      "type": "function"
    },
    {
      "inputs": [
        {
          "internalType": "address",
          "name": "_owner",
          "type": "address"
        },
        {
          "components": [
            {
              "internalType": "string",
              "name": "beaconType",
              "type": "string"
            },
            {
              "internalType": "address",
              "name": "beaconAddress",
              "type": "address"
            }
          ],
          "internalType": "struct Officer.BeaconConfig[]",
          "name": "beaconConfigs",
          "type": "tuple[]"
        },
        {
          "components": [
            {
              "internalType": "string",
              "name": "contractType",
              "type": "string"
            },
            {
              "internalType": "bytes",
              "name": "initializerData",
              "type": "bytes"
            }
          ],
          "internalType": "struct DeploymentData[]",
          "name": "_deployments",
          "type": "tuple[]"
        },
        {
          "internalType": "bool",
          "name": "_isDeployAllContracts",
          "type": "bool"
        }
      ],
      "name": "initialize",
      "outputs": [],
      "stateMutability": "nonpayable",
      "type": "function"
    },
    {
      "inputs": [],
      "name": "owner",
      "outputs": [
        {
          "internalType": "address",
          "name": "",
          "type": "address"
        }
      ],
      "stateMutability": "view",
      "type": "function"
    },
    {
      "inputs": [],
      "name": "pause",
      "outputs": [],
      "stateMutability": "nonpayable",
      "type": "function"
    },
    {
      "inputs": [],
      "name": "paused",
      "outputs": [
        {
          "internalType": "bool",
          "name": "",
          "type": "bool"
        }
      ],
      "stateMutability": "view",
      "type": "function"
    },
    {
      "inputs": [],
      "name": "renounceOwnership",
      "outputs": [],
      "stateMutability": "nonpayable",
      "type": "function"
    },
    {
      "inputs": [
        {
          "internalType": "address",
          "name": "newOwner",
          "type": "address"
        }
      ],
      "name": "transferOwnership",
      "outputs": [],
      "stateMutability": "nonpayable",
      "type": "function"
    },
    {
      "inputs": [],
      "name": "unpause",
      "outputs": [],
      "stateMutability": "nonpayable",
      "type": "function"
    }
  ],
  "bytecode": "0x608060405234801561001057600080fd5b50612f09806100206000396000f3fe60806040523480156200001157600080fd5b5060043610620001095760003560e01c80638934332d11620000a3578063aa9a068f116200006e578063aa9a068f1462000217578063bda8beab1462000221578063e99548a51462000258578063f2fde38b146200027e57600080fd5b80638934332d146200019e5780638bce6edd14620001ce5780638da5cb5b14620001e757806395373b7714620001f157600080fd5b80635c975abb11620000e45780635c975abb1462000148578063715018a61462000171578063799391f6146200017b5780638456cb59146200019457600080fd5b8063028316c6146200010e578063237be9cb14620001275780633f4ba83a146200013e575b600080fd5b620001256200011f36600462001e39565b62000295565b005b620001256200013836600462001fd4565b62000415565b6200012562000800565b60008051602062002eb48339815191525460ff1660405190151581526020015b60405180910390f35b6200012562000826565b620001856200083c565b604051620001689190620021a8565b620001256200091f565b620001b5620001af36600462002210565b62000943565b6040516001600160a01b03909116815260200162000168565b620001d862000f2c565b60405162000168919062002282565b620001b562001031565b620002086200020236600462002307565b6200105f565b6040516200016891906200234c565b620001d862001568565b620001b5620002323660046200239b565b80516020818301810180516000825292820191909301209152546001600160a01b031681565b6200026f62000269366004620023db565b6200166d565b604051620001689190620023f5565b620001256200028f36600462002411565b62001722565b6200029f62001031565b6001600160a01b03163303620003b25760006001600160a01b031660008484604051620002ce9291906200242f565b908152604051908190036020019020546001600160a01b0316036200032d576001805480820182556000919091527fb10e2d527612073b26eecdfd717e6a320cf44b4afac2b0732d9fcbe2b7fa0cf6016200032b838583620024cf565b505b8060008484604051620003429291906200242f565b90815260405190819003602001812080546001600160a01b03939093166001600160a01b0319909316929092179091557f2881466ae3b4402eb0e3d707416581efa9ce464c26cca0b40d5b290f48a94e2290620003a590859085908590620025c5565b60405180910390a1505050565b60405162461bcd60e51b815260206004820152602d60248201527f596f7520617265206e6f7420617574686f72697a656420746f20706572666f7260448201526c36903a3434b99030b1ba34b7b760991b60648201526084015b60405180910390fd5b7ff0c57e16840df040f15088dc2f81fe391c3923bec73e23a9662efc9c229c6a008054600160401b810460ff1615906001600160401b03166000811580156200045b5750825b90506000826001600160401b03166001148015620004785750303b155b90508115801562000487575080155b15620004a65760405163f92ee8a960e01b815260040160405180910390fd5b845467ffffffffffffffff191660011785558315620004d157845460ff60401b1916600160401b1785555b620004dc8a62001766565b620004e66200177b565b620004f06200178f565b60005b8951811015620007975760006001600160a01b03168a82815181106200051d576200051d620025f3565b6020026020010151602001516001600160a01b0316036200057a5760405162461bcd60e51b8152602060048201526016602482015275496e76616c696420626561636f6e206164647265737360501b60448201526064016200040c565b60008a8281518110620005915762000591620025f3565b6020026020010151600001515111620005e15760405162461bcd60e51b8152602060048201526011602482015270456d70747920626561636f6e207479706560781b60448201526064016200040c565b60005b818110156200068d578a8181518110620006025762000602620025f3565b602002602001015160000151805190602001208b83815181106200062a576200062a620025f3565b6020026020010151600001518051906020012003620006845760405162461bcd60e51b81526020600482015260156024820152744475706c696361746520626561636f6e207479706560581b60448201526064016200040c565b600101620005e4565b50898181518110620006a357620006a3620025f3565b60200260200101516020015160008b8381518110620006c657620006c6620025f3565b602002602001015160000151604051620006e1919062002609565b908152602001604051809103902060006101000a8154816001600160a01b0302191690836001600160a01b031602179055507f2881466ae3b4402eb0e3d707416581efa9ce464c26cca0b40d5b290f48a94e228a8281518110620007495762000749620025f3565b6020026020010151600001518b83815181106200076a576200076a620025f3565b6020026020010151602001516040516200078692919062002627565b60405180910390a1600101620004f3565b508515620007ad57620007ab88886200105f565b505b8315620007f457845460ff60401b19168555604051600181527fc7f505b2f371ae2175ee4913f4499e1f2633a7b5936321eed1cdaeb6115181d29060200160405180910390a15b50505050505050505050565b6200080a62001031565b6001600160a01b03163303620003b25762000824620017a3565b565b6200083062001806565b6200082460006200183c565b60606001805480602002602001604051908101604052809291908181526020016000905b828210156200091657838290600052602060002001805462000882906200243f565b80601f0160208091040260200160405190810160405280929190818152602001828054620008b0906200243f565b8015620009015780601f10620008d55761010080835404028352916020019162000901565b820191906000526020600020905b815481529060010190602001808311620008e357829003601f168201915b50505050508152602001906001019062000860565b50505050905090565b6200092962001031565b6001600160a01b03163303620003b25762000824620018ad565b60006200094f620018fa565b620009596200192d565b80620009765750336200096b62001031565b6001600160a01b0316145b620009955760405162461bcd60e51b81526004016200040c9062002653565b60006001600160a01b031660008686604051620009b49291906200242f565b908152604051908190036020019020546001600160a01b03160362000a315760405162461bcd60e51b815260206004820152602c60248201527f426561636f6e206e6f7420636f6e6669677572656420666f722074686973206360448201526b6f6e7472616374207479706560a01b60648201526084016200040c565b604080518082018252601081526f426f6172644f664469726563746f727360801b602090910152517ff1a08d73ffcd13e8240c82e3e89399af5f14314ed5d20cf2ad0e1edb868887c79062000a8a90879087906200242f565b60405180910390200362000ab25760405162461bcd60e51b81526004016200040c90620026b0565b600080868660405162000ac79291906200242f565b908152604051908190036020018120546001600160a01b0316908590859062000af09062001dc3565b62000afe9392919062002700565b604051809103906000f08015801562000b1b573d6000803e3d6000fd5b506040805160606020601f8a018190040282018101835291810188815292935083926002928291908b908b908190850183828082843760009201829052509385525050506001600160a01b038516602092830152835460018101855593815220815191926002020190819062000b92908262002730565b5060209190910151600190910180546001600160a01b0319166001600160a01b039092169190911790556040517f4da8c8e82a6cdcd021dddec73a637b429d2b0a9b303638f1258ff8a35c3e5d869062000bf290899089908590620025c5565b60405180910390a162000c078787836200195c565b6040805180820182526006815265566f74696e6760d01b602090910152517e708f6dff7e47936b7b782b66cd2970ffdb146eb7167cefdda540e2e8d4c3189062000c5590899089906200242f565b60405180910390200362000f225760008060405162000c8a906f426f6172644f664469726563746f727360801b815260100190565b9081526040805191829003602090810183205460018085528484019093526001600160a01b0316935060009291908083019080368337019050509050828160008151811062000cdd5762000cdd620025f3565b60200260200101906001600160a01b031690816001600160a01b03168152505060008263a224cee760e01b8360405160240162000d1b91906200234c565b60408051601f198184030181529181526020820180516001600160e01b03166001600160e01b031990941693909317909252905162000d5a9062001dc3565b62000d67929190620027fc565b604051809103906000f08015801562000d84573d6000803e3d6000fd5b506040805160808101825260109181019182526f426f6172644f664469726563746f727360801b60608201529081526001600160a01b03821660208201526002805460018101825560008290528251939450919291027f405787fa12a823e0f2b7631cc41b3ba8828b3321ca811111fa75cd3aa3bb5ace0190819062000e0b908262002730565b5060209190910151600190910180546001600160a01b0319166001600160a01b0392831617905560405163ec17219360e01b815282821660048201529085169063ec17219390602401600060405180830381600087803b15801562000e6f57600080fd5b505af115801562000e84573d6000803e3d6000fd5b5050604080518181526010818301526f426f6172644f664469726563746f727360801b60608201526001600160a01b038516602082015290517f4da8c8e82a6cdcd021dddec73a637b429d2b0a9b303638f1258ff8a35c3e5d869350908190036080019150a16040516001600160a01b038216907f57da11981c7c248c7b377c42ffa07544f0b4e4ad83e417c2759b052aaaf75de290600090a25050505b9695505050505050565b60606002805480602002602001604051908101604052809291908181526020016000905b8282101562000916578382906000526020600020906002020160405180604001604052908160008201805462000f86906200243f565b80601f016020809104026020016040519081016040528092919081815260200182805462000fb4906200243f565b8015620010055780601f1062000fd95761010080835404028352916020019162001005565b820191906000526020600020905b81548152906001019060200180831162000fe757829003601f168201915b50505091835250506001918201546001600160a01b031660209182015291835292909201910162000f50565b7f9016d09d72d40fdae2fd8ceac6b6234c7706214fd39c1cd1e609a0528c199300546001600160a01b031690565b60606200106b620018fa565b620010756200192d565b80620010925750336200108762001031565b6001600160a01b0316145b620010b15760405162461bcd60e51b81526004016200040c9062002653565b6000826001600160401b03811115620010ce57620010ce62001e92565b604051908082528060200260200182016040528015620010f8578160200160208202803683370190505b50905060005b83811015620015275760008585838181106200111e576200111e620025f3565b905060200281019062001132919062002822565b6200113e908062002839565b9050116200118f5760405162461bcd60e51b815260206004820152601d60248201527f436f6e747261637420747970652063616e6e6f7420626520656d70747900000060448201526064016200040c565b6000858583818110620011a657620011a6620025f3565b9050602002810190620011ba919062002822565b620011ca90602081019062002839565b905011858583818110620011e257620011e2620025f3565b9050602002810190620011f6919062002822565b62001202908062002839565b6040516020016200121592919062002882565b60405160208183030381529060405290620012455760405162461bcd60e51b81526004016200040c9190620023f5565b506000808686848181106200125e576200125e620025f3565b905060200281019062001272919062002822565b6200127e908062002839565b6040516200128e9291906200242f565b908152604051908190036020019020546001600160a01b03161415858583818110620012be57620012be620025f3565b9050602002810190620012d2919062002822565b620012de908062002839565b604051602001620012f1929190620028bb565b60405160208183030381529060405290620013215760405162461bcd60e51b81526004016200040c9190620023f5565b5060408051808201909152601081526f426f6172644f664469726563746f727360801b6020909101527ff1a08d73ffcd13e8240c82e3e89399af5f14314ed5d20cf2ad0e1edb868887c7858583818110620013805762001380620025f3565b905060200281019062001394919062002822565b620013a0908062002839565b604051620013b09291906200242f565b604051809103902003620013d85760405162461bcd60e51b81526004016200040c90620026b0565b6200144a858583818110620013f157620013f1620025f3565b905060200281019062001405919062002822565b62001411908062002839565b878785818110620014265762001426620025f3565b90506020028101906200143a919062002822565b620001af90602081019062002839565b8282815181106200145f576200145f620025f3565b60200260200101906001600160a01b031690816001600160a01b031681525050848482818110620014945762001494620025f3565b9050602002810190620014a8919062002822565b620014b4908062002839565b604051620014c49291906200242f565b6040518091039020828281518110620014e157620014e1620025f3565b60200260200101516001600160a01b03167f3934c274da6bdee276b8ee276b11de76b4c9f9c134ab5b61645e11bf32ac925f60405160405180910390a3600101620010fe565b507f72453f0cc824cbf9235c18779fbe40c5cfaaae4856d71c7364fc89250ef6695c816040516200155991906200234c565b60405180910390a19392505050565b60606002805480602002602001604051908101604052809291908181526020016000905b82821015620009165783829060005260206000209060020201604051806040016040529081600082018054620015c2906200243f565b80601f0160208091040260200160405190810160405280929190818152602001828054620015f0906200243f565b8015620016415780601f10620016155761010080835404028352916020019162001641565b820191906000526020600020905b8154815290600101906020018083116200162357829003601f168201915b50505091835250506001918201546001600160a01b03166020918201529183529290920191016200158c565b600181815481106200167e57600080fd5b9060005260206000200160009150905080546200169b906200243f565b80601f0160208091040260200160405190810160405280929190818152602001828054620016c9906200243f565b80156200171a5780601f10620016ee576101008083540402835291602001916200171a565b820191906000526020600020905b815481529060010190602001808311620016fc57829003601f168201915b505050505081565b6200172c62001806565b6001600160a01b0381166200175857604051631e4fbdf760e01b8152600060048201526024016200040c565b62001763816200183c565b50565b6200177062001d0b565b620017638162001d33565b6200178562001d0b565b6200082462001d3d565b6200179962001d0b565b6200082462001d6d565b620017ad62001d91565b60008051602062002eb4833981519152805460ff191681557f5db9ee0a495bf2e6ff9c91a7834c1ba4fdd244a5e8aa4e537bd38aeae4b073aa335b6040516001600160a01b03909116815260200160405180910390a150565b336200181162001031565b6001600160a01b031614620008245760405163118cdaa760e01b81523360048201526024016200040c565b7f9016d09d72d40fdae2fd8ceac6b6234c7706214fd39c1cd1e609a0528c19930080546001600160a01b031981166001600160a01b03848116918217845560405192169182907f8be0079c531659141344cd1fd0a4f28419497f9722a3daafe3b4186f6b6457e090600090a3505050565b620018b7620018fa565b60008051602062002eb4833981519152805460ff191660011781557f62e78cea01bee320cd4e420270b5ea74000d11b0c9f74754ebdbfc544b05a25833620017e8565b60008051602062002eb48339815191525460ff1615620008245760405163d93c066560e01b815260040160405180910390fd5b7ff0c57e16840df040f15088dc2f81fe391c3923bec73e23a9662efc9c229c6a0054600160401b900460ff1690565b604080518082018252600481526342616e6b60e01b602090910152517fcd775f2396f9f13f12bcf8ca32e21df66559a8adc3944d0591127e7731f7ab8590620019a990859085906200242f565b604051809103902003620019f0576040516001600160a01b038216907f31a8f002d4fa259f7b04c1884a29310b44a2ff586fb174efbc9635c151059c2790600090a2505050565b6040805180820182526006815265566f74696e6760d01b602090910152517e708f6dff7e47936b7b782b66cd2970ffdb146eb7167cefdda540e2e8d4c3189062001a3e90859085906200242f565b60405180910390200362001a85576040516001600160a01b038216907f891dfceae4b08390c62fbdd3e286bab67517614e6c966b2979a335d9276f643490600090a2505050565b604080518082018252601081526f426f6172644f664469726563746f727360801b602090910152517ff1a08d73ffcd13e8240c82e3e89399af5f14314ed5d20cf2ad0e1edb868887c79062001ade90859085906200242f565b60405180910390200362001b25576040516001600160a01b038216907f57da11981c7c248c7b377c42ffa07544f0b4e4ad83e417c2759b052aaaf75de290600090a2505050565b604080518082018252601481527322bc3832b739b2a0b1b1b7bab73a22a4a81b989960611b602090910152517ff23c900f10f56a5a2f600528582b01da0386784c116f5f0fa0b5b3303aeb00679062001b8290859085906200242f565b60405180910390200362001bc9576040516001600160a01b038216907f1e6582927be91c84307103aa37a2cce9bcc24b45a91eee209604a9151de63da490600090a2505050565b604080518082018252600b81526a496e766573746f7273563160a81b602090910152517fc336070cae3b51faad0f9df779c1a64f1f08487e78704c1511e583697f7fc5e89062001c1d90859085906200242f565b60405180910390200362001c64576040516001600160a01b038216907f8f8745baa7ee46ee72f8aa2437384b428d2f02749cea7086c889d009e9db55fc90600090a2505050565b604080518082018252601681527521b0b9b42932b6bab732b930ba34b7b722a4a81b989960511b602090910152517f049206cf84eca053e3a83824d485be10fa8d73d0ef8775637645b7b0d07e55099062001cc390859085906200242f565b60405180910390200362001d06576040516001600160a01b038216907fd7c06e794ee8ac27ab809d21520fe848e49d788a0a5892b553b6eb40711fed9290600090a25b505050565b62001d156200192d565b6200082457604051631afcd79f60e31b815260040160405180910390fd5b6200172c62001d0b565b62001d4762001d0b565b60017f9b779b17422d0df92223018b32b4d1fa46e071723d6817e2486d003becc55f0055565b62001d7762001d0b565b60008051602062002eb4833981519152805460ff19169055565b60008051602062002eb48339815191525460ff166200082457604051638dfc202b60e01b815260040160405180910390fd5b6105bf80620028f583390190565b60008083601f84011262001de457600080fd5b5081356001600160401b0381111562001dfc57600080fd5b60208301915083602082850101111562001e1557600080fd5b9250929050565b80356001600160a01b038116811462001e3457600080fd5b919050565b60008060006040848603121562001e4f57600080fd5b83356001600160401b0381111562001e6657600080fd5b62001e748682870162001dd1565b909450925062001e8990506020850162001e1c565b90509250925092565b634e487b7160e01b600052604160045260246000fd5b604080519081016001600160401b038111828210171562001ecd5762001ecd62001e92565b60405290565b604051601f8201601f191681016001600160401b038111828210171562001efe5762001efe62001e92565b604052919050565b600082601f83011262001f1857600080fd5b81356001600160401b0381111562001f345762001f3462001e92565b62001f49601f8201601f191660200162001ed3565b81815284602083860101111562001f5f57600080fd5b816020850160208301376000918101602001919091529392505050565b60008083601f84011262001f8f57600080fd5b5081356001600160401b0381111562001fa757600080fd5b6020830191508360208260051b850101111562001e1557600080fd5b8035801515811462001e3457600080fd5b60008060008060006080868803121562001fed57600080fd5b62001ff88662001e1c565b94506001600160401b0380602088013511156200201457600080fd5b6020870135870188601f8201126200202b57600080fd5b81813511156200203f576200203f62001e92565b620020516020823560051b0162001ed3565b81358082526020808301929160051b8401018b10156200207057600080fd5b602083015b6020843560051b8501018110156200210b5784813511156200209657600080fd5b803584016040818e03601f19011215620020af57600080fd5b620020b962001ea8565b8660208301351115620020cb57600080fd5b620020df8e60208085013585010162001f06565b8152620020ef6040830162001e1c565b6020820152808552505060208301925060208101905062002075565b509650505060408701358110156200212257600080fd5b5062002135876040880135880162001f7c565b9093509150620021486060870162001fc3565b90509295509295909350565b60005b838110156200217157818101518382015260200162002157565b50506000910152565b600081518084526200219481602086016020860162002154565b601f01601f19169290920160200192915050565b600060208083016020845280855180835260408601915060408160051b87010192506020870160005b828110156200220357603f19888603018452620021f08583516200217a565b94509285019290850190600101620021d1565b5092979650505050505050565b600080600080604085870312156200222757600080fd5b84356001600160401b03808211156200223f57600080fd5b6200224d8883890162001dd1565b909650945060208701359150808211156200226757600080fd5b50620022768782880162001dd1565b95989497509550505050565b600060208083018184528085518083526040925060408601915060408160051b87010184880160005b83811015620022f957888303603f1901855281518051878552620022d2888601826200217a565b918901516001600160a01b03169489019490945294870194925090860190600101620022ab565b509098975050505050505050565b600080602083850312156200231b57600080fd5b82356001600160401b038111156200233257600080fd5b620023408582860162001f7c565b90969095509350505050565b6020808252825182820181905260009190848201906040850190845b818110156200238f5783516001600160a01b03168352928401929184019160010162002368565b50909695505050505050565b600060208284031215620023ae57600080fd5b81356001600160401b03811115620023c557600080fd5b620023d38482850162001f06565b949350505050565b600060208284031215620023ee57600080fd5b5035919050565b6020815260006200240a60208301846200217a565b9392505050565b6000602082840312156200242457600080fd5b6200240a8262001e1c565b8183823760009101908152919050565b600181811c908216806200245457607f821691505b6020821081036200247557634e487b7160e01b600052602260045260246000fd5b50919050565b601f82111562001d06576000816000526020600020601f850160051c81016020861015620024a65750805b601f850160051c820191505b81811015620024c757828155600101620024b2565b505050505050565b6001600160401b03831115620024e957620024e962001e92565b6200250183620024fa83546200243f565b836200247b565b6000601f8411600181146200253857600085156200251f5750838201355b600019600387901b1c1916600186901b17835562002595565b600083815260209020601f19861690835b828110156200256b578685013582556020948501946001909201910162002549565b5086821015620025895760001960f88860031b161c19848701351681555b505060018560011b0183555b5050505050565b81835281816020850137506000828201602090810191909152601f909101601f19169091010190565b604081526000620025db6040830185876200259c565b905060018060a01b0383166020830152949350505050565b634e487b7160e01b600052603260045260246000fd5b600082516200261d81846020870162002154565b9190910192915050565b6040815260006200263c60408301856200217a565b905060018060a01b03831660208301529392505050565b60208082526037908201527f43616c6c6572206973206e6f7420616e206f776e657220616e6420636f6e747260408201527f616374206973206e6f7420696e697469616c697a696e67000000000000000000606082015260800190565b60208082526030908201527f426f6172644f664469726563746f7273206d757374206265206465706c6f796560408201526f64207468726f75676820566f74696e6760801b606082015260800190565b6001600160a01b03841681526040602082018190526000906200272790830184866200259c565b95945050505050565b81516001600160401b038111156200274c576200274c62001e92565b62002764816200275d84546200243f565b846200247b565b602080601f8311600181146200279c5760008415620027835750858301515b600019600386901b1c1916600185901b178555620024c7565b600085815260208120601f198616915b82811015620027cd57888601518255948401946001909101908401620027ac565b5085821015620027ec5787850151600019600388901b60f8161c191681555b5050505050600190811b01905550565b6001600160a01b0383168152604060208201819052600090620023d3908301846200217a565b60008235603e198336030181126200261d57600080fd5b6000808335601e198436030181126200285157600080fd5b8301803591506001600160401b038211156200286c57600080fd5b60200191503681900382131562001e1557600080fd5b7f4d697373696e6720696e697469616c697a6572206461746120666f722000000081528183601d83013760009101601d01908152919050565b7f426561636f6e206e6f7420636f6e6669677572656420666f722000000000000081528183601a83013760009101601a0190815291905056fe60a06040526040516105bf3803806105bf83398101604081905261002291610387565b61002c828261003e565b506001600160a01b031660805261047e565b610047826100fe565b6040516001600160a01b038316907f1cf3b03a6cf19fa2baba4df148e9dcabedea7f8a5c07840e207e5c089be95d3e90600090a28051156100f2576100ed826001600160a01b0316635c60da1b6040518163ffffffff1660e01b8152600401602060405180830381865afa1580156100c3573d6000803e3d6000fd5b505050506040513d601f19601f820116820180604052508101906100e79190610447565b82610211565b505050565b6100fa610288565b5050565b806001600160a01b03163b60000361013957604051631933b43b60e21b81526001600160a01b03821660048201526024015b60405180910390fd5b807fa3f0ad74e5423aebfd80d3ef4346578335a9a72aeaee59ff6cb3582b35133d5080546001600160a01b0319166001600160a01b0392831617905560408051635c60da1b60e01b81529051600092841691635c60da1b9160048083019260209291908290030181865afa1580156101b5573d6000803e3d6000fd5b505050506040513d601f19601f820116820180604052508101906101d99190610447565b9050806001600160a01b03163b6000036100fa57604051634c9c8ce360e01b81526001600160a01b0382166004820152602401610130565b6060600080846001600160a01b03168460405161022e9190610462565b600060405180830381855af49150503d8060008114610269576040519150601f19603f3d011682016040523d82523d6000602084013e61026e565b606091505b50909250905061027f8583836102a9565b95945050505050565b34156102a75760405163b398979f60e01b815260040160405180910390fd5b565b6060826102be576102b982610308565b610301565b81511580156102d557506001600160a01b0384163b155b156102fe57604051639996b31560e01b81526001600160a01b0385166004820152602401610130565b50805b9392505050565b8051156103185780518082602001fd5b604051630a12f52160e11b815260040160405180910390fd5b80516001600160a01b038116811461034857600080fd5b919050565b634e487b7160e01b600052604160045260246000fd5b60005b8381101561037e578181015183820152602001610366565b50506000910152565b6000806040838503121561039a57600080fd5b6103a383610331565b60208401519092506001600160401b03808211156103c057600080fd5b818501915085601f8301126103d457600080fd5b8151818111156103e6576103e661034d565b604051601f8201601f19908116603f0116810190838211818310171561040e5761040e61034d565b8160405282815288602084870101111561042757600080fd5b610438836020830160208801610363565b80955050505050509250929050565b60006020828403121561045957600080fd5b61030182610331565b60008251610474818460208701610363565b9190910192915050565b6080516101276104986000396000601e01526101276000f3fe6080604052600a600c565b005b60186014601a565b60a0565b565b60007f00000000000000000000000000000000000000000000000000000000000000006001600160a01b0316635c60da1b6040518163ffffffff1660e01b8152600401602060405180830381865afa1580156079573d6000803e3d6000fd5b505050506040513d601f19601f82011682018060405250810190609b919060c3565b905090565b3660008037600080366000845af43d6000803e80801560be573d6000f35b3d6000fd5b60006020828403121560d457600080fd5b81516001600160a01b038116811460ea57600080fd5b939250505056fea264697066735822122038063abf0acf0012aa106601a36fadbbf1a7604cc3cbd26cfa83a39a16756e2164736f6c63430008180033cd5ed15c6e187e77e9aee88184c21f4f2182ab5827cb3b7e07fbedcd63f03300a2646970667358221220ef6dfa988b5432f0334ae7f44a99aac8eb87cb178446a26c40e52ca2bf2303f764736f6c63430008180033",
  "linkReferences": {},
  "deployedLinkReferences": {}
}