{
  "_format": "hh-sol-artifact-1",
  "contractName": "Officer",
  "sourceName": "contracts/Officer.sol",
  "abi": [
    {
      "inputs": [],
      "name": "EnforcedPause",
      "type": "error"
    },
    {
      "inputs": [],
      "name": "ExpectedPause",
      "type": "error"
    },
    {
      "inputs": [],
      "name": "InvalidInitialization",
      "type": "error"
    },
    {
      "inputs": [],
      "name": "NotInitializing",
      "type": "error"
    },
    {
      "inputs": [
        {
          "internalType": "address",
          "name": "owner",
          "type": "address"
        }
      ],
      "name": "OwnableInvalidOwner",
      "type": "error"
    },
    {
      "inputs": [
        {
          "internalType": "address",
          "name": "account",
          "type": "address"
        }
      ],
      "name": "OwnableUnauthorizedAccount",
      "type": "error"
    },
    {
      "inputs": [],
      "name": "ReentrancyGuardReentrantCall",
      "type": "error"
    },
    {
      "anonymous": false,
      "inputs": [
        {
          "indexed": false,
          "internalType": "string",
          "name": "contractType",
          "type": "string"
        },
        {
          "indexed": false,
          "internalType": "address",
          "name": "beaconAddress",
          "type": "address"
        }
      ],
      "name": "BeaconConfigured",
      "type": "event"
    },
    {
      "anonymous": false,
      "inputs": [
        {
          "indexed": false,
          "internalType": "string",
          "name": "contractType",
          "type": "string"
        },
        {
          "indexed": false,
          "internalType": "address",
          "name": "deployedAddress",
          "type": "address"
        }
      ],
      "name": "ContractDeployed",
      "type": "event"
    },
    {
      "anonymous": false,
      "inputs": [
        {
          "indexed": false,
          "internalType": "uint64",
          "name": "version",
          "type": "uint64"
        }
      ],
      "name": "Initialized",
      "type": "event"
    },
    {
      "anonymous": false,
      "inputs": [
        {
          "indexed": true,
          "internalType": "address",
          "name": "previousOwner",
          "type": "address"
        },
        {
          "indexed": true,
          "internalType": "address",
          "name": "newOwner",
          "type": "address"
        }
      ],
      "name": "OwnershipTransferred",
      "type": "event"
    },
    {
      "anonymous": false,
      "inputs": [
        {
          "indexed": false,
          "internalType": "address",
          "name": "account",
          "type": "address"
        }
      ],
      "name": "Paused",
      "type": "event"
    },
    {
      "anonymous": false,
      "inputs": [
        {
          "indexed": false,
          "internalType": "address[]",
          "name": "founders",
          "type": "address[]"
        },
        {
          "indexed": false,
          "internalType": "address[]",
          "name": "members",
          "type": "address[]"
        }
      ],
      "name": "TeamCreated",
      "type": "event"
    },
    {
      "anonymous": false,
      "inputs": [
        {
          "indexed": false,
          "internalType": "address",
          "name": "account",
          "type": "address"
        }
      ],
      "name": "Unpaused",
      "type": "event"
    },
    {
      "inputs": [
        {
          "internalType": "string",
          "name": "contractType",
          "type": "string"
        },
        {
          "internalType": "address",
          "name": "beaconAddress",
          "type": "address"
        }
      ],
      "name": "configureBeacon",
      "outputs": [],
      "stateMutability": "nonpayable",
      "type": "function"
    },
    {
      "inputs": [
        {
          "internalType": "string",
          "name": "",
          "type": "string"
        }
      ],
      "name": "contractBeacons",
      "outputs": [
        {
          "internalType": "address",
          "name": "",
          "type": "address"
        }
      ],
      "stateMutability": "view",
      "type": "function"
    },
    {
      "inputs": [
        {
          "internalType": "uint256",
          "name": "",
          "type": "uint256"
        }
      ],
      "name": "contractTypes",
      "outputs": [
        {
          "internalType": "string",
          "name": "",
          "type": "string"
        }
      ],
      "stateMutability": "view",
      "type": "function"
    },
    {
      "inputs": [
        {
          "internalType": "address[]",
          "name": "_founders",
          "type": "address[]"
        },
        {
          "internalType": "address[]",
          "name": "_members",
          "type": "address[]"
        }
      ],
      "name": "createTeam",
      "outputs": [],
      "stateMutability": "nonpayable",
      "type": "function"
    },
    {
      "inputs": [
        {
          "components": [
            {
              "internalType": "string",
              "name": "contractType",
              "type": "string"
            },
            {
              "internalType": "bytes",
              "name": "initializerData",
              "type": "bytes"
            }
          ],
          "internalType": "struct Officer.DeploymentData[]",
          "name": "deployments",
          "type": "tuple[]"
        }
      ],
      "name": "deployAllContracts",
      "outputs": [
        {
          "internalType": "address[]",
          "name": "",
          "type": "address[]"
        }
      ],
      "stateMutability": "nonpayable",
      "type": "function"
    },
    {
      "inputs": [
        {
          "internalType": "string",
          "name": "contractType",
          "type": "string"
        },
        {
          "internalType": "bytes",
          "name": "initializerData",
          "type": "bytes"
        }
      ],
      "name": "deployBeaconProxy",
      "outputs": [
        {
          "internalType": "address",
          "name": "",
          "type": "address"
        }
      ],
      "stateMutability": "nonpayable",
      "type": "function"
    },
    {
      "inputs": [],
      "name": "getConfiguredContractTypes",
      "outputs": [
        {
          "internalType": "string[]",
          "name": "",
          "type": "string[]"
        }
      ],
      "stateMutability": "view",
      "type": "function"
    },
    {
      "inputs": [],
      "name": "getDeployedContracts",
      "outputs": [
        {
          "components": [
            {
              "internalType": "string",
              "name": "contractType",
              "type": "string"
            },
            {
              "internalType": "address",
              "name": "contractAddress",
              "type": "address"
            }
          ],
          "internalType": "struct Officer.DeployedContract[]",
          "name": "",
          "type": "tuple[]"
        }
      ],
      "stateMutability": "view",
      "type": "function"
    },
    {
      "inputs": [],
      "name": "getTeam",
      "outputs": [
        {
          "internalType": "address[]",
          "name": "",
          "type": "address[]"
        },
        {
          "internalType": "address[]",
          "name": "",
          "type": "address[]"
        },
        {
          "components": [
            {
              "internalType": "string",
              "name": "contractType",
              "type": "string"
            },
            {
              "internalType": "address",
              "name": "contractAddress",
              "type": "address"
            }
          ],
          "internalType": "struct Officer.DeployedContract[]",
          "name": "",
          "type": "tuple[]"
        }
      ],
      "stateMutability": "view",
      "type": "function"
    },
    {
      "inputs": [
        {
          "internalType": "address",
          "name": "_owner",
          "type": "address"
        },
        {
          "components": [
            {
              "internalType": "string",
              "name": "beaconType",
              "type": "string"
            },
            {
              "internalType": "address",
              "name": "beaconAddress",
              "type": "address"
            }
          ],
          "internalType": "struct Officer.BeaconConfig[]",
          "name": "beaconConfigs",
          "type": "tuple[]"
        }
      ],
      "name": "initialize",
      "outputs": [],
      "stateMutability": "nonpayable",
      "type": "function"
    },
    {
      "inputs": [],
      "name": "owner",
      "outputs": [
        {
          "internalType": "address",
          "name": "",
          "type": "address"
        }
      ],
      "stateMutability": "view",
      "type": "function"
    },
    {
      "inputs": [],
      "name": "pause",
      "outputs": [],
      "stateMutability": "nonpayable",
      "type": "function"
    },
    {
      "inputs": [],
      "name": "paused",
      "outputs": [
        {
          "internalType": "bool",
          "name": "",
          "type": "bool"
        }
      ],
      "stateMutability": "view",
      "type": "function"
    },
    {
      "inputs": [],
      "name": "renounceOwnership",
      "outputs": [],
      "stateMutability": "nonpayable",
      "type": "function"
    },
    {
      "inputs": [
        {
          "internalType": "address",
          "name": "newOwner",
          "type": "address"
        }
      ],
      "name": "transferOwnership",
      "outputs": [],
      "stateMutability": "nonpayable",
      "type": "function"
    },
    {
      "inputs": [],
      "name": "unpause",
      "outputs": [],
      "stateMutability": "nonpayable",
      "type": "function"
    }
  ],
  "bytecode": "0x608060405234801561001057600080fd5b50613095806100206000396000f3fe60806040523480156200001157600080fd5b5060043610620001155760003560e01c80638bce6edd11620000a3578063bda8beab116200006e578063bda8beab146200023e578063d2d7b54a1462000275578063e99548a5146200028c578063f2fde38b14620002b257600080fd5b80638bce6edd14620001da5780638da5cb5b14620001f557806395373b7714620001ff578063aa9a068f146200022557600080fd5b8063715018a611620000e4578063715018a6146200017d578063799391f614620001875780638456cb5914620001a05780638934332d14620001aa57600080fd5b8063028316c6146200011a5780632d73d91014620001335780633f4ba83a146200014a5780635c975abb1462000154575b600080fd5b620001316200012b36600462001f42565b620002c9565b005b6200013162000144366004620020ab565b62000599565b620001316200096c565b600080516020620030408339815191525460ff1660405190151581526020015b60405180910390f35b62000131620009e8565b62000191620009fe565b60405162000174919062002220565b6200013162000ae1565b620001c1620001bb36600462002288565b62000b58565b6040516001600160a01b03909116815260200162000174565b620001e462000f25565b6040516200017493929190620023bc565b620001c1620010ff565b620002166200021036600462002405565b6200112d565b6040516200017491906200247e565b6200022f620017c5565b6040516200017491906200249a565b620001c16200024f366004620024af565b80516020818301810180516002825292820191909301209152546001600160a01b031681565b620001316200028636600462002561565b620018ca565b620002a36200029d366004620025cb565b62001b35565b604051620001749190620025e5565b62000131620002c3366004620025fa565b62001bea565b620002d3620010ff565b6001600160a01b03163303620003e75760006001600160a01b0316600284846040516200030292919062002618565b908152604051908190036020019020546001600160a01b0316036200036257600380546001810182556000919091527fc2575a0e9e593c00f959f8c92f12db2869c3395a3b0502d05e2516446f71f85b0162000360838583620026b9565b505b80600284846040516200037792919062002618565b90815260405190819003602001812080546001600160a01b03939093166001600160a01b0319909316929092179091557f2881466ae3b4402eb0e3d707416581efa9ce464c26cca0b40d5b290f48a94e2290620003da90859085908590620027af565b60405180910390a1505050565b60005b6000548110156200053557600081815481106200040b576200040b620027dd565b6000918252602090912001546001600160a01b031633036200052c5760006001600160a01b0316600285856040516200044692919062002618565b908152604051908190036020019020546001600160a01b031603620004a657600380546001810182556000919091527fc2575a0e9e593c00f959f8c92f12db2869c3395a3b0502d05e2516446f71f85b01620004a4848683620026b9565b505b8160028585604051620004bb92919062002618565b90815260405190819003602001812080546001600160a01b03939093166001600160a01b0319909316929092179091557f2881466ae3b4402eb0e3d707416581efa9ce464c26cca0b40d5b290f48a94e22906200051e90869086908690620027af565b60405180910390a150505050565b600101620003ea565b5060405162461bcd60e51b815260206004820152602d60248201527f596f7520617265206e6f7420617574686f72697a656420746f20706572666f7260448201526c36903a3434b99030b1ba34b7b760991b60648201526084015b60405180910390fd5b7ff0c57e16840df040f15088dc2f81fe391c3923bec73e23a9662efc9c229c6a008054600160401b810460ff1615906001600160401b0316600081158015620005df5750825b90506000826001600160401b03166001148015620005fc5750303b155b9050811580156200060b575080155b156200062a5760405163f92ee8a960e01b815260040160405180910390fd5b845467ffffffffffffffff1916600117855583156200065557845460ff60401b1916600160401b1785555b620006608762001c2b565b6200066a62001c40565b6200067462001c54565b60005b86518110156200091b5760006001600160a01b0316878281518110620006a157620006a1620027dd565b6020026020010151602001516001600160a01b031603620006fe5760405162461bcd60e51b8152602060048201526016602482015275496e76616c696420626561636f6e206164647265737360501b604482015260640162000590565b6000878281518110620007155762000715620027dd565b6020026020010151600001515111620007655760405162461bcd60e51b8152602060048201526011602482015270456d70747920626561636f6e207479706560781b604482015260640162000590565b60005b818110156200081157878181518110620007865762000786620027dd565b60200260200101516000015180519060200120888381518110620007ae57620007ae620027dd565b6020026020010151600001518051906020012003620008085760405162461bcd60e51b81526020600482015260156024820152744475706c696361746520626561636f6e207479706560581b604482015260640162000590565b60010162000768565b50868181518110620008275762000827620027dd565b60200260200101516020015160028883815181106200084a576200084a620027dd565b602002602001015160000151604051620008659190620027f3565b908152602001604051809103902060006101000a8154816001600160a01b0302191690836001600160a01b031602179055507f2881466ae3b4402eb0e3d707416581efa9ce464c26cca0b40d5b290f48a94e22878281518110620008cd57620008cd620027dd565b602002602001015160000151888381518110620008ee57620008ee620027dd565b6020026020010151602001516040516200090a92919062002811565b60405180910390a160010162000677565b5083156200096357845460ff60401b19168555604051600181527fc7f505b2f371ae2175ee4913f4499e1f2633a7b5936321eed1cdaeb6115181d29060200160405180910390a15b50505050505050565b62000976620010ff565b6001600160a01b0316330362000992576200099062001c68565b565b60005b600054811015620005355760008181548110620009b657620009b6620027dd565b6000918252602090912001546001600160a01b03163303620009df57620009dc62001c68565b50565b60010162000995565b620009f262001ccb565b62000990600062001d01565b60606003805480602002602001604051908101604052809291908181526020016000905b8282101562000ad857838290600052602060002001805462000a449062002628565b80601f016020809104026020016040519081016040528092919081815260200182805462000a729062002628565b801562000ac35780601f1062000a975761010080835404028352916020019162000ac3565b820191906000526020600020905b81548152906001019060200180831162000aa557829003601f168201915b50505050508152602001906001019062000a22565b50505050905090565b62000aeb620010ff565b6001600160a01b0316330362000b05576200099062001d72565b60005b60005481101562000535576000818154811062000b295762000b29620027dd565b6000918252602090912001546001600160a01b0316330362000b4f57620009dc62001d72565b60010162000b08565b600062000b6462001dbf565b62000b6e620010ff565b6001600160a01b0316330362000d295760006001600160a01b03166002868660405162000b9d92919062002618565b908152604051908190036020019020546001600160a01b03160362000bd65760405162461bcd60e51b815260040162000590906200283d565b60006002868660405162000bec92919062002618565b908152604051908190036020018120546001600160a01b0316908590859062000c159062001ecc565b62000c239392919062002889565b604051809103906000f08015801562000c40573d6000803e3d6000fd5b506040805160606020601f8a018190040282018101835291810188815292935083926004928291908b908b908190850183828082843760009201829052509385525050506001600160a01b038516602092830152835460018101855593815220815191926002020190819062000cb79082620028b9565b5060209190910151600190910180546001600160a01b0319166001600160a01b039092169190911790556040517f4da8c8e82a6cdcd021dddec73a637b429d2b0a9b303638f1258ff8a35c3e5d869062000d1790899089908590620027af565b60405180910390a1915062000f1d9050565b60005b60005481101562000535576000818154811062000d4d5762000d4d620027dd565b6000918252602090912001546001600160a01b0316330362000f145760006001600160a01b03166002878760405162000d8892919062002618565b908152604051908190036020019020546001600160a01b03160362000dc15760405162461bcd60e51b815260040162000590906200283d565b60006002878760405162000dd792919062002618565b908152604051908190036020018120546001600160a01b0316908690869062000e009062001ecc565b62000e0e9392919062002889565b604051809103906000f08015801562000e2b573d6000803e3d6000fd5b506040805160606020601f8b018190040282018101835291810189815292935083926004928291908c908c908190850183828082843760009201829052509385525050506001600160a01b038516602092830152835460018101855593815220815191926002020190819062000ea29082620028b9565b5060209190910151600190910180546001600160a01b0319166001600160a01b039092169190911790556040517f4da8c8e82a6cdcd021dddec73a637b429d2b0a9b303638f1258ff8a35c3e5d869062000f02908a908a908590620027af565b60405180910390a19250505062000f1d565b60010162000d2c565b949350505050565b60608060606000600160048280548060200260200160405190810160405280929190818152602001828054801562000f8757602002820191906000526020600020905b81546001600160a01b0316815260019091019060200180831162000f68575b505050505092508180548060200260200160405190810160405280929190818152602001828054801562000fe557602002820191906000526020600020905b81546001600160a01b0316815260019091019060200180831162000fc6575b5050505050915080805480602002602001604051908101604052809291908181526020016000905b82821015620010ee5783829060005260206000209060020201604051806040016040529081600082018054620010439062002628565b80601f0160208091040260200160405190810160405280929190818152602001828054620010719062002628565b8015620010c25780601f106200109657610100808354040283529160200191620010c2565b820191906000526020600020905b815481529060010190602001808311620010a457829003601f168201915b50505091835250506001918201546001600160a01b03166020918201529183529290920191016200100d565b505050509050925092509250909192565b7f9016d09d72d40fdae2fd8ceac6b6234c7706214fd39c1cd1e609a0528c199300546001600160a01b031690565b60606200113962001dbf565b62001143620010ff565b6001600160a01b0316330362001476576000826001600160401b0381111562001170576200117062001f9b565b6040519080825280602002602001820160405280156200119a578160200160208202803683370190505b50905060005b838110156200146d576000858583818110620011c057620011c0620027dd565b9050602002810190620011d4919062002985565b620011e090806200299c565b905011620012315760405162461bcd60e51b815260206004820152601d60248201527f436f6e747261637420747970652063616e6e6f7420626520656d707479000000604482015260640162000590565b6000858583818110620012485762001248620027dd565b90506020028101906200125c919062002985565b6200126c9060208101906200299c565b905011858583818110620012845762001284620027dd565b905060200281019062001298919062002985565b620012a490806200299c565b604051602001620012b7929190620029e5565b60405160208183030381529060405290620012e75760405162461bcd60e51b8152600401620005909190620025e5565b5060006002868684818110620013015762001301620027dd565b905060200281019062001315919062002985565b6200132190806200299c565b6040516200133192919062002618565b908152604051908190036020019020546001600160a01b03161415858583818110620013615762001361620027dd565b905060200281019062001375919062002985565b6200138190806200299c565b6040516020016200139492919062002a1e565b60405160208183030381529060405290620013c45760405162461bcd60e51b8152600401620005909190620025e5565b5062001437858583818110620013de57620013de620027dd565b9050602002810190620013f2919062002985565b620013fe90806200299c565b878785818110620014135762001413620027dd565b905060200281019062001427919062002985565b620001bb9060208101906200299c565b8282815181106200144c576200144c620027dd565b6001600160a01b0390921660209283029190910190910152600101620011a0565b509050620017bf565b60005b6000548110156200053557600081815481106200149a576200149a620027dd565b6000918252602090912001546001600160a01b03163303620017b6576000836001600160401b03811115620014d357620014d362001f9b565b604051908082528060200260200182016040528015620014fd578160200160208202803683370190505b50905060005b84811015620017ac576000868683818110620015235762001523620027dd565b905060200281019062001537919062002985565b6200154390806200299c565b905011620015945760405162461bcd60e51b815260206004820152601d60248201527f436f6e747261637420747970652063616e6e6f7420626520656d707479000000604482015260640162000590565b6000868683818110620015ab57620015ab620027dd565b9050602002810190620015bf919062002985565b620015cf9060208101906200299c565b905011868683818110620015e757620015e7620027dd565b9050602002810190620015fb919062002985565b6200160790806200299c565b6040516020016200161a929190620029e5565b604051602081830303815290604052906200164a5760405162461bcd60e51b8152600401620005909190620025e5565b5060006002878784818110620016645762001664620027dd565b905060200281019062001678919062002985565b6200168490806200299c565b6040516200169492919062002618565b908152604051908190036020019020546001600160a01b03161415868683818110620016c457620016c4620027dd565b9050602002810190620016d8919062002985565b620016e490806200299c565b604051602001620016f792919062002a1e565b60405160208183030381529060405290620017275760405162461bcd60e51b8152600401620005909190620025e5565b5062001776868683818110620017415762001741620027dd565b905060200281019062001755919062002985565b6200176190806200299c565b888885818110620014135762001413620027dd565b8282815181106200178b576200178b620027dd565b6001600160a01b039092166020928302919091019091015260010162001503565b50915050620017bf565b60010162001479565b92915050565b60606004805480602002602001604051908101604052809291908181526020016000905b8282101562000ad857838290600052602060002090600202016040518060400160405290816000820180546200181f9062002628565b80601f01602080910402602001604051908101604052809291908181526020018280546200184d9062002628565b80156200189e5780601f1062001872576101008083540402835291602001916200189e565b820191906000526020600020905b8154815290600101906020018083116200188057829003601f168201915b50505091835250506001918201546001600160a01b0316602091820152918352929092019101620017e9565b620018d462001dbf565b6000825111620019275760405162461bcd60e51b815260206004820152601e60248201527f4d7573742068617665206174206c65617374206f6e6520666f756e6465720000604482015260640162000590565b60005b825181101562001a115760006001600160a01b0316838281518110620019545762001954620027dd565b60200260200101516001600160a01b031603620019b45760405162461bcd60e51b815260206004820152601760248201527f496e76616c696420666f756e6465722061646472657373000000000000000000604482015260640162000590565b6000838281518110620019cb57620019cb620027dd565b60209081029190910181015182546001808201855560009485529290932090920180546001600160a01b0319166001600160a01b0390931692909217909155016200192a565b5060005b815181101562001af55760006001600160a01b031682828151811062001a3f5762001a3f620027dd565b60200260200101516001600160a01b03160362001a985760405162461bcd60e51b8152602060048201526016602482015275496e76616c6964206d656d626572206164647265737360501b604482015260640162000590565b600182828151811062001aaf5762001aaf620027dd565b60209081029190910181015182546001808201855560009485529290932090920180546001600160a01b0319166001600160a01b03909316929092179091550162001a15565b507f14bbcd93381ec042bd0247a11fa75d4fef24b31e785ca44971c6fc162c4f05af828260405162001b2992919062002a57565b60405180910390a15050565b6003818154811062001b4657600080fd5b90600052602060002001600091509050805462001b639062002628565b80601f016020809104026020016040519081016040528092919081815260200182805462001b919062002628565b801562001be25780601f1062001bb65761010080835404028352916020019162001be2565b820191906000526020600020905b81548152906001019060200180831162001bc457829003601f168201915b505050505081565b62001bf462001ccb565b6001600160a01b03811662001c2057604051631e4fbdf760e01b81526000600482015260240162000590565b620009dc8162001d01565b62001c3562001df2565b620009dc8162001e3c565b62001c4a62001df2565b6200099062001e46565b62001c5e62001df2565b6200099062001e76565b62001c7262001e9a565b60008051602062003040833981519152805460ff191681557f5db9ee0a495bf2e6ff9c91a7834c1ba4fdd244a5e8aa4e537bd38aeae4b073aa335b6040516001600160a01b03909116815260200160405180910390a150565b3362001cd6620010ff565b6001600160a01b031614620009905760405163118cdaa760e01b815233600482015260240162000590565b7f9016d09d72d40fdae2fd8ceac6b6234c7706214fd39c1cd1e609a0528c19930080546001600160a01b031981166001600160a01b03848116918217845560405192169182907f8be0079c531659141344cd1fd0a4f28419497f9722a3daafe3b4186f6b6457e090600090a3505050565b62001d7c62001dbf565b60008051602062003040833981519152805460ff191660011781557f62e78cea01bee320cd4e420270b5ea74000d11b0c9f74754ebdbfc544b05a2583362001cad565b600080516020620030408339815191525460ff1615620009905760405163d93c066560e01b815260040160405180910390fd5b7ff0c57e16840df040f15088dc2f81fe391c3923bec73e23a9662efc9c229c6a0054600160401b900460ff166200099057604051631afcd79f60e31b815260040160405180910390fd5b62001bf462001df2565b62001e5062001df2565b60017f9b779b17422d0df92223018b32b4d1fa46e071723d6817e2486d003becc55f0055565b62001e8062001df2565b60008051602062003040833981519152805460ff19169055565b600080516020620030408339815191525460ff166200099057604051638dfc202b60e01b815260040160405180910390fd5b6105bf8062002a8183390190565b60008083601f84011262001eed57600080fd5b5081356001600160401b0381111562001f0557600080fd5b60208301915083602082850101111562001f1e57600080fd5b9250929050565b80356001600160a01b038116811462001f3d57600080fd5b919050565b60008060006040848603121562001f5857600080fd5b83356001600160401b0381111562001f6f57600080fd5b62001f7d8682870162001eda565b909450925062001f9290506020850162001f25565b90509250925092565b634e487b7160e01b600052604160045260246000fd5b604080519081016001600160401b038111828210171562001fd65762001fd662001f9b565b60405290565b604051601f8201601f191681016001600160401b038111828210171562002007576200200762001f9b565b604052919050565b60006001600160401b038211156200202b576200202b62001f9b565b5060051b60200190565b600082601f8301126200204757600080fd5b81356001600160401b0381111562002063576200206362001f9b565b62002078601f8201601f191660200162001fdc565b8181528460208386010111156200208e57600080fd5b816020850160208301376000918101602001919091529392505050565b6000806040808486031215620020c057600080fd5b620020cb8462001f25565b92506020808501356001600160401b0380821115620020e957600080fd5b818701915087601f830112620020fe57600080fd5b8135620021156200210f826200200f565b62001fdc565b81815260059190911b8301840190848101908a8311156200213557600080fd5b8585015b83811015620021ba57803585811115620021535760008081fd5b8601808d03601f19018913156200216a5760008081fd5b6200217462001fb1565b8882013587811115620021875760008081fd5b620021978f8b8386010162002035565b825250620021a78a830162001f25565b818a015284525091860191860162002139565b50809750505050505050509250929050565b60005b83811015620021e9578181015183820152602001620021cf565b50506000910152565b600081518084526200220c816020860160208601620021cc565b601f01601f19169290920160200192915050565b600060208083016020845280855180835260408601915060408160051b87010192506020870160005b828110156200227b57603f1988860301845262002268858351620021f2565b9450928501929085019060010162002249565b5092979650505050505050565b600080600080604085870312156200229f57600080fd5b84356001600160401b0380821115620022b757600080fd5b620022c58883890162001eda565b90965094506020870135915080821115620022df57600080fd5b50620022ee8782880162001eda565b95989497509550505050565b60008151808452602080850194506020840160005b83811015620023365781516001600160a01b0316875295820195908201906001016200230f565b509495945050505050565b600082825180855260208086019550808260051b84010181860160005b84811015620023af57601f198684030189528151604081518186526200238782870182620021f2565b928701516001600160a01b03169587019590955250988401989250908301906001016200235e565b5090979650505050505050565b606081526000620023d16060830186620022fa565b8281036020840152620023e58186620022fa565b90508281036040840152620023fb818562002341565b9695505050505050565b600080602083850312156200241957600080fd5b82356001600160401b03808211156200243157600080fd5b818501915085601f8301126200244657600080fd5b8135818111156200245657600080fd5b8660208260051b85010111156200246c57600080fd5b60209290920196919550909350505050565b602081526000620024936020830184620022fa565b9392505050565b60208152600062002493602083018462002341565b600060208284031215620024c257600080fd5b81356001600160401b03811115620024d957600080fd5b62000f1d8482850162002035565b600082601f830112620024f957600080fd5b813560206200250c6200210f836200200f565b8083825260208201915060208460051b8701019350868411156200252f57600080fd5b602086015b848110156200255657620025488162001f25565b835291830191830162002534565b509695505050505050565b600080604083850312156200257557600080fd5b82356001600160401b03808211156200258d57600080fd5b6200259b86838701620024e7565b93506020850135915080821115620025b257600080fd5b50620025c185828601620024e7565b9150509250929050565b600060208284031215620025de57600080fd5b5035919050565b602081526000620024936020830184620021f2565b6000602082840312156200260d57600080fd5b620024938262001f25565b8183823760009101908152919050565b600181811c908216806200263d57607f821691505b6020821081036200265e57634e487b7160e01b600052602260045260246000fd5b50919050565b601f821115620026b4576000816000526020600020601f850160051c810160208610156200268f5750805b601f850160051c820191505b81811015620026b0578281556001016200269b565b5050505b505050565b6001600160401b03831115620026d357620026d362001f9b565b620026eb83620026e4835462002628565b8362002664565b6000601f841160018114620027225760008515620027095750838201355b600019600387901b1c1916600186901b1783556200277f565b600083815260209020601f19861690835b8281101562002755578685013582556020948501946001909201910162002733565b5086821015620027735760001960f88860031b161c19848701351681555b505060018560011b0183555b5050505050565b81835281816020850137506000828201602090810191909152601f909101601f19169091010190565b604081526000620027c560408301858762002786565b905060018060a01b0383166020830152949350505050565b634e487b7160e01b600052603260045260246000fd5b6000825162002807818460208701620021cc565b9190910192915050565b604081526000620028266040830185620021f2565b905060018060a01b03831660208301529392505050565b6020808252602c908201527f426561636f6e206e6f7420636f6e6669677572656420666f722074686973206360408201526b6f6e7472616374207479706560a01b606082015260800190565b6001600160a01b0384168152604060208201819052600090620028b0908301848662002786565b95945050505050565b81516001600160401b03811115620028d557620028d562001f9b565b620028ed81620028e6845462002628565b8462002664565b602080601f8311600181146200292557600084156200290c5750858301515b600019600386901b1c1916600185901b178555620026b0565b600085815260208120601f198616915b82811015620029565788860151825594840194600190910190840162002935565b5085821015620029755787850151600019600388901b60f8161c191681555b5050505050600190811b01905550565b60008235603e198336030181126200280757600080fd5b6000808335601e19843603018112620029b457600080fd5b8301803591506001600160401b03821115620029cf57600080fd5b60200191503681900382131562001f1e57600080fd5b7f4d697373696e6720696e697469616c697a6572206461746120666f722000000081528183601d83013760009101601d01908152919050565b7f426561636f6e206e6f7420636f6e6669677572656420666f722000000000000081528183601a83013760009101601a01908152919050565b60408152600062002a6c6040830185620022fa565b8281036020840152620028b08185620022fa56fe60a06040526040516105bf3803806105bf83398101604081905261002291610387565b61002c828261003e565b506001600160a01b031660805261047e565b610047826100fe565b6040516001600160a01b038316907f1cf3b03a6cf19fa2baba4df148e9dcabedea7f8a5c07840e207e5c089be95d3e90600090a28051156100f2576100ed826001600160a01b0316635c60da1b6040518163ffffffff1660e01b8152600401602060405180830381865afa1580156100c3573d6000803e3d6000fd5b505050506040513d601f19601f820116820180604052508101906100e79190610447565b82610211565b505050565b6100fa610288565b5050565b806001600160a01b03163b60000361013957604051631933b43b60e21b81526001600160a01b03821660048201526024015b60405180910390fd5b807fa3f0ad74e5423aebfd80d3ef4346578335a9a72aeaee59ff6cb3582b35133d5080546001600160a01b0319166001600160a01b0392831617905560408051635c60da1b60e01b81529051600092841691635c60da1b9160048083019260209291908290030181865afa1580156101b5573d6000803e3d6000fd5b505050506040513d601f19601f820116820180604052508101906101d99190610447565b9050806001600160a01b03163b6000036100fa57604051634c9c8ce360e01b81526001600160a01b0382166004820152602401610130565b6060600080846001600160a01b03168460405161022e9190610462565b600060405180830381855af49150503d8060008114610269576040519150601f19603f3d011682016040523d82523d6000602084013e61026e565b606091505b50909250905061027f8583836102a9565b95945050505050565b34156102a75760405163b398979f60e01b815260040160405180910390fd5b565b6060826102be576102b982610308565b610301565b81511580156102d557506001600160a01b0384163b155b156102fe57604051639996b31560e01b81526001600160a01b0385166004820152602401610130565b50805b9392505050565b8051156103185780518082602001fd5b604051630a12f52160e11b815260040160405180910390fd5b80516001600160a01b038116811461034857600080fd5b919050565b634e487b7160e01b600052604160045260246000fd5b60005b8381101561037e578181015183820152602001610366565b50506000910152565b6000806040838503121561039a57600080fd5b6103a383610331565b60208401519092506001600160401b03808211156103c057600080fd5b818501915085601f8301126103d457600080fd5b8151818111156103e6576103e661034d565b604051601f8201601f19908116603f0116810190838211818310171561040e5761040e61034d565b8160405282815288602084870101111561042757600080fd5b610438836020830160208801610363565b80955050505050509250929050565b60006020828403121561045957600080fd5b61030182610331565b60008251610474818460208701610363565b9190910192915050565b6080516101276104986000396000601e01526101276000f3fe6080604052600a600c565b005b60186014601a565b60a0565b565b60007f00000000000000000000000000000000000000000000000000000000000000006001600160a01b0316635c60da1b6040518163ffffffff1660e01b8152600401602060405180830381865afa1580156079573d6000803e3d6000fd5b505050506040513d601f19601f82011682018060405250810190609b919060c3565b905090565b3660008037600080366000845af43d6000803e80801560be573d6000f35b3d6000fd5b60006020828403121560d457600080fd5b81516001600160a01b038116811460ea57600080fd5b939250505056fea264697066735822122038063abf0acf0012aa106601a36fadbbf1a7604cc3cbd26cfa83a39a16756e2164736f6c63430008180033cd5ed15c6e187e77e9aee88184c21f4f2182ab5827cb3b7e07fbedcd63f03300a26469706673582212207c98a40c58fd0be64fea92650ebc10b7e98ba33ebe1ee1f35d93c193dff79bfe64736f6c63430008180033",
  "linkReferences": {},
  "deployedLinkReferences": {}
}