{
  "_format": "hh-sol-artifact-1",
  "contractName": "Officer",
  "sourceName": "contracts/Officer.sol",
  "abi": [
    {
      "inputs": [],
      "name": "EnforcedPause",
      "type": "error"
    },
    {
      "inputs": [],
      "name": "ExpectedPause",
      "type": "error"
    },
    {
      "inputs": [],
      "name": "InvalidInitialization",
      "type": "error"
    },
    {
      "inputs": [],
      "name": "NotInitializing",
      "type": "error"
    },
    {
      "inputs": [
        {
          "internalType": "address",
          "name": "owner",
          "type": "address"
        }
      ],
      "name": "OwnableInvalidOwner",
      "type": "error"
    },
    {
      "inputs": [
        {
          "internalType": "address",
          "name": "account",
          "type": "address"
        }
      ],
      "name": "OwnableUnauthorizedAccount",
      "type": "error"
    },
    {
      "inputs": [],
      "name": "ReentrancyGuardReentrantCall",
      "type": "error"
    },
    {
      "anonymous": false,
      "inputs": [
        {
          "indexed": false,
          "internalType": "string",
          "name": "contractType",
          "type": "string"
        },
        {
          "indexed": false,
          "internalType": "address",
          "name": "contractAddress",
          "type": "address"
        }
      ],
      "name": "ContractDeployed",
      "type": "event"
    },
    {
      "anonymous": false,
      "inputs": [
        {
          "indexed": false,
          "internalType": "uint64",
          "name": "version",
          "type": "uint64"
        }
      ],
      "name": "Initialized",
      "type": "event"
    },
    {
      "anonymous": false,
      "inputs": [
        {
          "indexed": true,
          "internalType": "address",
          "name": "previousOwner",
          "type": "address"
        },
        {
          "indexed": true,
          "internalType": "address",
          "name": "newOwner",
          "type": "address"
        }
      ],
      "name": "OwnershipTransferred",
      "type": "event"
    },
    {
      "anonymous": false,
      "inputs": [
        {
          "indexed": false,
          "internalType": "address",
          "name": "account",
          "type": "address"
        }
      ],
      "name": "Paused",
      "type": "event"
    },
    {
      "anonymous": false,
      "inputs": [
        {
          "indexed": false,
          "internalType": "address[]",
          "name": "founders",
          "type": "address[]"
        },
        {
          "indexed": false,
          "internalType": "address[]",
          "name": "members",
          "type": "address[]"
        }
      ],
      "name": "TeamCreated",
      "type": "event"
    },
    {
      "anonymous": false,
      "inputs": [
        {
          "indexed": false,
          "internalType": "address",
          "name": "account",
          "type": "address"
        }
      ],
      "name": "Unpaused",
      "type": "event"
    },
    {
      "inputs": [],
      "name": "bankAccountBeacon",
      "outputs": [
        {
          "internalType": "address",
          "name": "",
          "type": "address"
        }
      ],
      "stateMutability": "view",
      "type": "function"
    },
    {
      "inputs": [],
      "name": "bodContractBeacon",
      "outputs": [
        {
          "internalType": "address",
          "name": "",
          "type": "address"
        }
      ],
      "stateMutability": "view",
      "type": "function"
    },
    {
      "inputs": [
        {
          "internalType": "address[]",
          "name": "_founders",
          "type": "address[]"
        },
        {
          "internalType": "address[]",
          "name": "_members",
          "type": "address[]"
        }
      ],
      "name": "createTeam",
      "outputs": [],
      "stateMutability": "nonpayable",
      "type": "function"
    },
    {
      "inputs": [
        {
          "internalType": "address",
          "name": "tipsAddress",
          "type": "address"
        }
      ],
      "name": "deployBankAccount",
      "outputs": [],
      "stateMutability": "nonpayable",
      "type": "function"
    },
    {
      "inputs": [],
      "name": "deployExpenseAccount",
      "outputs": [],
      "stateMutability": "nonpayable",
      "type": "function"
    },
    {
      "inputs": [],
      "name": "deployExpenseAccountEip712",
      "outputs": [],
      "stateMutability": "nonpayable",
      "type": "function"
    },
    {
      "inputs": [
        {
          "internalType": "string",
          "name": "_name",
          "type": "string"
        },
        {
          "internalType": "string",
          "name": "_symbol",
          "type": "string"
        },
        {
          "components": [
            {
              "internalType": "address",
              "name": "shareholder",
              "type": "address"
            },
            {
              "internalType": "uint256",
              "name": "amount",
              "type": "uint256"
            },
            {
              "internalType": "uint256",
              "name": "lastMinted",
              "type": "uint256"
            },
            {
              "internalType": "uint256",
              "name": "totalMinted",
              "type": "uint256"
            },
            {
              "internalType": "bool",
              "name": "isActive",
              "type": "bool"
            }
          ],
          "internalType": "struct StockGrant[]",
          "name": "_stockGrants",
          "type": "tuple[]"
        }
      ],
      "name": "deployInvestorContract",
      "outputs": [],
      "stateMutability": "nonpayable",
      "type": "function"
    },
    {
      "inputs": [
        {
          "internalType": "string",
          "name": "_name",
          "type": "string"
        },
        {
          "internalType": "string",
          "name": "_symbol",
          "type": "string"
        }
      ],
      "name": "deployInvestorContractV1",
      "outputs": [],
      "stateMutability": "nonpayable",
      "type": "function"
    },
    {
      "inputs": [],
      "name": "deployVotingContract",
      "outputs": [],
      "stateMutability": "nonpayable",
      "type": "function"
    },
    {
      "inputs": [],
      "name": "expenseAccountBeacon",
      "outputs": [
        {
          "internalType": "address",
          "name": "",
          "type": "address"
        }
      ],
      "stateMutability": "view",
      "type": "function"
    },
    {
      "inputs": [],
      "name": "expenseAccountEip712Beacon",
      "outputs": [
        {
          "internalType": "address",
          "name": "",
          "type": "address"
        }
      ],
      "stateMutability": "view",
      "type": "function"
    },
    {
      "inputs": [],
      "name": "getTeam",
      "outputs": [
        {
          "internalType": "address[]",
          "name": "",
          "type": "address[]"
        },
        {
          "internalType": "address[]",
          "name": "",
          "type": "address[]"
        },
        {
          "internalType": "address",
          "name": "",
          "type": "address"
        },
        {
          "internalType": "address",
          "name": "",
          "type": "address"
        },
        {
          "internalType": "address",
          "name": "",
          "type": "address"
        },
        {
          "internalType": "address",
          "name": "",
          "type": "address"
        },
        {
          "internalType": "address",
          "name": "",
          "type": "address"
        },
        {
          "internalType": "address",
          "name": "",
          "type": "address"
        }
      ],
      "stateMutability": "view",
      "type": "function"
    },
    {
      "inputs": [
        {
          "internalType": "address",
          "name": "owner",
          "type": "address"
        },
        {
          "internalType": "address",
          "name": "_bankAccountBeacon",
          "type": "address"
        },
        {
          "internalType": "address",
          "name": "_votingContractBeacon",
          "type": "address"
        },
        {
          "internalType": "address",
          "name": "_bodContractBeacon",
          "type": "address"
        },
        {
          "internalType": "address",
          "name": "_expenseAccountBeacon",
          "type": "address"
        },
        {
          "internalType": "address",
          "name": "_expenseAccountEip712Beacon",
          "type": "address"
        },
        {
          "internalType": "address",
          "name": "_investorBeacon",
          "type": "address"
        }
      ],
      "name": "initialize",
      "outputs": [],
      "stateMutability": "nonpayable",
      "type": "function"
    },
    {
      "inputs": [],
      "name": "investorBeacon",
      "outputs": [
        {
          "internalType": "address",
          "name": "",
          "type": "address"
        }
      ],
      "stateMutability": "view",
      "type": "function"
    },
    {
      "inputs": [],
      "name": "investorContract",
      "outputs": [
        {
          "internalType": "address",
          "name": "",
          "type": "address"
        }
      ],
      "stateMutability": "view",
      "type": "function"
    },
    {
      "inputs": [],
      "name": "owner",
      "outputs": [
        {
          "internalType": "address",
          "name": "",
          "type": "address"
        }
      ],
      "stateMutability": "view",
      "type": "function"
    },
    {
      "inputs": [],
      "name": "pause",
      "outputs": [],
      "stateMutability": "nonpayable",
      "type": "function"
    },
    {
      "inputs": [],
      "name": "paused",
      "outputs": [
        {
          "internalType": "bool",
          "name": "",
          "type": "bool"
        }
      ],
      "stateMutability": "view",
      "type": "function"
    },
    {
      "inputs": [],
      "name": "renounceOwnership",
      "outputs": [],
      "stateMutability": "nonpayable",
      "type": "function"
    },
    {
      "inputs": [
        {
          "internalType": "address",
          "name": "newOwner",
          "type": "address"
        }
      ],
      "name": "transferOwnership",
      "outputs": [],
      "stateMutability": "nonpayable",
      "type": "function"
    },
    {
      "inputs": [
        {
          "internalType": "address",
          "name": "newOwner",
          "type": "address"
        }
      ],
      "name": "transferOwnershipToBOD",
      "outputs": [],
      "stateMutability": "nonpayable",
      "type": "function"
    },
    {
      "inputs": [],
      "name": "unpause",
      "outputs": [],
      "stateMutability": "nonpayable",
      "type": "function"
    },
    {
      "inputs": [],
      "name": "votingContractBeacon",
      "outputs": [
        {
          "internalType": "address",
          "name": "",
          "type": "address"
        }
      ],
      "stateMutability": "view",
      "type": "function"
    }
  ],
  "bytecode": "0x608060405234801561001057600080fd5b50612d72806100206000396000f3fe60806040523480156200001157600080fd5b5060043610620001695760003560e01c806371c0a93c11620000d3578063d2d7b54a1162000086578063d2d7b54a14620002ce578063ec12649a14620002e5578063eec7285c14620002f9578063f2fde38b1462000303578063f37606b5146200031a578063f7e8dd38146200033157600080fd5b806371c0a93c14620002655780638456cb59146200027c5780638bce6edd14620002865780638da5cb5b14620002a6578063abbb972014620002b0578063b5ff50f414620002c457600080fd5b80633f4ba83a116200012c5780633f4ba83a14620001f75780634eadecb014620002015780635c975abb14620002155780636324bef2146200023a578063658e51551462000251578063715018a6146200025b57600080fd5b80630346a03c146200016e57806316d2986f146200019f57806316e0e94e14620001b35780633587647614620001c75780633a67c02014620001e0575b600080fd5b60085462000182906001600160a01b031681565b6040516001600160a01b0390911681526020015b60405180910390f35b600c5462000182906001600160a01b031681565b600a5462000182906001600160a01b031681565b620001de620001d836600462001e4e565b62000345565b005b620001de620001f136600462001ff7565b620004d9565b620001de6200083a565b600b5462000182906001600160a01b031681565b60008051602062002d1d8339815191525460ff16604051901515815260200162000196565b620001de6200024b36600462002147565b620008b6565b620001de62000917565b620001de62000e57565b620001de620002763660046200216c565b62000e6d565b620001de6200109d565b6200029062001114565b604051620001969897969594939291906200221e565b620001826200122d565b60095462000182906001600160a01b031681565b620001de6200125b565b620001de620002df36600462002307565b6200146f565b60075462000182906001600160a01b031681565b620001de620016ce565b620001de6200031436600462002147565b620018cb565b620001de6200032b36600462002147565b6200190c565b600d5462000182906001600160a01b031681565b7ff0c57e16840df040f15088dc2f81fe391c3923bec73e23a9662efc9c229c6a008054600160401b810460ff16159067ffffffffffffffff166000811580156200038c5750825b905060008267ffffffffffffffff166001148015620003aa5750303b155b905081158015620003b9575080155b15620003d85760405163f92ee8a960e01b815260040160405180910390fd5b845467ffffffffffffffff1916600117855583156200040357845460ff60401b1916600160401b1785555b6200040e8c62001b87565b6200041862001b9c565b6200042262001bb0565b600780546001600160a01b03199081166001600160a01b038e8116919091179092556008805482168d84161790556009805482168c8416179055600a805482168b8416179055600b805482168a8416179055600d80549091169188169190911790558315620004cb57845460ff60401b19168555604051600181527fc7f505b2f371ae2175ee4913f4499e1f2633a7b5936321eed1cdaeb6115181d29060200160405180910390a15b505050505050505050505050565b620004e36200122d565b6001600160a01b031633036200064657620004fd62001bc4565b600c546001600160a01b031615620005325760405162461bcd60e51b8152600401620005299062002368565b60405180910390fd5b600d546001600160a01b03166200055d5760405162461bcd60e51b81526004016200052990620023aa565b600d546040516000916001600160a01b031690630784c96760e31b906200058d9087908790879060240162002429565b60408051601f198184030181529181526020820180516001600160e01b03166001600160e01b0319909416939093179092529051620005cc9062001e23565b620005d9929190620024d2565b604051809103906000f080158015620005f6573d6000803e3d6000fd5b50600c80546001600160a01b0319166001600160a01b03831690811790915560405191925060008051602062002cfd8339815191529162000638919062002500565b60405180910390a150505050565b60005b600054811015620007da57600081815481106200066a576200066a6200253b565b6000918252602090912001546001600160a01b03163303620007d1576200069062001bc4565b600c546001600160a01b031615620006bc5760405162461bcd60e51b8152600401620005299062002368565b600d546001600160a01b0316620006e75760405162461bcd60e51b81526004016200052990620023aa565b600d546040516000916001600160a01b031690630784c96760e31b90620007179088908890889060240162002429565b60408051601f198184030181529181526020820180516001600160e01b03166001600160e01b0319909416939093179092529051620007569062001e23565b62000763929190620024d2565b604051809103906000f08015801562000780573d6000803e3d6000fd5b50600c80546001600160a01b0319166001600160a01b03831690811790915560405191925060008051602062002cfd83398151915291620007c2919062002500565b60405180910390a15050505050565b60010162000649565b5060405162461bcd60e51b815260206004820152602d60248201527f596f7520617265206e6f7420617574686f72697a656420746f20706572666f7260448201526c36903a3434b99030b1ba34b7b760991b606482015260840162000529565b620008446200122d565b6001600160a01b0316330362000860576200085e62001bf7565b565b60005b600054811015620007da57600081815481106200088457620008846200253b565b6000918252602090912001546001600160a01b03163303620008ad57620008aa62001bf7565b50565b60010162000863565b620008c062001bc4565b620008cb81620018cb565b806001600160a01b0316620008df6200122d565b6001600160a01b03167f8be0079c531659141344cd1fd0a4f28419497f9722a3daafe3b4186f6b6457e060405160405180910390a350565b620009216200122d565b6001600160a01b0316330362000ba6576200093b62001bc4565b600854604080513360248083019190915282518083039091018152604490910182526020810180516001600160e01b031663189acdbd60e31b17905290516000926001600160a01b03169190620009929062001e23565b6200099f929190620024d2565b604051809103906000f080158015620009bc573d6000803e3d6000fd5b50600380546001600160a01b0319166001600160a01b03831690811790915560405191925060008051602062002cfd83398151915291620009fe919062002551565b60405180910390a160408051600180825281830190925260009160208083019080368337505060035482519293506001600160a01b03169183915060009062000a4b5762000a4b6200253b565b6001600160a01b039283166020918202929092010152600954604051600092919091169063a224cee760e01b9062000a889085906024016200258a565b60408051601f198184030181529181526020820180516001600160e01b03166001600160e01b031990941693909317909252905162000ac79062001e23565b62000ad4929190620024d2565b604051809103906000f08015801562000af1573d6000803e3d6000fd5b50600480546001600160a01b0319166001600160a01b03838116918217835560035460405163ec17219360e01b8152938401929092529293509091169063ec17219390602401600060405180830381600087803b15801562000b5257600080fd5b505af115801562000b67573d6000803e3d6000fd5b505060045460405160008051602062002cfd833981519152935062000b9992506001600160a01b03909116906200259f565b60405180910390a1505050565b60005b600054811015620007da576000818154811062000bca5762000bca6200253b565b6000918252602090912001546001600160a01b0316330362000e4e5762000bf062001bc4565b600854604080513360248083019190915282518083039091018152604490910182526020810180516001600160e01b031663189acdbd60e31b17905290516000926001600160a01b0316919062000c479062001e23565b62000c54929190620024d2565b604051809103906000f08015801562000c71573d6000803e3d6000fd5b50600380546001600160a01b0319166001600160a01b03831690811790915560405191925060008051602062002cfd8339815191529162000cb3919062002551565b60405180910390a160408051600180825281830190925260009160208083019080368337505060035482519293506001600160a01b03169183915060009062000d005762000d006200253b565b6001600160a01b039283166020918202929092010152600954604051600092919091169063a224cee760e01b9062000d3d9085906024016200258a565b60408051601f198184030181529181526020820180516001600160e01b03166001600160e01b031990941693909317909252905162000d7c9062001e23565b62000d89929190620024d2565b604051809103906000f08015801562000da6573d6000803e3d6000fd5b50600480546001600160a01b0319166001600160a01b03838116918217835560035460405163ec17219360e01b8152938401929092529293509091169063ec17219390602401600060405180830381600087803b15801562000e0757600080fd5b505af115801562000e1c573d6000803e3d6000fd5b505060045460405160008051602062002cfd83398151915293506200063892506001600160a01b03909116906200259f565b60010162000ba9565b62000e6162001c55565b6200085e600062001c8b565b62000e776200122d565b6001600160a01b0316330362000fc35762000e9162001bc4565b600c546001600160a01b03161562000ebd5760405162461bcd60e51b8152600401620005299062002368565b600d546001600160a01b031662000ee85760405162461bcd60e51b81526004016200052990620023aa565b600d546040516000916001600160a01b0316906303bf912560e11b9062000f1890869086903390602401620025d5565b60408051601f198184030181529181526020820180516001600160e01b03166001600160e01b031990941693909317909252905162000f579062001e23565b62000f64929190620024d2565b604051809103906000f08015801562000f81573d6000803e3d6000fd5b50600c80546001600160a01b0319166001600160a01b03831690811790915560405191925060008051602062002cfd8339815191529162000b99919062002500565b60005b600054811015620007da576000818154811062000fe75762000fe76200253b565b6000918252602090912001546001600160a01b0316330362001094576200100d62001bc4565b600c546001600160a01b031615620010395760405162461bcd60e51b8152600401620005299062002368565b600d546001600160a01b0316620010645760405162461bcd60e51b81526004016200052990620023aa565b600d546040516000916001600160a01b0316906303bf912560e11b906200058d90879087903390602401620025d5565b60010162000fc6565b620010a76200122d565b6001600160a01b03163303620010c1576200085e62001cfc565b60005b600054811015620007da5760008181548110620010e557620010e56200253b565b6000918252602090912001546001600160a01b031633036200110b57620008aa62001cfc565b600101620010c4565b600254600354600454600554600654600c5460008054604080516020808402820181019092528281526060998a9994988998899889988998899889986001986001600160a01b03988916989384169784169684169584169490931692918a91830182828015620011ae57602002820191906000526020600020905b81546001600160a01b031681526001909101906020018083116200118f575b50505050509750868054806020026020016040519081016040528092919081815260200182805480156200120c57602002820191906000526020600020905b81546001600160a01b03168152600190910190602001808311620011ed575b50505050509650975097509750975097509750975097509091929394959697565b7f9016d09d72d40fdae2fd8ceac6b6234c7706214fd39c1cd1e609a0528c199300546001600160a01b031690565b620012656200122d565b6001600160a01b031633036200134d576200127f62001bc4565b600b54604080513360248083019190915282518083039091018152604490910182526020810180516001600160e01b031663189acdbd60e31b17905290516000926001600160a01b03169190620012d69062001e23565b620012e3929190620024d2565b604051809103906000f08015801562001300573d6000803e3d6000fd5b50600680546001600160a01b0319166001600160a01b03831690811790915560405191925060008051602062002cfd8339815191529162001342919062002617565b60405180910390a150565b60005b600054811015620007da57600081815481106200137157620013716200253b565b6000918252602090912001546001600160a01b0316330362001466576200139762001bc4565b600b54604080513360248083019190915282518083039091018152604490910182526020810180516001600160e01b031663189acdbd60e31b17905290516000926001600160a01b03169190620013ee9062001e23565b620013fb929190620024d2565b604051809103906000f08015801562001418573d6000803e3d6000fd5b50600680546001600160a01b0319166001600160a01b03831690811790915560405191925060008051602062002cfd833981519152916200145a919062002617565b60405180910390a15050565b60010162001350565b6200147962001bc4565b6000825111620014cc5760405162461bcd60e51b815260206004820152601e60248201527f4d7573742068617665206174206c65617374206f6e6520666f756e6465720000604482015260640162000529565b60005b8251811015620015b65760006001600160a01b0316838281518110620014f957620014f96200253b565b60200260200101516001600160a01b031603620015595760405162461bcd60e51b815260206004820152601760248201527f496e76616c696420666f756e6465722061646472657373000000000000000000604482015260640162000529565b60008382815181106200157057620015706200253b565b60209081029190910181015182546001808201855560009485529290932090920180546001600160a01b0319166001600160a01b039093169290921790915501620014cf565b5060005b81518110156200169a5760006001600160a01b0316828281518110620015e457620015e46200253b565b60200260200101516001600160a01b0316036200163d5760405162461bcd60e51b8152602060048201526016602482015275496e76616c6964206d656d626572206164647265737360501b604482015260640162000529565b60018282815181106200165457620016546200253b565b60209081029190910181015182546001808201855560009485529290932090920180546001600160a01b0319166001600160a01b039093169290921790915501620015ba565b507f14bbcd93381ec042bd0247a11fa75d4fef24b31e785ca44971c6fc162c4f05af82826040516200145a92919062002656565b620016d86200122d565b6001600160a01b03163303620017b557620016f262001bc4565b600a54604080513360248083019190915282518083039091018152604490910182526020810180516001600160e01b031663189acdbd60e31b17905290516000926001600160a01b03169190620017499062001e23565b62001756929190620024d2565b604051809103906000f08015801562001773573d6000803e3d6000fd5b50600580546001600160a01b0319166001600160a01b03831690811790915560405191925060008051602062002cfd8339815191529162001342919062002688565b60005b600054811015620007da5760008181548110620017d957620017d96200253b565b6000918252602090912001546001600160a01b03163303620018c257620017ff62001bc4565b600a54604080513360248083019190915282518083039091018152604490910182526020810180516001600160e01b031663189acdbd60e31b17905290516000926001600160a01b03169190620018569062001e23565b62001863929190620024d2565b604051809103906000f08015801562001880573d6000803e3d6000fd5b50600580546001600160a01b0319166001600160a01b03831690811790915560405191925060008051602062002cfd833981519152916200145a919062002688565b600101620017b8565b620018d562001c55565b6001600160a01b0381166200190157604051631e4fbdf760e01b81526000600482015260240162000529565b620008aa8162001c8b565b620019166200122d565b6001600160a01b0316330362001a32576200193062001bc4565b6002546001600160a01b0316156200195c5760405162461bcd60e51b81526004016200052990620026c1565b6007546040516001600160a01b038381166024830152336044830152600092169063485cc95560e01b9060640160408051601f198184030181529181526020820180516001600160e01b03166001600160e01b0319909416939093179092529051620019c89062001e23565b620019d5929190620024d2565b604051809103906000f080158015620019f2573d6000803e3d6000fd5b50600280546001600160a01b0319166001600160a01b03831617905560405190915060008051602062002cfd833981519152906200145a90839062002707565b60005b600054811015620007da576000818154811062001a565762001a566200253b565b6000918252602090912001546001600160a01b0316330362001b7e5762001a7c62001bc4565b6002546001600160a01b03161562001aa85760405162461bcd60e51b81526004016200052990620026c1565b6007546040516001600160a01b038481166024830152336044830152600092169063485cc95560e01b9060640160408051601f198184030181529181526020820180516001600160e01b03166001600160e01b031990941693909317909252905162001b149062001e23565b62001b21929190620024d2565b604051809103906000f08015801562001b3e573d6000803e3d6000fd5b50600280546001600160a01b0319166001600160a01b03831617905560405190915060008051602062002cfd8339815191529062000b9990839062002707565b60010162001a35565b62001b9162001d49565b620008aa8162001d93565b62001ba662001d49565b6200085e62001d9d565b62001bba62001d49565b6200085e62001dcd565b60008051602062002d1d8339815191525460ff16156200085e5760405163d93c066560e01b815260040160405180910390fd5b62001c0162001df1565b60008051602062002d1d833981519152805460ff191681557f5db9ee0a495bf2e6ff9c91a7834c1ba4fdd244a5e8aa4e537bd38aeae4b073aa335b6040516001600160a01b03909116815260200162001342565b3362001c606200122d565b6001600160a01b0316146200085e5760405163118cdaa760e01b815233600482015260240162000529565b7f9016d09d72d40fdae2fd8ceac6b6234c7706214fd39c1cd1e609a0528c19930080546001600160a01b031981166001600160a01b03848116918217845560405192169182907f8be0079c531659141344cd1fd0a4f28419497f9722a3daafe3b4186f6b6457e090600090a3505050565b62001d0662001bc4565b60008051602062002d1d833981519152805460ff191660011781557f62e78cea01bee320cd4e420270b5ea74000d11b0c9f74754ebdbfc544b05a2583362001c3c565b7ff0c57e16840df040f15088dc2f81fe391c3923bec73e23a9662efc9c229c6a0054600160401b900460ff166200085e57604051631afcd79f60e31b815260040160405180910390fd5b620018d562001d49565b62001da762001d49565b60017f9b779b17422d0df92223018b32b4d1fa46e071723d6817e2486d003becc55f0055565b62001dd762001d49565b60008051602062002d1d833981519152805460ff19169055565b60008051602062002d1d8339815191525460ff166200085e57604051638dfc202b60e01b815260040160405180910390fd5b6105bf806200273e83390190565b80356001600160a01b038116811462001e4957600080fd5b919050565b600080600080600080600060e0888a03121562001e6a57600080fd5b62001e758862001e31565b965062001e856020890162001e31565b955062001e956040890162001e31565b945062001ea56060890162001e31565b935062001eb56080890162001e31565b925062001ec560a0890162001e31565b915062001ed560c0890162001e31565b905092959891949750929550565b634e487b7160e01b600052604160045260246000fd5b60405160a0810167ffffffffffffffff8111828210171562001f1f5762001f1f62001ee3565b60405290565b604051601f8201601f1916810167ffffffffffffffff8111828210171562001f515762001f5162001ee3565b604052919050565b600082601f83011262001f6b57600080fd5b813567ffffffffffffffff81111562001f885762001f8862001ee3565b62001f9d601f8201601f191660200162001f25565b81815284602083860101111562001fb357600080fd5b816020850160208301376000918101602001919091529392505050565b600067ffffffffffffffff82111562001fed5762001fed62001ee3565b5060051b60200190565b600080600060608085870312156200200e57600080fd5b843567ffffffffffffffff808211156200202757600080fd5b620020358883890162001f59565b95506020915081870135818111156200204d57600080fd5b6200205b89828a0162001f59565b955050604080880135828111156200207257600080fd5b88019150601f820189136200208657600080fd5b81356200209d620020978262001fd0565b62001f25565b81815260a0918202840185019185820191908c841115620020bd57600080fd5b948601945b83861015620021355780868e031215620020dc5760008081fd5b620020e662001ef9565b620020f18762001e31565b81528787013588820152858701358682015288870135898201526080808801358015158114620021215760008081fd5b9082015283529485019491860191620020c2565b50809750505050505050509250925092565b6000602082840312156200215a57600080fd5b620021658262001e31565b9392505050565b600080604083850312156200218057600080fd5b823567ffffffffffffffff808211156200219957600080fd5b620021a78683870162001f59565b93506020850135915080821115620021be57600080fd5b50620021cd8582860162001f59565b9150509250929050565b60008151808452602080850194506020840160005b83811015620022135781516001600160a01b031687529582019590820190600101620021ec565b509495945050505050565b6000610100808352620022348184018c620021d7565b905082810360208401526200224a818b620021d7565b6001600160a01b03998a16604085015297891660608401525050938616608085015291851660a0840152841660c083015290921660e09092019190915292915050565b600082601f8301126200229f57600080fd5b81356020620022b2620020978362001fd0565b8083825260208201915060208460051b870101935086841115620022d557600080fd5b602086015b84811015620022fc57620022ee8162001e31565b8352918301918301620022da565b509695505050505050565b600080604083850312156200231b57600080fd5b823567ffffffffffffffff808211156200233457600080fd5b62002342868387016200228d565b935060208501359150808211156200235957600080fd5b50620021cd858286016200228d565b60208082526022908201527f496e766573746f7220636f6e747261637420616c7265616479206465706c6f79604082015261195960f21b606082015260800190565b60208082526017908201527f496e766573746f7220626561636f6e206e6f7420736574000000000000000000604082015260600190565b6000815180845260005b818110156200240957602081850181015186830182015201620023eb565b506000602082860101526020601f19601f83011685010191505092915050565b600060608083526200243f6060840187620023e1565b602084820381860152620024548288620023e1565b9150604085830360408701528287518085528385019150838901945060005b81811015620024c257855180516001600160a01b031684528581015186850152848101518585015287810151888501526080908101511515908401529484019460a09092019160010162002473565b50909a9950505050505050505050565b6001600160a01b0383168152604060208201819052600090620024f890830184620023e1565b949350505050565b60408082526010908201526f125b9d995cdd1bdc90dbdb9d1c9858dd60821b60608201526001600160a01b0391909116602082015260800190565b634e487b7160e01b600052603260045260246000fd5b6040808252600e908201526d159bdd1a5b99d0dbdb9d1c9858dd60921b60608201526001600160a01b0391909116602082015260800190565b602081526000620021656020830184620021d7565b6040808252600b908201526a109bd110dbdb9d1c9858dd60aa1b60608201526001600160a01b0391909116602082015260800190565b606081526000620025ea6060830186620023e1565b8281036020840152620025fe8186620023e1565b91505060018060a01b0383166040830152949350505050565b60408082526014908201527322bc3832b739b2a0b1b1b7bab73a22a4a81b989960611b60608201526001600160a01b0391909116602082015260800190565b6040815260006200266b6040830185620021d7565b82810360208401526200267f8185620021d7565b95945050505050565b6040808252600e908201526d115e1c195b9cd95058d8dbdd5b9d60921b60608201526001600160a01b0391909116602082015260800190565b60208082526026908201527f42616e6b206163636f756e7420636f6e747261637420616c72656164792064656040820152651c1b1bde595960d21b606082015260800190565b6040808252600b908201526a10985b9ad058d8dbdd5b9d60aa1b60608201526001600160a01b039190911660208201526080019056fe60a06040526040516105bf3803806105bf83398101604081905261002291610387565b61002c828261003e565b506001600160a01b031660805261047e565b610047826100fe565b6040516001600160a01b038316907f1cf3b03a6cf19fa2baba4df148e9dcabedea7f8a5c07840e207e5c089be95d3e90600090a28051156100f2576100ed826001600160a01b0316635c60da1b6040518163ffffffff1660e01b8152600401602060405180830381865afa1580156100c3573d6000803e3d6000fd5b505050506040513d601f19601f820116820180604052508101906100e79190610447565b82610211565b505050565b6100fa610288565b5050565b806001600160a01b03163b60000361013957604051631933b43b60e21b81526001600160a01b03821660048201526024015b60405180910390fd5b807fa3f0ad74e5423aebfd80d3ef4346578335a9a72aeaee59ff6cb3582b35133d5080546001600160a01b0319166001600160a01b0392831617905560408051635c60da1b60e01b81529051600092841691635c60da1b9160048083019260209291908290030181865afa1580156101b5573d6000803e3d6000fd5b505050506040513d601f19601f820116820180604052508101906101d99190610447565b9050806001600160a01b03163b6000036100fa57604051634c9c8ce360e01b81526001600160a01b0382166004820152602401610130565b6060600080846001600160a01b03168460405161022e9190610462565b600060405180830381855af49150503d8060008114610269576040519150601f19603f3d011682016040523d82523d6000602084013e61026e565b606091505b50909250905061027f8583836102a9565b95945050505050565b34156102a75760405163b398979f60e01b815260040160405180910390fd5b565b6060826102be576102b982610308565b610301565b81511580156102d557506001600160a01b0384163b155b156102fe57604051639996b31560e01b81526001600160a01b0385166004820152602401610130565b50805b9392505050565b8051156103185780518082602001fd5b604051630a12f52160e11b815260040160405180910390fd5b80516001600160a01b038116811461034857600080fd5b919050565b634e487b7160e01b600052604160045260246000fd5b60005b8381101561037e578181015183820152602001610366565b50506000910152565b6000806040838503121561039a57600080fd5b6103a383610331565b60208401519092506001600160401b03808211156103c057600080fd5b818501915085601f8301126103d457600080fd5b8151818111156103e6576103e661034d565b604051601f8201601f19908116603f0116810190838211818310171561040e5761040e61034d565b8160405282815288602084870101111561042757600080fd5b610438836020830160208801610363565b80955050505050509250929050565b60006020828403121561045957600080fd5b61030182610331565b60008251610474818460208701610363565b9190910192915050565b6080516101276104986000396000601e01526101276000f3fe6080604052600a600c565b005b60186014601a565b60a0565b565b60007f00000000000000000000000000000000000000000000000000000000000000006001600160a01b0316635c60da1b6040518163ffffffff1660e01b8152600401602060405180830381865afa1580156079573d6000803e3d6000fd5b505050506040513d601f19601f82011682018060405250810190609b919060c3565b905090565b3660008037600080366000845af43d6000803e80801560be573d6000f35b3d6000fd5b60006020828403121560d457600080fd5b81516001600160a01b038116811460ea57600080fd5b939250505056fea264697066735822122038063abf0acf0012aa106601a36fadbbf1a7604cc3cbd26cfa83a39a16756e2164736f6c634300081800334da8c8e82a6cdcd021dddec73a637b429d2b0a9b303638f1258ff8a35c3e5d86cd5ed15c6e187e77e9aee88184c21f4f2182ab5827cb3b7e07fbedcd63f03300a26469706673582212202b251dcb3d3a3253a13021d86ebb7e70dc43ed55f95199dd86ad04a29e36986a64736f6c63430008180033",
  "linkReferences": {},
  "deployedLinkReferences": {}
}