{
  "_format": "hh-sol-artifact-1",
  "contractName": "Officer",
  "sourceName": "contracts/Officer.sol",
  "abi": [
    {
      "inputs": [],
      "name": "EnforcedPause",
      "type": "error"
    },
    {
      "inputs": [],
      "name": "ExpectedPause",
      "type": "error"
    },
    {
      "inputs": [],
      "name": "InvalidInitialization",
      "type": "error"
    },
    {
      "inputs": [],
      "name": "NotInitializing",
      "type": "error"
    },
    {
      "inputs": [
        {
          "internalType": "address",
          "name": "owner",
          "type": "address"
        }
      ],
      "name": "OwnableInvalidOwner",
      "type": "error"
    },
    {
      "inputs": [
        {
          "internalType": "address",
          "name": "account",
          "type": "address"
        }
      ],
      "name": "OwnableUnauthorizedAccount",
      "type": "error"
    },
    {
      "inputs": [],
      "name": "ReentrancyGuardReentrantCall",
      "type": "error"
    },
    {
      "anonymous": false,
      "inputs": [
        {
          "indexed": false,
          "internalType": "string",
          "name": "contractType",
          "type": "string"
        },
        {
          "indexed": false,
          "internalType": "address",
          "name": "contractAddress",
          "type": "address"
        }
      ],
      "name": "ContractDeployed",
      "type": "event"
    },
    {
      "anonymous": false,
      "inputs": [
        {
          "indexed": false,
          "internalType": "uint64",
          "name": "version",
          "type": "uint64"
        }
      ],
      "name": "Initialized",
      "type": "event"
    },
    {
      "anonymous": false,
      "inputs": [
        {
          "indexed": true,
          "internalType": "address",
          "name": "previousOwner",
          "type": "address"
        },
        {
          "indexed": true,
          "internalType": "address",
          "name": "newOwner",
          "type": "address"
        }
      ],
      "name": "OwnershipTransferred",
      "type": "event"
    },
    {
      "anonymous": false,
      "inputs": [
        {
          "indexed": false,
          "internalType": "address",
          "name": "account",
          "type": "address"
        }
      ],
      "name": "Paused",
      "type": "event"
    },
    {
      "anonymous": false,
      "inputs": [
        {
          "indexed": false,
          "internalType": "address[]",
          "name": "founders",
          "type": "address[]"
        },
        {
          "indexed": false,
          "internalType": "address[]",
          "name": "members",
          "type": "address[]"
        }
      ],
      "name": "TeamCreated",
      "type": "event"
    },
    {
      "anonymous": false,
      "inputs": [
        {
          "indexed": false,
          "internalType": "address",
          "name": "account",
          "type": "address"
        }
      ],
      "name": "Unpaused",
      "type": "event"
    },
    {
      "inputs": [],
      "name": "bankAccountBeacon",
      "outputs": [
        {
          "internalType": "address",
          "name": "",
          "type": "address"
        }
      ],
      "stateMutability": "view",
      "type": "function"
    },
    {
      "inputs": [],
      "name": "bodContractBeacon",
      "outputs": [
        {
          "internalType": "address",
          "name": "",
          "type": "address"
        }
      ],
      "stateMutability": "view",
      "type": "function"
    },
    {
      "inputs": [
        {
          "internalType": "address[]",
          "name": "_founders",
          "type": "address[]"
        },
        {
          "internalType": "address[]",
          "name": "_members",
          "type": "address[]"
        }
      ],
      "name": "createTeam",
      "outputs": [],
      "stateMutability": "nonpayable",
      "type": "function"
    },
    {
      "inputs": [
        {
          "internalType": "address",
          "name": "tipsAddress",
          "type": "address"
        }
      ],
      "name": "deployBankAccount",
      "outputs": [],
      "stateMutability": "nonpayable",
      "type": "function"
    },
    {
      "inputs": [],
      "name": "deployExpenseAccount",
      "outputs": [],
      "stateMutability": "nonpayable",
      "type": "function"
    },
    {
      "inputs": [],
      "name": "deployExpenseAccountEip712",
      "outputs": [],
      "stateMutability": "nonpayable",
      "type": "function"
    },
    {
      "inputs": [],
      "name": "deployVotingContract",
      "outputs": [],
      "stateMutability": "nonpayable",
      "type": "function"
    },
    {
      "inputs": [],
      "name": "expenseAccountBeacon",
      "outputs": [
        {
          "internalType": "address",
          "name": "",
          "type": "address"
        }
      ],
      "stateMutability": "view",
      "type": "function"
    },
    {
      "inputs": [],
      "name": "expenseAccountEip712Beacon",
      "outputs": [
        {
          "internalType": "address",
          "name": "",
          "type": "address"
        }
      ],
      "stateMutability": "view",
      "type": "function"
    },
    {
      "inputs": [],
      "name": "getTeam",
      "outputs": [
        {
          "internalType": "address[]",
          "name": "",
          "type": "address[]"
        },
        {
          "internalType": "address[]",
          "name": "",
          "type": "address[]"
        },
        {
          "internalType": "address",
          "name": "",
          "type": "address"
        },
        {
          "internalType": "address",
          "name": "",
          "type": "address"
        },
        {
          "internalType": "address",
          "name": "",
          "type": "address"
        },
        {
          "internalType": "address",
          "name": "",
          "type": "address"
        },
        {
          "internalType": "address",
          "name": "",
          "type": "address"
        }
      ],
      "stateMutability": "view",
      "type": "function"
    },
    {
      "inputs": [
        {
          "internalType": "address",
          "name": "owner",
          "type": "address"
        },
        {
          "internalType": "address",
          "name": "_bankAccountBeacon",
          "type": "address"
        },
        {
          "internalType": "address",
          "name": "_votingContractBeacon",
          "type": "address"
        },
        {
          "internalType": "address",
          "name": "_bodContractBeacon",
          "type": "address"
        },
        {
          "internalType": "address",
          "name": "_expenseAccountBeacon",
          "type": "address"
        },
        {
          "internalType": "address",
          "name": "_expenseAccountEip712Beacon",
          "type": "address"
        }
      ],
      "name": "initialize",
      "outputs": [],
      "stateMutability": "nonpayable",
      "type": "function"
    },
    {
      "inputs": [],
      "name": "owner",
      "outputs": [
        {
          "internalType": "address",
          "name": "",
          "type": "address"
        }
      ],
      "stateMutability": "view",
      "type": "function"
    },
    {
      "inputs": [],
      "name": "pause",
      "outputs": [],
      "stateMutability": "nonpayable",
      "type": "function"
    },
    {
      "inputs": [],
      "name": "paused",
      "outputs": [
        {
          "internalType": "bool",
          "name": "",
          "type": "bool"
        }
      ],
      "stateMutability": "view",
      "type": "function"
    },
    {
      "inputs": [],
      "name": "renounceOwnership",
      "outputs": [],
      "stateMutability": "nonpayable",
      "type": "function"
    },
    {
      "inputs": [
        {
          "internalType": "address",
          "name": "newOwner",
          "type": "address"
        }
      ],
      "name": "transferOwnership",
      "outputs": [],
      "stateMutability": "nonpayable",
      "type": "function"
    },
    {
      "inputs": [
        {
          "internalType": "address",
          "name": "newOwner",
          "type": "address"
        }
      ],
      "name": "transferOwnershipToBOD",
      "outputs": [],
      "stateMutability": "nonpayable",
      "type": "function"
    },
    {
      "inputs": [],
      "name": "unpause",
      "outputs": [],
      "stateMutability": "nonpayable",
      "type": "function"
    },
    {
      "inputs": [],
      "name": "votingContractBeacon",
      "outputs": [
        {
          "internalType": "address",
          "name": "",
          "type": "address"
        }
      ],
      "stateMutability": "view",
      "type": "function"
    }
  ],
  "bytecode": "0x608060405234801561001057600080fd5b5061236a806100206000396000f3fe60806040523480156200001157600080fd5b5060043610620001395760003560e01c80638bce6edd11620000bb578063d2d7b54a116200007a578063d2d7b54a146200025b578063ec12649a1462000272578063eec7285c1462000286578063f2fde38b1462000290578063f37606b514620002a757600080fd5b80638bce6edd14620001fd5780638da5cb5b146200021c578063abbb97201462000226578063b5ff50f4146200023a578063cc2a9a5b146200024457600080fd5b80635c975abb11620001085780635c975abb14620001a35780636324bef214620001c8578063658e515514620001df578063715018a614620001e95780638456cb5914620001f357600080fd5b80630346a03c146200013e57806316e0e94e146200016f5780633f4ba83a14620001835780634eadecb0146200018f575b600080fd5b60085462000152906001600160a01b031681565b6040516001600160a01b0390911681526020015b60405180910390f35b600a5462000152906001600160a01b031681565b6200018d620002be565b005b600b5462000152906001600160a01b031681565b600080516020620023158339815191525460ff16604051901515815260200162000166565b6200018d620001d936600462001890565b6200039e565b6200018d620003ff565b6200018d6200094d565b6200018d62000963565b62000207620009da565b604051620001669796959493929190620018fc565b6200015262000ae8565b60095462000152906001600160a01b031681565b6200018d62000b16565b6200018d6200025536600462001961565b62000d2a565b6200018d6200026c36600462001aa9565b62000eb1565b60075462000152906001600160a01b031681565b6200018d62001110565b6200018d620002a136600462001890565b6200130d565b6200018d620002b836600462001890565b6200134e565b620002c862000ae8565b6001600160a01b03163303620002e457620002e2620015c9565b565b60005b6000548110156200033a576000818154811062000308576200030862001b14565b6000918252602090912001546001600160a01b0316330362000331576200032e620015c9565b50565b600101620002e7565b5060405162461bcd60e51b815260206004820152602d60248201527f596f7520617265206e6f7420617574686f72697a656420746f20706572666f7260448201526c36903a3434b99030b1ba34b7b760991b60648201526084015b60405180910390fd5b620003a862001627565b620003b3816200130d565b806001600160a01b0316620003c762000ae8565b6001600160a01b03167f8be0079c531659141344cd1fd0a4f28419497f9722a3daafe3b4186f6b6457e060405160405180910390a350565b6200040962000ae8565b6001600160a01b031633036200068e576200042362001627565b600854604080513360248083019190915282518083039091018152604490910182526020810180516001600160e01b031663189acdbd60e31b17905290516000926001600160a01b031691906200047a9062001865565b6200048792919062001b2a565b604051809103906000f080158015620004a4573d6000803e3d6000fd5b50600380546001600160a01b0319166001600160a01b038316908117909155604051919250600080516020620022f583398151915291620004e6919062001b8b565b60405180910390a160408051600180825281830190925260009160208083019080368337505060035482519293506001600160a01b03169183915060009062000533576200053362001b14565b6001600160a01b039283166020918202929092010152600954604051600092919091169063a224cee760e01b906200057090859060240162001bc4565b60408051601f198184030181529181526020820180516001600160e01b03166001600160e01b0319909416939093179092529051620005af9062001865565b620005bc92919062001b2a565b604051809103906000f080158015620005d9573d6000803e3d6000fd5b50600480546001600160a01b0319166001600160a01b03838116918217835560035460405163ec17219360e01b8152938401929092529293509091169063ec17219390602401600060405180830381600087803b1580156200063a57600080fd5b505af11580156200064f573d6000803e3d6000fd5b5050600454604051600080516020620022f583398151915293506200068192506001600160a01b039091169062001bd9565b60405180910390a1505050565b60005b6000548110156200033a5760008181548110620006b257620006b262001b14565b6000918252602090912001546001600160a01b031633036200094457620006d862001627565b600854604080513360248083019190915282518083039091018152604490910182526020810180516001600160e01b031663189acdbd60e31b17905290516000926001600160a01b031691906200072f9062001865565b6200073c92919062001b2a565b604051809103906000f08015801562000759573d6000803e3d6000fd5b50600380546001600160a01b0319166001600160a01b038316908117909155604051919250600080516020620022f5833981519152916200079b919062001b8b565b60405180910390a160408051600180825281830190925260009160208083019080368337505060035482519293506001600160a01b031691839150600090620007e857620007e862001b14565b6001600160a01b039283166020918202929092010152600954604051600092919091169063a224cee760e01b906200082590859060240162001bc4565b60408051601f198184030181529181526020820180516001600160e01b03166001600160e01b0319909416939093179092529051620008649062001865565b6200087192919062001b2a565b604051809103906000f0801580156200088e573d6000803e3d6000fd5b50600480546001600160a01b0319166001600160a01b03838116918217835560035460405163ec17219360e01b8152938401929092529293509091169063ec17219390602401600060405180830381600087803b158015620008ef57600080fd5b505af115801562000904573d6000803e3d6000fd5b5050600454604051600080516020620022f583398151915293506200093692506001600160a01b039091169062001bd9565b60405180910390a150505050565b60010162000691565b620009576200165a565b620002e2600062001690565b6200096d62000ae8565b6001600160a01b031633036200098757620002e262001701565b60005b6000548110156200033a5760008181548110620009ab57620009ab62001b14565b6000918252602090912001546001600160a01b03163303620009d1576200032e62001701565b6001016200098a565b600254600354600454600554600654600080546040805160208084028201810190925282815260609889989497889788978897889788976001976001600160a01b0397881697938416968416958416949093169291899183018282801562000a6c57602002820191906000526020600020905b81546001600160a01b0316815260019091019060200180831162000a4d575b505050505096508580548060200260200160405190810160405280929190818152602001828054801562000aca57602002820191906000526020600020905b81546001600160a01b0316815260019091019060200180831162000aab575b50505050509550965096509650965096509650965090919293949596565b7f9016d09d72d40fdae2fd8ceac6b6234c7706214fd39c1cd1e609a0528c199300546001600160a01b031690565b62000b2062000ae8565b6001600160a01b0316330362000c085762000b3a62001627565b600b54604080513360248083019190915282518083039091018152604490910182526020810180516001600160e01b031663189acdbd60e31b17905290516000926001600160a01b0316919062000b919062001865565b62000b9e92919062001b2a565b604051809103906000f08015801562000bbb573d6000803e3d6000fd5b50600680546001600160a01b0319166001600160a01b038316908117909155604051919250600080516020620022f58339815191529162000bfd919062001c0f565b60405180910390a150565b60005b6000548110156200033a576000818154811062000c2c5762000c2c62001b14565b6000918252602090912001546001600160a01b0316330362000d215762000c5262001627565b600b54604080513360248083019190915282518083039091018152604490910182526020810180516001600160e01b031663189acdbd60e31b17905290516000926001600160a01b0316919062000ca99062001865565b62000cb692919062001b2a565b604051809103906000f08015801562000cd3573d6000803e3d6000fd5b50600680546001600160a01b0319166001600160a01b038316908117909155604051919250600080516020620022f58339815191529162000d15919062001c0f565b60405180910390a15050565b60010162000c0b565b7ff0c57e16840df040f15088dc2f81fe391c3923bec73e23a9662efc9c229c6a008054600160401b810460ff16159067ffffffffffffffff1660008115801562000d715750825b905060008267ffffffffffffffff16600114801562000d8f5750303b155b90508115801562000d9e575080155b1562000dbd5760405163f92ee8a960e01b815260040160405180910390fd5b845467ffffffffffffffff19166001178555831562000de857845460ff60401b1916600160401b1785555b62000df38b6200174e565b62000dfd62001763565b62000e0762001777565b600780546001600160a01b03199081166001600160a01b038d8116919091179092556008805482168c84161790556009805482168b8416179055600a805482168a8416179055600b8054909116918816919091179055831562000ea457845460ff60401b19168555604051600181527fc7f505b2f371ae2175ee4913f4499e1f2633a7b5936321eed1cdaeb6115181d29060200160405180910390a15b5050505050505050505050565b62000ebb62001627565b600082511162000f0e5760405162461bcd60e51b815260206004820152601e60248201527f4d7573742068617665206174206c65617374206f6e6520666f756e6465720000604482015260640162000395565b60005b825181101562000ff85760006001600160a01b031683828151811062000f3b5762000f3b62001b14565b60200260200101516001600160a01b03160362000f9b5760405162461bcd60e51b815260206004820152601760248201527f496e76616c696420666f756e6465722061646472657373000000000000000000604482015260640162000395565b600083828151811062000fb25762000fb262001b14565b60209081029190910181015182546001808201855560009485529290932090920180546001600160a01b0319166001600160a01b03909316929092179091550162000f11565b5060005b8151811015620010dc5760006001600160a01b031682828151811062001026576200102662001b14565b60200260200101516001600160a01b0316036200107f5760405162461bcd60e51b8152602060048201526016602482015275496e76616c6964206d656d626572206164647265737360501b604482015260640162000395565b600182828151811062001096576200109662001b14565b60209081029190910181015182546001808201855560009485529290932090920180546001600160a01b0319166001600160a01b03909316929092179091550162000ffc565b507f14bbcd93381ec042bd0247a11fa75d4fef24b31e785ca44971c6fc162c4f05af828260405162000d1592919062001c4e565b6200111a62000ae8565b6001600160a01b03163303620011f7576200113462001627565b600a54604080513360248083019190915282518083039091018152604490910182526020810180516001600160e01b031663189acdbd60e31b17905290516000926001600160a01b031691906200118b9062001865565b6200119892919062001b2a565b604051809103906000f080158015620011b5573d6000803e3d6000fd5b50600580546001600160a01b0319166001600160a01b038316908117909155604051919250600080516020620022f58339815191529162000bfd919062001c80565b60005b6000548110156200033a57600081815481106200121b576200121b62001b14565b6000918252602090912001546001600160a01b0316330362001304576200124162001627565b600a54604080513360248083019190915282518083039091018152604490910182526020810180516001600160e01b031663189acdbd60e31b17905290516000926001600160a01b03169190620012989062001865565b620012a592919062001b2a565b604051809103906000f080158015620012c2573d6000803e3d6000fd5b50600580546001600160a01b0319166001600160a01b038316908117909155604051919250600080516020620022f58339815191529162000d15919062001c80565b600101620011fa565b620013176200165a565b6001600160a01b0381166200134357604051631e4fbdf760e01b81526000600482015260240162000395565b6200032e8162001690565b6200135862000ae8565b6001600160a01b0316330362001474576200137262001627565b6002546001600160a01b0316156200139e5760405162461bcd60e51b8152600401620003959062001cb9565b6007546040516001600160a01b038381166024830152336044830152600092169063485cc95560e01b9060640160408051601f198184030181529181526020820180516001600160e01b03166001600160e01b03199094169390931790925290516200140a9062001865565b6200141792919062001b2a565b604051809103906000f08015801562001434573d6000803e3d6000fd5b50600280546001600160a01b0319166001600160a01b038316179055604051909150600080516020620022f58339815191529062000d1590839062001cff565b60005b6000548110156200033a576000818154811062001498576200149862001b14565b6000918252602090912001546001600160a01b03163303620015c057620014be62001627565b6002546001600160a01b031615620014ea5760405162461bcd60e51b8152600401620003959062001cb9565b6007546040516001600160a01b038481166024830152336044830152600092169063485cc95560e01b9060640160408051601f198184030181529181526020820180516001600160e01b03166001600160e01b0319909416939093179092529051620015569062001865565b6200156392919062001b2a565b604051809103906000f08015801562001580573d6000803e3d6000fd5b50600280546001600160a01b0319166001600160a01b038316179055604051909150600080516020620022f5833981519152906200068190839062001cff565b60010162001477565b620015d36200178b565b60008051602062002315833981519152805460ff191681557f5db9ee0a495bf2e6ff9c91a7834c1ba4fdd244a5e8aa4e537bd38aeae4b073aa335b6040516001600160a01b03909116815260200162000bfd565b600080516020620023158339815191525460ff1615620002e25760405163d93c066560e01b815260040160405180910390fd5b336200166562000ae8565b6001600160a01b031614620002e25760405163118cdaa760e01b815233600482015260240162000395565b7f9016d09d72d40fdae2fd8ceac6b6234c7706214fd39c1cd1e609a0528c19930080546001600160a01b031981166001600160a01b03848116918217845560405192169182907f8be0079c531659141344cd1fd0a4f28419497f9722a3daafe3b4186f6b6457e090600090a3505050565b6200170b62001627565b60008051602062002315833981519152805460ff191660011781557f62e78cea01bee320cd4e420270b5ea74000d11b0c9f74754ebdbfc544b05a258336200160e565b62001758620017bd565b6200032e8162001807565b6200176d620017bd565b620002e262001811565b62001781620017bd565b620002e262001841565b600080516020620023158339815191525460ff16620002e257604051638dfc202b60e01b815260040160405180910390fd5b7ff0c57e16840df040f15088dc2f81fe391c3923bec73e23a9662efc9c229c6a0054600160401b900460ff16620002e257604051631afcd79f60e31b815260040160405180910390fd5b62001317620017bd565b6200181b620017bd565b60017f9b779b17422d0df92223018b32b4d1fa46e071723d6817e2486d003becc55f0055565b6200184b620017bd565b60008051602062002315833981519152805460ff19169055565b6105bf8062001d3683390190565b80356001600160a01b03811681146200188b57600080fd5b919050565b600060208284031215620018a357600080fd5b620018ae8262001873565b9392505050565b60008151808452602080850194506020840160005b83811015620018f15781516001600160a01b031687529582019590820190600101620018ca565b509495945050505050565b60e0815260006200191160e083018a620018b5565b828103602084015262001925818a620018b5565b6001600160a01b03988916604085015296881660608401525050928516608084015290841660a083015290921660c09092019190915292915050565b60008060008060008060c087890312156200197b57600080fd5b620019868762001873565b9550620019966020880162001873565b9450620019a66040880162001873565b9350620019b66060880162001873565b9250620019c66080880162001873565b9150620019d660a0880162001873565b90509295509295509295565b634e487b7160e01b600052604160045260246000fd5b600082601f83011262001a0a57600080fd5b8135602067ffffffffffffffff8083111562001a2a5762001a2a620019e2565b8260051b604051601f19603f8301168101818110848211171562001a525762001a52620019e2565b604052938452602081870181019490810192508785111562001a7357600080fd5b6020870191505b8482101562001a9e5762001a8e8262001873565b8352918301919083019062001a7a565b979650505050505050565b6000806040838503121562001abd57600080fd5b823567ffffffffffffffff8082111562001ad657600080fd5b62001ae486838701620019f8565b9350602085013591508082111562001afb57600080fd5b5062001b0a85828601620019f8565b9150509250929050565b634e487b7160e01b600052603260045260246000fd5b60018060a01b03831681526000602060406020840152835180604085015260005b8181101562001b695785810183015185820160600152820162001b4b565b506000606082860101526060601f19601f830116850101925050509392505050565b6040808252600e908201526d159bdd1a5b99d0dbdb9d1c9858dd60921b60608201526001600160a01b0391909116602082015260800190565b602081526000620018ae6020830184620018b5565b6040808252600b908201526a109bd110dbdb9d1c9858dd60aa1b60608201526001600160a01b0391909116602082015260800190565b60408082526014908201527322bc3832b739b2a0b1b1b7bab73a22a4a81b989960611b60608201526001600160a01b0391909116602082015260800190565b60408152600062001c636040830185620018b5565b828103602084015262001c778185620018b5565b95945050505050565b6040808252600e908201526d115e1c195b9cd95058d8dbdd5b9d60921b60608201526001600160a01b0391909116602082015260800190565b60208082526026908201527f42616e6b206163636f756e7420636f6e747261637420616c72656164792064656040820152651c1b1bde595960d21b606082015260800190565b6040808252600b908201526a10985b9ad058d8dbdd5b9d60aa1b60608201526001600160a01b039190911660208201526080019056fe60a06040526040516105bf3803806105bf83398101604081905261002291610387565b61002c828261003e565b506001600160a01b031660805261047e565b610047826100fe565b6040516001600160a01b038316907f1cf3b03a6cf19fa2baba4df148e9dcabedea7f8a5c07840e207e5c089be95d3e90600090a28051156100f2576100ed826001600160a01b0316635c60da1b6040518163ffffffff1660e01b8152600401602060405180830381865afa1580156100c3573d6000803e3d6000fd5b505050506040513d601f19601f820116820180604052508101906100e79190610447565b82610211565b505050565b6100fa610288565b5050565b806001600160a01b03163b60000361013957604051631933b43b60e21b81526001600160a01b03821660048201526024015b60405180910390fd5b807fa3f0ad74e5423aebfd80d3ef4346578335a9a72aeaee59ff6cb3582b35133d5080546001600160a01b0319166001600160a01b0392831617905560408051635c60da1b60e01b81529051600092841691635c60da1b9160048083019260209291908290030181865afa1580156101b5573d6000803e3d6000fd5b505050506040513d601f19601f820116820180604052508101906101d99190610447565b9050806001600160a01b03163b6000036100fa57604051634c9c8ce360e01b81526001600160a01b0382166004820152602401610130565b6060600080846001600160a01b03168460405161022e9190610462565b600060405180830381855af49150503d8060008114610269576040519150601f19603f3d011682016040523d82523d6000602084013e61026e565b606091505b50909250905061027f8583836102a9565b95945050505050565b34156102a75760405163b398979f60e01b815260040160405180910390fd5b565b6060826102be576102b982610308565b610301565b81511580156102d557506001600160a01b0384163b155b156102fe57604051639996b31560e01b81526001600160a01b0385166004820152602401610130565b50805b9392505050565b8051156103185780518082602001fd5b604051630a12f52160e11b815260040160405180910390fd5b80516001600160a01b038116811461034857600080fd5b919050565b634e487b7160e01b600052604160045260246000fd5b60005b8381101561037e578181015183820152602001610366565b50506000910152565b6000806040838503121561039a57600080fd5b6103a383610331565b60208401519092506001600160401b03808211156103c057600080fd5b818501915085601f8301126103d457600080fd5b8151818111156103e6576103e661034d565b604051601f8201601f19908116603f0116810190838211818310171561040e5761040e61034d565b8160405282815288602084870101111561042757600080fd5b610438836020830160208801610363565b80955050505050509250929050565b60006020828403121561045957600080fd5b61030182610331565b60008251610474818460208701610363565b9190910192915050565b6080516101276104986000396000601e01526101276000f3fe6080604052600a600c565b005b60186014601a565b60a0565b565b60007f00000000000000000000000000000000000000000000000000000000000000006001600160a01b0316635c60da1b6040518163ffffffff1660e01b8152600401602060405180830381865afa1580156079573d6000803e3d6000fd5b505050506040513d601f19601f82011682018060405250810190609b919060c3565b905090565b3660008037600080366000845af43d6000803e80801560be573d6000f35b3d6000fd5b60006020828403121560d457600080fd5b81516001600160a01b038116811460ea57600080fd5b939250505056fea264697066735822122038063abf0acf0012aa106601a36fadbbf1a7604cc3cbd26cfa83a39a16756e2164736f6c634300081800334da8c8e82a6cdcd021dddec73a637b429d2b0a9b303638f1258ff8a35c3e5d86cd5ed15c6e187e77e9aee88184c21f4f2182ab5827cb3b7e07fbedcd63f03300a26469706673582212205c9b1001d7b1e9b45ee34c1b4c7bc7e29a6ebc17e86625651e7048a91691ad0364736f6c63430008180033",
  "linkReferences": {},
  "deployedLinkReferences": {}
}