{
  "_format": "hh-sol-artifact-1",
  "contractName": "Officer",
  "sourceName": "contracts/Officer.sol",
  "abi": [
    {
      "inputs": [],
      "name": "EnforcedPause",
      "type": "error"
    },
    {
      "inputs": [],
      "name": "ExpectedPause",
      "type": "error"
    },
    {
      "inputs": [],
      "name": "InvalidInitialization",
      "type": "error"
    },
    {
      "inputs": [],
      "name": "NotInitializing",
      "type": "error"
    },
    {
      "inputs": [
        {
          "internalType": "address",
          "name": "owner",
          "type": "address"
        }
      ],
      "name": "OwnableInvalidOwner",
      "type": "error"
    },
    {
      "inputs": [
        {
          "internalType": "address",
          "name": "account",
          "type": "address"
        }
      ],
      "name": "OwnableUnauthorizedAccount",
      "type": "error"
    },
    {
      "inputs": [],
      "name": "ReentrancyGuardReentrantCall",
      "type": "error"
    },
    {
      "anonymous": false,
      "inputs": [
        {
          "indexed": false,
          "internalType": "string",
          "name": "contractType",
          "type": "string"
        },
        {
          "indexed": false,
          "internalType": "address",
          "name": "contractAddress",
          "type": "address"
        }
      ],
      "name": "ContractDeployed",
      "type": "event"
    },
    {
      "anonymous": false,
      "inputs": [
        {
          "indexed": false,
          "internalType": "uint64",
          "name": "version",
          "type": "uint64"
        }
      ],
      "name": "Initialized",
      "type": "event"
    },
    {
      "anonymous": false,
      "inputs": [
        {
          "indexed": true,
          "internalType": "address",
          "name": "previousOwner",
          "type": "address"
        },
        {
          "indexed": true,
          "internalType": "address",
          "name": "newOwner",
          "type": "address"
        }
      ],
      "name": "OwnershipTransferred",
      "type": "event"
    },
    {
      "anonymous": false,
      "inputs": [
        {
          "indexed": false,
          "internalType": "address",
          "name": "account",
          "type": "address"
        }
      ],
      "name": "Paused",
      "type": "event"
    },
    {
      "anonymous": false,
      "inputs": [
        {
          "indexed": false,
          "internalType": "address[]",
          "name": "founders",
          "type": "address[]"
        },
        {
          "indexed": false,
          "internalType": "address[]",
          "name": "members",
          "type": "address[]"
        }
      ],
      "name": "TeamCreated",
      "type": "event"
    },
    {
      "anonymous": false,
      "inputs": [
        {
          "indexed": false,
          "internalType": "address",
          "name": "account",
          "type": "address"
        }
      ],
      "name": "Unpaused",
      "type": "event"
    },
    {
      "inputs": [],
      "name": "bankAccountBeacon",
      "outputs": [
        {
          "internalType": "address",
          "name": "",
          "type": "address"
        }
      ],
      "stateMutability": "view",
      "type": "function"
    },
    {
      "inputs": [],
      "name": "bodContractBeacon",
      "outputs": [
        {
          "internalType": "address",
          "name": "",
          "type": "address"
        }
      ],
      "stateMutability": "view",
      "type": "function"
    },
    {
      "inputs": [
        {
          "internalType": "address[]",
          "name": "_founders",
          "type": "address[]"
        },
        {
          "internalType": "address[]",
          "name": "_members",
          "type": "address[]"
        }
      ],
      "name": "createTeam",
      "outputs": [],
      "stateMutability": "nonpayable",
      "type": "function"
    },
    {
      "inputs": [
        {
          "internalType": "address",
          "name": "tipsAddress",
          "type": "address"
        }
      ],
      "name": "deployBankAccount",
      "outputs": [],
      "stateMutability": "nonpayable",
      "type": "function"
    },
    {
      "inputs": [],
      "name": "deployVotingContract",
      "outputs": [],
      "stateMutability": "nonpayable",
      "type": "function"
    },
    {
      "inputs": [],
      "name": "employeeContractBeacon",
      "outputs": [
        {
          "internalType": "address",
          "name": "",
          "type": "address"
        }
      ],
      "stateMutability": "view",
      "type": "function"
    },
    {
      "inputs": [],
      "name": "getTeam",
      "outputs": [
        {
          "internalType": "address[]",
          "name": "",
          "type": "address[]"
        },
        {
          "internalType": "address[]",
          "name": "",
          "type": "address[]"
        },
        {
          "internalType": "address",
          "name": "",
          "type": "address"
        },
        {
          "internalType": "address",
          "name": "",
          "type": "address"
        },
        {
          "internalType": "address",
          "name": "",
          "type": "address"
        }
      ],
      "stateMutability": "view",
      "type": "function"
    },
    {
      "inputs": [
        {
          "internalType": "address",
          "name": "_bankAccountBeacon",
          "type": "address"
        },
        {
          "internalType": "address",
          "name": "_votingContractBeacon",
          "type": "address"
        },
        {
          "internalType": "address",
          "name": "_bodContractBeacon",
          "type": "address"
        }
      ],
      "name": "initialize",
      "outputs": [],
      "stateMutability": "nonpayable",
      "type": "function"
    },
    {
      "inputs": [],
      "name": "owner",
      "outputs": [
        {
          "internalType": "address",
          "name": "",
          "type": "address"
        }
      ],
      "stateMutability": "view",
      "type": "function"
    },
    {
      "inputs": [],
      "name": "pause",
      "outputs": [],
      "stateMutability": "nonpayable",
      "type": "function"
    },
    {
      "inputs": [],
      "name": "paused",
      "outputs": [
        {
          "internalType": "bool",
          "name": "",
          "type": "bool"
        }
      ],
      "stateMutability": "view",
      "type": "function"
    },
    {
      "inputs": [],
      "name": "renounceOwnership",
      "outputs": [],
      "stateMutability": "nonpayable",
      "type": "function"
    },
    {
      "inputs": [
        {
          "internalType": "address",
          "name": "newOwner",
          "type": "address"
        }
      ],
      "name": "transferOwnership",
      "outputs": [],
      "stateMutability": "nonpayable",
      "type": "function"
    },
    {
      "inputs": [
        {
          "internalType": "address",
          "name": "newOwner",
          "type": "address"
        }
      ],
      "name": "transferOwnershipToBOD",
      "outputs": [],
      "stateMutability": "nonpayable",
      "type": "function"
    },
    {
      "inputs": [],
      "name": "unpause",
      "outputs": [],
      "stateMutability": "nonpayable",
      "type": "function"
    },
    {
      "inputs": [],
      "name": "votingContractBeacon",
      "outputs": [
        {
          "internalType": "address",
          "name": "",
          "type": "address"
        }
      ],
      "stateMutability": "view",
      "type": "function"
    }
  ],
  "bytecode": "0x608060405234801561001057600080fd5b50611e2a806100206000396000f3fe60806040523480156200001157600080fd5b5060043610620001155760003560e01c80638da5cb5b11620000a3578063d2d7b54a116200006e578063d2d7b54a1462000217578063ec12649a146200022e578063f2fde38b1462000242578063f37606b5146200025957600080fd5b80638da5cb5b14620001ce578063abbb972014620001d8578063bc11665f14620001ec578063c0c53b8b146200020057600080fd5b8063658e515511620000e4578063658e51551462000193578063715018a6146200019d5780638456cb5914620001a75780638bce6edd14620001b157600080fd5b80630346a03c146200011a5780633f4ba83a146200014b5780635c975abb14620001575780636324bef2146200017c575b600080fd5b6007546200012e906001600160a01b031681565b6040516001600160a01b0390911681526020015b60405180910390f35b6200015562000270565b005b60008051602062001dd58339815191525460ff16604051901515815260200162000142565b620001556200018d36600462001410565b62000350565b62000155620003b1565b62000155620008ff565b6200015562000915565b620001bb6200098c565b604051620001429594939291906200147c565b6200012e62000a84565b6008546200012e906001600160a01b031681565b6006546200012e906001600160a01b031681565b6200015562000211366004620014d0565b62000ab2565b6200015562000228366004620015e1565b62000c1d565b6005546200012e906001600160a01b031681565b620001556200025336600462001410565b62000e88565b620001556200026a36600462001410565b62000ec9565b6200027a62000a84565b6001600160a01b0316330362000296576200029462001144565b565b60005b600054811015620002ec5760008181548110620002ba57620002ba6200164c565b6000918252602090912001546001600160a01b03163303620002e357620002e062001144565b50565b60010162000299565b5060405162461bcd60e51b815260206004820152602d60248201527f596f7520617265206e6f7420617574686f72697a656420746f20706572666f7260448201526c36903a3434b99030b1ba34b7b760991b60648201526084015b60405180910390fd5b6200035a620011a7565b620003658162000e88565b806001600160a01b03166200037962000a84565b6001600160a01b03167f8be0079c531659141344cd1fd0a4f28419497f9722a3daafe3b4186f6b6457e060405160405180910390a350565b620003bb62000a84565b6001600160a01b031633036200064057620003d5620011a7565b600754604080513360248083019190915282518083039091018152604490910182526020810180516001600160e01b031663189acdbd60e31b17905290516000926001600160a01b031691906200042c90620013e5565b6200043992919062001662565b604051809103906000f08015801562000456573d6000803e3d6000fd5b50600380546001600160a01b0319166001600160a01b03831690811790915560405191925060008051602062001db583398151915291620004989190620016c3565b60405180910390a160408051600180825281830190925260009160208083019080368337505060035482519293506001600160a01b031691839150600090620004e557620004e56200164c565b6001600160a01b039283166020918202929092010152600854604051600092919091169063a224cee760e01b9062000522908590602401620016fc565b60408051601f198184030181529181526020820180516001600160e01b03166001600160e01b03199094169390931790925290516200056190620013e5565b6200056e92919062001662565b604051809103906000f0801580156200058b573d6000803e3d6000fd5b50600480546001600160a01b0319166001600160a01b03838116918217835560035460405163ec17219360e01b8152938401929092529293509091169063ec17219390602401600060405180830381600087803b158015620005ec57600080fd5b505af115801562000601573d6000803e3d6000fd5b505060045460405160008051602062001db583398151915293506200063392506001600160a01b039091169062001711565b60405180910390a1505050565b60005b600054811015620002ec57600081815481106200066457620006646200164c565b6000918252602090912001546001600160a01b03163303620008f6576200068a620011a7565b600754604080513360248083019190915282518083039091018152604490910182526020810180516001600160e01b031663189acdbd60e31b17905290516000926001600160a01b03169190620006e190620013e5565b620006ee92919062001662565b604051809103906000f0801580156200070b573d6000803e3d6000fd5b50600380546001600160a01b0319166001600160a01b03831690811790915560405191925060008051602062001db5833981519152916200074d9190620016c3565b60405180910390a160408051600180825281830190925260009160208083019080368337505060035482519293506001600160a01b0316918391506000906200079a576200079a6200164c565b6001600160a01b039283166020918202929092010152600854604051600092919091169063a224cee760e01b90620007d7908590602401620016fc565b60408051601f198184030181529181526020820180516001600160e01b03166001600160e01b03199094169390931790925290516200081690620013e5565b6200082392919062001662565b604051809103906000f08015801562000840573d6000803e3d6000fd5b50600480546001600160a01b0319166001600160a01b03838116918217835560035460405163ec17219360e01b8152938401929092529293509091169063ec17219390602401600060405180830381600087803b158015620008a157600080fd5b505af1158015620008b6573d6000803e3d6000fd5b505060045460405160008051602062001db58339815191529350620008e892506001600160a01b039091169062001711565b60405180910390a150505050565b60010162000643565b62000909620011da565b62000294600062001210565b6200091f62000a84565b6001600160a01b0316330362000939576200029462001281565b60005b600054811015620002ec57600081815481106200095d576200095d6200164c565b6000918252602090912001546001600160a01b031633036200098357620002e062001281565b6001016200093c565b6002546003546004546000805460408051602080840282018101909252828152606096879694958695869586956001956001600160a01b0395861695938416949093169291879183018282801562000a0e57602002820191906000526020600020905b81546001600160a01b03168152600190910190602001808311620009ef575b505050505094508380548060200260200160405190810160405280929190818152602001828054801562000a6c57602002820191906000526020600020905b81546001600160a01b0316815260019091019060200180831162000a4d575b50505050509350945094509450945094509091929394565b7f9016d09d72d40fdae2fd8ceac6b6234c7706214fd39c1cd1e609a0528c199300546001600160a01b031690565b7ff0c57e16840df040f15088dc2f81fe391c3923bec73e23a9662efc9c229c6a008054600160401b810460ff16159067ffffffffffffffff1660008115801562000af95750825b905060008267ffffffffffffffff16600114801562000b175750303b155b90508115801562000b26575080155b1562000b455760405163f92ee8a960e01b815260040160405180910390fd5b845467ffffffffffffffff19166001178555831562000b7057845460ff60401b1916600160401b1785555b62000b7b33620012ce565b62000b85620012e3565b62000b8f620012f7565b600580546001600160a01b03808b166001600160a01b031992831617909255600780548a84169083161790556008805492891692909116919091179055831562000c1357845460ff60401b19168555604051600181527fc7f505b2f371ae2175ee4913f4499e1f2633a7b5936321eed1cdaeb6115181d29060200160405180910390a15b5050505050505050565b62000c27620011a7565b600082511162000c7a5760405162461bcd60e51b815260206004820152601e60248201527f4d7573742068617665206174206c65617374206f6e6520666f756e6465720000604482015260640162000347565b60005b825181101562000d645760006001600160a01b031683828151811062000ca75762000ca76200164c565b60200260200101516001600160a01b03160362000d075760405162461bcd60e51b815260206004820152601760248201527f496e76616c696420666f756e6465722061646472657373000000000000000000604482015260640162000347565b600083828151811062000d1e5762000d1e6200164c565b60209081029190910181015182546001808201855560009485529290932090920180546001600160a01b0319166001600160a01b03909316929092179091550162000c7d565b5060005b815181101562000e485760006001600160a01b031682828151811062000d925762000d926200164c565b60200260200101516001600160a01b03160362000deb5760405162461bcd60e51b8152602060048201526016602482015275496e76616c6964206d656d626572206164647265737360501b604482015260640162000347565b600182828151811062000e025762000e026200164c565b60209081029190910181015182546001808201855560009485529290932090920180546001600160a01b0319166001600160a01b03909316929092179091550162000d68565b507f14bbcd93381ec042bd0247a11fa75d4fef24b31e785ca44971c6fc162c4f05af828260405162000e7c92919062001747565b60405180910390a15050565b62000e92620011da565b6001600160a01b03811662000ebe57604051631e4fbdf760e01b81526000600482015260240162000347565b620002e08162001210565b62000ed362000a84565b6001600160a01b0316330362000fef5762000eed620011a7565b6002546001600160a01b03161562000f195760405162461bcd60e51b8152600401620003479062001779565b6005546040516001600160a01b038381166024830152336044830152600092169063485cc95560e01b9060640160408051601f198184030181529181526020820180516001600160e01b03166001600160e01b031990941693909317909252905162000f8590620013e5565b62000f9292919062001662565b604051809103906000f08015801562000faf573d6000803e3d6000fd5b50600280546001600160a01b0319166001600160a01b03831617905560405190915060008051602062001db58339815191529062000e7c908390620017bf565b60005b600054811015620002ec57600081815481106200101357620010136200164c565b6000918252602090912001546001600160a01b031633036200113b5762001039620011a7565b6002546001600160a01b031615620010655760405162461bcd60e51b8152600401620003479062001779565b6005546040516001600160a01b038481166024830152336044830152600092169063485cc95560e01b9060640160408051601f198184030181529181526020820180516001600160e01b03166001600160e01b0319909416939093179092529051620010d190620013e5565b620010de92919062001662565b604051809103906000f080158015620010fb573d6000803e3d6000fd5b50600280546001600160a01b0319166001600160a01b03831617905560405190915060008051602062001db58339815191529062000633908390620017bf565b60010162000ff2565b6200114e6200130b565b60008051602062001dd5833981519152805460ff191681557f5db9ee0a495bf2e6ff9c91a7834c1ba4fdd244a5e8aa4e537bd38aeae4b073aa335b6040516001600160a01b03909116815260200160405180910390a150565b60008051602062001dd58339815191525460ff1615620002945760405163d93c066560e01b815260040160405180910390fd5b33620011e562000a84565b6001600160a01b031614620002945760405163118cdaa760e01b815233600482015260240162000347565b7f9016d09d72d40fdae2fd8ceac6b6234c7706214fd39c1cd1e609a0528c19930080546001600160a01b031981166001600160a01b03848116918217845560405192169182907f8be0079c531659141344cd1fd0a4f28419497f9722a3daafe3b4186f6b6457e090600090a3505050565b6200128b620011a7565b60008051602062001dd5833981519152805460ff191660011781557f62e78cea01bee320cd4e420270b5ea74000d11b0c9f74754ebdbfc544b05a2583362001189565b620012d86200133d565b620002e08162001387565b620012ed6200133d565b6200029462001391565b620013016200133d565b62000294620013c1565b60008051602062001dd58339815191525460ff166200029457604051638dfc202b60e01b815260040160405180910390fd5b7ff0c57e16840df040f15088dc2f81fe391c3923bec73e23a9662efc9c229c6a0054600160401b900460ff166200029457604051631afcd79f60e31b815260040160405180910390fd5b62000e926200133d565b6200139b6200133d565b60017f9b779b17422d0df92223018b32b4d1fa46e071723d6817e2486d003becc55f0055565b620013cb6200133d565b60008051602062001dd5833981519152805460ff19169055565b6105bf80620017f683390190565b80356001600160a01b03811681146200140b57600080fd5b919050565b6000602082840312156200142357600080fd5b6200142e82620013f3565b9392505050565b60008151808452602080850194506020840160005b83811015620014715781516001600160a01b0316875295820195908201906001016200144a565b509495945050505050565b60a0815260006200149160a083018862001435565b8281036020840152620014a5818862001435565b6001600160a01b03968716604085015294861660608401525050921660809092019190915292915050565b600080600060608486031215620014e657600080fd5b620014f184620013f3565b92506200150160208501620013f3565b91506200151160408501620013f3565b90509250925092565b634e487b7160e01b600052604160045260246000fd5b600082601f8301126200154257600080fd5b8135602067ffffffffffffffff808311156200156257620015626200151a565b8260051b604051601f19603f830116810181811084821117156200158a576200158a6200151a565b6040529384526020818701810194908101925087851115620015ab57600080fd5b6020870191505b84821015620015d657620015c682620013f3565b83529183019190830190620015b2565b979650505050505050565b60008060408385031215620015f557600080fd5b823567ffffffffffffffff808211156200160e57600080fd5b6200161c8683870162001530565b935060208501359150808211156200163357600080fd5b50620016428582860162001530565b9150509250929050565b634e487b7160e01b600052603260045260246000fd5b60018060a01b03831681526000602060406020840152835180604085015260005b81811015620016a15785810183015185820160600152820162001683565b506000606082860101526060601f19601f830116850101925050509392505050565b6040808252600e908201526d159bdd1a5b99d0dbdb9d1c9858dd60921b60608201526001600160a01b0391909116602082015260800190565b6020815260006200142e602083018462001435565b6040808252600b908201526a109bd110dbdb9d1c9858dd60aa1b60608201526001600160a01b0391909116602082015260800190565b6040815260006200175c604083018562001435565b828103602084015262001770818562001435565b95945050505050565b60208082526026908201527f42616e6b206163636f756e7420636f6e747261637420616c72656164792064656040820152651c1b1bde595960d21b606082015260800190565b6040808252600b908201526a10985b9ad058d8dbdd5b9d60aa1b60608201526001600160a01b039190911660208201526080019056fe60a06040526040516105bf3803806105bf83398101604081905261002291610387565b61002c828261003e565b506001600160a01b031660805261047e565b610047826100fe565b6040516001600160a01b038316907f1cf3b03a6cf19fa2baba4df148e9dcabedea7f8a5c07840e207e5c089be95d3e90600090a28051156100f2576100ed826001600160a01b0316635c60da1b6040518163ffffffff1660e01b8152600401602060405180830381865afa1580156100c3573d6000803e3d6000fd5b505050506040513d601f19601f820116820180604052508101906100e79190610447565b82610211565b505050565b6100fa610288565b5050565b806001600160a01b03163b60000361013957604051631933b43b60e21b81526001600160a01b03821660048201526024015b60405180910390fd5b807fa3f0ad74e5423aebfd80d3ef4346578335a9a72aeaee59ff6cb3582b35133d5080546001600160a01b0319166001600160a01b0392831617905560408051635c60da1b60e01b81529051600092841691635c60da1b9160048083019260209291908290030181865afa1580156101b5573d6000803e3d6000fd5b505050506040513d601f19601f820116820180604052508101906101d99190610447565b9050806001600160a01b03163b6000036100fa57604051634c9c8ce360e01b81526001600160a01b0382166004820152602401610130565b6060600080846001600160a01b03168460405161022e9190610462565b600060405180830381855af49150503d8060008114610269576040519150601f19603f3d011682016040523d82523d6000602084013e61026e565b606091505b50909250905061027f8583836102a9565b95945050505050565b34156102a75760405163b398979f60e01b815260040160405180910390fd5b565b6060826102be576102b982610308565b610301565b81511580156102d557506001600160a01b0384163b155b156102fe57604051639996b31560e01b81526001600160a01b0385166004820152602401610130565b50805b9392505050565b8051156103185780518082602001fd5b604051630a12f52160e11b815260040160405180910390fd5b80516001600160a01b038116811461034857600080fd5b919050565b634e487b7160e01b600052604160045260246000fd5b60005b8381101561037e578181015183820152602001610366565b50506000910152565b6000806040838503121561039a57600080fd5b6103a383610331565b60208401519092506001600160401b03808211156103c057600080fd5b818501915085601f8301126103d457600080fd5b8151818111156103e6576103e661034d565b604051601f8201601f19908116603f0116810190838211818310171561040e5761040e61034d565b8160405282815288602084870101111561042757600080fd5b610438836020830160208801610363565b80955050505050509250929050565b60006020828403121561045957600080fd5b61030182610331565b60008251610474818460208701610363565b9190910192915050565b6080516101276104986000396000601e01526101276000f3fe6080604052600a600c565b005b60186014601a565b60a0565b565b60007f00000000000000000000000000000000000000000000000000000000000000006001600160a01b0316635c60da1b6040518163ffffffff1660e01b8152600401602060405180830381865afa1580156079573d6000803e3d6000fd5b505050506040513d601f19601f82011682018060405250810190609b919060c3565b905090565b3660008037600080366000845af43d6000803e80801560be573d6000f35b3d6000fd5b60006020828403121560d457600080fd5b81516001600160a01b038116811460ea57600080fd5b939250505056fea264697066735822122038063abf0acf0012aa106601a36fadbbf1a7604cc3cbd26cfa83a39a16756e2164736f6c634300081800334da8c8e82a6cdcd021dddec73a637b429d2b0a9b303638f1258ff8a35c3e5d86cd5ed15c6e187e77e9aee88184c21f4f2182ab5827cb3b7e07fbedcd63f03300a264697066735822122018e260b6fdad5d5de03348d7d4162a498ed398f42bd9a873f5fe067064ae5af364736f6c63430008180033",
  "linkReferences": {},
  "deployedLinkReferences": {}
}