{
  "_format": "hh-sol-artifact-1",
  "contractName": "Tips",
  "sourceName": "contracts/Tips.sol",
  "abi": [
    {
      "anonymous": false,
      "inputs": [
        {
          "indexed": false,
          "internalType": "address",
          "name": "from",
          "type": "address"
        },
        {
          "indexed": false,
          "internalType": "address[]",
          "name": "teamMembers",
          "type": "address[]"
        },
        {
          "indexed": false,
          "internalType": "uint256",
          "name": "totalAmount",
          "type": "uint256"
        },
        {
          "indexed": false,
          "internalType": "uint256",
          "name": "amountPerAddress",
          "type": "uint256"
        }
      ],
      "name": "PushTip",
      "type": "event"
    },
    {
      "anonymous": false,
      "inputs": [
        {
          "indexed": false,
          "internalType": "address",
          "name": "from",
          "type": "address"
        },
        {
          "indexed": false,
          "internalType": "address[]",
          "name": "teamMembers",
          "type": "address[]"
        },
        {
          "indexed": false,
          "internalType": "uint256",
          "name": "totalAmount",
          "type": "uint256"
        },
        {
          "indexed": false,
          "internalType": "uint256",
          "name": "amountPerAddress",
          "type": "uint256"
        }
      ],
      "name": "SendTip",
      "type": "event"
    },
    {
      "anonymous": false,
      "inputs": [
        {
          "indexed": false,
          "internalType": "address",
          "name": "to",
          "type": "address"
        },
        {
          "indexed": false,
          "internalType": "uint256",
          "name": "amount",
          "type": "uint256"
        }
      ],
      "name": "TipWithdrawal",
      "type": "event"
    },
    {
      "inputs": [
        {
          "internalType": "address",
          "name": "_address",
          "type": "address"
        }
      ],
      "name": "getBalance",
      "outputs": [
        {
          "internalType": "uint256",
          "name": "",
          "type": "uint256"
        }
      ],
      "stateMutability": "view",
      "type": "function"
    },
    {
      "inputs": [
        {
          "internalType": "address[]",
          "name": "_teamMembersAddresses",
          "type": "address[]"
        }
      ],
      "name": "pushTip",
      "outputs": [],
      "stateMutability": "payable",
      "type": "function"
    },
    {
      "inputs": [
        {
          "internalType": "address[]",
          "name": "_teamMembersAddresses",
          "type": "address[]"
        }
      ],
      "name": "sendTip",
      "outputs": [],
      "stateMutability": "payable",
      "type": "function"
    },
    {
      "inputs": [],
      "name": "withdraw",
      "outputs": [],
      "stateMutability": "payable",
      "type": "function"
    }
  ],
  "bytecode": "0x608060405234801561001057600080fd5b50610b8b806100206000396000f3fe60806040526004361061003f5760003560e01c80633ccfd60b146100445780635afa31cb1461004e578063b7da40021461006a578063f8b2cb4f14610086575b600080fd5b61004c6100c3565b005b610068600480360381019061006391906106b6565b610243565b005b610084600480360381019061007f91906106b6565b610385565b005b34801561009257600080fd5b506100ad60048036038101906100a891906106ff565b6104a3565b6040516100ba9190610745565b60405180910390f35b60008060003373ffffffffffffffffffffffffffffffffffffffff1673ffffffffffffffffffffffffffffffffffffffff16815260200190815260200160002054905060008111610149576040517f08c379a0000000000000000000000000000000000000000000000000000000008152600401610140906107bd565b60405180910390fd5b60003373ffffffffffffffffffffffffffffffffffffffff166108fc839081150290604051600060405180830381858888f193505050509050806101c2576040517f08c379a00000000000000000000000000000000000000000000000000000000081526004016101b990610829565b60405180910390fd5b60008060003373ffffffffffffffffffffffffffffffffffffffff1673ffffffffffffffffffffffffffffffffffffffff168152602001908152602001600020819055507fa461edd651ade6de5f7ed6f480ce21bf39835bd38c7af46b1061d4eeda6ffb1c3383604051610237929190610858565b60405180910390a15050565b60003411610286576040517f08c379a000000000000000000000000000000000000000000000000000000000815260040161027d906108cd565b60405180910390fd5b6000815134610295919061094b565b905060005b82518110156103445760008382815181106102b8576102b761097c565b5b602002602001015173ffffffffffffffffffffffffffffffffffffffff166108fc849081150290604051600060405180830381858888f19350505050905080610336576040517f08c379a000000000000000000000000000000000000000000000000000000000815260040161032d906109f7565b60405180910390fd5b50808060010191505061029a565b507edaae18e5f308b4349acd79a108c6c728c8cba8ea59ad6fc30fc841c2395c42338334846040516103799493929190610ad5565b60405180910390a15050565b600034116103c8576040517f08c379a00000000000000000000000000000000000000000000000000000000081526004016103bf906108cd565b60405180910390fd5b60008151346103d7919061094b565b905060005b825181101561046157816000808584815181106103fc576103fb61097c565b5b602002602001015173ffffffffffffffffffffffffffffffffffffffff1673ffffffffffffffffffffffffffffffffffffffff168152602001908152602001600020600082825461044d9190610b21565b9250508190555080806001019150506103dc565b507f732fa408ec23a6c91630ffc7331283a2d3d3af9758d4829b62014c5cda48107b338334846040516104979493929190610ad5565b60405180910390a15050565b60008060008373ffffffffffffffffffffffffffffffffffffffff1673ffffffffffffffffffffffffffffffffffffffff168152602001908152602001600020549050919050565b6000604051905090565b600080fd5b600080fd5b600080fd5b6000601f19601f8301169050919050565b7f4e487b7100000000000000000000000000000000000000000000000000000000600052604160045260246000fd5b61054d82610504565b810181811067ffffffffffffffff8211171561056c5761056b610515565b5b80604052505050565b600061057f6104eb565b905061058b8282610544565b919050565b600067ffffffffffffffff8211156105ab576105aa610515565b5b602082029050602081019050919050565b600080fd5b600073ffffffffffffffffffffffffffffffffffffffff82169050919050565b60006105ec826105c1565b9050919050565b6105fc816105e1565b811461060757600080fd5b50565b600081359050610619816105f3565b92915050565b600061063261062d84610590565b610575565b90508083825260208201905060208402830185811115610655576106546105bc565b5b835b8181101561067e578061066a888261060a565b845260208401935050602081019050610657565b5050509392505050565b600082601f83011261069d5761069c6104ff565b5b81356106ad84826020860161061f565b91505092915050565b6000602082840312156106cc576106cb6104f5565b5b600082013567ffffffffffffffff8111156106ea576106e96104fa565b5b6106f684828501610688565b91505092915050565b600060208284031215610715576107146104f5565b5b60006107238482850161060a565b91505092915050565b6000819050919050565b61073f8161072c565b82525050565b600060208201905061075a6000830184610736565b92915050565b600082825260208201905092915050565b7f4e6f207469707320746f2077697468647261772e000000000000000000000000600082015250565b60006107a7601483610760565b91506107b282610771565b602082019050919050565b600060208201905081810360008301526107d68161079a565b9050919050565b7f4661696c656420746f20776974686472617720746970732e0000000000000000600082015250565b6000610813601883610760565b915061081e826107dd565b602082019050919050565b6000602082019050818103600083015261084281610806565b9050919050565b610852816105e1565b82525050565b600060408201905061086d6000830185610849565b61087a6020830184610736565b9392505050565b7f4d7573742073656e64206120706f73697469766520616d6f756e742e00000000600082015250565b60006108b7601c83610760565b91506108c282610881565b602082019050919050565b600060208201905081810360008301526108e6816108aa565b9050919050565b7f4e487b7100000000000000000000000000000000000000000000000000000000600052601260045260246000fd5b7f4e487b7100000000000000000000000000000000000000000000000000000000600052601160045260246000fd5b60006109568261072c565b91506109618361072c565b925082610971576109706108ed565b5b828204905092915050565b7f4e487b7100000000000000000000000000000000000000000000000000000000600052603260045260246000fd5b7f4661696c656420746f2073656e64207469702e00000000000000000000000000600082015250565b60006109e1601383610760565b91506109ec826109ab565b602082019050919050565b60006020820190508181036000830152610a10816109d4565b9050919050565b600081519050919050565b600082825260208201905092915050565b6000819050602082019050919050565b610a4c816105e1565b82525050565b6000610a5e8383610a43565b60208301905092915050565b6000602082019050919050565b6000610a8282610a17565b610a8c8185610a22565b9350610a9783610a33565b8060005b83811015610ac8578151610aaf8882610a52565b9750610aba83610a6a565b925050600181019050610a9b565b5085935050505092915050565b6000608082019050610aea6000830187610849565b8181036020830152610afc8186610a77565b9050610b0b6040830185610736565b610b186060830184610736565b95945050505050565b6000610b2c8261072c565b9150610b378361072c565b9250828201905080821115610b4f57610b4e61091c565b5b9291505056fea264697066735822122036c335fecede963f8139e5fd931b6c0c5a1a60bf08be1eb0f36b5dd951082f4464736f6c63430008180033",
  "linkReferences": {},
  "deployedLinkReferences": {}
}