{
  "_format": "hh-sol-artifact-1",
  "contractName": "Voting",
  "sourceName": "contracts/Voting/Voting.sol",
  "abi": [
    {
      "inputs": [],
      "name": "EnforcedPause",
      "type": "error"
    },
    {
      "inputs": [],
      "name": "ExpectedPause",
      "type": "error"
    },
    {
      "inputs": [],
      "name": "InvalidInitialization",
      "type": "error"
    },
    {
      "inputs": [],
      "name": "NotInitializing",
      "type": "error"
    },
    {
      "inputs": [
        {
          "internalType": "address",
          "name": "owner",
          "type": "address"
        }
      ],
      "name": "OwnableInvalidOwner",
      "type": "error"
    },
    {
      "inputs": [
        {
          "internalType": "address",
          "name": "account",
          "type": "address"
        }
      ],
      "name": "OwnableUnauthorizedAccount",
      "type": "error"
    },
    {
      "inputs": [],
      "name": "ReentrancyGuardReentrantCall",
      "type": "error"
    },
    {
      "anonymous": false,
      "inputs": [
        {
          "indexed": true,
          "internalType": "address",
          "name": "voter",
          "type": "address"
        },
        {
          "indexed": true,
          "internalType": "uint256",
          "name": "proposalId",
          "type": "uint256"
        },
        {
          "indexed": false,
          "internalType": "uint256",
          "name": "vote",
          "type": "uint256"
        }
      ],
      "name": "DirectiveVoted",
      "type": "event"
    },
    {
      "anonymous": false,
      "inputs": [
        {
          "indexed": true,
          "internalType": "address",
          "name": "voter",
          "type": "address"
        },
        {
          "indexed": true,
          "internalType": "uint256",
          "name": "proposalId",
          "type": "uint256"
        },
        {
          "indexed": true,
          "internalType": "address",
          "name": "candidateAddress",
          "type": "address"
        }
      ],
      "name": "ElectionVoted",
      "type": "event"
    },
    {
      "anonymous": false,
      "inputs": [
        {
          "indexed": false,
          "internalType": "uint64",
          "name": "version",
          "type": "uint64"
        }
      ],
      "name": "Initialized",
      "type": "event"
    },
    {
      "anonymous": false,
      "inputs": [
        {
          "indexed": true,
          "internalType": "address",
          "name": "previousOwner",
          "type": "address"
        },
        {
          "indexed": true,
          "internalType": "address",
          "name": "newOwner",
          "type": "address"
        }
      ],
      "name": "OwnershipTransferred",
      "type": "event"
    },
    {
      "anonymous": false,
      "inputs": [
        {
          "indexed": false,
          "internalType": "address",
          "name": "account",
          "type": "address"
        }
      ],
      "name": "Paused",
      "type": "event"
    },
    {
      "anonymous": false,
      "inputs": [
        {
          "indexed": true,
          "internalType": "uint256",
          "name": "proposalId",
          "type": "uint256"
        },
        {
          "indexed": false,
          "internalType": "string",
          "name": "title",
          "type": "string"
        },
        {
          "indexed": false,
          "internalType": "string",
          "name": "description",
          "type": "string"
        }
      ],
      "name": "ProposalAdded",
      "type": "event"
    },
    {
      "anonymous": false,
      "inputs": [
        {
          "indexed": true,
          "internalType": "uint256",
          "name": "proposalId",
          "type": "uint256"
        },
        {
          "indexed": false,
          "internalType": "bool",
          "name": "isActive",
          "type": "bool"
        }
      ],
      "name": "ProposalConcluded",
      "type": "event"
    },
    {
      "anonymous": false,
      "inputs": [
        {
          "indexed": false,
          "internalType": "address",
          "name": "account",
          "type": "address"
        }
      ],
      "name": "Unpaused",
      "type": "event"
    },
    {
      "inputs": [
        {
          "components": [
            {
              "internalType": "uint256",
              "name": "id",
              "type": "uint256"
            },
            {
              "internalType": "string",
              "name": "title",
              "type": "string"
            },
            {
              "internalType": "string",
              "name": "description",
              "type": "string"
            },
            {
              "internalType": "string",
              "name": "draftedBy",
              "type": "string"
            },
            {
              "internalType": "bool",
              "name": "isElection",
              "type": "bool"
            },
            {
              "internalType": "bool",
              "name": "isActive",
              "type": "bool"
            },
            {
              "internalType": "uint256",
              "name": "teamId",
              "type": "uint256"
            },
            {
              "components": [
                {
                  "internalType": "uint256",
                  "name": "yes",
                  "type": "uint256"
                },
                {
                  "internalType": "uint256",
                  "name": "no",
                  "type": "uint256"
                },
                {
                  "internalType": "uint256",
                  "name": "abstain",
                  "type": "uint256"
                }
              ],
              "internalType": "struct Types.DirectiveVotes",
              "name": "votes",
              "type": "tuple"
            },
            {
              "components": [
                {
                  "internalType": "string",
                  "name": "name",
                  "type": "string"
                },
                {
                  "internalType": "address",
                  "name": "candidateAddress",
                  "type": "address"
                },
                {
                  "internalType": "uint256",
                  "name": "votes",
                  "type": "uint256"
                }
              ],
              "internalType": "struct Types.Candidate[]",
              "name": "candidates",
              "type": "tuple[]"
            },
            {
              "components": [
                {
                  "internalType": "string",
                  "name": "name",
                  "type": "string"
                },
                {
                  "internalType": "bool",
                  "name": "isEligible",
                  "type": "bool"
                },
                {
                  "internalType": "bool",
                  "name": "isVoted",
                  "type": "bool"
                },
                {
                  "internalType": "address",
                  "name": "memberAddress",
                  "type": "address"
                }
              ],
              "internalType": "struct Types.Member[]",
              "name": "voters",
              "type": "tuple[]"
            }
          ],
          "internalType": "struct Types.Proposal",
          "name": "_proposal",
          "type": "tuple"
        }
      ],
      "name": "addProposal",
      "outputs": [],
      "stateMutability": "nonpayable",
      "type": "function"
    },
    {
      "inputs": [],
      "name": "boardOfDirectorsContractAddress",
      "outputs": [
        {
          "internalType": "address",
          "name": "",
          "type": "address"
        }
      ],
      "stateMutability": "view",
      "type": "function"
    },
    {
      "inputs": [
        {
          "internalType": "uint256",
          "name": "proposalId",
          "type": "uint256"
        }
      ],
      "name": "concludeProposal",
      "outputs": [],
      "stateMutability": "nonpayable",
      "type": "function"
    },
    {
      "inputs": [
        {
          "internalType": "uint256",
          "name": "proposalId",
          "type": "uint256"
        }
      ],
      "name": "getProposalById",
      "outputs": [
        {
          "components": [
            {
              "internalType": "uint256",
              "name": "id",
              "type": "uint256"
            },
            {
              "internalType": "string",
              "name": "title",
              "type": "string"
            },
            {
              "internalType": "string",
              "name": "description",
              "type": "string"
            },
            {
              "internalType": "string",
              "name": "draftedBy",
              "type": "string"
            },
            {
              "internalType": "bool",
              "name": "isElection",
              "type": "bool"
            },
            {
              "internalType": "bool",
              "name": "isActive",
              "type": "bool"
            },
            {
              "internalType": "uint256",
              "name": "teamId",
              "type": "uint256"
            },
            {
              "components": [
                {
                  "internalType": "uint256",
                  "name": "yes",
                  "type": "uint256"
                },
                {
                  "internalType": "uint256",
                  "name": "no",
                  "type": "uint256"
                },
                {
                  "internalType": "uint256",
                  "name": "abstain",
                  "type": "uint256"
                }
              ],
              "internalType": "struct Types.DirectiveVotes",
              "name": "votes",
              "type": "tuple"
            },
            {
              "components": [
                {
                  "internalType": "string",
                  "name": "name",
                  "type": "string"
                },
                {
                  "internalType": "address",
                  "name": "candidateAddress",
                  "type": "address"
                },
                {
                  "internalType": "uint256",
                  "name": "votes",
                  "type": "uint256"
                }
              ],
              "internalType": "struct Types.Candidate[]",
              "name": "candidates",
              "type": "tuple[]"
            },
            {
              "components": [
                {
                  "internalType": "string",
                  "name": "name",
                  "type": "string"
                },
                {
                  "internalType": "bool",
                  "name": "isEligible",
                  "type": "bool"
                },
                {
                  "internalType": "bool",
                  "name": "isVoted",
                  "type": "bool"
                },
                {
                  "internalType": "address",
                  "name": "memberAddress",
                  "type": "address"
                }
              ],
              "internalType": "struct Types.Member[]",
              "name": "voters",
              "type": "tuple[]"
            }
          ],
          "internalType": "struct Types.Proposal",
          "name": "",
          "type": "tuple"
        }
      ],
      "stateMutability": "view",
      "type": "function"
    },
    {
      "inputs": [],
      "name": "initialize",
      "outputs": [],
      "stateMutability": "nonpayable",
      "type": "function"
    },
    {
      "inputs": [],
      "name": "owner",
      "outputs": [
        {
          "internalType": "address",
          "name": "",
          "type": "address"
        }
      ],
      "stateMutability": "view",
      "type": "function"
    },
    {
      "inputs": [],
      "name": "paused",
      "outputs": [
        {
          "internalType": "bool",
          "name": "",
          "type": "bool"
        }
      ],
      "stateMutability": "view",
      "type": "function"
    },
    {
      "inputs": [],
      "name": "proposalCount",
      "outputs": [
        {
          "internalType": "uint256",
          "name": "",
          "type": "uint256"
        }
      ],
      "stateMutability": "view",
      "type": "function"
    },
    {
      "inputs": [
        {
          "internalType": "uint256",
          "name": "",
          "type": "uint256"
        }
      ],
      "name": "proposalsById",
      "outputs": [
        {
          "internalType": "uint256",
          "name": "id",
          "type": "uint256"
        },
        {
          "internalType": "string",
          "name": "title",
          "type": "string"
        },
        {
          "internalType": "string",
          "name": "description",
          "type": "string"
        },
        {
          "internalType": "string",
          "name": "draftedBy",
          "type": "string"
        },
        {
          "internalType": "bool",
          "name": "isElection",
          "type": "bool"
        },
        {
          "internalType": "bool",
          "name": "isActive",
          "type": "bool"
        },
        {
          "internalType": "uint256",
          "name": "teamId",
          "type": "uint256"
        },
        {
          "components": [
            {
              "internalType": "uint256",
              "name": "yes",
              "type": "uint256"
            },
            {
              "internalType": "uint256",
              "name": "no",
              "type": "uint256"
            },
            {
              "internalType": "uint256",
              "name": "abstain",
              "type": "uint256"
            }
          ],
          "internalType": "struct Types.DirectiveVotes",
          "name": "votes",
          "type": "tuple"
        }
      ],
      "stateMutability": "view",
      "type": "function"
    },
    {
      "inputs": [],
      "name": "renounceOwnership",
      "outputs": [],
      "stateMutability": "nonpayable",
      "type": "function"
    },
    {
      "inputs": [
        {
          "internalType": "address[]",
          "name": "_boardOfDirectors",
          "type": "address[]"
        }
      ],
      "name": "setBoardOfDirectors",
      "outputs": [],
      "stateMutability": "nonpayable",
      "type": "function"
    },
    {
      "inputs": [
        {
          "internalType": "address",
          "name": "_boardOfDirectorsContractAddress",
          "type": "address"
        }
      ],
      "name": "setBoardOfDirectorsContractAddress",
      "outputs": [],
      "stateMutability": "nonpayable",
      "type": "function"
    },
    {
      "inputs": [
        {
          "internalType": "address",
          "name": "newOwner",
          "type": "address"
        }
      ],
      "name": "transferOwnership",
      "outputs": [],
      "stateMutability": "nonpayable",
      "type": "function"
    },
    {
      "inputs": [
        {
          "internalType": "uint256",
          "name": "proposalId",
          "type": "uint256"
        },
        {
          "internalType": "uint256",
          "name": "vote",
          "type": "uint256"
        }
      ],
      "name": "voteDirective",
      "outputs": [],
      "stateMutability": "nonpayable",
      "type": "function"
    },
    {
      "inputs": [
        {
          "internalType": "uint256",
          "name": "proposalId",
          "type": "uint256"
        },
        {
          "internalType": "address",
          "name": "candidateAddress",
          "type": "address"
        }
      ],
      "name": "voteElection",
      "outputs": [],
      "stateMutability": "nonpayable",
      "type": "function"
    }
  ],
  "bytecode": "0x608060405234801561001057600080fd5b506125af806100206000396000f3fe608060405234801561001057600080fd5b50600436106100f55760003560e01c80638129fc1c11610097578063da35c66411610066578063da35c66414610234578063ec1721931461024b578063ee473c7a1461025e578063f2fde38b1461027157600080fd5b80638129fc1c146101c25780638da5cb5b146101ca57806397b3418e1461020e578063bd68d6e71461022157600080fd5b806350282f2d116100d357806350282f2d1461015f5780635c975abb14610172578063715018a6146101a757806371a5c572146101af57600080fd5b80631b7864c1146100fa5780633656de211461010f5780634f950c1a14610138575b600080fd5b61010d610108366004611a33565b610284565b005b61012261011d366004611a33565b61045b565b60405161012f9190611b95565b60405180910390f35b61014b610146366004611a33565b6108fd565b60405161012f989796959493929190611c95565b61010d61016d366004611d21565b610afb565b7fcd5ed15c6e187e77e9aee88184c21f4f2182ab5827cb3b7e07fbedcd63f033005460ff16604051901515815260200161012f565b61010d610e81565b61010d6101bd366004611d9f565b610e95565b61010d610f02565b7f9016d09d72d40fdae2fd8ceac6b6234c7706214fd39c1cd1e609a0528c199300546001600160a01b03165b6040516001600160a01b03909116815260200161012f565b61010d61021c366004611e64565b611020565b6002546101f6906001600160a01b031681565b61023d60015481565b60405190815260200161012f565b61010d610259366004611e86565b6111b6565b61010d61026c366004611ea3565b6111e0565b61010d61027f366004611e86565b61144f565b60015481106102ae5760405162461bcd60e51b81526004016102a590611ed3565b60405180910390fd5b600081815260208190526040902060048101805460ff6101008083048216150261ff0019831681179093559182169116171561041357600080805b6009840154811015610389578184600901828154811061030b5761030b611f0a565b90600052602060002090600302016002015411156103815783600901818154811061033857610338611f0a565b906000526020600020906003020160020154915083600901818154811061036157610361611f0a565b60009182526020909120600160039092020101546001600160a01b031692505b6001016102e9565b50606082816000815181106103a0576103a0611f0a565b6001600160a01b0392831660209182029290920101526002546040516338d2e2b960e11b81529116906371a5c572906103dd908490600401611f20565b600060405180830381600087803b1580156103f757600080fd5b505af115801561040b573d6000803e3d6000fd5b505050505050505b600481015460405161010090910460ff161515815282907f628c5b5fb646e7f6c763f5e3b6fdcbee619fe1c1bc595643a1c70415a6f113499060200160405180910390a25050565b6104636117b2565b60015482106104845760405162461bcd60e51b81526004016102a590611ed3565b60008281526020818152604091829020825161014081019093528054835260018101805491928401916104b690611f6d565b80601f01602080910402602001604051908101604052809291908181526020018280546104e290611f6d565b801561052f5780601f106105045761010080835404028352916020019161052f565b820191906000526020600020905b81548152906001019060200180831161051257829003601f168201915b5050505050815260200160028201805461054890611f6d565b80601f016020809104026020016040519081016040528092919081815260200182805461057490611f6d565b80156105c15780601f10610596576101008083540402835291602001916105c1565b820191906000526020600020905b8154815290600101906020018083116105a457829003601f168201915b505050505081526020016003820180546105da90611f6d565b80601f016020809104026020016040519081016040528092919081815260200182805461060690611f6d565b80156106535780601f1061062857610100808354040283529160200191610653565b820191906000526020600020905b81548152906001019060200180831161063657829003601f168201915b5050509183525050600482015460ff808216151560208085019190915261010090920416151560408084019190915260058401546060808501919091528151908101825260068501548152600785015481840152600885015481830152608084015260098401805482518185028101850190935280835260a090940193919290919060009084015b828210156107c2578382906000526020600020906003020160405180606001604052908160008201805461070e90611f6d565b80601f016020809104026020016040519081016040528092919081815260200182805461073a90611f6d565b80156107875780601f1061075c57610100808354040283529160200191610787565b820191906000526020600020905b81548152906001019060200180831161076a57829003601f168201915b50505091835250506001828101546001600160a01b0316602080840191909152600290930154604090920191909152918352920191016106db565b505050508152602001600a8201805480602002602001604051908101604052809291908181526020016000905b828210156108ef578382906000526020600020906002020160405180608001604052908160008201805461082290611f6d565b80601f016020809104026020016040519081016040528092919081815260200182805461084e90611f6d565b801561089b5780601f106108705761010080835404028352916020019161089b565b820191906000526020600020905b81548152906001019060200180831161087e57829003601f168201915b505050918352505060019182015460ff8082161515602080850191909152610100830490911615156040840152620100009091046001600160a01b03166060909201919091529183529290920191016107ef565b505050915250909392505050565b6000602081905290815260409020805460018201805491929161091f90611f6d565b80601f016020809104026020016040519081016040528092919081815260200182805461094b90611f6d565b80156109985780601f1061096d57610100808354040283529160200191610998565b820191906000526020600020905b81548152906001019060200180831161097b57829003601f168201915b5050505050908060020180546109ad90611f6d565b80601f01602080910402602001604051908101604052809291908181526020018280546109d990611f6d565b8015610a265780601f106109fb57610100808354040283529160200191610a26565b820191906000526020600020905b815481529060010190602001808311610a0957829003601f168201915b505050505090806003018054610a3b90611f6d565b80601f0160208091040260200160405190810160405280929190818152602001828054610a6790611f6d565b8015610ab45780601f10610a8957610100808354040283529160200191610ab4565b820191906000526020600020905b815481529060010190602001808311610a9757829003601f168201915b505050506004830154600584015460408051606081018252600687015481526007870154602082015260089096015490860152929360ff8083169461010090930416925088565b6000610b0a6020830183611fa7565b905011610b515760405162461bcd60e51b81526020600482015260156024820152745469746c652063616e6e6f7420626520656d70747960581b60448201526064016102a5565b600154600081815260208181526040909120918255610b7290830183611fa7565b6001830191610b8291908361205b565b50610b906040830183611fa7565b6002830191610ba091908361205b565b50610bae6060830183611fa7565b6003830191610bbe91908361205b565b50610bcf60a0830160808401612123565b60048201805460ff1916911515919091179055610bf260c0830160a08401612123565b6004820180549115156101000261ff001990921691909117905560c0820135600582015560005b610c27610140840184612140565b9050811015610c905760098201610c42610140850185612140565b83818110610c5257610c52611f0a565b9050602002810190610c64919061218a565b815460018101835560009283526020909220909160030201610c8682826121b7565b5050600101610c19565b5060005b610ca2610160840184612140565b9050811015610d0b57600a8201610cbd610160850185612140565b83818110610ccd57610ccd611f0a565b9050602002810190610cdf91906122ba565b815460018101835560009283526020909220909160020201610d0182826122dd565b5050600101610c94565b5060e082013560068201556101008201356007820155610120820135600882015560018054600090815260208190526040902082548155829181810190610d5490840182612420565b50600281810190610d6790840182612420565b50600381810190610d7a90840182612420565b5060048281018054918301805460ff938416151560ff19821681178355925461010090819004909416151590930261ff001990921661ffff19909316929092171790556005808301549082015560068083015490820155600780830154908201556008808301549082015560098083018054610df9928401919061182b565b50600a8281018054610e0e92840191906118bb565b505060015490507f2da739368218397c1f8267a798bce5722bae1a51d2855fb923312edf27460c60610e436020850185611fa7565b610e506040870187611fa7565b604051610e609493929190612520565b60405180910390a260018054906000610e7883612552565b91905055505050565b610e8961148d565b610e9360006114e8565b565b610e9d61148d565b6002546040516338d2e2b960e11b81526001600160a01b03909116906371a5c57290610ecd908490600401611f20565b600060405180830381600087803b158015610ee757600080fd5b505af1158015610efb573d6000803e3d6000fd5b5050505050565b7ff0c57e16840df040f15088dc2f81fe391c3923bec73e23a9662efc9c229c6a008054600160401b810460ff16159067ffffffffffffffff16600081158015610f485750825b905060008267ffffffffffffffff166001148015610f655750303b155b905081158015610f73575080155b15610f915760405163f92ee8a960e01b815260040160405180910390fd5b845467ffffffffffffffff191660011785558315610fbb57845460ff60401b1916600160401b1785555b610fc433611559565b610fcc61156a565b610fd461157a565b8315610efb57845460ff60401b19168555604051600181527fc7f505b2f371ae2175ee4913f4499e1f2633a7b5936321eed1cdaeb6115181d29060200160405180910390a15050505050565b60015482106110415760405162461bcd60e51b81526004016102a590611ed3565b60008281526020819052604090206004810154610100900460ff166110a15760405162461bcd60e51b815260206004820152601660248201527550726f706f73616c206973206e6f742061637469766560501b60448201526064016102a5565b60006110ad823361158a565b600181015490915060ff166111045760405162461bcd60e51b815260206004820152601c60248201527f596f7520617265206e6f7420656c696769626c6520746f20766f74650000000060448201526064016102a5565b6001810154610100900460ff16156111575760405162461bcd60e51b8152602060048201526016602482015275165bdd481a185d9948185b1c9958591e481d9bdd195960521b60448201526064016102a5565b611161828461167b565b60018101805461ff001916610100179055604051849033907fabe5d78d7c4aff0ea01d11f7334d89bf989faef45af0c780acf4ccff6bd5c8db906111a89087815260200190565b60405180910390a350505050565b6111be61148d565b600280546001600160a01b0319166001600160a01b0392909216919091179055565b60015482106112015760405162461bcd60e51b81526004016102a590611ed3565b60008281526020819052604090206004810154610100900460ff166112615760405162461bcd60e51b815260206004820152601660248201527550726f706f73616c206973206e6f742061637469766560501b60448201526064016102a5565b600061126d823361158a565b600181015490915060ff166112c45760405162461bcd60e51b815260206004820152601c60248201527f596f7520617265206e6f7420656c696769626c6520746f20766f74650000000060448201526064016102a5565b6001810154610100900460ff16156113175760405162461bcd60e51b8152602060048201526016602482015275165bdd481a185d9948185b1c9958591e481d9bdd195960521b60448201526064016102a5565b6000805b60098401548110156113b157846001600160a01b031684600901828154811061134657611346611f0a565b60009182526020909120600160039092020101546001600160a01b0316036113a95783600901818154811061137d5761137d611f0a565b60009182526020822060026003909202010180549161139b83612552565b9190505550600191506113b1565b60010161131b565b50806113ff5760405162461bcd60e51b815260206004820152601860248201527f43616e64696461746520646f6573206e6f74206578697374000000000000000060448201526064016102a5565b60018201805461ff0019166101001790556040516001600160a01b03851690869033907fe8db14efb3e399b32db39dd2829b3af23451747dba46368ce6a3d5ccefebf88290600090a45050505050565b61145761148d565b6001600160a01b03811661148157604051631e4fbdf760e01b8152600060048201526024016102a5565b61148a816114e8565b50565b336114bf7f9016d09d72d40fdae2fd8ceac6b6234c7706214fd39c1cd1e609a0528c199300546001600160a01b031690565b6001600160a01b031614610e935760405163118cdaa760e01b81523360048201526024016102a5565b7f9016d09d72d40fdae2fd8ceac6b6234c7706214fd39c1cd1e609a0528c19930080546001600160a01b031981166001600160a01b03848116918217845560405192169182907f8be0079c531659141344cd1fd0a4f28419497f9722a3daafe3b4186f6b6457e090600090a3505050565b611561611700565b61148a81611749565b611572611700565b610e93611751565b611582611700565b610e9361177f565b6000805b600a84015481101561161457826001600160a01b031684600a0182815481106115b9576115b9611f0a565b60009182526020909120600290910201600101546201000090046001600160a01b03160361160c5783600a0181815481106115f6576115f6611f0a565b9060005260206000209060020201915050611675565b60010161158e565b5060405162461bcd60e51b815260206004820152602f60248201527f596f7520617265206e6f74207265676973746572656420746f20766f7465206960448201526e1b881d1a1a5cc81c1c9bdc1bdcd85b608a1b60648201526084016102a5565b92915050565b8060000361169557600782018054906000610e7883612552565b806001036116af57600682018054906000610e7883612552565b806002036116c957600882018054906000610e7883612552565b60405162461bcd60e51b815260206004820152600c60248201526b496e76616c696420766f746560a01b60448201526064016102a5565b7ff0c57e16840df040f15088dc2f81fe391c3923bec73e23a9662efc9c229c6a0054600160401b900460ff16610e9357604051631afcd79f60e31b815260040160405180910390fd5b611457611700565b611759611700565b60017f9b779b17422d0df92223018b32b4d1fa46e071723d6817e2486d003becc55f0055565b611787611700565b7fcd5ed15c6e187e77e9aee88184c21f4f2182ab5827cb3b7e07fbedcd63f03300805460ff19169055565b604051806101400160405280600081526020016060815260200160608152602001606081526020016000151581526020016000151581526020016000815260200161181760405180606001604052806000815260200160008152602001600081525090565b815260200160608152602001606081525090565b8280548282559060005260206000209060030281019282156118ab5760005260206000209160030282015b828111156118ab5782828061186b8382612420565b5060018281015490820180546001600160a01b0319166001600160a01b039092169190911790556002918201549101556003928301929190910190611856565b506118b7929150611984565b5090565b8280548282559060005260206000209060020281019282156119785760005260206000209160020282015b82811115611978578282806118fb8382612420565b506001918201805491909201805460ff928316151560ff19821681178355845461010090819004909416151590930261ff001990931661ffff19909116179190911780825591546001600160a01b036201000091829004160262010000600160b01b031990921691909117905560029283019291909101906118e6565b506118b79291506119ba565b808211156118b757600061199882826119e9565b506001810180546001600160a01b031916905560006002820155600301611984565b808211156118b75760006119ce82826119e9565b506001810180546001600160b01b03191690556002016119ba565b5080546119f590611f6d565b6000825580601f10611a05575050565b601f01602090049060005260206000209081019061148a91905b808211156118b75760008155600101611a1f565b600060208284031215611a4557600080fd5b5035919050565b6000815180845260005b81811015611a7257602081850181015186830182015201611a56565b506000602082860101526020601f19601f83011685010191505092915050565b600082825180855260208086019550808260051b84010181860160005b84811015611b0657601f19868403018952815160608151818652611ad582870182611a4c565b838801516001600160a01b031687890152604093840151939096019290925250509783019790830190600101611aaf565b5090979650505050505050565b600082825180855260208086019550808260051b84010181860160005b84811015611b0657601f19868403018952815160808151818652611b5682870182611a4c565b838801511515878901526040808501511515908801526060938401516001600160a01b0316939096019290925250509783019790830190600101611b30565b602081528151602082015260006020830151610180806040850152611bbe6101a0850183611a4c565b91506040850151601f1980868503016060870152611bdc8483611a4c565b93506060870151915080868503016080870152611bf98483611a4c565b935060808701519150611c1060a087018315159052565b60a087015180151560c0880152915060c087015160e087015260e08701519150610100611c53818801848051825260208082015190830152604090810151910152565b87015186850382016101608801529150611c6d8483611a92565b9350610120870151915080868503018387015250611c8b8382611b13565b9695505050505050565b60006101408a8352806020840152611caf8184018b611a4c565b90508281036040840152611cc3818a611a4c565b90508281036060840152611cd78189611a4c565b871515608085015286151560a085015260c08401869052845160e0850152602085015161010085015260408501516101208501529150611d149050565b9998505050505050505050565b600060208284031215611d3357600080fd5b813567ffffffffffffffff811115611d4a57600080fd5b82016101808185031215611d5d57600080fd5b9392505050565b634e487b7160e01b600052604160045260246000fd5b6001600160a01b038116811461148a57600080fd5b8035611d9a81611d7a565b919050565b60006020808385031215611db257600080fd5b823567ffffffffffffffff80821115611dca57600080fd5b818501915085601f830112611dde57600080fd5b813581811115611df057611df0611d64565b8060051b604051601f19603f83011681018181108582111715611e1557611e15611d64565b604052918252848201925083810185019188831115611e3357600080fd5b938501935b82851015611e5857611e4985611d8f565b84529385019392850192611e38565b98975050505050505050565b60008060408385031215611e7757600080fd5b50508035926020909101359150565b600060208284031215611e9857600080fd5b8135611d5d81611d7a565b60008060408385031215611eb657600080fd5b823591506020830135611ec881611d7a565b809150509250929050565b60208082526017908201527f50726f706f73616c20646f6573206e6f74206578697374000000000000000000604082015260600190565b634e487b7160e01b600052603260045260246000fd5b6020808252825182820181905260009190848201906040850190845b81811015611f615783516001600160a01b031683529284019291840191600101611f3c565b50909695505050505050565b600181811c90821680611f8157607f821691505b602082108103611fa157634e487b7160e01b600052602260045260246000fd5b50919050565b6000808335601e19843603018112611fbe57600080fd5b83018035915067ffffffffffffffff821115611fd957600080fd5b602001915036819003821315611fee57600080fd5b9250929050565b601f821115612041576000816000526020600020601f850160051c8101602086101561201e5750805b601f850160051c820191505b8181101561203d5782815560010161202a565b5050505b505050565b600019600383901b1c191660019190911b1790565b67ffffffffffffffff83111561207357612073611d64565b612087836120818354611f6d565b83611ff5565b6000601f8411600181146120b557600085156120a35750838201355b6120ad8682612046565b845550610efb565b600083815260209020601f19861690835b828110156120e657868501358255602094850194600190920191016120c6565b50868210156121035760001960f88860031b161c19848701351681555b505060018560011b0183555050505050565b801515811461148a57600080fd5b60006020828403121561213557600080fd5b8135611d5d81612115565b6000808335601e1984360301811261215757600080fd5b83018035915067ffffffffffffffff82111561217257600080fd5b6020019150600581901b3603821315611fee57600080fd5b60008235605e198336030181126121a057600080fd5b9190910192915050565b6000813561167581611d7a565b6121c18283611fa7565b67ffffffffffffffff8111156121d9576121d9611d64565b6121ed816121e78554611f6d565b85611ff5565b6000601f82116001811461221b57600083156122095750838201355b6122138482612046565b865550612275565b600085815260209020601f19841690835b8281101561224c578685013582556020948501946001909201910161222c565b50848210156122695760001960f88660031b161c19848701351681555b505060018360011b0185555b505050506122ac612288602084016121aa565b6001830180546001600160a01b0319166001600160a01b0392909216919091179055565b604082013560028201555050565b60008235607e198336030181126121a057600080fd5b6000813561167581612115565b6122e78283611fa7565b67ffffffffffffffff8111156122ff576122ff611d64565b61230d816121e78554611f6d565b6000601f82116001811461233b57600083156123295750838201355b6123338482612046565b865550612395565b600085815260209020601f19841690835b8281101561236c578685013582556020948501946001909201910161234c565b50848210156123895760001960f88660031b161c19848701351681555b505060018360011b0185555b50505050600181016123c06123ac602085016122d0565b825490151560ff1660ff1991909116178255565b6123e96123cf604085016122d0565b82805461ff00191691151560081b61ff0016919091179055565b6120416123f8606085016121aa565b82805462010000600160b01b03191660109290921b62010000600160b01b0316919091179055565b81810361242b575050565b6124358254611f6d565b67ffffffffffffffff81111561244d5761244d611d64565b6124618161245b8454611f6d565b84611ff5565b6000601f82116001811461248f576000831561247d5750848201545b6124878482612046565b855550610efb565b600085815260209020601f19841690600086815260209020845b838110156124c957828601548255600195860195909101906020016124a9565b50858310156124e75781850154600019600388901b60f8161c191681555b5050505050600190811b01905550565b81835281816020850137506000828201602090810191909152601f909101601f19169091010190565b6040815260006125346040830186886124f7565b82810360208401526125478185876124f7565b979650505050505050565b60006001820161257257634e487b7160e01b600052601160045260246000fd5b506001019056fea26469706673582212206cf6c2f9fcfec95563d629d051213d971b595549e646e9e0787fb84ef15dff9164736f6c63430008180033",
  "linkReferences": {},
  "deployedLinkReferences": {}
}