{
  "_format": "hh-sol-artifact-1",
  "contractName": "Voting",
  "sourceName": "contracts/Voting/Voting.sol",
  "abi": [
    {
      "inputs": [],
      "name": "EnforcedPause",
      "type": "error"
    },
    {
      "inputs": [],
      "name": "ExpectedPause",
      "type": "error"
    },
    {
      "inputs": [],
      "name": "InvalidInitialization",
      "type": "error"
    },
    {
      "inputs": [],
      "name": "NotInitializing",
      "type": "error"
    },
    {
      "inputs": [
        {
          "internalType": "address",
          "name": "owner",
          "type": "address"
        }
      ],
      "name": "OwnableInvalidOwner",
      "type": "error"
    },
    {
      "inputs": [
        {
          "internalType": "address",
          "name": "account",
          "type": "address"
        }
      ],
      "name": "OwnableUnauthorizedAccount",
      "type": "error"
    },
    {
      "inputs": [],
      "name": "ReentrancyGuardReentrantCall",
      "type": "error"
    },
    {
      "anonymous": false,
      "inputs": [
        {
          "indexed": true,
          "internalType": "address",
          "name": "voter",
          "type": "address"
        },
        {
          "indexed": true,
          "internalType": "uint256",
          "name": "proposalId",
          "type": "uint256"
        },
        {
          "indexed": false,
          "internalType": "uint256",
          "name": "vote",
          "type": "uint256"
        }
      ],
      "name": "DirectiveVoted",
      "type": "event"
    },
    {
      "anonymous": false,
      "inputs": [
        {
          "indexed": true,
          "internalType": "address",
          "name": "voter",
          "type": "address"
        },
        {
          "indexed": true,
          "internalType": "uint256",
          "name": "proposalId",
          "type": "uint256"
        },
        {
          "indexed": true,
          "internalType": "address",
          "name": "candidateAddress",
          "type": "address"
        }
      ],
      "name": "ElectionVoted",
      "type": "event"
    },
    {
      "anonymous": false,
      "inputs": [
        {
          "indexed": false,
          "internalType": "uint64",
          "name": "version",
          "type": "uint64"
        }
      ],
      "name": "Initialized",
      "type": "event"
    },
    {
      "anonymous": false,
      "inputs": [
        {
          "indexed": true,
          "internalType": "address",
          "name": "previousOwner",
          "type": "address"
        },
        {
          "indexed": true,
          "internalType": "address",
          "name": "newOwner",
          "type": "address"
        }
      ],
      "name": "OwnershipTransferred",
      "type": "event"
    },
    {
      "anonymous": false,
      "inputs": [
        {
          "indexed": false,
          "internalType": "address",
          "name": "account",
          "type": "address"
        }
      ],
      "name": "Paused",
      "type": "event"
    },
    {
      "anonymous": false,
      "inputs": [
        {
          "indexed": true,
          "internalType": "uint256",
          "name": "proposalId",
          "type": "uint256"
        },
        {
          "indexed": false,
          "internalType": "string",
          "name": "title",
          "type": "string"
        },
        {
          "indexed": false,
          "internalType": "string",
          "name": "description",
          "type": "string"
        }
      ],
      "name": "ProposalAdded",
      "type": "event"
    },
    {
      "anonymous": false,
      "inputs": [
        {
          "indexed": true,
          "internalType": "uint256",
          "name": "proposalId",
          "type": "uint256"
        },
        {
          "components": [
            {
              "internalType": "string",
              "name": "title",
              "type": "string"
            },
            {
              "internalType": "string",
              "name": "description",
              "type": "string"
            },
            {
              "internalType": "string",
              "name": "draftedBy",
              "type": "string"
            },
            {
              "internalType": "bool",
              "name": "isElection",
              "type": "bool"
            },
            {
              "internalType": "bool",
              "name": "isActive",
              "type": "bool"
            },
            {
              "components": [
                {
                  "internalType": "uint256",
                  "name": "yes",
                  "type": "uint256"
                },
                {
                  "internalType": "uint256",
                  "name": "no",
                  "type": "uint256"
                },
                {
                  "internalType": "uint256",
                  "name": "abstain",
                  "type": "uint256"
                }
              ],
              "internalType": "struct Types.DirectiveVotes",
              "name": "votes",
              "type": "tuple"
            },
            {
              "components": [
                {
                  "internalType": "string",
                  "name": "name",
                  "type": "string"
                },
                {
                  "internalType": "address",
                  "name": "candidateAddress",
                  "type": "address"
                },
                {
                  "internalType": "uint256",
                  "name": "votes",
                  "type": "uint256"
                }
              ],
              "internalType": "struct Types.Candidate[]",
              "name": "candidates",
              "type": "tuple[]"
            },
            {
              "components": [
                {
                  "internalType": "string",
                  "name": "name",
                  "type": "string"
                },
                {
                  "internalType": "bool",
                  "name": "isEligible",
                  "type": "bool"
                },
                {
                  "internalType": "bool",
                  "name": "isVoted",
                  "type": "bool"
                },
                {
                  "internalType": "address",
                  "name": "memberAddress",
                  "type": "address"
                }
              ],
              "internalType": "struct Types.Member[]",
              "name": "voters",
              "type": "tuple[]"
            }
          ],
          "indexed": false,
          "internalType": "struct Types.Proposal",
          "name": "proposal",
          "type": "tuple"
        }
      ],
      "name": "ProposalConcluded",
      "type": "event"
    },
    {
      "anonymous": false,
      "inputs": [
        {
          "indexed": false,
          "internalType": "address",
          "name": "account",
          "type": "address"
        }
      ],
      "name": "Unpaused",
      "type": "event"
    },
    {
      "inputs": [
        {
          "components": [
            {
              "internalType": "string",
              "name": "title",
              "type": "string"
            },
            {
              "internalType": "string",
              "name": "description",
              "type": "string"
            },
            {
              "internalType": "string",
              "name": "draftedBy",
              "type": "string"
            },
            {
              "internalType": "bool",
              "name": "isElection",
              "type": "bool"
            },
            {
              "internalType": "bool",
              "name": "isActive",
              "type": "bool"
            },
            {
              "components": [
                {
                  "internalType": "uint256",
                  "name": "yes",
                  "type": "uint256"
                },
                {
                  "internalType": "uint256",
                  "name": "no",
                  "type": "uint256"
                },
                {
                  "internalType": "uint256",
                  "name": "abstain",
                  "type": "uint256"
                }
              ],
              "internalType": "struct Types.DirectiveVotes",
              "name": "votes",
              "type": "tuple"
            },
            {
              "components": [
                {
                  "internalType": "string",
                  "name": "name",
                  "type": "string"
                },
                {
                  "internalType": "address",
                  "name": "candidateAddress",
                  "type": "address"
                },
                {
                  "internalType": "uint256",
                  "name": "votes",
                  "type": "uint256"
                }
              ],
              "internalType": "struct Types.Candidate[]",
              "name": "candidates",
              "type": "tuple[]"
            },
            {
              "components": [
                {
                  "internalType": "string",
                  "name": "name",
                  "type": "string"
                },
                {
                  "internalType": "bool",
                  "name": "isEligible",
                  "type": "bool"
                },
                {
                  "internalType": "bool",
                  "name": "isVoted",
                  "type": "bool"
                },
                {
                  "internalType": "address",
                  "name": "memberAddress",
                  "type": "address"
                }
              ],
              "internalType": "struct Types.Member[]",
              "name": "voters",
              "type": "tuple[]"
            }
          ],
          "internalType": "struct Types.Proposal",
          "name": "_proposal",
          "type": "tuple"
        }
      ],
      "name": "addProposal",
      "outputs": [],
      "stateMutability": "nonpayable",
      "type": "function"
    },
    {
      "inputs": [
        {
          "internalType": "uint256",
          "name": "proposalId",
          "type": "uint256"
        }
      ],
      "name": "concludeProposal",
      "outputs": [],
      "stateMutability": "nonpayable",
      "type": "function"
    },
    {
      "inputs": [],
      "name": "getProposals",
      "outputs": [
        {
          "components": [
            {
              "internalType": "string",
              "name": "title",
              "type": "string"
            },
            {
              "internalType": "string",
              "name": "description",
              "type": "string"
            },
            {
              "internalType": "string",
              "name": "draftedBy",
              "type": "string"
            },
            {
              "internalType": "bool",
              "name": "isElection",
              "type": "bool"
            },
            {
              "internalType": "bool",
              "name": "isActive",
              "type": "bool"
            },
            {
              "components": [
                {
                  "internalType": "uint256",
                  "name": "yes",
                  "type": "uint256"
                },
                {
                  "internalType": "uint256",
                  "name": "no",
                  "type": "uint256"
                },
                {
                  "internalType": "uint256",
                  "name": "abstain",
                  "type": "uint256"
                }
              ],
              "internalType": "struct Types.DirectiveVotes",
              "name": "votes",
              "type": "tuple"
            },
            {
              "components": [
                {
                  "internalType": "string",
                  "name": "name",
                  "type": "string"
                },
                {
                  "internalType": "address",
                  "name": "candidateAddress",
                  "type": "address"
                },
                {
                  "internalType": "uint256",
                  "name": "votes",
                  "type": "uint256"
                }
              ],
              "internalType": "struct Types.Candidate[]",
              "name": "candidates",
              "type": "tuple[]"
            },
            {
              "components": [
                {
                  "internalType": "string",
                  "name": "name",
                  "type": "string"
                },
                {
                  "internalType": "bool",
                  "name": "isEligible",
                  "type": "bool"
                },
                {
                  "internalType": "bool",
                  "name": "isVoted",
                  "type": "bool"
                },
                {
                  "internalType": "address",
                  "name": "memberAddress",
                  "type": "address"
                }
              ],
              "internalType": "struct Types.Member[]",
              "name": "voters",
              "type": "tuple[]"
            }
          ],
          "internalType": "struct Types.Proposal[]",
          "name": "",
          "type": "tuple[]"
        }
      ],
      "stateMutability": "view",
      "type": "function"
    },
    {
      "inputs": [],
      "name": "initialize",
      "outputs": [],
      "stateMutability": "nonpayable",
      "type": "function"
    },
    {
      "inputs": [],
      "name": "owner",
      "outputs": [
        {
          "internalType": "address",
          "name": "",
          "type": "address"
        }
      ],
      "stateMutability": "view",
      "type": "function"
    },
    {
      "inputs": [],
      "name": "pause",
      "outputs": [],
      "stateMutability": "nonpayable",
      "type": "function"
    },
    {
      "inputs": [],
      "name": "paused",
      "outputs": [
        {
          "internalType": "bool",
          "name": "",
          "type": "bool"
        }
      ],
      "stateMutability": "view",
      "type": "function"
    },
    {
      "inputs": [],
      "name": "proposalCount",
      "outputs": [
        {
          "internalType": "uint256",
          "name": "",
          "type": "uint256"
        }
      ],
      "stateMutability": "view",
      "type": "function"
    },
    {
      "inputs": [
        {
          "internalType": "uint256",
          "name": "",
          "type": "uint256"
        }
      ],
      "name": "proposals",
      "outputs": [
        {
          "internalType": "string",
          "name": "title",
          "type": "string"
        },
        {
          "internalType": "string",
          "name": "description",
          "type": "string"
        },
        {
          "internalType": "string",
          "name": "draftedBy",
          "type": "string"
        },
        {
          "internalType": "bool",
          "name": "isElection",
          "type": "bool"
        },
        {
          "internalType": "bool",
          "name": "isActive",
          "type": "bool"
        },
        {
          "components": [
            {
              "internalType": "uint256",
              "name": "yes",
              "type": "uint256"
            },
            {
              "internalType": "uint256",
              "name": "no",
              "type": "uint256"
            },
            {
              "internalType": "uint256",
              "name": "abstain",
              "type": "uint256"
            }
          ],
          "internalType": "struct Types.DirectiveVotes",
          "name": "votes",
          "type": "tuple"
        }
      ],
      "stateMutability": "view",
      "type": "function"
    },
    {
      "inputs": [],
      "name": "renounceOwnership",
      "outputs": [],
      "stateMutability": "nonpayable",
      "type": "function"
    },
    {
      "inputs": [
        {
          "internalType": "address",
          "name": "newOwner",
          "type": "address"
        }
      ],
      "name": "transferOwnership",
      "outputs": [],
      "stateMutability": "nonpayable",
      "type": "function"
    },
    {
      "inputs": [],
      "name": "unpause",
      "outputs": [],
      "stateMutability": "nonpayable",
      "type": "function"
    },
    {
      "inputs": [
        {
          "internalType": "uint256",
          "name": "proposalId",
          "type": "uint256"
        },
        {
          "internalType": "uint256",
          "name": "vote",
          "type": "uint256"
        }
      ],
      "name": "voteDirective",
      "outputs": [],
      "stateMutability": "nonpayable",
      "type": "function"
    },
    {
      "inputs": [
        {
          "internalType": "uint256",
          "name": "proposalId",
          "type": "uint256"
        },
        {
          "internalType": "address",
          "name": "candidateAddress",
          "type": "address"
        }
      ],
      "name": "voteElection",
      "outputs": [],
      "stateMutability": "nonpayable",
      "type": "function"
    }
  ],
  "bytecode": "0x608060405234801561001057600080fd5b50612351806100206000396000f3fe608060405234801561001057600080fd5b50600436106100ea5760003560e01c80638129fc1c1161008c57806397b3418e1161006657806397b3418e146101d7578063da35c664146101ea578063ee473c7a14610201578063f2fde38b1461021457600080fd5b80638129fc1c1461018d5780638456cb59146101955780638da5cb5b1461019d57600080fd5b80635c975abb116100c85780635c975abb1461013a57806362564c481461015d578063715018a61461017257806377ee47f61461017a57600080fd5b8063013cf08b146100ef5780631b7864c11461011d5780633f4ba83a14610132575b600080fd5b6101026100fd366004611408565b610227565b60405161011496959493929190611467565b60405180910390f35b61013061012b366004611408565b610418565b005b6101306104ba565b6000805160206122fc8339815191525460ff166040519015158152602001610114565b6101656104cc565b60405161011491906115e5565b6101306109bb565b610130610188366004611705565b6109cd565b610130610a67565b610130610b76565b7f9016d09d72d40fdae2fd8ceac6b6234c7706214fd39c1cd1e609a0528c199300546040516001600160a01b039091168152602001610114565b6101306101e5366004611748565b610b86565b6101f360015481565b604051908152602001610114565b61013061020f36600461177f565b610d30565b6101306102223660046117af565b610fa8565b600060208190529081526040902080548190610242906117cc565b80601f016020809104026020016040519081016040528092919081815260200182805461026e906117cc565b80156102bb5780601f10610290576101008083540402835291602001916102bb565b820191906000526020600020905b81548152906001019060200180831161029e57829003601f168201915b5050505050908060010180546102d0906117cc565b80601f01602080910402602001604051908101604052809291908181526020018280546102fc906117cc565b80156103495780601f1061031e57610100808354040283529160200191610349565b820191906000526020600020905b81548152906001019060200180831161032c57829003601f168201915b50505050509080600201805461035e906117cc565b80601f016020809104026020016040519081016040528092919081815260200182805461038a906117cc565b80156103d75780601f106103ac576101008083540402835291602001916103d7565b820191906000526020600020905b8154815290600101906020018083116103ba57829003601f168201915b50505050600383015460408051606081018252600486015481526005860154602082015260069095015490850152919260ff80841693610100900416915086565b610420610fe6565b610428611041565b60015481106104525760405162461bcd60e51b815260040161044990611800565b60405180910390fd5b6000818152602081905260409081902060038101805461ff001981166101009182900460ff1615909102179055905182917fcb95882f06f221718b79ae67f60eae0a8cb05c652bde85806d28094728c5b7a2916104af91906119c0565b60405180910390a250565b6104c2610fe6565b6104ca611072565b565b6060600060015467ffffffffffffffff8111156104eb576104eb611a96565b60405190808252806020026020018201604052801561052457816020015b61051161139d565b8152602001906001900390816105095790505b50905060005b6001548110156109b557600081815260208190526040908190208151610100810190925280548290829061055d906117cc565b80601f0160208091040260200160405190810160405280929190818152602001828054610589906117cc565b80156105d65780601f106105ab576101008083540402835291602001916105d6565b820191906000526020600020905b8154815290600101906020018083116105b957829003601f168201915b505050505081526020016001820180546105ef906117cc565b80601f016020809104026020016040519081016040528092919081815260200182805461061b906117cc565b80156106685780601f1061063d57610100808354040283529160200191610668565b820191906000526020600020905b81548152906001019060200180831161064b57829003601f168201915b50505050508152602001600282018054610681906117cc565b80601f01602080910402602001604051908101604052809291908181526020018280546106ad906117cc565b80156106fa5780601f106106cf576101008083540402835291602001916106fa565b820191906000526020600020905b8154815290600101906020018083116106dd57829003601f168201915b5050509183525050600382015460ff808216151560208085019190915261010090920416151560408084019190915280516060818101835260048601548252600586015482850152600686015482840152840152600784018054825181850281018501909352808352608090940193919290919060009084015b8282101561085b57838290600052602060002090600302016040518060600160405290816000820180546107a7906117cc565b80601f01602080910402602001604051908101604052809291908181526020018280546107d3906117cc565b80156108205780601f106107f557610100808354040283529160200191610820565b820191906000526020600020905b81548152906001019060200180831161080357829003601f168201915b50505091835250506001828101546001600160a01b031660208084019190915260029093015460409092019190915291835292019101610774565b50505050815260200160088201805480602002602001604051908101604052809291908181526020016000905b8282101561098857838290600052602060002090600202016040518060800160405290816000820180546108bb906117cc565b80601f01602080910402602001604051908101604052809291908181526020018280546108e7906117cc565b80156109345780601f1061090957610100808354040283529160200191610934565b820191906000526020600020905b81548152906001019060200180831161091757829003601f168201915b505050918352505060019182015460ff8082161515602080850191909152610100830490911615156040840152620100009091046001600160a01b0316606090920191909152918352929092019101610888565b50505050815250508282815181106109a2576109a2611aac565b602090810291909101015260010161052a565b50919050565b6109c3610fe6565b6104ca60006110d2565b6109d5610fe6565b6109dd611041565b600154600090815260208190526040902081906109fa828261211b565b50506001547f2da739368218397c1f8267a798bce5722bae1a51d2855fb923312edf27460c60610a2a8380611ac2565b610a376020860186611ac2565b604051610a4794939291906122bb565b60405180910390a260018054906000610a5f836122e2565b919050555050565b7ff0c57e16840df040f15088dc2f81fe391c3923bec73e23a9662efc9c229c6a008054600160401b810460ff16159067ffffffffffffffff16600081158015610aad5750825b905060008267ffffffffffffffff166001148015610aca5750303b155b905081158015610ad8575080155b15610af65760405163f92ee8a960e01b815260040160405180910390fd5b845467ffffffffffffffff191660011785558315610b2057845460ff60401b1916600160401b1785555b610b2933611143565b8315610b6f57845460ff60401b19168555604051600181527fc7f505b2f371ae2175ee4913f4499e1f2633a7b5936321eed1cdaeb6115181d29060200160405180910390a15b5050505050565b610b7e610fe6565b6104ca611154565b610b8e611041565b6001548210610baf5760405162461bcd60e51b815260040161044990611800565b600082815260208190526040902060030154610100900460ff16610c0e5760405162461bcd60e51b815260206004820152601660248201527550726f706f73616c206973206e6f742061637469766560501b6044820152606401610449565b600082815260208190526040812090610c27823361119d565b600181015490915060ff16610c7e5760405162461bcd60e51b815260206004820152601c60248201527f596f7520617265206e6f7420656c696769626c6520746f20766f7465000000006044820152606401610449565b6001810154610100900460ff1615610cd15760405162461bcd60e51b8152602060048201526016602482015275165bdd481a185d9948185b1c9958591e481d9bdd195960521b6044820152606401610449565b610cdb828461128e565b60018101805461ff001916610100179055604051849033907fabe5d78d7c4aff0ea01d11f7334d89bf989faef45af0c780acf4ccff6bd5c8db90610d229087815260200190565b60405180910390a350505050565b610d38611041565b6001548210610d595760405162461bcd60e51b815260040161044990611800565b600082815260208190526040902060030154610100900460ff16610db85760405162461bcd60e51b815260206004820152601660248201527550726f706f73616c206973206e6f742061637469766560501b6044820152606401610449565b600082815260208190526040812090610dd1823361119d565b600181015490915060ff16610e285760405162461bcd60e51b815260206004820152601c60248201527f596f7520617265206e6f7420656c696769626c6520746f20766f7465000000006044820152606401610449565b6001810154610100900460ff1615610e7b5760405162461bcd60e51b8152602060048201526016602482015275165bdd481a185d9948185b1c9958591e481d9bdd195960521b6044820152606401610449565b60005b6007830154811015610f5b57836001600160a01b0316836007018281548110610ea957610ea9611aac565b60009182526020909120600160039092020101546001600160a01b031603610f5357826007018181548110610ee057610ee0611aac565b600091825260208220600260039092020101805491610efe836122e2565b909155505060018201805461ff0019166101001790556040516001600160a01b03851690869033907fe8db14efb3e399b32db39dd2829b3af23451747dba46368ce6a3d5ccefebf88290600090a45050505050565b600101610e7e565b5060405162461bcd60e51b815260206004820152601860248201527f43616e64696461746520646f6573206e6f7420657869737400000000000000006044820152606401610449565b5050565b610fb0610fe6565b6001600160a01b038116610fda57604051631e4fbdf760e01b815260006004820152602401610449565b610fe3816110d2565b50565b336110187f9016d09d72d40fdae2fd8ceac6b6234c7706214fd39c1cd1e609a0528c199300546001600160a01b031690565b6001600160a01b0316146104ca5760405163118cdaa760e01b8152336004820152602401610449565b6000805160206122fc8339815191525460ff16156104ca5760405163d93c066560e01b815260040160405180910390fd5b61107a61131c565b6000805160206122fc833981519152805460ff191681557f5db9ee0a495bf2e6ff9c91a7834c1ba4fdd244a5e8aa4e537bd38aeae4b073aa335b6040516001600160a01b03909116815260200160405180910390a150565b7f9016d09d72d40fdae2fd8ceac6b6234c7706214fd39c1cd1e609a0528c19930080546001600160a01b031981166001600160a01b03848116918217845560405192169182907f8be0079c531659141344cd1fd0a4f28419497f9722a3daafe3b4186f6b6457e090600090a3505050565b61114b61134c565b610fe381611395565b61115c611041565b6000805160206122fc833981519152805460ff191660011781557f62e78cea01bee320cd4e420270b5ea74000d11b0c9f74754ebdbfc544b05a258336110b4565b6000805b600884015481101561122757826001600160a01b03168460080182815481106111cc576111cc611aac565b60009182526020909120600290910201600101546201000090046001600160a01b03160361121f5783600801818154811061120957611209611aac565b9060005260206000209060020201915050611288565b6001016111a1565b5060405162461bcd60e51b815260206004820152602f60248201527f596f7520617265206e6f74207265676973746572656420746f20766f7465206960448201526e1b881d1a1a5cc81c1c9bdc1bdcd85b608a1b6064820152608401610449565b92915050565b806000036112b1576005820180549060006112a8836122e2565b91905055505050565b806001036112cb576004820180549060006112a8836122e2565b806002036112e5576006820180549060006112a8836122e2565b60405162461bcd60e51b815260206004820152600c60248201526b496e76616c696420766f746560a01b6044820152606401610449565b6000805160206122fc8339815191525460ff166104ca57604051638dfc202b60e01b815260040160405180910390fd5b7ff0c57e16840df040f15088dc2f81fe391c3923bec73e23a9662efc9c229c6a0054600160401b900460ff166104ca57604051631afcd79f60e31b815260040160405180910390fd5b610fb061134c565b6040518061010001604052806060815260200160608152602001606081526020016000151581526020016000151581526020016113f460405180606001604052806000815260200160008152602001600081525090565b815260200160608152602001606081525090565b60006020828403121561141a57600080fd5b5035919050565b6000815180845260005b818110156114475760208185018101518683018201520161142b565b506000602082860101526020601f19601f83011685010191505092915050565b600061010080835261147b8184018a611421565b9050828103602084015261148f8189611421565b905082810360408401526114a38188611421565b86151560608501528515156080850152845160a0850152602085015160c0850152604085015160e085015291506114d79050565b979650505050505050565b600082825180855260208086019550808260051b84010181860160005b8481101561155657601f1986840301895281516060815181865261152582870182611421565b838801516001600160a01b0316878901526040938401519390960192909252505097830197908301906001016114ff565b5090979650505050505050565b600082825180855260208086019550808260051b84010181860160005b8481101561155657601f198684030189528151608081518186526115a682870182611421565b838801511515878901526040808501511515908801526060938401516001600160a01b0316939096019290925250509783019790830190600101611580565b600060208083018184528085518083526040925060408601915060408160051b87010184880160005b838110156116f757603f198984030185528151610140815181865261163582870182611421565b915050888201518582038a87015261164d8282611421565b91505087820151858203898701526116658282611421565b91505060608083015161167b8288018215159052565b505060808281015180151587830152505060a082810151805187830152602081015160c0880152604081015160e0880152505060c08201518582036101008701526116c682826114e2565b91505060e082015191508481036101208601526116e38183611563565b96890196945050509086019060010161160e565b509098975050505050505050565b60006020828403121561171757600080fd5b813567ffffffffffffffff81111561172e57600080fd5b8201610140818503121561174157600080fd5b9392505050565b6000806040838503121561175b57600080fd5b50508035926020909101359150565b6001600160a01b0381168114610fe357600080fd5b6000806040838503121561179257600080fd5b8235915060208301356117a48161176a565b809150509250929050565b6000602082840312156117c157600080fd5b81356117418161176a565b600181811c908216806117e057607f821691505b6020821081036109b557634e487b7160e01b600052602260045260246000fd5b60208082526017908201527f50726f706f73616c20646f6573206e6f74206578697374000000000000000000604082015260600190565b60008154611844816117cc565b808552602060018381168015611861576001811461187b576118a9565b60ff1985168884015283151560051b8801830195506118a9565b866000528260002060005b858110156118a15781548a8201860152908301908401611886565b890184019650505b505050505092915050565b60008282548085526020808601955060208260051b84010185600052602060002060005b8481101561155657858303601f1901895260608084526118fa81850184611837565b6001848101546001600160a01b031686880152600285015460409096019590955299850199936003909301929190910190506118d8565b60008282548085526020808601955060208260051b84010185600052602060002060005b8481101561155657858303601f19018952608080845261197781850184611837565b60018481015460ff8082161515888a0152600882901c161515604088015260101c6001600160a01b03166060909601959095529985019993600290930192919091019050611955565b6020815260006101408060208401526119dd610160840185611837565b601f19808583030160408601526119f78260018801611837565b915080858303016060860152611a108260028801611837565b91506003860154611a286080870160ff831615159052565b611a3c60a0870160ff8360081c1615159052565b50600486015460c0860152600586015460e086015260068601546101008601528085830301610120860152611a7482600788016118b4565b915080858303018386015250611a8d8160088701611931565b95945050505050565b634e487b7160e01b600052604160045260246000fd5b634e487b7160e01b600052603260045260246000fd5b6000808335601e19843603018112611ad957600080fd5b83018035915067ffffffffffffffff821115611af457600080fd5b602001915036819003821315611b0957600080fd5b9250929050565b5b81811015610fa45760008155600101611b11565b601f821115611b5e57806000526020600020601f840160051c81016020851015611b4c5750805b610b6f601f850160051c830182611b10565b505050565b600019600383901b1c191660019190911b1790565b67ffffffffffffffff831115611b9057611b90611a96565b611ba483611b9e83546117cc565b83611b25565b6000601f841160018114611bd25760008515611bc05750838201355b611bca8682611b63565b845550610b6f565b600083815260209020601f19861690835b82811015611c035786850135825560209485019460019092019101611be3565b5086821015611c205760001960f88860031b161c19848701351681555b505060018560011b0183555050505050565b60008135801515811461128857600080fd5b6000808335601e19843603018112611c5b57600080fd5b83018035915067ffffffffffffffff821115611c7657600080fd5b6020019150600581901b3603821315611b0957600080fd5b60008235605e19833603018112611ca457600080fd5b9190910192915050565b634e487b7160e01b600052601160045260246000fd5b611cce81546117cc565b8015610fa457601f811160018114611ce857505060009055565b826000526020600020611d06601f840160051c820160018301611b10565b60008085559055505050565b600081356112888161176a565b611d298283611ac2565b67ffffffffffffffff811115611d4157611d41611a96565b611d5581611d4f85546117cc565b85611b25565b6000601f821160018114611d835760008315611d715750838201355b611d7b8482611b63565b865550611ddd565b600085815260209020601f19841690835b82811015611db45786850135825560209485019460019092019101611d94565b5084821015611dd15760001960f88660031b161c19848701351681555b505060018360011b0185555b50505050611e14611df060208401611d12565b6001830180546001600160a01b0319166001600160a01b0392909216919091179055565b604082013560028201555050565b600160401b831115611e3657611e36611a96565b805483825580841015611eb057600381600302600381048314611e5b57611e5b611cae565b85600302600381048714611e7157611e71611cae565b6000858152602081209283019291909101905b82821015611eab57611e9582611cc4565b8060018301558060028301558382019150611e84565b505050505b5060008181526020812083915b85811015611eee57611ed8611ed28487611c8e565b83611d1f565b6020929092019160039190910190600101611ebd565b505050505050565b60008235607e19833603018112611ca457600080fd5b611f168283611ac2565b67ffffffffffffffff811115611f2e57611f2e611a96565b611f3c81611d4f85546117cc565b6000601f821160018114611f6a5760008315611f585750838201355b611f628482611b63565b865550611fc4565b600085815260209020601f19841690835b82811015611f9b5786850135825560209485019460019092019101611f7b565b5084821015611fb85760001960f88660031b161c19848701351681555b505060018360011b0185555b5050505060018101611fef611fdb60208501611c32565b825490151560ff1660ff1991909116178255565b612018611ffe60408501611c32565b82805461ff00191691151560081b61ff0016919091179055565b611b5e61202760608501611d12565b82805462010000600160b01b03191660109290921b62010000600160b01b0316919091179055565b600160401b83111561206357612063611a96565b8054838255808410156120dd5760016001600160ff1b03828116831461208b5761208b611cae565b808616861461209c5761209c611cae565b5060008360005260206000208360011b81018760011b820191505b808210156120d8576120c882611cc4565b82848301556002820191506120b7565b505050505b5060008181526020812083915b85811015611eee576121056120ff8487611ef6565b83611f0c565b60209290920191600291909101906001016120ea565b6121258283611ac2565b67ffffffffffffffff81111561213d5761213d611a96565b61214b81611d4f85546117cc565b6000601f82116001811461217957600083156121675750838201355b6121718482611b63565b8655506121d3565b600085815260209020601f19841690835b828110156121aa578685013582556020948501946001909201910161218a565b50848210156121c75760001960f88660031b161c19848701351681555b505060018360011b0185555b505050506121e46020830183611ac2565b6121f2818360018601611b78565b50506122016040830183611ac2565b61220f818360028601611b78565b505060038101612224611fdb60608501611c32565b612233611ffe60808501611c32565b5060a0820135600482015560c0820135600582015560e08201356006820155612260610100830183611c44565b61226e818360078601611e22565b505061227e610120830183611c44565b61228c81836008860161204f565b50505050565b81835281816020850137506000828201602090810191909152601f909101601f19169091010190565b6040815260006122cf604083018688612292565b82810360208401526114d7818587612292565b6000600182016122f4576122f4611cae565b506001019056fecd5ed15c6e187e77e9aee88184c21f4f2182ab5827cb3b7e07fbedcd63f03300a264697066735822122003e4490bc77336d374bf18b8213789cd22f7b8048dee6d52e8a708438efda28764736f6c63430008180033",
  "linkReferences": {},
  "deployedLinkReferences": {}
}