{
  "_format": "hh-sol-artifact-1",
  "contractName": "Voting",
  "sourceName": "contracts/Voting/Voting.sol",
  "abi": [
    {
      "inputs": [],
      "name": "EnforcedPause",
      "type": "error"
    },
    {
      "inputs": [],
      "name": "ExpectedPause",
      "type": "error"
    },
    {
      "inputs": [],
      "name": "InvalidInitialization",
      "type": "error"
    },
    {
      "inputs": [],
      "name": "NotInitializing",
      "type": "error"
    },
    {
      "inputs": [
        {
          "internalType": "address",
          "name": "owner",
          "type": "address"
        }
      ],
      "name": "OwnableInvalidOwner",
      "type": "error"
    },
    {
      "inputs": [
        {
          "internalType": "address",
          "name": "account",
          "type": "address"
        }
      ],
      "name": "OwnableUnauthorizedAccount",
      "type": "error"
    },
    {
      "inputs": [],
      "name": "ReentrancyGuardReentrantCall",
      "type": "error"
    },
    {
      "anonymous": false,
      "inputs": [
        {
          "indexed": true,
          "internalType": "address",
          "name": "voter",
          "type": "address"
        },
        {
          "indexed": true,
          "internalType": "uint256",
          "name": "proposalId",
          "type": "uint256"
        },
        {
          "indexed": false,
          "internalType": "uint256",
          "name": "vote",
          "type": "uint256"
        }
      ],
      "name": "DirectiveVoted",
      "type": "event"
    },
    {
      "anonymous": false,
      "inputs": [
        {
          "indexed": true,
          "internalType": "address",
          "name": "voter",
          "type": "address"
        },
        {
          "indexed": true,
          "internalType": "uint256",
          "name": "proposalId",
          "type": "uint256"
        },
        {
          "indexed": true,
          "internalType": "address",
          "name": "candidateAddress",
          "type": "address"
        }
      ],
      "name": "ElectionVoted",
      "type": "event"
    },
    {
      "anonymous": false,
      "inputs": [
        {
          "indexed": false,
          "internalType": "uint64",
          "name": "version",
          "type": "uint64"
        }
      ],
      "name": "Initialized",
      "type": "event"
    },
    {
      "anonymous": false,
      "inputs": [
        {
          "indexed": true,
          "internalType": "address",
          "name": "previousOwner",
          "type": "address"
        },
        {
          "indexed": true,
          "internalType": "address",
          "name": "newOwner",
          "type": "address"
        }
      ],
      "name": "OwnershipTransferred",
      "type": "event"
    },
    {
      "anonymous": false,
      "inputs": [
        {
          "indexed": false,
          "internalType": "address",
          "name": "account",
          "type": "address"
        }
      ],
      "name": "Paused",
      "type": "event"
    },
    {
      "anonymous": false,
      "inputs": [
        {
          "indexed": true,
          "internalType": "uint256",
          "name": "proposalId",
          "type": "uint256"
        },
        {
          "indexed": false,
          "internalType": "string",
          "name": "title",
          "type": "string"
        },
        {
          "indexed": false,
          "internalType": "string",
          "name": "description",
          "type": "string"
        }
      ],
      "name": "ProposalAdded",
      "type": "event"
    },
    {
      "anonymous": false,
      "inputs": [
        {
          "indexed": true,
          "internalType": "uint256",
          "name": "proposalId",
          "type": "uint256"
        },
        {
          "components": [
            {
              "internalType": "string",
              "name": "title",
              "type": "string"
            },
            {
              "internalType": "string",
              "name": "description",
              "type": "string"
            },
            {
              "internalType": "string",
              "name": "draftedBy",
              "type": "string"
            },
            {
              "internalType": "bool",
              "name": "isElection",
              "type": "bool"
            },
            {
              "internalType": "bool",
              "name": "isActive",
              "type": "bool"
            },
            {
              "components": [
                {
                  "internalType": "uint256",
                  "name": "yes",
                  "type": "uint256"
                },
                {
                  "internalType": "uint256",
                  "name": "no",
                  "type": "uint256"
                },
                {
                  "internalType": "uint256",
                  "name": "abstain",
                  "type": "uint256"
                }
              ],
              "internalType": "struct Types.DirectiveVotes",
              "name": "votes",
              "type": "tuple"
            },
            {
              "components": [
                {
                  "internalType": "string",
                  "name": "name",
                  "type": "string"
                },
                {
                  "internalType": "address",
                  "name": "candidateAddress",
                  "type": "address"
                },
                {
                  "internalType": "uint256",
                  "name": "votes",
                  "type": "uint256"
                }
              ],
              "internalType": "struct Types.Candidate[]",
              "name": "candidates",
              "type": "tuple[]"
            },
            {
              "components": [
                {
                  "internalType": "string",
                  "name": "name",
                  "type": "string"
                },
                {
                  "internalType": "bool",
                  "name": "isEligible",
                  "type": "bool"
                },
                {
                  "internalType": "bool",
                  "name": "isVoted",
                  "type": "bool"
                },
                {
                  "internalType": "address",
                  "name": "memberAddress",
                  "type": "address"
                }
              ],
              "internalType": "struct Types.Member[]",
              "name": "voters",
              "type": "tuple[]"
            }
          ],
          "indexed": false,
          "internalType": "struct Types.Proposal",
          "name": "proposal",
          "type": "tuple"
        }
      ],
      "name": "ProposalConcluded",
      "type": "event"
    },
    {
      "anonymous": false,
      "inputs": [
        {
          "indexed": false,
          "internalType": "address",
          "name": "account",
          "type": "address"
        }
      ],
      "name": "Unpaused",
      "type": "event"
    },
    {
      "inputs": [
        {
          "components": [
            {
              "internalType": "string",
              "name": "title",
              "type": "string"
            },
            {
              "internalType": "string",
              "name": "description",
              "type": "string"
            },
            {
              "internalType": "string",
              "name": "draftedBy",
              "type": "string"
            },
            {
              "internalType": "bool",
              "name": "isElection",
              "type": "bool"
            },
            {
              "internalType": "bool",
              "name": "isActive",
              "type": "bool"
            },
            {
              "components": [
                {
                  "internalType": "uint256",
                  "name": "yes",
                  "type": "uint256"
                },
                {
                  "internalType": "uint256",
                  "name": "no",
                  "type": "uint256"
                },
                {
                  "internalType": "uint256",
                  "name": "abstain",
                  "type": "uint256"
                }
              ],
              "internalType": "struct Types.DirectiveVotes",
              "name": "votes",
              "type": "tuple"
            },
            {
              "components": [
                {
                  "internalType": "string",
                  "name": "name",
                  "type": "string"
                },
                {
                  "internalType": "address",
                  "name": "candidateAddress",
                  "type": "address"
                },
                {
                  "internalType": "uint256",
                  "name": "votes",
                  "type": "uint256"
                }
              ],
              "internalType": "struct Types.Candidate[]",
              "name": "candidates",
              "type": "tuple[]"
            },
            {
              "components": [
                {
                  "internalType": "string",
                  "name": "name",
                  "type": "string"
                },
                {
                  "internalType": "bool",
                  "name": "isEligible",
                  "type": "bool"
                },
                {
                  "internalType": "bool",
                  "name": "isVoted",
                  "type": "bool"
                },
                {
                  "internalType": "address",
                  "name": "memberAddress",
                  "type": "address"
                }
              ],
              "internalType": "struct Types.Member[]",
              "name": "voters",
              "type": "tuple[]"
            }
          ],
          "internalType": "struct Types.Proposal",
          "name": "_proposal",
          "type": "tuple"
        }
      ],
      "name": "addProposal",
      "outputs": [],
      "stateMutability": "nonpayable",
      "type": "function"
    },
    {
      "inputs": [
        {
          "internalType": "uint256",
          "name": "proposalId",
          "type": "uint256"
        }
      ],
      "name": "concludeProposal",
      "outputs": [],
      "stateMutability": "nonpayable",
      "type": "function"
    },
    {
      "inputs": [],
      "name": "getProposals",
      "outputs": [
        {
          "components": [
            {
              "internalType": "string",
              "name": "title",
              "type": "string"
            },
            {
              "internalType": "string",
              "name": "description",
              "type": "string"
            },
            {
              "internalType": "string",
              "name": "draftedBy",
              "type": "string"
            },
            {
              "internalType": "bool",
              "name": "isElection",
              "type": "bool"
            },
            {
              "internalType": "bool",
              "name": "isActive",
              "type": "bool"
            },
            {
              "components": [
                {
                  "internalType": "uint256",
                  "name": "yes",
                  "type": "uint256"
                },
                {
                  "internalType": "uint256",
                  "name": "no",
                  "type": "uint256"
                },
                {
                  "internalType": "uint256",
                  "name": "abstain",
                  "type": "uint256"
                }
              ],
              "internalType": "struct Types.DirectiveVotes",
              "name": "votes",
              "type": "tuple"
            },
            {
              "components": [
                {
                  "internalType": "string",
                  "name": "name",
                  "type": "string"
                },
                {
                  "internalType": "address",
                  "name": "candidateAddress",
                  "type": "address"
                },
                {
                  "internalType": "uint256",
                  "name": "votes",
                  "type": "uint256"
                }
              ],
              "internalType": "struct Types.Candidate[]",
              "name": "candidates",
              "type": "tuple[]"
            },
            {
              "components": [
                {
                  "internalType": "string",
                  "name": "name",
                  "type": "string"
                },
                {
                  "internalType": "bool",
                  "name": "isEligible",
                  "type": "bool"
                },
                {
                  "internalType": "bool",
                  "name": "isVoted",
                  "type": "bool"
                },
                {
                  "internalType": "address",
                  "name": "memberAddress",
                  "type": "address"
                }
              ],
              "internalType": "struct Types.Member[]",
              "name": "voters",
              "type": "tuple[]"
            }
          ],
          "internalType": "struct Types.Proposal[]",
          "name": "",
          "type": "tuple[]"
        }
      ],
      "stateMutability": "nonpayable",
      "type": "function"
    },
    {
      "inputs": [],
      "name": "initialize",
      "outputs": [],
      "stateMutability": "nonpayable",
      "type": "function"
    },
    {
      "inputs": [],
      "name": "owner",
      "outputs": [
        {
          "internalType": "address",
          "name": "",
          "type": "address"
        }
      ],
      "stateMutability": "view",
      "type": "function"
    },
    {
      "inputs": [],
      "name": "pause",
      "outputs": [],
      "stateMutability": "nonpayable",
      "type": "function"
    },
    {
      "inputs": [],
      "name": "paused",
      "outputs": [
        {
          "internalType": "bool",
          "name": "",
          "type": "bool"
        }
      ],
      "stateMutability": "view",
      "type": "function"
    },
    {
      "inputs": [],
      "name": "proposalCount",
      "outputs": [
        {
          "internalType": "uint256",
          "name": "",
          "type": "uint256"
        }
      ],
      "stateMutability": "view",
      "type": "function"
    },
    {
      "inputs": [
        {
          "internalType": "uint256",
          "name": "",
          "type": "uint256"
        }
      ],
      "name": "proposals",
      "outputs": [
        {
          "internalType": "string",
          "name": "title",
          "type": "string"
        },
        {
          "internalType": "string",
          "name": "description",
          "type": "string"
        },
        {
          "internalType": "string",
          "name": "draftedBy",
          "type": "string"
        },
        {
          "internalType": "bool",
          "name": "isElection",
          "type": "bool"
        },
        {
          "internalType": "bool",
          "name": "isActive",
          "type": "bool"
        },
        {
          "components": [
            {
              "internalType": "uint256",
              "name": "yes",
              "type": "uint256"
            },
            {
              "internalType": "uint256",
              "name": "no",
              "type": "uint256"
            },
            {
              "internalType": "uint256",
              "name": "abstain",
              "type": "uint256"
            }
          ],
          "internalType": "struct Types.DirectiveVotes",
          "name": "votes",
          "type": "tuple"
        }
      ],
      "stateMutability": "view",
      "type": "function"
    },
    {
      "inputs": [],
      "name": "renounceOwnership",
      "outputs": [],
      "stateMutability": "nonpayable",
      "type": "function"
    },
    {
      "inputs": [
        {
          "internalType": "address",
          "name": "newOwner",
          "type": "address"
        }
      ],
      "name": "transferOwnership",
      "outputs": [],
      "stateMutability": "nonpayable",
      "type": "function"
    },
    {
      "inputs": [],
      "name": "unpause",
      "outputs": [],
      "stateMutability": "nonpayable",
      "type": "function"
    },
    {
      "inputs": [
        {
          "internalType": "uint256",
          "name": "proposalId",
          "type": "uint256"
        },
        {
          "internalType": "uint256",
          "name": "vote",
          "type": "uint256"
        }
      ],
      "name": "voteDirective",
      "outputs": [],
      "stateMutability": "nonpayable",
      "type": "function"
    },
    {
      "inputs": [
        {
          "internalType": "uint256",
          "name": "proposalId",
          "type": "uint256"
        },
        {
          "internalType": "address",
          "name": "candidateAddress",
          "type": "address"
        }
      ],
      "name": "voteElection",
      "outputs": [],
      "stateMutability": "nonpayable",
      "type": "function"
    }
  ],
  "bytecode": "0x608060405234801561001057600080fd5b50612398806100206000396000f3fe608060405234801561001057600080fd5b50600436106100ea5760003560e01c80638129fc1c1161008c57806397b3418e1161006657806397b3418e146101d7578063da35c664146101ea578063ee473c7a14610201578063f2fde38b1461021457600080fd5b80638129fc1c1461018d5780638456cb59146101955780638da5cb5b1461019d57600080fd5b80635c975abb116100c85780635c975abb1461013a57806362564c481461015d578063715018a61461017257806377ee47f61461017a57600080fd5b8063013cf08b146100ef5780631b7864c11461011d5780633f4ba83a14610132575b600080fd5b6101026100fd36600461144f565b610227565b604051610114969594939291906114ae565b60405180910390f35b61013061012b36600461144f565b610418565b005b6101306104ba565b6000805160206123438339815191525460ff166040519015158152602001610114565b6101656104cc565b604051610114919061162c565b610130610a02565b61013061018836600461174c565b610a14565b610130610aae565b610130610bbd565b7f9016d09d72d40fdae2fd8ceac6b6234c7706214fd39c1cd1e609a0528c199300546040516001600160a01b039091168152602001610114565b6101306101e536600461178f565b610bcd565b6101f360015481565b604051908152602001610114565b61013061020f3660046117c6565b610d77565b6101306102223660046117f6565b610fef565b60006020819052908152604090208054819061024290611813565b80601f016020809104026020016040519081016040528092919081815260200182805461026e90611813565b80156102bb5780601f10610290576101008083540402835291602001916102bb565b820191906000526020600020905b81548152906001019060200180831161029e57829003601f168201915b5050505050908060010180546102d090611813565b80601f01602080910402602001604051908101604052809291908181526020018280546102fc90611813565b80156103495780601f1061031e57610100808354040283529160200191610349565b820191906000526020600020905b81548152906001019060200180831161032c57829003601f168201915b50505050509080600201805461035e90611813565b80601f016020809104026020016040519081016040528092919081815260200182805461038a90611813565b80156103d75780601f106103ac576101008083540402835291602001916103d7565b820191906000526020600020905b8154815290600101906020018083116103ba57829003601f168201915b50505050600383015460408051606081018252600486015481526005860154602082015260069095015490850152919260ff80841693610100900416915086565b61042061102d565b610428611088565b60015481106104525760405162461bcd60e51b815260040161044990611847565b60405180910390fd5b6000818152602081905260409081902060038101805461ff001981166101009182900460ff1615909102179055905182917fcb95882f06f221718b79ae67f60eae0a8cb05c652bde85806d28094728c5b7a2916104af9190611a07565b60405180910390a250565b6104c261102d565b6104ca6110b9565b565b60606000600154116105155760405162461bcd60e51b8152602060048201526012602482015271139bc81c1c9bdc1bdcd85b1cc8199bdd5b9960721b6044820152606401610449565b600060015467ffffffffffffffff81111561053257610532611add565b60405190808252806020026020018201604052801561056b57816020015b6105586113e4565b8152602001906001900390816105505790505b50905060005b6001548110156109fc5760008181526020819052604090819020815161010081019092528054829082906105a490611813565b80601f01602080910402602001604051908101604052809291908181526020018280546105d090611813565b801561061d5780601f106105f25761010080835404028352916020019161061d565b820191906000526020600020905b81548152906001019060200180831161060057829003601f168201915b5050505050815260200160018201805461063690611813565b80601f016020809104026020016040519081016040528092919081815260200182805461066290611813565b80156106af5780601f10610684576101008083540402835291602001916106af565b820191906000526020600020905b81548152906001019060200180831161069257829003601f168201915b505050505081526020016002820180546106c890611813565b80601f01602080910402602001604051908101604052809291908181526020018280546106f490611813565b80156107415780601f1061071657610100808354040283529160200191610741565b820191906000526020600020905b81548152906001019060200180831161072457829003601f168201915b5050509183525050600382015460ff808216151560208085019190915261010090920416151560408084019190915280516060818101835260048601548252600586015482850152600686015482840152840152600784018054825181850281018501909352808352608090940193919290919060009084015b828210156108a257838290600052602060002090600302016040518060600160405290816000820180546107ee90611813565b80601f016020809104026020016040519081016040528092919081815260200182805461081a90611813565b80156108675780601f1061083c57610100808354040283529160200191610867565b820191906000526020600020905b81548152906001019060200180831161084a57829003601f168201915b50505091835250506001828101546001600160a01b0316602080840191909152600290930154604090920191909152918352920191016107bb565b50505050815260200160088201805480602002602001604051908101604052809291908181526020016000905b828210156109cf578382906000526020600020906002020160405180608001604052908160008201805461090290611813565b80601f016020809104026020016040519081016040528092919081815260200182805461092e90611813565b801561097b5780601f106109505761010080835404028352916020019161097b565b820191906000526020600020905b81548152906001019060200180831161095e57829003601f168201915b505050918352505060019182015460ff8082161515602080850191909152610100830490911615156040840152620100009091046001600160a01b03166060909201919091529183529290920191016108cf565b50505050815250508282815181106109e9576109e9611af3565b6020908102919091010152600101610571565b50919050565b610a0a61102d565b6104ca6000611119565b610a1c61102d565b610a24611088565b60015460009081526020819052604090208190610a418282612162565b50506001547f2da739368218397c1f8267a798bce5722bae1a51d2855fb923312edf27460c60610a718380611b09565b610a7e6020860186611b09565b604051610a8e9493929190612302565b60405180910390a260018054906000610aa683612329565b919050555050565b7ff0c57e16840df040f15088dc2f81fe391c3923bec73e23a9662efc9c229c6a008054600160401b810460ff16159067ffffffffffffffff16600081158015610af45750825b905060008267ffffffffffffffff166001148015610b115750303b155b905081158015610b1f575080155b15610b3d5760405163f92ee8a960e01b815260040160405180910390fd5b845467ffffffffffffffff191660011785558315610b6757845460ff60401b1916600160401b1785555b610b703361118a565b8315610bb657845460ff60401b19168555604051600181527fc7f505b2f371ae2175ee4913f4499e1f2633a7b5936321eed1cdaeb6115181d29060200160405180910390a15b5050505050565b610bc561102d565b6104ca61119b565b610bd5611088565b6001548210610bf65760405162461bcd60e51b815260040161044990611847565b600082815260208190526040902060030154610100900460ff16610c555760405162461bcd60e51b815260206004820152601660248201527550726f706f73616c206973206e6f742061637469766560501b6044820152606401610449565b600082815260208190526040812090610c6e82336111e4565b600181015490915060ff16610cc55760405162461bcd60e51b815260206004820152601c60248201527f596f7520617265206e6f7420656c696769626c6520746f20766f7465000000006044820152606401610449565b6001810154610100900460ff1615610d185760405162461bcd60e51b8152602060048201526016602482015275165bdd481a185d9948185b1c9958591e481d9bdd195960521b6044820152606401610449565b610d2282846112d5565b60018101805461ff001916610100179055604051849033907fabe5d78d7c4aff0ea01d11f7334d89bf989faef45af0c780acf4ccff6bd5c8db90610d699087815260200190565b60405180910390a350505050565b610d7f611088565b6001548210610da05760405162461bcd60e51b815260040161044990611847565b600082815260208190526040902060030154610100900460ff16610dff5760405162461bcd60e51b815260206004820152601660248201527550726f706f73616c206973206e6f742061637469766560501b6044820152606401610449565b600082815260208190526040812090610e1882336111e4565b600181015490915060ff16610e6f5760405162461bcd60e51b815260206004820152601c60248201527f596f7520617265206e6f7420656c696769626c6520746f20766f7465000000006044820152606401610449565b6001810154610100900460ff1615610ec25760405162461bcd60e51b8152602060048201526016602482015275165bdd481a185d9948185b1c9958591e481d9bdd195960521b6044820152606401610449565b60005b6007830154811015610fa257836001600160a01b0316836007018281548110610ef057610ef0611af3565b60009182526020909120600160039092020101546001600160a01b031603610f9a57826007018181548110610f2757610f27611af3565b600091825260208220600260039092020101805491610f4583612329565b909155505060018201805461ff0019166101001790556040516001600160a01b03851690869033907fe8db14efb3e399b32db39dd2829b3af23451747dba46368ce6a3d5ccefebf88290600090a45050505050565b600101610ec5565b5060405162461bcd60e51b815260206004820152601860248201527f43616e64696461746520646f6573206e6f7420657869737400000000000000006044820152606401610449565b5050565b610ff761102d565b6001600160a01b03811661102157604051631e4fbdf760e01b815260006004820152602401610449565b61102a81611119565b50565b3361105f7f9016d09d72d40fdae2fd8ceac6b6234c7706214fd39c1cd1e609a0528c199300546001600160a01b031690565b6001600160a01b0316146104ca5760405163118cdaa760e01b8152336004820152602401610449565b6000805160206123438339815191525460ff16156104ca5760405163d93c066560e01b815260040160405180910390fd5b6110c1611363565b600080516020612343833981519152805460ff191681557f5db9ee0a495bf2e6ff9c91a7834c1ba4fdd244a5e8aa4e537bd38aeae4b073aa335b6040516001600160a01b03909116815260200160405180910390a150565b7f9016d09d72d40fdae2fd8ceac6b6234c7706214fd39c1cd1e609a0528c19930080546001600160a01b031981166001600160a01b03848116918217845560405192169182907f8be0079c531659141344cd1fd0a4f28419497f9722a3daafe3b4186f6b6457e090600090a3505050565b611192611393565b61102a816113dc565b6111a3611088565b600080516020612343833981519152805460ff191660011781557f62e78cea01bee320cd4e420270b5ea74000d11b0c9f74754ebdbfc544b05a258336110fb565b6000805b600884015481101561126e57826001600160a01b031684600801828154811061121357611213611af3565b60009182526020909120600290910201600101546201000090046001600160a01b0316036112665783600801818154811061125057611250611af3565b90600052602060002090600202019150506112cf565b6001016111e8565b5060405162461bcd60e51b815260206004820152602f60248201527f596f7520617265206e6f74207265676973746572656420746f20766f7465206960448201526e1b881d1a1a5cc81c1c9bdc1bdcd85b608a1b6064820152608401610449565b92915050565b806000036112f8576005820180549060006112ef83612329565b91905055505050565b80600103611312576004820180549060006112ef83612329565b8060020361132c576006820180549060006112ef83612329565b60405162461bcd60e51b815260206004820152600c60248201526b496e76616c696420766f746560a01b6044820152606401610449565b6000805160206123438339815191525460ff166104ca57604051638dfc202b60e01b815260040160405180910390fd5b7ff0c57e16840df040f15088dc2f81fe391c3923bec73e23a9662efc9c229c6a0054600160401b900460ff166104ca57604051631afcd79f60e31b815260040160405180910390fd5b610ff7611393565b60405180610100016040528060608152602001606081526020016060815260200160001515815260200160001515815260200161143b60405180606001604052806000815260200160008152602001600081525090565b815260200160608152602001606081525090565b60006020828403121561146157600080fd5b5035919050565b6000815180845260005b8181101561148e57602081850181015186830182015201611472565b506000602082860101526020601f19601f83011685010191505092915050565b60006101008083526114c28184018a611468565b905082810360208401526114d68189611468565b905082810360408401526114ea8188611468565b86151560608501528515156080850152845160a0850152602085015160c0850152604085015160e0850152915061151e9050565b979650505050505050565b600082825180855260208086019550808260051b84010181860160005b8481101561159d57601f1986840301895281516060815181865261156c82870182611468565b838801516001600160a01b031687890152604093840151939096019290925250509783019790830190600101611546565b5090979650505050505050565b600082825180855260208086019550808260051b84010181860160005b8481101561159d57601f198684030189528151608081518186526115ed82870182611468565b838801511515878901526040808501511515908801526060938401516001600160a01b03169390960192909252505097830197908301906001016115c7565b600060208083018184528085518083526040925060408601915060408160051b87010184880160005b8381101561173e57603f198984030185528151610140815181865261167c82870182611468565b915050888201518582038a8701526116948282611468565b91505087820151858203898701526116ac8282611468565b9150506060808301516116c28288018215159052565b505060808281015180151587830152505060a082810151805187830152602081015160c0880152604081015160e0880152505060c082015185820361010087015261170d8282611529565b91505060e0820151915084810361012086015261172a81836115aa565b968901969450505090860190600101611655565b509098975050505050505050565b60006020828403121561175e57600080fd5b813567ffffffffffffffff81111561177557600080fd5b8201610140818503121561178857600080fd5b9392505050565b600080604083850312156117a257600080fd5b50508035926020909101359150565b6001600160a01b038116811461102a57600080fd5b600080604083850312156117d957600080fd5b8235915060208301356117eb816117b1565b809150509250929050565b60006020828403121561180857600080fd5b8135611788816117b1565b600181811c9082168061182757607f821691505b6020821081036109fc57634e487b7160e01b600052602260045260246000fd5b60208082526017908201527f50726f706f73616c20646f6573206e6f74206578697374000000000000000000604082015260600190565b6000815461188b81611813565b8085526020600183811680156118a857600181146118c2576118f0565b60ff1985168884015283151560051b8801830195506118f0565b866000528260002060005b858110156118e85781548a82018601529083019084016118cd565b890184019650505b505050505092915050565b60008282548085526020808601955060208260051b84010185600052602060002060005b8481101561159d57858303601f1901895260608084526119418185018461187e565b6001848101546001600160a01b0316868801526002850154604090960195909552998501999360039093019291909101905061191f565b60008282548085526020808601955060208260051b84010185600052602060002060005b8481101561159d57858303601f1901895260808084526119be8185018461187e565b60018481015460ff8082161515888a0152600882901c161515604088015260101c6001600160a01b0316606090960195909552998501999360029093019291909101905061199c565b602081526000610140806020840152611a2461016084018561187e565b601f1980858303016040860152611a3e826001880161187e565b915080858303016060860152611a57826002880161187e565b91506003860154611a6f6080870160ff831615159052565b611a8360a0870160ff8360081c1615159052565b50600486015460c0860152600586015460e086015260068601546101008601528085830301610120860152611abb82600788016118fb565b915080858303018386015250611ad48160088701611978565b95945050505050565b634e487b7160e01b600052604160045260246000fd5b634e487b7160e01b600052603260045260246000fd5b6000808335601e19843603018112611b2057600080fd5b83018035915067ffffffffffffffff821115611b3b57600080fd5b602001915036819003821315611b5057600080fd5b9250929050565b5b81811015610feb5760008155600101611b58565b601f821115611ba557806000526020600020601f840160051c81016020851015611b935750805b610bb6601f850160051c830182611b57565b505050565b600019600383901b1c191660019190911b1790565b67ffffffffffffffff831115611bd757611bd7611add565b611beb83611be58354611813565b83611b6c565b6000601f841160018114611c195760008515611c075750838201355b611c118682611baa565b845550610bb6565b600083815260209020601f19861690835b82811015611c4a5786850135825560209485019460019092019101611c2a565b5086821015611c675760001960f88860031b161c19848701351681555b505060018560011b0183555050505050565b6000813580151581146112cf57600080fd5b6000808335601e19843603018112611ca257600080fd5b83018035915067ffffffffffffffff821115611cbd57600080fd5b6020019150600581901b3603821315611b5057600080fd5b60008235605e19833603018112611ceb57600080fd5b9190910192915050565b634e487b7160e01b600052601160045260246000fd5b611d158154611813565b8015610feb57601f811160018114611d2f57505060009055565b826000526020600020611d4d601f840160051c820160018301611b57565b60008085559055505050565b600081356112cf816117b1565b611d708283611b09565b67ffffffffffffffff811115611d8857611d88611add565b611d9c81611d968554611813565b85611b6c565b6000601f821160018114611dca5760008315611db85750838201355b611dc28482611baa565b865550611e24565b600085815260209020601f19841690835b82811015611dfb5786850135825560209485019460019092019101611ddb565b5084821015611e185760001960f88660031b161c19848701351681555b505060018360011b0185555b50505050611e5b611e3760208401611d59565b6001830180546001600160a01b0319166001600160a01b0392909216919091179055565b604082013560028201555050565b600160401b831115611e7d57611e7d611add565b805483825580841015611ef757600381600302600381048314611ea257611ea2611cf5565b85600302600381048714611eb857611eb8611cf5565b6000858152602081209283019291909101905b82821015611ef257611edc82611d0b565b8060018301558060028301558382019150611ecb565b505050505b5060008181526020812083915b85811015611f3557611f1f611f198487611cd5565b83611d66565b6020929092019160039190910190600101611f04565b505050505050565b60008235607e19833603018112611ceb57600080fd5b611f5d8283611b09565b67ffffffffffffffff811115611f7557611f75611add565b611f8381611d968554611813565b6000601f821160018114611fb15760008315611f9f5750838201355b611fa98482611baa565b86555061200b565b600085815260209020601f19841690835b82811015611fe25786850135825560209485019460019092019101611fc2565b5084821015611fff5760001960f88660031b161c19848701351681555b505060018360011b0185555b505050506001810161203661202260208501611c79565b825490151560ff1660ff1991909116178255565b61205f61204560408501611c79565b82805461ff00191691151560081b61ff0016919091179055565b611ba561206e60608501611d59565b82805462010000600160b01b03191660109290921b62010000600160b01b0316919091179055565b600160401b8311156120aa576120aa611add565b8054838255808410156121245760016001600160ff1b0382811683146120d2576120d2611cf5565b80861686146120e3576120e3611cf5565b5060008360005260206000208360011b81018760011b820191505b8082101561211f5761210f82611d0b565b82848301556002820191506120fe565b505050505b5060008181526020812083915b85811015611f355761214c6121468487611f3d565b83611f53565b6020929092019160029190910190600101612131565b61216c8283611b09565b67ffffffffffffffff81111561218457612184611add565b61219281611d968554611813565b6000601f8211600181146121c057600083156121ae5750838201355b6121b88482611baa565b86555061221a565b600085815260209020601f19841690835b828110156121f157868501358255602094850194600190920191016121d1565b508482101561220e5760001960f88660031b161c19848701351681555b505060018360011b0185555b5050505061222b6020830183611b09565b612239818360018601611bbf565b50506122486040830183611b09565b612256818360028601611bbf565b50506003810161226b61202260608501611c79565b61227a61204560808501611c79565b5060a0820135600482015560c0820135600582015560e082013560068201556122a7610100830183611c8b565b6122b5818360078601611e69565b50506122c5610120830183611c8b565b6122d3818360088601612096565b50505050565b81835281816020850137506000828201602090810191909152601f909101601f19169091010190565b6040815260006123166040830186886122d9565b828103602084015261151e8185876122d9565b60006001820161233b5761233b611cf5565b506001019056fecd5ed15c6e187e77e9aee88184c21f4f2182ab5827cb3b7e07fbedcd63f03300a2646970667358221220024a2cf584d36a9789f7062ad71786a18776b28c21b7ca1ee99ad6bed519b01c64736f6c63430008180033",
  "linkReferences": {},
  "deployedLinkReferences": {}
}