{
  "_format": "hh-sol-artifact-1",
  "contractName": "Voting",
  "sourceName": "contracts/Voting/Voting.sol",
  "abi": [
    {
      "inputs": [],
      "name": "EnforcedPause",
      "type": "error"
    },
    {
      "inputs": [],
      "name": "ExpectedPause",
      "type": "error"
    },
    {
      "inputs": [],
      "name": "InvalidInitialization",
      "type": "error"
    },
    {
      "inputs": [],
      "name": "NotInitializing",
      "type": "error"
    },
    {
      "inputs": [
        {
          "internalType": "address",
          "name": "owner",
          "type": "address"
        }
      ],
      "name": "OwnableInvalidOwner",
      "type": "error"
    },
    {
      "inputs": [
        {
          "internalType": "address",
          "name": "account",
          "type": "address"
        }
      ],
      "name": "OwnableUnauthorizedAccount",
      "type": "error"
    },
    {
      "inputs": [],
      "name": "ReentrancyGuardReentrantCall",
      "type": "error"
    },
    {
      "anonymous": false,
      "inputs": [
        {
          "indexed": false,
          "internalType": "address[]",
          "name": "boardOfDirectors",
          "type": "address[]"
        }
      ],
      "name": "BoardOfDirectorsSet",
      "type": "event"
    },
    {
      "anonymous": false,
      "inputs": [
        {
          "indexed": true,
          "internalType": "address",
          "name": "voter",
          "type": "address"
        },
        {
          "indexed": true,
          "internalType": "uint256",
          "name": "proposalId",
          "type": "uint256"
        },
        {
          "indexed": false,
          "internalType": "uint256",
          "name": "vote",
          "type": "uint256"
        }
      ],
      "name": "DirectiveVoted",
      "type": "event"
    },
    {
      "anonymous": false,
      "inputs": [
        {
          "indexed": true,
          "internalType": "address",
          "name": "voter",
          "type": "address"
        },
        {
          "indexed": true,
          "internalType": "uint256",
          "name": "proposalId",
          "type": "uint256"
        },
        {
          "indexed": true,
          "internalType": "address",
          "name": "candidateAddress",
          "type": "address"
        }
      ],
      "name": "ElectionVoted",
      "type": "event"
    },
    {
      "anonymous": false,
      "inputs": [
        {
          "indexed": false,
          "internalType": "uint64",
          "name": "version",
          "type": "uint64"
        }
      ],
      "name": "Initialized",
      "type": "event"
    },
    {
      "anonymous": false,
      "inputs": [
        {
          "indexed": true,
          "internalType": "address",
          "name": "previousOwner",
          "type": "address"
        },
        {
          "indexed": true,
          "internalType": "address",
          "name": "newOwner",
          "type": "address"
        }
      ],
      "name": "OwnershipTransferred",
      "type": "event"
    },
    {
      "anonymous": false,
      "inputs": [
        {
          "indexed": false,
          "internalType": "address",
          "name": "account",
          "type": "address"
        }
      ],
      "name": "Paused",
      "type": "event"
    },
    {
      "anonymous": false,
      "inputs": [
        {
          "indexed": true,
          "internalType": "uint256",
          "name": "proposalId",
          "type": "uint256"
        },
        {
          "indexed": false,
          "internalType": "string",
          "name": "title",
          "type": "string"
        },
        {
          "indexed": false,
          "internalType": "string",
          "name": "description",
          "type": "string"
        }
      ],
      "name": "ProposalAdded",
      "type": "event"
    },
    {
      "anonymous": false,
      "inputs": [
        {
          "indexed": true,
          "internalType": "uint256",
          "name": "proposalId",
          "type": "uint256"
        },
        {
          "indexed": false,
          "internalType": "bool",
          "name": "isActive",
          "type": "bool"
        }
      ],
      "name": "ProposalConcluded",
      "type": "event"
    },
    {
      "anonymous": false,
      "inputs": [
        {
          "indexed": false,
          "internalType": "address",
          "name": "account",
          "type": "address"
        }
      ],
      "name": "Unpaused",
      "type": "event"
    },
    {
      "inputs": [
        {
          "internalType": "string",
          "name": "_title",
          "type": "string"
        },
        {
          "internalType": "string",
          "name": "_description",
          "type": "string"
        },
        {
          "internalType": "bool",
          "name": "_isElection",
          "type": "bool"
        },
        {
          "internalType": "uint256",
          "name": "_winnerCount",
          "type": "uint256"
        },
        {
          "internalType": "address[]",
          "name": "_voters",
          "type": "address[]"
        },
        {
          "internalType": "address[]",
          "name": "_candidates",
          "type": "address[]"
        }
      ],
      "name": "addProposal",
      "outputs": [],
      "stateMutability": "nonpayable",
      "type": "function"
    },
    {
      "inputs": [],
      "name": "boardOfDirectorsContractAddress",
      "outputs": [
        {
          "internalType": "address",
          "name": "",
          "type": "address"
        }
      ],
      "stateMutability": "view",
      "type": "function"
    },
    {
      "inputs": [
        {
          "internalType": "uint256",
          "name": "proposalId",
          "type": "uint256"
        }
      ],
      "name": "concludeProposal",
      "outputs": [],
      "stateMutability": "nonpayable",
      "type": "function"
    },
    {
      "inputs": [
        {
          "internalType": "uint256",
          "name": "proposalId",
          "type": "uint256"
        }
      ],
      "name": "getProposalById",
      "outputs": [
        {
          "components": [
            {
              "internalType": "uint256",
              "name": "id",
              "type": "uint256"
            },
            {
              "internalType": "string",
              "name": "title",
              "type": "string"
            },
            {
              "internalType": "string",
              "name": "description",
              "type": "string"
            },
            {
              "internalType": "address",
              "name": "draftedBy",
              "type": "address"
            },
            {
              "internalType": "bool",
              "name": "isElection",
              "type": "bool"
            },
            {
              "internalType": "bool",
              "name": "isActive",
              "type": "bool"
            },
            {
              "internalType": "uint256",
              "name": "winnerCount",
              "type": "uint256"
            },
            {
              "components": [
                {
                  "internalType": "uint256",
                  "name": "yes",
                  "type": "uint256"
                },
                {
                  "internalType": "uint256",
                  "name": "no",
                  "type": "uint256"
                },
                {
                  "internalType": "uint256",
                  "name": "abstain",
                  "type": "uint256"
                }
              ],
              "internalType": "struct Types.DirectiveVotes",
              "name": "votes",
              "type": "tuple"
            },
            {
              "components": [
                {
                  "internalType": "address",
                  "name": "candidateAddress",
                  "type": "address"
                },
                {
                  "internalType": "uint256",
                  "name": "votes",
                  "type": "uint256"
                }
              ],
              "internalType": "struct Types.Candidate[]",
              "name": "candidates",
              "type": "tuple[]"
            },
            {
              "components": [
                {
                  "internalType": "bool",
                  "name": "isEligible",
                  "type": "bool"
                },
                {
                  "internalType": "bool",
                  "name": "isVoted",
                  "type": "bool"
                },
                {
                  "internalType": "address",
                  "name": "memberAddress",
                  "type": "address"
                }
              ],
              "internalType": "struct Types.Member[]",
              "name": "voters",
              "type": "tuple[]"
            }
          ],
          "internalType": "struct Types.Proposal",
          "name": "",
          "type": "tuple"
        }
      ],
      "stateMutability": "view",
      "type": "function"
    },
    {
      "inputs": [],
      "name": "initialize",
      "outputs": [],
      "stateMutability": "nonpayable",
      "type": "function"
    },
    {
      "inputs": [],
      "name": "owner",
      "outputs": [
        {
          "internalType": "address",
          "name": "",
          "type": "address"
        }
      ],
      "stateMutability": "view",
      "type": "function"
    },
    {
      "inputs": [],
      "name": "pause",
      "outputs": [],
      "stateMutability": "nonpayable",
      "type": "function"
    },
    {
      "inputs": [],
      "name": "paused",
      "outputs": [
        {
          "internalType": "bool",
          "name": "",
          "type": "bool"
        }
      ],
      "stateMutability": "view",
      "type": "function"
    },
    {
      "inputs": [],
      "name": "proposalCount",
      "outputs": [
        {
          "internalType": "uint256",
          "name": "",
          "type": "uint256"
        }
      ],
      "stateMutability": "view",
      "type": "function"
    },
    {
      "inputs": [
        {
          "internalType": "uint256",
          "name": "",
          "type": "uint256"
        }
      ],
      "name": "proposalsById",
      "outputs": [
        {
          "internalType": "uint256",
          "name": "id",
          "type": "uint256"
        },
        {
          "internalType": "string",
          "name": "title",
          "type": "string"
        },
        {
          "internalType": "string",
          "name": "description",
          "type": "string"
        },
        {
          "internalType": "address",
          "name": "draftedBy",
          "type": "address"
        },
        {
          "internalType": "bool",
          "name": "isElection",
          "type": "bool"
        },
        {
          "internalType": "bool",
          "name": "isActive",
          "type": "bool"
        },
        {
          "internalType": "uint256",
          "name": "winnerCount",
          "type": "uint256"
        },
        {
          "components": [
            {
              "internalType": "uint256",
              "name": "yes",
              "type": "uint256"
            },
            {
              "internalType": "uint256",
              "name": "no",
              "type": "uint256"
            },
            {
              "internalType": "uint256",
              "name": "abstain",
              "type": "uint256"
            }
          ],
          "internalType": "struct Types.DirectiveVotes",
          "name": "votes",
          "type": "tuple"
        }
      ],
      "stateMutability": "view",
      "type": "function"
    },
    {
      "inputs": [],
      "name": "renounceOwnership",
      "outputs": [],
      "stateMutability": "nonpayable",
      "type": "function"
    },
    {
      "inputs": [
        {
          "internalType": "address[]",
          "name": "_boardOfDirectors",
          "type": "address[]"
        }
      ],
      "name": "setBoardOfDirectors",
      "outputs": [],
      "stateMutability": "nonpayable",
      "type": "function"
    },
    {
      "inputs": [
        {
          "internalType": "address",
          "name": "_boardOfDirectorsContractAddress",
          "type": "address"
        }
      ],
      "name": "setBoardOfDirectorsContractAddress",
      "outputs": [],
      "stateMutability": "nonpayable",
      "type": "function"
    },
    {
      "inputs": [
        {
          "internalType": "address",
          "name": "newOwner",
          "type": "address"
        }
      ],
      "name": "transferOwnership",
      "outputs": [],
      "stateMutability": "nonpayable",
      "type": "function"
    },
    {
      "inputs": [],
      "name": "unpause",
      "outputs": [],
      "stateMutability": "nonpayable",
      "type": "function"
    },
    {
      "inputs": [
        {
          "internalType": "uint256",
          "name": "proposalId",
          "type": "uint256"
        },
        {
          "internalType": "uint256",
          "name": "vote",
          "type": "uint256"
        }
      ],
      "name": "voteDirective",
      "outputs": [],
      "stateMutability": "nonpayable",
      "type": "function"
    },
    {
      "inputs": [
        {
          "internalType": "uint256",
          "name": "proposalId",
          "type": "uint256"
        },
        {
          "internalType": "address",
          "name": "candidateAddress",
          "type": "address"
        }
      ],
      "name": "voteElection",
      "outputs": [],
      "stateMutability": "nonpayable",
      "type": "function"
    }
  ],
  "bytecode": "0x608060405234801561001057600080fd5b5061243a806100206000396000f3fe608060405234801561001057600080fd5b506004361061010b5760003560e01c80638129fc1c116100a2578063bd68d6e711610071578063bd68d6e714610235578063da35c66414610248578063ec1721931461025f578063ee473c7a14610272578063f2fde38b1461028557600080fd5b80638129fc1c146101ce5780638456cb59146101d65780638da5cb5b146101de57806397b3418e1461022257600080fd5b80635c975abb116100de5780635c975abb1461017d578063715018a6146101a057806371a5c572146101a857806376e9f102146101bb57600080fd5b80631b7864c1146101105780633656de21146101255780633f4ba83a1461014e5780634f950c1a14610156575b600080fd5b61012361011e366004611b32565b610298565b005b610138610133366004611b32565b61068c565b6040516101459190611c35565b60405180910390f35b610123610968565b610169610164366004611b32565b61097a565b604051610145989796959493929190611d2e565b6000805160206123e58339815191525460ff166040519015158152602001610145565b610123610aff565b6101236101b6366004611e9f565b610b11565b6101236101c9366004611f5c565b610b7e565b610123610f39565b610123611057565b7f9016d09d72d40fdae2fd8ceac6b6234c7706214fd39c1cd1e609a0528c199300546001600160a01b03165b6040516001600160a01b039091168152602001610145565b610123610230366004612022565b611067565b60025461020a906001600160a01b031681565b61025160015481565b604051908152602001610145565b61012361026d366004612044565b6111f5565b610123610280366004612066565b61121f565b610123610293366004612044565b611483565b60015481106102c25760405162461bcd60e51b81526004016102b990612092565b60405180910390fd5b600081815260208190526040902060038101805460ff600160a81b8083048216150260ff60a81b199092169190911791829055600160a01b909104161561064257600081600401549050600082600801805480602002602001604051908101604052809291908181526020016000905b8282101561037a576000848152602090819020604080518082019091526002850290910180546001600160a01b03168252600190810154828401529083529092019101610332565b50505050905060005b815181101561046d5760006103998260016120df565b90505b8251811015610464578281815181106103b7576103b76120f2565b6020026020010151602001518383815181106103d5576103d56120f2565b602002602001015160200151101561045c5760008383815181106103fb576103fb6120f2565b60200260200101519050838281518110610417576104176120f2565b6020026020010151848481518110610431576104316120f2565b60200260200101819052508084838151811061044f5761044f6120f2565b6020026020010181905250505b60010161039c565b50600101610383565b5060008267ffffffffffffffff81111561048957610489611db5565b6040519080825280602002602001820160405280156104b2578160200160208202803683370190505b50905060005b8381101561055b578281815181106104d2576104d26120f2565b6020026020010151600001518282815181106104f0576104f06120f2565b60200260200101906001600160a01b031690816001600160a01b0316815250506105536040518060400160405280600881526020016702bb4b73732b91d160c51b815250838381518110610546576105466120f2565b60200260200101516114c1565b6001016104b8565b506002546040516338d2e2b960e11b81526001600160a01b03909116906371a5c5729061058c908490600401612108565b600060405180830381600087803b1580156105a657600080fd5b505af11580156105ba573d6000803e3d6000fd5b505050507f48fcc37190f2613c3ad004cac1fc4ed1d270d7453ce1523fac376a70e5fb36ca816040516105ed9190612108565b60405180910390a16003840154604051600160a81b90910460ff161515815285907f628c5b5fb646e7f6c763f5e3b6fdcbee619fe1c1bc595643a1c70415a6f113499060200160405180910390a25050505050565b6003810154604051600160a81b90910460ff161515815282907f628c5b5fb646e7f6c763f5e3b6fdcbee619fe1c1bc595643a1c70415a6f113499060200160405180910390a25050565b61069461194e565b60015482106106b55760405162461bcd60e51b81526004016102b990612092565b60008281526020818152604091829020825161014081019093528054835260018101805491928401916106e790612155565b80601f016020809104026020016040519081016040528092919081815260200182805461071390612155565b80156107605780601f1061073557610100808354040283529160200191610760565b820191906000526020600020905b81548152906001019060200180831161074357829003601f168201915b5050505050815260200160028201805461077990612155565b80601f01602080910402602001604051908101604052809291908181526020018280546107a590612155565b80156107f25780601f106107c7576101008083540402835291602001916107f2565b820191906000526020600020905b8154815290600101906020018083116107d557829003601f168201915b505050918352505060038201546001600160a01b03811660208084019190915260ff600160a01b830481161515604080860191909152600160a81b90930416151560608085019190915260048501546080850152825190810183526005850154815260068501548183015260078501548184015260a084015260088401805483518184028101840190945280845260c090940193909160009084015b828210156108d6576000848152602090819020604080518082019091526002850290910180546001600160a01b0316825260019081015482840152908352909201910161088e565b50505050815260200160098201805480602002602001604051908101604052809291908181526020016000905b8282101561095a576000848152602090819020604080516060810182529185015460ff808216151584526101008204161515838501526201000090046001600160a01b031690820152825260019092019101610903565b505050915250909392505050565b61097061150a565b610978611565565b565b6000602081905290815260409020805460018201805491929161099c90612155565b80601f01602080910402602001604051908101604052809291908181526020018280546109c890612155565b8015610a155780601f106109ea57610100808354040283529160200191610a15565b820191906000526020600020905b8154815290600101906020018083116109f857829003601f168201915b505050505090806002018054610a2a90612155565b80601f0160208091040260200160405190810160405280929190818152602001828054610a5690612155565b8015610aa35780601f10610a7857610100808354040283529160200191610aa3565b820191906000526020600020905b815481529060010190602001808311610a8657829003601f168201915b505050600384015460048501546040805160608101825260058801548152600688015460208201526007909701549087015293946001600160a01b0382169460ff600160a01b840481169550600160a81b909304909216925088565b610b0761150a565b61097860006115c5565b610b1961150a565b6002546040516338d2e2b960e11b81526001600160a01b03909116906371a5c57290610b49908490600401612108565b600060405180830381600087803b158015610b6357600080fd5b505af1158015610b77573d6000803e3d6000fd5b5050505050565b6000865111610bc75760405162461bcd60e51b81526020600482015260156024820152745469746c652063616e6e6f7420626520656d70747960581b60448201526064016102b9565b600180546000818152602081905260409020908155908101610be988826121e0565b5060028101610bf887826121e0565b50600381018054600160a81b6001600160a81b03199091163360ff60a01b191617600160a01b881515021760ff60a81b19161790556004810184905560005b8351811015610cf45760006040518060600160405280600115158152602001600015158152602001868481518110610c7157610c716120f2565b6020908102919091018101516001600160a01b039081169092526009860180546001818101835560009283529183902085519101805493860151604090960151909416620100000262010000600160b01b03199515156101000261ff00199215159290921661ffff19909416939093171793909316179055919091019050610c37565b508415610de1576000825111610d4c5760405162461bcd60e51b815260206004820152601a60248201527f43616e646964617465732063616e6e6f7420626520656d70747900000000000060448201526064016102b9565b60005b8251811015610ddf5760006040518060400160405280858481518110610d7757610d776120f2565b6020908102919091018101516001600160a01b03908116835260009282018390526008870180546001808201835591855293839020855160029095020180546001600160a01b0319169490921693909317815592015191810191909155919091019050610d4f565b505b60018054600090815260208190526040902082548155829181810190610e09908401826122a0565b50600281810190610e1c908401826122a0565b506003828101805491830180546001600160a01b031981166001600160a01b039094169384178255825460ff600160a01b91829004811615159091026001600160a81b0319909216909417178082559154600160a81b90819004909316151590920260ff60a81b199091161790556004808301549082015560058083015490820155600680830154908201556007808301549082015560088083018054610ec692840191906119d0565b5060098281018054610edb9284019190611a48565b509050506001547f2da739368218397c1f8267a798bce5722bae1a51d2855fb923312edf27460c608888604051610f13929190612373565b60405180910390a260018054906000610f2b836123a1565b919050555050505050505050565b7ff0c57e16840df040f15088dc2f81fe391c3923bec73e23a9662efc9c229c6a008054600160401b810460ff16159067ffffffffffffffff16600081158015610f7f5750825b905060008267ffffffffffffffff166001148015610f9c5750303b155b905081158015610faa575080155b15610fc85760405163f92ee8a960e01b815260040160405180910390fd5b845467ffffffffffffffff191660011785558315610ff257845460ff60401b1916600160401b1785555b610ffb33611636565b611003611647565b61100b611657565b8315610b7757845460ff60401b19168555604051600181527fc7f505b2f371ae2175ee4913f4499e1f2633a7b5936321eed1cdaeb6115181d29060200160405180910390a15050505050565b61105f61150a565b610978611667565b60015482106110885760405162461bcd60e51b81526004016102b990612092565b60008281526020819052604090206003810154600160a81b900460ff166110ea5760405162461bcd60e51b815260206004820152601660248201527550726f706f73616c206973206e6f742061637469766560501b60448201526064016102b9565b60006110f682336116b0565b805490915060ff1661114a5760405162461bcd60e51b815260206004820152601c60248201527f596f7520617265206e6f7420656c696769626c6520746f20766f74650000000060448201526064016102b9565b8054610100900460ff161561119a5760405162461bcd60e51b8152602060048201526016602482015275165bdd481a185d9948185b1c9958591e481d9bdd195960521b60448201526064016102b9565b6111a48284611795565b805461ff001916610100178155604051849033907fabe5d78d7c4aff0ea01d11f7334d89bf989faef45af0c780acf4ccff6bd5c8db906111e79087815260200190565b60405180910390a350505050565b6111fd61150a565b600280546001600160a01b0319166001600160a01b0392909216919091179055565b60015482106112405760405162461bcd60e51b81526004016102b990612092565b60008281526020819052604090206003810154600160a81b900460ff166112a25760405162461bcd60e51b815260206004820152601660248201527550726f706f73616c206973206e6f742061637469766560501b60448201526064016102b9565b60006112ae82336116b0565b805490915060ff166113025760405162461bcd60e51b815260206004820152601c60248201527f596f7520617265206e6f7420656c696769626c6520746f20766f74650000000060448201526064016102b9565b8054610100900460ff16156113525760405162461bcd60e51b8152602060048201526016602482015275165bdd481a185d9948185b1c9958591e481d9bdd195960521b60448201526064016102b9565b6000805b60088401548110156113e957846001600160a01b0316846008018281548110611381576113816120f2565b60009182526020909120600290910201546001600160a01b0316036113e1578360080181815481106113b5576113b56120f2565b6000918252602082206001600290920201018054916113d3836123a1565b9190505550600191506113e9565b600101611356565b50806114375760405162461bcd60e51b815260206004820152601860248201527f43616e64696461746520646f6573206e6f74206578697374000000000000000060448201526064016102b9565b815461ff0019166101001782556040516001600160a01b03851690869033907fe8db14efb3e399b32db39dd2829b3af23451747dba46368ce6a3d5ccefebf88290600090a45050505050565b61148b61150a565b6001600160a01b0381166114b557604051631e4fbdf760e01b8152600060048201526024016102b9565b6114be816115c5565b50565b61150682826040516024016114d79291906123ba565b60408051601f198184030181529190526020810180516001600160e01b031663319af33360e01b179052611823565b5050565b3361153c7f9016d09d72d40fdae2fd8ceac6b6234c7706214fd39c1cd1e609a0528c199300546001600160a01b031690565b6001600160a01b0316146109785760405163118cdaa760e01b81523360048201526024016102b9565b61156d61182c565b6000805160206123e5833981519152805460ff191681557f5db9ee0a495bf2e6ff9c91a7834c1ba4fdd244a5e8aa4e537bd38aeae4b073aa335b6040516001600160a01b03909116815260200160405180910390a150565b7f9016d09d72d40fdae2fd8ceac6b6234c7706214fd39c1cd1e609a0528c19930080546001600160a01b031981166001600160a01b03848116918217845560405192169182907f8be0079c531659141344cd1fd0a4f28419497f9722a3daafe3b4186f6b6457e090600090a3505050565b61163e61185c565b6114be816118a5565b61164f61185c565b6109786118ad565b61165f61185c565b6109786118db565b61166f6118fc565b6000805160206123e5833981519152805460ff191660011781557f62e78cea01bee320cd4e420270b5ea74000d11b0c9f74754ebdbfc544b05a258336115a7565b6000805b600984015481101561172e57826001600160a01b03168460090182815481106116df576116df6120f2565b6000918252602090912001546201000090046001600160a01b03160361172657836009018181548110611714576117146120f2565b9060005260206000200191505061178f565b6001016116b4565b5060405162461bcd60e51b815260206004820152602f60248201527f596f7520617265206e6f74207265676973746572656420746f20766f7465206960448201526e1b881d1a1a5cc81c1c9bdc1bdcd85b608a1b60648201526084016102b9565b92915050565b806000036117b8576006820180549060006117af836123a1565b91905055505050565b806001036117d2576005820180549060006117af836123a1565b806002036117ec576007820180549060006117af836123a1565b60405162461bcd60e51b815260206004820152600c60248201526b496e76616c696420766f746560a01b60448201526064016102b9565b6114be8161192d565b6000805160206123e58339815191525460ff1661097857604051638dfc202b60e01b815260040160405180910390fd5b7ff0c57e16840df040f15088dc2f81fe391c3923bec73e23a9662efc9c229c6a0054600160401b900460ff1661097857604051631afcd79f60e31b815260040160405180910390fd5b61148b61185c565b6118b561185c565b60017f9b779b17422d0df92223018b32b4d1fa46e071723d6817e2486d003becc55f0055565b6118e361185c565b6000805160206123e5833981519152805460ff19169055565b6000805160206123e58339815191525460ff16156109785760405163d93c066560e01b815260040160405180910390fd5b60006a636f6e736f6c652e6c6f679050600080835160208501845afa505050565b60405180610140016040528060008152602001606081526020016060815260200160006001600160a01b03168152602001600015158152602001600015158152602001600081526020016119bc60405180606001604052806000815260200160008152602001600081525090565b815260200160608152602001606081525090565b828054828255906000526020600020906002028101928215611a385760005260206000209160020282015b82811115611a3857825482546001600160a01b0319166001600160a01b0390911617825560018084015490830155600292830192909101906119fb565b50611a44929150611aed565b5090565b828054828255906000526020600020908101928215611ae15760005260206000209182015b82811115611ae1578254825460ff918216151560ff19821681178555855461010090819004909316151590920261ff001990921661ffff19909116171780835583546001600160a01b036201000091829004160262010000600160b01b031990911617825560019283019290910190611a6d565b50611a44929150611b13565b5b80821115611a445780546001600160a01b031916815560006001820155600201611aee565b5b80821115611a445780546001600160b01b0319168155600101611b14565b600060208284031215611b4457600080fd5b5035919050565b6000815180845260005b81811015611b7157602081850181015186830182015201611b55565b506000602082860101526020601f19601f83011685010191505092915050565b60008151808452602080850194506020840160005b83811015611bd657815180516001600160a01b031688528301518388015260409096019590820190600101611ba6565b509495945050505050565b60008151808452602080850194506020840160005b83811015611bd6578151805115158852838101511515848901526040908101516001600160a01b03169088015260609096019590820190600101611bf6565b602081528151602082015260006020830151610180806040850152611c5e6101a0850183611b4b565b91506040850151601f1980868503016060870152611c7c8483611b4b565b935060608701519150611c9a60808701836001600160a01b03169052565b608087015180151560a0880152915060a087015180151560c0880152915060c087015160e087015260e08701519150610100611cec818801848051825260208082015190830152604090810151910152565b87015186850382016101608801529150611d068483611b91565b9350610120870151915080868503018387015250611d248382611be1565b9695505050505050565b60006101408a8352806020840152611d488184018b611b4b565b90508281036040840152611d5c818a611b4b565b6001600160a01b0389166060850152871515608085015286151560a085015260c08401869052845160e0850152602085015161010085015260408501516101208501529150611da89050565b9998505050505050505050565b634e487b7160e01b600052604160045260246000fd5b604051601f8201601f1916810167ffffffffffffffff81118282101715611df457611df4611db5565b604052919050565b80356001600160a01b0381168114611e1357600080fd5b919050565b600082601f830112611e2957600080fd5b8135602067ffffffffffffffff821115611e4557611e45611db5565b8160051b611e54828201611dcb565b9283528481018201928281019087851115611e6e57600080fd5b83870192505b84831015611e9457611e8583611dfc565b82529183019190830190611e74565b979650505050505050565b600060208284031215611eb157600080fd5b813567ffffffffffffffff811115611ec857600080fd5b611ed484828501611e18565b949350505050565b600082601f830112611eed57600080fd5b813567ffffffffffffffff811115611f0757611f07611db5565b611f1a601f8201601f1916602001611dcb565b818152846020838601011115611f2f57600080fd5b816020850160208301376000918101602001919091529392505050565b80358015158114611e1357600080fd5b60008060008060008060c08789031215611f7557600080fd5b863567ffffffffffffffff80821115611f8d57600080fd5b611f998a838b01611edc565b97506020890135915080821115611faf57600080fd5b611fbb8a838b01611edc565b9650611fc960408a01611f4c565b9550606089013594506080890135915080821115611fe657600080fd5b611ff28a838b01611e18565b935060a089013591508082111561200857600080fd5b5061201589828a01611e18565b9150509295509295509295565b6000806040838503121561203557600080fd5b50508035926020909101359150565b60006020828403121561205657600080fd5b61205f82611dfc565b9392505050565b6000806040838503121561207957600080fd5b8235915061208960208401611dfc565b90509250929050565b60208082526017908201527f50726f706f73616c20646f6573206e6f74206578697374000000000000000000604082015260600190565b634e487b7160e01b600052601160045260246000fd5b8082018082111561178f5761178f6120c9565b634e487b7160e01b600052603260045260246000fd5b6020808252825182820181905260009190848201906040850190845b818110156121495783516001600160a01b031683529284019291840191600101612124565b50909695505050505050565b600181811c9082168061216957607f821691505b60208210810361218957634e487b7160e01b600052602260045260246000fd5b50919050565b601f8211156121db576000816000526020600020601f850160051c810160208610156121b85750805b601f850160051c820191505b818110156121d7578281556001016121c4565b5050505b505050565b815167ffffffffffffffff8111156121fa576121fa611db5565b61220e816122088454612155565b8461218f565b602080601f831160018114612243576000841561222b5750858301515b600019600386901b1c1916600185901b1785556121d7565b600085815260208120601f198616915b8281101561227257888601518255948401946001909101908401612253565b50858210156122905787850151600019600388901b60f8161c191681555b5050505050600190811b01905550565b8181036122ab575050565b6122b58254612155565b67ffffffffffffffff8111156122cd576122cd611db5565b6122db816122088454612155565b6000601f82116001811461230f57600083156122f75750848201545b600019600385901b1c1916600184901b178455610b77565b600085815260209020601f19841690600086815260209020845b838110156123495782860154825560019586019590910190602001612329565b50858310156122905793015460001960f8600387901b161c19169092555050600190811b01905550565b6040815260006123866040830185611b4b565b82810360208401526123988185611b4b565b95945050505050565b6000600182016123b3576123b36120c9565b5060010190565b6040815260006123cd6040830185611b4b565b905060018060a01b0383166020830152939250505056fecd5ed15c6e187e77e9aee88184c21f4f2182ab5827cb3b7e07fbedcd63f03300a26469706673582212201c454e01bca828c0af9d0e33e39f63cc0746bf58f1a76b22eb91a16c424c19aa64736f6c63430008180033",
  "linkReferences": {},
  "deployedLinkReferences": {}
}