{
  "_format": "hh-sol-artifact-1",
  "contractName": "Voting",
  "sourceName": "contracts/Voting/Voting.sol",
  "abi": [
    {
      "inputs": [],
      "stateMutability": "nonpayable",
      "type": "constructor"
    },
    {
      "inputs": [],
      "name": "EnforcedPause",
      "type": "error"
    },
    {
      "inputs": [],
      "name": "ExpectedPause",
      "type": "error"
    },
    {
      "inputs": [],
      "name": "InvalidInitialization",
      "type": "error"
    },
    {
      "inputs": [],
      "name": "NotInitializing",
      "type": "error"
    },
    {
      "inputs": [
        {
          "internalType": "address",
          "name": "owner",
          "type": "address"
        }
      ],
      "name": "OwnableInvalidOwner",
      "type": "error"
    },
    {
      "inputs": [
        {
          "internalType": "address",
          "name": "account",
          "type": "address"
        }
      ],
      "name": "OwnableUnauthorizedAccount",
      "type": "error"
    },
    {
      "inputs": [],
      "name": "ReentrancyGuardReentrantCall",
      "type": "error"
    },
    {
      "anonymous": false,
      "inputs": [
        {
          "indexed": true,
          "internalType": "address",
          "name": "voter",
          "type": "address"
        },
        {
          "indexed": true,
          "internalType": "uint256",
          "name": "proposalId",
          "type": "uint256"
        },
        {
          "indexed": false,
          "internalType": "uint256",
          "name": "vote",
          "type": "uint256"
        }
      ],
      "name": "DirectiveVoted",
      "type": "event"
    },
    {
      "anonymous": false,
      "inputs": [
        {
          "indexed": true,
          "internalType": "address",
          "name": "voter",
          "type": "address"
        },
        {
          "indexed": true,
          "internalType": "uint256",
          "name": "proposalId",
          "type": "uint256"
        },
        {
          "indexed": true,
          "internalType": "address",
          "name": "candidateAddress",
          "type": "address"
        }
      ],
      "name": "ElectionVoted",
      "type": "event"
    },
    {
      "anonymous": false,
      "inputs": [
        {
          "indexed": false,
          "internalType": "uint64",
          "name": "version",
          "type": "uint64"
        }
      ],
      "name": "Initialized",
      "type": "event"
    },
    {
      "anonymous": false,
      "inputs": [
        {
          "indexed": true,
          "internalType": "address",
          "name": "previousOwner",
          "type": "address"
        },
        {
          "indexed": true,
          "internalType": "address",
          "name": "newOwner",
          "type": "address"
        }
      ],
      "name": "OwnershipTransferred",
      "type": "event"
    },
    {
      "anonymous": false,
      "inputs": [
        {
          "indexed": false,
          "internalType": "address",
          "name": "account",
          "type": "address"
        }
      ],
      "name": "Paused",
      "type": "event"
    },
    {
      "anonymous": false,
      "inputs": [
        {
          "indexed": true,
          "internalType": "uint256",
          "name": "proposalId",
          "type": "uint256"
        },
        {
          "indexed": false,
          "internalType": "string",
          "name": "title",
          "type": "string"
        },
        {
          "indexed": false,
          "internalType": "string",
          "name": "description",
          "type": "string"
        }
      ],
      "name": "ProposalAdded",
      "type": "event"
    },
    {
      "anonymous": false,
      "inputs": [
        {
          "indexed": true,
          "internalType": "uint256",
          "name": "proposalId",
          "type": "uint256"
        },
        {
          "indexed": false,
          "internalType": "bool",
          "name": "isActive",
          "type": "bool"
        }
      ],
      "name": "ProposalConcluded",
      "type": "event"
    },
    {
      "anonymous": false,
      "inputs": [
        {
          "indexed": false,
          "internalType": "address",
          "name": "account",
          "type": "address"
        }
      ],
      "name": "Unpaused",
      "type": "event"
    },
    {
      "inputs": [
        {
          "components": [
            {
              "internalType": "uint256",
              "name": "id",
              "type": "uint256"
            },
            {
              "internalType": "string",
              "name": "title",
              "type": "string"
            },
            {
              "internalType": "string",
              "name": "description",
              "type": "string"
            },
            {
              "internalType": "string",
              "name": "draftedBy",
              "type": "string"
            },
            {
              "internalType": "bool",
              "name": "isElection",
              "type": "bool"
            },
            {
              "internalType": "bool",
              "name": "isActive",
              "type": "bool"
            },
            {
              "internalType": "uint256",
              "name": "teamId",
              "type": "uint256"
            },
            {
              "components": [
                {
                  "internalType": "uint256",
                  "name": "yes",
                  "type": "uint256"
                },
                {
                  "internalType": "uint256",
                  "name": "no",
                  "type": "uint256"
                },
                {
                  "internalType": "uint256",
                  "name": "abstain",
                  "type": "uint256"
                }
              ],
              "internalType": "struct Types.DirectiveVotes",
              "name": "votes",
              "type": "tuple"
            },
            {
              "components": [
                {
                  "internalType": "string",
                  "name": "name",
                  "type": "string"
                },
                {
                  "internalType": "address",
                  "name": "candidateAddress",
                  "type": "address"
                },
                {
                  "internalType": "uint256",
                  "name": "votes",
                  "type": "uint256"
                }
              ],
              "internalType": "struct Types.Candidate[]",
              "name": "candidates",
              "type": "tuple[]"
            },
            {
              "components": [
                {
                  "internalType": "string",
                  "name": "name",
                  "type": "string"
                },
                {
                  "internalType": "bool",
                  "name": "isEligible",
                  "type": "bool"
                },
                {
                  "internalType": "bool",
                  "name": "isVoted",
                  "type": "bool"
                },
                {
                  "internalType": "address",
                  "name": "memberAddress",
                  "type": "address"
                }
              ],
              "internalType": "struct Types.Member[]",
              "name": "voters",
              "type": "tuple[]"
            }
          ],
          "internalType": "struct Types.Proposal",
          "name": "_proposal",
          "type": "tuple"
        }
      ],
      "name": "addProposal",
      "outputs": [],
      "stateMutability": "nonpayable",
      "type": "function"
    },
    {
      "inputs": [
        {
          "internalType": "uint256",
          "name": "proposalId",
          "type": "uint256"
        }
      ],
      "name": "concludeProposal",
      "outputs": [],
      "stateMutability": "nonpayable",
      "type": "function"
    },
    {
      "inputs": [
        {
          "internalType": "uint256",
          "name": "proposalId",
          "type": "uint256"
        }
      ],
      "name": "getProposalById",
      "outputs": [
        {
          "components": [
            {
              "internalType": "uint256",
              "name": "id",
              "type": "uint256"
            },
            {
              "internalType": "string",
              "name": "title",
              "type": "string"
            },
            {
              "internalType": "string",
              "name": "description",
              "type": "string"
            },
            {
              "internalType": "string",
              "name": "draftedBy",
              "type": "string"
            },
            {
              "internalType": "bool",
              "name": "isElection",
              "type": "bool"
            },
            {
              "internalType": "bool",
              "name": "isActive",
              "type": "bool"
            },
            {
              "internalType": "uint256",
              "name": "teamId",
              "type": "uint256"
            },
            {
              "components": [
                {
                  "internalType": "uint256",
                  "name": "yes",
                  "type": "uint256"
                },
                {
                  "internalType": "uint256",
                  "name": "no",
                  "type": "uint256"
                },
                {
                  "internalType": "uint256",
                  "name": "abstain",
                  "type": "uint256"
                }
              ],
              "internalType": "struct Types.DirectiveVotes",
              "name": "votes",
              "type": "tuple"
            },
            {
              "components": [
                {
                  "internalType": "string",
                  "name": "name",
                  "type": "string"
                },
                {
                  "internalType": "address",
                  "name": "candidateAddress",
                  "type": "address"
                },
                {
                  "internalType": "uint256",
                  "name": "votes",
                  "type": "uint256"
                }
              ],
              "internalType": "struct Types.Candidate[]",
              "name": "candidates",
              "type": "tuple[]"
            },
            {
              "components": [
                {
                  "internalType": "string",
                  "name": "name",
                  "type": "string"
                },
                {
                  "internalType": "bool",
                  "name": "isEligible",
                  "type": "bool"
                },
                {
                  "internalType": "bool",
                  "name": "isVoted",
                  "type": "bool"
                },
                {
                  "internalType": "address",
                  "name": "memberAddress",
                  "type": "address"
                }
              ],
              "internalType": "struct Types.Member[]",
              "name": "voters",
              "type": "tuple[]"
            }
          ],
          "internalType": "struct Types.Proposal",
          "name": "",
          "type": "tuple"
        }
      ],
      "stateMutability": "view",
      "type": "function"
    },
    {
      "inputs": [],
      "name": "initialize",
      "outputs": [],
      "stateMutability": "nonpayable",
      "type": "function"
    },
    {
      "inputs": [],
      "name": "owner",
      "outputs": [
        {
          "internalType": "address",
          "name": "",
          "type": "address"
        }
      ],
      "stateMutability": "view",
      "type": "function"
    },
    {
      "inputs": [],
      "name": "paused",
      "outputs": [
        {
          "internalType": "bool",
          "name": "",
          "type": "bool"
        }
      ],
      "stateMutability": "view",
      "type": "function"
    },
    {
      "inputs": [],
      "name": "proposalCount",
      "outputs": [
        {
          "internalType": "uint256",
          "name": "",
          "type": "uint256"
        }
      ],
      "stateMutability": "view",
      "type": "function"
    },
    {
      "inputs": [
        {
          "internalType": "uint256",
          "name": "",
          "type": "uint256"
        }
      ],
      "name": "proposalsById",
      "outputs": [
        {
          "internalType": "uint256",
          "name": "id",
          "type": "uint256"
        },
        {
          "internalType": "string",
          "name": "title",
          "type": "string"
        },
        {
          "internalType": "string",
          "name": "description",
          "type": "string"
        },
        {
          "internalType": "string",
          "name": "draftedBy",
          "type": "string"
        },
        {
          "internalType": "bool",
          "name": "isElection",
          "type": "bool"
        },
        {
          "internalType": "bool",
          "name": "isActive",
          "type": "bool"
        },
        {
          "internalType": "uint256",
          "name": "teamId",
          "type": "uint256"
        },
        {
          "components": [
            {
              "internalType": "uint256",
              "name": "yes",
              "type": "uint256"
            },
            {
              "internalType": "uint256",
              "name": "no",
              "type": "uint256"
            },
            {
              "internalType": "uint256",
              "name": "abstain",
              "type": "uint256"
            }
          ],
          "internalType": "struct Types.DirectiveVotes",
          "name": "votes",
          "type": "tuple"
        }
      ],
      "stateMutability": "view",
      "type": "function"
    },
    {
      "inputs": [],
      "name": "renounceOwnership",
      "outputs": [],
      "stateMutability": "nonpayable",
      "type": "function"
    },
    {
      "inputs": [
        {
          "internalType": "address",
          "name": "newOwner",
          "type": "address"
        }
      ],
      "name": "transferOwnership",
      "outputs": [],
      "stateMutability": "nonpayable",
      "type": "function"
    },
    {
      "inputs": [
        {
          "internalType": "uint256",
          "name": "proposalId",
          "type": "uint256"
        },
        {
          "internalType": "uint256",
          "name": "vote",
          "type": "uint256"
        }
      ],
      "name": "voteDirective",
      "outputs": [],
      "stateMutability": "nonpayable",
      "type": "function"
    },
    {
      "inputs": [
        {
          "internalType": "uint256",
          "name": "proposalId",
          "type": "uint256"
        },
        {
          "internalType": "address",
          "name": "candidateAddress",
          "type": "address"
        }
      ],
      "name": "voteElection",
      "outputs": [],
      "stateMutability": "nonpayable",
      "type": "function"
    }
  ],
  "bytecode": "0x608060405234801561001057600080fd5b50612235806100206000396000f3fe608060405234801561001057600080fd5b50600436106100b45760003560e01c80638129fc1c116100715780638129fc1c1461016e5780638da5cb5b1461017657806397b3418e146101b0578063da35c664146101c3578063ee473c7a146101da578063f2fde38b146101ed57600080fd5b80631b7864c1146100b95780633656de21146100ce5780634f950c1a146100f757806350282f2d1461011e5780635c975abb14610131578063715018a614610166575b600080fd5b6100cc6100c73660046117db565b610200565b005b6100e16100dc3660046117db565b610299565b6040516100ee919061193d565b60405180910390f35b61010a6101053660046117db565b61073b565b6040516100ee989796959493929190611a3d565b6100cc61012c366004611ac9565b610939565b7fcd5ed15c6e187e77e9aee88184c21f4f2182ab5827cb3b7e07fbedcd63f033005460ff1660405190151581526020016100ee565b6100cc610cbf565b6100cc610cd3565b7f9016d09d72d40fdae2fd8ceac6b6234c7706214fd39c1cd1e609a0528c199300546040516001600160a01b0390911681526020016100ee565b6100cc6101be366004611b0c565b610df2565b6101cc60015481565b6040519081526020016100ee565b6100cc6101e8366004611b43565b610f88565b6100cc6101fb366004611b73565b6111f7565b600154811061022a5760405162461bcd60e51b815260040161022190611b90565b60405180910390fd5b6000818152602081815260409182902060048101805460ff610100808304821615810261ff0019909316929092179283905594519104909316151583529183917f628c5b5fb646e7f6c763f5e3b6fdcbee619fe1c1bc595643a1c70415a6f11349910160405180910390a25050565b6102a161155a565b60015482106102c25760405162461bcd60e51b815260040161022190611b90565b60008281526020818152604091829020825161014081019093528054835260018101805491928401916102f490611bc7565b80601f016020809104026020016040519081016040528092919081815260200182805461032090611bc7565b801561036d5780601f106103425761010080835404028352916020019161036d565b820191906000526020600020905b81548152906001019060200180831161035057829003601f168201915b5050505050815260200160028201805461038690611bc7565b80601f01602080910402602001604051908101604052809291908181526020018280546103b290611bc7565b80156103ff5780601f106103d4576101008083540402835291602001916103ff565b820191906000526020600020905b8154815290600101906020018083116103e257829003601f168201915b5050505050815260200160038201805461041890611bc7565b80601f016020809104026020016040519081016040528092919081815260200182805461044490611bc7565b80156104915780601f1061046657610100808354040283529160200191610491565b820191906000526020600020905b81548152906001019060200180831161047457829003601f168201915b5050509183525050600482015460ff808216151560208085019190915261010090920416151560408084019190915260058401546060808501919091528151908101825260068501548152600785015481840152600885015481830152608084015260098401805482518185028101850190935280835260a090940193919290919060009084015b82821015610600578382906000526020600020906003020160405180606001604052908160008201805461054c90611bc7565b80601f016020809104026020016040519081016040528092919081815260200182805461057890611bc7565b80156105c55780601f1061059a576101008083540402835291602001916105c5565b820191906000526020600020905b8154815290600101906020018083116105a857829003601f168201915b50505091835250506001828101546001600160a01b031660208084019190915260029093015460409092019190915291835292019101610519565b505050508152602001600a8201805480602002602001604051908101604052809291908181526020016000905b8282101561072d578382906000526020600020906002020160405180608001604052908160008201805461066090611bc7565b80601f016020809104026020016040519081016040528092919081815260200182805461068c90611bc7565b80156106d95780601f106106ae576101008083540402835291602001916106d9565b820191906000526020600020905b8154815290600101906020018083116106bc57829003601f168201915b505050918352505060019182015460ff8082161515602080850191909152610100830490911615156040840152620100009091046001600160a01b031660609092019190915291835292909201910161062d565b505050915250909392505050565b6000602081905290815260409020805460018201805491929161075d90611bc7565b80601f016020809104026020016040519081016040528092919081815260200182805461078990611bc7565b80156107d65780601f106107ab576101008083540402835291602001916107d6565b820191906000526020600020905b8154815290600101906020018083116107b957829003601f168201915b5050505050908060020180546107eb90611bc7565b80601f016020809104026020016040519081016040528092919081815260200182805461081790611bc7565b80156108645780601f1061083957610100808354040283529160200191610864565b820191906000526020600020905b81548152906001019060200180831161084757829003601f168201915b50505050509080600301805461087990611bc7565b80601f01602080910402602001604051908101604052809291908181526020018280546108a590611bc7565b80156108f25780601f106108c7576101008083540402835291602001916108f2565b820191906000526020600020905b8154815290600101906020018083116108d557829003601f168201915b505050506004830154600584015460408051606081018252600687015481526007870154602082015260089096015490860152929360ff8083169461010090930416925088565b60006109486020830183611c01565b90501161098f5760405162461bcd60e51b81526020600482015260156024820152745469746c652063616e6e6f7420626520656d70747960581b6044820152606401610221565b6001546000818152602081815260409091209182556109b090830183611c01565b60018301916109c0919083611ccb565b506109ce6040830183611c01565b60028301916109de919083611ccb565b506109ec6060830183611c01565b60038301916109fc919083611ccb565b50610a0d60a0830160808401611d93565b60048201805460ff1916911515919091179055610a3060c0830160a08401611d93565b6004820180549115156101000261ff001990921691909117905560c0820135600582015560005b610a65610140840184611db0565b9050811015610ace5760098201610a80610140850185611db0565b83818110610a9057610a90611dfa565b9050602002810190610aa29190611e10565b815460018101835560009283526020909220909160030201610ac48282611e3d565b5050600101610a57565b5060005b610ae0610160840184611db0565b9050811015610b4957600a8201610afb610160850185611db0565b83818110610b0b57610b0b611dfa565b9050602002810190610b1d9190611f40565b815460018101835560009283526020909220909160020201610b3f8282611f63565b5050600101610ad2565b5060e082013560068201556101008201356007820155610120820135600882015560018054600090815260208190526040902082548155829181810190610b92908401826120a6565b50600281810190610ba5908401826120a6565b50600381810190610bb8908401826120a6565b5060048281018054918301805460ff938416151560ff19821681178355925461010090819004909416151590930261ff001990921661ffff19909316929092171790556005808301549082015560068083015490820155600780830154908201556008808301549082015560098083018054610c3792840191906115d3565b50600a8281018054610c4c9284019190611663565b505060015490507f2da739368218397c1f8267a798bce5722bae1a51d2855fb923312edf27460c60610c816020850185611c01565b610c8e6040870187611c01565b604051610c9e94939291906121a6565b60405180910390a260018054906000610cb6836121d8565b91905055505050565b610cc7611235565b610cd16000611290565b565b7ff0c57e16840df040f15088dc2f81fe391c3923bec73e23a9662efc9c229c6a008054600160401b810460ff16159067ffffffffffffffff16600081158015610d195750825b905060008267ffffffffffffffff166001148015610d365750303b155b905081158015610d44575080155b15610d625760405163f92ee8a960e01b815260040160405180910390fd5b845467ffffffffffffffff191660011785558315610d8c57845460ff60401b1916600160401b1785555b610d9533611301565b610d9d611312565b610da5611322565b8315610deb57845460ff60401b19168555604051600181527fc7f505b2f371ae2175ee4913f4499e1f2633a7b5936321eed1cdaeb6115181d29060200160405180910390a15b5050505050565b6001548210610e135760405162461bcd60e51b815260040161022190611b90565b60008281526020819052604090206004810154610100900460ff16610e735760405162461bcd60e51b815260206004820152601660248201527550726f706f73616c206973206e6f742061637469766560501b6044820152606401610221565b6000610e7f8233611332565b600181015490915060ff16610ed65760405162461bcd60e51b815260206004820152601c60248201527f596f7520617265206e6f7420656c696769626c6520746f20766f7465000000006044820152606401610221565b6001810154610100900460ff1615610f295760405162461bcd60e51b8152602060048201526016602482015275165bdd481a185d9948185b1c9958591e481d9bdd195960521b6044820152606401610221565b610f338284611423565b60018101805461ff001916610100179055604051849033907fabe5d78d7c4aff0ea01d11f7334d89bf989faef45af0c780acf4ccff6bd5c8db90610f7a9087815260200190565b60405180910390a350505050565b6001548210610fa95760405162461bcd60e51b815260040161022190611b90565b60008281526020819052604090206004810154610100900460ff166110095760405162461bcd60e51b815260206004820152601660248201527550726f706f73616c206973206e6f742061637469766560501b6044820152606401610221565b60006110158233611332565b600181015490915060ff1661106c5760405162461bcd60e51b815260206004820152601c60248201527f596f7520617265206e6f7420656c696769626c6520746f20766f7465000000006044820152606401610221565b6001810154610100900460ff16156110bf5760405162461bcd60e51b8152602060048201526016602482015275165bdd481a185d9948185b1c9958591e481d9bdd195960521b6044820152606401610221565b6000805b600984015481101561115957846001600160a01b03168460090182815481106110ee576110ee611dfa565b60009182526020909120600160039092020101546001600160a01b0316036111515783600901818154811061112557611125611dfa565b600091825260208220600260039092020101805491611143836121d8565b919050555060019150611159565b6001016110c3565b50806111a75760405162461bcd60e51b815260206004820152601860248201527f43616e64696461746520646f6573206e6f7420657869737400000000000000006044820152606401610221565b60018201805461ff0019166101001790556040516001600160a01b03851690869033907fe8db14efb3e399b32db39dd2829b3af23451747dba46368ce6a3d5ccefebf88290600090a45050505050565b6111ff611235565b6001600160a01b03811661122957604051631e4fbdf760e01b815260006004820152602401610221565b61123281611290565b50565b336112677f9016d09d72d40fdae2fd8ceac6b6234c7706214fd39c1cd1e609a0528c199300546001600160a01b031690565b6001600160a01b031614610cd15760405163118cdaa760e01b8152336004820152602401610221565b7f9016d09d72d40fdae2fd8ceac6b6234c7706214fd39c1cd1e609a0528c19930080546001600160a01b031981166001600160a01b03848116918217845560405192169182907f8be0079c531659141344cd1fd0a4f28419497f9722a3daafe3b4186f6b6457e090600090a3505050565b6113096114a8565b611232816114f1565b61131a6114a8565b610cd16114f9565b61132a6114a8565b610cd1611527565b6000805b600a8401548110156113bc57826001600160a01b031684600a01828154811061136157611361611dfa565b60009182526020909120600290910201600101546201000090046001600160a01b0316036113b45783600a01818154811061139e5761139e611dfa565b906000526020600020906002020191505061141d565b600101611336565b5060405162461bcd60e51b815260206004820152602f60248201527f596f7520617265206e6f74207265676973746572656420746f20766f7465206960448201526e1b881d1a1a5cc81c1c9bdc1bdcd85b608a1b6064820152608401610221565b92915050565b8060000361143d57600782018054906000610cb6836121d8565b8060010361145757600682018054906000610cb6836121d8565b8060020361147157600882018054906000610cb6836121d8565b60405162461bcd60e51b815260206004820152600c60248201526b496e76616c696420766f746560a01b6044820152606401610221565b7ff0c57e16840df040f15088dc2f81fe391c3923bec73e23a9662efc9c229c6a0054600160401b900460ff16610cd157604051631afcd79f60e31b815260040160405180910390fd5b6111ff6114a8565b6115016114a8565b60017f9b779b17422d0df92223018b32b4d1fa46e071723d6817e2486d003becc55f0055565b61152f6114a8565b7fcd5ed15c6e187e77e9aee88184c21f4f2182ab5827cb3b7e07fbedcd63f03300805460ff19169055565b60405180610140016040528060008152602001606081526020016060815260200160608152602001600015158152602001600015158152602001600081526020016115bf60405180606001604052806000815260200160008152602001600081525090565b815260200160608152602001606081525090565b8280548282559060005260206000209060030281019282156116535760005260206000209160030282015b828111156116535782828061161383826120a6565b5060018281015490820180546001600160a01b0319166001600160a01b0390921691909117905560029182015491015560039283019291909101906115fe565b5061165f92915061172c565b5090565b8280548282559060005260206000209060020281019282156117205760005260206000209160020282015b82811115611720578282806116a383826120a6565b506001918201805491909201805460ff928316151560ff19821681178355845461010090819004909416151590930261ff001990931661ffff19909116179190911780825591546001600160a01b036201000091829004160262010000600160b01b0319909216919091179055600292830192919091019061168e565b5061165f929150611762565b8082111561165f5760006117408282611791565b506001810180546001600160a01b03191690556000600282015560030161172c565b8082111561165f5760006117768282611791565b506001810180546001600160b01b0319169055600201611762565b50805461179d90611bc7565b6000825580601f106117ad575050565b601f01602090049060005260206000209081019061123291905b8082111561165f57600081556001016117c7565b6000602082840312156117ed57600080fd5b5035919050565b6000815180845260005b8181101561181a576020818501810151868301820152016117fe565b506000602082860101526020601f19601f83011685010191505092915050565b600082825180855260208086019550808260051b84010181860160005b848110156118ae57601f1986840301895281516060815181865261187d828701826117f4565b838801516001600160a01b031687890152604093840151939096019290925250509783019790830190600101611857565b5090979650505050505050565b600082825180855260208086019550808260051b84010181860160005b848110156118ae57601f198684030189528151608081518186526118fe828701826117f4565b838801511515878901526040808501511515908801526060938401516001600160a01b03169390960192909252505097830197908301906001016118d8565b6020815281516020820152600060208301516101808060408501526119666101a08501836117f4565b91506040850151601f198086850301606087015261198484836117f4565b935060608701519150808685030160808701526119a184836117f4565b9350608087015191506119b860a087018315159052565b60a087015180151560c0880152915060c087015160e087015260e087015191506101006119fb818801848051825260208082015190830152604090810151910152565b87015186850382016101608801529150611a15848361183a565b9350610120870151915080868503018387015250611a3383826118bb565b9695505050505050565b60006101408a8352806020840152611a578184018b6117f4565b90508281036040840152611a6b818a6117f4565b90508281036060840152611a7f81896117f4565b871515608085015286151560a085015260c08401869052845160e0850152602085015161010085015260408501516101208501529150611abc9050565b9998505050505050505050565b600060208284031215611adb57600080fd5b813567ffffffffffffffff811115611af257600080fd5b82016101808185031215611b0557600080fd5b9392505050565b60008060408385031215611b1f57600080fd5b50508035926020909101359150565b6001600160a01b038116811461123257600080fd5b60008060408385031215611b5657600080fd5b823591506020830135611b6881611b2e565b809150509250929050565b600060208284031215611b8557600080fd5b8135611b0581611b2e565b60208082526017908201527f50726f706f73616c20646f6573206e6f74206578697374000000000000000000604082015260600190565b600181811c90821680611bdb57607f821691505b602082108103611bfb57634e487b7160e01b600052602260045260246000fd5b50919050565b6000808335601e19843603018112611c1857600080fd5b83018035915067ffffffffffffffff821115611c3357600080fd5b602001915036819003821315611c4857600080fd5b9250929050565b634e487b7160e01b600052604160045260246000fd5b601f821115611cb1576000816000526020600020601f850160051c81016020861015611c8e5750805b601f850160051c820191505b81811015611cad57828155600101611c9a565b5050505b505050565b600019600383901b1c191660019190911b1790565b67ffffffffffffffff831115611ce357611ce3611c4f565b611cf783611cf18354611bc7565b83611c65565b6000601f841160018114611d255760008515611d135750838201355b611d1d8682611cb6565b845550610deb565b600083815260209020601f19861690835b82811015611d565786850135825560209485019460019092019101611d36565b5086821015611d735760001960f88860031b161c19848701351681555b505060018560011b0183555050505050565b801515811461123257600080fd5b600060208284031215611da557600080fd5b8135611b0581611d85565b6000808335601e19843603018112611dc757600080fd5b83018035915067ffffffffffffffff821115611de257600080fd5b6020019150600581901b3603821315611c4857600080fd5b634e487b7160e01b600052603260045260246000fd5b60008235605e19833603018112611e2657600080fd5b9190910192915050565b6000813561141d81611b2e565b611e478283611c01565b67ffffffffffffffff811115611e5f57611e5f611c4f565b611e7381611e6d8554611bc7565b85611c65565b6000601f821160018114611ea15760008315611e8f5750838201355b611e998482611cb6565b865550611efb565b600085815260209020601f19841690835b82811015611ed25786850135825560209485019460019092019101611eb2565b5084821015611eef5760001960f88660031b161c19848701351681555b505060018360011b0185555b50505050611f32611f0e60208401611e30565b6001830180546001600160a01b0319166001600160a01b0392909216919091179055565b604082013560028201555050565b60008235607e19833603018112611e2657600080fd5b6000813561141d81611d85565b611f6d8283611c01565b67ffffffffffffffff811115611f8557611f85611c4f565b611f9381611e6d8554611bc7565b6000601f821160018114611fc15760008315611faf5750838201355b611fb98482611cb6565b86555061201b565b600085815260209020601f19841690835b82811015611ff25786850135825560209485019460019092019101611fd2565b508482101561200f5760001960f88660031b161c19848701351681555b505060018360011b0185555b505050506001810161204661203260208501611f56565b825490151560ff1660ff1991909116178255565b61206f61205560408501611f56565b82805461ff00191691151560081b61ff0016919091179055565b611cb161207e60608501611e30565b82805462010000600160b01b03191660109290921b62010000600160b01b0316919091179055565b8181036120b1575050565b6120bb8254611bc7565b67ffffffffffffffff8111156120d3576120d3611c4f565b6120e7816120e18454611bc7565b84611c65565b6000601f82116001811461211557600083156121035750848201545b61210d8482611cb6565b855550610deb565b600085815260209020601f19841690600086815260209020845b8381101561214f578286015482556001958601959091019060200161212f565b508583101561216d5781850154600019600388901b60f8161c191681555b5050505050600190811b01905550565b81835281816020850137506000828201602090810191909152601f909101601f19169091010190565b6040815260006121ba60408301868861217d565b82810360208401526121cd81858761217d565b979650505050505050565b6000600182016121f857634e487b7160e01b600052601160045260246000fd5b506001019056fea2646970667358221220a2d6706c7cd2d9818b91daaa3ee96557f5938c409c3d4958a19fcfd61e7a76c464736f6c63430008180033",
  "linkReferences": {},
  "deployedLinkReferences": {}
}