{
  "_format": "hh-sol-artifact-1",
  "contractName": "Voting",
  "sourceName": "contracts/Voting/Voting.sol",
  "abi": [
    {
      "inputs": [],
      "name": "EnforcedPause",
      "type": "error"
    },
    {
      "inputs": [],
      "name": "ExpectedPause",
      "type": "error"
    },
    {
      "inputs": [],
      "name": "InvalidInitialization",
      "type": "error"
    },
    {
      "inputs": [],
      "name": "NotInitializing",
      "type": "error"
    },
    {
      "inputs": [
        {
          "internalType": "address",
          "name": "owner",
          "type": "address"
        }
      ],
      "name": "OwnableInvalidOwner",
      "type": "error"
    },
    {
      "inputs": [
        {
          "internalType": "address",
          "name": "account",
          "type": "address"
        }
      ],
      "name": "OwnableUnauthorizedAccount",
      "type": "error"
    },
    {
      "inputs": [],
      "name": "ReentrancyGuardReentrantCall",
      "type": "error"
    },
    {
      "anonymous": false,
      "inputs": [
        {
          "indexed": false,
          "internalType": "address[]",
          "name": "boardOfDirectors",
          "type": "address[]"
        }
      ],
      "name": "BoardOfDirectorsSet",
      "type": "event"
    },
    {
      "anonymous": false,
      "inputs": [
        {
          "indexed": true,
          "internalType": "address",
          "name": "voter",
          "type": "address"
        },
        {
          "indexed": true,
          "internalType": "uint256",
          "name": "proposalId",
          "type": "uint256"
        },
        {
          "indexed": false,
          "internalType": "uint256",
          "name": "vote",
          "type": "uint256"
        }
      ],
      "name": "DirectiveVoted",
      "type": "event"
    },
    {
      "anonymous": false,
      "inputs": [
        {
          "indexed": true,
          "internalType": "address",
          "name": "voter",
          "type": "address"
        },
        {
          "indexed": true,
          "internalType": "uint256",
          "name": "proposalId",
          "type": "uint256"
        },
        {
          "indexed": true,
          "internalType": "address",
          "name": "candidateAddress",
          "type": "address"
        }
      ],
      "name": "ElectionVoted",
      "type": "event"
    },
    {
      "anonymous": false,
      "inputs": [
        {
          "indexed": false,
          "internalType": "uint64",
          "name": "version",
          "type": "uint64"
        }
      ],
      "name": "Initialized",
      "type": "event"
    },
    {
      "anonymous": false,
      "inputs": [
        {
          "indexed": true,
          "internalType": "address",
          "name": "previousOwner",
          "type": "address"
        },
        {
          "indexed": true,
          "internalType": "address",
          "name": "newOwner",
          "type": "address"
        }
      ],
      "name": "OwnershipTransferred",
      "type": "event"
    },
    {
      "anonymous": false,
      "inputs": [
        {
          "indexed": false,
          "internalType": "address",
          "name": "account",
          "type": "address"
        }
      ],
      "name": "Paused",
      "type": "event"
    },
    {
      "anonymous": false,
      "inputs": [
        {
          "indexed": true,
          "internalType": "uint256",
          "name": "proposalId",
          "type": "uint256"
        },
        {
          "indexed": false,
          "internalType": "string",
          "name": "title",
          "type": "string"
        },
        {
          "indexed": false,
          "internalType": "string",
          "name": "description",
          "type": "string"
        }
      ],
      "name": "ProposalAdded",
      "type": "event"
    },
    {
      "anonymous": false,
      "inputs": [
        {
          "indexed": true,
          "internalType": "uint256",
          "name": "proposalId",
          "type": "uint256"
        },
        {
          "indexed": false,
          "internalType": "bool",
          "name": "isActive",
          "type": "bool"
        }
      ],
      "name": "ProposalConcluded",
      "type": "event"
    },
    {
      "anonymous": false,
      "inputs": [
        {
          "indexed": false,
          "internalType": "address",
          "name": "account",
          "type": "address"
        }
      ],
      "name": "Unpaused",
      "type": "event"
    },
    {
      "inputs": [
        {
          "internalType": "string",
          "name": "_title",
          "type": "string"
        },
        {
          "internalType": "string",
          "name": "_description",
          "type": "string"
        },
        {
          "internalType": "bool",
          "name": "_isElection",
          "type": "bool"
        },
        {
          "internalType": "uint256",
          "name": "_winnerCount",
          "type": "uint256"
        },
        {
          "internalType": "address[]",
          "name": "_voters",
          "type": "address[]"
        },
        {
          "internalType": "address[]",
          "name": "_candidates",
          "type": "address[]"
        }
      ],
      "name": "addProposal",
      "outputs": [],
      "stateMutability": "nonpayable",
      "type": "function"
    },
    {
      "inputs": [],
      "name": "boardOfDirectorsContractAddress",
      "outputs": [
        {
          "internalType": "address",
          "name": "",
          "type": "address"
        }
      ],
      "stateMutability": "view",
      "type": "function"
    },
    {
      "inputs": [
        {
          "internalType": "uint256",
          "name": "proposalId",
          "type": "uint256"
        }
      ],
      "name": "concludeProposal",
      "outputs": [],
      "stateMutability": "nonpayable",
      "type": "function"
    },
    {
      "inputs": [
        {
          "internalType": "uint256",
          "name": "proposalId",
          "type": "uint256"
        }
      ],
      "name": "getProposalById",
      "outputs": [
        {
          "components": [
            {
              "internalType": "uint256",
              "name": "id",
              "type": "uint256"
            },
            {
              "internalType": "string",
              "name": "title",
              "type": "string"
            },
            {
              "internalType": "string",
              "name": "description",
              "type": "string"
            },
            {
              "internalType": "address",
              "name": "draftedBy",
              "type": "address"
            },
            {
              "internalType": "bool",
              "name": "isElection",
              "type": "bool"
            },
            {
              "internalType": "bool",
              "name": "isActive",
              "type": "bool"
            },
            {
              "internalType": "uint256",
              "name": "winnerCount",
              "type": "uint256"
            },
            {
              "components": [
                {
                  "internalType": "uint256",
                  "name": "yes",
                  "type": "uint256"
                },
                {
                  "internalType": "uint256",
                  "name": "no",
                  "type": "uint256"
                },
                {
                  "internalType": "uint256",
                  "name": "abstain",
                  "type": "uint256"
                }
              ],
              "internalType": "struct Types.DirectiveVotes",
              "name": "votes",
              "type": "tuple"
            },
            {
              "components": [
                {
                  "internalType": "address",
                  "name": "candidateAddress",
                  "type": "address"
                },
                {
                  "internalType": "uint256",
                  "name": "votes",
                  "type": "uint256"
                }
              ],
              "internalType": "struct Types.Candidate[]",
              "name": "candidates",
              "type": "tuple[]"
            },
            {
              "components": [
                {
                  "internalType": "bool",
                  "name": "isEligible",
                  "type": "bool"
                },
                {
                  "internalType": "bool",
                  "name": "isVoted",
                  "type": "bool"
                },
                {
                  "internalType": "address",
                  "name": "memberAddress",
                  "type": "address"
                }
              ],
              "internalType": "struct Types.Member[]",
              "name": "voters",
              "type": "tuple[]"
            }
          ],
          "internalType": "struct Types.Proposal",
          "name": "",
          "type": "tuple"
        }
      ],
      "stateMutability": "view",
      "type": "function"
    },
    {
      "inputs": [
        {
          "internalType": "address",
          "name": "_sender",
          "type": "address"
        }
      ],
      "name": "initialize",
      "outputs": [],
      "stateMutability": "nonpayable",
      "type": "function"
    },
    {
      "inputs": [],
      "name": "owner",
      "outputs": [
        {
          "internalType": "address",
          "name": "",
          "type": "address"
        }
      ],
      "stateMutability": "view",
      "type": "function"
    },
    {
      "inputs": [],
      "name": "pause",
      "outputs": [],
      "stateMutability": "nonpayable",
      "type": "function"
    },
    {
      "inputs": [],
      "name": "paused",
      "outputs": [
        {
          "internalType": "bool",
          "name": "",
          "type": "bool"
        }
      ],
      "stateMutability": "view",
      "type": "function"
    },
    {
      "inputs": [],
      "name": "proposalCount",
      "outputs": [
        {
          "internalType": "uint256",
          "name": "",
          "type": "uint256"
        }
      ],
      "stateMutability": "view",
      "type": "function"
    },
    {
      "inputs": [
        {
          "internalType": "uint256",
          "name": "",
          "type": "uint256"
        }
      ],
      "name": "proposalsById",
      "outputs": [
        {
          "internalType": "uint256",
          "name": "id",
          "type": "uint256"
        },
        {
          "internalType": "string",
          "name": "title",
          "type": "string"
        },
        {
          "internalType": "string",
          "name": "description",
          "type": "string"
        },
        {
          "internalType": "address",
          "name": "draftedBy",
          "type": "address"
        },
        {
          "internalType": "bool",
          "name": "isElection",
          "type": "bool"
        },
        {
          "internalType": "bool",
          "name": "isActive",
          "type": "bool"
        },
        {
          "internalType": "uint256",
          "name": "winnerCount",
          "type": "uint256"
        },
        {
          "components": [
            {
              "internalType": "uint256",
              "name": "yes",
              "type": "uint256"
            },
            {
              "internalType": "uint256",
              "name": "no",
              "type": "uint256"
            },
            {
              "internalType": "uint256",
              "name": "abstain",
              "type": "uint256"
            }
          ],
          "internalType": "struct Types.DirectiveVotes",
          "name": "votes",
          "type": "tuple"
        }
      ],
      "stateMutability": "view",
      "type": "function"
    },
    {
      "inputs": [],
      "name": "renounceOwnership",
      "outputs": [],
      "stateMutability": "nonpayable",
      "type": "function"
    },
    {
      "inputs": [
        {
          "internalType": "address[]",
          "name": "_boardOfDirectors",
          "type": "address[]"
        }
      ],
      "name": "setBoardOfDirectors",
      "outputs": [],
      "stateMutability": "nonpayable",
      "type": "function"
    },
    {
      "inputs": [
        {
          "internalType": "address",
          "name": "_boardOfDirectorsContractAddress",
          "type": "address"
        }
      ],
      "name": "setBoardOfDirectorsContractAddress",
      "outputs": [],
      "stateMutability": "nonpayable",
      "type": "function"
    },
    {
      "inputs": [
        {
          "internalType": "address",
          "name": "newOwner",
          "type": "address"
        }
      ],
      "name": "transferOwnership",
      "outputs": [],
      "stateMutability": "nonpayable",
      "type": "function"
    },
    {
      "inputs": [],
      "name": "unpause",
      "outputs": [],
      "stateMutability": "nonpayable",
      "type": "function"
    },
    {
      "inputs": [
        {
          "internalType": "uint256",
          "name": "proposalId",
          "type": "uint256"
        },
        {
          "internalType": "uint256",
          "name": "vote",
          "type": "uint256"
        }
      ],
      "name": "voteDirective",
      "outputs": [],
      "stateMutability": "nonpayable",
      "type": "function"
    },
    {
      "inputs": [
        {
          "internalType": "uint256",
          "name": "proposalId",
          "type": "uint256"
        },
        {
          "internalType": "address",
          "name": "candidateAddress",
          "type": "address"
        }
      ],
      "name": "voteElection",
      "outputs": [],
      "stateMutability": "nonpayable",
      "type": "function"
    }
  ],
  "bytecode": "0x608060405234801561001057600080fd5b50612443806100206000396000f3fe608060405234801561001057600080fd5b506004361061010b5760003560e01c80638456cb59116100a2578063c4d66de811610071578063c4d66de814610240578063da35c66414610253578063ec1721931461026a578063ee473c7a1461027d578063f2fde38b1461029057600080fd5b80638456cb59146101ce5780638da5cb5b146101d657806397b3418e1461021a578063bd68d6e71461022d57600080fd5b80635c975abb116100de5780635c975abb1461017d578063715018a6146101a057806371a5c572146101a857806376e9f102146101bb57600080fd5b80631b7864c1146101105780633656de21146101255780633f4ba83a1461014e5780634f950c1a14610156575b600080fd5b61012361011e366004611b3f565b6102a3565b005b610138610133366004611b3f565b610697565b6040516101459190611c42565b60405180910390f35b610123610973565b610169610164366004611b3f565b610985565b604051610145989796959493929190611d3b565b6000805160206123ee8339815191525460ff166040519015158152602001610145565b610123610b0a565b6101236101b6366004611eac565b610b1c565b6101236101c9366004611f69565b610b89565b610123610f44565b7f9016d09d72d40fdae2fd8ceac6b6234c7706214fd39c1cd1e609a0528c199300546001600160a01b03165b6040516001600160a01b039091168152602001610145565b61012361022836600461202f565b610f54565b600254610202906001600160a01b031681565b61012361024e366004612051565b6110e2565b61025c60015481565b604051908152602001610145565b610123610278366004612051565b611202565b61012361028b366004612073565b61122c565b61012361029e366004612051565b611490565b60015481106102cd5760405162461bcd60e51b81526004016102c49061209f565b60405180910390fd5b600081815260208190526040902060038101805460ff600160a81b8083048216150260ff60a81b199092169190911791829055600160a01b909104161561064d57600081600401549050600082600801805480602002602001604051908101604052809291908181526020016000905b82821015610385576000848152602090819020604080518082019091526002850290910180546001600160a01b0316825260019081015482840152908352909201910161033d565b50505050905060005b81518110156104785760006103a48260016120ec565b90505b825181101561046f578281815181106103c2576103c26120ff565b6020026020010151602001518383815181106103e0576103e06120ff565b6020026020010151602001511015610467576000838381518110610406576104066120ff565b60200260200101519050838281518110610422576104226120ff565b602002602001015184848151811061043c5761043c6120ff565b60200260200101819052508084838151811061045a5761045a6120ff565b6020026020010181905250505b6001016103a7565b5060010161038e565b5060008267ffffffffffffffff81111561049457610494611dc2565b6040519080825280602002602001820160405280156104bd578160200160208202803683370190505b50905060005b83811015610566578281815181106104dd576104dd6120ff565b6020026020010151600001518282815181106104fb576104fb6120ff565b60200260200101906001600160a01b031690816001600160a01b03168152505061055e6040518060400160405280600881526020016702bb4b73732b91d160c51b815250838381518110610551576105516120ff565b60200260200101516114ce565b6001016104c3565b506002546040516338d2e2b960e11b81526001600160a01b03909116906371a5c57290610597908490600401612115565b600060405180830381600087803b1580156105b157600080fd5b505af11580156105c5573d6000803e3d6000fd5b505050507f48fcc37190f2613c3ad004cac1fc4ed1d270d7453ce1523fac376a70e5fb36ca816040516105f89190612115565b60405180910390a16003840154604051600160a81b90910460ff161515815285907f628c5b5fb646e7f6c763f5e3b6fdcbee619fe1c1bc595643a1c70415a6f113499060200160405180910390a25050505050565b6003810154604051600160a81b90910460ff161515815282907f628c5b5fb646e7f6c763f5e3b6fdcbee619fe1c1bc595643a1c70415a6f113499060200160405180910390a25050565b61069f61195b565b60015482106106c05760405162461bcd60e51b81526004016102c49061209f565b60008281526020818152604091829020825161014081019093528054835260018101805491928401916106f290612162565b80601f016020809104026020016040519081016040528092919081815260200182805461071e90612162565b801561076b5780601f106107405761010080835404028352916020019161076b565b820191906000526020600020905b81548152906001019060200180831161074e57829003601f168201915b5050505050815260200160028201805461078490612162565b80601f01602080910402602001604051908101604052809291908181526020018280546107b090612162565b80156107fd5780601f106107d2576101008083540402835291602001916107fd565b820191906000526020600020905b8154815290600101906020018083116107e057829003601f168201915b505050918352505060038201546001600160a01b03811660208084019190915260ff600160a01b830481161515604080860191909152600160a81b90930416151560608085019190915260048501546080850152825190810183526005850154815260068501548183015260078501548184015260a084015260088401805483518184028101840190945280845260c090940193909160009084015b828210156108e1576000848152602090819020604080518082019091526002850290910180546001600160a01b03168252600190810154828401529083529092019101610899565b50505050815260200160098201805480602002602001604051908101604052809291908181526020016000905b82821015610965576000848152602090819020604080516060810182529185015460ff808216151584526101008204161515838501526201000090046001600160a01b03169082015282526001909201910161090e565b505050915250909392505050565b61097b611517565b610983611572565b565b600060208190529081526040902080546001820180549192916109a790612162565b80601f01602080910402602001604051908101604052809291908181526020018280546109d390612162565b8015610a205780601f106109f557610100808354040283529160200191610a20565b820191906000526020600020905b815481529060010190602001808311610a0357829003601f168201915b505050505090806002018054610a3590612162565b80601f0160208091040260200160405190810160405280929190818152602001828054610a6190612162565b8015610aae5780601f10610a8357610100808354040283529160200191610aae565b820191906000526020600020905b815481529060010190602001808311610a9157829003601f168201915b505050600384015460048501546040805160608101825260058801548152600688015460208201526007909701549087015293946001600160a01b0382169460ff600160a01b840481169550600160a81b909304909216925088565b610b12611517565b61098360006115d2565b610b24611517565b6002546040516338d2e2b960e11b81526001600160a01b03909116906371a5c57290610b54908490600401612115565b600060405180830381600087803b158015610b6e57600080fd5b505af1158015610b82573d6000803e3d6000fd5b5050505050565b6000865111610bd25760405162461bcd60e51b81526020600482015260156024820152745469746c652063616e6e6f7420626520656d70747960581b60448201526064016102c4565b600180546000818152602081905260409020908155908101610bf488826121e9565b5060028101610c0387826121e9565b50600381018054600160a81b6001600160a81b03199091163360ff60a01b191617600160a01b881515021760ff60a81b19161790556004810184905560005b8351811015610cff5760006040518060600160405280600115158152602001600015158152602001868481518110610c7c57610c7c6120ff565b6020908102919091018101516001600160a01b039081169092526009860180546001818101835560009283529183902085519101805493860151604090960151909416620100000262010000600160b01b03199515156101000261ff00199215159290921661ffff19909416939093171793909316179055919091019050610c42565b508415610dec576000825111610d575760405162461bcd60e51b815260206004820152601a60248201527f43616e646964617465732063616e6e6f7420626520656d70747900000000000060448201526064016102c4565b60005b8251811015610dea5760006040518060400160405280858481518110610d8257610d826120ff565b6020908102919091018101516001600160a01b03908116835260009282018390526008870180546001808201835591855293839020855160029095020180546001600160a01b0319169490921693909317815592015191810191909155919091019050610d5a565b505b60018054600090815260208190526040902082548155829181810190610e14908401826122a9565b50600281810190610e27908401826122a9565b506003828101805491830180546001600160a01b031981166001600160a01b039094169384178255825460ff600160a01b91829004811615159091026001600160a81b0319909216909417178082559154600160a81b90819004909316151590920260ff60a81b199091161790556004808301549082015560058083015490820155600680830154908201556007808301549082015560088083018054610ed192840191906119dd565b5060098281018054610ee69284019190611a55565b509050506001547f2da739368218397c1f8267a798bce5722bae1a51d2855fb923312edf27460c608888604051610f1e92919061237c565b60405180910390a260018054906000610f36836123aa565b919050555050505050505050565b610f4c611517565b610983611643565b6001548210610f755760405162461bcd60e51b81526004016102c49061209f565b60008281526020819052604090206003810154600160a81b900460ff16610fd75760405162461bcd60e51b815260206004820152601660248201527550726f706f73616c206973206e6f742061637469766560501b60448201526064016102c4565b6000610fe3823361168c565b805490915060ff166110375760405162461bcd60e51b815260206004820152601c60248201527f596f7520617265206e6f7420656c696769626c6520746f20766f74650000000060448201526064016102c4565b8054610100900460ff16156110875760405162461bcd60e51b8152602060048201526016602482015275165bdd481a185d9948185b1c9958591e481d9bdd195960521b60448201526064016102c4565b6110918284611771565b805461ff001916610100178155604051849033907fabe5d78d7c4aff0ea01d11f7334d89bf989faef45af0c780acf4ccff6bd5c8db906110d49087815260200190565b60405180910390a350505050565b7ff0c57e16840df040f15088dc2f81fe391c3923bec73e23a9662efc9c229c6a008054600160401b810460ff16159067ffffffffffffffff166000811580156111285750825b905060008267ffffffffffffffff1660011480156111455750303b155b905081158015611153575080155b156111715760405163f92ee8a960e01b815260040160405180910390fd5b845467ffffffffffffffff19166001178555831561119b57845460ff60401b1916600160401b1785555b6111a4866117ff565b6111ac611810565b6111b4611820565b83156111fa57845460ff60401b19168555604051600181527fc7f505b2f371ae2175ee4913f4499e1f2633a7b5936321eed1cdaeb6115181d29060200160405180910390a15b505050505050565b61120a611517565b600280546001600160a01b0319166001600160a01b0392909216919091179055565b600154821061124d5760405162461bcd60e51b81526004016102c49061209f565b60008281526020819052604090206003810154600160a81b900460ff166112af5760405162461bcd60e51b815260206004820152601660248201527550726f706f73616c206973206e6f742061637469766560501b60448201526064016102c4565b60006112bb823361168c565b805490915060ff1661130f5760405162461bcd60e51b815260206004820152601c60248201527f596f7520617265206e6f7420656c696769626c6520746f20766f74650000000060448201526064016102c4565b8054610100900460ff161561135f5760405162461bcd60e51b8152602060048201526016602482015275165bdd481a185d9948185b1c9958591e481d9bdd195960521b60448201526064016102c4565b6000805b60088401548110156113f657846001600160a01b031684600801828154811061138e5761138e6120ff565b60009182526020909120600290910201546001600160a01b0316036113ee578360080181815481106113c2576113c26120ff565b6000918252602082206001600290920201018054916113e0836123aa565b9190505550600191506113f6565b600101611363565b50806114445760405162461bcd60e51b815260206004820152601860248201527f43616e64696461746520646f6573206e6f74206578697374000000000000000060448201526064016102c4565b815461ff0019166101001782556040516001600160a01b03851690869033907fe8db14efb3e399b32db39dd2829b3af23451747dba46368ce6a3d5ccefebf88290600090a45050505050565b611498611517565b6001600160a01b0381166114c257604051631e4fbdf760e01b8152600060048201526024016102c4565b6114cb816115d2565b50565b61151382826040516024016114e49291906123c3565b60408051601f198184030181529190526020810180516001600160e01b031663319af33360e01b179052611830565b5050565b336115497f9016d09d72d40fdae2fd8ceac6b6234c7706214fd39c1cd1e609a0528c199300546001600160a01b031690565b6001600160a01b0316146109835760405163118cdaa760e01b81523360048201526024016102c4565b61157a611839565b6000805160206123ee833981519152805460ff191681557f5db9ee0a495bf2e6ff9c91a7834c1ba4fdd244a5e8aa4e537bd38aeae4b073aa335b6040516001600160a01b03909116815260200160405180910390a150565b7f9016d09d72d40fdae2fd8ceac6b6234c7706214fd39c1cd1e609a0528c19930080546001600160a01b031981166001600160a01b03848116918217845560405192169182907f8be0079c531659141344cd1fd0a4f28419497f9722a3daafe3b4186f6b6457e090600090a3505050565b61164b611869565b6000805160206123ee833981519152805460ff191660011781557f62e78cea01bee320cd4e420270b5ea74000d11b0c9f74754ebdbfc544b05a258336115b4565b6000805b600984015481101561170a57826001600160a01b03168460090182815481106116bb576116bb6120ff565b6000918252602090912001546201000090046001600160a01b031603611702578360090181815481106116f0576116f06120ff565b9060005260206000200191505061176b565b600101611690565b5060405162461bcd60e51b815260206004820152602f60248201527f596f7520617265206e6f74207265676973746572656420746f20766f7465206960448201526e1b881d1a1a5cc81c1c9bdc1bdcd85b608a1b60648201526084016102c4565b92915050565b806000036117945760068201805490600061178b836123aa565b91905055505050565b806001036117ae5760058201805490600061178b836123aa565b806002036117c85760078201805490600061178b836123aa565b60405162461bcd60e51b815260206004820152600c60248201526b496e76616c696420766f746560a01b60448201526064016102c4565b61180761189a565b6114cb816118e3565b61181861189a565b6109836118eb565b61182861189a565b610983611919565b6114cb8161193a565b6000805160206123ee8339815191525460ff1661098357604051638dfc202b60e01b815260040160405180910390fd5b6000805160206123ee8339815191525460ff16156109835760405163d93c066560e01b815260040160405180910390fd5b7ff0c57e16840df040f15088dc2f81fe391c3923bec73e23a9662efc9c229c6a0054600160401b900460ff1661098357604051631afcd79f60e31b815260040160405180910390fd5b61149861189a565b6118f361189a565b60017f9b779b17422d0df92223018b32b4d1fa46e071723d6817e2486d003becc55f0055565b61192161189a565b6000805160206123ee833981519152805460ff19169055565b60006a636f6e736f6c652e6c6f679050600080835160208501845afa505050565b60405180610140016040528060008152602001606081526020016060815260200160006001600160a01b03168152602001600015158152602001600015158152602001600081526020016119c960405180606001604052806000815260200160008152602001600081525090565b815260200160608152602001606081525090565b828054828255906000526020600020906002028101928215611a455760005260206000209160020282015b82811115611a4557825482546001600160a01b0319166001600160a01b039091161782556001808401549083015560029283019290910190611a08565b50611a51929150611afa565b5090565b828054828255906000526020600020908101928215611aee5760005260206000209182015b82811115611aee578254825460ff918216151560ff19821681178555855461010090819004909316151590920261ff001990921661ffff19909116171780835583546001600160a01b036201000091829004160262010000600160b01b031990911617825560019283019290910190611a7a565b50611a51929150611b20565b5b80821115611a515780546001600160a01b031916815560006001820155600201611afb565b5b80821115611a515780546001600160b01b0319168155600101611b21565b600060208284031215611b5157600080fd5b5035919050565b6000815180845260005b81811015611b7e57602081850181015186830182015201611b62565b506000602082860101526020601f19601f83011685010191505092915050565b60008151808452602080850194506020840160005b83811015611be357815180516001600160a01b031688528301518388015260409096019590820190600101611bb3565b509495945050505050565b60008151808452602080850194506020840160005b83811015611be3578151805115158852838101511515848901526040908101516001600160a01b03169088015260609096019590820190600101611c03565b602081528151602082015260006020830151610180806040850152611c6b6101a0850183611b58565b91506040850151601f1980868503016060870152611c898483611b58565b935060608701519150611ca760808701836001600160a01b03169052565b608087015180151560a0880152915060a087015180151560c0880152915060c087015160e087015260e08701519150610100611cf9818801848051825260208082015190830152604090810151910152565b87015186850382016101608801529150611d138483611b9e565b9350610120870151915080868503018387015250611d318382611bee565b9695505050505050565b60006101408a8352806020840152611d558184018b611b58565b90508281036040840152611d69818a611b58565b6001600160a01b0389166060850152871515608085015286151560a085015260c08401869052845160e0850152602085015161010085015260408501516101208501529150611db59050565b9998505050505050505050565b634e487b7160e01b600052604160045260246000fd5b604051601f8201601f1916810167ffffffffffffffff81118282101715611e0157611e01611dc2565b604052919050565b80356001600160a01b0381168114611e2057600080fd5b919050565b600082601f830112611e3657600080fd5b8135602067ffffffffffffffff821115611e5257611e52611dc2565b8160051b611e61828201611dd8565b9283528481018201928281019087851115611e7b57600080fd5b83870192505b84831015611ea157611e9283611e09565b82529183019190830190611e81565b979650505050505050565b600060208284031215611ebe57600080fd5b813567ffffffffffffffff811115611ed557600080fd5b611ee184828501611e25565b949350505050565b600082601f830112611efa57600080fd5b813567ffffffffffffffff811115611f1457611f14611dc2565b611f27601f8201601f1916602001611dd8565b818152846020838601011115611f3c57600080fd5b816020850160208301376000918101602001919091529392505050565b80358015158114611e2057600080fd5b60008060008060008060c08789031215611f8257600080fd5b863567ffffffffffffffff80821115611f9a57600080fd5b611fa68a838b01611ee9565b97506020890135915080821115611fbc57600080fd5b611fc88a838b01611ee9565b9650611fd660408a01611f59565b9550606089013594506080890135915080821115611ff357600080fd5b611fff8a838b01611e25565b935060a089013591508082111561201557600080fd5b5061202289828a01611e25565b9150509295509295509295565b6000806040838503121561204257600080fd5b50508035926020909101359150565b60006020828403121561206357600080fd5b61206c82611e09565b9392505050565b6000806040838503121561208657600080fd5b8235915061209660208401611e09565b90509250929050565b60208082526017908201527f50726f706f73616c20646f6573206e6f74206578697374000000000000000000604082015260600190565b634e487b7160e01b600052601160045260246000fd5b8082018082111561176b5761176b6120d6565b634e487b7160e01b600052603260045260246000fd5b6020808252825182820181905260009190848201906040850190845b818110156121565783516001600160a01b031683529284019291840191600101612131565b50909695505050505050565b600181811c9082168061217657607f821691505b60208210810361219657634e487b7160e01b600052602260045260246000fd5b50919050565b601f8211156121e4576000816000526020600020601f850160051c810160208610156121c55750805b601f850160051c820191505b818110156111fa578281556001016121d1565b505050565b815167ffffffffffffffff81111561220357612203611dc2565b612217816122118454612162565b8461219c565b602080601f83116001811461224c57600084156122345750858301515b600019600386901b1c1916600185901b1785556111fa565b600085815260208120601f198616915b8281101561227b5788860151825594840194600190910190840161225c565b50858210156122995787850151600019600388901b60f8161c191681555b5050505050600190811b01905550565b8181036122b4575050565b6122be8254612162565b67ffffffffffffffff8111156122d6576122d6611dc2565b6122e4816122118454612162565b6000601f82116001811461231857600083156123005750848201545b600019600385901b1c1916600184901b178455610b82565b600085815260209020601f19841690600086815260209020845b838110156123525782860154825560019586019590910190602001612332565b50858310156122995793015460001960f8600387901b161c19169092555050600190811b01905550565b60408152600061238f6040830185611b58565b82810360208401526123a18185611b58565b95945050505050565b6000600182016123bc576123bc6120d6565b5060010190565b6040815260006123d66040830185611b58565b905060018060a01b0383166020830152939250505056fecd5ed15c6e187e77e9aee88184c21f4f2182ab5827cb3b7e07fbedcd63f03300a26469706673582212201d57b8fcbf31e69a97aca9ffca830c345ac0ca70c81f18c25f1414fcd23141ba64736f6c63430008180033",
  "linkReferences": {},
  "deployedLinkReferences": {}
}