{
  "_format": "hh-sol-artifact-1",
  "contractName": "Voting",
  "sourceName": "contracts/Voting/Voting.sol",
  "abi": [
    {
      "inputs": [],
      "name": "EnforcedPause",
      "type": "error"
    },
    {
      "inputs": [],
      "name": "ExpectedPause",
      "type": "error"
    },
    {
      "inputs": [],
      "name": "InvalidInitialization",
      "type": "error"
    },
    {
      "inputs": [],
      "name": "NotInitializing",
      "type": "error"
    },
    {
      "inputs": [
        {
          "internalType": "address",
          "name": "owner",
          "type": "address"
        }
      ],
      "name": "OwnableInvalidOwner",
      "type": "error"
    },
    {
      "inputs": [
        {
          "internalType": "address",
          "name": "account",
          "type": "address"
        }
      ],
      "name": "OwnableUnauthorizedAccount",
      "type": "error"
    },
    {
      "inputs": [],
      "name": "ReentrancyGuardReentrantCall",
      "type": "error"
    },
    {
      "anonymous": false,
      "inputs": [
        {
          "indexed": false,
          "internalType": "address[]",
          "name": "boardOfDirectors",
          "type": "address[]"
        }
      ],
      "name": "BoardOfDirectorsSet",
      "type": "event"
    },
    {
      "anonymous": false,
      "inputs": [
        {
          "indexed": true,
          "internalType": "address",
          "name": "voter",
          "type": "address"
        },
        {
          "indexed": true,
          "internalType": "uint256",
          "name": "proposalId",
          "type": "uint256"
        },
        {
          "indexed": false,
          "internalType": "uint256",
          "name": "vote",
          "type": "uint256"
        }
      ],
      "name": "DirectiveVoted",
      "type": "event"
    },
    {
      "anonymous": false,
      "inputs": [
        {
          "indexed": true,
          "internalType": "address",
          "name": "voter",
          "type": "address"
        },
        {
          "indexed": true,
          "internalType": "uint256",
          "name": "proposalId",
          "type": "uint256"
        },
        {
          "indexed": true,
          "internalType": "address",
          "name": "candidateAddress",
          "type": "address"
        }
      ],
      "name": "ElectionVoted",
      "type": "event"
    },
    {
      "anonymous": false,
      "inputs": [
        {
          "indexed": false,
          "internalType": "uint64",
          "name": "version",
          "type": "uint64"
        }
      ],
      "name": "Initialized",
      "type": "event"
    },
    {
      "anonymous": false,
      "inputs": [
        {
          "indexed": true,
          "internalType": "address",
          "name": "previousOwner",
          "type": "address"
        },
        {
          "indexed": true,
          "internalType": "address",
          "name": "newOwner",
          "type": "address"
        }
      ],
      "name": "OwnershipTransferred",
      "type": "event"
    },
    {
      "anonymous": false,
      "inputs": [
        {
          "indexed": false,
          "internalType": "address",
          "name": "account",
          "type": "address"
        }
      ],
      "name": "Paused",
      "type": "event"
    },
    {
      "anonymous": false,
      "inputs": [
        {
          "indexed": true,
          "internalType": "uint256",
          "name": "proposalId",
          "type": "uint256"
        },
        {
          "indexed": false,
          "internalType": "string",
          "name": "title",
          "type": "string"
        },
        {
          "indexed": false,
          "internalType": "string",
          "name": "description",
          "type": "string"
        }
      ],
      "name": "ProposalAdded",
      "type": "event"
    },
    {
      "anonymous": false,
      "inputs": [
        {
          "indexed": true,
          "internalType": "uint256",
          "name": "proposalId",
          "type": "uint256"
        },
        {
          "indexed": false,
          "internalType": "bool",
          "name": "isActive",
          "type": "bool"
        }
      ],
      "name": "ProposalConcluded",
      "type": "event"
    },
    {
      "anonymous": false,
      "inputs": [
        {
          "indexed": false,
          "internalType": "address",
          "name": "account",
          "type": "address"
        }
      ],
      "name": "Unpaused",
      "type": "event"
    },
    {
      "inputs": [
        {
          "internalType": "string",
          "name": "_title",
          "type": "string"
        },
        {
          "internalType": "string",
          "name": "_description",
          "type": "string"
        },
        {
          "internalType": "string",
          "name": "_draftedBy",
          "type": "string"
        },
        {
          "internalType": "bool",
          "name": "_isElection",
          "type": "bool"
        },
        {
          "internalType": "uint256",
          "name": "_winnerCount",
          "type": "uint256"
        },
        {
          "internalType": "address[]",
          "name": "_voters",
          "type": "address[]"
        },
        {
          "internalType": "address[]",
          "name": "_candidates",
          "type": "address[]"
        }
      ],
      "name": "addProposal",
      "outputs": [],
      "stateMutability": "nonpayable",
      "type": "function"
    },
    {
      "inputs": [],
      "name": "boardOfDirectorsContractAddress",
      "outputs": [
        {
          "internalType": "address",
          "name": "",
          "type": "address"
        }
      ],
      "stateMutability": "view",
      "type": "function"
    },
    {
      "inputs": [
        {
          "internalType": "uint256",
          "name": "proposalId",
          "type": "uint256"
        }
      ],
      "name": "concludeProposal",
      "outputs": [],
      "stateMutability": "nonpayable",
      "type": "function"
    },
    {
      "inputs": [
        {
          "internalType": "uint256",
          "name": "proposalId",
          "type": "uint256"
        }
      ],
      "name": "getProposalById",
      "outputs": [
        {
          "components": [
            {
              "internalType": "uint256",
              "name": "id",
              "type": "uint256"
            },
            {
              "internalType": "string",
              "name": "title",
              "type": "string"
            },
            {
              "internalType": "string",
              "name": "description",
              "type": "string"
            },
            {
              "internalType": "string",
              "name": "draftedBy",
              "type": "string"
            },
            {
              "internalType": "bool",
              "name": "isElection",
              "type": "bool"
            },
            {
              "internalType": "bool",
              "name": "isActive",
              "type": "bool"
            },
            {
              "internalType": "uint256",
              "name": "winnerCount",
              "type": "uint256"
            },
            {
              "components": [
                {
                  "internalType": "uint256",
                  "name": "yes",
                  "type": "uint256"
                },
                {
                  "internalType": "uint256",
                  "name": "no",
                  "type": "uint256"
                },
                {
                  "internalType": "uint256",
                  "name": "abstain",
                  "type": "uint256"
                }
              ],
              "internalType": "struct Types.DirectiveVotes",
              "name": "votes",
              "type": "tuple"
            },
            {
              "components": [
                {
                  "internalType": "address",
                  "name": "candidateAddress",
                  "type": "address"
                },
                {
                  "internalType": "uint256",
                  "name": "votes",
                  "type": "uint256"
                }
              ],
              "internalType": "struct Types.Candidate[]",
              "name": "candidates",
              "type": "tuple[]"
            },
            {
              "components": [
                {
                  "internalType": "bool",
                  "name": "isEligible",
                  "type": "bool"
                },
                {
                  "internalType": "bool",
                  "name": "isVoted",
                  "type": "bool"
                },
                {
                  "internalType": "address",
                  "name": "memberAddress",
                  "type": "address"
                }
              ],
              "internalType": "struct Types.Member[]",
              "name": "voters",
              "type": "tuple[]"
            }
          ],
          "internalType": "struct Types.Proposal",
          "name": "",
          "type": "tuple"
        }
      ],
      "stateMutability": "view",
      "type": "function"
    },
    {
      "inputs": [],
      "name": "initialize",
      "outputs": [],
      "stateMutability": "nonpayable",
      "type": "function"
    },
    {
      "inputs": [],
      "name": "owner",
      "outputs": [
        {
          "internalType": "address",
          "name": "",
          "type": "address"
        }
      ],
      "stateMutability": "view",
      "type": "function"
    },
    {
      "inputs": [],
      "name": "paused",
      "outputs": [
        {
          "internalType": "bool",
          "name": "",
          "type": "bool"
        }
      ],
      "stateMutability": "view",
      "type": "function"
    },
    {
      "inputs": [],
      "name": "proposalCount",
      "outputs": [
        {
          "internalType": "uint256",
          "name": "",
          "type": "uint256"
        }
      ],
      "stateMutability": "view",
      "type": "function"
    },
    {
      "inputs": [
        {
          "internalType": "uint256",
          "name": "",
          "type": "uint256"
        }
      ],
      "name": "proposalsById",
      "outputs": [
        {
          "internalType": "uint256",
          "name": "id",
          "type": "uint256"
        },
        {
          "internalType": "string",
          "name": "title",
          "type": "string"
        },
        {
          "internalType": "string",
          "name": "description",
          "type": "string"
        },
        {
          "internalType": "string",
          "name": "draftedBy",
          "type": "string"
        },
        {
          "internalType": "bool",
          "name": "isElection",
          "type": "bool"
        },
        {
          "internalType": "bool",
          "name": "isActive",
          "type": "bool"
        },
        {
          "internalType": "uint256",
          "name": "winnerCount",
          "type": "uint256"
        },
        {
          "components": [
            {
              "internalType": "uint256",
              "name": "yes",
              "type": "uint256"
            },
            {
              "internalType": "uint256",
              "name": "no",
              "type": "uint256"
            },
            {
              "internalType": "uint256",
              "name": "abstain",
              "type": "uint256"
            }
          ],
          "internalType": "struct Types.DirectiveVotes",
          "name": "votes",
          "type": "tuple"
        }
      ],
      "stateMutability": "view",
      "type": "function"
    },
    {
      "inputs": [],
      "name": "renounceOwnership",
      "outputs": [],
      "stateMutability": "nonpayable",
      "type": "function"
    },
    {
      "inputs": [
        {
          "internalType": "address[]",
          "name": "_boardOfDirectors",
          "type": "address[]"
        }
      ],
      "name": "setBoardOfDirectors",
      "outputs": [],
      "stateMutability": "nonpayable",
      "type": "function"
    },
    {
      "inputs": [
        {
          "internalType": "address",
          "name": "_boardOfDirectorsContractAddress",
          "type": "address"
        }
      ],
      "name": "setBoardOfDirectorsContractAddress",
      "outputs": [],
      "stateMutability": "nonpayable",
      "type": "function"
    },
    {
      "inputs": [
        {
          "internalType": "address",
          "name": "newOwner",
          "type": "address"
        }
      ],
      "name": "transferOwnership",
      "outputs": [],
      "stateMutability": "nonpayable",
      "type": "function"
    },
    {
      "inputs": [
        {
          "internalType": "uint256",
          "name": "proposalId",
          "type": "uint256"
        },
        {
          "internalType": "uint256",
          "name": "vote",
          "type": "uint256"
        }
      ],
      "name": "voteDirective",
      "outputs": [],
      "stateMutability": "nonpayable",
      "type": "function"
    },
    {
      "inputs": [
        {
          "internalType": "uint256",
          "name": "proposalId",
          "type": "uint256"
        },
        {
          "internalType": "address",
          "name": "candidateAddress",
          "type": "address"
        }
      ],
      "name": "voteElection",
      "outputs": [],
      "stateMutability": "nonpayable",
      "type": "function"
    }
  ],
  "bytecode": "0x608060405234801561001057600080fd5b506123db806100206000396000f3fe608060405234801561001057600080fd5b50600436106100f55760003560e01c80638129fc1c11610097578063da35c66411610066578063da35c66414610234578063ec1721931461024b578063ee473c7a1461025e578063f2fde38b1461027157600080fd5b80638129fc1c146101c25780638da5cb5b146101ca57806397b3418e1461020e578063bd68d6e71461022157600080fd5b80634f950c1a116100d35780634f950c1a1461014b5780635c975abb14610172578063715018a6146101a757806371a5c572146101af57600080fd5b80631b7864c1146100fa578063242c88b41461010f5780633656de2114610122575b600080fd5b61010d610108366004611ac1565b610284565b005b61010d61011d366004611c44565b610669565b610135610130366004611ac1565b610a04565b6040516101429190611e1a565b60405180910390f35b61015e610159366004611ac1565b610d5e565b604051610142989796959493929190611f1a565b7fcd5ed15c6e187e77e9aee88184c21f4f2182ab5827cb3b7e07fbedcd63f033005460ff166040519015158152602001610142565b61010d610f5c565b61010d6101bd366004611fa6565b610f70565b61010d610fdd565b7f9016d09d72d40fdae2fd8ceac6b6234c7706214fd39c1cd1e609a0528c199300546001600160a01b03165b6040516001600160a01b039091168152602001610142565b61010d61021c366004611fe3565b6110fb565b6002546101f6906001600160a01b031681565b61023d60015481565b604051908152602001610142565b61010d610259366004612005565b611287565b61010d61026c366004612027565b6112b1565b61010d61027f366004612005565b611513565b60015481106102ae5760405162461bcd60e51b81526004016102a590612053565b60405180910390fd5b600081815260208190526040902060048101805460ff6101008083048216150261ff0019831681179093559182169116171561062157600081600501549050600082600901805480602002602001604051908101604052809291908181526020016000905b8282101561035b576000848152602090819020604080518082019091526002850290910180546001600160a01b03168252600190810154828401529083529092019101610313565b50505050905060005b815181101561044e57600061037a8260016120a0565b90505b825181101561044557828181518110610398576103986120b3565b6020026020010151602001518383815181106103b6576103b66120b3565b602002602001015160200151101561043d5760008383815181106103dc576103dc6120b3565b602002602001015190508382815181106103f8576103f86120b3565b6020026020010151848481518110610412576104126120b3565b602002602001018190525080848381518110610430576104306120b3565b6020026020010181905250505b60010161037d565b50600101610364565b5060008267ffffffffffffffff81111561046a5761046a611ada565b604051908082528060200260200182016040528015610493578160200160208202803683370190505b50905060005b8381101561053c578281815181106104b3576104b36120b3565b6020026020010151600001518282815181106104d1576104d16120b3565b60200260200101906001600160a01b031690816001600160a01b0316815250506105346040518060400160405280600881526020016702bb4b73732b91d160c51b815250838381518110610527576105276120b3565b6020026020010151611551565b600101610499565b506002546040516338d2e2b960e11b81526001600160a01b03909116906371a5c5729061056d9084906004016120c9565b600060405180830381600087803b15801561058757600080fd5b505af115801561059b573d6000803e3d6000fd5b505050507f48fcc37190f2613c3ad004cac1fc4ed1d270d7453ce1523fac376a70e5fb36ca816040516105ce91906120c9565b60405180910390a1600484015460405161010090910460ff161515815285907f628c5b5fb646e7f6c763f5e3b6fdcbee619fe1c1bc595643a1c70415a6f113499060200160405180910390a25050505050565b600481015460405161010090910460ff161515815282907f628c5b5fb646e7f6c763f5e3b6fdcbee619fe1c1bc595643a1c70415a6f113499060200160405180910390a25050565b60008751116106b25760405162461bcd60e51b81526020600482015260156024820152745469746c652063616e6e6f7420626520656d70747960581b60448201526064016102a5565b6001805460008181526020819052604090209081559081016106d489826121a1565b50600281016106e388826121a1565b50600381016106f287826121a1565b5060048101805461ff00198715151661ffff19909116176101001790556005810184905560005b83518110156107d65760006040518060600160405280600115158152602001600015158152602001868481518110610753576107536120b3565b6020908102919091018101516001600160a01b03908116909252600a860180546001818101835560009283529183902085519101805493860151604090960151909416620100000262010000600160b01b03199515156101000261ff00199215159290921661ffff19909416939093171793909316179055919091019050610719565b5084156108c357600082511161082e5760405162461bcd60e51b815260206004820152601a60248201527f43616e646964617465732063616e6e6f7420626520656d70747900000000000060448201526064016102a5565b60005b82518110156108c15760006040518060400160405280858481518110610859576108596120b3565b6020908102919091018101516001600160a01b03908116835260009282018390526009870180546001808201835591855293839020855160029095020180546001600160a01b0319169490921693909317815592015191810191909155919091019050610831565b505b600180546000908152602081905260409020825481558291818101906108eb90840182612261565b506002818101906108fe90840182612261565b5060038181019061091190840182612261565b5060048281018054918301805460ff938416151560ff19821681178355925461010090819004909416151590930261ff001990921661ffff1990931692909217179055600580830154908201556006808301549082015560078083015490820155600880830154908201556009808301805461099092840191906118e6565b50600a82810180546109a5928401919061195e565b509050506001547f2da739368218397c1f8267a798bce5722bae1a51d2855fb923312edf27460c6089896040516109dd929190612334565b60405180910390a2600180549060006109f583612362565b91905055505050505050505050565b610a0c611a03565b6001548210610a2d5760405162461bcd60e51b81526004016102a590612053565b6000828152602081815260409182902082516101408101909352805483526001810180549192840191610a5f90612116565b80601f0160208091040260200160405190810160405280929190818152602001828054610a8b90612116565b8015610ad85780601f10610aad57610100808354040283529160200191610ad8565b820191906000526020600020905b815481529060010190602001808311610abb57829003601f168201915b50505050508152602001600282018054610af190612116565b80601f0160208091040260200160405190810160405280929190818152602001828054610b1d90612116565b8015610b6a5780601f10610b3f57610100808354040283529160200191610b6a565b820191906000526020600020905b815481529060010190602001808311610b4d57829003601f168201915b50505050508152602001600382018054610b8390612116565b80601f0160208091040260200160405190810160405280929190818152602001828054610baf90612116565b8015610bfc5780601f10610bd157610100808354040283529160200191610bfc565b820191906000526020600020905b815481529060010190602001808311610bdf57829003601f168201915b5050509183525050600482015460ff808216151560208085019190915261010090920416151560408084019190915260058401546060808501919091528151908101825260068501548152600785015481840152600885015481830152608084015260098401805482518185028101850190935280835260a090940193919290919060009084015b82821015610ccc576000848152602090819020604080518082019091526002850290910180546001600160a01b03168252600190810154828401529083529092019101610c84565b505050508152602001600a8201805480602002602001604051908101604052809291908181526020016000905b82821015610d50576000848152602090819020604080516060810182529185015460ff808216151584526101008204161515838501526201000090046001600160a01b031690820152825260019092019101610cf9565b505050915250909392505050565b60006020819052908152604090208054600182018054919291610d8090612116565b80601f0160208091040260200160405190810160405280929190818152602001828054610dac90612116565b8015610df95780601f10610dce57610100808354040283529160200191610df9565b820191906000526020600020905b815481529060010190602001808311610ddc57829003601f168201915b505050505090806002018054610e0e90612116565b80601f0160208091040260200160405190810160405280929190818152602001828054610e3a90612116565b8015610e875780601f10610e5c57610100808354040283529160200191610e87565b820191906000526020600020905b815481529060010190602001808311610e6a57829003601f168201915b505050505090806003018054610e9c90612116565b80601f0160208091040260200160405190810160405280929190818152602001828054610ec890612116565b8015610f155780601f10610eea57610100808354040283529160200191610f15565b820191906000526020600020905b815481529060010190602001808311610ef857829003601f168201915b505050506004830154600584015460408051606081018252600687015481526007870154602082015260089096015490860152929360ff8083169461010090930416925088565b610f6461159a565b610f6e60006115f5565b565b610f7861159a565b6002546040516338d2e2b960e11b81526001600160a01b03909116906371a5c57290610fa89084906004016120c9565b600060405180830381600087803b158015610fc257600080fd5b505af1158015610fd6573d6000803e3d6000fd5b5050505050565b7ff0c57e16840df040f15088dc2f81fe391c3923bec73e23a9662efc9c229c6a008054600160401b810460ff16159067ffffffffffffffff166000811580156110235750825b905060008267ffffffffffffffff1660011480156110405750303b155b90508115801561104e575080155b1561106c5760405163f92ee8a960e01b815260040160405180910390fd5b845467ffffffffffffffff19166001178555831561109657845460ff60401b1916600160401b1785555b61109f33611666565b6110a7611677565b6110af611687565b8315610fd657845460ff60401b19168555604051600181527fc7f505b2f371ae2175ee4913f4499e1f2633a7b5936321eed1cdaeb6115181d29060200160405180910390a15050505050565b600154821061111c5760405162461bcd60e51b81526004016102a590612053565b60008281526020819052604090206004810154610100900460ff1661117c5760405162461bcd60e51b815260206004820152601660248201527550726f706f73616c206973206e6f742061637469766560501b60448201526064016102a5565b60006111888233611697565b805490915060ff166111dc5760405162461bcd60e51b815260206004820152601c60248201527f596f7520617265206e6f7420656c696769626c6520746f20766f74650000000060448201526064016102a5565b8054610100900460ff161561122c5760405162461bcd60e51b8152602060048201526016602482015275165bdd481a185d9948185b1c9958591e481d9bdd195960521b60448201526064016102a5565b611236828461177c565b805461ff001916610100178155604051849033907fabe5d78d7c4aff0ea01d11f7334d89bf989faef45af0c780acf4ccff6bd5c8db906112799087815260200190565b60405180910390a350505050565b61128f61159a565b600280546001600160a01b0319166001600160a01b0392909216919091179055565b60015482106112d25760405162461bcd60e51b81526004016102a590612053565b60008281526020819052604090206004810154610100900460ff166113325760405162461bcd60e51b815260206004820152601660248201527550726f706f73616c206973206e6f742061637469766560501b60448201526064016102a5565b600061133e8233611697565b805490915060ff166113925760405162461bcd60e51b815260206004820152601c60248201527f596f7520617265206e6f7420656c696769626c6520746f20766f74650000000060448201526064016102a5565b8054610100900460ff16156113e25760405162461bcd60e51b8152602060048201526016602482015275165bdd481a185d9948185b1c9958591e481d9bdd195960521b60448201526064016102a5565b6000805b600984015481101561147957846001600160a01b0316846009018281548110611411576114116120b3565b60009182526020909120600290910201546001600160a01b03160361147157836009018181548110611445576114456120b3565b60009182526020822060016002909202010180549161146383612362565b919050555060019150611479565b6001016113e6565b50806114c75760405162461bcd60e51b815260206004820152601860248201527f43616e64696461746520646f6573206e6f74206578697374000000000000000060448201526064016102a5565b815461ff0019166101001782556040516001600160a01b03851690869033907fe8db14efb3e399b32db39dd2829b3af23451747dba46368ce6a3d5ccefebf88290600090a45050505050565b61151b61159a565b6001600160a01b03811661154557604051631e4fbdf760e01b8152600060048201526024016102a5565b61154e816115f5565b50565b611596828260405160240161156792919061237b565b60408051601f198184030181529190526020810180516001600160e01b031663319af33360e01b17905261180a565b5050565b336115cc7f9016d09d72d40fdae2fd8ceac6b6234c7706214fd39c1cd1e609a0528c199300546001600160a01b031690565b6001600160a01b031614610f6e5760405163118cdaa760e01b81523360048201526024016102a5565b7f9016d09d72d40fdae2fd8ceac6b6234c7706214fd39c1cd1e609a0528c19930080546001600160a01b031981166001600160a01b03848116918217845560405192169182907f8be0079c531659141344cd1fd0a4f28419497f9722a3daafe3b4186f6b6457e090600090a3505050565b61166e611813565b61154e8161185c565b61167f611813565b610f6e611864565b61168f611813565b610f6e611892565b6000805b600a84015481101561171557826001600160a01b031684600a0182815481106116c6576116c66120b3565b6000918252602090912001546201000090046001600160a01b03160361170d5783600a0181815481106116fb576116fb6120b3565b90600052602060002001915050611776565b60010161169b565b5060405162461bcd60e51b815260206004820152602f60248201527f596f7520617265206e6f74207265676973746572656420746f20766f7465206960448201526e1b881d1a1a5cc81c1c9bdc1bdcd85b608a1b60648201526084016102a5565b92915050565b8060000361179f5760078201805490600061179683612362565b91905055505050565b806001036117b95760068201805490600061179683612362565b806002036117d35760088201805490600061179683612362565b60405162461bcd60e51b815260206004820152600c60248201526b496e76616c696420766f746560a01b60448201526064016102a5565b61154e816118c5565b7ff0c57e16840df040f15088dc2f81fe391c3923bec73e23a9662efc9c229c6a0054600160401b900460ff16610f6e57604051631afcd79f60e31b815260040160405180910390fd5b61151b611813565b61186c611813565b60017f9b779b17422d0df92223018b32b4d1fa46e071723d6817e2486d003becc55f0055565b61189a611813565b7fcd5ed15c6e187e77e9aee88184c21f4f2182ab5827cb3b7e07fbedcd63f03300805460ff19169055565b60006a636f6e736f6c652e6c6f679050600080835160208501845afa505050565b82805482825590600052602060002090600202810192821561194e5760005260206000209160020282015b8281111561194e57825482546001600160a01b0319166001600160a01b039091161782556001808401549083015560029283019290910190611911565b5061195a929150611a7c565b5090565b8280548282559060005260206000209081019282156119f75760005260206000209182015b828111156119f7578254825460ff918216151560ff19821681178555855461010090819004909316151590920261ff001990921661ffff19909116171780835583546001600160a01b036201000091829004160262010000600160b01b031990911617825560019283019290910190611983565b5061195a929150611aa2565b6040518061014001604052806000815260200160608152602001606081526020016060815260200160001515815260200160001515815260200160008152602001611a6860405180606001604052806000815260200160008152602001600081525090565b815260200160608152602001606081525090565b5b8082111561195a5780546001600160a01b031916815560006001820155600201611a7d565b5b8082111561195a5780546001600160b01b0319168155600101611aa3565b600060208284031215611ad357600080fd5b5035919050565b634e487b7160e01b600052604160045260246000fd5b604051601f8201601f1916810167ffffffffffffffff81118282101715611b1957611b19611ada565b604052919050565b600082601f830112611b3257600080fd5b813567ffffffffffffffff811115611b4c57611b4c611ada565b611b5f601f8201601f1916602001611af0565b818152846020838601011115611b7457600080fd5b816020850160208301376000918101602001919091529392505050565b80358015158114611ba157600080fd5b919050565b80356001600160a01b0381168114611ba157600080fd5b600082601f830112611bce57600080fd5b8135602067ffffffffffffffff821115611bea57611bea611ada565b8160051b611bf9828201611af0565b9283528481018201928281019087851115611c1357600080fd5b83870192505b84831015611c3957611c2a83611ba6565b82529183019190830190611c19565b979650505050505050565b600080600080600080600060e0888a031215611c5f57600080fd5b873567ffffffffffffffff80821115611c7757600080fd5b611c838b838c01611b21565b985060208a0135915080821115611c9957600080fd5b611ca58b838c01611b21565b975060408a0135915080821115611cbb57600080fd5b611cc78b838c01611b21565b9650611cd560608b01611b91565b955060808a0135945060a08a0135915080821115611cf257600080fd5b611cfe8b838c01611bbd565b935060c08a0135915080821115611d1457600080fd5b50611d218a828b01611bbd565b91505092959891949750929550565b6000815180845260005b81811015611d5657602081850181015186830182015201611d3a565b506000602082860101526020601f19601f83011685010191505092915050565b60008151808452602080850194506020840160005b83811015611dbb57815180516001600160a01b031688528301518388015260409096019590820190600101611d8b565b509495945050505050565b60008151808452602080850194506020840160005b83811015611dbb578151805115158852838101511515848901526040908101516001600160a01b03169088015260609096019590820190600101611ddb565b602081528151602082015260006020830151610180806040850152611e436101a0850183611d30565b91506040850151601f1980868503016060870152611e618483611d30565b93506060870151915080868503016080870152611e7e8483611d30565b935060808701519150611e9560a087018315159052565b60a087015180151560c0880152915060c087015160e087015260e08701519150610100611ed8818801848051825260208082015190830152604090810151910152565b87015186850382016101608801529150611ef28483611d76565b9350610120870151915080868503018387015250611f108382611dc6565b9695505050505050565b60006101408a8352806020840152611f348184018b611d30565b90508281036040840152611f48818a611d30565b90508281036060840152611f5c8189611d30565b871515608085015286151560a085015260c08401869052845160e0850152602085015161010085015260408501516101208501529150611f999050565b9998505050505050505050565b600060208284031215611fb857600080fd5b813567ffffffffffffffff811115611fcf57600080fd5b611fdb84828501611bbd565b949350505050565b60008060408385031215611ff657600080fd5b50508035926020909101359150565b60006020828403121561201757600080fd5b61202082611ba6565b9392505050565b6000806040838503121561203a57600080fd5b8235915061204a60208401611ba6565b90509250929050565b60208082526017908201527f50726f706f73616c20646f6573206e6f74206578697374000000000000000000604082015260600190565b634e487b7160e01b600052601160045260246000fd5b808201808211156117765761177661208a565b634e487b7160e01b600052603260045260246000fd5b6020808252825182820181905260009190848201906040850190845b8181101561210a5783516001600160a01b0316835292840192918401916001016120e5565b50909695505050505050565b600181811c9082168061212a57607f821691505b60208210810361214a57634e487b7160e01b600052602260045260246000fd5b50919050565b601f82111561219c576000816000526020600020601f850160051c810160208610156121795750805b601f850160051c820191505b8181101561219857828155600101612185565b5050505b505050565b815167ffffffffffffffff8111156121bb576121bb611ada565b6121cf816121c98454612116565b84612150565b602080601f83116001811461220457600084156121ec5750858301515b600019600386901b1c1916600185901b178555612198565b600085815260208120601f198616915b8281101561223357888601518255948401946001909101908401612214565b50858210156122515787850151600019600388901b60f8161c191681555b5050505050600190811b01905550565b81810361226c575050565b6122768254612116565b67ffffffffffffffff81111561228e5761228e611ada565b61229c816121c98454612116565b6000601f8211600181146122d057600083156122b85750848201545b600019600385901b1c1916600184901b178455610fd6565b600085815260209020601f19841690600086815260209020845b8381101561230a57828601548255600195860195909101906020016122ea565b50858310156122515793015460001960f8600387901b161c19169092555050600190811b01905550565b6040815260006123476040830185611d30565b82810360208401526123598185611d30565b95945050505050565b6000600182016123745761237461208a565b5060010190565b60408152600061238e6040830185611d30565b905060018060a01b0383166020830152939250505056fea2646970667358221220b9877cec5fc946852219737d1782e6b6bc879959de1410c8934199d53e57bda464736f6c63430008180033",
  "linkReferences": {},
  "deployedLinkReferences": {}
}