{
  "_format": "hh-sol-artifact-1",
  "contractName": "Voting",
  "sourceName": "contracts/Voting/Voting.sol",
  "abi": [
    {
      "anonymous": false,
      "inputs": [
        {
          "indexed": true,
          "internalType": "address",
          "name": "voter",
          "type": "address"
        },
        {
          "indexed": true,
          "internalType": "uint256",
          "name": "proposalId",
          "type": "uint256"
        },
        {
          "indexed": false,
          "internalType": "uint256",
          "name": "vote",
          "type": "uint256"
        }
      ],
      "name": "DirectiveVoted",
      "type": "event"
    },
    {
      "anonymous": false,
      "inputs": [
        {
          "indexed": true,
          "internalType": "address",
          "name": "voter",
          "type": "address"
        },
        {
          "indexed": true,
          "internalType": "uint256",
          "name": "proposalId",
          "type": "uint256"
        },
        {
          "indexed": true,
          "internalType": "address",
          "name": "candidateAddress",
          "type": "address"
        }
      ],
      "name": "ElectionVoted",
      "type": "event"
    },
    {
      "anonymous": false,
      "inputs": [
        {
          "indexed": true,
          "internalType": "uint256",
          "name": "proposalId",
          "type": "uint256"
        },
        {
          "indexed": false,
          "internalType": "string",
          "name": "title",
          "type": "string"
        },
        {
          "indexed": false,
          "internalType": "string",
          "name": "description",
          "type": "string"
        }
      ],
      "name": "ProposalAdded",
      "type": "event"
    },
    {
      "anonymous": false,
      "inputs": [
        {
          "indexed": true,
          "internalType": "uint256",
          "name": "proposalId",
          "type": "uint256"
        },
        {
          "indexed": false,
          "internalType": "bool",
          "name": "isActive",
          "type": "bool"
        }
      ],
      "name": "ProposalConcluded",
      "type": "event"
    },
    {
      "inputs": [
        {
          "components": [
            {
              "internalType": "uint256",
              "name": "id",
              "type": "uint256"
            },
            {
              "internalType": "string",
              "name": "title",
              "type": "string"
            },
            {
              "internalType": "string",
              "name": "description",
              "type": "string"
            },
            {
              "internalType": "string",
              "name": "draftedBy",
              "type": "string"
            },
            {
              "internalType": "bool",
              "name": "isElection",
              "type": "bool"
            },
            {
              "internalType": "bool",
              "name": "isActive",
              "type": "bool"
            },
            {
              "internalType": "uint256",
              "name": "teamId",
              "type": "uint256"
            },
            {
              "components": [
                {
                  "internalType": "uint256",
                  "name": "yes",
                  "type": "uint256"
                },
                {
                  "internalType": "uint256",
                  "name": "no",
                  "type": "uint256"
                },
                {
                  "internalType": "uint256",
                  "name": "abstain",
                  "type": "uint256"
                }
              ],
              "internalType": "struct Types.DirectiveVotes",
              "name": "votes",
              "type": "tuple"
            },
            {
              "components": [
                {
                  "internalType": "string",
                  "name": "name",
                  "type": "string"
                },
                {
                  "internalType": "address",
                  "name": "candidateAddress",
                  "type": "address"
                },
                {
                  "internalType": "uint256",
                  "name": "votes",
                  "type": "uint256"
                }
              ],
              "internalType": "struct Types.Candidate[]",
              "name": "candidates",
              "type": "tuple[]"
            },
            {
              "components": [
                {
                  "internalType": "string",
                  "name": "name",
                  "type": "string"
                },
                {
                  "internalType": "bool",
                  "name": "isEligible",
                  "type": "bool"
                },
                {
                  "internalType": "bool",
                  "name": "isVoted",
                  "type": "bool"
                },
                {
                  "internalType": "address",
                  "name": "memberAddress",
                  "type": "address"
                }
              ],
              "internalType": "struct Types.Member[]",
              "name": "voters",
              "type": "tuple[]"
            }
          ],
          "internalType": "struct Types.Proposal",
          "name": "_proposal",
          "type": "tuple"
        }
      ],
      "name": "addProposal",
      "outputs": [],
      "stateMutability": "nonpayable",
      "type": "function"
    },
    {
      "inputs": [
        {
          "internalType": "uint256",
          "name": "teamId",
          "type": "uint256"
        },
        {
          "internalType": "uint256",
          "name": "proposalId",
          "type": "uint256"
        }
      ],
      "name": "concludeProposal",
      "outputs": [],
      "stateMutability": "nonpayable",
      "type": "function"
    },
    {
      "inputs": [
        {
          "internalType": "uint256",
          "name": "teamId",
          "type": "uint256"
        }
      ],
      "name": "getProposals",
      "outputs": [
        {
          "components": [
            {
              "internalType": "uint256",
              "name": "id",
              "type": "uint256"
            },
            {
              "internalType": "string",
              "name": "title",
              "type": "string"
            },
            {
              "internalType": "string",
              "name": "description",
              "type": "string"
            },
            {
              "internalType": "string",
              "name": "draftedBy",
              "type": "string"
            },
            {
              "internalType": "bool",
              "name": "isElection",
              "type": "bool"
            },
            {
              "internalType": "bool",
              "name": "isActive",
              "type": "bool"
            },
            {
              "internalType": "uint256",
              "name": "teamId",
              "type": "uint256"
            },
            {
              "components": [
                {
                  "internalType": "uint256",
                  "name": "yes",
                  "type": "uint256"
                },
                {
                  "internalType": "uint256",
                  "name": "no",
                  "type": "uint256"
                },
                {
                  "internalType": "uint256",
                  "name": "abstain",
                  "type": "uint256"
                }
              ],
              "internalType": "struct Types.DirectiveVotes",
              "name": "votes",
              "type": "tuple"
            },
            {
              "components": [
                {
                  "internalType": "string",
                  "name": "name",
                  "type": "string"
                },
                {
                  "internalType": "address",
                  "name": "candidateAddress",
                  "type": "address"
                },
                {
                  "internalType": "uint256",
                  "name": "votes",
                  "type": "uint256"
                }
              ],
              "internalType": "struct Types.Candidate[]",
              "name": "candidates",
              "type": "tuple[]"
            },
            {
              "components": [
                {
                  "internalType": "string",
                  "name": "name",
                  "type": "string"
                },
                {
                  "internalType": "bool",
                  "name": "isEligible",
                  "type": "bool"
                },
                {
                  "internalType": "bool",
                  "name": "isVoted",
                  "type": "bool"
                },
                {
                  "internalType": "address",
                  "name": "memberAddress",
                  "type": "address"
                }
              ],
              "internalType": "struct Types.Member[]",
              "name": "voters",
              "type": "tuple[]"
            }
          ],
          "internalType": "struct Types.Proposal[]",
          "name": "",
          "type": "tuple[]"
        }
      ],
      "stateMutability": "view",
      "type": "function"
    },
    {
      "inputs": [],
      "name": "proposalCount",
      "outputs": [
        {
          "internalType": "uint256",
          "name": "",
          "type": "uint256"
        }
      ],
      "stateMutability": "view",
      "type": "function"
    },
    {
      "inputs": [
        {
          "internalType": "uint256",
          "name": "",
          "type": "uint256"
        },
        {
          "internalType": "uint256",
          "name": "",
          "type": "uint256"
        }
      ],
      "name": "proposalsByTeam",
      "outputs": [
        {
          "internalType": "uint256",
          "name": "id",
          "type": "uint256"
        },
        {
          "internalType": "string",
          "name": "title",
          "type": "string"
        },
        {
          "internalType": "string",
          "name": "description",
          "type": "string"
        },
        {
          "internalType": "string",
          "name": "draftedBy",
          "type": "string"
        },
        {
          "internalType": "bool",
          "name": "isElection",
          "type": "bool"
        },
        {
          "internalType": "bool",
          "name": "isActive",
          "type": "bool"
        },
        {
          "internalType": "uint256",
          "name": "teamId",
          "type": "uint256"
        },
        {
          "components": [
            {
              "internalType": "uint256",
              "name": "yes",
              "type": "uint256"
            },
            {
              "internalType": "uint256",
              "name": "no",
              "type": "uint256"
            },
            {
              "internalType": "uint256",
              "name": "abstain",
              "type": "uint256"
            }
          ],
          "internalType": "struct Types.DirectiveVotes",
          "name": "votes",
          "type": "tuple"
        }
      ],
      "stateMutability": "view",
      "type": "function"
    },
    {
      "inputs": [
        {
          "internalType": "uint256",
          "name": "teamId",
          "type": "uint256"
        },
        {
          "internalType": "uint256",
          "name": "proposalId",
          "type": "uint256"
        },
        {
          "internalType": "uint256",
          "name": "vote",
          "type": "uint256"
        }
      ],
      "name": "voteDirective",
      "outputs": [],
      "stateMutability": "nonpayable",
      "type": "function"
    },
    {
      "inputs": [
        {
          "internalType": "uint256",
          "name": "teamId",
          "type": "uint256"
        },
        {
          "internalType": "uint256",
          "name": "proposalId",
          "type": "uint256"
        },
        {
          "internalType": "address",
          "name": "candidateAddress",
          "type": "address"
        }
      ],
      "name": "voteElection",
      "outputs": [],
      "stateMutability": "nonpayable",
      "type": "function"
    }
  ],
  "bytecode": "0x608060405234801561001057600080fd5b50611b9e806100206000396000f3fe608060405234801561001057600080fd5b506004361061007d5760003560e01c80639ef1999f1161005b5780639ef1999f146100d3578063af27a75c146100e6578063da35c664146100f9578063f516a4fa1461011057600080fd5b80632c72fdfc1461008257806350282f2d146100ab5780636489f9a4146100c0575b600080fd5b6100956100903660046111c6565b610137565b6040516100a29190611328565b60405180910390f35b6100be6100b9366004611461565b6105fc565b005b6100be6100ce3660046114a4565b6108ff565b6100be6100e13660046114de565b610998565b6100be6100f4366004611517565b610c09565b61010260015481565b6040519081526020016100a2565b61012361011e3660046114a4565b610da1565b6040516100a2989796959493929190611543565b600081815260208181526040808320805482518185028101850190935280835260609492939192909184015b828210156105f157838290600052602060002090600b020160405180610140016040529081600082015481526020016001820180546101a1906115cf565b80601f01602080910402602001604051908101604052809291908181526020018280546101cd906115cf565b801561021a5780601f106101ef5761010080835404028352916020019161021a565b820191906000526020600020905b8154815290600101906020018083116101fd57829003601f168201915b50505050508152602001600282018054610233906115cf565b80601f016020809104026020016040519081016040528092919081815260200182805461025f906115cf565b80156102ac5780601f10610281576101008083540402835291602001916102ac565b820191906000526020600020905b81548152906001019060200180831161028f57829003601f168201915b505050505081526020016003820180546102c5906115cf565b80601f01602080910402602001604051908101604052809291908181526020018280546102f1906115cf565b801561033e5780601f106103135761010080835404028352916020019161033e565b820191906000526020600020905b81548152906001019060200180831161032157829003601f168201915b5050509183525050600482015460ff808216151560208085019190915261010090920416151560408084019190915260058401546060808501919091528151908101825260068501548152600785015481840152600885015481830152608084015260098401805482518185028101850190935280835260a090940193919290919060009084015b828210156104ad57838290600052602060002090600302016040518060600160405290816000820180546103f9906115cf565b80601f0160208091040260200160405190810160405280929190818152602001828054610425906115cf565b80156104725780601f1061044757610100808354040283529160200191610472565b820191906000526020600020905b81548152906001019060200180831161045557829003601f168201915b50505091835250506001828101546001600160a01b0316602080840191909152600290930154604090920191909152918352920191016103c6565b505050508152602001600a8201805480602002602001604051908101604052809291908181526020016000905b828210156105da578382906000526020600020906002020160405180608001604052908160008201805461050d906115cf565b80601f0160208091040260200160405190810160405280929190818152602001828054610539906115cf565b80156105865780601f1061055b57610100808354040283529160200191610586565b820191906000526020600020905b81548152906001019060200180831161056957829003601f168201915b505050918352505060019182015460ff8082161515602080850191909152610100830490911615156040840152620100009091046001600160a01b03166060909201919091529183529290920191016104da565b505050508152505081526020019060010190610163565b505050509050919050565b60008160c00135116106465760405162461bcd60e51b815260206004820152600e60248201526d125b9d985b1a59081d19585b525960921b60448201526064015b60405180910390fd5b60006106556020830183611609565b90501161069c5760405162461bcd60e51b81526020600482015260156024820152745469746c652063616e6e6f7420626520656d70747960581b604482015260640161063d565b60c08101356000908152602081815260408220805460018181018355918452928290209054600b909302019182556106d690830183611609565b60018301916106e69190836116d3565b506106f46040830183611609565b60028301916107049190836116d3565b506107126060830183611609565b60038301916107229190836116d3565b5061073360a083016080840161179c565b60048201805460ff191691151591909117905561075660c0830160a0840161179c565b6004820180549115156101000261ff001990921691909117905560c0820135600582015560005b61078b6101408401846117b9565b90508110156107f457600982016107a66101408501856117b9565b838181106107b6576107b6611803565b90506020028101906107c89190611819565b8154600181018355600092835260209092209091600302016107ea8282611846565b505060010161077d565b5060005b6108066101608401846117b9565b905081101561086f57600a82016108216101608501856117b9565b8381811061083157610831611803565b90506020028101906108439190611949565b815460018101835560009283526020909220909160020201610865828261196c565b50506001016107f8565b5060e08201356006820155610100820135600782015561012082013560088201556001547f2da739368218397c1f8267a798bce5722bae1a51d2855fb923312edf27460c606108c16020850185611609565b6108ce6040870187611609565b6040516108de9493929190611ad8565b60405180910390a2600180549060006108f683611b0a565b91905055505050565b60015481106109205760405162461bcd60e51b815260040161063d90611b31565b600061092c8383610fc3565b60048101805460ff610100808304821615810261ff0019909316929092179283905560405193945085937f628c5b5fb646e7f6c763f5e3b6fdcbee619fe1c1bc595643a1c70415a6f113499361098b9390049091161515815260200190565b60405180910390a2505050565b60015482106109b95760405162461bcd60e51b815260040161063d90611b31565b60006109c58484610fc3565b6004810154909150610100900460ff16610a1a5760405162461bcd60e51b815260206004820152601660248201527550726f706f73616c206973206e6f742061637469766560501b604482015260640161063d565b6000610a268233611056565b600181015490915060ff16610a7d5760405162461bcd60e51b815260206004820152601c60248201527f596f7520617265206e6f7420656c696769626c6520746f20766f746500000000604482015260640161063d565b6001810154610100900460ff1615610ad05760405162461bcd60e51b8152602060048201526016602482015275165bdd481a185d9948185b1c9958591e481d9bdd195960521b604482015260640161063d565b6000805b6009840154811015610b6a57846001600160a01b0316846009018281548110610aff57610aff611803565b60009182526020909120600160039092020101546001600160a01b031603610b6257836009018181548110610b3657610b36611803565b600091825260208220600260039092020101805491610b5483611b0a565b919050555060019150610b6a565b600101610ad4565b5080610bb85760405162461bcd60e51b815260206004820152601860248201527f43616e64696461746520646f6573206e6f742065786973740000000000000000604482015260640161063d565b60018201805461ff0019166101001790556040516001600160a01b03851690869033907fe8db14efb3e399b32db39dd2829b3af23451747dba46368ce6a3d5ccefebf88290600090a4505050505050565b6001548210610c2a5760405162461bcd60e51b815260040161063d90611b31565b6000610c368484610fc3565b6004810154909150610100900460ff16610c8b5760405162461bcd60e51b815260206004820152601660248201527550726f706f73616c206973206e6f742061637469766560501b604482015260640161063d565b6000610c978233611056565b600181015490915060ff16610cee5760405162461bcd60e51b815260206004820152601c60248201527f596f7520617265206e6f7420656c696769626c6520746f20766f746500000000604482015260640161063d565b6001810154610100900460ff1615610d415760405162461bcd60e51b8152602060048201526016602482015275165bdd481a185d9948185b1c9958591e481d9bdd195960521b604482015260640161063d565b610d4b8284611141565b60018101805461ff001916610100179055604051849033907fabe5d78d7c4aff0ea01d11f7334d89bf989faef45af0c780acf4ccff6bd5c8db90610d929087815260200190565b60405180910390a35050505050565b60006020528160005260406000208181548110610dbd57600080fd5b90600052602060002090600b020160009150915050806000015490806001018054610de7906115cf565b80601f0160208091040260200160405190810160405280929190818152602001828054610e13906115cf565b8015610e605780601f10610e3557610100808354040283529160200191610e60565b820191906000526020600020905b815481529060010190602001808311610e4357829003601f168201915b505050505090806002018054610e75906115cf565b80601f0160208091040260200160405190810160405280929190818152602001828054610ea1906115cf565b8015610eee5780601f10610ec357610100808354040283529160200191610eee565b820191906000526020600020905b815481529060010190602001808311610ed157829003601f168201915b505050505090806003018054610f03906115cf565b80601f0160208091040260200160405190810160405280929190818152602001828054610f2f906115cf565b8015610f7c5780601f10610f5157610100808354040283529160200191610f7c565b820191906000526020600020905b815481529060010190602001808311610f5f57829003601f168201915b505050506004830154600584015460408051606081018252600687015481526007870154602082015260089096015490860152929360ff8083169461010090930416925088565b6000828152602081905260408120815b81548110156110375783828281548110610fef57610fef611803565b90600052602060002090600b0201600001540361102f5781818154811061101857611018611803565b90600052602060002090600b020192505050611050565b600101610fd3565b5060405162461bcd60e51b815260040161063d90611b31565b92915050565b6000805b600a8401548110156110e057826001600160a01b031684600a01828154811061108557611085611803565b60009182526020909120600290910201600101546201000090046001600160a01b0316036110d85783600a0181815481106110c2576110c2611803565b9060005260206000209060020201915050611050565b60010161105a565b5060405162461bcd60e51b815260206004820152602f60248201527f596f7520617265206e6f74207265676973746572656420746f20766f7465206960448201526e1b881d1a1a5cc81c1c9bdc1bdcd85b608a1b606482015260840161063d565b8060000361115b576007820180549060006108f683611b0a565b80600103611175576006820180549060006108f683611b0a565b8060020361118f576008820180549060006108f683611b0a565b60405162461bcd60e51b815260206004820152600c60248201526b496e76616c696420766f746560a01b604482015260640161063d565b6000602082840312156111d857600080fd5b5035919050565b6000815180845260005b81811015611205576020818501810151868301820152016111e9565b506000602082860101526020601f19601f83011685010191505092915050565b600082825180855260208086019550808260051b84010181860160005b8481101561129957601f19868403018952815160608151818652611268828701826111df565b838801516001600160a01b031687890152604093840151939096019290925250509783019790830190600101611242565b5090979650505050505050565b600082825180855260208086019550808260051b84010181860160005b8481101561129957601f198684030189528151608081518186526112e9828701826111df565b838801511515878901526040808501511515908801526060938401516001600160a01b03169390960192909252505097830197908301906001016112c3565b600060208083018184528085518083526040925060408601915060408160051b87010184880160005b8381101561145357603f1989840301855281516101808151855288820151818a870152611380828701826111df565b915050878201518582038987015261139882826111df565b915050606080830151868303828801526113b283826111df565b925050506080808301516113c98288018215159052565b505060a08281015180151587830152505060c0828101519086015260e0808301518051828801526020810151610100880152604081015161012088015250506101008201518582036101408701526114218282611225565b915050610120820151915084810361016086015261143f81836112a6565b968901969450505090860190600101611351565b509098975050505050505050565b60006020828403121561147357600080fd5b813567ffffffffffffffff81111561148a57600080fd5b8201610180818503121561149d57600080fd5b9392505050565b600080604083850312156114b757600080fd5b50508035926020909101359150565b6001600160a01b03811681146114db57600080fd5b50565b6000806000606084860312156114f357600080fd5b8335925060208401359150604084013561150c816114c6565b809150509250925092565b60008060006060848603121561152c57600080fd5b505081359360208301359350604090920135919050565b60006101408a835280602084015261155d8184018b6111df565b90508281036040840152611571818a6111df565b9050828103606084015261158581896111df565b871515608085015286151560a085015260c08401869052845160e08501526020850151610100850152604085015161012085015291506115c29050565b9998505050505050505050565b600181811c908216806115e357607f821691505b60208210810361160357634e487b7160e01b600052602260045260246000fd5b50919050565b6000808335601e1984360301811261162057600080fd5b83018035915067ffffffffffffffff82111561163b57600080fd5b60200191503681900382131561165057600080fd5b9250929050565b634e487b7160e01b600052604160045260246000fd5b601f8211156116b9576000816000526020600020601f850160051c810160208610156116965750805b601f850160051c820191505b818110156116b5578281556001016116a2565b5050505b505050565b600019600383901b1c191660019190911b1790565b67ffffffffffffffff8311156116eb576116eb611657565b6116ff836116f983546115cf565b8361166d565b6000601f84116001811461172d576000851561171b5750838201355b61172586826116be565b845550611787565b600083815260209020601f19861690835b8281101561175e578685013582556020948501946001909201910161173e565b508682101561177b5760001960f88860031b161c19848701351681555b505060018560011b0183555b5050505050565b80151581146114db57600080fd5b6000602082840312156117ae57600080fd5b813561149d8161178e565b6000808335601e198436030181126117d057600080fd5b83018035915067ffffffffffffffff8211156117eb57600080fd5b6020019150600581901b360382131561165057600080fd5b634e487b7160e01b600052603260045260246000fd5b60008235605e1983360301811261182f57600080fd5b9190910192915050565b60008135611050816114c6565b6118508283611609565b67ffffffffffffffff81111561186857611868611657565b61187c8161187685546115cf565b8561166d565b6000601f8211600181146118aa57600083156118985750838201355b6118a284826116be565b865550611904565b600085815260209020601f19841690835b828110156118db57868501358255602094850194600190920191016118bb565b50848210156118f85760001960f88660031b161c19848701351681555b505060018360011b0185555b5050505061193b61191760208401611839565b6001830180546001600160a01b0319166001600160a01b0392909216919091179055565b604082013560028201555050565b60008235607e1983360301811261182f57600080fd5b600081356110508161178e565b6119768283611609565b67ffffffffffffffff81111561198e5761198e611657565b61199c8161187685546115cf565b6000601f8211600181146119ca57600083156119b85750838201355b6119c284826116be565b865550611a24565b600085815260209020601f19841690835b828110156119fb57868501358255602094850194600190920191016119db565b5084821015611a185760001960f88660031b161c19848701351681555b505060018360011b0185555b5050505060018101611a4f611a3b6020850161195f565b825490151560ff1660ff1991909116178255565b611a78611a5e6040850161195f565b82805461ff00191691151560081b61ff0016919091179055565b6116b9611a8760608501611839565b82805462010000600160b01b03191660109290921b62010000600160b01b0316919091179055565b81835281816020850137506000828201602090810191909152601f909101601f19169091010190565b604081526000611aec604083018688611aaf565b8281036020840152611aff818587611aaf565b979650505050505050565b600060018201611b2a57634e487b7160e01b600052601160045260246000fd5b5060010190565b60208082526017908201527f50726f706f73616c20646f6573206e6f7420657869737400000000000000000060408201526060019056fea2646970667358221220b7701395d06c01c435ad856513b58dad6ff991c1498edfe74d41a20d53cd22c364736f6c63430008180033",
  "linkReferences": {},
  "deployedLinkReferences": {}
}