{
  "_format": "hh-sol-artifact-1",
  "contractName": "Voting",
  "sourceName": "contracts/Voting/Voting.sol",
  "abi": [
    {
      "inputs": [],
      "name": "EnforcedPause",
      "type": "error"
    },
    {
      "inputs": [],
      "name": "ExpectedPause",
      "type": "error"
    },
    {
      "inputs": [],
      "name": "InvalidInitialization",
      "type": "error"
    },
    {
      "inputs": [],
      "name": "NotInitializing",
      "type": "error"
    },
    {
      "inputs": [
        {
          "internalType": "address",
          "name": "owner",
          "type": "address"
        }
      ],
      "name": "OwnableInvalidOwner",
      "type": "error"
    },
    {
      "inputs": [
        {
          "internalType": "address",
          "name": "account",
          "type": "address"
        }
      ],
      "name": "OwnableUnauthorizedAccount",
      "type": "error"
    },
    {
      "inputs": [],
      "name": "ReentrancyGuardReentrantCall",
      "type": "error"
    },
    {
      "anonymous": false,
      "inputs": [
        {
          "indexed": false,
          "internalType": "address[]",
          "name": "boardOfDirectors",
          "type": "address[]"
        }
      ],
      "name": "BoardOfDirectorsSet",
      "type": "event"
    },
    {
      "anonymous": false,
      "inputs": [
        {
          "indexed": true,
          "internalType": "address",
          "name": "voter",
          "type": "address"
        },
        {
          "indexed": true,
          "internalType": "uint256",
          "name": "proposalId",
          "type": "uint256"
        },
        {
          "indexed": false,
          "internalType": "uint256",
          "name": "vote",
          "type": "uint256"
        }
      ],
      "name": "DirectiveVoted",
      "type": "event"
    },
    {
      "anonymous": false,
      "inputs": [
        {
          "indexed": true,
          "internalType": "address",
          "name": "voter",
          "type": "address"
        },
        {
          "indexed": true,
          "internalType": "uint256",
          "name": "proposalId",
          "type": "uint256"
        },
        {
          "indexed": true,
          "internalType": "address",
          "name": "candidateAddress",
          "type": "address"
        }
      ],
      "name": "ElectionVoted",
      "type": "event"
    },
    {
      "anonymous": false,
      "inputs": [
        {
          "indexed": false,
          "internalType": "uint64",
          "name": "version",
          "type": "uint64"
        }
      ],
      "name": "Initialized",
      "type": "event"
    },
    {
      "anonymous": false,
      "inputs": [
        {
          "indexed": true,
          "internalType": "address",
          "name": "previousOwner",
          "type": "address"
        },
        {
          "indexed": true,
          "internalType": "address",
          "name": "newOwner",
          "type": "address"
        }
      ],
      "name": "OwnershipTransferred",
      "type": "event"
    },
    {
      "anonymous": false,
      "inputs": [
        {
          "indexed": false,
          "internalType": "address",
          "name": "account",
          "type": "address"
        }
      ],
      "name": "Paused",
      "type": "event"
    },
    {
      "anonymous": false,
      "inputs": [
        {
          "indexed": true,
          "internalType": "uint256",
          "name": "proposalId",
          "type": "uint256"
        },
        {
          "indexed": false,
          "internalType": "string",
          "name": "title",
          "type": "string"
        },
        {
          "indexed": false,
          "internalType": "string",
          "name": "description",
          "type": "string"
        }
      ],
      "name": "ProposalAdded",
      "type": "event"
    },
    {
      "anonymous": false,
      "inputs": [
        {
          "indexed": true,
          "internalType": "uint256",
          "name": "proposalId",
          "type": "uint256"
        },
        {
          "indexed": false,
          "internalType": "bool",
          "name": "isActive",
          "type": "bool"
        }
      ],
      "name": "ProposalConcluded",
      "type": "event"
    },
    {
      "anonymous": false,
      "inputs": [
        {
          "indexed": false,
          "internalType": "address",
          "name": "account",
          "type": "address"
        }
      ],
      "name": "Unpaused",
      "type": "event"
    },
    {
      "inputs": [
        {
          "components": [
            {
              "internalType": "uint256",
              "name": "id",
              "type": "uint256"
            },
            {
              "internalType": "string",
              "name": "title",
              "type": "string"
            },
            {
              "internalType": "string",
              "name": "description",
              "type": "string"
            },
            {
              "internalType": "string",
              "name": "draftedBy",
              "type": "string"
            },
            {
              "internalType": "bool",
              "name": "isElection",
              "type": "bool"
            },
            {
              "internalType": "bool",
              "name": "isActive",
              "type": "bool"
            },
            {
              "internalType": "uint256",
              "name": "teamId",
              "type": "uint256"
            },
            {
              "components": [
                {
                  "internalType": "uint256",
                  "name": "yes",
                  "type": "uint256"
                },
                {
                  "internalType": "uint256",
                  "name": "no",
                  "type": "uint256"
                },
                {
                  "internalType": "uint256",
                  "name": "abstain",
                  "type": "uint256"
                }
              ],
              "internalType": "struct Types.DirectiveVotes",
              "name": "votes",
              "type": "tuple"
            },
            {
              "components": [
                {
                  "internalType": "string",
                  "name": "name",
                  "type": "string"
                },
                {
                  "internalType": "address",
                  "name": "candidateAddress",
                  "type": "address"
                },
                {
                  "internalType": "uint256",
                  "name": "votes",
                  "type": "uint256"
                }
              ],
              "internalType": "struct Types.Candidate[]",
              "name": "candidates",
              "type": "tuple[]"
            },
            {
              "components": [
                {
                  "internalType": "string",
                  "name": "name",
                  "type": "string"
                },
                {
                  "internalType": "bool",
                  "name": "isEligible",
                  "type": "bool"
                },
                {
                  "internalType": "bool",
                  "name": "isVoted",
                  "type": "bool"
                },
                {
                  "internalType": "address",
                  "name": "memberAddress",
                  "type": "address"
                }
              ],
              "internalType": "struct Types.Member[]",
              "name": "voters",
              "type": "tuple[]"
            }
          ],
          "internalType": "struct Types.Proposal",
          "name": "_proposal",
          "type": "tuple"
        }
      ],
      "name": "addProposal",
      "outputs": [],
      "stateMutability": "nonpayable",
      "type": "function"
    },
    {
      "inputs": [],
      "name": "boardOfDirectorsContractAddress",
      "outputs": [
        {
          "internalType": "address",
          "name": "",
          "type": "address"
        }
      ],
      "stateMutability": "view",
      "type": "function"
    },
    {
      "inputs": [
        {
          "internalType": "uint256",
          "name": "proposalId",
          "type": "uint256"
        }
      ],
      "name": "concludeProposal",
      "outputs": [],
      "stateMutability": "nonpayable",
      "type": "function"
    },
    {
      "inputs": [
        {
          "internalType": "uint256",
          "name": "proposalId",
          "type": "uint256"
        }
      ],
      "name": "getProposalById",
      "outputs": [
        {
          "components": [
            {
              "internalType": "uint256",
              "name": "id",
              "type": "uint256"
            },
            {
              "internalType": "string",
              "name": "title",
              "type": "string"
            },
            {
              "internalType": "string",
              "name": "description",
              "type": "string"
            },
            {
              "internalType": "string",
              "name": "draftedBy",
              "type": "string"
            },
            {
              "internalType": "bool",
              "name": "isElection",
              "type": "bool"
            },
            {
              "internalType": "bool",
              "name": "isActive",
              "type": "bool"
            },
            {
              "internalType": "uint256",
              "name": "teamId",
              "type": "uint256"
            },
            {
              "components": [
                {
                  "internalType": "uint256",
                  "name": "yes",
                  "type": "uint256"
                },
                {
                  "internalType": "uint256",
                  "name": "no",
                  "type": "uint256"
                },
                {
                  "internalType": "uint256",
                  "name": "abstain",
                  "type": "uint256"
                }
              ],
              "internalType": "struct Types.DirectiveVotes",
              "name": "votes",
              "type": "tuple"
            },
            {
              "components": [
                {
                  "internalType": "string",
                  "name": "name",
                  "type": "string"
                },
                {
                  "internalType": "address",
                  "name": "candidateAddress",
                  "type": "address"
                },
                {
                  "internalType": "uint256",
                  "name": "votes",
                  "type": "uint256"
                }
              ],
              "internalType": "struct Types.Candidate[]",
              "name": "candidates",
              "type": "tuple[]"
            },
            {
              "components": [
                {
                  "internalType": "string",
                  "name": "name",
                  "type": "string"
                },
                {
                  "internalType": "bool",
                  "name": "isEligible",
                  "type": "bool"
                },
                {
                  "internalType": "bool",
                  "name": "isVoted",
                  "type": "bool"
                },
                {
                  "internalType": "address",
                  "name": "memberAddress",
                  "type": "address"
                }
              ],
              "internalType": "struct Types.Member[]",
              "name": "voters",
              "type": "tuple[]"
            }
          ],
          "internalType": "struct Types.Proposal",
          "name": "",
          "type": "tuple"
        }
      ],
      "stateMutability": "view",
      "type": "function"
    },
    {
      "inputs": [],
      "name": "initialize",
      "outputs": [],
      "stateMutability": "nonpayable",
      "type": "function"
    },
    {
      "inputs": [],
      "name": "owner",
      "outputs": [
        {
          "internalType": "address",
          "name": "",
          "type": "address"
        }
      ],
      "stateMutability": "view",
      "type": "function"
    },
    {
      "inputs": [],
      "name": "paused",
      "outputs": [
        {
          "internalType": "bool",
          "name": "",
          "type": "bool"
        }
      ],
      "stateMutability": "view",
      "type": "function"
    },
    {
      "inputs": [],
      "name": "proposalCount",
      "outputs": [
        {
          "internalType": "uint256",
          "name": "",
          "type": "uint256"
        }
      ],
      "stateMutability": "view",
      "type": "function"
    },
    {
      "inputs": [
        {
          "internalType": "uint256",
          "name": "",
          "type": "uint256"
        }
      ],
      "name": "proposalsById",
      "outputs": [
        {
          "internalType": "uint256",
          "name": "id",
          "type": "uint256"
        },
        {
          "internalType": "string",
          "name": "title",
          "type": "string"
        },
        {
          "internalType": "string",
          "name": "description",
          "type": "string"
        },
        {
          "internalType": "string",
          "name": "draftedBy",
          "type": "string"
        },
        {
          "internalType": "bool",
          "name": "isElection",
          "type": "bool"
        },
        {
          "internalType": "bool",
          "name": "isActive",
          "type": "bool"
        },
        {
          "internalType": "uint256",
          "name": "teamId",
          "type": "uint256"
        },
        {
          "components": [
            {
              "internalType": "uint256",
              "name": "yes",
              "type": "uint256"
            },
            {
              "internalType": "uint256",
              "name": "no",
              "type": "uint256"
            },
            {
              "internalType": "uint256",
              "name": "abstain",
              "type": "uint256"
            }
          ],
          "internalType": "struct Types.DirectiveVotes",
          "name": "votes",
          "type": "tuple"
        }
      ],
      "stateMutability": "view",
      "type": "function"
    },
    {
      "inputs": [],
      "name": "renounceOwnership",
      "outputs": [],
      "stateMutability": "nonpayable",
      "type": "function"
    },
    {
      "inputs": [
        {
          "internalType": "address[]",
          "name": "_boardOfDirectors",
          "type": "address[]"
        }
      ],
      "name": "setBoardOfDirectors",
      "outputs": [],
      "stateMutability": "nonpayable",
      "type": "function"
    },
    {
      "inputs": [
        {
          "internalType": "address",
          "name": "_boardOfDirectorsContractAddress",
          "type": "address"
        }
      ],
      "name": "setBoardOfDirectorsContractAddress",
      "outputs": [],
      "stateMutability": "nonpayable",
      "type": "function"
    },
    {
      "inputs": [
        {
          "internalType": "address",
          "name": "newOwner",
          "type": "address"
        }
      ],
      "name": "transferOwnership",
      "outputs": [],
      "stateMutability": "nonpayable",
      "type": "function"
    },
    {
      "inputs": [
        {
          "internalType": "uint256",
          "name": "proposalId",
          "type": "uint256"
        },
        {
          "internalType": "uint256",
          "name": "vote",
          "type": "uint256"
        }
      ],
      "name": "voteDirective",
      "outputs": [],
      "stateMutability": "nonpayable",
      "type": "function"
    },
    {
      "inputs": [
        {
          "internalType": "uint256",
          "name": "proposalId",
          "type": "uint256"
        },
        {
          "internalType": "address",
          "name": "candidateAddress",
          "type": "address"
        }
      ],
      "name": "voteElection",
      "outputs": [],
      "stateMutability": "nonpayable",
      "type": "function"
    }
  ],
  "bytecode": "0x608060405234801561001057600080fd5b5061264d806100206000396000f3fe608060405234801561001057600080fd5b50600436106100f55760003560e01c80638129fc1c11610097578063da35c66411610066578063da35c66414610234578063ec1721931461024b578063ee473c7a1461025e578063f2fde38b1461027157600080fd5b80638129fc1c146101c25780638da5cb5b146101ca57806397b3418e1461020e578063bd68d6e71461022157600080fd5b806350282f2d116100d357806350282f2d1461015f5780635c975abb14610172578063715018a6146101a757806371a5c572146101af57600080fd5b80631b7864c1146100fa5780633656de211461010f5780634f950c1a14610138575b600080fd5b61010d610108366004611ad1565b610284565b005b61012261011d366004611ad1565b6104f9565b60405161012f9190611c33565b60405180910390f35b61014b610146366004611ad1565b61099b565b60405161012f989796959493929190611d33565b61010d61016d366004611dbf565b610b99565b7fcd5ed15c6e187e77e9aee88184c21f4f2182ab5827cb3b7e07fbedcd63f033005460ff16604051901515815260200161012f565b61010d610f1f565b61010d6101bd366004611e3d565b610f33565b61010d610fa0565b7f9016d09d72d40fdae2fd8ceac6b6234c7706214fd39c1cd1e609a0528c199300546001600160a01b03165b6040516001600160a01b03909116815260200161012f565b61010d61021c366004611f02565b6110be565b6002546101f6906001600160a01b031681565b61023d60015481565b60405190815260200161012f565b61010d610259366004611f24565b611254565b61010d61026c366004611f41565b61127e565b61010d61027f366004611f24565b6114ed565b60015481106102ae5760405162461bcd60e51b81526004016102a590611f71565b60405180910390fd5b600081815260208190526040902060048101805460ff6101008083048216150261ff001983168117909355918216911617156104b157600080805b6009840154811015610389578184600901828154811061030b5761030b611fa8565b90600052602060002090600302016002015411156103815783600901818154811061033857610338611fa8565b906000526020600020906003020160020154915083600901818154811061036157610361611fa8565b60009182526020909120600160039092020101546001600160a01b031692505b6001016102e9565b506040805160018082528183019092526000916020808301908036833701905050905082816000815181106103c0576103c0611fa8565b6001600160a01b0392831660209182029290920101526002546040516338d2e2b960e11b81529116906371a5c572906103fd908490600401611fbe565b600060405180830381600087803b15801561041757600080fd5b505af115801561042b573d6000803e3d6000fd5b505050507f48fcc37190f2613c3ad004cac1fc4ed1d270d7453ce1523fac376a70e5fb36ca8160405161045e9190611fbe565b60405180910390a1600484015460405161010090910460ff161515815285907f628c5b5fb646e7f6c763f5e3b6fdcbee619fe1c1bc595643a1c70415a6f113499060200160405180910390a25050505050565b600481015460405161010090910460ff161515815282907f628c5b5fb646e7f6c763f5e3b6fdcbee619fe1c1bc595643a1c70415a6f113499060200160405180910390a25050565b610501611850565b60015482106105225760405162461bcd60e51b81526004016102a590611f71565b60008281526020818152604091829020825161014081019093528054835260018101805491928401916105549061200b565b80601f01602080910402602001604051908101604052809291908181526020018280546105809061200b565b80156105cd5780601f106105a2576101008083540402835291602001916105cd565b820191906000526020600020905b8154815290600101906020018083116105b057829003601f168201915b505050505081526020016002820180546105e69061200b565b80601f01602080910402602001604051908101604052809291908181526020018280546106129061200b565b801561065f5780601f106106345761010080835404028352916020019161065f565b820191906000526020600020905b81548152906001019060200180831161064257829003601f168201915b505050505081526020016003820180546106789061200b565b80601f01602080910402602001604051908101604052809291908181526020018280546106a49061200b565b80156106f15780601f106106c6576101008083540402835291602001916106f1565b820191906000526020600020905b8154815290600101906020018083116106d457829003601f168201915b5050509183525050600482015460ff808216151560208085019190915261010090920416151560408084019190915260058401546060808501919091528151908101825260068501548152600785015481840152600885015481830152608084015260098401805482518185028101850190935280835260a090940193919290919060009084015b8282101561086057838290600052602060002090600302016040518060600160405290816000820180546107ac9061200b565b80601f01602080910402602001604051908101604052809291908181526020018280546107d89061200b565b80156108255780601f106107fa57610100808354040283529160200191610825565b820191906000526020600020905b81548152906001019060200180831161080857829003601f168201915b50505091835250506001828101546001600160a01b031660208084019190915260029093015460409092019190915291835292019101610779565b505050508152602001600a8201805480602002602001604051908101604052809291908181526020016000905b8282101561098d57838290600052602060002090600202016040518060800160405290816000820180546108c09061200b565b80601f01602080910402602001604051908101604052809291908181526020018280546108ec9061200b565b80156109395780601f1061090e57610100808354040283529160200191610939565b820191906000526020600020905b81548152906001019060200180831161091c57829003601f168201915b505050918352505060019182015460ff8082161515602080850191909152610100830490911615156040840152620100009091046001600160a01b031660609092019190915291835292909201910161088d565b505050915250909392505050565b600060208190529081526040902080546001820180549192916109bd9061200b565b80601f01602080910402602001604051908101604052809291908181526020018280546109e99061200b565b8015610a365780601f10610a0b57610100808354040283529160200191610a36565b820191906000526020600020905b815481529060010190602001808311610a1957829003601f168201915b505050505090806002018054610a4b9061200b565b80601f0160208091040260200160405190810160405280929190818152602001828054610a779061200b565b8015610ac45780601f10610a9957610100808354040283529160200191610ac4565b820191906000526020600020905b815481529060010190602001808311610aa757829003601f168201915b505050505090806003018054610ad99061200b565b80601f0160208091040260200160405190810160405280929190818152602001828054610b059061200b565b8015610b525780601f10610b2757610100808354040283529160200191610b52565b820191906000526020600020905b815481529060010190602001808311610b3557829003601f168201915b505050506004830154600584015460408051606081018252600687015481526007870154602082015260089096015490860152929360ff8083169461010090930416925088565b6000610ba86020830183612045565b905011610bef5760405162461bcd60e51b81526020600482015260156024820152745469746c652063616e6e6f7420626520656d70747960581b60448201526064016102a5565b600154600081815260208181526040909120918255610c1090830183612045565b6001830191610c209190836120f9565b50610c2e6040830183612045565b6002830191610c3e9190836120f9565b50610c4c6060830183612045565b6003830191610c5c9190836120f9565b50610c6d60a08301608084016121c1565b60048201805460ff1916911515919091179055610c9060c0830160a084016121c1565b6004820180549115156101000261ff001990921691909117905560c0820135600582015560005b610cc56101408401846121de565b9050811015610d2e5760098201610ce06101408501856121de565b83818110610cf057610cf0611fa8565b9050602002810190610d029190612228565b815460018101835560009283526020909220909160030201610d248282612255565b5050600101610cb7565b5060005b610d406101608401846121de565b9050811015610da957600a8201610d5b6101608501856121de565b83818110610d6b57610d6b611fa8565b9050602002810190610d7d9190612358565b815460018101835560009283526020909220909160020201610d9f828261237b565b5050600101610d32565b5060e082013560068201556101008201356007820155610120820135600882015560018054600090815260208190526040902082548155829181810190610df2908401826124be565b50600281810190610e05908401826124be565b50600381810190610e18908401826124be565b5060048281018054918301805460ff938416151560ff19821681178355925461010090819004909416151590930261ff001990921661ffff19909316929092171790556005808301549082015560068083015490820155600780830154908201556008808301549082015560098083018054610e9792840191906118c9565b50600a8281018054610eac9284019190611959565b505060015490507f2da739368218397c1f8267a798bce5722bae1a51d2855fb923312edf27460c60610ee16020850185612045565b610eee6040870187612045565b604051610efe94939291906125be565b60405180910390a260018054906000610f16836125f0565b91905055505050565b610f2761152b565b610f316000611586565b565b610f3b61152b565b6002546040516338d2e2b960e11b81526001600160a01b03909116906371a5c57290610f6b908490600401611fbe565b600060405180830381600087803b158015610f8557600080fd5b505af1158015610f99573d6000803e3d6000fd5b5050505050565b7ff0c57e16840df040f15088dc2f81fe391c3923bec73e23a9662efc9c229c6a008054600160401b810460ff16159067ffffffffffffffff16600081158015610fe65750825b905060008267ffffffffffffffff1660011480156110035750303b155b905081158015611011575080155b1561102f5760405163f92ee8a960e01b815260040160405180910390fd5b845467ffffffffffffffff19166001178555831561105957845460ff60401b1916600160401b1785555b611062336115f7565b61106a611608565b611072611618565b8315610f9957845460ff60401b19168555604051600181527fc7f505b2f371ae2175ee4913f4499e1f2633a7b5936321eed1cdaeb6115181d29060200160405180910390a15050505050565b60015482106110df5760405162461bcd60e51b81526004016102a590611f71565b60008281526020819052604090206004810154610100900460ff1661113f5760405162461bcd60e51b815260206004820152601660248201527550726f706f73616c206973206e6f742061637469766560501b60448201526064016102a5565b600061114b8233611628565b600181015490915060ff166111a25760405162461bcd60e51b815260206004820152601c60248201527f596f7520617265206e6f7420656c696769626c6520746f20766f74650000000060448201526064016102a5565b6001810154610100900460ff16156111f55760405162461bcd60e51b8152602060048201526016602482015275165bdd481a185d9948185b1c9958591e481d9bdd195960521b60448201526064016102a5565b6111ff8284611719565b60018101805461ff001916610100179055604051849033907fabe5d78d7c4aff0ea01d11f7334d89bf989faef45af0c780acf4ccff6bd5c8db906112469087815260200190565b60405180910390a350505050565b61125c61152b565b600280546001600160a01b0319166001600160a01b0392909216919091179055565b600154821061129f5760405162461bcd60e51b81526004016102a590611f71565b60008281526020819052604090206004810154610100900460ff166112ff5760405162461bcd60e51b815260206004820152601660248201527550726f706f73616c206973206e6f742061637469766560501b60448201526064016102a5565b600061130b8233611628565b600181015490915060ff166113625760405162461bcd60e51b815260206004820152601c60248201527f596f7520617265206e6f7420656c696769626c6520746f20766f74650000000060448201526064016102a5565b6001810154610100900460ff16156113b55760405162461bcd60e51b8152602060048201526016602482015275165bdd481a185d9948185b1c9958591e481d9bdd195960521b60448201526064016102a5565b6000805b600984015481101561144f57846001600160a01b03168460090182815481106113e4576113e4611fa8565b60009182526020909120600160039092020101546001600160a01b0316036114475783600901818154811061141b5761141b611fa8565b600091825260208220600260039092020101805491611439836125f0565b91905055506001915061144f565b6001016113b9565b508061149d5760405162461bcd60e51b815260206004820152601860248201527f43616e64696461746520646f6573206e6f74206578697374000000000000000060448201526064016102a5565b60018201805461ff0019166101001790556040516001600160a01b03851690869033907fe8db14efb3e399b32db39dd2829b3af23451747dba46368ce6a3d5ccefebf88290600090a45050505050565b6114f561152b565b6001600160a01b03811661151f57604051631e4fbdf760e01b8152600060048201526024016102a5565b61152881611586565b50565b3361155d7f9016d09d72d40fdae2fd8ceac6b6234c7706214fd39c1cd1e609a0528c199300546001600160a01b031690565b6001600160a01b031614610f315760405163118cdaa760e01b81523360048201526024016102a5565b7f9016d09d72d40fdae2fd8ceac6b6234c7706214fd39c1cd1e609a0528c19930080546001600160a01b031981166001600160a01b03848116918217845560405192169182907f8be0079c531659141344cd1fd0a4f28419497f9722a3daafe3b4186f6b6457e090600090a3505050565b6115ff61179e565b611528816117e7565b61161061179e565b610f316117ef565b61162061179e565b610f3161181d565b6000805b600a8401548110156116b257826001600160a01b031684600a01828154811061165757611657611fa8565b60009182526020909120600290910201600101546201000090046001600160a01b0316036116aa5783600a01818154811061169457611694611fa8565b9060005260206000209060020201915050611713565b60010161162c565b5060405162461bcd60e51b815260206004820152602f60248201527f596f7520617265206e6f74207265676973746572656420746f20766f7465206960448201526e1b881d1a1a5cc81c1c9bdc1bdcd85b608a1b60648201526084016102a5565b92915050565b8060000361173357600782018054906000610f16836125f0565b8060010361174d57600682018054906000610f16836125f0565b8060020361176757600882018054906000610f16836125f0565b60405162461bcd60e51b815260206004820152600c60248201526b496e76616c696420766f746560a01b60448201526064016102a5565b7ff0c57e16840df040f15088dc2f81fe391c3923bec73e23a9662efc9c229c6a0054600160401b900460ff16610f3157604051631afcd79f60e31b815260040160405180910390fd5b6114f561179e565b6117f761179e565b60017f9b779b17422d0df92223018b32b4d1fa46e071723d6817e2486d003becc55f0055565b61182561179e565b7fcd5ed15c6e187e77e9aee88184c21f4f2182ab5827cb3b7e07fbedcd63f03300805460ff19169055565b60405180610140016040528060008152602001606081526020016060815260200160608152602001600015158152602001600015158152602001600081526020016118b560405180606001604052806000815260200160008152602001600081525090565b815260200160608152602001606081525090565b8280548282559060005260206000209060030281019282156119495760005260206000209160030282015b828111156119495782828061190983826124be565b5060018281015490820180546001600160a01b0319166001600160a01b0390921691909117905560029182015491015560039283019291909101906118f4565b50611955929150611a22565b5090565b828054828255906000526020600020906002028101928215611a165760005260206000209160020282015b82811115611a165782828061199983826124be565b506001918201805491909201805460ff928316151560ff19821681178355845461010090819004909416151590930261ff001990931661ffff19909116179190911780825591546001600160a01b036201000091829004160262010000600160b01b03199092169190911790556002928301929190910190611984565b50611955929150611a58565b80821115611955576000611a368282611a87565b506001810180546001600160a01b031916905560006002820155600301611a22565b80821115611955576000611a6c8282611a87565b506001810180546001600160b01b0319169055600201611a58565b508054611a939061200b565b6000825580601f10611aa3575050565b601f01602090049060005260206000209081019061152891905b808211156119555760008155600101611abd565b600060208284031215611ae357600080fd5b5035919050565b6000815180845260005b81811015611b1057602081850181015186830182015201611af4565b506000602082860101526020601f19601f83011685010191505092915050565b600082825180855260208086019550808260051b84010181860160005b84811015611ba457601f19868403018952815160608151818652611b7382870182611aea565b838801516001600160a01b031687890152604093840151939096019290925250509783019790830190600101611b4d565b5090979650505050505050565b600082825180855260208086019550808260051b84010181860160005b84811015611ba457601f19868403018952815160808151818652611bf482870182611aea565b838801511515878901526040808501511515908801526060938401516001600160a01b0316939096019290925250509783019790830190600101611bce565b602081528151602082015260006020830151610180806040850152611c5c6101a0850183611aea565b91506040850151601f1980868503016060870152611c7a8483611aea565b93506060870151915080868503016080870152611c978483611aea565b935060808701519150611cae60a087018315159052565b60a087015180151560c0880152915060c087015160e087015260e08701519150610100611cf1818801848051825260208082015190830152604090810151910152565b87015186850382016101608801529150611d0b8483611b30565b9350610120870151915080868503018387015250611d298382611bb1565b9695505050505050565b60006101408a8352806020840152611d4d8184018b611aea565b90508281036040840152611d61818a611aea565b90508281036060840152611d758189611aea565b871515608085015286151560a085015260c08401869052845160e0850152602085015161010085015260408501516101208501529150611db29050565b9998505050505050505050565b600060208284031215611dd157600080fd5b813567ffffffffffffffff811115611de857600080fd5b82016101808185031215611dfb57600080fd5b9392505050565b634e487b7160e01b600052604160045260246000fd5b6001600160a01b038116811461152857600080fd5b8035611e3881611e18565b919050565b60006020808385031215611e5057600080fd5b823567ffffffffffffffff80821115611e6857600080fd5b818501915085601f830112611e7c57600080fd5b813581811115611e8e57611e8e611e02565b8060051b604051601f19603f83011681018181108582111715611eb357611eb3611e02565b604052918252848201925083810185019188831115611ed157600080fd5b938501935b82851015611ef657611ee785611e2d565b84529385019392850192611ed6565b98975050505050505050565b60008060408385031215611f1557600080fd5b50508035926020909101359150565b600060208284031215611f3657600080fd5b8135611dfb81611e18565b60008060408385031215611f5457600080fd5b823591506020830135611f6681611e18565b809150509250929050565b60208082526017908201527f50726f706f73616c20646f6573206e6f74206578697374000000000000000000604082015260600190565b634e487b7160e01b600052603260045260246000fd5b6020808252825182820181905260009190848201906040850190845b81811015611fff5783516001600160a01b031683529284019291840191600101611fda565b50909695505050505050565b600181811c9082168061201f57607f821691505b60208210810361203f57634e487b7160e01b600052602260045260246000fd5b50919050565b6000808335601e1984360301811261205c57600080fd5b83018035915067ffffffffffffffff82111561207757600080fd5b60200191503681900382131561208c57600080fd5b9250929050565b601f8211156120df576000816000526020600020601f850160051c810160208610156120bc5750805b601f850160051c820191505b818110156120db578281556001016120c8565b5050505b505050565b600019600383901b1c191660019190911b1790565b67ffffffffffffffff83111561211157612111611e02565b6121258361211f835461200b565b83612093565b6000601f84116001811461215357600085156121415750838201355b61214b86826120e4565b845550610f99565b600083815260209020601f19861690835b828110156121845786850135825560209485019460019092019101612164565b50868210156121a15760001960f88860031b161c19848701351681555b505060018560011b0183555050505050565b801515811461152857600080fd5b6000602082840312156121d357600080fd5b8135611dfb816121b3565b6000808335601e198436030181126121f557600080fd5b83018035915067ffffffffffffffff82111561221057600080fd5b6020019150600581901b360382131561208c57600080fd5b60008235605e1983360301811261223e57600080fd5b9190910192915050565b6000813561171381611e18565b61225f8283612045565b67ffffffffffffffff81111561227757612277611e02565b61228b81612285855461200b565b85612093565b6000601f8211600181146122b957600083156122a75750838201355b6122b184826120e4565b865550612313565b600085815260209020601f19841690835b828110156122ea57868501358255602094850194600190920191016122ca565b50848210156123075760001960f88660031b161c19848701351681555b505060018360011b0185555b5050505061234a61232660208401612248565b6001830180546001600160a01b0319166001600160a01b0392909216919091179055565b604082013560028201555050565b60008235607e1983360301811261223e57600080fd5b60008135611713816121b3565b6123858283612045565b67ffffffffffffffff81111561239d5761239d611e02565b6123ab81612285855461200b565b6000601f8211600181146123d957600083156123c75750838201355b6123d184826120e4565b865550612433565b600085815260209020601f19841690835b8281101561240a57868501358255602094850194600190920191016123ea565b50848210156124275760001960f88660031b161c19848701351681555b505060018360011b0185555b505050506001810161245e61244a6020850161236e565b825490151560ff1660ff1991909116178255565b61248761246d6040850161236e565b82805461ff00191691151560081b61ff0016919091179055565b6120df61249660608501612248565b82805462010000600160b01b03191660109290921b62010000600160b01b0316919091179055565b8181036124c9575050565b6124d3825461200b565b67ffffffffffffffff8111156124eb576124eb611e02565b6124ff816124f9845461200b565b84612093565b6000601f82116001811461252d576000831561251b5750848201545b61252584826120e4565b855550610f99565b600085815260209020601f19841690600086815260209020845b838110156125675782860154825560019586019590910190602001612547565b50858310156125855781850154600019600388901b60f8161c191681555b5050505050600190811b01905550565b81835281816020850137506000828201602090810191909152601f909101601f19169091010190565b6040815260006125d2604083018688612595565b82810360208401526125e5818587612595565b979650505050505050565b60006001820161261057634e487b7160e01b600052601160045260246000fd5b506001019056fea26469706673582212201685a3a901781782b2881c036218c57edac56c7490861db5318f4550d692ecc264736f6c63430008180033",
  "linkReferences": {},
  "deployedLinkReferences": {}
}