{
  "_format": "hh-sol-artifact-1",
  "contractName": "Bank",
  "sourceName": "contracts/Bank.sol",
  "abi": [
    {
      "inputs": [],
      "name": "EnforcedPause",
      "type": "error"
    },
    {
      "inputs": [],
      "name": "ExpectedPause",
      "type": "error"
    },
    {
      "inputs": [],
      "name": "InvalidInitialization",
      "type": "error"
    },
    {
      "inputs": [],
      "name": "NotInitializing",
      "type": "error"
    },
    {
      "inputs": [
        {
          "internalType": "address",
          "name": "owner",
          "type": "address"
        }
      ],
      "name": "OwnableInvalidOwner",
      "type": "error"
    },
    {
      "inputs": [
        {
          "internalType": "address",
          "name": "account",
          "type": "address"
        }
      ],
      "name": "OwnableUnauthorizedAccount",
      "type": "error"
    },
    {
      "inputs": [],
      "name": "ReentrancyGuardReentrantCall",
      "type": "error"
    },
    {
      "anonymous": false,
      "inputs": [
        {
          "indexed": true,
          "internalType": "address",
          "name": "depositor",
          "type": "address"
        },
        {
          "indexed": false,
          "internalType": "uint256",
          "name": "amount",
          "type": "uint256"
        }
      ],
      "name": "Deposited",
      "type": "event"
    },
    {
      "anonymous": false,
      "inputs": [
        {
          "indexed": false,
          "internalType": "uint64",
          "name": "version",
          "type": "uint64"
        }
      ],
      "name": "Initialized",
      "type": "event"
    },
    {
      "anonymous": false,
      "inputs": [
        {
          "indexed": true,
          "internalType": "address",
          "name": "previousOwner",
          "type": "address"
        },
        {
          "indexed": true,
          "internalType": "address",
          "name": "newOwner",
          "type": "address"
        }
      ],
      "name": "OwnershipTransferred",
      "type": "event"
    },
    {
      "anonymous": false,
      "inputs": [
        {
          "indexed": false,
          "internalType": "address",
          "name": "account",
          "type": "address"
        }
      ],
      "name": "Paused",
      "type": "event"
    },
    {
      "anonymous": false,
      "inputs": [
        {
          "indexed": true,
          "internalType": "address",
          "name": "addressWhoPushes",
          "type": "address"
        },
        {
          "indexed": false,
          "internalType": "address[]",
          "name": "teamMembers",
          "type": "address[]"
        },
        {
          "indexed": false,
          "internalType": "uint256",
          "name": "totalAmount",
          "type": "uint256"
        }
      ],
      "name": "PushTip",
      "type": "event"
    },
    {
      "anonymous": false,
      "inputs": [
        {
          "indexed": true,
          "internalType": "address",
          "name": "addressWhoPushes",
          "type": "address"
        },
        {
          "indexed": false,
          "internalType": "address[]",
          "name": "teamMembers",
          "type": "address[]"
        },
        {
          "indexed": true,
          "internalType": "address",
          "name": "token",
          "type": "address"
        },
        {
          "indexed": false,
          "internalType": "uint256",
          "name": "totalAmount",
          "type": "uint256"
        }
      ],
      "name": "PushTokenTip",
      "type": "event"
    },
    {
      "anonymous": false,
      "inputs": [
        {
          "indexed": true,
          "internalType": "address",
          "name": "addressWhoSends",
          "type": "address"
        },
        {
          "indexed": false,
          "internalType": "address[]",
          "name": "teamMembers",
          "type": "address[]"
        },
        {
          "indexed": false,
          "internalType": "uint256",
          "name": "totalAmount",
          "type": "uint256"
        }
      ],
      "name": "SendTip",
      "type": "event"
    },
    {
      "anonymous": false,
      "inputs": [
        {
          "indexed": true,
          "internalType": "address",
          "name": "addressWhoSends",
          "type": "address"
        },
        {
          "indexed": false,
          "internalType": "address[]",
          "name": "teamMembers",
          "type": "address[]"
        },
        {
          "indexed": true,
          "internalType": "address",
          "name": "token",
          "type": "address"
        },
        {
          "indexed": false,
          "internalType": "uint256",
          "name": "totalAmount",
          "type": "uint256"
        }
      ],
      "name": "SendTokenTip",
      "type": "event"
    },
    {
      "anonymous": false,
      "inputs": [
        {
          "indexed": true,
          "internalType": "address",
          "name": "addressWhoChanged",
          "type": "address"
        },
        {
          "indexed": true,
          "internalType": "address",
          "name": "oldAddress",
          "type": "address"
        },
        {
          "indexed": true,
          "internalType": "address",
          "name": "newAddress",
          "type": "address"
        }
      ],
      "name": "TipsAddressChanged",
      "type": "event"
    },
    {
      "anonymous": false,
      "inputs": [
        {
          "indexed": true,
          "internalType": "address",
          "name": "addressWhoChanged",
          "type": "address"
        },
        {
          "indexed": false,
          "internalType": "string",
          "name": "tokenSymbol",
          "type": "string"
        },
        {
          "indexed": true,
          "internalType": "address",
          "name": "oldAddress",
          "type": "address"
        },
        {
          "indexed": true,
          "internalType": "address",
          "name": "newAddress",
          "type": "address"
        }
      ],
      "name": "TokenAddressChanged",
      "type": "event"
    },
    {
      "anonymous": false,
      "inputs": [
        {
          "indexed": true,
          "internalType": "address",
          "name": "depositor",
          "type": "address"
        },
        {
          "indexed": true,
          "internalType": "address",
          "name": "token",
          "type": "address"
        },
        {
          "indexed": false,
          "internalType": "uint256",
          "name": "amount",
          "type": "uint256"
        }
      ],
      "name": "TokenDeposited",
      "type": "event"
    },
    {
      "anonymous": false,
      "inputs": [
        {
          "indexed": true,
          "internalType": "address",
          "name": "sender",
          "type": "address"
        },
        {
          "indexed": true,
          "internalType": "address",
          "name": "to",
          "type": "address"
        },
        {
          "indexed": true,
          "internalType": "address",
          "name": "token",
          "type": "address"
        },
        {
          "indexed": false,
          "internalType": "uint256",
          "name": "amount",
          "type": "uint256"
        }
      ],
      "name": "TokenTransfer",
      "type": "event"
    },
    {
      "anonymous": false,
      "inputs": [
        {
          "indexed": true,
          "internalType": "address",
          "name": "sender",
          "type": "address"
        },
        {
          "indexed": true,
          "internalType": "address",
          "name": "to",
          "type": "address"
        },
        {
          "indexed": false,
          "internalType": "uint256",
          "name": "amount",
          "type": "uint256"
        }
      ],
      "name": "Transfer",
      "type": "event"
    },
    {
      "anonymous": false,
      "inputs": [
        {
          "indexed": false,
          "internalType": "address",
          "name": "account",
          "type": "address"
        }
      ],
      "name": "Unpaused",
      "type": "event"
    },
    {
      "inputs": [
        {
          "internalType": "address",
          "name": "_tipsAddress",
          "type": "address"
        }
      ],
      "name": "changeTipsAddress",
      "outputs": [],
      "stateMutability": "nonpayable",
      "type": "function"
    },
    {
      "inputs": [
        {
          "internalType": "string",
          "name": "_symbol",
          "type": "string"
        },
        {
          "internalType": "address",
          "name": "_newAddress",
          "type": "address"
        }
      ],
      "name": "changeTokenAddress",
      "outputs": [],
      "stateMutability": "nonpayable",
      "type": "function"
    },
    {
      "inputs": [
        {
          "internalType": "address",
          "name": "_token",
          "type": "address"
        },
        {
          "internalType": "uint256",
          "name": "_amount",
          "type": "uint256"
        }
      ],
      "name": "depositToken",
      "outputs": [],
      "stateMutability": "nonpayable",
      "type": "function"
    },
    {
      "inputs": [
        {
          "internalType": "address",
          "name": "_tipsAddress",
          "type": "address"
        },
        {
          "internalType": "address",
          "name": "_usdtAddress",
          "type": "address"
        },
        {
          "internalType": "address",
          "name": "_usdcAddress",
          "type": "address"
        },
        {
          "internalType": "address",
          "name": "_sender",
          "type": "address"
        }
      ],
      "name": "initialize",
      "outputs": [],
      "stateMutability": "nonpayable",
      "type": "function"
    },
    {
      "inputs": [
        {
          "internalType": "address",
          "name": "_token",
          "type": "address"
        }
      ],
      "name": "isTokenSupported",
      "outputs": [
        {
          "internalType": "bool",
          "name": "",
          "type": "bool"
        }
      ],
      "stateMutability": "view",
      "type": "function"
    },
    {
      "inputs": [],
      "name": "owner",
      "outputs": [
        {
          "internalType": "address",
          "name": "",
          "type": "address"
        }
      ],
      "stateMutability": "view",
      "type": "function"
    },
    {
      "inputs": [],
      "name": "pause",
      "outputs": [],
      "stateMutability": "nonpayable",
      "type": "function"
    },
    {
      "inputs": [],
      "name": "paused",
      "outputs": [
        {
          "internalType": "bool",
          "name": "",
          "type": "bool"
        }
      ],
      "stateMutability": "view",
      "type": "function"
    },
    {
      "inputs": [
        {
          "internalType": "address[]",
          "name": "_addresses",
          "type": "address[]"
        },
        {
          "internalType": "uint256",
          "name": "_amount",
          "type": "uint256"
        }
      ],
      "name": "pushTip",
      "outputs": [],
      "stateMutability": "payable",
      "type": "function"
    },
    {
      "inputs": [
        {
          "internalType": "address[]",
          "name": "_addresses",
          "type": "address[]"
        },
        {
          "internalType": "address",
          "name": "_token",
          "type": "address"
        },
        {
          "internalType": "uint256",
          "name": "_amount",
          "type": "uint256"
        }
      ],
      "name": "pushTokenTip",
      "outputs": [],
      "stateMutability": "nonpayable",
      "type": "function"
    },
    {
      "inputs": [],
      "name": "renounceOwnership",
      "outputs": [],
      "stateMutability": "nonpayable",
      "type": "function"
    },
    {
      "inputs": [
        {
          "internalType": "address[]",
          "name": "_addresses",
          "type": "address[]"
        },
        {
          "internalType": "uint256",
          "name": "_amount",
          "type": "uint256"
        }
      ],
      "name": "sendTip",
      "outputs": [],
      "stateMutability": "payable",
      "type": "function"
    },
    {
      "inputs": [
        {
          "internalType": "address[]",
          "name": "_addresses",
          "type": "address[]"
        },
        {
          "internalType": "address",
          "name": "_token",
          "type": "address"
        },
        {
          "internalType": "uint256",
          "name": "_amount",
          "type": "uint256"
        }
      ],
      "name": "sendTokenTip",
      "outputs": [],
      "stateMutability": "nonpayable",
      "type": "function"
    },
    {
      "inputs": [
        {
          "internalType": "string",
          "name": "",
          "type": "string"
        }
      ],
      "name": "supportedTokens",
      "outputs": [
        {
          "internalType": "address",
          "name": "",
          "type": "address"
        }
      ],
      "stateMutability": "view",
      "type": "function"
    },
    {
      "inputs": [],
      "name": "tipsAddress",
      "outputs": [
        {
          "internalType": "address",
          "name": "",
          "type": "address"
        }
      ],
      "stateMutability": "view",
      "type": "function"
    },
    {
      "inputs": [
        {
          "internalType": "address",
          "name": "_to",
          "type": "address"
        },
        {
          "internalType": "uint256",
          "name": "_amount",
          "type": "uint256"
        }
      ],
      "name": "transfer",
      "outputs": [],
      "stateMutability": "payable",
      "type": "function"
    },
    {
      "inputs": [
        {
          "internalType": "address",
          "name": "newOwner",
          "type": "address"
        }
      ],
      "name": "transferOwnership",
      "outputs": [],
      "stateMutability": "nonpayable",
      "type": "function"
    },
    {
      "inputs": [
        {
          "internalType": "address",
          "name": "_token",
          "type": "address"
        },
        {
          "internalType": "address",
          "name": "_to",
          "type": "address"
        },
        {
          "internalType": "uint256",
          "name": "_amount",
          "type": "uint256"
        }
      ],
      "name": "transferToken",
      "outputs": [],
      "stateMutability": "nonpayable",
      "type": "function"
    },
    {
      "inputs": [],
      "name": "unpause",
      "outputs": [],
      "stateMutability": "nonpayable",
      "type": "function"
    },
    {
      "stateMutability": "payable",
      "type": "receive"
    }
  ],
  "bytecode": "0x608060405234801561001057600080fd5b50611ae4806100206000396000f3fe6080604052600436106101185760003560e01c806389919cdd116100a0578063ab38a48511610064578063ab38a4851461033f578063e91a74b11461035f578063f2fde38b1461037f578063f5537ede1461039f578063f8c8765e146103bf57600080fd5b806389919cdd146102565780638da5cb5b146102af57806399e1e967146102ec578063a2a3af4c1461030c578063a9059cbb1461032c57600080fd5b80635c975abb116100e75780635c975abb146101b6578063715018a6146101ec57806375151b63146102015780637813f1fc146102215780638456cb591461024157600080fd5b80632475116d14610159578063338b5dea1461016e5780633f4ba83a1461018e578063501e29f9146101a357600080fd5b366101545760405134815233907f2da466a7b24304f47e87fa2e1e5a81b9831ce54fec19055ce277ca2f39ba42c49060200160405180910390a2005b600080fd5b61016c6101673660046115a7565b6103df565b005b34801561017a57600080fd5b5061016c61018936600461160f565b61049f565b34801561019a57600080fd5b5061016c6105d0565b61016c6101b13660046115a7565b6105e2565b3480156101c257600080fd5b50600080516020611a6f8339815191525460ff165b60405190151581526020015b60405180910390f35b3480156101f857600080fd5b5061016c610695565b34801561020d57600080fd5b506101d761021c366004611639565b6106a7565b34801561022d57600080fd5b5061016c61023c36600461165b565b61071e565b34801561024d57600080fd5b5061016c6108f0565b34801561026257600080fd5b506102976102713660046116cd565b80516020818301810180516001825292820191909301209152546001600160a01b031681565b6040516001600160a01b0390911681526020016101e3565b3480156102bb57600080fd5b507f9016d09d72d40fdae2fd8ceac6b6234c7706214fd39c1cd1e609a0528c199300546001600160a01b0316610297565b3480156102f857600080fd5b5061016c610307366004611639565b610900565b34801561031857600080fd5b50600054610297906001600160a01b031681565b61016c61033a36600461160f565b610987565b34801561034b57600080fd5b5061016c61035a36600461177e565b610ad5565b34801561036b57600080fd5b5061016c61037a36600461165b565b610cad565b34801561038b57600080fd5b5061016c61039a366004611639565b610f22565b3480156103ab57600080fd5b5061016c6103ba3660046117ff565b610f60565b3480156103cb57600080fd5b5061016c6103da36600461183b565b6110ca565b6103e761128e565b6103ef6112e9565b600054604051635bed200160e11b81526001600160a01b039091169063b7da400290839061042390879087906004016118d6565b6000604051808303818588803b15801561043c57600080fd5b505af1158015610450573d6000803e3d6000fd5b5050505050336001600160a01b03167f58a9dc7d0a27b699b2315517c718ce61fcfd17fec85b5c8e124c1d3ed169743f848484604051610492939291906118f2565b60405180910390a2505050565b6104a761131a565b6104af6112e9565b6104b8826106a7565b6104dd5760405162461bcd60e51b81526004016104d490611916565b60405180910390fd5b600081116104fd5760405162461bcd60e51b81526004016104d490611941565b6040516323b872dd60e01b8152336004820152306024820152604481018290526001600160a01b038316906323b872dd906064016020604051808303816000875af1158015610550573d6000803e3d6000fd5b505050506040513d601f19601f820116820180604052508101906105749190611976565b506040518181526001600160a01b0383169033907ff1444b5cad7ce70cb018d1b8edc8618fe303f3c7f034d8d572a6e27facbf2bef9060200160405180910390a36105cc6001600080516020611a8f83398151915255565b5050565b6105d861128e565b6105e0611366565b565b6105ea61128e565b6105f26112e9565b600054604051635afa31cb60e01b81526001600160a01b0390911690635afa31cb90839061062690879087906004016118d6565b6000604051808303818588803b15801561063f57600080fd5b505af1158015610653573d6000803e3d6000fd5b5050505050336001600160a01b03167fc014dc4ceab3e6dc4a844f9b2dddf37226790be6a1982d111c8f09179b7e13da848484604051610492939291906118f2565b61069d61128e565b6105e060006113c6565b600060016040516106c290631554d11560e21b815260040190565b908152604051908190036020019020546001600160a01b03838116911614806107185750604051635553444360e01b8152600190600401908152604051908190036020019020546001600160a01b038381169116145b92915050565b61072661128e565b61072e6112e9565b610737826106a7565b6107535760405162461bcd60e51b81526004016104d490611916565b60005b8381101561089a57600085858381811061077257610772611998565b90506020020160208101906107879190611639565b6001600160a01b0316036107cf5760405162461bcd60e51b815260206004820152600f60248201526e496e76616c6964206164647265737360881b60448201526064016104d4565b826001600160a01b031663a9059cbb8686848181106107f0576107f0611998565b90506020020160208101906108059190611639565b6040516001600160e01b031960e084901b1681526001600160a01b039091166004820152602481018590526044016020604051808303816000875af1158015610852573d6000803e3d6000fd5b505050506040513d601f19601f820116820180604052508101906108769190611976565b6108925760405162461bcd60e51b81526004016104d4906119ae565b600101610756565b50816001600160a01b0316336001600160a01b03167f9130eb21c8c83fc37a804b85e612e55a4e98b17cfcc7e30ae47ea24dd6a78dbc8686856040516108e2939291906118f2565b60405180910390a350505050565b6108f861128e565b6105e0611437565b61090861128e565b6109106112e9565b6001600160a01b0381166109365760405162461bcd60e51b81526004016104d4906119dd565b600080546001600160a01b038381166001600160a01b03198316811784556040519190921692839133917f8eefab2ffac7936bcfa2484c360b710829828a93af13392f96a86bb17abcc80191a45050565b61098f61128e565b61099761131a565b61099f6112e9565b6001600160a01b0382166109c55760405162461bcd60e51b81526004016104d4906119dd565b600081116109e55760405162461bcd60e51b81526004016104d490611941565b6000826001600160a01b03168260405160006040518083038185875af1925050503d8060008114610a32576040519150601f19603f3d011682016040523d82523d6000602084013e610a37565b606091505b5050905080610a7d5760405162461bcd60e51b81526020600482015260126024820152712330b4b632b2103a37903a3930b739b332b960711b60448201526064016104d4565b6040518281526001600160a01b0384169033907fddf252ad1be2c89b69c2b068fc378daa952ba7f163c4a11628f55a4df523b3ef9060200160405180910390a3506105cc6001600080516020611a8f83398151915255565b610add61128e565b610ae56112e9565b6001600160a01b038116610b0b5760405162461bcd60e51b81526004016104d4906119dd565b604051631554d11560e21b6020820152602401604051602081830303815290604052805190602001208383604051602001610b47929190611a0d565b604051602081830303815290604052805190602001201480610bb85750604051635553444360e01b6020820152602401604051602081830303815290604052805190602001208383604051602001610ba0929190611a0d565b60405160208183030381529060405280519060200120145b610bfb5760405162461bcd60e51b8152602060048201526014602482015273125b9d985b1a59081d1bdad95b881cde5b589bdb60621b60448201526064016104d4565b600060018484604051610c0f929190611a0d565b908152604051908190036020018120546001600160a01b031691508290600190610c3c9087908790611a0d565b90815260405190819003602001812080546001600160a01b039384166001600160a01b03199091161790558382169183169033907ffa0e1aca71e09b7065691fdf3ee6adb50937ef393f5e4c3fca1235dd97702f8c90610c9f9089908990611a1d565b60405180910390a450505050565b610cb561128e565b610cbd6112e9565b610cc6826106a7565b610ce25760405162461bcd60e51b81526004016104d490611916565b6000610cee8483611a4c565b6040516323b872dd60e01b8152336004820152306024820152604481018490529091506001600160a01b038416906323b872dd906064016020604051808303816000875af1158015610d44573d6000803e3d6000fd5b505050506040513d601f19601f82011682018060405250810190610d689190611976565b610d845760405162461bcd60e51b81526004016104d4906119ae565b60005b84811015610ecb576000868683818110610da357610da3611998565b9050602002016020810190610db89190611639565b6001600160a01b031603610e005760405162461bcd60e51b815260206004820152600f60248201526e496e76616c6964206164647265737360881b60448201526064016104d4565b836001600160a01b031663a9059cbb878784818110610e2157610e21611998565b9050602002016020810190610e369190611639565b6040516001600160e01b031960e084901b1681526001600160a01b039091166004820152602481018590526044016020604051808303816000875af1158015610e83573d6000803e3d6000fd5b505050506040513d601f19601f82011682018060405250810190610ea79190611976565b610ec35760405162461bcd60e51b81526004016104d4906119ae565b600101610d87565b50826001600160a01b0316336001600160a01b03167f3977272cab16c0385847be416d18220894b6f8b5d8b914130573d1f0eb89a3b9878786604051610f13939291906118f2565b60405180910390a35050505050565b610f2a61128e565b6001600160a01b038116610f5457604051631e4fbdf760e01b8152600060048201526024016104d4565b610f5d816113c6565b50565b610f6861128e565b610f7061131a565b610f786112e9565b610f81836106a7565b610f9d5760405162461bcd60e51b81526004016104d490611916565b6001600160a01b038216610fc35760405162461bcd60e51b81526004016104d4906119dd565b60008111610fe35760405162461bcd60e51b81526004016104d490611941565b60405163a9059cbb60e01b81526001600160a01b0383811660048301526024820183905284169063a9059cbb906044016020604051808303816000875af1158015611032573d6000803e3d6000fd5b505050506040513d601f19601f820116820180604052508101906110569190611976565b50826001600160a01b0316826001600160a01b0316336001600160a01b03167fae33cb06d7303f889d953bb09540983050163c1c4c98b330db432a911cfb63fd846040516110a691815260200190565b60405180910390a46110c56001600080516020611a8f83398151915255565b505050565b7ff0c57e16840df040f15088dc2f81fe391c3923bec73e23a9662efc9c229c6a008054600160401b810460ff16159067ffffffffffffffff166000811580156111105750825b905060008267ffffffffffffffff16600114801561112d5750303b155b90508115801561113b575080155b156111595760405163f92ee8a960e01b815260040160405180910390fd5b845467ffffffffffffffff19166001178555831561118357845460ff60401b1916600160401b1785555b61118c86611480565b611194611491565b61119c6114a1565b600080546001600160a01b0319166001600160a01b038b16179055604051631554d11560e21b8152889060019060040190815260405190819003602001812080546001600160a01b03939093166001600160a01b031990931692909217909155635553444360e01b8152879060019060040190815260405190819003602001902080546001600160a01b03929092166001600160a01b0319909216919091179055831561128357845460ff60401b19168555604051600181527fc7f505b2f371ae2175ee4913f4499e1f2633a7b5936321eed1cdaeb6115181d29060200160405180910390a15b505050505050505050565b336112c07f9016d09d72d40fdae2fd8ceac6b6234c7706214fd39c1cd1e609a0528c199300546001600160a01b031690565b6001600160a01b0316146105e05760405163118cdaa760e01b81523360048201526024016104d4565b600080516020611a6f8339815191525460ff16156105e05760405163d93c066560e01b815260040160405180910390fd5b600080516020611a8f83398151915280546001190161134c57604051633ee5aeb560e01b815260040160405180910390fd5b60029055565b6001600080516020611a8f83398151915255565b61136e6114b1565b600080516020611a6f833981519152805460ff191681557f5db9ee0a495bf2e6ff9c91a7834c1ba4fdd244a5e8aa4e537bd38aeae4b073aa335b6040516001600160a01b03909116815260200160405180910390a150565b7f9016d09d72d40fdae2fd8ceac6b6234c7706214fd39c1cd1e609a0528c19930080546001600160a01b031981166001600160a01b03848116918217845560405192169182907f8be0079c531659141344cd1fd0a4f28419497f9722a3daafe3b4186f6b6457e090600090a3505050565b61143f6112e9565b600080516020611a6f833981519152805460ff191660011781557f62e78cea01bee320cd4e420270b5ea74000d11b0c9f74754ebdbfc544b05a258336113a8565b6114886114e1565b610f5d8161152a565b6114996114e1565b6105e0611532565b6114a96114e1565b6105e061153a565b600080516020611a6f8339815191525460ff166105e057604051638dfc202b60e01b815260040160405180910390fd5b7ff0c57e16840df040f15088dc2f81fe391c3923bec73e23a9662efc9c229c6a0054600160401b900460ff166105e057604051631afcd79f60e31b815260040160405180910390fd5b610f2a6114e1565b6113526114e1565b6115426114e1565b600080516020611a6f833981519152805460ff19169055565b60008083601f84011261156d57600080fd5b50813567ffffffffffffffff81111561158557600080fd5b6020830191508360208260051b85010111156115a057600080fd5b9250929050565b6000806000604084860312156115bc57600080fd5b833567ffffffffffffffff8111156115d357600080fd5b6115df8682870161155b565b909790965060209590950135949350505050565b80356001600160a01b038116811461160a57600080fd5b919050565b6000806040838503121561162257600080fd5b61162b836115f3565b946020939093013593505050565b60006020828403121561164b57600080fd5b611654826115f3565b9392505050565b6000806000806060858703121561167157600080fd5b843567ffffffffffffffff81111561168857600080fd5b6116948782880161155b565b90955093506116a79050602086016115f3565b9396929550929360400135925050565b634e487b7160e01b600052604160045260246000fd5b6000602082840312156116df57600080fd5b813567ffffffffffffffff808211156116f757600080fd5b818401915084601f83011261170b57600080fd5b81358181111561171d5761171d6116b7565b604051601f8201601f19908116603f01168101908382118183101715611745576117456116b7565b8160405282815287602084870101111561175e57600080fd5b826020860160208301376000928101602001929092525095945050505050565b60008060006040848603121561179357600080fd5b833567ffffffffffffffff808211156117ab57600080fd5b818601915086601f8301126117bf57600080fd5b8135818111156117ce57600080fd5b8760208285010111156117e057600080fd5b6020928301955093506117f691860190506115f3565b90509250925092565b60008060006060848603121561181457600080fd5b61181d846115f3565b925061182b602085016115f3565b9150604084013590509250925092565b6000806000806080858703121561185157600080fd5b61185a856115f3565b9350611868602086016115f3565b9250611876604086016115f3565b9150611884606086016115f3565b905092959194509250565b8183526000602080850194508260005b858110156118cb576001600160a01b036118b8836115f3565b168752958201959082019060010161189f565b509495945050505050565b6020815260006118ea60208301848661188f565b949350505050565b60408152600061190660408301858761188f565b9050826020830152949350505050565b6020808252601190820152702ab739bab83837b93a32b2103a37b5b2b760791b604082015260600190565b6020808252818101527f416d6f756e74206d7573742062652067726561746572207468616e207a65726f604082015260600190565b60006020828403121561198857600080fd5b8151801515811461165457600080fd5b634e487b7160e01b600052603260045260246000fd5b602080825260159082015274151bdad95b881d1c985b9cd9995c8819985a5b1959605a1b604082015260600190565b602080825260169082015275416464726573732063616e6e6f74206265207a65726f60501b604082015260600190565b8183823760009101908152919050565b60208152816020820152818360408301376000818301604090810191909152601f909201601f19160101919050565b600082611a6957634e487b7160e01b600052601260045260246000fd5b50049056fecd5ed15c6e187e77e9aee88184c21f4f2182ab5827cb3b7e07fbedcd63f033009b779b17422d0df92223018b32b4d1fa46e071723d6817e2486d003becc55f00a2646970667358221220799be8c495d24b2a5e9f8c752c15c81eb00f2b39f18476b60130d0f43d1a2d6a64736f6c63430008180033",
  "linkReferences": {},
  "deployedLinkReferences": {}
}