{
  "_format": "hh-sol-artifact-1",
  "contractName": "InvestorV1",
  "sourceName": "contracts/Investor/InvestorV1.sol",
  "abi": [
    {
      "inputs": [
        {
          "internalType": "address",
          "name": "spender",
          "type": "address"
        },
        {
          "internalType": "uint256",
          "name": "allowance",
          "type": "uint256"
        },
        {
          "internalType": "uint256",
          "name": "needed",
          "type": "uint256"
        }
      ],
      "name": "ERC20InsufficientAllowance",
      "type": "error"
    },
    {
      "inputs": [
        {
          "internalType": "address",
          "name": "sender",
          "type": "address"
        },
        {
          "internalType": "uint256",
          "name": "balance",
          "type": "uint256"
        },
        {
          "internalType": "uint256",
          "name": "needed",
          "type": "uint256"
        }
      ],
      "name": "ERC20InsufficientBalance",
      "type": "error"
    },
    {
      "inputs": [
        {
          "internalType": "address",
          "name": "approver",
          "type": "address"
        }
      ],
      "name": "ERC20InvalidApprover",
      "type": "error"
    },
    {
      "inputs": [
        {
          "internalType": "address",
          "name": "receiver",
          "type": "address"
        }
      ],
      "name": "ERC20InvalidReceiver",
      "type": "error"
    },
    {
      "inputs": [
        {
          "internalType": "address",
          "name": "sender",
          "type": "address"
        }
      ],
      "name": "ERC20InvalidSender",
      "type": "error"
    },
    {
      "inputs": [
        {
          "internalType": "address",
          "name": "spender",
          "type": "address"
        }
      ],
      "name": "ERC20InvalidSpender",
      "type": "error"
    },
    {
      "inputs": [],
      "name": "EnforcedPause",
      "type": "error"
    },
    {
      "inputs": [],
      "name": "ExpectedPause",
      "type": "error"
    },
    {
      "inputs": [],
      "name": "InvalidInitialization",
      "type": "error"
    },
    {
      "inputs": [],
      "name": "NotInitializing",
      "type": "error"
    },
    {
      "inputs": [
        {
          "internalType": "address",
          "name": "owner",
          "type": "address"
        }
      ],
      "name": "OwnableInvalidOwner",
      "type": "error"
    },
    {
      "inputs": [
        {
          "internalType": "address",
          "name": "account",
          "type": "address"
        }
      ],
      "name": "OwnableUnauthorizedAccount",
      "type": "error"
    },
    {
      "inputs": [],
      "name": "ReentrancyGuardReentrantCall",
      "type": "error"
    },
    {
      "anonymous": false,
      "inputs": [
        {
          "indexed": true,
          "internalType": "address",
          "name": "owner",
          "type": "address"
        },
        {
          "indexed": true,
          "internalType": "address",
          "name": "spender",
          "type": "address"
        },
        {
          "indexed": false,
          "internalType": "uint256",
          "name": "value",
          "type": "uint256"
        }
      ],
      "name": "Approval",
      "type": "event"
    },
    {
      "anonymous": false,
      "inputs": [
        {
          "indexed": true,
          "internalType": "address",
          "name": "shareholder",
          "type": "address"
        },
        {
          "indexed": false,
          "internalType": "uint256",
          "name": "amount",
          "type": "uint256"
        }
      ],
      "name": "DividendDistributed",
      "type": "event"
    },
    {
      "anonymous": false,
      "inputs": [
        {
          "indexed": false,
          "internalType": "uint64",
          "name": "version",
          "type": "uint64"
        }
      ],
      "name": "Initialized",
      "type": "event"
    },
    {
      "anonymous": false,
      "inputs": [
        {
          "indexed": true,
          "internalType": "address",
          "name": "shareholder",
          "type": "address"
        },
        {
          "indexed": false,
          "internalType": "uint256",
          "name": "amount",
          "type": "uint256"
        }
      ],
      "name": "Minted",
      "type": "event"
    },
    {
      "anonymous": false,
      "inputs": [
        {
          "indexed": true,
          "internalType": "address",
          "name": "previousOwner",
          "type": "address"
        },
        {
          "indexed": true,
          "internalType": "address",
          "name": "newOwner",
          "type": "address"
        }
      ],
      "name": "OwnershipTransferred",
      "type": "event"
    },
    {
      "anonymous": false,
      "inputs": [
        {
          "indexed": false,
          "internalType": "address",
          "name": "account",
          "type": "address"
        }
      ],
      "name": "Paused",
      "type": "event"
    },
    {
      "anonymous": false,
      "inputs": [
        {
          "indexed": true,
          "internalType": "address",
          "name": "from",
          "type": "address"
        },
        {
          "indexed": true,
          "internalType": "address",
          "name": "to",
          "type": "address"
        },
        {
          "indexed": false,
          "internalType": "uint256",
          "name": "value",
          "type": "uint256"
        }
      ],
      "name": "Transfer",
      "type": "event"
    },
    {
      "anonymous": false,
      "inputs": [
        {
          "indexed": false,
          "internalType": "address",
          "name": "account",
          "type": "address"
        }
      ],
      "name": "Unpaused",
      "type": "event"
    },
    {
      "inputs": [
        {
          "internalType": "address",
          "name": "owner",
          "type": "address"
        },
        {
          "internalType": "address",
          "name": "spender",
          "type": "address"
        }
      ],
      "name": "allowance",
      "outputs": [
        {
          "internalType": "uint256",
          "name": "",
          "type": "uint256"
        }
      ],
      "stateMutability": "view",
      "type": "function"
    },
    {
      "inputs": [
        {
          "internalType": "address",
          "name": "spender",
          "type": "address"
        },
        {
          "internalType": "uint256",
          "name": "value",
          "type": "uint256"
        }
      ],
      "name": "approve",
      "outputs": [
        {
          "internalType": "bool",
          "name": "",
          "type": "bool"
        }
      ],
      "stateMutability": "nonpayable",
      "type": "function"
    },
    {
      "inputs": [
        {
          "internalType": "address",
          "name": "account",
          "type": "address"
        }
      ],
      "name": "balanceOf",
      "outputs": [
        {
          "internalType": "uint256",
          "name": "",
          "type": "uint256"
        }
      ],
      "stateMutability": "view",
      "type": "function"
    },
    {
      "inputs": [],
      "name": "decimals",
      "outputs": [
        {
          "internalType": "uint8",
          "name": "",
          "type": "uint8"
        }
      ],
      "stateMutability": "view",
      "type": "function"
    },
    {
      "inputs": [
        {
          "components": [
            {
              "internalType": "address",
              "name": "shareholder",
              "type": "address"
            },
            {
              "internalType": "uint256",
              "name": "amount",
              "type": "uint256"
            }
          ],
          "internalType": "struct InvestorV1.Shareholder[]",
          "name": "_shareholders",
          "type": "tuple[]"
        }
      ],
      "name": "distributeMint",
      "outputs": [],
      "stateMutability": "nonpayable",
      "type": "function"
    },
    {
      "inputs": [],
      "name": "getShareholders",
      "outputs": [
        {
          "components": [
            {
              "internalType": "address",
              "name": "shareholder",
              "type": "address"
            },
            {
              "internalType": "uint256",
              "name": "amount",
              "type": "uint256"
            }
          ],
          "internalType": "struct InvestorV1.Shareholder[]",
          "name": "",
          "type": "tuple[]"
        }
      ],
      "stateMutability": "view",
      "type": "function"
    },
    {
      "inputs": [
        {
          "internalType": "address",
          "name": "shareholder",
          "type": "address"
        },
        {
          "internalType": "uint256",
          "name": "amount",
          "type": "uint256"
        }
      ],
      "name": "individualMint",
      "outputs": [],
      "stateMutability": "nonpayable",
      "type": "function"
    },
    {
      "inputs": [
        {
          "internalType": "string",
          "name": "_name",
          "type": "string"
        },
        {
          "internalType": "string",
          "name": "_symbol",
          "type": "string"
        },
        {
          "internalType": "address",
          "name": "_owner",
          "type": "address"
        }
      ],
      "name": "initialize",
      "outputs": [],
      "stateMutability": "nonpayable",
      "type": "function"
    },
    {
      "inputs": [],
      "name": "name",
      "outputs": [
        {
          "internalType": "string",
          "name": "",
          "type": "string"
        }
      ],
      "stateMutability": "view",
      "type": "function"
    },
    {
      "inputs": [],
      "name": "owner",
      "outputs": [
        {
          "internalType": "address",
          "name": "",
          "type": "address"
        }
      ],
      "stateMutability": "view",
      "type": "function"
    },
    {
      "inputs": [],
      "name": "pause",
      "outputs": [],
      "stateMutability": "nonpayable",
      "type": "function"
    },
    {
      "inputs": [],
      "name": "paused",
      "outputs": [
        {
          "internalType": "bool",
          "name": "",
          "type": "bool"
        }
      ],
      "stateMutability": "view",
      "type": "function"
    },
    {
      "inputs": [],
      "name": "renounceOwnership",
      "outputs": [],
      "stateMutability": "nonpayable",
      "type": "function"
    },
    {
      "inputs": [],
      "name": "symbol",
      "outputs": [
        {
          "internalType": "string",
          "name": "",
          "type": "string"
        }
      ],
      "stateMutability": "view",
      "type": "function"
    },
    {
      "inputs": [],
      "name": "totalSupply",
      "outputs": [
        {
          "internalType": "uint256",
          "name": "",
          "type": "uint256"
        }
      ],
      "stateMutability": "view",
      "type": "function"
    },
    {
      "inputs": [
        {
          "internalType": "address",
          "name": "to",
          "type": "address"
        },
        {
          "internalType": "uint256",
          "name": "value",
          "type": "uint256"
        }
      ],
      "name": "transfer",
      "outputs": [
        {
          "internalType": "bool",
          "name": "",
          "type": "bool"
        }
      ],
      "stateMutability": "nonpayable",
      "type": "function"
    },
    {
      "inputs": [
        {
          "internalType": "address",
          "name": "from",
          "type": "address"
        },
        {
          "internalType": "address",
          "name": "to",
          "type": "address"
        },
        {
          "internalType": "uint256",
          "name": "value",
          "type": "uint256"
        }
      ],
      "name": "transferFrom",
      "outputs": [
        {
          "internalType": "bool",
          "name": "",
          "type": "bool"
        }
      ],
      "stateMutability": "nonpayable",
      "type": "function"
    },
    {
      "inputs": [
        {
          "internalType": "address",
          "name": "newOwner",
          "type": "address"
        }
      ],
      "name": "transferOwnership",
      "outputs": [],
      "stateMutability": "nonpayable",
      "type": "function"
    },
    {
      "inputs": [],
      "name": "unpause",
      "outputs": [],
      "stateMutability": "nonpayable",
      "type": "function"
    },
    {
      "stateMutability": "payable",
      "type": "receive"
    }
  ],
  "bytecode": "0x608060405234801561001057600080fd5b506119cf806100206000396000f3fe6080604052600436106101185760003560e01c80635c975abb116100a05780638da5cb5b116100645780638da5cb5b1461030757806395d89b411461034e578063a9059cbb14610363578063dd62ed3e14610383578063f2fde38b146103a357600080fd5b80635c975abb146102785780636b7747b31461029d57806370a08231146102bd578063715018a6146102dd5780638456cb59146102f257600080fd5b806318160ddd116100e757806318160ddd146101c757806323b872dd14610205578063313ce567146102255780633f4ba83a1461024157806341ca641e1461025657600080fd5b80630101c3e91461012c57806306fdde031461014c578063077f224a14610177578063095ea7b31461019757600080fd5b36610127576101256103c3565b005b600080fd5b34801561013857600080fd5b5061012561014736600461145b565b610556565b34801561015857600080fd5b50610161610619565b60405161016e919061152f565b60405180910390f35b34801561018357600080fd5b506101256101923660046115c7565b6106dc565b3480156101a357600080fd5b506101b76101b2366004611648565b610873565b604051901515815260200161016e565b3480156101d357600080fd5b507f52c63247e1f47db19d5ce0460030c497f067ca4cebf71ba98eeadabe20bace02545b60405190815260200161016e565b34801561021157600080fd5b506101b7610220366004611672565b61088d565b34801561023157600080fd5b506040516012815260200161016e565b34801561024d57600080fd5b506101256108b1565b34801561026257600080fd5b5061026b6108c1565b60405161016e91906116ae565b34801561028457600080fd5b5060008051602061195a8339815191525460ff166101b7565b3480156102a957600080fd5b506101256102b8366004611648565b6109a3565b3480156102c957600080fd5b506101f76102d8366004611706565b610a23565b3480156102e957600080fd5b50610125610a4b565b3480156102fe57600080fd5b50610125610a5d565b34801561031357600080fd5b507f9016d09d72d40fdae2fd8ceac6b6234c7706214fd39c1cd1e609a0528c199300546040516001600160a01b03909116815260200161016e565b34801561035a57600080fd5b50610161610a6d565b34801561036f57600080fd5b506101b761037e366004611648565b610aac565b34801561038f57600080fd5b506101f761039e366004611721565b610aba565b3480156103af57600080fd5b506101256103be366004611706565b610b04565b6103cb610b3f565b60006103f57f52c63247e1f47db19d5ce0460030c497f067ca4cebf71ba98eeadabe20bace025490565b116104405760405162461bcd60e51b81526020600482015260166024820152754e6f206469766964656e647320617661696c61626c6560501b60448201526064015b60405180910390fd5b60005b61044d6000610b77565b81101561053c5760006104608183610b81565b9050600061046d82610a23565b9050801561053257600061049f7f52c63247e1f47db19d5ce0460030c497f067ca4cebf71ba98eeadabe20bace025490565b6104a9833461176a565b6104b39190611781565b6040519091506001600160a01b0384169082156108fc029083906000818181858888f193505050501580156104ec573d6000803e3d6000fd5b50826001600160a01b03167f84fcdd4a7f507f2206dd50958e7473061bf941f91791c6ffaf74033a07c82f128260405161052891815260200190565b60405180910390a2505b5050600101610443565b50610554600160008051602061197a83398151915255565b565b61055e610ba8565b610566610c03565b61056e610b3f565b60005b81518110156105fe57600082828151811061058e5761058e6117a3565b602002602001015190506105aa81600001518260200151610c34565b80600001516001600160a01b03167f30385c845b448a36257a6a1716e6ad2e1bc2cbe333cde1e69fe849ad6511adfe82602001516040516105ed91815260200190565b60405180910390a250600101610571565b50610616600160008051602061197a83398151915255565b50565b7f52c63247e1f47db19d5ce0460030c497f067ca4cebf71ba98eeadabe20bace03805460609160008051602061193a83398151915291610658906117b9565b80601f0160208091040260200160405190810160405280929190818152602001828054610684906117b9565b80156106d15780601f106106a6576101008083540402835291602001916106d1565b820191906000526020600020905b8154815290600101906020018083116106b457829003601f168201915b505050505091505090565b7ff0c57e16840df040f15088dc2f81fe391c3923bec73e23a9662efc9c229c6a008054600160401b810460ff16159067ffffffffffffffff166000811580156107225750825b905060008267ffffffffffffffff16600114801561073f5750303b155b90508115801561074d575080155b1561076b5760405163f92ee8a960e01b815260040160405180910390fd5b845467ffffffffffffffff19166001178555831561079557845460ff60401b1916600160401b1785555b6108088a8a8080601f01602080910402602001604051908101604052809392919081815260200183838082843760009201919091525050604080516020601f8e018190048102820181019092528c815292508c91508b9081908401838280828437600092019190915250610c6a92505050565b61081186610c7c565b610819610c8d565b610821610c9d565b831561086757845460ff60401b19168555604051600181527fc7f505b2f371ae2175ee4913f4499e1f2633a7b5936321eed1cdaeb6115181d29060200160405180910390a15b50505050505050505050565b600033610881818585610cad565b60019150505b92915050565b60003361089b858285610cbf565b6108a6858585610d25565b506001949350505050565b6108b9610ba8565b610554610d84565b606060006108cf6000610b77565b67ffffffffffffffff8111156108e7576108e76113cf565b60405190808252806020026020018201604052801561092c57816020015b60408051808201909152600080825260208201528152602001906001900390816109055790505b50905060005b61093c6000610b77565b81101561099d57600061094f8183610b81565b90506040518060400160405280826001600160a01b0316815260200161097483610a23565b815250838381518110610989576109896117a3565b602090810291909101015250600101610932565b50919050565b6109ab610ba8565b6109b3610c03565b6109bb610b3f565b6109c58282610c34565b816001600160a01b03167f30385c845b448a36257a6a1716e6ad2e1bc2cbe333cde1e69fe849ad6511adfe82604051610a0091815260200190565b60405180910390a2610a1f600160008051602061197a83398151915255565b5050565b6001600160a01b0316600090815260008051602061193a833981519152602052604090205490565b610a53610ba8565b6105546000610de4565b610a65610ba8565b610554610e55565b7f52c63247e1f47db19d5ce0460030c497f067ca4cebf71ba98eeadabe20bace04805460609160008051602061193a83398151915291610658906117b9565b600033610881818585610d25565b6001600160a01b0391821660009081527f52c63247e1f47db19d5ce0460030c497f067ca4cebf71ba98eeadabe20bace016020908152604080832093909416825291909152205490565b610b0c610ba8565b6001600160a01b038116610b3657604051631e4fbdf760e01b815260006004820152602401610437565b61061681610de4565b60008051602061197a833981519152805460011901610b7157604051633ee5aeb560e01b815260040160405180910390fd5b60029055565b6000610887825490565b6000610b8d8383610e9e565b9392505050565b600160008051602061197a83398151915255565b33610bda7f9016d09d72d40fdae2fd8ceac6b6234c7706214fd39c1cd1e609a0528c199300546001600160a01b031690565b6001600160a01b0316146105545760405163118cdaa760e01b8152336004820152602401610437565b60008051602061195a8339815191525460ff16156105545760405163d93c066560e01b815260040160405180910390fd5b6001600160a01b038216610c5e5760405163ec442f0560e01b815260006004820152602401610437565b610a1f60008383610ec8565b610c72610f20565b610a1f8282610f69565b610c84610f20565b61061681610fba565b610c95610f20565b610554610fc2565b610ca5610f20565b610554610fca565b610cba8383836001610feb565b505050565b6000610ccb8484610aba565b90506000198114610d1f5781811015610d1057604051637dc7a0d960e11b81526001600160a01b03841660048201526024810182905260448101839052606401610437565b610d1f84848484036000610feb565b50505050565b6001600160a01b038316610d4f57604051634b637e8f60e11b815260006004820152602401610437565b6001600160a01b038216610d795760405163ec442f0560e01b815260006004820152602401610437565b610cba838383610ec8565b610d8c6110d3565b60008051602061195a833981519152805460ff191681557f5db9ee0a495bf2e6ff9c91a7834c1ba4fdd244a5e8aa4e537bd38aeae4b073aa335b6040516001600160a01b03909116815260200160405180910390a150565b7f9016d09d72d40fdae2fd8ceac6b6234c7706214fd39c1cd1e609a0528c19930080546001600160a01b031981166001600160a01b03848116918217845560405192169182907f8be0079c531659141344cd1fd0a4f28419497f9722a3daafe3b4186f6b6457e090600090a3505050565b610e5d610c03565b60008051602061195a833981519152805460ff191660011781557f62e78cea01bee320cd4e420270b5ea74000d11b0c9f74754ebdbfc544b05a25833610dc6565b6000826000018281548110610eb557610eb56117a3565b9060005260206000200154905092915050565b610ed3838383611103565b610edc83610a23565b600003610ef057610eee600084611241565b505b6000610efb83610a23565b118015610f105750610f0e600083611256565b155b15610cba57610d1f600083611278565b7ff0c57e16840df040f15088dc2f81fe391c3923bec73e23a9662efc9c229c6a0054600160401b900460ff1661055457604051631afcd79f60e31b815260040160405180910390fd5b610f71610f20565b60008051602061193a8339815191527f52c63247e1f47db19d5ce0460030c497f067ca4cebf71ba98eeadabe20bace03610fab848261183d565b5060048101610d1f838261183d565b610b0c610f20565b610b94610f20565b610fd2610f20565b60008051602061195a833981519152805460ff19169055565b60008051602061193a8339815191526001600160a01b0385166110245760405163e602df0560e01b815260006004820152602401610437565b6001600160a01b03841661104e57604051634a1406b160e11b815260006004820152602401610437565b6001600160a01b038086166000908152600183016020908152604080832093881683529290522083905581156110cc57836001600160a01b0316856001600160a01b03167f8c5be1e5ebec7d5bd14f71427d1e84f3dd0314c0f7b2291e5b200ac8c7c3b925856040516110c391815260200190565b60405180910390a35b5050505050565b60008051602061195a8339815191525460ff1661055457604051638dfc202b60e01b815260040160405180910390fd5b60008051602061193a8339815191526001600160a01b03841661113f578181600201600082825461113491906118fd565b909155506111b19050565b6001600160a01b038416600090815260208290526040902054828110156111925760405163391434e360e21b81526001600160a01b03861660048201526024810182905260448101849052606401610437565b6001600160a01b03851660009081526020839052604090209083900390555b6001600160a01b0383166111cf5760028101805483900390556111ee565b6001600160a01b03831660009081526020829052604090208054830190555b826001600160a01b0316846001600160a01b03167fddf252ad1be2c89b69c2b068fc378daa952ba7f163c4a11628f55a4df523b3ef8460405161123391815260200190565b60405180910390a350505050565b6000610b8d836001600160a01b03841661128d565b6001600160a01b03811660009081526001830160205260408120541515610b8d565b6000610b8d836001600160a01b038416611380565b600081815260018301602052604081205480156113765760006112b1600183611910565b85549091506000906112c590600190611910565b905080821461132a5760008660000182815481106112e5576112e56117a3565b9060005260206000200154905080876000018481548110611308576113086117a3565b6000918252602080832090910192909255918252600188019052604090208390555b855486908061133b5761133b611923565b600190038181906000526020600020016000905590558560010160008681526020019081526020016000206000905560019350505050610887565b6000915050610887565b60008181526001830160205260408120546113c757508154600181810184556000848152602080822090930184905584548482528286019093526040902091909155610887565b506000610887565b634e487b7160e01b600052604160045260246000fd5b6040805190810167ffffffffffffffff81118282101715611408576114086113cf565b60405290565b604051601f8201601f1916810167ffffffffffffffff81118282101715611437576114376113cf565b604052919050565b80356001600160a01b038116811461145657600080fd5b919050565b6000602080838503121561146e57600080fd5b823567ffffffffffffffff8082111561148657600080fd5b818501915085601f83011261149a57600080fd5b8135818111156114ac576114ac6113cf565b6114ba848260051b0161140e565b818152848101925060069190911b8301840190878211156114da57600080fd5b928401925b8184101561152457604084890312156114f85760008081fd5b6115006113e5565b6115098561143f565b815284860135868201528352604090930192918401916114df565b979650505050505050565b60006020808352835180602085015260005b8181101561155d57858101830151858201604001528201611541565b506000604082860101526040601f19601f8301168501019250505092915050565b60008083601f84011261159057600080fd5b50813567ffffffffffffffff8111156115a857600080fd5b6020830191508360208285010111156115c057600080fd5b9250929050565b6000806000806000606086880312156115df57600080fd5b853567ffffffffffffffff808211156115f757600080fd5b61160389838a0161157e565b9097509550602088013591508082111561161c57600080fd5b506116298882890161157e565b909450925061163c90506040870161143f565b90509295509295909350565b6000806040838503121561165b57600080fd5b6116648361143f565b946020939093013593505050565b60008060006060848603121561168757600080fd5b6116908461143f565b925061169e6020850161143f565b9150604084013590509250925092565b602080825282518282018190526000919060409081850190868401855b828110156116f957815180516001600160a01b031685528601518685015292840192908501906001016116cb565b5091979650505050505050565b60006020828403121561171857600080fd5b610b8d8261143f565b6000806040838503121561173457600080fd5b61173d8361143f565b915061174b6020840161143f565b90509250929050565b634e487b7160e01b600052601160045260246000fd5b808202811582820484141761088757610887611754565b60008261179e57634e487b7160e01b600052601260045260246000fd5b500490565b634e487b7160e01b600052603260045260246000fd5b600181811c908216806117cd57607f821691505b60208210810361099d57634e487b7160e01b600052602260045260246000fd5b601f821115610cba576000816000526020600020601f850160051c810160208610156118165750805b601f850160051c820191505b8181101561183557828155600101611822565b505050505050565b815167ffffffffffffffff811115611857576118576113cf565b61186b8161186584546117b9565b846117ed565b602080601f8311600181146118a057600084156118885750858301515b600019600386901b1c1916600185901b178555611835565b600085815260208120601f198616915b828110156118cf578886015182559484019460019091019084016118b0565b50858210156118ed5787850151600019600388901b60f8161c191681555b5050505050600190811b01905550565b8082018082111561088757610887611754565b8181038181111561088757610887611754565b634e487b7160e01b600052603160045260246000fdfe52c63247e1f47db19d5ce0460030c497f067ca4cebf71ba98eeadabe20bace00cd5ed15c6e187e77e9aee88184c21f4f2182ab5827cb3b7e07fbedcd63f033009b779b17422d0df92223018b32b4d1fa46e071723d6817e2486d003becc55f00a26469706673582212208b98d73eb2c8f0d04395224f9c3726944970b0e905a8a2d0f924415fd28c49cb64736f6c63430008180033",
  "linkReferences": {},
  "deployedLinkReferences": {}
}