{
  "_format": "hh-sol-artifact-1",
  "contractName": "Voting",
  "sourceName": "contracts/Voting/Voting.sol",
  "abi": [
    {
      "inputs": [],
      "name": "EnforcedPause",
      "type": "error"
    },
    {
      "inputs": [],
      "name": "ExpectedPause",
      "type": "error"
    },
    {
      "inputs": [],
      "name": "InvalidInitialization",
      "type": "error"
    },
    {
      "inputs": [],
      "name": "NotInitializing",
      "type": "error"
    },
    {
      "inputs": [
        {
          "internalType": "address",
          "name": "owner",
          "type": "address"
        }
      ],
      "name": "OwnableInvalidOwner",
      "type": "error"
    },
    {
      "inputs": [
        {
          "internalType": "address",
          "name": "account",
          "type": "address"
        }
      ],
      "name": "OwnableUnauthorizedAccount",
      "type": "error"
    },
    {
      "inputs": [],
      "name": "ReentrancyGuardReentrantCall",
      "type": "error"
    },
    {
      "anonymous": false,
      "inputs": [
        {
          "indexed": false,
          "internalType": "address[]",
          "name": "boardOfDirectors",
          "type": "address[]"
        }
      ],
      "name": "BoardOfDirectorsSet",
      "type": "event"
    },
    {
      "anonymous": false,
      "inputs": [
        {
          "indexed": true,
          "internalType": "address",
          "name": "voter",
          "type": "address"
        },
        {
          "indexed": true,
          "internalType": "uint256",
          "name": "proposalId",
          "type": "uint256"
        },
        {
          "indexed": false,
          "internalType": "uint256",
          "name": "vote",
          "type": "uint256"
        }
      ],
      "name": "DirectiveVoted",
      "type": "event"
    },
    {
      "anonymous": false,
      "inputs": [
        {
          "indexed": true,
          "internalType": "address",
          "name": "voter",
          "type": "address"
        },
        {
          "indexed": true,
          "internalType": "uint256",
          "name": "proposalId",
          "type": "uint256"
        },
        {
          "indexed": true,
          "internalType": "address",
          "name": "candidateAddress",
          "type": "address"
        }
      ],
      "name": "ElectionVoted",
      "type": "event"
    },
    {
      "anonymous": false,
      "inputs": [
        {
          "indexed": false,
          "internalType": "uint64",
          "name": "version",
          "type": "uint64"
        }
      ],
      "name": "Initialized",
      "type": "event"
    },
    {
      "anonymous": false,
      "inputs": [
        {
          "indexed": true,
          "internalType": "address",
          "name": "previousOwner",
          "type": "address"
        },
        {
          "indexed": true,
          "internalType": "address",
          "name": "newOwner",
          "type": "address"
        }
      ],
      "name": "OwnershipTransferred",
      "type": "event"
    },
    {
      "anonymous": false,
      "inputs": [
        {
          "indexed": false,
          "internalType": "address",
          "name": "account",
          "type": "address"
        }
      ],
      "name": "Paused",
      "type": "event"
    },
    {
      "anonymous": false,
      "inputs": [
        {
          "indexed": true,
          "internalType": "uint256",
          "name": "proposalId",
          "type": "uint256"
        },
        {
          "indexed": false,
          "internalType": "string",
          "name": "title",
          "type": "string"
        },
        {
          "indexed": false,
          "internalType": "string",
          "name": "description",
          "type": "string"
        }
      ],
      "name": "ProposalAdded",
      "type": "event"
    },
    {
      "anonymous": false,
      "inputs": [
        {
          "indexed": true,
          "internalType": "uint256",
          "name": "proposalId",
          "type": "uint256"
        },
        {
          "indexed": false,
          "internalType": "bool",
          "name": "isActive",
          "type": "bool"
        }
      ],
      "name": "ProposalConcluded",
      "type": "event"
    },
    {
      "anonymous": false,
      "inputs": [
        {
          "indexed": true,
          "internalType": "uint256",
          "name": "proposalId",
          "type": "uint256"
        },
        {
          "indexed": false,
          "internalType": "address[]",
          "name": "candidates",
          "type": "address[]"
        }
      ],
      "name": "RunoffElectionStarted",
      "type": "event"
    },
    {
      "anonymous": false,
      "inputs": [
        {
          "indexed": true,
          "internalType": "uint256",
          "name": "proposalId",
          "type": "uint256"
        },
        {
          "indexed": false,
          "internalType": "enum Types.TieBreakOption",
          "name": "option",
          "type": "uint8"
        }
      ],
      "name": "TieBreakOptionSelected",
      "type": "event"
    },
    {
      "anonymous": false,
      "inputs": [
        {
          "indexed": true,
          "internalType": "uint256",
          "name": "proposalId",
          "type": "uint256"
        },
        {
          "indexed": false,
          "internalType": "address[]",
          "name": "tiedCandidates",
          "type": "address[]"
        }
      ],
      "name": "TieDetected",
      "type": "event"
    },
    {
      "anonymous": false,
      "inputs": [
        {
          "indexed": false,
          "internalType": "address",
          "name": "account",
          "type": "address"
        }
      ],
      "name": "Unpaused",
      "type": "event"
    },
    {
      "inputs": [
        {
          "internalType": "string",
          "name": "_title",
          "type": "string"
        },
        {
          "internalType": "string",
          "name": "_description",
          "type": "string"
        },
        {
          "internalType": "bool",
          "name": "_isElection",
          "type": "bool"
        },
        {
          "internalType": "uint256",
          "name": "_winnerCount",
          "type": "uint256"
        },
        {
          "internalType": "address[]",
          "name": "_voters",
          "type": "address[]"
        },
        {
          "internalType": "address[]",
          "name": "_candidates",
          "type": "address[]"
        }
      ],
      "name": "addProposal",
      "outputs": [],
      "stateMutability": "nonpayable",
      "type": "function"
    },
    {
      "inputs": [],
      "name": "boardOfDirectorsContractAddress",
      "outputs": [
        {
          "internalType": "address",
          "name": "",
          "type": "address"
        }
      ],
      "stateMutability": "view",
      "type": "function"
    },
    {
      "inputs": [
        {
          "internalType": "uint256",
          "name": "proposalId",
          "type": "uint256"
        }
      ],
      "name": "concludeProposal",
      "outputs": [],
      "stateMutability": "nonpayable",
      "type": "function"
    },
    {
      "inputs": [
        {
          "internalType": "uint256",
          "name": "proposalId",
          "type": "uint256"
        }
      ],
      "name": "getProposalById",
      "outputs": [
        {
          "components": [
            {
              "internalType": "uint256",
              "name": "id",
              "type": "uint256"
            },
            {
              "internalType": "string",
              "name": "title",
              "type": "string"
            },
            {
              "internalType": "string",
              "name": "description",
              "type": "string"
            },
            {
              "internalType": "address",
              "name": "draftedBy",
              "type": "address"
            },
            {
              "internalType": "bool",
              "name": "isElection",
              "type": "bool"
            },
            {
              "internalType": "bool",
              "name": "isActive",
              "type": "bool"
            },
            {
              "internalType": "uint256",
              "name": "winnerCount",
              "type": "uint256"
            },
            {
              "components": [
                {
                  "internalType": "uint256",
                  "name": "yes",
                  "type": "uint256"
                },
                {
                  "internalType": "uint256",
                  "name": "no",
                  "type": "uint256"
                },
                {
                  "internalType": "uint256",
                  "name": "abstain",
                  "type": "uint256"
                }
              ],
              "internalType": "struct Types.DirectiveVotes",
              "name": "votes",
              "type": "tuple"
            },
            {
              "components": [
                {
                  "internalType": "address",
                  "name": "candidateAddress",
                  "type": "address"
                },
                {
                  "internalType": "uint256",
                  "name": "votes",
                  "type": "uint256"
                }
              ],
              "internalType": "struct Types.Candidate[]",
              "name": "candidates",
              "type": "tuple[]"
            },
            {
              "components": [
                {
                  "internalType": "bool",
                  "name": "isEligible",
                  "type": "bool"
                },
                {
                  "internalType": "bool",
                  "name": "isVoted",
                  "type": "bool"
                },
                {
                  "internalType": "address",
                  "name": "memberAddress",
                  "type": "address"
                }
              ],
              "internalType": "struct Types.Member[]",
              "name": "voters",
              "type": "tuple[]"
            },
            {
              "internalType": "bool",
              "name": "hasTie",
              "type": "bool"
            },
            {
              "internalType": "address[]",
              "name": "tiedCandidates",
              "type": "address[]"
            },
            {
              "internalType": "enum Types.TieBreakOption",
              "name": "selectedTieBreakOption",
              "type": "uint8"
            }
          ],
          "internalType": "struct Types.Proposal",
          "name": "",
          "type": "tuple"
        }
      ],
      "stateMutability": "view",
      "type": "function"
    },
    {
      "inputs": [
        {
          "internalType": "address",
          "name": "_sender",
          "type": "address"
        }
      ],
      "name": "initialize",
      "outputs": [],
      "stateMutability": "nonpayable",
      "type": "function"
    },
    {
      "inputs": [],
      "name": "owner",
      "outputs": [
        {
          "internalType": "address",
          "name": "",
          "type": "address"
        }
      ],
      "stateMutability": "view",
      "type": "function"
    },
    {
      "inputs": [],
      "name": "pause",
      "outputs": [],
      "stateMutability": "nonpayable",
      "type": "function"
    },
    {
      "inputs": [],
      "name": "paused",
      "outputs": [
        {
          "internalType": "bool",
          "name": "",
          "type": "bool"
        }
      ],
      "stateMutability": "view",
      "type": "function"
    },
    {
      "inputs": [],
      "name": "proposalCount",
      "outputs": [
        {
          "internalType": "uint256",
          "name": "",
          "type": "uint256"
        }
      ],
      "stateMutability": "view",
      "type": "function"
    },
    {
      "inputs": [
        {
          "internalType": "uint256",
          "name": "",
          "type": "uint256"
        }
      ],
      "name": "proposalsById",
      "outputs": [
        {
          "internalType": "uint256",
          "name": "id",
          "type": "uint256"
        },
        {
          "internalType": "string",
          "name": "title",
          "type": "string"
        },
        {
          "internalType": "string",
          "name": "description",
          "type": "string"
        },
        {
          "internalType": "address",
          "name": "draftedBy",
          "type": "address"
        },
        {
          "internalType": "bool",
          "name": "isElection",
          "type": "bool"
        },
        {
          "internalType": "bool",
          "name": "isActive",
          "type": "bool"
        },
        {
          "internalType": "uint256",
          "name": "winnerCount",
          "type": "uint256"
        },
        {
          "components": [
            {
              "internalType": "uint256",
              "name": "yes",
              "type": "uint256"
            },
            {
              "internalType": "uint256",
              "name": "no",
              "type": "uint256"
            },
            {
              "internalType": "uint256",
              "name": "abstain",
              "type": "uint256"
            }
          ],
          "internalType": "struct Types.DirectiveVotes",
          "name": "votes",
          "type": "tuple"
        },
        {
          "internalType": "bool",
          "name": "hasTie",
          "type": "bool"
        },
        {
          "internalType": "enum Types.TieBreakOption",
          "name": "selectedTieBreakOption",
          "type": "uint8"
        }
      ],
      "stateMutability": "view",
      "type": "function"
    },
    {
      "inputs": [],
      "name": "renounceOwnership",
      "outputs": [],
      "stateMutability": "nonpayable",
      "type": "function"
    },
    {
      "inputs": [
        {
          "internalType": "uint256",
          "name": "proposalId",
          "type": "uint256"
        },
        {
          "internalType": "enum Types.TieBreakOption",
          "name": "option",
          "type": "uint8"
        }
      ],
      "name": "resolveTie",
      "outputs": [],
      "stateMutability": "nonpayable",
      "type": "function"
    },
    {
      "inputs": [
        {
          "internalType": "uint256",
          "name": "proposalId",
          "type": "uint256"
        },
        {
          "internalType": "address",
          "name": "winner",
          "type": "address"
        }
      ],
      "name": "selectWinner",
      "outputs": [],
      "stateMutability": "nonpayable",
      "type": "function"
    },
    {
      "inputs": [
        {
          "internalType": "address[]",
          "name": "_boardOfDirectors",
          "type": "address[]"
        }
      ],
      "name": "setBoardOfDirectors",
      "outputs": [],
      "stateMutability": "nonpayable",
      "type": "function"
    },
    {
      "inputs": [
        {
          "internalType": "address",
          "name": "_boardOfDirectorsContractAddress",
          "type": "address"
        }
      ],
      "name": "setBoardOfDirectorsContractAddress",
      "outputs": [],
      "stateMutability": "nonpayable",
      "type": "function"
    },
    {
      "inputs": [
        {
          "internalType": "address",
          "name": "newOwner",
          "type": "address"
        }
      ],
      "name": "transferOwnership",
      "outputs": [],
      "stateMutability": "nonpayable",
      "type": "function"
    },
    {
      "inputs": [],
      "name": "unpause",
      "outputs": [],
      "stateMutability": "nonpayable",
      "type": "function"
    },
    {
      "inputs": [
        {
          "internalType": "uint256",
          "name": "proposalId",
          "type": "uint256"
        },
        {
          "internalType": "uint256",
          "name": "vote",
          "type": "uint256"
        }
      ],
      "name": "voteDirective",
      "outputs": [],
      "stateMutability": "nonpayable",
      "type": "function"
    },
    {
      "inputs": [
        {
          "internalType": "uint256",
          "name": "proposalId",
          "type": "uint256"
        },
        {
          "internalType": "address",
          "name": "candidateAddress",
          "type": "address"
        }
      ],
      "name": "voteElection",
      "outputs": [],
      "stateMutability": "nonpayable",
      "type": "function"
    }
  ],
  "bytecode": "0x608060405234801561001057600080fd5b50613511806100206000396000f3fe608060405234801561001057600080fd5b50600436106101215760003560e01c80638456cb59116100ad578063c4d66de811610071578063c4d66de81461027e578063da35c66414610291578063ec172193146102a8578063ee473c7a146102d8578063f2fde38b146102eb57600080fd5b80638456cb59146101f95780638da5cb5b1461020157806397b3418e14610245578063ab4de60614610258578063bd68d6e71461026b57600080fd5b80635c975abb116100f45780635c975abb146101955780636a3048ac146101b8578063715018a6146101cb57806371a5c572146101d357806376e9f102146101e657600080fd5b80631b7864c1146101265780633656de211461013b5780633f4ba83a146101645780634f950c1a1461016c575b600080fd5b6101396101343660046129fa565b6102fe565b005b61014e6101493660046129fa565b61088e565b60405161015b9190612b6f565b60405180910390f35b610139610c0a565b61017f61017a3660046129fa565b610c1c565b60405161015b9a99989796959493929190612cb8565b60008051602061349c8339815191525460ff16604051901515815260200161015b565b6101396101c6366004612d58565b610db2565b610139611490565b6101396101e1366004612e74565b6114a2565b6101396101f4366004612f2f565b61150f565b610139611929565b7f9016d09d72d40fdae2fd8ceac6b6234c7706214fd39c1cd1e609a0528c199300546001600160a01b03165b6040516001600160a01b03909116815260200161015b565b610139610253366004612ff4565b611939565b610139610266366004613016565b611ac7565b60025461022d906001600160a01b031681565b61013961028c366004613042565b611e93565b61029a60015481565b60405190815260200161015b565b6101396102b6366004613042565b600280546001600160a01b0319166001600160a01b0392909216919091179055565b6101396102e6366004613016565b611fb1565b6101396102f9366004613042565b612215565b60015481106103285760405162461bcd60e51b815260040161031f90613064565b60405180910390fd5b6000818152602081905260409020600301546001600160a01b031633146103a45760405162461bcd60e51b815260206004820152602a60248201527f4f6e6c792074686520666f756e6465722063616e20636f6e636c75646520746860448201526919481c1c9bdc1bdcd85b60b21b606482015260840161031f565b60008181526020819052604090206003810154600160a01b900460ff161561082457600081600401549050600082600801805480602002602001604051908101604052809291908181526020016000905b8282101561043d576000848152602090819020604080518082019091526002850290910180546001600160a01b031682526001908101548284015290835290920191016103f5565b50505050905060005b815181101561053057600061045c8260016130b1565b90505b82518110156105275782818151811061047a5761047a6130c4565b602002602001015160200151838381518110610498576104986130c4565b602002602001015160200151101561051f5760008383815181106104be576104be6130c4565b602002602001015190508382815181106104da576104da6130c4565b60200260200101518484815181106104f4576104f46130c4565b602002602001018190525080848381518110610512576105126130c4565b6020026020010181905250505b60010161045f565b50600101610446565b5080518210156106f7576000816105486001856130da565b81518110610558576105586130c4565b60200260200101516020015190506000805b83518110156105ad5782848281518110610586576105866130c4565b602002602001015160200151036105a557816105a1816130ed565b9250505b60010161056a565b5060018111156106f4576000816001600160401b038111156105d1576105d1612d8c565b6040519080825280602002602001820160405280156105fa578160200160208202803683370190505b5090506000805b855181101561068c578486828151811061061d5761061d6130c4565b6020026020010151602001510361068457858181518110610640576106406130c4565b60200260200101516000015183838151811061065e5761065e6130c4565b6001600160a01b039092166020928302919091019091015281610680816130ed565b9250505b600101610601565b50600a8701805460ff1916600117905581516106b190600b8901906020850190612739565b50877f8ecf1ea8928cb04d4b70e2aa6f205e6714325cf0ca6fa3b2b024f4daba105c86836040516106e29190613106565b60405180910390a25050505050505050565b50505b6000826001600160401b0381111561071157610711612d8c565b60405190808252806020026020018201604052801561073a578160200160208202803683370190505b50905060005b838110156107985782818151811061075a5761075a6130c4565b602002602001015160000151828281518110610778576107786130c4565b6001600160a01b0390921660209283029190910190910152600101610740565b506002546040516338d2e2b960e11b81526001600160a01b03909116906371a5c572906107c9908490600401613106565b600060405180830381600087803b1580156107e357600080fd5b505af11580156107f7573d6000803e3d6000fd5b505050506000805160206134bc833981519152816040516108189190613106565b60405180910390a15050505b60038101805460ff600160a81b808304821615810260ff60a81b19909316929092179283905560405185937f628c5b5fb646e7f6c763f5e3b6fdcbee619fe1c1bc595643a1c70415a6f1134993610882939104161515815260200190565b60405180910390a25050565b61089661279e565b60015482106108b75760405162461bcd60e51b815260040161031f90613064565b6000828152602081815260409182902082516101a081019093528054835260018101805491928401916108e990613153565b80601f016020809104026020016040519081016040528092919081815260200182805461091590613153565b80156109625780601f1061093757610100808354040283529160200191610962565b820191906000526020600020905b81548152906001019060200180831161094557829003601f168201915b5050505050815260200160028201805461097b90613153565b80601f01602080910402602001604051908101604052809291908181526020018280546109a790613153565b80156109f45780601f106109c9576101008083540402835291602001916109f4565b820191906000526020600020905b8154815290600101906020018083116109d757829003601f168201915b505050918352505060038201546001600160a01b03811660208084019190915260ff600160a01b830481161515604080860191909152600160a81b90930416151560608085019190915260048501546080850152825190810183526005850154815260068501548183015260078501548184015260a084015260088401805483518184028101840190945280845260c090940193909160009084015b82821015610ad8576000848152602090819020604080518082019091526002850290910180546001600160a01b03168252600190810154828401529083529092019101610a90565b50505050815260200160098201805480602002602001604051908101604052809291908181526020016000905b82821015610b5c576000848152602090819020604080516060810182529185015460ff808216151584526101008204161515838501526201000090046001600160a01b031690820152825260019092019101610b05565b50505090825250600a82015460ff161515602080830191909152600b830180546040805182850281018501825282815294019392830182828015610bc957602002820191906000526020600020905b81546001600160a01b03168152600190910190602001808311610bab575b5050509183525050600c82015460209091019060ff166003811115610bf057610bf0612b37565b6003811115610c0157610c01612b37565b90525092915050565b610c12612253565b610c1a6122ae565b565b60006020819052908152604090208054600182018054919291610c3e90613153565b80601f0160208091040260200160405190810160405280929190818152602001828054610c6a90613153565b8015610cb75780601f10610c8c57610100808354040283529160200191610cb7565b820191906000526020600020905b815481529060010190602001808311610c9a57829003601f168201915b505050505090806002018054610ccc90613153565b80601f0160208091040260200160405190810160405280929190818152602001828054610cf890613153565b8015610d455780601f10610d1a57610100808354040283529160200191610d45565b820191906000526020600020905b815481529060010190602001808311610d2857829003601f168201915b5050505060038301546004840154604080516060810182526005870154815260068701546020820152600787015491810191909152600a860154600c9096015494956001600160a01b0384169560ff600160a01b860481169650600160a81b90950485169491821691168a565b6001548210610dd35760405162461bcd60e51b815260040161031f90613064565b600082815260208190526040902060038101546001600160a01b03163314610e475760405162461bcd60e51b815260206004820152602160248201527f4f6e6c792074686520666f756e6465722063616e207265736f6c7665207469656044820152607360f81b606482015260840161031f565b600a81015460ff16610e8f5760405162461bcd60e51b81526020600482015260116024820152704e6f2074696520746f207265736f6c766560781b604482015260640161031f565b600c8101805483919060ff19166001836003811115610eb057610eb0612b37565b0217905550827fc167b827d8b745b4355f0ede888147c616cb2c6047d600a904e7c9f8bc11a17883604051610ee5919061318d565b60405180910390a26000826003811115610f0157610f01612b37565b0361110957600b810154600090610f196001436130da565b610f2491904061319b565b9050600082600b018281548110610f3d57610f3d6130c4565b600091825260208220015460048501546001600160a01b0390911692506001600160401b03811115610f7157610f71612d8c565b604051908082528060200260200182016040528015610f9a578160200160208202803683370190505b50905060005b60018560040154610fb191906130da565b81101561101e57846008018181548110610fcd57610fcd6130c4565b600091825260209091206002909102015482516001600160a01b0390911690839083908110610ffe57610ffe6130c4565b6001600160a01b0390921660209283029190910190910152600101610fa0565b5081816001866004015461103291906130da565b81518110611042576110426130c4565b6001600160a01b0392831660209182029290920101526002546040516338d2e2b960e11b81529116906371a5c5729061107f908490600401613106565b600060405180830381600087803b15801561109957600080fd5b505af11580156110ad573d6000803e3d6000fd5b505050506000805160206134bc833981519152816040516110ce9190613106565b60405180910390a1505050600a8101805460ff19169055600381018054600160a81b80820460ff16150260ff60a81b19909116179055505050565b600382600381111561111d5761111d612b37565b036112b557600181600401600082825461113791906130b1565b909155505060048101546000906001600160401b0381111561115b5761115b612d8c565b604051908082528060200260200182016040528015611184578160200160208202803683370190505b50905060005b82600401548110156111fc578260080181815481106111ab576111ab6130c4565b600091825260209091206002909102015482516001600160a01b03909116908390839081106111dc576111dc6130c4565b6001600160a01b039092166020928302919091019091015260010161118a565b506002546040516338d2e2b960e11b81526001600160a01b03909116906371a5c5729061122d908490600401613106565b600060405180830381600087803b15801561124757600080fd5b505af115801561125b573d6000803e3d6000fd5b505050506000805160206134bc8339815191528160405161127c9190613106565b60405180910390a150600a8101805460ff19169055600381018054600160a81b80820460ff16150260ff60a81b19909116179055505050565b60028260038111156112c9576112c9612b37565b036112d357505050565b60018260038111156112e7576112e7612b37565b0361148b5760008160010160405160200161130291906131bd565b60405160208183030381529060405290506114168183600201805461132690613153565b80601f016020809104026020016040519081016040528092919081815260200182805461135290613153565b801561139f5780601f106113745761010080835404028352916020019161139f565b820191906000526020600020905b81548152906001019060200180831161138257829003601f168201915b5050505050600185600401546113b48761230e565b87600b0180548060200260200160405190810160405280929190818152602001828054801561140c57602002820191906000526020600020905b81546001600160a01b031681526001909101906020018083116113ee575b505050505061150f565b6001805461142491906130da565b7fe163249cea34f666b4746b0b11468118f6bdc576500eba3b91966a53c2a7e67983600b016040516114569190613250565b60405180910390a250600a8101805460ff19169055600381018054600160a81b80820460ff16150260ff60a81b199091161790555b505050565b611498612253565b610c1a60006123da565b6114aa612253565b6002546040516338d2e2b960e11b81526001600160a01b03909116906371a5c572906114da908490600401613106565b600060405180830381600087803b1580156114f457600080fd5b505af1158015611508573d6000803e3d6000fd5b5050505050565b60008651116115585760405162461bcd60e51b81526020600482015260156024820152745469746c652063616e6e6f7420626520656d70747960581b604482015260640161031f565b60018054600081815260208190526040902090815590810161157a88826132dc565b506002810161158987826132dc565b50600381018054600160a81b6001600160a81b03199091163360ff60a01b191617600160a01b881515021760ff60a81b19161790556004810184905560005b83518110156116855760006040518060600160405280600115158152602001600015158152602001868481518110611602576116026130c4565b6020908102919091018101516001600160a01b039081169092526009860180546001818101835560009283529183902085519101805493860151604090960151909416620100000262010000600160b01b03199515156101000261ff00199215159290921661ffff199094169390931717939093161790559190910190506115c8565b5084156117725760008251116116dd5760405162461bcd60e51b815260206004820152601a60248201527f43616e646964617465732063616e6e6f7420626520656d707479000000000000604482015260640161031f565b60005b82518110156117705760006040518060400160405280858481518110611708576117086130c4565b6020908102919091018101516001600160a01b03908116835260009282018390526008870180546001808201835591855293839020855160029095020180546001600160a01b03191694909216939093178155920151918101919091559190910190506116e0565b505b6001805460009081526020819052604090208254815582918181019061179a9084018261339b565b506002818101906117ad9084018261339b565b506003828101805491830180546001600160a01b031981166001600160a01b039094169384178255825460ff600160a01b91829004811615159091026001600160a81b0319909216909417178082559154600160a81b90819004909316151590920260ff60a81b1990911617905560048083015490820155600580830154908201556006808301549082015560078083015490820155600880830180546118579284019190612847565b506009828101805461186c92840191906128bb565b50600a82810154908201805460ff191660ff9092161515919091179055600b808301805461189d9284019190612960565b50600c82810154908201805460ff9092169160ff191660018360038111156118c7576118c7612b37565b02179055509050506001547f2da739368218397c1f8267a798bce5722bae1a51d2855fb923312edf27460c60888860405161190392919061346d565b60405180910390a26001805490600061191b836130ed565b919050555050505050505050565b611931612253565b610c1a61244b565b600154821061195a5760405162461bcd60e51b815260040161031f90613064565b60008281526020819052604090206003810154600160a81b900460ff166119bc5760405162461bcd60e51b815260206004820152601660248201527550726f706f73616c206973206e6f742061637469766560501b604482015260640161031f565b60006119c88233612494565b805490915060ff16611a1c5760405162461bcd60e51b815260206004820152601c60248201527f596f7520617265206e6f7420656c696769626c6520746f20766f746500000000604482015260640161031f565b8054610100900460ff1615611a6c5760405162461bcd60e51b8152602060048201526016602482015275165bdd481a185d9948185b1c9958591e481d9bdd195960521b604482015260640161031f565b611a768284612579565b805461ff001916610100178155604051849033907fabe5d78d7c4aff0ea01d11f7334d89bf989faef45af0c780acf4ccff6bd5c8db90611ab99087815260200190565b60405180910390a350505050565b6001548210611ae85760405162461bcd60e51b815260040161031f90613064565b600082815260208190526040902060038101546001600160a01b03163314611b5d5760405162461bcd60e51b815260206004820152602260248201527f4f6e6c792074686520666f756e6465722063616e2073656c6563742077696e6e60448201526132b960f11b606482015260840161031f565b600a81015460ff16611ba55760405162461bcd60e51b81526020600482015260116024820152704e6f2074696520746f207265736f6c766560781b604482015260640161031f565b6002600c82015460ff166003811115611bc057611bc0612b37565b14611c1d5760405162461bcd60e51b815260206004820152602760248201527f54696520627265616b206f7074696f6e206d75737420626520464f554e4445526044820152665f43484f49434560c81b606482015260840161031f565b6000805b600b830154811015611c7757836001600160a01b031683600b018281548110611c4c57611c4c6130c4565b6000918252602090912001546001600160a01b031603611c6f5760019150611c77565b600101611c21565b5080611ce05760405162461bcd60e51b815260206004820152603260248201527f53656c65637465642077696e6e6572206d757374206265206f6e65206f662074604482015271686520746965642063616e6469646174657360701b606482015260840161031f565b600082600401546001600160401b03811115611cfe57611cfe612d8c565b604051908082528060200260200182016040528015611d27578160200160208202803683370190505b50905060005b60018460040154611d3e91906130da565b811015611dab57836008018181548110611d5a57611d5a6130c4565b600091825260209091206002909102015482516001600160a01b0390911690839083908110611d8b57611d8b6130c4565b6001600160a01b0390921660209283029190910190910152600101611d2d565b50838160018560040154611dbf91906130da565b81518110611dcf57611dcf6130c4565b6001600160a01b0392831660209182029290920101526002546040516338d2e2b960e11b81529116906371a5c57290611e0c908490600401613106565b600060405180830381600087803b158015611e2657600080fd5b505af1158015611e3a573d6000803e3d6000fd5b505050506000805160206134bc83398151915281604051611e5b9190613106565b60405180910390a15050600a8101805460ff191690556003018054600160a81b80820460ff16150260ff60a81b199091161790555050565b7ff0c57e16840df040f15088dc2f81fe391c3923bec73e23a9662efc9c229c6a008054600160401b810460ff1615906001600160401b0316600081158015611ed85750825b90506000826001600160401b03166001148015611ef45750303b155b905081158015611f02575080155b15611f205760405163f92ee8a960e01b815260040160405180910390fd5b845467ffffffffffffffff191660011785558315611f4a57845460ff60401b1916600160401b1785555b611f5386612607565b611f5b612618565b611f63612628565b8315611fa957845460ff60401b19168555604051600181527fc7f505b2f371ae2175ee4913f4499e1f2633a7b5936321eed1cdaeb6115181d29060200160405180910390a15b505050505050565b6001548210611fd25760405162461bcd60e51b815260040161031f90613064565b60008281526020819052604090206003810154600160a81b900460ff166120345760405162461bcd60e51b815260206004820152601660248201527550726f706f73616c206973206e6f742061637469766560501b604482015260640161031f565b60006120408233612494565b805490915060ff166120945760405162461bcd60e51b815260206004820152601c60248201527f596f7520617265206e6f7420656c696769626c6520746f20766f746500000000604482015260640161031f565b8054610100900460ff16156120e45760405162461bcd60e51b8152602060048201526016602482015275165bdd481a185d9948185b1c9958591e481d9bdd195960521b604482015260640161031f565b6000805b600884015481101561217b57846001600160a01b0316846008018281548110612113576121136130c4565b60009182526020909120600290910201546001600160a01b03160361217357836008018181548110612147576121476130c4565b600091825260208220600160029092020101805491612165836130ed565b91905055506001915061217b565b6001016120e8565b50806121c95760405162461bcd60e51b815260206004820152601860248201527f43616e64696461746520646f6573206e6f742065786973740000000000000000604482015260640161031f565b815461ff0019166101001782556040516001600160a01b03851690869033907fe8db14efb3e399b32db39dd2829b3af23451747dba46368ce6a3d5ccefebf88290600090a45050505050565b61221d612253565b6001600160a01b03811661224757604051631e4fbdf760e01b81526000600482015260240161031f565b612250816123da565b50565b336122857f9016d09d72d40fdae2fd8ceac6b6234c7706214fd39c1cd1e609a0528c199300546001600160a01b031690565b6001600160a01b031614610c1a5760405163118cdaa760e01b815233600482015260240161031f565b6122b6612638565b60008051602061349c833981519152805460ff191681557f5db9ee0a495bf2e6ff9c91a7834c1ba4fdd244a5e8aa4e537bd38aeae4b073aa335b6040516001600160a01b03909116815260200160405180910390a150565b60098101546060906000906001600160401b0381111561233057612330612d8c565b604051908082528060200260200182016040528015612359578160200160208202803683370190505b50905060005b60098401548110156123d357836009018181548110612380576123806130c4565b9060005260206000200160000160029054906101000a90046001600160a01b03168282815181106123b3576123b36130c4565b6001600160a01b039092166020928302919091019091015260010161235f565b5092915050565b7f9016d09d72d40fdae2fd8ceac6b6234c7706214fd39c1cd1e609a0528c19930080546001600160a01b031981166001600160a01b03848116918217845560405192169182907f8be0079c531659141344cd1fd0a4f28419497f9722a3daafe3b4186f6b6457e090600090a3505050565b612453612668565b60008051602061349c833981519152805460ff191660011781557f62e78cea01bee320cd4e420270b5ea74000d11b0c9f74754ebdbfc544b05a258336122f0565b6000805b600984015481101561251257826001600160a01b03168460090182815481106124c3576124c36130c4565b6000918252602090912001546201000090046001600160a01b03160361250a578360090181815481106124f8576124f86130c4565b90600052602060002001915050612573565b600101612498565b5060405162461bcd60e51b815260206004820152602f60248201527f596f7520617265206e6f74207265676973746572656420746f20766f7465206960448201526e1b881d1a1a5cc81c1c9bdc1bdcd85b608a1b606482015260840161031f565b92915050565b8060000361259c57600682018054906000612593836130ed565b91905055505050565b806001036125b657600582018054906000612593836130ed565b806002036125d057600782018054906000612593836130ed565b60405162461bcd60e51b815260206004820152600c60248201526b496e76616c696420766f746560a01b604482015260640161031f565b61260f612699565b612250816126e2565b612620612699565b610c1a6126ea565b612630612699565b610c1a612718565b60008051602061349c8339815191525460ff16610c1a57604051638dfc202b60e01b815260040160405180910390fd5b60008051602061349c8339815191525460ff1615610c1a5760405163d93c066560e01b815260040160405180910390fd5b7ff0c57e16840df040f15088dc2f81fe391c3923bec73e23a9662efc9c229c6a0054600160401b900460ff16610c1a57604051631afcd79f60e31b815260040160405180910390fd5b61221d612699565b6126f2612699565b60017f9b779b17422d0df92223018b32b4d1fa46e071723d6817e2486d003becc55f0055565b612720612699565b60008051602061349c833981519152805460ff19169055565b82805482825590600052602060002090810192821561278e579160200282015b8281111561278e57825182546001600160a01b0319166001600160a01b03909116178255602090920191600190910190612759565b5061279a9291506129a0565b5090565b604051806101a0016040528060008152602001606081526020016060815260200160006001600160a01b031681526020016000151581526020016000151581526020016000815260200161280c60405180606001604052806000815260200160008152602001600081525090565b81526020016060815260200160608152602001600015158152602001606081526020016000600381111561284257612842612b37565b905290565b8280548282559060005260206000209060020281019282156128af5760005260206000209160020282015b828111156128af57825482546001600160a01b0319166001600160a01b039091161782556001808401549083015560029283019290910190612872565b5061279a9291506129b5565b8280548282559060005260206000209081019282156129545760005260206000209182015b82811115612954578254825460ff918216151560ff19821681178555855461010090819004909316151590920261ff001990921661ffff19909116171780835583546001600160a01b036201000091829004160262010000600160b01b0319909116178255600192830192909101906128e0565b5061279a9291506129db565b82805482825590600052602060002090810192821561278e5760005260206000209182015b8281111561278e578254825591600101919060010190612985565b5b8082111561279a57600081556001016129a1565b5b8082111561279a5780546001600160a01b0319168155600060018201556002016129b6565b5b8082111561279a5780546001600160b01b03191681556001016129dc565b600060208284031215612a0c57600080fd5b5035919050565b6000815180845260005b81811015612a3957602081850181015186830182015201612a1d565b506000602082860101526020601f19601f83011685010191505092915050565b60008151808452602080850194506020840160005b83811015612a9e57815180516001600160a01b031688528301518388015260409096019590820190600101612a6e565b509495945050505050565b60008151808452602080850194506020840160005b83811015612a9e578151805115158852838101511515848901526040908101516001600160a01b03169088015260609096019590820190600101612abe565b60008151808452602080850194506020840160005b83811015612a9e5781516001600160a01b031687529582019590820190600101612b12565b634e487b7160e01b600052602160045260246000fd5b60048110612b6b57634e487b7160e01b600052602160045260246000fd5b9052565b6020815281516020820152600060208301516101e0806040850152612b98610200850183612a13565b91506040850151601f1980868503016060870152612bb68483612a13565b935060608701519150612bd460808701836001600160a01b03169052565b608087015180151560a0880152915060a087015180151560c0880152915060c087015160e087015260e08701519150610100612c26818801848051825260208082015190830152604090810151910152565b80880151925050610160818786030181880152612c438584612a59565b94506101208801519250610180828887030181890152612c638685612aa9565b95506101408901519350612c7c6101a089018515159052565b81890151935082888703016101c0890152612c978685612afd565b9550808901519350505050612cae82860182612b4d565b5090949350505050565b60006101808c8352806020840152612cd28184018d612a13565b90508281036040840152612ce6818c612a13565b6001600160a01b038b166060850152891515608085015288151560a085015260c08401889052865160e0850152602087015161010085015260408701516101208501529150612d329050565b831515610140830152612d49610160830184612b4d565b9b9a5050505050505050505050565b60008060408385031215612d6b57600080fd5b82359150602083013560048110612d8157600080fd5b809150509250929050565b634e487b7160e01b600052604160045260246000fd5b604051601f8201601f191681016001600160401b0381118282101715612dca57612dca612d8c565b604052919050565b80356001600160a01b0381168114612de957600080fd5b919050565b600082601f830112612dff57600080fd5b813560206001600160401b03821115612e1a57612e1a612d8c565b8160051b612e29828201612da2565b9283528481018201928281019087851115612e4357600080fd5b83870192505b84831015612e6957612e5a83612dd2565b82529183019190830190612e49565b979650505050505050565b600060208284031215612e8657600080fd5b81356001600160401b03811115612e9c57600080fd5b612ea884828501612dee565b949350505050565b600082601f830112612ec157600080fd5b81356001600160401b03811115612eda57612eda612d8c565b612eed601f8201601f1916602001612da2565b818152846020838601011115612f0257600080fd5b816020850160208301376000918101602001919091529392505050565b80358015158114612de957600080fd5b60008060008060008060c08789031215612f4857600080fd5b86356001600160401b0380821115612f5f57600080fd5b612f6b8a838b01612eb0565b97506020890135915080821115612f8157600080fd5b612f8d8a838b01612eb0565b9650612f9b60408a01612f1f565b9550606089013594506080890135915080821115612fb857600080fd5b612fc48a838b01612dee565b935060a0890135915080821115612fda57600080fd5b50612fe789828a01612dee565b9150509295509295509295565b6000806040838503121561300757600080fd5b50508035926020909101359150565b6000806040838503121561302957600080fd5b8235915061303960208401612dd2565b90509250929050565b60006020828403121561305457600080fd5b61305d82612dd2565b9392505050565b60208082526017908201527f50726f706f73616c20646f6573206e6f74206578697374000000000000000000604082015260600190565b634e487b7160e01b600052601160045260246000fd5b808201808211156125735761257361309b565b634e487b7160e01b600052603260045260246000fd5b818103818111156125735761257361309b565b6000600182016130ff576130ff61309b565b5060010190565b6020808252825182820181905260009190848201906040850190845b818110156131475783516001600160a01b031683529284019291840191600101613122565b50909695505050505050565b600181811c9082168061316757607f821691505b60208210810361318757634e487b7160e01b600052602260045260246000fd5b50919050565b602081016125738284612b4d565b6000826131b857634e487b7160e01b600052601260045260246000fd5b500690565b670293ab737b3331d160c51b815260006008600084546131dc81613153565b600182811680156131f4576001811461320f57613243565b60ff1984166008890152600883151584028901019450613243565b8860005260208060002060005b858110156132375781548b82018a015290840190820161321c565b50505060088389010194505b5092979650505050505050565b6020808252825482820181905260008481528281209092916040850190845b818110156131475783546001600160a01b03168352600193840193928501920161326f565b601f82111561148b576000816000526020600020601f850160051c810160208610156132bd5750805b601f850160051c820191505b81811015611fa9578281556001016132c9565b81516001600160401b038111156132f5576132f5612d8c565b613309816133038454613153565b84613294565b602080601f83116001811461333e57600084156133265750858301515b600019600386901b1c1916600185901b178555611fa9565b600085815260208120601f198616915b8281101561336d5788860151825594840194600190910190840161334e565b508582101561338b5787850151600019600388901b60f8161c191681555b5050505050600190811b01905550565b8181036133a6575050565b6133b08254613153565b6001600160401b038111156133c7576133c7612d8c565b6133d5816133038454613153565b6000601f82116001811461340957600083156133f15750848201545b600019600385901b1c1916600184901b178455611508565b600085815260209020601f19841690600086815260209020845b838110156134435782860154825560019586019590910190602001613423565b508583101561338b5793015460001960f8600387901b161c19169092555050600190811b01905550565b6040815260006134806040830185612a13565b82810360208401526134928185612a13565b9594505050505056fecd5ed15c6e187e77e9aee88184c21f4f2182ab5827cb3b7e07fbedcd63f0330048fcc37190f2613c3ad004cac1fc4ed1d270d7453ce1523fac376a70e5fb36caa2646970667358221220dbdd3d09405f50a5c409014c9d797b95bba82ba575e269f4d4119ebb775b768b64736f6c63430008180033",
  "linkReferences": {},
  "deployedLinkReferences": {}
}