{
  "_format": "hh-sol-artifact-1",
  "contractName": "Bank",
  "sourceName": "contracts/Bank.sol",
  "abi": [
    {
      "inputs": [],
      "name": "EnforcedPause",
      "type": "error"
    },
    {
      "inputs": [],
      "name": "ExpectedPause",
      "type": "error"
    },
    {
      "inputs": [],
      "name": "InvalidInitialization",
      "type": "error"
    },
    {
      "inputs": [],
      "name": "NotInitializing",
      "type": "error"
    },
    {
      "inputs": [
        {
          "internalType": "address",
          "name": "owner",
          "type": "address"
        }
      ],
      "name": "OwnableInvalidOwner",
      "type": "error"
    },
    {
      "inputs": [
        {
          "internalType": "address",
          "name": "account",
          "type": "address"
        }
      ],
      "name": "OwnableUnauthorizedAccount",
      "type": "error"
    },
    {
      "inputs": [],
      "name": "ReentrancyGuardReentrantCall",
      "type": "error"
    },
    {
      "inputs": [
        {
          "internalType": "address",
          "name": "token",
          "type": "address"
        }
      ],
      "name": "SafeERC20FailedOperation",
      "type": "error"
    },
    {
      "anonymous": false,
      "inputs": [
        {
          "indexed": true,
          "internalType": "address",
          "name": "depositor",
          "type": "address"
        },
        {
          "indexed": false,
          "internalType": "uint256",
          "name": "amount",
          "type": "uint256"
        }
      ],
      "name": "Deposited",
      "type": "event"
    },
    {
      "anonymous": false,
      "inputs": [
        {
          "indexed": true,
          "internalType": "address",
          "name": "account",
          "type": "address"
        },
        {
          "indexed": false,
          "internalType": "uint256",
          "name": "amount",
          "type": "uint256"
        }
      ],
      "name": "DividendClaimed",
      "type": "event"
    },
    {
      "anonymous": false,
      "inputs": [
        {
          "indexed": true,
          "internalType": "address",
          "name": "account",
          "type": "address"
        },
        {
          "indexed": false,
          "internalType": "uint256",
          "name": "amount",
          "type": "uint256"
        }
      ],
      "name": "DividendCredited",
      "type": "event"
    },
    {
      "anonymous": false,
      "inputs": [
        {
          "indexed": true,
          "internalType": "address",
          "name": "account",
          "type": "address"
        },
        {
          "indexed": false,
          "internalType": "uint256",
          "name": "amount",
          "type": "uint256"
        },
        {
          "indexed": true,
          "internalType": "address",
          "name": "investorAddress",
          "type": "address"
        }
      ],
      "name": "DividendDeposited",
      "type": "event"
    },
    {
      "anonymous": false,
      "inputs": [
        {
          "indexed": false,
          "internalType": "uint64",
          "name": "version",
          "type": "uint64"
        }
      ],
      "name": "Initialized",
      "type": "event"
    },
    {
      "anonymous": false,
      "inputs": [
        {
          "indexed": true,
          "internalType": "address",
          "name": "previousAddress",
          "type": "address"
        },
        {
          "indexed": true,
          "internalType": "address",
          "name": "newAddress",
          "type": "address"
        }
      ],
      "name": "InvestorAddressUpdated",
      "type": "event"
    },
    {
      "anonymous": false,
      "inputs": [
        {
          "indexed": true,
          "internalType": "address",
          "name": "previousOwner",
          "type": "address"
        },
        {
          "indexed": true,
          "internalType": "address",
          "name": "newOwner",
          "type": "address"
        }
      ],
      "name": "OwnershipTransferred",
      "type": "event"
    },
    {
      "anonymous": false,
      "inputs": [
        {
          "indexed": false,
          "internalType": "address",
          "name": "account",
          "type": "address"
        }
      ],
      "name": "Paused",
      "type": "event"
    },
    {
      "anonymous": false,
      "inputs": [
        {
          "indexed": true,
          "internalType": "address",
          "name": "depositor",
          "type": "address"
        },
        {
          "indexed": true,
          "internalType": "address",
          "name": "token",
          "type": "address"
        },
        {
          "indexed": false,
          "internalType": "uint256",
          "name": "amount",
          "type": "uint256"
        }
      ],
      "name": "TokenDeposited",
      "type": "event"
    },
    {
      "anonymous": false,
      "inputs": [
        {
          "indexed": true,
          "internalType": "address",
          "name": "account",
          "type": "address"
        },
        {
          "indexed": true,
          "internalType": "address",
          "name": "token",
          "type": "address"
        },
        {
          "indexed": false,
          "internalType": "uint256",
          "name": "amount",
          "type": "uint256"
        }
      ],
      "name": "TokenDividendClaimed",
      "type": "event"
    },
    {
      "anonymous": false,
      "inputs": [
        {
          "indexed": true,
          "internalType": "address",
          "name": "account",
          "type": "address"
        },
        {
          "indexed": true,
          "internalType": "address",
          "name": "token",
          "type": "address"
        },
        {
          "indexed": false,
          "internalType": "uint256",
          "name": "amount",
          "type": "uint256"
        }
      ],
      "name": "TokenDividendCredited",
      "type": "event"
    },
    {
      "anonymous": false,
      "inputs": [
        {
          "indexed": true,
          "internalType": "address",
          "name": "account",
          "type": "address"
        },
        {
          "indexed": true,
          "internalType": "address",
          "name": "token",
          "type": "address"
        },
        {
          "indexed": false,
          "internalType": "uint256",
          "name": "amount",
          "type": "uint256"
        },
        {
          "indexed": true,
          "internalType": "address",
          "name": "investorAddress",
          "type": "address"
        }
      ],
      "name": "TokenDividendDeposited",
      "type": "event"
    },
    {
      "anonymous": false,
      "inputs": [
        {
          "indexed": true,
          "internalType": "address",
          "name": "tokenAddress",
          "type": "address"
        }
      ],
      "name": "TokenSupportAdded",
      "type": "event"
    },
    {
      "anonymous": false,
      "inputs": [
        {
          "indexed": true,
          "internalType": "address",
          "name": "tokenAddress",
          "type": "address"
        }
      ],
      "name": "TokenSupportRemoved",
      "type": "event"
    },
    {
      "anonymous": false,
      "inputs": [
        {
          "indexed": true,
          "internalType": "address",
          "name": "sender",
          "type": "address"
        },
        {
          "indexed": true,
          "internalType": "address",
          "name": "to",
          "type": "address"
        },
        {
          "indexed": true,
          "internalType": "address",
          "name": "token",
          "type": "address"
        },
        {
          "indexed": false,
          "internalType": "uint256",
          "name": "amount",
          "type": "uint256"
        }
      ],
      "name": "TokenTransfer",
      "type": "event"
    },
    {
      "anonymous": false,
      "inputs": [
        {
          "indexed": true,
          "internalType": "address",
          "name": "sender",
          "type": "address"
        },
        {
          "indexed": true,
          "internalType": "address",
          "name": "to",
          "type": "address"
        },
        {
          "indexed": false,
          "internalType": "uint256",
          "name": "amount",
          "type": "uint256"
        }
      ],
      "name": "Transfer",
      "type": "event"
    },
    {
      "anonymous": false,
      "inputs": [
        {
          "indexed": false,
          "internalType": "address",
          "name": "account",
          "type": "address"
        }
      ],
      "name": "Unpaused",
      "type": "event"
    },
    {
      "inputs": [
        {
          "internalType": "address",
          "name": "_tokenAddress",
          "type": "address"
        }
      ],
      "name": "addTokenSupport",
      "outputs": [],
      "stateMutability": "nonpayable",
      "type": "function"
    },
    {
      "inputs": [],
      "name": "claimDividend",
      "outputs": [],
      "stateMutability": "nonpayable",
      "type": "function"
    },
    {
      "inputs": [
        {
          "internalType": "address",
          "name": "_token",
          "type": "address"
        }
      ],
      "name": "claimTokenDividend",
      "outputs": [],
      "stateMutability": "nonpayable",
      "type": "function"
    },
    {
      "inputs": [
        {
          "internalType": "uint256",
          "name": "_amount",
          "type": "uint256"
        },
        {
          "internalType": "address",
          "name": "_investorAddress",
          "type": "address"
        }
      ],
      "name": "depositDividends",
      "outputs": [],
      "stateMutability": "payable",
      "type": "function"
    },
    {
      "inputs": [
        {
          "internalType": "address",
          "name": "_token",
          "type": "address"
        },
        {
          "internalType": "uint256",
          "name": "_amount",
          "type": "uint256"
        }
      ],
      "name": "depositToken",
      "outputs": [],
      "stateMutability": "nonpayable",
      "type": "function"
    },
    {
      "inputs": [
        {
          "internalType": "address",
          "name": "_token",
          "type": "address"
        },
        {
          "internalType": "uint256",
          "name": "_amount",
          "type": "uint256"
        },
        {
          "internalType": "address",
          "name": "_investorAddress",
          "type": "address"
        }
      ],
      "name": "depositTokenDividends",
      "outputs": [],
      "stateMutability": "nonpayable",
      "type": "function"
    },
    {
      "inputs": [
        {
          "internalType": "address",
          "name": "",
          "type": "address"
        }
      ],
      "name": "dividendBalances",
      "outputs": [
        {
          "internalType": "uint256",
          "name": "",
          "type": "uint256"
        }
      ],
      "stateMutability": "view",
      "type": "function"
    },
    {
      "inputs": [
        {
          "internalType": "address",
          "name": "_token",
          "type": "address"
        },
        {
          "internalType": "address",
          "name": "_account",
          "type": "address"
        }
      ],
      "name": "getTokenDividendBalance",
      "outputs": [
        {
          "internalType": "uint256",
          "name": "",
          "type": "uint256"
        }
      ],
      "stateMutability": "view",
      "type": "function"
    },
    {
      "inputs": [],
      "name": "getUnlockedBalance",
      "outputs": [
        {
          "internalType": "uint256",
          "name": "",
          "type": "uint256"
        }
      ],
      "stateMutability": "view",
      "type": "function"
    },
    {
      "inputs": [
        {
          "internalType": "address",
          "name": "_token",
          "type": "address"
        }
      ],
      "name": "getUnlockedTokenBalance",
      "outputs": [
        {
          "internalType": "uint256",
          "name": "",
          "type": "uint256"
        }
      ],
      "stateMutability": "view",
      "type": "function"
    },
    {
      "inputs": [
        {
          "internalType": "address[]",
          "name": "_tokenAddresses",
          "type": "address[]"
        },
        {
          "internalType": "address",
          "name": "_sender",
          "type": "address"
        }
      ],
      "name": "initialize",
      "outputs": [],
      "stateMutability": "nonpayable",
      "type": "function"
    },
    {
      "inputs": [],
      "name": "investorAddress",
      "outputs": [
        {
          "internalType": "address",
          "name": "",
          "type": "address"
        }
      ],
      "stateMutability": "view",
      "type": "function"
    },
    {
      "inputs": [],
      "name": "owner",
      "outputs": [
        {
          "internalType": "address",
          "name": "",
          "type": "address"
        }
      ],
      "stateMutability": "view",
      "type": "function"
    },
    {
      "inputs": [],
      "name": "pause",
      "outputs": [],
      "stateMutability": "nonpayable",
      "type": "function"
    },
    {
      "inputs": [],
      "name": "paused",
      "outputs": [
        {
          "internalType": "bool",
          "name": "",
          "type": "bool"
        }
      ],
      "stateMutability": "view",
      "type": "function"
    },
    {
      "inputs": [
        {
          "internalType": "address",
          "name": "_tokenAddress",
          "type": "address"
        }
      ],
      "name": "removeTokenSupport",
      "outputs": [],
      "stateMutability": "nonpayable",
      "type": "function"
    },
    {
      "inputs": [],
      "name": "renounceOwnership",
      "outputs": [],
      "stateMutability": "nonpayable",
      "type": "function"
    },
    {
      "inputs": [
        {
          "internalType": "address",
          "name": "_investorAddress",
          "type": "address"
        }
      ],
      "name": "setInvestorAddress",
      "outputs": [],
      "stateMutability": "nonpayable",
      "type": "function"
    },
    {
      "inputs": [
        {
          "internalType": "address",
          "name": "",
          "type": "address"
        }
      ],
      "name": "supportedTokens",
      "outputs": [
        {
          "internalType": "bool",
          "name": "",
          "type": "bool"
        }
      ],
      "stateMutability": "view",
      "type": "function"
    },
    {
      "inputs": [
        {
          "internalType": "address",
          "name": "",
          "type": "address"
        },
        {
          "internalType": "address",
          "name": "",
          "type": "address"
        }
      ],
      "name": "tokenDividendBalances",
      "outputs": [
        {
          "internalType": "uint256",
          "name": "",
          "type": "uint256"
        }
      ],
      "stateMutability": "view",
      "type": "function"
    },
    {
      "inputs": [],
      "name": "totalDividends",
      "outputs": [
        {
          "internalType": "uint256",
          "name": "",
          "type": "uint256"
        }
      ],
      "stateMutability": "view",
      "type": "function"
    },
    {
      "inputs": [
        {
          "internalType": "address",
          "name": "",
          "type": "address"
        }
      ],
      "name": "totalTokenDividends",
      "outputs": [
        {
          "internalType": "uint256",
          "name": "",
          "type": "uint256"
        }
      ],
      "stateMutability": "view",
      "type": "function"
    },
    {
      "inputs": [
        {
          "internalType": "address",
          "name": "_to",
          "type": "address"
        },
        {
          "internalType": "uint256",
          "name": "_amount",
          "type": "uint256"
        }
      ],
      "name": "transfer",
      "outputs": [],
      "stateMutability": "nonpayable",
      "type": "function"
    },
    {
      "inputs": [
        {
          "internalType": "address",
          "name": "newOwner",
          "type": "address"
        }
      ],
      "name": "transferOwnership",
      "outputs": [],
      "stateMutability": "nonpayable",
      "type": "function"
    },
    {
      "inputs": [
        {
          "internalType": "address",
          "name": "_token",
          "type": "address"
        },
        {
          "internalType": "address",
          "name": "_to",
          "type": "address"
        },
        {
          "internalType": "uint256",
          "name": "_amount",
          "type": "uint256"
        }
      ],
      "name": "transferToken",
      "outputs": [],
      "stateMutability": "nonpayable",
      "type": "function"
    },
    {
      "inputs": [],
      "name": "unpause",
      "outputs": [],
      "stateMutability": "nonpayable",
      "type": "function"
    },
    {
      "stateMutability": "payable",
      "type": "receive"
    }
  ],
  "bytecode": "0x608060405234801561001057600080fd5b50612582806100206000396000f3fe6080604052600436106101855760003560e01c80638456cb59116100d1578063a7b831351161008a578063f0fc6bca11610064578063f0fc6bca146104ab578063f2fde38b146104c0578063f5537ede146104e0578063fd53be241461050057600080fd5b8063a7b831351461043e578063a9059cbb1461045e578063d25214a71461047e57600080fd5b80638456cb59146103935780638da5cb5b146103a8578063957c73fa146103bd578063997664d7146103f5578063a0a9a85d1461040b578063a751b34d1461042b57600080fd5b8063462d0b2e1161013e5780636c5550fc116101185780636c5550fc1461031e578063715018a61461033e578063733c237d146103535780637618b2a01461037357600080fd5b8063462d0b2e1461029d5780635c975abb146102bd57806368c4ac26146102ee57600080fd5b806312e228fd146101c6578063267b0798146102035780632ba8d93914610226578063338b5dea146102485780633f4ba83a1461026857806342602f1e1461027d57600080fd5b366101c15760405134815233907f2da466a7b24304f47e87fa2e1e5a81b9831ce54fec19055ce277ca2f39ba42c49060200160405180910390a2005b600080fd5b3480156101d257600080fd5b506000546101e6906001600160a01b031681565b6040516001600160a01b0390911681526020015b60405180910390f35b34801561020f57600080fd5b5061021861052d565b6040519081526020016101fa565b34801561023257600080fd5b506102466102413660046120af565b610555565b005b34801561025457600080fd5b506102466102633660046120d3565b610633565b34801561027457600080fd5b5061024661070b565b34801561028957600080fd5b506102466102983660046120af565b61071d565b3480156102a957600080fd5b506102466102b83660046120ff565b610823565b3480156102c957600080fd5b5060008051602061250d8339815191525460ff165b60405190151581526020016101fa565b3480156102fa57600080fd5b506102de6103093660046120af565b60016020526000908152604090205460ff1681565b34801561032a57600080fd5b50610246610339366004612185565b610a4c565b34801561034a57600080fd5b50610246610c7c565b34801561035f57600080fd5b5061024661036e3660046120af565b610c8e565b34801561037f57600080fd5b5061024661038e3660046120af565b610d74565b34801561039f57600080fd5b50610246610f4e565b3480156103b457600080fd5b506101e6610f5e565b3480156103c957600080fd5b506102186103d83660046121bc565b600360209081526000928352604080842090915290825290205481565b34801561040157600080fd5b5061021860045481565b34801561041757600080fd5b506102186104263660046120af565b610f8c565b6102466104393660046121f5565b61106b565b34801561044a57600080fd5b506102186104593660046121bc565b6111ea565b34801561046a57600080fd5b506102466104793660046120d3565b611250565b34801561048a57600080fd5b506102186104993660046120af565b60056020526000908152604090205481565b3480156104b757600080fd5b506102466113f7565b3480156104cc57600080fd5b506102466104db3660046120af565b6115c4565b3480156104ec57600080fd5b506102466104fb36600461221a565b6115ff565b34801561050c57600080fd5b5061021861051b3660046120af565b60026020526000908152604090205481565b6004546000904790811161054257600061054f565b60045461054f9082612271565b91505090565b61055d61177b565b6001600160a01b03811661058c5760405162461bcd60e51b815260040161058390612284565b60405180910390fd5b6001600160a01b03811660009081526001602052604090205460ff166105ea5760405162461bcd60e51b8152602060048201526013602482015272151bdad95b881b9bdd081cdd5c1c1bdc9d1959606a1b6044820152606401610583565b6001600160a01b038116600081815260016020526040808220805460ff19169055517f1cef54ca6e1745ad87fa3077491d9fc42257e9f1a2d7cad58a4e52bd14dfc6269190a250565b61063b6117ad565b6106436117e5565b6001600160a01b03821660009081526001602052604090205460ff1661067b5760405162461bcd60e51b8152600401610583906122bb565b6000811161069b5760405162461bcd60e51b8152600401610583906122e6565b6106b06001600160a01b038316333084611816565b6040518181526001600160a01b0383169033907ff1444b5cad7ce70cb018d1b8edc8618fe303f3c7f034d8d572a6e27facbf2bef9060200160405180910390a3610707600160008051602061252d83398151915255565b5050565b61071361177b565b61071b611897565b565b6107256117e5565b61072d610f5e565b6001600160a01b0316336001600160a01b0316148061075557506000546001600160a01b0316155b6107ad5760405162461bcd60e51b8152602060048201526024808201527f4e6f7420616c6c6f77656420746f2073657420696e766573746f7220636f6e746044820152631c9858dd60e21b6064820152608401610583565b6001600160a01b0381166107d35760405162461bcd60e51b81526004016105839061231b565b600080546001600160a01b038381166001600160a01b0319831681178455604051919092169283917f594c44c2381ada2d54a33e2bfce42a3dcd21f03b229cabaec99703d0ff1eaddc9190a35050565b7ff0c57e16840df040f15088dc2f81fe391c3923bec73e23a9662efc9c229c6a008054600160401b810460ff16159067ffffffffffffffff166000811580156108695750825b905060008267ffffffffffffffff1660011480156108865750303b155b905081158015610894575080155b156108b25760405163f92ee8a960e01b815260040160405180910390fd5b845467ffffffffffffffff1916600117855583156108dc57845460ff60401b1916600160401b1785555b6001600160a01b03861661092a5760405162461bcd60e51b815260206004820152601560248201527453656e6465722063616e6e6f74206265207a65726f60581b6044820152606401610583565b610933866118f7565b61093b611908565b610943611918565b8660005b818110156109fa5760008a8a838181106109635761096361234b565b905060200201602081019061097891906120af565b6001600160a01b03160361099e5760405162461bcd60e51b815260040161058390612284565b60018060008c8c858181106109b5576109b561234b565b90506020020160208101906109ca91906120af565b6001600160a01b031681526020810191909152604001600020805460ff1916911515919091179055600101610947565b50508315610a4257845460ff60401b19168555604051600181527fc7f505b2f371ae2175ee4913f4499e1f2633a7b5936321eed1cdaeb6115181d29060200160405180910390a15b5050505050505050565b610a5461177b565b610a5c6117e5565b610a646117ad565b6001600160a01b03831660009081526001602052604090205460ff16610a9c5760405162461bcd60e51b8152600401610583906122bb565b60008211610abc5760405162461bcd60e51b8152600401610583906122e6565b6001600160a01b038116610b0d5760405162461bcd60e51b8152602060048201526018602482015277125b9d995cdd1bdc881859191c995cdcc81a5b9d985b1a5960421b6044820152606401610583565b6040516370a0823160e01b81523060048201526000906001600160a01b038516906370a0823190602401602060405180830381865afa158015610b54573d6000803e3d6000fd5b505050506040513d601f19601f82011682018060405250810190610b789190612361565b6001600160a01b038516600090815260056020526040902054909150610b9e8183612271565b841115610bfc5760405162461bcd60e51b815260206004820152602660248201527f496e73756666696369656e7420746f6b656e2062616c616e636520696e207468604482015265652062616e6b60d01b6064820152608401610583565b610c07858585611928565b826001600160a01b0316856001600160a01b0316336001600160a01b03167f751b73b4356b22d7d65d06bb464c57db9c0ba719493a2d29fa7a6c03d3c84e8b87604051610c5691815260200190565b60405180910390a45050610c77600160008051602061252d83398151915255565b505050565b610c8461177b565b61071b6000611bfa565b610c9661177b565b6001600160a01b038116610cbc5760405162461bcd60e51b815260040161058390612284565b6001600160a01b03811660009081526001602052604090205460ff1615610d255760405162461bcd60e51b815260206004820152601760248201527f546f6b656e20616c726561647920737570706f727465640000000000000000006044820152606401610583565b6001600160a01b0381166000818152600160208190526040808320805460ff1916909217909155517f8f50fda9bf5d3b403c53b7e91646abd507f8cebf2577655d55d7de3926168b179190a250565b610d7c6117e5565b610d846117ad565b6001600160a01b03811660009081526001602052604090205460ff16610dbc5760405162461bcd60e51b8152600401610583906122bb565b6001600160a01b038116600090815260036020908152604080832033845290915290205480610e225760405162461bcd60e51b81526020600482015260126024820152714e6f7468696e6720746f2072656c6561736560701b6044820152606401610583565b6001600160a01b038216600090815260056020526040902054811115610e995760405162461bcd60e51b815260206004820152602660248201527f496e76617269616e743a20746f74616c546f6b656e4469766964656e647320746044820152656f6f206c6f7760d01b6064820152608401610583565b6001600160a01b03821660008181526003602090815260408083203384528252808320839055928252600590529081208054839290610ed9908490612271565b90915550610ef390506001600160a01b0383163383611c6b565b6040518181526001600160a01b0383169033907f7bc90c27554b44b5b0c1bb6f04b62167fb68cd8d3881ac71f169166a22f074c99060200160405180910390a350610f4b600160008051602061252d83398151915255565b50565b610f5661177b565b61071b611c9c565b7f9016d09d72d40fdae2fd8ceac6b6234c7706214fd39c1cd1e609a0528c199300546001600160a01b031690565b6001600160a01b03811660009081526001602052604081205460ff16610fc45760405162461bcd60e51b8152600401610583906122bb565b6040516370a0823160e01b81523060048201526000906001600160a01b038416906370a0823190602401602060405180830381865afa15801561100b573d6000803e3d6000fd5b505050506040513d601f19601f8201168201806040525081019061102f9190612361565b6001600160a01b038416600090815260056020526040902054909150808211611059576000611063565b6110638183612271565b949350505050565b61107361177b565b61107b6117e5565b6110836117ad565b8161108c61052d565b8111156110db5760405162461bcd60e51b815260206004820152601d60248201527f496e73756666696369656e7420756e6c6f636b65642062616c616e63650000006044820152606401610583565b6004546110e89047612271565b8311156111375760405162461bcd60e51b815260206004820181905260248201527f496e73756666696369656e742062616c616e636520696e207468652062616e6b6044820152606401610583565b6001600160a01b0382166111885760405162461bcd60e51b8152602060048201526018602482015277125b9d995cdd1bdc881859191c995cdcc81a5b9d985b1a5960421b6044820152606401610583565b6111928383611ce5565b6040518381526001600160a01b0383169033907fec43fb3ac504b634bce8f35df8e538d4e361f1d77ed74679f8c8fb33679ec4c99060200160405180910390a350610707600160008051602061252d83398151915255565b6001600160a01b03821660009081526001602052604081205460ff166112225760405162461bcd60e51b8152600401610583906122bb565b506001600160a01b038083166000908152600360209081526040808320938516835292905220545b92915050565b61125861177b565b6112606117ad565b6112686117e5565b8061127161052d565b8111156112c05760405162461bcd60e51b815260206004820152601d60248201527f496e73756666696369656e7420756e6c6f636b65642062616c616e63650000006044820152606401610583565b6001600160a01b0383166112e65760405162461bcd60e51b81526004016105839061231b565b600082116113065760405162461bcd60e51b8152600401610583906122e6565b6000836001600160a01b03168360405160006040518083038185875af1925050503d8060008114611353576040519150601f19603f3d011682016040523d82523d6000602084013e611358565b606091505b505090508061139e5760405162461bcd60e51b81526020600482015260126024820152712330b4b632b2103a37903a3930b739b332b960711b6044820152606401610583565b6040518381526001600160a01b0385169033907fddf252ad1be2c89b69c2b068fc378daa952ba7f163c4a11628f55a4df523b3ef9060200160405180910390a35050610707600160008051602061252d83398151915255565b6113ff6117e5565b6114076117ad565b33600090815260026020526040902054806114595760405162461bcd60e51b81526020600482015260126024820152714e6f7468696e6720746f2072656c6561736560701b6044820152606401610583565b8060045410156114b55760405162461bcd60e51b815260206004820152602160248201527f496e76617269616e743a20746f74616c4469766964656e647320746f6f206c6f6044820152607760f81b6064820152608401610583565b336000908152600260205260408120819055600480548392906114d9908490612271565b9091555050604051600090339083908381818185875af1925050503d8060008114611520576040519150601f19603f3d011682016040523d82523d6000602084013e611525565b606091505b50509050806115765760405162461bcd60e51b815260206004820152601760248201527f4661696c656420746f2073656e64206469766964656e640000000000000000006044820152606401610583565b60405182815233907f5efa67896a23b651b741b525caacba039c00ca7853be3de8eb1f4269e8669c569060200160405180910390a2505061071b600160008051602061252d83398151915255565b6115cc61177b565b6001600160a01b0381166115f657604051631e4fbdf760e01b815260006004820152602401610583565b610f4b81611bfa565b61160761177b565b61160f6117ad565b6116176117e5565b6001600160a01b03831660009081526001602052604090205460ff1661164f5760405162461bcd60e51b8152600401610583906122bb565b6001600160a01b0382166116755760405162461bcd60e51b81526004016105839061231b565b600081116116955760405162461bcd60e51b8152600401610583906122e6565b61169e83610f8c565b8111156116f95760405162461bcd60e51b815260206004820152602360248201527f496e73756666696369656e7420756e6c6f636b656420746f6b656e2062616c616044820152626e636560e81b6064820152608401610583565b61170d6001600160a01b0384168383611c6b565b826001600160a01b0316826001600160a01b0316336001600160a01b03167fae33cb06d7303f889d953bb09540983050163c1c4c98b330db432a911cfb63fd8460405161175c91815260200190565b60405180910390a4610c77600160008051602061252d83398151915255565b33611784610f5e565b6001600160a01b03161461071b5760405163118cdaa760e01b8152336004820152602401610583565b60008051602061252d8339815191528054600119016117df57604051633ee5aeb560e01b815260040160405180910390fd5b60029055565b60008051602061250d8339815191525460ff161561071b5760405163d93c066560e01b815260040160405180910390fd5b6040516001600160a01b03848116602483015283811660448301526064820183905261187d9186918216906323b872dd906084015b604051602081830303815290604052915060e01b6020820180516001600160e01b038381831617835250505050611f7f565b50505050565b600160008051602061252d83398151915255565b61189f611ff0565b60008051602061250d833981519152805460ff191681557f5db9ee0a495bf2e6ff9c91a7834c1ba4fdd244a5e8aa4e537bd38aeae4b073aa335b6040516001600160a01b03909116815260200160405180910390a150565b6118ff612020565b610f4b81612069565b611910612020565b61071b612071565b611920612020565b61071b612079565b6119306117e5565b60008190506000816001600160a01b03166341ca641e6040518163ffffffff1660e01b8152600401600060405180830381865afa158015611975573d6000803e3d6000fd5b505050506040513d6000823e601f3d908101601f1916820160405261199d91908101906123ea565b90506000826001600160a01b03166318160ddd6040518163ffffffff1660e01b8152600401602060405180830381865afa1580156119df573d6000803e3d6000fd5b505050506040513d601f19601f82011682018060405250810190611a039190612361565b905060008111611a435760405162461bcd60e51b815260206004820152600b60248201526a5a65726f20737570706c7960a81b6044820152606401610583565b6000825111611a865760405162461bcd60e51b815260206004820152600f60248201526e4e6f207368617265686f6c6465727360881b6044820152606401610583565b8151859060005b81811015611bef576000858281518110611aa957611aa961234b565b60200260200101516000015190506000868381518110611acb57611acb61234b565b6020026020010151602001519050600086828c611ae891906124c0565b611af291906124d7565b9050611aff600186612271565b8403611b0c575084611b17565b85811115611b175750845b8015611be1576001600160a01b03808d16600090815260036020908152604080832093871683529290529081208054839290611b549084906124f9565b90915550506001600160a01b038c1660009081526005602052604081208054839290611b819084906124f9565b90915550611b9190508187612271565b95508b6001600160a01b0316836001600160a01b03167f97fc9e579dcadede95a5f11e2c67965fa4a73964541104fed38e195195346c1c83604051611bd891815260200190565b60405180910390a35b505050806001019050611a8d565b505050505050505050565b7f9016d09d72d40fdae2fd8ceac6b6234c7706214fd39c1cd1e609a0528c19930080546001600160a01b031981166001600160a01b03848116918217845560405192169182907f8be0079c531659141344cd1fd0a4f28419497f9722a3daafe3b4186f6b6457e090600090a3505050565b6040516001600160a01b03838116602483015260448201839052610c7791859182169063a9059cbb9060640161184b565b611ca46117e5565b60008051602061250d833981519152805460ff191660011781557f62e78cea01bee320cd4e420270b5ea74000d11b0c9f74754ebdbfc544b05a258336118d9565b611ced6117e5565b60008190506000816001600160a01b03166341ca641e6040518163ffffffff1660e01b8152600401600060405180830381865afa158015611d32573d6000803e3d6000fd5b505050506040513d6000823e601f3d908101601f19168201604052611d5a91908101906123ea565b90506000826001600160a01b03166318160ddd6040518163ffffffff1660e01b8152600401602060405180830381865afa158015611d9c573d6000803e3d6000fd5b505050506040513d601f19601f82011682018060405250810190611dc09190612361565b905060008111611e005760405162461bcd60e51b815260206004820152600b60248201526a5a65726f20737570706c7960a81b6044820152606401610583565b6000825111611e435760405162461bcd60e51b815260206004820152600f60248201526e4e6f207368617265686f6c6465727360881b6044820152606401610583565b8151859060005b81811015610a42576000858281518110611e6657611e6661234b565b60200260200101516000015190506000868381518110611e8857611e8861234b565b6020026020010151602001519050600086828c611ea591906124c0565b611eaf91906124d7565b9050611ebc600186612271565b8403611ec9575084611ed4565b85811115611ed45750845b8015611f71576001600160a01b03831660009081526002602052604081208054839290611f029084906124f9565b925050819055508060046000828254611f1b91906124f9565b90915550611f2b90508187612271565b9550826001600160a01b03167f2f8220dd0ef71015eead8714f39577d85bc8ae4df6ce7ab6885317504f707b7b82604051611f6891815260200190565b60405180910390a25b505050806001019050611e4a565b600080602060008451602086016000885af180611fa2576040513d6000823e3d81fd5b50506000513d91508115611fba578060011415611fc7565b6001600160a01b0384163b155b1561187d57604051635274afe760e01b81526001600160a01b0385166004820152602401610583565b60008051602061250d8339815191525460ff1661071b57604051638dfc202b60e01b815260040160405180910390fd5b7ff0c57e16840df040f15088dc2f81fe391c3923bec73e23a9662efc9c229c6a0054600160401b900460ff1661071b57604051631afcd79f60e31b815260040160405180910390fd5b6115cc612020565b611883612020565b612081612020565b60008051602061250d833981519152805460ff19169055565b6001600160a01b0381168114610f4b57600080fd5b6000602082840312156120c157600080fd5b81356120cc8161209a565b9392505050565b600080604083850312156120e657600080fd5b82356120f18161209a565b946020939093013593505050565b60008060006040848603121561211457600080fd5b833567ffffffffffffffff8082111561212c57600080fd5b818601915086601f83011261214057600080fd5b81358181111561214f57600080fd5b8760208260051b850101111561216457600080fd5b6020928301955093505084013561217a8161209a565b809150509250925092565b60008060006060848603121561219a57600080fd5b83356121a58161209a565b925060208401359150604084013561217a8161209a565b600080604083850312156121cf57600080fd5b82356121da8161209a565b915060208301356121ea8161209a565b809150509250929050565b6000806040838503121561220857600080fd5b8235915060208301356121ea8161209a565b60008060006060848603121561222f57600080fd5b833561223a8161209a565b9250602084013561224a8161209a565b929592945050506040919091013590565b634e487b7160e01b600052601160045260246000fd5b8181038181111561124a5761124a61225b565b6020808252601c908201527f546f6b656e20616464726573732063616e6e6f74206265207a65726f00000000604082015260600190565b6020808252601190820152702ab739bab83837b93a32b2103a37b5b2b760791b604082015260600190565b6020808252818101527f416d6f756e74206d7573742062652067726561746572207468616e207a65726f604082015260600190565b602080825260169082015275416464726573732063616e6e6f74206265207a65726f60501b604082015260600190565b634e487b7160e01b600052603260045260246000fd5b60006020828403121561237357600080fd5b5051919050565b634e487b7160e01b600052604160045260246000fd5b6040805190810167ffffffffffffffff811182821017156123b3576123b361237a565b60405290565b604051601f8201601f1916810167ffffffffffffffff811182821017156123e2576123e261237a565b604052919050565b600060208083850312156123fd57600080fd5b825167ffffffffffffffff8082111561241557600080fd5b818501915085601f83011261242957600080fd5b81518181111561243b5761243b61237a565b612449848260051b016123b9565b818152848101925060069190911b83018401908782111561246957600080fd5b928401925b818410156124b557604084890312156124875760008081fd5b61248f612390565b845161249a8161209a565b8152848601518682015283526040909301929184019161246e565b979650505050505050565b808202811582820484141761124a5761124a61225b565b6000826124f457634e487b7160e01b600052601260045260246000fd5b500490565b8082018082111561124a5761124a61225b56fecd5ed15c6e187e77e9aee88184c21f4f2182ab5827cb3b7e07fbedcd63f033009b779b17422d0df92223018b32b4d1fa46e071723d6817e2486d003becc55f00a2646970667358221220d62ab757725409726a6f2f1fbef8ce343dc1433b6e9a853d47e4c7612c0d903564736f6c63430008180033",
  "linkReferences": {},
  "deployedLinkReferences": {}
}