{
  "_format": "hh-sol-artifact-1",
  "contractName": "Bank",
  "sourceName": "contracts/Bank.sol",
  "abi": [
    {
      "inputs": [],
      "name": "EnforcedPause",
      "type": "error"
    },
    {
      "inputs": [],
      "name": "ExpectedPause",
      "type": "error"
    },
    {
      "inputs": [],
      "name": "InvalidInitialization",
      "type": "error"
    },
    {
      "inputs": [],
      "name": "NotInitializing",
      "type": "error"
    },
    {
      "inputs": [
        {
          "internalType": "address",
          "name": "owner",
          "type": "address"
        }
      ],
      "name": "OwnableInvalidOwner",
      "type": "error"
    },
    {
      "inputs": [
        {
          "internalType": "address",
          "name": "account",
          "type": "address"
        }
      ],
      "name": "OwnableUnauthorizedAccount",
      "type": "error"
    },
    {
      "inputs": [],
      "name": "ReentrancyGuardReentrantCall",
      "type": "error"
    },
    {
      "inputs": [
        {
          "internalType": "address",
          "name": "token",
          "type": "address"
        }
      ],
      "name": "SafeERC20FailedOperation",
      "type": "error"
    },
    {
      "anonymous": false,
      "inputs": [
        {
          "indexed": true,
          "internalType": "address",
          "name": "depositor",
          "type": "address"
        },
        {
          "indexed": false,
          "internalType": "uint256",
          "name": "amount",
          "type": "uint256"
        }
      ],
      "name": "Deposited",
      "type": "event"
    },
    {
      "anonymous": false,
      "inputs": [
        {
          "indexed": true,
          "internalType": "address",
          "name": "investor",
          "type": "address"
        },
        {
          "indexed": true,
          "internalType": "address",
          "name": "token",
          "type": "address"
        },
        {
          "indexed": false,
          "internalType": "uint256",
          "name": "totalAmount",
          "type": "uint256"
        }
      ],
      "name": "DividendDistributionTriggered",
      "type": "event"
    },
    {
      "anonymous": false,
      "inputs": [
        {
          "indexed": true,
          "internalType": "address",
          "name": "feeCollector",
          "type": "address"
        },
        {
          "indexed": false,
          "internalType": "uint256",
          "name": "amount",
          "type": "uint256"
        }
      ],
      "name": "FeePaid",
      "type": "event"
    },
    {
      "anonymous": false,
      "inputs": [
        {
          "indexed": false,
          "internalType": "uint64",
          "name": "version",
          "type": "uint64"
        }
      ],
      "name": "Initialized",
      "type": "event"
    },
    {
      "anonymous": false,
      "inputs": [
        {
          "indexed": true,
          "internalType": "address",
          "name": "previousOwner",
          "type": "address"
        },
        {
          "indexed": true,
          "internalType": "address",
          "name": "newOwner",
          "type": "address"
        }
      ],
      "name": "OwnershipTransferred",
      "type": "event"
    },
    {
      "anonymous": false,
      "inputs": [
        {
          "indexed": false,
          "internalType": "address",
          "name": "account",
          "type": "address"
        }
      ],
      "name": "Paused",
      "type": "event"
    },
    {
      "anonymous": false,
      "inputs": [
        {
          "indexed": true,
          "internalType": "address",
          "name": "depositor",
          "type": "address"
        },
        {
          "indexed": true,
          "internalType": "address",
          "name": "token",
          "type": "address"
        },
        {
          "indexed": false,
          "internalType": "uint256",
          "name": "amount",
          "type": "uint256"
        }
      ],
      "name": "TokenDeposited",
      "type": "event"
    },
    {
      "anonymous": false,
      "inputs": [
        {
          "indexed": true,
          "internalType": "address",
          "name": "tokenAddress",
          "type": "address"
        }
      ],
      "name": "TokenSupportAdded",
      "type": "event"
    },
    {
      "anonymous": false,
      "inputs": [
        {
          "indexed": true,
          "internalType": "address",
          "name": "tokenAddress",
          "type": "address"
        }
      ],
      "name": "TokenSupportRemoved",
      "type": "event"
    },
    {
      "anonymous": false,
      "inputs": [
        {
          "indexed": true,
          "internalType": "address",
          "name": "sender",
          "type": "address"
        },
        {
          "indexed": true,
          "internalType": "address",
          "name": "to",
          "type": "address"
        },
        {
          "indexed": true,
          "internalType": "address",
          "name": "token",
          "type": "address"
        },
        {
          "indexed": false,
          "internalType": "uint256",
          "name": "amount",
          "type": "uint256"
        }
      ],
      "name": "TokenTransfer",
      "type": "event"
    },
    {
      "anonymous": false,
      "inputs": [
        {
          "indexed": true,
          "internalType": "address",
          "name": "sender",
          "type": "address"
        },
        {
          "indexed": true,
          "internalType": "address",
          "name": "to",
          "type": "address"
        },
        {
          "indexed": false,
          "internalType": "uint256",
          "name": "amount",
          "type": "uint256"
        }
      ],
      "name": "Transfer",
      "type": "event"
    },
    {
      "anonymous": false,
      "inputs": [
        {
          "indexed": false,
          "internalType": "address",
          "name": "account",
          "type": "address"
        }
      ],
      "name": "Unpaused",
      "type": "event"
    },
    {
      "inputs": [
        {
          "internalType": "address",
          "name": "_tokenAddress",
          "type": "address"
        }
      ],
      "name": "addTokenSupport",
      "outputs": [],
      "stateMutability": "nonpayable",
      "type": "function"
    },
    {
      "inputs": [
        {
          "internalType": "address",
          "name": "_token",
          "type": "address"
        },
        {
          "internalType": "uint256",
          "name": "_amount",
          "type": "uint256"
        }
      ],
      "name": "depositToken",
      "outputs": [],
      "stateMutability": "nonpayable",
      "type": "function"
    },
    {
      "inputs": [
        {
          "internalType": "uint256",
          "name": "_amount",
          "type": "uint256"
        }
      ],
      "name": "distributeNativeDividends",
      "outputs": [],
      "stateMutability": "nonpayable",
      "type": "function"
    },
    {
      "inputs": [
        {
          "internalType": "address",
          "name": "_token",
          "type": "address"
        },
        {
          "internalType": "uint256",
          "name": "_amount",
          "type": "uint256"
        }
      ],
      "name": "distributeTokenDividends",
      "outputs": [],
      "stateMutability": "nonpayable",
      "type": "function"
    },
    {
      "inputs": [],
      "name": "getBalance",
      "outputs": [
        {
          "internalType": "uint256",
          "name": "",
          "type": "uint256"
        }
      ],
      "stateMutability": "view",
      "type": "function"
    },
    {
      "inputs": [],
      "name": "getSupportedTokenCount",
      "outputs": [
        {
          "internalType": "uint256",
          "name": "",
          "type": "uint256"
        }
      ],
      "stateMutability": "view",
      "type": "function"
    },
    {
      "inputs": [],
      "name": "getSupportedTokens",
      "outputs": [
        {
          "internalType": "address[]",
          "name": "",
          "type": "address[]"
        }
      ],
      "stateMutability": "view",
      "type": "function"
    },
    {
      "inputs": [
        {
          "internalType": "address",
          "name": "_token",
          "type": "address"
        }
      ],
      "name": "getTokenBalance",
      "outputs": [
        {
          "internalType": "uint256",
          "name": "",
          "type": "uint256"
        }
      ],
      "stateMutability": "view",
      "type": "function"
    },
    {
      "inputs": [
        {
          "internalType": "address[]",
          "name": "_tokenAddresses",
          "type": "address[]"
        },
        {
          "internalType": "address",
          "name": "_sender",
          "type": "address"
        }
      ],
      "name": "initialize",
      "outputs": [],
      "stateMutability": "nonpayable",
      "type": "function"
    },
    {
      "inputs": [
        {
          "internalType": "address",
          "name": "_token",
          "type": "address"
        }
      ],
      "name": "isTokenSupported",
      "outputs": [
        {
          "internalType": "bool",
          "name": "",
          "type": "bool"
        }
      ],
      "stateMutability": "view",
      "type": "function"
    },
    {
      "inputs": [],
      "name": "officerAddress",
      "outputs": [
        {
          "internalType": "address",
          "name": "",
          "type": "address"
        }
      ],
      "stateMutability": "view",
      "type": "function"
    },
    {
      "inputs": [],
      "name": "owner",
      "outputs": [
        {
          "internalType": "address",
          "name": "",
          "type": "address"
        }
      ],
      "stateMutability": "view",
      "type": "function"
    },
    {
      "inputs": [],
      "name": "pause",
      "outputs": [],
      "stateMutability": "nonpayable",
      "type": "function"
    },
    {
      "inputs": [],
      "name": "paused",
      "outputs": [
        {
          "internalType": "bool",
          "name": "",
          "type": "bool"
        }
      ],
      "stateMutability": "view",
      "type": "function"
    },
    {
      "inputs": [
        {
          "internalType": "address",
          "name": "_tokenAddress",
          "type": "address"
        }
      ],
      "name": "removeTokenSupport",
      "outputs": [],
      "stateMutability": "nonpayable",
      "type": "function"
    },
    {
      "inputs": [],
      "name": "renounceOwnership",
      "outputs": [],
      "stateMutability": "nonpayable",
      "type": "function"
    },
    {
      "inputs": [
        {
          "internalType": "address",
          "name": "_to",
          "type": "address"
        },
        {
          "internalType": "uint256",
          "name": "_amount",
          "type": "uint256"
        }
      ],
      "name": "transfer",
      "outputs": [],
      "stateMutability": "nonpayable",
      "type": "function"
    },
    {
      "inputs": [
        {
          "internalType": "address",
          "name": "newOwner",
          "type": "address"
        }
      ],
      "name": "transferOwnership",
      "outputs": [],
      "stateMutability": "nonpayable",
      "type": "function"
    },
    {
      "inputs": [
        {
          "internalType": "address",
          "name": "_token",
          "type": "address"
        },
        {
          "internalType": "address",
          "name": "_to",
          "type": "address"
        },
        {
          "internalType": "uint256",
          "name": "_amount",
          "type": "uint256"
        }
      ],
      "name": "transferToken",
      "outputs": [],
      "stateMutability": "nonpayable",
      "type": "function"
    },
    {
      "inputs": [],
      "name": "unpause",
      "outputs": [],
      "stateMutability": "nonpayable",
      "type": "function"
    },
    {
      "stateMutability": "payable",
      "type": "receive"
    }
  ],
  "bytecode": "0x608060405234801561001057600080fd5b506120df806100206000396000f3fe6080604052600436106101235760003560e01c8063715018a6116100a0578063a9059cbb11610064578063a9059cbb1461036d578063ce67be261461038d578063d3c7c2c7146103a2578063f2fde38b146103c4578063f5537ede146103e457600080fd5b8063715018a6146102c6578063733c237d146102db57806375151b63146102fb5780638456cb591461031b5780638da5cb5b1461033057600080fd5b80633aecd0e3116100e75780633aecd0e3146102205780633f4ba83a14610240578063462d0b2e146102555780635c975abb146102755780635f8eea0a146102a657600080fd5b806312065fe0146101645780632ba8d939146101865780632f05793b146101a8578063315f77ef146101c8578063338b5dea1461020057600080fd5b3661015f5760405134815233907f2da466a7b24304f47e87fa2e1e5a81b9831ce54fec19055ce277ca2f39ba42c49060200160405180910390a2005b600080fd5b34801561017057600080fd5b50475b6040519081526020015b60405180910390f35b34801561019257600080fd5b506101a66101a1366004611d52565b610404565b005b3480156101b457600080fd5b506101a66101c3366004611d6f565b610418565b3480156101d457600080fd5b506002546101e8906001600160a01b031681565b6040516001600160a01b03909116815260200161017d565b34801561020c57600080fd5b506101a661021b366004611d88565b610562565b34801561022c57600080fd5b5061017361023b366004611d52565b610627565b34801561024c57600080fd5b506101a66106bc565b34801561026157600080fd5b506101a6610270366004611db4565b6106ce565b34801561028157600080fd5b5060008051602061206a8339815191525460ff165b604051901515815260200161017d565b3480156102b257600080fd5b506101a66102c1366004611d88565b6109a1565b3480156102d257600080fd5b506101a6610b3d565b3480156102e757600080fd5b506101a66102f6366004611d52565b610b4f565b34801561030757600080fd5b50610296610316366004611d52565b610b60565b34801561032757600080fd5b506101a6610b6c565b34801561033c57600080fd5b507f9016d09d72d40fdae2fd8ceac6b6234c7706214fd39c1cd1e609a0528c199300546001600160a01b03166101e8565b34801561037957600080fd5b506101a6610388366004611d88565b610b7c565b34801561039957600080fd5b50610173610f7b565b3480156103ae57600080fd5b506103b7610f8c565b60405161017d9190611e3a565b3480156103d057600080fd5b506101a66103df366004611d52565b610f98565b3480156103f057600080fd5b506101a66103ff366004611e87565b610fd3565b61040c611331565b6104158161138c565b50565b610420611331565b610428611436565b61043061146e565b600081116104595760405162461bcd60e51b815260040161045090611ec8565b60405180910390fd5b478111156104a05760405162461bcd60e51b8152602060048201526014602482015273496e73756666696369656e742062616c616e636560601b6044820152606401610450565b60006104aa61149f565b604051632f05793b60e01b8152600481018490529091506001600160a01b03821690632f05793b9084906024016000604051808303818588803b1580156104f057600080fd5b505af1158015610504573d6000803e3d6000fd5b5050604051858152600093506001600160a01b03851692507fb8af79d8f1a5208e210ca47bc85b845dc0a16e5bac30cf4922bdcde3b12e4b44915060200160405180910390a350610415600160008051602061208a83398151915255565b61056a611436565b61057261146e565b61057b82610b60565b6105975760405162461bcd60e51b815260040161045090611efd565b600081116105b75760405162461bcd60e51b815260040161045090611ec8565b6105cc6001600160a01b038316333084611689565b6040518181526001600160a01b0383169033907ff1444b5cad7ce70cb018d1b8edc8618fe303f3c7f034d8d572a6e27facbf2bef9060200160405180910390a3610623600160008051602061208a83398151915255565b5050565b600061063282610b60565b61064e5760405162461bcd60e51b815260040161045090611efd565b6040516370a0823160e01b81523060048201526001600160a01b038316906370a0823190602401602060405180830381865afa158015610692573d6000803e3d6000fd5b505050506040513d601f19601f820116820180604052508101906106b69190611f28565b92915050565b6106c4611331565b6106cc6116f6565b565b7ff0c57e16840df040f15088dc2f81fe391c3923bec73e23a9662efc9c229c6a008054600160401b810460ff16159067ffffffffffffffff166000811580156107145750825b905060008267ffffffffffffffff1660011480156107315750303b155b90508115801561073f575080155b1561075d5760405163f92ee8a960e01b815260040160405180910390fd5b845467ffffffffffffffff19166001178555831561078757845460ff60401b1916600160401b1785555b6001600160a01b0386166107d55760405162461bcd60e51b815260206004820152601560248201527453656e6465722063616e6e6f74206265207a65726f60581b6044820152606401610450565b6107de86611756565b6107e6611767565b6107ee611777565b8660005b818110156108805760008a8a8381811061080e5761080e611f41565b90506020020160208101906108239190611d52565b6001600160a01b0316036108495760405162461bcd60e51b815260040161045090611f57565b6108788a8a8381811061085e5761085e611f41565b90506020020160208101906108739190611d52565b611787565b6001016107f2565b5060005b818110156108f05789898281811061089e5761089e611f41565b90506020020160208101906108b39190611d52565b6001600160a01b03167f8f50fda9bf5d3b403c53b7e91646abd507f8cebf2577655d55d7de3926168b1760405160405180910390a2600101610884565b503361093e5760405162461bcd60e51b815260206004820152601760248201527f6d73672073656e642063616e6e6f74206265207a65726f0000000000000000006044820152606401610450565b50600280546001600160a01b03191633179055831561099757845460ff60401b19168555604051600181527fc7f505b2f371ae2175ee4913f4499e1f2633a7b5936321eed1cdaeb6115181d29060200160405180910390a15b5050505050505050565b6109a9611331565b6109b1611436565b6109b961146e565b6109c282610b60565b6109de5760405162461bcd60e51b815260040161045090611efd565b600081116109fe5760405162461bcd60e51b815260040161045090611ec8565b610a0782610627565b811115610a565760405162461bcd60e51b815260206004820152601a60248201527f496e73756666696369656e7420746f6b656e2062616c616e63650000000000006044820152606401610450565b6000610a6061149f565b9050610a766001600160a01b038416828461183b565b604051632fc7750560e11b81526001600160a01b03848116600483015260248201849052821690635f8eea0a90604401600060405180830381600087803b158015610ac057600080fd5b505af1158015610ad4573d6000803e3d6000fd5b50505050826001600160a01b0316816001600160a01b03167fb8af79d8f1a5208e210ca47bc85b845dc0a16e5bac30cf4922bdcde3b12e4b4484604051610b1d91815260200190565b60405180910390a350610623600160008051602061208a83398151915255565b610b45611331565b6106cc600061186c565b610b57611331565b61041581611787565b60006106b681836118dd565b610b74611331565b6106cc611902565b610b84611331565b610b8c611436565b610b9461146e565b6001600160a01b038216610be35760405162461bcd60e51b8152602060048201526016602482015275416464726573732063616e6e6f74206265207a65726f60501b6044820152606401610450565b60008111610c035760405162461bcd60e51b815260040161045090611ec8565b47811115610c4a5760405162461bcd60e51b8152602060048201526014602482015273496e73756666696369656e742062616c616e636560601b6044820152606401610450565b6000610c5461194b565b90506127108161ffff161115610ca55760405162461bcd60e51b81526020600482015260166024820152754665652063616e6e6f7420657863656564203130302560501b6044820152606401610450565b60008261ffff831615610e8b57612710610cc361ffff851686611fa4565b610ccd9190611fbb565b9150610cd98285611fdd565b90506000600260009054906101000a90046001600160a01b03166001600160a01b03166312fde4b76040518163ffffffff1660e01b8152600401602060405180830381865afa158015610d30573d6000803e3d6000fd5b505050506040513d601f19601f82011682018060405250810190610d549190611ff0565b90506001600160a01b038116610dac5760405162461bcd60e51b815260206004820152601c60248201527f46656520636f6c6c6563746f72206e6f7420636f6e66696775726564000000006044820152606401610450565b6000816001600160a01b03168460405160006040518083038185875af1925050503d8060008114610df9576040519150601f19603f3d011682016040523d82523d6000602084013e610dfe565b606091505b5050905080610e455760405162461bcd60e51b8152602060048201526013602482015272119959481d1c985b9cd9995c8819985a5b1959606a1b6044820152606401610450565b816001600160a01b03167f075a2720282fdf622141dae0b048ef90a21a7e57c134c76912d19d006b3b3f6f85604051610e8091815260200190565b60405180910390a250505b6000856001600160a01b03168260405160006040518083038185875af1925050503d8060008114610ed8576040519150601f19603f3d011682016040523d82523d6000602084013e610edd565b606091505b5050905080610f205760405162461bcd60e51b815260206004820152600f60248201526e151c985b9cd9995c8819985a5b1959608a1b6044820152606401610450565b6040518281526001600160a01b0387169033907fddf252ad1be2c89b69c2b068fc378daa952ba7f163c4a11628f55a4df523b3ef9060200160405180910390a350505050610623600160008051602061208a83398151915255565b6000610f8760006119d4565b905090565b6060610f8760006119de565b610fa0611331565b6001600160a01b038116610fca57604051631e4fbdf760e01b815260006004820152602401610450565b6104158161186c565b610fdb611331565b610fe3611436565b610feb61146e565b610ff483610b60565b6110105760405162461bcd60e51b815260040161045090611efd565b6001600160a01b03821661105f5760405162461bcd60e51b8152602060048201526016602482015275416464726573732063616e6e6f74206265207a65726f60501b6044820152606401610450565b6000811161107f5760405162461bcd60e51b815260040161045090611ec8565b61108883610627565b8111156110d75760405162461bcd60e51b815260206004820152601a60248201527f496e73756666696369656e7420746f6b656e2062616c616e63650000000000006044820152606401610450565b60006110e2846119eb565b905060008282156112a75760006110f761194b565b90506127108161ffff1611156111485760405162461bcd60e51b81526020600482015260166024820152754665652063616e6e6f7420657863656564203130302560501b6044820152606401610450565b61ffff8116156112a55761271061116361ffff831687611fa4565b61116d9190611fbb565b92506111798386611fdd565b91506000600260009054906101000a90046001600160a01b03166001600160a01b03166312fde4b76040518163ffffffff1660e01b8152600401602060405180830381865afa1580156111d0573d6000803e3d6000fd5b505050506040513d601f19601f820116820180604052508101906111f49190611ff0565b90506001600160a01b03811661124c5760405162461bcd60e51b815260206004820152601c60248201527f46656520636f6c6c6563746f72206e6f7420636f6e66696775726564000000006044820152606401610450565b6112606001600160a01b038916828661183b565b806001600160a01b03167f075a2720282fdf622141dae0b048ef90a21a7e57c134c76912d19d006b3b3f6f8560405161129b91815260200190565b60405180910390a2505b505b6112bb6001600160a01b038716868361183b565b856001600160a01b0316856001600160a01b0316336001600160a01b03167fae33cb06d7303f889d953bb09540983050163c1c4c98b330db432a911cfb63fd8460405161130a91815260200190565b60405180910390a450505061132c600160008051602061208a83398151915255565b505050565b336113637f9016d09d72d40fdae2fd8ceac6b6234c7706214fd39c1cd1e609a0528c199300546001600160a01b031690565b6001600160a01b0316146106cc5760405163118cdaa760e01b8152336004820152602401610450565b6001600160a01b0381166113b25760405162461bcd60e51b815260040161045090611f57565b6113bd600082611a5a565b6113ff5760405162461bcd60e51b8152602060048201526013602482015272151bdad95b881b9bdd081cdd5c1c1bdc9d1959606a1b6044820152606401610450565b6040516001600160a01b038216907f1cef54ca6e1745ad87fa3077491d9fc42257e9f1a2d7cad58a4e52bd14dfc62690600090a250565b60008051602061208a83398151915280546001190161146857604051633ee5aeb560e01b815260040160405180910390fd5b60029055565b60008051602061206a8339815191525460ff16156106cc5760405163d93c066560e01b815260040160405180910390fd5b6002546000906001600160a01b03166114fa5760405162461bcd60e51b815260206004820152601e60248201527f4f6666696365722061646472657373206e6f7420636f6e6669677572656400006044820152606401610450565b60025460405163040a4ce560e21b815260206004820152600a602482015269496e766573746f72563160b01b60448201526000916001600160a01b031690631029339490606401602060405180830381865afa15801561155e573d6000803e3d6000fd5b505050506040513d601f19601f820116820180604052508101906115829190611ff0565b90506001600160a01b03811661161a5760025460405163040a4ce560e21b815260206004820152600860248201526724b73b32b9ba37b960c11b60448201526001600160a01b0390911690631029339490606401602060405180830381865afa1580156115f3573d6000803e3d6000fd5b505050506040513d601f19601f820116820180604052508101906116179190611ff0565b90505b6001600160a01b0381166116705760405162461bcd60e51b815260206004820152601b60248201527f496e766573746f7220636f6e7472616374206e6f7420666f756e6400000000006044820152606401610450565b919050565b600160008051602061208a83398151915255565b6040516001600160a01b0384811660248301528381166044830152606482018390526116f09186918216906323b872dd906084015b604051602081830303815290604052915060e01b6020820180516001600160e01b038381831617835250505050611a6f565b50505050565b6116fe611ae0565b60008051602061206a833981519152805460ff191681557f5db9ee0a495bf2e6ff9c91a7834c1ba4fdd244a5e8aa4e537bd38aeae4b073aa335b6040516001600160a01b03909116815260200160405180910390a150565b61175e611b10565b61041581611b59565b61176f611b10565b6106cc611b61565b61177f611b10565b6106cc611b69565b6001600160a01b0381166117ad5760405162461bcd60e51b815260040161045090611f57565b6117b8600082611b8a565b6118045760405162461bcd60e51b815260206004820152601760248201527f546f6b656e20616c726561647920737570706f727465640000000000000000006044820152606401610450565b6040516001600160a01b038216907f8f50fda9bf5d3b403c53b7e91646abd507f8cebf2577655d55d7de3926168b1790600090a250565b6040516001600160a01b0383811660248301526044820183905261132c91859182169063a9059cbb906064016116be565b7f9016d09d72d40fdae2fd8ceac6b6234c7706214fd39c1cd1e609a0528c19930080546001600160a01b031981166001600160a01b03848116918217845560405192169182907f8be0079c531659141344cd1fd0a4f28419497f9722a3daafe3b4186f6b6457e090600090a3505050565b6001600160a01b038116600090815260018301602052604081205415155b9392505050565b61190a61146e565b60008051602061206a833981519152805460ff191660011781557f62e78cea01bee320cd4e420270b5ea74000d11b0c9f74754ebdbfc544b05a25833611738565b600254604051636576cb6360e11b81526000916001600160a01b03169063caed96c6906119939060040160208082526004908201526342414e4b60e01b604082015260600190565b602060405180830381865afa1580156119b0573d6000803e3d6000fd5b505050506040513d601f19601f82011682018060405250810190610f87919061200d565b60006106b6825490565b606060006118fb83611b9f565b6002546040516307a54d5760e41b81526001600160a01b0383811660048301526000921690637a54d57090602401602060405180830381865afa158015611a36573d6000803e3d6000fd5b505050506040513d601f19601f820116820180604052508101906106b69190612031565b60006118fb836001600160a01b038416611bfb565b600080602060008451602086016000885af180611a92576040513d6000823e3d81fd5b50506000513d91508115611aaa578060011415611ab7565b6001600160a01b0384163b155b156116f057604051635274afe760e01b81526001600160a01b0385166004820152602401610450565b60008051602061206a8339815191525460ff166106cc57604051638dfc202b60e01b815260040160405180910390fd5b7ff0c57e16840df040f15088dc2f81fe391c3923bec73e23a9662efc9c229c6a0054600160401b900460ff166106cc57604051631afcd79f60e31b815260040160405180910390fd5b610fa0611b10565b611675611b10565b611b71611b10565b60008051602061206a833981519152805460ff19169055565b60006118fb836001600160a01b038416611cee565b606081600001805480602002602001604051908101604052809291908181526020018280548015611bef57602002820191906000526020600020905b815481526020019060010190808311611bdb575b50505050509050919050565b60008181526001830160205260408120548015611ce4576000611c1f600183611fdd565b8554909150600090611c3390600190611fdd565b9050808214611c98576000866000018281548110611c5357611c53611f41565b9060005260206000200154905080876000018481548110611c7657611c76611f41565b6000918252602080832090910192909255918252600188019052604090208390555b8554869080611ca957611ca9612053565b6001900381819060005260206000200160009055905585600101600086815260200190815260200160002060009055600193505050506106b6565b60009150506106b6565b6000818152600183016020526040812054611d35575081546001818101845560008481526020808220909301849055845484825282860190935260409020919091556106b6565b5060006106b6565b6001600160a01b038116811461041557600080fd5b600060208284031215611d6457600080fd5b81356118fb81611d3d565b600060208284031215611d8157600080fd5b5035919050565b60008060408385031215611d9b57600080fd5b8235611da681611d3d565b946020939093013593505050565b600080600060408486031215611dc957600080fd5b833567ffffffffffffffff80821115611de157600080fd5b818601915086601f830112611df557600080fd5b813581811115611e0457600080fd5b8760208260051b8501011115611e1957600080fd5b60209283019550935050840135611e2f81611d3d565b809150509250925092565b6020808252825182820181905260009190848201906040850190845b81811015611e7b5783516001600160a01b031683529284019291840191600101611e56565b50909695505050505050565b600080600060608486031215611e9c57600080fd5b8335611ea781611d3d565b92506020840135611eb781611d3d565b929592945050506040919091013590565b6020808252818101527f416d6f756e74206d7573742062652067726561746572207468616e207a65726f604082015260600190565b6020808252601190820152702ab739bab83837b93a32b2103a37b5b2b760791b604082015260600190565b600060208284031215611f3a57600080fd5b5051919050565b634e487b7160e01b600052603260045260246000fd5b6020808252601c908201527f546f6b656e20616464726573732063616e6e6f74206265207a65726f00000000604082015260600190565b634e487b7160e01b600052601160045260246000fd5b80820281158282048414176106b6576106b6611f8e565b600082611fd857634e487b7160e01b600052601260045260246000fd5b500490565b818103818111156106b6576106b6611f8e565b60006020828403121561200257600080fd5b81516118fb81611d3d565b60006020828403121561201f57600080fd5b815161ffff811681146118fb57600080fd5b60006020828403121561204357600080fd5b815180151581146118fb57600080fd5b634e487b7160e01b600052603160045260246000fdfecd5ed15c6e187e77e9aee88184c21f4f2182ab5827cb3b7e07fbedcd63f033009b779b17422d0df92223018b32b4d1fa46e071723d6817e2486d003becc55f00a2646970667358221220c4f9d39ccad2989f66cc7c4f4948d942a34c4e75e23d0775d6496803b8abd20d64736f6c63430008180033",
  "linkReferences": {},
  "deployedLinkReferences": {}
}