{
  "_format": "hh-sol-artifact-1",
  "contractName": "Bank",
  "sourceName": "contracts/Bank.sol",
  "abi": [
    {
      "inputs": [],
      "name": "EnforcedPause",
      "type": "error"
    },
    {
      "inputs": [],
      "name": "ExpectedPause",
      "type": "error"
    },
    {
      "inputs": [],
      "name": "InvalidInitialization",
      "type": "error"
    },
    {
      "inputs": [],
      "name": "NotInitializing",
      "type": "error"
    },
    {
      "inputs": [
        {
          "internalType": "address",
          "name": "owner",
          "type": "address"
        }
      ],
      "name": "OwnableInvalidOwner",
      "type": "error"
    },
    {
      "inputs": [
        {
          "internalType": "address",
          "name": "account",
          "type": "address"
        }
      ],
      "name": "OwnableUnauthorizedAccount",
      "type": "error"
    },
    {
      "inputs": [],
      "name": "ReentrancyGuardReentrantCall",
      "type": "error"
    },
    {
      "inputs": [
        {
          "internalType": "address",
          "name": "token",
          "type": "address"
        }
      ],
      "name": "SafeERC20FailedOperation",
      "type": "error"
    },
    {
      "anonymous": false,
      "inputs": [
        {
          "indexed": true,
          "internalType": "address",
          "name": "depositor",
          "type": "address"
        },
        {
          "indexed": false,
          "internalType": "uint256",
          "name": "amount",
          "type": "uint256"
        }
      ],
      "name": "Deposited",
      "type": "event"
    },
    {
      "anonymous": false,
      "inputs": [
        {
          "indexed": true,
          "internalType": "address",
          "name": "account",
          "type": "address"
        },
        {
          "indexed": false,
          "internalType": "uint256",
          "name": "amount",
          "type": "uint256"
        }
      ],
      "name": "DividendClaimed",
      "type": "event"
    },
    {
      "anonymous": false,
      "inputs": [
        {
          "indexed": true,
          "internalType": "address",
          "name": "account",
          "type": "address"
        },
        {
          "indexed": false,
          "internalType": "uint256",
          "name": "amount",
          "type": "uint256"
        }
      ],
      "name": "DividendCredited",
      "type": "event"
    },
    {
      "anonymous": false,
      "inputs": [
        {
          "indexed": true,
          "internalType": "address",
          "name": "account",
          "type": "address"
        },
        {
          "indexed": false,
          "internalType": "uint256",
          "name": "amount",
          "type": "uint256"
        },
        {
          "indexed": true,
          "internalType": "address",
          "name": "investorAddress",
          "type": "address"
        }
      ],
      "name": "DividendDeposited",
      "type": "event"
    },
    {
      "anonymous": false,
      "inputs": [
        {
          "indexed": true,
          "internalType": "address",
          "name": "feeCollector",
          "type": "address"
        },
        {
          "indexed": false,
          "internalType": "uint256",
          "name": "amount",
          "type": "uint256"
        }
      ],
      "name": "FeePaid",
      "type": "event"
    },
    {
      "anonymous": false,
      "inputs": [
        {
          "indexed": false,
          "internalType": "uint64",
          "name": "version",
          "type": "uint64"
        }
      ],
      "name": "Initialized",
      "type": "event"
    },
    {
      "anonymous": false,
      "inputs": [
        {
          "indexed": true,
          "internalType": "address",
          "name": "previousAddress",
          "type": "address"
        },
        {
          "indexed": true,
          "internalType": "address",
          "name": "newAddress",
          "type": "address"
        }
      ],
      "name": "InvestorAddressUpdated",
      "type": "event"
    },
    {
      "anonymous": false,
      "inputs": [
        {
          "indexed": true,
          "internalType": "address",
          "name": "previousOwner",
          "type": "address"
        },
        {
          "indexed": true,
          "internalType": "address",
          "name": "newOwner",
          "type": "address"
        }
      ],
      "name": "OwnershipTransferred",
      "type": "event"
    },
    {
      "anonymous": false,
      "inputs": [
        {
          "indexed": false,
          "internalType": "address",
          "name": "account",
          "type": "address"
        }
      ],
      "name": "Paused",
      "type": "event"
    },
    {
      "anonymous": false,
      "inputs": [
        {
          "indexed": true,
          "internalType": "address",
          "name": "depositor",
          "type": "address"
        },
        {
          "indexed": true,
          "internalType": "address",
          "name": "token",
          "type": "address"
        },
        {
          "indexed": false,
          "internalType": "uint256",
          "name": "amount",
          "type": "uint256"
        }
      ],
      "name": "TokenDeposited",
      "type": "event"
    },
    {
      "anonymous": false,
      "inputs": [
        {
          "indexed": true,
          "internalType": "address",
          "name": "account",
          "type": "address"
        },
        {
          "indexed": true,
          "internalType": "address",
          "name": "token",
          "type": "address"
        },
        {
          "indexed": false,
          "internalType": "uint256",
          "name": "amount",
          "type": "uint256"
        }
      ],
      "name": "TokenDividendClaimed",
      "type": "event"
    },
    {
      "anonymous": false,
      "inputs": [
        {
          "indexed": true,
          "internalType": "address",
          "name": "account",
          "type": "address"
        },
        {
          "indexed": true,
          "internalType": "address",
          "name": "token",
          "type": "address"
        },
        {
          "indexed": false,
          "internalType": "uint256",
          "name": "amount",
          "type": "uint256"
        }
      ],
      "name": "TokenDividendCredited",
      "type": "event"
    },
    {
      "anonymous": false,
      "inputs": [
        {
          "indexed": true,
          "internalType": "address",
          "name": "account",
          "type": "address"
        },
        {
          "indexed": true,
          "internalType": "address",
          "name": "token",
          "type": "address"
        },
        {
          "indexed": false,
          "internalType": "uint256",
          "name": "amount",
          "type": "uint256"
        },
        {
          "indexed": true,
          "internalType": "address",
          "name": "investorAddress",
          "type": "address"
        }
      ],
      "name": "TokenDividendDeposited",
      "type": "event"
    },
    {
      "anonymous": false,
      "inputs": [
        {
          "indexed": true,
          "internalType": "address",
          "name": "tokenAddress",
          "type": "address"
        }
      ],
      "name": "TokenSupportAdded",
      "type": "event"
    },
    {
      "anonymous": false,
      "inputs": [
        {
          "indexed": true,
          "internalType": "address",
          "name": "tokenAddress",
          "type": "address"
        }
      ],
      "name": "TokenSupportRemoved",
      "type": "event"
    },
    {
      "anonymous": false,
      "inputs": [
        {
          "indexed": true,
          "internalType": "address",
          "name": "sender",
          "type": "address"
        },
        {
          "indexed": true,
          "internalType": "address",
          "name": "to",
          "type": "address"
        },
        {
          "indexed": true,
          "internalType": "address",
          "name": "token",
          "type": "address"
        },
        {
          "indexed": false,
          "internalType": "uint256",
          "name": "amount",
          "type": "uint256"
        }
      ],
      "name": "TokenTransfer",
      "type": "event"
    },
    {
      "anonymous": false,
      "inputs": [
        {
          "indexed": true,
          "internalType": "address",
          "name": "sender",
          "type": "address"
        },
        {
          "indexed": true,
          "internalType": "address",
          "name": "to",
          "type": "address"
        },
        {
          "indexed": false,
          "internalType": "uint256",
          "name": "amount",
          "type": "uint256"
        }
      ],
      "name": "Transfer",
      "type": "event"
    },
    {
      "anonymous": false,
      "inputs": [
        {
          "indexed": false,
          "internalType": "address",
          "name": "account",
          "type": "address"
        }
      ],
      "name": "Unpaused",
      "type": "event"
    },
    {
      "inputs": [
        {
          "internalType": "address",
          "name": "_tokenAddress",
          "type": "address"
        }
      ],
      "name": "addTokenSupport",
      "outputs": [],
      "stateMutability": "nonpayable",
      "type": "function"
    },
    {
      "inputs": [],
      "name": "claimDividend",
      "outputs": [],
      "stateMutability": "nonpayable",
      "type": "function"
    },
    {
      "inputs": [
        {
          "internalType": "address",
          "name": "_token",
          "type": "address"
        }
      ],
      "name": "claimTokenDividend",
      "outputs": [],
      "stateMutability": "nonpayable",
      "type": "function"
    },
    {
      "inputs": [
        {
          "internalType": "uint256",
          "name": "_amount",
          "type": "uint256"
        },
        {
          "internalType": "address",
          "name": "_investorAddress",
          "type": "address"
        }
      ],
      "name": "depositDividends",
      "outputs": [],
      "stateMutability": "payable",
      "type": "function"
    },
    {
      "inputs": [
        {
          "internalType": "address",
          "name": "_token",
          "type": "address"
        },
        {
          "internalType": "uint256",
          "name": "_amount",
          "type": "uint256"
        }
      ],
      "name": "depositToken",
      "outputs": [],
      "stateMutability": "nonpayable",
      "type": "function"
    },
    {
      "inputs": [
        {
          "internalType": "address",
          "name": "_token",
          "type": "address"
        },
        {
          "internalType": "uint256",
          "name": "_amount",
          "type": "uint256"
        },
        {
          "internalType": "address",
          "name": "_investorAddress",
          "type": "address"
        }
      ],
      "name": "depositTokenDividends",
      "outputs": [],
      "stateMutability": "nonpayable",
      "type": "function"
    },
    {
      "inputs": [
        {
          "internalType": "address",
          "name": "",
          "type": "address"
        }
      ],
      "name": "dividendBalances",
      "outputs": [
        {
          "internalType": "uint256",
          "name": "",
          "type": "uint256"
        }
      ],
      "stateMutability": "view",
      "type": "function"
    },
    {
      "inputs": [
        {
          "internalType": "address",
          "name": "_token",
          "type": "address"
        },
        {
          "internalType": "address",
          "name": "_account",
          "type": "address"
        }
      ],
      "name": "getTokenDividendBalance",
      "outputs": [
        {
          "internalType": "uint256",
          "name": "",
          "type": "uint256"
        }
      ],
      "stateMutability": "view",
      "type": "function"
    },
    {
      "inputs": [],
      "name": "getUnlockedBalance",
      "outputs": [
        {
          "internalType": "uint256",
          "name": "",
          "type": "uint256"
        }
      ],
      "stateMutability": "view",
      "type": "function"
    },
    {
      "inputs": [
        {
          "internalType": "address",
          "name": "_token",
          "type": "address"
        }
      ],
      "name": "getUnlockedTokenBalance",
      "outputs": [
        {
          "internalType": "uint256",
          "name": "",
          "type": "uint256"
        }
      ],
      "stateMutability": "view",
      "type": "function"
    },
    {
      "inputs": [
        {
          "internalType": "address[]",
          "name": "_tokenAddresses",
          "type": "address[]"
        },
        {
          "internalType": "address",
          "name": "_sender",
          "type": "address"
        }
      ],
      "name": "initialize",
      "outputs": [],
      "stateMutability": "nonpayable",
      "type": "function"
    },
    {
      "inputs": [],
      "name": "investorAddress",
      "outputs": [
        {
          "internalType": "address",
          "name": "",
          "type": "address"
        }
      ],
      "stateMutability": "view",
      "type": "function"
    },
    {
      "inputs": [],
      "name": "officerAddress",
      "outputs": [
        {
          "internalType": "address",
          "name": "",
          "type": "address"
        }
      ],
      "stateMutability": "view",
      "type": "function"
    },
    {
      "inputs": [],
      "name": "owner",
      "outputs": [
        {
          "internalType": "address",
          "name": "",
          "type": "address"
        }
      ],
      "stateMutability": "view",
      "type": "function"
    },
    {
      "inputs": [],
      "name": "pause",
      "outputs": [],
      "stateMutability": "nonpayable",
      "type": "function"
    },
    {
      "inputs": [],
      "name": "paused",
      "outputs": [
        {
          "internalType": "bool",
          "name": "",
          "type": "bool"
        }
      ],
      "stateMutability": "view",
      "type": "function"
    },
    {
      "inputs": [
        {
          "internalType": "address",
          "name": "_tokenAddress",
          "type": "address"
        }
      ],
      "name": "removeTokenSupport",
      "outputs": [],
      "stateMutability": "nonpayable",
      "type": "function"
    },
    {
      "inputs": [],
      "name": "renounceOwnership",
      "outputs": [],
      "stateMutability": "nonpayable",
      "type": "function"
    },
    {
      "inputs": [
        {
          "internalType": "address",
          "name": "_investorAddress",
          "type": "address"
        }
      ],
      "name": "setInvestorAddress",
      "outputs": [],
      "stateMutability": "nonpayable",
      "type": "function"
    },
    {
      "inputs": [
        {
          "internalType": "address",
          "name": "",
          "type": "address"
        }
      ],
      "name": "supportedTokens",
      "outputs": [
        {
          "internalType": "bool",
          "name": "",
          "type": "bool"
        }
      ],
      "stateMutability": "view",
      "type": "function"
    },
    {
      "inputs": [
        {
          "internalType": "address",
          "name": "",
          "type": "address"
        },
        {
          "internalType": "address",
          "name": "",
          "type": "address"
        }
      ],
      "name": "tokenDividendBalances",
      "outputs": [
        {
          "internalType": "uint256",
          "name": "",
          "type": "uint256"
        }
      ],
      "stateMutability": "view",
      "type": "function"
    },
    {
      "inputs": [],
      "name": "totalDividends",
      "outputs": [
        {
          "internalType": "uint256",
          "name": "",
          "type": "uint256"
        }
      ],
      "stateMutability": "view",
      "type": "function"
    },
    {
      "inputs": [
        {
          "internalType": "address",
          "name": "",
          "type": "address"
        }
      ],
      "name": "totalTokenDividends",
      "outputs": [
        {
          "internalType": "uint256",
          "name": "",
          "type": "uint256"
        }
      ],
      "stateMutability": "view",
      "type": "function"
    },
    {
      "inputs": [
        {
          "internalType": "address",
          "name": "_to",
          "type": "address"
        },
        {
          "internalType": "uint256",
          "name": "_amount",
          "type": "uint256"
        }
      ],
      "name": "transfer",
      "outputs": [],
      "stateMutability": "nonpayable",
      "type": "function"
    },
    {
      "inputs": [
        {
          "internalType": "address",
          "name": "newOwner",
          "type": "address"
        }
      ],
      "name": "transferOwnership",
      "outputs": [],
      "stateMutability": "nonpayable",
      "type": "function"
    },
    {
      "inputs": [
        {
          "internalType": "address",
          "name": "_token",
          "type": "address"
        },
        {
          "internalType": "address",
          "name": "_to",
          "type": "address"
        },
        {
          "internalType": "uint256",
          "name": "_amount",
          "type": "uint256"
        }
      ],
      "name": "transferToken",
      "outputs": [],
      "stateMutability": "nonpayable",
      "type": "function"
    },
    {
      "inputs": [],
      "name": "unpause",
      "outputs": [],
      "stateMutability": "nonpayable",
      "type": "function"
    },
    {
      "stateMutability": "payable",
      "type": "receive"
    }
  ],
  "bytecode": "0x608060405234801561001057600080fd5b50612b90806100206000396000f3fe6080604052600436106101a05760003560e01c80637618b2a0116100ec578063a7b831351161008a578063f0fc6bca11610064578063f0fc6bca146104e6578063f2fde38b146104fb578063f5537ede1461051b578063fd53be241461053b57600080fd5b8063a7b8313514610479578063a9059cbb14610499578063d25214a7146104b957600080fd5b8063957c73fa116100c6578063957c73fa146103f8578063997664d714610430578063a0a9a85d14610446578063a751b34d1461046657600080fd5b80637618b2a0146103ae5780638456cb59146103ce5780638da5cb5b146103e357600080fd5b806342602f1e1161015957806368c4ac261161013357806368c4ac26146103295780636c5550fc14610359578063715018a614610379578063733c237d1461038e57600080fd5b806342602f1e146102b8578063462d0b2e146102d85780635c975abb146102f857600080fd5b806312e228fd146101e1578063267b07981461021e5780632ba8d93914610241578063315f77ef14610263578063338b5dea146102835780633f4ba83a146102a357600080fd5b366101dc5760405134815233907f2da466a7b24304f47e87fa2e1e5a81b9831ce54fec19055ce277ca2f39ba42c49060200160405180910390a2005b600080fd5b3480156101ed57600080fd5b50600054610201906001600160a01b031681565b6040516001600160a01b0390911681526020015b60405180910390f35b34801561022a57600080fd5b50610233610568565b604051908152602001610215565b34801561024d57600080fd5b5061026161025c36600461265a565b610590565b005b34801561026f57600080fd5b50600554610201906001600160a01b031681565b34801561028f57600080fd5b5061026161029e36600461267e565b61066e565b3480156102af57600080fd5b50610261610746565b3480156102c457600080fd5b506102616102d336600461265a565b610758565b3480156102e457600080fd5b506102616102f33660046126aa565b61085e565b34801561030457600080fd5b50600080516020612b1b8339815191525460ff165b6040519015158152602001610215565b34801561033557600080fd5b5061031961034436600461265a565b60016020526000908152604090205460ff1681565b34801561036557600080fd5b50610261610374366004612730565b610ae6565b34801561038557600080fd5b50610261610d16565b34801561039a57600080fd5b506102616103a936600461265a565b610d28565b3480156103ba57600080fd5b506102616103c936600461265a565b610e0e565b3480156103da57600080fd5b50610261610fe8565b3480156103ef57600080fd5b50610201610ff8565b34801561040457600080fd5b50610233610413366004612767565b600360209081526000928352604080842090915290825290205481565b34801561043c57600080fd5b5061023360045481565b34801561045257600080fd5b5061023361046136600461265a565b611026565b6102616104743660046127a0565b611105565b34801561048557600080fd5b50610233610494366004612767565b611284565b3480156104a557600080fd5b506102616104b436600461267e565b6112ea565b3480156104c557600080fd5b506102336104d436600461265a565b60066020526000908152604090205481565b3480156104f257600080fd5b506102616116d2565b34801561050757600080fd5b5061026161051636600461265a565b61189f565b34801561052757600080fd5b506102616105363660046127c5565b6118da565b34801561054757600080fd5b5061023361055636600461265a565b60026020526000908152604090205481565b6004546000904790811161057d57600061058a565b60045461058a908261281c565b91505090565b610598611c29565b6001600160a01b0381166105c75760405162461bcd60e51b81526004016105be9061282f565b60405180910390fd5b6001600160a01b03811660009081526001602052604090205460ff166106255760405162461bcd60e51b8152602060048201526013602482015272151bdad95b881b9bdd081cdd5c1c1bdc9d1959606a1b60448201526064016105be565b6001600160a01b038116600081815260016020526040808220805460ff19169055517f1cef54ca6e1745ad87fa3077491d9fc42257e9f1a2d7cad58a4e52bd14dfc6269190a250565b610676611c5b565b61067e611c93565b6001600160a01b03821660009081526001602052604090205460ff166106b65760405162461bcd60e51b81526004016105be90612866565b600081116106d65760405162461bcd60e51b81526004016105be90612891565b6106eb6001600160a01b038316333084611cc4565b6040518181526001600160a01b0383169033907ff1444b5cad7ce70cb018d1b8edc8618fe303f3c7f034d8d572a6e27facbf2bef9060200160405180910390a36107426001600080516020612b3b83398151915255565b5050565b61074e611c29565b610756611d45565b565b610760611c93565b610768610ff8565b6001600160a01b0316336001600160a01b0316148061079057506000546001600160a01b0316155b6107e85760405162461bcd60e51b8152602060048201526024808201527f4e6f7420616c6c6f77656420746f2073657420696e766573746f7220636f6e746044820152631c9858dd60e21b60648201526084016105be565b6001600160a01b03811661080e5760405162461bcd60e51b81526004016105be906128c6565b600080546001600160a01b038381166001600160a01b0319831681178455604051919092169283917f594c44c2381ada2d54a33e2bfce42a3dcd21f03b229cabaec99703d0ff1eaddc9190a35050565b7ff0c57e16840df040f15088dc2f81fe391c3923bec73e23a9662efc9c229c6a008054600160401b810460ff16159067ffffffffffffffff166000811580156108a45750825b905060008267ffffffffffffffff1660011480156108c15750303b155b9050811580156108cf575080155b156108ed5760405163f92ee8a960e01b815260040160405180910390fd5b845467ffffffffffffffff19166001178555831561091757845460ff60401b1916600160401b1785555b6001600160a01b0386166109655760405162461bcd60e51b815260206004820152601560248201527453656e6465722063616e6e6f74206265207a65726f60581b60448201526064016105be565b61096e86611da5565b610976611db6565b61097e611dc6565b8660005b81811015610a355760008a8a8381811061099e5761099e6128f6565b90506020020160208101906109b3919061265a565b6001600160a01b0316036109d95760405162461bcd60e51b81526004016105be9061282f565b60018060008c8c858181106109f0576109f06128f6565b9050602002016020810190610a05919061265a565b6001600160a01b031681526020810191909152604001600020805460ff1916911515919091179055600101610982565b5033610a835760405162461bcd60e51b815260206004820152601760248201527f6d73672073656e642063616e6e6f74206265207a65726f00000000000000000060448201526064016105be565b50600580546001600160a01b031916331790558315610adc57845460ff60401b19168555604051600181527fc7f505b2f371ae2175ee4913f4499e1f2633a7b5936321eed1cdaeb6115181d29060200160405180910390a15b5050505050505050565b610aee611c29565b610af6611c93565b610afe611c5b565b6001600160a01b03831660009081526001602052604090205460ff16610b365760405162461bcd60e51b81526004016105be90612866565b60008211610b565760405162461bcd60e51b81526004016105be90612891565b6001600160a01b038116610ba75760405162461bcd60e51b8152602060048201526018602482015277125b9d995cdd1bdc881859191c995cdcc81a5b9d985b1a5960421b60448201526064016105be565b6040516370a0823160e01b81523060048201526000906001600160a01b038516906370a0823190602401602060405180830381865afa158015610bee573d6000803e3d6000fd5b505050506040513d601f19601f82011682018060405250810190610c12919061290c565b6001600160a01b038516600090815260066020526040902054909150610c38818361281c565b841115610c965760405162461bcd60e51b815260206004820152602660248201527f496e73756666696369656e7420746f6b656e2062616c616e636520696e207468604482015265652062616e6b60d01b60648201526084016105be565b610ca1858585611dd6565b826001600160a01b0316856001600160a01b0316336001600160a01b03167f751b73b4356b22d7d65d06bb464c57db9c0ba719493a2d29fa7a6c03d3c84e8b87604051610cf091815260200190565b60405180910390a45050610d116001600080516020612b3b83398151915255565b505050565b610d1e611c29565b61075660006120a8565b610d30611c29565b6001600160a01b038116610d565760405162461bcd60e51b81526004016105be9061282f565b6001600160a01b03811660009081526001602052604090205460ff1615610dbf5760405162461bcd60e51b815260206004820152601760248201527f546f6b656e20616c726561647920737570706f7274656400000000000000000060448201526064016105be565b6001600160a01b0381166000818152600160208190526040808320805460ff1916909217909155517f8f50fda9bf5d3b403c53b7e91646abd507f8cebf2577655d55d7de3926168b179190a250565b610e16611c93565b610e1e611c5b565b6001600160a01b03811660009081526001602052604090205460ff16610e565760405162461bcd60e51b81526004016105be90612866565b6001600160a01b038116600090815260036020908152604080832033845290915290205480610ebc5760405162461bcd60e51b81526020600482015260126024820152714e6f7468696e6720746f2072656c6561736560701b60448201526064016105be565b6001600160a01b038216600090815260066020526040902054811115610f335760405162461bcd60e51b815260206004820152602660248201527f496e76617269616e743a20746f74616c546f6b656e4469766964656e647320746044820152656f6f206c6f7760d01b60648201526084016105be565b6001600160a01b03821660008181526003602090815260408083203384528252808320839055928252600690529081208054839290610f7390849061281c565b90915550610f8d90506001600160a01b0383163383612119565b6040518181526001600160a01b0383169033907f7bc90c27554b44b5b0c1bb6f04b62167fb68cd8d3881ac71f169166a22f074c99060200160405180910390a350610fe56001600080516020612b3b83398151915255565b50565b610ff0611c29565b61075661214a565b7f9016d09d72d40fdae2fd8ceac6b6234c7706214fd39c1cd1e609a0528c199300546001600160a01b031690565b6001600160a01b03811660009081526001602052604081205460ff1661105e5760405162461bcd60e51b81526004016105be90612866565b6040516370a0823160e01b81523060048201526000906001600160a01b038416906370a0823190602401602060405180830381865afa1580156110a5573d6000803e3d6000fd5b505050506040513d601f19601f820116820180604052508101906110c9919061290c565b6001600160a01b0384166000908152600660205260409020549091508082116110f35760006110fd565b6110fd818361281c565b949350505050565b61110d611c29565b611115611c93565b61111d611c5b565b81611126610568565b8111156111755760405162461bcd60e51b815260206004820152601d60248201527f496e73756666696369656e7420756e6c6f636b65642062616c616e636500000060448201526064016105be565b600454611182904761281c565b8311156111d15760405162461bcd60e51b815260206004820181905260248201527f496e73756666696369656e742062616c616e636520696e207468652062616e6b60448201526064016105be565b6001600160a01b0382166112225760405162461bcd60e51b8152602060048201526018602482015277125b9d995cdd1bdc881859191c995cdcc81a5b9d985b1a5960421b60448201526064016105be565b61122c8383612193565b6040518381526001600160a01b0383169033907fec43fb3ac504b634bce8f35df8e538d4e361f1d77ed74679f8c8fb33679ec4c99060200160405180910390a3506107426001600080516020612b3b83398151915255565b6001600160a01b03821660009081526001602052604081205460ff166112bc5760405162461bcd60e51b81526004016105be90612866565b506001600160a01b038083166000908152600360209081526040808320938516835292905220545b92915050565b6112f2611c29565b6112fa611c5b565b611302611c93565b8061130b610568565b81111561135a5760405162461bcd60e51b815260206004820152601d60248201527f496e73756666696369656e7420756e6c6f636b65642062616c616e636500000060448201526064016105be565b6001600160a01b0383166113805760405162461bcd60e51b81526004016105be906128c6565b600082116113a05760405162461bcd60e51b81526004016105be90612891565b60006113aa61242d565b90506127108161ffff1611156113fb5760405162461bcd60e51b81526020600482015260166024820152754665652063616e6e6f7420657863656564203130302560501b60448201526064016105be565b60008361ffff8316156115e15761271061141961ffff851687612925565b611423919061293c565b915061142f828661281c565b90506000600560009054906101000a90046001600160a01b03166001600160a01b03166312fde4b76040518163ffffffff1660e01b8152600401602060405180830381865afa158015611486573d6000803e3d6000fd5b505050506040513d601f19601f820116820180604052508101906114aa919061295e565b90506001600160a01b0381166115025760405162461bcd60e51b815260206004820152601c60248201527f46656520636f6c6c6563746f72206e6f7420636f6e666967757265640000000060448201526064016105be565b6000816001600160a01b03168460405160006040518083038185875af1925050503d806000811461154f576040519150601f19603f3d011682016040523d82523d6000602084013e611554565b606091505b505090508061159b5760405162461bcd60e51b8152602060048201526013602482015272119959481d1c985b9cd9995c8819985a5b1959606a1b60448201526064016105be565b816001600160a01b03167f075a2720282fdf622141dae0b048ef90a21a7e57c134c76912d19d006b3b3f6f856040516115d691815260200190565b60405180910390a250505b6000866001600160a01b03168260405160006040518083038185875af1925050503d806000811461162e576040519150601f19603f3d011682016040523d82523d6000602084013e611633565b606091505b50509050806116765760405162461bcd60e51b815260206004820152600f60248201526e151c985b9cd9995c8819985a5b1959608a1b60448201526064016105be565b6040518281526001600160a01b0388169033907fddf252ad1be2c89b69c2b068fc378daa952ba7f163c4a11628f55a4df523b3ef9060200160405180910390a350505050506107426001600080516020612b3b83398151915255565b6116da611c93565b6116e2611c5b565b33600090815260026020526040902054806117345760405162461bcd60e51b81526020600482015260126024820152714e6f7468696e6720746f2072656c6561736560701b60448201526064016105be565b8060045410156117905760405162461bcd60e51b815260206004820152602160248201527f496e76617269616e743a20746f74616c4469766964656e647320746f6f206c6f6044820152607760f81b60648201526084016105be565b336000908152600260205260408120819055600480548392906117b490849061281c565b9091555050604051600090339083908381818185875af1925050503d80600081146117fb576040519150601f19603f3d011682016040523d82523d6000602084013e611800565b606091505b50509050806118515760405162461bcd60e51b815260206004820152601760248201527f4661696c656420746f2073656e64206469766964656e6400000000000000000060448201526064016105be565b60405182815233907f5efa67896a23b651b741b525caacba039c00ca7853be3de8eb1f4269e8669c569060200160405180910390a250506107566001600080516020612b3b83398151915255565b6118a7611c29565b6001600160a01b0381166118d157604051631e4fbdf760e01b8152600060048201526024016105be565b610fe5816120a8565b6118e2611c29565b6118ea611c5b565b6118f2611c93565b6001600160a01b03831660009081526001602052604090205460ff1661192a5760405162461bcd60e51b81526004016105be90612866565b6001600160a01b0382166119505760405162461bcd60e51b81526004016105be906128c6565b600081116119705760405162461bcd60e51b81526004016105be90612891565b61197983611026565b8111156119d45760405162461bcd60e51b815260206004820152602360248201527f496e73756666696369656e7420756e6c6f636b656420746f6b656e2062616c616044820152626e636560e81b60648201526084016105be565b60006119df846124bb565b90506000828215611ba45760006119f461242d565b90506127108161ffff161115611a455760405162461bcd60e51b81526020600482015260166024820152754665652063616e6e6f7420657863656564203130302560501b60448201526064016105be565b61ffff811615611ba257612710611a6061ffff831687612925565b611a6a919061293c565b9250611a76838661281c565b91506000600560009054906101000a90046001600160a01b03166001600160a01b03166312fde4b76040518163ffffffff1660e01b8152600401602060405180830381865afa158015611acd573d6000803e3d6000fd5b505050506040513d601f19601f82011682018060405250810190611af1919061295e565b90506001600160a01b038116611b495760405162461bcd60e51b815260206004820152601c60248201527f46656520636f6c6c6563746f72206e6f7420636f6e666967757265640000000060448201526064016105be565b611b5d6001600160a01b0389168286612119565b806001600160a01b03167f075a2720282fdf622141dae0b048ef90a21a7e57c134c76912d19d006b3b3f6f85604051611b9891815260200190565b60405180910390a2505b505b611bb86001600160a01b0387168683612119565b856001600160a01b0316856001600160a01b0316336001600160a01b03167fae33cb06d7303f889d953bb09540983050163c1c4c98b330db432a911cfb63fd84604051611c0791815260200190565b60405180910390a4505050610d116001600080516020612b3b83398151915255565b33611c32610ff8565b6001600160a01b0316146107565760405163118cdaa760e01b81523360048201526024016105be565b600080516020612b3b833981519152805460011901611c8d57604051633ee5aeb560e01b815260040160405180910390fd5b60029055565b600080516020612b1b8339815191525460ff16156107565760405163d93c066560e01b815260040160405180910390fd5b6040516001600160a01b038481166024830152838116604483015260648201839052611d2b9186918216906323b872dd906084015b604051602081830303815290604052915060e01b6020820180516001600160e01b03838183161783525050505061252a565b50505050565b6001600080516020612b3b83398151915255565b611d4d61259b565b600080516020612b1b833981519152805460ff191681557f5db9ee0a495bf2e6ff9c91a7834c1ba4fdd244a5e8aa4e537bd38aeae4b073aa335b6040516001600160a01b03909116815260200160405180910390a150565b611dad6125cb565b610fe581612614565b611dbe6125cb565b61075661261c565b611dce6125cb565b610756612624565b611dde611c93565b60008190506000816001600160a01b03166341ca641e6040518163ffffffff1660e01b8152600401600060405180830381865afa158015611e23573d6000803e3d6000fd5b505050506040513d6000823e601f3d908101601f19168201604052611e4b91908101906129eb565b90506000826001600160a01b03166318160ddd6040518163ffffffff1660e01b8152600401602060405180830381865afa158015611e8d573d6000803e3d6000fd5b505050506040513d601f19601f82011682018060405250810190611eb1919061290c565b905060008111611ef15760405162461bcd60e51b815260206004820152600b60248201526a5a65726f20737570706c7960a81b60448201526064016105be565b6000825111611f345760405162461bcd60e51b815260206004820152600f60248201526e4e6f207368617265686f6c6465727360881b60448201526064016105be565b8151859060005b8181101561209d576000858281518110611f5757611f576128f6565b60200260200101516000015190506000868381518110611f7957611f796128f6565b6020026020010151602001519050600086828c611f969190612925565b611fa0919061293c565b9050611fad60018661281c565b8403611fba575084611fc5565b85811115611fc55750845b801561208f576001600160a01b03808d16600090815260036020908152604080832093871683529290529081208054839290612002908490612ac1565b90915550506001600160a01b038c166000908152600660205260408120805483929061202f908490612ac1565b9091555061203f9050818761281c565b95508b6001600160a01b0316836001600160a01b03167f97fc9e579dcadede95a5f11e2c67965fa4a73964541104fed38e195195346c1c8360405161208691815260200190565b60405180910390a35b505050806001019050611f3b565b505050505050505050565b7f9016d09d72d40fdae2fd8ceac6b6234c7706214fd39c1cd1e609a0528c19930080546001600160a01b031981166001600160a01b03848116918217845560405192169182907f8be0079c531659141344cd1fd0a4f28419497f9722a3daafe3b4186f6b6457e090600090a3505050565b6040516001600160a01b03838116602483015260448201839052610d1191859182169063a9059cbb90606401611cf9565b612152611c93565b600080516020612b1b833981519152805460ff191660011781557f62e78cea01bee320cd4e420270b5ea74000d11b0c9f74754ebdbfc544b05a25833611d87565b61219b611c93565b60008190506000816001600160a01b03166341ca641e6040518163ffffffff1660e01b8152600401600060405180830381865afa1580156121e0573d6000803e3d6000fd5b505050506040513d6000823e601f3d908101601f1916820160405261220891908101906129eb565b90506000826001600160a01b03166318160ddd6040518163ffffffff1660e01b8152600401602060405180830381865afa15801561224a573d6000803e3d6000fd5b505050506040513d601f19601f8201168201806040525081019061226e919061290c565b9050600081116122ae5760405162461bcd60e51b815260206004820152600b60248201526a5a65726f20737570706c7960a81b60448201526064016105be565b60008251116122f15760405162461bcd60e51b815260206004820152600f60248201526e4e6f207368617265686f6c6465727360881b60448201526064016105be565b8151859060005b81811015610adc576000858281518110612314576123146128f6565b60200260200101516000015190506000868381518110612336576123366128f6565b6020026020010151602001519050600086828c6123539190612925565b61235d919061293c565b905061236a60018661281c565b8403612377575084612382565b858111156123825750845b801561241f576001600160a01b038316600090815260026020526040812080548392906123b0908490612ac1565b9250508190555080600460008282546123c99190612ac1565b909155506123d99050818761281c565b9550826001600160a01b03167f2f8220dd0ef71015eead8714f39577d85bc8ae4df6ce7ab6885317504f707b7b8260405161241691815260200190565b60405180910390a25b5050508060010190506122f8565b600554604051636576cb6360e11b81526000916001600160a01b03169063caed96c6906124759060040160208082526004908201526342414e4b60e01b604082015260600190565b602060405180830381865afa158015612492573d6000803e3d6000fd5b505050506040513d601f19601f820116820180604052508101906124b69190612ad4565b905090565b6005546040516307a54d5760e41b81526001600160a01b0383811660048301526000921690637a54d57090602401602060405180830381865afa158015612506573d6000803e3d6000fd5b505050506040513d601f19601f820116820180604052508101906112e49190612af8565b600080602060008451602086016000885af18061254d576040513d6000823e3d81fd5b50506000513d91508115612565578060011415612572565b6001600160a01b0384163b155b15611d2b57604051635274afe760e01b81526001600160a01b03851660048201526024016105be565b600080516020612b1b8339815191525460ff1661075657604051638dfc202b60e01b815260040160405180910390fd5b7ff0c57e16840df040f15088dc2f81fe391c3923bec73e23a9662efc9c229c6a0054600160401b900460ff1661075657604051631afcd79f60e31b815260040160405180910390fd5b6118a76125cb565b611d316125cb565b61262c6125cb565b600080516020612b1b833981519152805460ff19169055565b6001600160a01b0381168114610fe557600080fd5b60006020828403121561266c57600080fd5b813561267781612645565b9392505050565b6000806040838503121561269157600080fd5b823561269c81612645565b946020939093013593505050565b6000806000604084860312156126bf57600080fd5b833567ffffffffffffffff808211156126d757600080fd5b818601915086601f8301126126eb57600080fd5b8135818111156126fa57600080fd5b8760208260051b850101111561270f57600080fd5b6020928301955093505084013561272581612645565b809150509250925092565b60008060006060848603121561274557600080fd5b833561275081612645565b925060208401359150604084013561272581612645565b6000806040838503121561277a57600080fd5b823561278581612645565b9150602083013561279581612645565b809150509250929050565b600080604083850312156127b357600080fd5b82359150602083013561279581612645565b6000806000606084860312156127da57600080fd5b83356127e581612645565b925060208401356127f581612645565b929592945050506040919091013590565b634e487b7160e01b600052601160045260246000fd5b818103818111156112e4576112e4612806565b6020808252601c908201527f546f6b656e20616464726573732063616e6e6f74206265207a65726f00000000604082015260600190565b6020808252601190820152702ab739bab83837b93a32b2103a37b5b2b760791b604082015260600190565b6020808252818101527f416d6f756e74206d7573742062652067726561746572207468616e207a65726f604082015260600190565b602080825260169082015275416464726573732063616e6e6f74206265207a65726f60501b604082015260600190565b634e487b7160e01b600052603260045260246000fd5b60006020828403121561291e57600080fd5b5051919050565b80820281158282048414176112e4576112e4612806565b60008261295957634e487b7160e01b600052601260045260246000fd5b500490565b60006020828403121561297057600080fd5b815161267781612645565b634e487b7160e01b600052604160045260246000fd5b6040805190810167ffffffffffffffff811182821017156129b4576129b461297b565b60405290565b604051601f8201601f1916810167ffffffffffffffff811182821017156129e3576129e361297b565b604052919050565b600060208083850312156129fe57600080fd5b825167ffffffffffffffff80821115612a1657600080fd5b818501915085601f830112612a2a57600080fd5b815181811115612a3c57612a3c61297b565b612a4a848260051b016129ba565b818152848101925060069190911b830184019087821115612a6a57600080fd5b928401925b81841015612ab65760408489031215612a885760008081fd5b612a90612991565b8451612a9b81612645565b81528486015186820152835260409093019291840191612a6f565b979650505050505050565b808201808211156112e4576112e4612806565b600060208284031215612ae657600080fd5b815161ffff8116811461267757600080fd5b600060208284031215612b0a57600080fd5b8151801515811461267757600080fdfecd5ed15c6e187e77e9aee88184c21f4f2182ab5827cb3b7e07fbedcd63f033009b779b17422d0df92223018b32b4d1fa46e071723d6817e2486d003becc55f00a2646970667358221220ce520b3604192ee687860359fb8a127a215a2b3cbe044964746ba43ccc41644a64736f6c63430008180033",
  "linkReferences": {},
  "deployedLinkReferences": {}
}