{
  "_format": "hh-sol-artifact-1",
  "contractName": "Bank",
  "sourceName": "contracts/Bank.sol",
  "abi": [
    {
      "inputs": [],
      "stateMutability": "nonpayable",
      "type": "constructor"
    },
    {
      "inputs": [],
      "name": "EnforcedPause",
      "type": "error"
    },
    {
      "inputs": [],
      "name": "ExpectedPause",
      "type": "error"
    },
    {
      "inputs": [],
      "name": "FeeCollectorNotConfigured",
      "type": "error"
    },
    {
      "inputs": [
        {
          "internalType": "uint256",
          "name": "required",
          "type": "uint256"
        },
        {
          "internalType": "uint256",
          "name": "available",
          "type": "uint256"
        }
      ],
      "name": "InsufficientBalance",
      "type": "error"
    },
    {
      "inputs": [
        {
          "internalType": "uint16",
          "name": "feeBps",
          "type": "uint16"
        }
      ],
      "name": "InvalidFeeBps",
      "type": "error"
    },
    {
      "inputs": [],
      "name": "InvalidInitialization",
      "type": "error"
    },
    {
      "inputs": [],
      "name": "InvestorContractNotFound",
      "type": "error"
    },
    {
      "inputs": [],
      "name": "NotInitializing",
      "type": "error"
    },
    {
      "inputs": [],
      "name": "OfficerAddressNotSet",
      "type": "error"
    },
    {
      "inputs": [
        {
          "internalType": "address",
          "name": "owner",
          "type": "address"
        }
      ],
      "name": "OwnableInvalidOwner",
      "type": "error"
    },
    {
      "inputs": [
        {
          "internalType": "address",
          "name": "account",
          "type": "address"
        }
      ],
      "name": "OwnableUnauthorizedAccount",
      "type": "error"
    },
    {
      "inputs": [],
      "name": "ReentrancyGuardReentrantCall",
      "type": "error"
    },
    {
      "inputs": [
        {
          "internalType": "address",
          "name": "token",
          "type": "address"
        }
      ],
      "name": "SafeERC20FailedOperation",
      "type": "error"
    },
    {
      "inputs": [
        {
          "internalType": "address",
          "name": "token",
          "type": "address"
        }
      ],
      "name": "TokenSupportAlreadyAdded",
      "type": "error"
    },
    {
      "inputs": [
        {
          "internalType": "address",
          "name": "token",
          "type": "address"
        }
      ],
      "name": "TokenSupportNotFound",
      "type": "error"
    },
    {
      "inputs": [],
      "name": "TokenSupportZeroAddress",
      "type": "error"
    },
    {
      "inputs": [],
      "name": "TransferFailed",
      "type": "error"
    },
    {
      "inputs": [
        {
          "internalType": "address",
          "name": "token",
          "type": "address"
        }
      ],
      "name": "UnsupportedToken",
      "type": "error"
    },
    {
      "inputs": [],
      "name": "ZeroAddress",
      "type": "error"
    },
    {
      "inputs": [],
      "name": "ZeroAmount",
      "type": "error"
    },
    {
      "anonymous": false,
      "inputs": [
        {
          "indexed": true,
          "internalType": "address",
          "name": "depositor",
          "type": "address"
        },
        {
          "indexed": false,
          "internalType": "uint256",
          "name": "amount",
          "type": "uint256"
        }
      ],
      "name": "Deposited",
      "type": "event"
    },
    {
      "anonymous": false,
      "inputs": [
        {
          "indexed": true,
          "internalType": "address",
          "name": "investor",
          "type": "address"
        },
        {
          "indexed": true,
          "internalType": "address",
          "name": "token",
          "type": "address"
        },
        {
          "indexed": false,
          "internalType": "uint256",
          "name": "totalAmount",
          "type": "uint256"
        }
      ],
      "name": "DividendDistributionTriggered",
      "type": "event"
    },
    {
      "anonymous": false,
      "inputs": [
        {
          "indexed": false,
          "internalType": "uint64",
          "name": "version",
          "type": "uint64"
        }
      ],
      "name": "Initialized",
      "type": "event"
    },
    {
      "anonymous": false,
      "inputs": [
        {
          "indexed": true,
          "internalType": "address",
          "name": "previousOwner",
          "type": "address"
        },
        {
          "indexed": true,
          "internalType": "address",
          "name": "newOwner",
          "type": "address"
        }
      ],
      "name": "OwnershipTransferred",
      "type": "event"
    },
    {
      "anonymous": false,
      "inputs": [
        {
          "indexed": false,
          "internalType": "address",
          "name": "account",
          "type": "address"
        }
      ],
      "name": "Paused",
      "type": "event"
    },
    {
      "anonymous": false,
      "inputs": [
        {
          "indexed": true,
          "internalType": "address",
          "name": "depositor",
          "type": "address"
        },
        {
          "indexed": true,
          "internalType": "address",
          "name": "token",
          "type": "address"
        },
        {
          "indexed": false,
          "internalType": "uint256",
          "name": "amount",
          "type": "uint256"
        }
      ],
      "name": "TokenDeposited",
      "type": "event"
    },
    {
      "anonymous": false,
      "inputs": [
        {
          "indexed": true,
          "internalType": "address",
          "name": "tokenAddress",
          "type": "address"
        }
      ],
      "name": "TokenSupportAdded",
      "type": "event"
    },
    {
      "anonymous": false,
      "inputs": [
        {
          "indexed": true,
          "internalType": "address",
          "name": "tokenAddress",
          "type": "address"
        }
      ],
      "name": "TokenSupportRemoved",
      "type": "event"
    },
    {
      "anonymous": false,
      "inputs": [
        {
          "indexed": true,
          "internalType": "address",
          "name": "sender",
          "type": "address"
        },
        {
          "indexed": true,
          "internalType": "address",
          "name": "to",
          "type": "address"
        },
        {
          "indexed": true,
          "internalType": "address",
          "name": "token",
          "type": "address"
        },
        {
          "indexed": false,
          "internalType": "uint256",
          "name": "amount",
          "type": "uint256"
        }
      ],
      "name": "TokenTransfer",
      "type": "event"
    },
    {
      "anonymous": false,
      "inputs": [
        {
          "indexed": true,
          "internalType": "address",
          "name": "sender",
          "type": "address"
        },
        {
          "indexed": true,
          "internalType": "address",
          "name": "to",
          "type": "address"
        },
        {
          "indexed": false,
          "internalType": "uint256",
          "name": "amount",
          "type": "uint256"
        }
      ],
      "name": "Transfer",
      "type": "event"
    },
    {
      "anonymous": false,
      "inputs": [
        {
          "indexed": false,
          "internalType": "address",
          "name": "account",
          "type": "address"
        }
      ],
      "name": "Unpaused",
      "type": "event"
    },
    {
      "inputs": [
        {
          "internalType": "address",
          "name": "_tokenAddress",
          "type": "address"
        }
      ],
      "name": "addTokenSupport",
      "outputs": [],
      "stateMutability": "nonpayable",
      "type": "function"
    },
    {
      "inputs": [
        {
          "internalType": "address",
          "name": "_token",
          "type": "address"
        },
        {
          "internalType": "uint256",
          "name": "_amount",
          "type": "uint256"
        }
      ],
      "name": "depositToken",
      "outputs": [],
      "stateMutability": "nonpayable",
      "type": "function"
    },
    {
      "inputs": [
        {
          "internalType": "uint256",
          "name": "_amount",
          "type": "uint256"
        }
      ],
      "name": "distributeNativeDividends",
      "outputs": [],
      "stateMutability": "nonpayable",
      "type": "function"
    },
    {
      "inputs": [
        {
          "internalType": "address",
          "name": "_token",
          "type": "address"
        },
        {
          "internalType": "uint256",
          "name": "_amount",
          "type": "uint256"
        }
      ],
      "name": "distributeTokenDividends",
      "outputs": [],
      "stateMutability": "nonpayable",
      "type": "function"
    },
    {
      "inputs": [],
      "name": "getBalance",
      "outputs": [
        {
          "internalType": "uint256",
          "name": "",
          "type": "uint256"
        }
      ],
      "stateMutability": "view",
      "type": "function"
    },
    {
      "inputs": [],
      "name": "getSupportedTokenCount",
      "outputs": [
        {
          "internalType": "uint256",
          "name": "",
          "type": "uint256"
        }
      ],
      "stateMutability": "view",
      "type": "function"
    },
    {
      "inputs": [],
      "name": "getSupportedTokens",
      "outputs": [
        {
          "internalType": "address[]",
          "name": "",
          "type": "address[]"
        }
      ],
      "stateMutability": "view",
      "type": "function"
    },
    {
      "inputs": [
        {
          "internalType": "address",
          "name": "_token",
          "type": "address"
        }
      ],
      "name": "getTokenBalance",
      "outputs": [
        {
          "internalType": "uint256",
          "name": "",
          "type": "uint256"
        }
      ],
      "stateMutability": "view",
      "type": "function"
    },
    {
      "inputs": [
        {
          "internalType": "address[]",
          "name": "_tokenAddresses",
          "type": "address[]"
        },
        {
          "internalType": "address",
          "name": "_sender",
          "type": "address"
        }
      ],
      "name": "initialize",
      "outputs": [],
      "stateMutability": "nonpayable",
      "type": "function"
    },
    {
      "inputs": [
        {
          "internalType": "address",
          "name": "_token",
          "type": "address"
        }
      ],
      "name": "isTokenSupported",
      "outputs": [
        {
          "internalType": "bool",
          "name": "",
          "type": "bool"
        }
      ],
      "stateMutability": "view",
      "type": "function"
    },
    {
      "inputs": [],
      "name": "officerAddress",
      "outputs": [
        {
          "internalType": "address",
          "name": "",
          "type": "address"
        }
      ],
      "stateMutability": "view",
      "type": "function"
    },
    {
      "inputs": [],
      "name": "owner",
      "outputs": [
        {
          "internalType": "address",
          "name": "",
          "type": "address"
        }
      ],
      "stateMutability": "view",
      "type": "function"
    },
    {
      "inputs": [],
      "name": "pause",
      "outputs": [],
      "stateMutability": "nonpayable",
      "type": "function"
    },
    {
      "inputs": [],
      "name": "paused",
      "outputs": [
        {
          "internalType": "bool",
          "name": "",
          "type": "bool"
        }
      ],
      "stateMutability": "view",
      "type": "function"
    },
    {
      "inputs": [
        {
          "internalType": "address",
          "name": "_tokenAddress",
          "type": "address"
        }
      ],
      "name": "removeTokenSupport",
      "outputs": [],
      "stateMutability": "nonpayable",
      "type": "function"
    },
    {
      "inputs": [],
      "name": "renounceOwnership",
      "outputs": [],
      "stateMutability": "nonpayable",
      "type": "function"
    },
    {
      "inputs": [
        {
          "internalType": "address",
          "name": "_to",
          "type": "address"
        },
        {
          "internalType": "uint256",
          "name": "_amount",
          "type": "uint256"
        }
      ],
      "name": "transfer",
      "outputs": [],
      "stateMutability": "nonpayable",
      "type": "function"
    },
    {
      "inputs": [
        {
          "internalType": "address",
          "name": "newOwner",
          "type": "address"
        }
      ],
      "name": "transferOwnership",
      "outputs": [],
      "stateMutability": "nonpayable",
      "type": "function"
    },
    {
      "inputs": [
        {
          "internalType": "address",
          "name": "_token",
          "type": "address"
        },
        {
          "internalType": "address",
          "name": "_to",
          "type": "address"
        },
        {
          "internalType": "uint256",
          "name": "_amount",
          "type": "uint256"
        }
      ],
      "name": "transferToken",
      "outputs": [],
      "stateMutability": "nonpayable",
      "type": "function"
    },
    {
      "inputs": [],
      "name": "unpause",
      "outputs": [],
      "stateMutability": "nonpayable",
      "type": "function"
    },
    {
      "stateMutability": "payable",
      "type": "receive"
    }
  ],
  "bytecode": "0x608060405234801561001057600080fd5b5061001961001e565b6100d0565b7ff0c57e16840df040f15088dc2f81fe391c3923bec73e23a9662efc9c229c6a00805468010000000000000000900460ff161561006e5760405163f92ee8a960e01b815260040160405180910390fd5b80546001600160401b03908116146100cd5780546001600160401b0319166001600160401b0390811782556040519081527fc7f505b2f371ae2175ee4913f4499e1f2633a7b5936321eed1cdaeb6115181d29060200160405180910390a15b50565b611ec4806100df6000396000f3fe6080604052600436106101235760003560e01c8063715018a6116100a0578063a9059cbb11610064578063a9059cbb1461036d578063ce67be261461038d578063d3c7c2c7146103a2578063f2fde38b146103c4578063f5537ede146103e457600080fd5b8063715018a6146102c6578063733c237d146102db57806375151b63146102fb5780638456cb591461031b5780638da5cb5b1461033057600080fd5b80633aecd0e3116100e75780633aecd0e3146102205780633f4ba83a14610240578063462d0b2e146102555780635c975abb146102755780635f8eea0a146102a657600080fd5b806312065fe0146101645780632ba8d939146101865780632f05793b146101a8578063315f77ef146101c8578063338b5dea1461020057600080fd5b3661015f5760405134815233907f2da466a7b24304f47e87fa2e1e5a81b9831ce54fec19055ce277ca2f39ba42c49060200160405180910390a2005b600080fd5b34801561017057600080fd5b50475b6040519081526020015b60405180910390f35b34801561019257600080fd5b506101a66101a1366004611b6d565b610404565b005b3480156101b457600080fd5b506101a66101c3366004611b8a565b610418565b3480156101d457600080fd5b506002546101e8906001600160a01b031681565b6040516001600160a01b03909116815260200161017d565b34801561020c57600080fd5b506101a661021b366004611ba3565b610542565b34801561022c57600080fd5b5061017361023b366004611b6d565b610614565b34801561024c57600080fd5b506101a66106b5565b34801561026157600080fd5b506101a6610270366004611bcf565b6106c7565b34801561028157600080fd5b50600080516020611e4f8339815191525460ff165b604051901515815260200161017d565b3480156102b257600080fd5b506101a66102c1366004611ba3565b610945565b3480156102d257600080fd5b506101a6610acf565b3480156102e757600080fd5b506101a66102f6366004611b6d565b610ae1565b34801561030757600080fd5b50610296610316366004611b6d565b610af2565b34801561032757600080fd5b506101a6610afe565b34801561033c57600080fd5b507f9016d09d72d40fdae2fd8ceac6b6234c7706214fd39c1cd1e609a0528c199300546001600160a01b03166101e8565b34801561037957600080fd5b506101a6610388366004611ba3565b610b0e565b34801561039957600080fd5b50610173610dd8565b3480156103ae57600080fd5b506103b7610de9565b60405161017d9190611c55565b3480156103d057600080fd5b506101a66103df366004611b6d565b610df5565b3480156103f057600080fd5b506101a66103ff366004611ca2565b610e30565b61040c611120565b6104158161117b565b50565b610420611120565b61042861120c565b610430611244565b8060000361045157604051631f2a200560e01b815260040160405180910390fd5b478111156104805760405163cf47918160e01b8152600481018290524760248201526044015b60405180910390fd5b600061048a611275565b604051632f05793b60e01b8152600481018490529091506001600160a01b03821690632f05793b9084906024016000604051808303818588803b1580156104d057600080fd5b505af11580156104e4573d6000803e3d6000fd5b5050604051858152600093506001600160a01b03851692507fb8af79d8f1a5208e210ca47bc85b845dc0a16e5bac30cf4922bdcde3b12e4b44915060200160405180910390a3506104156001600080516020611e6f83398151915255565b61054a61120c565b610552611244565b61055b82610af2565b61058357604051635f8b555b60e11b81526001600160a01b0383166004820152602401610477565b806000036105a457604051631f2a200560e01b815260040160405180910390fd5b6105b96001600160a01b038316333084611401565b6040518181526001600160a01b0383169033907ff1444b5cad7ce70cb018d1b8edc8618fe303f3c7f034d8d572a6e27facbf2bef9060200160405180910390a36106106001600080516020611e6f83398151915255565b5050565b600061061f82610af2565b61064757604051635f8b555b60e11b81526001600160a01b0383166004820152602401610477565b6040516370a0823160e01b81523060048201526001600160a01b038316906370a0823190602401602060405180830381865afa15801561068b573d6000803e3d6000fd5b505050506040513d601f19601f820116820180604052508101906106af9190611ce3565b92915050565b6106bd611120565b6106c561146e565b565b7ff0c57e16840df040f15088dc2f81fe391c3923bec73e23a9662efc9c229c6a008054600160401b810460ff16159067ffffffffffffffff1660008115801561070d5750825b905060008267ffffffffffffffff16600114801561072a5750303b155b905081158015610738575080155b156107565760405163f92ee8a960e01b815260040160405180910390fd5b845467ffffffffffffffff19166001178555831561078057845460ff60401b1916600160401b1785555b6001600160a01b0386166107a75760405163d92e233d60e01b815260040160405180910390fd5b6107b0866114ce565b6107b86114df565b6107c06114ef565b8660005b818110156108535760008a8a838181106107e0576107e0611cfc565b90506020020160208101906107f59190611b6d565b6001600160a01b03160361081c5760405163d92e233d60e01b815260040160405180910390fd5b61084b8a8a8381811061083157610831611cfc565b90506020020160208101906108469190611b6d565b6114ff565b6001016107c4565b5060005b818110156108c35789898281811061087157610871611cfc565b90506020020160208101906108869190611b6d565b6001600160a01b03167f8f50fda9bf5d3b403c53b7e91646abd507f8cebf2577655d55d7de3926168b1760405160405180910390a2600101610857565b50336108e25760405163d92e233d60e01b815260040160405180910390fd5b50600280546001600160a01b03191633179055831561093b57845460ff60401b19168555604051600181527fc7f505b2f371ae2175ee4913f4499e1f2633a7b5936321eed1cdaeb6115181d29060200160405180910390a15b5050505050505050565b61094d611120565b61095561120c565b61095d611244565b61096682610af2565b61098e57604051635f8b555b60e11b81526001600160a01b0383166004820152602401610477565b806000036109af57604051631f2a200560e01b815260040160405180910390fd5b60006109ba83610614565b9050808211156109e75760405163cf47918160e01b81526004810183905260248101829052604401610477565b5060006109f2611275565b9050610a086001600160a01b0384168284611590565b604051632fc7750560e11b81526001600160a01b03848116600483015260248201849052821690635f8eea0a90604401600060405180830381600087803b158015610a5257600080fd5b505af1158015610a66573d6000803e3d6000fd5b50505050826001600160a01b0316816001600160a01b03167fb8af79d8f1a5208e210ca47bc85b845dc0a16e5bac30cf4922bdcde3b12e4b4484604051610aaf91815260200190565b60405180910390a3506106106001600080516020611e6f83398151915255565b610ad7611120565b6106c560006115c1565b610ae9611120565b610415816114ff565b60006106af8183611632565b610b06611120565b6106c5611657565b610b16611120565b610b1e61120c565b610b26611244565b6001600160a01b038216610b4d5760405163d92e233d60e01b815260040160405180910390fd5b80600003610b6e57604051631f2a200560e01b815260040160405180910390fd5b47811115610b985760405163cf47918160e01b815260048101829052476024820152604401610477565b6000610ba26116a0565b90506127108161ffff161115610bd157604051632b0caee160e01b815261ffff82166004820152602401610477565b60008261ffff831615610d0957612710610bef61ffff851686611d28565b610bf99190611d3f565b9150610c058285611d61565b90506000600260009054906101000a90046001600160a01b03166001600160a01b03166312fde4b76040518163ffffffff1660e01b8152600401602060405180830381865afa158015610c5c573d6000803e3d6000fd5b505050506040513d601f19601f82011682018060405250810190610c809190611d74565b90506001600160a01b038116610ca95760405163376f92b160e21b815260040160405180910390fd5b60405163b23bf44360e01b81526001600160a01b0382169063b23bf443908590610cd590600401611d91565b6000604051808303818588803b158015610cee57600080fd5b505af1158015610d02573d6000803e3d6000fd5b5050505050505b6000856001600160a01b03168260405160006040518083038185875af1925050503d8060008114610d56576040519150601f19603f3d011682016040523d82523d6000602084013e610d5b565b606091505b5050905080610d7d576040516312171d8360e31b815260040160405180910390fd5b6040518281526001600160a01b0387169033907fddf252ad1be2c89b69c2b068fc378daa952ba7f163c4a11628f55a4df523b3ef9060200160405180910390a3505050506106106001600080516020611e6f83398151915255565b6000610de46000611710565b905090565b6060610de4600061171a565b610dfd611120565b6001600160a01b038116610e2757604051631e4fbdf760e01b815260006004820152602401610477565b610415816115c1565b610e38611120565b610e4061120c565b610e48611244565b610e5183610af2565b610e7957604051635f8b555b60e11b81526001600160a01b0384166004820152602401610477565b6001600160a01b038216610ea05760405163d92e233d60e01b815260040160405180910390fd5b80600003610ec157604051631f2a200560e01b815260040160405180910390fd5b6000610ecc84610614565b905080821115610ef95760405163cf47918160e01b81526004810183905260248101829052604401610477565b506000610f0584611727565b90506000828215611096576000610f1a6116a0565b90506127108161ffff161115610f4957604051632b0caee160e01b815261ffff82166004820152602401610477565b61ffff81161561109457612710610f6461ffff831687611d28565b610f6e9190611d3f565b9250610f7a8386611d61565b91506000600260009054906101000a90046001600160a01b03166001600160a01b03166312fde4b76040518163ffffffff1660e01b8152600401602060405180830381865afa158015610fd1573d6000803e3d6000fd5b505050506040513d601f19601f82011682018060405250810190610ff59190611d74565b90506001600160a01b03811661101e5760405163376f92b160e21b815260040160405180910390fd5b6110326001600160a01b0389168286611796565b604051637434eded60e01b81526001600160a01b03821690637434eded90611060908b908890600401611db5565b600060405180830381600087803b15801561107a57600080fd5b505af115801561108e573d6000803e3d6000fd5b50505050505b505b6110aa6001600160a01b0387168683611590565b856001600160a01b0316856001600160a01b0316336001600160a01b03167fae33cb06d7303f889d953bb09540983050163c1c4c98b330db432a911cfb63fd846040516110f991815260200190565b60405180910390a450505061111b6001600080516020611e6f83398151915255565b505050565b336111527f9016d09d72d40fdae2fd8ceac6b6234c7706214fd39c1cd1e609a0528c199300546001600160a01b031690565b6001600160a01b0316146106c55760405163118cdaa760e01b8152336004820152602401610477565b6001600160a01b0381166111a257604051634b082a2d60e11b815260040160405180910390fd5b6111ad600082611826565b6111d5576040516344eb3dc360e11b81526001600160a01b0382166004820152602401610477565b6040516001600160a01b038216907f1cef54ca6e1745ad87fa3077491d9fc42257e9f1a2d7cad58a4e52bd14dfc62690600090a250565b600080516020611e6f83398151915280546001190161123e57604051633ee5aeb560e01b815260040160405180910390fd5b60029055565b600080516020611e4f8339815191525460ff16156106c55760405163d93c066560e01b815260040160405180910390fd5b6002546000906001600160a01b03166112a157604051632000098360e11b815260040160405180910390fd5b60025460405163040a4ce560e21b815260206004820152600a602482015269496e766573746f72563160b01b60448201526000916001600160a01b031690631029339490606401602060405180830381865afa158015611305573d6000803e3d6000fd5b505050506040513d601f19601f820116820180604052508101906113299190611d74565b90506001600160a01b0381166113c15760025460405163040a4ce560e21b815260206004820152600860248201526724b73b32b9ba37b960c11b60448201526001600160a01b0390911690631029339490606401602060405180830381865afa15801561139a573d6000803e3d6000fd5b505050506040513d601f19601f820116820180604052508101906113be9190611d74565b90505b6001600160a01b0381166113e857604051630be0f7ed60e21b815260040160405180910390fd5b919050565b6001600080516020611e6f83398151915255565b6040516001600160a01b0384811660248301528381166044830152606482018390526114689186918216906323b872dd906084015b604051602081830303815290604052915060e01b6020820180516001600160e01b03838183161783525050505061183b565b50505050565b6114766118ac565b600080516020611e4f833981519152805460ff191681557f5db9ee0a495bf2e6ff9c91a7834c1ba4fdd244a5e8aa4e537bd38aeae4b073aa335b6040516001600160a01b03909116815260200160405180910390a150565b6114d66118dc565b61041581611925565b6114e76118dc565b6106c561192d565b6114f76118dc565b6106c5611935565b6001600160a01b03811661152657604051634b082a2d60e11b815260040160405180910390fd5b611531600082611956565b61155957604051635484216160e01b81526001600160a01b0382166004820152602401610477565b6040516001600160a01b038216907f8f50fda9bf5d3b403c53b7e91646abd507f8cebf2577655d55d7de3926168b1790600090a250565b6040516001600160a01b0383811660248301526044820183905261111b91859182169063a9059cbb90606401611436565b7f9016d09d72d40fdae2fd8ceac6b6234c7706214fd39c1cd1e609a0528c19930080546001600160a01b031981166001600160a01b03848116918217845560405192169182907f8be0079c531659141344cd1fd0a4f28419497f9722a3daafe3b4186f6b6457e090600090a3505050565b6001600160a01b038116600090815260018301602052604081205415155b9392505050565b61165f611244565b600080516020611e4f833981519152805460ff191660011781557f62e78cea01bee320cd4e420270b5ea74000d11b0c9f74754ebdbfc544b05a258336114b0565b600254604051636576cb6360e11b81526000916001600160a01b03169063caed96c6906116cf90600401611d91565b602060405180830381865afa1580156116ec573d6000803e3d6000fd5b505050506040513d601f19601f82011682018060405250810190610de49190611df2565b60006106af825490565b606060006116508361196b565b6002546040516307a54d5760e41b81526001600160a01b0383811660048301526000921690637a54d57090602401602060405180830381865afa158015611772573d6000803e3d6000fd5b505050506040513d601f19601f820116820180604052508101906106af9190611e16565b604080516001600160a01b038416602482015260448082018490528251808303909101815260649091019091526020810180516001600160e01b031663095ea7b360e01b1790526117e784826119c7565b611468576040516001600160a01b0384811660248301526000604483015261181c91869182169063095ea7b390606401611436565b611468848261183b565b6000611650836001600160a01b038416611a16565b600080602060008451602086016000885af18061185e576040513d6000823e3d81fd5b50506000513d91508115611876578060011415611883565b6001600160a01b0384163b155b1561146857604051635274afe760e01b81526001600160a01b0385166004820152602401610477565b600080516020611e4f8339815191525460ff166106c557604051638dfc202b60e01b815260040160405180910390fd5b7ff0c57e16840df040f15088dc2f81fe391c3923bec73e23a9662efc9c229c6a0054600160401b900460ff166106c557604051631afcd79f60e31b815260040160405180910390fd5b610dfd6118dc565b6113ed6118dc565b61193d6118dc565b600080516020611e4f833981519152805460ff19169055565b6000611650836001600160a01b038416611b09565b6060816000018054806020026020016040519081016040528092919081815260200182805480156119bb57602002820191906000526020600020905b8154815260200190600101908083116119a7575b50505050509050919050565b6000806000806020600086516020880160008a5af192503d91506000519050828015611a0c575081156119fd5780600114611a0c565b6000866001600160a01b03163b115b9695505050505050565b60008181526001830160205260408120548015611aff576000611a3a600183611d61565b8554909150600090611a4e90600190611d61565b9050808214611ab3576000866000018281548110611a6e57611a6e611cfc565b9060005260206000200154905080876000018481548110611a9157611a91611cfc565b6000918252602080832090910192909255918252600188019052604090208390555b8554869080611ac457611ac4611e38565b6001900381819060005260206000200160009055905585600101600086815260200190815260200160002060009055600193505050506106af565b60009150506106af565b6000818152600183016020526040812054611b50575081546001818101845560008481526020808220909301849055845484825282860190935260409020919091556106af565b5060006106af565b6001600160a01b038116811461041557600080fd5b600060208284031215611b7f57600080fd5b813561165081611b58565b600060208284031215611b9c57600080fd5b5035919050565b60008060408385031215611bb657600080fd5b8235611bc181611b58565b946020939093013593505050565b600080600060408486031215611be457600080fd5b833567ffffffffffffffff80821115611bfc57600080fd5b818601915086601f830112611c1057600080fd5b813581811115611c1f57600080fd5b8760208260051b8501011115611c3457600080fd5b60209283019550935050840135611c4a81611b58565b809150509250925092565b6020808252825182820181905260009190848201906040850190845b81811015611c965783516001600160a01b031683529284019291840191600101611c71565b50909695505050505050565b600080600060608486031215611cb757600080fd5b8335611cc281611b58565b92506020840135611cd281611b58565b929592945050506040919091013590565b600060208284031215611cf557600080fd5b5051919050565b634e487b7160e01b600052603260045260246000fd5b634e487b7160e01b600052601160045260246000fd5b80820281158282048414176106af576106af611d12565b600082611d5c57634e487b7160e01b600052601260045260246000fd5b500490565b818103818111156106af576106af611d12565b600060208284031215611d8657600080fd5b815161165081611b58565b6020815260006106af60208301600481526342414e4b60e01b602082015260400190565b606081526000611dd960608301600481526342414e4b60e01b602082015260400190565b6001600160a01b03949094166020830152506040015290565b600060208284031215611e0457600080fd5b815161ffff8116811461165057600080fd5b600060208284031215611e2857600080fd5b8151801515811461165057600080fd5b634e487b7160e01b600052603160045260246000fdfecd5ed15c6e187e77e9aee88184c21f4f2182ab5827cb3b7e07fbedcd63f033009b779b17422d0df92223018b32b4d1fa46e071723d6817e2486d003becc55f00a26469706673582212208ad926c64cb1fdc5bb07a1134072f792e6928d2b9c81ff46ce89c4879f9577b364736f6c63430008180033",
  "linkReferences": {},
  "deployedLinkReferences": {}
}