{
  "_format": "hh-sol-artifact-1",
  "contractName": "BoardOfDirectors",
  "sourceName": "contracts/BoardOfDirectors.sol",
  "abi": [
    {
      "inputs": [],
      "stateMutability": "nonpayable",
      "type": "constructor"
    },
    {
      "inputs": [
        {
          "internalType": "uint256",
          "name": "actionId",
          "type": "uint256"
        }
      ],
      "name": "ActionAlreadyExecuted",
      "type": "error"
    },
    {
      "inputs": [],
      "name": "AlreadyApproved",
      "type": "error"
    },
    {
      "inputs": [
        {
          "internalType": "address",
          "name": "target",
          "type": "address"
        }
      ],
      "name": "CallFailed",
      "type": "error"
    },
    {
      "inputs": [],
      "name": "EmptyList",
      "type": "error"
    },
    {
      "inputs": [],
      "name": "InvalidInitialization",
      "type": "error"
    },
    {
      "inputs": [],
      "name": "NotApproved",
      "type": "error"
    },
    {
      "inputs": [
        {
          "internalType": "address",
          "name": "caller",
          "type": "address"
        }
      ],
      "name": "NotBoardMember",
      "type": "error"
    },
    {
      "inputs": [],
      "name": "NotInitializing",
      "type": "error"
    },
    {
      "inputs": [
        {
          "internalType": "address",
          "name": "caller",
          "type": "address"
        }
      ],
      "name": "NotOwner",
      "type": "error"
    },
    {
      "inputs": [],
      "name": "NotSelf",
      "type": "error"
    },
    {
      "inputs": [
        {
          "internalType": "address",
          "name": "owner",
          "type": "address"
        }
      ],
      "name": "OwnerAlreadyExists",
      "type": "error"
    },
    {
      "inputs": [
        {
          "internalType": "address",
          "name": "owner",
          "type": "address"
        }
      ],
      "name": "OwnerNotFound",
      "type": "error"
    },
    {
      "inputs": [],
      "name": "ReentrancyGuardReentrantCall",
      "type": "error"
    },
    {
      "inputs": [],
      "name": "ZeroAddress",
      "type": "error"
    },
    {
      "anonymous": false,
      "inputs": [
        {
          "indexed": true,
          "internalType": "uint256",
          "name": "id",
          "type": "uint256"
        },
        {
          "indexed": true,
          "internalType": "address",
          "name": "target",
          "type": "address"
        },
        {
          "indexed": false,
          "internalType": "string",
          "name": "_description",
          "type": "string"
        },
        {
          "indexed": false,
          "internalType": "bytes",
          "name": "data",
          "type": "bytes"
        }
      ],
      "name": "ActionAdded",
      "type": "event"
    },
    {
      "anonymous": false,
      "inputs": [
        {
          "indexed": true,
          "internalType": "uint256",
          "name": "id",
          "type": "uint256"
        },
        {
          "indexed": true,
          "internalType": "address",
          "name": "target",
          "type": "address"
        },
        {
          "indexed": false,
          "internalType": "string",
          "name": "_description",
          "type": "string"
        },
        {
          "indexed": false,
          "internalType": "bytes",
          "name": "data",
          "type": "bytes"
        }
      ],
      "name": "ActionExecuted",
      "type": "event"
    },
    {
      "anonymous": false,
      "inputs": [
        {
          "indexed": true,
          "internalType": "uint256",
          "name": "id",
          "type": "uint256"
        },
        {
          "indexed": true,
          "internalType": "address",
          "name": "approver",
          "type": "address"
        }
      ],
      "name": "Approval",
      "type": "event"
    },
    {
      "anonymous": false,
      "inputs": [
        {
          "indexed": false,
          "internalType": "address[]",
          "name": "boardOfDirectors",
          "type": "address[]"
        }
      ],
      "name": "BoardOfDirectorsChanged",
      "type": "event"
    },
    {
      "anonymous": false,
      "inputs": [
        {
          "indexed": false,
          "internalType": "uint64",
          "name": "version",
          "type": "uint64"
        }
      ],
      "name": "Initialized",
      "type": "event"
    },
    {
      "anonymous": false,
      "inputs": [
        {
          "indexed": false,
          "internalType": "address[]",
          "name": "owners",
          "type": "address[]"
        }
      ],
      "name": "OwnersChanged",
      "type": "event"
    },
    {
      "anonymous": false,
      "inputs": [
        {
          "indexed": true,
          "internalType": "uint256",
          "name": "id",
          "type": "uint256"
        },
        {
          "indexed": true,
          "internalType": "address",
          "name": "approver",
          "type": "address"
        }
      ],
      "name": "Revocation",
      "type": "event"
    },
    {
      "inputs": [],
      "name": "actionCount",
      "outputs": [
        {
          "internalType": "uint256",
          "name": "",
          "type": "uint256"
        }
      ],
      "stateMutability": "view",
      "type": "function"
    },
    {
      "inputs": [
        {
          "internalType": "uint256",
          "name": "",
          "type": "uint256"
        }
      ],
      "name": "actions",
      "outputs": [
        {
          "internalType": "uint256",
          "name": "id",
          "type": "uint256"
        },
        {
          "internalType": "address",
          "name": "target",
          "type": "address"
        },
        {
          "internalType": "string",
          "name": "description",
          "type": "string"
        },
        {
          "internalType": "uint8",
          "name": "approvalCount",
          "type": "uint8"
        },
        {
          "internalType": "bool",
          "name": "isExecuted",
          "type": "bool"
        },
        {
          "internalType": "bytes",
          "name": "data",
          "type": "bytes"
        },
        {
          "internalType": "address",
          "name": "createdBy",
          "type": "address"
        }
      ],
      "stateMutability": "view",
      "type": "function"
    },
    {
      "inputs": [
        {
          "internalType": "address",
          "name": "_target",
          "type": "address"
        },
        {
          "internalType": "string",
          "name": "_description",
          "type": "string"
        },
        {
          "internalType": "bytes",
          "name": "_data",
          "type": "bytes"
        }
      ],
      "name": "addAction",
      "outputs": [],
      "stateMutability": "nonpayable",
      "type": "function"
    },
    {
      "inputs": [
        {
          "internalType": "address",
          "name": "_owner",
          "type": "address"
        }
      ],
      "name": "addOwner",
      "outputs": [],
      "stateMutability": "nonpayable",
      "type": "function"
    },
    {
      "inputs": [
        {
          "internalType": "uint256",
          "name": "_actionId",
          "type": "uint256"
        }
      ],
      "name": "approvalCount",
      "outputs": [
        {
          "internalType": "uint256",
          "name": "",
          "type": "uint256"
        }
      ],
      "stateMutability": "view",
      "type": "function"
    },
    {
      "inputs": [
        {
          "internalType": "uint256",
          "name": "_actionId",
          "type": "uint256"
        }
      ],
      "name": "approve",
      "outputs": [],
      "stateMutability": "nonpayable",
      "type": "function"
    },
    {
      "inputs": [],
      "name": "getBoardOfDirectors",
      "outputs": [
        {
          "internalType": "address[]",
          "name": "",
          "type": "address[]"
        }
      ],
      "stateMutability": "view",
      "type": "function"
    },
    {
      "inputs": [],
      "name": "getOwners",
      "outputs": [
        {
          "internalType": "address[]",
          "name": "",
          "type": "address[]"
        }
      ],
      "stateMutability": "view",
      "type": "function"
    },
    {
      "inputs": [
        {
          "internalType": "address[]",
          "name": "_owners",
          "type": "address[]"
        }
      ],
      "name": "initialize",
      "outputs": [],
      "stateMutability": "nonpayable",
      "type": "function"
    },
    {
      "inputs": [
        {
          "internalType": "uint256",
          "name": "_actionId",
          "type": "uint256"
        }
      ],
      "name": "isActionExecuted",
      "outputs": [
        {
          "internalType": "bool",
          "name": "",
          "type": "bool"
        }
      ],
      "stateMutability": "view",
      "type": "function"
    },
    {
      "inputs": [
        {
          "internalType": "uint256",
          "name": "_actionId",
          "type": "uint256"
        },
        {
          "internalType": "address",
          "name": "_address",
          "type": "address"
        }
      ],
      "name": "isApproved",
      "outputs": [
        {
          "internalType": "bool",
          "name": "",
          "type": "bool"
        }
      ],
      "stateMutability": "view",
      "type": "function"
    },
    {
      "inputs": [
        {
          "internalType": "address",
          "name": "_address",
          "type": "address"
        }
      ],
      "name": "isMember",
      "outputs": [
        {
          "internalType": "bool",
          "name": "",
          "type": "bool"
        }
      ],
      "stateMutability": "view",
      "type": "function"
    },
    {
      "inputs": [
        {
          "internalType": "address",
          "name": "_owner",
          "type": "address"
        }
      ],
      "name": "removeOwner",
      "outputs": [],
      "stateMutability": "nonpayable",
      "type": "function"
    },
    {
      "inputs": [
        {
          "internalType": "uint256",
          "name": "_actionId",
          "type": "uint256"
        }
      ],
      "name": "revoke",
      "outputs": [],
      "stateMutability": "nonpayable",
      "type": "function"
    },
    {
      "inputs": [
        {
          "internalType": "address[]",
          "name": "_boardOfDirectors",
          "type": "address[]"
        }
      ],
      "name": "setBoardOfDirectors",
      "outputs": [],
      "stateMutability": "nonpayable",
      "type": "function"
    },
    {
      "inputs": [
        {
          "internalType": "address[]",
          "name": "_owners",
          "type": "address[]"
        }
      ],
      "name": "setOwners",
      "outputs": [],
      "stateMutability": "nonpayable",
      "type": "function"
    }
  ],
  "bytecode": "0x608060405234801561001057600080fd5b5061001961001e565b6100d0565b7ff0c57e16840df040f15088dc2f81fe391c3923bec73e23a9662efc9c229c6a00805468010000000000000000900460ff161561006e5760405163f92ee8a960e01b815260040160405180910390fd5b80546001600160401b03908116146100cd5780546001600160401b0319166001600160401b0390811782556040519081527fc7f505b2f371ae2175ee4913f4499e1f2633a7b5936321eed1cdaeb6115181d29060200160405180910390a15b50565b6118e4806100df6000396000f3fe608060405234801561001057600080fd5b50600436106101005760003560e01c806383240f8311610097578063a8c24e2611610066578063a8c24e2614610221578063b759f95414610234578063bd59a03d14610247578063fa4d36981461027257600080fd5b806383240f83146101cd578063a0e67e2b146101f3578063a224cee7146101fb578063a230c5241461020e57600080fd5b806340ad01ea116100d357806340ad01ea1461015e57806356c31637146101845780637065cb48146101a757806371a5c572146101ba57600080fd5b8063173825d91461010557806320c5429b1461011a57806329da57381461012d5780632fb3d0af14610149575b600080fd5b610118610113366004611201565b610285565b005b61011861012836600461121c565b61032c565b61013660045481565b6040519081526020015b60405180910390f35b61015161045e565b6040516101409190611235565b61013661016c36600461121c565b60009081526005602052604090206003015460ff1690565b610197610192366004611282565b61046f565b6040519015158152602001610140565b6101186101b5366004611201565b61049f565b6101186101c83660046112f5565b610525565b6101e06101db36600461121c565b610685565b60405161014097969594939291906113e8565b6101516107ec565b6101186102093660046112f5565b6107f8565b61019761021c366004611201565b610998565b61011861022f3660046114a3565b6109a5565b61011861024236600461121c565b610aef565b61019761025536600461121c565b600090815260056020526040902060030154610100900460ff1690565b6101186102803660046112f5565b610c69565b3330146102a5576040516314e1dbf760e11b815260040160405180910390fd5b6102b0600082610d9b565b6102dd576040516349c59bd160e01b81526001600160a01b03821660048201526024015b60405180910390fd5b6102e8600082610dc0565b507f4d4e0931c18b0958388c890c5fb22106f83eb31c07fba54997f3495ad2ec6c266103146000610dd5565b6040516103219190611235565b60405180910390a150565b610337600233610d9b565b6103565760405163c3cfe59760e01b81523360048201526024016102d4565b600081815260056020526040902060030154610100900460ff16156103915760405163321550bf60e01b8152600481018290526024016102d4565b600081815260056020908152604080832033845260060190915290205460ff166103ce5760405163c19f17a960e01b815260040160405180910390fd5b6000818152600560208181526040808420338552600681018352908420805460ff19169055848452919052600301805460ff169161040b83611558565b91906101000a81548160ff021916908360ff16021790555050336001600160a01b0316817f01f63c1b9d3957c18de0c44c6275215a4ad8986480fd414a049af3c3643ec9b360405160405180910390a350565b606061046a6002610dd5565b905090565b60008281526005602090815260408083206001600160a01b038516845260060190915290205460ff165b92915050565b3330146104bf576040516314e1dbf760e11b815260040160405180910390fd5b6001600160a01b0381166104e65760405163d92e233d60e01b815260040160405180910390fd5b6104f1600082610d9b565b1561051a576040516316e832e960e21b81526001600160a01b03821660048201526024016102d4565b6102e8600082610de2565b610530600033610d9b565b61054f5760405163245aecd360e01b81523360048201526024016102d4565b8051600003610571576040516301857f4f60e61b815260040160405180910390fd5b600061057d6002610df7565b11156105ba5760006105a660016105946002610df7565b61059e9190611575565b600290610e01565b90506105b3600282610dc0565b5050610571565b805160005b818110156106495760006001600160a01b03168382815181106105e4576105e4611588565b60200260200101516001600160a01b0316036106135760405163d92e233d60e01b815260040160405180910390fd5b61064083828151811061062857610628611588565b60200260200101516002610de290919063ffffffff16565b506001016105bf565b507f752141a0ca1784bc0346da5668d09fafe5e628e052f654f7050cdafeb61c195b826040516106799190611235565b60405180910390a15050565b60056020526000908152604090208054600182015460028301805492936001600160a01b03909216926106b79061159e565b80601f01602080910402602001604051908101604052809291908181526020018280546106e39061159e565b80156107305780601f1061070557610100808354040283529160200191610730565b820191906000526020600020905b81548152906001019060200180831161071357829003601f168201915b505050506003830154600484018054939460ff808416956101009094041693509161075a9061159e565b80601f01602080910402602001604051908101604052809291908181526020018280546107869061159e565b80156107d35780601f106107a8576101008083540402835291602001916107d3565b820191906000526020600020905b8154815290600101906020018083116107b657829003601f168201915b505050600590930154919250506001600160a01b031687565b606061046a6000610dd5565b7ff0c57e16840df040f15088dc2f81fe391c3923bec73e23a9662efc9c229c6a008054600160401b810460ff16159067ffffffffffffffff1660008115801561083e5750825b905060008267ffffffffffffffff16600114801561085b5750303b155b905081158015610869575080155b156108875760405163f92ee8a960e01b815260040160405180910390fd5b845467ffffffffffffffff1916600117855583156108b157845460ff60401b1916600160401b1785555b855160005b818110156109405760006001600160a01b03168882815181106108db576108db611588565b60200260200101516001600160a01b03160361090a5760405163d92e233d60e01b815260040160405180910390fd5b61093788828151811061091f5761091f611588565b60200260200101516000610de290919063ffffffff16565b506001016108b6565b50610949610e0d565b50831561099057845460ff60401b19168555604051600181527fc7f505b2f371ae2175ee4913f4499e1f2633a7b5936321eed1cdaeb6115181d29060200160405180910390a15b505050505050565b6000610499600283610d9b565b6109b0600233610d9b565b6109cf5760405163c3cfe59760e01b81523360048201526024016102d4565b6001600160a01b0383166109f65760405163d92e233d60e01b815260040160405180910390fd5b60045460008181526005602052604090209081556001810180546001600160a01b0319166001600160a01b03861617905560028101610a358482611625565b5060048101610a448382611625565b506005810180546001600160a01b0319163390811790915560038201805460ff1990811660019081179092556000928352600684016020526040928390208054909116909117905560045490516001600160a01b03861691907fc484df370bd25a7feae253ddd56417813deedc701dceace2d06ffed0a991ea0e90610acc90879087906116e5565b60405180910390a360048054906000610ae483611713565b919050555050505050565b610afa600233610d9b565b610b195760405163c3cfe59760e01b81523360048201526024016102d4565b600081815260056020526040902060030154610100900460ff1615610b545760405163321550bf60e01b8152600481018290526024016102d4565b600081815260056020908152604080832033845260060190915290205460ff1615610b925760405163080fc0bd60e11b815260040160405180910390fd5b6000818152600560208181526040808420338552600681018352908420805460ff19166001179055848452919052600301805460ff1691610bd28361172c565b91906101000a81548160ff021916908360ff16021790555050336001600160a01b0316817f5c5eba18d22f000d8abde369b6bed499233b5f42bad94d08eff5b60de7e663c060405160405180910390a36002610c2e6002610df7565b610c38919061174b565b610c4390600161176d565b60008281526005602052604090206003015460ff1610610c6657610c6681610e1f565b50565b333014610c89576040516314e1dbf760e11b815260040160405180910390fd5b8051600003610cab576040516301857f4f60e61b815260040160405180910390fd5b6000610cb76000610df7565b1115610cf4576000610ce06001610cce6000610df7565b610cd89190611575565b600090610e01565b9050610ced600082610dc0565b5050610cab565b805160005b81811015610d6b5760006001600160a01b0316838281518110610d1e57610d1e611588565b60200260200101516001600160a01b031603610d4d5760405163d92e233d60e01b815260040160405180910390fd5b610d6283828151811061091f5761091f611588565b50600101610cf9565b507f4d4e0931c18b0958388c890c5fb22106f83eb31c07fba54997f3495ad2ec6c26826040516106799190611235565b6001600160a01b038116600090815260018301602052604081205415155b9392505050565b6000610db9836001600160a01b038416610f5c565b60606000610db98361104f565b6000610db9836001600160a01b0384166110ab565b6000610499825490565b6000610db983836110fa565b610e15611124565b610e1d61116d565b565b610e2761119b565b600081815260056020526040808220600181015491519092916001600160a01b031690610e58906004850190611780565b6000604051808303816000865af19150503d8060008114610e95576040519150601f19603f3d011682016040523d82523d6000602084013e610e9a565b606091505b5050905080610ecd57600182015460405163201be19160e01b81526001600160a01b0390911660048201526024016102d4565b60038201805461ff00191661010017905560018201546040516001600160a01b039091169084907f7d209626d0bd190ffb6bee0fcebeb18f3e3ed37daf67d3d45a966b0a9496fbe890610f299060028701906004880190611873565b60405180910390a35050610c6660017f9b779b17422d0df92223018b32b4d1fa46e071723d6817e2486d003becc55f0055565b60008181526001830160205260408120548015611045576000610f80600183611575565b8554909150600090610f9490600190611575565b9050808214610ff9576000866000018281548110610fb457610fb4611588565b9060005260206000200154905080876000018481548110610fd757610fd7611588565b6000918252602080832090910192909255918252600188019052604090208390555b855486908061100a5761100a611898565b600190038181906000526020600020016000905590558560010160008681526020019081526020016000206000905560019350505050610499565b6000915050610499565b60608160000180548060200260200160405190810160405280929190818152602001828054801561109f57602002820191906000526020600020905b81548152602001906001019080831161108b575b50505050509050919050565b60008181526001830160205260408120546110f257508154600181810184556000848152602080822090930184905584548482528286019093526040902091909155610499565b506000610499565b600082600001828154811061111157611111611588565b9060005260206000200154905092915050565b7ff0c57e16840df040f15088dc2f81fe391c3923bec73e23a9662efc9c229c6a0054600160401b900460ff16610e1d57604051631afcd79f60e31b815260040160405180910390fd5b611175611124565b60017f9b779b17422d0df92223018b32b4d1fa46e071723d6817e2486d003becc55f0055565b7f9b779b17422d0df92223018b32b4d1fa46e071723d6817e2486d003becc55f008054600119016111df57604051633ee5aeb560e01b815260040160405180910390fd5b60029055565b80356001600160a01b03811681146111fc57600080fd5b919050565b60006020828403121561121357600080fd5b610db9826111e5565b60006020828403121561122e57600080fd5b5035919050565b6020808252825182820181905260009190848201906040850190845b818110156112765783516001600160a01b031683529284019291840191600101611251565b50909695505050505050565b6000806040838503121561129557600080fd5b823591506112a5602084016111e5565b90509250929050565b634e487b7160e01b600052604160045260246000fd5b604051601f8201601f1916810167ffffffffffffffff811182821017156112ed576112ed6112ae565b604052919050565b6000602080838503121561130857600080fd5b823567ffffffffffffffff8082111561132057600080fd5b818501915085601f83011261133457600080fd5b813581811115611346576113466112ae565b8060051b91506113578483016112c4565b818152918301840191848101908884111561137157600080fd5b938501935b8385101561139657611387856111e5565b82529385019390850190611376565b98975050505050505050565b6000815180845260005b818110156113c8576020818501810151868301820152016113ac565b506000602082860101526020601f19601f83011685010191505092915050565b878152600060018060a01b03808916602084015260e0604084015261141060e08401896113a2565b60ff88166060850152861515608085015283810360a085015261143381876113a2565b92505080841660c08401525098975050505050505050565b600067ffffffffffffffff831115611465576114656112ae565b611478601f8401601f19166020016112c4565b905082815283838301111561148c57600080fd5b828260208301376000602084830101529392505050565b6000806000606084860312156114b857600080fd5b6114c1846111e5565b9250602084013567ffffffffffffffff808211156114de57600080fd5b818601915086601f8301126114f257600080fd5b6115018783356020850161144b565b9350604086013591508082111561151757600080fd5b508401601f8101861361152957600080fd5b6115388682356020840161144b565b9150509250925092565b634e487b7160e01b600052601160045260246000fd5b600060ff82168061156b5761156b611542565b6000190192915050565b8181038181111561049957610499611542565b634e487b7160e01b600052603260045260246000fd5b600181811c908216806115b257607f821691505b6020821081036115d257634e487b7160e01b600052602260045260246000fd5b50919050565b601f821115611620576000816000526020600020601f850160051c810160208610156116015750805b601f850160051c820191505b818110156109905782815560010161160d565b505050565b815167ffffffffffffffff81111561163f5761163f6112ae565b6116538161164d845461159e565b846115d8565b602080601f83116001811461168857600084156116705750858301515b600019600386901b1c1916600185901b178555610990565b600085815260208120601f198616915b828110156116b757888601518255948401946001909101908401611698565b50858210156116d55787850151600019600388901b60f8161c191681555b5050505050600190811b01905550565b6040815260006116f860408301856113a2565b828103602084015261170a81856113a2565b95945050505050565b60006001820161172557611725611542565b5060010190565b600060ff821660ff810361174257611742611542565b60010192915050565b60008261176857634e487b7160e01b600052601260045260246000fd5b500490565b8082018082111561049957610499611542565b600080835461178e8161159e565b600182811680156117a657600181146117bb576117ea565b60ff19841687528215158302870194506117ea565b8760005260208060002060005b858110156117e15781548a8201529084019082016117c8565b50505082870194505b50929695505050505050565b600081546118038161159e565b808552602060018381168015611820576001811461183a57611868565b60ff1985168884015283151560051b880183019550611868565b866000528260002060005b858110156118605781548a8201860152908301908401611845565b890184019650505b505050505092915050565b60408152600061188660408301856117f6565b828103602084015261170a81856117f6565b634e487b7160e01b600052603160045260246000fdfea26469706673582212209283ae3947140b68056b6b6415c64cc2643c7b06ca38e49785859e462b7587dc64736f6c63430008180033",
  "linkReferences": {},
  "deployedLinkReferences": {}
}