{
  "_format": "hh-sol-artifact-1",
  "contractName": "BoardOfDirectors",
  "sourceName": "contracts/BoardOfDirectors.sol",
  "abi": [
    {
      "inputs": [],
      "name": "InvalidInitialization",
      "type": "error"
    },
    {
      "inputs": [],
      "name": "NotInitializing",
      "type": "error"
    },
    {
      "inputs": [],
      "name": "ReentrancyGuardReentrantCall",
      "type": "error"
    },
    {
      "anonymous": false,
      "inputs": [
        {
          "indexed": true,
          "internalType": "uint256",
          "name": "id",
          "type": "uint256"
        },
        {
          "indexed": true,
          "internalType": "address",
          "name": "target",
          "type": "address"
        },
        {
          "indexed": false,
          "internalType": "string",
          "name": "_description",
          "type": "string"
        },
        {
          "indexed": false,
          "internalType": "bytes",
          "name": "data",
          "type": "bytes"
        }
      ],
      "name": "ActionAdded",
      "type": "event"
    },
    {
      "anonymous": false,
      "inputs": [
        {
          "indexed": true,
          "internalType": "uint256",
          "name": "id",
          "type": "uint256"
        },
        {
          "indexed": true,
          "internalType": "address",
          "name": "target",
          "type": "address"
        },
        {
          "indexed": false,
          "internalType": "string",
          "name": "_description",
          "type": "string"
        },
        {
          "indexed": false,
          "internalType": "bytes",
          "name": "data",
          "type": "bytes"
        }
      ],
      "name": "ActionExecuted",
      "type": "event"
    },
    {
      "anonymous": false,
      "inputs": [
        {
          "indexed": true,
          "internalType": "uint256",
          "name": "id",
          "type": "uint256"
        },
        {
          "indexed": true,
          "internalType": "address",
          "name": "approver",
          "type": "address"
        }
      ],
      "name": "Approval",
      "type": "event"
    },
    {
      "anonymous": false,
      "inputs": [
        {
          "indexed": false,
          "internalType": "address[]",
          "name": "boardOfDirectors",
          "type": "address[]"
        }
      ],
      "name": "BoardOfDirectorsChanged",
      "type": "event"
    },
    {
      "anonymous": false,
      "inputs": [
        {
          "indexed": false,
          "internalType": "uint64",
          "name": "version",
          "type": "uint64"
        }
      ],
      "name": "Initialized",
      "type": "event"
    },
    {
      "anonymous": false,
      "inputs": [
        {
          "indexed": false,
          "internalType": "address[]",
          "name": "owners",
          "type": "address[]"
        }
      ],
      "name": "OwnersChanged",
      "type": "event"
    },
    {
      "anonymous": false,
      "inputs": [
        {
          "indexed": true,
          "internalType": "uint256",
          "name": "id",
          "type": "uint256"
        },
        {
          "indexed": true,
          "internalType": "address",
          "name": "approver",
          "type": "address"
        }
      ],
      "name": "Revocation",
      "type": "event"
    },
    {
      "inputs": [],
      "name": "actionCount",
      "outputs": [
        {
          "internalType": "uint256",
          "name": "",
          "type": "uint256"
        }
      ],
      "stateMutability": "view",
      "type": "function"
    },
    {
      "inputs": [
        {
          "internalType": "uint256",
          "name": "",
          "type": "uint256"
        }
      ],
      "name": "actions",
      "outputs": [
        {
          "internalType": "uint256",
          "name": "id",
          "type": "uint256"
        },
        {
          "internalType": "address",
          "name": "target",
          "type": "address"
        },
        {
          "internalType": "string",
          "name": "description",
          "type": "string"
        },
        {
          "internalType": "uint8",
          "name": "approvalCount",
          "type": "uint8"
        },
        {
          "internalType": "bool",
          "name": "isExecuted",
          "type": "bool"
        },
        {
          "internalType": "bytes",
          "name": "data",
          "type": "bytes"
        },
        {
          "internalType": "address",
          "name": "createdBy",
          "type": "address"
        }
      ],
      "stateMutability": "view",
      "type": "function"
    },
    {
      "inputs": [
        {
          "internalType": "address",
          "name": "_target",
          "type": "address"
        },
        {
          "internalType": "string",
          "name": "_description",
          "type": "string"
        },
        {
          "internalType": "bytes",
          "name": "_data",
          "type": "bytes"
        }
      ],
      "name": "addAction",
      "outputs": [],
      "stateMutability": "nonpayable",
      "type": "function"
    },
    {
      "inputs": [
        {
          "internalType": "address",
          "name": "_owner",
          "type": "address"
        }
      ],
      "name": "addOwner",
      "outputs": [],
      "stateMutability": "nonpayable",
      "type": "function"
    },
    {
      "inputs": [
        {
          "internalType": "uint256",
          "name": "_actionId",
          "type": "uint256"
        }
      ],
      "name": "approvalCount",
      "outputs": [
        {
          "internalType": "uint256",
          "name": "",
          "type": "uint256"
        }
      ],
      "stateMutability": "view",
      "type": "function"
    },
    {
      "inputs": [
        {
          "internalType": "uint256",
          "name": "_actionId",
          "type": "uint256"
        }
      ],
      "name": "approve",
      "outputs": [],
      "stateMutability": "nonpayable",
      "type": "function"
    },
    {
      "inputs": [],
      "name": "getBoardOfDirectors",
      "outputs": [
        {
          "internalType": "address[]",
          "name": "",
          "type": "address[]"
        }
      ],
      "stateMutability": "view",
      "type": "function"
    },
    {
      "inputs": [],
      "name": "getOwners",
      "outputs": [
        {
          "internalType": "address[]",
          "name": "",
          "type": "address[]"
        }
      ],
      "stateMutability": "view",
      "type": "function"
    },
    {
      "inputs": [
        {
          "internalType": "address[]",
          "name": "_owners",
          "type": "address[]"
        }
      ],
      "name": "initialize",
      "outputs": [],
      "stateMutability": "nonpayable",
      "type": "function"
    },
    {
      "inputs": [
        {
          "internalType": "uint256",
          "name": "_actionId",
          "type": "uint256"
        }
      ],
      "name": "isActionExecuted",
      "outputs": [
        {
          "internalType": "bool",
          "name": "",
          "type": "bool"
        }
      ],
      "stateMutability": "view",
      "type": "function"
    },
    {
      "inputs": [
        {
          "internalType": "uint256",
          "name": "_actionId",
          "type": "uint256"
        },
        {
          "internalType": "address",
          "name": "_address",
          "type": "address"
        }
      ],
      "name": "isApproved",
      "outputs": [
        {
          "internalType": "bool",
          "name": "",
          "type": "bool"
        }
      ],
      "stateMutability": "view",
      "type": "function"
    },
    {
      "inputs": [
        {
          "internalType": "address",
          "name": "_address",
          "type": "address"
        }
      ],
      "name": "isMember",
      "outputs": [
        {
          "internalType": "bool",
          "name": "",
          "type": "bool"
        }
      ],
      "stateMutability": "view",
      "type": "function"
    },
    {
      "inputs": [
        {
          "internalType": "address",
          "name": "_owner",
          "type": "address"
        }
      ],
      "name": "removeOwner",
      "outputs": [],
      "stateMutability": "nonpayable",
      "type": "function"
    },
    {
      "inputs": [
        {
          "internalType": "uint256",
          "name": "_actionId",
          "type": "uint256"
        }
      ],
      "name": "revoke",
      "outputs": [],
      "stateMutability": "nonpayable",
      "type": "function"
    },
    {
      "inputs": [
        {
          "internalType": "address[]",
          "name": "_boardOfDirectors",
          "type": "address[]"
        }
      ],
      "name": "setBoardOfDirectors",
      "outputs": [],
      "stateMutability": "nonpayable",
      "type": "function"
    },
    {
      "inputs": [
        {
          "internalType": "address[]",
          "name": "_owners",
          "type": "address[]"
        }
      ],
      "name": "setOwners",
      "outputs": [],
      "stateMutability": "nonpayable",
      "type": "function"
    }
  ],
  "bytecode": "0x608060405234801561001057600080fd5b50611b2a806100206000396000f3fe608060405234801561001057600080fd5b50600436106101005760003560e01c806383240f8311610097578063a8c24e2611610066578063a8c24e2614610221578063b759f95414610234578063bd59a03d14610247578063fa4d36981461027257600080fd5b806383240f83146101cd578063a0e67e2b146101f3578063a224cee7146101fb578063a230c5241461020e57600080fd5b806340ad01ea116100d357806340ad01ea1461015e57806356c31637146101845780637065cb48146101a757806371a5c572146101ba57600080fd5b8063173825d91461010557806320c5429b1461011a57806329da57381461012d5780632fb3d0af14610149575b600080fd5b6101186101133660046113a8565b610285565b005b6101186101283660046113c3565b610345565b61013660045481565b6040519081526020015b60405180910390f35b6101516104b8565b60405161014091906113dc565b61013661016c3660046113c3565b60009081526005602052604090206003015460ff1690565b610197610192366004611429565b6104c9565b6040519015158152602001610140565b6101186101b53660046113a8565b6104f9565b6101186101c836600461149c565b610598565b6101e06101db3660046113c3565b610798565b604051610140979695949392919061158f565b6101516108ff565b61011861020936600461149c565b61090b565b61019761021c3660046113a8565b610a96565b61011861022f36600461164a565b610aa3565b6101186102423660046113c3565b610c12565b6101976102553660046113c3565b600090815260056020526040902060030154610100900460ff1690565b61011861028036600461149c565b610dc6565b3330146102ad5760405162461bcd60e51b81526004016102a4906116e9565b60405180910390fd5b6102b8600082610f17565b6102f65760405162461bcd60e51b815260206004820152600f60248201526e13dddb995c881b9bdd08199bdd5b99608a1b60448201526064016102a4565b610301600082610f3c565b507f4d4e0931c18b0958388c890c5fb22106f83eb31c07fba54997f3495ad2ec6c2661032d6000610f51565b60405161033a91906113dc565b60405180910390a150565b610350600233610f17565b61036c5760405162461bcd60e51b81526004016102a49061171e565b600081815260056020526040902060030154610100900460ff16156103cd5760405162461bcd60e51b81526020600482015260176024820152761058dd1a5bdb88185b1c9958591e48195e1958dd5d1959604a1b60448201526064016102a4565b600081815260056020908152604080832033845260060190915290205460ff166104285760405162461bcd60e51b815260206004820152600c60248201526b139bdd08185c1c1c9bdd995960a21b60448201526064016102a4565b6000818152600560208181526040808420338552600681018352908420805460ff19169055848452919052600301805460ff169161046583611782565b91906101000a81548160ff021916908360ff16021790555050336001600160a01b0316817f01f63c1b9d3957c18de0c44c6275215a4ad8986480fd414a049af3c3643ec9b360405160405180910390a350565b60606104c46002610f51565b905090565b60008281526005602090815260408083206001600160a01b038516845260060190915290205460ff165b92915050565b3330146105185760405162461bcd60e51b81526004016102a4906116e9565b6001600160a01b03811661053e5760405162461bcd60e51b81526004016102a49061179f565b610549600082610f17565b1561058d5760405162461bcd60e51b81526020600482015260146024820152734f776e657220616c72656164792065786973747360601b60448201526064016102a4565b610301600082610f5e565b6105a3600033610f17565b6105f95760405162461bcd60e51b815260206004820152602160248201527f4f6e6c79206f776e65722063616e2063616c6c20746869732066756e6374696f6044820152603760f91b60648201526084016102a4565b600081511161064a5760405162461bcd60e51b815260206004820152601b60248201527f426f617264206f66206469726563746f7273207265717569726564000000000060448201526064016102a4565b60006106566002610f73565b111561069357600061067f600161066d6002610f73565b61067791906117ce565b600290610f7d565b905061068c600282610f3c565b505061064a565b805160005b8181101561075c5760006001600160a01b03168382815181106106bd576106bd6117e1565b60200260200101516001600160a01b0316036107265760405162461bcd60e51b815260206004820152602260248201527f496e76616c696420626f617264206f66206469726563746f7273206164647265604482015261737360f01b60648201526084016102a4565b61075383828151811061073b5761073b6117e1565b60200260200101516002610f5e90919063ffffffff16565b50600101610698565b507f752141a0ca1784bc0346da5668d09fafe5e628e052f654f7050cdafeb61c195b8260405161078c91906113dc565b60405180910390a15050565b60056020526000908152604090208054600182015460028301805492936001600160a01b03909216926107ca906117f7565b80601f01602080910402602001604051908101604052809291908181526020018280546107f6906117f7565b80156108435780601f1061081857610100808354040283529160200191610843565b820191906000526020600020905b81548152906001019060200180831161082657829003601f168201915b505050506003830154600484018054939460ff808416956101009094041693509161086d906117f7565b80601f0160208091040260200160405190810160405280929190818152602001828054610899906117f7565b80156108e65780601f106108bb576101008083540402835291602001916108e6565b820191906000526020600020905b8154815290600101906020018083116108c957829003601f168201915b505050600590930154919250506001600160a01b031687565b60606104c46000610f51565b6000610915610f89565b805490915060ff600160401b820416159067ffffffffffffffff1660008115801561093d5750825b905060008267ffffffffffffffff16600114801561095a5750303b155b905081158015610968575080155b156109865760405163f92ee8a960e01b815260040160405180910390fd5b845467ffffffffffffffff1916600117855583156109b057845460ff60401b1916600160401b1785555b855160005b81811015610a3e5760006001600160a01b03168882815181106109da576109da6117e1565b60200260200101516001600160a01b031603610a085760405162461bcd60e51b81526004016102a49061179f565b610a35888281518110610a1d57610a1d6117e1565b60200260200101516000610f5e90919063ffffffff16565b506001016109b5565b50610a47610fb2565b508315610a8e57845460ff60401b19168555604051600181527fc7f505b2f371ae2175ee4913f4499e1f2633a7b5936321eed1cdaeb6115181d29060200160405180910390a15b505050505050565b60006104f3600283610f17565b610aae600233610f17565b610aca5760405162461bcd60e51b81526004016102a49061171e565b6001600160a01b038316610b195760405162461bcd60e51b8152602060048201526016602482015275496e76616c696420746172676574206164647265737360501b60448201526064016102a4565b60045460008181526005602052604090209081556001810180546001600160a01b0319166001600160a01b03861617905560028101610b58848261187e565b5060048101610b67838261187e565b506005810180546001600160a01b0319163390811790915560038201805460ff1990811660019081179092556000928352600684016020526040928390208054909116909117905560045490516001600160a01b03861691907fc484df370bd25a7feae253ddd56417813deedc701dceace2d06ffed0a991ea0e90610bef908790879061193e565b60405180910390a360048054906000610c078361196c565b919050555050505050565b610c1d600233610f17565b610c395760405162461bcd60e51b81526004016102a49061171e565b600081815260056020526040902060030154610100900460ff1615610c9a5760405162461bcd60e51b81526020600482015260176024820152761058dd1a5bdb88185b1c9958591e48195e1958dd5d1959604a1b60448201526064016102a4565b600081815260056020908152604080832033845260060190915290205460ff1615610cfa5760405162461bcd60e51b815260206004820152601060248201526f105b1c9958591e48185c1c1c9bdd995960821b60448201526064016102a4565b6000818152600560208181526040808420338552600681018352908420805460ff19166001179055848452919052600301805460ff1691610d3a83611985565b91906101000a81548160ff021916908360ff16021790555050336001600160a01b0316817f5c5eba18d22f000d8abde369b6bed499233b5f42bad94d08eff5b60de7e663c060405160405180910390a36002610d966002610f73565b610da091906119a4565b60008281526005602052604090206003015460ff1610610dc357610dc381610fc4565b50565b333014610de55760405162461bcd60e51b81526004016102a4906116e9565b6000815111610e285760405162461bcd60e51b815260206004820152600f60248201526e13dddb995c9cc81c995c5d5a5c9959608a1b60448201526064016102a4565b6000610e346000610f73565b1115610e71576000610e5d6001610e4b6000610f73565b610e5591906117ce565b600090610f7d565b9050610e6a600082610f3c565b5050610e28565b805160005b81811015610ee75760006001600160a01b0316838281518110610e9b57610e9b6117e1565b60200260200101516001600160a01b031603610ec95760405162461bcd60e51b81526004016102a49061179f565b610ede838281518110610a1d57610a1d6117e1565b50600101610e76565b507f4d4e0931c18b0958388c890c5fb22106f83eb31c07fba54997f3495ad2ec6c268260405161078c91906113dc565b6001600160a01b038116600090815260018301602052604081205415155b9392505050565b6000610f35836001600160a01b03841661110d565b60606000610f3583611200565b6000610f35836001600160a01b03841661125c565b60006104f3825490565b6000610f3583836112ab565b6000807ff0c57e16840df040f15088dc2f81fe391c3923bec73e23a9662efc9c229c6a006104f3565b610fba6112d5565b610fc26112fa565b565b610fcc611328565b600081815260056020526040808220600181015491519092916001600160a01b031690610ffd9060048501906119c6565b6000604051808303816000865af19150503d806000811461103a576040519150601f19603f3d011682016040523d82523d6000602084013e61103f565b606091505b505090508061107e5760405162461bcd60e51b815260206004820152600b60248201526a10d85b1b0819985a5b195960aa1b60448201526064016102a4565b60038201805461ff00191661010017905560018201546040516001600160a01b039091169084907f7d209626d0bd190ffb6bee0fcebeb18f3e3ed37daf67d3d45a966b0a9496fbe8906110da9060028701906004880190611ab9565b60405180910390a35050610dc360017f9b779b17422d0df92223018b32b4d1fa46e071723d6817e2486d003becc55f0055565b600081815260018301602052604081205480156111f65760006111316001836117ce565b8554909150600090611145906001906117ce565b90508082146111aa576000866000018281548110611165576111656117e1565b9060005260206000200154905080876000018481548110611188576111886117e1565b6000918252602080832090910192909255918252600188019052604090208390555b85548690806111bb576111bb611ade565b6001900381819060005260206000200160009055905585600101600086815260200190815260200160002060009055600193505050506104f3565b60009150506104f3565b60608160000180548060200260200160405190810160405280929190818152602001828054801561125057602002820191906000526020600020905b81548152602001906001019080831161123c575b50505050509050919050565b60008181526001830160205260408120546112a3575081546001818101845560008481526020808220909301849055845484825282860190935260409020919091556104f3565b5060006104f3565b60008260000182815481106112c2576112c26117e1565b9060005260206000200154905092915050565b6112dd611372565b610fc257604051631afcd79f60e31b815260040160405180910390fd5b6113026112d5565b60017f9b779b17422d0df92223018b32b4d1fa46e071723d6817e2486d003becc55f0055565b7f9b779b17422d0df92223018b32b4d1fa46e071723d6817e2486d003becc55f0080546001190161136c57604051633ee5aeb560e01b815260040160405180910390fd5b60029055565b600061137c610f89565b54600160401b900460ff16919050565b80356001600160a01b03811681146113a357600080fd5b919050565b6000602082840312156113ba57600080fd5b610f358261138c565b6000602082840312156113d557600080fd5b5035919050565b6020808252825182820181905260009190848201906040850190845b8181101561141d5783516001600160a01b0316835292840192918401916001016113f8565b50909695505050505050565b6000806040838503121561143c57600080fd5b8235915061144c6020840161138c565b90509250929050565b634e487b7160e01b600052604160045260246000fd5b604051601f8201601f1916810167ffffffffffffffff8111828210171561149457611494611455565b604052919050565b600060208083850312156114af57600080fd5b823567ffffffffffffffff808211156114c757600080fd5b818501915085601f8301126114db57600080fd5b8135818111156114ed576114ed611455565b8060051b91506114fe84830161146b565b818152918301840191848101908884111561151857600080fd5b938501935b8385101561153d5761152e8561138c565b8252938501939085019061151d565b98975050505050505050565b6000815180845260005b8181101561156f57602081850181015186830182015201611553565b506000602082860101526020601f19601f83011685010191505092915050565b878152600060018060a01b03808916602084015260e060408401526115b760e0840189611549565b60ff88166060850152861515608085015283810360a08501526115da8187611549565b92505080841660c08401525098975050505050505050565b600067ffffffffffffffff83111561160c5761160c611455565b61161f601f8401601f191660200161146b565b905082815283838301111561163357600080fd5b828260208301376000602084830101529392505050565b60008060006060848603121561165f57600080fd5b6116688461138c565b9250602084013567ffffffffffffffff8082111561168557600080fd5b818601915086601f83011261169957600080fd5b6116a8878335602085016115f2565b935060408601359150808211156116be57600080fd5b508401601f810186136116d057600080fd5b6116df868235602084016115f2565b9150509250925092565b6020808252818101527f4f6e6c792073656c662063616e2063616c6c20746869732066756e6374696f6e604082015260600190565b6020808252602e908201527f4f6e6c7920626f617264206f66206469726563746f72732063616e2063616c6c60408201526d103a3434b990333ab731ba34b7b760911b606082015260800190565b634e487b7160e01b600052601160045260246000fd5b600060ff8216806117955761179561176c565b6000190192915050565b602080825260159082015274496e76616c6964206f776e6572206164647265737360581b604082015260600190565b818103818111156104f3576104f361176c565b634e487b7160e01b600052603260045260246000fd5b600181811c9082168061180b57607f821691505b60208210810361182b57634e487b7160e01b600052602260045260246000fd5b50919050565b601f821115611879576000816000526020600020601f850160051c8101602086101561185a5750805b601f850160051c820191505b81811015610a8e57828155600101611866565b505050565b815167ffffffffffffffff81111561189857611898611455565b6118ac816118a684546117f7565b84611831565b602080601f8311600181146118e157600084156118c95750858301515b600019600386901b1c1916600185901b178555610a8e565b600085815260208120601f198616915b82811015611910578886015182559484019460019091019084016118f1565b508582101561192e5787850151600019600388901b60f8161c191681555b5050505050600190811b01905550565b6040815260006119516040830185611549565b82810360208401526119638185611549565b95945050505050565b60006001820161197e5761197e61176c565b5060010190565b600060ff821660ff810361199b5761199b61176c565b60010192915050565b6000826119c157634e487b7160e01b600052601260045260246000fd5b500490565b60008083546119d4816117f7565b600182811680156119ec5760018114611a0157611a30565b60ff1984168752821515830287019450611a30565b8760005260208060002060005b85811015611a275781548a820152908401908201611a0e565b50505082870194505b50929695505050505050565b60008154611a49816117f7565b808552602060018381168015611a665760018114611a8057611aae565b60ff1985168884015283151560051b880183019550611aae565b866000528260002060005b85811015611aa65781548a8201860152908301908401611a8b565b890184019650505b505050505092915050565b604081526000611acc6040830185611a3c565b82810360208401526119638185611a3c565b634e487b7160e01b600052603160045260246000fdfea2646970667358221220b524c5fe89a054c60acb5beeb5dd6e04444efdc0b48d64ec1cdafc900818060864736f6c63430008180033",
  "linkReferences": {},
  "deployedLinkReferences": {}
}