{
  "_format": "hh-sol-artifact-1",
  "contractName": "BoardOfDirectors",
  "sourceName": "contracts/BoardOfDirectors.sol",
  "abi": [
    {
      "inputs": [],
      "name": "InvalidInitialization",
      "type": "error"
    },
    {
      "inputs": [],
      "name": "NotInitializing",
      "type": "error"
    },
    {
      "inputs": [],
      "name": "ReentrancyGuardReentrantCall",
      "type": "error"
    },
    {
      "anonymous": false,
      "inputs": [
        {
          "indexed": true,
          "internalType": "uint256",
          "name": "id",
          "type": "uint256"
        },
        {
          "indexed": true,
          "internalType": "address",
          "name": "target",
          "type": "address"
        },
        {
          "indexed": false,
          "internalType": "string",
          "name": "_description",
          "type": "string"
        },
        {
          "indexed": false,
          "internalType": "bytes",
          "name": "data",
          "type": "bytes"
        }
      ],
      "name": "ActionAdded",
      "type": "event"
    },
    {
      "anonymous": false,
      "inputs": [
        {
          "indexed": true,
          "internalType": "uint256",
          "name": "id",
          "type": "uint256"
        },
        {
          "indexed": true,
          "internalType": "address",
          "name": "target",
          "type": "address"
        },
        {
          "indexed": false,
          "internalType": "string",
          "name": "_description",
          "type": "string"
        },
        {
          "indexed": false,
          "internalType": "bytes",
          "name": "data",
          "type": "bytes"
        }
      ],
      "name": "ActionExecuted",
      "type": "event"
    },
    {
      "anonymous": false,
      "inputs": [
        {
          "indexed": true,
          "internalType": "uint256",
          "name": "id",
          "type": "uint256"
        },
        {
          "indexed": true,
          "internalType": "address",
          "name": "approver",
          "type": "address"
        }
      ],
      "name": "Approval",
      "type": "event"
    },
    {
      "anonymous": false,
      "inputs": [
        {
          "indexed": false,
          "internalType": "address[]",
          "name": "boardOfDirectors",
          "type": "address[]"
        }
      ],
      "name": "BoardOfDirectorsChanged",
      "type": "event"
    },
    {
      "anonymous": false,
      "inputs": [
        {
          "indexed": false,
          "internalType": "uint64",
          "name": "version",
          "type": "uint64"
        }
      ],
      "name": "Initialized",
      "type": "event"
    },
    {
      "anonymous": false,
      "inputs": [
        {
          "indexed": false,
          "internalType": "address[]",
          "name": "owners",
          "type": "address[]"
        }
      ],
      "name": "OwnersChanged",
      "type": "event"
    },
    {
      "anonymous": false,
      "inputs": [
        {
          "indexed": true,
          "internalType": "uint256",
          "name": "id",
          "type": "uint256"
        },
        {
          "indexed": true,
          "internalType": "address",
          "name": "approver",
          "type": "address"
        }
      ],
      "name": "Revocation",
      "type": "event"
    },
    {
      "inputs": [],
      "name": "actionCount",
      "outputs": [
        {
          "internalType": "uint256",
          "name": "",
          "type": "uint256"
        }
      ],
      "stateMutability": "view",
      "type": "function"
    },
    {
      "inputs": [
        {
          "internalType": "uint256",
          "name": "",
          "type": "uint256"
        }
      ],
      "name": "actions",
      "outputs": [
        {
          "internalType": "uint256",
          "name": "id",
          "type": "uint256"
        },
        {
          "internalType": "address",
          "name": "target",
          "type": "address"
        },
        {
          "internalType": "string",
          "name": "description",
          "type": "string"
        },
        {
          "internalType": "uint8",
          "name": "approvalCount",
          "type": "uint8"
        },
        {
          "internalType": "bool",
          "name": "isExecuted",
          "type": "bool"
        },
        {
          "internalType": "bytes",
          "name": "data",
          "type": "bytes"
        },
        {
          "internalType": "address",
          "name": "createdBy",
          "type": "address"
        }
      ],
      "stateMutability": "view",
      "type": "function"
    },
    {
      "inputs": [
        {
          "internalType": "address",
          "name": "_target",
          "type": "address"
        },
        {
          "internalType": "string",
          "name": "_description",
          "type": "string"
        },
        {
          "internalType": "bytes",
          "name": "_data",
          "type": "bytes"
        }
      ],
      "name": "addAction",
      "outputs": [],
      "stateMutability": "nonpayable",
      "type": "function"
    },
    {
      "inputs": [
        {
          "internalType": "address",
          "name": "_owner",
          "type": "address"
        }
      ],
      "name": "addOwner",
      "outputs": [],
      "stateMutability": "nonpayable",
      "type": "function"
    },
    {
      "inputs": [
        {
          "internalType": "uint256",
          "name": "_actionId",
          "type": "uint256"
        }
      ],
      "name": "approvalCount",
      "outputs": [
        {
          "internalType": "uint256",
          "name": "",
          "type": "uint256"
        }
      ],
      "stateMutability": "view",
      "type": "function"
    },
    {
      "inputs": [
        {
          "internalType": "uint256",
          "name": "_actionId",
          "type": "uint256"
        }
      ],
      "name": "approve",
      "outputs": [],
      "stateMutability": "nonpayable",
      "type": "function"
    },
    {
      "inputs": [],
      "name": "getBoardOfDirectors",
      "outputs": [
        {
          "internalType": "address[]",
          "name": "",
          "type": "address[]"
        }
      ],
      "stateMutability": "view",
      "type": "function"
    },
    {
      "inputs": [],
      "name": "getOwners",
      "outputs": [
        {
          "internalType": "address[]",
          "name": "",
          "type": "address[]"
        }
      ],
      "stateMutability": "view",
      "type": "function"
    },
    {
      "inputs": [
        {
          "internalType": "address[]",
          "name": "_owners",
          "type": "address[]"
        }
      ],
      "name": "initialize",
      "outputs": [],
      "stateMutability": "nonpayable",
      "type": "function"
    },
    {
      "inputs": [
        {
          "internalType": "uint256",
          "name": "_actionId",
          "type": "uint256"
        }
      ],
      "name": "isActionExecuted",
      "outputs": [
        {
          "internalType": "bool",
          "name": "",
          "type": "bool"
        }
      ],
      "stateMutability": "view",
      "type": "function"
    },
    {
      "inputs": [
        {
          "internalType": "uint256",
          "name": "_actionId",
          "type": "uint256"
        },
        {
          "internalType": "address",
          "name": "_address",
          "type": "address"
        }
      ],
      "name": "isApproved",
      "outputs": [
        {
          "internalType": "bool",
          "name": "",
          "type": "bool"
        }
      ],
      "stateMutability": "view",
      "type": "function"
    },
    {
      "inputs": [
        {
          "internalType": "address",
          "name": "_owner",
          "type": "address"
        }
      ],
      "name": "removeOwner",
      "outputs": [],
      "stateMutability": "nonpayable",
      "type": "function"
    },
    {
      "inputs": [
        {
          "internalType": "uint256",
          "name": "_actionId",
          "type": "uint256"
        }
      ],
      "name": "revoke",
      "outputs": [],
      "stateMutability": "nonpayable",
      "type": "function"
    },
    {
      "inputs": [
        {
          "internalType": "address[]",
          "name": "_boardOfDirectors",
          "type": "address[]"
        }
      ],
      "name": "setBoardOfDirectors",
      "outputs": [],
      "stateMutability": "nonpayable",
      "type": "function"
    },
    {
      "inputs": [
        {
          "internalType": "address[]",
          "name": "_owners",
          "type": "address[]"
        }
      ],
      "name": "setOwners",
      "outputs": [],
      "stateMutability": "nonpayable",
      "type": "function"
    }
  ],
  "bytecode": "0x608060405234801561001057600080fd5b50611aff806100206000396000f3fe608060405234801561001057600080fd5b50600436106100f55760003560e01c806371a5c57211610097578063a8c24e2611610066578063a8c24e2614610203578063b759f95414610216578063bd59a03d14610229578063fa4d36981461025457600080fd5b806371a5c572146101af57806383240f83146101c2578063a0e67e2b146101e8578063a224cee7146101f057600080fd5b80632fb3d0af116100d35780632fb3d0af1461013e57806340ad01ea1461015357806356c31637146101795780637065cb481461019c57600080fd5b8063173825d9146100fa57806320c5429b1461010f57806329da573814610122575b600080fd5b61010d61010836600461137d565b610267565b005b61010d61011d366004611398565b610327565b61012b60045481565b6040519081526020015b60405180910390f35b61014661049a565b60405161013591906113b1565b61012b610161366004611398565b60009081526005602052604090206003015460ff1690565b61018c6101873660046113fe565b6104ab565b6040519015158152602001610135565b61010d6101aa36600461137d565b6104db565b61010d6101bd366004611471565b61057a565b6101d56101d0366004611398565b61077a565b6040516101359796959493929190611564565b6101466108e1565b61010d6101fe366004611471565b6108ed565b61010d61021136600461161f565b610a78565b61010d610224366004611398565b610be7565b61018c610237366004611398565b600090815260056020526040902060030154610100900460ff1690565b61010d610262366004611471565b610d9b565b33301461028f5760405162461bcd60e51b8152600401610286906116be565b60405180910390fd5b61029a600082610eec565b6102d85760405162461bcd60e51b815260206004820152600f60248201526e13dddb995c881b9bdd08199bdd5b99608a1b6044820152606401610286565b6102e3600082610f11565b507f4d4e0931c18b0958388c890c5fb22106f83eb31c07fba54997f3495ad2ec6c2661030f6000610f26565b60405161031c91906113b1565b60405180910390a150565b610332600233610eec565b61034e5760405162461bcd60e51b8152600401610286906116f3565b600081815260056020526040902060030154610100900460ff16156103af5760405162461bcd60e51b81526020600482015260176024820152761058dd1a5bdb88185b1c9958591e48195e1958dd5d1959604a1b6044820152606401610286565b600081815260056020908152604080832033845260060190915290205460ff1661040a5760405162461bcd60e51b815260206004820152600c60248201526b139bdd08185c1c1c9bdd995960a21b6044820152606401610286565b6000818152600560208181526040808420338552600681018352908420805460ff19169055848452919052600301805460ff169161044783611757565b91906101000a81548160ff021916908360ff16021790555050336001600160a01b0316817f01f63c1b9d3957c18de0c44c6275215a4ad8986480fd414a049af3c3643ec9b360405160405180910390a350565b60606104a66002610f26565b905090565b60008281526005602090815260408083206001600160a01b038516845260060190915290205460ff165b92915050565b3330146104fa5760405162461bcd60e51b8152600401610286906116be565b6001600160a01b0381166105205760405162461bcd60e51b815260040161028690611774565b61052b600082610eec565b1561056f5760405162461bcd60e51b81526020600482015260146024820152734f776e657220616c72656164792065786973747360601b6044820152606401610286565b6102e3600082610f33565b610585600033610eec565b6105db5760405162461bcd60e51b815260206004820152602160248201527f4f6e6c79206f776e65722063616e2063616c6c20746869732066756e6374696f6044820152603760f91b6064820152608401610286565b600081511161062c5760405162461bcd60e51b815260206004820152601b60248201527f426f617264206f66206469726563746f727320726571756972656400000000006044820152606401610286565b60006106386002610f48565b1115610675576000610661600161064f6002610f48565b61065991906117a3565b600290610f52565b905061066e600282610f11565b505061062c565b805160005b8181101561073e5760006001600160a01b031683828151811061069f5761069f6117b6565b60200260200101516001600160a01b0316036107085760405162461bcd60e51b815260206004820152602260248201527f496e76616c696420626f617264206f66206469726563746f7273206164647265604482015261737360f01b6064820152608401610286565b61073583828151811061071d5761071d6117b6565b60200260200101516002610f3390919063ffffffff16565b5060010161067a565b507f752141a0ca1784bc0346da5668d09fafe5e628e052f654f7050cdafeb61c195b8260405161076e91906113b1565b60405180910390a15050565b60056020526000908152604090208054600182015460028301805492936001600160a01b03909216926107ac906117cc565b80601f01602080910402602001604051908101604052809291908181526020018280546107d8906117cc565b80156108255780601f106107fa57610100808354040283529160200191610825565b820191906000526020600020905b81548152906001019060200180831161080857829003601f168201915b505050506003830154600484018054939460ff808416956101009094041693509161084f906117cc565b80601f016020809104026020016040519081016040528092919081815260200182805461087b906117cc565b80156108c85780601f1061089d576101008083540402835291602001916108c8565b820191906000526020600020905b8154815290600101906020018083116108ab57829003601f168201915b505050600590930154919250506001600160a01b031687565b60606104a66000610f26565b60006108f7610f5e565b805490915060ff600160401b820416159067ffffffffffffffff1660008115801561091f5750825b905060008267ffffffffffffffff16600114801561093c5750303b155b90508115801561094a575080155b156109685760405163f92ee8a960e01b815260040160405180910390fd5b845467ffffffffffffffff19166001178555831561099257845460ff60401b1916600160401b1785555b855160005b81811015610a205760006001600160a01b03168882815181106109bc576109bc6117b6565b60200260200101516001600160a01b0316036109ea5760405162461bcd60e51b815260040161028690611774565b610a178882815181106109ff576109ff6117b6565b60200260200101516000610f3390919063ffffffff16565b50600101610997565b50610a29610f87565b508315610a7057845460ff60401b19168555604051600181527fc7f505b2f371ae2175ee4913f4499e1f2633a7b5936321eed1cdaeb6115181d29060200160405180910390a15b505050505050565b610a83600233610eec565b610a9f5760405162461bcd60e51b8152600401610286906116f3565b6001600160a01b038316610aee5760405162461bcd60e51b8152602060048201526016602482015275496e76616c696420746172676574206164647265737360501b6044820152606401610286565b60045460008181526005602052604090209081556001810180546001600160a01b0319166001600160a01b03861617905560028101610b2d8482611853565b5060048101610b3c8382611853565b506005810180546001600160a01b0319163390811790915560038201805460ff1990811660019081179092556000928352600684016020526040928390208054909116909117905560045490516001600160a01b03861691907fc484df370bd25a7feae253ddd56417813deedc701dceace2d06ffed0a991ea0e90610bc49087908790611913565b60405180910390a360048054906000610bdc83611941565b919050555050505050565b610bf2600233610eec565b610c0e5760405162461bcd60e51b8152600401610286906116f3565b600081815260056020526040902060030154610100900460ff1615610c6f5760405162461bcd60e51b81526020600482015260176024820152761058dd1a5bdb88185b1c9958591e48195e1958dd5d1959604a1b6044820152606401610286565b600081815260056020908152604080832033845260060190915290205460ff1615610ccf5760405162461bcd60e51b815260206004820152601060248201526f105b1c9958591e48185c1c1c9bdd995960821b6044820152606401610286565b6000818152600560208181526040808420338552600681018352908420805460ff19166001179055848452919052600301805460ff1691610d0f8361195a565b91906101000a81548160ff021916908360ff16021790555050336001600160a01b0316817f5c5eba18d22f000d8abde369b6bed499233b5f42bad94d08eff5b60de7e663c060405160405180910390a36002610d6b6002610f48565b610d759190611979565b60008281526005602052604090206003015460ff1610610d9857610d9881610f99565b50565b333014610dba5760405162461bcd60e51b8152600401610286906116be565b6000815111610dfd5760405162461bcd60e51b815260206004820152600f60248201526e13dddb995c9cc81c995c5d5a5c9959608a1b6044820152606401610286565b6000610e096000610f48565b1115610e46576000610e326001610e206000610f48565b610e2a91906117a3565b600090610f52565b9050610e3f600082610f11565b5050610dfd565b805160005b81811015610ebc5760006001600160a01b0316838281518110610e7057610e706117b6565b60200260200101516001600160a01b031603610e9e5760405162461bcd60e51b815260040161028690611774565b610eb38382815181106109ff576109ff6117b6565b50600101610e4b565b507f4d4e0931c18b0958388c890c5fb22106f83eb31c07fba54997f3495ad2ec6c268260405161076e91906113b1565b6001600160a01b038116600090815260018301602052604081205415155b9392505050565b6000610f0a836001600160a01b0384166110e2565b60606000610f0a836111d5565b6000610f0a836001600160a01b038416611231565b60006104d5825490565b6000610f0a8383611280565b6000807ff0c57e16840df040f15088dc2f81fe391c3923bec73e23a9662efc9c229c6a006104d5565b610f8f6112aa565b610f976112cf565b565b610fa16112fd565b600081815260056020526040808220600181015491519092916001600160a01b031690610fd290600485019061199b565b6000604051808303816000865af19150503d806000811461100f576040519150601f19603f3d011682016040523d82523d6000602084013e611014565b606091505b50509050806110535760405162461bcd60e51b815260206004820152600b60248201526a10d85b1b0819985a5b195960aa1b6044820152606401610286565b60038201805461ff00191661010017905560018201546040516001600160a01b039091169084907f7d209626d0bd190ffb6bee0fcebeb18f3e3ed37daf67d3d45a966b0a9496fbe8906110af9060028701906004880190611a8e565b60405180910390a35050610d9860017f9b779b17422d0df92223018b32b4d1fa46e071723d6817e2486d003becc55f0055565b600081815260018301602052604081205480156111cb5760006111066001836117a3565b855490915060009061111a906001906117a3565b905080821461117f57600086600001828154811061113a5761113a6117b6565b906000526020600020015490508087600001848154811061115d5761115d6117b6565b6000918252602080832090910192909255918252600188019052604090208390555b855486908061119057611190611ab3565b6001900381819060005260206000200160009055905585600101600086815260200190815260200160002060009055600193505050506104d5565b60009150506104d5565b60608160000180548060200260200160405190810160405280929190818152602001828054801561122557602002820191906000526020600020905b815481526020019060010190808311611211575b50505050509050919050565b6000818152600183016020526040812054611278575081546001818101845560008481526020808220909301849055845484825282860190935260409020919091556104d5565b5060006104d5565b6000826000018281548110611297576112976117b6565b9060005260206000200154905092915050565b6112b2611347565b610f9757604051631afcd79f60e31b815260040160405180910390fd5b6112d76112aa565b60017f9b779b17422d0df92223018b32b4d1fa46e071723d6817e2486d003becc55f0055565b7f9b779b17422d0df92223018b32b4d1fa46e071723d6817e2486d003becc55f0080546001190161134157604051633ee5aeb560e01b815260040160405180910390fd5b60029055565b6000611351610f5e565b54600160401b900460ff16919050565b80356001600160a01b038116811461137857600080fd5b919050565b60006020828403121561138f57600080fd5b610f0a82611361565b6000602082840312156113aa57600080fd5b5035919050565b6020808252825182820181905260009190848201906040850190845b818110156113f25783516001600160a01b0316835292840192918401916001016113cd565b50909695505050505050565b6000806040838503121561141157600080fd5b8235915061142160208401611361565b90509250929050565b634e487b7160e01b600052604160045260246000fd5b604051601f8201601f1916810167ffffffffffffffff811182821017156114695761146961142a565b604052919050565b6000602080838503121561148457600080fd5b823567ffffffffffffffff8082111561149c57600080fd5b818501915085601f8301126114b057600080fd5b8135818111156114c2576114c261142a565b8060051b91506114d3848301611440565b81815291830184019184810190888411156114ed57600080fd5b938501935b838510156115125761150385611361565b825293850193908501906114f2565b98975050505050505050565b6000815180845260005b8181101561154457602081850181015186830182015201611528565b506000602082860101526020601f19601f83011685010191505092915050565b878152600060018060a01b03808916602084015260e0604084015261158c60e084018961151e565b60ff88166060850152861515608085015283810360a08501526115af818761151e565b92505080841660c08401525098975050505050505050565b600067ffffffffffffffff8311156115e1576115e161142a565b6115f4601f8401601f1916602001611440565b905082815283838301111561160857600080fd5b828260208301376000602084830101529392505050565b60008060006060848603121561163457600080fd5b61163d84611361565b9250602084013567ffffffffffffffff8082111561165a57600080fd5b818601915086601f83011261166e57600080fd5b61167d878335602085016115c7565b9350604086013591508082111561169357600080fd5b508401601f810186136116a557600080fd5b6116b4868235602084016115c7565b9150509250925092565b6020808252818101527f4f6e6c792073656c662063616e2063616c6c20746869732066756e6374696f6e604082015260600190565b6020808252602e908201527f4f6e6c7920626f617264206f66206469726563746f72732063616e2063616c6c60408201526d103a3434b990333ab731ba34b7b760911b606082015260800190565b634e487b7160e01b600052601160045260246000fd5b600060ff82168061176a5761176a611741565b6000190192915050565b602080825260159082015274496e76616c6964206f776e6572206164647265737360581b604082015260600190565b818103818111156104d5576104d5611741565b634e487b7160e01b600052603260045260246000fd5b600181811c908216806117e057607f821691505b60208210810361180057634e487b7160e01b600052602260045260246000fd5b50919050565b601f82111561184e576000816000526020600020601f850160051c8101602086101561182f5750805b601f850160051c820191505b81811015610a705782815560010161183b565b505050565b815167ffffffffffffffff81111561186d5761186d61142a565b6118818161187b84546117cc565b84611806565b602080601f8311600181146118b6576000841561189e5750858301515b600019600386901b1c1916600185901b178555610a70565b600085815260208120601f198616915b828110156118e5578886015182559484019460019091019084016118c6565b50858210156119035787850151600019600388901b60f8161c191681555b5050505050600190811b01905550565b604081526000611926604083018561151e565b8281036020840152611938818561151e565b95945050505050565b60006001820161195357611953611741565b5060010190565b600060ff821660ff810361197057611970611741565b60010192915050565b60008261199657634e487b7160e01b600052601260045260246000fd5b500490565b60008083546119a9816117cc565b600182811680156119c157600181146119d657611a05565b60ff1984168752821515830287019450611a05565b8760005260208060002060005b858110156119fc5781548a8201529084019082016119e3565b50505082870194505b50929695505050505050565b60008154611a1e816117cc565b808552602060018381168015611a3b5760018114611a5557611a83565b60ff1985168884015283151560051b880183019550611a83565b866000528260002060005b85811015611a7b5781548a8201860152908301908401611a60565b890184019650505b505050505092915050565b604081526000611aa16040830185611a11565b82810360208401526119388185611a11565b634e487b7160e01b600052603160045260246000fdfea26469706673582212204c34b938b4996bfb6cd12b64a3ae2e4a9a04e02e6e96d749eab5bc042df7ed4064736f6c63430008180033",
  "linkReferences": {},
  "deployedLinkReferences": {}
}