{
  "_format": "hh-sol-artifact-1",
  "contractName": "CashRemunerationEIP712",
  "sourceName": "contracts/CashRemunerationEIP712.sol",
  "abi": [
    {
      "inputs": [],
      "name": "ECDSAInvalidSignature",
      "type": "error"
    },
    {
      "inputs": [
        {
          "internalType": "uint256",
          "name": "length",
          "type": "uint256"
        }
      ],
      "name": "ECDSAInvalidSignatureLength",
      "type": "error"
    },
    {
      "inputs": [
        {
          "internalType": "bytes32",
          "name": "s",
          "type": "bytes32"
        }
      ],
      "name": "ECDSAInvalidSignatureS",
      "type": "error"
    },
    {
      "inputs": [],
      "name": "EnforcedPause",
      "type": "error"
    },
    {
      "inputs": [],
      "name": "ExpectedPause",
      "type": "error"
    },
    {
      "inputs": [],
      "name": "FailedCall",
      "type": "error"
    },
    {
      "inputs": [
        {
          "internalType": "uint256",
          "name": "balance",
          "type": "uint256"
        },
        {
          "internalType": "uint256",
          "name": "needed",
          "type": "uint256"
        }
      ],
      "name": "InsufficientBalance",
      "type": "error"
    },
    {
      "inputs": [],
      "name": "InvalidInitialization",
      "type": "error"
    },
    {
      "inputs": [],
      "name": "NotInitializing",
      "type": "error"
    },
    {
      "inputs": [
        {
          "internalType": "address",
          "name": "owner",
          "type": "address"
        }
      ],
      "name": "OwnableInvalidOwner",
      "type": "error"
    },
    {
      "inputs": [
        {
          "internalType": "address",
          "name": "account",
          "type": "address"
        }
      ],
      "name": "OwnableUnauthorizedAccount",
      "type": "error"
    },
    {
      "inputs": [],
      "name": "ReentrancyGuardReentrantCall",
      "type": "error"
    },
    {
      "inputs": [
        {
          "internalType": "address",
          "name": "expected",
          "type": "address"
        },
        {
          "internalType": "address",
          "name": "received",
          "type": "address"
        }
      ],
      "name": "UnauthorizedAccess",
      "type": "error"
    },
    {
      "anonymous": false,
      "inputs": [
        {
          "indexed": true,
          "internalType": "address",
          "name": "depositor",
          "type": "address"
        },
        {
          "indexed": false,
          "internalType": "uint256",
          "name": "amount",
          "type": "uint256"
        }
      ],
      "name": "Deposited",
      "type": "event"
    },
    {
      "anonymous": false,
      "inputs": [],
      "name": "EIP712DomainChanged",
      "type": "event"
    },
    {
      "anonymous": false,
      "inputs": [
        {
          "indexed": false,
          "internalType": "uint64",
          "name": "version",
          "type": "uint64"
        }
      ],
      "name": "Initialized",
      "type": "event"
    },
    {
      "anonymous": false,
      "inputs": [
        {
          "indexed": true,
          "internalType": "address",
          "name": "previousOwner",
          "type": "address"
        },
        {
          "indexed": true,
          "internalType": "address",
          "name": "newOwner",
          "type": "address"
        }
      ],
      "name": "OwnershipTransferred",
      "type": "event"
    },
    {
      "anonymous": false,
      "inputs": [
        {
          "indexed": false,
          "internalType": "address",
          "name": "account",
          "type": "address"
        }
      ],
      "name": "Paused",
      "type": "event"
    },
    {
      "anonymous": false,
      "inputs": [
        {
          "indexed": false,
          "internalType": "address",
          "name": "account",
          "type": "address"
        }
      ],
      "name": "Unpaused",
      "type": "event"
    },
    {
      "anonymous": false,
      "inputs": [
        {
          "indexed": true,
          "internalType": "address",
          "name": "withdrawer",
          "type": "address"
        },
        {
          "indexed": false,
          "internalType": "uint256",
          "name": "amount",
          "type": "uint256"
        }
      ],
      "name": "Withdraw",
      "type": "event"
    },
    {
      "inputs": [],
      "name": "eip712Domain",
      "outputs": [
        {
          "internalType": "bytes1",
          "name": "fields",
          "type": "bytes1"
        },
        {
          "internalType": "string",
          "name": "name",
          "type": "string"
        },
        {
          "internalType": "string",
          "name": "version",
          "type": "string"
        },
        {
          "internalType": "uint256",
          "name": "chainId",
          "type": "uint256"
        },
        {
          "internalType": "address",
          "name": "verifyingContract",
          "type": "address"
        },
        {
          "internalType": "bytes32",
          "name": "salt",
          "type": "bytes32"
        },
        {
          "internalType": "uint256[]",
          "name": "extensions",
          "type": "uint256[]"
        }
      ],
      "stateMutability": "view",
      "type": "function"
    },
    {
      "inputs": [],
      "name": "getBalance",
      "outputs": [
        {
          "internalType": "uint256",
          "name": "",
          "type": "uint256"
        }
      ],
      "stateMutability": "view",
      "type": "function"
    },
    {
      "inputs": [
        {
          "internalType": "address",
          "name": "owner",
          "type": "address"
        }
      ],
      "name": "initialize",
      "outputs": [],
      "stateMutability": "nonpayable",
      "type": "function"
    },
    {
      "inputs": [],
      "name": "owner",
      "outputs": [
        {
          "internalType": "address",
          "name": "",
          "type": "address"
        }
      ],
      "stateMutability": "view",
      "type": "function"
    },
    {
      "inputs": [
        {
          "internalType": "bytes32",
          "name": "",
          "type": "bytes32"
        }
      ],
      "name": "paidWageClaims",
      "outputs": [
        {
          "internalType": "bool",
          "name": "",
          "type": "bool"
        }
      ],
      "stateMutability": "view",
      "type": "function"
    },
    {
      "inputs": [],
      "name": "pause",
      "outputs": [],
      "stateMutability": "nonpayable",
      "type": "function"
    },
    {
      "inputs": [],
      "name": "paused",
      "outputs": [
        {
          "internalType": "bool",
          "name": "",
          "type": "bool"
        }
      ],
      "stateMutability": "view",
      "type": "function"
    },
    {
      "inputs": [],
      "name": "renounceOwnership",
      "outputs": [],
      "stateMutability": "nonpayable",
      "type": "function"
    },
    {
      "inputs": [
        {
          "internalType": "address",
          "name": "newOwner",
          "type": "address"
        }
      ],
      "name": "transferOwnership",
      "outputs": [],
      "stateMutability": "nonpayable",
      "type": "function"
    },
    {
      "inputs": [],
      "name": "unpause",
      "outputs": [],
      "stateMutability": "nonpayable",
      "type": "function"
    },
    {
      "inputs": [
        {
          "components": [
            {
              "internalType": "address",
              "name": "employeeAddress",
              "type": "address"
            },
            {
              "internalType": "uint8",
              "name": "hoursWorked",
              "type": "uint8"
            },
            {
              "internalType": "uint256",
              "name": "hourlyRate",
              "type": "uint256"
            },
            {
              "internalType": "uint256",
              "name": "date",
              "type": "uint256"
            }
          ],
          "internalType": "struct CashRemunerationEIP712.WageClaim",
          "name": "wageClaim",
          "type": "tuple"
        },
        {
          "internalType": "bytes",
          "name": "signature",
          "type": "bytes"
        }
      ],
      "name": "withdraw",
      "outputs": [],
      "stateMutability": "nonpayable",
      "type": "function"
    },
    {
      "stateMutability": "payable",
      "type": "receive"
    }
  ],
  "bytecode": "0x608060405234801561001057600080fd5b5061145b806100206000396000f3fe6080604052600436106100a05760003560e01c80638456cb59116100645780638456cb591461017e57806384b0196e146101935780638da5cb5b146101bb578063c4d66de8146101e8578063d6ba1d3a14610208578063f2fde38b1461023857600080fd5b806312065fe0146100e15780633f4ba83a1461010157806359bc890b146101185780635c975abb14610138578063715018a61461016957600080fd5b366100dc5760405134815233907f2da466a7b24304f47e87fa2e1e5a81b9831ce54fec19055ce277ca2f39ba42c49060200160405180910390a2005b600080fd5b3480156100ed57600080fd5b506040514781526020015b60405180910390f35b34801561010d57600080fd5b50610116610258565b005b34801561012457600080fd5b5061011661013336600461106c565b61026a565b34801561014457600080fd5b506000805160206114068339815191525460ff165b60405190151581526020016100f8565b34801561017557600080fd5b5061011661051e565b34801561018a57600080fd5b50610116610530565b34801561019f57600080fd5b506101a8610540565b6040516100f8979695949392919061113d565b3480156101c757600080fd5b506101d06105ec565b6040516001600160a01b0390911681526020016100f8565b3480156101f457600080fd5b506101166102033660046111d6565b61061a565b34801561021457600080fd5b50610159610223366004611206565b60006020819052908152604090205460ff1681565b34801561024457600080fd5b506101166102533660046111d6565b610785565b6102606107c3565b6102686107f5565b565b610272610855565b61027a610886565b61028760208401846111d6565b6001600160a01b0316336001600160a01b0316146102ec5760405162461bcd60e51b815260206004820152601760248201527f57697468647261776572206e6f7420617070726f76656400000000000000000060448201526064015b60405180910390fd5b60006102f66108d0565b6102ff856108df565b60405161190160f01b602082015260228101929092526042820152606201604051602081830303815290604052805190602001209050600061037984848080601f01602080910402602001604051908101604052809392919081815260200183838082843760009201919091525086939250506109779050565b90506103836105ec565b6001600160a01b0316816001600160a01b0316146103d0576103a36105ec565b604051634116c50f60e01b81526001600160a01b03918216600482015290821660248201526044016102e3565b600084846040516103e292919061121f565b604080519182900390912060008181526020819052919091205490915060ff16156104435760405162461bcd60e51b815260206004820152601160248201527015d859d948185b1c9958591e481c185a59607a1b60448201526064016102e3565b600081815260208181526040808320805460ff19166001179055880180359161046e91908a0161122f565b60ff1661047b9190611252565b905061049d8161048e60208a018a6111d6565b6001600160a01b0316906109a3565b6104aa60208801886111d6565b6001600160a01b03167f884edad9ce6fa2440d8a54cc123490eb96d2768479d49ff9c7366125a9424364826040516104e491815260200190565b60405180910390a25050505061051960017f9b779b17422d0df92223018b32b4d1fa46e071723d6817e2486d003becc55f0055565b505050565b6105266107c3565b6102686000610a67565b6105386107c3565b610268610ad8565b600060608082808083816000805160206113e6833981519152805490915015801561056d57506001810154155b6105b15760405162461bcd60e51b81526020600482015260156024820152741152540dcc4c8e88155b9a5b9a5d1a585b1a5e9959605a1b60448201526064016102e3565b6105b9610b21565b6105c1610be4565b60408051600080825260208201909252600f60f81b9c939b5091995046985030975095509350915050565b7f9016d09d72d40fdae2fd8ceac6b6234c7706214fd39c1cd1e609a0528c199300546001600160a01b031690565b7ff0c57e16840df040f15088dc2f81fe391c3923bec73e23a9662efc9c229c6a008054600160401b810460ff16159067ffffffffffffffff166000811580156106605750825b905060008267ffffffffffffffff16600114801561067d5750303b155b90508115801561068b575080155b156106a95760405163f92ee8a960e01b815260040160405180910390fd5b845467ffffffffffffffff1916600117855583156106d357845460ff60401b1916600160401b1785555b6106dc86610c23565b6106e4610c34565b6106ec610c44565b6107376040518060400160405280601081526020016f21b0b9b42932b6bab732b930ba34b7b760811b815250604051806040016040528060018152602001603160f81b815250610c54565b831561077d57845460ff60401b19168555604051600181527fc7f505b2f371ae2175ee4913f4499e1f2633a7b5936321eed1cdaeb6115181d29060200160405180910390a15b505050505050565b61078d6107c3565b6001600160a01b0381166107b757604051631e4fbdf760e01b8152600060048201526024016102e3565b6107c081610a67565b50565b336107cc6105ec565b6001600160a01b0316146102685760405163118cdaa760e01b81523360048201526024016102e3565b6107fd610c6a565b600080516020611406833981519152805460ff191681557f5db9ee0a495bf2e6ff9c91a7834c1ba4fdd244a5e8aa4e537bd38aeae4b073aa335b6040516001600160a01b03909116815260200160405180910390a150565b6000805160206114068339815191525460ff16156102685760405163d93c066560e01b815260040160405180910390fd5b7f9b779b17422d0df92223018b32b4d1fa46e071723d6817e2486d003becc55f008054600119016108ca57604051633ee5aeb560e01b815260040160405180910390fd5b60029055565b60006108da610c9a565b905090565b60007f27f1334ab01dde62d3a41e634a59d3914c17c835e31c6e3bc77e2dee90f8a73d61090f60208401846111d6565b61091f604085016020860161122f565b6040805160208101949094526001600160a01b039092168383015260ff1660608381019190915290840135608083015283013560a082015260c001604051602081830303815290604052805190602001209050919050565b6000806000806109878686610d0e565b9250925092506109978282610d5b565b50909150505b92915050565b804710156109cd5760405163cf47918160e01b8152476004820152602481018290526044016102e3565b6000826001600160a01b03168260405160006040518083038185875af1925050503d8060008114610a1a576040519150601f19603f3d011682016040523d82523d6000602084013e610a1f565b606091505b50509050806105195760405163d6bda27560e01b815260040160405180910390fd5b60017f9b779b17422d0df92223018b32b4d1fa46e071723d6817e2486d003becc55f0055565b7f9016d09d72d40fdae2fd8ceac6b6234c7706214fd39c1cd1e609a0528c19930080546001600160a01b031981166001600160a01b03848116918217845560405192169182907f8be0079c531659141344cd1fd0a4f28419497f9722a3daafe3b4186f6b6457e090600090a3505050565b610ae0610855565b600080516020611406833981519152805460ff191660011781557f62e78cea01bee320cd4e420270b5ea74000d11b0c9f74754ebdbfc544b05a25833610837565b7fa16a46d94261c7517cc8ff89f61c0ce93598e3c849801011dee649a6a557d10280546060916000805160206113e683398151915291610b609061128d565b80601f0160208091040260200160405190810160405280929190818152602001828054610b8c9061128d565b8015610bd95780601f10610bae57610100808354040283529160200191610bd9565b820191906000526020600020905b815481529060010190602001808311610bbc57829003601f168201915b505050505091505090565b7fa16a46d94261c7517cc8ff89f61c0ce93598e3c849801011dee649a6a557d10380546060916000805160206113e683398151915291610b609061128d565b610c2b610e14565b6107c081610e5d565b610c3c610e14565b610268610e65565b610c4c610e14565b610268610e6d565b610c5c610e14565b610c668282610e8e565b5050565b6000805160206114068339815191525460ff1661026857604051638dfc202b60e01b815260040160405180910390fd5b60007f8b73c3c69bb8fe3d512ecc4cf759cc79239f7b179b0ffacaa9a75d522b39400f610cc5610eef565b610ccd610f59565b60408051602081019490945283019190915260608201524660808201523060a082015260c00160405160208183030381529060405280519060200120905090565b60008060008351604103610d485760208401516040850151606086015160001a610d3a88828585610f9d565b955095509550505050610d54565b50508151600091506002905b9250925092565b6000826003811115610d6f57610d6f6112c7565b03610d78575050565b6001826003811115610d8c57610d8c6112c7565b03610daa5760405163f645eedf60e01b815260040160405180910390fd5b6002826003811115610dbe57610dbe6112c7565b03610ddf5760405163fce698f760e01b8152600481018290526024016102e3565b6003826003811115610df357610df36112c7565b03610c66576040516335e2f38360e21b8152600481018290526024016102e3565b7ff0c57e16840df040f15088dc2f81fe391c3923bec73e23a9662efc9c229c6a0054600160401b900460ff1661026857604051631afcd79f60e31b815260040160405180910390fd5b61078d610e14565b610a41610e14565b610e75610e14565b600080516020611406833981519152805460ff19169055565b610e96610e14565b6000805160206113e68339815191527fa16a46d94261c7517cc8ff89f61c0ce93598e3c849801011dee649a6a557d102610ed08482611325565b5060038101610edf8382611325565b5060008082556001909101555050565b60006000805160206113e683398151915281610f09610b21565b805190915015610f2157805160209091012092915050565b81548015610f30579392505050565b7fc5d2460186f7233c927e7db2dcc703c0e500b653ca82273b7bfad8045d85a470935050505090565b60006000805160206113e683398151915281610f73610be4565b805190915015610f8b57805160209091012092915050565b60018201548015610f30579392505050565b600080807f7fffffffffffffffffffffffffffffff5d576e7357a4501ddfe92f46681b20a0841115610fd85750600091506003905082611062565b604080516000808252602082018084528a905260ff891692820192909252606081018790526080810186905260019060a0016020604051602081039080840390855afa15801561102c573d6000803e3d6000fd5b5050604051601f1901519150506001600160a01b03811661105857506000925060019150829050611062565b9250600091508190505b9450945094915050565b600080600083850360a081121561108257600080fd5b608081121561109057600080fd5b50839250608084013567ffffffffffffffff808211156110af57600080fd5b818601915086601f8301126110c357600080fd5b8135818111156110d257600080fd5b8760208285010111156110e457600080fd5b6020830194508093505050509250925092565b6000815180845260005b8181101561111d57602081850181015186830182015201611101565b506000602082860101526020601f19601f83011685010191505092915050565b60ff60f81b881681526000602060e0602084015261115e60e084018a6110f7565b8381036040850152611170818a6110f7565b606085018990526001600160a01b038816608086015260a0850187905284810360c08601528551808252602080880193509091019060005b818110156111c4578351835292840192918401916001016111a8565b50909c9b505050505050505050505050565b6000602082840312156111e857600080fd5b81356001600160a01b03811681146111ff57600080fd5b9392505050565b60006020828403121561121857600080fd5b5035919050565b8183823760009101908152919050565b60006020828403121561124157600080fd5b813560ff811681146111ff57600080fd5b808202811582820484141761099d57634e487b7160e01b600052601160045260246000fd5b634e487b7160e01b600052604160045260246000fd5b600181811c908216806112a157607f821691505b6020821081036112c157634e487b7160e01b600052602260045260246000fd5b50919050565b634e487b7160e01b600052602160045260246000fd5b601f821115610519576000816000526020600020601f850160051c810160208610156113065750805b601f850160051c820191505b8181101561077d57828155600101611312565b815167ffffffffffffffff81111561133f5761133f611277565b6113538161134d845461128d565b846112dd565b602080601f83116001811461138857600084156113705750858301515b600019600386901b1c1916600185901b17855561077d565b600085815260208120601f198616915b828110156113b757888601518255948401946001909101908401611398565b50858210156113d55787850151600019600388901b60f8161c191681555b5050505050600190811b0190555056fea16a46d94261c7517cc8ff89f61c0ce93598e3c849801011dee649a6a557d100cd5ed15c6e187e77e9aee88184c21f4f2182ab5827cb3b7e07fbedcd63f03300a2646970667358221220c1a5fe0053fd211a5401c9e1cc4118388fae87f48524c62c48ca3c606da3c98e64736f6c63430008180033",
  "linkReferences": {},
  "deployedLinkReferences": {}
}