{
  "_format": "hh-sol-artifact-1",
  "contractName": "CashRemunerationEIP712",
  "sourceName": "contracts/CashRemunerationEIP712.sol",
  "abi": [
    {
      "inputs": [],
      "name": "ECDSAInvalidSignature",
      "type": "error"
    },
    {
      "inputs": [
        {
          "internalType": "uint256",
          "name": "length",
          "type": "uint256"
        }
      ],
      "name": "ECDSAInvalidSignatureLength",
      "type": "error"
    },
    {
      "inputs": [
        {
          "internalType": "bytes32",
          "name": "s",
          "type": "bytes32"
        }
      ],
      "name": "ECDSAInvalidSignatureS",
      "type": "error"
    },
    {
      "inputs": [],
      "name": "EnforcedPause",
      "type": "error"
    },
    {
      "inputs": [],
      "name": "ExpectedPause",
      "type": "error"
    },
    {
      "inputs": [],
      "name": "FailedCall",
      "type": "error"
    },
    {
      "inputs": [
        {
          "internalType": "uint256",
          "name": "balance",
          "type": "uint256"
        },
        {
          "internalType": "uint256",
          "name": "needed",
          "type": "uint256"
        }
      ],
      "name": "InsufficientBalance",
      "type": "error"
    },
    {
      "inputs": [],
      "name": "InvalidInitialization",
      "type": "error"
    },
    {
      "inputs": [],
      "name": "NotInitializing",
      "type": "error"
    },
    {
      "inputs": [
        {
          "internalType": "address",
          "name": "owner",
          "type": "address"
        }
      ],
      "name": "OwnableInvalidOwner",
      "type": "error"
    },
    {
      "inputs": [
        {
          "internalType": "address",
          "name": "account",
          "type": "address"
        }
      ],
      "name": "OwnableUnauthorizedAccount",
      "type": "error"
    },
    {
      "inputs": [],
      "name": "ReentrancyGuardReentrantCall",
      "type": "error"
    },
    {
      "inputs": [
        {
          "internalType": "address",
          "name": "expected",
          "type": "address"
        },
        {
          "internalType": "address",
          "name": "received",
          "type": "address"
        }
      ],
      "name": "UnauthorizedAccess",
      "type": "error"
    },
    {
      "anonymous": false,
      "inputs": [
        {
          "indexed": true,
          "internalType": "address",
          "name": "depositor",
          "type": "address"
        },
        {
          "indexed": false,
          "internalType": "uint256",
          "name": "amount",
          "type": "uint256"
        }
      ],
      "name": "Deposited",
      "type": "event"
    },
    {
      "anonymous": false,
      "inputs": [],
      "name": "EIP712DomainChanged",
      "type": "event"
    },
    {
      "anonymous": false,
      "inputs": [
        {
          "indexed": false,
          "internalType": "uint64",
          "name": "version",
          "type": "uint64"
        }
      ],
      "name": "Initialized",
      "type": "event"
    },
    {
      "anonymous": false,
      "inputs": [
        {
          "indexed": true,
          "internalType": "address",
          "name": "newOfficerAddress",
          "type": "address"
        }
      ],
      "name": "OfficerAddressUpdated",
      "type": "event"
    },
    {
      "anonymous": false,
      "inputs": [
        {
          "indexed": true,
          "internalType": "address",
          "name": "ownerAddress",
          "type": "address"
        },
        {
          "indexed": false,
          "internalType": "uint256",
          "name": "amount",
          "type": "uint256"
        }
      ],
      "name": "OwnerTreasuryWithdrawNative",
      "type": "event"
    },
    {
      "anonymous": false,
      "inputs": [
        {
          "indexed": true,
          "internalType": "address",
          "name": "ownerAddress",
          "type": "address"
        },
        {
          "indexed": true,
          "internalType": "address",
          "name": "tokenAddress",
          "type": "address"
        },
        {
          "indexed": false,
          "internalType": "uint256",
          "name": "amount",
          "type": "uint256"
        }
      ],
      "name": "OwnerTreasuryWithdrawToken",
      "type": "event"
    },
    {
      "anonymous": false,
      "inputs": [
        {
          "indexed": true,
          "internalType": "address",
          "name": "previousOwner",
          "type": "address"
        },
        {
          "indexed": true,
          "internalType": "address",
          "name": "newOwner",
          "type": "address"
        }
      ],
      "name": "OwnershipTransferred",
      "type": "event"
    },
    {
      "anonymous": false,
      "inputs": [
        {
          "indexed": false,
          "internalType": "address",
          "name": "account",
          "type": "address"
        }
      ],
      "name": "Paused",
      "type": "event"
    },
    {
      "anonymous": false,
      "inputs": [
        {
          "indexed": true,
          "internalType": "address",
          "name": "tokenAddress",
          "type": "address"
        }
      ],
      "name": "TokenSupportAdded",
      "type": "event"
    },
    {
      "anonymous": false,
      "inputs": [
        {
          "indexed": true,
          "internalType": "address",
          "name": "tokenAddress",
          "type": "address"
        }
      ],
      "name": "TokenSupportRemoved",
      "type": "event"
    },
    {
      "anonymous": false,
      "inputs": [
        {
          "indexed": false,
          "internalType": "address",
          "name": "account",
          "type": "address"
        }
      ],
      "name": "Unpaused",
      "type": "event"
    },
    {
      "anonymous": false,
      "inputs": [
        {
          "indexed": true,
          "internalType": "bytes32",
          "name": "signatureHash",
          "type": "bytes32"
        }
      ],
      "name": "WageClaimDisabled",
      "type": "event"
    },
    {
      "anonymous": false,
      "inputs": [
        {
          "indexed": true,
          "internalType": "bytes32",
          "name": "signatureHash",
          "type": "bytes32"
        }
      ],
      "name": "WageClaimEnabled",
      "type": "event"
    },
    {
      "anonymous": false,
      "inputs": [
        {
          "indexed": true,
          "internalType": "address",
          "name": "withdrawer",
          "type": "address"
        },
        {
          "indexed": false,
          "internalType": "uint256",
          "name": "amount",
          "type": "uint256"
        }
      ],
      "name": "Withdraw",
      "type": "event"
    },
    {
      "anonymous": false,
      "inputs": [
        {
          "indexed": true,
          "internalType": "address",
          "name": "withdrawer",
          "type": "address"
        },
        {
          "indexed": true,
          "internalType": "address",
          "name": "tokenAddress",
          "type": "address"
        },
        {
          "indexed": false,
          "internalType": "uint256",
          "name": "amount",
          "type": "uint256"
        }
      ],
      "name": "WithdrawToken",
      "type": "event"
    },
    {
      "inputs": [
        {
          "internalType": "address",
          "name": "tokenAddress",
          "type": "address"
        }
      ],
      "name": "addTokenSupport",
      "outputs": [],
      "stateMutability": "nonpayable",
      "type": "function"
    },
    {
      "inputs": [
        {
          "internalType": "bytes32",
          "name": "signatureHash",
          "type": "bytes32"
        }
      ],
      "name": "disableClaim",
      "outputs": [],
      "stateMutability": "nonpayable",
      "type": "function"
    },
    {
      "inputs": [
        {
          "internalType": "bytes32",
          "name": "",
          "type": "bytes32"
        }
      ],
      "name": "disabledWageClaims",
      "outputs": [
        {
          "internalType": "bool",
          "name": "",
          "type": "bool"
        }
      ],
      "stateMutability": "view",
      "type": "function"
    },
    {
      "inputs": [],
      "name": "eip712Domain",
      "outputs": [
        {
          "internalType": "bytes1",
          "name": "fields",
          "type": "bytes1"
        },
        {
          "internalType": "string",
          "name": "name",
          "type": "string"
        },
        {
          "internalType": "string",
          "name": "version",
          "type": "string"
        },
        {
          "internalType": "uint256",
          "name": "chainId",
          "type": "uint256"
        },
        {
          "internalType": "address",
          "name": "verifyingContract",
          "type": "address"
        },
        {
          "internalType": "bytes32",
          "name": "salt",
          "type": "bytes32"
        },
        {
          "internalType": "uint256[]",
          "name": "extensions",
          "type": "uint256[]"
        }
      ],
      "stateMutability": "view",
      "type": "function"
    },
    {
      "inputs": [
        {
          "internalType": "bytes32",
          "name": "signatureHash",
          "type": "bytes32"
        }
      ],
      "name": "enableClaim",
      "outputs": [],
      "stateMutability": "nonpayable",
      "type": "function"
    },
    {
      "inputs": [],
      "name": "getBalance",
      "outputs": [
        {
          "internalType": "uint256",
          "name": "",
          "type": "uint256"
        }
      ],
      "stateMutability": "view",
      "type": "function"
    },
    {
      "inputs": [],
      "name": "getSupportedTokenCount",
      "outputs": [
        {
          "internalType": "uint256",
          "name": "",
          "type": "uint256"
        }
      ],
      "stateMutability": "view",
      "type": "function"
    },
    {
      "inputs": [],
      "name": "getSupportedTokens",
      "outputs": [
        {
          "internalType": "address[]",
          "name": "",
          "type": "address[]"
        }
      ],
      "stateMutability": "view",
      "type": "function"
    },
    {
      "inputs": [
        {
          "internalType": "address",
          "name": "_owner",
          "type": "address"
        },
        {
          "internalType": "address[]",
          "name": "_tokenAddresses",
          "type": "address[]"
        }
      ],
      "name": "initialize",
      "outputs": [],
      "stateMutability": "nonpayable",
      "type": "function"
    },
    {
      "inputs": [
        {
          "internalType": "address",
          "name": "_token",
          "type": "address"
        }
      ],
      "name": "isTokenSupported",
      "outputs": [
        {
          "internalType": "bool",
          "name": "",
          "type": "bool"
        }
      ],
      "stateMutability": "view",
      "type": "function"
    },
    {
      "inputs": [],
      "name": "officerAddress",
      "outputs": [
        {
          "internalType": "address",
          "name": "",
          "type": "address"
        }
      ],
      "stateMutability": "view",
      "type": "function"
    },
    {
      "inputs": [],
      "name": "owner",
      "outputs": [
        {
          "internalType": "address",
          "name": "",
          "type": "address"
        }
      ],
      "stateMutability": "view",
      "type": "function"
    },
    {
      "inputs": [
        {
          "internalType": "uint256",
          "name": "amount",
          "type": "uint256"
        }
      ],
      "name": "ownerWithdrawNative",
      "outputs": [],
      "stateMutability": "nonpayable",
      "type": "function"
    },
    {
      "inputs": [
        {
          "internalType": "address",
          "name": "token",
          "type": "address"
        },
        {
          "internalType": "uint256",
          "name": "amount",
          "type": "uint256"
        }
      ],
      "name": "ownerWithdrawToken",
      "outputs": [],
      "stateMutability": "nonpayable",
      "type": "function"
    },
    {
      "inputs": [
        {
          "internalType": "bytes32",
          "name": "",
          "type": "bytes32"
        }
      ],
      "name": "paidWageClaims",
      "outputs": [
        {
          "internalType": "bool",
          "name": "",
          "type": "bool"
        }
      ],
      "stateMutability": "view",
      "type": "function"
    },
    {
      "inputs": [],
      "name": "pause",
      "outputs": [],
      "stateMutability": "nonpayable",
      "type": "function"
    },
    {
      "inputs": [],
      "name": "paused",
      "outputs": [
        {
          "internalType": "bool",
          "name": "",
          "type": "bool"
        }
      ],
      "stateMutability": "view",
      "type": "function"
    },
    {
      "inputs": [
        {
          "internalType": "address",
          "name": "tokenAddress",
          "type": "address"
        }
      ],
      "name": "removeTokenSupport",
      "outputs": [],
      "stateMutability": "nonpayable",
      "type": "function"
    },
    {
      "inputs": [],
      "name": "renounceOwnership",
      "outputs": [],
      "stateMutability": "nonpayable",
      "type": "function"
    },
    {
      "inputs": [
        {
          "internalType": "address",
          "name": "newOwner",
          "type": "address"
        }
      ],
      "name": "transferOwnership",
      "outputs": [],
      "stateMutability": "nonpayable",
      "type": "function"
    },
    {
      "inputs": [],
      "name": "unpause",
      "outputs": [],
      "stateMutability": "nonpayable",
      "type": "function"
    },
    {
      "inputs": [
        {
          "components": [
            {
              "internalType": "address",
              "name": "employeeAddress",
              "type": "address"
            },
            {
              "internalType": "uint8",
              "name": "hoursWorked",
              "type": "uint8"
            },
            {
              "components": [
                {
                  "internalType": "uint256",
                  "name": "hourlyRate",
                  "type": "uint256"
                },
                {
                  "internalType": "address",
                  "name": "tokenAddress",
                  "type": "address"
                }
              ],
              "internalType": "struct CashRemunerationEIP712.Wage[]",
              "name": "wages",
              "type": "tuple[]"
            },
            {
              "internalType": "uint256",
              "name": "date",
              "type": "uint256"
            }
          ],
          "internalType": "struct CashRemunerationEIP712.WageClaim",
          "name": "wageClaim",
          "type": "tuple"
        },
        {
          "internalType": "bytes",
          "name": "signature",
          "type": "bytes"
        }
      ],
      "name": "withdraw",
      "outputs": [],
      "stateMutability": "nonpayable",
      "type": "function"
    },
    {
      "stateMutability": "payable",
      "type": "receive"
    }
  ],
  "bytecode": "0x608060405234801561001057600080fd5b50612a26806100206000396000f3fe6080604052600436106101395760003560e01c806384f10492116100ab578063d3c7c2c71161006f578063d3c7c2c71461038c578063d6ba1d3a146103ae578063e7dd5c5e146103de578063e836ac13146103fe578063f2fde38b1461041e578063fec715b41461043e57600080fd5b806384f10492146103025780638da5cb5b14610322578063946d920414610337578063b650edf914610357578063ce67be261461037757600080fd5b80635c975abb116100fd5780635c975abb1461024b578063715018a614610270578063733c237d1461028557806375151b63146102a55780638456cb59146102c557806384b0196e146102da57600080fd5b806312065fe01461017a5780632ba8d9391461019c578063315f77ef146101be57806337be403a146101f65780633f4ba83a1461023657600080fd5b366101755760405134815233907f2da466a7b24304f47e87fa2e1e5a81b9831ce54fec19055ce277ca2f39ba42c49060200160405180910390a2005b600080fd5b34801561018657600080fd5b50475b6040519081526020015b60405180910390f35b3480156101a857600080fd5b506101bc6101b73660046122a7565b61045e565b005b3480156101ca57600080fd5b506003546101de906001600160a01b031681565b6040516001600160a01b039091168152602001610193565b34801561020257600080fd5b506102266102113660046122c4565b60046020526000908152604090205460ff1681565b6040519015158152602001610193565b34801561024257600080fd5b506101bc61047a565b34801561025757600080fd5b506000805160206129b18339815191525460ff16610226565b34801561027c57600080fd5b506101bc61048c565b34801561029157600080fd5b506101bc6102a03660046122a7565b61049e565b3480156102b157600080fd5b506102266102c03660046122a7565b6104b7565b3480156102d157600080fd5b506101bc6104c9565b3480156102e657600080fd5b506102ef6104d9565b604051610193979695949392919061232d565b34801561030e57600080fd5b506101bc61031d3660046123c6565b61058a565b34801561032e57600080fd5b506101de6107ba565b34801561034357600080fd5b506101bc6103523660046123f2565b6107e8565b34801561036357600080fd5b506101bc6103723660046122c4565b610ad2565b34801561038357600080fd5b50610189610b25565b34801561039857600080fd5b506103a1610b36565b604051610193919061247a565b3480156103ba57600080fd5b506102266103c93660046122c4565b60026020526000908152604090205460ff1681565b3480156103ea57600080fd5b506101bc6103f93660046122c4565b610b42565b34801561040a57600080fd5b506101bc6104193660046124c7565b610c26565b34801561042a57600080fd5b506101bc6104393660046122a7565b6114b0565b34801561044a57600080fd5b506101bc6104593660046122c4565b6114eb565b61046661153b565b61046e61156d565b6104778161159e565b50565b61048261153b565b61048a611622565b565b61049461153b565b61048a6000611682565b6104a661153b565b6104ae61156d565b610477816116f3565b60006104c381836117a7565b92915050565b6104d161153b565b61048a6117cc565b60006060808280808381600080516020612964833981519152805490915015801561050657506001810154155b61054f5760405162461bcd60e51b81526020600482015260156024820152741152540dcc4c8e88155b9a5b9a5d1a585b1a5e9959605a1b60448201526064015b60405180910390fd5b610557611815565b61055f6118d8565b60408051600080825260208201909252600f60f81b9c939b5091995046985030975095509350915050565b61059261153b565b61059a611917565b6105a261156d565b6105ab826104b7565b6105c75760405162461bcd60e51b815260040161054690612569565b6040516370a0823160e01b815230600482015281906001600160a01b038416906370a0823190602401602060405180830381865afa15801561060d573d6000803e3d6000fd5b505050506040513d601f19601f820116820180604052508101906106319190612596565b101561067f5760405162461bcd60e51b815260206004820152601a60248201527f496e73756666696369656e7420746f6b656e2062616c616e63650000000000006044820152606401610546565b816001600160a01b031663a9059cbb6106966107ba565b6040516001600160e01b031960e084901b1681526001600160a01b039091166004820152602481018490526044016020604051808303816000875af11580156106e3573d6000803e3d6000fd5b505050506040513d601f19601f8201168201806040525081019061070791906125af565b61074b5760405162461bcd60e51b8152602060048201526015602482015274151bdad95b881d1c985b9cd9995c8819985a5b1959605a1b6044820152606401610546565b816001600160a01b031661075d6107ba565b6001600160a01b03167fe2684a45ae801408de30c0254c2019cd0ecea430606518d367c2f930ee6c30d78360405161079791815260200190565b60405180910390a36107b660016000805160206129d183398151915255565b5050565b7f9016d09d72d40fdae2fd8ceac6b6234c7706214fd39c1cd1e609a0528c199300546001600160a01b031690565b7ff0c57e16840df040f15088dc2f81fe391c3923bec73e23a9662efc9c229c6a008054600160401b810460ff16159067ffffffffffffffff1660008115801561082e5750825b905060008267ffffffffffffffff16600114801561084b5750303b155b905081158015610859575080155b156108775760405163f92ee8a960e01b815260040160405180910390fd5b845467ffffffffffffffff1916600117855583156108a157845460ff60401b1916600160401b1785555b60006001600160a01b038916156108b857886108ba565b335b90506108c581611963565b6108cd611974565b6109186040518060400160405280601081526020016f21b0b9b42932b6bab732b930ba34b7b760811b815250604051806040016040528060018152602001603160f81b815250611984565b610920611996565b3361096d5760405162461bcd60e51b815260206004820152601960248201527f6d73672e73656e6465722063616e6e6f74206265207a65726f000000000000006044820152606401610546565b600380546001600160a01b0319163317905560005b87811015610a1057600089898381811061099e5761099e6125d1565b90506020020160208101906109b391906122a7565b6001600160a01b0316036109d95760405162461bcd60e51b8152600401610546906125e7565b610a088989838181106109ee576109ee6125d1565b9050602002016020810190610a0391906122a7565b6116f3565b600101610982565b5060005b87811015610a8057888882818110610a2e57610a2e6125d1565b9050602002016020810190610a4391906122a7565b6001600160a01b03167f8f50fda9bf5d3b403c53b7e91646abd507f8cebf2577655d55d7de3926168b1760405160405180910390a2600101610a14565b50508315610ac857845460ff60401b19168555604051600181527fc7f505b2f371ae2175ee4913f4499e1f2633a7b5936321eed1cdaeb6115181d29060200160405180910390a15b5050505050505050565b610ada61153b565b610ae261156d565b600081815260046020526040808220805460ff191660011790555182917fe64505d06519cd7f1b841ca9e59490caea3704d16199a3781d914bb5476e837b91a250565b6000610b3160006119a6565b905090565b6060610b3160006119b0565b610b4a61153b565b610b52611917565b610b5a61156d565b80471015610baa5760405162461bcd60e51b815260206004820152601b60248201527f496e73756666696369656e74206e61746976652062616c616e636500000000006044820152606401610546565b610bc581610bb66107ba565b6001600160a01b0316906119bd565b610bcd6107ba565b6001600160a01b03167f4d9676ed3c7e652a835f91b6e46ca5a9de07f3b7a97f1845ab5e635e2a953be482604051610c0791815260200190565b60405180910390a261047760016000805160206129d183398151915255565b610c2e61156d565b610c36611917565b610c4360208401846122a7565b6001600160a01b0316336001600160a01b031614610ca35760405162461bcd60e51b815260206004820152601760248201527f57697468647261776572206e6f7420617070726f7665640000000000000000006044820152606401610546565b6000610cad611a5b565b610cb685611a65565b60405161190160f01b6020820152602281019290925260428201526062016040516020818303038152906040528051906020012090506000610d3084848080601f0160208091040260200160405190810160405280939291908181526020018383808284376000920191909152508693925050611b549050565b9050610d3a6107ba565b6001600160a01b0316816001600160a01b031614610d8757610d5a6107ba565b604051634116c50f60e01b81526001600160a01b0391821660048201529082166024820152604401610546565b60008484604051610d9992919061261e565b604080519182900390912060008181526002602052919091205490915060ff1615610dfa5760405162461bcd60e51b815260206004820152601160248201527015d859d948185b1c9958591e481c185a59607a1b6044820152606401610546565b60008181526004602052604090205460ff1615610e4f5760405162461bcd60e51b815260206004820152601360248201527215d859d94818db185a5b48191a5cd8589b1959606a1b6044820152606401610546565b6000818152600260205260408120805460ff191660011790556003546001600160a01b031615801590610e8d57506003546001600160a01b03163b15155b15610f195760035460405163040a4ce560e21b815260206004820152600a602482015269496e766573746f72563160b01b60448201526001600160a01b0390911690631029339490606401602060405180830381865afa925050508015610f11575060408051601f3d908101601f19168201909252610f0e9181019061262e565b60015b15610f195790505b60005b610f29604089018961264b565b90508160ff16101561148f576000610f4460408a018a61264b565b8360ff16818110610f5757610f576125d1565b90506040020160000135896020016020810190610f74919061269c565b60ff16610f8191906126d5565b90506000610f9260408b018b61264b565b8460ff16818110610fa557610fa56125d1565b9050604002016020016020810190610fbd91906122a7565b6001600160a01b03160361103057610fdc81610bb660208c018c6122a7565b610fe960208a018a6122a7565b6001600160a01b03167f884edad9ce6fa2440d8a54cc123490eb96d2768479d49ff9c7366125a94243648260405161102391815260200190565b60405180910390a261147c565b61106b61104060408b018b61264b565b8460ff16818110611053576110536125d1565b90506040020160200160208101906102c091906122a7565b6110875760405162461bcd60e51b815260040161054690612569565b6001600160a01b038316158015906110e757506001600160a01b0383166110b160408b018b61264b565b8460ff168181106110c4576110c46125d1565b90506040020160200160208101906110dc91906122a7565b6001600160a01b0316145b15611235576110f960408a018a61264b565b8360ff1681811061110c5761110c6125d1565b905060400201602001602081019061112491906122a7565b6001600160a01b0316636b7747b361113f60208c018c6122a7565b6040516001600160e01b031960e084901b1681526001600160a01b03909116600482015260248101849052604401600060405180830381600087803b15801561118757600080fd5b505af115801561119b573d6000803e3d6000fd5b506111ad9250505060408a018a61264b565b8360ff168181106111c0576111c06125d1565b90506040020160200160208101906111d891906122a7565b6001600160a01b03166111ee60208b018b6122a7565b6001600160a01b03167f037238854fe57fbf51f09946f854fc3916fe83938d6521f09bd05463839f13048360405161122891815260200190565b60405180910390a361147c565b8061124360408b018b61264b565b8460ff16818110611256576112566125d1565b905060400201602001602081019061126e91906122a7565b6040516370a0823160e01b81523060048201526001600160a01b0391909116906370a0823190602401602060405180830381865afa1580156112b4573d6000803e3d6000fd5b505050506040513d601f19601f820116820180604052508101906112d89190612596565b10156113265760405162461bcd60e51b815260206004820152601a60248201527f496e73756666696369656e7420746f6b656e2062616c616e63650000000000006044820152606401610546565b61133360408a018a61264b565b8360ff16818110611346576113466125d1565b905060400201602001602081019061135e91906122a7565b6001600160a01b031663a9059cbb61137960208c018c6122a7565b6040516001600160e01b031960e084901b1681526001600160a01b039091166004820152602481018490526044016020604051808303816000875af11580156113c6573d6000803e3d6000fd5b505050506040513d601f19601f820116820180604052508101906113ea91906125af565b506113f860408a018a61264b565b8360ff1681811061140b5761140b6125d1565b905060400201602001602081019061142391906122a7565b6001600160a01b031661143960208b018b6122a7565b6001600160a01b03167f037238854fe57fbf51f09946f854fc3916fe83938d6521f09bd05463839f13048360405161147391815260200190565b60405180910390a35b5080611487816126ec565b915050610f1c565b50505050506114ab60016000805160206129d183398151915255565b505050565b6114b861153b565b6001600160a01b0381166114e257604051631e4fbdf760e01b815260006004820152602401610546565b61047781611682565b6114f361153b565b6114fb61156d565b600081815260046020526040808220805460ff191690555182917fd09696ca8ce0c61299008965c7adc4f136cf006d4eca3fd306f4e0b228b43adb91a250565b336115446107ba565b6001600160a01b03161461048a5760405163118cdaa760e01b8152336004820152602401610546565b6000805160206129b18339815191525460ff161561048a5760405163d93c066560e01b815260040160405180910390fd5b6001600160a01b0381166115c45760405162461bcd60e51b8152600401610546906125e7565b6115cf600082611b7e565b6115eb5760405162461bcd60e51b815260040161054690612569565b6040516001600160a01b038216907f1cef54ca6e1745ad87fa3077491d9fc42257e9f1a2d7cad58a4e52bd14dfc62690600090a250565b61162a611b93565b6000805160206129b1833981519152805460ff191681557f5db9ee0a495bf2e6ff9c91a7834c1ba4fdd244a5e8aa4e537bd38aeae4b073aa335b6040516001600160a01b03909116815260200160405180910390a150565b7f9016d09d72d40fdae2fd8ceac6b6234c7706214fd39c1cd1e609a0528c19930080546001600160a01b031981166001600160a01b03848116918217845560405192169182907f8be0079c531659141344cd1fd0a4f28419497f9722a3daafe3b4186f6b6457e090600090a3505050565b6001600160a01b0381166117195760405162461bcd60e51b8152600401610546906125e7565b611724600082611bc3565b6117705760405162461bcd60e51b815260206004820152601760248201527f546f6b656e20616c726561647920737570706f727465640000000000000000006044820152606401610546565b6040516001600160a01b038216907f8f50fda9bf5d3b403c53b7e91646abd507f8cebf2577655d55d7de3926168b1790600090a250565b6001600160a01b038116600090815260018301602052604081205415155b9392505050565b6117d461156d565b6000805160206129b1833981519152805460ff191660011781557f62e78cea01bee320cd4e420270b5ea74000d11b0c9f74754ebdbfc544b05a25833611664565b7fa16a46d94261c7517cc8ff89f61c0ce93598e3c849801011dee649a6a557d1028054606091600080516020612964833981519152916118549061270b565b80601f01602080910402602001604051908101604052809291908181526020018280546118809061270b565b80156118cd5780601f106118a2576101008083540402835291602001916118cd565b820191906000526020600020905b8154815290600101906020018083116118b057829003601f168201915b505050505091505090565b7fa16a46d94261c7517cc8ff89f61c0ce93598e3c849801011dee649a6a557d1038054606091600080516020612964833981519152916118549061270b565b6000805160206129d183398151915280546001190161194957604051633ee5aeb560e01b815260040160405180910390fd5b60029055565b60016000805160206129d183398151915255565b61196b611bd8565b61047781611c21565b61197c611bd8565b61048a611c29565b61198c611bd8565b6107b68282611c31565b61199e611bd8565b61048a611c92565b60006104c3825490565b606060006117c583611cb3565b804710156119e75760405163cf47918160e01b815247600482015260248101829052604401610546565b6000826001600160a01b03168260405160006040518083038185875af1925050503d8060008114611a34576040519150601f19603f3d011682016040523d82523d6000602084013e611a39565b606091505b50509050806114ab5760405163d6bda27560e01b815260040160405180910390fd5b6000610b31611d0f565b60006040518060800160405280604e8152602001612916604e91396040518060600160405280602d8152602001612984602d9139604051602001611aaa929190612745565b60408051601f19818403018152919052805160209182012090611acf908401846122a7565b611adf604085016020860161269c565b611af4611aef604087018761264b565b611d83565b8560600135604051602001611b379594939291909485526001600160a01b0393909316602085015260ff9190911660408401526060830152608082015260a00190565b604051602081830303815290604052805190602001209050919050565b600080600080611b648686611e4c565b925092509250611b748282611e99565b5090949350505050565b60006117c5836001600160a01b038416611f52565b6000805160206129b18339815191525460ff1661048a57604051638dfc202b60e01b815260040160405180910390fd5b60006117c5836001600160a01b038416612045565b7ff0c57e16840df040f15088dc2f81fe391c3923bec73e23a9662efc9c229c6a0054600160401b900460ff1661048a57604051631afcd79f60e31b815260040160405180910390fd5b6114b8611bd8565b61194f611bd8565b611c39611bd8565b6000805160206129648339815191527fa16a46d94261c7517cc8ff89f61c0ce93598e3c849801011dee649a6a557d102611c7384826127c4565b5060038101611c8283826127c4565b5060008082556001909101555050565b611c9a611bd8565b6000805160206129b1833981519152805460ff19169055565b606081600001805480602002602001604051908101604052809291908181526020018280548015611d0357602002820191906000526020600020905b815481526020019060010190808311611cef575b50505050509050919050565b60007f8b73c3c69bb8fe3d512ecc4cf759cc79239f7b179b0ffacaa9a75d522b39400f611d3a612094565b611d426120fe565b60408051602081019490945283019190915260608201524660808201523060a082015260c00160405160208183030381529060405280519060200120905090565b6000808267ffffffffffffffff811115611d9f57611d9f612553565b604051908082528060200260200182016040528015611dc8578160200160208202803683370190505b50905060005b83811015611e1b57611df6858583818110611deb57611deb6125d1565b905060400201612142565b828281518110611e0857611e086125d1565b6020908102919091010152600101611dce565b5080604051602001611e2d9190612884565b6040516020818303038152906040528051906020012091505092915050565b60008060008351604103611e865760208401516040850151606086015160001a611e78888285856121c3565b955095509550505050611e92565b50508151600091506002905b9250925092565b6000826003811115611ead57611ead6128ba565b03611eb6575050565b6001826003811115611eca57611eca6128ba565b03611ee85760405163f645eedf60e01b815260040160405180910390fd5b6002826003811115611efc57611efc6128ba565b03611f1d5760405163fce698f760e01b815260048101829052602401610546565b6003826003811115611f3157611f316128ba565b036107b6576040516335e2f38360e21b815260048101829052602401610546565b6000818152600183016020526040812054801561203b576000611f766001836128d0565b8554909150600090611f8a906001906128d0565b9050808214611fef576000866000018281548110611faa57611faa6125d1565b9060005260206000200154905080876000018481548110611fcd57611fcd6125d1565b6000918252602080832090910192909255918252600188019052604090208390555b8554869080612000576120006128e3565b6001900381819060005260206000200160009055905585600101600086815260200190815260200160002060009055600193505050506104c3565b60009150506104c3565b600081815260018301602052604081205461208c575081546001818101845560008481526020808220909301849055845484825282860190935260409020919091556104c3565b5060006104c3565b6000600080516020612964833981519152816120ae611815565b8051909150156120c657805160209091012092915050565b815480156120d5579392505050565b7fc5d2460186f7233c927e7db2dcc703c0e500b653ca82273b7bfad8045d85a470935050505090565b6000600080516020612964833981519152816121186118d8565b80519091501561213057805160209091012092915050565b600182015480156120d5579392505050565b60006040518060600160405280602d8152602001612984602d913960405160200161216d91906128f9565b60405160208183030381529060405280519060200120826000013583602001602081019061219b91906122a7565b6040805160208101949094528301919091526001600160a01b03166060820152608001611b37565b600080807f7fffffffffffffffffffffffffffffff5d576e7357a4501ddfe92f46681b20a08411156121fe5750600091506003905082612288565b604080516000808252602082018084528a905260ff891692820192909252606081018790526080810186905260019060a0016020604051602081039080840390855afa158015612252573d6000803e3d6000fd5b5050604051601f1901519150506001600160a01b03811661227e57506000925060019150829050612288565b9250600091508190505b9450945094915050565b6001600160a01b038116811461047757600080fd5b6000602082840312156122b957600080fd5b81356117c581612292565b6000602082840312156122d657600080fd5b5035919050565b60005b838110156122f85781810151838201526020016122e0565b50506000910152565b600081518084526123198160208601602086016122dd565b601f01601f19169290920160200192915050565b60ff60f81b881681526000602060e0602084015261234e60e084018a612301565b8381036040850152612360818a612301565b606085018990526001600160a01b038816608086015260a0850187905284810360c08601528551808252602080880193509091019060005b818110156123b457835183529284019291840191600101612398565b50909c9b505050505050505050505050565b600080604083850312156123d957600080fd5b82356123e481612292565b946020939093013593505050565b60008060006040848603121561240757600080fd5b833561241281612292565b9250602084013567ffffffffffffffff8082111561242f57600080fd5b818601915086601f83011261244357600080fd5b81358181111561245257600080fd5b8760208260051b850101111561246757600080fd5b6020830194508093505050509250925092565b6020808252825182820181905260009190848201906040850190845b818110156124bb5783516001600160a01b031683529284019291840191600101612496565b50909695505050505050565b6000806000604084860312156124dc57600080fd5b833567ffffffffffffffff808211156124f457600080fd5b908501906080828803121561250857600080fd5b9093506020850135908082111561251e57600080fd5b818601915086601f83011261253257600080fd5b81358181111561254157600080fd5b87602082850101111561246757600080fd5b634e487b7160e01b600052604160045260246000fd5b602080825260139082015272151bdad95b881b9bdd081cdd5c1c1bdc9d1959606a1b604082015260600190565b6000602082840312156125a857600080fd5b5051919050565b6000602082840312156125c157600080fd5b815180151581146117c557600080fd5b634e487b7160e01b600052603260045260246000fd5b6020808252601c908201527f546f6b656e20616464726573732063616e6e6f74206265207a65726f00000000604082015260600190565b8183823760009101908152919050565b60006020828403121561264057600080fd5b81516117c581612292565b6000808335601e1984360301811261266257600080fd5b83018035915067ffffffffffffffff82111561267d57600080fd5b6020019150600681901b360382131561269557600080fd5b9250929050565b6000602082840312156126ae57600080fd5b813560ff811681146117c557600080fd5b634e487b7160e01b600052601160045260246000fd5b80820281158282048414176104c3576104c36126bf565b600060ff821660ff8103612702576127026126bf565b60010192915050565b600181811c9082168061271f57607f821691505b60208210810361273f57634e487b7160e01b600052602260045260246000fd5b50919050565b600083516127578184602088016122dd565b83519083019061276b8183602088016122dd565b01949350505050565b601f8211156114ab576000816000526020600020601f850160051c8101602086101561279d5750805b601f850160051c820191505b818110156127bc578281556001016127a9565b505050505050565b815167ffffffffffffffff8111156127de576127de612553565b6127f2816127ec845461270b565b84612774565b602080601f831160018114612827576000841561280f5750858301515b600019600386901b1c1916600185901b1785556127bc565b600085815260208120601f198616915b8281101561285657888601518255948401946001909101908401612837565b50858210156128745787850151600019600388901b60f8161c191681555b5050505050600190811b01905550565b815160009082906020808601845b838110156128ae57815185529382019390820190600101612892565b50929695505050505050565b634e487b7160e01b600052602160045260246000fd5b818103818111156104c3576104c36126bf565b634e487b7160e01b600052603160045260246000fd5b6000825161290b8184602087016122dd565b919091019291505056fe57616765436c61696d286164647265737320656d706c6f796565416464726573732c75696e743820686f757273576f726b65642c576167655b5d2077616765732c75696e74323536206461746529a16a46d94261c7517cc8ff89f61c0ce93598e3c849801011dee649a6a557d100576167652875696e7432353620686f75726c79526174652c6164647265737320746f6b656e4164647265737329cd5ed15c6e187e77e9aee88184c21f4f2182ab5827cb3b7e07fbedcd63f033009b779b17422d0df92223018b32b4d1fa46e071723d6817e2486d003becc55f00a2646970667358221220c8f5b35548eb7aa55ee2b0f931b3c1f8af18403bfb83d2cae8644c9a32f78df164736f6c63430008180033",
  "linkReferences": {},
  "deployedLinkReferences": {}
}