{
  "_format": "hh-sol-artifact-1",
  "contractName": "CashRemunerationEIP712",
  "sourceName": "contracts/CashRemunerationEIP712.sol",
  "abi": [
    {
      "inputs": [],
      "name": "ECDSAInvalidSignature",
      "type": "error"
    },
    {
      "inputs": [
        {
          "internalType": "uint256",
          "name": "length",
          "type": "uint256"
        }
      ],
      "name": "ECDSAInvalidSignatureLength",
      "type": "error"
    },
    {
      "inputs": [
        {
          "internalType": "bytes32",
          "name": "s",
          "type": "bytes32"
        }
      ],
      "name": "ECDSAInvalidSignatureS",
      "type": "error"
    },
    {
      "inputs": [],
      "name": "EnforcedPause",
      "type": "error"
    },
    {
      "inputs": [],
      "name": "ExpectedPause",
      "type": "error"
    },
    {
      "inputs": [],
      "name": "FailedCall",
      "type": "error"
    },
    {
      "inputs": [
        {
          "internalType": "uint256",
          "name": "balance",
          "type": "uint256"
        },
        {
          "internalType": "uint256",
          "name": "needed",
          "type": "uint256"
        }
      ],
      "name": "InsufficientBalance",
      "type": "error"
    },
    {
      "inputs": [],
      "name": "InvalidInitialization",
      "type": "error"
    },
    {
      "inputs": [],
      "name": "NotInitializing",
      "type": "error"
    },
    {
      "inputs": [
        {
          "internalType": "address",
          "name": "owner",
          "type": "address"
        }
      ],
      "name": "OwnableInvalidOwner",
      "type": "error"
    },
    {
      "inputs": [
        {
          "internalType": "address",
          "name": "account",
          "type": "address"
        }
      ],
      "name": "OwnableUnauthorizedAccount",
      "type": "error"
    },
    {
      "inputs": [],
      "name": "ReentrancyGuardReentrantCall",
      "type": "error"
    },
    {
      "inputs": [
        {
          "internalType": "address",
          "name": "expected",
          "type": "address"
        },
        {
          "internalType": "address",
          "name": "received",
          "type": "address"
        }
      ],
      "name": "UnauthorizedAccess",
      "type": "error"
    },
    {
      "anonymous": false,
      "inputs": [
        {
          "indexed": true,
          "internalType": "address",
          "name": "depositor",
          "type": "address"
        },
        {
          "indexed": false,
          "internalType": "uint256",
          "name": "amount",
          "type": "uint256"
        }
      ],
      "name": "Deposited",
      "type": "event"
    },
    {
      "anonymous": false,
      "inputs": [],
      "name": "EIP712DomainChanged",
      "type": "event"
    },
    {
      "anonymous": false,
      "inputs": [
        {
          "indexed": false,
          "internalType": "uint64",
          "name": "version",
          "type": "uint64"
        }
      ],
      "name": "Initialized",
      "type": "event"
    },
    {
      "anonymous": false,
      "inputs": [
        {
          "indexed": true,
          "internalType": "address",
          "name": "newOfficerAddress",
          "type": "address"
        }
      ],
      "name": "OfficerAddressUpdated",
      "type": "event"
    },
    {
      "anonymous": false,
      "inputs": [
        {
          "indexed": true,
          "internalType": "address",
          "name": "previousOwner",
          "type": "address"
        },
        {
          "indexed": true,
          "internalType": "address",
          "name": "newOwner",
          "type": "address"
        }
      ],
      "name": "OwnershipTransferred",
      "type": "event"
    },
    {
      "anonymous": false,
      "inputs": [
        {
          "indexed": false,
          "internalType": "address",
          "name": "account",
          "type": "address"
        }
      ],
      "name": "Paused",
      "type": "event"
    },
    {
      "anonymous": false,
      "inputs": [
        {
          "indexed": true,
          "internalType": "address",
          "name": "tokenAddress",
          "type": "address"
        }
      ],
      "name": "TokenSupportAdded",
      "type": "event"
    },
    {
      "anonymous": false,
      "inputs": [
        {
          "indexed": true,
          "internalType": "address",
          "name": "tokenAddress",
          "type": "address"
        }
      ],
      "name": "TokenSupportRemoved",
      "type": "event"
    },
    {
      "anonymous": false,
      "inputs": [
        {
          "indexed": false,
          "internalType": "address",
          "name": "account",
          "type": "address"
        }
      ],
      "name": "Unpaused",
      "type": "event"
    },
    {
      "anonymous": false,
      "inputs": [
        {
          "indexed": true,
          "internalType": "bytes32",
          "name": "signatureHash",
          "type": "bytes32"
        }
      ],
      "name": "WageClaimDisabled",
      "type": "event"
    },
    {
      "anonymous": false,
      "inputs": [
        {
          "indexed": true,
          "internalType": "bytes32",
          "name": "signatureHash",
          "type": "bytes32"
        }
      ],
      "name": "WageClaimEnabled",
      "type": "event"
    },
    {
      "anonymous": false,
      "inputs": [
        {
          "indexed": true,
          "internalType": "address",
          "name": "withdrawer",
          "type": "address"
        },
        {
          "indexed": false,
          "internalType": "uint256",
          "name": "amount",
          "type": "uint256"
        }
      ],
      "name": "Withdraw",
      "type": "event"
    },
    {
      "anonymous": false,
      "inputs": [
        {
          "indexed": true,
          "internalType": "address",
          "name": "withdrawer",
          "type": "address"
        },
        {
          "indexed": true,
          "internalType": "address",
          "name": "tokenAddress",
          "type": "address"
        },
        {
          "indexed": false,
          "internalType": "uint256",
          "name": "amount",
          "type": "uint256"
        }
      ],
      "name": "WithdrawToken",
      "type": "event"
    },
    {
      "inputs": [
        {
          "internalType": "address",
          "name": "tokenAddress",
          "type": "address"
        }
      ],
      "name": "addTokenSupport",
      "outputs": [],
      "stateMutability": "nonpayable",
      "type": "function"
    },
    {
      "inputs": [
        {
          "internalType": "bytes32",
          "name": "signatureHash",
          "type": "bytes32"
        }
      ],
      "name": "disableClaim",
      "outputs": [],
      "stateMutability": "nonpayable",
      "type": "function"
    },
    {
      "inputs": [
        {
          "internalType": "bytes32",
          "name": "",
          "type": "bytes32"
        }
      ],
      "name": "disabledWageClaims",
      "outputs": [
        {
          "internalType": "bool",
          "name": "",
          "type": "bool"
        }
      ],
      "stateMutability": "view",
      "type": "function"
    },
    {
      "inputs": [],
      "name": "eip712Domain",
      "outputs": [
        {
          "internalType": "bytes1",
          "name": "fields",
          "type": "bytes1"
        },
        {
          "internalType": "string",
          "name": "name",
          "type": "string"
        },
        {
          "internalType": "string",
          "name": "version",
          "type": "string"
        },
        {
          "internalType": "uint256",
          "name": "chainId",
          "type": "uint256"
        },
        {
          "internalType": "address",
          "name": "verifyingContract",
          "type": "address"
        },
        {
          "internalType": "bytes32",
          "name": "salt",
          "type": "bytes32"
        },
        {
          "internalType": "uint256[]",
          "name": "extensions",
          "type": "uint256[]"
        }
      ],
      "stateMutability": "view",
      "type": "function"
    },
    {
      "inputs": [
        {
          "internalType": "bytes32",
          "name": "signatureHash",
          "type": "bytes32"
        }
      ],
      "name": "enableClaim",
      "outputs": [],
      "stateMutability": "nonpayable",
      "type": "function"
    },
    {
      "inputs": [],
      "name": "getBalance",
      "outputs": [
        {
          "internalType": "uint256",
          "name": "",
          "type": "uint256"
        }
      ],
      "stateMutability": "view",
      "type": "function"
    },
    {
      "inputs": [
        {
          "internalType": "address",
          "name": "_owner",
          "type": "address"
        },
        {
          "internalType": "address[]",
          "name": "_tokenAddresses",
          "type": "address[]"
        }
      ],
      "name": "initialize",
      "outputs": [],
      "stateMutability": "nonpayable",
      "type": "function"
    },
    {
      "inputs": [],
      "name": "officerAddress",
      "outputs": [
        {
          "internalType": "address",
          "name": "",
          "type": "address"
        }
      ],
      "stateMutability": "view",
      "type": "function"
    },
    {
      "inputs": [],
      "name": "owner",
      "outputs": [
        {
          "internalType": "address",
          "name": "",
          "type": "address"
        }
      ],
      "stateMutability": "view",
      "type": "function"
    },
    {
      "inputs": [
        {
          "internalType": "bytes32",
          "name": "",
          "type": "bytes32"
        }
      ],
      "name": "paidWageClaims",
      "outputs": [
        {
          "internalType": "bool",
          "name": "",
          "type": "bool"
        }
      ],
      "stateMutability": "view",
      "type": "function"
    },
    {
      "inputs": [],
      "name": "pause",
      "outputs": [],
      "stateMutability": "nonpayable",
      "type": "function"
    },
    {
      "inputs": [],
      "name": "paused",
      "outputs": [
        {
          "internalType": "bool",
          "name": "",
          "type": "bool"
        }
      ],
      "stateMutability": "view",
      "type": "function"
    },
    {
      "inputs": [
        {
          "internalType": "address",
          "name": "tokenAddress",
          "type": "address"
        }
      ],
      "name": "removeTokenSupport",
      "outputs": [],
      "stateMutability": "nonpayable",
      "type": "function"
    },
    {
      "inputs": [],
      "name": "renounceOwnership",
      "outputs": [],
      "stateMutability": "nonpayable",
      "type": "function"
    },
    {
      "inputs": [
        {
          "internalType": "address",
          "name": "_officerAddress",
          "type": "address"
        }
      ],
      "name": "setOfficerAddress",
      "outputs": [],
      "stateMutability": "nonpayable",
      "type": "function"
    },
    {
      "inputs": [
        {
          "internalType": "address",
          "name": "",
          "type": "address"
        }
      ],
      "name": "supportedTokens",
      "outputs": [
        {
          "internalType": "bool",
          "name": "",
          "type": "bool"
        }
      ],
      "stateMutability": "view",
      "type": "function"
    },
    {
      "inputs": [
        {
          "internalType": "address",
          "name": "newOwner",
          "type": "address"
        }
      ],
      "name": "transferOwnership",
      "outputs": [],
      "stateMutability": "nonpayable",
      "type": "function"
    },
    {
      "inputs": [],
      "name": "unpause",
      "outputs": [],
      "stateMutability": "nonpayable",
      "type": "function"
    },
    {
      "inputs": [
        {
          "components": [
            {
              "internalType": "address",
              "name": "employeeAddress",
              "type": "address"
            },
            {
              "internalType": "uint8",
              "name": "hoursWorked",
              "type": "uint8"
            },
            {
              "components": [
                {
                  "internalType": "uint256",
                  "name": "hourlyRate",
                  "type": "uint256"
                },
                {
                  "internalType": "address",
                  "name": "tokenAddress",
                  "type": "address"
                }
              ],
              "internalType": "struct CashRemunerationEIP712.Wage[]",
              "name": "wages",
              "type": "tuple[]"
            },
            {
              "internalType": "uint256",
              "name": "date",
              "type": "uint256"
            }
          ],
          "internalType": "struct CashRemunerationEIP712.WageClaim",
          "name": "wageClaim",
          "type": "tuple"
        },
        {
          "internalType": "bytes",
          "name": "signature",
          "type": "bytes"
        }
      ],
      "name": "withdraw",
      "outputs": [],
      "stateMutability": "nonpayable",
      "type": "function"
    },
    {
      "stateMutability": "payable",
      "type": "receive"
    }
  ],
  "bytecode": "0x608060405234801561001057600080fd5b5061241a806100206000396000f3fe6080604052600436106101185760003560e01c8063733c237d116100a0578063b650edf911610064578063b650edf914610344578063d6ba1d3a14610364578063e836ac1314610394578063f2fde38b146103b4578063fec715b4146103d457600080fd5b8063733c237d146102b25780638456cb59146102d257806384b0196e146102e75780638da5cb5b1461030f578063946d92041461032457600080fd5b80633c5f15e7116100e75780633c5f15e7146102135780633f4ba83a146102335780635c975abb1461024857806368c4ac261461026d578063715018a61461029d57600080fd5b806312065fe0146101595780632ba8d93914610179578063315f77ef1461019b57806337be403a146101d357600080fd5b366101545760405134815233907f2da466a7b24304f47e87fa2e1e5a81b9831ce54fec19055ce277ca2f39ba42c49060200160405180910390a2005b600080fd5b34801561016557600080fd5b506040514781526020015b60405180910390f35b34801561018557600080fd5b50610199610194366004611d83565b6103f4565b005b3480156101a757600080fd5b506002546101bb906001600160a01b031681565b6040516001600160a01b039091168152602001610170565b3480156101df57600080fd5b506102036101ee366004611da7565b60036020526000908152604090205460ff1681565b6040519015158152602001610170565b34801561021f57600080fd5b5061019961022e366004611d83565b6104da565b34801561023f57600080fd5b50610199610534565b34801561025457600080fd5b506000805160206123c58339815191525460ff16610203565b34801561027957600080fd5b50610203610288366004611d83565b60006020819052908152604090205460ff1681565b3480156102a957600080fd5b50610199610546565b3480156102be57600080fd5b506101996102cd366004611d83565b610558565b3480156102de57600080fd5b50610199610643565b3480156102f357600080fd5b506102fc610653565b6040516101709796959493929190611e10565b34801561031b57600080fd5b506101bb6106ff565b34801561033057600080fd5b5061019961033f366004611ea9565b61072d565b34801561035057600080fd5b5061019961035f366004611da7565b61097f565b34801561037057600080fd5b5061020361037f366004611da7565b60016020526000908152604090205460ff1681565b3480156103a057600080fd5b506101996103af366004611f31565b6109d2565b3480156103c057600080fd5b506101996103cf366004611d83565b611296565b3480156103e057600080fd5b506101996103ef366004611da7565b6112d4565b6103fc611324565b610404611356565b6001600160a01b0381166104335760405162461bcd60e51b815260040161042a90611fbd565b60405180910390fd5b6001600160a01b03811660009081526020819052604090205460ff166104915760405162461bcd60e51b8152602060048201526013602482015272151bdad95b881b9bdd081cdd5c1c1bdc9d1959606a1b604482015260640161042a565b6001600160a01b038116600081815260208190526040808220805460ff19169055517f1cef54ca6e1745ad87fa3077491d9fc42257e9f1a2d7cad58a4e52bd14dfc6269190a250565b6104e2611324565b6104ea611356565b600280546001600160a01b0319166001600160a01b0383169081179091556040517fe338c35cdad98f4dde4e453697997d800b1d1790c7d83da95f4205e52bc7caf690600090a250565b61053c611324565b610544611387565b565b61054e611324565b61054460006113e7565b610560611324565b610568611356565b6001600160a01b03811661058e5760405162461bcd60e51b815260040161042a90611fbd565b6001600160a01b03811660009081526020819052604090205460ff16156105f75760405162461bcd60e51b815260206004820152601760248201527f546f6b656e20616c726561647920737570706f72746564000000000000000000604482015260640161042a565b6001600160a01b038116600081815260208190526040808220805460ff19166001179055517f8f50fda9bf5d3b403c53b7e91646abd507f8cebf2577655d55d7de3926168b179190a250565b61064b611324565b610544611458565b60006060808280808381600080516020612378833981519152805490915015801561068057506001810154155b6106c45760405162461bcd60e51b81526020600482015260156024820152741152540dcc4c8e88155b9a5b9a5d1a585b1a5e9959605a1b604482015260640161042a565b6106cc6114a1565b6106d4611564565b60408051600080825260208201909252600f60f81b9c939b5091995046985030975095509350915050565b7f9016d09d72d40fdae2fd8ceac6b6234c7706214fd39c1cd1e609a0528c199300546001600160a01b031690565b7ff0c57e16840df040f15088dc2f81fe391c3923bec73e23a9662efc9c229c6a008054600160401b810460ff16159067ffffffffffffffff166000811580156107735750825b905060008267ffffffffffffffff1660011480156107905750303b155b90508115801561079e575080155b156107bc5760405163f92ee8a960e01b815260040160405180910390fd5b845467ffffffffffffffff1916600117855583156107e657845460ff60401b1916600160401b1785555b6001600160a01b038816610814576107fd336115a3565b600280546001600160a01b0319163317905561081d565b61081d886115a3565b6108256115b4565b61082d6115c4565b6108786040518060400160405280601081526020016f21b0b9b42932b6bab732b930ba34b7b760811b815250604051806040016040528060018152602001603160f81b8152506115d4565b60005b8681101561092e5760008888838181106108975761089761200a565b90506020020160208101906108ac9190611d83565b6001600160a01b0316036108d25760405162461bcd60e51b815260040161042a90611fbd565b60016000808a8a858181106108e9576108e961200a565b90506020020160208101906108fe9190611d83565b6001600160a01b031681526020810191909152604001600020805460ff191691151591909117905560010161087b565b50831561097557845460ff60401b19168555604051600181527fc7f505b2f371ae2175ee4913f4499e1f2633a7b5936321eed1cdaeb6115181d29060200160405180910390a15b5050505050505050565b610987611324565b61098f611356565b600081815260036020526040808220805460ff191660011790555182917fe64505d06519cd7f1b841ca9e59490caea3704d16199a3781d914bb5476e837b91a250565b6109da611356565b6109e26115ea565b6109ef6020840184611d83565b6001600160a01b0316336001600160a01b031614610a4f5760405162461bcd60e51b815260206004820152601760248201527f57697468647261776572206e6f7420617070726f766564000000000000000000604482015260640161042a565b6000610a59611634565b610a6285611643565b60405161190160f01b6020820152602281019290925260428201526062016040516020818303038152906040528051906020012090506000610adc84848080601f01602080910402602001604051908101604052809392919081815260200183838082843760009201919091525086939250506117329050565b9050610ae66106ff565b6001600160a01b0316816001600160a01b031614610b3357610b066106ff565b604051634116c50f60e01b81526001600160a01b039182166004820152908216602482015260440161042a565b60008484604051610b45929190612020565b604080519182900390912060008181526001602052919091205490915060ff1615610ba65760405162461bcd60e51b815260206004820152601160248201527015d859d948185b1c9958591e481c185a59607a1b604482015260640161042a565b60008181526003602052604090205460ff1615610bfb5760405162461bcd60e51b815260206004820152601360248201527215d859d94818db185a5b48191a5cd8589b1959606a1b604482015260640161042a565b60008181526001602081905260408220805460ff191690911790555b610c246040880188612030565b90508160ff161015611264576000610c3f6040890189612030565b8360ff16818110610c5257610c5261200a565b90506040020160000135886020016020810190610c6f9190612081565b60ff16610c7c91906120ba565b90506000610c8d60408a018a612030565b8460ff16818110610ca057610ca061200a565b9050604002016020016020810190610cb89190611d83565b6001600160a01b031603610d3a57610ce681610cd760208b018b611d83565b6001600160a01b03169061175e565b610cf36020890189611d83565b6001600160a01b03167f884edad9ce6fa2440d8a54cc123490eb96d2768479d49ff9c7366125a942436482604051610d2d91815260200190565b60405180910390a2611251565b600080610d4a60408b018b612030565b8560ff16818110610d5d57610d5d61200a565b9050604002016020016020810190610d759190611d83565b6001600160a01b0316815260208101919091526040016000205460ff16610dd45760405162461bcd60e51b8152602060048201526013602482015272151bdad95b881b9bdd081cdd5c1c1bdc9d1959606a1b604482015260640161042a565b6002546001600160a01b031615801590610ebc575060025460405163040a4ce560e21b815260206004820152600a602482015269496e766573746f72563160b01b60448201526001600160a01b0390911690631029339490606401602060405180830381865afa158015610e4c573d6000803e3d6000fd5b505050506040513d601f19601f82011682018060405250810190610e7091906120d1565b6001600160a01b0316610e8660408a018a612030565b8460ff16818110610e9957610e9961200a565b9050604002016020016020810190610eb19190611d83565b6001600160a01b0316145b1561100a57610ece6040890189612030565b8360ff16818110610ee157610ee161200a565b9050604002016020016020810190610ef99190611d83565b6001600160a01b0316636b7747b3610f1460208b018b611d83565b6040516001600160e01b031960e084901b1681526001600160a01b03909116600482015260248101849052604401600060405180830381600087803b158015610f5c57600080fd5b505af1158015610f70573d6000803e3d6000fd5b50610f82925050506040890189612030565b8360ff16818110610f9557610f9561200a565b9050604002016020016020810190610fad9190611d83565b6001600160a01b0316610fc360208a018a611d83565b6001600160a01b03167f037238854fe57fbf51f09946f854fc3916fe83938d6521f09bd05463839f130483604051610ffd91815260200190565b60405180910390a3611251565b8061101860408a018a612030565b8460ff1681811061102b5761102b61200a565b90506040020160200160208101906110439190611d83565b6040516370a0823160e01b81523060048201526001600160a01b0391909116906370a0823190602401602060405180830381865afa158015611089573d6000803e3d6000fd5b505050506040513d601f19601f820116820180604052508101906110ad91906120ee565b10156110fb5760405162461bcd60e51b815260206004820152601a60248201527f496e73756666696369656e7420746f6b656e2062616c616e6365000000000000604482015260640161042a565b6111086040890189612030565b8360ff1681811061111b5761111b61200a565b90506040020160200160208101906111339190611d83565b6001600160a01b031663a9059cbb61114e60208b018b611d83565b6040516001600160e01b031960e084901b1681526001600160a01b039091166004820152602481018490526044016020604051808303816000875af115801561119b573d6000803e3d6000fd5b505050506040513d601f19601f820116820180604052508101906111bf9190612107565b506111cd6040890189612030565b8360ff168181106111e0576111e061200a565b90506040020160200160208101906111f89190611d83565b6001600160a01b031661120e60208a018a611d83565b6001600160a01b03167f037238854fe57fbf51f09946f854fc3916fe83938d6521f09bd05463839f13048360405161124891815260200190565b60405180910390a35b508061125c81612129565b915050610c17565b5050505061129160017f9b779b17422d0df92223018b32b4d1fa46e071723d6817e2486d003becc55f0055565b505050565b61129e611324565b6001600160a01b0381166112c857604051631e4fbdf760e01b81526000600482015260240161042a565b6112d1816113e7565b50565b6112dc611324565b6112e4611356565b600081815260036020526040808220805460ff191690555182917fd09696ca8ce0c61299008965c7adc4f136cf006d4eca3fd306f4e0b228b43adb91a250565b3361132d6106ff565b6001600160a01b0316146105445760405163118cdaa760e01b815233600482015260240161042a565b6000805160206123c58339815191525460ff16156105445760405163d93c066560e01b815260040160405180910390fd5b61138f611822565b6000805160206123c5833981519152805460ff191681557f5db9ee0a495bf2e6ff9c91a7834c1ba4fdd244a5e8aa4e537bd38aeae4b073aa335b6040516001600160a01b03909116815260200160405180910390a150565b7f9016d09d72d40fdae2fd8ceac6b6234c7706214fd39c1cd1e609a0528c19930080546001600160a01b031981166001600160a01b03848116918217845560405192169182907f8be0079c531659141344cd1fd0a4f28419497f9722a3daafe3b4186f6b6457e090600090a3505050565b611460611356565b6000805160206123c5833981519152805460ff191660011781557f62e78cea01bee320cd4e420270b5ea74000d11b0c9f74754ebdbfc544b05a258336113c9565b7fa16a46d94261c7517cc8ff89f61c0ce93598e3c849801011dee649a6a557d1028054606091600080516020612378833981519152916114e090612148565b80601f016020809104026020016040519081016040528092919081815260200182805461150c90612148565b80156115595780601f1061152e57610100808354040283529160200191611559565b820191906000526020600020905b81548152906001019060200180831161153c57829003601f168201915b505050505091505090565b7fa16a46d94261c7517cc8ff89f61c0ce93598e3c849801011dee649a6a557d1038054606091600080516020612378833981519152916114e090612148565b6115ab611852565b6112d18161189b565b6115bc611852565b6105446118a3565b6115cc611852565b6105446118ab565b6115dc611852565b6115e682826118cc565b5050565b7f9b779b17422d0df92223018b32b4d1fa46e071723d6817e2486d003becc55f0080546001190161162e57604051633ee5aeb560e01b815260040160405180910390fd5b60029055565b600061163e61192d565b905090565b60006040518060800160405280604e815260200161232a604e91396040518060600160405280602d8152602001612398602d9139604051602001611688929190612182565b60408051601f198184030181529190528051602091820120906116ad90840184611d83565b6116bd6040850160208601612081565b6116d26116cd6040870187612030565b6119a1565b85606001356040516020016117159594939291909485526001600160a01b0393909316602085015260ff9190911660408401526060830152608082015260a00190565b604051602081830303815290604052805190602001209050919050565b6000806000806117428686611a6a565b9250925092506117528282611ab7565b50909150505b92915050565b804710156117885760405163cf47918160e01b81524760048201526024810182905260440161042a565b6000826001600160a01b03168260405160006040518083038185875af1925050503d80600081146117d5576040519150601f19603f3d011682016040523d82523d6000602084013e6117da565b606091505b50509050806112915760405163d6bda27560e01b815260040160405180910390fd5b60017f9b779b17422d0df92223018b32b4d1fa46e071723d6817e2486d003becc55f0055565b6000805160206123c58339815191525460ff1661054457604051638dfc202b60e01b815260040160405180910390fd5b7ff0c57e16840df040f15088dc2f81fe391c3923bec73e23a9662efc9c229c6a0054600160401b900460ff1661054457604051631afcd79f60e31b815260040160405180910390fd5b61129e611852565b6117fc611852565b6118b3611852565b6000805160206123c5833981519152805460ff19169055565b6118d4611852565b6000805160206123788339815191527fa16a46d94261c7517cc8ff89f61c0ce93598e3c849801011dee649a6a557d10261190e8482612201565b506003810161191d8382612201565b5060008082556001909101555050565b60007f8b73c3c69bb8fe3d512ecc4cf759cc79239f7b179b0ffacaa9a75d522b39400f611958611b70565b611960611bda565b60408051602081019490945283019190915260608201524660808201523060a082015260c00160405160208183030381529060405280519060200120905090565b6000808267ffffffffffffffff8111156119bd576119bd611ff4565b6040519080825280602002602001820160405280156119e6578160200160208202803683370190505b50905060005b83811015611a3957611a14858583818110611a0957611a0961200a565b905060400201611c1e565b828281518110611a2657611a2661200a565b60209081029190910101526001016119ec565b5080604051602001611a4b91906122c1565b6040516020818303038152906040528051906020012091505092915050565b60008060008351604103611aa45760208401516040850151606086015160001a611a9688828585611c9f565b955095509550505050611ab0565b50508151600091506002905b9250925092565b6000826003811115611acb57611acb6122f7565b03611ad4575050565b6001826003811115611ae857611ae86122f7565b03611b065760405163f645eedf60e01b815260040160405180910390fd5b6002826003811115611b1a57611b1a6122f7565b03611b3b5760405163fce698f760e01b81526004810182905260240161042a565b6003826003811115611b4f57611b4f6122f7565b036115e6576040516335e2f38360e21b81526004810182905260240161042a565b600060008051602061237883398151915281611b8a6114a1565b805190915015611ba257805160209091012092915050565b81548015611bb1579392505050565b7fc5d2460186f7233c927e7db2dcc703c0e500b653ca82273b7bfad8045d85a470935050505090565b600060008051602061237883398151915281611bf4611564565b805190915015611c0c57805160209091012092915050565b60018201548015611bb1579392505050565b60006040518060600160405280602d8152602001612398602d9139604051602001611c49919061230d565b604051602081830303815290604052805190602001208260000135836020016020810190611c779190611d83565b6040805160208101949094528301919091526001600160a01b03166060820152608001611715565b600080807f7fffffffffffffffffffffffffffffff5d576e7357a4501ddfe92f46681b20a0841115611cda5750600091506003905082611d64565b604080516000808252602082018084528a905260ff891692820192909252606081018790526080810186905260019060a0016020604051602081039080840390855afa158015611d2e573d6000803e3d6000fd5b5050604051601f1901519150506001600160a01b038116611d5a57506000925060019150829050611d64565b9250600091508190505b9450945094915050565b6001600160a01b03811681146112d157600080fd5b600060208284031215611d9557600080fd5b8135611da081611d6e565b9392505050565b600060208284031215611db957600080fd5b5035919050565b60005b83811015611ddb578181015183820152602001611dc3565b50506000910152565b60008151808452611dfc816020860160208601611dc0565b601f01601f19169290920160200192915050565b60ff60f81b881681526000602060e06020840152611e3160e084018a611de4565b8381036040850152611e43818a611de4565b606085018990526001600160a01b038816608086015260a0850187905284810360c08601528551808252602080880193509091019060005b81811015611e9757835183529284019291840191600101611e7b565b50909c9b505050505050505050505050565b600080600060408486031215611ebe57600080fd5b8335611ec981611d6e565b9250602084013567ffffffffffffffff80821115611ee657600080fd5b818601915086601f830112611efa57600080fd5b813581811115611f0957600080fd5b8760208260051b8501011115611f1e57600080fd5b6020830194508093505050509250925092565b600080600060408486031215611f4657600080fd5b833567ffffffffffffffff80821115611f5e57600080fd5b9085019060808288031215611f7257600080fd5b90935060208501359080821115611f8857600080fd5b818601915086601f830112611f9c57600080fd5b813581811115611fab57600080fd5b876020828501011115611f1e57600080fd5b6020808252601c908201527f546f6b656e20616464726573732063616e6e6f74206265207a65726f00000000604082015260600190565b634e487b7160e01b600052604160045260246000fd5b634e487b7160e01b600052603260045260246000fd5b8183823760009101908152919050565b6000808335601e1984360301811261204757600080fd5b83018035915067ffffffffffffffff82111561206257600080fd5b6020019150600681901b360382131561207a57600080fd5b9250929050565b60006020828403121561209357600080fd5b813560ff81168114611da057600080fd5b634e487b7160e01b600052601160045260246000fd5b8082028115828204841417611758576117586120a4565b6000602082840312156120e357600080fd5b8151611da081611d6e565b60006020828403121561210057600080fd5b5051919050565b60006020828403121561211957600080fd5b81518015158114611da057600080fd5b600060ff821660ff810361213f5761213f6120a4565b60010192915050565b600181811c9082168061215c57607f821691505b60208210810361217c57634e487b7160e01b600052602260045260246000fd5b50919050565b60008351612194818460208801611dc0565b8351908301906121a8818360208801611dc0565b01949350505050565b601f821115611291576000816000526020600020601f850160051c810160208610156121da5750805b601f850160051c820191505b818110156121f9578281556001016121e6565b505050505050565b815167ffffffffffffffff81111561221b5761221b611ff4565b61222f816122298454612148565b846121b1565b602080601f831160018114612264576000841561224c5750858301515b600019600386901b1c1916600185901b1785556121f9565b600085815260208120601f198616915b8281101561229357888601518255948401946001909101908401612274565b50858210156122b15787850151600019600388901b60f8161c191681555b5050505050600190811b01905550565b815160009082906020808601845b838110156122eb578151855293820193908201906001016122cf565b50929695505050505050565b634e487b7160e01b600052602160045260246000fd5b6000825161231f818460208701611dc0565b919091019291505056fe57616765436c61696d286164647265737320656d706c6f796565416464726573732c75696e743820686f757273576f726b65642c576167655b5d2077616765732c75696e74323536206461746529a16a46d94261c7517cc8ff89f61c0ce93598e3c849801011dee649a6a557d100576167652875696e7432353620686f75726c79526174652c6164647265737320746f6b656e4164647265737329cd5ed15c6e187e77e9aee88184c21f4f2182ab5827cb3b7e07fbedcd63f03300a2646970667358221220505797d0999638f91814629f0d75bf8a5f34b01638b385e6d53eca9ab3d4c12164736f6c63430008180033",
  "linkReferences": {},
  "deployedLinkReferences": {}
}