{
  "_format": "hh-sol-artifact-1",
  "contractName": "CashRemunerationEIP712",
  "sourceName": "contracts/CashRemunerationEIP712.sol",
  "abi": [
    {
      "inputs": [],
      "name": "ECDSAInvalidSignature",
      "type": "error"
    },
    {
      "inputs": [
        {
          "internalType": "uint256",
          "name": "length",
          "type": "uint256"
        }
      ],
      "name": "ECDSAInvalidSignatureLength",
      "type": "error"
    },
    {
      "inputs": [
        {
          "internalType": "bytes32",
          "name": "s",
          "type": "bytes32"
        }
      ],
      "name": "ECDSAInvalidSignatureS",
      "type": "error"
    },
    {
      "inputs": [],
      "name": "EnforcedPause",
      "type": "error"
    },
    {
      "inputs": [],
      "name": "ExpectedPause",
      "type": "error"
    },
    {
      "inputs": [],
      "name": "FailedCall",
      "type": "error"
    },
    {
      "inputs": [
        {
          "internalType": "uint256",
          "name": "balance",
          "type": "uint256"
        },
        {
          "internalType": "uint256",
          "name": "needed",
          "type": "uint256"
        }
      ],
      "name": "InsufficientBalance",
      "type": "error"
    },
    {
      "inputs": [],
      "name": "InvalidInitialization",
      "type": "error"
    },
    {
      "inputs": [],
      "name": "NotInitializing",
      "type": "error"
    },
    {
      "inputs": [
        {
          "internalType": "address",
          "name": "owner",
          "type": "address"
        }
      ],
      "name": "OwnableInvalidOwner",
      "type": "error"
    },
    {
      "inputs": [
        {
          "internalType": "address",
          "name": "account",
          "type": "address"
        }
      ],
      "name": "OwnableUnauthorizedAccount",
      "type": "error"
    },
    {
      "inputs": [],
      "name": "ReentrancyGuardReentrantCall",
      "type": "error"
    },
    {
      "inputs": [
        {
          "internalType": "address",
          "name": "expected",
          "type": "address"
        },
        {
          "internalType": "address",
          "name": "received",
          "type": "address"
        }
      ],
      "name": "UnauthorizedAccess",
      "type": "error"
    },
    {
      "anonymous": false,
      "inputs": [
        {
          "indexed": true,
          "internalType": "address",
          "name": "depositor",
          "type": "address"
        },
        {
          "indexed": false,
          "internalType": "uint256",
          "name": "amount",
          "type": "uint256"
        }
      ],
      "name": "Deposited",
      "type": "event"
    },
    {
      "anonymous": false,
      "inputs": [],
      "name": "EIP712DomainChanged",
      "type": "event"
    },
    {
      "anonymous": false,
      "inputs": [
        {
          "indexed": false,
          "internalType": "uint64",
          "name": "version",
          "type": "uint64"
        }
      ],
      "name": "Initialized",
      "type": "event"
    },
    {
      "anonymous": false,
      "inputs": [
        {
          "indexed": true,
          "internalType": "address",
          "name": "previousOwner",
          "type": "address"
        },
        {
          "indexed": true,
          "internalType": "address",
          "name": "newOwner",
          "type": "address"
        }
      ],
      "name": "OwnershipTransferred",
      "type": "event"
    },
    {
      "anonymous": false,
      "inputs": [
        {
          "indexed": false,
          "internalType": "address",
          "name": "account",
          "type": "address"
        }
      ],
      "name": "Paused",
      "type": "event"
    },
    {
      "anonymous": false,
      "inputs": [
        {
          "indexed": true,
          "internalType": "address",
          "name": "tokenAddress",
          "type": "address"
        }
      ],
      "name": "TokenSupportAdded",
      "type": "event"
    },
    {
      "anonymous": false,
      "inputs": [
        {
          "indexed": true,
          "internalType": "address",
          "name": "tokenAddress",
          "type": "address"
        }
      ],
      "name": "TokenSupportRemoved",
      "type": "event"
    },
    {
      "anonymous": false,
      "inputs": [
        {
          "indexed": false,
          "internalType": "address",
          "name": "account",
          "type": "address"
        }
      ],
      "name": "Unpaused",
      "type": "event"
    },
    {
      "anonymous": false,
      "inputs": [
        {
          "indexed": true,
          "internalType": "address",
          "name": "withdrawer",
          "type": "address"
        },
        {
          "indexed": false,
          "internalType": "uint256",
          "name": "amount",
          "type": "uint256"
        }
      ],
      "name": "Withdraw",
      "type": "event"
    },
    {
      "anonymous": false,
      "inputs": [
        {
          "indexed": true,
          "internalType": "address",
          "name": "withdrawer",
          "type": "address"
        },
        {
          "indexed": true,
          "internalType": "address",
          "name": "tokenAddress",
          "type": "address"
        },
        {
          "indexed": false,
          "internalType": "uint256",
          "name": "amount",
          "type": "uint256"
        }
      ],
      "name": "WithdrawToken",
      "type": "event"
    },
    {
      "inputs": [
        {
          "internalType": "address",
          "name": "tokenAddress",
          "type": "address"
        }
      ],
      "name": "addTokenSupport",
      "outputs": [],
      "stateMutability": "nonpayable",
      "type": "function"
    },
    {
      "inputs": [],
      "name": "eip712Domain",
      "outputs": [
        {
          "internalType": "bytes1",
          "name": "fields",
          "type": "bytes1"
        },
        {
          "internalType": "string",
          "name": "name",
          "type": "string"
        },
        {
          "internalType": "string",
          "name": "version",
          "type": "string"
        },
        {
          "internalType": "uint256",
          "name": "chainId",
          "type": "uint256"
        },
        {
          "internalType": "address",
          "name": "verifyingContract",
          "type": "address"
        },
        {
          "internalType": "bytes32",
          "name": "salt",
          "type": "bytes32"
        },
        {
          "internalType": "uint256[]",
          "name": "extensions",
          "type": "uint256[]"
        }
      ],
      "stateMutability": "view",
      "type": "function"
    },
    {
      "inputs": [],
      "name": "getBalance",
      "outputs": [
        {
          "internalType": "uint256",
          "name": "",
          "type": "uint256"
        }
      ],
      "stateMutability": "view",
      "type": "function"
    },
    {
      "inputs": [
        {
          "internalType": "address",
          "name": "owner",
          "type": "address"
        },
        {
          "internalType": "address[]",
          "name": "tokenAddresses",
          "type": "address[]"
        }
      ],
      "name": "initialize",
      "outputs": [],
      "stateMutability": "nonpayable",
      "type": "function"
    },
    {
      "inputs": [],
      "name": "owner",
      "outputs": [
        {
          "internalType": "address",
          "name": "",
          "type": "address"
        }
      ],
      "stateMutability": "view",
      "type": "function"
    },
    {
      "inputs": [
        {
          "internalType": "bytes32",
          "name": "",
          "type": "bytes32"
        }
      ],
      "name": "paidWageClaims",
      "outputs": [
        {
          "internalType": "bool",
          "name": "",
          "type": "bool"
        }
      ],
      "stateMutability": "view",
      "type": "function"
    },
    {
      "inputs": [],
      "name": "pause",
      "outputs": [],
      "stateMutability": "nonpayable",
      "type": "function"
    },
    {
      "inputs": [],
      "name": "paused",
      "outputs": [
        {
          "internalType": "bool",
          "name": "",
          "type": "bool"
        }
      ],
      "stateMutability": "view",
      "type": "function"
    },
    {
      "inputs": [
        {
          "internalType": "address",
          "name": "tokenAddress",
          "type": "address"
        }
      ],
      "name": "removeTokenSupport",
      "outputs": [],
      "stateMutability": "nonpayable",
      "type": "function"
    },
    {
      "inputs": [],
      "name": "renounceOwnership",
      "outputs": [],
      "stateMutability": "nonpayable",
      "type": "function"
    },
    {
      "inputs": [
        {
          "internalType": "address",
          "name": "",
          "type": "address"
        }
      ],
      "name": "supportedTokens",
      "outputs": [
        {
          "internalType": "bool",
          "name": "",
          "type": "bool"
        }
      ],
      "stateMutability": "view",
      "type": "function"
    },
    {
      "inputs": [
        {
          "internalType": "address",
          "name": "newOwner",
          "type": "address"
        }
      ],
      "name": "transferOwnership",
      "outputs": [],
      "stateMutability": "nonpayable",
      "type": "function"
    },
    {
      "inputs": [],
      "name": "unpause",
      "outputs": [],
      "stateMutability": "nonpayable",
      "type": "function"
    },
    {
      "inputs": [
        {
          "components": [
            {
              "internalType": "address",
              "name": "employeeAddress",
              "type": "address"
            },
            {
              "internalType": "uint8",
              "name": "hoursWorked",
              "type": "uint8"
            },
            {
              "components": [
                {
                  "internalType": "uint256",
                  "name": "hourlyRate",
                  "type": "uint256"
                },
                {
                  "internalType": "address",
                  "name": "tokenAddress",
                  "type": "address"
                }
              ],
              "internalType": "struct CashRemunerationEIP712.Wage[]",
              "name": "wages",
              "type": "tuple[]"
            },
            {
              "internalType": "uint256",
              "name": "date",
              "type": "uint256"
            }
          ],
          "internalType": "struct CashRemunerationEIP712.WageClaim",
          "name": "wageClaim",
          "type": "tuple"
        },
        {
          "internalType": "bytes",
          "name": "signature",
          "type": "bytes"
        }
      ],
      "name": "withdraw",
      "outputs": [],
      "stateMutability": "nonpayable",
      "type": "function"
    },
    {
      "stateMutability": "payable",
      "type": "receive"
    }
  ],
  "bytecode": "0x608060405234801561001057600080fd5b50612040806100206000396000f3fe6080604052600436106100e15760003560e01c80638456cb591161007f578063946d920411610059578063946d920414610279578063d6ba1d3a14610299578063e836ac13146102c9578063f2fde38b146102e957600080fd5b80638456cb591461020f57806384b0196e146102245780638da5cb5b1461024c57600080fd5b80635c975abb116100bb5780635c975abb1461017957806368c4ac26146101aa578063715018a6146101da578063733c237d146101ef57600080fd5b806312065fe0146101225780632ba8d939146101425780633f4ba83a1461016457600080fd5b3661011d5760405134815233907f2da466a7b24304f47e87fa2e1e5a81b9831ce54fec19055ce277ca2f39ba42c49060200160405180910390a2005b600080fd5b34801561012e57600080fd5b506040514781526020015b60405180910390f35b34801561014e57600080fd5b5061016261015d3660046119ca565b610309565b005b34801561017057600080fd5b506101626103e7565b34801561018557600080fd5b50600080516020611feb8339815191525460ff165b6040519015158152602001610139565b3480156101b657600080fd5b5061019a6101c53660046119ca565b60006020819052908152604090205460ff1681565b3480156101e657600080fd5b506101626103f9565b3480156101fb57600080fd5b5061016261020a3660046119ca565b61040b565b34801561021b57600080fd5b506101626104ee565b34801561023057600080fd5b506102396104fe565b6040516101399796959493929190611a3c565b34801561025857600080fd5b506102616105aa565b6040516001600160a01b039091168152602001610139565b34801561028557600080fd5b50610162610294366004611ad5565b6105d8565b3480156102a557600080fd5b5061019a6102b4366004611b5b565b60016020526000908152604090205460ff1681565b3480156102d557600080fd5b506101626102e4366004611b74565b61083e565b3480156102f557600080fd5b506101626103043660046119ca565b610f0f565b610311610f4d565b6001600160a01b0381166103405760405162461bcd60e51b815260040161033790611c00565b60405180910390fd5b6001600160a01b03811660009081526020819052604090205460ff1661039e5760405162461bcd60e51b8152602060048201526013602482015272151bdad95b881b9bdd081cdd5c1c1bdc9d1959606a1b6044820152606401610337565b6001600160a01b038116600081815260208190526040808220805460ff19169055517f1cef54ca6e1745ad87fa3077491d9fc42257e9f1a2d7cad58a4e52bd14dfc6269190a250565b6103ef610f4d565b6103f7610f7f565b565b610401610f4d565b6103f76000610fdf565b610413610f4d565b6001600160a01b0381166104395760405162461bcd60e51b815260040161033790611c00565b6001600160a01b03811660009081526020819052604090205460ff16156104a25760405162461bcd60e51b815260206004820152601760248201527f546f6b656e20616c726561647920737570706f727465640000000000000000006044820152606401610337565b6001600160a01b038116600081815260208190526040808220805460ff19166001179055517f8f50fda9bf5d3b403c53b7e91646abd507f8cebf2577655d55d7de3926168b179190a250565b6104f6610f4d565b6103f7611050565b60006060808280808381600080516020611f9e833981519152805490915015801561052b57506001810154155b61056f5760405162461bcd60e51b81526020600482015260156024820152741152540dcc4c8e88155b9a5b9a5d1a585b1a5e9959605a1b6044820152606401610337565b610577611099565b61057f61115c565b60408051600080825260208201909252600f60f81b9c939b5091995046985030975095509350915050565b7f9016d09d72d40fdae2fd8ceac6b6234c7706214fd39c1cd1e609a0528c199300546001600160a01b031690565b60006105e261119b565b805490915060ff600160401b820416159067ffffffffffffffff1660008115801561060a5750825b905060008267ffffffffffffffff1660011480156106275750303b155b905081158015610635575080155b156106535760405163f92ee8a960e01b815260040160405180910390fd5b845467ffffffffffffffff19166001178555831561067d57845460ff60401b1916600160401b1785555b6001600160a01b0388166106d35760405162461bcd60e51b815260206004820152601c60248201527f4f776e657220616464726573732063616e6e6f74206265207a65726f000000006044820152606401610337565b6106dc886111c6565b6106e46111d7565b6106ec6111e7565b6107376040518060400160405280601081526020016f21b0b9b42932b6bab732b930ba34b7b760811b815250604051806040016040528060018152602001603160f81b8152506111ef565b60005b868110156107ed57600088888381811061075657610756611c4d565b905060200201602081019061076b91906119ca565b6001600160a01b0316036107915760405162461bcd60e51b815260040161033790611c00565b60016000808a8a858181106107a8576107a8611c4d565b90506020020160208101906107bd91906119ca565b6001600160a01b031681526020810191909152604001600020805460ff191691151591909117905560010161073a565b50831561083457845460ff60401b19168555604051600181527fc7f505b2f371ae2175ee4913f4499e1f2633a7b5936321eed1cdaeb6115181d29060200160405180910390a15b5050505050505050565b610846611205565b61084e611236565b61085b60208401846119ca565b6001600160a01b0316336001600160a01b0316146108bb5760405162461bcd60e51b815260206004820152601760248201527f57697468647261776572206e6f7420617070726f7665640000000000000000006044820152606401610337565b60006108c5611280565b6108ce8561128f565b60405161190160f01b602082015260228101929092526042820152606201604051602081830303815290604052805190602001209050600061094884848080601f016020809104026020016040519081016040528093929190818152602001838380828437600092019190915250869392505061137e9050565b90506109526105aa565b6001600160a01b0316816001600160a01b03161461099f576109726105aa565b604051634116c50f60e01b81526001600160a01b0391821660048201529082166024820152604401610337565b600084846040516109b1929190611c63565b604080519182900390912060008181526001602052919091205490915060ff1615610a125760405162461bcd60e51b815260206004820152601160248201527015d859d948185b1c9958591e481c185a59607a1b6044820152606401610337565b60008181526001602081905260408220805460ff191690911790555b610a3b6040880188611c73565b90508160ff161015610edd576000610a566040890189611c73565b8360ff16818110610a6957610a69611c4d565b9050604002016020016020810190610a8191906119ca565b6001600160a01b031603610b52576000610a9e6040890189611c73565b8360ff16818110610ab157610ab1611c4d565b90506040020160000135886020016020810190610ace9190611cc4565b60ff16610adb9190611cfd565b9050610afd81610aee60208b018b6119ca565b6001600160a01b0316906113a8565b610b0a60208901896119ca565b6001600160a01b03167f884edad9ce6fa2440d8a54cc123490eb96d2768479d49ff9c7366125a942436482604051610b4491815260200190565b60405180910390a250610ecb565b600080610b6260408a018a611c73565b8460ff16818110610b7557610b75611c4d565b9050604002016020016020810190610b8d91906119ca565b6001600160a01b0316815260208101919091526040016000205460ff16610bec5760405162461bcd60e51b8152602060048201526013602482015272151bdad95b881b9bdd081cdd5c1c1bdc9d1959606a1b6044820152606401610337565b610bf96040880188611c73565b8260ff16818110610c0c57610c0c611c4d565b90506040020160000135876020016020810190610c299190611cc4565b60ff16610c369190611cfd565b610c436040890189611c73565b8360ff16818110610c5657610c56611c4d565b9050604002016020016020810190610c6e91906119ca565b6040516370a0823160e01b81523060048201526001600160a01b0391909116906370a0823190602401602060405180830381865afa158015610cb4573d6000803e3d6000fd5b505050506040513d601f19601f82011682018060405250810190610cd89190611d14565b1015610d265760405162461bcd60e51b815260206004820152601a60248201527f496e73756666696369656e7420746f6b656e2062616c616e63650000000000006044820152606401610337565b6000610d356040890189611c73565b8360ff16818110610d4857610d48611c4d565b90506040020160000135886020016020810190610d659190611cc4565b60ff16610d729190611cfd565b9050610d816040890189611c73565b8360ff16818110610d9457610d94611c4d565b9050604002016020016020810190610dac91906119ca565b6001600160a01b031663a9059cbb610dc760208b018b6119ca565b6040516001600160e01b031960e084901b1681526001600160a01b039091166004820152602481018490526044016020604051808303816000875af1158015610e14573d6000803e3d6000fd5b505050506040513d601f19601f82011682018060405250810190610e389190611d2d565b50610e466040890189611c73565b8360ff16818110610e5957610e59611c4d565b9050604002016020016020810190610e7191906119ca565b6001600160a01b0316610e8760208a018a6119ca565b6001600160a01b03167f037238854fe57fbf51f09946f854fc3916fe83938d6521f09bd05463839f130483604051610ec191815260200190565b60405180910390a3505b80610ed581611d4f565b915050610a2e565b50505050610f0a60017f9b779b17422d0df92223018b32b4d1fa46e071723d6817e2486d003becc55f0055565b505050565b610f17610f4d565b6001600160a01b038116610f4157604051631e4fbdf760e01b815260006004820152602401610337565b610f4a81610fdf565b50565b33610f566105aa565b6001600160a01b0316146103f75760405163118cdaa760e01b8152336004820152602401610337565b610f87611464565b600080516020611feb833981519152805460ff191681557f5db9ee0a495bf2e6ff9c91a7834c1ba4fdd244a5e8aa4e537bd38aeae4b073aa335b6040516001600160a01b03909116815260200160405180910390a150565b7f9016d09d72d40fdae2fd8ceac6b6234c7706214fd39c1cd1e609a0528c19930080546001600160a01b031981166001600160a01b03848116918217845560405192169182907f8be0079c531659141344cd1fd0a4f28419497f9722a3daafe3b4186f6b6457e090600090a3505050565b611058611205565b600080516020611feb833981519152805460ff191660011781557f62e78cea01bee320cd4e420270b5ea74000d11b0c9f74754ebdbfc544b05a25833610fc1565b7fa16a46d94261c7517cc8ff89f61c0ce93598e3c849801011dee649a6a557d1028054606091600080516020611f9e833981519152916110d890611d6e565b80601f016020809104026020016040519081016040528092919081815260200182805461110490611d6e565b80156111515780601f1061112657610100808354040283529160200191611151565b820191906000526020600020905b81548152906001019060200180831161113457829003601f168201915b505050505091505090565b7fa16a46d94261c7517cc8ff89f61c0ce93598e3c849801011dee649a6a557d1038054606091600080516020611f9e833981519152916110d890611d6e565b6000807ff0c57e16840df040f15088dc2f81fe391c3923bec73e23a9662efc9c229c6a005b92915050565b6111ce611494565b610f4a816114b9565b6111df611494565b6103f76114c1565b6103f7611494565b6111f7611494565b61120182826114c9565b5050565b600080516020611feb8339815191525460ff16156103f75760405163d93c066560e01b815260040160405180910390fd5b7f9b779b17422d0df92223018b32b4d1fa46e071723d6817e2486d003becc55f0080546001190161127a57604051633ee5aeb560e01b815260040160405180910390fd5b60029055565b600061128a61152a565b905090565b60006040518060800160405280604e8152602001611f50604e91396040518060600160405280602d8152602001611fbe602d91396040516020016112d4929190611da8565b60408051601f198184030181529190528051602091820120906112f9908401846119ca565b6113096040850160208601611cc4565b61131e6113196040870187611c73565b61159e565b85606001356040516020016113619594939291909485526001600160a01b0393909316602085015260ff9190911660408401526060830152608082015260a00190565b604051602081830303815290604052805190602001209050919050565b60008060008061138e8686611667565b92509250925061139e82826116b4565b5090949350505050565b804710156113d25760405163cf47918160e01b815247600482015260248101829052604401610337565b600080836001600160a01b03168360405160006040518083038185875af1925050503d8060008114611420576040519150601f19603f3d011682016040523d82523d6000602084013e611425565b606091505b509150915081611438576114388161176d565b50505050565b60017f9b779b17422d0df92223018b32b4d1fa46e071723d6817e2486d003becc55f0055565b600080516020611feb8339815191525460ff166103f757604051638dfc202b60e01b815260040160405180910390fd5b61149c611796565b6103f757604051631afcd79f60e31b815260040160405180910390fd5b610f17611494565b61143e611494565b6114d1611494565b600080516020611f9e8339815191527fa16a46d94261c7517cc8ff89f61c0ce93598e3c849801011dee649a6a557d10261150b8482611e27565b506003810161151a8382611e27565b5060008082556001909101555050565b60007f8b73c3c69bb8fe3d512ecc4cf759cc79239f7b179b0ffacaa9a75d522b39400f6115556117b0565b61155d61181a565b60408051602081019490945283019190915260608201524660808201523060a082015260c00160405160208183030381529060405280519060200120905090565b6000808267ffffffffffffffff8111156115ba576115ba611c37565b6040519080825280602002602001820160405280156115e3578160200160208202803683370190505b50905060005b838110156116365761161185858381811061160657611606611c4d565b90506040020161185e565b82828151811061162357611623611c4d565b60209081029190910101526001016115e9565b50806040516020016116489190611ee7565b6040516020818303038152906040528051906020012091505092915050565b600080600083516041036116a15760208401516040850151606086015160001a611693888285856118df565b9550955095505050506116ad565b50508151600091506002905b9250925092565b60008260038111156116c8576116c8611f1d565b036116d1575050565b60018260038111156116e5576116e5611f1d565b036117035760405163f645eedf60e01b815260040160405180910390fd5b600282600381111561171757611717611f1d565b036117385760405163fce698f760e01b815260048101829052602401610337565b600382600381111561174c5761174c611f1d565b03611201576040516335e2f38360e21b815260048101829052602401610337565b80511561177d5780518082602001fd5b60405163d6bda27560e01b815260040160405180910390fd5b60006117a061119b565b54600160401b900460ff16919050565b6000600080516020611f9e833981519152816117ca611099565b8051909150156117e257805160209091012092915050565b815480156117f1579392505050565b7fc5d2460186f7233c927e7db2dcc703c0e500b653ca82273b7bfad8045d85a470935050505090565b6000600080516020611f9e8339815191528161183461115c565b80519091501561184c57805160209091012092915050565b600182015480156117f1579392505050565b60006040518060600160405280602d8152602001611fbe602d91396040516020016118899190611f33565b6040516020818303038152906040528051906020012082600001358360200160208101906118b791906119ca565b6040805160208101949094528301919091526001600160a01b03166060820152608001611361565b600080807f7fffffffffffffffffffffffffffffff5d576e7357a4501ddfe92f46681b20a084111561191a57506000915060039050826119a4565b604080516000808252602082018084528a905260ff891692820192909252606081018790526080810186905260019060a0016020604051602081039080840390855afa15801561196e573d6000803e3d6000fd5b5050604051601f1901519150506001600160a01b03811661199a575060009250600191508290506119a4565b9250600091508190505b9450945094915050565b80356001600160a01b03811681146119c557600080fd5b919050565b6000602082840312156119dc57600080fd5b6119e5826119ae565b9392505050565b60005b83811015611a075781810151838201526020016119ef565b50506000910152565b60008151808452611a288160208601602086016119ec565b601f01601f19169290920160200192915050565b60ff60f81b881681526000602060e06020840152611a5d60e084018a611a10565b8381036040850152611a6f818a611a10565b606085018990526001600160a01b038816608086015260a0850187905284810360c08601528551808252602080880193509091019060005b81811015611ac357835183529284019291840191600101611aa7565b50909c9b505050505050505050505050565b600080600060408486031215611aea57600080fd5b611af3846119ae565b9250602084013567ffffffffffffffff80821115611b1057600080fd5b818601915086601f830112611b2457600080fd5b813581811115611b3357600080fd5b8760208260051b8501011115611b4857600080fd5b6020830194508093505050509250925092565b600060208284031215611b6d57600080fd5b5035919050565b600080600060408486031215611b8957600080fd5b833567ffffffffffffffff80821115611ba157600080fd5b9085019060808288031215611bb557600080fd5b90935060208501359080821115611bcb57600080fd5b818601915086601f830112611bdf57600080fd5b813581811115611bee57600080fd5b876020828501011115611b4857600080fd5b6020808252601c908201527f546f6b656e20616464726573732063616e6e6f74206265207a65726f00000000604082015260600190565b634e487b7160e01b600052604160045260246000fd5b634e487b7160e01b600052603260045260246000fd5b8183823760009101908152919050565b6000808335601e19843603018112611c8a57600080fd5b83018035915067ffffffffffffffff821115611ca557600080fd5b6020019150600681901b3603821315611cbd57600080fd5b9250929050565b600060208284031215611cd657600080fd5b813560ff811681146119e557600080fd5b634e487b7160e01b600052601160045260246000fd5b80820281158282048414176111c0576111c0611ce7565b600060208284031215611d2657600080fd5b5051919050565b600060208284031215611d3f57600080fd5b815180151581146119e557600080fd5b600060ff821660ff8103611d6557611d65611ce7565b60010192915050565b600181811c90821680611d8257607f821691505b602082108103611da257634e487b7160e01b600052602260045260246000fd5b50919050565b60008351611dba8184602088016119ec565b835190830190611dce8183602088016119ec565b01949350505050565b601f821115610f0a576000816000526020600020601f850160051c81016020861015611e005750805b601f850160051c820191505b81811015611e1f57828155600101611e0c565b505050505050565b815167ffffffffffffffff811115611e4157611e41611c37565b611e5581611e4f8454611d6e565b84611dd7565b602080601f831160018114611e8a5760008415611e725750858301515b600019600386901b1c1916600185901b178555611e1f565b600085815260208120601f198616915b82811015611eb957888601518255948401946001909101908401611e9a565b5085821015611ed75787850151600019600388901b60f8161c191681555b5050505050600190811b01905550565b815160009082906020808601845b83811015611f1157815185529382019390820190600101611ef5565b50929695505050505050565b634e487b7160e01b600052602160045260246000fd5b60008251611f458184602087016119ec565b919091019291505056fe57616765436c61696d286164647265737320656d706c6f796565416464726573732c75696e743820686f757273576f726b65642c576167655b5d2077616765732c75696e74323536206461746529a16a46d94261c7517cc8ff89f61c0ce93598e3c849801011dee649a6a557d100576167652875696e7432353620686f75726c79526174652c6164647265737320746f6b656e4164647265737329cd5ed15c6e187e77e9aee88184c21f4f2182ab5827cb3b7e07fbedcd63f03300a264697066735822122071ca5b2c9de6e39d9761328863cbe7613e4228a6217ee01fcc0dd04ba197145f64736f6c63430008180033",
  "linkReferences": {},
  "deployedLinkReferences": {}
}