{
  "_format": "hh-sol-artifact-1",
  "contractName": "CashRemunerationEIP712",
  "sourceName": "contracts/CashRemunerationEIP712.sol",
  "abi": [
    {
      "inputs": [],
      "name": "ECDSAInvalidSignature",
      "type": "error"
    },
    {
      "inputs": [
        {
          "internalType": "uint256",
          "name": "length",
          "type": "uint256"
        }
      ],
      "name": "ECDSAInvalidSignatureLength",
      "type": "error"
    },
    {
      "inputs": [
        {
          "internalType": "bytes32",
          "name": "s",
          "type": "bytes32"
        }
      ],
      "name": "ECDSAInvalidSignatureS",
      "type": "error"
    },
    {
      "inputs": [],
      "name": "EnforcedPause",
      "type": "error"
    },
    {
      "inputs": [],
      "name": "ExpectedPause",
      "type": "error"
    },
    {
      "inputs": [],
      "name": "FailedCall",
      "type": "error"
    },
    {
      "inputs": [
        {
          "internalType": "uint256",
          "name": "balance",
          "type": "uint256"
        },
        {
          "internalType": "uint256",
          "name": "needed",
          "type": "uint256"
        }
      ],
      "name": "InsufficientBalance",
      "type": "error"
    },
    {
      "inputs": [],
      "name": "InvalidInitialization",
      "type": "error"
    },
    {
      "inputs": [],
      "name": "NotInitializing",
      "type": "error"
    },
    {
      "inputs": [
        {
          "internalType": "address",
          "name": "owner",
          "type": "address"
        }
      ],
      "name": "OwnableInvalidOwner",
      "type": "error"
    },
    {
      "inputs": [
        {
          "internalType": "address",
          "name": "account",
          "type": "address"
        }
      ],
      "name": "OwnableUnauthorizedAccount",
      "type": "error"
    },
    {
      "inputs": [],
      "name": "ReentrancyGuardReentrantCall",
      "type": "error"
    },
    {
      "inputs": [
        {
          "internalType": "address",
          "name": "expected",
          "type": "address"
        },
        {
          "internalType": "address",
          "name": "received",
          "type": "address"
        }
      ],
      "name": "UnauthorizedAccess",
      "type": "error"
    },
    {
      "anonymous": false,
      "inputs": [
        {
          "indexed": true,
          "internalType": "address",
          "name": "depositor",
          "type": "address"
        },
        {
          "indexed": false,
          "internalType": "uint256",
          "name": "amount",
          "type": "uint256"
        }
      ],
      "name": "Deposited",
      "type": "event"
    },
    {
      "anonymous": false,
      "inputs": [],
      "name": "EIP712DomainChanged",
      "type": "event"
    },
    {
      "anonymous": false,
      "inputs": [
        {
          "indexed": false,
          "internalType": "uint64",
          "name": "version",
          "type": "uint64"
        }
      ],
      "name": "Initialized",
      "type": "event"
    },
    {
      "anonymous": false,
      "inputs": [
        {
          "indexed": true,
          "internalType": "address",
          "name": "newOfficerAddress",
          "type": "address"
        }
      ],
      "name": "OfficerAddressUpdated",
      "type": "event"
    },
    {
      "anonymous": false,
      "inputs": [
        {
          "indexed": true,
          "internalType": "address",
          "name": "ownerAddress",
          "type": "address"
        },
        {
          "indexed": false,
          "internalType": "uint256",
          "name": "amount",
          "type": "uint256"
        }
      ],
      "name": "OwnerTreasuryWithdrawNative",
      "type": "event"
    },
    {
      "anonymous": false,
      "inputs": [
        {
          "indexed": true,
          "internalType": "address",
          "name": "ownerAddress",
          "type": "address"
        },
        {
          "indexed": true,
          "internalType": "address",
          "name": "tokenAddress",
          "type": "address"
        },
        {
          "indexed": false,
          "internalType": "uint256",
          "name": "amount",
          "type": "uint256"
        }
      ],
      "name": "OwnerTreasuryWithdrawToken",
      "type": "event"
    },
    {
      "anonymous": false,
      "inputs": [
        {
          "indexed": true,
          "internalType": "address",
          "name": "previousOwner",
          "type": "address"
        },
        {
          "indexed": true,
          "internalType": "address",
          "name": "newOwner",
          "type": "address"
        }
      ],
      "name": "OwnershipTransferred",
      "type": "event"
    },
    {
      "anonymous": false,
      "inputs": [
        {
          "indexed": false,
          "internalType": "address",
          "name": "account",
          "type": "address"
        }
      ],
      "name": "Paused",
      "type": "event"
    },
    {
      "anonymous": false,
      "inputs": [
        {
          "indexed": true,
          "internalType": "address",
          "name": "tokenAddress",
          "type": "address"
        }
      ],
      "name": "TokenSupportAdded",
      "type": "event"
    },
    {
      "anonymous": false,
      "inputs": [
        {
          "indexed": true,
          "internalType": "address",
          "name": "tokenAddress",
          "type": "address"
        }
      ],
      "name": "TokenSupportRemoved",
      "type": "event"
    },
    {
      "anonymous": false,
      "inputs": [
        {
          "indexed": false,
          "internalType": "address",
          "name": "account",
          "type": "address"
        }
      ],
      "name": "Unpaused",
      "type": "event"
    },
    {
      "anonymous": false,
      "inputs": [
        {
          "indexed": true,
          "internalType": "bytes32",
          "name": "signatureHash",
          "type": "bytes32"
        }
      ],
      "name": "WageClaimDisabled",
      "type": "event"
    },
    {
      "anonymous": false,
      "inputs": [
        {
          "indexed": true,
          "internalType": "bytes32",
          "name": "signatureHash",
          "type": "bytes32"
        }
      ],
      "name": "WageClaimEnabled",
      "type": "event"
    },
    {
      "anonymous": false,
      "inputs": [
        {
          "indexed": true,
          "internalType": "address",
          "name": "withdrawer",
          "type": "address"
        },
        {
          "indexed": false,
          "internalType": "uint256",
          "name": "amount",
          "type": "uint256"
        }
      ],
      "name": "Withdraw",
      "type": "event"
    },
    {
      "anonymous": false,
      "inputs": [
        {
          "indexed": true,
          "internalType": "address",
          "name": "withdrawer",
          "type": "address"
        },
        {
          "indexed": true,
          "internalType": "address",
          "name": "tokenAddress",
          "type": "address"
        },
        {
          "indexed": false,
          "internalType": "uint256",
          "name": "amount",
          "type": "uint256"
        }
      ],
      "name": "WithdrawToken",
      "type": "event"
    },
    {
      "inputs": [
        {
          "internalType": "address",
          "name": "tokenAddress",
          "type": "address"
        }
      ],
      "name": "addTokenSupport",
      "outputs": [],
      "stateMutability": "nonpayable",
      "type": "function"
    },
    {
      "inputs": [
        {
          "internalType": "bytes32",
          "name": "signatureHash",
          "type": "bytes32"
        }
      ],
      "name": "disableClaim",
      "outputs": [],
      "stateMutability": "nonpayable",
      "type": "function"
    },
    {
      "inputs": [
        {
          "internalType": "bytes32",
          "name": "",
          "type": "bytes32"
        }
      ],
      "name": "disabledWageClaims",
      "outputs": [
        {
          "internalType": "bool",
          "name": "",
          "type": "bool"
        }
      ],
      "stateMutability": "view",
      "type": "function"
    },
    {
      "inputs": [],
      "name": "eip712Domain",
      "outputs": [
        {
          "internalType": "bytes1",
          "name": "fields",
          "type": "bytes1"
        },
        {
          "internalType": "string",
          "name": "name",
          "type": "string"
        },
        {
          "internalType": "string",
          "name": "version",
          "type": "string"
        },
        {
          "internalType": "uint256",
          "name": "chainId",
          "type": "uint256"
        },
        {
          "internalType": "address",
          "name": "verifyingContract",
          "type": "address"
        },
        {
          "internalType": "bytes32",
          "name": "salt",
          "type": "bytes32"
        },
        {
          "internalType": "uint256[]",
          "name": "extensions",
          "type": "uint256[]"
        }
      ],
      "stateMutability": "view",
      "type": "function"
    },
    {
      "inputs": [
        {
          "internalType": "bytes32",
          "name": "signatureHash",
          "type": "bytes32"
        }
      ],
      "name": "enableClaim",
      "outputs": [],
      "stateMutability": "nonpayable",
      "type": "function"
    },
    {
      "inputs": [],
      "name": "getBalance",
      "outputs": [
        {
          "internalType": "uint256",
          "name": "",
          "type": "uint256"
        }
      ],
      "stateMutability": "view",
      "type": "function"
    },
    {
      "inputs": [],
      "name": "getSupportedTokenCount",
      "outputs": [
        {
          "internalType": "uint256",
          "name": "",
          "type": "uint256"
        }
      ],
      "stateMutability": "view",
      "type": "function"
    },
    {
      "inputs": [],
      "name": "getSupportedTokens",
      "outputs": [
        {
          "internalType": "address[]",
          "name": "",
          "type": "address[]"
        }
      ],
      "stateMutability": "view",
      "type": "function"
    },
    {
      "inputs": [
        {
          "internalType": "address",
          "name": "_owner",
          "type": "address"
        },
        {
          "internalType": "address[]",
          "name": "_tokenAddresses",
          "type": "address[]"
        }
      ],
      "name": "initialize",
      "outputs": [],
      "stateMutability": "nonpayable",
      "type": "function"
    },
    {
      "inputs": [
        {
          "internalType": "address",
          "name": "_token",
          "type": "address"
        }
      ],
      "name": "isTokenSupported",
      "outputs": [
        {
          "internalType": "bool",
          "name": "",
          "type": "bool"
        }
      ],
      "stateMutability": "view",
      "type": "function"
    },
    {
      "inputs": [],
      "name": "officerAddress",
      "outputs": [
        {
          "internalType": "address",
          "name": "",
          "type": "address"
        }
      ],
      "stateMutability": "view",
      "type": "function"
    },
    {
      "inputs": [],
      "name": "owner",
      "outputs": [
        {
          "internalType": "address",
          "name": "",
          "type": "address"
        }
      ],
      "stateMutability": "view",
      "type": "function"
    },
    {
      "inputs": [],
      "name": "ownerWithdrawAllToBank",
      "outputs": [],
      "stateMutability": "nonpayable",
      "type": "function"
    },
    {
      "inputs": [
        {
          "internalType": "bytes32",
          "name": "",
          "type": "bytes32"
        }
      ],
      "name": "paidWageClaims",
      "outputs": [
        {
          "internalType": "bool",
          "name": "",
          "type": "bool"
        }
      ],
      "stateMutability": "view",
      "type": "function"
    },
    {
      "inputs": [],
      "name": "pause",
      "outputs": [],
      "stateMutability": "nonpayable",
      "type": "function"
    },
    {
      "inputs": [],
      "name": "paused",
      "outputs": [
        {
          "internalType": "bool",
          "name": "",
          "type": "bool"
        }
      ],
      "stateMutability": "view",
      "type": "function"
    },
    {
      "inputs": [
        {
          "internalType": "address",
          "name": "tokenAddress",
          "type": "address"
        }
      ],
      "name": "removeTokenSupport",
      "outputs": [],
      "stateMutability": "nonpayable",
      "type": "function"
    },
    {
      "inputs": [],
      "name": "renounceOwnership",
      "outputs": [],
      "stateMutability": "nonpayable",
      "type": "function"
    },
    {
      "inputs": [
        {
          "internalType": "address",
          "name": "newOwner",
          "type": "address"
        }
      ],
      "name": "transferOwnership",
      "outputs": [],
      "stateMutability": "nonpayable",
      "type": "function"
    },
    {
      "inputs": [],
      "name": "unpause",
      "outputs": [],
      "stateMutability": "nonpayable",
      "type": "function"
    },
    {
      "inputs": [
        {
          "components": [
            {
              "internalType": "address",
              "name": "employeeAddress",
              "type": "address"
            },
            {
              "internalType": "uint8",
              "name": "hoursWorked",
              "type": "uint8"
            },
            {
              "components": [
                {
                  "internalType": "uint256",
                  "name": "hourlyRate",
                  "type": "uint256"
                },
                {
                  "internalType": "address",
                  "name": "tokenAddress",
                  "type": "address"
                }
              ],
              "internalType": "struct CashRemunerationEIP712.Wage[]",
              "name": "wages",
              "type": "tuple[]"
            },
            {
              "internalType": "uint256",
              "name": "date",
              "type": "uint256"
            }
          ],
          "internalType": "struct CashRemunerationEIP712.WageClaim",
          "name": "wageClaim",
          "type": "tuple"
        },
        {
          "internalType": "bytes",
          "name": "signature",
          "type": "bytes"
        }
      ],
      "name": "withdraw",
      "outputs": [],
      "stateMutability": "nonpayable",
      "type": "function"
    },
    {
      "stateMutability": "payable",
      "type": "receive"
    }
  ],
  "bytecode": "0x608060405234801561001057600080fd5b50612bda806100206000396000f3fe60806040526004361061012e5760003560e01c80638456cb59116100ab578063ce67be261161006f578063ce67be2614610361578063d3c7c2c714610376578063d6ba1d3a14610398578063e836ac13146103c8578063f2fde38b146103e8578063fec715b41461040857600080fd5b80638456cb59146102cf57806384b0196e146102e45780638da5cb5b1461030c578063946d920414610321578063b650edf91461034157600080fd5b80633f4ba83a116100f25780633f4ba83a146102405780635c975abb14610255578063715018a61461027a578063733c237d1461028f57806375151b63146102af57600080fd5b8063085f27fc1461016f57806312065fe0146101865780632ba8d939146101a8578063315f77ef146101c857806337be403a1461020057600080fd5b3661016a5760405134815233907f2da466a7b24304f47e87fa2e1e5a81b9831ce54fec19055ce277ca2f39ba42c49060200160405180910390a2005b600080fd5b34801561017b57600080fd5b50610184610428565b005b34801561019257600080fd5b50475b6040519081526020015b60405180910390f35b3480156101b457600080fd5b506101846101c33660046123df565b610852565b3480156101d457600080fd5b506003546101e8906001600160a01b031681565b6040516001600160a01b03909116815260200161019f565b34801561020c57600080fd5b5061023061021b3660046123fc565b60046020526000908152604090205460ff1681565b604051901515815260200161019f565b34801561024c57600080fd5b5061018461086e565b34801561026157600080fd5b50600080516020612b658339815191525460ff16610230565b34801561028657600080fd5b5061018461087e565b34801561029b57600080fd5b506101846102aa3660046123df565b610890565b3480156102bb57600080fd5b506102306102ca3660046123df565b6108a9565b3480156102db57600080fd5b506101846108bb565b3480156102f057600080fd5b506102f96108cb565b60405161019f9796959493929190612465565b34801561031857600080fd5b506101e8610977565b34801561032d57600080fd5b5061018461033c3660046124fe565b6109a5565b34801561034d57600080fd5b5061018461035c3660046123fc565b610c8f565b34801561036d57600080fd5b50610195610ce2565b34801561038257600080fd5b5061038b610cf3565b60405161019f9190612586565b3480156103a457600080fd5b506102306103b33660046123fc565b60026020526000908152604090205460ff1681565b3480156103d457600080fd5b506101846103e33660046125d3565b610cff565b3480156103f457600080fd5b506101846104033660046123df565b6115be565b34801561041457600080fd5b506101846104233660046123fc565b6115f9565b610430611649565b61043861167b565b6104406116b3565b6003546001600160a01b031661049d5760405162461bcd60e51b815260206004820152601760248201527f4f6666696365722061646472657373206e6f742073657400000000000000000060448201526064015b60405180910390fd5b60035460405163040a4ce560e21b81526000916001600160a01b0316906310293394906104e59060040160208082526004908201526342616e6b60e01b604082015260600190565b602060405180830381865afa158015610502573d6000803e3d6000fd5b505050506040513d601f19601f82011682018060405250810190610526919061266f565b90506001600160a01b03811661057e5760405162461bcd60e51b815260206004820152601760248201527f42616e6b20636f6e7472616374206e6f7420666f756e640000000000000000006044820152606401610494565b4780156105e3576105986001600160a01b038316826116e4565b6105a0610977565b6001600160a01b03167f4d9676ed3c7e652a835f91b6e46ca5a9de07f3b7a97f1845ab5e635e2a953be4826040516105da91815260200190565b60405180910390a25b6000306001600160a01b031663d3c7c2c76040518163ffffffff1660e01b8152600401600060405180830381865afa158015610623573d6000803e3d6000fd5b505050506040513d6000823e601f3d908101601f1916820160405261064b91908101906126a2565b905060005b815181101561083557600082828151811061066d5761066d612767565b60209081029190910101516040516370a0823160e01b81523060048201526001600160a01b03909116906370a0823190602401602060405180830381865afa1580156106bd573d6000803e3d6000fd5b505050506040513d601f19601f820116820180604052508101906106e1919061277d565b9050801561082c578282815181106106fb576106fb612767565b602090810291909101015160405163a9059cbb60e01b81526001600160a01b038781166004830152602482018490529091169063a9059cbb906044016020604051808303816000875af1158015610756573d6000803e3d6000fd5b505050506040513d601f19601f8201168201806040525081019061077a9190612796565b6107be5760405162461bcd60e51b8152602060048201526015602482015274151bdad95b881d1c985b9cd9995c8819985a5b1959605a1b6044820152606401610494565b8282815181106107d0576107d0612767565b60200260200101516001600160a01b03166107e9610977565b6001600160a01b03167fe2684a45ae801408de30c0254c2019cd0ecea430606518d367c2f930ee6c30d78360405161082391815260200190565b60405180910390a35b50600101610650565b505050506108506001600080516020612b8583398151915255565b565b61085a611649565b6108626116b3565b61086b81611796565b50565b610876611649565b610850611840565b610886611649565b61085060006118a0565b610898611649565b6108a06116b3565b61086b81611911565b60006108b581836119c5565b92915050565b6108c3611649565b6108506119ea565b60006060808280808381600080516020612b1883398151915280549091501580156108f857506001810154155b61093c5760405162461bcd60e51b81526020600482015260156024820152741152540dcc4c8e88155b9a5b9a5d1a585b1a5e9959605a1b6044820152606401610494565b610944611a33565b61094c611af6565b60408051600080825260208201909252600f60f81b9c939b5091995046985030975095509350915050565b7f9016d09d72d40fdae2fd8ceac6b6234c7706214fd39c1cd1e609a0528c199300546001600160a01b031690565b7ff0c57e16840df040f15088dc2f81fe391c3923bec73e23a9662efc9c229c6a008054600160401b810460ff16159067ffffffffffffffff166000811580156109eb5750825b905060008267ffffffffffffffff166001148015610a085750303b155b905081158015610a16575080155b15610a345760405163f92ee8a960e01b815260040160405180910390fd5b845467ffffffffffffffff191660011785558315610a5e57845460ff60401b1916600160401b1785555b60006001600160a01b03891615610a755788610a77565b335b9050610a8281611b35565b610a8a611b46565b610ad56040518060400160405280601081526020016f21b0b9b42932b6bab732b930ba34b7b760811b815250604051806040016040528060018152602001603160f81b815250611b56565b610add611b6c565b33610b2a5760405162461bcd60e51b815260206004820152601960248201527f6d73672e73656e6465722063616e6e6f74206265207a65726f000000000000006044820152606401610494565b600380546001600160a01b0319163317905560005b87811015610bcd576000898983818110610b5b57610b5b612767565b9050602002016020810190610b7091906123df565b6001600160a01b031603610b965760405162461bcd60e51b8152600401610494906127b8565b610bc5898983818110610bab57610bab612767565b9050602002016020810190610bc091906123df565b611911565b600101610b3f565b5060005b87811015610c3d57888882818110610beb57610beb612767565b9050602002016020810190610c0091906123df565b6001600160a01b03167f8f50fda9bf5d3b403c53b7e91646abd507f8cebf2577655d55d7de3926168b1760405160405180910390a2600101610bd1565b50508315610c8557845460ff60401b19168555604051600181527fc7f505b2f371ae2175ee4913f4499e1f2633a7b5936321eed1cdaeb6115181d29060200160405180910390a15b5050505050505050565b610c97611649565b610c9f6116b3565b600081815260046020526040808220805460ff191660011790555182917fe64505d06519cd7f1b841ca9e59490caea3704d16199a3781d914bb5476e837b91a250565b6000610cee6000611b7c565b905090565b6060610cee6000611b86565b610d076116b3565b610d0f61167b565b610d1c60208401846123df565b6001600160a01b0316336001600160a01b031614610d7c5760405162461bcd60e51b815260206004820152601760248201527f57697468647261776572206e6f7420617070726f7665640000000000000000006044820152606401610494565b6000610d86611b93565b610d8f85611b9d565b60405161190160f01b6020820152602281019290925260428201526062016040516020818303038152906040528051906020012090506000610e0984848080601f0160208091040260200160405190810160405280939291908181526020018383808284376000920191909152508693925050611c8c9050565b9050610e13610977565b6001600160a01b0316816001600160a01b031614610e6057610e33610977565b604051634116c50f60e01b81526001600160a01b0391821660048201529082166024820152604401610494565b60008484604051610e729291906127ef565b604080519182900390912060008181526002602052919091205490915060ff1615610ed35760405162461bcd60e51b815260206004820152601160248201527015d859d948185b1c9958591e481c185a59607a1b6044820152606401610494565b60008181526004602052604090205460ff1615610f285760405162461bcd60e51b815260206004820152601360248201527215d859d94818db185a5b48191a5cd8589b1959606a1b6044820152606401610494565b6000818152600260205260408120805460ff191660011790556003546001600160a01b031615801590610f6657506003546001600160a01b03163b15155b15610ff25760035460405163040a4ce560e21b815260206004820152600a602482015269496e766573746f72563160b01b60448201526001600160a01b0390911690631029339490606401602060405180830381865afa925050508015610fea575060408051601f3d908101601f19168201909252610fe79181019061266f565b60015b15610ff25790505b60005b61100260408901896127ff565b90508160ff16101561159d57600061101d60408a018a6127ff565b8360ff1681811061103057611030612767565b9050604002016000013589602001602081019061104d9190612850565b60ff1661105a9190612889565b9050600061106b60408b018b6127ff565b8460ff1681811061107e5761107e612767565b905060400201602001602081019061109691906123df565b6001600160a01b031603611118576110c4816110b560208c018c6123df565b6001600160a01b0316906116e4565b6110d160208a018a6123df565b6001600160a01b03167f884edad9ce6fa2440d8a54cc123490eb96d2768479d49ff9c7366125a94243648260405161110b91815260200190565b60405180910390a261158a565b61115361112860408b018b6127ff565b8460ff1681811061113b5761113b612767565b90506040020160200160208101906102ca91906123df565b6111955760405162461bcd60e51b8152602060048201526013602482015272151bdad95b881b9bdd081cdd5c1c1bdc9d1959606a1b6044820152606401610494565b6001600160a01b038316158015906111f557506001600160a01b0383166111bf60408b018b6127ff565b8460ff168181106111d2576111d2612767565b90506040020160200160208101906111ea91906123df565b6001600160a01b0316145b156113435761120760408a018a6127ff565b8360ff1681811061121a5761121a612767565b905060400201602001602081019061123291906123df565b6001600160a01b0316636b7747b361124d60208c018c6123df565b6040516001600160e01b031960e084901b1681526001600160a01b03909116600482015260248101849052604401600060405180830381600087803b15801561129557600080fd5b505af11580156112a9573d6000803e3d6000fd5b506112bb9250505060408a018a6127ff565b8360ff168181106112ce576112ce612767565b90506040020160200160208101906112e691906123df565b6001600160a01b03166112fc60208b018b6123df565b6001600160a01b03167f037238854fe57fbf51f09946f854fc3916fe83938d6521f09bd05463839f13048360405161133691815260200190565b60405180910390a361158a565b8061135160408b018b6127ff565b8460ff1681811061136457611364612767565b905060400201602001602081019061137c91906123df565b6040516370a0823160e01b81523060048201526001600160a01b0391909116906370a0823190602401602060405180830381865afa1580156113c2573d6000803e3d6000fd5b505050506040513d601f19601f820116820180604052508101906113e6919061277d565b10156114345760405162461bcd60e51b815260206004820152601a60248201527f496e73756666696369656e7420746f6b656e2062616c616e63650000000000006044820152606401610494565b61144160408a018a6127ff565b8360ff1681811061145457611454612767565b905060400201602001602081019061146c91906123df565b6001600160a01b031663a9059cbb61148760208c018c6123df565b6040516001600160e01b031960e084901b1681526001600160a01b039091166004820152602481018490526044016020604051808303816000875af11580156114d4573d6000803e3d6000fd5b505050506040513d601f19601f820116820180604052508101906114f89190612796565b5061150660408a018a6127ff565b8360ff1681811061151957611519612767565b905060400201602001602081019061153191906123df565b6001600160a01b031661154760208b018b6123df565b6001600160a01b03167f037238854fe57fbf51f09946f854fc3916fe83938d6521f09bd05463839f13048360405161158191815260200190565b60405180910390a35b5080611595816128a0565b915050610ff5565b50505050506115b96001600080516020612b8583398151915255565b505050565b6115c6611649565b6001600160a01b0381166115f057604051631e4fbdf760e01b815260006004820152602401610494565b61086b816118a0565b611601611649565b6116096116b3565b600081815260046020526040808220805460ff191690555182917fd09696ca8ce0c61299008965c7adc4f136cf006d4eca3fd306f4e0b228b43adb91a250565b33611652610977565b6001600160a01b0316146108505760405163118cdaa760e01b8152336004820152602401610494565b600080516020612b858339815191528054600119016116ad57604051633ee5aeb560e01b815260040160405180910390fd5b60029055565b600080516020612b658339815191525460ff16156108505760405163d93c066560e01b815260040160405180910390fd5b8047101561170e5760405163cf47918160e01b815247600482015260248101829052604401610494565b6000826001600160a01b03168260405160006040518083038185875af1925050503d806000811461175b576040519150601f19603f3d011682016040523d82523d6000602084013e611760565b606091505b50509050806115b95760405163d6bda27560e01b815260040160405180910390fd5b6001600080516020612b8583398151915255565b6001600160a01b0381166117bc5760405162461bcd60e51b8152600401610494906127b8565b6117c7600082611cb6565b6118095760405162461bcd60e51b8152602060048201526013602482015272151bdad95b881b9bdd081cdd5c1c1bdc9d1959606a1b6044820152606401610494565b6040516001600160a01b038216907f1cef54ca6e1745ad87fa3077491d9fc42257e9f1a2d7cad58a4e52bd14dfc62690600090a250565b611848611ccb565b600080516020612b65833981519152805460ff191681557f5db9ee0a495bf2e6ff9c91a7834c1ba4fdd244a5e8aa4e537bd38aeae4b073aa335b6040516001600160a01b03909116815260200160405180910390a150565b7f9016d09d72d40fdae2fd8ceac6b6234c7706214fd39c1cd1e609a0528c19930080546001600160a01b031981166001600160a01b03848116918217845560405192169182907f8be0079c531659141344cd1fd0a4f28419497f9722a3daafe3b4186f6b6457e090600090a3505050565b6001600160a01b0381166119375760405162461bcd60e51b8152600401610494906127b8565b611942600082611cfb565b61198e5760405162461bcd60e51b815260206004820152601760248201527f546f6b656e20616c726561647920737570706f727465640000000000000000006044820152606401610494565b6040516001600160a01b038216907f8f50fda9bf5d3b403c53b7e91646abd507f8cebf2577655d55d7de3926168b1790600090a250565b6001600160a01b038116600090815260018301602052604081205415155b9392505050565b6119f26116b3565b600080516020612b65833981519152805460ff191660011781557f62e78cea01bee320cd4e420270b5ea74000d11b0c9f74754ebdbfc544b05a25833611882565b7fa16a46d94261c7517cc8ff89f61c0ce93598e3c849801011dee649a6a557d1028054606091600080516020612b1883398151915291611a72906128bf565b80601f0160208091040260200160405190810160405280929190818152602001828054611a9e906128bf565b8015611aeb5780601f10611ac057610100808354040283529160200191611aeb565b820191906000526020600020905b815481529060010190602001808311611ace57829003601f168201915b505050505091505090565b7fa16a46d94261c7517cc8ff89f61c0ce93598e3c849801011dee649a6a557d1038054606091600080516020612b1883398151915291611a72906128bf565b611b3d611d10565b61086b81611d59565b611b4e611d10565b610850611d61565b611b5e611d10565b611b688282611d69565b5050565b611b74611d10565b610850611dca565b60006108b5825490565b606060006119e383611deb565b6000610cee611e47565b60006040518060800160405280604e8152602001612aca604e91396040518060600160405280602d8152602001612b38602d9139604051602001611be29291906128f9565b60408051601f19818403018152919052805160209182012090611c07908401846123df565b611c176040850160208601612850565b611c2c611c2760408701876127ff565b611ebb565b8560600135604051602001611c6f9594939291909485526001600160a01b0393909316602085015260ff9190911660408401526060830152608082015260a00190565b604051602081830303815290604052805190602001209050919050565b600080600080611c9c8686611f84565b925092509250611cac8282611fd1565b5090949350505050565b60006119e3836001600160a01b03841661208a565b600080516020612b658339815191525460ff1661085057604051638dfc202b60e01b815260040160405180910390fd5b60006119e3836001600160a01b03841661217d565b7ff0c57e16840df040f15088dc2f81fe391c3923bec73e23a9662efc9c229c6a0054600160401b900460ff1661085057604051631afcd79f60e31b815260040160405180910390fd5b6115c6611d10565b611782611d10565b611d71611d10565b600080516020612b188339815191527fa16a46d94261c7517cc8ff89f61c0ce93598e3c849801011dee649a6a557d102611dab8482612978565b5060038101611dba8382612978565b5060008082556001909101555050565b611dd2611d10565b600080516020612b65833981519152805460ff19169055565b606081600001805480602002602001604051908101604052809291908181526020018280548015611e3b57602002820191906000526020600020905b815481526020019060010190808311611e27575b50505050509050919050565b60007f8b73c3c69bb8fe3d512ecc4cf759cc79239f7b179b0ffacaa9a75d522b39400f611e726121cc565b611e7a612236565b60408051602081019490945283019190915260608201524660808201523060a082015260c00160405160208183030381529060405280519060200120905090565b6000808267ffffffffffffffff811115611ed757611ed761268c565b604051908082528060200260200182016040528015611f00578160200160208202803683370190505b50905060005b83811015611f5357611f2e858583818110611f2357611f23612767565b90506040020161227a565b828281518110611f4057611f40612767565b6020908102919091010152600101611f06565b5080604051602001611f659190612a38565b6040516020818303038152906040528051906020012091505092915050565b60008060008351604103611fbe5760208401516040850151606086015160001a611fb0888285856122fb565b955095509550505050611fca565b50508151600091506002905b9250925092565b6000826003811115611fe557611fe5612a6e565b03611fee575050565b600182600381111561200257612002612a6e565b036120205760405163f645eedf60e01b815260040160405180910390fd5b600282600381111561203457612034612a6e565b036120555760405163fce698f760e01b815260048101829052602401610494565b600382600381111561206957612069612a6e565b03611b68576040516335e2f38360e21b815260048101829052602401610494565b600081815260018301602052604081205480156121735760006120ae600183612a84565b85549091506000906120c290600190612a84565b90508082146121275760008660000182815481106120e2576120e2612767565b906000526020600020015490508087600001848154811061210557612105612767565b6000918252602080832090910192909255918252600188019052604090208390555b855486908061213857612138612a97565b6001900381819060005260206000200160009055905585600101600086815260200190815260200160002060009055600193505050506108b5565b60009150506108b5565b60008181526001830160205260408120546121c4575081546001818101845560008481526020808220909301849055845484825282860190935260409020919091556108b5565b5060006108b5565b6000600080516020612b18833981519152816121e6611a33565b8051909150156121fe57805160209091012092915050565b8154801561220d579392505050565b7fc5d2460186f7233c927e7db2dcc703c0e500b653ca82273b7bfad8045d85a470935050505090565b6000600080516020612b1883398151915281612250611af6565b80519091501561226857805160209091012092915050565b6001820154801561220d579392505050565b60006040518060600160405280602d8152602001612b38602d91396040516020016122a59190612aad565b6040516020818303038152906040528051906020012082600001358360200160208101906122d391906123df565b6040805160208101949094528301919091526001600160a01b03166060820152608001611c6f565b600080807f7fffffffffffffffffffffffffffffff5d576e7357a4501ddfe92f46681b20a084111561233657506000915060039050826123c0565b604080516000808252602082018084528a905260ff891692820192909252606081018790526080810186905260019060a0016020604051602081039080840390855afa15801561238a573d6000803e3d6000fd5b5050604051601f1901519150506001600160a01b0381166123b6575060009250600191508290506123c0565b9250600091508190505b9450945094915050565b6001600160a01b038116811461086b57600080fd5b6000602082840312156123f157600080fd5b81356119e3816123ca565b60006020828403121561240e57600080fd5b5035919050565b60005b83811015612430578181015183820152602001612418565b50506000910152565b60008151808452612451816020860160208601612415565b601f01601f19169290920160200192915050565b60ff60f81b881681526000602060e0602084015261248660e084018a612439565b8381036040850152612498818a612439565b606085018990526001600160a01b038816608086015260a0850187905284810360c08601528551808252602080880193509091019060005b818110156124ec578351835292840192918401916001016124d0565b50909c9b505050505050505050505050565b60008060006040848603121561251357600080fd5b833561251e816123ca565b9250602084013567ffffffffffffffff8082111561253b57600080fd5b818601915086601f83011261254f57600080fd5b81358181111561255e57600080fd5b8760208260051b850101111561257357600080fd5b6020830194508093505050509250925092565b6020808252825182820181905260009190848201906040850190845b818110156125c75783516001600160a01b0316835292840192918401916001016125a2565b50909695505050505050565b6000806000604084860312156125e857600080fd5b833567ffffffffffffffff8082111561260057600080fd5b908501906080828803121561261457600080fd5b9093506020850135908082111561262a57600080fd5b818601915086601f83011261263e57600080fd5b81358181111561264d57600080fd5b87602082850101111561257357600080fd5b805161266a816123ca565b919050565b60006020828403121561268157600080fd5b81516119e3816123ca565b634e487b7160e01b600052604160045260246000fd5b600060208083850312156126b557600080fd5b825167ffffffffffffffff808211156126cd57600080fd5b818501915085601f8301126126e157600080fd5b8151818111156126f3576126f361268c565b8060051b604051601f19603f830116810181811085821117156127185761271861268c565b60405291825284820192508381018501918883111561273657600080fd5b938501935b8285101561275b5761274c8561265f565b8452938501939285019261273b565b98975050505050505050565b634e487b7160e01b600052603260045260246000fd5b60006020828403121561278f57600080fd5b5051919050565b6000602082840312156127a857600080fd5b815180151581146119e357600080fd5b6020808252601c908201527f546f6b656e20616464726573732063616e6e6f74206265207a65726f00000000604082015260600190565b8183823760009101908152919050565b6000808335601e1984360301811261281657600080fd5b83018035915067ffffffffffffffff82111561283157600080fd5b6020019150600681901b360382131561284957600080fd5b9250929050565b60006020828403121561286257600080fd5b813560ff811681146119e357600080fd5b634e487b7160e01b600052601160045260246000fd5b80820281158282048414176108b5576108b5612873565b600060ff821660ff81036128b6576128b6612873565b60010192915050565b600181811c908216806128d357607f821691505b6020821081036128f357634e487b7160e01b600052602260045260246000fd5b50919050565b6000835161290b818460208801612415565b83519083019061291f818360208801612415565b01949350505050565b601f8211156115b9576000816000526020600020601f850160051c810160208610156129515750805b601f850160051c820191505b818110156129705782815560010161295d565b505050505050565b815167ffffffffffffffff8111156129925761299261268c565b6129a6816129a084546128bf565b84612928565b602080601f8311600181146129db57600084156129c35750858301515b600019600386901b1c1916600185901b178555612970565b600085815260208120601f198616915b82811015612a0a578886015182559484019460019091019084016129eb565b5085821015612a285787850151600019600388901b60f8161c191681555b5050505050600190811b01905550565b815160009082906020808601845b83811015612a6257815185529382019390820190600101612a46565b50929695505050505050565b634e487b7160e01b600052602160045260246000fd5b818103818111156108b5576108b5612873565b634e487b7160e01b600052603160045260246000fd5b60008251612abf818460208701612415565b919091019291505056fe57616765436c61696d286164647265737320656d706c6f796565416464726573732c75696e743820686f757273576f726b65642c576167655b5d2077616765732c75696e74323536206461746529a16a46d94261c7517cc8ff89f61c0ce93598e3c849801011dee649a6a557d100576167652875696e7432353620686f75726c79526174652c6164647265737320746f6b656e4164647265737329cd5ed15c6e187e77e9aee88184c21f4f2182ab5827cb3b7e07fbedcd63f033009b779b17422d0df92223018b32b4d1fa46e071723d6817e2486d003becc55f00a2646970667358221220f1a1638b291b332a5278bc4443477b2e7c8c1453d40e81e034f06821e36cf80264736f6c63430008180033",
  "linkReferences": {},
  "deployedLinkReferences": {}
}