{
  "_format": "hh-sol-artifact-1",
  "contractName": "Elections",
  "sourceName": "contracts/Elections/Elections.sol",
  "abi": [
    {
      "inputs": [],
      "stateMutability": "nonpayable",
      "type": "constructor"
    },
    {
      "inputs": [],
      "name": "AlreadyVoted",
      "type": "error"
    },
    {
      "inputs": [],
      "name": "BoardOfDirectorsNotFound",
      "type": "error"
    },
    {
      "inputs": [],
      "name": "DuplicateCandidates",
      "type": "error"
    },
    {
      "inputs": [],
      "name": "DuplicateVoters",
      "type": "error"
    },
    {
      "inputs": [],
      "name": "ElectionEnded",
      "type": "error"
    },
    {
      "inputs": [],
      "name": "ElectionIsOngoing",
      "type": "error"
    },
    {
      "inputs": [],
      "name": "ElectionNotActive",
      "type": "error"
    },
    {
      "inputs": [],
      "name": "ElectionNotFound",
      "type": "error"
    },
    {
      "inputs": [],
      "name": "EnforcedPause",
      "type": "error"
    },
    {
      "inputs": [],
      "name": "ExpectedPause",
      "type": "error"
    },
    {
      "inputs": [],
      "name": "InsufficientCandidates",
      "type": "error"
    },
    {
      "inputs": [],
      "name": "InvalidCandidate",
      "type": "error"
    },
    {
      "inputs": [],
      "name": "InvalidDates",
      "type": "error"
    },
    {
      "inputs": [],
      "name": "InvalidInitialization",
      "type": "error"
    },
    {
      "inputs": [],
      "name": "InvalidSeatCount",
      "type": "error"
    },
    {
      "inputs": [],
      "name": "NoEligibleVoters",
      "type": "error"
    },
    {
      "inputs": [],
      "name": "NotEligibleVoter",
      "type": "error"
    },
    {
      "inputs": [],
      "name": "NotInitializing",
      "type": "error"
    },
    {
      "inputs": [],
      "name": "OfficerAddressNotSet",
      "type": "error"
    },
    {
      "inputs": [
        {
          "internalType": "address",
          "name": "owner",
          "type": "address"
        }
      ],
      "name": "OwnableInvalidOwner",
      "type": "error"
    },
    {
      "inputs": [
        {
          "internalType": "address",
          "name": "account",
          "type": "address"
        }
      ],
      "name": "OwnableUnauthorizedAccount",
      "type": "error"
    },
    {
      "inputs": [],
      "name": "ResultsAlreadyPublished",
      "type": "error"
    },
    {
      "inputs": [],
      "name": "ResultsNotReady",
      "type": "error"
    },
    {
      "inputs": [],
      "name": "Unauthorized",
      "type": "error"
    },
    {
      "inputs": [],
      "name": "ZeroSender",
      "type": "error"
    },
    {
      "anonymous": false,
      "inputs": [
        {
          "indexed": true,
          "internalType": "uint256",
          "name": "electionId",
          "type": "uint256"
        },
        {
          "indexed": false,
          "internalType": "string",
          "name": "title",
          "type": "string"
        },
        {
          "indexed": true,
          "internalType": "address",
          "name": "createdBy",
          "type": "address"
        },
        {
          "indexed": false,
          "internalType": "uint256",
          "name": "startDate",
          "type": "uint256"
        },
        {
          "indexed": false,
          "internalType": "uint256",
          "name": "endDate",
          "type": "uint256"
        },
        {
          "indexed": false,
          "internalType": "uint256",
          "name": "seatCount",
          "type": "uint256"
        }
      ],
      "name": "ElectionCreated",
      "type": "event"
    },
    {
      "anonymous": false,
      "inputs": [
        {
          "indexed": false,
          "internalType": "uint64",
          "name": "version",
          "type": "uint64"
        }
      ],
      "name": "Initialized",
      "type": "event"
    },
    {
      "anonymous": false,
      "inputs": [
        {
          "indexed": true,
          "internalType": "address",
          "name": "previousOwner",
          "type": "address"
        },
        {
          "indexed": true,
          "internalType": "address",
          "name": "newOwner",
          "type": "address"
        }
      ],
      "name": "OwnershipTransferred",
      "type": "event"
    },
    {
      "anonymous": false,
      "inputs": [
        {
          "indexed": false,
          "internalType": "address",
          "name": "account",
          "type": "address"
        }
      ],
      "name": "Paused",
      "type": "event"
    },
    {
      "anonymous": false,
      "inputs": [
        {
          "indexed": true,
          "internalType": "uint256",
          "name": "electionId",
          "type": "uint256"
        },
        {
          "indexed": false,
          "internalType": "address[]",
          "name": "winners",
          "type": "address[]"
        }
      ],
      "name": "ResultsPublished",
      "type": "event"
    },
    {
      "anonymous": false,
      "inputs": [
        {
          "indexed": false,
          "internalType": "address",
          "name": "account",
          "type": "address"
        }
      ],
      "name": "Unpaused",
      "type": "event"
    },
    {
      "anonymous": false,
      "inputs": [
        {
          "indexed": true,
          "internalType": "uint256",
          "name": "electionId",
          "type": "uint256"
        },
        {
          "indexed": true,
          "internalType": "address",
          "name": "voter",
          "type": "address"
        },
        {
          "indexed": true,
          "internalType": "address",
          "name": "candidate",
          "type": "address"
        }
      ],
      "name": "VoteSubmitted",
      "type": "event"
    },
    {
      "inputs": [
        {
          "internalType": "uint256",
          "name": "",
          "type": "uint256"
        },
        {
          "internalType": "address",
          "name": "",
          "type": "address"
        }
      ],
      "name": "_voteCounts",
      "outputs": [
        {
          "internalType": "uint256",
          "name": "",
          "type": "uint256"
        }
      ],
      "stateMutability": "view",
      "type": "function"
    },
    {
      "inputs": [
        {
          "internalType": "uint256",
          "name": "electionId",
          "type": "uint256"
        },
        {
          "internalType": "address",
          "name": "candidate",
          "type": "address"
        }
      ],
      "name": "castVote",
      "outputs": [],
      "stateMutability": "nonpayable",
      "type": "function"
    },
    {
      "inputs": [
        {
          "internalType": "string",
          "name": "title",
          "type": "string"
        },
        {
          "internalType": "string",
          "name": "description",
          "type": "string"
        },
        {
          "internalType": "uint256",
          "name": "startDate",
          "type": "uint256"
        },
        {
          "internalType": "uint256",
          "name": "endDate",
          "type": "uint256"
        },
        {
          "internalType": "uint256",
          "name": "seatCount",
          "type": "uint256"
        },
        {
          "internalType": "address[]",
          "name": "candidates",
          "type": "address[]"
        },
        {
          "internalType": "address[]",
          "name": "eligibleVoters",
          "type": "address[]"
        }
      ],
      "name": "createElection",
      "outputs": [
        {
          "internalType": "uint256",
          "name": "electionId",
          "type": "uint256"
        }
      ],
      "stateMutability": "nonpayable",
      "type": "function"
    },
    {
      "inputs": [
        {
          "internalType": "uint256",
          "name": "electionId",
          "type": "uint256"
        }
      ],
      "name": "getElection",
      "outputs": [
        {
          "internalType": "uint256",
          "name": "id",
          "type": "uint256"
        },
        {
          "internalType": "string",
          "name": "title",
          "type": "string"
        },
        {
          "internalType": "string",
          "name": "description",
          "type": "string"
        },
        {
          "internalType": "address",
          "name": "createdBy",
          "type": "address"
        },
        {
          "internalType": "uint256",
          "name": "startDate",
          "type": "uint256"
        },
        {
          "internalType": "uint256",
          "name": "endDate",
          "type": "uint256"
        },
        {
          "internalType": "uint256",
          "name": "seatCount",
          "type": "uint256"
        },
        {
          "internalType": "bool",
          "name": "resultsPublished",
          "type": "bool"
        }
      ],
      "stateMutability": "view",
      "type": "function"
    },
    {
      "inputs": [
        {
          "internalType": "uint256",
          "name": "electionId",
          "type": "uint256"
        }
      ],
      "name": "getElectionCandidates",
      "outputs": [
        {
          "internalType": "address[]",
          "name": "candidates",
          "type": "address[]"
        }
      ],
      "stateMutability": "view",
      "type": "function"
    },
    {
      "inputs": [
        {
          "internalType": "uint256",
          "name": "electionId",
          "type": "uint256"
        }
      ],
      "name": "getElectionEligibleVoters",
      "outputs": [
        {
          "internalType": "address[]",
          "name": "voters",
          "type": "address[]"
        }
      ],
      "stateMutability": "view",
      "type": "function"
    },
    {
      "inputs": [
        {
          "internalType": "uint256",
          "name": "electionId",
          "type": "uint256"
        }
      ],
      "name": "getElectionResults",
      "outputs": [
        {
          "internalType": "address[]",
          "name": "",
          "type": "address[]"
        }
      ],
      "stateMutability": "view",
      "type": "function"
    },
    {
      "inputs": [
        {
          "internalType": "uint256",
          "name": "electionId",
          "type": "uint256"
        }
      ],
      "name": "getElectionWinners",
      "outputs": [
        {
          "internalType": "address[]",
          "name": "",
          "type": "address[]"
        }
      ],
      "stateMutability": "view",
      "type": "function"
    },
    {
      "inputs": [],
      "name": "getNextElectionId",
      "outputs": [
        {
          "internalType": "uint256",
          "name": "",
          "type": "uint256"
        }
      ],
      "stateMutability": "view",
      "type": "function"
    },
    {
      "inputs": [
        {
          "internalType": "uint256",
          "name": "electionId",
          "type": "uint256"
        }
      ],
      "name": "getVoteCount",
      "outputs": [
        {
          "internalType": "uint256",
          "name": "",
          "type": "uint256"
        }
      ],
      "stateMutability": "view",
      "type": "function"
    },
    {
      "inputs": [
        {
          "internalType": "uint256",
          "name": "electionId",
          "type": "uint256"
        },
        {
          "internalType": "address",
          "name": "voter",
          "type": "address"
        }
      ],
      "name": "getVoterChoice",
      "outputs": [
        {
          "internalType": "address",
          "name": "",
          "type": "address"
        }
      ],
      "stateMutability": "view",
      "type": "function"
    },
    {
      "inputs": [
        {
          "internalType": "uint256",
          "name": "electionId",
          "type": "uint256"
        },
        {
          "internalType": "address",
          "name": "voter",
          "type": "address"
        }
      ],
      "name": "hasVoted",
      "outputs": [
        {
          "internalType": "bool",
          "name": "",
          "type": "bool"
        }
      ],
      "stateMutability": "view",
      "type": "function"
    },
    {
      "inputs": [
        {
          "internalType": "address",
          "name": "_owner",
          "type": "address"
        }
      ],
      "name": "initialize",
      "outputs": [],
      "stateMutability": "nonpayable",
      "type": "function"
    },
    {
      "inputs": [
        {
          "internalType": "uint256",
          "name": "electionId",
          "type": "uint256"
        },
        {
          "internalType": "address",
          "name": "voter",
          "type": "address"
        }
      ],
      "name": "isEligibleVoter",
      "outputs": [
        {
          "internalType": "bool",
          "name": "",
          "type": "bool"
        }
      ],
      "stateMutability": "view",
      "type": "function"
    },
    {
      "inputs": [],
      "name": "officerAddress",
      "outputs": [
        {
          "internalType": "address",
          "name": "",
          "type": "address"
        }
      ],
      "stateMutability": "view",
      "type": "function"
    },
    {
      "inputs": [],
      "name": "owner",
      "outputs": [
        {
          "internalType": "address",
          "name": "",
          "type": "address"
        }
      ],
      "stateMutability": "view",
      "type": "function"
    },
    {
      "inputs": [],
      "name": "pause",
      "outputs": [],
      "stateMutability": "nonpayable",
      "type": "function"
    },
    {
      "inputs": [],
      "name": "paused",
      "outputs": [
        {
          "internalType": "bool",
          "name": "",
          "type": "bool"
        }
      ],
      "stateMutability": "view",
      "type": "function"
    },
    {
      "inputs": [
        {
          "internalType": "uint256",
          "name": "electionId",
          "type": "uint256"
        }
      ],
      "name": "publishResults",
      "outputs": [],
      "stateMutability": "nonpayable",
      "type": "function"
    },
    {
      "inputs": [],
      "name": "renounceOwnership",
      "outputs": [],
      "stateMutability": "nonpayable",
      "type": "function"
    },
    {
      "inputs": [
        {
          "internalType": "address",
          "name": "newOwner",
          "type": "address"
        }
      ],
      "name": "transferOwnership",
      "outputs": [],
      "stateMutability": "nonpayable",
      "type": "function"
    },
    {
      "inputs": [],
      "name": "unpause",
      "outputs": [],
      "stateMutability": "nonpayable",
      "type": "function"
    }
  ],
  "bytecode": "0x608060405234801561001057600080fd5b5061001961001e565b6100d0565b7ff0c57e16840df040f15088dc2f81fe391c3923bec73e23a9662efc9c229c6a00805468010000000000000000900460ff161561006e5760405163f92ee8a960e01b815260040160405180910390fd5b80546001600160401b03908116146100cd5780546001600160401b0319166001600160401b0390811782556040519081527fc7f505b2f371ae2175ee4913f4499e1f2633a7b5936321eed1cdaeb6115181d29060200160405180910390a15b50565b61210d80620000e06000396000f3fe608060405234801561001057600080fd5b50600436106101425760003560e01c8063856aac90116100b8578063bfad9cc01161007c578063bfad9cc0146102c7578063c4d66de8146102da578063dfc703c5146102ed578063e8ededa614610318578063f2fde38b1461032b578063fb5cbf431461033e57600080fd5b8063856aac90146102375780638da5cb5b1461024a5780639d7107771461027a578063a77cc010146102a1578063b2c2f2e8146102b457600080fd5b80635c975abb1161010a5780635c975abb146101c95780635e12845e146101e1578063715018a61461020157806377df41b71461020957806381cb26b91461021c5780638456cb591461022f57600080fd5b80630eac27f414610147578063315f77ef146101775780633f4ba83a1461018a57806343859632146101945780635066bd71146101b7575b600080fd5b61015a610155366004611af0565b610351565b6040516001600160a01b0390911681526020015b60405180910390f35b60015461015a906001600160a01b031681565b6101926103ac565b005b6101a76101a2366004611af0565b6103be565b604051901515815260200161016e565b6000545b60405190815260200161016e565b6000805160206120b88339815191525460ff166101a7565b6101f46101ef366004611b20565b610414565b60405161016e9190611b39565b6101926104aa565b610192610217366004611af0565b6104bc565b6101a761022a366004611af0565b610656565b6101926106ac565b6101bb610245366004611cc6565b6106bc565b7f9016d09d72d40fdae2fd8ceac6b6234c7706214fd39c1cd1e609a0528c199300546001600160a01b031661015a565b61028d610288366004611b20565b6109d1565b60405161016e989796959493929190611dd6565b6101f46102af366004611b20565b610b8a565b6101bb6102c2366004611b20565b610c1e565b6101926102d5366004611b20565b610c57565b6101926102e8366004611e3b565b610dde565b6101bb6102fb366004611af0565b600560209081526000928352604080842090915290825290205481565b6101f4610326366004611b20565b610f2b565b610192610339366004611e3b565b6113cb565b6101f461034c366004611b20565b61140e565b600082815260026020526040812054810361037f576040516305ce45f760e51b815260040160405180910390fd5b5060008281526004602090815260408083206001600160a01b038086168552925290912054165b92915050565b6103b46114c7565b6103bc611522565b565b6000828152600260205260408120805482036103ed576040516305ce45f760e51b815260040160405180910390fd5b6001600160a01b0383166000908152600b909101602052604090205460ff16905092915050565b6000818152600260205260408120805460609203610445576040516305ce45f760e51b815260040160405180910390fd5b8060090180548060200260200160405190810160405280929190818152602001828054801561049d57602002820191906000526020600020905b81546001600160a01b0316815260019091019060200180831161047f575b5050505050915050919050565b6104b26114c7565b6103bc6000611582565b6104c46115f3565b600082815260026020526040812080549091036104f4576040516305ce45f760e51b815260040160405180910390fd5b61050681600401548260050154611624565b61052357604051638744898560e01b815260040160405180910390fd5b33600090815260078201602052604090205460ff166105555760405163c59b6a7560e01b815260040160405180910390fd5b336000908152600b8201602052604090205460ff161561058857604051637c9a1cf960e01b815260040160405180910390fd5b610592818361163d565b6000838152600460209081526040808320338452825280832080546001600160a01b0319166001600160a01b0387169081179091558684526005835281842090845290915281208054916105e583611e6e565b9091555050600e810180549060006105fc83611e6e565b9091555050336000818152600b83016020526040808220805460ff19166001179055516001600160a01b038516929186917f0a9826c9e51e95060d6749063b4524be1b8a81f3a2537a3f2694774ea26b480f9190a4505050565b600082815260026020526040812080548203610685576040516305ce45f760e51b815260040160405180910390fd5b6001600160a01b03831660009081526007909101602052604090205460ff16905092915050565b6106b46114c7565b6103bc6116e2565b60006106c66114c7565b6106ce6115f3565b6106d78461172b565b600160005411801561071057506002600060016000546106f79190611e87565b81526020810191909152604001600020600d015460ff16155b1561072e5760405163f75df52960e01b815260040160405180910390fd5b610738868661175e565b610742838561178f565b61074b826117d8565b60008054908061075a83611e6e565b909155506000818152600260205260409020818155909150600181016107808a82611f1c565b506002810161078f8982611f1c565b506003810180546001600160a01b03191633179055600481018790556005810186905560068101859055600d8101805460ff191690556000600e82018190555b845181101561088c5760018260080160008784815181106107f2576107f2611fdc565b60200260200101516001600160a01b03166001600160a01b0316815260200190815260200160002060006101000a81548160ff0219169083151502179055508160090185828151811061084757610847611fdc565b60209081029190910181015182546001808201855560009485529290932090920180546001600160a01b0319166001600160a01b0390931692909217909155016107cf565b5060005b835181101561094d5760018260070160008684815181106108b3576108b3611fdc565b60200260200101516001600160a01b03166001600160a01b0316815260200190815260200160002060006101000a81548160ff02191690831515021790555081600a0184828151811061090857610908611fdc565b60209081029190910181015182546001808201855560009485529290932090920180546001600160a01b0319166001600160a01b039093169290921790915501610890565b50600380546001810182556000919091527fc2575a0e9e593c00f959f8c92f12db2869c3395a3b0502d05e2516446f71f85b01829055604051339083907f23d64b1b1ce28eefd91ca09e7d16c27b157a5b2f109c36ff3f444b5d70d8e307906109bd908d908c908c908c90611ff2565b60405180910390a350979650505050505050565b60008181526002602052604081208054606091829184918291829182918291908203610a10576040516305ce45f760e51b815260040160405180910390fd5b806000015481600101826002018360030160009054906101000a90046001600160a01b031684600401548560050154866006015487600d0160009054906101000a900460ff16868054610a6290611e9a565b80601f0160208091040260200160405190810160405280929190818152602001828054610a8e90611e9a565b8015610adb5780601f10610ab057610100808354040283529160200191610adb565b820191906000526020600020905b815481529060010190602001808311610abe57829003601f168201915b50505050509650858054610aee90611e9a565b80601f0160208091040260200160405190810160405280929190818152602001828054610b1a90611e9a565b8015610b675780601f10610b3c57610100808354040283529160200191610b67565b820191906000526020600020905b815481529060010190602001808311610b4a57829003601f168201915b505050505095509850985098509850985098509850985050919395975091939597565b6000818152600260205260408120805460609203610bbb576040516305ce45f760e51b815260040160405180910390fd5b80600a0180548060200260200160405190810160405280929190818152602001828054801561049d576020028201919060005260206000209081546001600160a01b0316815260019091019060200180831161047f575050505050915050919050565b600081815260026020526040812080548203610c4d576040516305ce45f760e51b815260040160405180910390fd5b600e015492915050565b610c5f6114c7565b610c676115f3565b60008181526002602052604081208054909103610c97576040516305ce45f760e51b815260040160405180910390fd5b600a810154600e820154108015610cb2575060058101544211155b15610cd057604051630e0d4dc560e41b815260040160405180910390fd5b600d81015460ff1615610cf6576040516315022dad60e11b815260040160405180910390fd5b610cff82610f2b565b8051610d1591600c840191602090910190611a61565b50600d8101805460ff19166001179055600c81015415610d9f576000610d39611821565b6040516338d2e2b960e11b81529091506001600160a01b038216906371a5c57290610d6b90600c860190600401612021565b600060405180830381600087803b158015610d8557600080fd5b505af1158015610d99573d6000803e3d6000fd5b50505050505b817f91a972eb51500772286c163db07c3ba1e65d05eed82dc00ed6593e3ebf7621b582600c01604051610dd29190612021565b60405180910390a25050565b7ff0c57e16840df040f15088dc2f81fe391c3923bec73e23a9662efc9c229c6a008054600160401b810460ff16159067ffffffffffffffff16600081158015610e245750825b905060008267ffffffffffffffff166001148015610e415750303b155b905081158015610e4f575080155b15610e6d5760405163f92ee8a960e01b815260040160405180910390fd5b845467ffffffffffffffff191660011785558315610e9757845460ff60401b1916600160401b1785555b610ea086611909565b610ea861191a565b600160005533610ecb5760405163581fa8e360e11b815260040160405180910390fd5b600180546001600160a01b031916331790558315610f2357845460ff60401b19168555604051600181527fc7f505b2f371ae2175ee4913f4499e1f2633a7b5936321eed1cdaeb6115181d29060200160405180910390a15b505050505050565b60008181526002602090815260408083206009810180548351818602810186019094528084526060959294929392830182828015610f9257602002820191906000526020600020905b81546001600160a01b03168152600190910190602001808311610f74575b505050505090506000826006015490506000825167ffffffffffffffff811115610fbe57610fbe611b86565b60405190808252806020026020018201604052801561100357816020015b6040805180820190915260008082526020820152815260200190600190039081610fdc5790505b50905060005b83518110156110bd57604051806040016040528085838151811061102f5761102f611fdc565b60200260200101516001600160a01b03168152602001600560008a8152602001908152602001600020600087858151811061106c5761106c611fdc565b60200260200101516001600160a01b03166001600160a01b03168152602001908152602001600020548152508282815181106110aa576110aa611fdc565b6020908102919091010152600101611009565b5060005b600182516110cf9190611e87565b81101561131d5760005b60018284516110e89190611e87565b6110f29190611e87565b8110156113145782611105826001612065565b8151811061111557611115611fdc565b60200260200101516020015183828151811061113357611133611fdc565b60200260200101516020015110156111d457600083828151811061115957611159611fdc565b60200260200101519050838260016111719190612065565b8151811061118157611181611fdc565b602002602001015184838151811061119b5761119b611fdc565b602090810291909101015280846111b3846001612065565b815181106111c3576111c3611fdc565b60200260200101819052505061130c565b826111e0826001612065565b815181106111f0576111f0611fdc565b60200260200101516020015183828151811061120e5761120e611fdc565b60200260200101516020015114801561127c57508261122e826001612065565b8151811061123e5761123e611fdc565b6020026020010151600001516001600160a01b031683828151811061126557611265611fdc565b6020026020010151600001516001600160a01b0316115b1561130c57600083828151811061129557611295611fdc565b60200260200101519050838260016112ad9190612065565b815181106112bd576112bd611fdc565b60200260200101518483815181106112d7576112d7611fdc565b602090810291909101015280846112ef846001612065565b815181106112ff576112ff611fdc565b6020026020010181905250505b6001016110d9565b506001016110c1565b5060008267ffffffffffffffff81111561133957611339611b86565b604051908082528060200260200182016040528015611362578160200160208202803683370190505b50905060005b838110156113c05782818151811061138257611382611fdc565b6020026020010151600001518282815181106113a0576113a0611fdc565b6001600160a01b0390921660209283029190910190910152600101611368565b509695505050505050565b6113d36114c7565b6001600160a01b03811661140257604051631e4fbdf760e01b8152600060048201526024015b60405180910390fd5b61140b81611582565b50565b600081815260026020526040812080546060920361143f576040516305ce45f760e51b815260040160405180910390fd5b600d81015460ff1661146457604051630e0d4dc560e41b815260040160405180910390fd5b80600c0180548060200260200160405190810160405280929190818152602001828054801561049d576020028201919060005260206000209081546001600160a01b0316815260019091019060200180831161047f575050505050915050919050565b336114f97f9016d09d72d40fdae2fd8ceac6b6234c7706214fd39c1cd1e609a0528c199300546001600160a01b031690565b6001600160a01b0316146103bc5760405163118cdaa760e01b81523360048201526024016113f9565b61152a61192a565b6000805160206120b8833981519152805460ff191681557f5db9ee0a495bf2e6ff9c91a7834c1ba4fdd244a5e8aa4e537bd38aeae4b073aa335b6040516001600160a01b03909116815260200160405180910390a150565b7f9016d09d72d40fdae2fd8ceac6b6234c7706214fd39c1cd1e609a0528c19930080546001600160a01b031981166001600160a01b03848116918217845560405192169182907f8be0079c531659141344cd1fd0a4f28419497f9722a3daafe3b4186f6b6457e090600090a3505050565b6000805160206120b88339815191525460ff16156103bc5760405163d93c066560e01b815260040160405180910390fd5b60008242101580156116365750814211155b9392505050565b6001600160a01b0381166116645760405163e66ea08f60e01b815260040160405180910390fd5b6000805b60098401548110156116be57826001600160a01b031684600901828154811061169357611693611fdc565b6000918252602090912001546001600160a01b0316036116b657600191506116be565b600101611668565b50806116dd5760405163e66ea08f60e01b815260040160405180910390fd5b505050565b6116ea6115f3565b6000805160206120b8833981519152805460ff191660011781557f62e78cea01bee320cd4e420270b5ea74000d11b0c9f74754ebdbfc544b05a25833611564565b801580611740575061173e600282612078565b155b1561140b576040516359e59f3f60e01b815260040160405180910390fd5b428211158061176d5750818111155b1561178b5760405163364dd21b60e21b815260040160405180910390fd5b5050565b80825110156117b1576040516313bd20b360e01b815260040160405180910390fd5b6117ba8261195a565b1561178b5760405163bb7ee07360e01b815260040160405180910390fd5b80516000036117fa576040516355d7892160e11b815260040160405180910390fd5b6118038161195a565b1561140b5760405163168dc35960e01b815260040160405180910390fd5b6001546000906001600160a01b031661184d57604051632000098360e11b815260040160405180910390fd5b60015460405163040a4ce560e21b815260206004820152601060248201526f426f6172644f664469726563746f727360801b60448201526000916001600160a01b031690631029339490606401602060405180830381865afa1580156118b7573d6000803e3d6000fd5b505050506040513d601f19601f820116820180604052508101906118db919061209a565b90506001600160a01b0381166119045760405163da74de8760e01b815260040160405180910390fd5b919050565b6119116119ef565b61140b81611a38565b6119226119ef565b6103bc611a40565b6000805160206120b88339815191525460ff166103bc57604051638dfc202b60e01b815260040160405180910390fd5b6000805b82518110156119e6576000611974826001612065565b90505b83518110156119dd5783818151811061199257611992611fdc565b60200260200101516001600160a01b03168483815181106119b5576119b5611fdc565b60200260200101516001600160a01b0316036119d5575060019392505050565b600101611977565b5060010161195e565b50600092915050565b7ff0c57e16840df040f15088dc2f81fe391c3923bec73e23a9662efc9c229c6a0054600160401b900460ff166103bc57604051631afcd79f60e31b815260040160405180910390fd5b6113d36119ef565b611a486119ef565b6000805160206120b8833981519152805460ff19169055565b828054828255906000526020600020908101928215611ab6579160200282015b82811115611ab657825182546001600160a01b0319166001600160a01b03909116178255602090920191600190910190611a81565b50611ac2929150611ac6565b5090565b5b80821115611ac25760008155600101611ac7565b6001600160a01b038116811461140b57600080fd5b60008060408385031215611b0357600080fd5b823591506020830135611b1581611adb565b809150509250929050565b600060208284031215611b3257600080fd5b5035919050565b6020808252825182820181905260009190848201906040850190845b81811015611b7a5783516001600160a01b031683529284019291840191600101611b55565b50909695505050505050565b634e487b7160e01b600052604160045260246000fd5b604051601f8201601f1916810167ffffffffffffffff81118282101715611bc557611bc5611b86565b604052919050565b600082601f830112611bde57600080fd5b813567ffffffffffffffff811115611bf857611bf8611b86565b611c0b601f8201601f1916602001611b9c565b818152846020838601011115611c2057600080fd5b816020850160208301376000918101602001919091529392505050565b600082601f830112611c4e57600080fd5b8135602067ffffffffffffffff821115611c6a57611c6a611b86565b8160051b611c79828201611b9c565b9283528481018201928281019087851115611c9357600080fd5b83870192505b84831015611cbb578235611cac81611adb565b82529183019190830190611c99565b979650505050505050565b600080600080600080600060e0888a031215611ce157600080fd5b873567ffffffffffffffff80821115611cf957600080fd5b611d058b838c01611bcd565b985060208a0135915080821115611d1b57600080fd5b611d278b838c01611bcd565b975060408a0135965060608a0135955060808a0135945060a08a0135915080821115611d5257600080fd5b611d5e8b838c01611c3d565b935060c08a0135915080821115611d7457600080fd5b50611d818a828b01611c3d565b91505092959891949750929550565b6000815180845260005b81811015611db657602081850181015186830182015201611d9a565b506000602082860101526020601f19601f83011685010191505092915050565b60006101008a8352806020840152611df08184018b611d90565b90508281036040840152611e04818a611d90565b6001600160a01b039890981660608401525050608081019490945260a084019290925260c0830152151560e0909101529392505050565b600060208284031215611e4d57600080fd5b813561163681611adb565b634e487b7160e01b600052601160045260246000fd5b600060018201611e8057611e80611e58565b5060010190565b818103818111156103a6576103a6611e58565b600181811c90821680611eae57607f821691505b602082108103611ece57634e487b7160e01b600052602260045260246000fd5b50919050565b601f8211156116dd576000816000526020600020601f850160051c81016020861015611efd5750805b601f850160051c820191505b81811015610f2357828155600101611f09565b815167ffffffffffffffff811115611f3657611f36611b86565b611f4a81611f448454611e9a565b84611ed4565b602080601f831160018114611f7f5760008415611f675750858301515b600019600386901b1c1916600185901b178555610f23565b600085815260208120601f198616915b82811015611fae57888601518255948401946001909101908401611f8f565b5085821015611fcc5787850151600019600388901b60f8161c191681555b5050505050600190811b01905550565b634e487b7160e01b600052603260045260246000fd5b6080815260006120056080830187611d90565b6020830195909552506040810192909252606090910152919050565b6020808252825482820181905260008481528281209092916040850190845b81811015611b7a5783546001600160a01b031683526001938401939285019201612040565b808201808211156103a6576103a6611e58565b60008261209557634e487b7160e01b600052601260045260246000fd5b500690565b6000602082840312156120ac57600080fd5b815161163681611adb56fecd5ed15c6e187e77e9aee88184c21f4f2182ab5827cb3b7e07fbedcd63f03300a2646970667358221220de6d8699bc357915390b1d0002b59a13f76d291dc47537aaff12ae3875f76ff264736f6c63430008180033",
  "linkReferences": {},
  "deployedLinkReferences": {}
}