{
  "_format": "hh-sol-artifact-1",
  "contractName": "Elections",
  "sourceName": "contracts/Elections/Elections.sol",
  "abi": [
    {
      "inputs": [],
      "name": "AlreadyVoted",
      "type": "error"
    },
    {
      "inputs": [],
      "name": "DuplicateCandidates",
      "type": "error"
    },
    {
      "inputs": [],
      "name": "DuplicateVoters",
      "type": "error"
    },
    {
      "inputs": [],
      "name": "ElectionEnded",
      "type": "error"
    },
    {
      "inputs": [],
      "name": "ElectionIsOngoing",
      "type": "error"
    },
    {
      "inputs": [],
      "name": "ElectionNotActive",
      "type": "error"
    },
    {
      "inputs": [],
      "name": "ElectionNotFound",
      "type": "error"
    },
    {
      "inputs": [],
      "name": "EnforcedPause",
      "type": "error"
    },
    {
      "inputs": [],
      "name": "ExpectedPause",
      "type": "error"
    },
    {
      "inputs": [],
      "name": "InsufficientCandidates",
      "type": "error"
    },
    {
      "inputs": [],
      "name": "InvalidCandidate",
      "type": "error"
    },
    {
      "inputs": [],
      "name": "InvalidDates",
      "type": "error"
    },
    {
      "inputs": [],
      "name": "InvalidInitialization",
      "type": "error"
    },
    {
      "inputs": [],
      "name": "InvalidSeatCount",
      "type": "error"
    },
    {
      "inputs": [],
      "name": "NoEligibleVoters",
      "type": "error"
    },
    {
      "inputs": [],
      "name": "NotEligibleVoter",
      "type": "error"
    },
    {
      "inputs": [],
      "name": "NotInitializing",
      "type": "error"
    },
    {
      "inputs": [
        {
          "internalType": "address",
          "name": "owner",
          "type": "address"
        }
      ],
      "name": "OwnableInvalidOwner",
      "type": "error"
    },
    {
      "inputs": [
        {
          "internalType": "address",
          "name": "account",
          "type": "address"
        }
      ],
      "name": "OwnableUnauthorizedAccount",
      "type": "error"
    },
    {
      "inputs": [],
      "name": "ResultsAlreadyPublished",
      "type": "error"
    },
    {
      "inputs": [],
      "name": "ResultsNotReady",
      "type": "error"
    },
    {
      "inputs": [],
      "name": "Unauthorized",
      "type": "error"
    },
    {
      "anonymous": false,
      "inputs": [
        {
          "indexed": true,
          "internalType": "uint256",
          "name": "electionId",
          "type": "uint256"
        },
        {
          "indexed": false,
          "internalType": "string",
          "name": "title",
          "type": "string"
        },
        {
          "indexed": true,
          "internalType": "address",
          "name": "createdBy",
          "type": "address"
        },
        {
          "indexed": false,
          "internalType": "uint256",
          "name": "startDate",
          "type": "uint256"
        },
        {
          "indexed": false,
          "internalType": "uint256",
          "name": "endDate",
          "type": "uint256"
        },
        {
          "indexed": false,
          "internalType": "uint256",
          "name": "seatCount",
          "type": "uint256"
        }
      ],
      "name": "ElectionCreated",
      "type": "event"
    },
    {
      "anonymous": false,
      "inputs": [
        {
          "indexed": false,
          "internalType": "uint64",
          "name": "version",
          "type": "uint64"
        }
      ],
      "name": "Initialized",
      "type": "event"
    },
    {
      "anonymous": false,
      "inputs": [
        {
          "indexed": true,
          "internalType": "address",
          "name": "previousOwner",
          "type": "address"
        },
        {
          "indexed": true,
          "internalType": "address",
          "name": "newOwner",
          "type": "address"
        }
      ],
      "name": "OwnershipTransferred",
      "type": "event"
    },
    {
      "anonymous": false,
      "inputs": [
        {
          "indexed": false,
          "internalType": "address",
          "name": "account",
          "type": "address"
        }
      ],
      "name": "Paused",
      "type": "event"
    },
    {
      "anonymous": false,
      "inputs": [
        {
          "indexed": true,
          "internalType": "uint256",
          "name": "electionId",
          "type": "uint256"
        },
        {
          "indexed": false,
          "internalType": "address[]",
          "name": "winners",
          "type": "address[]"
        }
      ],
      "name": "ResultsPublished",
      "type": "event"
    },
    {
      "anonymous": false,
      "inputs": [
        {
          "indexed": false,
          "internalType": "address",
          "name": "account",
          "type": "address"
        }
      ],
      "name": "Unpaused",
      "type": "event"
    },
    {
      "anonymous": false,
      "inputs": [
        {
          "indexed": true,
          "internalType": "uint256",
          "name": "electionId",
          "type": "uint256"
        },
        {
          "indexed": true,
          "internalType": "address",
          "name": "voter",
          "type": "address"
        },
        {
          "indexed": true,
          "internalType": "address",
          "name": "candidate",
          "type": "address"
        }
      ],
      "name": "VoteSubmitted",
      "type": "event"
    },
    {
      "inputs": [
        {
          "internalType": "uint256",
          "name": "",
          "type": "uint256"
        },
        {
          "internalType": "address",
          "name": "",
          "type": "address"
        }
      ],
      "name": "_voteCounts",
      "outputs": [
        {
          "internalType": "uint256",
          "name": "",
          "type": "uint256"
        }
      ],
      "stateMutability": "view",
      "type": "function"
    },
    {
      "inputs": [],
      "name": "bodAddress",
      "outputs": [
        {
          "internalType": "address",
          "name": "",
          "type": "address"
        }
      ],
      "stateMutability": "view",
      "type": "function"
    },
    {
      "inputs": [
        {
          "internalType": "uint256",
          "name": "electionId",
          "type": "uint256"
        },
        {
          "internalType": "address",
          "name": "candidate",
          "type": "address"
        }
      ],
      "name": "castVote",
      "outputs": [],
      "stateMutability": "nonpayable",
      "type": "function"
    },
    {
      "inputs": [
        {
          "internalType": "string",
          "name": "title",
          "type": "string"
        },
        {
          "internalType": "string",
          "name": "description",
          "type": "string"
        },
        {
          "internalType": "uint256",
          "name": "startDate",
          "type": "uint256"
        },
        {
          "internalType": "uint256",
          "name": "endDate",
          "type": "uint256"
        },
        {
          "internalType": "uint256",
          "name": "seatCount",
          "type": "uint256"
        },
        {
          "internalType": "address[]",
          "name": "candidates",
          "type": "address[]"
        },
        {
          "internalType": "address[]",
          "name": "eligibleVoters",
          "type": "address[]"
        }
      ],
      "name": "createElection",
      "outputs": [
        {
          "internalType": "uint256",
          "name": "electionId",
          "type": "uint256"
        }
      ],
      "stateMutability": "nonpayable",
      "type": "function"
    },
    {
      "inputs": [
        {
          "internalType": "uint256",
          "name": "electionId",
          "type": "uint256"
        }
      ],
      "name": "getElection",
      "outputs": [
        {
          "internalType": "uint256",
          "name": "id",
          "type": "uint256"
        },
        {
          "internalType": "string",
          "name": "title",
          "type": "string"
        },
        {
          "internalType": "string",
          "name": "description",
          "type": "string"
        },
        {
          "internalType": "address",
          "name": "createdBy",
          "type": "address"
        },
        {
          "internalType": "uint256",
          "name": "startDate",
          "type": "uint256"
        },
        {
          "internalType": "uint256",
          "name": "endDate",
          "type": "uint256"
        },
        {
          "internalType": "uint256",
          "name": "seatCount",
          "type": "uint256"
        },
        {
          "internalType": "bool",
          "name": "resultsPublished",
          "type": "bool"
        }
      ],
      "stateMutability": "view",
      "type": "function"
    },
    {
      "inputs": [
        {
          "internalType": "uint256",
          "name": "electionId",
          "type": "uint256"
        }
      ],
      "name": "getElectionCandidates",
      "outputs": [
        {
          "internalType": "address[]",
          "name": "candidates",
          "type": "address[]"
        }
      ],
      "stateMutability": "view",
      "type": "function"
    },
    {
      "inputs": [
        {
          "internalType": "uint256",
          "name": "electionId",
          "type": "uint256"
        }
      ],
      "name": "getElectionEligibleVoters",
      "outputs": [
        {
          "internalType": "address[]",
          "name": "voters",
          "type": "address[]"
        }
      ],
      "stateMutability": "view",
      "type": "function"
    },
    {
      "inputs": [
        {
          "internalType": "uint256",
          "name": "electionId",
          "type": "uint256"
        }
      ],
      "name": "getElectionResults",
      "outputs": [
        {
          "internalType": "address[]",
          "name": "",
          "type": "address[]"
        }
      ],
      "stateMutability": "view",
      "type": "function"
    },
    {
      "inputs": [
        {
          "internalType": "uint256",
          "name": "electionId",
          "type": "uint256"
        }
      ],
      "name": "getElectionWinners",
      "outputs": [
        {
          "internalType": "address[]",
          "name": "",
          "type": "address[]"
        }
      ],
      "stateMutability": "view",
      "type": "function"
    },
    {
      "inputs": [],
      "name": "getNextElectionId",
      "outputs": [
        {
          "internalType": "uint256",
          "name": "",
          "type": "uint256"
        }
      ],
      "stateMutability": "view",
      "type": "function"
    },
    {
      "inputs": [
        {
          "internalType": "uint256",
          "name": "electionId",
          "type": "uint256"
        }
      ],
      "name": "getVoteCount",
      "outputs": [
        {
          "internalType": "uint256",
          "name": "",
          "type": "uint256"
        }
      ],
      "stateMutability": "view",
      "type": "function"
    },
    {
      "inputs": [
        {
          "internalType": "uint256",
          "name": "electionId",
          "type": "uint256"
        },
        {
          "internalType": "address",
          "name": "voter",
          "type": "address"
        }
      ],
      "name": "getVoterChoice",
      "outputs": [
        {
          "internalType": "address",
          "name": "",
          "type": "address"
        }
      ],
      "stateMutability": "view",
      "type": "function"
    },
    {
      "inputs": [
        {
          "internalType": "uint256",
          "name": "electionId",
          "type": "uint256"
        },
        {
          "internalType": "address",
          "name": "voter",
          "type": "address"
        }
      ],
      "name": "hasVoted",
      "outputs": [
        {
          "internalType": "bool",
          "name": "",
          "type": "bool"
        }
      ],
      "stateMutability": "view",
      "type": "function"
    },
    {
      "inputs": [
        {
          "internalType": "address",
          "name": "_owner",
          "type": "address"
        }
      ],
      "name": "initialize",
      "outputs": [],
      "stateMutability": "nonpayable",
      "type": "function"
    },
    {
      "inputs": [
        {
          "internalType": "uint256",
          "name": "electionId",
          "type": "uint256"
        },
        {
          "internalType": "address",
          "name": "voter",
          "type": "address"
        }
      ],
      "name": "isEligibleVoter",
      "outputs": [
        {
          "internalType": "bool",
          "name": "",
          "type": "bool"
        }
      ],
      "stateMutability": "view",
      "type": "function"
    },
    {
      "inputs": [],
      "name": "owner",
      "outputs": [
        {
          "internalType": "address",
          "name": "",
          "type": "address"
        }
      ],
      "stateMutability": "view",
      "type": "function"
    },
    {
      "inputs": [],
      "name": "pause",
      "outputs": [],
      "stateMutability": "nonpayable",
      "type": "function"
    },
    {
      "inputs": [],
      "name": "paused",
      "outputs": [
        {
          "internalType": "bool",
          "name": "",
          "type": "bool"
        }
      ],
      "stateMutability": "view",
      "type": "function"
    },
    {
      "inputs": [
        {
          "internalType": "uint256",
          "name": "electionId",
          "type": "uint256"
        }
      ],
      "name": "publishResults",
      "outputs": [],
      "stateMutability": "nonpayable",
      "type": "function"
    },
    {
      "inputs": [],
      "name": "renounceOwnership",
      "outputs": [],
      "stateMutability": "nonpayable",
      "type": "function"
    },
    {
      "inputs": [
        {
          "internalType": "address",
          "name": "_bodAddress",
          "type": "address"
        }
      ],
      "name": "setBoardOfDirectorsContractAddress",
      "outputs": [],
      "stateMutability": "nonpayable",
      "type": "function"
    },
    {
      "inputs": [
        {
          "internalType": "address",
          "name": "newOwner",
          "type": "address"
        }
      ],
      "name": "transferOwnership",
      "outputs": [],
      "stateMutability": "nonpayable",
      "type": "function"
    },
    {
      "inputs": [],
      "name": "unpause",
      "outputs": [],
      "stateMutability": "nonpayable",
      "type": "function"
    }
  ],
  "bytecode": "0x608060405234801561001057600080fd5b5061207d806100206000396000f3fe608060405234801561001057600080fd5b506004361061014d5760003560e01c80638da5cb5b116100c3578063d76d28ed1161007c578063d76d28ed146102bd578063dfc703c5146102d0578063e8ededa6146102fb578063ec1721931461030e578063f2fde38b14610321578063fb5cbf431461033457600080fd5b80638da5cb5b146102425780639d7107771461024a578063a77cc01014610271578063b2c2f2e814610284578063bfad9cc014610297578063c4d66de8146102aa57600080fd5b80635e12845e116101155780635e12845e146101d9578063715018a6146101f957806377df41b71461020157806381cb26b9146102145780638456cb5914610227578063856aac901461022f57600080fd5b80630eac27f4146101525780633f4ba83a14610182578063438596321461018c5780635066bd71146101af5780635c975abb146101c1575b600080fd5b610165610160366004611a85565b610347565b6040516001600160a01b0390911681526020015b60405180910390f35b61018a6103a2565b005b61019f61019a366004611a85565b6103b4565b6040519015158152602001610179565b6000545b604051908152602001610179565b6000805160206120288339815191525460ff1661019f565b6101ec6101e7366004611ab1565b61040a565b6040516101799190611aca565b61018a6104a0565b61018a61020f366004611a85565b6104b2565b61019f610222366004611a85565b61064c565b61018a6106a2565b6101b361023d366004611c55565b6106b2565b6101656109c7565b61025d610258366004611ab1565b6109f5565b604051610179989796959493929190611d65565b6101ec61027f366004611ab1565b610bae565b6101b3610292366004611ab1565b610c42565b61018a6102a5366004611ab1565b610c7b565b61018a6102b8366004611dca565b610df8565b600154610165906001600160a01b031681565b6101b36102de366004611a85565b600560209081526000928352604080842090915290825290205481565b6101ec610309366004611ab1565b610f15565b61018a61031c366004611dca565b6113b5565b61018a61032f366004611dca565b61146f565b6101ec610342366004611ab1565b6114ad565b6000828152600260205260408120548103610375576040516305ce45f760e51b815260040160405180910390fd5b5060008281526004602090815260408083206001600160a01b038086168552925290912054165b92915050565b6103aa611566565b6103b2611598565b565b6000828152600260205260408120805482036103e3576040516305ce45f760e51b815260040160405180910390fd5b6001600160a01b0383166000908152600b909101602052604090205460ff16905092915050565b600081815260026020526040812080546060920361043b576040516305ce45f760e51b815260040160405180910390fd5b8060090180548060200260200160405190810160405280929190818152602001828054801561049357602002820191906000526020600020905b81546001600160a01b03168152600190910190602001808311610475575b5050505050915050919050565b6104a8611566565b6103b260006115f8565b6104ba611669565b600082815260026020526040812080549091036104ea576040516305ce45f760e51b815260040160405180910390fd5b6104fc8160040154826005015461169a565b61051957604051638744898560e01b815260040160405180910390fd5b33600090815260078201602052604090205460ff1661054b5760405163c59b6a7560e01b815260040160405180910390fd5b336000908152600b8201602052604090205460ff161561057e57604051637c9a1cf960e01b815260040160405180910390fd5b61058881836116b3565b6000838152600460209081526040808320338452825280832080546001600160a01b0319166001600160a01b0387169081179091558684526005835281842090845290915281208054916105db83611dfb565b9091555050600e810180549060006105f283611dfb565b9091555050336000818152600b83016020526040808220805460ff19166001179055516001600160a01b038516929186917f0a9826c9e51e95060d6749063b4524be1b8a81f3a2537a3f2694774ea26b480f9190a4505050565b60008281526002602052604081208054820361067b576040516305ce45f760e51b815260040160405180910390fd5b6001600160a01b03831660009081526007909101602052604090205460ff16905092915050565b6106aa611566565b6103b2611758565b60006106bc611566565b6106c4611669565b6106cd846117a1565b600160005411801561070657506002600060016000546106ed9190611e14565b81526020810191909152604001600020600d015460ff16155b156107245760405163f75df52960e01b815260040160405180910390fd5b61072e86866117d4565b6107388385611805565b6107418261184e565b60008054908061075083611dfb565b909155506000818152600260205260409020818155909150600181016107768a82611ea9565b50600281016107858982611ea9565b506003810180546001600160a01b03191633179055600481018790556005810186905560068101859055600d8101805460ff191690556000600e82018190555b84518110156108825760018260080160008784815181106107e8576107e8611f69565b60200260200101516001600160a01b03166001600160a01b0316815260200190815260200160002060006101000a81548160ff0219169083151502179055508160090185828151811061083d5761083d611f69565b60209081029190910181015182546001808201855560009485529290932090920180546001600160a01b0319166001600160a01b0390931692909217909155016107c5565b5060005b83518110156109435760018260070160008684815181106108a9576108a9611f69565b60200260200101516001600160a01b03166001600160a01b0316815260200190815260200160002060006101000a81548160ff02191690831515021790555081600a018482815181106108fe576108fe611f69565b60209081029190910181015182546001808201855560009485529290932090920180546001600160a01b0319166001600160a01b039093169290921790915501610886565b50600380546001810182556000919091527fc2575a0e9e593c00f959f8c92f12db2869c3395a3b0502d05e2516446f71f85b01829055604051339083907f23d64b1b1ce28eefd91ca09e7d16c27b157a5b2f109c36ff3f444b5d70d8e307906109b3908d908c908c908c90611f7f565b60405180910390a350979650505050505050565b7f9016d09d72d40fdae2fd8ceac6b6234c7706214fd39c1cd1e609a0528c199300546001600160a01b031690565b60008181526002602052604081208054606091829184918291829182918291908203610a34576040516305ce45f760e51b815260040160405180910390fd5b806000015481600101826002018360030160009054906101000a90046001600160a01b031684600401548560050154866006015487600d0160009054906101000a900460ff16868054610a8690611e27565b80601f0160208091040260200160405190810160405280929190818152602001828054610ab290611e27565b8015610aff5780601f10610ad457610100808354040283529160200191610aff565b820191906000526020600020905b815481529060010190602001808311610ae257829003601f168201915b50505050509650858054610b1290611e27565b80601f0160208091040260200160405190810160405280929190818152602001828054610b3e90611e27565b8015610b8b5780601f10610b6057610100808354040283529160200191610b8b565b820191906000526020600020905b815481529060010190602001808311610b6e57829003601f168201915b505050505095509850985098509850985098509850985050919395975091939597565b6000818152600260205260408120805460609203610bdf576040516305ce45f760e51b815260040160405180910390fd5b80600a01805480602002602001604051908101604052809291908181526020018280548015610493576020028201919060005260206000209081546001600160a01b03168152600190910190602001808311610475575050505050915050919050565b600081815260026020526040812080548203610c71576040516305ce45f760e51b815260040160405180910390fd5b600e015492915050565b610c83611566565b610c8b611669565b60008181526002602052604081208054909103610cbb576040516305ce45f760e51b815260040160405180910390fd5b600a810154600e820154108015610cd6575060058101544211155b15610cf457604051630e0d4dc560e41b815260040160405180910390fd5b600d81015460ff1615610d1a576040516315022dad60e11b815260040160405180910390fd5b610d2382610f15565b8051610d3991600c8401916020909101906119ef565b50600d8101805460ff19166001179055600c81015415610db9576001546040516338d2e2b960e11b81526001600160a01b03909116906371a5c57290610d8690600c850190600401611fae565b600060405180830381600087803b158015610da057600080fd5b505af1158015610db4573d6000803e3d6000fd5b505050505b817f91a972eb51500772286c163db07c3ba1e65d05eed82dc00ed6593e3ebf7621b582600c01604051610dec9190611fae565b60405180910390a25050565b7ff0c57e16840df040f15088dc2f81fe391c3923bec73e23a9662efc9c229c6a008054600160401b810460ff16159067ffffffffffffffff16600081158015610e3e5750825b905060008267ffffffffffffffff166001148015610e5b5750303b155b905081158015610e69575080155b15610e875760405163f92ee8a960e01b815260040160405180910390fd5b845467ffffffffffffffff191660011785558315610eb157845460ff60401b1916600160401b1785555b610eba86611897565b610ec26118a8565b60016000558315610f0d57845460ff60401b19168555604051600181527fc7f505b2f371ae2175ee4913f4499e1f2633a7b5936321eed1cdaeb6115181d29060200160405180910390a15b505050505050565b60008181526002602090815260408083206009810180548351818602810186019094528084526060959294929392830182828015610f7c57602002820191906000526020600020905b81546001600160a01b03168152600190910190602001808311610f5e575b505050505090506000826006015490506000825167ffffffffffffffff811115610fa857610fa8611b17565b604051908082528060200260200182016040528015610fed57816020015b6040805180820190915260008082526020820152815260200190600190039081610fc65790505b50905060005b83518110156110a757604051806040016040528085838151811061101957611019611f69565b60200260200101516001600160a01b03168152602001600560008a8152602001908152602001600020600087858151811061105657611056611f69565b60200260200101516001600160a01b03166001600160a01b031681526020019081526020016000205481525082828151811061109457611094611f69565b6020908102919091010152600101610ff3565b5060005b600182516110b99190611e14565b8110156113075760005b60018284516110d29190611e14565b6110dc9190611e14565b8110156112fe57826110ef826001611ff2565b815181106110ff576110ff611f69565b60200260200101516020015183828151811061111d5761111d611f69565b60200260200101516020015110156111be57600083828151811061114357611143611f69565b602002602001015190508382600161115b9190611ff2565b8151811061116b5761116b611f69565b602002602001015184838151811061118557611185611f69565b6020908102919091010152808461119d846001611ff2565b815181106111ad576111ad611f69565b6020026020010181905250506112f6565b826111ca826001611ff2565b815181106111da576111da611f69565b6020026020010151602001518382815181106111f8576111f8611f69565b602002602001015160200151148015611266575082611218826001611ff2565b8151811061122857611228611f69565b6020026020010151600001516001600160a01b031683828151811061124f5761124f611f69565b6020026020010151600001516001600160a01b0316115b156112f657600083828151811061127f5761127f611f69565b60200260200101519050838260016112979190611ff2565b815181106112a7576112a7611f69565b60200260200101518483815181106112c1576112c1611f69565b602090810291909101015280846112d9846001611ff2565b815181106112e9576112e9611f69565b6020026020010181905250505b6001016110c3565b506001016110ab565b5060008267ffffffffffffffff81111561132357611323611b17565b60405190808252806020026020018201604052801561134c578160200160208202803683370190505b50905060005b838110156113aa5782818151811061136c5761136c611f69565b60200260200101516000015182828151811061138a5761138a611f69565b6001600160a01b0390921660209283029190910190910152600101611352565b509695505050505050565b6113bd6109c7565b6001600160a01b0316336001600160a01b031614806113e557506001546001600160a01b0316155b61144d5760405162461bcd60e51b815260206004820152602e60248201527f4e6f7420616c6c6f77656420746f2073657420626f617264206f66206469726560448201526d18dd1bdc9cc818dbdb9d1c9858dd60921b60648201526084015b60405180910390fd5b600180546001600160a01b0319166001600160a01b0392909216919091179055565b611477611566565b6001600160a01b0381166114a157604051631e4fbdf760e01b815260006004820152602401611444565b6114aa816115f8565b50565b60008181526002602052604081208054606092036114de576040516305ce45f760e51b815260040160405180910390fd5b600d81015460ff1661150357604051630e0d4dc560e41b815260040160405180910390fd5b80600c01805480602002602001604051908101604052809291908181526020018280548015610493576020028201919060005260206000209081546001600160a01b03168152600190910190602001808311610475575050505050915050919050565b3361156f6109c7565b6001600160a01b0316146103b25760405163118cdaa760e01b8152336004820152602401611444565b6115a06118b8565b600080516020612028833981519152805460ff191681557f5db9ee0a495bf2e6ff9c91a7834c1ba4fdd244a5e8aa4e537bd38aeae4b073aa335b6040516001600160a01b03909116815260200160405180910390a150565b7f9016d09d72d40fdae2fd8ceac6b6234c7706214fd39c1cd1e609a0528c19930080546001600160a01b031981166001600160a01b03848116918217845560405192169182907f8be0079c531659141344cd1fd0a4f28419497f9722a3daafe3b4186f6b6457e090600090a3505050565b6000805160206120288339815191525460ff16156103b25760405163d93c066560e01b815260040160405180910390fd5b60008242101580156116ac5750814211155b9392505050565b6001600160a01b0381166116da5760405163e66ea08f60e01b815260040160405180910390fd5b6000805b600984015481101561173457826001600160a01b031684600901828154811061170957611709611f69565b6000918252602090912001546001600160a01b03160361172c5760019150611734565b6001016116de565b50806117535760405163e66ea08f60e01b815260040160405180910390fd5b505050565b611760611669565b600080516020612028833981519152805460ff191660011781557f62e78cea01bee320cd4e420270b5ea74000d11b0c9f74754ebdbfc544b05a258336115da565b8015806117b657506117b4600282612005565b155b156114aa576040516359e59f3f60e01b815260040160405180910390fd5b42821115806117e35750818111155b156118015760405163364dd21b60e21b815260040160405180910390fd5b5050565b8082511015611827576040516313bd20b360e01b815260040160405180910390fd5b611830826118e8565b156118015760405163bb7ee07360e01b815260040160405180910390fd5b8051600003611870576040516355d7892160e11b815260040160405180910390fd5b611879816118e8565b156114aa5760405163168dc35960e01b815260040160405180910390fd5b61189f61197d565b6114aa816119c6565b6118b061197d565b6103b26119ce565b6000805160206120288339815191525460ff166103b257604051638dfc202b60e01b815260040160405180910390fd5b6000805b8251811015611974576000611902826001611ff2565b90505b835181101561196b5783818151811061192057611920611f69565b60200260200101516001600160a01b031684838151811061194357611943611f69565b60200260200101516001600160a01b031603611963575060019392505050565b600101611905565b506001016118ec565b50600092915050565b7ff0c57e16840df040f15088dc2f81fe391c3923bec73e23a9662efc9c229c6a0054600160401b900460ff166103b257604051631afcd79f60e31b815260040160405180910390fd5b61147761197d565b6119d661197d565b600080516020612028833981519152805460ff19169055565b828054828255906000526020600020908101928215611a44579160200282015b82811115611a4457825182546001600160a01b0319166001600160a01b03909116178255602090920191600190910190611a0f565b50611a50929150611a54565b5090565b5b80821115611a505760008155600101611a55565b80356001600160a01b0381168114611a8057600080fd5b919050565b60008060408385031215611a9857600080fd5b82359150611aa860208401611a69565b90509250929050565b600060208284031215611ac357600080fd5b5035919050565b6020808252825182820181905260009190848201906040850190845b81811015611b0b5783516001600160a01b031683529284019291840191600101611ae6565b50909695505050505050565b634e487b7160e01b600052604160045260246000fd5b604051601f8201601f1916810167ffffffffffffffff81118282101715611b5657611b56611b17565b604052919050565b600082601f830112611b6f57600080fd5b813567ffffffffffffffff811115611b8957611b89611b17565b611b9c601f8201601f1916602001611b2d565b818152846020838601011115611bb157600080fd5b816020850160208301376000918101602001919091529392505050565b600082601f830112611bdf57600080fd5b8135602067ffffffffffffffff821115611bfb57611bfb611b17565b8160051b611c0a828201611b2d565b9283528481018201928281019087851115611c2457600080fd5b83870192505b84831015611c4a57611c3b83611a69565b82529183019190830190611c2a565b979650505050505050565b600080600080600080600060e0888a031215611c7057600080fd5b873567ffffffffffffffff80821115611c8857600080fd5b611c948b838c01611b5e565b985060208a0135915080821115611caa57600080fd5b611cb68b838c01611b5e565b975060408a0135965060608a0135955060808a0135945060a08a0135915080821115611ce157600080fd5b611ced8b838c01611bce565b935060c08a0135915080821115611d0357600080fd5b50611d108a828b01611bce565b91505092959891949750929550565b6000815180845260005b81811015611d4557602081850181015186830182015201611d29565b506000602082860101526020601f19601f83011685010191505092915050565b60006101008a8352806020840152611d7f8184018b611d1f565b90508281036040840152611d93818a611d1f565b6001600160a01b039890981660608401525050608081019490945260a084019290925260c0830152151560e0909101529392505050565b600060208284031215611ddc57600080fd5b6116ac82611a69565b634e487b7160e01b600052601160045260246000fd5b600060018201611e0d57611e0d611de5565b5060010190565b8181038181111561039c5761039c611de5565b600181811c90821680611e3b57607f821691505b602082108103611e5b57634e487b7160e01b600052602260045260246000fd5b50919050565b601f821115611753576000816000526020600020601f850160051c81016020861015611e8a5750805b601f850160051c820191505b81811015610f0d57828155600101611e96565b815167ffffffffffffffff811115611ec357611ec3611b17565b611ed781611ed18454611e27565b84611e61565b602080601f831160018114611f0c5760008415611ef45750858301515b600019600386901b1c1916600185901b178555610f0d565b600085815260208120601f198616915b82811015611f3b57888601518255948401946001909101908401611f1c565b5085821015611f595787850151600019600388901b60f8161c191681555b5050505050600190811b01905550565b634e487b7160e01b600052603260045260246000fd5b608081526000611f926080830187611d1f565b6020830195909552506040810192909252606090910152919050565b6020808252825482820181905260008481528281209092916040850190845b81811015611b0b5783546001600160a01b031683526001938401939285019201611fcd565b8082018082111561039c5761039c611de5565b60008261202257634e487b7160e01b600052601260045260246000fd5b50069056fecd5ed15c6e187e77e9aee88184c21f4f2182ab5827cb3b7e07fbedcd63f03300a264697066735822122037f69c2296e1d1655652718bac5854e45eaf01823683cc962aad1319ef4811ce64736f6c63430008180033",
  "linkReferences": {},
  "deployedLinkReferences": {}
}