{
  "_format": "hh-sol-artifact-1",
  "contractName": "ExpenseAccountEIP712",
  "sourceName": "contracts/expense-account/ExpenseAccountEIP712.sol",
  "abi": [
    {
      "inputs": [
        {
          "internalType": "uint256",
          "name": "amount",
          "type": "uint256"
        }
      ],
      "name": "AmountPerPeriodExceeded",
      "type": "error"
    },
    {
      "inputs": [
        {
          "internalType": "uint256",
          "name": "amount",
          "type": "uint256"
        }
      ],
      "name": "AmountPerTransactionExceeded",
      "type": "error"
    },
    {
      "inputs": [
        {
          "internalType": "uint256",
          "name": "currentTime",
          "type": "uint256"
        },
        {
          "internalType": "uint256",
          "name": "endDate",
          "type": "uint256"
        }
      ],
      "name": "ApprovalExpired",
      "type": "error"
    },
    {
      "inputs": [
        {
          "internalType": "uint256",
          "name": "currentTime",
          "type": "uint256"
        },
        {
          "internalType": "uint256",
          "name": "startDate",
          "type": "uint256"
        }
      ],
      "name": "ApprovalNotActive",
      "type": "error"
    },
    {
      "inputs": [],
      "name": "ECDSAInvalidSignature",
      "type": "error"
    },
    {
      "inputs": [
        {
          "internalType": "uint256",
          "name": "length",
          "type": "uint256"
        }
      ],
      "name": "ECDSAInvalidSignatureLength",
      "type": "error"
    },
    {
      "inputs": [
        {
          "internalType": "bytes32",
          "name": "s",
          "type": "bytes32"
        }
      ],
      "name": "ECDSAInvalidSignatureS",
      "type": "error"
    },
    {
      "inputs": [],
      "name": "EnforcedPause",
      "type": "error"
    },
    {
      "inputs": [],
      "name": "ExpectedPause",
      "type": "error"
    },
    {
      "inputs": [],
      "name": "FailedCall",
      "type": "error"
    },
    {
      "inputs": [
        {
          "internalType": "uint256",
          "name": "balance",
          "type": "uint256"
        },
        {
          "internalType": "uint256",
          "name": "needed",
          "type": "uint256"
        }
      ],
      "name": "InsufficientBalance",
      "type": "error"
    },
    {
      "inputs": [],
      "name": "InvalidInitialization",
      "type": "error"
    },
    {
      "inputs": [],
      "name": "NotInitializing",
      "type": "error"
    },
    {
      "inputs": [
        {
          "internalType": "address",
          "name": "owner",
          "type": "address"
        }
      ],
      "name": "OwnableInvalidOwner",
      "type": "error"
    },
    {
      "inputs": [
        {
          "internalType": "address",
          "name": "account",
          "type": "address"
        }
      ],
      "name": "OwnableUnauthorizedAccount",
      "type": "error"
    },
    {
      "inputs": [],
      "name": "ReentrancyGuardReentrantCall",
      "type": "error"
    },
    {
      "inputs": [
        {
          "internalType": "address",
          "name": "expected",
          "type": "address"
        },
        {
          "internalType": "address",
          "name": "received",
          "type": "address"
        }
      ],
      "name": "UnauthorizedAccess",
      "type": "error"
    },
    {
      "anonymous": false,
      "inputs": [
        {
          "indexed": true,
          "internalType": "bytes32",
          "name": "signatureHash",
          "type": "bytes32"
        }
      ],
      "name": "ApprovalActivated",
      "type": "event"
    },
    {
      "anonymous": false,
      "inputs": [
        {
          "indexed": true,
          "internalType": "bytes32",
          "name": "signatureHash",
          "type": "bytes32"
        }
      ],
      "name": "ApprovalDeactivated",
      "type": "event"
    },
    {
      "anonymous": false,
      "inputs": [
        {
          "indexed": true,
          "internalType": "address",
          "name": "depositor",
          "type": "address"
        },
        {
          "indexed": false,
          "internalType": "uint256",
          "name": "amount",
          "type": "uint256"
        }
      ],
      "name": "Deposited",
      "type": "event"
    },
    {
      "anonymous": false,
      "inputs": [],
      "name": "EIP712DomainChanged",
      "type": "event"
    },
    {
      "anonymous": false,
      "inputs": [
        {
          "indexed": false,
          "internalType": "uint64",
          "name": "version",
          "type": "uint64"
        }
      ],
      "name": "Initialized",
      "type": "event"
    },
    {
      "anonymous": false,
      "inputs": [
        {
          "indexed": true,
          "internalType": "address",
          "name": "previousOwner",
          "type": "address"
        },
        {
          "indexed": true,
          "internalType": "address",
          "name": "newOwner",
          "type": "address"
        }
      ],
      "name": "OwnershipTransferred",
      "type": "event"
    },
    {
      "anonymous": false,
      "inputs": [
        {
          "indexed": false,
          "internalType": "address",
          "name": "account",
          "type": "address"
        }
      ],
      "name": "Paused",
      "type": "event"
    },
    {
      "anonymous": false,
      "inputs": [
        {
          "indexed": true,
          "internalType": "address",
          "name": "addressWhoChanged",
          "type": "address"
        },
        {
          "indexed": false,
          "internalType": "string",
          "name": "tokenSymbol",
          "type": "string"
        },
        {
          "indexed": true,
          "internalType": "address",
          "name": "oldAddress",
          "type": "address"
        },
        {
          "indexed": true,
          "internalType": "address",
          "name": "newAddress",
          "type": "address"
        }
      ],
      "name": "TokenAddressChanged",
      "type": "event"
    },
    {
      "anonymous": false,
      "inputs": [
        {
          "indexed": true,
          "internalType": "address",
          "name": "depositor",
          "type": "address"
        },
        {
          "indexed": true,
          "internalType": "address",
          "name": "token",
          "type": "address"
        },
        {
          "indexed": false,
          "internalType": "uint256",
          "name": "amount",
          "type": "uint256"
        }
      ],
      "name": "TokenDeposited",
      "type": "event"
    },
    {
      "anonymous": false,
      "inputs": [
        {
          "indexed": true,
          "internalType": "address",
          "name": "withdrawer",
          "type": "address"
        },
        {
          "indexed": true,
          "internalType": "address",
          "name": "to",
          "type": "address"
        },
        {
          "indexed": true,
          "internalType": "address",
          "name": "token",
          "type": "address"
        },
        {
          "indexed": false,
          "internalType": "uint256",
          "name": "amount",
          "type": "uint256"
        }
      ],
      "name": "TokenTransfer",
      "type": "event"
    },
    {
      "anonymous": false,
      "inputs": [
        {
          "indexed": true,
          "internalType": "address",
          "name": "withdrawer",
          "type": "address"
        },
        {
          "indexed": true,
          "internalType": "address",
          "name": "to",
          "type": "address"
        },
        {
          "indexed": false,
          "internalType": "uint256",
          "name": "amount",
          "type": "uint256"
        }
      ],
      "name": "Transfer",
      "type": "event"
    },
    {
      "anonymous": false,
      "inputs": [
        {
          "indexed": false,
          "internalType": "address",
          "name": "account",
          "type": "address"
        }
      ],
      "name": "Unpaused",
      "type": "event"
    },
    {
      "inputs": [
        {
          "internalType": "bytes32",
          "name": "signatureHash",
          "type": "bytes32"
        }
      ],
      "name": "activateApproval",
      "outputs": [],
      "stateMutability": "nonpayable",
      "type": "function"
    },
    {
      "inputs": [
        {
          "components": [
            {
              "internalType": "uint256",
              "name": "amount",
              "type": "uint256"
            },
            {
              "internalType": "enum ExpenseAccountEIP712.FrequencyType",
              "name": "frequencyType",
              "type": "uint8"
            },
            {
              "internalType": "uint256",
              "name": "customFrequency",
              "type": "uint256"
            },
            {
              "internalType": "uint256",
              "name": "startDate",
              "type": "uint256"
            },
            {
              "internalType": "uint256",
              "name": "endDate",
              "type": "uint256"
            },
            {
              "internalType": "address",
              "name": "tokenAddress",
              "type": "address"
            },
            {
              "internalType": "address",
              "name": "approvedAddress",
              "type": "address"
            }
          ],
          "internalType": "struct ExpenseAccountEIP712.BudgetLimit",
          "name": "budgetLimit",
          "type": "tuple"
        }
      ],
      "name": "budgetLimitHash",
      "outputs": [
        {
          "internalType": "bytes32",
          "name": "",
          "type": "bytes32"
        }
      ],
      "stateMutability": "pure",
      "type": "function"
    },
    {
      "inputs": [
        {
          "internalType": "string",
          "name": "symbol",
          "type": "string"
        },
        {
          "internalType": "address",
          "name": "newAddress",
          "type": "address"
        }
      ],
      "name": "changeTokenAddress",
      "outputs": [],
      "stateMutability": "nonpayable",
      "type": "function"
    },
    {
      "inputs": [
        {
          "internalType": "bytes32",
          "name": "signatureHash",
          "type": "bytes32"
        }
      ],
      "name": "deactivateApproval",
      "outputs": [],
      "stateMutability": "nonpayable",
      "type": "function"
    },
    {
      "inputs": [
        {
          "internalType": "address",
          "name": "token",
          "type": "address"
        },
        {
          "internalType": "uint256",
          "name": "amount",
          "type": "uint256"
        }
      ],
      "name": "depositToken",
      "outputs": [],
      "stateMutability": "nonpayable",
      "type": "function"
    },
    {
      "inputs": [],
      "name": "eip712Domain",
      "outputs": [
        {
          "internalType": "bytes1",
          "name": "fields",
          "type": "bytes1"
        },
        {
          "internalType": "string",
          "name": "name",
          "type": "string"
        },
        {
          "internalType": "string",
          "name": "version",
          "type": "string"
        },
        {
          "internalType": "uint256",
          "name": "chainId",
          "type": "uint256"
        },
        {
          "internalType": "address",
          "name": "verifyingContract",
          "type": "address"
        },
        {
          "internalType": "bytes32",
          "name": "salt",
          "type": "bytes32"
        },
        {
          "internalType": "uint256[]",
          "name": "extensions",
          "type": "uint256[]"
        }
      ],
      "stateMutability": "view",
      "type": "function"
    },
    {
      "inputs": [
        {
          "internalType": "bytes32",
          "name": "",
          "type": "bytes32"
        }
      ],
      "name": "expenseBalances",
      "outputs": [
        {
          "internalType": "uint256",
          "name": "lastWithdrawnDate",
          "type": "uint256"
        },
        {
          "internalType": "uint256",
          "name": "totalWithdrawn",
          "type": "uint256"
        },
        {
          "internalType": "uint256",
          "name": "lastWithdrawnPeriod",
          "type": "uint256"
        },
        {
          "internalType": "enum ExpenseAccountEIP712.ApprovalState",
          "name": "state",
          "type": "uint8"
        }
      ],
      "stateMutability": "view",
      "type": "function"
    },
    {
      "inputs": [],
      "name": "getBalance",
      "outputs": [
        {
          "internalType": "uint256",
          "name": "",
          "type": "uint256"
        }
      ],
      "stateMutability": "view",
      "type": "function"
    },
    {
      "inputs": [
        {
          "components": [
            {
              "internalType": "uint256",
              "name": "amount",
              "type": "uint256"
            },
            {
              "internalType": "enum ExpenseAccountEIP712.FrequencyType",
              "name": "frequencyType",
              "type": "uint8"
            },
            {
              "internalType": "uint256",
              "name": "customFrequency",
              "type": "uint256"
            },
            {
              "internalType": "uint256",
              "name": "startDate",
              "type": "uint256"
            },
            {
              "internalType": "uint256",
              "name": "endDate",
              "type": "uint256"
            },
            {
              "internalType": "address",
              "name": "tokenAddress",
              "type": "address"
            },
            {
              "internalType": "address",
              "name": "approvedAddress",
              "type": "address"
            }
          ],
          "internalType": "struct ExpenseAccountEIP712.BudgetLimit",
          "name": "budgetLimit",
          "type": "tuple"
        }
      ],
      "name": "getCurrentPeriod",
      "outputs": [
        {
          "internalType": "uint256",
          "name": "",
          "type": "uint256"
        }
      ],
      "stateMutability": "view",
      "type": "function"
    },
    {
      "inputs": [
        {
          "components": [
            {
              "internalType": "uint256",
              "name": "amount",
              "type": "uint256"
            },
            {
              "internalType": "enum ExpenseAccountEIP712.FrequencyType",
              "name": "frequencyType",
              "type": "uint8"
            },
            {
              "internalType": "uint256",
              "name": "customFrequency",
              "type": "uint256"
            },
            {
              "internalType": "uint256",
              "name": "startDate",
              "type": "uint256"
            },
            {
              "internalType": "uint256",
              "name": "endDate",
              "type": "uint256"
            },
            {
              "internalType": "address",
              "name": "tokenAddress",
              "type": "address"
            },
            {
              "internalType": "address",
              "name": "approvedAddress",
              "type": "address"
            }
          ],
          "internalType": "struct ExpenseAccountEIP712.BudgetLimit",
          "name": "budgetLimit",
          "type": "tuple"
        },
        {
          "internalType": "uint256",
          "name": "timestamp",
          "type": "uint256"
        }
      ],
      "name": "getPeriod",
      "outputs": [
        {
          "internalType": "uint256",
          "name": "",
          "type": "uint256"
        }
      ],
      "stateMutability": "pure",
      "type": "function"
    },
    {
      "inputs": [
        {
          "internalType": "address",
          "name": "token",
          "type": "address"
        }
      ],
      "name": "getTokenBalance",
      "outputs": [
        {
          "internalType": "uint256",
          "name": "",
          "type": "uint256"
        }
      ],
      "stateMutability": "view",
      "type": "function"
    },
    {
      "inputs": [
        {
          "internalType": "address",
          "name": "owner",
          "type": "address"
        },
        {
          "internalType": "address",
          "name": "_usdtAddress",
          "type": "address"
        },
        {
          "internalType": "address",
          "name": "_usdcAddress",
          "type": "address"
        }
      ],
      "name": "initialize",
      "outputs": [],
      "stateMutability": "nonpayable",
      "type": "function"
    },
    {
      "inputs": [
        {
          "internalType": "address",
          "name": "_token",
          "type": "address"
        }
      ],
      "name": "isTokenSupported",
      "outputs": [
        {
          "internalType": "bool",
          "name": "",
          "type": "bool"
        }
      ],
      "stateMutability": "view",
      "type": "function"
    },
    {
      "inputs": [],
      "name": "owner",
      "outputs": [
        {
          "internalType": "address",
          "name": "",
          "type": "address"
        }
      ],
      "stateMutability": "view",
      "type": "function"
    },
    {
      "inputs": [],
      "name": "pause",
      "outputs": [],
      "stateMutability": "nonpayable",
      "type": "function"
    },
    {
      "inputs": [],
      "name": "paused",
      "outputs": [
        {
          "internalType": "bool",
          "name": "",
          "type": "bool"
        }
      ],
      "stateMutability": "view",
      "type": "function"
    },
    {
      "inputs": [],
      "name": "renounceOwnership",
      "outputs": [],
      "stateMutability": "nonpayable",
      "type": "function"
    },
    {
      "inputs": [
        {
          "internalType": "string",
          "name": "",
          "type": "string"
        }
      ],
      "name": "supportedTokens",
      "outputs": [
        {
          "internalType": "address",
          "name": "",
          "type": "address"
        }
      ],
      "stateMutability": "view",
      "type": "function"
    },
    {
      "inputs": [
        {
          "internalType": "address",
          "name": "to",
          "type": "address"
        },
        {
          "internalType": "uint256",
          "name": "amount",
          "type": "uint256"
        },
        {
          "components": [
            {
              "internalType": "uint256",
              "name": "amount",
              "type": "uint256"
            },
            {
              "internalType": "enum ExpenseAccountEIP712.FrequencyType",
              "name": "frequencyType",
              "type": "uint8"
            },
            {
              "internalType": "uint256",
              "name": "customFrequency",
              "type": "uint256"
            },
            {
              "internalType": "uint256",
              "name": "startDate",
              "type": "uint256"
            },
            {
              "internalType": "uint256",
              "name": "endDate",
              "type": "uint256"
            },
            {
              "internalType": "address",
              "name": "tokenAddress",
              "type": "address"
            },
            {
              "internalType": "address",
              "name": "approvedAddress",
              "type": "address"
            }
          ],
          "internalType": "struct ExpenseAccountEIP712.BudgetLimit",
          "name": "budgetLimit",
          "type": "tuple"
        },
        {
          "internalType": "bytes",
          "name": "signature",
          "type": "bytes"
        }
      ],
      "name": "transfer",
      "outputs": [],
      "stateMutability": "nonpayable",
      "type": "function"
    },
    {
      "inputs": [
        {
          "internalType": "address",
          "name": "newOwner",
          "type": "address"
        }
      ],
      "name": "transferOwnership",
      "outputs": [],
      "stateMutability": "nonpayable",
      "type": "function"
    },
    {
      "inputs": [],
      "name": "unpause",
      "outputs": [],
      "stateMutability": "nonpayable",
      "type": "function"
    },
    {
      "inputs": [
        {
          "components": [
            {
              "internalType": "uint256",
              "name": "amount",
              "type": "uint256"
            },
            {
              "internalType": "enum ExpenseAccountEIP712.FrequencyType",
              "name": "frequencyType",
              "type": "uint8"
            },
            {
              "internalType": "uint256",
              "name": "customFrequency",
              "type": "uint256"
            },
            {
              "internalType": "uint256",
              "name": "startDate",
              "type": "uint256"
            },
            {
              "internalType": "uint256",
              "name": "endDate",
              "type": "uint256"
            },
            {
              "internalType": "address",
              "name": "tokenAddress",
              "type": "address"
            },
            {
              "internalType": "address",
              "name": "approvedAddress",
              "type": "address"
            }
          ],
          "internalType": "struct ExpenseAccountEIP712.BudgetLimit",
          "name": "budgetLimit",
          "type": "tuple"
        },
        {
          "internalType": "uint256",
          "name": "amount",
          "type": "uint256"
        },
        {
          "internalType": "bytes32",
          "name": "signatureHash",
          "type": "bytes32"
        }
      ],
      "name": "validateTransfer",
      "outputs": [
        {
          "internalType": "bool",
          "name": "",
          "type": "bool"
        }
      ],
      "stateMutability": "view",
      "type": "function"
    },
    {
      "stateMutability": "payable",
      "type": "receive"
    }
  ],
  "bytecode": "0x608060405234801561001057600080fd5b50612d91806100206000396000f3fe6080604052600436106101395760003560e01c80638456cb59116100ab578063ab38a4851161006f578063ab38a485146103a4578063bccb212a146103c4578063c0c53b8b146103e4578063de98253414610404578063ec681b6114610424578063f2fde38b1461047957600080fd5b80638456cb59146102d957806384b0196e146102ee57806389919cdd146103165780638da5cb5b1461036f578063a5b8eba51461038457600080fd5b80633fd1b14a116100fd5780633fd1b14a14610213578063549025df14610233578063582df647146102535780635c975abb14610273578063715018a6146102a457806375151b63146102b957600080fd5b806312065fe01461017a5780632a46aa971461019c578063338b5dea146101bc5780633aecd0e3146101de5780633f4ba83a146101fe57600080fd5b366101755760405134815233907f2da466a7b24304f47e87fa2e1e5a81b9831ce54fec19055ce277ca2f39ba42c49060200160405180910390a2005b600080fd5b34801561018657600080fd5b50475b6040519081526020015b60405180910390f35b3480156101a857600080fd5b506101896101b73660046124b5565b610499565b3480156101c857600080fd5b506101dc6101d73660046124ed565b610555565b005b3480156101ea57600080fd5b506101896101f9366004612517565b61072b565b34801561020a57600080fd5b506101dc6107e4565b34801561021f57600080fd5b506101dc61022e36600461257b565b6107f6565b34801561023f57600080fd5b5061018961024e3660046125ed565b610cc1565b34801561025f57600080fd5b5061018961026e3660046124b5565b610e8e565b34801561027f57600080fd5b50600080516020612d3c8339815191525460ff165b6040519015158152602001610193565b3480156102b057600080fd5b506101dc610e9a565b3480156102c557600080fd5b506102946102d4366004612517565b610eac565b3480156102e557600080fd5b506101dc610f31565b3480156102fa57600080fd5b50610303610f41565b6040516101939796959493929190612669565b34801561032257600080fd5b50610357610331366004612718565b80516020818301810180516001825292820191909301209152546001600160a01b031681565b6040516001600160a01b039091168152602001610193565b34801561037b57600080fd5b50610357610fed565b34801561039057600080fd5b5061029461039f3660046127c9565b61101b565b3480156103b057600080fd5b506101dc6103bf3660046127ff565b6112cf565b3480156103d057600080fd5b506101dc6103df366004612853565b6114d0565b3480156103f057600080fd5b506101dc6103ff36600461286c565b61151e565b34801561041057600080fd5b506101dc61041f366004612853565b6116ff565b34801561043057600080fd5b5061046961043f366004612853565b60006020819052908152604090208054600182015460028301546003909301549192909160ff1684565b60405161019394939291906128bc565b34801561048557600080fd5b506101dc610494366004612517565b61174d565b60006040518060c0016040528060968152602001612ca6609691396040516020016104c491906128f0565b6040516020818303038152906040528051906020012082600001358360200160208101906104f2919061290c565b60408501356060860135608087013561051160c0890160a08a01612517565b61052160e08a0160c08b01612517565b60405160200161053898979695949392919061292d565b604051602081830303815290604052805190602001209050919050565b61055d61178b565b6105656117d5565b61056e82610eac565b6105b35760405162461bcd60e51b81526020600482015260116024820152702ab739bab83837b93a32b2103a37b5b2b760791b60448201526064015b60405180910390fd5b600081116106035760405162461bcd60e51b815260206004820181905260248201527f416d6f756e74206d7573742062652067726561746572207468616e207a65726f60448201526064016105aa565b6040516323b872dd60e01b8152336004820152306024820152604481018290526001600160a01b038316906323b872dd906064016020604051808303816000875af1158015610656573d6000803e3d6000fd5b505050506040513d601f19601f8201168201806040525081019061067a9190612989565b6106be5760405162461bcd60e51b8152602060048201526015602482015274151bdad95b881d1c985b9cd9995c8819985a5b1959605a1b60448201526064016105aa565b6040518181526001600160a01b0383169033907ff1444b5cad7ce70cb018d1b8edc8618fe303f3c7f034d8d572a6e27facbf2bef9060200160405180910390a361072760017f9b779b17422d0df92223018b32b4d1fa46e071723d6817e2486d003becc55f0055565b5050565b600061073682610eac565b6107765760405162461bcd60e51b81526020600482015260116024820152702ab739bab83837b93a32b2103a37b5b2b760791b60448201526064016105aa565b6040516370a0823160e01b81523060048201526001600160a01b038316906370a0823190602401602060405180830381865afa1580156107ba573d6000803e3d6000fd5b505050506040513d601f19601f820116820180604052508101906107de91906129ab565b92915050565b6107ec61182c565b6107f461185e565b565b6001600160a01b03851661083f5760405162461bcd60e51b815260206004820152601060248201526f1059191c995cdcc81c995c5d5a5c995960821b60448201526064016105aa565b61084f60e0840160c08501612517565b6001600160a01b0316336001600160a01b0316146108a65760405162461bcd60e51b815260206004820152601460248201527314dc195b99195c881b9bdd08185c1c1c9bdd995960621b60448201526064016105aa565b60006108b96108b485610499565b6118be565b90506108c3610fed565b6001600160a01b031661090e84848080601f01602080910402602001604051908101604052809392919081815260200183838082843760009201919091525086939250506118eb9050565b6001600160a01b03161461095c5760405162461bcd60e51b815260206004820152601560248201527414da59db995c881b9bdd08185d5d1a1bdc9a5e9959605a1b60448201526064016105aa565b6000838360405161096e9291906129c4565b6040518091039020905061098385878361101b565b6109c65760405162461bcd60e51b8152602060048201526014602482015273151c985b9cd9995c881b9bdd08185b1b1bddd95960621b60448201526064016105aa565b6109d1858783611915565b60006109e360c0870160a08801612517565b6001600160a01b031603610ab55785471015610a415760405162461bcd60e51b815260206004820152601b60248201527f496e73756666696369656e74206e61746976652062616c616e6365000000000060448201526064016105aa565b610a546001600160a01b038816876119c3565b6001600160a01b038716610a6e60e0870160c08801612517565b6001600160a01b03167fddf252ad1be2c89b69c2b068fc378daa952ba7f163c4a11628f55a4df523b3ef88604051610aa891815260200190565b60405180910390a3610cb8565b85610ac660c0870160a08801612517565b6040516370a0823160e01b81523060048201526001600160a01b0391909116906370a0823190602401602060405180830381865afa158015610b0c573d6000803e3d6000fd5b505050506040513d601f19601f82011682018060405250810190610b3091906129ab565b1015610b7e5760405162461bcd60e51b815260206004820152601a60248201527f496e73756666696369656e7420746f6b656e2062616c616e636500000000000060448201526064016105aa565b610b8e60c0860160a08701612517565b60405163a9059cbb60e01b81526001600160a01b03898116600483015260248201899052919091169063a9059cbb906044016020604051808303816000875af1158015610bdf573d6000803e3d6000fd5b505050506040513d601f19601f82011682018060405250810190610c039190612989565b610c475760405162461bcd60e51b8152602060048201526015602482015274151bdad95b881d1c985b9cd9995c8819985a5b1959605a1b60448201526064016105aa565b610c5760c0860160a08701612517565b6001600160a01b03908116908816610c7560e0880160c08901612517565b6001600160a01b03167fae33cb06d7303f889d953bb09540983050163c1c4c98b330db432a911cfb63fd89604051610caf91815260200190565b60405180910390a45b50505050505050565b60008260600135821015610cd7575060006107de565b6000610ce9604085016020860161290c565b6004811115610cfa57610cfa6128a6565b03610d07575060006107de565b6001610d19604085016020860161290c565b6004811115610d2a57610d2a6128a6565b03610d525762015180610d416060850135846129ea565b610d4b9190612a13565b90506107de565b6002610d64604085016020860161290c565b6004811115610d7557610d756128a6565b03610d8857610d4b836060013583611a66565b6003610d9a604085016020860161290c565b6004811115610dab57610dab6128a6565b03610dbe57610d4b836060013583611ab5565b6004610dd0604085016020860161290c565b6004811115610de157610de16128a6565b03610e4d576000836040013511610e3a5760405162461bcd60e51b815260206004820152601c60248201527f437573746f6d206672657175656e6379206d757374206265203e20300000000060448201526064016105aa565b6040830135610d416060850135846129ea565b60405162461bcd60e51b8152602060048201526016602482015275496e76616c6964206672657175656e6379207479706560501b60448201526064016105aa565b60006107de8242610cc1565b610ea261182c565b6107f46000611b95565b60006001604051610ec790631554d11560e21b815260040190565b908152604051908190036020019020546001600160a01b0383811691161480610f1d5750604051635553444360e01b8152600190600401908152604051908190036020019020546001600160a01b038381169116145b806107de5750506001600160a01b03161590565b610f3961182c565b6107f4611c06565b60006060808280808381600080516020612c868339815191528054909150158015610f6e57506001810154155b610fb25760405162461bcd60e51b81526020600482015260156024820152741152540dcc4c8e88155b9a5b9a5d1a585b1a5e9959605a1b60448201526064016105aa565b610fba611c4f565b610fc2611d12565b60408051600080825260208201909252600f60f81b9c939b5091995046985030975095509350915050565b7f9016d09d72d40fdae2fd8ceac6b6234c7706214fd39c1cd1e609a0528c199300546001600160a01b031690565b600083606001354210156110715760405162461bcd60e51b815260206004820152601760248201527f417070726f76616c206e6f74207965742061637469766500000000000000000060448201526064016105aa565b83608001354211156110b85760405162461bcd60e51b815260206004820152601060248201526f105c1c1c9bdd985b08195e1c1a5c995960821b60448201526064016105aa565b83358311156111095760405162461bcd60e51b815260206004820152601b60248201527f416d6f756e74206578636565647320627564676574206c696d6974000000000060448201526064016105aa565b600082815260208190526040812090611128604087016020880161290c565b6004811115611139576111396128a6565b0361119a576001810154156111905760405162461bcd60e51b815260206004820152601c60248201527f4f6e652d74696d652062756467657420616c726561647920757365640000000060448201526064016105aa565b60019150506112c8565b60006111a586610e8e565b905081600201548111806111b857508154155b1561121357853585111561120e5760405162461bcd60e51b815260206004820152601c60248201527f416d6f756e74206578636565647320706572696f64206275646765740000000060448201526064016105aa565b61126c565b6001820154863590611226908790612a27565b111561126c5760405162461bcd60e51b8152602060048201526015602482015274115e18d959591cc81c195c9a5bd908189d5919d95d605a1b60448201526064016105aa565b61127f6102d460c0880160a08901612517565b6112c15760405162461bcd60e51b8152602060048201526013602482015272151bdad95b881b9bdd081cdd5c1c1bdc9d1959606a1b60448201526064016105aa565b6001925050505b9392505050565b6112d761182c565b6112df6117d5565b6001600160a01b03811661132e5760405162461bcd60e51b8152602060048201526016602482015275416464726573732063616e6e6f74206265207a65726f60501b60448201526064016105aa565b604051631554d11560e21b602082015260240160405160208183030381529060405280519060200120838360405160200161136a9291906129c4565b6040516020818303038152906040528051906020012014806113db5750604051635553444360e01b60208201526024016040516020818303038152906040528051906020012083836040516020016113c39291906129c4565b60405160208183030381529060405280519060200120145b61141e5760405162461bcd60e51b8152602060048201526014602482015273125b9d985b1a59081d1bdad95b881cde5b589bdb60621b60448201526064016105aa565b6000600184846040516114329291906129c4565b908152604051908190036020018120546001600160a01b03169150829060019061145f90879087906129c4565b90815260405190819003602001812080546001600160a01b039384166001600160a01b03199091161790558382169183169033907ffa0e1aca71e09b7065691fdf3ee6adb50937ef393f5e4c3fca1235dd97702f8c906114c29089908990612a3a565b60405180910390a450505050565b6114d861182c565b600081815260208190526040808220600301805460ff191660021790555182917fe7d3eeb38329f442545ad499afa197225d3b880a08e091ad2c2c244d6236fa0e91a250565b7ff0c57e16840df040f15088dc2f81fe391c3923bec73e23a9662efc9c229c6a008054600160401b810460ff16159067ffffffffffffffff166000811580156115645750825b905060008267ffffffffffffffff1660011480156115815750303b155b90508115801561158f575080155b156115ad5760405163f92ee8a960e01b815260040160405180910390fd5b845467ffffffffffffffff1916600117855583156115d757845460ff60401b1916600160401b1785555b6115e088611d51565b6115e8611d62565b6115f0611d72565b61163c6040518060400160405280601181526020017010d390d15e1c195b9cd95058d8dbdd5b9d607a1b815250604051806040016040528060018152602001603160f81b815250611d82565b86600160405161165690631554d11560e21b815260040190565b9081526040805191829003602001822080546001600160a01b039485166001600160a01b031991821617909155635553444360e01b83526001600484015290519182900360240190912080549289169290911691909117905583156116f557845460ff60401b19168555604051600181527fc7f505b2f371ae2175ee4913f4499e1f2633a7b5936321eed1cdaeb6115181d29060200160405180910390a15b5050505050505050565b61170761182c565b600081815260208190526040808220600301805460ff191660011790555182917f5e927cbcc58ec12d6f3fbe317ac4ef30466cfcdddf0be5c85eefab4670b73c3691a250565b61175561182c565b6001600160a01b03811661177f57604051631e4fbdf760e01b8152600060048201526024016105aa565b61178881611b95565b50565b7f9b779b17422d0df92223018b32b4d1fa46e071723d6817e2486d003becc55f008054600119016117cf57604051633ee5aeb560e01b815260040160405180910390fd5b60029055565b600080516020612d3c8339815191525460ff16156107f45760405163d93c066560e01b815260040160405180910390fd5b60017f9b779b17422d0df92223018b32b4d1fa46e071723d6817e2486d003becc55f0055565b33611835610fed565b6001600160a01b0316146107f45760405163118cdaa760e01b81523360048201526024016105aa565b611866611d94565b600080516020612d3c833981519152805460ff191681557f5db9ee0a495bf2e6ff9c91a7834c1ba4fdd244a5e8aa4e537bd38aeae4b073aa335b6040516001600160a01b03909116815260200160405180910390a150565b60006107de6118cb611dc4565b8360405161190160f01b8152600281019290925260228201526042902090565b6000806000806118fb8686611dd3565b92509250925061190b8282611e20565b5090949350505050565b60008181526020819052604081209061192d85610e8e565b90506000611941604087016020880161290c565b6004811115611952576119526128a6565b03611976578382600101600082825461196b9190612a27565b909155506119bc9050565b816002015481118061198757508154155b156119a25760018201849055600282018190554282556119bc565b838260010160008282546119b69190612a27565b90915550505b5050505050565b804710156119ed5760405163cf47918160e01b8152476004820152602481018290526044016105aa565b6000826001600160a01b03168260405160006040518083038185875af1925050503d8060008114611a3a576040519150601f19603f3d011682016040523d82523d6000602084013e611a3f565b606091505b5050905080611a615760405163d6bda27560e01b815260040160405180910390fd5b505050565b600080611a7284611ed9565b90506000611a7f84611ed9565b905081811015611a94576000925050506107de565b62093a80611aa283836129ea565b611aac9190612a13565b95945050505050565b600080611ac184611f55565b90506000611ace85611f75565b90506000611adb85611f55565b90506000611ae886611f75565b905086861015611aff5760009450505050506107de565b838203611b2757828110611b2257611b1783826129ea565b9450505050506107de565b611b88565b83821115611b885760006001611b3d86856129ea565b611b4791906129ea565b90506000611b5685600c6129ea565b9050828082611b6685600c612a69565b611b709190612a27565b611b7a9190612a27565b9750505050505050506107de565b5060009695505050505050565b7f9016d09d72d40fdae2fd8ceac6b6234c7706214fd39c1cd1e609a0528c19930080546001600160a01b031981166001600160a01b03848116918217845560405192169182907f8be0079c531659141344cd1fd0a4f28419497f9722a3daafe3b4186f6b6457e090600090a3505050565b611c0e6117d5565b600080516020612d3c833981519152805460ff191660011781557f62e78cea01bee320cd4e420270b5ea74000d11b0c9f74754ebdbfc544b05a258336118a0565b7fa16a46d94261c7517cc8ff89f61c0ce93598e3c849801011dee649a6a557d1028054606091600080516020612c8683398151915291611c8e90612a80565b80601f0160208091040260200160405190810160405280929190818152602001828054611cba90612a80565b8015611d075780601f10611cdc57610100808354040283529160200191611d07565b820191906000526020600020905b815481529060010190602001808311611cea57829003601f168201915b505050505091505090565b7fa16a46d94261c7517cc8ff89f61c0ce93598e3c849801011dee649a6a557d1038054606091600080516020612c8683398151915291611c8e90612a80565b611d59611f8f565b61178881611fd8565b611d6a611f8f565b6107f4611fe0565b611d7a611f8f565b6107f4611fe8565b611d8a611f8f565b6107278282612009565b600080516020612d3c8339815191525460ff166107f457604051638dfc202b60e01b815260040160405180910390fd5b6000611dce61206a565b905090565b60008060008351604103611e0d5760208401516040850151606086015160001a611dff888285856120de565b955095509550505050611e19565b50508151600091506002905b9250925092565b6000826003811115611e3457611e346128a6565b03611e3d575050565b6001826003811115611e5157611e516128a6565b03611e6f5760405163f645eedf60e01b815260040160405180910390fd5b6002826003811115611e8357611e836128a6565b03611ea45760405163fce698f760e01b8152600481018290526024016105aa565b6003826003811115611eb857611eb86128a6565b03610727576040516335e2f38360e21b8152600481018290526024016105aa565b600080611ee5836121ad565b90506000611f0c611ef585611f55565b611efe86611f75565b611f07876121e1565b6121fb565b905081600103611f1d579392505050565b6000611f2a6001846129ea565b611f379062015180612a69565b9050808210611f4a57611aac81836129ea565b506000949350505050565b6000611f6c611f676201518084612a13565b612216565b50909392505050565b6000611f87611f676201518084612a13565b509392505050565b7ff0c57e16840df040f15088dc2f81fe391c3923bec73e23a9662efc9c229c6a0054600160401b900460ff166107f457604051631afcd79f60e31b815260040160405180910390fd5b611755611f8f565b611806611f8f565b611ff0611f8f565b600080516020612d3c833981519152805460ff19169055565b612011611f8f565b600080516020612c868339815191527fa16a46d94261c7517cc8ff89f61c0ce93598e3c849801011dee649a6a557d10261204b8482612b04565b506003810161205a8382612b04565b5060008082556001909101555050565b60007f8b73c3c69bb8fe3d512ecc4cf759cc79239f7b179b0ffacaa9a75d522b39400f6120956122b2565b61209d61231c565b60408051602081019490945283019190915260608201524660808201523060a082015260c00160405160208183030381529060405280519060200120905090565b600080807f7fffffffffffffffffffffffffffffff5d576e7357a4501ddfe92f46681b20a084111561211957506000915060039050826121a3565b604080516000808252602082018084528a905260ff891692820192909252606081018790526080810186905260019060a0016020604051602081039080840390855afa15801561216d573d6000803e3d6000fd5b5050604051601f1901519150506001600160a01b038116612199575060009250600191508290506121a3565b9250600091508190505b9450945094915050565b6000806121bd6201518084612a13565b905060076121cc826003612a27565b6121d69190612bc4565b6112c8906001612a27565b60006121f3611f676201518084612a13565b949350505050565b60006201518061220c858585612360565b6121f39190612a69565b60008080836226496581018262023ab1600483020590506004600362023ab18302010590910390600062164b09610fa0600185010205905060046105b58202058303601f019250600061098f8460500281612273576122736129fd565b0590506000605061098f83020585039050600b820560301994909401606402929092018301996002600c90940290910392909201975095509350505050565b6000600080516020612c86833981519152816122cc611c4f565b8051909150156122e457805160209091012092915050565b815480156122f3579392505050565b7fc5d2460186f7233c927e7db2dcc703c0e500b653ca82273b7bfad8045d85a470935050505090565b6000600080516020612c8683398151915281612336611d12565b80519091501561234e57805160209091012092915050565b600182015480156122f3579392505050565b60006107b284101561237157600080fd5b838383600062253d8c60046064600c61238b600e88612bd8565b6123959190612bff565b6123a188611324612c2d565b6123ab9190612c2d565b6123b59190612bff565b6123c0906003612c55565b6123ca9190612bff565b600c806123d8600e88612bd8565b6123e29190612bff565b6123ed90600c612c55565b6123f8600288612bd8565b6124029190612bd8565b61240e9061016f612c55565b6124189190612bff565b6004600c612427600e89612bd8565b6124319190612bff565b61243d896112c0612c2d565b6124479190612c2d565b612453906105b5612c55565b61245d9190612bff565b612469617d4b87612bd8565b6124739190612c2d565b61247d9190612c2d565b6124879190612bd8565b6124919190612bd8565b98975050505050505050565b600060e082840312156124af57600080fd5b50919050565b600060e082840312156124c757600080fd5b6112c8838361249d565b80356001600160a01b03811681146124e857600080fd5b919050565b6000806040838503121561250057600080fd5b612509836124d1565b946020939093013593505050565b60006020828403121561252957600080fd5b6112c8826124d1565b60008083601f84011261254457600080fd5b50813567ffffffffffffffff81111561255c57600080fd5b60208301915083602082850101111561257457600080fd5b9250929050565b6000806000806000610140868803121561259457600080fd5b61259d866124d1565b9450602086013593506125b3876040880161249d565b925061012086013567ffffffffffffffff8111156125d057600080fd5b6125dc88828901612532565b969995985093965092949392505050565b600080610100838503121561260157600080fd5b61260b848461249d565b9460e0939093013593505050565b60005b8381101561263457818101518382015260200161261c565b50506000910152565b60008151808452612655816020860160208601612619565b601f01601f19169290920160200192915050565b60ff60f81b881681526000602060e0602084015261268a60e084018a61263d565b838103604085015261269c818a61263d565b606085018990526001600160a01b038816608086015260a0850187905284810360c08601528551808252602080880193509091019060005b818110156126f0578351835292840192918401916001016126d4565b50909c9b505050505050505050505050565b634e487b7160e01b600052604160045260246000fd5b60006020828403121561272a57600080fd5b813567ffffffffffffffff8082111561274257600080fd5b818401915084601f83011261275657600080fd5b81358181111561276857612768612702565b604051601f8201601f19908116603f0116810190838211818310171561279057612790612702565b816040528281528760208487010111156127a957600080fd5b826020860160208301376000928101602001929092525095945050505050565b600080600061012084860312156127df57600080fd5b6127e9858561249d565b9560e08501359550610100909401359392505050565b60008060006040848603121561281457600080fd5b833567ffffffffffffffff81111561282b57600080fd5b61283786828701612532565b909450925061284a9050602085016124d1565b90509250925092565b60006020828403121561286557600080fd5b5035919050565b60008060006060848603121561288157600080fd5b61288a846124d1565b9250612898602085016124d1565b915061284a604085016124d1565b634e487b7160e01b600052602160045260246000fd5b848152602081018490526040810183905260808101600383106128e1576128e16128a6565b82606083015295945050505050565b60008251612902818460208701612619565b9190910192915050565b60006020828403121561291e57600080fd5b8135600581106112c857600080fd5b8881526020810188905261010081016005881061294c5761294c6128a6565b60408201979097526060810195909552608085019390935260a08401919091526001600160a01b0390811660c08401521660e09091015292915050565b60006020828403121561299b57600080fd5b815180151581146112c857600080fd5b6000602082840312156129bd57600080fd5b5051919050565b8183823760009101908152919050565b634e487b7160e01b600052601160045260246000fd5b818103818111156107de576107de6129d4565b634e487b7160e01b600052601260045260246000fd5b600082612a2257612a226129fd565b500490565b808201808211156107de576107de6129d4565b60208152816020820152818360408301376000818301604090810191909152601f909201601f19160101919050565b80820281158282048414176107de576107de6129d4565b600181811c90821680612a9457607f821691505b6020821081036124af57634e487b7160e01b600052602260045260246000fd5b601f821115611a61576000816000526020600020601f850160051c81016020861015612add5750805b601f850160051c820191505b81811015612afc57828155600101612ae9565b505050505050565b815167ffffffffffffffff811115612b1e57612b1e612702565b612b3281612b2c8454612a80565b84612ab4565b602080601f831160018114612b675760008415612b4f5750858301515b600019600386901b1c1916600185901b178555612afc565b600085815260208120601f198616915b82811015612b9657888601518255948401946001909101908401612b77565b5085821015612bb45787850151600019600388901b60f8161c191681555b5050505050600190811b01905550565b600082612bd357612bd36129fd565b500690565b8181036000831280158383131683831282161715612bf857612bf86129d4565b5092915050565b600082612c0e57612c0e6129fd565b600160ff1b821460001984141615612c2857612c286129d4565b500590565b8082018281126000831280158216821582161715612c4d57612c4d6129d4565b505092915050565b80820260008212600160ff1b84141615612c7157612c716129d4565b81810583148215176107de576107de6129d456fea16a46d94261c7517cc8ff89f61c0ce93598e3c849801011dee649a6a557d1004275646765744c696d69742875696e7432353620616d6f756e742c75696e7438206672657175656e6379547970652c75696e7432353620637573746f6d4672657175656e63792c75696e74323536207374617274446174652c75696e7432353620656e64446174652c6164647265737320746f6b656e416464726573732c6164647265737320617070726f7665644164647265737329cd5ed15c6e187e77e9aee88184c21f4f2182ab5827cb3b7e07fbedcd63f03300a26469706673582212202b3f3ee624cf3bb1ba912c69c0ef3b60c4bccc0c712608ea4e2e7aedd73b8cf864736f6c63430008180033",
  "linkReferences": {},
  "deployedLinkReferences": {}
}