{
  "_format": "hh-sol-artifact-1",
  "contractName": "ExpenseAccountEIP712",
  "sourceName": "contracts/expense-account/ExpenseAccountEIP712.sol",
  "abi": [
    {
      "inputs": [
        {
          "internalType": "uint256",
          "name": "amount",
          "type": "uint256"
        }
      ],
      "name": "AmountPerPeriodExceeded",
      "type": "error"
    },
    {
      "inputs": [
        {
          "internalType": "uint256",
          "name": "amount",
          "type": "uint256"
        }
      ],
      "name": "AmountPerTransactionExceeded",
      "type": "error"
    },
    {
      "inputs": [],
      "name": "ECDSAInvalidSignature",
      "type": "error"
    },
    {
      "inputs": [
        {
          "internalType": "uint256",
          "name": "length",
          "type": "uint256"
        }
      ],
      "name": "ECDSAInvalidSignatureLength",
      "type": "error"
    },
    {
      "inputs": [
        {
          "internalType": "bytes32",
          "name": "s",
          "type": "bytes32"
        }
      ],
      "name": "ECDSAInvalidSignatureS",
      "type": "error"
    },
    {
      "inputs": [],
      "name": "EnforcedPause",
      "type": "error"
    },
    {
      "inputs": [],
      "name": "ExpectedPause",
      "type": "error"
    },
    {
      "inputs": [],
      "name": "FailedCall",
      "type": "error"
    },
    {
      "inputs": [
        {
          "internalType": "uint256",
          "name": "balance",
          "type": "uint256"
        },
        {
          "internalType": "uint256",
          "name": "needed",
          "type": "uint256"
        }
      ],
      "name": "InsufficientBalance",
      "type": "error"
    },
    {
      "inputs": [],
      "name": "InvalidInitialization",
      "type": "error"
    },
    {
      "inputs": [],
      "name": "NotInitializing",
      "type": "error"
    },
    {
      "inputs": [
        {
          "internalType": "address",
          "name": "owner",
          "type": "address"
        }
      ],
      "name": "OwnableInvalidOwner",
      "type": "error"
    },
    {
      "inputs": [
        {
          "internalType": "address",
          "name": "account",
          "type": "address"
        }
      ],
      "name": "OwnableUnauthorizedAccount",
      "type": "error"
    },
    {
      "inputs": [],
      "name": "ReentrancyGuardReentrantCall",
      "type": "error"
    },
    {
      "inputs": [
        {
          "internalType": "address",
          "name": "expected",
          "type": "address"
        },
        {
          "internalType": "address",
          "name": "received",
          "type": "address"
        }
      ],
      "name": "UnauthorizedAccess",
      "type": "error"
    },
    {
      "anonymous": false,
      "inputs": [
        {
          "indexed": true,
          "internalType": "bytes32",
          "name": "signatureHash",
          "type": "bytes32"
        }
      ],
      "name": "ApprovalActivated",
      "type": "event"
    },
    {
      "anonymous": false,
      "inputs": [
        {
          "indexed": true,
          "internalType": "bytes32",
          "name": "signatureHash",
          "type": "bytes32"
        }
      ],
      "name": "ApprovalDeactivated",
      "type": "event"
    },
    {
      "anonymous": false,
      "inputs": [
        {
          "indexed": true,
          "internalType": "address",
          "name": "depositor",
          "type": "address"
        },
        {
          "indexed": false,
          "internalType": "uint256",
          "name": "amount",
          "type": "uint256"
        }
      ],
      "name": "Deposited",
      "type": "event"
    },
    {
      "anonymous": false,
      "inputs": [],
      "name": "EIP712DomainChanged",
      "type": "event"
    },
    {
      "anonymous": false,
      "inputs": [
        {
          "indexed": false,
          "internalType": "uint64",
          "name": "version",
          "type": "uint64"
        }
      ],
      "name": "Initialized",
      "type": "event"
    },
    {
      "anonymous": false,
      "inputs": [
        {
          "indexed": true,
          "internalType": "address",
          "name": "previousOwner",
          "type": "address"
        },
        {
          "indexed": true,
          "internalType": "address",
          "name": "newOwner",
          "type": "address"
        }
      ],
      "name": "OwnershipTransferred",
      "type": "event"
    },
    {
      "anonymous": false,
      "inputs": [
        {
          "indexed": false,
          "internalType": "address",
          "name": "account",
          "type": "address"
        }
      ],
      "name": "Paused",
      "type": "event"
    },
    {
      "anonymous": false,
      "inputs": [
        {
          "indexed": true,
          "internalType": "address",
          "name": "addressWhoChanged",
          "type": "address"
        },
        {
          "indexed": false,
          "internalType": "string",
          "name": "tokenSymbol",
          "type": "string"
        },
        {
          "indexed": true,
          "internalType": "address",
          "name": "oldAddress",
          "type": "address"
        },
        {
          "indexed": true,
          "internalType": "address",
          "name": "newAddress",
          "type": "address"
        }
      ],
      "name": "TokenAddressChanged",
      "type": "event"
    },
    {
      "anonymous": false,
      "inputs": [
        {
          "indexed": true,
          "internalType": "address",
          "name": "depositor",
          "type": "address"
        },
        {
          "indexed": true,
          "internalType": "address",
          "name": "token",
          "type": "address"
        },
        {
          "indexed": false,
          "internalType": "uint256",
          "name": "amount",
          "type": "uint256"
        }
      ],
      "name": "TokenDeposited",
      "type": "event"
    },
    {
      "anonymous": false,
      "inputs": [
        {
          "indexed": true,
          "internalType": "address",
          "name": "withdrawer",
          "type": "address"
        },
        {
          "indexed": true,
          "internalType": "address",
          "name": "to",
          "type": "address"
        },
        {
          "indexed": true,
          "internalType": "address",
          "name": "token",
          "type": "address"
        },
        {
          "indexed": false,
          "internalType": "uint256",
          "name": "amount",
          "type": "uint256"
        }
      ],
      "name": "TokenTransfer",
      "type": "event"
    },
    {
      "anonymous": false,
      "inputs": [
        {
          "indexed": true,
          "internalType": "address",
          "name": "withdrawer",
          "type": "address"
        },
        {
          "indexed": true,
          "internalType": "address",
          "name": "to",
          "type": "address"
        },
        {
          "indexed": false,
          "internalType": "uint256",
          "name": "amount",
          "type": "uint256"
        }
      ],
      "name": "Transfer",
      "type": "event"
    },
    {
      "anonymous": false,
      "inputs": [
        {
          "indexed": false,
          "internalType": "address",
          "name": "account",
          "type": "address"
        }
      ],
      "name": "Unpaused",
      "type": "event"
    },
    {
      "inputs": [
        {
          "internalType": "bytes32",
          "name": "signatureHash",
          "type": "bytes32"
        }
      ],
      "name": "activateApproval",
      "outputs": [],
      "stateMutability": "nonpayable",
      "type": "function"
    },
    {
      "inputs": [
        {
          "internalType": "bytes32",
          "name": "",
          "type": "bytes32"
        }
      ],
      "name": "balances",
      "outputs": [
        {
          "internalType": "uint256",
          "name": "transactionCount",
          "type": "uint256"
        },
        {
          "internalType": "uint256",
          "name": "amountWithdrawn",
          "type": "uint256"
        },
        {
          "internalType": "enum ExpenseAccountEIP712.ApprovalState",
          "name": "state",
          "type": "uint8"
        }
      ],
      "stateMutability": "view",
      "type": "function"
    },
    {
      "inputs": [
        {
          "internalType": "string",
          "name": "symbol",
          "type": "string"
        },
        {
          "internalType": "address",
          "name": "newAddress",
          "type": "address"
        }
      ],
      "name": "changeTokenAddress",
      "outputs": [],
      "stateMutability": "nonpayable",
      "type": "function"
    },
    {
      "inputs": [
        {
          "internalType": "bytes32",
          "name": "signatureHash",
          "type": "bytes32"
        }
      ],
      "name": "deactivateApproval",
      "outputs": [],
      "stateMutability": "nonpayable",
      "type": "function"
    },
    {
      "inputs": [
        {
          "internalType": "address",
          "name": "token",
          "type": "address"
        },
        {
          "internalType": "uint256",
          "name": "amount",
          "type": "uint256"
        }
      ],
      "name": "depositToken",
      "outputs": [],
      "stateMutability": "nonpayable",
      "type": "function"
    },
    {
      "inputs": [],
      "name": "eip712Domain",
      "outputs": [
        {
          "internalType": "bytes1",
          "name": "fields",
          "type": "bytes1"
        },
        {
          "internalType": "string",
          "name": "name",
          "type": "string"
        },
        {
          "internalType": "string",
          "name": "version",
          "type": "string"
        },
        {
          "internalType": "uint256",
          "name": "chainId",
          "type": "uint256"
        },
        {
          "internalType": "address",
          "name": "verifyingContract",
          "type": "address"
        },
        {
          "internalType": "bytes32",
          "name": "salt",
          "type": "bytes32"
        },
        {
          "internalType": "uint256[]",
          "name": "extensions",
          "type": "uint256[]"
        }
      ],
      "stateMutability": "view",
      "type": "function"
    },
    {
      "inputs": [],
      "name": "getBalance",
      "outputs": [
        {
          "internalType": "uint256",
          "name": "",
          "type": "uint256"
        }
      ],
      "stateMutability": "view",
      "type": "function"
    },
    {
      "inputs": [
        {
          "internalType": "address",
          "name": "token",
          "type": "address"
        }
      ],
      "name": "getTokenBalance",
      "outputs": [
        {
          "internalType": "uint256",
          "name": "",
          "type": "uint256"
        }
      ],
      "stateMutability": "view",
      "type": "function"
    },
    {
      "inputs": [
        {
          "internalType": "address",
          "name": "owner",
          "type": "address"
        },
        {
          "internalType": "address",
          "name": "_usdtAddress",
          "type": "address"
        },
        {
          "internalType": "address",
          "name": "_usdcAddress",
          "type": "address"
        }
      ],
      "name": "initialize",
      "outputs": [],
      "stateMutability": "nonpayable",
      "type": "function"
    },
    {
      "inputs": [
        {
          "internalType": "address",
          "name": "_token",
          "type": "address"
        }
      ],
      "name": "isTokenSupported",
      "outputs": [
        {
          "internalType": "bool",
          "name": "",
          "type": "bool"
        }
      ],
      "stateMutability": "view",
      "type": "function"
    },
    {
      "inputs": [],
      "name": "owner",
      "outputs": [
        {
          "internalType": "address",
          "name": "",
          "type": "address"
        }
      ],
      "stateMutability": "view",
      "type": "function"
    },
    {
      "inputs": [],
      "name": "pause",
      "outputs": [],
      "stateMutability": "nonpayable",
      "type": "function"
    },
    {
      "inputs": [],
      "name": "paused",
      "outputs": [
        {
          "internalType": "bool",
          "name": "",
          "type": "bool"
        }
      ],
      "stateMutability": "view",
      "type": "function"
    },
    {
      "inputs": [],
      "name": "renounceOwnership",
      "outputs": [],
      "stateMutability": "nonpayable",
      "type": "function"
    },
    {
      "inputs": [
        {
          "internalType": "string",
          "name": "",
          "type": "string"
        }
      ],
      "name": "supportedTokens",
      "outputs": [
        {
          "internalType": "address",
          "name": "",
          "type": "address"
        }
      ],
      "stateMutability": "view",
      "type": "function"
    },
    {
      "inputs": [
        {
          "internalType": "address",
          "name": "to",
          "type": "address"
        },
        {
          "internalType": "uint256",
          "name": "amount",
          "type": "uint256"
        },
        {
          "components": [
            {
              "internalType": "address",
              "name": "approvedAddress",
              "type": "address"
            },
            {
              "components": [
                {
                  "internalType": "enum ExpenseAccountEIP712.BudgetType",
                  "name": "budgetType",
                  "type": "uint8"
                },
                {
                  "internalType": "uint256",
                  "name": "value",
                  "type": "uint256"
                }
              ],
              "internalType": "struct ExpenseAccountEIP712.BudgetData[]",
              "name": "budgetData",
              "type": "tuple[]"
            },
            {
              "internalType": "uint256",
              "name": "expiry",
              "type": "uint256"
            },
            {
              "internalType": "address",
              "name": "tokenAddress",
              "type": "address"
            }
          ],
          "internalType": "struct ExpenseAccountEIP712.BudgetLimit",
          "name": "limit",
          "type": "tuple"
        },
        {
          "internalType": "bytes",
          "name": "signature",
          "type": "bytes"
        }
      ],
      "name": "transfer",
      "outputs": [],
      "stateMutability": "nonpayable",
      "type": "function"
    },
    {
      "inputs": [
        {
          "internalType": "address",
          "name": "newOwner",
          "type": "address"
        }
      ],
      "name": "transferOwnership",
      "outputs": [],
      "stateMutability": "nonpayable",
      "type": "function"
    },
    {
      "inputs": [],
      "name": "unpause",
      "outputs": [],
      "stateMutability": "nonpayable",
      "type": "function"
    },
    {
      "stateMutability": "payable",
      "type": "receive"
    }
  ],
  "bytecode": "0x608060405234801561001057600080fd5b50612771806100206000396000f3fe60806040526004361061010d5760003560e01c806384b0196e11610095578063ab38a48511610064578063ab38a48514610346578063bccb212a14610366578063c0c53b8b14610386578063de982534146103a6578063f2fde38b146103c657600080fd5b806384b0196e146102625780638909aa3f1461028a57806389919cdd146102d85780638da5cb5b1461033157600080fd5b80635c975abb116100dc5780635c975abb146101c7578063715018a6146101f857806375151b631461020d5780637fdc8dd21461022d5780638456cb591461024d57600080fd5b806312065fe01461014e578063338b5dea146101705780633aecd0e3146101925780633f4ba83a146101b257600080fd5b366101495760405134815233907f2da466a7b24304f47e87fa2e1e5a81b9831ce54fec19055ce277ca2f39ba42c49060200160405180910390a2005b600080fd5b34801561015a57600080fd5b50475b6040519081526020015b60405180910390f35b34801561017c57600080fd5b5061019061018b366004611f0c565b6103e6565b005b34801561019e57600080fd5b5061015d6101ad366004611f36565b61058a565b3480156101be57600080fd5b5061019061061f565b3480156101d357600080fd5b506000805160206126fc8339815191525460ff165b6040519015158152602001610167565b34801561020457600080fd5b50610190610631565b34801561021957600080fd5b506101e8610228366004611f36565b610643565b34801561023957600080fd5b50610190610248366004611fa1565b6106c8565b34801561025957600080fd5b50610190610be3565b34801561026e57600080fd5b50610277610bf3565b604051610167979695949392919061207e565b34801561029657600080fd5b506102c96102a5366004612117565b60006020819052908152604090208054600182015460029092015490919060ff1683565b60405161016793929190612164565b3480156102e457600080fd5b506103196102f336600461219f565b80516020818301810180516001825292820191909301209152546001600160a01b031681565b6040516001600160a01b039091168152602001610167565b34801561033d57600080fd5b50610319610c9f565b34801561035257600080fd5b50610190610361366004612250565b610ccd565b34801561037257600080fd5b50610190610381366004612117565b610ece565b34801561039257600080fd5b506101906103a13660046122a4565b610f1e565b3480156103b257600080fd5b506101906103c1366004612117565b6110ff565b3480156103d257600080fd5b506101906103e1366004611f36565b61114d565b6103ee61118b565b6103f66111c3565b6103ff82610643565b6104245760405162461bcd60e51b815260040161041b906122de565b60405180910390fd5b600081116104745760405162461bcd60e51b815260206004820181905260248201527f416d6f756e74206d7573742062652067726561746572207468616e207a65726f604482015260640161041b565b6040516323b872dd60e01b8152336004820152306024820152604481018290526001600160a01b038316906323b872dd906064016020604051808303816000875af11580156104c7573d6000803e3d6000fd5b505050506040513d601f19601f820116820180604052508101906104eb9190612309565b61052f5760405162461bcd60e51b8152602060048201526015602482015274151bdad95b881d1c985b9cd9995c8819985a5b1959605a1b604482015260640161041b565b6040518181526001600160a01b0383169033907ff1444b5cad7ce70cb018d1b8edc8618fe303f3c7f034d8d572a6e27facbf2bef9060200160405180910390a3610586600160008051602061271c83398151915255565b5050565b600061059582610643565b6105b15760405162461bcd60e51b815260040161041b906122de565b6040516370a0823160e01b81523060048201526001600160a01b038316906370a0823190602401602060405180830381865afa1580156105f5573d6000803e3d6000fd5b505050506040513d601f19601f82011682018060405250810190610619919061232b565b92915050565b610627611208565b61062f61123a565b565b610639611208565b61062f600061129a565b6000600160405161065e90631554d11560e21b815260040190565b908152604051908190036020019020546001600160a01b03838116911614806106b45750604051635553444360e01b8152600190600401908152604051908190036020019020546001600160a01b038381169116145b806106195750506001600160a01b03161590565b6106d06111c3565b6106d861118b565b600260008084846040516106ed929190612344565b6040805191829003909120825260208201929092520160002060029081015460ff169081111561071f5761071f612130565b036107605760405162461bcd60e51b8152602060048201526011602482015270417070726f76616c20696e61637469766560781b604482015260640161041b565b61076d6020840184611f36565b6001600160a01b0316336001600160a01b0316146107cd5760405162461bcd60e51b815260206004820152601760248201527f57697468647261776572206e6f7420617070726f766564000000000000000000604482015260640161041b565b6001600160a01b0385166108165760405162461bcd60e51b815260206004820152601060248201526f1059191c995cdcc81c995c5d5a5c995960821b604482015260640161041b565b600084116108665760405162461bcd60e51b815260206004820181905260248201527f416d6f756e74206d7573742062652067726561746572207468616e207a65726f604482015260640161041b565b60006108756020850185612354565b9050116108b85760405162461bcd60e51b8152602060048201526011602482015270456d70747920627564676574206461746160781b604482015260640161041b565b6108cb6102286080850160608601611f36565b6108e75760405162461bcd60e51b815260040161041b906122de565b60006108fa6108f58561130b565b6113ee565b9050600061094084848080601f016020809104026020016040519081016040528093929190818152602001838380828437600092019190915250869392505061141b9050565b905061094a610c9f565b6001600160a01b0316816001600160a01b0316146109975761096a610c9f565b604051634116c50f60e01b81526001600160a01b039182166004820152908216602482015260440161041b565b84604001354211156109e35760405162461bcd60e51b8152602060048201526015602482015274105d5d1a1bdc9a5e985d1a5bdb88195e1c1a5c9959605a1b604482015260640161041b565b6109fb6109f36020870187612354565b888787611445565b6000610a0d6080870160608801611f36565b6001600160a01b031603610a8c57610a2e6001600160a01b0388168761176b565b6001600160a01b038716610a456020870187611f36565b6001600160a01b03167fddf252ad1be2c89b69c2b068fc378daa952ba7f163c4a11628f55a4df523b3ef88604051610a7f91815260200190565b60405180910390a3610bc3565b610a9c6080860160608701611f36565b60405163a9059cbb60e01b81526001600160a01b03898116600483015260248201899052919091169063a9059cbb906044016020604051808303816000875af1158015610aed573d6000803e3d6000fd5b505050506040513d601f19601f82011682018060405250810190610b119190612309565b610b555760405162461bcd60e51b8152602060048201526015602482015274151bdad95b881d1c985b9cd9995c8819985a5b1959605a1b604482015260640161041b565b610b656080860160608701611f36565b6001600160a01b03908116908816610b806020880188611f36565b6001600160a01b03167fae33cb06d7303f889d953bb09540983050163c1c4c98b330db432a911cfb63fd89604051610bba91815260200190565b60405180910390a45b5050610bdc600160008051602061271c83398151915255565b5050505050565b610beb611208565b61062f61180e565b6000606080828080838160008051602061267c8339815191528054909150158015610c2057506001810154155b610c645760405162461bcd60e51b81526020600482015260156024820152741152540dcc4c8e88155b9a5b9a5d1a585b1a5e9959605a1b604482015260640161041b565b610c6c611857565b610c7461191a565b60408051600080825260208201909252600f60f81b9c939b5091995046985030975095509350915050565b7f9016d09d72d40fdae2fd8ceac6b6234c7706214fd39c1cd1e609a0528c199300546001600160a01b031690565b610cd5611208565b610cdd6111c3565b6001600160a01b038116610d2c5760405162461bcd60e51b8152602060048201526016602482015275416464726573732063616e6e6f74206265207a65726f60501b604482015260640161041b565b604051631554d11560e21b6020820152602401604051602081830303815290604052805190602001208383604051602001610d68929190612344565b604051602081830303815290604052805190602001201480610dd95750604051635553444360e01b6020820152602401604051602081830303815290604052805190602001208383604051602001610dc1929190612344565b60405160208183030381529060405280519060200120145b610e1c5760405162461bcd60e51b8152602060048201526014602482015273125b9d985b1a59081d1bdad95b881cde5b589bdb60621b604482015260640161041b565b600060018484604051610e30929190612344565b908152604051908190036020018120546001600160a01b031691508290600190610e5d9087908790612344565b90815260405190819003602001812080546001600160a01b039384166001600160a01b03199091161790558382169183169033907ffa0e1aca71e09b7065691fdf3ee6adb50937ef393f5e4c3fca1235dd97702f8c90610ec0908990899061239e565b60405180910390a450505050565b610ed6611208565b6000818152602081905260408082206002908101805460ff191690911790555182917fe7d3eeb38329f442545ad499afa197225d3b880a08e091ad2c2c244d6236fa0e91a250565b7ff0c57e16840df040f15088dc2f81fe391c3923bec73e23a9662efc9c229c6a008054600160401b810460ff16159067ffffffffffffffff16600081158015610f645750825b905060008267ffffffffffffffff166001148015610f815750303b155b905081158015610f8f575080155b15610fad5760405163f92ee8a960e01b815260040160405180910390fd5b845467ffffffffffffffff191660011785558315610fd757845460ff60401b1916600160401b1785555b610fe088611959565b610fe861196a565b610ff061197a565b61103c6040518060400160405280601181526020017010d390d15e1c195b9cd95058d8dbdd5b9d607a1b815250604051806040016040528060018152602001603160f81b81525061198a565b86600160405161105690631554d11560e21b815260040190565b9081526040805191829003602001822080546001600160a01b039485166001600160a01b031991821617909155635553444360e01b83526001600484015290519182900360240190912080549289169290911691909117905583156110f557845460ff60401b19168555604051600181527fc7f505b2f371ae2175ee4913f4499e1f2633a7b5936321eed1cdaeb6115181d29060200160405180910390a15b5050505050505050565b611107611208565b600081815260208190526040808220600201805460ff191660011790555182917f5e927cbcc58ec12d6f3fbe317ac4ef30466cfcdddf0be5c85eefab4670b73c3691a250565b611155611208565b6001600160a01b03811661117f57604051631e4fbdf760e01b81526000600482015260240161041b565b6111888161129a565b50565b60008051602061271c8339815191528054600119016111bd57604051633ee5aeb560e01b815260040160405180910390fd5b60029055565b6000805160206126fc8339815191525460ff161561062f5760405163d93c066560e01b815260040160405180910390fd5b600160008051602061271c83398151915255565b33611211610c9f565b6001600160a01b03161461062f5760405163118cdaa760e01b815233600482015260240161041b565b61124261199c565b6000805160206126fc833981519152805460ff191681557f5db9ee0a495bf2e6ff9c91a7834c1ba4fdd244a5e8aa4e537bd38aeae4b073aa335b6040516001600160a01b03909116815260200160405180910390a150565b7f9016d09d72d40fdae2fd8ceac6b6234c7706214fd39c1cd1e609a0528c19930080546001600160a01b031981166001600160a01b03848116918217845560405192169182907f8be0079c531659141344cd1fd0a4f28419497f9722a3daafe3b4186f6b6457e090600090a3505050565b600060405180608001604052806060815260200161269c606091396040518060600160405280602a8152602001612652602a91396040516020016113509291906123cd565b60408051601f1981840301815291905280516020918201209061137590840184611f36565b61138a6113856020860186612354565b6119cc565b604085013561139f6080870160608801611f36565b6040805160208101969096526001600160a01b0394851690860152606085019290925260808401521660a082015260c0015b604051602081830303815290604052805190602001209050919050565b60006106196113fb611aa8565b8360405161190160f01b8152600281019290925260228201526042902090565b60008060008061142b8686611ab7565b92509250925061143b8282611b04565b5090949350505050565b60008282604051611457929190612344565b60405190819003902090506000805b60ff811687111561171857600088888360ff16818110611488576114886123fc565b61149e9260206040909202019081019150612412565b60028111156114af576114af612130565b0361155a5787878260ff168181106114c9576114c96123fc565b9050604002016020013560008085815260200190815260200160002060000154106115365760405162461bcd60e51b815260206004820152601960248201527f5472616e73616374696f6e206c696d6974207265616368656400000000000000604482015260640161041b565b600083815260208190526040812080549161155083612449565b9190505550611706565b600188888360ff16818110611571576115716123fc565b6115879260206040909202019081019150612412565b600281111561159857611598612130565b036116515787878260ff168181106115b2576115b26123fc565b9050604002016020013586600080868152602001908152602001600020600101546115dd9190612462565b111561161c57600083815260208190526040902060010154611600908790612462565b6040516320435cc160e01b815260040161041b91815260200190565b8161164c5760008381526020819052604081206001018054889290611642908490612462565b9091555060019250505b611706565b600288888360ff16818110611668576116686123fc565b61167e9260206040909202019081019150612412565b600281111561168f5761168f612130565b036117065787878260ff168181106116a9576116a96123fc565b905060400201602001358611156116d65760405163da56a10960e01b81526004810187905260240161041b565b8161170657600083815260208190526040812060010180548892906116fc908490612462565b9091555060019250505b8061171081612475565b915050611466565b50600082815260208190526040812060029081015460ff169081111561174057611740612130565b03611762576000828152602081905260409020600201805460ff191660011790555b50505050505050565b804710156117955760405163cf47918160e01b81524760048201526024810182905260440161041b565b6000826001600160a01b03168260405160006040518083038185875af1925050503d80600081146117e2576040519150601f19603f3d011682016040523d82523d6000602084013e6117e7565b606091505b50509050806118095760405163d6bda27560e01b815260040160405180910390fd5b505050565b6118166111c3565b6000805160206126fc833981519152805460ff191660011781557f62e78cea01bee320cd4e420270b5ea74000d11b0c9f74754ebdbfc544b05a2583361127c565b7fa16a46d94261c7517cc8ff89f61c0ce93598e3c849801011dee649a6a557d102805460609160008051602061267c8339815191529161189690612494565b80601f01602080910402602001604051908101604052809291908181526020018280546118c290612494565b801561190f5780601f106118e45761010080835404028352916020019161190f565b820191906000526020600020905b8154815290600101906020018083116118f257829003601f168201915b505050505091505090565b7fa16a46d94261c7517cc8ff89f61c0ce93598e3c849801011dee649a6a557d103805460609160008051602061267c8339815191529161189690612494565b611961611bbd565b61118881611c06565b611972611bbd565b61062f611c0e565b611982611bbd565b61062f611c16565b611992611bbd565b6105868282611c37565b6000805160206126fc8339815191525460ff1661062f57604051638dfc202b60e01b815260040160405180910390fd5b6000808267ffffffffffffffff8111156119e8576119e8612189565b604051908082528060200260200182016040528015611a11578160200160208202803683370190505b50905060005b60ff8116841115611a7757611a4585858360ff16818110611a3a57611a3a6123fc565b905060400201611c98565b828260ff1681518110611a5a57611a5a6123fc565b602090810291909101015280611a6f81612475565b915050611a17565b5080604051602001611a8991906124ce565b6040516020818303038152906040528051906020012091505092915050565b6000611ab2611cff565b905090565b60008060008351604103611af15760208401516040850151606086015160001a611ae388828585611d73565b955095509550505050611afd565b50508151600091506002905b9250925092565b6000826003811115611b1857611b18612130565b03611b21575050565b6001826003811115611b3557611b35612130565b03611b535760405163f645eedf60e01b815260040160405180910390fd5b6002826003811115611b6757611b67612130565b03611b885760405163fce698f760e01b81526004810182905260240161041b565b6003826003811115611b9c57611b9c612130565b03610586576040516335e2f38360e21b81526004810182905260240161041b565b7ff0c57e16840df040f15088dc2f81fe391c3923bec73e23a9662efc9c229c6a0054600160401b900460ff1661062f57604051631afcd79f60e31b815260040160405180910390fd5b611155611bbd565b6111f4611bbd565b611c1e611bbd565b6000805160206126fc833981519152805460ff19169055565b611c3f611bbd565b60008051602061267c8339815191527fa16a46d94261c7517cc8ff89f61c0ce93598e3c849801011dee649a6a557d102611c798482612554565b5060038101611c888382612554565b5060008082556001909101555050565b60006040518060600160405280602a8152602001612652602a9139604051602001611cc39190612614565b60408051601f19818403018152919052805160209182012090611ce890840184612412565b83602001356040516020016113d193929190612630565b60007f8b73c3c69bb8fe3d512ecc4cf759cc79239f7b179b0ffacaa9a75d522b39400f611d2a611e42565b611d32611eac565b60408051602081019490945283019190915260608201524660808201523060a082015260c00160405160208183030381529060405280519060200120905090565b600080807f7fffffffffffffffffffffffffffffff5d576e7357a4501ddfe92f46681b20a0841115611dae5750600091506003905082611e38565b604080516000808252602082018084528a905260ff891692820192909252606081018790526080810186905260019060a0016020604051602081039080840390855afa158015611e02573d6000803e3d6000fd5b5050604051601f1901519150506001600160a01b038116611e2e57506000925060019150829050611e38565b9250600091508190505b9450945094915050565b600060008051602061267c83398151915281611e5c611857565b805190915015611e7457805160209091012092915050565b81548015611e83579392505050565b7fc5d2460186f7233c927e7db2dcc703c0e500b653ca82273b7bfad8045d85a470935050505090565b600060008051602061267c83398151915281611ec661191a565b805190915015611ede57805160209091012092915050565b60018201548015611e83579392505050565b80356001600160a01b0381168114611f0757600080fd5b919050565b60008060408385031215611f1f57600080fd5b611f2883611ef0565b946020939093013593505050565b600060208284031215611f4857600080fd5b611f5182611ef0565b9392505050565b60008083601f840112611f6a57600080fd5b50813567ffffffffffffffff811115611f8257600080fd5b602083019150836020828501011115611f9a57600080fd5b9250929050565b600080600080600060808688031215611fb957600080fd5b611fc286611ef0565b945060208601359350604086013567ffffffffffffffff80821115611fe657600080fd5b908701906080828a031215611ffa57600080fd5b9093506060870135908082111561201057600080fd5b5061201d88828901611f58565b969995985093965092949392505050565b60005b83811015612049578181015183820152602001612031565b50506000910152565b6000815180845261206a81602086016020860161202e565b601f01601f19169290920160200192915050565b60ff60f81b881681526000602060e0602084015261209f60e084018a612052565b83810360408501526120b1818a612052565b606085018990526001600160a01b038816608086015260a0850187905284810360c08601528551808252602080880193509091019060005b81811015612105578351835292840192918401916001016120e9565b50909c9b505050505050505050505050565b60006020828403121561212957600080fd5b5035919050565b634e487b7160e01b600052602160045260246000fd5b6003811061118857634e487b7160e01b600052602160045260246000fd5b838152602081018390526060810161217b83612146565b826040830152949350505050565b634e487b7160e01b600052604160045260246000fd5b6000602082840312156121b157600080fd5b813567ffffffffffffffff808211156121c957600080fd5b818401915084601f8301126121dd57600080fd5b8135818111156121ef576121ef612189565b604051601f8201601f19908116603f0116810190838211818310171561221757612217612189565b8160405282815287602084870101111561223057600080fd5b826020860160208301376000928101602001929092525095945050505050565b60008060006040848603121561226557600080fd5b833567ffffffffffffffff81111561227c57600080fd5b61228886828701611f58565b909450925061229b905060208501611ef0565b90509250925092565b6000806000606084860312156122b957600080fd5b6122c284611ef0565b92506122d060208501611ef0565b915061229b60408501611ef0565b6020808252601190820152702ab739bab83837b93a32b2103a37b5b2b760791b604082015260600190565b60006020828403121561231b57600080fd5b81518015158114611f5157600080fd5b60006020828403121561233d57600080fd5b5051919050565b8183823760009101908152919050565b6000808335601e1984360301811261236b57600080fd5b83018035915067ffffffffffffffff82111561238657600080fd5b6020019150600681901b3603821315611f9a57600080fd5b60208152816020820152818360408301376000818301604090810191909152601f909201601f19160101919050565b600083516123df81846020880161202e565b8351908301906123f381836020880161202e565b01949350505050565b634e487b7160e01b600052603260045260246000fd5b60006020828403121561242457600080fd5b813560038110611f5157600080fd5b634e487b7160e01b600052601160045260246000fd5b60006001820161245b5761245b612433565b5060010190565b8082018082111561061957610619612433565b600060ff821660ff810361248b5761248b612433565b60010192915050565b600181811c908216806124a857607f821691505b6020821081036124c857634e487b7160e01b600052602260045260246000fd5b50919050565b815160009082906020808601845b838110156124f8578151855293820193908201906001016124dc565b50929695505050505050565b601f821115611809576000816000526020600020601f850160051c8101602086101561252d5750805b601f850160051c820191505b8181101561254c57828155600101612539565b505050505050565b815167ffffffffffffffff81111561256e5761256e612189565b6125828161257c8454612494565b84612504565b602080601f8311600181146125b7576000841561259f5750858301515b600019600386901b1c1916600185901b17855561254c565b600085815260208120601f198616915b828110156125e6578886015182559484019460019091019084016125c7565b50858210156126045787850151600019600388901b60f8161c191681555b5050505050600190811b01905550565b6000825161262681846020870161202e565b9190910192915050565b8381526060810161264084612146565b60208201939093526040015291905056fe427564676574446174612875696e743820627564676574547970652c75696e743235362076616c756529a16a46d94261c7517cc8ff89f61c0ce93598e3c849801011dee649a6a557d1004275646765744c696d6974286164647265737320617070726f766564416464726573732c427564676574446174615b5d20627564676574446174612c75696e74323536206578706972792c6164647265737320746f6b656e4164647265737329cd5ed15c6e187e77e9aee88184c21f4f2182ab5827cb3b7e07fbedcd63f033009b779b17422d0df92223018b32b4d1fa46e071723d6817e2486d003becc55f00a2646970667358221220c1c7a8bade981aac84b953e7a9019942237bccb3c33bca88fe8a125bc78a949064736f6c63430008180033",
  "linkReferences": {},
  "deployedLinkReferences": {}
}