{
  "_format": "hh-sol-artifact-1",
  "contractName": "ExpenseAccount",
  "sourceName": "contracts/expense-account/ExpenseAccount.sol",
  "abi": [
    {
      "inputs": [],
      "name": "EnforcedPause",
      "type": "error"
    },
    {
      "inputs": [],
      "name": "ExpectedPause",
      "type": "error"
    },
    {
      "inputs": [],
      "name": "InvalidInitialization",
      "type": "error"
    },
    {
      "inputs": [],
      "name": "NotInitializing",
      "type": "error"
    },
    {
      "inputs": [
        {
          "internalType": "address",
          "name": "owner",
          "type": "address"
        }
      ],
      "name": "OwnableInvalidOwner",
      "type": "error"
    },
    {
      "inputs": [
        {
          "internalType": "address",
          "name": "account",
          "type": "address"
        }
      ],
      "name": "OwnableUnauthorizedAccount",
      "type": "error"
    },
    {
      "inputs": [],
      "name": "ReentrancyGuardReentrantCall",
      "type": "error"
    },
    {
      "anonymous": false,
      "inputs": [
        {
          "indexed": true,
          "internalType": "address",
          "name": "depositor",
          "type": "address"
        },
        {
          "indexed": false,
          "internalType": "uint256",
          "name": "amount",
          "type": "uint256"
        }
      ],
      "name": "Deposited",
      "type": "event"
    },
    {
      "anonymous": false,
      "inputs": [
        {
          "indexed": false,
          "internalType": "uint64",
          "name": "version",
          "type": "uint64"
        }
      ],
      "name": "Initialized",
      "type": "event"
    },
    {
      "anonymous": false,
      "inputs": [
        {
          "indexed": true,
          "internalType": "address",
          "name": "previousOwner",
          "type": "address"
        },
        {
          "indexed": true,
          "internalType": "address",
          "name": "newOwner",
          "type": "address"
        }
      ],
      "name": "OwnershipTransferred",
      "type": "event"
    },
    {
      "anonymous": false,
      "inputs": [
        {
          "indexed": false,
          "internalType": "address",
          "name": "account",
          "type": "address"
        }
      ],
      "name": "Paused",
      "type": "event"
    },
    {
      "anonymous": false,
      "inputs": [
        {
          "indexed": true,
          "internalType": "address",
          "name": "sender",
          "type": "address"
        },
        {
          "indexed": true,
          "internalType": "address",
          "name": "to",
          "type": "address"
        },
        {
          "indexed": false,
          "internalType": "uint256",
          "name": "amount",
          "type": "uint256"
        }
      ],
      "name": "Transfer",
      "type": "event"
    },
    {
      "anonymous": false,
      "inputs": [
        {
          "indexed": false,
          "internalType": "address",
          "name": "account",
          "type": "address"
        }
      ],
      "name": "Unpaused",
      "type": "event"
    },
    {
      "inputs": [
        {
          "internalType": "address",
          "name": "_address",
          "type": "address"
        }
      ],
      "name": "approveAddress",
      "outputs": [],
      "stateMutability": "nonpayable",
      "type": "function"
    },
    {
      "inputs": [
        {
          "internalType": "address",
          "name": "",
          "type": "address"
        }
      ],
      "name": "approvedAddresses",
      "outputs": [
        {
          "internalType": "bool",
          "name": "",
          "type": "bool"
        }
      ],
      "stateMutability": "view",
      "type": "function"
    },
    {
      "inputs": [
        {
          "internalType": "address",
          "name": "_address",
          "type": "address"
        }
      ],
      "name": "disapproveAddress",
      "outputs": [],
      "stateMutability": "nonpayable",
      "type": "function"
    },
    {
      "inputs": [],
      "name": "getBalance",
      "outputs": [
        {
          "internalType": "uint256",
          "name": "",
          "type": "uint256"
        }
      ],
      "stateMutability": "view",
      "type": "function"
    },
    {
      "inputs": [
        {
          "internalType": "address",
          "name": "owner",
          "type": "address"
        }
      ],
      "name": "initialize",
      "outputs": [],
      "stateMutability": "nonpayable",
      "type": "function"
    },
    {
      "inputs": [],
      "name": "maxLimit",
      "outputs": [
        {
          "internalType": "uint256",
          "name": "",
          "type": "uint256"
        }
      ],
      "stateMutability": "view",
      "type": "function"
    },
    {
      "inputs": [],
      "name": "owner",
      "outputs": [
        {
          "internalType": "address",
          "name": "",
          "type": "address"
        }
      ],
      "stateMutability": "view",
      "type": "function"
    },
    {
      "inputs": [],
      "name": "pause",
      "outputs": [],
      "stateMutability": "nonpayable",
      "type": "function"
    },
    {
      "inputs": [],
      "name": "paused",
      "outputs": [
        {
          "internalType": "bool",
          "name": "",
          "type": "bool"
        }
      ],
      "stateMutability": "view",
      "type": "function"
    },
    {
      "inputs": [],
      "name": "renounceOwnership",
      "outputs": [],
      "stateMutability": "nonpayable",
      "type": "function"
    },
    {
      "inputs": [
        {
          "internalType": "uint256",
          "name": "amount",
          "type": "uint256"
        }
      ],
      "name": "setMaxLimit",
      "outputs": [],
      "stateMutability": "nonpayable",
      "type": "function"
    },
    {
      "inputs": [
        {
          "internalType": "address",
          "name": "_to",
          "type": "address"
        },
        {
          "internalType": "uint256",
          "name": "_amount",
          "type": "uint256"
        }
      ],
      "name": "transfer",
      "outputs": [],
      "stateMutability": "nonpayable",
      "type": "function"
    },
    {
      "inputs": [
        {
          "internalType": "address",
          "name": "newOwner",
          "type": "address"
        }
      ],
      "name": "transferOwnership",
      "outputs": [],
      "stateMutability": "nonpayable",
      "type": "function"
    },
    {
      "inputs": [],
      "name": "unpause",
      "outputs": [],
      "stateMutability": "nonpayable",
      "type": "function"
    },
    {
      "stateMutability": "payable",
      "type": "receive"
    }
  ],
  "bytecode": "0x608060405234801561001057600080fd5b50610ac8806100206000396000f3fe6080604052600436106100e15760003560e01c8063a9059cbb1161007f578063c4d66de811610059578063c4d66de814610273578063f136a87414610293578063f2fde38b146102c3578063fabf657a146102e357600080fd5b8063a9059cbb14610213578063b0390fbc14610233578063bf8bcee41461025357600080fd5b80635c975abb116100bb5780635c975abb14610171578063715018a6146101a25780638456cb59146101b75780638da5cb5b146101cc57600080fd5b806312065fe0146101225780631a861d26146101445780633f4ba83a1461015a57600080fd5b3661011d5760405134815233907f2da466a7b24304f47e87fa2e1e5a81b9831ce54fec19055ce277ca2f39ba42c49060200160405180910390a2005b600080fd5b34801561012e57600080fd5b50475b6040519081526020015b60405180910390f35b34801561015057600080fd5b5061013160005481565b34801561016657600080fd5b5061016f610303565b005b34801561017d57600080fd5b50600080516020610a738339815191525460ff165b604051901515815260200161013b565b3480156101ae57600080fd5b5061016f610315565b3480156101c357600080fd5b5061016f610327565b3480156101d857600080fd5b507f9016d09d72d40fdae2fd8ceac6b6234c7706214fd39c1cd1e609a0528c199300546040516001600160a01b03909116815260200161013b565b34801561021f57600080fd5b5061016f61022e366004610a0d565b610337565b34801561023f57600080fd5b5061016f61024e366004610a37565b610525565b34801561025f57600080fd5b5061016f61026e366004610a59565b610556565b34801561027f57600080fd5b5061016f61028e366004610a37565b61056b565b34801561029f57600080fd5b506101926102ae366004610a37565b60016020526000908152604090205460ff1681565b3480156102cf57600080fd5b5061016f6102de366004610a37565b61068b565b3480156102ef57600080fd5b5061016f6102fe366004610a37565b6106c9565b61030b610700565b61031361075b565b565b61031d610700565b61031360006107bb565b61032f610700565b61031361082c565b61033f610875565b6103476108bf565b6001600160a01b0382166103955760405162461bcd60e51b815260206004820152601060248201526f1059191c995cdcc81c995c5d5a5c995960821b60448201526064015b60405180910390fd5b600081116103e55760405162461bcd60e51b815260206004820181905260248201527f416d6f756e74206d7573742062652067726561746572207468616e207a65726f604482015260640161038c565b3360009081526001602052604090205460ff1661043a5760405162461bcd60e51b815260206004820152601360248201527214d95b99195c881b9bdd08185c1c1c9bdd9959606a1b604482015260640161038c565b6000548111156104815760405162461bcd60e51b815260206004820152601260248201527113585e081b1a5b5a5d08195e18d95959195960721b604482015260640161038c565b6040516001600160a01b0383169082156108fc029083906000818181858888f193505050501580156104b7573d6000803e3d6000fd5b506040518181526001600160a01b0383169033907fddf252ad1be2c89b69c2b068fc378daa952ba7f163c4a11628f55a4df523b3ef9060200160405180910390a361052160017f9b779b17422d0df92223018b32b4d1fa46e071723d6817e2486d003becc55f0055565b5050565b61052d610700565b6105356108bf565b6001600160a01b03166000908152600160205260409020805460ff19169055565b61055e610700565b6105666108bf565b600055565b7ff0c57e16840df040f15088dc2f81fe391c3923bec73e23a9662efc9c229c6a008054600160401b810460ff16159067ffffffffffffffff166000811580156105b15750825b905060008267ffffffffffffffff1660011480156105ce5750303b155b9050811580156105dc575080155b156105fa5760405163f92ee8a960e01b815260040160405180910390fd5b845467ffffffffffffffff19166001178555831561062457845460ff60401b1916600160401b1785555b61062d86610916565b610635610927565b61063d610937565b831561068357845460ff60401b19168555604051600181527fc7f505b2f371ae2175ee4913f4499e1f2633a7b5936321eed1cdaeb6115181d29060200160405180910390a15b505050505050565b610693610700565b6001600160a01b0381166106bd57604051631e4fbdf760e01b81526000600482015260240161038c565b6106c6816107bb565b50565b6106d1610700565b6106d96108bf565b6001600160a01b03166000908152600160208190526040909120805460ff19169091179055565b336107327f9016d09d72d40fdae2fd8ceac6b6234c7706214fd39c1cd1e609a0528c199300546001600160a01b031690565b6001600160a01b0316146103135760405163118cdaa760e01b815233600482015260240161038c565b610763610947565b600080516020610a73833981519152805460ff191681557f5db9ee0a495bf2e6ff9c91a7834c1ba4fdd244a5e8aa4e537bd38aeae4b073aa335b6040516001600160a01b03909116815260200160405180910390a150565b7f9016d09d72d40fdae2fd8ceac6b6234c7706214fd39c1cd1e609a0528c19930080546001600160a01b031981166001600160a01b03848116918217845560405192169182907f8be0079c531659141344cd1fd0a4f28419497f9722a3daafe3b4186f6b6457e090600090a3505050565b6108346108bf565b600080516020610a73833981519152805460ff191660011781557f62e78cea01bee320cd4e420270b5ea74000d11b0c9f74754ebdbfc544b05a2583361079d565b7f9b779b17422d0df92223018b32b4d1fa46e071723d6817e2486d003becc55f008054600119016108b957604051633ee5aeb560e01b815260040160405180910390fd5b60029055565b600080516020610a738339815191525460ff16156103135760405163d93c066560e01b815260040160405180910390fd5b60017f9b779b17422d0df92223018b32b4d1fa46e071723d6817e2486d003becc55f0055565b61091e610977565b6106c6816109c0565b61092f610977565b6103136109c8565b61093f610977565b6103136109d0565b600080516020610a738339815191525460ff1661031357604051638dfc202b60e01b815260040160405180910390fd5b7ff0c57e16840df040f15088dc2f81fe391c3923bec73e23a9662efc9c229c6a0054600160401b900460ff1661031357604051631afcd79f60e31b815260040160405180910390fd5b610693610977565b6108f0610977565b6109d8610977565b600080516020610a73833981519152805460ff19169055565b80356001600160a01b0381168114610a0857600080fd5b919050565b60008060408385031215610a2057600080fd5b610a29836109f1565b946020939093013593505050565b600060208284031215610a4957600080fd5b610a52826109f1565b9392505050565b600060208284031215610a6b57600080fd5b503591905056fecd5ed15c6e187e77e9aee88184c21f4f2182ab5827cb3b7e07fbedcd63f03300a2646970667358221220e5e84c6bfd82d66cea6f1812291b040221131a8ada342a51db172f141d79292864736f6c63430008180033",
  "linkReferences": {},
  "deployedLinkReferences": {}
}