{
  "_format": "hh-sol-artifact-1",
  "contractName": "ExpenseAccountEIP712",
  "sourceName": "contracts/expense-account/ExpenseAccountEIP712.sol",
  "abi": [
    {
      "inputs": [
        {
          "internalType": "uint256",
          "name": "amount",
          "type": "uint256"
        }
      ],
      "name": "AmountPerPeriodExceeded",
      "type": "error"
    },
    {
      "inputs": [
        {
          "internalType": "uint256",
          "name": "amount",
          "type": "uint256"
        }
      ],
      "name": "AmountPerTransactionExceeded",
      "type": "error"
    },
    {
      "inputs": [
        {
          "internalType": "uint256",
          "name": "currentTime",
          "type": "uint256"
        },
        {
          "internalType": "uint256",
          "name": "endDate",
          "type": "uint256"
        }
      ],
      "name": "ApprovalExpired",
      "type": "error"
    },
    {
      "inputs": [
        {
          "internalType": "uint256",
          "name": "currentTime",
          "type": "uint256"
        },
        {
          "internalType": "uint256",
          "name": "startDate",
          "type": "uint256"
        }
      ],
      "name": "ApprovalNotActive",
      "type": "error"
    },
    {
      "inputs": [],
      "name": "ECDSAInvalidSignature",
      "type": "error"
    },
    {
      "inputs": [
        {
          "internalType": "uint256",
          "name": "length",
          "type": "uint256"
        }
      ],
      "name": "ECDSAInvalidSignatureLength",
      "type": "error"
    },
    {
      "inputs": [
        {
          "internalType": "bytes32",
          "name": "s",
          "type": "bytes32"
        }
      ],
      "name": "ECDSAInvalidSignatureS",
      "type": "error"
    },
    {
      "inputs": [],
      "name": "EnforcedPause",
      "type": "error"
    },
    {
      "inputs": [],
      "name": "ExpectedPause",
      "type": "error"
    },
    {
      "inputs": [],
      "name": "FailedCall",
      "type": "error"
    },
    {
      "inputs": [
        {
          "internalType": "uint256",
          "name": "balance",
          "type": "uint256"
        },
        {
          "internalType": "uint256",
          "name": "needed",
          "type": "uint256"
        }
      ],
      "name": "InsufficientBalance",
      "type": "error"
    },
    {
      "inputs": [],
      "name": "InvalidInitialization",
      "type": "error"
    },
    {
      "inputs": [],
      "name": "NotInitializing",
      "type": "error"
    },
    {
      "inputs": [
        {
          "internalType": "address",
          "name": "owner",
          "type": "address"
        }
      ],
      "name": "OwnableInvalidOwner",
      "type": "error"
    },
    {
      "inputs": [
        {
          "internalType": "address",
          "name": "account",
          "type": "address"
        }
      ],
      "name": "OwnableUnauthorizedAccount",
      "type": "error"
    },
    {
      "inputs": [],
      "name": "ReentrancyGuardReentrantCall",
      "type": "error"
    },
    {
      "inputs": [
        {
          "internalType": "address",
          "name": "expected",
          "type": "address"
        },
        {
          "internalType": "address",
          "name": "received",
          "type": "address"
        }
      ],
      "name": "UnauthorizedAccess",
      "type": "error"
    },
    {
      "anonymous": false,
      "inputs": [
        {
          "indexed": true,
          "internalType": "bytes32",
          "name": "signatureHash",
          "type": "bytes32"
        }
      ],
      "name": "ApprovalActivated",
      "type": "event"
    },
    {
      "anonymous": false,
      "inputs": [
        {
          "indexed": true,
          "internalType": "bytes32",
          "name": "signatureHash",
          "type": "bytes32"
        }
      ],
      "name": "ApprovalDeactivated",
      "type": "event"
    },
    {
      "anonymous": false,
      "inputs": [
        {
          "indexed": true,
          "internalType": "address",
          "name": "depositor",
          "type": "address"
        },
        {
          "indexed": false,
          "internalType": "uint256",
          "name": "amount",
          "type": "uint256"
        }
      ],
      "name": "Deposited",
      "type": "event"
    },
    {
      "anonymous": false,
      "inputs": [],
      "name": "EIP712DomainChanged",
      "type": "event"
    },
    {
      "anonymous": false,
      "inputs": [
        {
          "indexed": false,
          "internalType": "uint64",
          "name": "version",
          "type": "uint64"
        }
      ],
      "name": "Initialized",
      "type": "event"
    },
    {
      "anonymous": false,
      "inputs": [
        {
          "indexed": true,
          "internalType": "address",
          "name": "ownerAddress",
          "type": "address"
        },
        {
          "indexed": false,
          "internalType": "uint256",
          "name": "amount",
          "type": "uint256"
        }
      ],
      "name": "OwnerTreasuryWithdrawNative",
      "type": "event"
    },
    {
      "anonymous": false,
      "inputs": [
        {
          "indexed": true,
          "internalType": "address",
          "name": "ownerAddress",
          "type": "address"
        },
        {
          "indexed": true,
          "internalType": "address",
          "name": "token",
          "type": "address"
        },
        {
          "indexed": false,
          "internalType": "uint256",
          "name": "amount",
          "type": "uint256"
        }
      ],
      "name": "OwnerTreasuryWithdrawToken",
      "type": "event"
    },
    {
      "anonymous": false,
      "inputs": [
        {
          "indexed": true,
          "internalType": "address",
          "name": "previousOwner",
          "type": "address"
        },
        {
          "indexed": true,
          "internalType": "address",
          "name": "newOwner",
          "type": "address"
        }
      ],
      "name": "OwnershipTransferred",
      "type": "event"
    },
    {
      "anonymous": false,
      "inputs": [
        {
          "indexed": false,
          "internalType": "address",
          "name": "account",
          "type": "address"
        }
      ],
      "name": "Paused",
      "type": "event"
    },
    {
      "anonymous": false,
      "inputs": [
        {
          "indexed": true,
          "internalType": "address",
          "name": "addressWhoChanged",
          "type": "address"
        },
        {
          "indexed": false,
          "internalType": "string",
          "name": "tokenSymbol",
          "type": "string"
        },
        {
          "indexed": true,
          "internalType": "address",
          "name": "oldAddress",
          "type": "address"
        },
        {
          "indexed": true,
          "internalType": "address",
          "name": "newAddress",
          "type": "address"
        }
      ],
      "name": "TokenAddressChanged",
      "type": "event"
    },
    {
      "anonymous": false,
      "inputs": [
        {
          "indexed": true,
          "internalType": "address",
          "name": "depositor",
          "type": "address"
        },
        {
          "indexed": true,
          "internalType": "address",
          "name": "token",
          "type": "address"
        },
        {
          "indexed": false,
          "internalType": "uint256",
          "name": "amount",
          "type": "uint256"
        }
      ],
      "name": "TokenDeposited",
      "type": "event"
    },
    {
      "anonymous": false,
      "inputs": [
        {
          "indexed": true,
          "internalType": "address",
          "name": "tokenAddress",
          "type": "address"
        }
      ],
      "name": "TokenSupportAdded",
      "type": "event"
    },
    {
      "anonymous": false,
      "inputs": [
        {
          "indexed": true,
          "internalType": "address",
          "name": "tokenAddress",
          "type": "address"
        }
      ],
      "name": "TokenSupportRemoved",
      "type": "event"
    },
    {
      "anonymous": false,
      "inputs": [
        {
          "indexed": true,
          "internalType": "address",
          "name": "withdrawer",
          "type": "address"
        },
        {
          "indexed": true,
          "internalType": "address",
          "name": "to",
          "type": "address"
        },
        {
          "indexed": true,
          "internalType": "address",
          "name": "token",
          "type": "address"
        },
        {
          "indexed": false,
          "internalType": "uint256",
          "name": "amount",
          "type": "uint256"
        }
      ],
      "name": "TokenTransfer",
      "type": "event"
    },
    {
      "anonymous": false,
      "inputs": [
        {
          "indexed": true,
          "internalType": "address",
          "name": "withdrawer",
          "type": "address"
        },
        {
          "indexed": true,
          "internalType": "address",
          "name": "to",
          "type": "address"
        },
        {
          "indexed": false,
          "internalType": "uint256",
          "name": "amount",
          "type": "uint256"
        }
      ],
      "name": "Transfer",
      "type": "event"
    },
    {
      "anonymous": false,
      "inputs": [
        {
          "indexed": false,
          "internalType": "address",
          "name": "account",
          "type": "address"
        }
      ],
      "name": "Unpaused",
      "type": "event"
    },
    {
      "inputs": [
        {
          "internalType": "bytes32",
          "name": "signatureHash",
          "type": "bytes32"
        }
      ],
      "name": "activateApproval",
      "outputs": [],
      "stateMutability": "nonpayable",
      "type": "function"
    },
    {
      "inputs": [
        {
          "internalType": "address",
          "name": "_tokenAddress",
          "type": "address"
        }
      ],
      "name": "addTokenSupport",
      "outputs": [],
      "stateMutability": "nonpayable",
      "type": "function"
    },
    {
      "inputs": [
        {
          "components": [
            {
              "internalType": "uint256",
              "name": "amount",
              "type": "uint256"
            },
            {
              "internalType": "enum ExpenseAccountEIP712.FrequencyType",
              "name": "frequencyType",
              "type": "uint8"
            },
            {
              "internalType": "uint256",
              "name": "customFrequency",
              "type": "uint256"
            },
            {
              "internalType": "uint256",
              "name": "startDate",
              "type": "uint256"
            },
            {
              "internalType": "uint256",
              "name": "endDate",
              "type": "uint256"
            },
            {
              "internalType": "address",
              "name": "tokenAddress",
              "type": "address"
            },
            {
              "internalType": "address",
              "name": "approvedAddress",
              "type": "address"
            }
          ],
          "internalType": "struct ExpenseAccountEIP712.BudgetLimit",
          "name": "budgetLimit",
          "type": "tuple"
        }
      ],
      "name": "budgetLimitHash",
      "outputs": [
        {
          "internalType": "bytes32",
          "name": "",
          "type": "bytes32"
        }
      ],
      "stateMutability": "pure",
      "type": "function"
    },
    {
      "inputs": [
        {
          "internalType": "bytes32",
          "name": "signatureHash",
          "type": "bytes32"
        }
      ],
      "name": "deactivateApproval",
      "outputs": [],
      "stateMutability": "nonpayable",
      "type": "function"
    },
    {
      "inputs": [
        {
          "internalType": "address",
          "name": "token",
          "type": "address"
        },
        {
          "internalType": "uint256",
          "name": "amount",
          "type": "uint256"
        }
      ],
      "name": "depositToken",
      "outputs": [],
      "stateMutability": "nonpayable",
      "type": "function"
    },
    {
      "inputs": [],
      "name": "eip712Domain",
      "outputs": [
        {
          "internalType": "bytes1",
          "name": "fields",
          "type": "bytes1"
        },
        {
          "internalType": "string",
          "name": "name",
          "type": "string"
        },
        {
          "internalType": "string",
          "name": "version",
          "type": "string"
        },
        {
          "internalType": "uint256",
          "name": "chainId",
          "type": "uint256"
        },
        {
          "internalType": "address",
          "name": "verifyingContract",
          "type": "address"
        },
        {
          "internalType": "bytes32",
          "name": "salt",
          "type": "bytes32"
        },
        {
          "internalType": "uint256[]",
          "name": "extensions",
          "type": "uint256[]"
        }
      ],
      "stateMutability": "view",
      "type": "function"
    },
    {
      "inputs": [
        {
          "internalType": "bytes32",
          "name": "",
          "type": "bytes32"
        }
      ],
      "name": "expenseBalances",
      "outputs": [
        {
          "internalType": "uint256",
          "name": "lastWithdrawnDate",
          "type": "uint256"
        },
        {
          "internalType": "uint256",
          "name": "totalWithdrawn",
          "type": "uint256"
        },
        {
          "internalType": "uint256",
          "name": "lastWithdrawnPeriod",
          "type": "uint256"
        },
        {
          "internalType": "enum ExpenseAccountEIP712.ApprovalState",
          "name": "state",
          "type": "uint8"
        }
      ],
      "stateMutability": "view",
      "type": "function"
    },
    {
      "inputs": [],
      "name": "getBalance",
      "outputs": [
        {
          "internalType": "uint256",
          "name": "",
          "type": "uint256"
        }
      ],
      "stateMutability": "view",
      "type": "function"
    },
    {
      "inputs": [
        {
          "components": [
            {
              "internalType": "uint256",
              "name": "amount",
              "type": "uint256"
            },
            {
              "internalType": "enum ExpenseAccountEIP712.FrequencyType",
              "name": "frequencyType",
              "type": "uint8"
            },
            {
              "internalType": "uint256",
              "name": "customFrequency",
              "type": "uint256"
            },
            {
              "internalType": "uint256",
              "name": "startDate",
              "type": "uint256"
            },
            {
              "internalType": "uint256",
              "name": "endDate",
              "type": "uint256"
            },
            {
              "internalType": "address",
              "name": "tokenAddress",
              "type": "address"
            },
            {
              "internalType": "address",
              "name": "approvedAddress",
              "type": "address"
            }
          ],
          "internalType": "struct ExpenseAccountEIP712.BudgetLimit",
          "name": "budgetLimit",
          "type": "tuple"
        }
      ],
      "name": "getCurrentPeriod",
      "outputs": [
        {
          "internalType": "uint256",
          "name": "",
          "type": "uint256"
        }
      ],
      "stateMutability": "view",
      "type": "function"
    },
    {
      "inputs": [
        {
          "components": [
            {
              "internalType": "uint256",
              "name": "amount",
              "type": "uint256"
            },
            {
              "internalType": "enum ExpenseAccountEIP712.FrequencyType",
              "name": "frequencyType",
              "type": "uint8"
            },
            {
              "internalType": "uint256",
              "name": "customFrequency",
              "type": "uint256"
            },
            {
              "internalType": "uint256",
              "name": "startDate",
              "type": "uint256"
            },
            {
              "internalType": "uint256",
              "name": "endDate",
              "type": "uint256"
            },
            {
              "internalType": "address",
              "name": "tokenAddress",
              "type": "address"
            },
            {
              "internalType": "address",
              "name": "approvedAddress",
              "type": "address"
            }
          ],
          "internalType": "struct ExpenseAccountEIP712.BudgetLimit",
          "name": "budgetLimit",
          "type": "tuple"
        },
        {
          "internalType": "uint256",
          "name": "timestamp",
          "type": "uint256"
        }
      ],
      "name": "getPeriod",
      "outputs": [
        {
          "internalType": "uint256",
          "name": "",
          "type": "uint256"
        }
      ],
      "stateMutability": "pure",
      "type": "function"
    },
    {
      "inputs": [],
      "name": "getSupportedTokenCount",
      "outputs": [
        {
          "internalType": "uint256",
          "name": "",
          "type": "uint256"
        }
      ],
      "stateMutability": "view",
      "type": "function"
    },
    {
      "inputs": [],
      "name": "getSupportedTokens",
      "outputs": [
        {
          "internalType": "address[]",
          "name": "",
          "type": "address[]"
        }
      ],
      "stateMutability": "view",
      "type": "function"
    },
    {
      "inputs": [
        {
          "internalType": "address",
          "name": "token",
          "type": "address"
        }
      ],
      "name": "getTokenBalance",
      "outputs": [
        {
          "internalType": "uint256",
          "name": "",
          "type": "uint256"
        }
      ],
      "stateMutability": "view",
      "type": "function"
    },
    {
      "inputs": [
        {
          "internalType": "address",
          "name": "owner",
          "type": "address"
        },
        {
          "internalType": "address[]",
          "name": "_tokenAddresses",
          "type": "address[]"
        }
      ],
      "name": "initialize",
      "outputs": [],
      "stateMutability": "nonpayable",
      "type": "function"
    },
    {
      "inputs": [
        {
          "components": [
            {
              "internalType": "uint256",
              "name": "amount",
              "type": "uint256"
            },
            {
              "internalType": "enum ExpenseAccountEIP712.FrequencyType",
              "name": "frequencyType",
              "type": "uint8"
            },
            {
              "internalType": "uint256",
              "name": "customFrequency",
              "type": "uint256"
            },
            {
              "internalType": "uint256",
              "name": "startDate",
              "type": "uint256"
            },
            {
              "internalType": "uint256",
              "name": "endDate",
              "type": "uint256"
            },
            {
              "internalType": "address",
              "name": "tokenAddress",
              "type": "address"
            },
            {
              "internalType": "address",
              "name": "approvedAddress",
              "type": "address"
            }
          ],
          "internalType": "struct ExpenseAccountEIP712.BudgetLimit",
          "name": "budgetLimit",
          "type": "tuple"
        },
        {
          "internalType": "bytes32",
          "name": "signatureHash",
          "type": "bytes32"
        }
      ],
      "name": "isNewPeriod",
      "outputs": [
        {
          "internalType": "bool",
          "name": "",
          "type": "bool"
        }
      ],
      "stateMutability": "view",
      "type": "function"
    },
    {
      "inputs": [
        {
          "internalType": "address",
          "name": "_token",
          "type": "address"
        }
      ],
      "name": "isTokenSupported",
      "outputs": [
        {
          "internalType": "bool",
          "name": "",
          "type": "bool"
        }
      ],
      "stateMutability": "view",
      "type": "function"
    },
    {
      "inputs": [],
      "name": "officerAddress",
      "outputs": [
        {
          "internalType": "address",
          "name": "",
          "type": "address"
        }
      ],
      "stateMutability": "view",
      "type": "function"
    },
    {
      "inputs": [],
      "name": "owner",
      "outputs": [
        {
          "internalType": "address",
          "name": "",
          "type": "address"
        }
      ],
      "stateMutability": "view",
      "type": "function"
    },
    {
      "inputs": [],
      "name": "ownerWithdrawAllToBank",
      "outputs": [],
      "stateMutability": "nonpayable",
      "type": "function"
    },
    {
      "inputs": [],
      "name": "pause",
      "outputs": [],
      "stateMutability": "nonpayable",
      "type": "function"
    },
    {
      "inputs": [],
      "name": "paused",
      "outputs": [
        {
          "internalType": "bool",
          "name": "",
          "type": "bool"
        }
      ],
      "stateMutability": "view",
      "type": "function"
    },
    {
      "inputs": [
        {
          "internalType": "address",
          "name": "_tokenAddress",
          "type": "address"
        }
      ],
      "name": "removeTokenSupport",
      "outputs": [],
      "stateMutability": "nonpayable",
      "type": "function"
    },
    {
      "inputs": [],
      "name": "renounceOwnership",
      "outputs": [],
      "stateMutability": "nonpayable",
      "type": "function"
    },
    {
      "inputs": [
        {
          "internalType": "address",
          "name": "_officerAddress",
          "type": "address"
        }
      ],
      "name": "setOfficerAddress",
      "outputs": [],
      "stateMutability": "nonpayable",
      "type": "function"
    },
    {
      "inputs": [
        {
          "internalType": "address",
          "name": "to",
          "type": "address"
        },
        {
          "internalType": "uint256",
          "name": "amount",
          "type": "uint256"
        },
        {
          "components": [
            {
              "internalType": "uint256",
              "name": "amount",
              "type": "uint256"
            },
            {
              "internalType": "enum ExpenseAccountEIP712.FrequencyType",
              "name": "frequencyType",
              "type": "uint8"
            },
            {
              "internalType": "uint256",
              "name": "customFrequency",
              "type": "uint256"
            },
            {
              "internalType": "uint256",
              "name": "startDate",
              "type": "uint256"
            },
            {
              "internalType": "uint256",
              "name": "endDate",
              "type": "uint256"
            },
            {
              "internalType": "address",
              "name": "tokenAddress",
              "type": "address"
            },
            {
              "internalType": "address",
              "name": "approvedAddress",
              "type": "address"
            }
          ],
          "internalType": "struct ExpenseAccountEIP712.BudgetLimit",
          "name": "budgetLimit",
          "type": "tuple"
        },
        {
          "internalType": "bytes",
          "name": "signature",
          "type": "bytes"
        }
      ],
      "name": "transfer",
      "outputs": [],
      "stateMutability": "nonpayable",
      "type": "function"
    },
    {
      "inputs": [
        {
          "internalType": "address",
          "name": "newOwner",
          "type": "address"
        }
      ],
      "name": "transferOwnership",
      "outputs": [],
      "stateMutability": "nonpayable",
      "type": "function"
    },
    {
      "inputs": [],
      "name": "unpause",
      "outputs": [],
      "stateMutability": "nonpayable",
      "type": "function"
    },
    {
      "inputs": [
        {
          "components": [
            {
              "internalType": "uint256",
              "name": "amount",
              "type": "uint256"
            },
            {
              "internalType": "enum ExpenseAccountEIP712.FrequencyType",
              "name": "frequencyType",
              "type": "uint8"
            },
            {
              "internalType": "uint256",
              "name": "customFrequency",
              "type": "uint256"
            },
            {
              "internalType": "uint256",
              "name": "startDate",
              "type": "uint256"
            },
            {
              "internalType": "uint256",
              "name": "endDate",
              "type": "uint256"
            },
            {
              "internalType": "address",
              "name": "tokenAddress",
              "type": "address"
            },
            {
              "internalType": "address",
              "name": "approvedAddress",
              "type": "address"
            }
          ],
          "internalType": "struct ExpenseAccountEIP712.BudgetLimit",
          "name": "budgetLimit",
          "type": "tuple"
        },
        {
          "internalType": "uint256",
          "name": "amount",
          "type": "uint256"
        },
        {
          "internalType": "bytes32",
          "name": "signatureHash",
          "type": "bytes32"
        }
      ],
      "name": "validateTransfer",
      "outputs": [
        {
          "internalType": "bool",
          "name": "",
          "type": "bool"
        }
      ],
      "stateMutability": "view",
      "type": "function"
    },
    {
      "stateMutability": "payable",
      "type": "receive"
    }
  ],
  "bytecode": "0x608060405234801561001057600080fd5b50613688806100206000396000f3fe6080604052600436106101bb5760003560e01c8063733c237d116100ec578063bccb212a1161008a578063de98253411610064578063de982534146104f1578063ec681b6114610511578063f2fde38b14610568578063fc55ed771461058857600080fd5b8063bccb212a1461049a578063ce67be26146104ba578063d3c7c2c7146104cf57600080fd5b806384b0196e116100c657806384b0196e1461041d5780638da5cb5b14610445578063946d92041461045a578063a5b8eba51461047a57600080fd5b8063733c237d146103c857806375151b63146103e85780638456cb591461040857600080fd5b80633c5f15e711610159578063549025df11610133578063549025df14610342578063582df647146103625780635c975abb14610382578063715018a6146103b357600080fd5b80633c5f15e7146102ed5780633f4ba83a1461030d5780633fd1b14a1461032257600080fd5b80632ba8d939116101955780632ba8d93914610255578063315f77ef14610275578063338b5dea146102ad5780633aecd0e3146102cd57600080fd5b8063085f27fc146101fc57806312065fe0146102135780632a46aa971461023557600080fd5b366101f75760405134815233907f2da466a7b24304f47e87fa2e1e5a81b9831ce54fec19055ce277ca2f39ba42c49060200160405180910390a2005b600080fd5b34801561020857600080fd5b506102116105a8565b005b34801561021f57600080fd5b50475b6040519081526020015b60405180910390f35b34801561024157600080fd5b50610222610250366004612cd2565b6109aa565b34801561026157600080fd5b50610211610270366004612d03565b610a66565b34801561028157600080fd5b50600354610295906001600160a01b031681565b6040516001600160a01b03909116815260200161022c565b3480156102b957600080fd5b506102116102c8366004612d20565b610a7a565b3480156102d957600080fd5b506102226102e8366004612d03565b610c22565b3480156102f957600080fd5b50610211610308366004612d03565b610cec565b34801561031957600080fd5b50610211610d6c565b34801561032e57600080fd5b5061021161033d366004612d4c565b610d7c565b34801561034e57600080fd5b5061022261035d366004612dec565b61121f565b34801561036e57600080fd5b5061022261037d366004612cd2565b6113ec565b34801561038e57600080fd5b506000805160206136138339815191525460ff165b604051901515815260200161022c565b3480156103bf57600080fd5b506102116113f8565b3480156103d457600080fd5b506102116103e3366004612d03565b61140a565b3480156103f457600080fd5b506103a3610403366004612d03565b61141b565b34801561041457600080fd5b50610211611427565b34801561042957600080fd5b50610432611437565b60405161022c9796959493929190612e68565b34801561045157600080fd5b506102956114e3565b34801561046657600080fd5b50610211610475366004612f01565b611511565b34801561048657600080fd5b506103a3610495366004612f89565b61182f565b3480156104a657600080fd5b506102116104b5366004612fbf565b611b05565b3480156104c657600080fd5b50610222611b56565b3480156104db57600080fd5b506104e4611b67565b60405161022c9190612fd8565b3480156104fd57600080fd5b5061021161050c366004612fbf565b611b73565b34801561051d57600080fd5b5061055861052c366004612fbf565b600260208190526000918252604090912080546001820154928201546003909201549092919060ff1684565b60405161022c949392919061303b565b34801561057457600080fd5b50610211610583366004612d03565b611bc1565b34801561059457600080fd5b506103a36105a3366004612dec565b611bfc565b6105b0611c6b565b6105b8611c9d565b6105c0611cd5565b6003546001600160a01b031661061d5760405162461bcd60e51b815260206004820152601760248201527f4f6666696365722061646472657373206e6f742073657400000000000000000060448201526064015b60405180910390fd5b60035460405163040a4ce560e21b81526000916001600160a01b0316906310293394906106659060040160208082526004908201526342616e6b60e01b604082015260600190565b602060405180830381865afa158015610682573d6000803e3d6000fd5b505050506040513d601f19601f820116820180604052508101906106a6919061307f565b90506001600160a01b0381166106fe5760405162461bcd60e51b815260206004820152601760248201527f42616e6b20636f6e7472616374206e6f7420666f756e640000000000000000006044820152606401610614565b478015610763576107186001600160a01b03831682611d06565b6107206114e3565b6001600160a01b03167f4d9676ed3c7e652a835f91b6e46ca5a9de07f3b7a97f1845ab5e635e2a953be48260405161075a91815260200190565b60405180910390a25b6000306001600160a01b031663d3c7c2c76040518163ffffffff1660e01b8152600401600060405180830381865afa1580156107a3573d6000803e3d6000fd5b505050506040513d6000823e601f3d908101601f191682016040526107cb91908101906130b2565b905060005b815181101561098d5760008282815181106107ed576107ed61316b565b60209081029190910101516040516370a0823160e01b81523060048201526001600160a01b03909116906370a0823190602401602060405180830381865afa15801561083d573d6000803e3d6000fd5b505050506040513d601f19601f820116820180604052508101906108619190613181565b905080156109845782828151811061087b5761087b61316b565b602090810291909101015160405163a9059cbb60e01b81526001600160a01b038781166004830152602482018490529091169063a9059cbb906044016020604051808303816000875af11580156108d6573d6000803e3d6000fd5b505050506040513d601f19601f820116820180604052508101906108fa919061319a565b6109165760405162461bcd60e51b8152600401610614906131bc565b8282815181106109285761092861316b565b60200260200101516001600160a01b03166109416114e3565b6001600160a01b03167fe2684a45ae801408de30c0254c2019cd0ecea430606518d367c2f930ee6c30d78360405161097b91815260200190565b60405180910390a35b506001016107d0565b505050506109a8600160008051602061363383398151915255565b565b60006040518060c001604052806096815260200161357d609691396040516020016109d591906131eb565b604051602081830303815290604052805190602001208260000135836020016020810190610a039190613207565b604085013560608601356080870135610a2260c0890160a08a01612d03565b610a3260e08a0160c08b01612d03565b604051602001610a49989796959493929190613228565b604051602081830303815290604052805190602001209050919050565b610a6e611c6b565b610a7781611dbd565b50565b610a82611c9d565b610a8a611cd5565b6001600160a01b0382161580610aa45750610aa48261141b565b610ae45760405162461bcd60e51b81526020600482015260116024820152702ab739bab83837b93a32b2103a37b5b2b760791b6044820152606401610614565b60008111610b345760405162461bcd60e51b815260206004820181905260248201527f416d6f756e74206d7573742062652067726561746572207468616e207a65726f6044820152606401610614565b6040516323b872dd60e01b8152336004820152306024820152604481018290526001600160a01b038316906323b872dd906064016020604051808303816000875af1158015610b87573d6000803e3d6000fd5b505050506040513d601f19601f82011682018060405250810190610bab919061319a565b610bc75760405162461bcd60e51b8152600401610614906131bc565b6040518181526001600160a01b0383169033907ff1444b5cad7ce70cb018d1b8edc8618fe303f3c7f034d8d572a6e27facbf2bef9060200160405180910390a3610c1e600160008051602061363383398151915255565b5050565b60006001600160a01b0382161580610c3e5750610c3e8261141b565b610c7e5760405162461bcd60e51b81526020600482015260116024820152702ab739bab83837b93a32b2103a37b5b2b760791b6044820152606401610614565b6040516370a0823160e01b81523060048201526001600160a01b038316906370a0823190602401602060405180830381865afa158015610cc2573d6000803e3d6000fd5b505050506040513d601f19601f82011682018060405250810190610ce69190613181565b92915050565b610cf4611c6b565b6001600160a01b038116610d4a5760405162461bcd60e51b815260206004820152601e60248201527f4f66666963657220616464726573732063616e6e6f74206265207a65726f00006044820152606401610614565b600380546001600160a01b0319166001600160a01b0392909216919091179055565b610d74611c6b565b6109a8611e67565b6001600160a01b038516610dc55760405162461bcd60e51b815260206004820152601060248201526f1059191c995cdcc81c995c5d5a5c995960821b6044820152606401610614565b610dd560e0840160c08501612d03565b6001600160a01b0316336001600160a01b031614610e2c5760405162461bcd60e51b815260206004820152601460248201527314dc195b99195c881b9bdd08185c1c1c9bdd995960621b6044820152606401610614565b6000610e3f610e3a856109aa565b611ec7565b9050610e496114e3565b6001600160a01b0316610e9484848080601f0160208091040260200160405190810160405280939291908181526020018383808284376000920191909152508693925050611ef49050565b6001600160a01b031614610ee25760405162461bcd60e51b815260206004820152601560248201527414da59db995c881b9bdd08185d5d1a1bdc9a5e9959605a1b6044820152606401610614565b60008383604051610ef4929190613284565b60405180910390209050610f0985878361182f565b610f4c5760405162461bcd60e51b8152602060048201526014602482015273151c985b9cd9995c881b9bdd08185b1b1bddd95960621b6044820152606401610614565b610f57858783611f1e565b6000610f6960c0870160a08801612d03565b6001600160a01b03160361103b5785471015610fc75760405162461bcd60e51b815260206004820152601b60248201527f496e73756666696369656e74206e61746976652062616c616e636500000000006044820152606401610614565b610fda6001600160a01b03881687611d06565b6001600160a01b038716610ff460e0870160c08801612d03565b6001600160a01b03167fddf252ad1be2c89b69c2b068fc378daa952ba7f163c4a11628f55a4df523b3ef8860405161102e91815260200190565b60405180910390a3611216565b8561104c60c0870160a08801612d03565b6040516370a0823160e01b81523060048201526001600160a01b0391909116906370a0823190602401602060405180830381865afa158015611092573d6000803e3d6000fd5b505050506040513d601f19601f820116820180604052508101906110b69190613181565b10156111045760405162461bcd60e51b815260206004820152601a60248201527f496e73756666696369656e7420746f6b656e2062616c616e63650000000000006044820152606401610614565b61111460c0860160a08701612d03565b60405163a9059cbb60e01b81526001600160a01b03898116600483015260248201899052919091169063a9059cbb906044016020604051808303816000875af1158015611165573d6000803e3d6000fd5b505050506040513d601f19601f82011682018060405250810190611189919061319a565b6111a55760405162461bcd60e51b8152600401610614906131bc565b6111b560c0860160a08701612d03565b6001600160a01b039081169088166111d360e0880160c08901612d03565b6001600160a01b03167fae33cb06d7303f889d953bb09540983050163c1c4c98b330db432a911cfb63fd8960405161120d91815260200190565b60405180910390a45b50505050505050565b6000826060013582101561123557506000610ce6565b60006112476040850160208601613207565b600481111561125857611258613025565b0361126557506000610ce6565b60016112776040850160208601613207565b600481111561128857611288613025565b036112b0576201518061129f6060850135846132aa565b6112a991906132d3565b9050610ce6565b60026112c26040850160208601613207565b60048111156112d3576112d3613025565b036112e6576112a9836060013583611fcc565b60036112f86040850160208601613207565b600481111561130957611309613025565b0361131c576112a983606001358361201b565b600461132e6040850160208601613207565b600481111561133f5761133f613025565b036113ab5760008360400135116113985760405162461bcd60e51b815260206004820152601c60248201527f437573746f6d206672657175656e6379206d757374206265203e2030000000006044820152606401610614565b604083013561129f6060850135846132aa565b60405162461bcd60e51b8152602060048201526016602482015275496e76616c6964206672657175656e6379207479706560501b6044820152606401610614565b6000610ce6824261121f565b611400611c6b565b6109a860006120fb565b611412611c6b565b610a778161216c565b6000610ce68183612220565b61142f611c6b565b6109a8612242565b6000606080828080838160008051602061355d833981519152805490915015801561146457506001810154155b6114a85760405162461bcd60e51b81526020600482015260156024820152741152540dcc4c8e88155b9a5b9a5d1a585b1a5e9959605a1b6044820152606401610614565b6114b061228b565b6114b861234e565b60408051600080825260208201909252600f60f81b9c939b5091995046985030975095509350915050565b7f9016d09d72d40fdae2fd8ceac6b6234c7706214fd39c1cd1e609a0528c199300546001600160a01b031690565b7ff0c57e16840df040f15088dc2f81fe391c3923bec73e23a9662efc9c229c6a008054600160401b810460ff16159067ffffffffffffffff166000811580156115575750825b905060008267ffffffffffffffff1660011480156115745750303b155b905081158015611582575080155b156115a05760405163f92ee8a960e01b815260040160405180910390fd5b845467ffffffffffffffff1916600117855583156115ca57845460ff60401b1916600160401b1785555b6001600160a01b0388166116175760405162461bcd60e51b81526020600482015260146024820152734f776e65722063616e6e6f74206265207a65726f60601b6044820152606401610614565b6116208861238d565b61162861239e565b6116746040518060400160405280601181526020017010d390d15e1c195b9cd95058d8dbdd5b9d607a1b815250604051806040016040528060018152602001603160f81b8152506123ae565b61167c6123c0565b336116c95760405162461bcd60e51b815260206004820152601960248201527f6d73672e73656e6465722063616e6e6f74206265207a65726f000000000000006044820152606401610614565b600380546001600160a01b031916331790558560005b8181101561176d5760008989838181106116fb576116fb61316b565b90506020020160208101906117109190612d03565b6001600160a01b0316036117365760405162461bcd60e51b8152600401610614906132e7565b61176589898381811061174b5761174b61316b565b90506020020160208101906117609190612d03565b61216c565b6001016116df565b5060005b818110156117dd5788888281811061178b5761178b61316b565b90506020020160208101906117a09190612d03565b6001600160a01b03167f8f50fda9bf5d3b403c53b7e91646abd507f8cebf2577655d55d7de3926168b1760405160405180910390a2600101611771565b5050831561182557845460ff60401b19168555604051600181527fc7f505b2f371ae2175ee4913f4499e1f2633a7b5936321eed1cdaeb6115181d29060200160405180910390a15b5050505050505050565b600083606001354210156118855760405162461bcd60e51b815260206004820152601760248201527f417070726f76616c206e6f7420796574206163746976650000000000000000006044820152606401610614565b83608001354211156118cc5760405162461bcd60e51b815260206004820152601060248201526f105c1c1c9bdd985b08195e1c1a5c995960821b6044820152606401610614565b833583111561191d5760405162461bcd60e51b815260206004820152601b60248201527f416d6f756e74206578636565647320627564676574206c696d697400000000006044820152606401610614565b60008281526002602052604081209061193c6040870160208801613207565b600481111561194d5761194d613025565b036119ae576001810154156119a45760405162461bcd60e51b815260206004820152601c60248201527f4f6e652d74696d652062756467657420616c72656164792075736564000000006044820152606401610614565b6001915050611afe565b60006119b9866113ec565b905081600201548111806119cc57508154155b15611a27578535851115611a225760405162461bcd60e51b815260206004820152601c60248201527f416d6f756e74206578636565647320706572696f6420627564676574000000006044820152606401610614565b611a80565b6001820154863590611a3a90879061331e565b1115611a805760405162461bcd60e51b8152602060048201526015602482015274115e18d959591cc81c195c9a5bd908189d5919d95d605a1b6044820152606401610614565b6000611a9260c0880160a08901612d03565b6001600160a01b03161480611ab55750611ab561040360c0880160a08901612d03565b611af75760405162461bcd60e51b8152602060048201526013602482015272151bdad95b881b9bdd081cdd5c1c1bdc9d1959606a1b6044820152606401610614565b6001925050505b9392505050565b611b0d611c6b565b6000818152600260208190526040808320600301805460ff19169092179091555182917fe7d3eeb38329f442545ad499afa197225d3b880a08e091ad2c2c244d6236fa0e91a250565b6000611b6260006123d0565b905090565b6060611b6260006123da565b611b7b611c6b565b600081815260026020526040808220600301805460ff191660011790555182917f5e927cbcc58ec12d6f3fbe317ac4ef30466cfcdddf0be5c85eefab4670b73c3691a250565b611bc9611c6b565b6001600160a01b038116611bf357604051631e4fbdf760e01b815260006004820152602401610614565b610a77816120fb565b600080611c0f6040850160208601613207565b6004811115611c2057611c20613025565b03611c2d57506000610ce6565b60008281526002602052604081208054909103611c4e576001915050610ce6565b6000611c59856113ec565b60029092015490911191505092915050565b33611c746114e3565b6001600160a01b0316146109a85760405163118cdaa760e01b8152336004820152602401610614565b600080516020613633833981519152805460011901611ccf57604051633ee5aeb560e01b815260040160405180910390fd5b60029055565b6000805160206136138339815191525460ff16156109a85760405163d93c066560e01b815260040160405180910390fd5b80471015611d305760405163cf47918160e01b815247600482015260248101829052604401610614565b6000826001600160a01b03168260405160006040518083038185875af1925050503d8060008114611d7d576040519150601f19603f3d011682016040523d82523d6000602084013e611d82565b606091505b5050905080611da45760405163d6bda27560e01b815260040160405180910390fd5b505050565b600160008051602061363383398151915255565b6001600160a01b038116611de35760405162461bcd60e51b8152600401610614906132e7565b611dee6000826123e7565b611e305760405162461bcd60e51b8152602060048201526013602482015272151bdad95b881b9bdd081cdd5c1c1bdc9d1959606a1b6044820152606401610614565b6040516001600160a01b038216907f1cef54ca6e1745ad87fa3077491d9fc42257e9f1a2d7cad58a4e52bd14dfc62690600090a250565b611e6f6123fc565b600080516020613613833981519152805460ff191681557f5db9ee0a495bf2e6ff9c91a7834c1ba4fdd244a5e8aa4e537bd38aeae4b073aa335b6040516001600160a01b03909116815260200160405180910390a150565b6000610ce6611ed461242c565b8360405161190160f01b8152600281019290925260228201526042902090565b600080600080611f048686612436565b925092509250611f148282612483565b5090949350505050565b600081815260026020526040812090611f36856113ec565b90506000611f4a6040870160208801613207565b6004811115611f5b57611f5b613025565b03611f7f5783826001016000828254611f74919061331e565b90915550611fc59050565b8160020154811180611f9057508154155b15611fab576001820184905560028201819055428255611fc5565b83826001016000828254611fbf919061331e565b90915550505b5050505050565b600080611fd88461253c565b90506000611fe58461253c565b905081811015611ffa57600092505050610ce6565b62093a8061200883836132aa565b61201291906132d3565b95945050505050565b600080612027846125b8565b90506000612034856125d8565b90506000612041856125b8565b9050600061204e866125d8565b905086861015612065576000945050505050610ce6565b83820361208d578281106120885761207d83826132aa565b945050505050610ce6565b6120ee565b838211156120ee57600060016120a386856132aa565b6120ad91906132aa565b905060006120bc85600c6132aa565b90508280826120cc85600c613331565b6120d6919061331e565b6120e0919061331e565b975050505050505050610ce6565b5060009695505050505050565b7f9016d09d72d40fdae2fd8ceac6b6234c7706214fd39c1cd1e609a0528c19930080546001600160a01b031981166001600160a01b03848116918217845560405192169182907f8be0079c531659141344cd1fd0a4f28419497f9722a3daafe3b4186f6b6457e090600090a3505050565b6001600160a01b0381166121925760405162461bcd60e51b8152600401610614906132e7565b61219d6000826125f2565b6121e95760405162461bcd60e51b815260206004820152601760248201527f546f6b656e20616c726561647920737570706f727465640000000000000000006044820152606401610614565b6040516001600160a01b038216907f8f50fda9bf5d3b403c53b7e91646abd507f8cebf2577655d55d7de3926168b1790600090a250565b6001600160a01b03811660009081526001830160205260408120541515611afe565b61224a611cd5565b600080516020613613833981519152805460ff191660011781557f62e78cea01bee320cd4e420270b5ea74000d11b0c9f74754ebdbfc544b05a25833611ea9565b7fa16a46d94261c7517cc8ff89f61c0ce93598e3c849801011dee649a6a557d102805460609160008051602061355d833981519152916122ca90613348565b80601f01602080910402602001604051908101604052809291908181526020018280546122f690613348565b80156123435780601f1061231857610100808354040283529160200191612343565b820191906000526020600020905b81548152906001019060200180831161232657829003601f168201915b505050505091505090565b7fa16a46d94261c7517cc8ff89f61c0ce93598e3c849801011dee649a6a557d103805460609160008051602061355d833981519152916122ca90613348565b612395612607565b610a7781612650565b6123a6612607565b6109a8612658565b6123b6612607565b610c1e8282612660565b6123c8612607565b6109a86126c1565b6000610ce6825490565b60606000611afe836126e2565b6000611afe836001600160a01b03841661273e565b6000805160206136138339815191525460ff166109a857604051638dfc202b60e01b815260040160405180910390fd5b6000611b62612838565b600080600083516041036124705760208401516040850151606086015160001a612462888285856128ac565b95509550955050505061247c565b50508151600091506002905b9250925092565b600082600381111561249757612497613025565b036124a0575050565b60018260038111156124b4576124b4613025565b036124d25760405163f645eedf60e01b815260040160405180910390fd5b60028260038111156124e6576124e6613025565b036125075760405163fce698f760e01b815260048101829052602401610614565b600382600381111561251b5761251b613025565b03610c1e576040516335e2f38360e21b815260048101829052602401610614565b6000806125488361297b565b9050600061256f612558856125b8565b612561866125d8565b61256a876129af565b6129c9565b905081600103612580579392505050565b600061258d6001846132aa565b61259a9062015180613331565b90508082106125ad5761201281836132aa565b506000949350505050565b60006125cf6125ca62015180846132d3565b6129e4565b50909392505050565b60006125ea6125ca62015180846132d3565b509392505050565b6000611afe836001600160a01b038416612a80565b7ff0c57e16840df040f15088dc2f81fe391c3923bec73e23a9662efc9c229c6a0054600160401b900460ff166109a857604051631afcd79f60e31b815260040160405180910390fd5b611bc9612607565b611da9612607565b612668612607565b60008051602061355d8339815191527fa16a46d94261c7517cc8ff89f61c0ce93598e3c849801011dee649a6a557d1026126a284826133cc565b50600381016126b183826133cc565b5060008082556001909101555050565b6126c9612607565b600080516020613613833981519152805460ff19169055565b60608160000180548060200260200160405190810160405280929190818152602001828054801561273257602002820191906000526020600020905b81548152602001906001019080831161271e575b50505050509050919050565b600081815260018301602052604081205480156128275760006127626001836132aa565b8554909150600090612776906001906132aa565b90508082146127db5760008660000182815481106127965761279661316b565b90600052602060002001549050808760000184815481106127b9576127b961316b565b6000918252602080832090910192909255918252600188019052604090208390555b85548690806127ec576127ec61348c565b600190038181906000526020600020016000905590558560010160008681526020019081526020016000206000905560019350505050610ce6565b6000915050610ce6565b5092915050565b60007f8b73c3c69bb8fe3d512ecc4cf759cc79239f7b179b0ffacaa9a75d522b39400f612863612acf565b61286b612b39565b60408051602081019490945283019190915260608201524660808201523060a082015260c00160405160208183030381529060405280519060200120905090565b600080807f7fffffffffffffffffffffffffffffff5d576e7357a4501ddfe92f46681b20a08411156128e75750600091506003905082612971565b604080516000808252602082018084528a905260ff891692820192909252606081018790526080810186905260019060a0016020604051602081039080840390855afa15801561293b573d6000803e3d6000fd5b5050604051601f1901519150506001600160a01b03811661296757506000925060019150829050612971565b9250600091508190505b9450945094915050565b60008061298b62015180846132d3565b9050600761299a82600361331e565b6129a491906134a2565b611afe90600161331e565b60006129c16125ca62015180846132d3565b949350505050565b6000620151806129da858585612b7d565b6129c19190613331565b60008080836226496581018262023ab1600483020590506004600362023ab18302010590910390600062164b09610fa0600185010205905060046105b58202058303601f019250600061098f8460500281612a4157612a416132bd565b0590506000605061098f83020585039050600b820560301994909401606402929092018301996002600c90940290910392909201975095509350505050565b6000818152600183016020526040812054612ac757508154600181810184556000848152602080822090930184905584548482528286019093526040902091909155610ce6565b506000610ce6565b600060008051602061355d83398151915281612ae961228b565b805190915015612b0157805160209091012092915050565b81548015612b10579392505050565b7fc5d2460186f7233c927e7db2dcc703c0e500b653ca82273b7bfad8045d85a470935050505090565b600060008051602061355d83398151915281612b5361234e565b805190915015612b6b57805160209091012092915050565b60018201548015612b10579392505050565b60006107b2841015612b8e57600080fd5b838383600062253d8c60046064600c612ba8600e886134b6565b612bb291906134d6565b612bbe88611324613504565b612bc89190613504565b612bd291906134d6565b612bdd90600361352c565b612be791906134d6565b600c80612bf5600e886134b6565b612bff91906134d6565b612c0a90600c61352c565b612c156002886134b6565b612c1f91906134b6565b612c2b9061016f61352c565b612c3591906134d6565b6004600c612c44600e896134b6565b612c4e91906134d6565b612c5a896112c0613504565b612c649190613504565b612c70906105b561352c565b612c7a91906134d6565b612c86617d4b876134b6565b612c909190613504565b612c9a9190613504565b612ca491906134b6565b612cae91906134b6565b98975050505050505050565b600060e08284031215612ccc57600080fd5b50919050565b600060e08284031215612ce457600080fd5b611afe8383612cba565b6001600160a01b0381168114610a7757600080fd5b600060208284031215612d1557600080fd5b8135611afe81612cee565b60008060408385031215612d3357600080fd5b8235612d3e81612cee565b946020939093013593505050565b60008060008060006101408688031215612d6557600080fd5b8535612d7081612cee565b945060208601359350612d868760408801612cba565b925061012086013567ffffffffffffffff80821115612da457600080fd5b818801915088601f830112612db857600080fd5b813581811115612dc757600080fd5b896020828501011115612dd957600080fd5b9699959850939650602001949392505050565b6000806101008385031215612e0057600080fd5b612e0a8484612cba565b9460e0939093013593505050565b60005b83811015612e33578181015183820152602001612e1b565b50506000910152565b60008151808452612e54816020860160208601612e18565b601f01601f19169290920160200192915050565b60ff60f81b881681526000602060e06020840152612e8960e084018a612e3c565b8381036040850152612e9b818a612e3c565b606085018990526001600160a01b038816608086015260a0850187905284810360c08601528551808252602080880193509091019060005b81811015612eef57835183529284019291840191600101612ed3565b50909c9b505050505050505050505050565b600080600060408486031215612f1657600080fd5b8335612f2181612cee565b9250602084013567ffffffffffffffff80821115612f3e57600080fd5b818601915086601f830112612f5257600080fd5b813581811115612f6157600080fd5b8760208260051b8501011115612f7657600080fd5b6020830194508093505050509250925092565b60008060006101208486031215612f9f57600080fd5b612fa98585612cba565b9560e08501359550610100909401359392505050565b600060208284031215612fd157600080fd5b5035919050565b6020808252825182820181905260009190848201906040850190845b818110156130195783516001600160a01b031683529284019291840191600101612ff4565b50909695505050505050565b634e487b7160e01b600052602160045260246000fd5b8481526020810184905260408101839052608081016003831061306057613060613025565b82606083015295945050505050565b805161307a81612cee565b919050565b60006020828403121561309157600080fd5b8151611afe81612cee565b634e487b7160e01b600052604160045260246000fd5b600060208083850312156130c557600080fd5b825167ffffffffffffffff808211156130dd57600080fd5b818501915085601f8301126130f157600080fd5b8151818111156131035761310361309c565b8060051b604051601f19603f830116810181811085821117156131285761312861309c565b60405291825284820192508381018501918883111561314657600080fd5b938501935b82851015612cae5761315c8561306f565b8452938501939285019261314b565b634e487b7160e01b600052603260045260246000fd5b60006020828403121561319357600080fd5b5051919050565b6000602082840312156131ac57600080fd5b81518015158114611afe57600080fd5b602080825260159082015274151bdad95b881d1c985b9cd9995c8819985a5b1959605a1b604082015260600190565b600082516131fd818460208701612e18565b9190910192915050565b60006020828403121561321957600080fd5b813560058110611afe57600080fd5b8881526020810188905261010081016005881061324757613247613025565b60408201979097526060810195909552608085019390935260a08401919091526001600160a01b0390811660c08401521660e09091015292915050565b8183823760009101908152919050565b634e487b7160e01b600052601160045260246000fd5b81810381811115610ce657610ce6613294565b634e487b7160e01b600052601260045260246000fd5b6000826132e2576132e26132bd565b500490565b6020808252601c908201527f546f6b656e20616464726573732063616e6e6f74206265207a65726f00000000604082015260600190565b80820180821115610ce657610ce6613294565b8082028115828204841417610ce657610ce6613294565b600181811c9082168061335c57607f821691505b602082108103612ccc57634e487b7160e01b600052602260045260246000fd5b601f821115611da4576000816000526020600020601f850160051c810160208610156133a55750805b601f850160051c820191505b818110156133c4578281556001016133b1565b505050505050565b815167ffffffffffffffff8111156133e6576133e661309c565b6133fa816133f48454613348565b8461337c565b602080601f83116001811461342f57600084156134175750858301515b600019600386901b1c1916600185901b1785556133c4565b600085815260208120601f198616915b8281101561345e5788860151825594840194600190910190840161343f565b508582101561347c5787850151600019600388901b60f8161c191681555b5050505050600190811b01905550565b634e487b7160e01b600052603160045260246000fd5b6000826134b1576134b16132bd565b500690565b818103600083128015838313168383128216171561283157612831613294565b6000826134e5576134e56132bd565b600160ff1b8214600019841416156134ff576134ff613294565b500590565b808201828112600083128015821682158216171561352457613524613294565b505092915050565b80820260008212600160ff1b8414161561354857613548613294565b8181058314821517610ce657610ce661329456fea16a46d94261c7517cc8ff89f61c0ce93598e3c849801011dee649a6a557d1004275646765744c696d69742875696e7432353620616d6f756e742c75696e7438206672657175656e6379547970652c75696e7432353620637573746f6d4672657175656e63792c75696e74323536207374617274446174652c75696e7432353620656e64446174652c6164647265737320746f6b656e416464726573732c6164647265737320617070726f7665644164647265737329cd5ed15c6e187e77e9aee88184c21f4f2182ab5827cb3b7e07fbedcd63f033009b779b17422d0df92223018b32b4d1fa46e071723d6817e2486d003becc55f00a2646970667358221220afcb2595979b23d3bab785c02eadadebcecb9b65d5fae34127dc91007f7fa18464736f6c63430008180033",
  "linkReferences": {},
  "deployedLinkReferences": {}
}