{
  "_format": "hh-sol-artifact-1",
  "contractName": "ExpenseAccountEIP712",
  "sourceName": "contracts/expense-account/ExpenseAccountEIP712.sol",
  "abi": [
    {
      "inputs": [
        {
          "internalType": "uint256",
          "name": "amount",
          "type": "uint256"
        }
      ],
      "name": "AmountPerPeriodExceeded",
      "type": "error"
    },
    {
      "inputs": [
        {
          "internalType": "uint256",
          "name": "amount",
          "type": "uint256"
        }
      ],
      "name": "AmountPerTransactionExceeded",
      "type": "error"
    },
    {
      "inputs": [
        {
          "internalType": "uint256",
          "name": "currentTime",
          "type": "uint256"
        },
        {
          "internalType": "uint256",
          "name": "endDate",
          "type": "uint256"
        }
      ],
      "name": "ApprovalExpired",
      "type": "error"
    },
    {
      "inputs": [
        {
          "internalType": "uint256",
          "name": "currentTime",
          "type": "uint256"
        },
        {
          "internalType": "uint256",
          "name": "startDate",
          "type": "uint256"
        }
      ],
      "name": "ApprovalNotActive",
      "type": "error"
    },
    {
      "inputs": [],
      "name": "ECDSAInvalidSignature",
      "type": "error"
    },
    {
      "inputs": [
        {
          "internalType": "uint256",
          "name": "length",
          "type": "uint256"
        }
      ],
      "name": "ECDSAInvalidSignatureLength",
      "type": "error"
    },
    {
      "inputs": [
        {
          "internalType": "bytes32",
          "name": "s",
          "type": "bytes32"
        }
      ],
      "name": "ECDSAInvalidSignatureS",
      "type": "error"
    },
    {
      "inputs": [],
      "name": "EnforcedPause",
      "type": "error"
    },
    {
      "inputs": [],
      "name": "ExpectedPause",
      "type": "error"
    },
    {
      "inputs": [],
      "name": "FailedCall",
      "type": "error"
    },
    {
      "inputs": [
        {
          "internalType": "uint256",
          "name": "balance",
          "type": "uint256"
        },
        {
          "internalType": "uint256",
          "name": "needed",
          "type": "uint256"
        }
      ],
      "name": "InsufficientBalance",
      "type": "error"
    },
    {
      "inputs": [],
      "name": "InvalidInitialization",
      "type": "error"
    },
    {
      "inputs": [],
      "name": "NotInitializing",
      "type": "error"
    },
    {
      "inputs": [
        {
          "internalType": "address",
          "name": "owner",
          "type": "address"
        }
      ],
      "name": "OwnableInvalidOwner",
      "type": "error"
    },
    {
      "inputs": [
        {
          "internalType": "address",
          "name": "account",
          "type": "address"
        }
      ],
      "name": "OwnableUnauthorizedAccount",
      "type": "error"
    },
    {
      "inputs": [],
      "name": "ReentrancyGuardReentrantCall",
      "type": "error"
    },
    {
      "inputs": [
        {
          "internalType": "address",
          "name": "expected",
          "type": "address"
        },
        {
          "internalType": "address",
          "name": "received",
          "type": "address"
        }
      ],
      "name": "UnauthorizedAccess",
      "type": "error"
    },
    {
      "anonymous": false,
      "inputs": [
        {
          "indexed": true,
          "internalType": "bytes32",
          "name": "signatureHash",
          "type": "bytes32"
        }
      ],
      "name": "ApprovalActivated",
      "type": "event"
    },
    {
      "anonymous": false,
      "inputs": [
        {
          "indexed": true,
          "internalType": "bytes32",
          "name": "signatureHash",
          "type": "bytes32"
        }
      ],
      "name": "ApprovalDeactivated",
      "type": "event"
    },
    {
      "anonymous": false,
      "inputs": [
        {
          "indexed": true,
          "internalType": "address",
          "name": "depositor",
          "type": "address"
        },
        {
          "indexed": false,
          "internalType": "uint256",
          "name": "amount",
          "type": "uint256"
        }
      ],
      "name": "Deposited",
      "type": "event"
    },
    {
      "anonymous": false,
      "inputs": [],
      "name": "EIP712DomainChanged",
      "type": "event"
    },
    {
      "anonymous": false,
      "inputs": [
        {
          "indexed": false,
          "internalType": "uint64",
          "name": "version",
          "type": "uint64"
        }
      ],
      "name": "Initialized",
      "type": "event"
    },
    {
      "anonymous": false,
      "inputs": [
        {
          "indexed": true,
          "internalType": "address",
          "name": "previousOwner",
          "type": "address"
        },
        {
          "indexed": true,
          "internalType": "address",
          "name": "newOwner",
          "type": "address"
        }
      ],
      "name": "OwnershipTransferred",
      "type": "event"
    },
    {
      "anonymous": false,
      "inputs": [
        {
          "indexed": false,
          "internalType": "address",
          "name": "account",
          "type": "address"
        }
      ],
      "name": "Paused",
      "type": "event"
    },
    {
      "anonymous": false,
      "inputs": [
        {
          "indexed": true,
          "internalType": "address",
          "name": "addressWhoChanged",
          "type": "address"
        },
        {
          "indexed": false,
          "internalType": "string",
          "name": "tokenSymbol",
          "type": "string"
        },
        {
          "indexed": true,
          "internalType": "address",
          "name": "oldAddress",
          "type": "address"
        },
        {
          "indexed": true,
          "internalType": "address",
          "name": "newAddress",
          "type": "address"
        }
      ],
      "name": "TokenAddressChanged",
      "type": "event"
    },
    {
      "anonymous": false,
      "inputs": [
        {
          "indexed": true,
          "internalType": "address",
          "name": "depositor",
          "type": "address"
        },
        {
          "indexed": true,
          "internalType": "address",
          "name": "token",
          "type": "address"
        },
        {
          "indexed": false,
          "internalType": "uint256",
          "name": "amount",
          "type": "uint256"
        }
      ],
      "name": "TokenDeposited",
      "type": "event"
    },
    {
      "anonymous": false,
      "inputs": [
        {
          "indexed": true,
          "internalType": "address",
          "name": "withdrawer",
          "type": "address"
        },
        {
          "indexed": true,
          "internalType": "address",
          "name": "to",
          "type": "address"
        },
        {
          "indexed": true,
          "internalType": "address",
          "name": "token",
          "type": "address"
        },
        {
          "indexed": false,
          "internalType": "uint256",
          "name": "amount",
          "type": "uint256"
        }
      ],
      "name": "TokenTransfer",
      "type": "event"
    },
    {
      "anonymous": false,
      "inputs": [
        {
          "indexed": true,
          "internalType": "address",
          "name": "withdrawer",
          "type": "address"
        },
        {
          "indexed": true,
          "internalType": "address",
          "name": "to",
          "type": "address"
        },
        {
          "indexed": false,
          "internalType": "uint256",
          "name": "amount",
          "type": "uint256"
        }
      ],
      "name": "Transfer",
      "type": "event"
    },
    {
      "anonymous": false,
      "inputs": [
        {
          "indexed": false,
          "internalType": "address",
          "name": "account",
          "type": "address"
        }
      ],
      "name": "Unpaused",
      "type": "event"
    },
    {
      "inputs": [
        {
          "internalType": "bytes32",
          "name": "signatureHash",
          "type": "bytes32"
        }
      ],
      "name": "activateApproval",
      "outputs": [],
      "stateMutability": "nonpayable",
      "type": "function"
    },
    {
      "inputs": [
        {
          "components": [
            {
              "internalType": "uint256",
              "name": "amount",
              "type": "uint256"
            },
            {
              "internalType": "enum ExpenseAccountEIP712.FrequencyType",
              "name": "frequencyType",
              "type": "uint8"
            },
            {
              "internalType": "uint256",
              "name": "customFrequency",
              "type": "uint256"
            },
            {
              "internalType": "uint256",
              "name": "startDate",
              "type": "uint256"
            },
            {
              "internalType": "uint256",
              "name": "endDate",
              "type": "uint256"
            },
            {
              "internalType": "address",
              "name": "tokenAddress",
              "type": "address"
            },
            {
              "internalType": "address",
              "name": "approvedAddress",
              "type": "address"
            }
          ],
          "internalType": "struct ExpenseAccountEIP712.BudgetLimit",
          "name": "budgetLimit",
          "type": "tuple"
        }
      ],
      "name": "budgetLimitHash",
      "outputs": [
        {
          "internalType": "bytes32",
          "name": "",
          "type": "bytes32"
        }
      ],
      "stateMutability": "pure",
      "type": "function"
    },
    {
      "inputs": [
        {
          "internalType": "string",
          "name": "symbol",
          "type": "string"
        },
        {
          "internalType": "address",
          "name": "newAddress",
          "type": "address"
        }
      ],
      "name": "changeTokenAddress",
      "outputs": [],
      "stateMutability": "nonpayable",
      "type": "function"
    },
    {
      "inputs": [
        {
          "internalType": "bytes32",
          "name": "signatureHash",
          "type": "bytes32"
        }
      ],
      "name": "deactivateApproval",
      "outputs": [],
      "stateMutability": "nonpayable",
      "type": "function"
    },
    {
      "inputs": [
        {
          "internalType": "address",
          "name": "token",
          "type": "address"
        },
        {
          "internalType": "uint256",
          "name": "amount",
          "type": "uint256"
        }
      ],
      "name": "depositToken",
      "outputs": [],
      "stateMutability": "nonpayable",
      "type": "function"
    },
    {
      "inputs": [],
      "name": "eip712Domain",
      "outputs": [
        {
          "internalType": "bytes1",
          "name": "fields",
          "type": "bytes1"
        },
        {
          "internalType": "string",
          "name": "name",
          "type": "string"
        },
        {
          "internalType": "string",
          "name": "version",
          "type": "string"
        },
        {
          "internalType": "uint256",
          "name": "chainId",
          "type": "uint256"
        },
        {
          "internalType": "address",
          "name": "verifyingContract",
          "type": "address"
        },
        {
          "internalType": "bytes32",
          "name": "salt",
          "type": "bytes32"
        },
        {
          "internalType": "uint256[]",
          "name": "extensions",
          "type": "uint256[]"
        }
      ],
      "stateMutability": "view",
      "type": "function"
    },
    {
      "inputs": [
        {
          "internalType": "bytes32",
          "name": "",
          "type": "bytes32"
        }
      ],
      "name": "expenseBalances",
      "outputs": [
        {
          "internalType": "uint256",
          "name": "lastWithdrawnDate",
          "type": "uint256"
        },
        {
          "internalType": "uint256",
          "name": "totalWithdrawn",
          "type": "uint256"
        },
        {
          "internalType": "uint256",
          "name": "lastWithdrawnPeriod",
          "type": "uint256"
        },
        {
          "internalType": "enum ExpenseAccountEIP712.ApprovalState",
          "name": "state",
          "type": "uint8"
        }
      ],
      "stateMutability": "view",
      "type": "function"
    },
    {
      "inputs": [],
      "name": "getBalance",
      "outputs": [
        {
          "internalType": "uint256",
          "name": "",
          "type": "uint256"
        }
      ],
      "stateMutability": "view",
      "type": "function"
    },
    {
      "inputs": [
        {
          "components": [
            {
              "internalType": "uint256",
              "name": "amount",
              "type": "uint256"
            },
            {
              "internalType": "enum ExpenseAccountEIP712.FrequencyType",
              "name": "frequencyType",
              "type": "uint8"
            },
            {
              "internalType": "uint256",
              "name": "customFrequency",
              "type": "uint256"
            },
            {
              "internalType": "uint256",
              "name": "startDate",
              "type": "uint256"
            },
            {
              "internalType": "uint256",
              "name": "endDate",
              "type": "uint256"
            },
            {
              "internalType": "address",
              "name": "tokenAddress",
              "type": "address"
            },
            {
              "internalType": "address",
              "name": "approvedAddress",
              "type": "address"
            }
          ],
          "internalType": "struct ExpenseAccountEIP712.BudgetLimit",
          "name": "budgetLimit",
          "type": "tuple"
        }
      ],
      "name": "getCurrentPeriod",
      "outputs": [
        {
          "internalType": "uint256",
          "name": "",
          "type": "uint256"
        }
      ],
      "stateMutability": "view",
      "type": "function"
    },
    {
      "inputs": [
        {
          "components": [
            {
              "internalType": "uint256",
              "name": "amount",
              "type": "uint256"
            },
            {
              "internalType": "enum ExpenseAccountEIP712.FrequencyType",
              "name": "frequencyType",
              "type": "uint8"
            },
            {
              "internalType": "uint256",
              "name": "customFrequency",
              "type": "uint256"
            },
            {
              "internalType": "uint256",
              "name": "startDate",
              "type": "uint256"
            },
            {
              "internalType": "uint256",
              "name": "endDate",
              "type": "uint256"
            },
            {
              "internalType": "address",
              "name": "tokenAddress",
              "type": "address"
            },
            {
              "internalType": "address",
              "name": "approvedAddress",
              "type": "address"
            }
          ],
          "internalType": "struct ExpenseAccountEIP712.BudgetLimit",
          "name": "budgetLimit",
          "type": "tuple"
        },
        {
          "internalType": "uint256",
          "name": "timestamp",
          "type": "uint256"
        }
      ],
      "name": "getPeriod",
      "outputs": [
        {
          "internalType": "uint256",
          "name": "",
          "type": "uint256"
        }
      ],
      "stateMutability": "pure",
      "type": "function"
    },
    {
      "inputs": [
        {
          "internalType": "address",
          "name": "token",
          "type": "address"
        }
      ],
      "name": "getTokenBalance",
      "outputs": [
        {
          "internalType": "uint256",
          "name": "",
          "type": "uint256"
        }
      ],
      "stateMutability": "view",
      "type": "function"
    },
    {
      "inputs": [
        {
          "internalType": "address",
          "name": "owner",
          "type": "address"
        },
        {
          "internalType": "address",
          "name": "_usdtAddress",
          "type": "address"
        },
        {
          "internalType": "address",
          "name": "_usdcAddress",
          "type": "address"
        }
      ],
      "name": "initialize",
      "outputs": [],
      "stateMutability": "nonpayable",
      "type": "function"
    },
    {
      "inputs": [
        {
          "components": [
            {
              "internalType": "uint256",
              "name": "amount",
              "type": "uint256"
            },
            {
              "internalType": "enum ExpenseAccountEIP712.FrequencyType",
              "name": "frequencyType",
              "type": "uint8"
            },
            {
              "internalType": "uint256",
              "name": "customFrequency",
              "type": "uint256"
            },
            {
              "internalType": "uint256",
              "name": "startDate",
              "type": "uint256"
            },
            {
              "internalType": "uint256",
              "name": "endDate",
              "type": "uint256"
            },
            {
              "internalType": "address",
              "name": "tokenAddress",
              "type": "address"
            },
            {
              "internalType": "address",
              "name": "approvedAddress",
              "type": "address"
            }
          ],
          "internalType": "struct ExpenseAccountEIP712.BudgetLimit",
          "name": "budgetLimit",
          "type": "tuple"
        },
        {
          "internalType": "bytes32",
          "name": "signatureHash",
          "type": "bytes32"
        }
      ],
      "name": "isNewPeriod",
      "outputs": [
        {
          "internalType": "bool",
          "name": "",
          "type": "bool"
        }
      ],
      "stateMutability": "view",
      "type": "function"
    },
    {
      "inputs": [
        {
          "internalType": "address",
          "name": "_token",
          "type": "address"
        }
      ],
      "name": "isTokenSupported",
      "outputs": [
        {
          "internalType": "bool",
          "name": "",
          "type": "bool"
        }
      ],
      "stateMutability": "view",
      "type": "function"
    },
    {
      "inputs": [],
      "name": "owner",
      "outputs": [
        {
          "internalType": "address",
          "name": "",
          "type": "address"
        }
      ],
      "stateMutability": "view",
      "type": "function"
    },
    {
      "inputs": [],
      "name": "pause",
      "outputs": [],
      "stateMutability": "nonpayable",
      "type": "function"
    },
    {
      "inputs": [],
      "name": "paused",
      "outputs": [
        {
          "internalType": "bool",
          "name": "",
          "type": "bool"
        }
      ],
      "stateMutability": "view",
      "type": "function"
    },
    {
      "inputs": [],
      "name": "renounceOwnership",
      "outputs": [],
      "stateMutability": "nonpayable",
      "type": "function"
    },
    {
      "inputs": [
        {
          "internalType": "string",
          "name": "",
          "type": "string"
        }
      ],
      "name": "supportedTokens",
      "outputs": [
        {
          "internalType": "address",
          "name": "",
          "type": "address"
        }
      ],
      "stateMutability": "view",
      "type": "function"
    },
    {
      "inputs": [
        {
          "internalType": "address",
          "name": "to",
          "type": "address"
        },
        {
          "internalType": "uint256",
          "name": "amount",
          "type": "uint256"
        },
        {
          "components": [
            {
              "internalType": "uint256",
              "name": "amount",
              "type": "uint256"
            },
            {
              "internalType": "enum ExpenseAccountEIP712.FrequencyType",
              "name": "frequencyType",
              "type": "uint8"
            },
            {
              "internalType": "uint256",
              "name": "customFrequency",
              "type": "uint256"
            },
            {
              "internalType": "uint256",
              "name": "startDate",
              "type": "uint256"
            },
            {
              "internalType": "uint256",
              "name": "endDate",
              "type": "uint256"
            },
            {
              "internalType": "address",
              "name": "tokenAddress",
              "type": "address"
            },
            {
              "internalType": "address",
              "name": "approvedAddress",
              "type": "address"
            }
          ],
          "internalType": "struct ExpenseAccountEIP712.BudgetLimit",
          "name": "budgetLimit",
          "type": "tuple"
        },
        {
          "internalType": "bytes",
          "name": "signature",
          "type": "bytes"
        }
      ],
      "name": "transfer",
      "outputs": [],
      "stateMutability": "nonpayable",
      "type": "function"
    },
    {
      "inputs": [
        {
          "internalType": "address",
          "name": "newOwner",
          "type": "address"
        }
      ],
      "name": "transferOwnership",
      "outputs": [],
      "stateMutability": "nonpayable",
      "type": "function"
    },
    {
      "inputs": [],
      "name": "unpause",
      "outputs": [],
      "stateMutability": "nonpayable",
      "type": "function"
    },
    {
      "inputs": [
        {
          "components": [
            {
              "internalType": "uint256",
              "name": "amount",
              "type": "uint256"
            },
            {
              "internalType": "enum ExpenseAccountEIP712.FrequencyType",
              "name": "frequencyType",
              "type": "uint8"
            },
            {
              "internalType": "uint256",
              "name": "customFrequency",
              "type": "uint256"
            },
            {
              "internalType": "uint256",
              "name": "startDate",
              "type": "uint256"
            },
            {
              "internalType": "uint256",
              "name": "endDate",
              "type": "uint256"
            },
            {
              "internalType": "address",
              "name": "tokenAddress",
              "type": "address"
            },
            {
              "internalType": "address",
              "name": "approvedAddress",
              "type": "address"
            }
          ],
          "internalType": "struct ExpenseAccountEIP712.BudgetLimit",
          "name": "budgetLimit",
          "type": "tuple"
        },
        {
          "internalType": "uint256",
          "name": "amount",
          "type": "uint256"
        },
        {
          "internalType": "bytes32",
          "name": "signatureHash",
          "type": "bytes32"
        }
      ],
      "name": "validateTransfer",
      "outputs": [
        {
          "internalType": "bool",
          "name": "",
          "type": "bool"
        }
      ],
      "stateMutability": "view",
      "type": "function"
    },
    {
      "stateMutability": "payable",
      "type": "receive"
    }
  ],
  "bytecode": "0x608060405234801561001057600080fd5b50612e2b806100206000396000f3fe6080604052600436106101445760003560e01c80638456cb59116100b6578063bccb212a1161006f578063bccb212a146103cf578063c0c53b8b146103ef578063de9825341461040f578063ec681b611461042f578063f2fde38b14610484578063fc55ed77146104a457600080fd5b80638456cb59146102e457806384b0196e146102f957806389919cdd146103215780638da5cb5b1461037a578063a5b8eba51461038f578063ab38a485146103af57600080fd5b80633fd1b14a116101085780633fd1b14a1461021e578063549025df1461023e578063582df6471461025e5780635c975abb1461027e578063715018a6146102af57806375151b63146102c457600080fd5b806312065fe0146101855780632a46aa97146101a7578063338b5dea146101c75780633aecd0e3146101e95780633f4ba83a1461020957600080fd5b366101805760405134815233907f2da466a7b24304f47e87fa2e1e5a81b9831ce54fec19055ce277ca2f39ba42c49060200160405180910390a2005b600080fd5b34801561019157600080fd5b50475b6040519081526020015b60405180910390f35b3480156101b357600080fd5b506101946101c236600461254f565b6104c4565b3480156101d357600080fd5b506101e76101e2366004612587565b610580565b005b3480156101f557600080fd5b506101946102043660046125b1565b610756565b34801561021557600080fd5b506101e761080f565b34801561022a57600080fd5b506101e7610239366004612615565b610821565b34801561024a57600080fd5b50610194610259366004612687565b610cec565b34801561026a57600080fd5b5061019461027936600461254f565b610eb9565b34801561028a57600080fd5b50600080516020612dd68339815191525460ff165b604051901515815260200161019e565b3480156102bb57600080fd5b506101e7610ec5565b3480156102d057600080fd5b5061029f6102df3660046125b1565b610ed7565b3480156102f057600080fd5b506101e7610f5c565b34801561030557600080fd5b5061030e610f6c565b60405161019e9796959493929190612703565b34801561032d57600080fd5b5061036261033c3660046127b2565b80516020818301810180516001825292820191909301209152546001600160a01b031681565b6040516001600160a01b03909116815260200161019e565b34801561038657600080fd5b50610362611018565b34801561039b57600080fd5b5061029f6103aa366004612863565b611046565b3480156103bb57600080fd5b506101e76103ca366004612899565b6112fa565b3480156103db57600080fd5b506101e76103ea3660046128ed565b6114fb565b3480156103fb57600080fd5b506101e761040a366004612906565b611549565b34801561041b57600080fd5b506101e761042a3660046128ed565b61172a565b34801561043b57600080fd5b5061047461044a3660046128ed565b60006020819052908152604090208054600182015460028301546003909301549192909160ff1684565b60405161019e9493929190612956565b34801561049057600080fd5b506101e761049f3660046125b1565b611778565b3480156104b057600080fd5b5061029f6104bf366004612687565b6117b6565b60006040518060c0016040528060968152602001612d40609691396040516020016104ef919061298a565b60405160208183030381529060405280519060200120826000013583602001602081019061051d91906129a6565b60408501356060860135608087013561053c60c0890160a08a016125b1565b61054c60e08a0160c08b016125b1565b6040516020016105639897969594939291906129c7565b604051602081830303815290604052805190602001209050919050565b610588611825565b61059061186f565b61059982610ed7565b6105de5760405162461bcd60e51b81526020600482015260116024820152702ab739bab83837b93a32b2103a37b5b2b760791b60448201526064015b60405180910390fd5b6000811161062e5760405162461bcd60e51b815260206004820181905260248201527f416d6f756e74206d7573742062652067726561746572207468616e207a65726f60448201526064016105d5565b6040516323b872dd60e01b8152336004820152306024820152604481018290526001600160a01b038316906323b872dd906064016020604051808303816000875af1158015610681573d6000803e3d6000fd5b505050506040513d601f19601f820116820180604052508101906106a59190612a23565b6106e95760405162461bcd60e51b8152602060048201526015602482015274151bdad95b881d1c985b9cd9995c8819985a5b1959605a1b60448201526064016105d5565b6040518181526001600160a01b0383169033907ff1444b5cad7ce70cb018d1b8edc8618fe303f3c7f034d8d572a6e27facbf2bef9060200160405180910390a361075260017f9b779b17422d0df92223018b32b4d1fa46e071723d6817e2486d003becc55f0055565b5050565b600061076182610ed7565b6107a15760405162461bcd60e51b81526020600482015260116024820152702ab739bab83837b93a32b2103a37b5b2b760791b60448201526064016105d5565b6040516370a0823160e01b81523060048201526001600160a01b038316906370a0823190602401602060405180830381865afa1580156107e5573d6000803e3d6000fd5b505050506040513d601f19601f820116820180604052508101906108099190612a45565b92915050565b6108176118c6565b61081f6118f8565b565b6001600160a01b03851661086a5760405162461bcd60e51b815260206004820152601060248201526f1059191c995cdcc81c995c5d5a5c995960821b60448201526064016105d5565b61087a60e0840160c085016125b1565b6001600160a01b0316336001600160a01b0316146108d15760405162461bcd60e51b815260206004820152601460248201527314dc195b99195c881b9bdd08185c1c1c9bdd995960621b60448201526064016105d5565b60006108e46108df856104c4565b611958565b90506108ee611018565b6001600160a01b031661093984848080601f01602080910402602001604051908101604052809392919081815260200183838082843760009201919091525086939250506119859050565b6001600160a01b0316146109875760405162461bcd60e51b815260206004820152601560248201527414da59db995c881b9bdd08185d5d1a1bdc9a5e9959605a1b60448201526064016105d5565b60008383604051610999929190612a5e565b604051809103902090506109ae858783611046565b6109f15760405162461bcd60e51b8152602060048201526014602482015273151c985b9cd9995c881b9bdd08185b1b1bddd95960621b60448201526064016105d5565b6109fc8587836119af565b6000610a0e60c0870160a088016125b1565b6001600160a01b031603610ae05785471015610a6c5760405162461bcd60e51b815260206004820152601b60248201527f496e73756666696369656e74206e61746976652062616c616e6365000000000060448201526064016105d5565b610a7f6001600160a01b03881687611a5d565b6001600160a01b038716610a9960e0870160c088016125b1565b6001600160a01b03167fddf252ad1be2c89b69c2b068fc378daa952ba7f163c4a11628f55a4df523b3ef88604051610ad391815260200190565b60405180910390a3610ce3565b85610af160c0870160a088016125b1565b6040516370a0823160e01b81523060048201526001600160a01b0391909116906370a0823190602401602060405180830381865afa158015610b37573d6000803e3d6000fd5b505050506040513d601f19601f82011682018060405250810190610b5b9190612a45565b1015610ba95760405162461bcd60e51b815260206004820152601a60248201527f496e73756666696369656e7420746f6b656e2062616c616e636500000000000060448201526064016105d5565b610bb960c0860160a087016125b1565b60405163a9059cbb60e01b81526001600160a01b03898116600483015260248201899052919091169063a9059cbb906044016020604051808303816000875af1158015610c0a573d6000803e3d6000fd5b505050506040513d601f19601f82011682018060405250810190610c2e9190612a23565b610c725760405162461bcd60e51b8152602060048201526015602482015274151bdad95b881d1c985b9cd9995c8819985a5b1959605a1b60448201526064016105d5565b610c8260c0860160a087016125b1565b6001600160a01b03908116908816610ca060e0880160c089016125b1565b6001600160a01b03167fae33cb06d7303f889d953bb09540983050163c1c4c98b330db432a911cfb63fd89604051610cda91815260200190565b60405180910390a45b50505050505050565b60008260600135821015610d0257506000610809565b6000610d1460408501602086016129a6565b6004811115610d2557610d25612940565b03610d3257506000610809565b6001610d4460408501602086016129a6565b6004811115610d5557610d55612940565b03610d7d5762015180610d6c606085013584612a84565b610d769190612aad565b9050610809565b6002610d8f60408501602086016129a6565b6004811115610da057610da0612940565b03610db357610d76836060013583611b00565b6003610dc560408501602086016129a6565b6004811115610dd657610dd6612940565b03610de957610d76836060013583611b4f565b6004610dfb60408501602086016129a6565b6004811115610e0c57610e0c612940565b03610e78576000836040013511610e655760405162461bcd60e51b815260206004820152601c60248201527f437573746f6d206672657175656e6379206d757374206265203e20300000000060448201526064016105d5565b6040830135610d6c606085013584612a84565b60405162461bcd60e51b8152602060048201526016602482015275496e76616c6964206672657175656e6379207479706560501b60448201526064016105d5565b60006108098242610cec565b610ecd6118c6565b61081f6000611c2f565b60006001604051610ef290631554d11560e21b815260040190565b908152604051908190036020019020546001600160a01b0383811691161480610f485750604051635553444360e01b8152600190600401908152604051908190036020019020546001600160a01b038381169116145b806108095750506001600160a01b03161590565b610f646118c6565b61081f611ca0565b60006060808280808381600080516020612d208339815191528054909150158015610f9957506001810154155b610fdd5760405162461bcd60e51b81526020600482015260156024820152741152540dcc4c8e88155b9a5b9a5d1a585b1a5e9959605a1b60448201526064016105d5565b610fe5611ce9565b610fed611dac565b60408051600080825260208201909252600f60f81b9c939b5091995046985030975095509350915050565b7f9016d09d72d40fdae2fd8ceac6b6234c7706214fd39c1cd1e609a0528c199300546001600160a01b031690565b6000836060013542101561109c5760405162461bcd60e51b815260206004820152601760248201527f417070726f76616c206e6f74207965742061637469766500000000000000000060448201526064016105d5565b83608001354211156110e35760405162461bcd60e51b815260206004820152601060248201526f105c1c1c9bdd985b08195e1c1a5c995960821b60448201526064016105d5565b83358311156111345760405162461bcd60e51b815260206004820152601b60248201527f416d6f756e74206578636565647320627564676574206c696d6974000000000060448201526064016105d5565b60008281526020819052604081209061115360408701602088016129a6565b600481111561116457611164612940565b036111c5576001810154156111bb5760405162461bcd60e51b815260206004820152601c60248201527f4f6e652d74696d652062756467657420616c726561647920757365640000000060448201526064016105d5565b60019150506112f3565b60006111d086610eb9565b905081600201548111806111e357508154155b1561123e5785358511156112395760405162461bcd60e51b815260206004820152601c60248201527f416d6f756e74206578636565647320706572696f64206275646765740000000060448201526064016105d5565b611297565b6001820154863590611251908790612ac1565b11156112975760405162461bcd60e51b8152602060048201526015602482015274115e18d959591cc81c195c9a5bd908189d5919d95d605a1b60448201526064016105d5565b6112aa6102df60c0880160a089016125b1565b6112ec5760405162461bcd60e51b8152602060048201526013602482015272151bdad95b881b9bdd081cdd5c1c1bdc9d1959606a1b60448201526064016105d5565b6001925050505b9392505050565b6113026118c6565b61130a61186f565b6001600160a01b0381166113595760405162461bcd60e51b8152602060048201526016602482015275416464726573732063616e6e6f74206265207a65726f60501b60448201526064016105d5565b604051631554d11560e21b6020820152602401604051602081830303815290604052805190602001208383604051602001611395929190612a5e565b6040516020818303038152906040528051906020012014806114065750604051635553444360e01b60208201526024016040516020818303038152906040528051906020012083836040516020016113ee929190612a5e565b60405160208183030381529060405280519060200120145b6114495760405162461bcd60e51b8152602060048201526014602482015273125b9d985b1a59081d1bdad95b881cde5b589bdb60621b60448201526064016105d5565b60006001848460405161145d929190612a5e565b908152604051908190036020018120546001600160a01b03169150829060019061148a9087908790612a5e565b90815260405190819003602001812080546001600160a01b039384166001600160a01b03199091161790558382169183169033907ffa0e1aca71e09b7065691fdf3ee6adb50937ef393f5e4c3fca1235dd97702f8c906114ed9089908990612ad4565b60405180910390a450505050565b6115036118c6565b600081815260208190526040808220600301805460ff191660021790555182917fe7d3eeb38329f442545ad499afa197225d3b880a08e091ad2c2c244d6236fa0e91a250565b7ff0c57e16840df040f15088dc2f81fe391c3923bec73e23a9662efc9c229c6a008054600160401b810460ff16159067ffffffffffffffff1660008115801561158f5750825b905060008267ffffffffffffffff1660011480156115ac5750303b155b9050811580156115ba575080155b156115d85760405163f92ee8a960e01b815260040160405180910390fd5b845467ffffffffffffffff19166001178555831561160257845460ff60401b1916600160401b1785555b61160b88611deb565b611613611dfc565b61161b611e0c565b6116676040518060400160405280601181526020017010d390d15e1c195b9cd95058d8dbdd5b9d607a1b815250604051806040016040528060018152602001603160f81b815250611e1c565b86600160405161168190631554d11560e21b815260040190565b9081526040805191829003602001822080546001600160a01b039485166001600160a01b031991821617909155635553444360e01b835260016004840152905191829003602401909120805492891692909116919091179055831561172057845460ff60401b19168555604051600181527fc7f505b2f371ae2175ee4913f4499e1f2633a7b5936321eed1cdaeb6115181d29060200160405180910390a15b5050505050505050565b6117326118c6565b600081815260208190526040808220600301805460ff191660011790555182917f5e927cbcc58ec12d6f3fbe317ac4ef30466cfcdddf0be5c85eefab4670b73c3691a250565b6117806118c6565b6001600160a01b0381166117aa57604051631e4fbdf760e01b8152600060048201526024016105d5565b6117b381611c2f565b50565b6000806117c960408501602086016129a6565b60048111156117da576117da612940565b036117e757506000610809565b60008281526020819052604081208054909103611808576001915050610809565b600061181385610eb9565b60029092015490911191505092915050565b7f9b779b17422d0df92223018b32b4d1fa46e071723d6817e2486d003becc55f0080546001190161186957604051633ee5aeb560e01b815260040160405180910390fd5b60029055565b600080516020612dd68339815191525460ff161561081f5760405163d93c066560e01b815260040160405180910390fd5b60017f9b779b17422d0df92223018b32b4d1fa46e071723d6817e2486d003becc55f0055565b336118cf611018565b6001600160a01b03161461081f5760405163118cdaa760e01b81523360048201526024016105d5565b611900611e2e565b600080516020612dd6833981519152805460ff191681557f5db9ee0a495bf2e6ff9c91a7834c1ba4fdd244a5e8aa4e537bd38aeae4b073aa335b6040516001600160a01b03909116815260200160405180910390a150565b6000610809611965611e5e565b8360405161190160f01b8152600281019290925260228201526042902090565b6000806000806119958686611e6d565b9250925092506119a58282611eba565b5090949350505050565b6000818152602081905260408120906119c785610eb9565b905060006119db60408701602088016129a6565b60048111156119ec576119ec612940565b03611a105783826001016000828254611a059190612ac1565b90915550611a569050565b8160020154811180611a2157508154155b15611a3c576001820184905560028201819055428255611a56565b83826001016000828254611a509190612ac1565b90915550505b5050505050565b80471015611a875760405163cf47918160e01b8152476004820152602481018290526044016105d5565b6000826001600160a01b03168260405160006040518083038185875af1925050503d8060008114611ad4576040519150601f19603f3d011682016040523d82523d6000602084013e611ad9565b606091505b5050905080611afb5760405163d6bda27560e01b815260040160405180910390fd5b505050565b600080611b0c84611f73565b90506000611b1984611f73565b905081811015611b2e57600092505050610809565b62093a80611b3c8383612a84565b611b469190612aad565b95945050505050565b600080611b5b84611fef565b90506000611b688561200f565b90506000611b7585611fef565b90506000611b828661200f565b905086861015611b99576000945050505050610809565b838203611bc157828110611bbc57611bb18382612a84565b945050505050610809565b611c22565b83821115611c225760006001611bd78685612a84565b611be19190612a84565b90506000611bf085600c612a84565b9050828082611c0085600c612b03565b611c0a9190612ac1565b611c149190612ac1565b975050505050505050610809565b5060009695505050505050565b7f9016d09d72d40fdae2fd8ceac6b6234c7706214fd39c1cd1e609a0528c19930080546001600160a01b031981166001600160a01b03848116918217845560405192169182907f8be0079c531659141344cd1fd0a4f28419497f9722a3daafe3b4186f6b6457e090600090a3505050565b611ca861186f565b600080516020612dd6833981519152805460ff191660011781557f62e78cea01bee320cd4e420270b5ea74000d11b0c9f74754ebdbfc544b05a2583361193a565b7fa16a46d94261c7517cc8ff89f61c0ce93598e3c849801011dee649a6a557d1028054606091600080516020612d2083398151915291611d2890612b1a565b80601f0160208091040260200160405190810160405280929190818152602001828054611d5490612b1a565b8015611da15780601f10611d7657610100808354040283529160200191611da1565b820191906000526020600020905b815481529060010190602001808311611d8457829003601f168201915b505050505091505090565b7fa16a46d94261c7517cc8ff89f61c0ce93598e3c849801011dee649a6a557d1038054606091600080516020612d2083398151915291611d2890612b1a565b611df3612029565b6117b381612072565b611e04612029565b61081f61207a565b611e14612029565b61081f612082565b611e24612029565b61075282826120a3565b600080516020612dd68339815191525460ff1661081f57604051638dfc202b60e01b815260040160405180910390fd5b6000611e68612104565b905090565b60008060008351604103611ea75760208401516040850151606086015160001a611e9988828585612178565b955095509550505050611eb3565b50508151600091506002905b9250925092565b6000826003811115611ece57611ece612940565b03611ed7575050565b6001826003811115611eeb57611eeb612940565b03611f095760405163f645eedf60e01b815260040160405180910390fd5b6002826003811115611f1d57611f1d612940565b03611f3e5760405163fce698f760e01b8152600481018290526024016105d5565b6003826003811115611f5257611f52612940565b03610752576040516335e2f38360e21b8152600481018290526024016105d5565b600080611f7f83612247565b90506000611fa6611f8f85611fef565b611f988661200f565b611fa18761227b565b612295565b905081600103611fb7579392505050565b6000611fc4600184612a84565b611fd19062015180612b03565b9050808210611fe457611b468183612a84565b506000949350505050565b60006120066120016201518084612aad565b6122b0565b50909392505050565b60006120216120016201518084612aad565b509392505050565b7ff0c57e16840df040f15088dc2f81fe391c3923bec73e23a9662efc9c229c6a0054600160401b900460ff1661081f57604051631afcd79f60e31b815260040160405180910390fd5b611780612029565b6118a0612029565b61208a612029565b600080516020612dd6833981519152805460ff19169055565b6120ab612029565b600080516020612d208339815191527fa16a46d94261c7517cc8ff89f61c0ce93598e3c849801011dee649a6a557d1026120e58482612b9e565b50600381016120f48382612b9e565b5060008082556001909101555050565b60007f8b73c3c69bb8fe3d512ecc4cf759cc79239f7b179b0ffacaa9a75d522b39400f61212f61234c565b6121376123b6565b60408051602081019490945283019190915260608201524660808201523060a082015260c00160405160208183030381529060405280519060200120905090565b600080807f7fffffffffffffffffffffffffffffff5d576e7357a4501ddfe92f46681b20a08411156121b3575060009150600390508261223d565b604080516000808252602082018084528a905260ff891692820192909252606081018790526080810186905260019060a0016020604051602081039080840390855afa158015612207573d6000803e3d6000fd5b5050604051601f1901519150506001600160a01b0381166122335750600092506001915082905061223d565b9250600091508190505b9450945094915050565b6000806122576201518084612aad565b90506007612266826003612ac1565b6122709190612c5e565b6112f3906001612ac1565b600061228d6120016201518084612aad565b949350505050565b6000620151806122a68585856123fa565b61228d9190612b03565b60008080836226496581018262023ab1600483020590506004600362023ab18302010590910390600062164b09610fa0600185010205905060046105b58202058303601f019250600061098f846050028161230d5761230d612a97565b0590506000605061098f83020585039050600b820560301994909401606402929092018301996002600c90940290910392909201975095509350505050565b6000600080516020612d2083398151915281612366611ce9565b80519091501561237e57805160209091012092915050565b8154801561238d579392505050565b7fc5d2460186f7233c927e7db2dcc703c0e500b653ca82273b7bfad8045d85a470935050505090565b6000600080516020612d20833981519152816123d0611dac565b8051909150156123e857805160209091012092915050565b6001820154801561238d579392505050565b60006107b284101561240b57600080fd5b838383600062253d8c60046064600c612425600e88612c72565b61242f9190612c99565b61243b88611324612cc7565b6124459190612cc7565b61244f9190612c99565b61245a906003612cef565b6124649190612c99565b600c80612472600e88612c72565b61247c9190612c99565b61248790600c612cef565b612492600288612c72565b61249c9190612c72565b6124a89061016f612cef565b6124b29190612c99565b6004600c6124c1600e89612c72565b6124cb9190612c99565b6124d7896112c0612cc7565b6124e19190612cc7565b6124ed906105b5612cef565b6124f79190612c99565b612503617d4b87612c72565b61250d9190612cc7565b6125179190612cc7565b6125219190612c72565b61252b9190612c72565b98975050505050505050565b600060e0828403121561254957600080fd5b50919050565b600060e0828403121561256157600080fd5b6112f38383612537565b80356001600160a01b038116811461258257600080fd5b919050565b6000806040838503121561259a57600080fd5b6125a38361256b565b946020939093013593505050565b6000602082840312156125c357600080fd5b6112f38261256b565b60008083601f8401126125de57600080fd5b50813567ffffffffffffffff8111156125f657600080fd5b60208301915083602082850101111561260e57600080fd5b9250929050565b6000806000806000610140868803121561262e57600080fd5b6126378661256b565b94506020860135935061264d8760408801612537565b925061012086013567ffffffffffffffff81111561266a57600080fd5b612676888289016125cc565b969995985093965092949392505050565b600080610100838503121561269b57600080fd5b6126a58484612537565b9460e0939093013593505050565b60005b838110156126ce5781810151838201526020016126b6565b50506000910152565b600081518084526126ef8160208601602086016126b3565b601f01601f19169290920160200192915050565b60ff60f81b881681526000602060e0602084015261272460e084018a6126d7565b8381036040850152612736818a6126d7565b606085018990526001600160a01b038816608086015260a0850187905284810360c08601528551808252602080880193509091019060005b8181101561278a5783518352928401929184019160010161276e565b50909c9b505050505050505050505050565b634e487b7160e01b600052604160045260246000fd5b6000602082840312156127c457600080fd5b813567ffffffffffffffff808211156127dc57600080fd5b818401915084601f8301126127f057600080fd5b8135818111156128025761280261279c565b604051601f8201601f19908116603f0116810190838211818310171561282a5761282a61279c565b8160405282815287602084870101111561284357600080fd5b826020860160208301376000928101602001929092525095945050505050565b6000806000610120848603121561287957600080fd5b6128838585612537565b9560e08501359550610100909401359392505050565b6000806000604084860312156128ae57600080fd5b833567ffffffffffffffff8111156128c557600080fd5b6128d1868287016125cc565b90945092506128e490506020850161256b565b90509250925092565b6000602082840312156128ff57600080fd5b5035919050565b60008060006060848603121561291b57600080fd5b6129248461256b565b92506129326020850161256b565b91506128e46040850161256b565b634e487b7160e01b600052602160045260246000fd5b8481526020810184905260408101839052608081016003831061297b5761297b612940565b82606083015295945050505050565b6000825161299c8184602087016126b3565b9190910192915050565b6000602082840312156129b857600080fd5b8135600581106112f357600080fd5b888152602081018890526101008101600588106129e6576129e6612940565b60408201979097526060810195909552608085019390935260a08401919091526001600160a01b0390811660c08401521660e09091015292915050565b600060208284031215612a3557600080fd5b815180151581146112f357600080fd5b600060208284031215612a5757600080fd5b5051919050565b8183823760009101908152919050565b634e487b7160e01b600052601160045260246000fd5b8181038181111561080957610809612a6e565b634e487b7160e01b600052601260045260246000fd5b600082612abc57612abc612a97565b500490565b8082018082111561080957610809612a6e565b60208152816020820152818360408301376000818301604090810191909152601f909201601f19160101919050565b808202811582820484141761080957610809612a6e565b600181811c90821680612b2e57607f821691505b60208210810361254957634e487b7160e01b600052602260045260246000fd5b601f821115611afb576000816000526020600020601f850160051c81016020861015612b775750805b601f850160051c820191505b81811015612b9657828155600101612b83565b505050505050565b815167ffffffffffffffff811115612bb857612bb861279c565b612bcc81612bc68454612b1a565b84612b4e565b602080601f831160018114612c015760008415612be95750858301515b600019600386901b1c1916600185901b178555612b96565b600085815260208120601f198616915b82811015612c3057888601518255948401946001909101908401612c11565b5085821015612c4e5787850151600019600388901b60f8161c191681555b5050505050600190811b01905550565b600082612c6d57612c6d612a97565b500690565b8181036000831280158383131683831282161715612c9257612c92612a6e565b5092915050565b600082612ca857612ca8612a97565b600160ff1b821460001984141615612cc257612cc2612a6e565b500590565b8082018281126000831280158216821582161715612ce757612ce7612a6e565b505092915050565b80820260008212600160ff1b84141615612d0b57612d0b612a6e565b818105831482151761080957610809612a6e56fea16a46d94261c7517cc8ff89f61c0ce93598e3c849801011dee649a6a557d1004275646765744c696d69742875696e7432353620616d6f756e742c75696e7438206672657175656e6379547970652c75696e7432353620637573746f6d4672657175656e63792c75696e74323536207374617274446174652c75696e7432353620656e64446174652c6164647265737320746f6b656e416464726573732c6164647265737320617070726f7665644164647265737329cd5ed15c6e187e77e9aee88184c21f4f2182ab5827cb3b7e07fbedcd63f03300a264697066735822122051f96f6ef0db25a6fce0d9d2937e34d3fa6fa21a6db8515268871732089c5a0964736f6c63430008180033",
  "linkReferences": {},
  "deployedLinkReferences": {}
}