{
  "_format": "hh-sol-artifact-1",
  "contractName": "ExpenseAccountEIP712",
  "sourceName": "contracts/expense-account/ExpenseAccountEIP712.sol",
  "abi": [
    {
      "inputs": [],
      "stateMutability": "nonpayable",
      "type": "constructor"
    },
    {
      "inputs": [],
      "name": "AmountExceedsBudgetLimit",
      "type": "error"
    },
    {
      "inputs": [],
      "name": "AmountExceedsPeriodBudget",
      "type": "error"
    },
    {
      "inputs": [
        {
          "internalType": "uint256",
          "name": "amount",
          "type": "uint256"
        }
      ],
      "name": "AmountPerPeriodExceeded",
      "type": "error"
    },
    {
      "inputs": [
        {
          "internalType": "uint256",
          "name": "amount",
          "type": "uint256"
        }
      ],
      "name": "AmountPerTransactionExceeded",
      "type": "error"
    },
    {
      "inputs": [
        {
          "internalType": "uint256",
          "name": "currentTime",
          "type": "uint256"
        },
        {
          "internalType": "uint256",
          "name": "endDate",
          "type": "uint256"
        }
      ],
      "name": "ApprovalExpired",
      "type": "error"
    },
    {
      "inputs": [
        {
          "internalType": "uint256",
          "name": "currentTime",
          "type": "uint256"
        },
        {
          "internalType": "uint256",
          "name": "startDate",
          "type": "uint256"
        }
      ],
      "name": "ApprovalNotActive",
      "type": "error"
    },
    {
      "inputs": [],
      "name": "BankContractNotFound",
      "type": "error"
    },
    {
      "inputs": [],
      "name": "ECDSAInvalidSignature",
      "type": "error"
    },
    {
      "inputs": [
        {
          "internalType": "uint256",
          "name": "length",
          "type": "uint256"
        }
      ],
      "name": "ECDSAInvalidSignatureLength",
      "type": "error"
    },
    {
      "inputs": [
        {
          "internalType": "bytes32",
          "name": "s",
          "type": "bytes32"
        }
      ],
      "name": "ECDSAInvalidSignatureS",
      "type": "error"
    },
    {
      "inputs": [],
      "name": "EnforcedPause",
      "type": "error"
    },
    {
      "inputs": [],
      "name": "ExpectedPause",
      "type": "error"
    },
    {
      "inputs": [],
      "name": "FailedCall",
      "type": "error"
    },
    {
      "inputs": [
        {
          "internalType": "uint256",
          "name": "balance",
          "type": "uint256"
        },
        {
          "internalType": "uint256",
          "name": "needed",
          "type": "uint256"
        }
      ],
      "name": "InsufficientBalance",
      "type": "error"
    },
    {
      "inputs": [
        {
          "internalType": "uint256",
          "name": "required",
          "type": "uint256"
        },
        {
          "internalType": "uint256",
          "name": "available",
          "type": "uint256"
        }
      ],
      "name": "InsufficientNativeBalance",
      "type": "error"
    },
    {
      "inputs": [
        {
          "internalType": "address",
          "name": "token",
          "type": "address"
        },
        {
          "internalType": "uint256",
          "name": "required",
          "type": "uint256"
        },
        {
          "internalType": "uint256",
          "name": "available",
          "type": "uint256"
        }
      ],
      "name": "InsufficientTokenBalance",
      "type": "error"
    },
    {
      "inputs": [],
      "name": "InvalidCustomFrequency",
      "type": "error"
    },
    {
      "inputs": [],
      "name": "InvalidFrequencyType",
      "type": "error"
    },
    {
      "inputs": [],
      "name": "InvalidInitialization",
      "type": "error"
    },
    {
      "inputs": [],
      "name": "NotInitializing",
      "type": "error"
    },
    {
      "inputs": [],
      "name": "OfficerAddressNotSet",
      "type": "error"
    },
    {
      "inputs": [],
      "name": "OneTimeBudgetAlreadyUsed",
      "type": "error"
    },
    {
      "inputs": [
        {
          "internalType": "address",
          "name": "owner",
          "type": "address"
        }
      ],
      "name": "OwnableInvalidOwner",
      "type": "error"
    },
    {
      "inputs": [
        {
          "internalType": "address",
          "name": "account",
          "type": "address"
        }
      ],
      "name": "OwnableUnauthorizedAccount",
      "type": "error"
    },
    {
      "inputs": [],
      "name": "ReentrancyGuardReentrantCall",
      "type": "error"
    },
    {
      "inputs": [
        {
          "internalType": "address",
          "name": "expected",
          "type": "address"
        },
        {
          "internalType": "address",
          "name": "actual",
          "type": "address"
        }
      ],
      "name": "SignerNotAuthorized",
      "type": "error"
    },
    {
      "inputs": [
        {
          "internalType": "address",
          "name": "expected",
          "type": "address"
        },
        {
          "internalType": "address",
          "name": "actual",
          "type": "address"
        }
      ],
      "name": "SpenderNotApproved",
      "type": "error"
    },
    {
      "inputs": [
        {
          "internalType": "address",
          "name": "token",
          "type": "address"
        }
      ],
      "name": "TokenNotSupported",
      "type": "error"
    },
    {
      "inputs": [
        {
          "internalType": "address",
          "name": "token",
          "type": "address"
        }
      ],
      "name": "TokenSupportAlreadyAdded",
      "type": "error"
    },
    {
      "inputs": [
        {
          "internalType": "address",
          "name": "token",
          "type": "address"
        }
      ],
      "name": "TokenSupportNotFound",
      "type": "error"
    },
    {
      "inputs": [],
      "name": "TokenSupportZeroAddress",
      "type": "error"
    },
    {
      "inputs": [
        {
          "internalType": "address",
          "name": "token",
          "type": "address"
        }
      ],
      "name": "TokenTransferFailed",
      "type": "error"
    },
    {
      "inputs": [],
      "name": "TransferNotAllowed",
      "type": "error"
    },
    {
      "inputs": [
        {
          "internalType": "address",
          "name": "expected",
          "type": "address"
        },
        {
          "internalType": "address",
          "name": "received",
          "type": "address"
        }
      ],
      "name": "UnauthorizedAccess",
      "type": "error"
    },
    {
      "inputs": [],
      "name": "ZeroAddress",
      "type": "error"
    },
    {
      "inputs": [],
      "name": "ZeroAmount",
      "type": "error"
    },
    {
      "anonymous": false,
      "inputs": [
        {
          "indexed": true,
          "internalType": "bytes32",
          "name": "signatureHash",
          "type": "bytes32"
        }
      ],
      "name": "ApprovalActivated",
      "type": "event"
    },
    {
      "anonymous": false,
      "inputs": [
        {
          "indexed": true,
          "internalType": "bytes32",
          "name": "signatureHash",
          "type": "bytes32"
        }
      ],
      "name": "ApprovalDeactivated",
      "type": "event"
    },
    {
      "anonymous": false,
      "inputs": [
        {
          "indexed": true,
          "internalType": "address",
          "name": "depositor",
          "type": "address"
        },
        {
          "indexed": false,
          "internalType": "uint256",
          "name": "amount",
          "type": "uint256"
        }
      ],
      "name": "Deposited",
      "type": "event"
    },
    {
      "anonymous": false,
      "inputs": [],
      "name": "EIP712DomainChanged",
      "type": "event"
    },
    {
      "anonymous": false,
      "inputs": [
        {
          "indexed": false,
          "internalType": "uint64",
          "name": "version",
          "type": "uint64"
        }
      ],
      "name": "Initialized",
      "type": "event"
    },
    {
      "anonymous": false,
      "inputs": [
        {
          "indexed": true,
          "internalType": "address",
          "name": "ownerAddress",
          "type": "address"
        },
        {
          "indexed": false,
          "internalType": "uint256",
          "name": "amount",
          "type": "uint256"
        }
      ],
      "name": "OwnerTreasuryWithdrawNative",
      "type": "event"
    },
    {
      "anonymous": false,
      "inputs": [
        {
          "indexed": true,
          "internalType": "address",
          "name": "ownerAddress",
          "type": "address"
        },
        {
          "indexed": true,
          "internalType": "address",
          "name": "token",
          "type": "address"
        },
        {
          "indexed": false,
          "internalType": "uint256",
          "name": "amount",
          "type": "uint256"
        }
      ],
      "name": "OwnerTreasuryWithdrawToken",
      "type": "event"
    },
    {
      "anonymous": false,
      "inputs": [
        {
          "indexed": true,
          "internalType": "address",
          "name": "previousOwner",
          "type": "address"
        },
        {
          "indexed": true,
          "internalType": "address",
          "name": "newOwner",
          "type": "address"
        }
      ],
      "name": "OwnershipTransferred",
      "type": "event"
    },
    {
      "anonymous": false,
      "inputs": [
        {
          "indexed": false,
          "internalType": "address",
          "name": "account",
          "type": "address"
        }
      ],
      "name": "Paused",
      "type": "event"
    },
    {
      "anonymous": false,
      "inputs": [
        {
          "indexed": true,
          "internalType": "address",
          "name": "addressWhoChanged",
          "type": "address"
        },
        {
          "indexed": false,
          "internalType": "string",
          "name": "tokenSymbol",
          "type": "string"
        },
        {
          "indexed": true,
          "internalType": "address",
          "name": "oldAddress",
          "type": "address"
        },
        {
          "indexed": true,
          "internalType": "address",
          "name": "newAddress",
          "type": "address"
        }
      ],
      "name": "TokenAddressChanged",
      "type": "event"
    },
    {
      "anonymous": false,
      "inputs": [
        {
          "indexed": true,
          "internalType": "address",
          "name": "depositor",
          "type": "address"
        },
        {
          "indexed": true,
          "internalType": "address",
          "name": "token",
          "type": "address"
        },
        {
          "indexed": false,
          "internalType": "uint256",
          "name": "amount",
          "type": "uint256"
        }
      ],
      "name": "TokenDeposited",
      "type": "event"
    },
    {
      "anonymous": false,
      "inputs": [
        {
          "indexed": true,
          "internalType": "address",
          "name": "tokenAddress",
          "type": "address"
        }
      ],
      "name": "TokenSupportAdded",
      "type": "event"
    },
    {
      "anonymous": false,
      "inputs": [
        {
          "indexed": true,
          "internalType": "address",
          "name": "tokenAddress",
          "type": "address"
        }
      ],
      "name": "TokenSupportRemoved",
      "type": "event"
    },
    {
      "anonymous": false,
      "inputs": [
        {
          "indexed": true,
          "internalType": "address",
          "name": "withdrawer",
          "type": "address"
        },
        {
          "indexed": true,
          "internalType": "address",
          "name": "to",
          "type": "address"
        },
        {
          "indexed": true,
          "internalType": "address",
          "name": "token",
          "type": "address"
        },
        {
          "indexed": false,
          "internalType": "uint256",
          "name": "amount",
          "type": "uint256"
        }
      ],
      "name": "TokenTransfer",
      "type": "event"
    },
    {
      "anonymous": false,
      "inputs": [
        {
          "indexed": true,
          "internalType": "address",
          "name": "withdrawer",
          "type": "address"
        },
        {
          "indexed": true,
          "internalType": "address",
          "name": "to",
          "type": "address"
        },
        {
          "indexed": false,
          "internalType": "uint256",
          "name": "amount",
          "type": "uint256"
        }
      ],
      "name": "Transfer",
      "type": "event"
    },
    {
      "anonymous": false,
      "inputs": [
        {
          "indexed": false,
          "internalType": "address",
          "name": "account",
          "type": "address"
        }
      ],
      "name": "Unpaused",
      "type": "event"
    },
    {
      "inputs": [
        {
          "internalType": "bytes32",
          "name": "signatureHash",
          "type": "bytes32"
        }
      ],
      "name": "activateApproval",
      "outputs": [],
      "stateMutability": "nonpayable",
      "type": "function"
    },
    {
      "inputs": [
        {
          "internalType": "address",
          "name": "_tokenAddress",
          "type": "address"
        }
      ],
      "name": "addTokenSupport",
      "outputs": [],
      "stateMutability": "nonpayable",
      "type": "function"
    },
    {
      "inputs": [
        {
          "components": [
            {
              "internalType": "uint256",
              "name": "amount",
              "type": "uint256"
            },
            {
              "internalType": "enum ExpenseAccountEIP712.FrequencyType",
              "name": "frequencyType",
              "type": "uint8"
            },
            {
              "internalType": "uint256",
              "name": "customFrequency",
              "type": "uint256"
            },
            {
              "internalType": "uint256",
              "name": "startDate",
              "type": "uint256"
            },
            {
              "internalType": "uint256",
              "name": "endDate",
              "type": "uint256"
            },
            {
              "internalType": "address",
              "name": "tokenAddress",
              "type": "address"
            },
            {
              "internalType": "address",
              "name": "approvedAddress",
              "type": "address"
            }
          ],
          "internalType": "struct ExpenseAccountEIP712.BudgetLimit",
          "name": "budgetLimit",
          "type": "tuple"
        }
      ],
      "name": "budgetLimitHash",
      "outputs": [
        {
          "internalType": "bytes32",
          "name": "",
          "type": "bytes32"
        }
      ],
      "stateMutability": "pure",
      "type": "function"
    },
    {
      "inputs": [
        {
          "internalType": "bytes32",
          "name": "signatureHash",
          "type": "bytes32"
        }
      ],
      "name": "deactivateApproval",
      "outputs": [],
      "stateMutability": "nonpayable",
      "type": "function"
    },
    {
      "inputs": [
        {
          "internalType": "address",
          "name": "token",
          "type": "address"
        },
        {
          "internalType": "uint256",
          "name": "amount",
          "type": "uint256"
        }
      ],
      "name": "depositToken",
      "outputs": [],
      "stateMutability": "nonpayable",
      "type": "function"
    },
    {
      "inputs": [],
      "name": "eip712Domain",
      "outputs": [
        {
          "internalType": "bytes1",
          "name": "fields",
          "type": "bytes1"
        },
        {
          "internalType": "string",
          "name": "name",
          "type": "string"
        },
        {
          "internalType": "string",
          "name": "version",
          "type": "string"
        },
        {
          "internalType": "uint256",
          "name": "chainId",
          "type": "uint256"
        },
        {
          "internalType": "address",
          "name": "verifyingContract",
          "type": "address"
        },
        {
          "internalType": "bytes32",
          "name": "salt",
          "type": "bytes32"
        },
        {
          "internalType": "uint256[]",
          "name": "extensions",
          "type": "uint256[]"
        }
      ],
      "stateMutability": "view",
      "type": "function"
    },
    {
      "inputs": [
        {
          "internalType": "bytes32",
          "name": "",
          "type": "bytes32"
        }
      ],
      "name": "expenseBalances",
      "outputs": [
        {
          "internalType": "uint256",
          "name": "lastWithdrawnDate",
          "type": "uint256"
        },
        {
          "internalType": "uint256",
          "name": "totalWithdrawn",
          "type": "uint256"
        },
        {
          "internalType": "uint256",
          "name": "lastWithdrawnPeriod",
          "type": "uint256"
        },
        {
          "internalType": "enum ExpenseAccountEIP712.ApprovalState",
          "name": "state",
          "type": "uint8"
        }
      ],
      "stateMutability": "view",
      "type": "function"
    },
    {
      "inputs": [],
      "name": "getBalance",
      "outputs": [
        {
          "internalType": "uint256",
          "name": "",
          "type": "uint256"
        }
      ],
      "stateMutability": "view",
      "type": "function"
    },
    {
      "inputs": [
        {
          "components": [
            {
              "internalType": "uint256",
              "name": "amount",
              "type": "uint256"
            },
            {
              "internalType": "enum ExpenseAccountEIP712.FrequencyType",
              "name": "frequencyType",
              "type": "uint8"
            },
            {
              "internalType": "uint256",
              "name": "customFrequency",
              "type": "uint256"
            },
            {
              "internalType": "uint256",
              "name": "startDate",
              "type": "uint256"
            },
            {
              "internalType": "uint256",
              "name": "endDate",
              "type": "uint256"
            },
            {
              "internalType": "address",
              "name": "tokenAddress",
              "type": "address"
            },
            {
              "internalType": "address",
              "name": "approvedAddress",
              "type": "address"
            }
          ],
          "internalType": "struct ExpenseAccountEIP712.BudgetLimit",
          "name": "budgetLimit",
          "type": "tuple"
        }
      ],
      "name": "getCurrentPeriod",
      "outputs": [
        {
          "internalType": "uint256",
          "name": "",
          "type": "uint256"
        }
      ],
      "stateMutability": "view",
      "type": "function"
    },
    {
      "inputs": [
        {
          "components": [
            {
              "internalType": "uint256",
              "name": "amount",
              "type": "uint256"
            },
            {
              "internalType": "enum ExpenseAccountEIP712.FrequencyType",
              "name": "frequencyType",
              "type": "uint8"
            },
            {
              "internalType": "uint256",
              "name": "customFrequency",
              "type": "uint256"
            },
            {
              "internalType": "uint256",
              "name": "startDate",
              "type": "uint256"
            },
            {
              "internalType": "uint256",
              "name": "endDate",
              "type": "uint256"
            },
            {
              "internalType": "address",
              "name": "tokenAddress",
              "type": "address"
            },
            {
              "internalType": "address",
              "name": "approvedAddress",
              "type": "address"
            }
          ],
          "internalType": "struct ExpenseAccountEIP712.BudgetLimit",
          "name": "budgetLimit",
          "type": "tuple"
        },
        {
          "internalType": "uint256",
          "name": "timestamp",
          "type": "uint256"
        }
      ],
      "name": "getPeriod",
      "outputs": [
        {
          "internalType": "uint256",
          "name": "",
          "type": "uint256"
        }
      ],
      "stateMutability": "pure",
      "type": "function"
    },
    {
      "inputs": [],
      "name": "getSupportedTokenCount",
      "outputs": [
        {
          "internalType": "uint256",
          "name": "",
          "type": "uint256"
        }
      ],
      "stateMutability": "view",
      "type": "function"
    },
    {
      "inputs": [],
      "name": "getSupportedTokens",
      "outputs": [
        {
          "internalType": "address[]",
          "name": "",
          "type": "address[]"
        }
      ],
      "stateMutability": "view",
      "type": "function"
    },
    {
      "inputs": [
        {
          "internalType": "address",
          "name": "token",
          "type": "address"
        }
      ],
      "name": "getTokenBalance",
      "outputs": [
        {
          "internalType": "uint256",
          "name": "",
          "type": "uint256"
        }
      ],
      "stateMutability": "view",
      "type": "function"
    },
    {
      "inputs": [
        {
          "internalType": "address",
          "name": "owner",
          "type": "address"
        },
        {
          "internalType": "address[]",
          "name": "_tokenAddresses",
          "type": "address[]"
        }
      ],
      "name": "initialize",
      "outputs": [],
      "stateMutability": "nonpayable",
      "type": "function"
    },
    {
      "inputs": [
        {
          "components": [
            {
              "internalType": "uint256",
              "name": "amount",
              "type": "uint256"
            },
            {
              "internalType": "enum ExpenseAccountEIP712.FrequencyType",
              "name": "frequencyType",
              "type": "uint8"
            },
            {
              "internalType": "uint256",
              "name": "customFrequency",
              "type": "uint256"
            },
            {
              "internalType": "uint256",
              "name": "startDate",
              "type": "uint256"
            },
            {
              "internalType": "uint256",
              "name": "endDate",
              "type": "uint256"
            },
            {
              "internalType": "address",
              "name": "tokenAddress",
              "type": "address"
            },
            {
              "internalType": "address",
              "name": "approvedAddress",
              "type": "address"
            }
          ],
          "internalType": "struct ExpenseAccountEIP712.BudgetLimit",
          "name": "budgetLimit",
          "type": "tuple"
        },
        {
          "internalType": "bytes32",
          "name": "signatureHash",
          "type": "bytes32"
        }
      ],
      "name": "isNewPeriod",
      "outputs": [
        {
          "internalType": "bool",
          "name": "",
          "type": "bool"
        }
      ],
      "stateMutability": "view",
      "type": "function"
    },
    {
      "inputs": [
        {
          "internalType": "address",
          "name": "_token",
          "type": "address"
        }
      ],
      "name": "isTokenSupported",
      "outputs": [
        {
          "internalType": "bool",
          "name": "",
          "type": "bool"
        }
      ],
      "stateMutability": "view",
      "type": "function"
    },
    {
      "inputs": [],
      "name": "officerAddress",
      "outputs": [
        {
          "internalType": "address",
          "name": "",
          "type": "address"
        }
      ],
      "stateMutability": "view",
      "type": "function"
    },
    {
      "inputs": [],
      "name": "owner",
      "outputs": [
        {
          "internalType": "address",
          "name": "",
          "type": "address"
        }
      ],
      "stateMutability": "view",
      "type": "function"
    },
    {
      "inputs": [],
      "name": "ownerWithdrawAllToBank",
      "outputs": [],
      "stateMutability": "nonpayable",
      "type": "function"
    },
    {
      "inputs": [],
      "name": "pause",
      "outputs": [],
      "stateMutability": "nonpayable",
      "type": "function"
    },
    {
      "inputs": [],
      "name": "paused",
      "outputs": [
        {
          "internalType": "bool",
          "name": "",
          "type": "bool"
        }
      ],
      "stateMutability": "view",
      "type": "function"
    },
    {
      "inputs": [
        {
          "internalType": "address",
          "name": "_tokenAddress",
          "type": "address"
        }
      ],
      "name": "removeTokenSupport",
      "outputs": [],
      "stateMutability": "nonpayable",
      "type": "function"
    },
    {
      "inputs": [],
      "name": "renounceOwnership",
      "outputs": [],
      "stateMutability": "nonpayable",
      "type": "function"
    },
    {
      "inputs": [
        {
          "internalType": "address",
          "name": "_officerAddress",
          "type": "address"
        }
      ],
      "name": "setOfficerAddress",
      "outputs": [],
      "stateMutability": "nonpayable",
      "type": "function"
    },
    {
      "inputs": [
        {
          "internalType": "address",
          "name": "to",
          "type": "address"
        },
        {
          "internalType": "uint256",
          "name": "amount",
          "type": "uint256"
        },
        {
          "components": [
            {
              "internalType": "uint256",
              "name": "amount",
              "type": "uint256"
            },
            {
              "internalType": "enum ExpenseAccountEIP712.FrequencyType",
              "name": "frequencyType",
              "type": "uint8"
            },
            {
              "internalType": "uint256",
              "name": "customFrequency",
              "type": "uint256"
            },
            {
              "internalType": "uint256",
              "name": "startDate",
              "type": "uint256"
            },
            {
              "internalType": "uint256",
              "name": "endDate",
              "type": "uint256"
            },
            {
              "internalType": "address",
              "name": "tokenAddress",
              "type": "address"
            },
            {
              "internalType": "address",
              "name": "approvedAddress",
              "type": "address"
            }
          ],
          "internalType": "struct ExpenseAccountEIP712.BudgetLimit",
          "name": "budgetLimit",
          "type": "tuple"
        },
        {
          "internalType": "bytes",
          "name": "signature",
          "type": "bytes"
        }
      ],
      "name": "transfer",
      "outputs": [],
      "stateMutability": "nonpayable",
      "type": "function"
    },
    {
      "inputs": [
        {
          "internalType": "address",
          "name": "newOwner",
          "type": "address"
        }
      ],
      "name": "transferOwnership",
      "outputs": [],
      "stateMutability": "nonpayable",
      "type": "function"
    },
    {
      "inputs": [],
      "name": "unpause",
      "outputs": [],
      "stateMutability": "nonpayable",
      "type": "function"
    },
    {
      "inputs": [
        {
          "components": [
            {
              "internalType": "uint256",
              "name": "amount",
              "type": "uint256"
            },
            {
              "internalType": "enum ExpenseAccountEIP712.FrequencyType",
              "name": "frequencyType",
              "type": "uint8"
            },
            {
              "internalType": "uint256",
              "name": "customFrequency",
              "type": "uint256"
            },
            {
              "internalType": "uint256",
              "name": "startDate",
              "type": "uint256"
            },
            {
              "internalType": "uint256",
              "name": "endDate",
              "type": "uint256"
            },
            {
              "internalType": "address",
              "name": "tokenAddress",
              "type": "address"
            },
            {
              "internalType": "address",
              "name": "approvedAddress",
              "type": "address"
            }
          ],
          "internalType": "struct ExpenseAccountEIP712.BudgetLimit",
          "name": "budgetLimit",
          "type": "tuple"
        },
        {
          "internalType": "uint256",
          "name": "amount",
          "type": "uint256"
        },
        {
          "internalType": "bytes32",
          "name": "signatureHash",
          "type": "bytes32"
        }
      ],
      "name": "validateTransfer",
      "outputs": [
        {
          "internalType": "bool",
          "name": "",
          "type": "bool"
        }
      ],
      "stateMutability": "view",
      "type": "function"
    },
    {
      "stateMutability": "payable",
      "type": "receive"
    }
  ],
  "bytecode": "0x60806040523480156200001157600080fd5b506200001c62000022565b620000d6565b7ff0c57e16840df040f15088dc2f81fe391c3923bec73e23a9662efc9c229c6a00805468010000000000000000900460ff1615620000735760405163f92ee8a960e01b815260040160405180910390fd5b80546001600160401b0390811614620000d35780546001600160401b0319166001600160401b0390811782556040519081527fc7f505b2f371ae2175ee4913f4499e1f2633a7b5936321eed1cdaeb6115181d29060200160405180910390a15b50565b61334980620000e66000396000f3fe6080604052600436106101bb5760003560e01c8063733c237d116100ec578063bccb212a1161008a578063de98253411610064578063de982534146104f1578063ec681b6114610511578063f2fde38b14610568578063fc55ed771461058857600080fd5b8063bccb212a1461049a578063ce67be26146104ba578063d3c7c2c7146104cf57600080fd5b806384b0196e116100c657806384b0196e1461041d5780638da5cb5b14610445578063946d92041461045a578063a5b8eba51461047a57600080fd5b8063733c237d146103c857806375151b63146103e85780638456cb591461040857600080fd5b80633c5f15e711610159578063549025df11610133578063549025df14610342578063582df647146103625780635c975abb14610382578063715018a6146103b357600080fd5b80633c5f15e7146102ed5780633f4ba83a1461030d5780633fd1b14a1461032257600080fd5b80632ba8d939116101955780632ba8d93914610255578063315f77ef14610275578063338b5dea146102ad5780633aecd0e3146102cd57600080fd5b8063085f27fc146101fc57806312065fe0146102135780632a46aa971461023557600080fd5b366101f75760405134815233907f2da466a7b24304f47e87fa2e1e5a81b9831ce54fec19055ce277ca2f39ba42c49060200160405180910390a2005b600080fd5b34801561020857600080fd5b506102116105a8565b005b34801561021f57600080fd5b50475b6040519081526020015b60405180910390f35b34801561024157600080fd5b506102226102503660046129f9565b61097b565b34801561026157600080fd5b50610211610270366004612a2a565b610a37565b34801561028157600080fd5b50600354610295906001600160a01b031681565b6040516001600160a01b03909116815260200161022c565b3480156102b957600080fd5b506102116102c8366004612a47565b610a4b565b3480156102d957600080fd5b506102226102e8366004612a2a565b610bbd565b3480156102f957600080fd5b50610211610308366004612a2a565b610c74565b34801561031957600080fd5b50610211610cc5565b34801561032e57600080fd5b5061021161033d366004612a73565b610cd5565b34801561034e57600080fd5b5061022261035d366004612b13565b61111f565b34801561036e57600080fd5b5061022261037d3660046129f9565b611295565b34801561038e57600080fd5b506000805160206132d48339815191525460ff165b604051901515815260200161022c565b3480156103bf57600080fd5b506102116112a1565b3480156103d457600080fd5b506102116103e3366004612a2a565b6112b3565b3480156103f457600080fd5b506103a3610403366004612a2a565b6112c4565b34801561041457600080fd5b506102116112d0565b34801561042957600080fd5b506104326112e0565b60405161022c9796959493929190612b8f565b34801561045157600080fd5b5061029561138c565b34801561046657600080fd5b50610211610475366004612c28565b6113ba565b34801561048657600080fd5b506103a3610495366004612cb0565b611683565b3480156104a657600080fd5b506102116104b5366004612ce6565b611868565b3480156104c657600080fd5b506102226118b9565b3480156104db57600080fd5b506104e46118ca565b60405161022c9190612cff565b3480156104fd57600080fd5b5061021161050c366004612ce6565b6118d6565b34801561051d57600080fd5b5061055861052c366004612ce6565b600260208190526000918252604090912080546001820154928201546003909201549092919060ff1684565b60405161022c9493929190612d62565b34801561057457600080fd5b50610211610583366004612a2a565b611924565b34801561059457600080fd5b506103a36105a3366004612b13565b61195f565b6105b06119ce565b6105b8611a00565b6105c0611a38565b6003546001600160a01b03166105e957604051632000098360e11b815260040160405180910390fd5b60035460405163040a4ce560e21b81526000916001600160a01b0316906310293394906106319060040160208082526004908201526342616e6b60e01b604082015260600190565b602060405180830381865afa15801561064e573d6000803e3d6000fd5b505050506040513d601f19601f820116820180604052508101906106729190612da6565b90506001600160a01b03811661069b57604051634c1ce52b60e01b815260040160405180910390fd5b478015610700576106b56001600160a01b03831682611a69565b6106bd61138c565b6001600160a01b03167f4d9676ed3c7e652a835f91b6e46ca5a9de07f3b7a97f1845ab5e635e2a953be4826040516106f791815260200190565b60405180910390a25b6000306001600160a01b031663d3c7c2c76040518163ffffffff1660e01b8152600401600060405180830381865afa158015610740573d6000803e3d6000fd5b505050506040513d6000823e601f3d908101601f191682016040526107689190810190612dd9565b905060005b815181101561095e57600082828151811061078a5761078a612e92565b60209081029190910101516040516370a0823160e01b81523060048201526001600160a01b03909116906370a0823190602401602060405180830381865afa1580156107da573d6000803e3d6000fd5b505050506040513d601f19601f820116820180604052508101906107fe9190612ea8565b905080156109555782828151811061081857610818612e92565b602090810291909101015160405163a9059cbb60e01b81526001600160a01b038781166004830152602482018490529091169063a9059cbb906044016020604051808303816000875af1158015610873573d6000803e3d6000fd5b505050506040513d601f19601f820116820180604052508101906108979190612ec1565b6108e7578282815181106108ad576108ad612e92565b6020026020010151604051632b596cb760e01b81526004016108de91906001600160a01b0391909116815260200190565b60405180910390fd5b8282815181106108f9576108f9612e92565b60200260200101516001600160a01b031661091261138c565b6001600160a01b03167fe2684a45ae801408de30c0254c2019cd0ecea430606518d367c2f930ee6c30d78360405161094c91815260200190565b60405180910390a35b5060010161076d565b5050505061097960016000805160206132f483398151915255565b565b60006040518060c001604052806096815260200161323e609691396040516020016109a69190612ee3565b6040516020818303038152906040528051906020012082600001358360200160208101906109d49190612eff565b6040850135606086013560808701356109f360c0890160a08a01612a2a565b610a0360e08a0160c08b01612a2a565b604051602001610a1a989796959493929190612f20565b604051602081830303815290604052805190602001209050919050565b610a3f6119ce565b610a4881611b20565b50565b610a53611a00565b610a5b611a38565b6001600160a01b03821615801590610a795750610a77826112c4565b155b15610aa2576040516306439c6b60e01b81526001600160a01b03831660048201526024016108de565b80600003610ac357604051631f2a200560e01b815260040160405180910390fd5b6040516323b872dd60e01b8152336004820152306024820152604481018290526001600160a01b038316906323b872dd906064016020604051808303816000875af1158015610b16573d6000803e3d6000fd5b505050506040513d601f19601f82011682018060405250810190610b3a9190612ec1565b610b6257604051632b596cb760e01b81526001600160a01b03831660048201526024016108de565b6040518181526001600160a01b0383169033907ff1444b5cad7ce70cb018d1b8edc8618fe303f3c7f034d8d572a6e27facbf2bef9060200160405180910390a3610bb960016000805160206132f483398151915255565b5050565b60006001600160a01b03821615801590610bdd5750610bdb826112c4565b155b15610c06576040516306439c6b60e01b81526001600160a01b03831660048201526024016108de565b6040516370a0823160e01b81523060048201526001600160a01b038316906370a0823190602401602060405180830381865afa158015610c4a573d6000803e3d6000fd5b505050506040513d601f19601f82011682018060405250810190610c6e9190612ea8565b92915050565b610c7c6119ce565b6001600160a01b038116610ca35760405163d92e233d60e01b815260040160405180910390fd5b600380546001600160a01b0319166001600160a01b0392909216919091179055565b610ccd6119ce565b610979611bb1565b6001600160a01b038516610cfc5760405163d92e233d60e01b815260040160405180910390fd5b610d0c60e0840160c08501612a2a565b6001600160a01b0316336001600160a01b031614610d5f57610d3460e0840160c08501612a2a565b604051632e088ed960e21b81526001600160a01b0390911660048201523360248201526044016108de565b6000610d72610d6d8561097b565b611c11565b90506000610db884848080601f0160208091040260200160405190810160405280939291908181526020018383808284376000920191909152508693925050611c3e9050565b9050610dc261138c565b6001600160a01b0316816001600160a01b031614610e0f57610de261138c565b60405163d55801b160e01b81526001600160a01b03918216600482015290821660248201526044016108de565b60008484604051610e21929190612f7c565b60405180910390209050610e36868883611683565b610e5357604051638cd22d1960e01b815260040160405180910390fd5b610e5e868883611c68565b6000610e7060c0880160a08901612a2a565b6001600160a01b031603610f1c5786471015610ea857604051636be8f03f60e01b8152600481018890524760248201526044016108de565b610ebb6001600160a01b03891688611a69565b6001600160a01b038816610ed560e0880160c08901612a2a565b6001600160a01b03167fddf252ad1be2c89b69c2b068fc378daa952ba7f163c4a11628f55a4df523b3ef89604051610f0f91815260200190565b60405180910390a3611115565b6000610f2e60c0880160a08901612a2a565b6040516370a0823160e01b81523060048201526001600160a01b0391909116906370a0823190602401602060405180830381865afa158015610f74573d6000803e3d6000fd5b505050506040513d601f19601f82011682018060405250810190610f989190612ea8565b905087811015610fe557610fb260c0880160a08901612a2a565b60405163ebd6ced960e01b81526001600160a01b03909116600482015260248101899052604481018290526064016108de565b610ff560c0880160a08901612a2a565b60405163a9059cbb60e01b81526001600160a01b038b81166004830152602482018b9052919091169063a9059cbb906044016020604051808303816000875af1158015611046573d6000803e3d6000fd5b505050506040513d601f19601f8201168201806040525081019061106a9190612ec1565b6110a35761107e60c0880160a08901612a2a565b604051632b596cb760e01b81526001600160a01b0390911660048201526024016108de565b6110b360c0880160a08901612a2a565b6001600160a01b03908116908a166110d160e08a0160c08b01612a2a565b6001600160a01b03167fae33cb06d7303f889d953bb09540983050163c1c4c98b330db432a911cfb63fd8b60405161110b91815260200190565b60405180910390a4505b5050505050505050565b6000826060013582101561113557506000610c6e565b60006111476040850160208601612eff565b600481111561115857611158612d4c565b0361116557506000610c6e565b60016111776040850160208601612eff565b600481111561118857611188612d4c565b036111b0576201518061119f606085013584612fa2565b6111a99190612fcb565b9050610c6e565b60026111c26040850160208601612eff565b60048111156111d3576111d3612d4c565b036111e6576111a9836060013583611d16565b60036111f86040850160208601612eff565b600481111561120957611209612d4c565b0361121c576111a9836060013583611d65565b600461122e6040850160208601612eff565b600481111561123f5761123f612d4c565b0361127c5782604001356000036112695760405163a6b97aa360e01b815260040160405180910390fd5b604083013561119f606085013584612fa2565b60405163d659cd0f60e01b815260040160405180910390fd5b6000610c6e824261111f565b6112a96119ce565b6109796000611e45565b6112bb6119ce565b610a4881611eb6565b6000610c6e8183611f47565b6112d86119ce565b610979611f69565b6000606080828080838160008051602061321e833981519152805490915015801561130d57506001810154155b6113515760405162461bcd60e51b81526020600482015260156024820152741152540dcc4c8e88155b9a5b9a5d1a585b1a5e9959605a1b60448201526064016108de565b611359611fb2565b611361612075565b60408051600080825260208201909252600f60f81b9c939b5091995046985030975095509350915050565b7f9016d09d72d40fdae2fd8ceac6b6234c7706214fd39c1cd1e609a0528c199300546001600160a01b031690565b7ff0c57e16840df040f15088dc2f81fe391c3923bec73e23a9662efc9c229c6a008054600160401b810460ff16159067ffffffffffffffff166000811580156114005750825b905060008267ffffffffffffffff16600114801561141d5750303b155b90508115801561142b575080155b156114495760405163f92ee8a960e01b815260040160405180910390fd5b845467ffffffffffffffff19166001178555831561147357845460ff60401b1916600160401b1785555b6001600160a01b03881661149a5760405163d92e233d60e01b815260040160405180910390fd5b6114a3886120b4565b6114ab6120c5565b6114f76040518060400160405280601181526020017010d390d15e1c195b9cd95058d8dbdd5b9d607a1b815250604051806040016040528060018152602001603160f81b8152506120d5565b6114ff6120e7565b3361151d5760405163d92e233d60e01b815260040160405180910390fd5b600380546001600160a01b031916331790558560005b818110156115c257600089898381811061154f5761154f612e92565b90506020020160208101906115649190612a2a565b6001600160a01b03160361158b5760405163d92e233d60e01b815260040160405180910390fd5b6115ba8989838181106115a0576115a0612e92565b90506020020160208101906115b59190612a2a565b611eb6565b600101611533565b5060005b81811015611632578888828181106115e0576115e0612e92565b90506020020160208101906115f59190612a2a565b6001600160a01b03167f8f50fda9bf5d3b403c53b7e91646abd507f8cebf2577655d55d7de3926168b1760405160405180910390a26001016115c6565b5050831561111557845460ff60401b19168555604051600181527fc7f505b2f371ae2175ee4913f4499e1f2633a7b5936321eed1cdaeb6115181d29060200160405180910390a15050505050505050565b600083606001354210156116b65760405163da76ced560e01b8152426004820152606085013560248201526044016108de565b83608001354211156116e75760405163b14a92cd60e01b8152426004820152608085013560248201526044016108de565b83358311156117095760405163224ef40960e21b815260040160405180910390fd5b6000828152600260205260408120906117286040870160208801612eff565b600481111561173957611739612d4c565b0361176b57600181015415611761576040516373522fb360e11b815260040160405180910390fd5b6001915050611861565b600061177686611295565b9050816002015481118061178957508154155b156117b55785358511156117b0576040516375616c7360e01b815260040160405180910390fd5b6117e7565b60018201548635906117c8908790612fdf565b11156117e7576040516375616c7360e01b815260040160405180910390fd5b60006117f960c0880160a08901612a2a565b6001600160a01b031614158015611820575061181e61040360c0880160a08901612a2a565b155b1561185a5761183560c0870160a08801612a2a565b6040516306439c6b60e01b81526001600160a01b0390911660048201526024016108de565b6001925050505b9392505050565b6118706119ce565b6000818152600260208190526040808320600301805460ff19169092179091555182917fe7d3eeb38329f442545ad499afa197225d3b880a08e091ad2c2c244d6236fa0e91a250565b60006118c560006120f7565b905090565b60606118c56000612101565b6118de6119ce565b600081815260026020526040808220600301805460ff191660011790555182917f5e927cbcc58ec12d6f3fbe317ac4ef30466cfcdddf0be5c85eefab4670b73c3691a250565b61192c6119ce565b6001600160a01b03811661195657604051631e4fbdf760e01b8152600060048201526024016108de565b610a4881611e45565b6000806119726040850160208601612eff565b600481111561198357611983612d4c565b0361199057506000610c6e565b600082815260026020526040812080549091036119b1576001915050610c6e565b60006119bc85611295565b60029092015490911191505092915050565b336119d761138c565b6001600160a01b0316146109795760405163118cdaa760e01b81523360048201526024016108de565b6000805160206132f4833981519152805460011901611a3257604051633ee5aeb560e01b815260040160405180910390fd5b60029055565b6000805160206132d48339815191525460ff16156109795760405163d93c066560e01b815260040160405180910390fd5b80471015611a935760405163cf47918160e01b8152476004820152602481018290526044016108de565b6000826001600160a01b03168260405160006040518083038185875af1925050503d8060008114611ae0576040519150601f19603f3d011682016040523d82523d6000602084013e611ae5565b606091505b5050905080611b075760405163d6bda27560e01b815260040160405180910390fd5b505050565b60016000805160206132f483398151915255565b6001600160a01b038116611b4757604051634b082a2d60e11b815260040160405180910390fd5b611b5260008261210e565b611b7a576040516344eb3dc360e11b81526001600160a01b03821660048201526024016108de565b6040516001600160a01b038216907f1cef54ca6e1745ad87fa3077491d9fc42257e9f1a2d7cad58a4e52bd14dfc62690600090a250565b611bb9612123565b6000805160206132d4833981519152805460ff191681557f5db9ee0a495bf2e6ff9c91a7834c1ba4fdd244a5e8aa4e537bd38aeae4b073aa335b6040516001600160a01b03909116815260200160405180910390a150565b6000610c6e611c1e612153565b8360405161190160f01b8152600281019290925260228201526042902090565b600080600080611c4e868661215d565b925092509250611c5e82826121aa565b5090949350505050565b600081815260026020526040812090611c8085611295565b90506000611c946040870160208801612eff565b6004811115611ca557611ca5612d4c565b03611cc95783826001016000828254611cbe9190612fdf565b90915550611d0f9050565b8160020154811180611cda57508154155b15611cf5576001820184905560028201819055428255611d0f565b83826001016000828254611d099190612fdf565b90915550505b5050505050565b600080611d2284612263565b90506000611d2f84612263565b905081811015611d4457600092505050610c6e565b62093a80611d528383612fa2565b611d5c9190612fcb565b95945050505050565b600080611d71846122df565b90506000611d7e856122ff565b90506000611d8b856122df565b90506000611d98866122ff565b905086861015611daf576000945050505050610c6e565b838203611dd757828110611dd257611dc78382612fa2565b945050505050610c6e565b611e38565b83821115611e385760006001611ded8685612fa2565b611df79190612fa2565b90506000611e0685600c612fa2565b9050828082611e1685600c612ff2565b611e209190612fdf565b611e2a9190612fdf565b975050505050505050610c6e565b5060009695505050505050565b7f9016d09d72d40fdae2fd8ceac6b6234c7706214fd39c1cd1e609a0528c19930080546001600160a01b031981166001600160a01b03848116918217845560405192169182907f8be0079c531659141344cd1fd0a4f28419497f9722a3daafe3b4186f6b6457e090600090a3505050565b6001600160a01b038116611edd57604051634b082a2d60e11b815260040160405180910390fd5b611ee8600082612319565b611f1057604051635484216160e01b81526001600160a01b03821660048201526024016108de565b6040516001600160a01b038216907f8f50fda9bf5d3b403c53b7e91646abd507f8cebf2577655d55d7de3926168b1790600090a250565b6001600160a01b03811660009081526001830160205260408120541515611861565b611f71611a38565b6000805160206132d4833981519152805460ff191660011781557f62e78cea01bee320cd4e420270b5ea74000d11b0c9f74754ebdbfc544b05a25833611bf3565b7fa16a46d94261c7517cc8ff89f61c0ce93598e3c849801011dee649a6a557d102805460609160008051602061321e83398151915291611ff190613009565b80601f016020809104026020016040519081016040528092919081815260200182805461201d90613009565b801561206a5780601f1061203f5761010080835404028352916020019161206a565b820191906000526020600020905b81548152906001019060200180831161204d57829003601f168201915b505050505091505090565b7fa16a46d94261c7517cc8ff89f61c0ce93598e3c849801011dee649a6a557d103805460609160008051602061321e83398151915291611ff190613009565b6120bc61232e565b610a4881612377565b6120cd61232e565b61097961237f565b6120dd61232e565b610bb98282612387565b6120ef61232e565b6109796123e8565b6000610c6e825490565b6060600061186183612409565b6000611861836001600160a01b038416612465565b6000805160206132d48339815191525460ff1661097957604051638dfc202b60e01b815260040160405180910390fd5b60006118c561255f565b600080600083516041036121975760208401516040850151606086015160001a612189888285856125d3565b9550955095505050506121a3565b50508151600091506002905b9250925092565b60008260038111156121be576121be612d4c565b036121c7575050565b60018260038111156121db576121db612d4c565b036121f95760405163f645eedf60e01b815260040160405180910390fd5b600282600381111561220d5761220d612d4c565b0361222e5760405163fce698f760e01b8152600481018290526024016108de565b600382600381111561224257612242612d4c565b03610bb9576040516335e2f38360e21b8152600481018290526024016108de565b60008061226f836126a2565b9050600061229661227f856122df565b612288866122ff565b612291876126d6565b6126f0565b9050816001036122a7579392505050565b60006122b4600184612fa2565b6122c19062015180612ff2565b90508082106122d457611d5c8183612fa2565b506000949350505050565b60006122f66122f16201518084612fcb565b61270b565b50909392505050565b60006123116122f16201518084612fcb565b509392505050565b6000611861836001600160a01b0384166127a7565b7ff0c57e16840df040f15088dc2f81fe391c3923bec73e23a9662efc9c229c6a0054600160401b900460ff1661097957604051631afcd79f60e31b815260040160405180910390fd5b61192c61232e565b611b0c61232e565b61238f61232e565b60008051602061321e8339815191527fa16a46d94261c7517cc8ff89f61c0ce93598e3c849801011dee649a6a557d1026123c9848261308d565b50600381016123d8838261308d565b5060008082556001909101555050565b6123f061232e565b6000805160206132d4833981519152805460ff19169055565b60608160000180548060200260200160405190810160405280929190818152602001828054801561245957602002820191906000526020600020905b815481526020019060010190808311612445575b50505050509050919050565b6000818152600183016020526040812054801561254e576000612489600183612fa2565b855490915060009061249d90600190612fa2565b90508082146125025760008660000182815481106124bd576124bd612e92565b90600052602060002001549050808760000184815481106124e0576124e0612e92565b6000918252602080832090910192909255918252600188019052604090208390555b85548690806125135761251361314d565b600190038181906000526020600020016000905590558560010160008681526020019081526020016000206000905560019350505050610c6e565b6000915050610c6e565b5092915050565b60007f8b73c3c69bb8fe3d512ecc4cf759cc79239f7b179b0ffacaa9a75d522b39400f61258a6127f6565b612592612860565b60408051602081019490945283019190915260608201524660808201523060a082015260c00160405160208183030381529060405280519060200120905090565b600080807f7fffffffffffffffffffffffffffffff5d576e7357a4501ddfe92f46681b20a084111561260e5750600091506003905082612698565b604080516000808252602082018084528a905260ff891692820192909252606081018790526080810186905260019060a0016020604051602081039080840390855afa158015612662573d6000803e3d6000fd5b5050604051601f1901519150506001600160a01b03811661268e57506000925060019150829050612698565b9250600091508190505b9450945094915050565b6000806126b26201518084612fcb565b905060076126c1826003612fdf565b6126cb9190613163565b611861906001612fdf565b60006126e86122f16201518084612fcb565b949350505050565b6000620151806127018585856128a4565b6126e89190612ff2565b60008080836226496581018262023ab1600483020590506004600362023ab18302010590910390600062164b09610fa0600185010205905060046105b58202058303601f019250600061098f846050028161276857612768612fb5565b0590506000605061098f83020585039050600b820560301994909401606402929092018301996002600c90940290910392909201975095509350505050565b60008181526001830160205260408120546127ee57508154600181810184556000848152602080822090930184905584548482528286019093526040902091909155610c6e565b506000610c6e565b600060008051602061321e83398151915281612810611fb2565b80519091501561282857805160209091012092915050565b81548015612837579392505050565b7fc5d2460186f7233c927e7db2dcc703c0e500b653ca82273b7bfad8045d85a470935050505090565b600060008051602061321e8339815191528161287a612075565b80519091501561289257805160209091012092915050565b60018201548015612837579392505050565b60006107b28410156128b557600080fd5b838383600062253d8c60046064600c6128cf600e88613177565b6128d99190613197565b6128e5886113246131c5565b6128ef91906131c5565b6128f99190613197565b6129049060036131ed565b61290e9190613197565b600c8061291c600e88613177565b6129269190613197565b61293190600c6131ed565b61293c600288613177565b6129469190613177565b6129529061016f6131ed565b61295c9190613197565b6004600c61296b600e89613177565b6129759190613197565b612981896112c06131c5565b61298b91906131c5565b612997906105b56131ed565b6129a19190613197565b6129ad617d4b87613177565b6129b791906131c5565b6129c191906131c5565b6129cb9190613177565b6129d59190613177565b98975050505050505050565b600060e082840312156129f357600080fd5b50919050565b600060e08284031215612a0b57600080fd5b61186183836129e1565b6001600160a01b0381168114610a4857600080fd5b600060208284031215612a3c57600080fd5b813561186181612a15565b60008060408385031215612a5a57600080fd5b8235612a6581612a15565b946020939093013593505050565b60008060008060006101408688031215612a8c57600080fd5b8535612a9781612a15565b945060208601359350612aad87604088016129e1565b925061012086013567ffffffffffffffff80821115612acb57600080fd5b818801915088601f830112612adf57600080fd5b813581811115612aee57600080fd5b896020828501011115612b0057600080fd5b9699959850939650602001949392505050565b6000806101008385031215612b2757600080fd5b612b3184846129e1565b9460e0939093013593505050565b60005b83811015612b5a578181015183820152602001612b42565b50506000910152565b60008151808452612b7b816020860160208601612b3f565b601f01601f19169290920160200192915050565b60ff60f81b881681526000602060e06020840152612bb060e084018a612b63565b8381036040850152612bc2818a612b63565b606085018990526001600160a01b038816608086015260a0850187905284810360c08601528551808252602080880193509091019060005b81811015612c1657835183529284019291840191600101612bfa565b50909c9b505050505050505050505050565b600080600060408486031215612c3d57600080fd5b8335612c4881612a15565b9250602084013567ffffffffffffffff80821115612c6557600080fd5b818601915086601f830112612c7957600080fd5b813581811115612c8857600080fd5b8760208260051b8501011115612c9d57600080fd5b6020830194508093505050509250925092565b60008060006101208486031215612cc657600080fd5b612cd085856129e1565b9560e08501359550610100909401359392505050565b600060208284031215612cf857600080fd5b5035919050565b6020808252825182820181905260009190848201906040850190845b81811015612d405783516001600160a01b031683529284019291840191600101612d1b565b50909695505050505050565b634e487b7160e01b600052602160045260246000fd5b84815260208101849052604081018390526080810160038310612d8757612d87612d4c565b82606083015295945050505050565b8051612da181612a15565b919050565b600060208284031215612db857600080fd5b815161186181612a15565b634e487b7160e01b600052604160045260246000fd5b60006020808385031215612dec57600080fd5b825167ffffffffffffffff80821115612e0457600080fd5b818501915085601f830112612e1857600080fd5b815181811115612e2a57612e2a612dc3565b8060051b604051601f19603f83011681018181108582111715612e4f57612e4f612dc3565b604052918252848201925083810185019188831115612e6d57600080fd5b938501935b828510156129d557612e8385612d96565b84529385019392850192612e72565b634e487b7160e01b600052603260045260246000fd5b600060208284031215612eba57600080fd5b5051919050565b600060208284031215612ed357600080fd5b8151801515811461186157600080fd5b60008251612ef5818460208701612b3f565b9190910192915050565b600060208284031215612f1157600080fd5b81356005811061186157600080fd5b88815260208101889052610100810160058810612f3f57612f3f612d4c565b60408201979097526060810195909552608085019390935260a08401919091526001600160a01b0390811660c08401521660e09091015292915050565b8183823760009101908152919050565b634e487b7160e01b600052601160045260246000fd5b81810381811115610c6e57610c6e612f8c565b634e487b7160e01b600052601260045260246000fd5b600082612fda57612fda612fb5565b500490565b80820180821115610c6e57610c6e612f8c565b8082028115828204841417610c6e57610c6e612f8c565b600181811c9082168061301d57607f821691505b6020821081036129f357634e487b7160e01b600052602260045260246000fd5b601f821115611b07576000816000526020600020601f850160051c810160208610156130665750805b601f850160051c820191505b8181101561308557828155600101613072565b505050505050565b815167ffffffffffffffff8111156130a7576130a7612dc3565b6130bb816130b58454613009565b8461303d565b602080601f8311600181146130f057600084156130d85750858301515b600019600386901b1c1916600185901b178555613085565b600085815260208120601f198616915b8281101561311f57888601518255948401946001909101908401613100565b508582101561313d5787850151600019600388901b60f8161c191681555b5050505050600190811b01905550565b634e487b7160e01b600052603160045260246000fd5b60008261317257613172612fb5565b500690565b818103600083128015838313168383128216171561255857612558612f8c565b6000826131a6576131a6612fb5565b600160ff1b8214600019841416156131c0576131c0612f8c565b500590565b80820182811260008312801582168215821617156131e5576131e5612f8c565b505092915050565b80820260008212600160ff1b8414161561320957613209612f8c565b8181058314821517610c6e57610c6e612f8c56fea16a46d94261c7517cc8ff89f61c0ce93598e3c849801011dee649a6a557d1004275646765744c696d69742875696e7432353620616d6f756e742c75696e7438206672657175656e6379547970652c75696e7432353620637573746f6d4672657175656e63792c75696e74323536207374617274446174652c75696e7432353620656e64446174652c6164647265737320746f6b656e416464726573732c6164647265737320617070726f7665644164647265737329cd5ed15c6e187e77e9aee88184c21f4f2182ab5827cb3b7e07fbedcd63f033009b779b17422d0df92223018b32b4d1fa46e071723d6817e2486d003becc55f00a26469706673582212200e3f0948e057b9ac16813ceca6dacc4907970ca68281119433fe7cec6ea0dc7064736f6c63430008180033",
  "linkReferences": {},
  "deployedLinkReferences": {}
}