{
  "_format": "hh-sol-artifact-1",
  "contractName": "ExpenseAccountEIP712",
  "sourceName": "contracts/expense-account/ExpenseAccountEIP712.sol",
  "abi": [
    {
      "inputs": [
        {
          "internalType": "uint256",
          "name": "amount",
          "type": "uint256"
        }
      ],
      "name": "AmountPerPeriodExceeded",
      "type": "error"
    },
    {
      "inputs": [
        {
          "internalType": "uint256",
          "name": "amount",
          "type": "uint256"
        }
      ],
      "name": "AmountPerTransactionExceeded",
      "type": "error"
    },
    {
      "inputs": [
        {
          "internalType": "uint256",
          "name": "currentTime",
          "type": "uint256"
        },
        {
          "internalType": "uint256",
          "name": "endDate",
          "type": "uint256"
        }
      ],
      "name": "ApprovalExpired",
      "type": "error"
    },
    {
      "inputs": [
        {
          "internalType": "uint256",
          "name": "currentTime",
          "type": "uint256"
        },
        {
          "internalType": "uint256",
          "name": "startDate",
          "type": "uint256"
        }
      ],
      "name": "ApprovalNotActive",
      "type": "error"
    },
    {
      "inputs": [],
      "name": "ECDSAInvalidSignature",
      "type": "error"
    },
    {
      "inputs": [
        {
          "internalType": "uint256",
          "name": "length",
          "type": "uint256"
        }
      ],
      "name": "ECDSAInvalidSignatureLength",
      "type": "error"
    },
    {
      "inputs": [
        {
          "internalType": "bytes32",
          "name": "s",
          "type": "bytes32"
        }
      ],
      "name": "ECDSAInvalidSignatureS",
      "type": "error"
    },
    {
      "inputs": [],
      "name": "EnforcedPause",
      "type": "error"
    },
    {
      "inputs": [],
      "name": "ExpectedPause",
      "type": "error"
    },
    {
      "inputs": [],
      "name": "FailedCall",
      "type": "error"
    },
    {
      "inputs": [
        {
          "internalType": "uint256",
          "name": "balance",
          "type": "uint256"
        },
        {
          "internalType": "uint256",
          "name": "needed",
          "type": "uint256"
        }
      ],
      "name": "InsufficientBalance",
      "type": "error"
    },
    {
      "inputs": [],
      "name": "InvalidInitialization",
      "type": "error"
    },
    {
      "inputs": [],
      "name": "NotInitializing",
      "type": "error"
    },
    {
      "inputs": [
        {
          "internalType": "address",
          "name": "owner",
          "type": "address"
        }
      ],
      "name": "OwnableInvalidOwner",
      "type": "error"
    },
    {
      "inputs": [
        {
          "internalType": "address",
          "name": "account",
          "type": "address"
        }
      ],
      "name": "OwnableUnauthorizedAccount",
      "type": "error"
    },
    {
      "inputs": [],
      "name": "ReentrancyGuardReentrantCall",
      "type": "error"
    },
    {
      "inputs": [
        {
          "internalType": "address",
          "name": "expected",
          "type": "address"
        },
        {
          "internalType": "address",
          "name": "received",
          "type": "address"
        }
      ],
      "name": "UnauthorizedAccess",
      "type": "error"
    },
    {
      "anonymous": false,
      "inputs": [
        {
          "indexed": true,
          "internalType": "bytes32",
          "name": "signatureHash",
          "type": "bytes32"
        }
      ],
      "name": "ApprovalActivated",
      "type": "event"
    },
    {
      "anonymous": false,
      "inputs": [
        {
          "indexed": true,
          "internalType": "bytes32",
          "name": "signatureHash",
          "type": "bytes32"
        }
      ],
      "name": "ApprovalDeactivated",
      "type": "event"
    },
    {
      "anonymous": false,
      "inputs": [
        {
          "indexed": true,
          "internalType": "address",
          "name": "depositor",
          "type": "address"
        },
        {
          "indexed": false,
          "internalType": "uint256",
          "name": "amount",
          "type": "uint256"
        }
      ],
      "name": "Deposited",
      "type": "event"
    },
    {
      "anonymous": false,
      "inputs": [],
      "name": "EIP712DomainChanged",
      "type": "event"
    },
    {
      "anonymous": false,
      "inputs": [
        {
          "indexed": false,
          "internalType": "uint64",
          "name": "version",
          "type": "uint64"
        }
      ],
      "name": "Initialized",
      "type": "event"
    },
    {
      "anonymous": false,
      "inputs": [
        {
          "indexed": true,
          "internalType": "address",
          "name": "ownerAddress",
          "type": "address"
        },
        {
          "indexed": false,
          "internalType": "uint256",
          "name": "amount",
          "type": "uint256"
        }
      ],
      "name": "OwnerTreasuryWithdrawNative",
      "type": "event"
    },
    {
      "anonymous": false,
      "inputs": [
        {
          "indexed": true,
          "internalType": "address",
          "name": "ownerAddress",
          "type": "address"
        },
        {
          "indexed": true,
          "internalType": "address",
          "name": "token",
          "type": "address"
        },
        {
          "indexed": false,
          "internalType": "uint256",
          "name": "amount",
          "type": "uint256"
        }
      ],
      "name": "OwnerTreasuryWithdrawToken",
      "type": "event"
    },
    {
      "anonymous": false,
      "inputs": [
        {
          "indexed": true,
          "internalType": "address",
          "name": "previousOwner",
          "type": "address"
        },
        {
          "indexed": true,
          "internalType": "address",
          "name": "newOwner",
          "type": "address"
        }
      ],
      "name": "OwnershipTransferred",
      "type": "event"
    },
    {
      "anonymous": false,
      "inputs": [
        {
          "indexed": false,
          "internalType": "address",
          "name": "account",
          "type": "address"
        }
      ],
      "name": "Paused",
      "type": "event"
    },
    {
      "anonymous": false,
      "inputs": [
        {
          "indexed": true,
          "internalType": "address",
          "name": "addressWhoChanged",
          "type": "address"
        },
        {
          "indexed": false,
          "internalType": "string",
          "name": "tokenSymbol",
          "type": "string"
        },
        {
          "indexed": true,
          "internalType": "address",
          "name": "oldAddress",
          "type": "address"
        },
        {
          "indexed": true,
          "internalType": "address",
          "name": "newAddress",
          "type": "address"
        }
      ],
      "name": "TokenAddressChanged",
      "type": "event"
    },
    {
      "anonymous": false,
      "inputs": [
        {
          "indexed": true,
          "internalType": "address",
          "name": "depositor",
          "type": "address"
        },
        {
          "indexed": true,
          "internalType": "address",
          "name": "token",
          "type": "address"
        },
        {
          "indexed": false,
          "internalType": "uint256",
          "name": "amount",
          "type": "uint256"
        }
      ],
      "name": "TokenDeposited",
      "type": "event"
    },
    {
      "anonymous": false,
      "inputs": [
        {
          "indexed": true,
          "internalType": "address",
          "name": "tokenAddress",
          "type": "address"
        }
      ],
      "name": "TokenSupportAdded",
      "type": "event"
    },
    {
      "anonymous": false,
      "inputs": [
        {
          "indexed": true,
          "internalType": "address",
          "name": "tokenAddress",
          "type": "address"
        }
      ],
      "name": "TokenSupportRemoved",
      "type": "event"
    },
    {
      "anonymous": false,
      "inputs": [
        {
          "indexed": true,
          "internalType": "address",
          "name": "withdrawer",
          "type": "address"
        },
        {
          "indexed": true,
          "internalType": "address",
          "name": "to",
          "type": "address"
        },
        {
          "indexed": true,
          "internalType": "address",
          "name": "token",
          "type": "address"
        },
        {
          "indexed": false,
          "internalType": "uint256",
          "name": "amount",
          "type": "uint256"
        }
      ],
      "name": "TokenTransfer",
      "type": "event"
    },
    {
      "anonymous": false,
      "inputs": [
        {
          "indexed": true,
          "internalType": "address",
          "name": "withdrawer",
          "type": "address"
        },
        {
          "indexed": true,
          "internalType": "address",
          "name": "to",
          "type": "address"
        },
        {
          "indexed": false,
          "internalType": "uint256",
          "name": "amount",
          "type": "uint256"
        }
      ],
      "name": "Transfer",
      "type": "event"
    },
    {
      "anonymous": false,
      "inputs": [
        {
          "indexed": false,
          "internalType": "address",
          "name": "account",
          "type": "address"
        }
      ],
      "name": "Unpaused",
      "type": "event"
    },
    {
      "inputs": [
        {
          "internalType": "bytes32",
          "name": "signatureHash",
          "type": "bytes32"
        }
      ],
      "name": "activateApproval",
      "outputs": [],
      "stateMutability": "nonpayable",
      "type": "function"
    },
    {
      "inputs": [
        {
          "internalType": "address",
          "name": "_tokenAddress",
          "type": "address"
        }
      ],
      "name": "addTokenSupport",
      "outputs": [],
      "stateMutability": "nonpayable",
      "type": "function"
    },
    {
      "inputs": [
        {
          "components": [
            {
              "internalType": "uint256",
              "name": "amount",
              "type": "uint256"
            },
            {
              "internalType": "enum ExpenseAccountEIP712.FrequencyType",
              "name": "frequencyType",
              "type": "uint8"
            },
            {
              "internalType": "uint256",
              "name": "customFrequency",
              "type": "uint256"
            },
            {
              "internalType": "uint256",
              "name": "startDate",
              "type": "uint256"
            },
            {
              "internalType": "uint256",
              "name": "endDate",
              "type": "uint256"
            },
            {
              "internalType": "address",
              "name": "tokenAddress",
              "type": "address"
            },
            {
              "internalType": "address",
              "name": "approvedAddress",
              "type": "address"
            }
          ],
          "internalType": "struct ExpenseAccountEIP712.BudgetLimit",
          "name": "budgetLimit",
          "type": "tuple"
        }
      ],
      "name": "budgetLimitHash",
      "outputs": [
        {
          "internalType": "bytes32",
          "name": "",
          "type": "bytes32"
        }
      ],
      "stateMutability": "pure",
      "type": "function"
    },
    {
      "inputs": [
        {
          "internalType": "bytes32",
          "name": "signatureHash",
          "type": "bytes32"
        }
      ],
      "name": "deactivateApproval",
      "outputs": [],
      "stateMutability": "nonpayable",
      "type": "function"
    },
    {
      "inputs": [
        {
          "internalType": "address",
          "name": "token",
          "type": "address"
        },
        {
          "internalType": "uint256",
          "name": "amount",
          "type": "uint256"
        }
      ],
      "name": "depositToken",
      "outputs": [],
      "stateMutability": "nonpayable",
      "type": "function"
    },
    {
      "inputs": [],
      "name": "eip712Domain",
      "outputs": [
        {
          "internalType": "bytes1",
          "name": "fields",
          "type": "bytes1"
        },
        {
          "internalType": "string",
          "name": "name",
          "type": "string"
        },
        {
          "internalType": "string",
          "name": "version",
          "type": "string"
        },
        {
          "internalType": "uint256",
          "name": "chainId",
          "type": "uint256"
        },
        {
          "internalType": "address",
          "name": "verifyingContract",
          "type": "address"
        },
        {
          "internalType": "bytes32",
          "name": "salt",
          "type": "bytes32"
        },
        {
          "internalType": "uint256[]",
          "name": "extensions",
          "type": "uint256[]"
        }
      ],
      "stateMutability": "view",
      "type": "function"
    },
    {
      "inputs": [
        {
          "internalType": "bytes32",
          "name": "",
          "type": "bytes32"
        }
      ],
      "name": "expenseBalances",
      "outputs": [
        {
          "internalType": "uint256",
          "name": "lastWithdrawnDate",
          "type": "uint256"
        },
        {
          "internalType": "uint256",
          "name": "totalWithdrawn",
          "type": "uint256"
        },
        {
          "internalType": "uint256",
          "name": "lastWithdrawnPeriod",
          "type": "uint256"
        },
        {
          "internalType": "enum ExpenseAccountEIP712.ApprovalState",
          "name": "state",
          "type": "uint8"
        }
      ],
      "stateMutability": "view",
      "type": "function"
    },
    {
      "inputs": [],
      "name": "getBalance",
      "outputs": [
        {
          "internalType": "uint256",
          "name": "",
          "type": "uint256"
        }
      ],
      "stateMutability": "view",
      "type": "function"
    },
    {
      "inputs": [
        {
          "components": [
            {
              "internalType": "uint256",
              "name": "amount",
              "type": "uint256"
            },
            {
              "internalType": "enum ExpenseAccountEIP712.FrequencyType",
              "name": "frequencyType",
              "type": "uint8"
            },
            {
              "internalType": "uint256",
              "name": "customFrequency",
              "type": "uint256"
            },
            {
              "internalType": "uint256",
              "name": "startDate",
              "type": "uint256"
            },
            {
              "internalType": "uint256",
              "name": "endDate",
              "type": "uint256"
            },
            {
              "internalType": "address",
              "name": "tokenAddress",
              "type": "address"
            },
            {
              "internalType": "address",
              "name": "approvedAddress",
              "type": "address"
            }
          ],
          "internalType": "struct ExpenseAccountEIP712.BudgetLimit",
          "name": "budgetLimit",
          "type": "tuple"
        }
      ],
      "name": "getCurrentPeriod",
      "outputs": [
        {
          "internalType": "uint256",
          "name": "",
          "type": "uint256"
        }
      ],
      "stateMutability": "view",
      "type": "function"
    },
    {
      "inputs": [
        {
          "components": [
            {
              "internalType": "uint256",
              "name": "amount",
              "type": "uint256"
            },
            {
              "internalType": "enum ExpenseAccountEIP712.FrequencyType",
              "name": "frequencyType",
              "type": "uint8"
            },
            {
              "internalType": "uint256",
              "name": "customFrequency",
              "type": "uint256"
            },
            {
              "internalType": "uint256",
              "name": "startDate",
              "type": "uint256"
            },
            {
              "internalType": "uint256",
              "name": "endDate",
              "type": "uint256"
            },
            {
              "internalType": "address",
              "name": "tokenAddress",
              "type": "address"
            },
            {
              "internalType": "address",
              "name": "approvedAddress",
              "type": "address"
            }
          ],
          "internalType": "struct ExpenseAccountEIP712.BudgetLimit",
          "name": "budgetLimit",
          "type": "tuple"
        },
        {
          "internalType": "uint256",
          "name": "timestamp",
          "type": "uint256"
        }
      ],
      "name": "getPeriod",
      "outputs": [
        {
          "internalType": "uint256",
          "name": "",
          "type": "uint256"
        }
      ],
      "stateMutability": "pure",
      "type": "function"
    },
    {
      "inputs": [],
      "name": "getSupportedTokenCount",
      "outputs": [
        {
          "internalType": "uint256",
          "name": "",
          "type": "uint256"
        }
      ],
      "stateMutability": "view",
      "type": "function"
    },
    {
      "inputs": [],
      "name": "getSupportedTokens",
      "outputs": [
        {
          "internalType": "address[]",
          "name": "",
          "type": "address[]"
        }
      ],
      "stateMutability": "view",
      "type": "function"
    },
    {
      "inputs": [
        {
          "internalType": "address",
          "name": "token",
          "type": "address"
        }
      ],
      "name": "getTokenBalance",
      "outputs": [
        {
          "internalType": "uint256",
          "name": "",
          "type": "uint256"
        }
      ],
      "stateMutability": "view",
      "type": "function"
    },
    {
      "inputs": [
        {
          "internalType": "address",
          "name": "owner",
          "type": "address"
        },
        {
          "internalType": "address[]",
          "name": "_tokenAddresses",
          "type": "address[]"
        }
      ],
      "name": "initialize",
      "outputs": [],
      "stateMutability": "nonpayable",
      "type": "function"
    },
    {
      "inputs": [
        {
          "components": [
            {
              "internalType": "uint256",
              "name": "amount",
              "type": "uint256"
            },
            {
              "internalType": "enum ExpenseAccountEIP712.FrequencyType",
              "name": "frequencyType",
              "type": "uint8"
            },
            {
              "internalType": "uint256",
              "name": "customFrequency",
              "type": "uint256"
            },
            {
              "internalType": "uint256",
              "name": "startDate",
              "type": "uint256"
            },
            {
              "internalType": "uint256",
              "name": "endDate",
              "type": "uint256"
            },
            {
              "internalType": "address",
              "name": "tokenAddress",
              "type": "address"
            },
            {
              "internalType": "address",
              "name": "approvedAddress",
              "type": "address"
            }
          ],
          "internalType": "struct ExpenseAccountEIP712.BudgetLimit",
          "name": "budgetLimit",
          "type": "tuple"
        },
        {
          "internalType": "bytes32",
          "name": "signatureHash",
          "type": "bytes32"
        }
      ],
      "name": "isNewPeriod",
      "outputs": [
        {
          "internalType": "bool",
          "name": "",
          "type": "bool"
        }
      ],
      "stateMutability": "view",
      "type": "function"
    },
    {
      "inputs": [
        {
          "internalType": "address",
          "name": "_token",
          "type": "address"
        }
      ],
      "name": "isTokenSupported",
      "outputs": [
        {
          "internalType": "bool",
          "name": "",
          "type": "bool"
        }
      ],
      "stateMutability": "view",
      "type": "function"
    },
    {
      "inputs": [],
      "name": "owner",
      "outputs": [
        {
          "internalType": "address",
          "name": "",
          "type": "address"
        }
      ],
      "stateMutability": "view",
      "type": "function"
    },
    {
      "inputs": [
        {
          "internalType": "uint256",
          "name": "amount",
          "type": "uint256"
        }
      ],
      "name": "ownerWithdrawNative",
      "outputs": [],
      "stateMutability": "nonpayable",
      "type": "function"
    },
    {
      "inputs": [
        {
          "internalType": "address",
          "name": "token",
          "type": "address"
        },
        {
          "internalType": "uint256",
          "name": "amount",
          "type": "uint256"
        }
      ],
      "name": "ownerWithdrawToken",
      "outputs": [],
      "stateMutability": "nonpayable",
      "type": "function"
    },
    {
      "inputs": [],
      "name": "pause",
      "outputs": [],
      "stateMutability": "nonpayable",
      "type": "function"
    },
    {
      "inputs": [],
      "name": "paused",
      "outputs": [
        {
          "internalType": "bool",
          "name": "",
          "type": "bool"
        }
      ],
      "stateMutability": "view",
      "type": "function"
    },
    {
      "inputs": [
        {
          "internalType": "address",
          "name": "_tokenAddress",
          "type": "address"
        }
      ],
      "name": "removeTokenSupport",
      "outputs": [],
      "stateMutability": "nonpayable",
      "type": "function"
    },
    {
      "inputs": [],
      "name": "renounceOwnership",
      "outputs": [],
      "stateMutability": "nonpayable",
      "type": "function"
    },
    {
      "inputs": [
        {
          "internalType": "address",
          "name": "to",
          "type": "address"
        },
        {
          "internalType": "uint256",
          "name": "amount",
          "type": "uint256"
        },
        {
          "components": [
            {
              "internalType": "uint256",
              "name": "amount",
              "type": "uint256"
            },
            {
              "internalType": "enum ExpenseAccountEIP712.FrequencyType",
              "name": "frequencyType",
              "type": "uint8"
            },
            {
              "internalType": "uint256",
              "name": "customFrequency",
              "type": "uint256"
            },
            {
              "internalType": "uint256",
              "name": "startDate",
              "type": "uint256"
            },
            {
              "internalType": "uint256",
              "name": "endDate",
              "type": "uint256"
            },
            {
              "internalType": "address",
              "name": "tokenAddress",
              "type": "address"
            },
            {
              "internalType": "address",
              "name": "approvedAddress",
              "type": "address"
            }
          ],
          "internalType": "struct ExpenseAccountEIP712.BudgetLimit",
          "name": "budgetLimit",
          "type": "tuple"
        },
        {
          "internalType": "bytes",
          "name": "signature",
          "type": "bytes"
        }
      ],
      "name": "transfer",
      "outputs": [],
      "stateMutability": "nonpayable",
      "type": "function"
    },
    {
      "inputs": [
        {
          "internalType": "address",
          "name": "newOwner",
          "type": "address"
        }
      ],
      "name": "transferOwnership",
      "outputs": [],
      "stateMutability": "nonpayable",
      "type": "function"
    },
    {
      "inputs": [],
      "name": "unpause",
      "outputs": [],
      "stateMutability": "nonpayable",
      "type": "function"
    },
    {
      "inputs": [
        {
          "components": [
            {
              "internalType": "uint256",
              "name": "amount",
              "type": "uint256"
            },
            {
              "internalType": "enum ExpenseAccountEIP712.FrequencyType",
              "name": "frequencyType",
              "type": "uint8"
            },
            {
              "internalType": "uint256",
              "name": "customFrequency",
              "type": "uint256"
            },
            {
              "internalType": "uint256",
              "name": "startDate",
              "type": "uint256"
            },
            {
              "internalType": "uint256",
              "name": "endDate",
              "type": "uint256"
            },
            {
              "internalType": "address",
              "name": "tokenAddress",
              "type": "address"
            },
            {
              "internalType": "address",
              "name": "approvedAddress",
              "type": "address"
            }
          ],
          "internalType": "struct ExpenseAccountEIP712.BudgetLimit",
          "name": "budgetLimit",
          "type": "tuple"
        },
        {
          "internalType": "uint256",
          "name": "amount",
          "type": "uint256"
        },
        {
          "internalType": "bytes32",
          "name": "signatureHash",
          "type": "bytes32"
        }
      ],
      "name": "validateTransfer",
      "outputs": [
        {
          "internalType": "bool",
          "name": "",
          "type": "bool"
        }
      ],
      "stateMutability": "view",
      "type": "function"
    },
    {
      "stateMutability": "payable",
      "type": "receive"
    }
  ],
  "bytecode": "0x608060405234801561001057600080fd5b50613348806100206000396000f3fe6080604052600436106101a05760003560e01c80638456cb59116100ec578063ce67be261161008a578063e7dd5c5e11610064578063e7dd5c5e146104c1578063ec681b61146104e1578063f2fde38b14610538578063fc55ed771461055857600080fd5b8063ce67be261461046a578063d3c7c2c71461047f578063de982534146104a157600080fd5b80638da5cb5b116100c65780638da5cb5b146103dd578063946d92041461040a578063a5b8eba51461042a578063bccb212a1461044a57600080fd5b80638456cb591461038057806384b0196e1461039557806384f10492146103bd57600080fd5b80633fd1b14a116101595780635c975abb116101335780635c975abb146102fa578063715018a61461032b578063733c237d1461034057806375151b631461036057600080fd5b80633fd1b14a1461029a578063549025df146102ba578063582df647146102da57600080fd5b806312065fe0146101e15780632a46aa97146102035780632ba8d93914610223578063338b5dea146102455780633aecd0e3146102655780633f4ba83a1461028557600080fd5b366101dc5760405134815233907f2da466a7b24304f47e87fa2e1e5a81b9831ce54fec19055ce277ca2f39ba42c49060200160405180910390a2005b600080fd5b3480156101ed57600080fd5b50475b6040519081526020015b60405180910390f35b34801561020f57600080fd5b506101f061021e366004612a4e565b610578565b34801561022f57600080fd5b5061024361023e366004612a86565b610634565b005b34801561025157600080fd5b50610243610260366004612aa1565b610648565b34801561027157600080fd5b506101f0610280366004612a86565b6107d6565b34801561029157600080fd5b5061024361087c565b3480156102a657600080fd5b506102436102b5366004612acb565b61088e565b3480156102c657600080fd5b506101f06102d5366004612b69565b610d31565b3480156102e657600080fd5b506101f06102f5366004612a4e565b610efe565b34801561030657600080fd5b506000805160206132d38339815191525460ff165b60405190151581526020016101fa565b34801561033757600080fd5b50610243610f0a565b34801561034c57600080fd5b5061024361035b366004612a86565b610f1c565b34801561036c57600080fd5b5061031b61037b366004612a86565b610f2d565b34801561038c57600080fd5b50610243610f39565b3480156103a157600080fd5b506103aa610f49565b6040516101fa9796959493929190612be5565b3480156103c957600080fd5b506102436103d8366004612aa1565b610ff5565b3480156103e957600080fd5b506103f26111da565b6040516001600160a01b0390911681526020016101fa565b34801561041657600080fd5b50610243610425366004612c7e565b611208565b34801561043657600080fd5b5061031b610445366004612d04565b6114c7565b34801561045657600080fd5b50610243610465366004612d3a565b61179d565b34801561047657600080fd5b506101f06117ee565b34801561048b57600080fd5b506104946117ff565b6040516101fa9190612d53565b3480156104ad57600080fd5b506102436104bc366004612d3a565b61180b565b3480156104cd57600080fd5b506102436104dc366004612d3a565b611859565b3480156104ed57600080fd5b506105286104fc366004612d3a565b600260208190526000918252604090912080546001820154928201546003909201549092919060ff1684565b6040516101fa9493929190612db6565b34801561054457600080fd5b50610243610553366004612a86565b61193d565b34801561056457600080fd5b5061031b610573366004612b69565b611978565b60006040518060c001604052806096815260200161323d609691396040516020016105a39190612dea565b6040516020818303038152906040528051906020012082600001358360200160208101906105d19190612e06565b6040850135606086013560808701356105f060c0890160a08a01612a86565b61060060e08a0160c08b01612a86565b604051602001610617989796959493929190612e27565b604051602081830303815290604052805190602001209050919050565b61063c6119e7565b61064581611a19565b50565b610650611ac3565b610658611afb565b6001600160a01b0382161580610672575061067282610f2d565b6106975760405162461bcd60e51b815260040161068e90612e83565b60405180910390fd5b600081116106e75760405162461bcd60e51b815260206004820181905260248201527f416d6f756e74206d7573742062652067726561746572207468616e207a65726f604482015260640161068e565b6040516323b872dd60e01b8152336004820152306024820152604481018290526001600160a01b038316906323b872dd906064016020604051808303816000875af115801561073a573d6000803e3d6000fd5b505050506040513d601f19601f8201168201806040525081019061075e9190612eae565b61077a5760405162461bcd60e51b815260040161068e90612ed0565b6040518181526001600160a01b0383169033907ff1444b5cad7ce70cb018d1b8edc8618fe303f3c7f034d8d572a6e27facbf2bef906020015b60405180910390a36107d260016000805160206132f383398151915255565b5050565b60006001600160a01b03821615806107f257506107f282610f2d565b61080e5760405162461bcd60e51b815260040161068e90612e83565b6040516370a0823160e01b81523060048201526001600160a01b038316906370a0823190602401602060405180830381865afa158015610852573d6000803e3d6000fd5b505050506040513d601f19601f820116820180604052508101906108769190612eff565b92915050565b6108846119e7565b61088c611b40565b565b6001600160a01b0385166108d75760405162461bcd60e51b815260206004820152601060248201526f1059191c995cdcc81c995c5d5a5c995960821b604482015260640161068e565b6108e760e0840160c08501612a86565b6001600160a01b0316336001600160a01b03161461093e5760405162461bcd60e51b815260206004820152601460248201527314dc195b99195c881b9bdd08185c1c1c9bdd995960621b604482015260640161068e565b600061095161094c85610578565b611ba0565b905061095b6111da565b6001600160a01b03166109a684848080601f0160208091040260200160405190810160405280939291908181526020018383808284376000920191909152508693925050611bcd9050565b6001600160a01b0316146109f45760405162461bcd60e51b815260206004820152601560248201527414da59db995c881b9bdd08185d5d1a1bdc9a5e9959605a1b604482015260640161068e565b60008383604051610a06929190612f18565b60405180910390209050610a1b8587836114c7565b610a5e5760405162461bcd60e51b8152602060048201526014602482015273151c985b9cd9995c881b9bdd08185b1b1bddd95960621b604482015260640161068e565b610a69858783611bf7565b6000610a7b60c0870160a08801612a86565b6001600160a01b031603610b4d5785471015610ad95760405162461bcd60e51b815260206004820152601b60248201527f496e73756666696369656e74206e61746976652062616c616e63650000000000604482015260640161068e565b610aec6001600160a01b03881687611ca5565b6001600160a01b038716610b0660e0870160c08801612a86565b6001600160a01b03167fddf252ad1be2c89b69c2b068fc378daa952ba7f163c4a11628f55a4df523b3ef88604051610b4091815260200190565b60405180910390a3610d28565b85610b5e60c0870160a08801612a86565b6040516370a0823160e01b81523060048201526001600160a01b0391909116906370a0823190602401602060405180830381865afa158015610ba4573d6000803e3d6000fd5b505050506040513d601f19601f82011682018060405250810190610bc89190612eff565b1015610c165760405162461bcd60e51b815260206004820152601a60248201527f496e73756666696369656e7420746f6b656e2062616c616e6365000000000000604482015260640161068e565b610c2660c0860160a08701612a86565b60405163a9059cbb60e01b81526001600160a01b03898116600483015260248201899052919091169063a9059cbb906044016020604051808303816000875af1158015610c77573d6000803e3d6000fd5b505050506040513d601f19601f82011682018060405250810190610c9b9190612eae565b610cb75760405162461bcd60e51b815260040161068e90612ed0565b610cc760c0860160a08701612a86565b6001600160a01b03908116908816610ce560e0880160c08901612a86565b6001600160a01b03167fae33cb06d7303f889d953bb09540983050163c1c4c98b330db432a911cfb63fd89604051610d1f91815260200190565b60405180910390a45b50505050505050565b60008260600135821015610d4757506000610876565b6000610d596040850160208601612e06565b6004811115610d6a57610d6a612da0565b03610d7757506000610876565b6001610d896040850160208601612e06565b6004811115610d9a57610d9a612da0565b03610dc25762015180610db1606085013584612f3e565b610dbb9190612f67565b9050610876565b6002610dd46040850160208601612e06565b6004811115610de557610de5612da0565b03610df857610dbb836060013583611d48565b6003610e0a6040850160208601612e06565b6004811115610e1b57610e1b612da0565b03610e2e57610dbb836060013583611d97565b6004610e406040850160208601612e06565b6004811115610e5157610e51612da0565b03610ebd576000836040013511610eaa5760405162461bcd60e51b815260206004820152601c60248201527f437573746f6d206672657175656e6379206d757374206265203e203000000000604482015260640161068e565b6040830135610db1606085013584612f3e565b60405162461bcd60e51b8152602060048201526016602482015275496e76616c6964206672657175656e6379207479706560501b604482015260640161068e565b60006108768242610d31565b610f126119e7565b61088c6000611e77565b610f246119e7565b61064581611ee8565b60006108768183611f9c565b610f416119e7565b61088c611fbe565b6000606080828080838160008051602061321d8339815191528054909150158015610f7657506001810154155b610fba5760405162461bcd60e51b81526020600482015260156024820152741152540dcc4c8e88155b9a5b9a5d1a585b1a5e9959605a1b604482015260640161068e565b610fc2612007565b610fca6120ca565b60408051600080825260208201909252600f60f81b9c939b5091995046985030975095509350915050565b610ffd6119e7565b611005611ac3565b61100d611afb565b61101682610f2d565b6110325760405162461bcd60e51b815260040161068e90612e83565b6040516370a0823160e01b815230600482015281906001600160a01b038416906370a0823190602401602060405180830381865afa158015611078573d6000803e3d6000fd5b505050506040513d601f19601f8201168201806040525081019061109c9190612eff565b10156110ea5760405162461bcd60e51b815260206004820152601a60248201527f496e73756666696369656e7420746f6b656e2062616c616e6365000000000000604482015260640161068e565b816001600160a01b031663a9059cbb6111016111da565b6040516001600160e01b031960e084901b1681526001600160a01b039091166004820152602481018490526044016020604051808303816000875af115801561114e573d6000803e3d6000fd5b505050506040513d601f19601f820116820180604052508101906111729190612eae565b61118e5760405162461bcd60e51b815260040161068e90612ed0565b816001600160a01b03166111a06111da565b6001600160a01b03167fe2684a45ae801408de30c0254c2019cd0ecea430606518d367c2f930ee6c30d7836040516107b391815260200190565b7f9016d09d72d40fdae2fd8ceac6b6234c7706214fd39c1cd1e609a0528c199300546001600160a01b031690565b7ff0c57e16840df040f15088dc2f81fe391c3923bec73e23a9662efc9c229c6a008054600160401b810460ff16159067ffffffffffffffff1660008115801561124e5750825b905060008267ffffffffffffffff16600114801561126b5750303b155b905081158015611279575080155b156112975760405163f92ee8a960e01b815260040160405180910390fd5b845467ffffffffffffffff1916600117855583156112c157845460ff60401b1916600160401b1785555b6001600160a01b03881661130e5760405162461bcd60e51b81526020600482015260146024820152734f776e65722063616e6e6f74206265207a65726f60601b604482015260640161068e565b61131788612109565b61131f61211a565b61136b6040518060400160405280601181526020017010d390d15e1c195b9cd95058d8dbdd5b9d607a1b815250604051806040016040528060018152602001603160f81b81525061212a565b61137361213c565b8560005b8181101561140557600089898381811061139357611393612f91565b90506020020160208101906113a89190612a86565b6001600160a01b0316036113ce5760405162461bcd60e51b815260040161068e90612fa7565b6113fd8989838181106113e3576113e3612f91565b90506020020160208101906113f89190612a86565b611ee8565b600101611377565b5060005b818110156114755788888281811061142357611423612f91565b90506020020160208101906114389190612a86565b6001600160a01b03167f8f50fda9bf5d3b403c53b7e91646abd507f8cebf2577655d55d7de3926168b1760405160405180910390a2600101611409565b505083156114bd57845460ff60401b19168555604051600181527fc7f505b2f371ae2175ee4913f4499e1f2633a7b5936321eed1cdaeb6115181d29060200160405180910390a15b5050505050505050565b6000836060013542101561151d5760405162461bcd60e51b815260206004820152601760248201527f417070726f76616c206e6f742079657420616374697665000000000000000000604482015260640161068e565b83608001354211156115645760405162461bcd60e51b815260206004820152601060248201526f105c1c1c9bdd985b08195e1c1a5c995960821b604482015260640161068e565b83358311156115b55760405162461bcd60e51b815260206004820152601b60248201527f416d6f756e74206578636565647320627564676574206c696d69740000000000604482015260640161068e565b6000828152600260205260408120906115d46040870160208801612e06565b60048111156115e5576115e5612da0565b036116465760018101541561163c5760405162461bcd60e51b815260206004820152601c60248201527f4f6e652d74696d652062756467657420616c7265616479207573656400000000604482015260640161068e565b6001915050611796565b600061165186610efe565b9050816002015481118061166457508154155b156116bf5785358511156116ba5760405162461bcd60e51b815260206004820152601c60248201527f416d6f756e74206578636565647320706572696f642062756467657400000000604482015260640161068e565b611718565b60018201548635906116d2908790612fde565b11156117185760405162461bcd60e51b8152602060048201526015602482015274115e18d959591cc81c195c9a5bd908189d5919d95d605a1b604482015260640161068e565b600061172a60c0880160a08901612a86565b6001600160a01b0316148061174d575061174d61037b60c0880160a08901612a86565b61178f5760405162461bcd60e51b8152602060048201526013602482015272151bdad95b881b9bdd081cdd5c1c1bdc9d1959606a1b604482015260640161068e565b6001925050505b9392505050565b6117a56119e7565b6000818152600260208190526040808320600301805460ff19169092179091555182917fe7d3eeb38329f442545ad499afa197225d3b880a08e091ad2c2c244d6236fa0e91a250565b60006117fa600061214c565b905090565b60606117fa6000612156565b6118136119e7565b600081815260026020526040808220600301805460ff191660011790555182917f5e927cbcc58ec12d6f3fbe317ac4ef30466cfcdddf0be5c85eefab4670b73c3691a250565b6118616119e7565b611869611ac3565b611871611afb565b804710156118c15760405162461bcd60e51b815260206004820152601b60248201527f496e73756666696369656e74206e61746976652062616c616e63650000000000604482015260640161068e565b6118dc816118cd6111da565b6001600160a01b031690611ca5565b6118e46111da565b6001600160a01b03167f4d9676ed3c7e652a835f91b6e46ca5a9de07f3b7a97f1845ab5e635e2a953be48260405161191e91815260200190565b60405180910390a261064560016000805160206132f383398151915255565b6119456119e7565b6001600160a01b03811661196f57604051631e4fbdf760e01b81526000600482015260240161068e565b61064581611e77565b60008061198b6040850160208601612e06565b600481111561199c5761199c612da0565b036119a957506000610876565b600082815260026020526040812080549091036119ca576001915050610876565b60006119d585610efe565b60029092015490911191505092915050565b336119f06111da565b6001600160a01b03161461088c5760405163118cdaa760e01b815233600482015260240161068e565b6001600160a01b038116611a3f5760405162461bcd60e51b815260040161068e90612fa7565b611a4a600082612163565b611a8c5760405162461bcd60e51b8152602060048201526013602482015272151bdad95b881b9bdd081cdd5c1c1bdc9d1959606a1b604482015260640161068e565b6040516001600160a01b038216907f1cef54ca6e1745ad87fa3077491d9fc42257e9f1a2d7cad58a4e52bd14dfc62690600090a250565b6000805160206132f3833981519152805460011901611af557604051633ee5aeb560e01b815260040160405180910390fd5b60029055565b6000805160206132d38339815191525460ff161561088c5760405163d93c066560e01b815260040160405180910390fd5b60016000805160206132f383398151915255565b611b48612178565b6000805160206132d3833981519152805460ff191681557f5db9ee0a495bf2e6ff9c91a7834c1ba4fdd244a5e8aa4e537bd38aeae4b073aa335b6040516001600160a01b03909116815260200160405180910390a150565b6000610876611bad6121a8565b8360405161190160f01b8152600281019290925260228201526042902090565b600080600080611bdd86866121b2565b925092509250611bed82826121ff565b5090949350505050565b600081815260026020526040812090611c0f85610efe565b90506000611c236040870160208801612e06565b6004811115611c3457611c34612da0565b03611c585783826001016000828254611c4d9190612fde565b90915550611c9e9050565b8160020154811180611c6957508154155b15611c84576001820184905560028201819055428255611c9e565b83826001016000828254611c989190612fde565b90915550505b5050505050565b80471015611ccf5760405163cf47918160e01b81524760048201526024810182905260440161068e565b6000826001600160a01b03168260405160006040518083038185875af1925050503d8060008114611d1c576040519150601f19603f3d011682016040523d82523d6000602084013e611d21565b606091505b5050905080611d435760405163d6bda27560e01b815260040160405180910390fd5b505050565b600080611d54846122b8565b90506000611d61846122b8565b905081811015611d7657600092505050610876565b62093a80611d848383612f3e565b611d8e9190612f67565b95945050505050565b600080611da384612334565b90506000611db085612354565b90506000611dbd85612334565b90506000611dca86612354565b905086861015611de1576000945050505050610876565b838203611e0957828110611e0457611df98382612f3e565b945050505050610876565b611e6a565b83821115611e6a5760006001611e1f8685612f3e565b611e299190612f3e565b90506000611e3885600c612f3e565b9050828082611e4885600c612ff1565b611e529190612fde565b611e5c9190612fde565b975050505050505050610876565b5060009695505050505050565b7f9016d09d72d40fdae2fd8ceac6b6234c7706214fd39c1cd1e609a0528c19930080546001600160a01b031981166001600160a01b03848116918217845560405192169182907f8be0079c531659141344cd1fd0a4f28419497f9722a3daafe3b4186f6b6457e090600090a3505050565b6001600160a01b038116611f0e5760405162461bcd60e51b815260040161068e90612fa7565b611f1960008261236e565b611f655760405162461bcd60e51b815260206004820152601760248201527f546f6b656e20616c726561647920737570706f72746564000000000000000000604482015260640161068e565b6040516001600160a01b038216907f8f50fda9bf5d3b403c53b7e91646abd507f8cebf2577655d55d7de3926168b1790600090a250565b6001600160a01b03811660009081526001830160205260408120541515611796565b611fc6611afb565b6000805160206132d3833981519152805460ff191660011781557f62e78cea01bee320cd4e420270b5ea74000d11b0c9f74754ebdbfc544b05a25833611b82565b7fa16a46d94261c7517cc8ff89f61c0ce93598e3c849801011dee649a6a557d102805460609160008051602061321d8339815191529161204690613008565b80601f016020809104026020016040519081016040528092919081815260200182805461207290613008565b80156120bf5780601f10612094576101008083540402835291602001916120bf565b820191906000526020600020905b8154815290600101906020018083116120a257829003601f168201915b505050505091505090565b7fa16a46d94261c7517cc8ff89f61c0ce93598e3c849801011dee649a6a557d103805460609160008051602061321d8339815191529161204690613008565b612111612383565b610645816123cc565b612122612383565b61088c6123d4565b612132612383565b6107d282826123dc565b612144612383565b61088c61243d565b6000610876825490565b606060006117968361245e565b6000611796836001600160a01b0384166124ba565b6000805160206132d38339815191525460ff1661088c57604051638dfc202b60e01b815260040160405180910390fd5b60006117fa6125b4565b600080600083516041036121ec5760208401516040850151606086015160001a6121de88828585612628565b9550955095505050506121f8565b50508151600091506002905b9250925092565b600082600381111561221357612213612da0565b0361221c575050565b600182600381111561223057612230612da0565b0361224e5760405163f645eedf60e01b815260040160405180910390fd5b600282600381111561226257612262612da0565b036122835760405163fce698f760e01b81526004810182905260240161068e565b600382600381111561229757612297612da0565b036107d2576040516335e2f38360e21b81526004810182905260240161068e565b6000806122c4836126f7565b905060006122eb6122d485612334565b6122dd86612354565b6122e68761272b565b612745565b9050816001036122fc579392505050565b6000612309600184612f3e565b6123169062015180612ff1565b905080821061232957611d8e8183612f3e565b506000949350505050565b600061234b6123466201518084612f67565b612760565b50909392505050565b60006123666123466201518084612f67565b509392505050565b6000611796836001600160a01b0384166127fc565b7ff0c57e16840df040f15088dc2f81fe391c3923bec73e23a9662efc9c229c6a0054600160401b900460ff1661088c57604051631afcd79f60e31b815260040160405180910390fd5b611945612383565b611b2c612383565b6123e4612383565b60008051602061321d8339815191527fa16a46d94261c7517cc8ff89f61c0ce93598e3c849801011dee649a6a557d10261241e848261308c565b506003810161242d838261308c565b5060008082556001909101555050565b612445612383565b6000805160206132d3833981519152805460ff19169055565b6060816000018054806020026020016040519081016040528092919081815260200182805480156124ae57602002820191906000526020600020905b81548152602001906001019080831161249a575b50505050509050919050565b600081815260018301602052604081205480156125a35760006124de600183612f3e565b85549091506000906124f290600190612f3e565b905080821461255757600086600001828154811061251257612512612f91565b906000526020600020015490508087600001848154811061253557612535612f91565b6000918252602080832090910192909255918252600188019052604090208390555b85548690806125685761256861314c565b600190038181906000526020600020016000905590558560010160008681526020019081526020016000206000905560019350505050610876565b6000915050610876565b5092915050565b60007f8b73c3c69bb8fe3d512ecc4cf759cc79239f7b179b0ffacaa9a75d522b39400f6125df61284b565b6125e76128b5565b60408051602081019490945283019190915260608201524660808201523060a082015260c00160405160208183030381529060405280519060200120905090565b600080807f7fffffffffffffffffffffffffffffff5d576e7357a4501ddfe92f46681b20a084111561266357506000915060039050826126ed565b604080516000808252602082018084528a905260ff891692820192909252606081018790526080810186905260019060a0016020604051602081039080840390855afa1580156126b7573d6000803e3d6000fd5b5050604051601f1901519150506001600160a01b0381166126e3575060009250600191508290506126ed565b9250600091508190505b9450945094915050565b6000806127076201518084612f67565b90506007612716826003612fde565b6127209190613162565b611796906001612fde565b600061273d6123466201518084612f67565b949350505050565b6000620151806127568585856128f9565b61273d9190612ff1565b60008080836226496581018262023ab1600483020590506004600362023ab18302010590910390600062164b09610fa0600185010205905060046105b58202058303601f019250600061098f84605002816127bd576127bd612f51565b0590506000605061098f83020585039050600b820560301994909401606402929092018301996002600c90940290910392909201975095509350505050565b600081815260018301602052604081205461284357508154600181810184556000848152602080822090930184905584548482528286019093526040902091909155610876565b506000610876565b600060008051602061321d83398151915281612865612007565b80519091501561287d57805160209091012092915050565b8154801561288c579392505050565b7fc5d2460186f7233c927e7db2dcc703c0e500b653ca82273b7bfad8045d85a470935050505090565b600060008051602061321d833981519152816128cf6120ca565b8051909150156128e757805160209091012092915050565b6001820154801561288c579392505050565b60006107b284101561290a57600080fd5b838383600062253d8c60046064600c612924600e88613176565b61292e9190613196565b61293a886113246131c4565b61294491906131c4565b61294e9190613196565b6129599060036131ec565b6129639190613196565b600c80612971600e88613176565b61297b9190613196565b61298690600c6131ec565b612991600288613176565b61299b9190613176565b6129a79061016f6131ec565b6129b19190613196565b6004600c6129c0600e89613176565b6129ca9190613196565b6129d6896112c06131c4565b6129e091906131c4565b6129ec906105b56131ec565b6129f69190613196565b612a02617d4b87613176565b612a0c91906131c4565b612a1691906131c4565b612a209190613176565b612a2a9190613176565b98975050505050505050565b600060e08284031215612a4857600080fd5b50919050565b600060e08284031215612a6057600080fd5b6117968383612a36565b80356001600160a01b0381168114612a8157600080fd5b919050565b600060208284031215612a9857600080fd5b61179682612a6a565b60008060408385031215612ab457600080fd5b612abd83612a6a565b946020939093013593505050565b60008060008060006101408688031215612ae457600080fd5b612aed86612a6a565b945060208601359350612b038760408801612a36565b925061012086013567ffffffffffffffff80821115612b2157600080fd5b818801915088601f830112612b3557600080fd5b813581811115612b4457600080fd5b896020828501011115612b5657600080fd5b9699959850939650602001949392505050565b6000806101008385031215612b7d57600080fd5b612b878484612a36565b9460e0939093013593505050565b60005b83811015612bb0578181015183820152602001612b98565b50506000910152565b60008151808452612bd1816020860160208601612b95565b601f01601f19169290920160200192915050565b60ff60f81b881681526000602060e06020840152612c0660e084018a612bb9565b8381036040850152612c18818a612bb9565b606085018990526001600160a01b038816608086015260a0850187905284810360c08601528551808252602080880193509091019060005b81811015612c6c57835183529284019291840191600101612c50565b50909c9b505050505050505050505050565b600080600060408486031215612c9357600080fd5b612c9c84612a6a565b9250602084013567ffffffffffffffff80821115612cb957600080fd5b818601915086601f830112612ccd57600080fd5b813581811115612cdc57600080fd5b8760208260051b8501011115612cf157600080fd5b6020830194508093505050509250925092565b60008060006101208486031215612d1a57600080fd5b612d248585612a36565b9560e08501359550610100909401359392505050565b600060208284031215612d4c57600080fd5b5035919050565b6020808252825182820181905260009190848201906040850190845b81811015612d945783516001600160a01b031683529284019291840191600101612d6f565b50909695505050505050565b634e487b7160e01b600052602160045260246000fd5b84815260208101849052604081018390526080810160038310612ddb57612ddb612da0565b82606083015295945050505050565b60008251612dfc818460208701612b95565b9190910192915050565b600060208284031215612e1857600080fd5b81356005811061179657600080fd5b88815260208101889052610100810160058810612e4657612e46612da0565b60408201979097526060810195909552608085019390935260a08401919091526001600160a01b0390811660c08401521660e09091015292915050565b6020808252601190820152702ab739bab83837b93a32b2103a37b5b2b760791b604082015260600190565b600060208284031215612ec057600080fd5b8151801515811461179657600080fd5b602080825260159082015274151bdad95b881d1c985b9cd9995c8819985a5b1959605a1b604082015260600190565b600060208284031215612f1157600080fd5b5051919050565b8183823760009101908152919050565b634e487b7160e01b600052601160045260246000fd5b8181038181111561087657610876612f28565b634e487b7160e01b600052601260045260246000fd5b600082612f7657612f76612f51565b500490565b634e487b7160e01b600052604160045260246000fd5b634e487b7160e01b600052603260045260246000fd5b6020808252601c908201527f546f6b656e20616464726573732063616e6e6f74206265207a65726f00000000604082015260600190565b8082018082111561087657610876612f28565b808202811582820484141761087657610876612f28565b600181811c9082168061301c57607f821691505b602082108103612a4857634e487b7160e01b600052602260045260246000fd5b601f821115611d43576000816000526020600020601f850160051c810160208610156130655750805b601f850160051c820191505b8181101561308457828155600101613071565b505050505050565b815167ffffffffffffffff8111156130a6576130a6612f7b565b6130ba816130b48454613008565b8461303c565b602080601f8311600181146130ef57600084156130d75750858301515b600019600386901b1c1916600185901b178555613084565b600085815260208120601f198616915b8281101561311e578886015182559484019460019091019084016130ff565b508582101561313c5787850151600019600388901b60f8161c191681555b5050505050600190811b01905550565b634e487b7160e01b600052603160045260246000fd5b60008261317157613171612f51565b500690565b81810360008312801583831316838312821617156125ad576125ad612f28565b6000826131a5576131a5612f51565b600160ff1b8214600019841416156131bf576131bf612f28565b500590565b80820182811260008312801582168215821617156131e4576131e4612f28565b505092915050565b80820260008212600160ff1b8414161561320857613208612f28565b818105831482151761087657610876612f2856fea16a46d94261c7517cc8ff89f61c0ce93598e3c849801011dee649a6a557d1004275646765744c696d69742875696e7432353620616d6f756e742c75696e7438206672657175656e6379547970652c75696e7432353620637573746f6d4672657175656e63792c75696e74323536207374617274446174652c75696e7432353620656e64446174652c6164647265737320746f6b656e416464726573732c6164647265737320617070726f7665644164647265737329cd5ed15c6e187e77e9aee88184c21f4f2182ab5827cb3b7e07fbedcd63f033009b779b17422d0df92223018b32b4d1fa46e071723d6817e2486d003becc55f00a264697066735822122007ca73cba0a2071a33a38f617297f1f16ad6db0c851c6709d307035a33e3968664736f6c63430008180033",
  "linkReferences": {},
  "deployedLinkReferences": {}
}