{
  "_format": "hh-sol-artifact-1",
  "contractName": "ExpenseAccountEIP712",
  "sourceName": "contracts/expense-account/ExpenseAccountEIP712.sol",
  "abi": [
    {
      "inputs": [
        {
          "internalType": "uint256",
          "name": "amount",
          "type": "uint256"
        }
      ],
      "name": "AmountPerPeriodExceeded",
      "type": "error"
    },
    {
      "inputs": [
        {
          "internalType": "uint256",
          "name": "amount",
          "type": "uint256"
        }
      ],
      "name": "AmountPerTransactionExceeded",
      "type": "error"
    },
    {
      "inputs": [],
      "name": "ECDSAInvalidSignature",
      "type": "error"
    },
    {
      "inputs": [
        {
          "internalType": "uint256",
          "name": "length",
          "type": "uint256"
        }
      ],
      "name": "ECDSAInvalidSignatureLength",
      "type": "error"
    },
    {
      "inputs": [
        {
          "internalType": "bytes32",
          "name": "s",
          "type": "bytes32"
        }
      ],
      "name": "ECDSAInvalidSignatureS",
      "type": "error"
    },
    {
      "inputs": [],
      "name": "EnforcedPause",
      "type": "error"
    },
    {
      "inputs": [],
      "name": "ExpectedPause",
      "type": "error"
    },
    {
      "inputs": [],
      "name": "FailedCall",
      "type": "error"
    },
    {
      "inputs": [
        {
          "internalType": "uint256",
          "name": "balance",
          "type": "uint256"
        },
        {
          "internalType": "uint256",
          "name": "needed",
          "type": "uint256"
        }
      ],
      "name": "InsufficientBalance",
      "type": "error"
    },
    {
      "inputs": [],
      "name": "InvalidInitialization",
      "type": "error"
    },
    {
      "inputs": [],
      "name": "NotInitializing",
      "type": "error"
    },
    {
      "inputs": [
        {
          "internalType": "address",
          "name": "owner",
          "type": "address"
        }
      ],
      "name": "OwnableInvalidOwner",
      "type": "error"
    },
    {
      "inputs": [
        {
          "internalType": "address",
          "name": "account",
          "type": "address"
        }
      ],
      "name": "OwnableUnauthorizedAccount",
      "type": "error"
    },
    {
      "inputs": [],
      "name": "ReentrancyGuardReentrantCall",
      "type": "error"
    },
    {
      "inputs": [
        {
          "internalType": "address",
          "name": "expected",
          "type": "address"
        },
        {
          "internalType": "address",
          "name": "received",
          "type": "address"
        }
      ],
      "name": "UnauthorizedAccess",
      "type": "error"
    },
    {
      "anonymous": false,
      "inputs": [
        {
          "indexed": true,
          "internalType": "bytes32",
          "name": "signatureHash",
          "type": "bytes32"
        }
      ],
      "name": "ApprovalActivated",
      "type": "event"
    },
    {
      "anonymous": false,
      "inputs": [
        {
          "indexed": true,
          "internalType": "bytes32",
          "name": "signatureHash",
          "type": "bytes32"
        }
      ],
      "name": "ApprovalDeactivated",
      "type": "event"
    },
    {
      "anonymous": false,
      "inputs": [
        {
          "indexed": true,
          "internalType": "address",
          "name": "depositor",
          "type": "address"
        },
        {
          "indexed": false,
          "internalType": "uint256",
          "name": "amount",
          "type": "uint256"
        }
      ],
      "name": "Deposited",
      "type": "event"
    },
    {
      "anonymous": false,
      "inputs": [],
      "name": "EIP712DomainChanged",
      "type": "event"
    },
    {
      "anonymous": false,
      "inputs": [
        {
          "indexed": false,
          "internalType": "uint64",
          "name": "version",
          "type": "uint64"
        }
      ],
      "name": "Initialized",
      "type": "event"
    },
    {
      "anonymous": false,
      "inputs": [
        {
          "indexed": true,
          "internalType": "address",
          "name": "previousOwner",
          "type": "address"
        },
        {
          "indexed": true,
          "internalType": "address",
          "name": "newOwner",
          "type": "address"
        }
      ],
      "name": "OwnershipTransferred",
      "type": "event"
    },
    {
      "anonymous": false,
      "inputs": [
        {
          "indexed": false,
          "internalType": "address",
          "name": "account",
          "type": "address"
        }
      ],
      "name": "Paused",
      "type": "event"
    },
    {
      "anonymous": false,
      "inputs": [
        {
          "indexed": true,
          "internalType": "address",
          "name": "addressWhoChanged",
          "type": "address"
        },
        {
          "indexed": false,
          "internalType": "string",
          "name": "tokenSymbol",
          "type": "string"
        },
        {
          "indexed": true,
          "internalType": "address",
          "name": "oldAddress",
          "type": "address"
        },
        {
          "indexed": true,
          "internalType": "address",
          "name": "newAddress",
          "type": "address"
        }
      ],
      "name": "TokenAddressChanged",
      "type": "event"
    },
    {
      "anonymous": false,
      "inputs": [
        {
          "indexed": true,
          "internalType": "address",
          "name": "depositor",
          "type": "address"
        },
        {
          "indexed": true,
          "internalType": "address",
          "name": "token",
          "type": "address"
        },
        {
          "indexed": false,
          "internalType": "uint256",
          "name": "amount",
          "type": "uint256"
        }
      ],
      "name": "TokenDeposited",
      "type": "event"
    },
    {
      "anonymous": false,
      "inputs": [
        {
          "indexed": true,
          "internalType": "address",
          "name": "withdrawer",
          "type": "address"
        },
        {
          "indexed": true,
          "internalType": "address",
          "name": "to",
          "type": "address"
        },
        {
          "indexed": true,
          "internalType": "address",
          "name": "token",
          "type": "address"
        },
        {
          "indexed": false,
          "internalType": "uint256",
          "name": "amount",
          "type": "uint256"
        }
      ],
      "name": "TokenTransfer",
      "type": "event"
    },
    {
      "anonymous": false,
      "inputs": [
        {
          "indexed": true,
          "internalType": "address",
          "name": "withdrawer",
          "type": "address"
        },
        {
          "indexed": true,
          "internalType": "address",
          "name": "to",
          "type": "address"
        },
        {
          "indexed": false,
          "internalType": "uint256",
          "name": "amount",
          "type": "uint256"
        }
      ],
      "name": "Transfer",
      "type": "event"
    },
    {
      "anonymous": false,
      "inputs": [
        {
          "indexed": false,
          "internalType": "address",
          "name": "account",
          "type": "address"
        }
      ],
      "name": "Unpaused",
      "type": "event"
    },
    {
      "inputs": [
        {
          "internalType": "bytes32",
          "name": "signatureHash",
          "type": "bytes32"
        }
      ],
      "name": "activateApproval",
      "outputs": [],
      "stateMutability": "nonpayable",
      "type": "function"
    },
    {
      "inputs": [
        {
          "internalType": "bytes32",
          "name": "",
          "type": "bytes32"
        }
      ],
      "name": "balances",
      "outputs": [
        {
          "internalType": "uint256",
          "name": "transactionCount",
          "type": "uint256"
        },
        {
          "internalType": "uint256",
          "name": "amountWithdrawn",
          "type": "uint256"
        },
        {
          "internalType": "enum ExpenseAccountEIP712.ApprovalState",
          "name": "state",
          "type": "uint8"
        }
      ],
      "stateMutability": "view",
      "type": "function"
    },
    {
      "inputs": [
        {
          "internalType": "string",
          "name": "symbol",
          "type": "string"
        },
        {
          "internalType": "address",
          "name": "newAddress",
          "type": "address"
        }
      ],
      "name": "changeTokenAddress",
      "outputs": [],
      "stateMutability": "nonpayable",
      "type": "function"
    },
    {
      "inputs": [
        {
          "internalType": "bytes32",
          "name": "signatureHash",
          "type": "bytes32"
        }
      ],
      "name": "deactivateApproval",
      "outputs": [],
      "stateMutability": "nonpayable",
      "type": "function"
    },
    {
      "inputs": [
        {
          "internalType": "address",
          "name": "token",
          "type": "address"
        },
        {
          "internalType": "uint256",
          "name": "amount",
          "type": "uint256"
        }
      ],
      "name": "depositToken",
      "outputs": [],
      "stateMutability": "nonpayable",
      "type": "function"
    },
    {
      "inputs": [],
      "name": "eip712Domain",
      "outputs": [
        {
          "internalType": "bytes1",
          "name": "fields",
          "type": "bytes1"
        },
        {
          "internalType": "string",
          "name": "name",
          "type": "string"
        },
        {
          "internalType": "string",
          "name": "version",
          "type": "string"
        },
        {
          "internalType": "uint256",
          "name": "chainId",
          "type": "uint256"
        },
        {
          "internalType": "address",
          "name": "verifyingContract",
          "type": "address"
        },
        {
          "internalType": "bytes32",
          "name": "salt",
          "type": "bytes32"
        },
        {
          "internalType": "uint256[]",
          "name": "extensions",
          "type": "uint256[]"
        }
      ],
      "stateMutability": "view",
      "type": "function"
    },
    {
      "inputs": [],
      "name": "getBalance",
      "outputs": [
        {
          "internalType": "uint256",
          "name": "",
          "type": "uint256"
        }
      ],
      "stateMutability": "view",
      "type": "function"
    },
    {
      "inputs": [
        {
          "internalType": "address",
          "name": "token",
          "type": "address"
        }
      ],
      "name": "getTokenBalance",
      "outputs": [
        {
          "internalType": "uint256",
          "name": "",
          "type": "uint256"
        }
      ],
      "stateMutability": "view",
      "type": "function"
    },
    {
      "inputs": [
        {
          "internalType": "address",
          "name": "owner",
          "type": "address"
        },
        {
          "internalType": "address",
          "name": "_usdtAddress",
          "type": "address"
        },
        {
          "internalType": "address",
          "name": "_usdcAddress",
          "type": "address"
        }
      ],
      "name": "initialize",
      "outputs": [],
      "stateMutability": "nonpayable",
      "type": "function"
    },
    {
      "inputs": [
        {
          "internalType": "address",
          "name": "_token",
          "type": "address"
        }
      ],
      "name": "isTokenSupported",
      "outputs": [
        {
          "internalType": "bool",
          "name": "",
          "type": "bool"
        }
      ],
      "stateMutability": "view",
      "type": "function"
    },
    {
      "inputs": [],
      "name": "owner",
      "outputs": [
        {
          "internalType": "address",
          "name": "",
          "type": "address"
        }
      ],
      "stateMutability": "view",
      "type": "function"
    },
    {
      "inputs": [],
      "name": "pause",
      "outputs": [],
      "stateMutability": "nonpayable",
      "type": "function"
    },
    {
      "inputs": [],
      "name": "paused",
      "outputs": [
        {
          "internalType": "bool",
          "name": "",
          "type": "bool"
        }
      ],
      "stateMutability": "view",
      "type": "function"
    },
    {
      "inputs": [],
      "name": "renounceOwnership",
      "outputs": [],
      "stateMutability": "nonpayable",
      "type": "function"
    },
    {
      "inputs": [
        {
          "internalType": "string",
          "name": "",
          "type": "string"
        }
      ],
      "name": "supportedTokens",
      "outputs": [
        {
          "internalType": "address",
          "name": "",
          "type": "address"
        }
      ],
      "stateMutability": "view",
      "type": "function"
    },
    {
      "inputs": [
        {
          "internalType": "address",
          "name": "to",
          "type": "address"
        },
        {
          "internalType": "uint256",
          "name": "amount",
          "type": "uint256"
        },
        {
          "components": [
            {
              "internalType": "address",
              "name": "approvedAddress",
              "type": "address"
            },
            {
              "components": [
                {
                  "internalType": "enum ExpenseAccountEIP712.BudgetType",
                  "name": "budgetType",
                  "type": "uint8"
                },
                {
                  "internalType": "uint256",
                  "name": "value",
                  "type": "uint256"
                }
              ],
              "internalType": "struct ExpenseAccountEIP712.BudgetData[]",
              "name": "budgetData",
              "type": "tuple[]"
            },
            {
              "internalType": "uint256",
              "name": "expiry",
              "type": "uint256"
            },
            {
              "internalType": "address",
              "name": "tokenAddress",
              "type": "address"
            }
          ],
          "internalType": "struct ExpenseAccountEIP712.BudgetLimit",
          "name": "limit",
          "type": "tuple"
        },
        {
          "internalType": "bytes",
          "name": "signature",
          "type": "bytes"
        }
      ],
      "name": "transfer",
      "outputs": [],
      "stateMutability": "nonpayable",
      "type": "function"
    },
    {
      "inputs": [
        {
          "internalType": "address",
          "name": "newOwner",
          "type": "address"
        }
      ],
      "name": "transferOwnership",
      "outputs": [],
      "stateMutability": "nonpayable",
      "type": "function"
    },
    {
      "inputs": [],
      "name": "unpause",
      "outputs": [],
      "stateMutability": "nonpayable",
      "type": "function"
    },
    {
      "stateMutability": "payable",
      "type": "receive"
    }
  ],
  "bytecode": "0x608060405234801561001057600080fd5b50612770806100206000396000f3fe60806040526004361061010d5760003560e01c806384b0196e11610095578063ab38a48511610064578063ab38a48514610346578063bccb212a14610366578063c0c53b8b14610386578063de982534146103a6578063f2fde38b146103c657600080fd5b806384b0196e146102625780638909aa3f1461028a57806389919cdd146102d85780638da5cb5b1461033157600080fd5b80635c975abb116100dc5780635c975abb146101c7578063715018a6146101f857806375151b631461020d5780637fdc8dd21461022d5780638456cb591461024d57600080fd5b806312065fe01461014e578063338b5dea146101705780633aecd0e3146101925780633f4ba83a146101b257600080fd5b366101495760405134815233907f2da466a7b24304f47e87fa2e1e5a81b9831ce54fec19055ce277ca2f39ba42c49060200160405180910390a2005b600080fd5b34801561015a57600080fd5b50475b6040519081526020015b60405180910390f35b34801561017c57600080fd5b5061019061018b366004611f0a565b6103e6565b005b34801561019e57600080fd5b5061015d6101ad366004611f34565b61058a565b3480156101be57600080fd5b5061019061061f565b3480156101d357600080fd5b506000805160206126fb8339815191525460ff165b6040519015158152602001610167565b34801561020457600080fd5b50610190610631565b34801561021957600080fd5b506101e8610228366004611f34565b610643565b34801561023957600080fd5b50610190610248366004611f9f565b6106c8565b34801561025957600080fd5b50610190610be3565b34801561026e57600080fd5b50610277610bf3565b604051610167979695949392919061207c565b34801561029657600080fd5b506102c96102a5366004612115565b60006020819052908152604090208054600182015460029092015490919060ff1683565b60405161016793929190612162565b3480156102e457600080fd5b506103196102f336600461219d565b80516020818301810180516001825292820191909301209152546001600160a01b031681565b6040516001600160a01b039091168152602001610167565b34801561033d57600080fd5b50610319610c9f565b34801561035257600080fd5b5061019061036136600461224e565b610ccd565b34801561037257600080fd5b50610190610381366004612115565b610ece565b34801561039257600080fd5b506101906103a13660046122a2565b610f1e565b3480156103b257600080fd5b506101906103c1366004612115565b6110eb565b3480156103d257600080fd5b506101906103e1366004611f34565b611139565b6103ee611177565b6103f66111af565b6103ff82610643565b6104245760405162461bcd60e51b815260040161041b906122dc565b60405180910390fd5b600081116104745760405162461bcd60e51b815260206004820181905260248201527f416d6f756e74206d7573742062652067726561746572207468616e207a65726f604482015260640161041b565b6040516323b872dd60e01b8152336004820152306024820152604481018290526001600160a01b038316906323b872dd906064016020604051808303816000875af11580156104c7573d6000803e3d6000fd5b505050506040513d601f19601f820116820180604052508101906104eb9190612307565b61052f5760405162461bcd60e51b8152602060048201526015602482015274151bdad95b881d1c985b9cd9995c8819985a5b1959605a1b604482015260640161041b565b6040518181526001600160a01b0383169033907ff1444b5cad7ce70cb018d1b8edc8618fe303f3c7f034d8d572a6e27facbf2bef9060200160405180910390a3610586600160008051602061271b83398151915255565b5050565b600061059582610643565b6105b15760405162461bcd60e51b815260040161041b906122dc565b6040516370a0823160e01b81523060048201526001600160a01b038316906370a0823190602401602060405180830381865afa1580156105f5573d6000803e3d6000fd5b505050506040513d601f19601f820116820180604052508101906106199190612329565b92915050565b6106276111f4565b61062f611226565b565b6106396111f4565b61062f6000611286565b6000600160405161065e90631554d11560e21b815260040190565b908152604051908190036020019020546001600160a01b03838116911614806106b45750604051635553444360e01b8152600190600401908152604051908190036020019020546001600160a01b038381169116145b806106195750506001600160a01b03161590565b6106d06111af565b6106d8611177565b600260008084846040516106ed929190612342565b6040805191829003909120825260208201929092520160002060029081015460ff169081111561071f5761071f61212e565b036107605760405162461bcd60e51b8152602060048201526011602482015270417070726f76616c20696e61637469766560781b604482015260640161041b565b61076d6020840184611f34565b6001600160a01b0316336001600160a01b0316146107cd5760405162461bcd60e51b815260206004820152601760248201527f57697468647261776572206e6f7420617070726f766564000000000000000000604482015260640161041b565b6001600160a01b0385166108165760405162461bcd60e51b815260206004820152601060248201526f1059191c995cdcc81c995c5d5a5c995960821b604482015260640161041b565b600084116108665760405162461bcd60e51b815260206004820181905260248201527f416d6f756e74206d7573742062652067726561746572207468616e207a65726f604482015260640161041b565b60006108756020850185612352565b9050116108b85760405162461bcd60e51b8152602060048201526011602482015270456d70747920627564676574206461746160781b604482015260640161041b565b6108cb6102286080850160608601611f34565b6108e75760405162461bcd60e51b815260040161041b906122dc565b60006108fa6108f5856112f7565b6113da565b9050600061094084848080601f01602080910402602001604051908101604052809392919081815260200183838082843760009201919091525086939250506114079050565b905061094a610c9f565b6001600160a01b0316816001600160a01b0316146109975761096a610c9f565b604051634116c50f60e01b81526001600160a01b039182166004820152908216602482015260440161041b565b84604001354211156109e35760405162461bcd60e51b8152602060048201526015602482015274105d5d1a1bdc9a5e985d1a5bdb88195e1c1a5c9959605a1b604482015260640161041b565b6109fb6109f36020870187612352565b888787611431565b6000610a0d6080870160608801611f34565b6001600160a01b031603610a8c57610a2e6001600160a01b03881687611757565b6001600160a01b038716610a456020870187611f34565b6001600160a01b03167fddf252ad1be2c89b69c2b068fc378daa952ba7f163c4a11628f55a4df523b3ef88604051610a7f91815260200190565b60405180910390a3610bc3565b610a9c6080860160608701611f34565b60405163a9059cbb60e01b81526001600160a01b03898116600483015260248201899052919091169063a9059cbb906044016020604051808303816000875af1158015610aed573d6000803e3d6000fd5b505050506040513d601f19601f82011682018060405250810190610b119190612307565b610b555760405162461bcd60e51b8152602060048201526015602482015274151bdad95b881d1c985b9cd9995c8819985a5b1959605a1b604482015260640161041b565b610b656080860160608701611f34565b6001600160a01b03908116908816610b806020880188611f34565b6001600160a01b03167fae33cb06d7303f889d953bb09540983050163c1c4c98b330db432a911cfb63fd89604051610bba91815260200190565b60405180910390a45b5050610bdc600160008051602061271b83398151915255565b5050505050565b610beb6111f4565b61062f6117ed565b6000606080828080838160008051602061267b8339815191528054909150158015610c2057506001810154155b610c645760405162461bcd60e51b81526020600482015260156024820152741152540dcc4c8e88155b9a5b9a5d1a585b1a5e9959605a1b604482015260640161041b565b610c6c611836565b610c746118f9565b60408051600080825260208201909252600f60f81b9c939b5091995046985030975095509350915050565b7f9016d09d72d40fdae2fd8ceac6b6234c7706214fd39c1cd1e609a0528c199300546001600160a01b031690565b610cd56111f4565b610cdd6111af565b6001600160a01b038116610d2c5760405162461bcd60e51b8152602060048201526016602482015275416464726573732063616e6e6f74206265207a65726f60501b604482015260640161041b565b604051631554d11560e21b6020820152602401604051602081830303815290604052805190602001208383604051602001610d68929190612342565b604051602081830303815290604052805190602001201480610dd95750604051635553444360e01b6020820152602401604051602081830303815290604052805190602001208383604051602001610dc1929190612342565b60405160208183030381529060405280519060200120145b610e1c5760405162461bcd60e51b8152602060048201526014602482015273125b9d985b1a59081d1bdad95b881cde5b589bdb60621b604482015260640161041b565b600060018484604051610e30929190612342565b908152604051908190036020018120546001600160a01b031691508290600190610e5d9087908790612342565b90815260405190819003602001812080546001600160a01b039384166001600160a01b03199091161790558382169183169033907ffa0e1aca71e09b7065691fdf3ee6adb50937ef393f5e4c3fca1235dd97702f8c90610ec0908990899061239c565b60405180910390a450505050565b610ed66111f4565b6000818152602081905260408082206002908101805460ff191690911790555182917fe7d3eeb38329f442545ad499afa197225d3b880a08e091ad2c2c244d6236fa0e91a250565b6000610f28611938565b805490915060ff600160401b820416159067ffffffffffffffff16600081158015610f505750825b905060008267ffffffffffffffff166001148015610f6d5750303b155b905081158015610f7b575080155b15610f995760405163f92ee8a960e01b815260040160405180910390fd5b845467ffffffffffffffff191660011785558315610fc357845460ff60401b1916600160401b1785555b610fcc88611961565b610fd4611972565b610fdc611982565b6110286040518060400160405280601181526020017010d390d15e1c195b9cd95058d8dbdd5b9d607a1b815250604051806040016040528060018152602001603160f81b81525061198a565b86600160405161104290631554d11560e21b815260040190565b9081526040805191829003602001822080546001600160a01b039485166001600160a01b031991821617909155635553444360e01b83526001600484015290519182900360240190912080549289169290911691909117905583156110e157845460ff60401b19168555604051600181527fc7f505b2f371ae2175ee4913f4499e1f2633a7b5936321eed1cdaeb6115181d29060200160405180910390a15b5050505050505050565b6110f36111f4565b600081815260208190526040808220600201805460ff191660011790555182917f5e927cbcc58ec12d6f3fbe317ac4ef30466cfcdddf0be5c85eefab4670b73c3691a250565b6111416111f4565b6001600160a01b03811661116b57604051631e4fbdf760e01b81526000600482015260240161041b565b61117481611286565b50565b60008051602061271b8339815191528054600119016111a957604051633ee5aeb560e01b815260040160405180910390fd5b60029055565b6000805160206126fb8339815191525460ff161561062f5760405163d93c066560e01b815260040160405180910390fd5b600160008051602061271b83398151915255565b336111fd610c9f565b6001600160a01b03161461062f5760405163118cdaa760e01b815233600482015260240161041b565b61122e61199c565b6000805160206126fb833981519152805460ff191681557f5db9ee0a495bf2e6ff9c91a7834c1ba4fdd244a5e8aa4e537bd38aeae4b073aa335b6040516001600160a01b03909116815260200160405180910390a150565b7f9016d09d72d40fdae2fd8ceac6b6234c7706214fd39c1cd1e609a0528c19930080546001600160a01b031981166001600160a01b03848116918217845560405192169182907f8be0079c531659141344cd1fd0a4f28419497f9722a3daafe3b4186f6b6457e090600090a3505050565b600060405180608001604052806060815260200161269b606091396040518060600160405280602a8152602001612651602a913960405160200161133c9291906123cb565b60408051601f1981840301815291905280516020918201209061136190840184611f34565b6113766113716020860186612352565b6119cc565b604085013561138b6080870160608801611f34565b6040805160208101969096526001600160a01b0394851690860152606085019290925260808401521660a082015260c0015b604051602081830303815290604052805190602001209050919050565b60006106196113e7611aa8565b8360405161190160f01b8152600281019290925260228201526042902090565b6000806000806114178686611ab7565b9250925092506114278282611b04565b5090949350505050565b60008282604051611443929190612342565b60405190819003902090506000805b60ff811687111561170457600088888360ff16818110611474576114746123fa565b61148a9260206040909202019081019150612410565b600281111561149b5761149b61212e565b036115465787878260ff168181106114b5576114b56123fa565b9050604002016020013560008085815260200190815260200160002060000154106115225760405162461bcd60e51b815260206004820152601960248201527f5472616e73616374696f6e206c696d6974207265616368656400000000000000604482015260640161041b565b600083815260208190526040812080549161153c83612447565b91905055506116f2565b600188888360ff1681811061155d5761155d6123fa565b6115739260206040909202019081019150612410565b60028111156115845761158461212e565b0361163d5787878260ff1681811061159e5761159e6123fa565b9050604002016020013586600080868152602001908152602001600020600101546115c99190612460565b1115611608576000838152602081905260409020600101546115ec908790612460565b6040516320435cc160e01b815260040161041b91815260200190565b81611638576000838152602081905260408120600101805488929061162e908490612460565b9091555060019250505b6116f2565b600288888360ff16818110611654576116546123fa565b61166a9260206040909202019081019150612410565b600281111561167b5761167b61212e565b036116f25787878260ff16818110611695576116956123fa565b905060400201602001358611156116c25760405163da56a10960e01b81526004810187905260240161041b565b816116f257600083815260208190526040812060010180548892906116e8908490612460565b9091555060019250505b806116fc81612473565b915050611452565b50600082815260208190526040812060029081015460ff169081111561172c5761172c61212e565b0361174e576000828152602081905260409020600201805460ff191660011790555b50505050505050565b804710156117815760405163cf47918160e01b81524760048201526024810182905260440161041b565b600080836001600160a01b03168360405160006040518083038185875af1925050503d80600081146117cf576040519150601f19603f3d011682016040523d82523d6000602084013e6117d4565b606091505b5091509150816117e7576117e781611bbd565b50505050565b6117f56111af565b6000805160206126fb833981519152805460ff191660011781557f62e78cea01bee320cd4e420270b5ea74000d11b0c9f74754ebdbfc544b05a25833611268565b7fa16a46d94261c7517cc8ff89f61c0ce93598e3c849801011dee649a6a557d102805460609160008051602061267b8339815191529161187590612492565b80601f01602080910402602001604051908101604052809291908181526020018280546118a190612492565b80156118ee5780601f106118c3576101008083540402835291602001916118ee565b820191906000526020600020905b8154815290600101906020018083116118d157829003601f168201915b505050505091505090565b7fa16a46d94261c7517cc8ff89f61c0ce93598e3c849801011dee649a6a557d103805460609160008051602061267b8339815191529161187590612492565b6000807ff0c57e16840df040f15088dc2f81fe391c3923bec73e23a9662efc9c229c6a00610619565b611969611be6565b61117481611c0b565b61197a611be6565b61062f611c13565b61062f611be6565b611992611be6565b6105868282611c1b565b6000805160206126fb8339815191525460ff1661062f57604051638dfc202b60e01b815260040160405180910390fd5b6000808267ffffffffffffffff8111156119e8576119e8612187565b604051908082528060200260200182016040528015611a11578160200160208202803683370190505b50905060005b60ff8116841115611a7757611a4585858360ff16818110611a3a57611a3a6123fa565b905060400201611c7c565b828260ff1681518110611a5a57611a5a6123fa565b602090810291909101015280611a6f81612473565b915050611a17565b5080604051602001611a8991906124cc565b6040516020818303038152906040528051906020012091505092915050565b6000611ab2611ce3565b905090565b60008060008351604103611af15760208401516040850151606086015160001a611ae388828585611d57565b955095509550505050611afd565b50508151600091506002905b9250925092565b6000826003811115611b1857611b1861212e565b03611b21575050565b6001826003811115611b3557611b3561212e565b03611b535760405163f645eedf60e01b815260040160405180910390fd5b6002826003811115611b6757611b6761212e565b03611b885760405163fce698f760e01b81526004810182905260240161041b565b6003826003811115611b9c57611b9c61212e565b03610586576040516335e2f38360e21b81526004810182905260240161041b565b805115611bcd5780518082602001fd5b60405163d6bda27560e01b815260040160405180910390fd5b611bee611e26565b61062f57604051631afcd79f60e31b815260040160405180910390fd5b611141611be6565b6111e0611be6565b611c23611be6565b60008051602061267b8339815191527fa16a46d94261c7517cc8ff89f61c0ce93598e3c849801011dee649a6a557d102611c5d8482612553565b5060038101611c6c8382612553565b5060008082556001909101555050565b60006040518060600160405280602a8152602001612651602a9139604051602001611ca79190612613565b60408051601f19818403018152919052805160209182012090611ccc90840184612410565b83602001356040516020016113bd9392919061262f565b60007f8b73c3c69bb8fe3d512ecc4cf759cc79239f7b179b0ffacaa9a75d522b39400f611d0e611e40565b611d16611eaa565b60408051602081019490945283019190915260608201524660808201523060a082015260c00160405160208183030381529060405280519060200120905090565b600080807f7fffffffffffffffffffffffffffffff5d576e7357a4501ddfe92f46681b20a0841115611d925750600091506003905082611e1c565b604080516000808252602082018084528a905260ff891692820192909252606081018790526080810186905260019060a0016020604051602081039080840390855afa158015611de6573d6000803e3d6000fd5b5050604051601f1901519150506001600160a01b038116611e1257506000925060019150829050611e1c565b9250600091508190505b9450945094915050565b6000611e30611938565b54600160401b900460ff16919050565b600060008051602061267b83398151915281611e5a611836565b805190915015611e7257805160209091012092915050565b81548015611e81579392505050565b7fc5d2460186f7233c927e7db2dcc703c0e500b653ca82273b7bfad8045d85a470935050505090565b600060008051602061267b83398151915281611ec46118f9565b805190915015611edc57805160209091012092915050565b60018201548015611e81579392505050565b80356001600160a01b0381168114611f0557600080fd5b919050565b60008060408385031215611f1d57600080fd5b611f2683611eee565b946020939093013593505050565b600060208284031215611f4657600080fd5b611f4f82611eee565b9392505050565b60008083601f840112611f6857600080fd5b50813567ffffffffffffffff811115611f8057600080fd5b602083019150836020828501011115611f9857600080fd5b9250929050565b600080600080600060808688031215611fb757600080fd5b611fc086611eee565b945060208601359350604086013567ffffffffffffffff80821115611fe457600080fd5b908701906080828a031215611ff857600080fd5b9093506060870135908082111561200e57600080fd5b5061201b88828901611f56565b969995985093965092949392505050565b60005b8381101561204757818101518382015260200161202f565b50506000910152565b6000815180845261206881602086016020860161202c565b601f01601f19169290920160200192915050565b60ff60f81b881681526000602060e0602084015261209d60e084018a612050565b83810360408501526120af818a612050565b606085018990526001600160a01b038816608086015260a0850187905284810360c08601528551808252602080880193509091019060005b81811015612103578351835292840192918401916001016120e7565b50909c9b505050505050505050505050565b60006020828403121561212757600080fd5b5035919050565b634e487b7160e01b600052602160045260246000fd5b6003811061117457634e487b7160e01b600052602160045260246000fd5b838152602081018390526060810161217983612144565b826040830152949350505050565b634e487b7160e01b600052604160045260246000fd5b6000602082840312156121af57600080fd5b813567ffffffffffffffff808211156121c757600080fd5b818401915084601f8301126121db57600080fd5b8135818111156121ed576121ed612187565b604051601f8201601f19908116603f0116810190838211818310171561221557612215612187565b8160405282815287602084870101111561222e57600080fd5b826020860160208301376000928101602001929092525095945050505050565b60008060006040848603121561226357600080fd5b833567ffffffffffffffff81111561227a57600080fd5b61228686828701611f56565b9094509250612299905060208501611eee565b90509250925092565b6000806000606084860312156122b757600080fd5b6122c084611eee565b92506122ce60208501611eee565b915061229960408501611eee565b6020808252601190820152702ab739bab83837b93a32b2103a37b5b2b760791b604082015260600190565b60006020828403121561231957600080fd5b81518015158114611f4f57600080fd5b60006020828403121561233b57600080fd5b5051919050565b8183823760009101908152919050565b6000808335601e1984360301811261236957600080fd5b83018035915067ffffffffffffffff82111561238457600080fd5b6020019150600681901b3603821315611f9857600080fd5b60208152816020820152818360408301376000818301604090810191909152601f909201601f19160101919050565b600083516123dd81846020880161202c565b8351908301906123f181836020880161202c565b01949350505050565b634e487b7160e01b600052603260045260246000fd5b60006020828403121561242257600080fd5b813560038110611f4f57600080fd5b634e487b7160e01b600052601160045260246000fd5b60006001820161245957612459612431565b5060010190565b8082018082111561061957610619612431565b600060ff821660ff810361248957612489612431565b60010192915050565b600181811c908216806124a657607f821691505b6020821081036124c657634e487b7160e01b600052602260045260246000fd5b50919050565b815160009082906020808601845b838110156124f6578151855293820193908201906001016124da565b50929695505050505050565b601f82111561254e576000816000526020600020601f850160051c8101602086101561252b5750805b601f850160051c820191505b8181101561254a57828155600101612537565b5050505b505050565b815167ffffffffffffffff81111561256d5761256d612187565b6125818161257b8454612492565b84612502565b602080601f8311600181146125b6576000841561259e5750858301515b600019600386901b1c1916600185901b17855561254a565b600085815260208120601f198616915b828110156125e5578886015182559484019460019091019084016125c6565b50858210156126035787850151600019600388901b60f8161c191681555b5050505050600190811b01905550565b6000825161262581846020870161202c565b9190910192915050565b8381526060810161263f84612144565b60208201939093526040015291905056fe427564676574446174612875696e743820627564676574547970652c75696e743235362076616c756529a16a46d94261c7517cc8ff89f61c0ce93598e3c849801011dee649a6a557d1004275646765744c696d6974286164647265737320617070726f766564416464726573732c427564676574446174615b5d20627564676574446174612c75696e74323536206578706972792c6164647265737320746f6b656e4164647265737329cd5ed15c6e187e77e9aee88184c21f4f2182ab5827cb3b7e07fbedcd63f033009b779b17422d0df92223018b32b4d1fa46e071723d6817e2486d003becc55f00a2646970667358221220a7a90fe3d1f07373b8ee4ead832516bf14213dc750b3c28498572144080f021264736f6c63430008180033",
  "linkReferences": {},
  "deployedLinkReferences": {}
}