{
  "_format": "hh-sol-artifact-1",
  "contractName": "FeeCollector",
  "sourceName": "contracts/FeeCollector.sol",
  "abi": [
    {
      "inputs": [],
      "name": "InvalidInitialization",
      "type": "error"
    },
    {
      "inputs": [],
      "name": "NotInitializing",
      "type": "error"
    },
    {
      "inputs": [
        {
          "internalType": "address",
          "name": "owner",
          "type": "address"
        }
      ],
      "name": "OwnableInvalidOwner",
      "type": "error"
    },
    {
      "inputs": [
        {
          "internalType": "address",
          "name": "account",
          "type": "address"
        }
      ],
      "name": "OwnableUnauthorizedAccount",
      "type": "error"
    },
    {
      "inputs": [],
      "name": "ReentrancyGuardReentrantCall",
      "type": "error"
    },
    {
      "inputs": [
        {
          "internalType": "address",
          "name": "token",
          "type": "address"
        }
      ],
      "name": "SafeERC20FailedOperation",
      "type": "error"
    },
    {
      "anonymous": false,
      "inputs": [
        {
          "indexed": false,
          "internalType": "uint64",
          "name": "version",
          "type": "uint64"
        }
      ],
      "name": "Initialized",
      "type": "event"
    },
    {
      "anonymous": false,
      "inputs": [
        {
          "indexed": true,
          "internalType": "address",
          "name": "previousOwner",
          "type": "address"
        },
        {
          "indexed": true,
          "internalType": "address",
          "name": "newOwner",
          "type": "address"
        }
      ],
      "name": "OwnershipTransferred",
      "type": "event"
    },
    {
      "anonymous": false,
      "inputs": [
        {
          "indexed": true,
          "internalType": "address",
          "name": "tokenAddress",
          "type": "address"
        }
      ],
      "name": "TokenSupportAdded",
      "type": "event"
    },
    {
      "anonymous": false,
      "inputs": [
        {
          "indexed": true,
          "internalType": "address",
          "name": "tokenAddress",
          "type": "address"
        }
      ],
      "name": "TokenSupportRemoved",
      "type": "event"
    },
    {
      "anonymous": false,
      "inputs": [
        {
          "indexed": true,
          "internalType": "address",
          "name": "owner",
          "type": "address"
        },
        {
          "indexed": true,
          "internalType": "address",
          "name": "token",
          "type": "address"
        },
        {
          "indexed": false,
          "internalType": "uint256",
          "name": "amount",
          "type": "uint256"
        }
      ],
      "name": "TokenWithdrawn",
      "type": "event"
    },
    {
      "inputs": [
        {
          "internalType": "address",
          "name": "_tokenAddress",
          "type": "address"
        }
      ],
      "name": "addTokenSupport",
      "outputs": [],
      "stateMutability": "nonpayable",
      "type": "function"
    },
    {
      "inputs": [],
      "name": "getAllFeeConfigs",
      "outputs": [
        {
          "components": [
            {
              "internalType": "string",
              "name": "contractType",
              "type": "string"
            },
            {
              "internalType": "uint16",
              "name": "feeBps",
              "type": "uint16"
            }
          ],
          "internalType": "struct FeeCollector.FeeConfig[]",
          "name": "",
          "type": "tuple[]"
        }
      ],
      "stateMutability": "view",
      "type": "function"
    },
    {
      "inputs": [],
      "name": "getBalance",
      "outputs": [
        {
          "internalType": "uint256",
          "name": "",
          "type": "uint256"
        }
      ],
      "stateMutability": "view",
      "type": "function"
    },
    {
      "inputs": [
        {
          "internalType": "string",
          "name": "contractType",
          "type": "string"
        }
      ],
      "name": "getFeeFor",
      "outputs": [
        {
          "internalType": "uint16",
          "name": "",
          "type": "uint16"
        }
      ],
      "stateMutability": "view",
      "type": "function"
    },
    {
      "inputs": [
        {
          "internalType": "address",
          "name": "_token",
          "type": "address"
        }
      ],
      "name": "getTokenBalance",
      "outputs": [
        {
          "internalType": "uint256",
          "name": "",
          "type": "uint256"
        }
      ],
      "stateMutability": "view",
      "type": "function"
    },
    {
      "inputs": [
        {
          "internalType": "address",
          "name": "_owner",
          "type": "address"
        },
        {
          "components": [
            {
              "internalType": "string",
              "name": "contractType",
              "type": "string"
            },
            {
              "internalType": "uint16",
              "name": "feeBps",
              "type": "uint16"
            }
          ],
          "internalType": "struct FeeCollector.FeeConfig[]",
          "name": "_configs",
          "type": "tuple[]"
        },
        {
          "internalType": "address[]",
          "name": "_tokenAddresses",
          "type": "address[]"
        }
      ],
      "name": "initialize",
      "outputs": [],
      "stateMutability": "nonpayable",
      "type": "function"
    },
    {
      "inputs": [],
      "name": "owner",
      "outputs": [
        {
          "internalType": "address",
          "name": "",
          "type": "address"
        }
      ],
      "stateMutability": "view",
      "type": "function"
    },
    {
      "inputs": [
        {
          "internalType": "address",
          "name": "_tokenAddress",
          "type": "address"
        }
      ],
      "name": "removeTokenSupport",
      "outputs": [],
      "stateMutability": "nonpayable",
      "type": "function"
    },
    {
      "inputs": [],
      "name": "renounceOwnership",
      "outputs": [],
      "stateMutability": "nonpayable",
      "type": "function"
    },
    {
      "inputs": [
        {
          "internalType": "address",
          "name": "",
          "type": "address"
        }
      ],
      "name": "supportedTokens",
      "outputs": [
        {
          "internalType": "bool",
          "name": "",
          "type": "bool"
        }
      ],
      "stateMutability": "view",
      "type": "function"
    },
    {
      "inputs": [
        {
          "internalType": "address",
          "name": "newOwner",
          "type": "address"
        }
      ],
      "name": "transferOwnership",
      "outputs": [],
      "stateMutability": "nonpayable",
      "type": "function"
    },
    {
      "inputs": [
        {
          "internalType": "uint256",
          "name": "amount",
          "type": "uint256"
        }
      ],
      "name": "withdraw",
      "outputs": [],
      "stateMutability": "nonpayable",
      "type": "function"
    },
    {
      "inputs": [
        {
          "internalType": "address",
          "name": "_token",
          "type": "address"
        },
        {
          "internalType": "uint256",
          "name": "_amount",
          "type": "uint256"
        }
      ],
      "name": "withdrawToken",
      "outputs": [],
      "stateMutability": "nonpayable",
      "type": "function"
    },
    {
      "stateMutability": "payable",
      "type": "receive"
    }
  ],
  "bytecode": "0x608060405234801561001057600080fd5b506116f5806100206000396000f3fe6080604052600436106100c65760003560e01c8063733c237d1161007f578063abe71ff911610059578063abe71ff914610218578063caed96c61461023a578063f2fde38b1461026d578063ffe107131461028d57600080fd5b8063733c237d146101ab5780638da5cb5b146101cb5780639e281a98146101f857600080fd5b806312065fe0146100d25780632ba8d939146100f45780632e1a7d4d146101165780633aecd0e31461013657806368c4ac2614610156578063715018a61461019657600080fd5b366100cd57005b600080fd5b3480156100de57600080fd5b50475b6040519081526020015b60405180910390f35b34801561010057600080fd5b5061011461010f366004611083565b6102ad565b005b34801561012257600080fd5b506101146101313660046110a5565b610365565b34801561014257600080fd5b506100e1610151366004611083565b610475565b34801561016257600080fd5b50610186610171366004611083565b60016020526000908152604090205460ff1681565b60405190151581526020016100eb565b3480156101a257600080fd5b5061011461051b565b3480156101b757600080fd5b506101146101c6366004611083565b61052f565b3480156101d757600080fd5b506101e0610615565b6040516001600160a01b0390911681526020016100eb565b34801561020457600080fd5b506101146102133660046110be565b610643565b34801561022457600080fd5b5061022d610824565b6040516100eb91906110e8565b34801561024657600080fd5b5061025a610255366004611273565b610923565b60405161ffff90911681526020016100eb565b34801561027957600080fd5b50610114610288366004611083565b6109ba565b34801561029957600080fd5b506101146102a83660046112fc565b6109f5565b6102b5610e30565b6001600160a01b0381166102e45760405162461bcd60e51b81526004016102db9061144c565b60405180910390fd5b6001600160a01b03811660009081526001602052604090205460ff1661031c5760405162461bcd60e51b81526004016102db90611483565b6001600160a01b038116600081815260016020526040808220805460ff19169055517f1cef54ca6e1745ad87fa3077491d9fc42257e9f1a2d7cad58a4e52bd14dfc6269190a250565b61036d610e30565b610375610e62565b804710156103bc5760405162461bcd60e51b8152602060048201526014602482015273496e73756666696369656e742062616c616e636560601b60448201526064016102db565b60006103c6610615565b6001600160a01b03168260405160006040518083038185875af1925050503d8060008114610410576040519150601f19603f3d011682016040523d82523d6000602084013e610415565b606091505b505090508061045a5760405162461bcd60e51b815260206004820152601160248201527015da5d1a191c985dd85b0819985a5b1959607a1b60448201526064016102db565b5061047260016000805160206116a083398151915255565b50565b6001600160a01b03811660009081526001602052604081205460ff166104ad5760405162461bcd60e51b81526004016102db90611483565b6040516370a0823160e01b81523060048201526001600160a01b038316906370a0823190602401602060405180830381865afa1580156104f1573d6000803e3d6000fd5b505050506040513d601f19601f8201168201806040525081019061051591906114b0565b92915050565b610523610e30565b61052d6000610eae565b565b610537610e30565b6001600160a01b03811661055d5760405162461bcd60e51b81526004016102db9061144c565b6001600160a01b03811660009081526001602052604090205460ff16156105c65760405162461bcd60e51b815260206004820152601760248201527f546f6b656e20616c726561647920737570706f7274656400000000000000000060448201526064016102db565b6001600160a01b0381166000818152600160208190526040808320805460ff1916909217909155517f8f50fda9bf5d3b403c53b7e91646abd507f8cebf2577655d55d7de3926168b179190a250565b7f9016d09d72d40fdae2fd8ceac6b6234c7706214fd39c1cd1e609a0528c199300546001600160a01b031690565b61064b610e30565b610653610e62565b6001600160a01b03821660009081526001602052604090205460ff1661068b5760405162461bcd60e51b81526004016102db90611483565b600081116106db5760405162461bcd60e51b815260206004820181905260248201527f416d6f756e74206d7573742062652067726561746572207468616e207a65726f60448201526064016102db565b6040516370a0823160e01b81523060048201526000906001600160a01b038416906370a0823190602401602060405180830381865afa158015610722573d6000803e3d6000fd5b505050506040513d601f19601f8201168201806040525081019061074691906114b0565b9050818110156107985760405162461bcd60e51b815260206004820152601a60248201527f496e73756666696369656e7420746f6b656e2062616c616e636500000000000060448201526064016102db565b6107b46107a3610615565b6001600160a01b0385169084610f1f565b826001600160a01b03166107c6610615565b6001600160a01b03167f8210728e7c071f615b840ee026032693858fbcd5e5359e67e438c890f59e56208460405161080091815260200190565b60405180910390a35061082060016000805160206116a083398151915255565b5050565b60606000805480602002602001604051908101604052809291908181526020016000905b8282101561091a578382906000526020600020906002020160405180604001604052908160008201805461087b906114c9565b80601f01602080910402602001604051908101604052809291908181526020018280546108a7906114c9565b80156108f45780601f106108c9576101008083540402835291602001916108f4565b820191906000526020600020905b8154815290600101906020018083116108d757829003601f168201915b505050918352505060019182015461ffff16602091820152918352929092019101610848565b50505050905090565b6000805b6000548110156109b15782805190602001206000828154811061094c5761094c611503565b906000526020600020906002020160000160405161096a9190611519565b6040518091039020036109a9576000818154811061098a5761098a611503565b600091825260209091206001600290920201015461ffff169392505050565b600101610927565b50600092915050565b6109c2610e30565b6001600160a01b0381166109ec57604051631e4fbdf760e01b8152600060048201526024016102db565b61047281610eae565b7ff0c57e16840df040f15088dc2f81fe391c3923bec73e23a9662efc9c229c6a008054600160401b810460ff16159067ffffffffffffffff16600081158015610a3b5750825b905060008267ffffffffffffffff166001148015610a585750303b155b905081158015610a66575080155b15610a845760405163f92ee8a960e01b815260040160405180910390fd5b845467ffffffffffffffff191660011785558315610aae57845460ff60401b1916600160401b1785555b6001600160a01b038916610af45760405162461bcd60e51b815260206004820152600d60248201526c4f776e6572206973207a65726f60981b60448201526064016102db565b610afd89610f76565b610b05610f87565b60005b8851811015610d27576000898281518110610b2557610b25611503565b6020026020010151600001515111610b6c5760405162461bcd60e51b815260206004820152600a602482015269456d707479207479706560b01b60448201526064016102db565b612710898281518110610b8157610b81611503565b60200260200101516020015161ffff161115610bcd5760405162461bcd60e51b815260206004820152600b60248201526a496e76616c69642042505360a81b60448201526064016102db565b60005b81811015610c8457898281518110610bea57610bea611503565b6020026020010151600001518051906020012060008281548110610c1057610c10611503565b9060005260206000209060020201600001604051610c2e9190611519565b604051809103902003610c7c5760405162461bcd60e51b81526020600482015260166024820152754475706c696361746520636f6e74726163745479706560501b60448201526064016102db565b600101610bd0565b50600060405180604001604052808b8481518110610ca457610ca4611503565b60200260200101516000015181526020018b8481518110610cc757610cc7611503565b60209081029190910181015181015161ffff169091528254600181018455600093845292208151919260020201908190610d0190826115df565b50602091909101516001918201805461ffff191661ffff90921691909117905501610b08565b5060005b86811015610dde576000888883818110610d4757610d47611503565b9050602002016020810190610d5c9190611083565b6001600160a01b031603610d825760405162461bcd60e51b81526004016102db9061144c565b60018060008a8a85818110610d9957610d99611503565b9050602002016020810190610dae9190611083565b6001600160a01b031681526020810191909152604001600020805460ff1916911515919091179055600101610d2b565b508315610e2557845460ff60401b19168555604051600181527fc7f505b2f371ae2175ee4913f4499e1f2633a7b5936321eed1cdaeb6115181d29060200160405180910390a15b505050505050505050565b33610e39610615565b6001600160a01b03161461052d5760405163118cdaa760e01b81523360048201526024016102db565b6000805160206116a0833981519152805460011901610e9457604051633ee5aeb560e01b815260040160405180910390fd5b60029055565b60016000805160206116a083398151915255565b7f9016d09d72d40fdae2fd8ceac6b6234c7706214fd39c1cd1e609a0528c19930080546001600160a01b031981166001600160a01b03848116918217845560405192169182907f8be0079c531659141344cd1fd0a4f28419497f9722a3daafe3b4186f6b6457e090600090a3505050565b604080516001600160a01b038416602482015260448082018490528251808303909101815260649091019091526020810180516001600160e01b031663a9059cbb60e01b179052610f71908490610f97565b505050565b610f7e61100e565b61047281611057565b610f8f61100e565b61052d61105f565b600080602060008451602086016000885af180610fba576040513d6000823e3d81fd5b50506000513d91508115610fd2578060011415610fdf565b6001600160a01b0384163b155b1561100857604051635274afe760e01b81526001600160a01b03851660048201526024016102db565b50505050565b7ff0c57e16840df040f15088dc2f81fe391c3923bec73e23a9662efc9c229c6a0054600160401b900460ff1661052d57604051631afcd79f60e31b815260040160405180910390fd5b6109c261100e565b610e9a61100e565b80356001600160a01b038116811461107e57600080fd5b919050565b60006020828403121561109557600080fd5b61109e82611067565b9392505050565b6000602082840312156110b757600080fd5b5035919050565b600080604083850312156110d157600080fd5b6110da83611067565b946020939093013593505050565b600060208083018184528085518083526040925060408601915060408160051b8701018488016000805b8481101561118457603f198a8503018652825180518886528051808a880152845b8181101561114f578281018c0151888201606001528b01611133565b508681016060908101869052928b015161ffff168b880152978a0197601f01601f191690950101935091870191600101611112565b50919998505050505050505050565b634e487b7160e01b600052604160045260246000fd5b6040805190810167ffffffffffffffff811182821017156111cc576111cc611193565b60405290565b604051601f8201601f1916810167ffffffffffffffff811182821017156111fb576111fb611193565b604052919050565b600082601f83011261121457600080fd5b813567ffffffffffffffff81111561122e5761122e611193565b611241601f8201601f19166020016111d2565b81815284602083860101111561125657600080fd5b816020850160208301376000918101602001919091529392505050565b60006020828403121561128557600080fd5b813567ffffffffffffffff81111561129c57600080fd5b6112a884828501611203565b949350505050565b60008083601f8401126112c257600080fd5b50813567ffffffffffffffff8111156112da57600080fd5b6020830191508360208260051b85010111156112f557600080fd5b9250929050565b6000806000806060858703121561131257600080fd5b61131b85611067565b9350602085013567ffffffffffffffff8082111561133857600080fd5b818701915087601f83011261134c57600080fd5b81358181111561135e5761135e611193565b61136d60208260051b016111d2565b8082825260208201915060208360051b86010192508a83111561138f57600080fd5b602085015b8381101561141a5784813511156113aa57600080fd5b803586016040818e03601f190112156113c257600080fd5b6113ca6111a9565b6020820135878111156113dc57600080fd5b6113eb8f602083860101611203565b8252506040820135915061ffff8216821461140557600080fd5b60208181019290925284529283019201611394565b5096505050604087013591508082111561143357600080fd5b50611440878288016112b0565b95989497509550505050565b6020808252601c908201527f546f6b656e20616464726573732063616e6e6f74206265207a65726f00000000604082015260600190565b602080825260139082015272151bdad95b881b9bdd081cdd5c1c1bdc9d1959606a1b604082015260600190565b6000602082840312156114c257600080fd5b5051919050565b600181811c908216806114dd57607f821691505b6020821081036114fd57634e487b7160e01b600052602260045260246000fd5b50919050565b634e487b7160e01b600052603260045260246000fd5b6000808354611527816114c9565b6001828116801561153f576001811461155457611583565b60ff1984168752821515830287019450611583565b8760005260208060002060005b8581101561157a5781548a820152908401908201611561565b50505082870194505b50929695505050505050565b601f821115610f71576000816000526020600020601f850160051c810160208610156115b85750805b601f850160051c820191505b818110156115d7578281556001016115c4565b505050505050565b815167ffffffffffffffff8111156115f9576115f9611193565b61160d8161160784546114c9565b8461158f565b602080601f831160018114611642576000841561162a5750858301515b600019600386901b1c1916600185901b1785556115d7565b600085815260208120601f198616915b8281101561167157888601518255948401946001909101908401611652565b508582101561168f5787850151600019600388901b60f8161c191681555b5050505050600190811b0190555056fe9b779b17422d0df92223018b32b4d1fa46e071723d6817e2486d003becc55f00a2646970667358221220e2232c432ea560db0bb712502655f7f3d56cabe585a03bce34b1c70bef4e7de364736f6c63430008180033",
  "linkReferences": {},
  "deployedLinkReferences": {}
}