{
  "_format": "hh-sol-artifact-1",
  "contractName": "FeeCollector",
  "sourceName": "contracts/FeeCollector.sol",
  "abi": [
    {
      "inputs": [],
      "name": "InvalidInitialization",
      "type": "error"
    },
    {
      "inputs": [],
      "name": "NotInitializing",
      "type": "error"
    },
    {
      "inputs": [
        {
          "internalType": "address",
          "name": "owner",
          "type": "address"
        }
      ],
      "name": "OwnableInvalidOwner",
      "type": "error"
    },
    {
      "inputs": [
        {
          "internalType": "address",
          "name": "account",
          "type": "address"
        }
      ],
      "name": "OwnableUnauthorizedAccount",
      "type": "error"
    },
    {
      "inputs": [],
      "name": "ReentrancyGuardReentrantCall",
      "type": "error"
    },
    {
      "inputs": [
        {
          "internalType": "address",
          "name": "token",
          "type": "address"
        }
      ],
      "name": "SafeERC20FailedOperation",
      "type": "error"
    },
    {
      "anonymous": false,
      "inputs": [
        {
          "indexed": true,
          "internalType": "string",
          "name": "contractType",
          "type": "string"
        },
        {
          "indexed": false,
          "internalType": "uint16",
          "name": "feeBps",
          "type": "uint16"
        }
      ],
      "name": "FeeConfigUpdated",
      "type": "event"
    },
    {
      "anonymous": false,
      "inputs": [
        {
          "indexed": false,
          "internalType": "uint64",
          "name": "version",
          "type": "uint64"
        }
      ],
      "name": "Initialized",
      "type": "event"
    },
    {
      "anonymous": false,
      "inputs": [
        {
          "indexed": true,
          "internalType": "address",
          "name": "previousOwner",
          "type": "address"
        },
        {
          "indexed": true,
          "internalType": "address",
          "name": "newOwner",
          "type": "address"
        }
      ],
      "name": "OwnershipTransferred",
      "type": "event"
    },
    {
      "anonymous": false,
      "inputs": [
        {
          "indexed": true,
          "internalType": "address",
          "name": "tokenAddress",
          "type": "address"
        }
      ],
      "name": "TokenSupportAdded",
      "type": "event"
    },
    {
      "anonymous": false,
      "inputs": [
        {
          "indexed": true,
          "internalType": "address",
          "name": "tokenAddress",
          "type": "address"
        }
      ],
      "name": "TokenSupportRemoved",
      "type": "event"
    },
    {
      "anonymous": false,
      "inputs": [
        {
          "indexed": true,
          "internalType": "address",
          "name": "owner",
          "type": "address"
        },
        {
          "indexed": true,
          "internalType": "address",
          "name": "token",
          "type": "address"
        },
        {
          "indexed": false,
          "internalType": "uint256",
          "name": "amount",
          "type": "uint256"
        }
      ],
      "name": "TokenWithdrawn",
      "type": "event"
    },
    {
      "inputs": [
        {
          "internalType": "address",
          "name": "_tokenAddress",
          "type": "address"
        }
      ],
      "name": "addTokenSupport",
      "outputs": [],
      "stateMutability": "nonpayable",
      "type": "function"
    },
    {
      "inputs": [],
      "name": "getAllFeeConfigs",
      "outputs": [
        {
          "components": [
            {
              "internalType": "string",
              "name": "contractType",
              "type": "string"
            },
            {
              "internalType": "uint16",
              "name": "feeBps",
              "type": "uint16"
            }
          ],
          "internalType": "struct FeeCollector.FeeConfig[]",
          "name": "",
          "type": "tuple[]"
        }
      ],
      "stateMutability": "view",
      "type": "function"
    },
    {
      "inputs": [],
      "name": "getBalance",
      "outputs": [
        {
          "internalType": "uint256",
          "name": "",
          "type": "uint256"
        }
      ],
      "stateMutability": "view",
      "type": "function"
    },
    {
      "inputs": [
        {
          "internalType": "string",
          "name": "contractType",
          "type": "string"
        }
      ],
      "name": "getFeeFor",
      "outputs": [
        {
          "internalType": "uint16",
          "name": "",
          "type": "uint16"
        }
      ],
      "stateMutability": "view",
      "type": "function"
    },
    {
      "inputs": [
        {
          "internalType": "address",
          "name": "_token",
          "type": "address"
        }
      ],
      "name": "getTokenBalance",
      "outputs": [
        {
          "internalType": "uint256",
          "name": "",
          "type": "uint256"
        }
      ],
      "stateMutability": "view",
      "type": "function"
    },
    {
      "inputs": [
        {
          "internalType": "address",
          "name": "_owner",
          "type": "address"
        },
        {
          "components": [
            {
              "internalType": "string",
              "name": "contractType",
              "type": "string"
            },
            {
              "internalType": "uint16",
              "name": "feeBps",
              "type": "uint16"
            }
          ],
          "internalType": "struct FeeCollector.FeeConfig[]",
          "name": "_configs",
          "type": "tuple[]"
        },
        {
          "internalType": "address[]",
          "name": "_tokenAddresses",
          "type": "address[]"
        }
      ],
      "name": "initialize",
      "outputs": [],
      "stateMutability": "nonpayable",
      "type": "function"
    },
    {
      "inputs": [],
      "name": "owner",
      "outputs": [
        {
          "internalType": "address",
          "name": "",
          "type": "address"
        }
      ],
      "stateMutability": "view",
      "type": "function"
    },
    {
      "inputs": [
        {
          "internalType": "address",
          "name": "_tokenAddress",
          "type": "address"
        }
      ],
      "name": "removeTokenSupport",
      "outputs": [],
      "stateMutability": "nonpayable",
      "type": "function"
    },
    {
      "inputs": [],
      "name": "renounceOwnership",
      "outputs": [],
      "stateMutability": "nonpayable",
      "type": "function"
    },
    {
      "inputs": [
        {
          "internalType": "string",
          "name": "contractType",
          "type": "string"
        },
        {
          "internalType": "uint16",
          "name": "feeBps",
          "type": "uint16"
        }
      ],
      "name": "setFee",
      "outputs": [],
      "stateMutability": "nonpayable",
      "type": "function"
    },
    {
      "inputs": [
        {
          "internalType": "address",
          "name": "",
          "type": "address"
        }
      ],
      "name": "supportedTokens",
      "outputs": [
        {
          "internalType": "bool",
          "name": "",
          "type": "bool"
        }
      ],
      "stateMutability": "view",
      "type": "function"
    },
    {
      "inputs": [
        {
          "internalType": "address",
          "name": "newOwner",
          "type": "address"
        }
      ],
      "name": "transferOwnership",
      "outputs": [],
      "stateMutability": "nonpayable",
      "type": "function"
    },
    {
      "inputs": [
        {
          "internalType": "uint256",
          "name": "amount",
          "type": "uint256"
        }
      ],
      "name": "withdraw",
      "outputs": [],
      "stateMutability": "nonpayable",
      "type": "function"
    },
    {
      "inputs": [
        {
          "internalType": "address",
          "name": "_token",
          "type": "address"
        },
        {
          "internalType": "uint256",
          "name": "_amount",
          "type": "uint256"
        }
      ],
      "name": "withdrawToken",
      "outputs": [],
      "stateMutability": "nonpayable",
      "type": "function"
    },
    {
      "stateMutability": "payable",
      "type": "receive"
    }
  ],
  "bytecode": "0x608060405234801561001057600080fd5b506119a5806100206000396000f3fe6080604052600436106100e15760003560e01c80637a6b41df1161007f578063abe71ff911610059578063abe71ff914610253578063caed96c614610275578063f2fde38b146102a8578063ffe10713146102c857600080fd5b80637a6b41df146101e65780638da5cb5b146102065780639e281a981461023357600080fd5b80633aecd0e3116100bb5780633aecd0e31461015157806368c4ac2614610171578063715018a6146101b1578063733c237d146101c657600080fd5b806312065fe0146100ed5780632ba8d9391461010f5780632e1a7d4d1461013157600080fd5b366100e857005b600080fd5b3480156100f957600080fd5b50475b6040519081526020015b60405180910390f35b34801561011b57600080fd5b5061012f61012a3660046112b3565b6102e8565b005b34801561013d57600080fd5b5061012f61014c3660046112d5565b6103a0565b34801561015d57600080fd5b506100fc61016c3660046112b3565b6104b0565b34801561017d57600080fd5b506101a161018c3660046112b3565b60016020526000908152604090205460ff1681565b6040519015158152602001610106565b3480156101bd57600080fd5b5061012f610556565b3480156101d257600080fd5b5061012f6101e13660046112b3565b61056a565b3480156101f257600080fd5b5061012f6102013660046113e0565b610650565b34801561021257600080fd5b5061021b610815565b6040516001600160a01b039091168152602001610106565b34801561023f57600080fd5b5061012f61024e36600461142e565b610843565b34801561025f57600080fd5b50610268610a20565b604051610106919061147c565b34801561028157600080fd5b5061029561029036600461150c565b610b1f565b60405161ffff9091168152602001610106565b3480156102b457600080fd5b5061012f6102c33660046112b3565b610b7c565b3480156102d457600080fd5b5061012f6102e3366004611595565b610bb7565b6102f0610ff2565b6001600160a01b03811661031f5760405162461bcd60e51b8152600401610316906116e0565b60405180910390fd5b6001600160a01b03811660009081526001602052604090205460ff166103575760405162461bcd60e51b815260040161031690611717565b6001600160a01b038116600081815260016020526040808220805460ff19169055517f1cef54ca6e1745ad87fa3077491d9fc42257e9f1a2d7cad58a4e52bd14dfc6269190a250565b6103a8610ff2565b6103b0611024565b804710156103f75760405162461bcd60e51b8152602060048201526014602482015273496e73756666696369656e742062616c616e636560601b6044820152606401610316565b6000610401610815565b6001600160a01b03168260405160006040518083038185875af1925050503d806000811461044b576040519150601f19603f3d011682016040523d82523d6000602084013e610450565b606091505b50509050806104955760405162461bcd60e51b815260206004820152601160248201527015da5d1a191c985dd85b0819985a5b1959607a1b6044820152606401610316565b506104ad600160008051602061195083398151915255565b50565b6001600160a01b03811660009081526001602052604081205460ff166104e85760405162461bcd60e51b815260040161031690611717565b6040516370a0823160e01b81523060048201526001600160a01b038316906370a0823190602401602060405180830381865afa15801561052c573d6000803e3d6000fd5b505050506040513d601f19601f820116820180604052508101906105509190611744565b92915050565b61055e610ff2565b6105686000611070565b565b610572610ff2565b6001600160a01b0381166105985760405162461bcd60e51b8152600401610316906116e0565b6001600160a01b03811660009081526001602052604090205460ff16156106015760405162461bcd60e51b815260206004820152601760248201527f546f6b656e20616c726561647920737570706f727465640000000000000000006044820152606401610316565b6001600160a01b0381166000818152600160208190526040808320805460ff1916909217909155517f8f50fda9bf5d3b403c53b7e91646abd507f8cebf2577655d55d7de3926168b179190a250565b610658610ff2565b60008251116106965760405162461bcd60e51b815260206004820152600a602482015269456d707479207479706560b01b6044820152606401610316565b6127108161ffff1611156106da5760405162461bcd60e51b815260206004820152600b60248201526a496e76616c69642042505360a81b6044820152606401610316565b815160208301206000806106ed836110e1565b91509150811561078957836000828154811061070b5761070b61175d565b906000526020600020906002020160010160006101000a81548161ffff021916908361ffff160217905550846040516107449190611773565b60405190819003812061ffff86168252907fff858e943236ba10c22680e1eb8113a9c6bf7e44397392ce3a627ca78de298af9060200160405180910390a25050505050565b6040805180820190915285815261ffff8516602082015260008054600181018255908052815160029091027f290decd9548b62a8d60345a988386fc84ba6bc95484008f6362f93160ef3e563019081906107e39082611819565b50602091909101516001909101805461ffff191661ffff909216919091179055604051610744908690611773565b5050565b7f9016d09d72d40fdae2fd8ceac6b6234c7706214fd39c1cd1e609a0528c199300546001600160a01b031690565b61084b610ff2565b610853611024565b6001600160a01b03821660009081526001602052604090205460ff1661088b5760405162461bcd60e51b815260040161031690611717565b600081116108db5760405162461bcd60e51b815260206004820181905260248201527f416d6f756e74206d7573742062652067726561746572207468616e207a65726f6044820152606401610316565b6040516370a0823160e01b81523060048201526000906001600160a01b038416906370a0823190602401602060405180830381865afa158015610922573d6000803e3d6000fd5b505050506040513d601f19601f820116820180604052508101906109469190611744565b9050818110156109985760405162461bcd60e51b815260206004820152601a60248201527f496e73756666696369656e7420746f6b656e2062616c616e63650000000000006044820152606401610316565b6109b46109a3610815565b6001600160a01b038516908461114f565b826001600160a01b03166109c6610815565b6001600160a01b03167f8210728e7c071f615b840ee026032693858fbcd5e5359e67e438c890f59e562084604051610a0091815260200190565b60405180910390a350610811600160008051602061195083398151915255565b60606000805480602002602001604051908101604052809291908181526020016000905b82821015610b165783829060005260206000209060020201604051806040016040529081600082018054610a779061178f565b80601f0160208091040260200160405190810160405280929190818152602001828054610aa39061178f565b8015610af05780601f10610ac557610100808354040283529160200191610af0565b820191906000526020600020905b815481529060010190602001808311610ad357829003601f168201915b505050918352505060019182015461ffff16602091820152918352929092019101610a44565b50505050905090565b805160208201206000908180610b34836110e1565b9150915081610b4857506000949350505050565b60008181548110610b5b57610b5b61175d565b600091825260209091206001600290920201015461ffff1695945050505050565b610b84610ff2565b6001600160a01b038116610bae57604051631e4fbdf760e01b815260006004820152602401610316565b6104ad81611070565b7ff0c57e16840df040f15088dc2f81fe391c3923bec73e23a9662efc9c229c6a008054600160401b810460ff16159067ffffffffffffffff16600081158015610bfd5750825b905060008267ffffffffffffffff166001148015610c1a5750303b155b905081158015610c28575080155b15610c465760405163f92ee8a960e01b815260040160405180910390fd5b845467ffffffffffffffff191660011785558315610c7057845460ff60401b1916600160401b1785555b6001600160a01b038916610cb65760405162461bcd60e51b815260206004820152600d60248201526c4f776e6572206973207a65726f60981b6044820152606401610316565b610cbf896111a6565b610cc76111b7565b60005b8851811015610ee9576000898281518110610ce757610ce761175d565b6020026020010151600001515111610d2e5760405162461bcd60e51b815260206004820152600a602482015269456d707479207479706560b01b6044820152606401610316565b612710898281518110610d4357610d4361175d565b60200260200101516020015161ffff161115610d8f5760405162461bcd60e51b815260206004820152600b60248201526a496e76616c69642042505360a81b6044820152606401610316565b60005b81811015610e4657898281518110610dac57610dac61175d565b6020026020010151600001518051906020012060008281548110610dd257610dd261175d565b9060005260206000209060020201600001604051610df091906118d9565b604051809103902003610e3e5760405162461bcd60e51b81526020600482015260166024820152754475706c696361746520636f6e74726163745479706560501b6044820152606401610316565b600101610d92565b50600060405180604001604052808b8481518110610e6657610e6661175d565b60200260200101516000015181526020018b8481518110610e8957610e8961175d565b60209081029190910181015181015161ffff169091528254600181018455600093845292208151919260020201908190610ec39082611819565b50602091909101516001918201805461ffff191661ffff90921691909117905501610cca565b5060005b86811015610fa0576000888883818110610f0957610f0961175d565b9050602002016020810190610f1e91906112b3565b6001600160a01b031603610f445760405162461bcd60e51b8152600401610316906116e0565b60018060008a8a85818110610f5b57610f5b61175d565b9050602002016020810190610f7091906112b3565b6001600160a01b031681526020810191909152604001600020805460ff1916911515919091179055600101610eed565b508315610fe757845460ff60401b19168555604051600181527fc7f505b2f371ae2175ee4913f4499e1f2633a7b5936321eed1cdaeb6115181d29060200160405180910390a15b505050505050505050565b33610ffb610815565b6001600160a01b0316146105685760405163118cdaa760e01b8152336004820152602401610316565b60008051602061195083398151915280546001190161105657604051633ee5aeb560e01b815260040160405180910390fd5b60029055565b600160008051602061195083398151915255565b7f9016d09d72d40fdae2fd8ceac6b6234c7706214fd39c1cd1e609a0528c19930080546001600160a01b031981166001600160a01b03848116918217845560405192169182907f8be0079c531659141344cd1fd0a4f28419497f9722a3daafe3b4186f6b6457e090600090a3505050565b60008060005b6000548110156111435783600082815481106111055761110561175d565b906000526020600020906002020160000160405161112391906118d9565b60405180910390200361113b57600194909350915050565b6001016110e7565b50600093849350915050565b604080516001600160a01b038416602482015260448082018490528251808303909101815260649091019091526020810180516001600160e01b031663a9059cbb60e01b1790526111a19084906111c7565b505050565b6111ae61123e565b6104ad81611287565b6111bf61123e565b61056861128f565b600080602060008451602086016000885af1806111ea576040513d6000823e3d81fd5b50506000513d9150811561120257806001141561120f565b6001600160a01b0384163b155b1561123857604051635274afe760e01b81526001600160a01b0385166004820152602401610316565b50505050565b7ff0c57e16840df040f15088dc2f81fe391c3923bec73e23a9662efc9c229c6a0054600160401b900460ff1661056857604051631afcd79f60e31b815260040160405180910390fd5b610b8461123e565b61105c61123e565b80356001600160a01b03811681146112ae57600080fd5b919050565b6000602082840312156112c557600080fd5b6112ce82611297565b9392505050565b6000602082840312156112e757600080fd5b5035919050565b634e487b7160e01b600052604160045260246000fd5b6040805190810167ffffffffffffffff81118282101715611327576113276112ee565b60405290565b604051601f8201601f1916810167ffffffffffffffff81118282101715611356576113566112ee565b604052919050565b600082601f83011261136f57600080fd5b813567ffffffffffffffff811115611389576113896112ee565b61139c601f8201601f191660200161132d565b8181528460208386010111156113b157600080fd5b816020850160208301376000918101602001919091529392505050565b803561ffff811681146112ae57600080fd5b600080604083850312156113f357600080fd5b823567ffffffffffffffff81111561140a57600080fd5b6114168582860161135e565b925050611425602084016113ce565b90509250929050565b6000806040838503121561144157600080fd5b61144a83611297565b946020939093013593505050565b60005b8381101561147357818101518382015260200161145b565b50506000910152565b600060208083018184528085518083526040925060408601915060408160051b87010184880160005b838110156114fe57603f19898403018552815180518785528051808987015260606114d5828289018d8601611458565b928a015161ffff16868b015296890196601f01601f1916909401019250908601906001016114a5565b509098975050505050505050565b60006020828403121561151e57600080fd5b813567ffffffffffffffff81111561153557600080fd5b6115418482850161135e565b949350505050565b60008083601f84011261155b57600080fd5b50813567ffffffffffffffff81111561157357600080fd5b6020830191508360208260051b850101111561158e57600080fd5b9250929050565b600080600080606085870312156115ab57600080fd5b6115b485611297565b9350602085013567ffffffffffffffff808211156115d157600080fd5b818701915087601f8301126115e557600080fd5b8135818111156115f7576115f76112ee565b61160660208260051b0161132d565b8082825260208201915060208360051b86010192508a83111561162857600080fd5b602085015b838110156116ae57848135111561164357600080fd5b803586016040818e03601f1901121561165b57600080fd5b611663611304565b60208201358781111561167557600080fd5b6116848f60208386010161135e565b825250611693604083016113ce565b6020820152808552505060208301925060208101905061162d565b509650505060408701359150808211156116c757600080fd5b506116d487828801611549565b95989497509550505050565b6020808252601c908201527f546f6b656e20616464726573732063616e6e6f74206265207a65726f00000000604082015260600190565b602080825260139082015272151bdad95b881b9bdd081cdd5c1c1bdc9d1959606a1b604082015260600190565b60006020828403121561175657600080fd5b5051919050565b634e487b7160e01b600052603260045260246000fd5b60008251611785818460208701611458565b9190910192915050565b600181811c908216806117a357607f821691505b6020821081036117c357634e487b7160e01b600052602260045260246000fd5b50919050565b601f8211156111a1576000816000526020600020601f850160051c810160208610156117f25750805b601f850160051c820191505b81811015611811578281556001016117fe565b505050505050565b815167ffffffffffffffff811115611833576118336112ee565b61184781611841845461178f565b846117c9565b602080601f83116001811461187c57600084156118645750858301515b600019600386901b1c1916600185901b178555611811565b600085815260208120601f198616915b828110156118ab5788860151825594840194600190910190840161188c565b50858210156118c95787850151600019600388901b60f8161c191681555b5050505050600190811b01905550565b60008083546118e78161178f565b600182811680156118ff576001811461191457611943565b60ff1984168752821515830287019450611943565b8760005260208060002060005b8581101561193a5781548a820152908401908201611921565b50505082870194505b5092969550505050505056fe9b779b17422d0df92223018b32b4d1fa46e071723d6817e2486d003becc55f00a264697066735822122086713b0298af9da184a7e395e25a177d7e27a1fbbd9476bd5257e25f5edf385764736f6c63430008180033",
  "linkReferences": {},
  "deployedLinkReferences": {}
}