{
  "_format": "hh-sol-artifact-1",
  "contractName": "FeeCollector",
  "sourceName": "contracts/FeeCollector.sol",
  "abi": [
    {
      "inputs": [],
      "name": "InvalidInitialization",
      "type": "error"
    },
    {
      "inputs": [],
      "name": "NotInitializing",
      "type": "error"
    },
    {
      "inputs": [
        {
          "internalType": "address",
          "name": "owner",
          "type": "address"
        }
      ],
      "name": "OwnableInvalidOwner",
      "type": "error"
    },
    {
      "inputs": [
        {
          "internalType": "address",
          "name": "account",
          "type": "address"
        }
      ],
      "name": "OwnableUnauthorizedAccount",
      "type": "error"
    },
    {
      "inputs": [],
      "name": "ReentrancyGuardReentrantCall",
      "type": "error"
    },
    {
      "inputs": [
        {
          "internalType": "address",
          "name": "token",
          "type": "address"
        }
      ],
      "name": "SafeERC20FailedOperation",
      "type": "error"
    },
    {
      "anonymous": false,
      "inputs": [
        {
          "indexed": true,
          "internalType": "string",
          "name": "contractType",
          "type": "string"
        },
        {
          "indexed": false,
          "internalType": "uint16",
          "name": "feeBps",
          "type": "uint16"
        }
      ],
      "name": "FeeConfigUpdated",
      "type": "event"
    },
    {
      "anonymous": false,
      "inputs": [
        {
          "indexed": false,
          "internalType": "uint64",
          "name": "version",
          "type": "uint64"
        }
      ],
      "name": "Initialized",
      "type": "event"
    },
    {
      "anonymous": false,
      "inputs": [
        {
          "indexed": true,
          "internalType": "address",
          "name": "previousOwner",
          "type": "address"
        },
        {
          "indexed": true,
          "internalType": "address",
          "name": "newOwner",
          "type": "address"
        }
      ],
      "name": "OwnershipTransferred",
      "type": "event"
    },
    {
      "anonymous": false,
      "inputs": [
        {
          "indexed": true,
          "internalType": "address",
          "name": "tokenAddress",
          "type": "address"
        }
      ],
      "name": "TokenSupportAdded",
      "type": "event"
    },
    {
      "anonymous": false,
      "inputs": [
        {
          "indexed": true,
          "internalType": "address",
          "name": "tokenAddress",
          "type": "address"
        }
      ],
      "name": "TokenSupportRemoved",
      "type": "event"
    },
    {
      "anonymous": false,
      "inputs": [
        {
          "indexed": true,
          "internalType": "address",
          "name": "owner",
          "type": "address"
        },
        {
          "indexed": true,
          "internalType": "address",
          "name": "token",
          "type": "address"
        },
        {
          "indexed": false,
          "internalType": "uint256",
          "name": "amount",
          "type": "uint256"
        }
      ],
      "name": "TokenWithdrawn",
      "type": "event"
    },
    {
      "inputs": [
        {
          "internalType": "address",
          "name": "_tokenAddress",
          "type": "address"
        }
      ],
      "name": "addTokenSupport",
      "outputs": [],
      "stateMutability": "nonpayable",
      "type": "function"
    },
    {
      "inputs": [],
      "name": "getAllFeeConfigs",
      "outputs": [
        {
          "components": [
            {
              "internalType": "string",
              "name": "contractType",
              "type": "string"
            },
            {
              "internalType": "uint16",
              "name": "feeBps",
              "type": "uint16"
            }
          ],
          "internalType": "struct FeeCollector.FeeConfig[]",
          "name": "",
          "type": "tuple[]"
        }
      ],
      "stateMutability": "view",
      "type": "function"
    },
    {
      "inputs": [],
      "name": "getBalance",
      "outputs": [
        {
          "internalType": "uint256",
          "name": "",
          "type": "uint256"
        }
      ],
      "stateMutability": "view",
      "type": "function"
    },
    {
      "inputs": [
        {
          "internalType": "string",
          "name": "contractType",
          "type": "string"
        }
      ],
      "name": "getFeeFor",
      "outputs": [
        {
          "internalType": "uint16",
          "name": "",
          "type": "uint16"
        }
      ],
      "stateMutability": "view",
      "type": "function"
    },
    {
      "inputs": [],
      "name": "getSupportedTokenCount",
      "outputs": [
        {
          "internalType": "uint256",
          "name": "",
          "type": "uint256"
        }
      ],
      "stateMutability": "view",
      "type": "function"
    },
    {
      "inputs": [],
      "name": "getSupportedTokens",
      "outputs": [
        {
          "internalType": "address[]",
          "name": "",
          "type": "address[]"
        }
      ],
      "stateMutability": "view",
      "type": "function"
    },
    {
      "inputs": [
        {
          "internalType": "address",
          "name": "_token",
          "type": "address"
        }
      ],
      "name": "getTokenBalance",
      "outputs": [
        {
          "internalType": "uint256",
          "name": "",
          "type": "uint256"
        }
      ],
      "stateMutability": "view",
      "type": "function"
    },
    {
      "inputs": [
        {
          "internalType": "address",
          "name": "_owner",
          "type": "address"
        },
        {
          "components": [
            {
              "internalType": "string",
              "name": "contractType",
              "type": "string"
            },
            {
              "internalType": "uint16",
              "name": "feeBps",
              "type": "uint16"
            }
          ],
          "internalType": "struct FeeCollector.FeeConfig[]",
          "name": "_configs",
          "type": "tuple[]"
        },
        {
          "internalType": "address[]",
          "name": "_tokenAddresses",
          "type": "address[]"
        }
      ],
      "name": "initialize",
      "outputs": [],
      "stateMutability": "nonpayable",
      "type": "function"
    },
    {
      "inputs": [
        {
          "internalType": "address",
          "name": "_token",
          "type": "address"
        }
      ],
      "name": "isTokenSupported",
      "outputs": [
        {
          "internalType": "bool",
          "name": "",
          "type": "bool"
        }
      ],
      "stateMutability": "view",
      "type": "function"
    },
    {
      "inputs": [],
      "name": "owner",
      "outputs": [
        {
          "internalType": "address",
          "name": "",
          "type": "address"
        }
      ],
      "stateMutability": "view",
      "type": "function"
    },
    {
      "inputs": [
        {
          "internalType": "address",
          "name": "_tokenAddress",
          "type": "address"
        }
      ],
      "name": "removeTokenSupport",
      "outputs": [],
      "stateMutability": "nonpayable",
      "type": "function"
    },
    {
      "inputs": [],
      "name": "renounceOwnership",
      "outputs": [],
      "stateMutability": "nonpayable",
      "type": "function"
    },
    {
      "inputs": [
        {
          "internalType": "string",
          "name": "contractType",
          "type": "string"
        },
        {
          "internalType": "uint16",
          "name": "feeBps",
          "type": "uint16"
        }
      ],
      "name": "setFee",
      "outputs": [],
      "stateMutability": "nonpayable",
      "type": "function"
    },
    {
      "inputs": [
        {
          "internalType": "address",
          "name": "newOwner",
          "type": "address"
        }
      ],
      "name": "transferOwnership",
      "outputs": [],
      "stateMutability": "nonpayable",
      "type": "function"
    },
    {
      "inputs": [
        {
          "internalType": "uint256",
          "name": "amount",
          "type": "uint256"
        }
      ],
      "name": "withdraw",
      "outputs": [],
      "stateMutability": "nonpayable",
      "type": "function"
    },
    {
      "inputs": [
        {
          "internalType": "address",
          "name": "_token",
          "type": "address"
        },
        {
          "internalType": "uint256",
          "name": "_amount",
          "type": "uint256"
        }
      ],
      "name": "withdrawToken",
      "outputs": [],
      "stateMutability": "nonpayable",
      "type": "function"
    },
    {
      "stateMutability": "payable",
      "type": "receive"
    }
  ],
  "bytecode": "0x608060405234801561001057600080fd5b50611c73806100206000396000f3fe6080604052600436106100f75760003560e01c80638da5cb5b1161008a578063ce67be2611610059578063ce67be26146102ae578063d3c7c2c7146102c3578063f2fde38b146102e5578063ffe107131461030557600080fd5b80638da5cb5b1461020c5780639e281a9814610239578063abe71ff914610259578063caed96c61461027b57600080fd5b8063715018a6116100c6578063715018a614610187578063733c237d1461019c57806375151b63146101bc5780637a6b41df146101ec57600080fd5b806312065fe0146101035780632ba8d939146101255780632e1a7d4d146101475780633aecd0e31461016757600080fd5b366100fe57005b600080fd5b34801561010f57600080fd5b50475b6040519081526020015b60405180910390f35b34801561013157600080fd5b50610145610140366004611504565b610325565b005b34801561015357600080fd5b5061014561016236600461151f565b610339565b34801561017357600080fd5b50610112610182366004611504565b61044b565b34801561019357600080fd5b506101456104e0565b3480156101a857600080fd5b506101456101b7366004611504565b6104f4565b3480156101c857600080fd5b506101dc6101d7366004611504565b610505565b604051901515815260200161011c565b3480156101f857600080fd5b5061014561020736600461162a565b610511565b34801561021857600080fd5b506102216106d5565b6040516001600160a01b03909116815260200161011c565b34801561024557600080fd5b50610145610254366004611678565b610703565b34801561026557600080fd5b5061026e6108cd565b60405161011c91906116c6565b34801561028757600080fd5b5061029b610296366004611756565b6109cc565b60405161ffff909116815260200161011c565b3480156102ba57600080fd5b50610112610a29565b3480156102cf57600080fd5b506102d8610a3a565b60405161011c9190611793565b3480156102f157600080fd5b50610145610300366004611504565b610a46565b34801561031157600080fd5b5061014561032036600461182c565b610a81565b61032d610f07565b61033681610f39565b50565b610341610f07565b610349610fbd565b804710156103955760405162461bcd60e51b8152602060048201526014602482015273496e73756666696369656e742062616c616e636560601b60448201526064015b60405180910390fd5b600061039f6106d5565b6001600160a01b03168260405160006040518083038185875af1925050503d80600081146103e9576040519150601f19603f3d011682016040523d82523d6000602084013e6103ee565b606091505b50509050806104335760405162461bcd60e51b815260206004820152601160248201527015da5d1a191c985dd85b0819985a5b1959607a1b604482015260640161038c565b506103366001600080516020611c1e83398151915255565b600061045682610505565b6104725760405162461bcd60e51b815260040161038c90611977565b6040516370a0823160e01b81523060048201526001600160a01b038316906370a0823190602401602060405180830381865afa1580156104b6573d6000803e3d6000fd5b505050506040513d601f19601f820116820180604052508101906104da91906119a4565b92915050565b6104e8610f07565b6104f26000611009565b565b6104fc610f07565b6103368161107a565b60006104da818361112e565b610519610f07565b60008251116105575760405162461bcd60e51b815260206004820152600a602482015269456d707479207479706560b01b604482015260640161038c565b6127108161ffff16111561059b5760405162461bcd60e51b815260206004820152600b60248201526a496e76616c69642042505360a81b604482015260640161038c565b815160208301206000806105ae83611153565b91509150811561064a5783600282815481106105cc576105cc6119bd565b906000526020600020906002020160010160006101000a81548161ffff021916908361ffff1602179055508460405161060591906119d3565b60405190819003812061ffff86168252907fff858e943236ba10c22680e1eb8113a9c6bf7e44397392ce3a627ca78de298af9060200160405180910390a25050505050565b6040805180820190915285815261ffff85166020820152600280546001810182556000829052825191027f405787fa12a823e0f2b7631cc41b3ba8828b3321ca811111fa75cd3aa3bb5ace019081906106a39082611a79565b50602091909101516001909101805461ffff191661ffff9092169190911790556040516106059086906119d3565b5050565b7f9016d09d72d40fdae2fd8ceac6b6234c7706214fd39c1cd1e609a0528c199300546001600160a01b031690565b61070b610f07565b610713610fbd565b61071c82610505565b6107385760405162461bcd60e51b815260040161038c90611977565b600081116107885760405162461bcd60e51b815260206004820181905260248201527f416d6f756e74206d7573742062652067726561746572207468616e207a65726f604482015260640161038c565b6040516370a0823160e01b81523060048201526000906001600160a01b038416906370a0823190602401602060405180830381865afa1580156107cf573d6000803e3d6000fd5b505050506040513d601f19601f820116820180604052508101906107f391906119a4565b9050818110156108455760405162461bcd60e51b815260206004820152601a60248201527f496e73756666696369656e7420746f6b656e2062616c616e6365000000000000604482015260640161038c565b6108616108506106d5565b6001600160a01b03851690846111c1565b826001600160a01b03166108736106d5565b6001600160a01b03167f8210728e7c071f615b840ee026032693858fbcd5e5359e67e438c890f59e5620846040516108ad91815260200190565b60405180910390a3506106d16001600080516020611c1e83398151915255565b60606002805480602002602001604051908101604052809291908181526020016000905b828210156109c35783829060005260206000209060020201604051806040016040529081600082018054610924906119ef565b80601f0160208091040260200160405190810160405280929190818152602001828054610950906119ef565b801561099d5780601f106109725761010080835404028352916020019161099d565b820191906000526020600020905b81548152906001019060200180831161098057829003601f168201915b505050918352505060019182015461ffff166020918201529183529290920191016108f1565b50505050905090565b8051602082012060009081806109e183611153565b91509150816109f557506000949350505050565b60028181548110610a0857610a086119bd565b600091825260209091206001600290920201015461ffff1695945050505050565b6000610a356000611218565b905090565b6060610a356000611222565b610a4e610f07565b6001600160a01b038116610a7857604051631e4fbdf760e01b81526000600482015260240161038c565b61033681611009565b7ff0c57e16840df040f15088dc2f81fe391c3923bec73e23a9662efc9c229c6a008054600160401b810460ff16159067ffffffffffffffff16600081158015610ac75750825b905060008267ffffffffffffffff166001148015610ae45750303b155b905081158015610af2575080155b15610b105760405163f92ee8a960e01b815260040160405180910390fd5b845467ffffffffffffffff191660011785558315610b3a57845460ff60401b1916600160401b1785555b6001600160a01b038916610b805760405162461bcd60e51b815260206004820152600d60248201526c4f776e6572206973207a65726f60981b604482015260640161038c565b610b898961122f565b610b91611240565b60005b8851811015610db3576000898281518110610bb157610bb16119bd565b6020026020010151600001515111610bf85760405162461bcd60e51b815260206004820152600a602482015269456d707479207479706560b01b604482015260640161038c565b612710898281518110610c0d57610c0d6119bd565b60200260200101516020015161ffff161115610c595760405162461bcd60e51b815260206004820152600b60248201526a496e76616c69642042505360a81b604482015260640161038c565b60005b81811015610d1057898281518110610c7657610c766119bd565b6020026020010151600001518051906020012060028281548110610c9c57610c9c6119bd565b9060005260206000209060020201600001604051610cba9190611b39565b604051809103902003610d085760405162461bcd60e51b81526020600482015260166024820152754475706c696361746520636f6e74726163745479706560501b604482015260640161038c565b600101610c5c565b50600260405180604001604052808b8481518110610d3057610d306119bd565b60200260200101516000015181526020018b8481518110610d5357610d536119bd565b60209081029190910181015181015161ffff169091528254600181018455600093845292208151919260020201908190610d8d9082611a79565b50602091909101516001918201805461ffff191661ffff90921691909117905501610b94565b5060005b86811015610e45576000888883818110610dd357610dd36119bd565b9050602002016020810190610de89190611504565b6001600160a01b031603610e0e5760405162461bcd60e51b815260040161038c90611baf565b610e3d888883818110610e2357610e236119bd565b9050602002016020810190610e389190611504565b61107a565b600101610db7565b5060005b86811015610eb557878782818110610e6357610e636119bd565b9050602002016020810190610e789190611504565b6001600160a01b03167f8f50fda9bf5d3b403c53b7e91646abd507f8cebf2577655d55d7de3926168b1760405160405180910390a2600101610e49565b508315610efc57845460ff60401b19168555604051600181527fc7f505b2f371ae2175ee4913f4499e1f2633a7b5936321eed1cdaeb6115181d29060200160405180910390a15b505050505050505050565b33610f106106d5565b6001600160a01b0316146104f25760405163118cdaa760e01b815233600482015260240161038c565b6001600160a01b038116610f5f5760405162461bcd60e51b815260040161038c90611baf565b610f6a600082611250565b610f865760405162461bcd60e51b815260040161038c90611977565b6040516001600160a01b038216907f1cef54ca6e1745ad87fa3077491d9fc42257e9f1a2d7cad58a4e52bd14dfc62690600090a250565b600080516020611c1e833981519152805460011901610fef57604051633ee5aeb560e01b815260040160405180910390fd5b60029055565b6001600080516020611c1e83398151915255565b7f9016d09d72d40fdae2fd8ceac6b6234c7706214fd39c1cd1e609a0528c19930080546001600160a01b031981166001600160a01b03848116918217845560405192169182907f8be0079c531659141344cd1fd0a4f28419497f9722a3daafe3b4186f6b6457e090600090a3505050565b6001600160a01b0381166110a05760405162461bcd60e51b815260040161038c90611baf565b6110ab600082611265565b6110f75760405162461bcd60e51b815260206004820152601760248201527f546f6b656e20616c726561647920737570706f72746564000000000000000000604482015260640161038c565b6040516001600160a01b038216907f8f50fda9bf5d3b403c53b7e91646abd507f8cebf2577655d55d7de3926168b1790600090a250565b6001600160a01b038116600090815260018301602052604081205415155b9392505050565b60008060005b6002548110156111b5578360028281548110611177576111776119bd565b90600052602060002090600202016000016040516111959190611b39565b6040518091039020036111ad57600194909350915050565b600101611159565b50600093849350915050565b604080516001600160a01b038416602482015260448082018490528251808303909101815260649091019091526020810180516001600160e01b031663a9059cbb60e01b17905261121390849061127a565b505050565b60006104da825490565b6060600061114c836112f1565b61123761134d565b61033681611396565b61124861134d565b6104f261139e565b600061114c836001600160a01b0384166113a6565b600061114c836001600160a01b038416611499565b600080602060008451602086016000885af18061129d576040513d6000823e3d81fd5b50506000513d915081156112b55780600114156112c2565b6001600160a01b0384163b155b156112eb57604051635274afe760e01b81526001600160a01b038516600482015260240161038c565b50505050565b60608160000180548060200260200160405190810160405280929190818152602001828054801561134157602002820191906000526020600020905b81548152602001906001019080831161132d575b50505050509050919050565b7ff0c57e16840df040f15088dc2f81fe391c3923bec73e23a9662efc9c229c6a0054600160401b900460ff166104f257604051631afcd79f60e31b815260040160405180910390fd5b610a4e61134d565b610ff561134d565b6000818152600183016020526040812054801561148f5760006113ca600183611be6565b85549091506000906113de90600190611be6565b90508082146114435760008660000182815481106113fe576113fe6119bd565b9060005260206000200154905080876000018481548110611421576114216119bd565b6000918252602080832090910192909255918252600188019052604090208390555b855486908061145457611454611c07565b6001900381819060005260206000200160009055905585600101600086815260200190815260200160002060009055600193505050506104da565b60009150506104da565b60008181526001830160205260408120546114e0575081546001818101845560008481526020808220909301849055845484825282860190935260409020919091556104da565b5060006104da565b80356001600160a01b03811681146114ff57600080fd5b919050565b60006020828403121561151657600080fd5b61114c826114e8565b60006020828403121561153157600080fd5b5035919050565b634e487b7160e01b600052604160045260246000fd5b6040805190810167ffffffffffffffff8111828210171561157157611571611538565b60405290565b604051601f8201601f1916810167ffffffffffffffff811182821017156115a0576115a0611538565b604052919050565b600082601f8301126115b957600080fd5b813567ffffffffffffffff8111156115d3576115d3611538565b6115e6601f8201601f1916602001611577565b8181528460208386010111156115fb57600080fd5b816020850160208301376000918101602001919091529392505050565b803561ffff811681146114ff57600080fd5b6000806040838503121561163d57600080fd5b823567ffffffffffffffff81111561165457600080fd5b611660858286016115a8565b92505061166f60208401611618565b90509250929050565b6000806040838503121561168b57600080fd5b611694836114e8565b946020939093013593505050565b60005b838110156116bd5781810151838201526020016116a5565b50506000910152565b600060208083018184528085518083526040925060408601915060408160051b87010184880160005b8381101561174857603f198984030185528151805187855280518089870152606061171f828289018d86016116a2565b928a015161ffff16868b015296890196601f01601f1916909401019250908601906001016116ef565b509098975050505050505050565b60006020828403121561176857600080fd5b813567ffffffffffffffff81111561177f57600080fd5b61178b848285016115a8565b949350505050565b6020808252825182820181905260009190848201906040850190845b818110156117d45783516001600160a01b0316835292840192918401916001016117af565b50909695505050505050565b60008083601f8401126117f257600080fd5b50813567ffffffffffffffff81111561180a57600080fd5b6020830191508360208260051b850101111561182557600080fd5b9250929050565b6000806000806060858703121561184257600080fd5b61184b856114e8565b9350602085013567ffffffffffffffff8082111561186857600080fd5b818701915087601f83011261187c57600080fd5b81358181111561188e5761188e611538565b61189d60208260051b01611577565b8082825260208201915060208360051b86010192508a8311156118bf57600080fd5b602085015b838110156119455784813511156118da57600080fd5b803586016040818e03601f190112156118f257600080fd5b6118fa61154e565b60208201358781111561190c57600080fd5b61191b8f6020838601016115a8565b82525061192a60408301611618565b602082015280855250506020830192506020810190506118c4565b5096505050604087013591508082111561195e57600080fd5b5061196b878288016117e0565b95989497509550505050565b602080825260139082015272151bdad95b881b9bdd081cdd5c1c1bdc9d1959606a1b604082015260600190565b6000602082840312156119b657600080fd5b5051919050565b634e487b7160e01b600052603260045260246000fd5b600082516119e58184602087016116a2565b9190910192915050565b600181811c90821680611a0357607f821691505b602082108103611a2357634e487b7160e01b600052602260045260246000fd5b50919050565b601f821115611213576000816000526020600020601f850160051c81016020861015611a525750805b601f850160051c820191505b81811015611a7157828155600101611a5e565b505050505050565b815167ffffffffffffffff811115611a9357611a93611538565b611aa781611aa184546119ef565b84611a29565b602080601f831160018114611adc5760008415611ac45750858301515b600019600386901b1c1916600185901b178555611a71565b600085815260208120601f198616915b82811015611b0b57888601518255948401946001909101908401611aec565b5085821015611b295787850151600019600388901b60f8161c191681555b5050505050600190811b01905550565b6000808354611b47816119ef565b60018281168015611b5f5760018114611b7457611ba3565b60ff1984168752821515830287019450611ba3565b8760005260208060002060005b85811015611b9a5781548a820152908401908201611b81565b50505082870194505b50929695505050505050565b6020808252601c908201527f546f6b656e20616464726573732063616e6e6f74206265207a65726f00000000604082015260600190565b818103818111156104da57634e487b7160e01b600052601160045260246000fd5b634e487b7160e01b600052603160045260246000fdfe9b779b17422d0df92223018b32b4d1fa46e071723d6817e2486d003becc55f00a2646970667358221220785d475c86c833c076afcc4390d90f1b726b6659d1c86548788678d2f6d2d21264736f6c63430008180033",
  "linkReferences": {},
  "deployedLinkReferences": {}
}