{
  "_format": "hh-sol-artifact-1",
  "contractName": "FeeCollector",
  "sourceName": "contracts/FeeCollector.sol",
  "abi": [
    {
      "inputs": [],
      "stateMutability": "nonpayable",
      "type": "constructor"
    },
    {
      "inputs": [
        {
          "internalType": "string",
          "name": "contractType",
          "type": "string"
        }
      ],
      "name": "DuplicateContractType",
      "type": "error"
    },
    {
      "inputs": [],
      "name": "EmptyContractType",
      "type": "error"
    },
    {
      "inputs": [
        {
          "internalType": "uint16",
          "name": "feeBps",
          "type": "uint16"
        }
      ],
      "name": "InvalidBps",
      "type": "error"
    },
    {
      "inputs": [],
      "name": "InvalidInitialization",
      "type": "error"
    },
    {
      "inputs": [],
      "name": "NotInitializing",
      "type": "error"
    },
    {
      "inputs": [
        {
          "internalType": "address",
          "name": "owner",
          "type": "address"
        }
      ],
      "name": "OwnableInvalidOwner",
      "type": "error"
    },
    {
      "inputs": [
        {
          "internalType": "address",
          "name": "account",
          "type": "address"
        }
      ],
      "name": "OwnableUnauthorizedAccount",
      "type": "error"
    },
    {
      "inputs": [],
      "name": "ReentrancyGuardReentrantCall",
      "type": "error"
    },
    {
      "inputs": [
        {
          "internalType": "address",
          "name": "token",
          "type": "address"
        }
      ],
      "name": "SafeERC20FailedOperation",
      "type": "error"
    },
    {
      "inputs": [
        {
          "internalType": "address",
          "name": "token",
          "type": "address"
        }
      ],
      "name": "TokenNotSupported",
      "type": "error"
    },
    {
      "inputs": [
        {
          "internalType": "address",
          "name": "token",
          "type": "address"
        }
      ],
      "name": "TokenSupportAlreadyAdded",
      "type": "error"
    },
    {
      "inputs": [
        {
          "internalType": "address",
          "name": "token",
          "type": "address"
        }
      ],
      "name": "TokenSupportNotFound",
      "type": "error"
    },
    {
      "inputs": [],
      "name": "TokenSupportZeroAddress",
      "type": "error"
    },
    {
      "inputs": [],
      "name": "WithdrawalFailed",
      "type": "error"
    },
    {
      "inputs": [],
      "name": "ZeroAddress",
      "type": "error"
    },
    {
      "inputs": [],
      "name": "ZeroAmount",
      "type": "error"
    },
    {
      "anonymous": false,
      "inputs": [
        {
          "indexed": true,
          "internalType": "address",
          "name": "previous",
          "type": "address"
        },
        {
          "indexed": true,
          "internalType": "address",
          "name": "current",
          "type": "address"
        }
      ],
      "name": "FeeBeneficiaryUpdated",
      "type": "event"
    },
    {
      "anonymous": false,
      "inputs": [
        {
          "indexed": true,
          "internalType": "string",
          "name": "contractType",
          "type": "string"
        },
        {
          "indexed": false,
          "internalType": "uint16",
          "name": "feeBps",
          "type": "uint16"
        }
      ],
      "name": "FeeConfigUpdated",
      "type": "event"
    },
    {
      "anonymous": false,
      "inputs": [
        {
          "indexed": true,
          "internalType": "string",
          "name": "contractType",
          "type": "string"
        },
        {
          "indexed": true,
          "internalType": "address",
          "name": "payer",
          "type": "address"
        },
        {
          "indexed": true,
          "internalType": "address",
          "name": "token",
          "type": "address"
        },
        {
          "indexed": false,
          "internalType": "uint256",
          "name": "amount",
          "type": "uint256"
        }
      ],
      "name": "FeePaid",
      "type": "event"
    },
    {
      "anonymous": false,
      "inputs": [
        {
          "indexed": false,
          "internalType": "uint64",
          "name": "version",
          "type": "uint64"
        }
      ],
      "name": "Initialized",
      "type": "event"
    },
    {
      "anonymous": false,
      "inputs": [
        {
          "indexed": true,
          "internalType": "address",
          "name": "previousOwner",
          "type": "address"
        },
        {
          "indexed": true,
          "internalType": "address",
          "name": "newOwner",
          "type": "address"
        }
      ],
      "name": "OwnershipTransferred",
      "type": "event"
    },
    {
      "anonymous": false,
      "inputs": [
        {
          "indexed": true,
          "internalType": "address",
          "name": "tokenAddress",
          "type": "address"
        }
      ],
      "name": "TokenSupportAdded",
      "type": "event"
    },
    {
      "anonymous": false,
      "inputs": [
        {
          "indexed": true,
          "internalType": "address",
          "name": "tokenAddress",
          "type": "address"
        }
      ],
      "name": "TokenSupportRemoved",
      "type": "event"
    },
    {
      "anonymous": false,
      "inputs": [
        {
          "indexed": true,
          "internalType": "address",
          "name": "recipient",
          "type": "address"
        },
        {
          "indexed": true,
          "internalType": "address",
          "name": "token",
          "type": "address"
        },
        {
          "indexed": false,
          "internalType": "uint256",
          "name": "amount",
          "type": "uint256"
        }
      ],
      "name": "TokenWithdrawn",
      "type": "event"
    },
    {
      "anonymous": false,
      "inputs": [
        {
          "indexed": true,
          "internalType": "address",
          "name": "recipient",
          "type": "address"
        },
        {
          "indexed": false,
          "internalType": "uint256",
          "name": "amount",
          "type": "uint256"
        }
      ],
      "name": "Withdrawn",
      "type": "event"
    },
    {
      "inputs": [
        {
          "internalType": "address",
          "name": "_tokenAddress",
          "type": "address"
        }
      ],
      "name": "addTokenSupport",
      "outputs": [],
      "stateMutability": "nonpayable",
      "type": "function"
    },
    {
      "inputs": [],
      "name": "feeBeneficiary",
      "outputs": [
        {
          "internalType": "address",
          "name": "",
          "type": "address"
        }
      ],
      "stateMutability": "view",
      "type": "function"
    },
    {
      "inputs": [],
      "name": "getAllFeeConfigs",
      "outputs": [
        {
          "components": [
            {
              "internalType": "string",
              "name": "contractType",
              "type": "string"
            },
            {
              "internalType": "uint16",
              "name": "feeBps",
              "type": "uint16"
            }
          ],
          "internalType": "struct FeeCollector.FeeConfig[]",
          "name": "",
          "type": "tuple[]"
        }
      ],
      "stateMutability": "view",
      "type": "function"
    },
    {
      "inputs": [],
      "name": "getBalance",
      "outputs": [
        {
          "internalType": "uint256",
          "name": "",
          "type": "uint256"
        }
      ],
      "stateMutability": "view",
      "type": "function"
    },
    {
      "inputs": [
        {
          "internalType": "string",
          "name": "contractType",
          "type": "string"
        }
      ],
      "name": "getFeeFor",
      "outputs": [
        {
          "internalType": "uint16",
          "name": "",
          "type": "uint16"
        }
      ],
      "stateMutability": "view",
      "type": "function"
    },
    {
      "inputs": [],
      "name": "getSupportedTokenCount",
      "outputs": [
        {
          "internalType": "uint256",
          "name": "",
          "type": "uint256"
        }
      ],
      "stateMutability": "view",
      "type": "function"
    },
    {
      "inputs": [],
      "name": "getSupportedTokens",
      "outputs": [
        {
          "internalType": "address[]",
          "name": "",
          "type": "address[]"
        }
      ],
      "stateMutability": "view",
      "type": "function"
    },
    {
      "inputs": [
        {
          "internalType": "address",
          "name": "_token",
          "type": "address"
        }
      ],
      "name": "getTokenBalance",
      "outputs": [
        {
          "internalType": "uint256",
          "name": "",
          "type": "uint256"
        }
      ],
      "stateMutability": "view",
      "type": "function"
    },
    {
      "inputs": [
        {
          "internalType": "address",
          "name": "_owner",
          "type": "address"
        },
        {
          "components": [
            {
              "internalType": "string",
              "name": "contractType",
              "type": "string"
            },
            {
              "internalType": "uint16",
              "name": "feeBps",
              "type": "uint16"
            }
          ],
          "internalType": "struct FeeCollector.FeeConfig[]",
          "name": "_configs",
          "type": "tuple[]"
        },
        {
          "internalType": "address[]",
          "name": "_tokenAddresses",
          "type": "address[]"
        }
      ],
      "name": "initialize",
      "outputs": [],
      "stateMutability": "nonpayable",
      "type": "function"
    },
    {
      "inputs": [
        {
          "internalType": "address",
          "name": "_token",
          "type": "address"
        }
      ],
      "name": "isTokenSupported",
      "outputs": [
        {
          "internalType": "bool",
          "name": "",
          "type": "bool"
        }
      ],
      "stateMutability": "view",
      "type": "function"
    },
    {
      "inputs": [],
      "name": "owner",
      "outputs": [
        {
          "internalType": "address",
          "name": "",
          "type": "address"
        }
      ],
      "stateMutability": "view",
      "type": "function"
    },
    {
      "inputs": [
        {
          "internalType": "string",
          "name": "contractType",
          "type": "string"
        }
      ],
      "name": "payFee",
      "outputs": [],
      "stateMutability": "payable",
      "type": "function"
    },
    {
      "inputs": [
        {
          "internalType": "string",
          "name": "contractType",
          "type": "string"
        },
        {
          "internalType": "address",
          "name": "token",
          "type": "address"
        },
        {
          "internalType": "uint256",
          "name": "amount",
          "type": "uint256"
        }
      ],
      "name": "payFeeToken",
      "outputs": [],
      "stateMutability": "nonpayable",
      "type": "function"
    },
    {
      "inputs": [
        {
          "internalType": "address",
          "name": "_tokenAddress",
          "type": "address"
        }
      ],
      "name": "removeTokenSupport",
      "outputs": [],
      "stateMutability": "nonpayable",
      "type": "function"
    },
    {
      "inputs": [],
      "name": "renounceOwnership",
      "outputs": [],
      "stateMutability": "nonpayable",
      "type": "function"
    },
    {
      "inputs": [
        {
          "internalType": "string",
          "name": "contractType",
          "type": "string"
        },
        {
          "internalType": "uint16",
          "name": "feeBps",
          "type": "uint16"
        }
      ],
      "name": "setFee",
      "outputs": [],
      "stateMutability": "nonpayable",
      "type": "function"
    },
    {
      "inputs": [
        {
          "internalType": "address",
          "name": "_beneficiary",
          "type": "address"
        }
      ],
      "name": "setFeeBeneficiary",
      "outputs": [],
      "stateMutability": "nonpayable",
      "type": "function"
    },
    {
      "inputs": [
        {
          "internalType": "address",
          "name": "newOwner",
          "type": "address"
        }
      ],
      "name": "transferOwnership",
      "outputs": [],
      "stateMutability": "nonpayable",
      "type": "function"
    },
    {
      "inputs": [],
      "name": "withdraw",
      "outputs": [],
      "stateMutability": "nonpayable",
      "type": "function"
    },
    {
      "stateMutability": "payable",
      "type": "receive"
    }
  ],
  "bytecode": "0x608060405234801561001057600080fd5b5061001961001e565b6100d0565b7ff0c57e16840df040f15088dc2f81fe391c3923bec73e23a9662efc9c229c6a00805468010000000000000000900460ff161561006e5760405163f92ee8a960e01b815260040160405180910390fd5b80546001600160401b03908116146100cd5780546001600160401b0319166001600160401b0390811782556040519081527fc7f505b2f371ae2175ee4913f4499e1f2633a7b5936321eed1cdaeb6115181d29060200160405180910390a15b50565b611e64806100df6000396000f3fe6080604052600436106101185760003560e01c806375151b63116100a0578063caed96c611610064578063caed96c6146102e4578063ce67be2614610317578063d3c7c2c71461032c578063f2fde38b1461034e578063ffe107131461036e57600080fd5b806375151b631461024a5780637a6b41df1461027a5780638da5cb5b1461029a578063abe71ff9146102af578063b23bf443146102d157600080fd5b8063492fb343116100e7578063492fb3431461019d5780635a0a3d82146101d5578063715018a6146101f5578063733c237d1461020a5780637434eded1461022a57600080fd5b806312065fe0146101245780632ba8d939146101465780633aecd0e3146101685780633ccfd60b1461018857600080fd5b3661011f57005b600080fd5b34801561013057600080fd5b50475b6040519081526020015b60405180910390f35b34801561015257600080fd5b5061016661016136600461168c565b61038e565b005b34801561017457600080fd5b5061013361018336600461168c565b6103a2565b34801561019457600080fd5b50610166610448565b3480156101a957600080fd5b506003546101bd906001600160a01b031681565b6040516001600160a01b03909116815260200161013d565b3480156101e157600080fd5b506101666101f036600461168c565b61065f565b34801561020157600080fd5b506101666106b9565b34801561021657600080fd5b5061016661022536600461168c565b6106cb565b34801561023657600080fd5b506101666102453660046116ef565b6106dc565b34801561025657600080fd5b5061026a61026536600461168c565b6107e8565b604051901515815260200161013d565b34801561028657600080fd5b50610166610295366004611839565b610808565b3480156102a657600080fd5b506101bd610995565b3480156102bb57600080fd5b506102c46109c3565b60405161013d91906118d6565b6101666102df366004611952565b610ac2565b3480156102f057600080fd5b506103046102ff366004611993565b610b58565b60405161ffff909116815260200161013d565b34801561032357600080fd5b50610133610bb5565b34801561033857600080fd5b50610341610bc6565b60405161013d91906119cf565b34801561035a57600080fd5b5061016661036936600461168c565b610bd2565b34801561037a57600080fd5b50610166610389366004611a60565b610c0d565b61039661105a565b61039f8161108c565b50565b60006103ad826107e8565b6103da576040516306439c6b60e01b81526001600160a01b03831660048201526024015b60405180910390fd5b6040516370a0823160e01b81523060048201526001600160a01b038316906370a0823190602401602060405180830381865afa15801561041e573d6000803e3d6000fd5b505050506040513d601f19601f820116820180604052508101906104429190611baa565b92915050565b61045061105a565b61045861111d565b6000610462611155565b9050478015610524576000826001600160a01b03168260405160006040518083038185875af1925050503d80600081146104b8576040519150601f19603f3d011682016040523d82523d6000602084013e6104bd565b606091505b50509050806104df576040516327fcd9d160e01b815260040160405180910390fd5b826001600160a01b03167f7084f5476618d8e60b11ef0d7d3f06914655adb8793e28ff7f018d4c76d505d58360405161051a91815260200190565b60405180910390a2505b6000610530600061117e565b805190915060005b8181101561064157600083828151811061055457610554611bc3565b60209081029190910101516040516370a0823160e01b81523060048201529091506000906001600160a01b038316906370a0823190602401602060405180830381865afa1580156105a9573d6000803e3d6000fd5b505050506040513d601f19601f820116820180604052508101906105cd9190611baa565b90508015610637576105e96001600160a01b0383168883611192565b816001600160a01b0316876001600160a01b03167f8210728e7c071f615b840ee026032693858fbcd5e5359e67e438c890f59e56208360405161062e91815260200190565b60405180910390a35b5050600101610538565b505050505061065d6001600080516020611e0f83398151915255565b565b61066761105a565b600380546001600160a01b038381166001600160a01b0319831681179093556040519116919082907fdc647b6c64710ea9f8fb64dbfade0bc17c93bc5ba3e418927f5dc705540b858990600090a35050565b6106c161105a565b61065d600061120a565b6106d361105a565b61039f8161127b565b6106e461111d565b60008390036107065760405163aaa1f74360e01b815260040160405180910390fd5b61070f826107e8565b610737576040516306439c6b60e01b81526001600160a01b03831660048201526024016103d1565b8060000361075857604051631f2a200560e01b815260040160405180910390fd5b61076d6001600160a01b03831633308461130c565b816001600160a01b0316336001600160a01b03168585604051610791929190611bd9565b604051908190038120848252907f0ccfbcb5c3968eae3bba1310c83db1e6ca9e140d57b80f761ebc031f9802ce5d9060200160405180910390a46107e26001600080516020611e0f83398151915255565b50505050565b6001600160a01b0381166000908152600160205260408120541515610442565b61081061105a565b81516000036108325760405163aaa1f74360e01b815260040160405180910390fd5b6127108161ffff16111561085f57604051632b84a55760e11b815261ffff821660048201526024016103d1565b8151602083012060008061087283611345565b91509150811561090e57836002828154811061089057610890611bc3565b906000526020600020906002020160010160006101000a81548161ffff021916908361ffff160217905550846040516108c99190611be9565b60405190819003812061ffff86168252907fff858e943236ba10c22680e1eb8113a9c6bf7e44397392ce3a627ca78de298af9060200160405180910390a25050505050565b6040805180820190915285815261ffff85166020820152600280546001810182556000829052825191027f405787fa12a823e0f2b7631cc41b3ba8828b3321ca811111fa75cd3aa3bb5ace019081906109679082611c8f565b50602091909101516001909101805461ffff191661ffff9092169190911790556040516108c9908690611be9565b7f9016d09d72d40fdae2fd8ceac6b6234c7706214fd39c1cd1e609a0528c199300546001600160a01b031690565b60606002805480602002602001604051908101604052809291908181526020016000905b82821015610ab95783829060005260206000209060020201604051806040016040529081600082018054610a1a90611c05565b80601f0160208091040260200160405190810160405280929190818152602001828054610a4690611c05565b8015610a935780601f10610a6857610100808354040283529160200191610a93565b820191906000526020600020905b815481529060010190602001808311610a7657829003601f168201915b505050918352505060019182015461ffff166020918201529183529290920191016109e7565b50505050905090565b6000819003610ae45760405163aaa1f74360e01b815260040160405180910390fd5b34600003610b0557604051631f2a200560e01b815260040160405180910390fd5b6040516000903390610b1a9085908590611bd9565b604051908190038120348252907f0ccfbcb5c3968eae3bba1310c83db1e6ca9e140d57b80f761ebc031f9802ce5d9060200160405180910390a45050565b805160208201206000908180610b6d83611345565b9150915081610b8157506000949350505050565b60028181548110610b9457610b94611bc3565b600091825260209091206001600290920201015461ffff1695945050505050565b6000610bc160006113b3565b905090565b6060610bc1600061117e565b610bda61105a565b6001600160a01b038116610c0457604051631e4fbdf760e01b8152600060048201526024016103d1565b61039f8161120a565b7ff0c57e16840df040f15088dc2f81fe391c3923bec73e23a9662efc9c229c6a008054600160401b810460ff1615906001600160401b0316600081158015610c525750825b90506000826001600160401b03166001148015610c6e5750303b155b905081158015610c7c575080155b15610c9a5760405163f92ee8a960e01b815260040160405180910390fd5b845467ffffffffffffffff191660011785558315610cc457845460ff60401b1916600160401b1785555b6001600160a01b038916610ceb5760405163d92e233d60e01b815260040160405180910390fd5b610cf4896113bd565b610cfc6113ce565b60005b8851811015610f0557888181518110610d1a57610d1a611bc3565b60200260200101516000015151600003610d475760405163aaa1f74360e01b815260040160405180910390fd5b612710898281518110610d5c57610d5c611bc3565b60200260200101516020015161ffff161115610db457888181518110610d8457610d84611bc3565b602002602001015160200151604051632b84a55760e11b81526004016103d1919061ffff91909116815260200190565b60005b81811015610e6257898281518110610dd157610dd1611bc3565b6020026020010151600001518051906020012060028281548110610df757610df7611bc3565b9060005260206000209060020201600001604051610e159190611d4e565b604051809103902003610e5a57898281518110610e3457610e34611bc3565b602002602001015160000151604051635d5563df60e11b81526004016103d19190611dc4565b600101610db7565b50600260405180604001604052808b8481518110610e8257610e82611bc3565b60200260200101516000015181526020018b8481518110610ea557610ea5611bc3565b60209081029190910181015181015161ffff169091528254600181018455600093845292208151919260020201908190610edf9082611c8f565b50602091909101516001918201805461ffff191661ffff90921691909117905501610cff565b5060005b86811015610f98576000888883818110610f2557610f25611bc3565b9050602002016020810190610f3a919061168c565b6001600160a01b031603610f615760405163d92e233d60e01b815260040160405180910390fd5b610f90888883818110610f7657610f76611bc3565b9050602002016020810190610f8b919061168c565b61127b565b600101610f09565b5060005b8681101561100857878782818110610fb657610fb6611bc3565b9050602002016020810190610fcb919061168c565b6001600160a01b03167f8f50fda9bf5d3b403c53b7e91646abd507f8cebf2577655d55d7de3926168b1760405160405180910390a2600101610f9c565b50831561104f57845460ff60401b19168555604051600181527fc7f505b2f371ae2175ee4913f4499e1f2633a7b5936321eed1cdaeb6115181d29060200160405180910390a15b505050505050505050565b33611063610995565b6001600160a01b03161461065d5760405163118cdaa760e01b81523360048201526024016103d1565b6001600160a01b0381166110b357604051634b082a2d60e11b815260040160405180910390fd5b6110be6000826113de565b6110e6576040516344eb3dc360e11b81526001600160a01b03821660048201526024016103d1565b6040516001600160a01b038216907f1cef54ca6e1745ad87fa3077491d9fc42257e9f1a2d7cad58a4e52bd14dfc62690600090a250565b600080516020611e0f83398151915280546001190161114f57604051633ee5aeb560e01b815260040160405180910390fd5b60029055565b6003546000906001600160a01b031680156111705780611178565b611178610995565b91505090565b6060600061118b836113f3565b9392505050565b6040516001600160a01b038381166024830152604482018390526111f191859182169063a9059cbb906064015b604051602081830303815290604052915060e01b6020820180516001600160e01b03838183161783525050505061144f565b505050565b6001600080516020611e0f83398151915255565b7f9016d09d72d40fdae2fd8ceac6b6234c7706214fd39c1cd1e609a0528c19930080546001600160a01b031981166001600160a01b03848116918217845560405192169182907f8be0079c531659141344cd1fd0a4f28419497f9722a3daafe3b4186f6b6457e090600090a3505050565b6001600160a01b0381166112a257604051634b082a2d60e11b815260040160405180910390fd5b6112ad6000826114c0565b6112d557604051635484216160e01b81526001600160a01b03821660048201526024016103d1565b6040516001600160a01b038216907f8f50fda9bf5d3b403c53b7e91646abd507f8cebf2577655d55d7de3926168b1790600090a250565b6040516001600160a01b0384811660248301528381166044830152606482018390526107e29186918216906323b872dd906084016111bf565b60008060005b6002548110156113a757836002828154811061136957611369611bc3565b90600052602060002090600202016000016040516113879190611d4e565b60405180910390200361139f57600194909350915050565b60010161134b565b50600093849350915050565b6000610442825490565b6113c56114d5565b61039f8161151e565b6113d66114d5565b61065d611526565b600061118b836001600160a01b03841661152e565b60608160000180548060200260200160405190810160405280929190818152602001828054801561144357602002820191906000526020600020905b81548152602001906001019080831161142f575b50505050509050919050565b600080602060008451602086016000885af180611472576040513d6000823e3d81fd5b50506000513d9150811561148a578060011415611497565b6001600160a01b0384163b155b156107e257604051635274afe760e01b81526001600160a01b03851660048201526024016103d1565b600061118b836001600160a01b038416611621565b7ff0c57e16840df040f15088dc2f81fe391c3923bec73e23a9662efc9c229c6a0054600160401b900460ff1661065d57604051631afcd79f60e31b815260040160405180910390fd5b610bda6114d5565b6111f66114d5565b60008181526001830160205260408120548015611617576000611552600183611dd7565b855490915060009061156690600190611dd7565b90508082146115cb57600086600001828154811061158657611586611bc3565b90600052602060002001549050808760000184815481106115a9576115a9611bc3565b6000918252602080832090910192909255918252600188019052604090208390555b85548690806115dc576115dc611df8565b600190038181906000526020600020016000905590558560010160008681526020019081526020016000206000905560019350505050610442565b6000915050610442565b600081815260018301602052604081205461166857508154600181810184556000848152602080822090930184905584548482528286019093526040902091909155610442565b506000610442565b80356001600160a01b038116811461168757600080fd5b919050565b60006020828403121561169e57600080fd5b61118b82611670565b60008083601f8401126116b957600080fd5b5081356001600160401b038111156116d057600080fd5b6020830191508360208285010111156116e857600080fd5b9250929050565b6000806000806060858703121561170557600080fd5b84356001600160401b0381111561171b57600080fd5b611727878288016116a7565b909550935061173a905060208601611670565b9396929550929360400135925050565b634e487b7160e01b600052604160045260246000fd5b604080519081016001600160401b03811182821017156117825761178261174a565b60405290565b604051601f8201601f191681016001600160401b03811182821017156117b0576117b061174a565b604052919050565b600082601f8301126117c957600080fd5b81356001600160401b038111156117e2576117e261174a565b6117f5601f8201601f1916602001611788565b81815284602083860101111561180a57600080fd5b816020850160208301376000918101602001919091529392505050565b803561ffff8116811461168757600080fd5b6000806040838503121561184c57600080fd5b82356001600160401b0381111561186257600080fd5b61186e858286016117b8565b92505061187d60208401611827565b90509250929050565b60005b838110156118a1578181015183820152602001611889565b50506000910152565b600081518084526118c2816020860160208601611886565b601f01601f19169290920160200192915050565b600060208083018184528085518083526040925060408601915060408160051b87010184880160005b8381101561194457888303603f1901855281518051878552611923888601826118aa565b9189015161ffff1694890194909452948701949250908601906001016118ff565b509098975050505050505050565b6000806020838503121561196557600080fd5b82356001600160401b0381111561197b57600080fd5b611987858286016116a7565b90969095509350505050565b6000602082840312156119a557600080fd5b81356001600160401b038111156119bb57600080fd5b6119c7848285016117b8565b949350505050565b6020808252825182820181905260009190848201906040850190845b81811015611a105783516001600160a01b0316835292840192918401916001016119eb565b50909695505050505050565b60008083601f840112611a2e57600080fd5b5081356001600160401b03811115611a4557600080fd5b6020830191508360208260051b85010111156116e857600080fd5b60008060008060608587031215611a7657600080fd5b611a7f85611670565b935060208501356001600160401b0380821115611a9b57600080fd5b818701915087601f830112611aaf57600080fd5b813581811115611ac157611ac161174a565b611ad060208260051b01611788565b8082825260208201915060208360051b86010192508a831115611af257600080fd5b602085015b83811015611b78578481351115611b0d57600080fd5b803586016040818e03601f19011215611b2557600080fd5b611b2d611760565b602082013587811115611b3f57600080fd5b611b4e8f6020838601016117b8565b825250611b5d60408301611827565b60208201528085525050602083019250602081019050611af7565b50965050506040870135915080821115611b9157600080fd5b50611b9e87828801611a1c565b95989497509550505050565b600060208284031215611bbc57600080fd5b5051919050565b634e487b7160e01b600052603260045260246000fd5b8183823760009101908152919050565b60008251611bfb818460208701611886565b9190910192915050565b600181811c90821680611c1957607f821691505b602082108103611c3957634e487b7160e01b600052602260045260246000fd5b50919050565b601f8211156111f1576000816000526020600020601f850160051c81016020861015611c685750805b601f850160051c820191505b81811015611c8757828155600101611c74565b505050505050565b81516001600160401b03811115611ca857611ca861174a565b611cbc81611cb68454611c05565b84611c3f565b602080601f831160018114611cf15760008415611cd95750858301515b600019600386901b1c1916600185901b178555611c87565b600085815260208120601f198616915b82811015611d2057888601518255948401946001909101908401611d01565b5085821015611d3e5787850151600019600388901b60f8161c191681555b5050505050600190811b01905550565b6000808354611d5c81611c05565b60018281168015611d745760018114611d8957611db8565b60ff1984168752821515830287019450611db8565b8760005260208060002060005b85811015611daf5781548a820152908401908201611d96565b50505082870194505b50929695505050505050565b60208152600061118b60208301846118aa565b8181038181111561044257634e487b7160e01b600052601160045260246000fd5b634e487b7160e01b600052603160045260246000fdfe9b779b17422d0df92223018b32b4d1fa46e071723d6817e2486d003becc55f00a2646970667358221220e0fcc7f5e1c15931c1a47e2166894fdbcd3fa9c1441cfaa28f59e9f09674cf6064736f6c63430008180033",
  "linkReferences": {},
  "deployedLinkReferences": {}
}