{
  "_format": "hh-sol-artifact-1",
  "contractName": "InvestorV1",
  "sourceName": "contracts/Investor/InvestorV1.sol",
  "abi": [
    {
      "inputs": [],
      "name": "AccessControlBadConfirmation",
      "type": "error"
    },
    {
      "inputs": [
        {
          "internalType": "address",
          "name": "account",
          "type": "address"
        },
        {
          "internalType": "bytes32",
          "name": "neededRole",
          "type": "bytes32"
        }
      ],
      "name": "AccessControlUnauthorizedAccount",
      "type": "error"
    },
    {
      "inputs": [
        {
          "internalType": "address",
          "name": "spender",
          "type": "address"
        },
        {
          "internalType": "uint256",
          "name": "allowance",
          "type": "uint256"
        },
        {
          "internalType": "uint256",
          "name": "needed",
          "type": "uint256"
        }
      ],
      "name": "ERC20InsufficientAllowance",
      "type": "error"
    },
    {
      "inputs": [
        {
          "internalType": "address",
          "name": "sender",
          "type": "address"
        },
        {
          "internalType": "uint256",
          "name": "balance",
          "type": "uint256"
        },
        {
          "internalType": "uint256",
          "name": "needed",
          "type": "uint256"
        }
      ],
      "name": "ERC20InsufficientBalance",
      "type": "error"
    },
    {
      "inputs": [
        {
          "internalType": "address",
          "name": "approver",
          "type": "address"
        }
      ],
      "name": "ERC20InvalidApprover",
      "type": "error"
    },
    {
      "inputs": [
        {
          "internalType": "address",
          "name": "receiver",
          "type": "address"
        }
      ],
      "name": "ERC20InvalidReceiver",
      "type": "error"
    },
    {
      "inputs": [
        {
          "internalType": "address",
          "name": "sender",
          "type": "address"
        }
      ],
      "name": "ERC20InvalidSender",
      "type": "error"
    },
    {
      "inputs": [
        {
          "internalType": "address",
          "name": "spender",
          "type": "address"
        }
      ],
      "name": "ERC20InvalidSpender",
      "type": "error"
    },
    {
      "inputs": [],
      "name": "EnforcedPause",
      "type": "error"
    },
    {
      "inputs": [],
      "name": "ExpectedPause",
      "type": "error"
    },
    {
      "inputs": [],
      "name": "InvalidInitialization",
      "type": "error"
    },
    {
      "inputs": [],
      "name": "NotInitializing",
      "type": "error"
    },
    {
      "inputs": [
        {
          "internalType": "address",
          "name": "owner",
          "type": "address"
        }
      ],
      "name": "OwnableInvalidOwner",
      "type": "error"
    },
    {
      "inputs": [
        {
          "internalType": "address",
          "name": "account",
          "type": "address"
        }
      ],
      "name": "OwnableUnauthorizedAccount",
      "type": "error"
    },
    {
      "inputs": [],
      "name": "ReentrancyGuardReentrantCall",
      "type": "error"
    },
    {
      "inputs": [
        {
          "internalType": "address",
          "name": "token",
          "type": "address"
        }
      ],
      "name": "SafeERC20FailedOperation",
      "type": "error"
    },
    {
      "anonymous": false,
      "inputs": [
        {
          "indexed": true,
          "internalType": "address",
          "name": "owner",
          "type": "address"
        },
        {
          "indexed": true,
          "internalType": "address",
          "name": "spender",
          "type": "address"
        },
        {
          "indexed": false,
          "internalType": "uint256",
          "name": "value",
          "type": "uint256"
        }
      ],
      "name": "Approval",
      "type": "event"
    },
    {
      "anonymous": false,
      "inputs": [
        {
          "indexed": true,
          "internalType": "address",
          "name": "distributor",
          "type": "address"
        },
        {
          "indexed": true,
          "internalType": "address",
          "name": "token",
          "type": "address"
        },
        {
          "indexed": false,
          "internalType": "uint256",
          "name": "totalAmount",
          "type": "uint256"
        },
        {
          "indexed": false,
          "internalType": "uint256",
          "name": "shareholderCount",
          "type": "uint256"
        }
      ],
      "name": "DividendDistributed",
      "type": "event"
    },
    {
      "anonymous": false,
      "inputs": [
        {
          "indexed": true,
          "internalType": "address",
          "name": "shareholder",
          "type": "address"
        },
        {
          "indexed": true,
          "internalType": "address",
          "name": "token",
          "type": "address"
        },
        {
          "indexed": false,
          "internalType": "uint256",
          "name": "amount",
          "type": "uint256"
        }
      ],
      "name": "DividendPaid",
      "type": "event"
    },
    {
      "anonymous": false,
      "inputs": [
        {
          "indexed": true,
          "internalType": "address",
          "name": "shareholder",
          "type": "address"
        },
        {
          "indexed": true,
          "internalType": "address",
          "name": "token",
          "type": "address"
        },
        {
          "indexed": false,
          "internalType": "uint256",
          "name": "amount",
          "type": "uint256"
        },
        {
          "indexed": false,
          "internalType": "string",
          "name": "reason",
          "type": "string"
        }
      ],
      "name": "DividendPaymentFailed",
      "type": "event"
    },
    {
      "anonymous": false,
      "inputs": [
        {
          "indexed": false,
          "internalType": "uint64",
          "name": "version",
          "type": "uint64"
        }
      ],
      "name": "Initialized",
      "type": "event"
    },
    {
      "anonymous": false,
      "inputs": [
        {
          "indexed": true,
          "internalType": "address",
          "name": "shareholder",
          "type": "address"
        },
        {
          "indexed": false,
          "internalType": "uint256",
          "name": "amount",
          "type": "uint256"
        }
      ],
      "name": "Minted",
      "type": "event"
    },
    {
      "anonymous": false,
      "inputs": [
        {
          "indexed": true,
          "internalType": "address",
          "name": "previousOwner",
          "type": "address"
        },
        {
          "indexed": true,
          "internalType": "address",
          "name": "newOwner",
          "type": "address"
        }
      ],
      "name": "OwnershipTransferred",
      "type": "event"
    },
    {
      "anonymous": false,
      "inputs": [
        {
          "indexed": false,
          "internalType": "address",
          "name": "account",
          "type": "address"
        }
      ],
      "name": "Paused",
      "type": "event"
    },
    {
      "anonymous": false,
      "inputs": [
        {
          "indexed": true,
          "internalType": "bytes32",
          "name": "role",
          "type": "bytes32"
        },
        {
          "indexed": true,
          "internalType": "bytes32",
          "name": "previousAdminRole",
          "type": "bytes32"
        },
        {
          "indexed": true,
          "internalType": "bytes32",
          "name": "newAdminRole",
          "type": "bytes32"
        }
      ],
      "name": "RoleAdminChanged",
      "type": "event"
    },
    {
      "anonymous": false,
      "inputs": [
        {
          "indexed": true,
          "internalType": "bytes32",
          "name": "role",
          "type": "bytes32"
        },
        {
          "indexed": true,
          "internalType": "address",
          "name": "account",
          "type": "address"
        },
        {
          "indexed": true,
          "internalType": "address",
          "name": "sender",
          "type": "address"
        }
      ],
      "name": "RoleGranted",
      "type": "event"
    },
    {
      "anonymous": false,
      "inputs": [
        {
          "indexed": true,
          "internalType": "bytes32",
          "name": "role",
          "type": "bytes32"
        },
        {
          "indexed": true,
          "internalType": "address",
          "name": "account",
          "type": "address"
        },
        {
          "indexed": true,
          "internalType": "address",
          "name": "sender",
          "type": "address"
        }
      ],
      "name": "RoleRevoked",
      "type": "event"
    },
    {
      "anonymous": false,
      "inputs": [
        {
          "indexed": true,
          "internalType": "address",
          "name": "from",
          "type": "address"
        },
        {
          "indexed": true,
          "internalType": "address",
          "name": "to",
          "type": "address"
        },
        {
          "indexed": false,
          "internalType": "uint256",
          "name": "value",
          "type": "uint256"
        }
      ],
      "name": "Transfer",
      "type": "event"
    },
    {
      "anonymous": false,
      "inputs": [
        {
          "indexed": false,
          "internalType": "address",
          "name": "account",
          "type": "address"
        }
      ],
      "name": "Unpaused",
      "type": "event"
    },
    {
      "inputs": [],
      "name": "DEFAULT_ADMIN_ROLE",
      "outputs": [
        {
          "internalType": "bytes32",
          "name": "",
          "type": "bytes32"
        }
      ],
      "stateMutability": "view",
      "type": "function"
    },
    {
      "inputs": [],
      "name": "MINTER_ROLE",
      "outputs": [
        {
          "internalType": "bytes32",
          "name": "",
          "type": "bytes32"
        }
      ],
      "stateMutability": "view",
      "type": "function"
    },
    {
      "inputs": [
        {
          "internalType": "address",
          "name": "owner",
          "type": "address"
        },
        {
          "internalType": "address",
          "name": "spender",
          "type": "address"
        }
      ],
      "name": "allowance",
      "outputs": [
        {
          "internalType": "uint256",
          "name": "",
          "type": "uint256"
        }
      ],
      "stateMutability": "view",
      "type": "function"
    },
    {
      "inputs": [
        {
          "internalType": "address",
          "name": "spender",
          "type": "address"
        },
        {
          "internalType": "uint256",
          "name": "value",
          "type": "uint256"
        }
      ],
      "name": "approve",
      "outputs": [
        {
          "internalType": "bool",
          "name": "",
          "type": "bool"
        }
      ],
      "stateMutability": "nonpayable",
      "type": "function"
    },
    {
      "inputs": [
        {
          "internalType": "address",
          "name": "account",
          "type": "address"
        }
      ],
      "name": "balanceOf",
      "outputs": [
        {
          "internalType": "uint256",
          "name": "",
          "type": "uint256"
        }
      ],
      "stateMutability": "view",
      "type": "function"
    },
    {
      "inputs": [],
      "name": "decimals",
      "outputs": [
        {
          "internalType": "uint8",
          "name": "",
          "type": "uint8"
        }
      ],
      "stateMutability": "view",
      "type": "function"
    },
    {
      "inputs": [
        {
          "components": [
            {
              "internalType": "address",
              "name": "shareholder",
              "type": "address"
            },
            {
              "internalType": "uint256",
              "name": "amount",
              "type": "uint256"
            }
          ],
          "internalType": "struct InvestorV1.Shareholder[]",
          "name": "_shareholders",
          "type": "tuple[]"
        }
      ],
      "name": "distributeMint",
      "outputs": [],
      "stateMutability": "nonpayable",
      "type": "function"
    },
    {
      "inputs": [
        {
          "internalType": "uint256",
          "name": "_amount",
          "type": "uint256"
        }
      ],
      "name": "distributeNativeDividends",
      "outputs": [],
      "stateMutability": "payable",
      "type": "function"
    },
    {
      "inputs": [
        {
          "internalType": "address",
          "name": "_token",
          "type": "address"
        },
        {
          "internalType": "uint256",
          "name": "_amount",
          "type": "uint256"
        }
      ],
      "name": "distributeTokenDividends",
      "outputs": [],
      "stateMutability": "nonpayable",
      "type": "function"
    },
    {
      "inputs": [
        {
          "internalType": "bytes32",
          "name": "role",
          "type": "bytes32"
        }
      ],
      "name": "getRoleAdmin",
      "outputs": [
        {
          "internalType": "bytes32",
          "name": "",
          "type": "bytes32"
        }
      ],
      "stateMutability": "view",
      "type": "function"
    },
    {
      "inputs": [],
      "name": "getShareholders",
      "outputs": [
        {
          "components": [
            {
              "internalType": "address",
              "name": "shareholder",
              "type": "address"
            },
            {
              "internalType": "uint256",
              "name": "amount",
              "type": "uint256"
            }
          ],
          "internalType": "struct InvestorV1.Shareholder[]",
          "name": "",
          "type": "tuple[]"
        }
      ],
      "stateMutability": "view",
      "type": "function"
    },
    {
      "inputs": [
        {
          "internalType": "bytes32",
          "name": "role",
          "type": "bytes32"
        },
        {
          "internalType": "address",
          "name": "account",
          "type": "address"
        }
      ],
      "name": "grantRole",
      "outputs": [],
      "stateMutability": "nonpayable",
      "type": "function"
    },
    {
      "inputs": [
        {
          "internalType": "bytes32",
          "name": "role",
          "type": "bytes32"
        },
        {
          "internalType": "address",
          "name": "account",
          "type": "address"
        }
      ],
      "name": "hasRole",
      "outputs": [
        {
          "internalType": "bool",
          "name": "",
          "type": "bool"
        }
      ],
      "stateMutability": "view",
      "type": "function"
    },
    {
      "inputs": [
        {
          "internalType": "address",
          "name": "shareholder",
          "type": "address"
        },
        {
          "internalType": "uint256",
          "name": "amount",
          "type": "uint256"
        }
      ],
      "name": "individualMint",
      "outputs": [],
      "stateMutability": "nonpayable",
      "type": "function"
    },
    {
      "inputs": [
        {
          "internalType": "string",
          "name": "_name",
          "type": "string"
        },
        {
          "internalType": "string",
          "name": "_symbol",
          "type": "string"
        },
        {
          "internalType": "address",
          "name": "_owner",
          "type": "address"
        }
      ],
      "name": "initialize",
      "outputs": [],
      "stateMutability": "nonpayable",
      "type": "function"
    },
    {
      "inputs": [],
      "name": "name",
      "outputs": [
        {
          "internalType": "string",
          "name": "",
          "type": "string"
        }
      ],
      "stateMutability": "view",
      "type": "function"
    },
    {
      "inputs": [],
      "name": "officerAddress",
      "outputs": [
        {
          "internalType": "address",
          "name": "",
          "type": "address"
        }
      ],
      "stateMutability": "view",
      "type": "function"
    },
    {
      "inputs": [],
      "name": "owner",
      "outputs": [
        {
          "internalType": "address",
          "name": "",
          "type": "address"
        }
      ],
      "stateMutability": "view",
      "type": "function"
    },
    {
      "inputs": [],
      "name": "pause",
      "outputs": [],
      "stateMutability": "nonpayable",
      "type": "function"
    },
    {
      "inputs": [],
      "name": "paused",
      "outputs": [
        {
          "internalType": "bool",
          "name": "",
          "type": "bool"
        }
      ],
      "stateMutability": "view",
      "type": "function"
    },
    {
      "inputs": [],
      "name": "renounceOwnership",
      "outputs": [],
      "stateMutability": "nonpayable",
      "type": "function"
    },
    {
      "inputs": [
        {
          "internalType": "bytes32",
          "name": "role",
          "type": "bytes32"
        },
        {
          "internalType": "address",
          "name": "callerConfirmation",
          "type": "address"
        }
      ],
      "name": "renounceRole",
      "outputs": [],
      "stateMutability": "nonpayable",
      "type": "function"
    },
    {
      "inputs": [
        {
          "internalType": "bytes32",
          "name": "role",
          "type": "bytes32"
        },
        {
          "internalType": "address",
          "name": "account",
          "type": "address"
        }
      ],
      "name": "revokeRole",
      "outputs": [],
      "stateMutability": "nonpayable",
      "type": "function"
    },
    {
      "inputs": [
        {
          "internalType": "bytes4",
          "name": "interfaceId",
          "type": "bytes4"
        }
      ],
      "name": "supportsInterface",
      "outputs": [
        {
          "internalType": "bool",
          "name": "",
          "type": "bool"
        }
      ],
      "stateMutability": "view",
      "type": "function"
    },
    {
      "inputs": [],
      "name": "symbol",
      "outputs": [
        {
          "internalType": "string",
          "name": "",
          "type": "string"
        }
      ],
      "stateMutability": "view",
      "type": "function"
    },
    {
      "inputs": [],
      "name": "totalSupply",
      "outputs": [
        {
          "internalType": "uint256",
          "name": "",
          "type": "uint256"
        }
      ],
      "stateMutability": "view",
      "type": "function"
    },
    {
      "inputs": [
        {
          "internalType": "address",
          "name": "to",
          "type": "address"
        },
        {
          "internalType": "uint256",
          "name": "value",
          "type": "uint256"
        }
      ],
      "name": "transfer",
      "outputs": [
        {
          "internalType": "bool",
          "name": "",
          "type": "bool"
        }
      ],
      "stateMutability": "nonpayable",
      "type": "function"
    },
    {
      "inputs": [
        {
          "internalType": "address",
          "name": "from",
          "type": "address"
        },
        {
          "internalType": "address",
          "name": "to",
          "type": "address"
        },
        {
          "internalType": "uint256",
          "name": "value",
          "type": "uint256"
        }
      ],
      "name": "transferFrom",
      "outputs": [
        {
          "internalType": "bool",
          "name": "",
          "type": "bool"
        }
      ],
      "stateMutability": "nonpayable",
      "type": "function"
    },
    {
      "inputs": [
        {
          "internalType": "address",
          "name": "newOwner",
          "type": "address"
        }
      ],
      "name": "transferOwnership",
      "outputs": [],
      "stateMutability": "nonpayable",
      "type": "function"
    },
    {
      "inputs": [],
      "name": "unpause",
      "outputs": [],
      "stateMutability": "nonpayable",
      "type": "function"
    },
    {
      "stateMutability": "payable",
      "type": "receive"
    }
  ],
  "bytecode": "0x608060405234801561001057600080fd5b506128ec806100206000396000f3fe6080604052600436106101d15760003560e01c80635c975abb116100f757806391d1485411610095578063d539139311610064578063d539139314610548578063d547741f1461057c578063dd62ed3e1461059c578063f2fde38b146105bc57600080fd5b806391d14854146104de57806395d89b41146104fe578063a217fddf14610513578063a9059cbb1461052857600080fd5b806370a08231116100d157806370a0823114610457578063715018a6146104775780638456cb591461048c5780638da5cb5b146104a157600080fd5b80635c975abb146103f25780635f8eea0a146104175780636b7747b31461043757600080fd5b8063248a9ca31161016f578063315f77ef1161013e578063315f77ef1461036357806336568abe1461039b5780633f4ba83a146103bb57806341ca641e146103d057600080fd5b8063248a9ca3146102f45780632f05793b146103145780632f2ff15d14610327578063313ce5671461034757600080fd5b8063077f224a116101ab578063077f224a14610256578063095ea7b31461027657806318160ddd1461029657806323b872dd146102d457600080fd5b80630101c3e9146101dd57806301ffc9a7146101ff57806306fdde031461023457600080fd5b366101d857005b600080fd5b3480156101e957600080fd5b506101fd6101f83660046122a6565b6105dc565b005b34801561020b57600080fd5b5061021f61021a36600461237c565b61069f565b60405190151581526020015b60405180910390f35b34801561024057600080fd5b506102496106d6565b60405161022b91906123a6565b34801561026257600080fd5b506101fd61027136600461243e565b610799565b34801561028257600080fd5b5061021f6102913660046124c2565b6109ef565b3480156102a257600080fd5b507f52c63247e1f47db19d5ce0460030c497f067ca4cebf71ba98eeadabe20bace02545b60405190815260200161022b565b3480156102e057600080fd5b5061021f6102ef3660046124ee565b610a07565b34801561030057600080fd5b506102c661030f36600461252f565b610a2b565b6101fd61032236600461252f565b610a4d565b34801561033357600080fd5b506101fd610342366004612548565b610dfa565b34801561035357600080fd5b506040516006815260200161022b565b34801561036f57600080fd5b50600254610383906001600160a01b031681565b6040516001600160a01b03909116815260200161022b565b3480156103a757600080fd5b506101fd6103b6366004612548565b610e1c565b3480156103c757600080fd5b506101fd610e54565b3480156103dc57600080fd5b506103e5610e66565b60405161022b9190612578565b3480156103fe57600080fd5b506000805160206128778339815191525460ff1661021f565b34801561042357600080fd5b506101fd6104323660046124c2565b610f48565b34801561044357600080fd5b506101fd6104523660046124c2565b61134c565b34801561046357600080fd5b506102c66104723660046125d0565b6113ea565b34801561048357600080fd5b506101fd611412565b34801561049857600080fd5b506101fd611424565b3480156104ad57600080fd5b507f9016d09d72d40fdae2fd8ceac6b6234c7706214fd39c1cd1e609a0528c199300546001600160a01b0316610383565b3480156104ea57600080fd5b5061021f6104f9366004612548565b611434565b34801561050a57600080fd5b5061024961146c565b34801561051f57600080fd5b506102c6600081565b34801561053457600080fd5b5061021f6105433660046124c2565b6114ab565b34801561055457600080fd5b506102c67f9f2df0fed2c77648de5860a4cc508cd0818c85b8b8a1ab4ceeef8d981c8956a681565b34801561058857600080fd5b506101fd610597366004612548565b6114b9565b3480156105a857600080fd5b506102c66105b73660046125ed565b6114d5565b3480156105c857600080fd5b506101fd6105d73660046125d0565b61151f565b6105e461155a565b6105ec6115b5565b6105f46115e6565b60005b81518110156106845760008282815181106106145761061461261b565b602002602001015190506106308160000151826020015161161e565b80600001516001600160a01b03167f30385c845b448a36257a6a1716e6ad2e1bc2cbe333cde1e69fe849ad6511adfe826020015160405161067391815260200190565b60405180910390a2506001016105f7565b5061069c600160008051602061289783398151915255565b50565b60006001600160e01b03198216637965db0b60e01b14806106d057506301ffc9a760e01b6001600160e01b03198316145b92915050565b7f52c63247e1f47db19d5ce0460030c497f067ca4cebf71ba98eeadabe20bace0380546060916000805160206128378339815191529161071590612631565b80601f016020809104026020016040519081016040528092919081815260200182805461074190612631565b801561078e5780601f106107635761010080835404028352916020019161078e565b820191906000526020600020905b81548152906001019060200180831161077157829003601f168201915b505050505091505090565b7ff0c57e16840df040f15088dc2f81fe391c3923bec73e23a9662efc9c229c6a008054600160401b810460ff16159067ffffffffffffffff166000811580156107df5750825b905060008267ffffffffffffffff1660011480156107fc5750303b155b90508115801561080a575080155b156108285760405163f92ee8a960e01b815260040160405180910390fd5b845467ffffffffffffffff19166001178555831561085257845460ff60401b1916600160401b1785555b6108c58a8a8080601f01602080910402602001604051908101604052809392919081815260200183838082843760009201919091525050604080516020601f8e018190048102820181019092528c815292508c91508b908190840183828082843760009201919091525061166892505050565b60006001600160a01b038716156108dc57866108de565b335b90506108e98161167a565b6108f161168b565b6108f9611693565b6109016116a3565b61090c6000826116b3565b506109377f9f2df0fed2c77648de5860a4cc508cd0818c85b8b8a1ab4ceeef8d981c8956a6826116b3565b503361098a5760405162461bcd60e51b815260206004820152601960248201527f6d73672e73656e6465722063616e6e6f74206265207a65726f0000000000000060448201526064015b60405180910390fd5b50600280546001600160a01b0319163317905583156109e357845460ff60401b19168555604051600181527fc7f505b2f371ae2175ee4913f4499e1f2633a7b5936321eed1cdaeb6115181d29060200160405180910390a15b50505050505050505050565b6000336109fd818585611758565b5060019392505050565b600033610a15858285611765565b610a208585856117c5565b506001949350505050565b6000908152600080516020612857833981519152602052604090206001015490565b610a55611824565b6001600160a01b0316336001600160a01b031614610aaa5760405162461bcd60e51b815260206004820152601260248201527143616c6c6572206973206e6f742042616e6b60701b6044820152606401610981565b610ab26115e6565b610aba6115b5565b60008111610b0a5760405162461bcd60e51b815260206004820181905260248201527f416d6f756e74206d7573742062652067726561746572207468616e207a65726f6044820152606401610981565b803414610b595760405162461bcd60e51b815260206004820152601f60248201527f496e76616c6964206e6174697665206469766964656e642066756e64696e67006044820152606401610981565b6000610b837f52c63247e1f47db19d5ce0460030c497f067ca4cebf71ba98eeadabe20bace025490565b905060008111610bc85760405162461bcd60e51b815260206004820152601060248201526f139bc81d1bdad95b9cc81b5a5b9d195960821b6044820152606401610981565b6000610bd2611965565b90506000815111610c175760405162461bcd60e51b815260206004820152600f60248201526e4e6f207368617265686f6c6465727360881b6044820152606401610981565b8260005b8251811015610d9e576000838281518110610c3857610c3861261b565b60200260200101516000015190506000848381518110610c5a57610c5a61261b565b60200260200101516020015190506000868289610c77919061267b565b610c819190612692565b905060018651610c9191906126b4565b8403610c9e575083610ca9565b84811115610ca95750835b8015610d93576000836001600160a01b03168260405160006040518083038185875af1925050503d8060008114610cfc576040519150601f19603f3d011682016040523d82523d6000602084013e610d01565b606091505b5050905080610d445760405162461bcd60e51b815260206004820152600f60248201526e151c985b9cd9995c8819985a5b1959608a1b6044820152606401610981565b6040518281526000906001600160a01b038616907fe670640033064f8b7251670a72f82a675d16591fc40627431ebd4c941cf5d7349060200160405180910390a3610d8f82876126b4565b9550505b505050600101610c1b565b50815160408051868152602081019290925260009133917f86dc64ccac78ff63649233273324fe9622c2a361f364d567d787fff628b42a59910160405180910390a350505061069c600160008051602061289783398151915255565b610e0382610a2b565b610e0c81611a41565b610e1683836116b3565b50505050565b6001600160a01b0381163314610e455760405163334bd91960e11b815260040160405180910390fd5b610e4f8282611a4b565b505050565b610e5c61155a565b610e64611ac7565b565b60606000610e746000611b27565b67ffffffffffffffff811115610e8c57610e8c612221565b604051908082528060200260200182016040528015610ed157816020015b6040805180820190915260008082526020820152815260200190600190039081610eaa5790505b50905060005b610ee16000611b27565b811015610f42576000610ef48183611b31565b90506040518060400160405280826001600160a01b03168152602001610f19836113ea565b815250838381518110610f2e57610f2e61261b565b602090810291909101015250600101610ed7565b50919050565b610f50611824565b6001600160a01b0316336001600160a01b031614610fa55760405162461bcd60e51b815260206004820152601260248201527143616c6c6572206973206e6f742042616e6b60701b6044820152606401610981565b610fad6115e6565b610fb56115b5565b6001600160a01b0382166110035760405162461bcd60e51b8152602060048201526015602482015274496e76616c696420746f6b656e206164647265737360581b6044820152606401610981565b600081116110535760405162461bcd60e51b815260206004820181905260248201527f416d6f756e74206d7573742062652067726561746572207468616e207a65726f6044820152606401610981565b600061107d7f52c63247e1f47db19d5ce0460030c497f067ca4cebf71ba98eeadabe20bace025490565b9050600081116110c25760405162461bcd60e51b815260206004820152601060248201526f139bc81d1bdad95b9cc81b5a5b9d195960821b6044820152606401610981565b60006110cc611965565b905060008151116111115760405162461bcd60e51b815260206004820152600f60248201526e4e6f207368617265686f6c6465727360881b6044820152606401610981565b6040516370a0823160e01b815230600482015283906001600160a01b038616906370a0823190602401602060405180830381865afa158015611157573d6000803e3d6000fd5b505050506040513d601f19601f8201168201806040525081019061117b91906126c7565b10156111d35760405162461bcd60e51b815260206004820152602160248201527f496e73756666696369656e742066756e64656420746f6b656e2062616c616e636044820152606560f81b6064820152608401610981565b8260005b82518110156112e45760008382815181106111f4576111f461261b565b602002602001015160000151905060008483815181106112165761121661261b565b60200260200101516020015190506000868289611233919061267b565b61123d9190612692565b90506001865161124d91906126b4565b840361125a575083611265565b848111156112655750835b80156112d95761127f6001600160a01b038a168483611b44565b886001600160a01b0316836001600160a01b03167fe670640033064f8b7251670a72f82a675d16591fc40627431ebd4c941cf5d734836040516112c491815260200190565b60405180910390a36112d681866126b4565b94505b5050506001016111d7565b5081516040805186815260208101929092526001600160a01b0387169133917f86dc64ccac78ff63649233273324fe9622c2a361f364d567d787fff628b42a59910160405180910390a3505050611348600160008051602061289783398151915255565b5050565b7f9f2df0fed2c77648de5860a4cc508cd0818c85b8b8a1ab4ceeef8d981c8956a661137681611a41565b61137e6115b5565b6113866115e6565b611390838361161e565b826001600160a01b03167f30385c845b448a36257a6a1716e6ad2e1bc2cbe333cde1e69fe849ad6511adfe836040516113cb91815260200190565b60405180910390a2610e4f600160008051602061289783398151915255565b6001600160a01b03166000908152600080516020612837833981519152602052604090205490565b61141a61155a565b610e646000611b96565b61142c61155a565b610e64611c07565b6000918252600080516020612857833981519152602090815260408084206001600160a01b0393909316845291905290205460ff1690565b7f52c63247e1f47db19d5ce0460030c497f067ca4cebf71ba98eeadabe20bace0480546060916000805160206128378339815191529161071590612631565b6000336109fd8185856117c5565b6114c282610a2b565b6114cb81611a41565b610e168383611a4b565b6001600160a01b0391821660009081527f52c63247e1f47db19d5ce0460030c497f067ca4cebf71ba98eeadabe20bace016020908152604080832093909416825291909152205490565b61152761155a565b6001600160a01b03811661155157604051631e4fbdf760e01b815260006004820152602401610981565b61069c81611b96565b3361158c7f9016d09d72d40fdae2fd8ceac6b6234c7706214fd39c1cd1e609a0528c199300546001600160a01b031690565b6001600160a01b031614610e645760405163118cdaa760e01b8152336004820152602401610981565b6000805160206128778339815191525460ff1615610e645760405163d93c066560e01b815260040160405180910390fd5b60008051602061289783398151915280546001190161161857604051633ee5aeb560e01b815260040160405180910390fd5b60029055565b6001600160a01b0382166116485760405163ec442f0560e01b815260006004820152602401610981565b61134860008383611c50565b600160008051602061289783398151915255565b611670611ca8565b6113488282611cf1565b611682611ca8565b61069c81611d42565b610e64611ca8565b61169b611ca8565b610e64611d4a565b6116ab611ca8565b610e64611d6b565b60006000805160206128578339815191526116ce8484611434565b61174e576000848152602082815260408083206001600160a01b03871684529091529020805460ff191660011790556117043390565b6001600160a01b0316836001600160a01b0316857f2f8788117e7eff1d82e926ec794901d17c78024a50270940304540a733656f0d60405160405180910390a460019150506106d0565b60009150506106d0565b610e4f8383836001611d73565b600061177184846114d5565b90506000198114610e1657818110156117b657604051637dc7a0d960e11b81526001600160a01b03841660048201526024810182905260448101839052606401610981565b610e1684848484036000611d73565b6001600160a01b0383166117ef57604051634b637e8f60e11b815260006004820152602401610981565b6001600160a01b0382166118195760405163ec442f0560e01b815260006004820152602401610981565b610e4f838383611c50565b6002546000906001600160a01b031661187f5760405162461bcd60e51b815260206004820152601e60248201527f4f6666696365722061646472657373206e6f7420636f6e6669677572656400006044820152606401610981565b60025460405163040a4ce560e21b81526000916001600160a01b0316906310293394906118c79060040160208082526004908201526342616e6b60e01b604082015260600190565b602060405180830381865afa1580156118e4573d6000803e3d6000fd5b505050506040513d601f19601f8201168201806040525081019061190891906126e0565b90506001600160a01b0381166119605760405162461bcd60e51b815260206004820152601760248201527f42616e6b20636f6e7472616374206e6f7420666f756e640000000000000000006044820152606401610981565b919050565b606060006119736000611b27565b67ffffffffffffffff81111561198b5761198b612221565b6040519080825280602002602001820160405280156119d057816020015b60408051808201909152600080825260208201528152602001906001900390816119a95790505b50905060005b6119e06000611b27565b811015610f425760006119f38183611b31565b90506040518060400160405280826001600160a01b03168152602001611a18836113ea565b815250838381518110611a2d57611a2d61261b565b6020908102919091010152506001016119d6565b61069c8133611e5b565b6000600080516020612857833981519152611a668484611434565b1561174e576000848152602082815260408083206001600160a01b0387168085529252808320805460ff1916905551339287917ff6391f5c32d9c69d2a47ea670b442974b53935d1edc7fd64eb21e047a839171b9190a460019150506106d0565b611acf611e94565b600080516020612877833981519152805460ff191681557f5db9ee0a495bf2e6ff9c91a7834c1ba4fdd244a5e8aa4e537bd38aeae4b073aa335b6040516001600160a01b03909116815260200160405180910390a150565b60006106d0825490565b6000611b3d8383611ec4565b9392505050565b604080516001600160a01b038416602482015260448082018490528251808303909101815260649091019091526020810180516001600160e01b031663a9059cbb60e01b179052610e4f908490611eee565b7f9016d09d72d40fdae2fd8ceac6b6234c7706214fd39c1cd1e609a0528c19930080546001600160a01b031981166001600160a01b03848116918217845560405192169182907f8be0079c531659141344cd1fd0a4f28419497f9722a3daafe3b4186f6b6457e090600090a3505050565b611c0f6115b5565b600080516020612877833981519152805460ff191660011781557f62e78cea01bee320cd4e420270b5ea74000d11b0c9f74754ebdbfc544b05a25833611b09565b611c5b838383611f5f565b611c64836113ea565b600003611c7857611c7660008461209d565b505b6000611c83836113ea565b118015611c985750611c966000836120b2565b155b15610e4f57610e166000836120d4565b7ff0c57e16840df040f15088dc2f81fe391c3923bec73e23a9662efc9c229c6a0054600160401b900460ff16610e6457604051631afcd79f60e31b815260040160405180910390fd5b611cf9611ca8565b6000805160206128378339815191527f52c63247e1f47db19d5ce0460030c497f067ca4cebf71ba98eeadabe20bace03611d33848261274d565b5060048101610e16838261274d565b611527611ca8565b611d52611ca8565b600080516020612877833981519152805460ff19169055565b611654611ca8565b6000805160206128378339815191526001600160a01b038516611dac5760405163e602df0560e01b815260006004820152602401610981565b6001600160a01b038416611dd657604051634a1406b160e11b815260006004820152602401610981565b6001600160a01b03808616600090815260018301602090815260408083209388168352929052208390558115611e5457836001600160a01b0316856001600160a01b03167f8c5be1e5ebec7d5bd14f71427d1e84f3dd0314c0f7b2291e5b200ac8c7c3b92585604051611e4b91815260200190565b60405180910390a35b5050505050565b611e658282611434565b6113485760405163e2517d3f60e01b81526001600160a01b038216600482015260248101839052604401610981565b6000805160206128778339815191525460ff16610e6457604051638dfc202b60e01b815260040160405180910390fd5b6000826000018281548110611edb57611edb61261b565b9060005260206000200154905092915050565b600080602060008451602086016000885af180611f11576040513d6000823e3d81fd5b50506000513d91508115611f29578060011415611f36565b6001600160a01b0384163b155b15610e1657604051635274afe760e01b81526001600160a01b0385166004820152602401610981565b6000805160206128378339815191526001600160a01b038416611f9b5781816002016000828254611f90919061280d565b9091555061200d9050565b6001600160a01b03841660009081526020829052604090205482811015611fee5760405163391434e360e21b81526001600160a01b03861660048201526024810182905260448101849052606401610981565b6001600160a01b03851660009081526020839052604090209083900390555b6001600160a01b03831661202b57600281018054839003905561204a565b6001600160a01b03831660009081526020829052604090208054830190555b826001600160a01b0316846001600160a01b03167fddf252ad1be2c89b69c2b068fc378daa952ba7f163c4a11628f55a4df523b3ef8460405161208f91815260200190565b60405180910390a350505050565b6000611b3d836001600160a01b0384166120e9565b6001600160a01b03811660009081526001830160205260408120541515611b3d565b6000611b3d836001600160a01b0384166121d2565b6000818152600183016020526040812054801561174e57600061210d6001836126b4565b8554909150600090612121906001906126b4565b90508082146121865760008660000182815481106121415761214161261b565b90600052602060002001549050808760000184815481106121645761216461261b565b6000918252602080832090910192909255918252600188019052604090208390555b855486908061219757612197612820565b6001900381819060005260206000200160009055905585600101600086815260200190815260200160002060009055600193505050506106d0565b6000818152600183016020526040812054612219575081546001818101845560008481526020808220909301849055845484825282860190935260409020919091556106d0565b5060006106d0565b634e487b7160e01b600052604160045260246000fd5b6040805190810167ffffffffffffffff8111828210171561225a5761225a612221565b60405290565b604051601f8201601f1916810167ffffffffffffffff8111828210171561228957612289612221565b604052919050565b6001600160a01b038116811461069c57600080fd5b600060208083850312156122b957600080fd5b823567ffffffffffffffff808211156122d157600080fd5b818501915085601f8301126122e557600080fd5b8135818111156122f7576122f7612221565b612305848260051b01612260565b818152848101925060069190911b83018401908782111561232557600080fd5b928401925b8184101561237157604084890312156123435760008081fd5b61234b612237565b843561235681612291565b8152848601358682015283526040909301929184019161232a565b979650505050505050565b60006020828403121561238e57600080fd5b81356001600160e01b031981168114611b3d57600080fd5b60006020808352835180602085015260005b818110156123d4578581018301518582016040015282016123b8565b506000604082860101526040601f19601f8301168501019250505092915050565b60008083601f84011261240757600080fd5b50813567ffffffffffffffff81111561241f57600080fd5b60208301915083602082850101111561243757600080fd5b9250929050565b60008060008060006060868803121561245657600080fd5b853567ffffffffffffffff8082111561246e57600080fd5b61247a89838a016123f5565b9097509550602088013591508082111561249357600080fd5b506124a0888289016123f5565b90945092505060408601356124b481612291565b809150509295509295909350565b600080604083850312156124d557600080fd5b82356124e081612291565b946020939093013593505050565b60008060006060848603121561250357600080fd5b833561250e81612291565b9250602084013561251e81612291565b929592945050506040919091013590565b60006020828403121561254157600080fd5b5035919050565b6000806040838503121561255b57600080fd5b82359150602083013561256d81612291565b809150509250929050565b602080825282518282018190526000919060409081850190868401855b828110156125c357815180516001600160a01b03168552860151868501529284019290850190600101612595565b5091979650505050505050565b6000602082840312156125e257600080fd5b8135611b3d81612291565b6000806040838503121561260057600080fd5b823561260b81612291565b9150602083013561256d81612291565b634e487b7160e01b600052603260045260246000fd5b600181811c9082168061264557607f821691505b602082108103610f4257634e487b7160e01b600052602260045260246000fd5b634e487b7160e01b600052601160045260246000fd5b80820281158282048414176106d0576106d0612665565b6000826126af57634e487b7160e01b600052601260045260246000fd5b500490565b818103818111156106d0576106d0612665565b6000602082840312156126d957600080fd5b5051919050565b6000602082840312156126f257600080fd5b8151611b3d81612291565b601f821115610e4f576000816000526020600020601f850160051c810160208610156127265750805b601f850160051c820191505b8181101561274557828155600101612732565b505050505050565b815167ffffffffffffffff81111561276757612767612221565b61277b816127758454612631565b846126fd565b602080601f8311600181146127b057600084156127985750858301515b600019600386901b1c1916600185901b178555612745565b600085815260208120601f198616915b828110156127df578886015182559484019460019091019084016127c0565b50858210156127fd5787850151600019600388901b60f8161c191681555b5050505050600190811b01905550565b808201808211156106d0576106d0612665565b634e487b7160e01b600052603160045260246000fdfe52c63247e1f47db19d5ce0460030c497f067ca4cebf71ba98eeadabe20bace0002dd7bc7dec4dceedda775e58dd541e08a116c6c53815c0bd028192f7b626800cd5ed15c6e187e77e9aee88184c21f4f2182ab5827cb3b7e07fbedcd63f033009b779b17422d0df92223018b32b4d1fa46e071723d6817e2486d003becc55f00a2646970667358221220c64b899a477226708df1b661adcfa6341dad89b8f2abb28f562d9a5abfb17d1b64736f6c63430008180033",
  "linkReferences": {},
  "deployedLinkReferences": {}
}