{
  "_format": "hh-sol-artifact-1",
  "contractName": "InvestorV1",
  "sourceName": "contracts/Investor/InvestorV1.sol",
  "abi": [
    {
      "inputs": [
        {
          "internalType": "address",
          "name": "spender",
          "type": "address"
        },
        {
          "internalType": "uint256",
          "name": "allowance",
          "type": "uint256"
        },
        {
          "internalType": "uint256",
          "name": "needed",
          "type": "uint256"
        }
      ],
      "name": "ERC20InsufficientAllowance",
      "type": "error"
    },
    {
      "inputs": [
        {
          "internalType": "address",
          "name": "sender",
          "type": "address"
        },
        {
          "internalType": "uint256",
          "name": "balance",
          "type": "uint256"
        },
        {
          "internalType": "uint256",
          "name": "needed",
          "type": "uint256"
        }
      ],
      "name": "ERC20InsufficientBalance",
      "type": "error"
    },
    {
      "inputs": [
        {
          "internalType": "address",
          "name": "approver",
          "type": "address"
        }
      ],
      "name": "ERC20InvalidApprover",
      "type": "error"
    },
    {
      "inputs": [
        {
          "internalType": "address",
          "name": "receiver",
          "type": "address"
        }
      ],
      "name": "ERC20InvalidReceiver",
      "type": "error"
    },
    {
      "inputs": [
        {
          "internalType": "address",
          "name": "sender",
          "type": "address"
        }
      ],
      "name": "ERC20InvalidSender",
      "type": "error"
    },
    {
      "inputs": [
        {
          "internalType": "address",
          "name": "spender",
          "type": "address"
        }
      ],
      "name": "ERC20InvalidSpender",
      "type": "error"
    },
    {
      "inputs": [],
      "name": "EnforcedPause",
      "type": "error"
    },
    {
      "inputs": [],
      "name": "ExpectedPause",
      "type": "error"
    },
    {
      "inputs": [],
      "name": "InvalidInitialization",
      "type": "error"
    },
    {
      "inputs": [],
      "name": "NotInitializing",
      "type": "error"
    },
    {
      "inputs": [
        {
          "internalType": "address",
          "name": "owner",
          "type": "address"
        }
      ],
      "name": "OwnableInvalidOwner",
      "type": "error"
    },
    {
      "inputs": [
        {
          "internalType": "address",
          "name": "account",
          "type": "address"
        }
      ],
      "name": "OwnableUnauthorizedAccount",
      "type": "error"
    },
    {
      "inputs": [],
      "name": "ReentrancyGuardReentrantCall",
      "type": "error"
    },
    {
      "anonymous": false,
      "inputs": [
        {
          "indexed": true,
          "internalType": "address",
          "name": "owner",
          "type": "address"
        },
        {
          "indexed": true,
          "internalType": "address",
          "name": "spender",
          "type": "address"
        },
        {
          "indexed": false,
          "internalType": "uint256",
          "name": "value",
          "type": "uint256"
        }
      ],
      "name": "Approval",
      "type": "event"
    },
    {
      "anonymous": false,
      "inputs": [
        {
          "indexed": true,
          "internalType": "address",
          "name": "shareholder",
          "type": "address"
        },
        {
          "indexed": false,
          "internalType": "uint256",
          "name": "amount",
          "type": "uint256"
        }
      ],
      "name": "DividendDistributed",
      "type": "event"
    },
    {
      "anonymous": false,
      "inputs": [
        {
          "indexed": false,
          "internalType": "uint64",
          "name": "version",
          "type": "uint64"
        }
      ],
      "name": "Initialized",
      "type": "event"
    },
    {
      "anonymous": false,
      "inputs": [
        {
          "indexed": true,
          "internalType": "address",
          "name": "shareholder",
          "type": "address"
        },
        {
          "indexed": false,
          "internalType": "uint256",
          "name": "amount",
          "type": "uint256"
        }
      ],
      "name": "Minted",
      "type": "event"
    },
    {
      "anonymous": false,
      "inputs": [
        {
          "indexed": true,
          "internalType": "address",
          "name": "previousOwner",
          "type": "address"
        },
        {
          "indexed": true,
          "internalType": "address",
          "name": "newOwner",
          "type": "address"
        }
      ],
      "name": "OwnershipTransferred",
      "type": "event"
    },
    {
      "anonymous": false,
      "inputs": [
        {
          "indexed": false,
          "internalType": "address",
          "name": "account",
          "type": "address"
        }
      ],
      "name": "Paused",
      "type": "event"
    },
    {
      "anonymous": false,
      "inputs": [
        {
          "indexed": true,
          "internalType": "address",
          "name": "from",
          "type": "address"
        },
        {
          "indexed": true,
          "internalType": "address",
          "name": "to",
          "type": "address"
        },
        {
          "indexed": false,
          "internalType": "uint256",
          "name": "value",
          "type": "uint256"
        }
      ],
      "name": "Transfer",
      "type": "event"
    },
    {
      "anonymous": false,
      "inputs": [
        {
          "indexed": false,
          "internalType": "address",
          "name": "account",
          "type": "address"
        }
      ],
      "name": "Unpaused",
      "type": "event"
    },
    {
      "inputs": [
        {
          "internalType": "address",
          "name": "owner",
          "type": "address"
        },
        {
          "internalType": "address",
          "name": "spender",
          "type": "address"
        }
      ],
      "name": "allowance",
      "outputs": [
        {
          "internalType": "uint256",
          "name": "",
          "type": "uint256"
        }
      ],
      "stateMutability": "view",
      "type": "function"
    },
    {
      "inputs": [
        {
          "internalType": "address",
          "name": "spender",
          "type": "address"
        },
        {
          "internalType": "uint256",
          "name": "value",
          "type": "uint256"
        }
      ],
      "name": "approve",
      "outputs": [
        {
          "internalType": "bool",
          "name": "",
          "type": "bool"
        }
      ],
      "stateMutability": "nonpayable",
      "type": "function"
    },
    {
      "inputs": [
        {
          "internalType": "address",
          "name": "account",
          "type": "address"
        }
      ],
      "name": "balanceOf",
      "outputs": [
        {
          "internalType": "uint256",
          "name": "",
          "type": "uint256"
        }
      ],
      "stateMutability": "view",
      "type": "function"
    },
    {
      "inputs": [],
      "name": "decimals",
      "outputs": [
        {
          "internalType": "uint8",
          "name": "",
          "type": "uint8"
        }
      ],
      "stateMutability": "view",
      "type": "function"
    },
    {
      "inputs": [
        {
          "components": [
            {
              "internalType": "address",
              "name": "shareholder",
              "type": "address"
            },
            {
              "internalType": "uint256",
              "name": "amount",
              "type": "uint256"
            }
          ],
          "internalType": "struct InvestorV1.Shareholder[]",
          "name": "_shareholders",
          "type": "tuple[]"
        }
      ],
      "name": "distributeMint",
      "outputs": [],
      "stateMutability": "nonpayable",
      "type": "function"
    },
    {
      "inputs": [],
      "name": "getShareholders",
      "outputs": [
        {
          "components": [
            {
              "internalType": "address",
              "name": "shareholder",
              "type": "address"
            },
            {
              "internalType": "uint256",
              "name": "amount",
              "type": "uint256"
            }
          ],
          "internalType": "struct InvestorV1.Shareholder[]",
          "name": "",
          "type": "tuple[]"
        }
      ],
      "stateMutability": "view",
      "type": "function"
    },
    {
      "inputs": [
        {
          "internalType": "address",
          "name": "shareholder",
          "type": "address"
        },
        {
          "internalType": "uint256",
          "name": "amount",
          "type": "uint256"
        }
      ],
      "name": "individualMint",
      "outputs": [],
      "stateMutability": "nonpayable",
      "type": "function"
    },
    {
      "inputs": [
        {
          "internalType": "string",
          "name": "_name",
          "type": "string"
        },
        {
          "internalType": "string",
          "name": "_symbol",
          "type": "string"
        },
        {
          "internalType": "address",
          "name": "_owner",
          "type": "address"
        }
      ],
      "name": "initialize",
      "outputs": [],
      "stateMutability": "nonpayable",
      "type": "function"
    },
    {
      "inputs": [],
      "name": "name",
      "outputs": [
        {
          "internalType": "string",
          "name": "",
          "type": "string"
        }
      ],
      "stateMutability": "view",
      "type": "function"
    },
    {
      "inputs": [],
      "name": "owner",
      "outputs": [
        {
          "internalType": "address",
          "name": "",
          "type": "address"
        }
      ],
      "stateMutability": "view",
      "type": "function"
    },
    {
      "inputs": [],
      "name": "pause",
      "outputs": [],
      "stateMutability": "nonpayable",
      "type": "function"
    },
    {
      "inputs": [],
      "name": "paused",
      "outputs": [
        {
          "internalType": "bool",
          "name": "",
          "type": "bool"
        }
      ],
      "stateMutability": "view",
      "type": "function"
    },
    {
      "inputs": [],
      "name": "renounceOwnership",
      "outputs": [],
      "stateMutability": "nonpayable",
      "type": "function"
    },
    {
      "inputs": [],
      "name": "symbol",
      "outputs": [
        {
          "internalType": "string",
          "name": "",
          "type": "string"
        }
      ],
      "stateMutability": "view",
      "type": "function"
    },
    {
      "inputs": [],
      "name": "totalSupply",
      "outputs": [
        {
          "internalType": "uint256",
          "name": "",
          "type": "uint256"
        }
      ],
      "stateMutability": "view",
      "type": "function"
    },
    {
      "inputs": [
        {
          "internalType": "address",
          "name": "to",
          "type": "address"
        },
        {
          "internalType": "uint256",
          "name": "value",
          "type": "uint256"
        }
      ],
      "name": "transfer",
      "outputs": [
        {
          "internalType": "bool",
          "name": "",
          "type": "bool"
        }
      ],
      "stateMutability": "nonpayable",
      "type": "function"
    },
    {
      "inputs": [
        {
          "internalType": "address",
          "name": "from",
          "type": "address"
        },
        {
          "internalType": "address",
          "name": "to",
          "type": "address"
        },
        {
          "internalType": "uint256",
          "name": "value",
          "type": "uint256"
        }
      ],
      "name": "transferFrom",
      "outputs": [
        {
          "internalType": "bool",
          "name": "",
          "type": "bool"
        }
      ],
      "stateMutability": "nonpayable",
      "type": "function"
    },
    {
      "inputs": [
        {
          "internalType": "address",
          "name": "newOwner",
          "type": "address"
        }
      ],
      "name": "transferOwnership",
      "outputs": [],
      "stateMutability": "nonpayable",
      "type": "function"
    },
    {
      "inputs": [],
      "name": "unpause",
      "outputs": [],
      "stateMutability": "nonpayable",
      "type": "function"
    },
    {
      "stateMutability": "payable",
      "type": "receive"
    }
  ],
  "bytecode": "0x608060405234801561001057600080fd5b506119b2806100206000396000f3fe6080604052600436106101185760003560e01c80635c975abb116100a05780638da5cb5b116100645780638da5cb5b1461030757806395d89b411461034e578063a9059cbb14610363578063dd62ed3e14610383578063f2fde38b146103a357600080fd5b80635c975abb146102785780636b7747b31461029d57806370a08231146102bd578063715018a6146102dd5780638456cb59146102f257600080fd5b806318160ddd116100e757806318160ddd146101c757806323b872dd14610205578063313ce567146102255780633f4ba83a1461024157806341ca641e1461025657600080fd5b80630101c3e91461012c57806306fdde031461014c578063077f224a14610177578063095ea7b31461019757600080fd5b36610127576101256103c3565b005b600080fd5b34801561013857600080fd5b5061012561014736600461143e565b610556565b34801561015857600080fd5b50610161610619565b60405161016e9190611512565b60405180910390f35b34801561018357600080fd5b506101256101923660046115aa565b6106dc565b3480156101a357600080fd5b506101b76101b236600461162b565b61085f565b604051901515815260200161016e565b3480156101d357600080fd5b507f52c63247e1f47db19d5ce0460030c497f067ca4cebf71ba98eeadabe20bace02545b60405190815260200161016e565b34801561021157600080fd5b506101b7610220366004611655565b610879565b34801561023157600080fd5b506040516006815260200161016e565b34801561024d57600080fd5b5061012561089d565b34801561026257600080fd5b5061026b6108ad565b60405161016e9190611691565b34801561028457600080fd5b5060008051602061193d8339815191525460ff166101b7565b3480156102a957600080fd5b506101256102b836600461162b565b61098f565b3480156102c957600080fd5b506101f76102d83660046116e9565b610a0f565b3480156102e957600080fd5b50610125610a37565b3480156102fe57600080fd5b50610125610a49565b34801561031357600080fd5b507f9016d09d72d40fdae2fd8ceac6b6234c7706214fd39c1cd1e609a0528c199300546040516001600160a01b03909116815260200161016e565b34801561035a57600080fd5b50610161610a59565b34801561036f57600080fd5b506101b761037e36600461162b565b610a98565b34801561038f57600080fd5b506101f761039e366004611704565b610aa6565b3480156103af57600080fd5b506101256103be3660046116e9565b610af0565b6103cb610b2b565b60006103f57f52c63247e1f47db19d5ce0460030c497f067ca4cebf71ba98eeadabe20bace025490565b116104405760405162461bcd60e51b81526020600482015260166024820152754e6f206469766964656e647320617661696c61626c6560501b60448201526064015b60405180910390fd5b60005b61044d6000610b63565b81101561053c5760006104608183610b6d565b9050600061046d82610a0f565b9050801561053257600061049f7f52c63247e1f47db19d5ce0460030c497f067ca4cebf71ba98eeadabe20bace025490565b6104a9833461174d565b6104b39190611764565b6040519091506001600160a01b0384169082156108fc029083906000818181858888f193505050501580156104ec573d6000803e3d6000fd5b50826001600160a01b03167f84fcdd4a7f507f2206dd50958e7473061bf941f91791c6ffaf74033a07c82f128260405161052891815260200190565b60405180910390a2505b5050600101610443565b50610554600160008051602061195d83398151915255565b565b61055e610b94565b610566610bef565b61056e610b2b565b60005b81518110156105fe57600082828151811061058e5761058e611786565b602002602001015190506105aa81600001518260200151610c20565b80600001516001600160a01b03167f30385c845b448a36257a6a1716e6ad2e1bc2cbe333cde1e69fe849ad6511adfe82602001516040516105ed91815260200190565b60405180910390a250600101610571565b50610616600160008051602061195d83398151915255565b50565b7f52c63247e1f47db19d5ce0460030c497f067ca4cebf71ba98eeadabe20bace03805460609160008051602061191d833981519152916106589061179c565b80601f01602080910402602001604051908101604052809291908181526020018280546106849061179c565b80156106d15780601f106106a6576101008083540402835291602001916106d1565b820191906000526020600020905b8154815290600101906020018083116106b457829003601f168201915b505050505091505090565b60006106e6610c56565b805490915060ff600160401b820416159067ffffffffffffffff1660008115801561070e5750825b905060008267ffffffffffffffff16600114801561072b5750303b155b905081158015610739575080155b156107575760405163f92ee8a960e01b815260040160405180910390fd5b845467ffffffffffffffff19166001178555831561078157845460ff60401b1916600160401b1785555b6107f48a8a8080601f01602080910402602001604051908101604052809392919081815260200183838082843760009201919091525050604080516020601f8e018190048102820181019092528c815292508c91508b9081908401838280828437600092019190915250610c7f92505050565b6107fd86610c91565b610805610ca2565b61080d610cb2565b831561085357845460ff60401b19168555604051600181527fc7f505b2f371ae2175ee4913f4499e1f2633a7b5936321eed1cdaeb6115181d29060200160405180910390a15b50505050505050505050565b60003361086d818585610cba565b60019150505b92915050565b600033610887858285610ccc565b610892858585610d33565b506001949350505050565b6108a5610b94565b610554610d92565b606060006108bb6000610b63565b67ffffffffffffffff8111156108d3576108d36113b2565b60405190808252806020026020018201604052801561091857816020015b60408051808201909152600080825260208201528152602001906001900390816108f15790505b50905060005b6109286000610b63565b81101561098957600061093b8183610b6d565b90506040518060400160405280826001600160a01b0316815260200161096083610a0f565b81525083838151811061097557610975611786565b60209081029190910101525060010161091e565b50919050565b610997610b94565b61099f610bef565b6109a7610b2b565b6109b18282610c20565b816001600160a01b03167f30385c845b448a36257a6a1716e6ad2e1bc2cbe333cde1e69fe849ad6511adfe826040516109ec91815260200190565b60405180910390a2610a0b600160008051602061195d83398151915255565b5050565b6001600160a01b0316600090815260008051602061191d833981519152602052604090205490565b610a3f610b94565b6105546000610df2565b610a51610b94565b610554610e63565b7f52c63247e1f47db19d5ce0460030c497f067ca4cebf71ba98eeadabe20bace04805460609160008051602061191d833981519152916106589061179c565b60003361086d818585610d33565b6001600160a01b0391821660009081527f52c63247e1f47db19d5ce0460030c497f067ca4cebf71ba98eeadabe20bace016020908152604080832093909416825291909152205490565b610af8610b94565b6001600160a01b038116610b2257604051631e4fbdf760e01b815260006004820152602401610437565b61061681610df2565b60008051602061195d833981519152805460011901610b5d57604051633ee5aeb560e01b815260040160405180910390fd5b60029055565b6000610873825490565b6000610b798383610eac565b9392505050565b600160008051602061195d83398151915255565b33610bc67f9016d09d72d40fdae2fd8ceac6b6234c7706214fd39c1cd1e609a0528c199300546001600160a01b031690565b6001600160a01b0316146105545760405163118cdaa760e01b8152336004820152602401610437565b60008051602061193d8339815191525460ff16156105545760405163d93c066560e01b815260040160405180910390fd5b6001600160a01b038216610c4a5760405163ec442f0560e01b815260006004820152602401610437565b610a0b60008383610ed6565b6000807ff0c57e16840df040f15088dc2f81fe391c3923bec73e23a9662efc9c229c6a00610873565b610c87610f2e565b610a0b8282610f53565b610c99610f2e565b61061681610fa4565b610caa610f2e565b610554610fac565b610554610f2e565b610cc78383836001610fb4565b505050565b6000610cd88484610aa6565b9050600019811015610d2d5781811015610d1e57604051637dc7a0d960e11b81526001600160a01b03841660048201526024810182905260448101839052606401610437565b610d2d84848484036000610fb4565b50505050565b6001600160a01b038316610d5d57604051634b637e8f60e11b815260006004820152602401610437565b6001600160a01b038216610d875760405163ec442f0560e01b815260006004820152602401610437565b610cc7838383610ed6565b610d9a61109c565b60008051602061193d833981519152805460ff191681557f5db9ee0a495bf2e6ff9c91a7834c1ba4fdd244a5e8aa4e537bd38aeae4b073aa335b6040516001600160a01b03909116815260200160405180910390a150565b7f9016d09d72d40fdae2fd8ceac6b6234c7706214fd39c1cd1e609a0528c19930080546001600160a01b031981166001600160a01b03848116918217845560405192169182907f8be0079c531659141344cd1fd0a4f28419497f9722a3daafe3b4186f6b6457e090600090a3505050565b610e6b610bef565b60008051602061193d833981519152805460ff191660011781557f62e78cea01bee320cd4e420270b5ea74000d11b0c9f74754ebdbfc544b05a25833610dd4565b6000826000018281548110610ec357610ec3611786565b9060005260206000200154905092915050565b610ee18383836110cc565b610eea83610a0f565b600003610efe57610efc60008461120a565b505b6000610f0983610a0f565b118015610f1e5750610f1c60008361121f565b155b15610cc757610d2d600083611241565b610f36611256565b61055457604051631afcd79f60e31b815260040160405180910390fd5b610f5b610f2e565b60008051602061191d8339815191527f52c63247e1f47db19d5ce0460030c497f067ca4cebf71ba98eeadabe20bace03610f958482611820565b5060048101610d2d8382611820565b610af8610f2e565b610b80610f2e565b60008051602061191d8339815191526001600160a01b038516610fed5760405163e602df0560e01b815260006004820152602401610437565b6001600160a01b03841661101757604051634a1406b160e11b815260006004820152602401610437565b6001600160a01b0380861660009081526001830160209081526040808320938816835292905220839055811561109557836001600160a01b0316856001600160a01b03167f8c5be1e5ebec7d5bd14f71427d1e84f3dd0314c0f7b2291e5b200ac8c7c3b9258560405161108c91815260200190565b60405180910390a35b5050505050565b60008051602061193d8339815191525460ff1661055457604051638dfc202b60e01b815260040160405180910390fd5b60008051602061191d8339815191526001600160a01b03841661110857818160020160008282546110fd91906118e0565b9091555061117a9050565b6001600160a01b0384166000908152602082905260409020548281101561115b5760405163391434e360e21b81526001600160a01b03861660048201526024810182905260448101849052606401610437565b6001600160a01b03851660009081526020839052604090209083900390555b6001600160a01b0383166111985760028101805483900390556111b7565b6001600160a01b03831660009081526020829052604090208054830190555b826001600160a01b0316846001600160a01b03167fddf252ad1be2c89b69c2b068fc378daa952ba7f163c4a11628f55a4df523b3ef846040516111fc91815260200190565b60405180910390a350505050565b6000610b79836001600160a01b038416611270565b6001600160a01b03811660009081526001830160205260408120541515610b79565b6000610b79836001600160a01b038416611363565b6000611260610c56565b54600160401b900460ff16919050565b600081815260018301602052604081205480156113595760006112946001836118f3565b85549091506000906112a8906001906118f3565b905080821461130d5760008660000182815481106112c8576112c8611786565b90600052602060002001549050808760000184815481106112eb576112eb611786565b6000918252602080832090910192909255918252600188019052604090208390555b855486908061131e5761131e611906565b600190038181906000526020600020016000905590558560010160008681526020019081526020016000206000905560019350505050610873565b6000915050610873565b60008181526001830160205260408120546113aa57508154600181810184556000848152602080822090930184905584548482528286019093526040902091909155610873565b506000610873565b634e487b7160e01b600052604160045260246000fd5b6040805190810167ffffffffffffffff811182821017156113eb576113eb6113b2565b60405290565b604051601f8201601f1916810167ffffffffffffffff8111828210171561141a5761141a6113b2565b604052919050565b80356001600160a01b038116811461143957600080fd5b919050565b6000602080838503121561145157600080fd5b823567ffffffffffffffff8082111561146957600080fd5b818501915085601f83011261147d57600080fd5b81358181111561148f5761148f6113b2565b61149d848260051b016113f1565b818152848101925060069190911b8301840190878211156114bd57600080fd5b928401925b8184101561150757604084890312156114db5760008081fd5b6114e36113c8565b6114ec85611422565b815284860135868201528352604090930192918401916114c2565b979650505050505050565b60006020808352835180602085015260005b8181101561154057858101830151858201604001528201611524565b506000604082860101526040601f19601f8301168501019250505092915050565b60008083601f84011261157357600080fd5b50813567ffffffffffffffff81111561158b57600080fd5b6020830191508360208285010111156115a357600080fd5b9250929050565b6000806000806000606086880312156115c257600080fd5b853567ffffffffffffffff808211156115da57600080fd5b6115e689838a01611561565b909750955060208801359150808211156115ff57600080fd5b5061160c88828901611561565b909450925061161f905060408701611422565b90509295509295909350565b6000806040838503121561163e57600080fd5b61164783611422565b946020939093013593505050565b60008060006060848603121561166a57600080fd5b61167384611422565b925061168160208501611422565b9150604084013590509250925092565b602080825282518282018190526000919060409081850190868401855b828110156116dc57815180516001600160a01b031685528601518685015292840192908501906001016116ae565b5091979650505050505050565b6000602082840312156116fb57600080fd5b610b7982611422565b6000806040838503121561171757600080fd5b61172083611422565b915061172e60208401611422565b90509250929050565b634e487b7160e01b600052601160045260246000fd5b808202811582820484141761087357610873611737565b60008261178157634e487b7160e01b600052601260045260246000fd5b500490565b634e487b7160e01b600052603260045260246000fd5b600181811c908216806117b057607f821691505b60208210810361098957634e487b7160e01b600052602260045260246000fd5b601f821115610cc7576000816000526020600020601f850160051c810160208610156117f95750805b601f850160051c820191505b8181101561181857828155600101611805565b505050505050565b815167ffffffffffffffff81111561183a5761183a6113b2565b61184e81611848845461179c565b846117d0565b602080601f831160018114611883576000841561186b5750858301515b600019600386901b1c1916600185901b178555611818565b600085815260208120601f198616915b828110156118b257888601518255948401946001909101908401611893565b50858210156118d05787850151600019600388901b60f8161c191681555b5050505050600190811b01905550565b8082018082111561087357610873611737565b8181038181111561087357610873611737565b634e487b7160e01b600052603160045260246000fdfe52c63247e1f47db19d5ce0460030c497f067ca4cebf71ba98eeadabe20bace00cd5ed15c6e187e77e9aee88184c21f4f2182ab5827cb3b7e07fbedcd63f033009b779b17422d0df92223018b32b4d1fa46e071723d6817e2486d003becc55f00a26469706673582212202c441c43949aca8a10f951233d508fa13d381b8902cb67e0349d55cc05627ac864736f6c63430008180033",
  "linkReferences": {},
  "deployedLinkReferences": {}
}