{
  "_format": "hh-sol-artifact-1",
  "contractName": "InvestorV1",
  "sourceName": "contracts/Investor/InvestorV1.sol",
  "abi": [
    {
      "inputs": [],
      "name": "AccessControlBadConfirmation",
      "type": "error"
    },
    {
      "inputs": [
        {
          "internalType": "address",
          "name": "account",
          "type": "address"
        },
        {
          "internalType": "bytes32",
          "name": "neededRole",
          "type": "bytes32"
        }
      ],
      "name": "AccessControlUnauthorizedAccount",
      "type": "error"
    },
    {
      "inputs": [
        {
          "internalType": "address",
          "name": "spender",
          "type": "address"
        },
        {
          "internalType": "uint256",
          "name": "allowance",
          "type": "uint256"
        },
        {
          "internalType": "uint256",
          "name": "needed",
          "type": "uint256"
        }
      ],
      "name": "ERC20InsufficientAllowance",
      "type": "error"
    },
    {
      "inputs": [
        {
          "internalType": "address",
          "name": "sender",
          "type": "address"
        },
        {
          "internalType": "uint256",
          "name": "balance",
          "type": "uint256"
        },
        {
          "internalType": "uint256",
          "name": "needed",
          "type": "uint256"
        }
      ],
      "name": "ERC20InsufficientBalance",
      "type": "error"
    },
    {
      "inputs": [
        {
          "internalType": "address",
          "name": "approver",
          "type": "address"
        }
      ],
      "name": "ERC20InvalidApprover",
      "type": "error"
    },
    {
      "inputs": [
        {
          "internalType": "address",
          "name": "receiver",
          "type": "address"
        }
      ],
      "name": "ERC20InvalidReceiver",
      "type": "error"
    },
    {
      "inputs": [
        {
          "internalType": "address",
          "name": "sender",
          "type": "address"
        }
      ],
      "name": "ERC20InvalidSender",
      "type": "error"
    },
    {
      "inputs": [
        {
          "internalType": "address",
          "name": "spender",
          "type": "address"
        }
      ],
      "name": "ERC20InvalidSpender",
      "type": "error"
    },
    {
      "inputs": [],
      "name": "EnforcedPause",
      "type": "error"
    },
    {
      "inputs": [],
      "name": "ExpectedPause",
      "type": "error"
    },
    {
      "inputs": [],
      "name": "InvalidInitialization",
      "type": "error"
    },
    {
      "inputs": [],
      "name": "NotInitializing",
      "type": "error"
    },
    {
      "inputs": [
        {
          "internalType": "address",
          "name": "owner",
          "type": "address"
        }
      ],
      "name": "OwnableInvalidOwner",
      "type": "error"
    },
    {
      "inputs": [
        {
          "internalType": "address",
          "name": "account",
          "type": "address"
        }
      ],
      "name": "OwnableUnauthorizedAccount",
      "type": "error"
    },
    {
      "inputs": [],
      "name": "ReentrancyGuardReentrantCall",
      "type": "error"
    },
    {
      "anonymous": false,
      "inputs": [
        {
          "indexed": true,
          "internalType": "address",
          "name": "owner",
          "type": "address"
        },
        {
          "indexed": true,
          "internalType": "address",
          "name": "spender",
          "type": "address"
        },
        {
          "indexed": false,
          "internalType": "uint256",
          "name": "value",
          "type": "uint256"
        }
      ],
      "name": "Approval",
      "type": "event"
    },
    {
      "anonymous": false,
      "inputs": [
        {
          "indexed": true,
          "internalType": "address",
          "name": "shareholder",
          "type": "address"
        },
        {
          "indexed": false,
          "internalType": "uint256",
          "name": "amount",
          "type": "uint256"
        }
      ],
      "name": "DividendDistributed",
      "type": "event"
    },
    {
      "anonymous": false,
      "inputs": [
        {
          "indexed": true,
          "internalType": "address",
          "name": "shareholder",
          "type": "address"
        },
        {
          "indexed": false,
          "internalType": "uint256",
          "name": "amount",
          "type": "uint256"
        }
      ],
      "name": "DividendFailed",
      "type": "event"
    },
    {
      "anonymous": false,
      "inputs": [
        {
          "indexed": false,
          "internalType": "uint64",
          "name": "version",
          "type": "uint64"
        }
      ],
      "name": "Initialized",
      "type": "event"
    },
    {
      "anonymous": false,
      "inputs": [
        {
          "indexed": true,
          "internalType": "address",
          "name": "shareholder",
          "type": "address"
        },
        {
          "indexed": false,
          "internalType": "uint256",
          "name": "amount",
          "type": "uint256"
        }
      ],
      "name": "Minted",
      "type": "event"
    },
    {
      "anonymous": false,
      "inputs": [
        {
          "indexed": true,
          "internalType": "address",
          "name": "previousOwner",
          "type": "address"
        },
        {
          "indexed": true,
          "internalType": "address",
          "name": "newOwner",
          "type": "address"
        }
      ],
      "name": "OwnershipTransferred",
      "type": "event"
    },
    {
      "anonymous": false,
      "inputs": [
        {
          "indexed": false,
          "internalType": "address",
          "name": "account",
          "type": "address"
        }
      ],
      "name": "Paused",
      "type": "event"
    },
    {
      "anonymous": false,
      "inputs": [
        {
          "indexed": true,
          "internalType": "bytes32",
          "name": "role",
          "type": "bytes32"
        },
        {
          "indexed": true,
          "internalType": "bytes32",
          "name": "previousAdminRole",
          "type": "bytes32"
        },
        {
          "indexed": true,
          "internalType": "bytes32",
          "name": "newAdminRole",
          "type": "bytes32"
        }
      ],
      "name": "RoleAdminChanged",
      "type": "event"
    },
    {
      "anonymous": false,
      "inputs": [
        {
          "indexed": true,
          "internalType": "bytes32",
          "name": "role",
          "type": "bytes32"
        },
        {
          "indexed": true,
          "internalType": "address",
          "name": "account",
          "type": "address"
        },
        {
          "indexed": true,
          "internalType": "address",
          "name": "sender",
          "type": "address"
        }
      ],
      "name": "RoleGranted",
      "type": "event"
    },
    {
      "anonymous": false,
      "inputs": [
        {
          "indexed": true,
          "internalType": "bytes32",
          "name": "role",
          "type": "bytes32"
        },
        {
          "indexed": true,
          "internalType": "address",
          "name": "account",
          "type": "address"
        },
        {
          "indexed": true,
          "internalType": "address",
          "name": "sender",
          "type": "address"
        }
      ],
      "name": "RoleRevoked",
      "type": "event"
    },
    {
      "anonymous": false,
      "inputs": [
        {
          "indexed": true,
          "internalType": "address",
          "name": "from",
          "type": "address"
        },
        {
          "indexed": true,
          "internalType": "address",
          "name": "to",
          "type": "address"
        },
        {
          "indexed": false,
          "internalType": "uint256",
          "name": "value",
          "type": "uint256"
        }
      ],
      "name": "Transfer",
      "type": "event"
    },
    {
      "anonymous": false,
      "inputs": [
        {
          "indexed": false,
          "internalType": "address",
          "name": "account",
          "type": "address"
        }
      ],
      "name": "Unpaused",
      "type": "event"
    },
    {
      "inputs": [],
      "name": "DEFAULT_ADMIN_ROLE",
      "outputs": [
        {
          "internalType": "bytes32",
          "name": "",
          "type": "bytes32"
        }
      ],
      "stateMutability": "view",
      "type": "function"
    },
    {
      "inputs": [],
      "name": "MINTER_ROLE",
      "outputs": [
        {
          "internalType": "bytes32",
          "name": "",
          "type": "bytes32"
        }
      ],
      "stateMutability": "view",
      "type": "function"
    },
    {
      "inputs": [
        {
          "internalType": "address",
          "name": "owner",
          "type": "address"
        },
        {
          "internalType": "address",
          "name": "spender",
          "type": "address"
        }
      ],
      "name": "allowance",
      "outputs": [
        {
          "internalType": "uint256",
          "name": "",
          "type": "uint256"
        }
      ],
      "stateMutability": "view",
      "type": "function"
    },
    {
      "inputs": [
        {
          "internalType": "address",
          "name": "spender",
          "type": "address"
        },
        {
          "internalType": "uint256",
          "name": "value",
          "type": "uint256"
        }
      ],
      "name": "approve",
      "outputs": [
        {
          "internalType": "bool",
          "name": "",
          "type": "bool"
        }
      ],
      "stateMutability": "nonpayable",
      "type": "function"
    },
    {
      "inputs": [
        {
          "internalType": "address",
          "name": "account",
          "type": "address"
        }
      ],
      "name": "balanceOf",
      "outputs": [
        {
          "internalType": "uint256",
          "name": "",
          "type": "uint256"
        }
      ],
      "stateMutability": "view",
      "type": "function"
    },
    {
      "inputs": [],
      "name": "decimals",
      "outputs": [
        {
          "internalType": "uint8",
          "name": "",
          "type": "uint8"
        }
      ],
      "stateMutability": "view",
      "type": "function"
    },
    {
      "inputs": [
        {
          "components": [
            {
              "internalType": "address",
              "name": "shareholder",
              "type": "address"
            },
            {
              "internalType": "uint256",
              "name": "amount",
              "type": "uint256"
            }
          ],
          "internalType": "struct InvestorV1.Shareholder[]",
          "name": "_shareholders",
          "type": "tuple[]"
        }
      ],
      "name": "distributeMint",
      "outputs": [],
      "stateMutability": "nonpayable",
      "type": "function"
    },
    {
      "inputs": [
        {
          "internalType": "bytes32",
          "name": "role",
          "type": "bytes32"
        }
      ],
      "name": "getRoleAdmin",
      "outputs": [
        {
          "internalType": "bytes32",
          "name": "",
          "type": "bytes32"
        }
      ],
      "stateMutability": "view",
      "type": "function"
    },
    {
      "inputs": [],
      "name": "getShareholders",
      "outputs": [
        {
          "components": [
            {
              "internalType": "address",
              "name": "shareholder",
              "type": "address"
            },
            {
              "internalType": "uint256",
              "name": "amount",
              "type": "uint256"
            }
          ],
          "internalType": "struct InvestorV1.Shareholder[]",
          "name": "",
          "type": "tuple[]"
        }
      ],
      "stateMutability": "view",
      "type": "function"
    },
    {
      "inputs": [
        {
          "internalType": "bytes32",
          "name": "role",
          "type": "bytes32"
        },
        {
          "internalType": "address",
          "name": "account",
          "type": "address"
        }
      ],
      "name": "grantRole",
      "outputs": [],
      "stateMutability": "nonpayable",
      "type": "function"
    },
    {
      "inputs": [
        {
          "internalType": "bytes32",
          "name": "role",
          "type": "bytes32"
        },
        {
          "internalType": "address",
          "name": "account",
          "type": "address"
        }
      ],
      "name": "hasRole",
      "outputs": [
        {
          "internalType": "bool",
          "name": "",
          "type": "bool"
        }
      ],
      "stateMutability": "view",
      "type": "function"
    },
    {
      "inputs": [
        {
          "internalType": "address",
          "name": "shareholder",
          "type": "address"
        },
        {
          "internalType": "uint256",
          "name": "amount",
          "type": "uint256"
        }
      ],
      "name": "individualMint",
      "outputs": [],
      "stateMutability": "nonpayable",
      "type": "function"
    },
    {
      "inputs": [
        {
          "internalType": "string",
          "name": "_name",
          "type": "string"
        },
        {
          "internalType": "string",
          "name": "_symbol",
          "type": "string"
        },
        {
          "internalType": "address",
          "name": "_owner",
          "type": "address"
        }
      ],
      "name": "initialize",
      "outputs": [],
      "stateMutability": "nonpayable",
      "type": "function"
    },
    {
      "inputs": [],
      "name": "name",
      "outputs": [
        {
          "internalType": "string",
          "name": "",
          "type": "string"
        }
      ],
      "stateMutability": "view",
      "type": "function"
    },
    {
      "inputs": [],
      "name": "owner",
      "outputs": [
        {
          "internalType": "address",
          "name": "",
          "type": "address"
        }
      ],
      "stateMutability": "view",
      "type": "function"
    },
    {
      "inputs": [],
      "name": "pause",
      "outputs": [],
      "stateMutability": "nonpayable",
      "type": "function"
    },
    {
      "inputs": [],
      "name": "paused",
      "outputs": [
        {
          "internalType": "bool",
          "name": "",
          "type": "bool"
        }
      ],
      "stateMutability": "view",
      "type": "function"
    },
    {
      "inputs": [],
      "name": "renounceOwnership",
      "outputs": [],
      "stateMutability": "nonpayable",
      "type": "function"
    },
    {
      "inputs": [
        {
          "internalType": "bytes32",
          "name": "role",
          "type": "bytes32"
        },
        {
          "internalType": "address",
          "name": "callerConfirmation",
          "type": "address"
        }
      ],
      "name": "renounceRole",
      "outputs": [],
      "stateMutability": "nonpayable",
      "type": "function"
    },
    {
      "inputs": [
        {
          "internalType": "bytes32",
          "name": "role",
          "type": "bytes32"
        },
        {
          "internalType": "address",
          "name": "account",
          "type": "address"
        }
      ],
      "name": "revokeRole",
      "outputs": [],
      "stateMutability": "nonpayable",
      "type": "function"
    },
    {
      "inputs": [
        {
          "internalType": "bytes4",
          "name": "interfaceId",
          "type": "bytes4"
        }
      ],
      "name": "supportsInterface",
      "outputs": [
        {
          "internalType": "bool",
          "name": "",
          "type": "bool"
        }
      ],
      "stateMutability": "view",
      "type": "function"
    },
    {
      "inputs": [],
      "name": "symbol",
      "outputs": [
        {
          "internalType": "string",
          "name": "",
          "type": "string"
        }
      ],
      "stateMutability": "view",
      "type": "function"
    },
    {
      "inputs": [],
      "name": "totalSupply",
      "outputs": [
        {
          "internalType": "uint256",
          "name": "",
          "type": "uint256"
        }
      ],
      "stateMutability": "view",
      "type": "function"
    },
    {
      "inputs": [
        {
          "internalType": "address",
          "name": "to",
          "type": "address"
        },
        {
          "internalType": "uint256",
          "name": "value",
          "type": "uint256"
        }
      ],
      "name": "transfer",
      "outputs": [
        {
          "internalType": "bool",
          "name": "",
          "type": "bool"
        }
      ],
      "stateMutability": "nonpayable",
      "type": "function"
    },
    {
      "inputs": [
        {
          "internalType": "address",
          "name": "from",
          "type": "address"
        },
        {
          "internalType": "address",
          "name": "to",
          "type": "address"
        },
        {
          "internalType": "uint256",
          "name": "value",
          "type": "uint256"
        }
      ],
      "name": "transferFrom",
      "outputs": [
        {
          "internalType": "bool",
          "name": "",
          "type": "bool"
        }
      ],
      "stateMutability": "nonpayable",
      "type": "function"
    },
    {
      "inputs": [
        {
          "internalType": "address",
          "name": "newOwner",
          "type": "address"
        }
      ],
      "name": "transferOwnership",
      "outputs": [],
      "stateMutability": "nonpayable",
      "type": "function"
    },
    {
      "inputs": [],
      "name": "unpause",
      "outputs": [],
      "stateMutability": "nonpayable",
      "type": "function"
    },
    {
      "stateMutability": "payable",
      "type": "receive"
    }
  ],
  "bytecode": "0x608060405234801561001057600080fd5b50611f26806100206000396000f3fe6080604052600436106101a05760003560e01c80635c975abb116100ec57806395d89b411161008a578063d539139311610064578063d5391393146104bc578063d547741f146104f0578063dd62ed3e14610510578063f2fde38b1461053057600080fd5b806395d89b4114610472578063a217fddf14610487578063a9059cbb1461049c57600080fd5b8063715018a6116100c6578063715018a6146103e15780638456cb59146103f65780638da5cb5b1461040b57806391d148541461045257600080fd5b80635c975abb1461037c5780636b7747b3146103a157806370a08231146103c157600080fd5b806323b872dd11610159578063313ce56711610133578063313ce5671461030957806336568abe146103255780633f4ba83a1461034557806341ca641e1461035a57600080fd5b806323b872dd146102a9578063248a9ca3146102c95780632f2ff15d146102e957600080fd5b80630101c3e9146101b457806301ffc9a7146101d457806306fdde0314610209578063077f224a1461022b578063095ea7b31461024b57806318160ddd1461026b57600080fd5b366101af576101ad610550565b005b600080fd5b3480156101c057600080fd5b506101ad6101cf36600461192c565b610751565b3480156101e057600080fd5b506101f46101ef366004611a00565b610814565b60405190151581526020015b60405180910390f35b34801561021557600080fd5b5061021e61084b565b6040516102009190611a2a565b34801561023757600080fd5b506101ad610246366004611ac2565b61090e565b34801561025757600080fd5b506101f4610266366004611b43565b610b05565b34801561027757600080fd5b507f52c63247e1f47db19d5ce0460030c497f067ca4cebf71ba98eeadabe20bace02545b604051908152602001610200565b3480156102b557600080fd5b506101f46102c4366004611b6d565b610b1d565b3480156102d557600080fd5b5061029b6102e4366004611ba9565b610b41565b3480156102f557600080fd5b506101ad610304366004611bc2565b610b63565b34801561031557600080fd5b5060405160068152602001610200565b34801561033157600080fd5b506101ad610340366004611bc2565b610b85565b34801561035157600080fd5b506101ad610bbd565b34801561036657600080fd5b5061036f610bcd565b6040516102009190611bee565b34801561038857600080fd5b50600080516020611eb18339815191525460ff166101f4565b3480156103ad57600080fd5b506101ad6103bc366004611b43565b610caf565b3480156103cd57600080fd5b5061029b6103dc366004611c46565b610d4d565b3480156103ed57600080fd5b506101ad610d75565b34801561040257600080fd5b506101ad610d87565b34801561041757600080fd5b507f9016d09d72d40fdae2fd8ceac6b6234c7706214fd39c1cd1e609a0528c199300546040516001600160a01b039091168152602001610200565b34801561045e57600080fd5b506101f461046d366004611bc2565b610d97565b34801561047e57600080fd5b5061021e610dcf565b34801561049357600080fd5b5061029b600081565b3480156104a857600080fd5b506101f46104b7366004611b43565b610e0e565b3480156104c857600080fd5b5061029b7f9f2df0fed2c77648de5860a4cc508cd0818c85b8b8a1ab4ceeef8d981c8956a681565b3480156104fc57600080fd5b506101ad61050b366004611bc2565b610e1c565b34801561051c57600080fd5b5061029b61052b366004611c61565b610e38565b34801561053c57600080fd5b506101ad61054b366004611c46565b610e82565b610558610ebd565b60006105827f52c63247e1f47db19d5ce0460030c497f067ca4cebf71ba98eeadabe20bace025490565b116105cd5760405162461bcd60e51b81526020600482015260166024820152754e6f206469766964656e647320617661696c61626c6560501b60448201526064015b60405180910390fd5b60005b6105da6000610ef5565b8110156107375760006105ed8183610eff565b905060006105fa82610d4d565b9050801561072d57600061062c7f52c63247e1f47db19d5ce0460030c497f067ca4cebf71ba98eeadabe20bace025490565b6106368334611ca1565b6106409190611cb8565b90506000836001600160a01b03168260405160006040518083038185875af1925050503d806000811461068f576040519150601f19603f3d011682016040523d82523d6000602084013e610694565b606091505b5050905080156106e657836001600160a01b03167f84fcdd4a7f507f2206dd50958e7473061bf941f91791c6ffaf74033a07c82f12836040516106d991815260200190565b60405180910390a261072a565b836001600160a01b03167f5b39b26ceb1db10ef2a699a52de75b0b8cd911da74d9ea103546f63b0f6f346c8360405161072191815260200190565b60405180910390a25b50505b50506001016105d0565b5061074f6001600080516020611ed183398151915255565b565b610759610f26565b610761610f81565b610769610ebd565b60005b81518110156107f957600082828151811061078957610789611cda565b602002602001015190506107a581600001518260200151610fb2565b80600001516001600160a01b03167f30385c845b448a36257a6a1716e6ad2e1bc2cbe333cde1e69fe849ad6511adfe82602001516040516107e891815260200190565b60405180910390a25060010161076c565b506108116001600080516020611ed183398151915255565b50565b60006001600160e01b03198216637965db0b60e01b148061084557506301ffc9a760e01b6001600160e01b03198316145b92915050565b7f52c63247e1f47db19d5ce0460030c497f067ca4cebf71ba98eeadabe20bace038054606091600080516020611e718339815191529161088a90611cf0565b80601f01602080910402602001604051908101604052809291908181526020018280546108b690611cf0565b80156109035780601f106108d857610100808354040283529160200191610903565b820191906000526020600020905b8154815290600101906020018083116108e657829003601f168201915b505050505091505090565b7ff0c57e16840df040f15088dc2f81fe391c3923bec73e23a9662efc9c229c6a008054600160401b810460ff16159067ffffffffffffffff166000811580156109545750825b905060008267ffffffffffffffff1660011480156109715750303b155b90508115801561097f575080155b1561099d5760405163f92ee8a960e01b815260040160405180910390fd5b845467ffffffffffffffff1916600117855583156109c757845460ff60401b1916600160401b1785555b610a3a8a8a8080601f01602080910402602001604051908101604052809392919081815260200183838082843760009201919091525050604080516020601f8e018190048102820181019092528c815292508c91508b9081908401838280828437600092019190915250610fec92505050565b6001600160a01b038616610a6257610a5133610ffe565b610a5c60003361100f565b50610aa3565b610a6b86610ffe565b610a7660008761100f565b50610aa17f9f2df0fed2c77648de5860a4cc508cd0818c85b8b8a1ab4ceeef8d981c8956a68761100f565b505b610aab6110b4565b610ab36110c4565b8315610af957845460ff60401b19168555604051600181527fc7f505b2f371ae2175ee4913f4499e1f2633a7b5936321eed1cdaeb6115181d29060200160405180910390a15b50505050505050505050565b600033610b138185856110d4565b5060019392505050565b600033610b2b8582856110e1565b610b36858585611141565b506001949350505050565b6000908152600080516020611e91833981519152602052604090206001015490565b610b6c82610b41565b610b75816111a0565b610b7f838361100f565b50505050565b6001600160a01b0381163314610bae5760405163334bd91960e11b815260040160405180910390fd5b610bb882826111aa565b505050565b610bc5610f26565b61074f611226565b60606000610bdb6000610ef5565b67ffffffffffffffff811115610bf357610bf36118a0565b604051908082528060200260200182016040528015610c3857816020015b6040805180820190915260008082526020820152815260200190600190039081610c115790505b50905060005b610c486000610ef5565b811015610ca9576000610c5b8183610eff565b90506040518060400160405280826001600160a01b03168152602001610c8083610d4d565b815250838381518110610c9557610c95611cda565b602090810291909101015250600101610c3e565b50919050565b7f9f2df0fed2c77648de5860a4cc508cd0818c85b8b8a1ab4ceeef8d981c8956a6610cd9816111a0565b610ce1610f81565b610ce9610ebd565b610cf38383610fb2565b826001600160a01b03167f30385c845b448a36257a6a1716e6ad2e1bc2cbe333cde1e69fe849ad6511adfe83604051610d2e91815260200190565b60405180910390a2610bb86001600080516020611ed183398151915255565b6001600160a01b03166000908152600080516020611e71833981519152602052604090205490565b610d7d610f26565b61074f6000611286565b610d8f610f26565b61074f6112f7565b6000918252600080516020611e91833981519152602090815260408084206001600160a01b0393909316845291905290205460ff1690565b7f52c63247e1f47db19d5ce0460030c497f067ca4cebf71ba98eeadabe20bace048054606091600080516020611e718339815191529161088a90611cf0565b600033610b13818585611141565b610e2582610b41565b610e2e816111a0565b610b7f83836111aa565b6001600160a01b0391821660009081527f52c63247e1f47db19d5ce0460030c497f067ca4cebf71ba98eeadabe20bace016020908152604080832093909416825291909152205490565b610e8a610f26565b6001600160a01b038116610eb457604051631e4fbdf760e01b8152600060048201526024016105c4565b61081181611286565b600080516020611ed1833981519152805460011901610eef57604051633ee5aeb560e01b815260040160405180910390fd5b60029055565b6000610845825490565b6000610f0b8383611340565b9392505050565b6001600080516020611ed183398151915255565b33610f587f9016d09d72d40fdae2fd8ceac6b6234c7706214fd39c1cd1e609a0528c199300546001600160a01b031690565b6001600160a01b03161461074f5760405163118cdaa760e01b81523360048201526024016105c4565b600080516020611eb18339815191525460ff161561074f5760405163d93c066560e01b815260040160405180910390fd5b6001600160a01b038216610fdc5760405163ec442f0560e01b8152600060048201526024016105c4565b610fe86000838361136a565b5050565b610ff46113c2565b610fe8828261140b565b6110066113c2565b6108118161145c565b6000600080516020611e9183398151915261102a8484610d97565b6110aa576000848152602082815260408083206001600160a01b03871684529091529020805460ff191660011790556110603390565b6001600160a01b0316836001600160a01b0316857f2f8788117e7eff1d82e926ec794901d17c78024a50270940304540a733656f0d60405160405180910390a46001915050610845565b6000915050610845565b6110bc6113c2565b61074f611464565b6110cc6113c2565b61074f61146c565b610bb8838383600161148d565b60006110ed8484610e38565b90506000198114610b7f578181101561113257604051637dc7a0d960e11b81526001600160a01b038416600482015260248101829052604481018390526064016105c4565b610b7f8484848403600061148d565b6001600160a01b03831661116b57604051634b637e8f60e11b8152600060048201526024016105c4565b6001600160a01b0382166111955760405163ec442f0560e01b8152600060048201526024016105c4565b610bb883838361136a565b6108118133611575565b6000600080516020611e918339815191526111c58484610d97565b156110aa576000848152602082815260408083206001600160a01b0387168085529252808320805460ff1916905551339287917ff6391f5c32d9c69d2a47ea670b442974b53935d1edc7fd64eb21e047a839171b9190a46001915050610845565b61122e6115ae565b600080516020611eb1833981519152805460ff191681557f5db9ee0a495bf2e6ff9c91a7834c1ba4fdd244a5e8aa4e537bd38aeae4b073aa335b6040516001600160a01b03909116815260200160405180910390a150565b7f9016d09d72d40fdae2fd8ceac6b6234c7706214fd39c1cd1e609a0528c19930080546001600160a01b031981166001600160a01b03848116918217845560405192169182907f8be0079c531659141344cd1fd0a4f28419497f9722a3daafe3b4186f6b6457e090600090a3505050565b6112ff610f81565b600080516020611eb1833981519152805460ff191660011781557f62e78cea01bee320cd4e420270b5ea74000d11b0c9f74754ebdbfc544b05a25833611268565b600082600001828154811061135757611357611cda565b9060005260206000200154905092915050565b6113758383836115de565b61137e83610d4d565b6000036113925761139060008461171c565b505b600061139d83610d4d565b1180156113b257506113b0600083611731565b155b15610bb857610b7f600083611753565b7ff0c57e16840df040f15088dc2f81fe391c3923bec73e23a9662efc9c229c6a0054600160401b900460ff1661074f57604051631afcd79f60e31b815260040160405180910390fd5b6114136113c2565b600080516020611e718339815191527f52c63247e1f47db19d5ce0460030c497f067ca4cebf71ba98eeadabe20bace0361144d8482611d74565b5060048101610b7f8382611d74565b610e8a6113c2565b610f126113c2565b6114746113c2565b600080516020611eb1833981519152805460ff19169055565b600080516020611e718339815191526001600160a01b0385166114c65760405163e602df0560e01b8152600060048201526024016105c4565b6001600160a01b0384166114f057604051634a1406b160e11b8152600060048201526024016105c4565b6001600160a01b0380861660009081526001830160209081526040808320938816835292905220839055811561156e57836001600160a01b0316856001600160a01b03167f8c5be1e5ebec7d5bd14f71427d1e84f3dd0314c0f7b2291e5b200ac8c7c3b9258560405161156591815260200190565b60405180910390a35b5050505050565b61157f8282610d97565b610fe85760405163e2517d3f60e01b81526001600160a01b0382166004820152602481018390526044016105c4565b600080516020611eb18339815191525460ff1661074f57604051638dfc202b60e01b815260040160405180910390fd5b600080516020611e718339815191526001600160a01b03841661161a578181600201600082825461160f9190611e34565b9091555061168c9050565b6001600160a01b0384166000908152602082905260409020548281101561166d5760405163391434e360e21b81526001600160a01b038616600482015260248101829052604481018490526064016105c4565b6001600160a01b03851660009081526020839052604090209083900390555b6001600160a01b0383166116aa5760028101805483900390556116c9565b6001600160a01b03831660009081526020829052604090208054830190555b826001600160a01b0316846001600160a01b03167fddf252ad1be2c89b69c2b068fc378daa952ba7f163c4a11628f55a4df523b3ef8460405161170e91815260200190565b60405180910390a350505050565b6000610f0b836001600160a01b038416611768565b6001600160a01b03811660009081526001830160205260408120541515610f0b565b6000610f0b836001600160a01b038416611851565b600081815260018301602052604081205480156110aa57600061178c600183611e47565b85549091506000906117a090600190611e47565b90508082146118055760008660000182815481106117c0576117c0611cda565b90600052602060002001549050808760000184815481106117e3576117e3611cda565b6000918252602080832090910192909255918252600188019052604090208390555b855486908061181657611816611e5a565b600190038181906000526020600020016000905590558560010160008681526020019081526020016000206000905560019350505050610845565b600081815260018301602052604081205461189857508154600181810184556000848152602080822090930184905584548482528286019093526040902091909155610845565b506000610845565b634e487b7160e01b600052604160045260246000fd5b6040805190810167ffffffffffffffff811182821017156118d9576118d96118a0565b60405290565b604051601f8201601f1916810167ffffffffffffffff81118282101715611908576119086118a0565b604052919050565b80356001600160a01b038116811461192757600080fd5b919050565b6000602080838503121561193f57600080fd5b823567ffffffffffffffff8082111561195757600080fd5b818501915085601f83011261196b57600080fd5b81358181111561197d5761197d6118a0565b61198b848260051b016118df565b818152848101925060069190911b8301840190878211156119ab57600080fd5b928401925b818410156119f557604084890312156119c95760008081fd5b6119d16118b6565b6119da85611910565b815284860135868201528352604090930192918401916119b0565b979650505050505050565b600060208284031215611a1257600080fd5b81356001600160e01b031981168114610f0b57600080fd5b60006020808352835180602085015260005b81811015611a5857858101830151858201604001528201611a3c565b506000604082860101526040601f19601f8301168501019250505092915050565b60008083601f840112611a8b57600080fd5b50813567ffffffffffffffff811115611aa357600080fd5b602083019150836020828501011115611abb57600080fd5b9250929050565b600080600080600060608688031215611ada57600080fd5b853567ffffffffffffffff80821115611af257600080fd5b611afe89838a01611a79565b90975095506020880135915080821115611b1757600080fd5b50611b2488828901611a79565b9094509250611b37905060408701611910565b90509295509295909350565b60008060408385031215611b5657600080fd5b611b5f83611910565b946020939093013593505050565b600080600060608486031215611b8257600080fd5b611b8b84611910565b9250611b9960208501611910565b9150604084013590509250925092565b600060208284031215611bbb57600080fd5b5035919050565b60008060408385031215611bd557600080fd5b82359150611be560208401611910565b90509250929050565b602080825282518282018190526000919060409081850190868401855b82811015611c3957815180516001600160a01b03168552860151868501529284019290850190600101611c0b565b5091979650505050505050565b600060208284031215611c5857600080fd5b610f0b82611910565b60008060408385031215611c7457600080fd5b611c7d83611910565b9150611be560208401611910565b634e487b7160e01b600052601160045260246000fd5b808202811582820484141761084557610845611c8b565b600082611cd557634e487b7160e01b600052601260045260246000fd5b500490565b634e487b7160e01b600052603260045260246000fd5b600181811c90821680611d0457607f821691505b602082108103610ca957634e487b7160e01b600052602260045260246000fd5b601f821115610bb8576000816000526020600020601f850160051c81016020861015611d4d5750805b601f850160051c820191505b81811015611d6c57828155600101611d59565b505050505050565b815167ffffffffffffffff811115611d8e57611d8e6118a0565b611da281611d9c8454611cf0565b84611d24565b602080601f831160018114611dd75760008415611dbf5750858301515b600019600386901b1c1916600185901b178555611d6c565b600085815260208120601f198616915b82811015611e0657888601518255948401946001909101908401611de7565b5085821015611e245787850151600019600388901b60f8161c191681555b5050505050600190811b01905550565b8082018082111561084557610845611c8b565b8181038181111561084557610845611c8b565b634e487b7160e01b600052603160045260246000fdfe52c63247e1f47db19d5ce0460030c497f067ca4cebf71ba98eeadabe20bace0002dd7bc7dec4dceedda775e58dd541e08a116c6c53815c0bd028192f7b626800cd5ed15c6e187e77e9aee88184c21f4f2182ab5827cb3b7e07fbedcd63f033009b779b17422d0df92223018b32b4d1fa46e071723d6817e2486d003becc55f00a26469706673582212201ae959e0bf33ce4248bc7640eb9e27db93c603f71b206306ebfa332e58a39bfc64736f6c63430008180033",
  "linkReferences": {},
  "deployedLinkReferences": {}
}