{
  "_format": "hh-sol-artifact-1",
  "contractName": "Officer",
  "sourceName": "contracts/Officer.sol",
  "abi": [
    {
      "inputs": [
        {
          "internalType": "address",
          "name": "_feeCollector",
          "type": "address"
        }
      ],
      "stateMutability": "nonpayable",
      "type": "constructor"
    },
    {
      "inputs": [
        {
          "internalType": "string",
          "name": "contractType",
          "type": "string"
        }
      ],
      "name": "BeaconNotConfigured",
      "type": "error"
    },
    {
      "inputs": [],
      "name": "BodMustBeDeployedViaElections",
      "type": "error"
    },
    {
      "inputs": [
        {
          "internalType": "string",
          "name": "beaconType",
          "type": "string"
        }
      ],
      "name": "DuplicateBeaconType",
      "type": "error"
    },
    {
      "inputs": [],
      "name": "EmptyBeaconType",
      "type": "error"
    },
    {
      "inputs": [],
      "name": "EmptyContractType",
      "type": "error"
    },
    {
      "inputs": [],
      "name": "EnforcedPause",
      "type": "error"
    },
    {
      "inputs": [],
      "name": "ExpectedPause",
      "type": "error"
    },
    {
      "inputs": [],
      "name": "InvalidInitialization",
      "type": "error"
    },
    {
      "inputs": [
        {
          "internalType": "string",
          "name": "contractType",
          "type": "string"
        }
      ],
      "name": "MissingInitializerData",
      "type": "error"
    },
    {
      "inputs": [],
      "name": "NotInitializing",
      "type": "error"
    },
    {
      "inputs": [],
      "name": "NotOwnerOrInitializing",
      "type": "error"
    },
    {
      "inputs": [
        {
          "internalType": "address",
          "name": "owner",
          "type": "address"
        }
      ],
      "name": "OwnableInvalidOwner",
      "type": "error"
    },
    {
      "inputs": [
        {
          "internalType": "address",
          "name": "account",
          "type": "address"
        }
      ],
      "name": "OwnableUnauthorizedAccount",
      "type": "error"
    },
    {
      "inputs": [],
      "name": "ReentrancyGuardReentrantCall",
      "type": "error"
    },
    {
      "inputs": [],
      "name": "Unauthorized",
      "type": "error"
    },
    {
      "inputs": [],
      "name": "ZeroAddress",
      "type": "error"
    },
    {
      "anonymous": false,
      "inputs": [
        {
          "indexed": false,
          "internalType": "string",
          "name": "contractType",
          "type": "string"
        },
        {
          "indexed": false,
          "internalType": "address",
          "name": "beaconAddress",
          "type": "address"
        }
      ],
      "name": "BeaconConfigured",
      "type": "event"
    },
    {
      "anonymous": false,
      "inputs": [
        {
          "indexed": false,
          "internalType": "address[]",
          "name": "beaconProxies",
          "type": "address[]"
        }
      ],
      "name": "BeaconProxiesDeployed",
      "type": "event"
    },
    {
      "anonymous": false,
      "inputs": [
        {
          "indexed": false,
          "internalType": "string",
          "name": "contractType",
          "type": "string"
        },
        {
          "indexed": false,
          "internalType": "address",
          "name": "deployedAddress",
          "type": "address"
        }
      ],
      "name": "ContractDeployed",
      "type": "event"
    },
    {
      "anonymous": false,
      "inputs": [
        {
          "indexed": false,
          "internalType": "uint64",
          "name": "version",
          "type": "uint64"
        }
      ],
      "name": "Initialized",
      "type": "event"
    },
    {
      "anonymous": false,
      "inputs": [
        {
          "indexed": true,
          "internalType": "address",
          "name": "previousOwner",
          "type": "address"
        },
        {
          "indexed": true,
          "internalType": "address",
          "name": "newOwner",
          "type": "address"
        }
      ],
      "name": "OwnershipTransferred",
      "type": "event"
    },
    {
      "anonymous": false,
      "inputs": [
        {
          "indexed": false,
          "internalType": "address",
          "name": "account",
          "type": "address"
        }
      ],
      "name": "Paused",
      "type": "event"
    },
    {
      "anonymous": false,
      "inputs": [
        {
          "indexed": false,
          "internalType": "address",
          "name": "account",
          "type": "address"
        }
      ],
      "name": "Unpaused",
      "type": "event"
    },
    {
      "inputs": [
        {
          "internalType": "string",
          "name": "contractType",
          "type": "string"
        },
        {
          "internalType": "address",
          "name": "beaconAddress",
          "type": "address"
        }
      ],
      "name": "configureBeacon",
      "outputs": [],
      "stateMutability": "nonpayable",
      "type": "function"
    },
    {
      "inputs": [
        {
          "internalType": "string",
          "name": "",
          "type": "string"
        }
      ],
      "name": "contractBeacons",
      "outputs": [
        {
          "internalType": "address",
          "name": "",
          "type": "address"
        }
      ],
      "stateMutability": "view",
      "type": "function"
    },
    {
      "inputs": [
        {
          "internalType": "uint256",
          "name": "",
          "type": "uint256"
        }
      ],
      "name": "contractTypes",
      "outputs": [
        {
          "internalType": "string",
          "name": "",
          "type": "string"
        }
      ],
      "stateMutability": "view",
      "type": "function"
    },
    {
      "inputs": [
        {
          "components": [
            {
              "internalType": "string",
              "name": "contractType",
              "type": "string"
            },
            {
              "internalType": "bytes",
              "name": "initializerData",
              "type": "bytes"
            }
          ],
          "internalType": "struct DeploymentData[]",
          "name": "deployments",
          "type": "tuple[]"
        }
      ],
      "name": "deployAllContracts",
      "outputs": [
        {
          "internalType": "address[]",
          "name": "",
          "type": "address[]"
        }
      ],
      "stateMutability": "nonpayable",
      "type": "function"
    },
    {
      "inputs": [
        {
          "internalType": "string",
          "name": "contractType",
          "type": "string"
        },
        {
          "internalType": "bytes",
          "name": "initializerData",
          "type": "bytes"
        }
      ],
      "name": "deployBeaconProxy",
      "outputs": [
        {
          "internalType": "address",
          "name": "",
          "type": "address"
        }
      ],
      "stateMutability": "nonpayable",
      "type": "function"
    },
    {
      "inputs": [
        {
          "internalType": "string",
          "name": "contractType",
          "type": "string"
        }
      ],
      "name": "findDeployedContract",
      "outputs": [
        {
          "internalType": "address",
          "name": "",
          "type": "address"
        }
      ],
      "stateMutability": "view",
      "type": "function"
    },
    {
      "inputs": [],
      "name": "getConfiguredContractTypes",
      "outputs": [
        {
          "internalType": "string[]",
          "name": "",
          "type": "string[]"
        }
      ],
      "stateMutability": "view",
      "type": "function"
    },
    {
      "inputs": [],
      "name": "getDeployedContracts",
      "outputs": [
        {
          "components": [
            {
              "internalType": "string",
              "name": "contractType",
              "type": "string"
            },
            {
              "internalType": "address",
              "name": "contractAddress",
              "type": "address"
            }
          ],
          "internalType": "struct Officer.DeployedContract[]",
          "name": "",
          "type": "tuple[]"
        }
      ],
      "stateMutability": "view",
      "type": "function"
    },
    {
      "inputs": [],
      "name": "getFeeCollector",
      "outputs": [
        {
          "internalType": "address",
          "name": "",
          "type": "address"
        }
      ],
      "stateMutability": "view",
      "type": "function"
    },
    {
      "inputs": [
        {
          "internalType": "string",
          "name": "contractType",
          "type": "string"
        }
      ],
      "name": "getFeeFor",
      "outputs": [
        {
          "internalType": "uint16",
          "name": "",
          "type": "uint16"
        }
      ],
      "stateMutability": "view",
      "type": "function"
    },
    {
      "inputs": [],
      "name": "getTeam",
      "outputs": [
        {
          "components": [
            {
              "internalType": "string",
              "name": "contractType",
              "type": "string"
            },
            {
              "internalType": "address",
              "name": "contractAddress",
              "type": "address"
            }
          ],
          "internalType": "struct Officer.DeployedContract[]",
          "name": "",
          "type": "tuple[]"
        }
      ],
      "stateMutability": "view",
      "type": "function"
    },
    {
      "inputs": [
        {
          "internalType": "address",
          "name": "_owner",
          "type": "address"
        },
        {
          "components": [
            {
              "internalType": "string",
              "name": "beaconType",
              "type": "string"
            },
            {
              "internalType": "address",
              "name": "beaconAddress",
              "type": "address"
            }
          ],
          "internalType": "struct Officer.BeaconConfig[]",
          "name": "beaconConfigs",
          "type": "tuple[]"
        },
        {
          "components": [
            {
              "internalType": "string",
              "name": "contractType",
              "type": "string"
            },
            {
              "internalType": "bytes",
              "name": "initializerData",
              "type": "bytes"
            }
          ],
          "internalType": "struct DeploymentData[]",
          "name": "_deployments",
          "type": "tuple[]"
        },
        {
          "internalType": "bool",
          "name": "_isDeployAllContracts",
          "type": "bool"
        }
      ],
      "name": "initialize",
      "outputs": [],
      "stateMutability": "nonpayable",
      "type": "function"
    },
    {
      "inputs": [
        {
          "internalType": "address",
          "name": "_tokenAddress",
          "type": "address"
        }
      ],
      "name": "isFeeCollectorToken",
      "outputs": [
        {
          "internalType": "bool",
          "name": "",
          "type": "bool"
        }
      ],
      "stateMutability": "view",
      "type": "function"
    },
    {
      "inputs": [],
      "name": "owner",
      "outputs": [
        {
          "internalType": "address",
          "name": "",
          "type": "address"
        }
      ],
      "stateMutability": "view",
      "type": "function"
    },
    {
      "inputs": [],
      "name": "pause",
      "outputs": [],
      "stateMutability": "nonpayable",
      "type": "function"
    },
    {
      "inputs": [],
      "name": "paused",
      "outputs": [
        {
          "internalType": "bool",
          "name": "",
          "type": "bool"
        }
      ],
      "stateMutability": "view",
      "type": "function"
    },
    {
      "inputs": [],
      "name": "renounceOwnership",
      "outputs": [],
      "stateMutability": "nonpayable",
      "type": "function"
    },
    {
      "inputs": [
        {
          "internalType": "address",
          "name": "newOwner",
          "type": "address"
        }
      ],
      "name": "transferOwnership",
      "outputs": [],
      "stateMutability": "nonpayable",
      "type": "function"
    },
    {
      "inputs": [],
      "name": "unpause",
      "outputs": [],
      "stateMutability": "nonpayable",
      "type": "function"
    }
  ],
  "bytecode": "0x60a06040523480156200001157600080fd5b50604051620031da380380620031da83398101604081905262000034916200012e565b6001600160a01b0381166200005c5760405163d92e233d60e01b815260040160405180910390fd5b6001600160a01b038116608052620000736200007a565b5062000160565b7ff0c57e16840df040f15088dc2f81fe391c3923bec73e23a9662efc9c229c6a00805468010000000000000000900460ff1615620000cb5760405163f92ee8a960e01b815260040160405180910390fd5b80546001600160401b03908116146200012b5780546001600160401b0319166001600160401b0390811782556040519081527fc7f505b2f371ae2175ee4913f4499e1f2633a7b5936321eed1cdaeb6115181d29060200160405180910390a15b50565b6000602082840312156200014157600080fd5b81516001600160a01b03811681146200015957600080fd5b9392505050565b6080516130506200018a6000396000818161018d015281816107c601526113c901526130506000f3fe60806040523480156200001157600080fd5b5060043610620001395760003560e01c80638456cb5911620000bb578063aa9a068f116200007a578063aa9a068f146200029d578063bda8beab14620002a7578063caed96c614620002de578063e99548a51462000309578063f2fde38b146200032f57600080fd5b80638456cb5914620002335780638934332d146200023d5780638bce6edd14620002545780638da5cb5b146200026d57806395373b77146200027757600080fd5b80633f4ba83a11620001085780633f4ba83a14620001c95780635c975abb14620001d3578063715018a614620001f9578063799391f614620002035780637a54d570146200021c57600080fd5b8063028316c6146200013e57806310293394146200015757806312fde4b7146200018b578063237be9cb14620001b2575b600080fd5b620001556200014f36600462001fa0565b62000346565b005b6200016e62000168366004620020e3565b6200047b565b6040516001600160a01b0390911681526020015b60405180910390f35b7f00000000000000000000000000000000000000000000000000000000000000006200016e565b62000155620001c336600462002186565b62000522565b620001556200066f565b60008051602062002ffb8339815191525460ff165b604051901515815260200162000182565b6200015562000695565b6200020d620006ab565b6040516200018291906200235a565b620001e86200022d366004620023c2565b6200078e565b620001556200083a565b6200016e6200024e366004620023e7565b6200085e565b6200025e62000d8c565b60405162000182919062002459565b6200016e62000e91565b6200028e62000288366004620024de565b62000ebf565b60405162000182919062002523565b6200025e620012aa565b6200016e620002b8366004620020e3565b80516020818301810180516000825292820191909301209152546001600160a01b031681565b620002f5620002ef366004620020e3565b620013af565b60405161ffff909116815260200162000182565b620003206200031a36600462002572565b62001444565b6040516200018291906200258c565b6200015562000340366004620023c2565b620014f9565b6200035062000e91565b6001600160a01b03163303620004635760006001600160a01b0316600084846040516200037f929190620025a1565b908152604051908190036020019020546001600160a01b031603620003de576001805480820182556000919091527fb10e2d527612073b26eecdfd717e6a320cf44b4afac2b0732d9fcbe2b7fa0cf601620003dc83858362002641565b505b8060008484604051620003f3929190620025a1565b90815260405190819003602001812080546001600160a01b03939093166001600160a01b0319909316929092179091557f2881466ae3b4402eb0e3d707416581efa9ce464c26cca0b40d5b290f48a94e2290620004569085908590859062002737565b60405180910390a1505050565b6040516282b42960e81b815260040160405180910390fd5b6000805b6002548110156200051957828051906020012060028281548110620004a857620004a862002765565b9060005260206000209060020201600001604051620004c891906200277b565b604051809103902003620005105760028181548110620004ec57620004ec62002765565b60009182526020909120600160029092020101546001600160a01b03169392505050565b6001016200047f565b50600092915050565b7ff0c57e16840df040f15088dc2f81fe391c3923bec73e23a9662efc9c229c6a008054600160401b810460ff1615906001600160401b0316600081158015620005685750825b90506000826001600160401b03166001148015620005855750303b155b90508115801562000594575080155b15620005b35760405163f92ee8a960e01b815260040160405180910390fd5b845467ffffffffffffffff191660011785558315620005de57845460ff60401b1916600160401b1785555b620005e98a6200153d565b620005f362001552565b620005fd62001566565b62000608896200157a565b85156200061c576200061c88888c620017d4565b83156200066357845460ff60401b19168555604051600181527fc7f505b2f371ae2175ee4913f4499e1f2633a7b5936321eed1cdaeb6115181d29060200160405180910390a15b50505050505050505050565b6200067962000e91565b6001600160a01b03163303620004635762000693620017f1565b565b6200069f62001854565b6200069360006200188a565b60606001805480602002602001604051908101604052809291908181526020016000905b8282101562000785578382906000526020600020018054620006f190620025b1565b80601f01602080910402602001604051908101604052809291908181526020018280546200071f90620025b1565b8015620007705780601f10620007445761010080835404028352916020019162000770565b820191906000526020600020905b8154815290600101906020018083116200075257829003601f168201915b505050505081526020019060010190620006cf565b50505050905090565b60006001600160a01b038216620007a757506000919050565b6040516375151b6360e01b81526001600160a01b0383811660048301527f000000000000000000000000000000000000000000000000000000000000000016906375151b6390602401602060405180830381865afa1580156200080e573d6000803e3d6000fd5b505050506040513d601f19601f82011682018060405250810190620008349190620027f9565b92915050565b6200084462000e91565b6001600160a01b03163303620004635762000693620018fb565b60006200086a62001948565b620008746200197b565b80620008915750336200088662000e91565b6001600160a01b0316145b620008af5760405163bf9030d960e01b815260040160405180910390fd5b60006001600160a01b031660008686604051620008ce929190620025a1565b908152604051908190036020019020546001600160a01b03160362000915578484604051638cac220960e01b81526004016200090c92919062002819565b60405180910390fd5b604080518082018252601081526f426f6172644f664469726563746f727360801b602090910152517ff1a08d73ffcd13e8240c82e3e89399af5f14314ed5d20cf2ad0e1edb868887c7906200096e9087908790620025a1565b604051809103902003620009955760405163b35d6c2760e01b815260040160405180910390fd5b6000808686604051620009aa929190620025a1565b908152604051908190036020018120546001600160a01b03169085908590620009d39062001f2a565b620009e1939291906200282f565b604051809103906000f080158015620009fe573d6000803e3d6000fd5b506040805160606020601f8a018190040282018101835291810188815292935083926002928291908b908b908190850183828082843760009201829052509385525050506001600160a01b038516602092830152835460018101855593815220815191926002020190819062000a7590826200285f565b5060209190910151600190910180546001600160a01b0319166001600160a01b039092169190911790556040517f4da8c8e82a6cdcd021dddec73a637b429d2b0a9b303638f1258ff8a35c3e5d869062000ad59089908990859062002737565b60405180910390a16040805180820182526009815268456c656374696f6e7360b81b602090910152517f7b73761da36b4cebe2053accba689012c2b87107cf729ae0feb5a5039e9a651a9062000b2f9089908990620025a1565b60405180910390200362000d825760008060405162000b64906f426f6172644f664469726563746f727360801b815260100190565b9081526040805191829003602090810183205460018085528484019093526001600160a01b0316935060009291908083019080368337019050509050828160008151811062000bb75762000bb762002765565b60200260200101906001600160a01b031690816001600160a01b0316815250508163a224cee760e01b8260405160240162000bf3919062002523565b60408051601f198184030181529181526020820180516001600160e01b03166001600160e01b031990941693909317909252905162000c329062001f2a565b62000c3f9291906200292b565b604051809103906000f08015801562000c5c573d6000803e3d6000fd5b50600380546001600160a01b03929092166001600160a01b0319909216821790556040805160808101825260109181019182526f426f6172644f664469726563746f727360801b60608201529081526020810191909152600280546001810182556000829052825191027f405787fa12a823e0f2b7631cc41b3ba8828b3321ca811111fa75cd3aa3bb5ace0190819062000cf790826200285f565b50602091820151600190910180546001600160a01b0319166001600160a01b03928316179055600354604080518181526010918101919091526f426f6172644f664469726563746f727360801b60608201529116918101919091527f4da8c8e82a6cdcd021dddec73a637b429d2b0a9b303638f1258ff8a35c3e5d869060800160405180910390a150505b9695505050505050565b60606002805480602002602001604051908101604052809291908181526020016000905b8282101562000785578382906000526020600020906002020160405180604001604052908160008201805462000de690620025b1565b80601f016020809104026020016040519081016040528092919081815260200182805462000e1490620025b1565b801562000e655780601f1062000e395761010080835404028352916020019162000e65565b820191906000526020600020905b81548152906001019060200180831162000e4757829003601f168201915b50505091835250506001918201546001600160a01b031660209182015291835292909201910162000db0565b7f9016d09d72d40fdae2fd8ceac6b6234c7706214fd39c1cd1e609a0528c199300546001600160a01b031690565b606062000ecb62001948565b62000ed56200197b565b8062000ef257503362000ee762000e91565b6001600160a01b0316145b62000f105760405163bf9030d960e01b815260040160405180910390fd5b6000826001600160401b0381111562000f2d5762000f2d62001ff9565b60405190808252806020026020018201604052801562000f57578160200160208202803683370190505b50905060005b83811015620012695784848281811062000f7b5762000f7b62002765565b905060200281019062000f8f919062002951565b62000f9b908062002972565b905060000362000fbe5760405163aaa1f74360e01b815260040160405180910390fd5b84848281811062000fd35762000fd362002765565b905060200281019062000fe7919062002951565b62000ff790602081019062002972565b9050600003620010535784848281811062001016576200101662002765565b90506020028101906200102a919062002951565b62001036908062002972565b60405163f4eafecf60e01b81526004016200090c92919062002819565b6000808686848181106200106b576200106b62002765565b90506020028101906200107f919062002951565b6200108b908062002972565b6040516200109b929190620025a1565b908152604051908190036020019020546001600160a01b0316036200110c57848482818110620010cf57620010cf62002765565b9050602002810190620010e3919062002951565b620010ef908062002972565b604051638cac220960e01b81526004016200090c92919062002819565b60408051808201909152601081526f426f6172644f664469726563746f727360801b6020909101527ff1a08d73ffcd13e8240c82e3e89399af5f14314ed5d20cf2ad0e1edb868887c78585838181106200116a576200116a62002765565b90506020028101906200117e919062002951565b6200118a908062002972565b6040516200119a929190620025a1565b604051809103902003620011c15760405163b35d6c2760e01b815260040160405180910390fd5b62001233858583818110620011da57620011da62002765565b9050602002810190620011ee919062002951565b620011fa908062002972565b8787858181106200120f576200120f62002765565b905060200281019062001223919062002951565b6200024e90602081019062002972565b82828151811062001248576200124862002765565b6001600160a01b039092166020928302919091019091015260010162000f5d565b507f72453f0cc824cbf9235c18779fbe40c5cfaaae4856d71c7364fc89250ef6695c816040516200129b919062002523565b60405180910390a19392505050565b60606002805480602002602001604051908101604052809291908181526020016000905b828210156200078557838290600052602060002090600202016040518060400160405290816000820180546200130490620025b1565b80601f01602080910402602001604051908101604052809291908181526020018280546200133290620025b1565b8015620013835780601f10620013575761010080835404028352916020019162001383565b820191906000526020600020905b8154815290600101906020018083116200136557829003601f168201915b50505091835250506001918201546001600160a01b0316602091820152918352929092019101620012ce565b604051636576cb6360e11b81526000906001600160a01b037f0000000000000000000000000000000000000000000000000000000000000000169063caed96c690620014009085906004016200258c565b602060405180830381865afa1580156200141e573d6000803e3d6000fd5b505050506040513d601f19601f82011682018060405250810190620008349190620029bb565b600181815481106200145557600080fd5b9060005260206000200160009150905080546200147290620025b1565b80601f0160208091040260200160405190810160405280929190818152602001828054620014a090620025b1565b8015620014f15780601f10620014c557610100808354040283529160200191620014f1565b820191906000526020600020905b815481529060010190602001808311620014d357829003601f168201915b505050505081565b6200150362001854565b6001600160a01b0381166200152f57604051631e4fbdf760e01b8152600060048201526024016200090c565b6200153a816200188a565b50565b62001547620019aa565b6200153a81620019d2565b6200155c620019aa565b62000693620019dc565b62001570620019aa565b6200069362001a0c565b60005b8151811015620017d05760006001600160a01b0316828281518110620015a757620015a762002765565b6020026020010151602001516001600160a01b031603620015db5760405163d92e233d60e01b815260040160405180910390fd5b818181518110620015f057620015f062002765565b602002602001015160000151516000036200161e5760405163f967887d60e01b815260040160405180910390fd5b60005b81811015620016c6578281815181106200163f576200163f62002765565b6020026020010151600001518051906020012083838151811062001667576200166762002765565b6020026020010151600001518051906020012003620016bd5782828151811062001695576200169562002765565b60200260200101516000015160405163c699c93b60e01b81526004016200090c91906200258c565b60010162001621565b50818181518110620016dc57620016dc62002765565b6020026020010151602001516000838381518110620016ff57620016ff62002765565b6020026020010151600001516040516200171a9190620029e1565b908152602001604051809103902060006101000a8154816001600160a01b0302191690836001600160a01b031602179055507f2881466ae3b4402eb0e3d707416581efa9ce464c26cca0b40d5b290f48a94e2282828151811062001782576200178262002765565b602002602001015160000151838381518110620017a357620017a362002765565b602002602001015160200151604051620017bf929190620029f5565b60405180910390a16001016200157d565b5050565b620017e0838362000ebf565b50620017ec8162001a30565b505050565b620017fb62001ef8565b60008051602062002ffb833981519152805460ff191681557f5db9ee0a495bf2e6ff9c91a7834c1ba4fdd244a5e8aa4e537bd38aeae4b073aa335b6040516001600160a01b03909116815260200160405180910390a150565b336200185f62000e91565b6001600160a01b031614620006935760405163118cdaa760e01b81523360048201526024016200090c565b7f9016d09d72d40fdae2fd8ceac6b6234c7706214fd39c1cd1e609a0528c19930080546001600160a01b031981166001600160a01b03848116918217845560405192169182907f8be0079c531659141344cd1fd0a4f28419497f9722a3daafe3b4186f6b6457e090600090a3505050565b6200190562001948565b60008051602062002ffb833981519152805460ff191660011781557f62e78cea01bee320cd4e420270b5ea74000d11b0c9f74754ebdbfc544b05a2583362001836565b60008051602062002ffb8339815191525460ff1615620006935760405163d93c066560e01b815260040160405180910390fd5b7ff0c57e16840df040f15088dc2f81fe391c3923bec73e23a9662efc9c229c6a0054600160401b900460ff1690565b620019b46200197b565b6200069357604051631afcd79f60e31b815260040160405180910390fd5b62001503620019aa565b620019e6620019aa565b60017f9b779b17422d0df92223018b32b4d1fa46e071723d6817e2486d003becc55f0055565b62001a16620019aa565b60008051602062002ffb833981519152805460ff19169055565b600062001a6b6040518060400160405280601681526020017521b0b9b42932b6bab732b930ba34b7b722a4a81b989960511b8152506200047b565b9050600062001aa36040518060400160405280601181526020017029b0b332a232b837b9b4ba2937baba32b960791b8152506200047b565b9050600062001ad46040518060400160405280600a815260200169496e766573746f72563160b01b8152506200047b565b90506001600160a01b03811662001aeb5750505050565b60008190506000816001600160a01b031663d53913936040518163ffffffff1660e01b8152600401602060405180830381865afa15801562001b31573d6000803e3d6000fd5b505050506040513d601f19601f8201168201806040525081019062001b57919062002a21565b90506000826001600160a01b031663a217fddf6040518163ffffffff1660e01b8152600401602060405180830381865afa15801562001b9a573d6000803e3d6000fd5b505050506040513d601f19601f8201168201806040525081019062001bc0919062002a21565b90506001600160a01b0386161562001cf55760405163733c237d60e01b81526001600160a01b03858116600483015287919082169063733c237d90602401600060405180830381600087803b15801562001c1957600080fd5b505af115801562001c2e573d6000803e3d6000fd5b505060405163f2fde38b60e01b81526001600160a01b038b811660048301528416925063f2fde38b9150602401600060405180830381600087803b15801562001c7657600080fd5b505af115801562001c8b573d6000803e3d6000fd5b5050604051632f2ff15d60e01b8152600481018690526001600160a01b038a8116602483015287169250632f2ff15d9150604401600060405180830381600087803b15801562001cda57600080fd5b505af115801562001cef573d6000803e3d6000fd5b50505050505b6001600160a01b0385161562001dca57604051632f2ff15d60e01b8152600481018390526001600160a01b038681166024830152841690632f2ff15d90604401600060405180830381600087803b15801562001d5057600080fd5b505af115801562001d65573d6000803e3d6000fd5b505060405163f2fde38b60e01b81526001600160a01b038a811660048301528893508316915063f2fde38b90602401600060405180830381600087803b15801562001daf57600080fd5b505af115801562001dc4573d6000803e3d6000fd5b50505050505b604051632f2ff15d60e01b8152600481018390526001600160a01b038881166024830152841690632f2ff15d90604401600060405180830381600087803b15801562001e1557600080fd5b505af115801562001e2a573d6000803e3d6000fd5b5050604051632f2ff15d60e01b8152600481018490526001600160a01b038a8116602483015286169250632f2ff15d9150604401600060405180830381600087803b15801562001e7957600080fd5b505af115801562001e8e573d6000803e3d6000fd5b505060405163f2fde38b60e01b81526001600160a01b038a811660048301528616925063f2fde38b9150602401600060405180830381600087803b15801562001ed657600080fd5b505af115801562001eeb573d6000803e3d6000fd5b5050505050505050505050565b60008051602062002ffb8339815191525460ff166200069357604051638dfc202b60e01b815260040160405180910390fd5b6105bf8062002a3c83390190565b60008083601f84011262001f4b57600080fd5b5081356001600160401b0381111562001f6357600080fd5b60208301915083602082850101111562001f7c57600080fd5b9250929050565b80356001600160a01b038116811462001f9b57600080fd5b919050565b60008060006040848603121562001fb657600080fd5b83356001600160401b0381111562001fcd57600080fd5b62001fdb8682870162001f38565b909450925062001ff090506020850162001f83565b90509250925092565b634e487b7160e01b600052604160045260246000fd5b604080519081016001600160401b038111828210171562002034576200203462001ff9565b60405290565b604051601f8201601f191681016001600160401b038111828210171562002065576200206562001ff9565b604052919050565b600082601f8301126200207f57600080fd5b81356001600160401b038111156200209b576200209b62001ff9565b620020b0601f8201601f19166020016200203a565b818152846020838601011115620020c657600080fd5b816020850160208301376000918101602001919091529392505050565b600060208284031215620020f657600080fd5b81356001600160401b038111156200210d57600080fd5b6200211b848285016200206d565b949350505050565b60008083601f8401126200213657600080fd5b5081356001600160401b038111156200214e57600080fd5b6020830191508360208260051b850101111562001f7c57600080fd5b80151581146200153a57600080fd5b803562001f9b816200216a565b6000806000806000608086880312156200219f57600080fd5b620021aa8662001f83565b94506001600160401b038060208801351115620021c657600080fd5b6020870135870188601f820112620021dd57600080fd5b8181351115620021f157620021f162001ff9565b620022036020823560051b016200203a565b81358082526020808301929160051b8401018b10156200222257600080fd5b602083015b6020843560051b850101811015620022bd5784813511156200224857600080fd5b803584016040818e03601f190112156200226157600080fd5b6200226b6200200f565b86602083013511156200227d57600080fd5b620022918e6020808501358501016200206d565b8152620022a16040830162001f83565b6020820152808552505060208301925060208101905062002227565b50965050506040870135811015620022d457600080fd5b50620022e7876040880135880162002123565b9093509150620022fa6060870162002179565b90509295509295909350565b60005b838110156200232357818101518382015260200162002309565b50506000910152565b600081518084526200234681602086016020860162002306565b601f01601f19169290920160200192915050565b600060208083016020845280855180835260408601915060408160051b87010192506020870160005b82811015620023b557603f19888603018452620023a28583516200232c565b9450928501929085019060010162002383565b5092979650505050505050565b600060208284031215620023d557600080fd5b620023e08262001f83565b9392505050565b60008060008060408587031215620023fe57600080fd5b84356001600160401b03808211156200241657600080fd5b620024248883890162001f38565b909650945060208701359150808211156200243e57600080fd5b506200244d8782880162001f38565b95989497509550505050565b600060208083018184528085518083526040925060408601915060408160051b87010184880160005b83811015620024d057888303603f1901855281518051878552620024a9888601826200232c565b918901516001600160a01b0316948901949094529487019492509086019060010162002482565b509098975050505050505050565b60008060208385031215620024f257600080fd5b82356001600160401b038111156200250957600080fd5b620025178582860162002123565b90969095509350505050565b6020808252825182820181905260009190848201906040850190845b81811015620025665783516001600160a01b0316835292840192918401916001016200253f565b50909695505050505050565b6000602082840312156200258557600080fd5b5035919050565b602081526000620023e060208301846200232c565b8183823760009101908152919050565b600181811c90821680620025c657607f821691505b602082108103620025e757634e487b7160e01b600052602260045260246000fd5b50919050565b601f821115620017ec576000816000526020600020601f850160051c81016020861015620026185750805b601f850160051c820191505b81811015620026395782815560010162002624565b505050505050565b6001600160401b038311156200265b576200265b62001ff9565b62002673836200266c8354620025b1565b83620025ed565b6000601f841160018114620026aa5760008515620026915750838201355b600019600387901b1c1916600186901b17835562002707565b600083815260209020601f19861690835b82811015620026dd5786850135825560209485019460019092019101620026bb565b5086821015620026fb5760001960f88860031b161c19848701351681555b505060018560011b0183555b5050505050565b81835281816020850137506000828201602090810191909152601f909101601f19169091010190565b6040815260006200274d6040830185876200270e565b905060018060a01b0383166020830152949350505050565b634e487b7160e01b600052603260045260246000fd5b60008083546200278b81620025b1565b60018281168015620027a65760018114620027bc57620027ed565b60ff1984168752821515830287019450620027ed565b8760005260208060002060005b85811015620027e45781548a820152908401908201620027c9565b50505082870194505b50929695505050505050565b6000602082840312156200280c57600080fd5b8151620023e0816200216a565b6020815260006200211b6020830184866200270e565b6001600160a01b03841681526040602082018190526000906200285690830184866200270e565b95945050505050565b81516001600160401b038111156200287b576200287b62001ff9565b62002893816200288c8454620025b1565b84620025ed565b602080601f831160018114620028cb5760008415620028b25750858301515b600019600386901b1c1916600185901b17855562002639565b600085815260208120601f198616915b82811015620028fc57888601518255948401946001909101908401620028db565b50858210156200291b5787850151600019600388901b60f8161c191681555b5050505050600190811b01905550565b6001600160a01b03831681526040602082018190526000906200211b908301846200232c565b60008235603e198336030181126200296857600080fd5b9190910192915050565b6000808335601e198436030181126200298a57600080fd5b8301803591506001600160401b03821115620029a557600080fd5b60200191503681900382131562001f7c57600080fd5b600060208284031215620029ce57600080fd5b815161ffff81168114620023e057600080fd5b600082516200296881846020870162002306565b60408152600062002a0a60408301856200232c565b905060018060a01b03831660208301529392505050565b60006020828403121562002a3457600080fd5b505191905056fe60a06040526040516105bf3803806105bf83398101604081905261002291610387565b61002c828261003e565b506001600160a01b031660805261047e565b610047826100fe565b6040516001600160a01b038316907f1cf3b03a6cf19fa2baba4df148e9dcabedea7f8a5c07840e207e5c089be95d3e90600090a28051156100f2576100ed826001600160a01b0316635c60da1b6040518163ffffffff1660e01b8152600401602060405180830381865afa1580156100c3573d6000803e3d6000fd5b505050506040513d601f19601f820116820180604052508101906100e79190610447565b82610211565b505050565b6100fa610288565b5050565b806001600160a01b03163b60000361013957604051631933b43b60e21b81526001600160a01b03821660048201526024015b60405180910390fd5b807fa3f0ad74e5423aebfd80d3ef4346578335a9a72aeaee59ff6cb3582b35133d5080546001600160a01b0319166001600160a01b0392831617905560408051635c60da1b60e01b81529051600092841691635c60da1b9160048083019260209291908290030181865afa1580156101b5573d6000803e3d6000fd5b505050506040513d601f19601f820116820180604052508101906101d99190610447565b9050806001600160a01b03163b6000036100fa57604051634c9c8ce360e01b81526001600160a01b0382166004820152602401610130565b6060600080846001600160a01b03168460405161022e9190610462565b600060405180830381855af49150503d8060008114610269576040519150601f19603f3d011682016040523d82523d6000602084013e61026e565b606091505b50909250905061027f8583836102a9565b95945050505050565b34156102a75760405163b398979f60e01b815260040160405180910390fd5b565b6060826102be576102b982610308565b610301565b81511580156102d557506001600160a01b0384163b155b156102fe57604051639996b31560e01b81526001600160a01b0385166004820152602401610130565b50805b9392505050565b8051156103185780518082602001fd5b60405163d6bda27560e01b815260040160405180910390fd5b80516001600160a01b038116811461034857600080fd5b919050565b634e487b7160e01b600052604160045260246000fd5b60005b8381101561037e578181015183820152602001610366565b50506000910152565b6000806040838503121561039a57600080fd5b6103a383610331565b60208401519092506001600160401b03808211156103c057600080fd5b818501915085601f8301126103d457600080fd5b8151818111156103e6576103e661034d565b604051601f8201601f19908116603f0116810190838211818310171561040e5761040e61034d565b8160405282815288602084870101111561042757600080fd5b610438836020830160208801610363565b80955050505050509250929050565b60006020828403121561045957600080fd5b61030182610331565b60008251610474818460208701610363565b9190910192915050565b6080516101276104986000396000601e01526101276000f3fe6080604052600a600c565b005b60186014601a565b60a0565b565b60007f00000000000000000000000000000000000000000000000000000000000000006001600160a01b0316635c60da1b6040518163ffffffff1660e01b8152600401602060405180830381865afa1580156079573d6000803e3d6000fd5b505050506040513d601f19601f82011682018060405250810190609b919060c3565b905090565b3660008037600080366000845af43d6000803e80801560be573d6000f35b3d6000fd5b60006020828403121560d457600080fd5b81516001600160a01b038116811460ea57600080fd5b939250505056fea26469706673582212200b958117c11058dcd9f2a5b7bc8f74bb0c167bdf3f2c9517af8cd5fbe6487db964736f6c63430008180033cd5ed15c6e187e77e9aee88184c21f4f2182ab5827cb3b7e07fbedcd63f03300a2646970667358221220738e3ecc67d20548193e6812c8b18af3ab6bd46d20e9215eaefa59a29c4eb6a064736f6c63430008180033",
  "linkReferences": {},
  "deployedLinkReferences": {}
}