{
  "_format": "hh-sol-artifact-1",
  "contractName": "Officer",
  "sourceName": "contracts/Officer.sol",
  "abi": [
    {
      "inputs": [
        {
          "internalType": "address",
          "name": "_feeCollector",
          "type": "address"
        }
      ],
      "stateMutability": "nonpayable",
      "type": "constructor"
    },
    {
      "inputs": [],
      "name": "EnforcedPause",
      "type": "error"
    },
    {
      "inputs": [],
      "name": "ExpectedPause",
      "type": "error"
    },
    {
      "inputs": [],
      "name": "InvalidInitialization",
      "type": "error"
    },
    {
      "inputs": [],
      "name": "NotInitializing",
      "type": "error"
    },
    {
      "inputs": [
        {
          "internalType": "address",
          "name": "owner",
          "type": "address"
        }
      ],
      "name": "OwnableInvalidOwner",
      "type": "error"
    },
    {
      "inputs": [
        {
          "internalType": "address",
          "name": "account",
          "type": "address"
        }
      ],
      "name": "OwnableUnauthorizedAccount",
      "type": "error"
    },
    {
      "inputs": [],
      "name": "ReentrancyGuardReentrantCall",
      "type": "error"
    },
    {
      "anonymous": false,
      "inputs": [
        {
          "indexed": false,
          "internalType": "string",
          "name": "contractType",
          "type": "string"
        },
        {
          "indexed": false,
          "internalType": "address",
          "name": "beaconAddress",
          "type": "address"
        }
      ],
      "name": "BeaconConfigured",
      "type": "event"
    },
    {
      "anonymous": false,
      "inputs": [
        {
          "indexed": false,
          "internalType": "address[]",
          "name": "beaconProxies",
          "type": "address[]"
        }
      ],
      "name": "BeaconProxiesDeployed",
      "type": "event"
    },
    {
      "anonymous": false,
      "inputs": [
        {
          "indexed": false,
          "internalType": "string",
          "name": "contractType",
          "type": "string"
        },
        {
          "indexed": false,
          "internalType": "address",
          "name": "deployedAddress",
          "type": "address"
        }
      ],
      "name": "ContractDeployed",
      "type": "event"
    },
    {
      "anonymous": false,
      "inputs": [
        {
          "indexed": false,
          "internalType": "uint64",
          "name": "version",
          "type": "uint64"
        }
      ],
      "name": "Initialized",
      "type": "event"
    },
    {
      "anonymous": false,
      "inputs": [
        {
          "indexed": true,
          "internalType": "address",
          "name": "previousOwner",
          "type": "address"
        },
        {
          "indexed": true,
          "internalType": "address",
          "name": "newOwner",
          "type": "address"
        }
      ],
      "name": "OwnershipTransferred",
      "type": "event"
    },
    {
      "anonymous": false,
      "inputs": [
        {
          "indexed": false,
          "internalType": "address",
          "name": "account",
          "type": "address"
        }
      ],
      "name": "Paused",
      "type": "event"
    },
    {
      "anonymous": false,
      "inputs": [
        {
          "indexed": false,
          "internalType": "address",
          "name": "account",
          "type": "address"
        }
      ],
      "name": "Unpaused",
      "type": "event"
    },
    {
      "inputs": [
        {
          "internalType": "string",
          "name": "contractType",
          "type": "string"
        },
        {
          "internalType": "address",
          "name": "beaconAddress",
          "type": "address"
        }
      ],
      "name": "configureBeacon",
      "outputs": [],
      "stateMutability": "nonpayable",
      "type": "function"
    },
    {
      "inputs": [
        {
          "internalType": "string",
          "name": "",
          "type": "string"
        }
      ],
      "name": "contractBeacons",
      "outputs": [
        {
          "internalType": "address",
          "name": "",
          "type": "address"
        }
      ],
      "stateMutability": "view",
      "type": "function"
    },
    {
      "inputs": [
        {
          "internalType": "uint256",
          "name": "",
          "type": "uint256"
        }
      ],
      "name": "contractTypes",
      "outputs": [
        {
          "internalType": "string",
          "name": "",
          "type": "string"
        }
      ],
      "stateMutability": "view",
      "type": "function"
    },
    {
      "inputs": [
        {
          "components": [
            {
              "internalType": "string",
              "name": "contractType",
              "type": "string"
            },
            {
              "internalType": "bytes",
              "name": "initializerData",
              "type": "bytes"
            }
          ],
          "internalType": "struct DeploymentData[]",
          "name": "deployments",
          "type": "tuple[]"
        }
      ],
      "name": "deployAllContracts",
      "outputs": [
        {
          "internalType": "address[]",
          "name": "",
          "type": "address[]"
        }
      ],
      "stateMutability": "nonpayable",
      "type": "function"
    },
    {
      "inputs": [
        {
          "internalType": "string",
          "name": "contractType",
          "type": "string"
        },
        {
          "internalType": "bytes",
          "name": "initializerData",
          "type": "bytes"
        }
      ],
      "name": "deployBeaconProxy",
      "outputs": [
        {
          "internalType": "address",
          "name": "",
          "type": "address"
        }
      ],
      "stateMutability": "nonpayable",
      "type": "function"
    },
    {
      "inputs": [
        {
          "internalType": "string",
          "name": "contractType",
          "type": "string"
        }
      ],
      "name": "findDeployedContract",
      "outputs": [
        {
          "internalType": "address",
          "name": "",
          "type": "address"
        }
      ],
      "stateMutability": "view",
      "type": "function"
    },
    {
      "inputs": [],
      "name": "getConfiguredContractTypes",
      "outputs": [
        {
          "internalType": "string[]",
          "name": "",
          "type": "string[]"
        }
      ],
      "stateMutability": "view",
      "type": "function"
    },
    {
      "inputs": [],
      "name": "getDeployedContracts",
      "outputs": [
        {
          "components": [
            {
              "internalType": "string",
              "name": "contractType",
              "type": "string"
            },
            {
              "internalType": "address",
              "name": "contractAddress",
              "type": "address"
            }
          ],
          "internalType": "struct Officer.DeployedContract[]",
          "name": "",
          "type": "tuple[]"
        }
      ],
      "stateMutability": "view",
      "type": "function"
    },
    {
      "inputs": [],
      "name": "getFeeCollector",
      "outputs": [
        {
          "internalType": "address",
          "name": "",
          "type": "address"
        }
      ],
      "stateMutability": "view",
      "type": "function"
    },
    {
      "inputs": [
        {
          "internalType": "string",
          "name": "contractType",
          "type": "string"
        }
      ],
      "name": "getFeeFor",
      "outputs": [
        {
          "internalType": "uint16",
          "name": "",
          "type": "uint16"
        }
      ],
      "stateMutability": "view",
      "type": "function"
    },
    {
      "inputs": [],
      "name": "getTeam",
      "outputs": [
        {
          "components": [
            {
              "internalType": "string",
              "name": "contractType",
              "type": "string"
            },
            {
              "internalType": "address",
              "name": "contractAddress",
              "type": "address"
            }
          ],
          "internalType": "struct Officer.DeployedContract[]",
          "name": "",
          "type": "tuple[]"
        }
      ],
      "stateMutability": "view",
      "type": "function"
    },
    {
      "inputs": [
        {
          "internalType": "address",
          "name": "_owner",
          "type": "address"
        },
        {
          "components": [
            {
              "internalType": "string",
              "name": "beaconType",
              "type": "string"
            },
            {
              "internalType": "address",
              "name": "beaconAddress",
              "type": "address"
            }
          ],
          "internalType": "struct Officer.BeaconConfig[]",
          "name": "beaconConfigs",
          "type": "tuple[]"
        },
        {
          "components": [
            {
              "internalType": "string",
              "name": "contractType",
              "type": "string"
            },
            {
              "internalType": "bytes",
              "name": "initializerData",
              "type": "bytes"
            }
          ],
          "internalType": "struct DeploymentData[]",
          "name": "_deployments",
          "type": "tuple[]"
        },
        {
          "internalType": "bool",
          "name": "_isDeployAllContracts",
          "type": "bool"
        }
      ],
      "name": "initialize",
      "outputs": [],
      "stateMutability": "nonpayable",
      "type": "function"
    },
    {
      "inputs": [
        {
          "internalType": "address",
          "name": "_tokenAddress",
          "type": "address"
        }
      ],
      "name": "isFeeCollectorToken",
      "outputs": [
        {
          "internalType": "bool",
          "name": "",
          "type": "bool"
        }
      ],
      "stateMutability": "view",
      "type": "function"
    },
    {
      "inputs": [],
      "name": "owner",
      "outputs": [
        {
          "internalType": "address",
          "name": "",
          "type": "address"
        }
      ],
      "stateMutability": "view",
      "type": "function"
    },
    {
      "inputs": [],
      "name": "pause",
      "outputs": [],
      "stateMutability": "nonpayable",
      "type": "function"
    },
    {
      "inputs": [],
      "name": "paused",
      "outputs": [
        {
          "internalType": "bool",
          "name": "",
          "type": "bool"
        }
      ],
      "stateMutability": "view",
      "type": "function"
    },
    {
      "inputs": [],
      "name": "renounceOwnership",
      "outputs": [],
      "stateMutability": "nonpayable",
      "type": "function"
    },
    {
      "inputs": [
        {
          "internalType": "address",
          "name": "newOwner",
          "type": "address"
        }
      ],
      "name": "transferOwnership",
      "outputs": [],
      "stateMutability": "nonpayable",
      "type": "function"
    },
    {
      "inputs": [],
      "name": "unpause",
      "outputs": [],
      "stateMutability": "nonpayable",
      "type": "function"
    }
  ],
  "bytecode": "0x60a06040523480156200001157600080fd5b50604051620033a4380380620033a48339810160408190526200003491620000a1565b6001600160a01b0381166200008f5760405162461bcd60e51b815260206004820152601460248201527f496e76616c696420666565436f6c6c6563746f72000000000000000000000000604482015260640160405180910390fd5b6001600160a01b0316608052620000d3565b600060208284031215620000b457600080fd5b81516001600160a01b0381168114620000cc57600080fd5b9392505050565b6080516132a7620000fd6000396000818161018d0152818161081101526114c301526132a76000f3fe60806040523480156200001157600080fd5b5060043610620001395760003560e01c80638456cb5911620000bb578063aa9a068f116200007a578063aa9a068f146200029d578063bda8beab14620002a7578063caed96c614620002de578063e99548a51462000309578063f2fde38b146200032f57600080fd5b80638456cb5914620002335780638934332d146200023d5780638bce6edd14620002545780638da5cb5b146200026d57806395373b77146200027757600080fd5b80633f4ba83a11620001085780633f4ba83a14620001c95780635c975abb14620001d3578063715018a614620001f9578063799391f614620002035780637a54d570146200021c57600080fd5b8063028316c6146200013e57806310293394146200015757806312fde4b7146200018b578063237be9cb14620001b2575b600080fd5b620001556200014f366004620020eb565b62000346565b005b6200016e620001683660046200222e565b620004c6565b6040516001600160a01b0390911681526020015b60405180910390f35b7f00000000000000000000000000000000000000000000000000000000000000006200016e565b62000155620001c3366004620022d1565b6200056d565b62000155620006ba565b600080516020620032528339815191525460ff165b604051901515815260200162000182565b62000155620006e0565b6200020d620006f6565b604051620001829190620024a5565b620001e86200022d3660046200250d565b620007d9565b6200015562000885565b6200016e6200024e36600462002532565b620008a9565b6200025e62000e0f565b604051620001829190620025a4565b6200016e62000f14565b6200028e6200028836600462002629565b62000f42565b6040516200018291906200266e565b6200025e620013a4565b6200016e620002b83660046200222e565b80516020818301810180516000825292820191909301209152546001600160a01b031681565b620002f5620002ef3660046200222e565b620014a9565b60405161ffff909116815260200162000182565b620003206200031a366004620026bd565b6200153e565b604051620001829190620026d7565b62000155620003403660046200250d565b620015f3565b6200035062000f14565b6001600160a01b03163303620004635760006001600160a01b0316600084846040516200037f929190620026ec565b908152604051908190036020019020546001600160a01b031603620003de576001805480820182556000919091527fb10e2d527612073b26eecdfd717e6a320cf44b4afac2b0732d9fcbe2b7fa0cf601620003dc8385836200278c565b505b8060008484604051620003f3929190620026ec565b90815260405190819003602001812080546001600160a01b03939093166001600160a01b0319909316929092179091557f2881466ae3b4402eb0e3d707416581efa9ce464c26cca0b40d5b290f48a94e2290620004569085908590859062002882565b60405180910390a1505050565b60405162461bcd60e51b815260206004820152602d60248201527f596f7520617265206e6f7420617574686f72697a656420746f20706572666f7260448201526c36903a3434b99030b1ba34b7b760991b60648201526084015b60405180910390fd5b6000805b6002548110156200056457828051906020012060028281548110620004f357620004f3620028b0565b9060005260206000209060020201600001604051620005139190620028c6565b6040518091039020036200055b5760028181548110620005375762000537620028b0565b60009182526020909120600160029092020101546001600160a01b03169392505050565b600101620004ca565b50600092915050565b7ff0c57e16840df040f15088dc2f81fe391c3923bec73e23a9662efc9c229c6a008054600160401b810460ff1615906001600160401b0316600081158015620005b35750825b90506000826001600160401b03166001148015620005d05750303b155b905081158015620005df575080155b15620005fe5760405163f92ee8a960e01b815260040160405180910390fd5b845467ffffffffffffffff1916600117855583156200062957845460ff60401b1916600160401b1785555b620006348a62001637565b6200063e6200164c565b6200064862001660565b620006538962001674565b851562000667576200066788888c6200191f565b8315620006ae57845460ff60401b19168555604051600181527fc7f505b2f371ae2175ee4913f4499e1f2633a7b5936321eed1cdaeb6115181d29060200160405180910390a15b50505050505050505050565b620006c462000f14565b6001600160a01b031633036200046357620006de6200193c565b565b620006ea6200199f565b620006de6000620019d5565b60606001805480602002602001604051908101604052809291908181526020016000905b82821015620007d05783829060005260206000200180546200073c90620026fc565b80601f01602080910402602001604051908101604052809291908181526020018280546200076a90620026fc565b8015620007bb5780601f106200078f57610100808354040283529160200191620007bb565b820191906000526020600020905b8154815290600101906020018083116200079d57829003601f168201915b5050505050815260200190600101906200071a565b50505050905090565b60006001600160a01b038216620007f257506000919050565b6040516375151b6360e01b81526001600160a01b0383811660048301527f000000000000000000000000000000000000000000000000000000000000000016906375151b6390602401602060405180830381865afa15801562000859573d6000803e3d6000fd5b505050506040513d601f19601f820116820180604052508101906200087f919062002944565b92915050565b6200088f62000f14565b6001600160a01b031633036200046357620006de62001a46565b6000620008b562001a93565b620008bf62001ac6565b80620008dc575033620008d162000f14565b6001600160a01b0316145b620008fb5760405162461bcd60e51b8152600401620004bd9062002964565b60006001600160a01b0316600086866040516200091a929190620026ec565b908152604051908190036020019020546001600160a01b031603620009975760405162461bcd60e51b815260206004820152602c60248201527f426561636f6e206e6f7420636f6e6669677572656420666f722074686973206360448201526b6f6e7472616374207479706560a01b6064820152608401620004bd565b604080518082018252601081526f426f6172644f664469726563746f727360801b602090910152517ff1a08d73ffcd13e8240c82e3e89399af5f14314ed5d20cf2ad0e1edb868887c790620009f09087908790620026ec565b60405180910390200362000a185760405162461bcd60e51b8152600401620004bd90620029c1565b600080868660405162000a2d929190620026ec565b908152604051908190036020018120546001600160a01b0316908590859062000a569062002075565b62000a649392919062002a14565b604051809103906000f08015801562000a81573d6000803e3d6000fd5b506040805160606020601f8a018190040282018101835291810188815292935083926002928291908b908b908190850183828082843760009201829052509385525050506001600160a01b038516602092830152835460018101855593815220815191926002020190819062000af8908262002a44565b5060209190910151600190910180546001600160a01b0319166001600160a01b039092169190911790556040517f4da8c8e82a6cdcd021dddec73a637b429d2b0a9b303638f1258ff8a35c3e5d869062000b589089908990859062002882565b60405180910390a16040805180820182526009815268456c656374696f6e7360b81b602090910152517f7b73761da36b4cebe2053accba689012c2b87107cf729ae0feb5a5039e9a651a9062000bb29089908990620026ec565b60405180910390200362000e055760008060405162000be7906f426f6172644f664469726563746f727360801b815260100190565b9081526040805191829003602090810183205460018085528484019093526001600160a01b0316935060009291908083019080368337019050509050828160008151811062000c3a5762000c3a620028b0565b60200260200101906001600160a01b031690816001600160a01b0316815250508163a224cee760e01b8260405160240162000c7691906200266e565b60408051601f198184030181529181526020820180516001600160e01b03166001600160e01b031990941693909317909252905162000cb59062002075565b62000cc292919062002b10565b604051809103906000f08015801562000cdf573d6000803e3d6000fd5b50600380546001600160a01b03929092166001600160a01b0319909216821790556040805160808101825260109181019182526f426f6172644f664469726563746f727360801b60608201529081526020810191909152600280546001810182556000829052825191027f405787fa12a823e0f2b7631cc41b3ba8828b3321ca811111fa75cd3aa3bb5ace0190819062000d7a908262002a44565b50602091820151600190910180546001600160a01b0319166001600160a01b03928316179055600354604080518181526010918101919091526f426f6172644f664469726563746f727360801b60608201529116918101919091527f4da8c8e82a6cdcd021dddec73a637b429d2b0a9b303638f1258ff8a35c3e5d869060800160405180910390a150505b9695505050505050565b60606002805480602002602001604051908101604052809291908181526020016000905b82821015620007d0578382906000526020600020906002020160405180604001604052908160008201805462000e6990620026fc565b80601f016020809104026020016040519081016040528092919081815260200182805462000e9790620026fc565b801562000ee85780601f1062000ebc5761010080835404028352916020019162000ee8565b820191906000526020600020905b81548152906001019060200180831162000eca57829003601f168201915b50505091835250506001918201546001600160a01b031660209182015291835292909201910162000e33565b7f9016d09d72d40fdae2fd8ceac6b6234c7706214fd39c1cd1e609a0528c199300546001600160a01b031690565b606062000f4e62001a93565b62000f5862001ac6565b8062000f7557503362000f6a62000f14565b6001600160a01b0316145b62000f945760405162461bcd60e51b8152600401620004bd9062002964565b6000826001600160401b0381111562000fb15762000fb162002144565b60405190808252806020026020018201604052801562000fdb578160200160208202803683370190505b50905060005b8381101562001363576000858583818110620010015762001001620028b0565b905060200281019062001015919062002b36565b62001021908062002b57565b905011620010725760405162461bcd60e51b815260206004820152601d60248201527f436f6e747261637420747970652063616e6e6f7420626520656d7074790000006044820152606401620004bd565b6000858583818110620010895762001089620028b0565b90506020028101906200109d919062002b36565b620010ad90602081019062002b57565b905011858583818110620010c557620010c5620028b0565b9050602002810190620010d9919062002b36565b620010e5908062002b57565b604051602001620010f892919062002ba0565b60405160208183030381529060405290620011285760405162461bcd60e51b8152600401620004bd9190620026d7565b50600080868684818110620011415762001141620028b0565b905060200281019062001155919062002b36565b62001161908062002b57565b60405162001171929190620026ec565b908152604051908190036020019020546001600160a01b03161415858583818110620011a157620011a1620028b0565b9050602002810190620011b5919062002b36565b620011c1908062002b57565b604051602001620011d492919062002bd9565b60405160208183030381529060405290620012045760405162461bcd60e51b8152600401620004bd9190620026d7565b5060408051808201909152601081526f426f6172644f664469726563746f727360801b6020909101527ff1a08d73ffcd13e8240c82e3e89399af5f14314ed5d20cf2ad0e1edb868887c7858583818110620012635762001263620028b0565b905060200281019062001277919062002b36565b62001283908062002b57565b60405162001293929190620026ec565b604051809103902003620012bb5760405162461bcd60e51b8152600401620004bd90620029c1565b6200132d858583818110620012d457620012d4620028b0565b9050602002810190620012e8919062002b36565b620012f4908062002b57565b878785818110620013095762001309620028b0565b90506020028101906200131d919062002b36565b6200024e90602081019062002b57565b828281518110620013425762001342620028b0565b6001600160a01b039092166020928302919091019091015260010162000fe1565b507f72453f0cc824cbf9235c18779fbe40c5cfaaae4856d71c7364fc89250ef6695c816040516200139591906200266e565b60405180910390a19392505050565b60606002805480602002602001604051908101604052809291908181526020016000905b82821015620007d05783829060005260206000209060020201604051806040016040529081600082018054620013fe90620026fc565b80601f01602080910402602001604051908101604052809291908181526020018280546200142c90620026fc565b80156200147d5780601f1062001451576101008083540402835291602001916200147d565b820191906000526020600020905b8154815290600101906020018083116200145f57829003601f168201915b50505091835250506001918201546001600160a01b0316602091820152918352929092019101620013c8565b604051636576cb6360e11b81526000906001600160a01b037f0000000000000000000000000000000000000000000000000000000000000000169063caed96c690620014fa908590600401620026d7565b602060405180830381865afa15801562001518573d6000803e3d6000fd5b505050506040513d601f19601f820116820180604052508101906200087f919062002c12565b600181815481106200154f57600080fd5b9060005260206000200160009150905080546200156c90620026fc565b80601f01602080910402602001604051908101604052809291908181526020018280546200159a90620026fc565b8015620015eb5780601f10620015bf57610100808354040283529160200191620015eb565b820191906000526020600020905b815481529060010190602001808311620015cd57829003601f168201915b505050505081565b620015fd6200199f565b6001600160a01b0381166200162957604051631e4fbdf760e01b815260006004820152602401620004bd565b6200163481620019d5565b50565b6200164162001af5565b620016348162001b1d565b6200165662001af5565b620006de62001b27565b6200166a62001af5565b620006de62001b57565b60005b81518110156200191b5760006001600160a01b0316828281518110620016a157620016a1620028b0565b6020026020010151602001516001600160a01b031603620016fe5760405162461bcd60e51b8152602060048201526016602482015275496e76616c696420626561636f6e206164647265737360501b6044820152606401620004bd565b6000828281518110620017155762001715620028b0565b6020026020010151600001515111620017655760405162461bcd60e51b8152602060048201526011602482015270456d70747920626561636f6e207479706560781b6044820152606401620004bd565b60005b818110156200181157828181518110620017865762001786620028b0565b60200260200101516000015180519060200120838381518110620017ae57620017ae620028b0565b6020026020010151600001518051906020012003620018085760405162461bcd60e51b81526020600482015260156024820152744475706c696361746520626561636f6e207479706560581b6044820152606401620004bd565b60010162001768565b50818181518110620018275762001827620028b0565b60200260200101516020015160008383815181106200184a576200184a620028b0565b60200260200101516000015160405162001865919062002c38565b908152602001604051809103902060006101000a8154816001600160a01b0302191690836001600160a01b031602179055507f2881466ae3b4402eb0e3d707416581efa9ce464c26cca0b40d5b290f48a94e22828281518110620018cd57620018cd620028b0565b602002602001015160000151838381518110620018ee57620018ee620028b0565b6020026020010151602001516040516200190a92919062002c4c565b60405180910390a160010162001677565b5050565b6200192b838362000f42565b50620019378162001b7b565b505050565b6200194662002043565b60008051602062003252833981519152805460ff191681557f5db9ee0a495bf2e6ff9c91a7834c1ba4fdd244a5e8aa4e537bd38aeae4b073aa335b6040516001600160a01b03909116815260200160405180910390a150565b33620019aa62000f14565b6001600160a01b031614620006de5760405163118cdaa760e01b8152336004820152602401620004bd565b7f9016d09d72d40fdae2fd8ceac6b6234c7706214fd39c1cd1e609a0528c19930080546001600160a01b031981166001600160a01b03848116918217845560405192169182907f8be0079c531659141344cd1fd0a4f28419497f9722a3daafe3b4186f6b6457e090600090a3505050565b62001a5062001a93565b60008051602062003252833981519152805460ff191660011781557f62e78cea01bee320cd4e420270b5ea74000d11b0c9f74754ebdbfc544b05a2583362001981565b600080516020620032528339815191525460ff1615620006de5760405163d93c066560e01b815260040160405180910390fd5b7ff0c57e16840df040f15088dc2f81fe391c3923bec73e23a9662efc9c229c6a0054600160401b900460ff1690565b62001aff62001ac6565b620006de57604051631afcd79f60e31b815260040160405180910390fd5b620015fd62001af5565b62001b3162001af5565b60017f9b779b17422d0df92223018b32b4d1fa46e071723d6817e2486d003becc55f0055565b62001b6162001af5565b60008051602062003252833981519152805460ff19169055565b600062001bb66040518060400160405280601681526020017521b0b9b42932b6bab732b930ba34b7b722a4a81b989960511b815250620004c6565b9050600062001bee6040518060400160405280601181526020017029b0b332a232b837b9b4ba2937baba32b960791b815250620004c6565b9050600062001c1f6040518060400160405280600a815260200169496e766573746f72563160b01b815250620004c6565b90506001600160a01b03811662001c365750505050565b60008190506000816001600160a01b031663d53913936040518163ffffffff1660e01b8152600401602060405180830381865afa15801562001c7c573d6000803e3d6000fd5b505050506040513d601f19601f8201168201806040525081019062001ca2919062002c78565b90506000826001600160a01b031663a217fddf6040518163ffffffff1660e01b8152600401602060405180830381865afa15801562001ce5573d6000803e3d6000fd5b505050506040513d601f19601f8201168201806040525081019062001d0b919062002c78565b90506001600160a01b0386161562001e405760405163733c237d60e01b81526001600160a01b03858116600483015287919082169063733c237d90602401600060405180830381600087803b15801562001d6457600080fd5b505af115801562001d79573d6000803e3d6000fd5b505060405163f2fde38b60e01b81526001600160a01b038b811660048301528416925063f2fde38b9150602401600060405180830381600087803b15801562001dc157600080fd5b505af115801562001dd6573d6000803e3d6000fd5b5050604051632f2ff15d60e01b8152600481018690526001600160a01b038a8116602483015287169250632f2ff15d9150604401600060405180830381600087803b15801562001e2557600080fd5b505af115801562001e3a573d6000803e3d6000fd5b50505050505b6001600160a01b0385161562001f1557604051632f2ff15d60e01b8152600481018390526001600160a01b038681166024830152841690632f2ff15d90604401600060405180830381600087803b15801562001e9b57600080fd5b505af115801562001eb0573d6000803e3d6000fd5b505060405163f2fde38b60e01b81526001600160a01b038a811660048301528893508316915063f2fde38b90602401600060405180830381600087803b15801562001efa57600080fd5b505af115801562001f0f573d6000803e3d6000fd5b50505050505b604051632f2ff15d60e01b8152600481018390526001600160a01b038881166024830152841690632f2ff15d90604401600060405180830381600087803b15801562001f6057600080fd5b505af115801562001f75573d6000803e3d6000fd5b5050604051632f2ff15d60e01b8152600481018490526001600160a01b038a8116602483015286169250632f2ff15d9150604401600060405180830381600087803b15801562001fc457600080fd5b505af115801562001fd9573d6000803e3d6000fd5b505060405163f2fde38b60e01b81526001600160a01b038a811660048301528616925063f2fde38b9150602401600060405180830381600087803b1580156200202157600080fd5b505af115801562002036573d6000803e3d6000fd5b5050505050505050505050565b600080516020620032528339815191525460ff16620006de57604051638dfc202b60e01b815260040160405180910390fd5b6105bf8062002c9383390190565b60008083601f8401126200209657600080fd5b5081356001600160401b03811115620020ae57600080fd5b602083019150836020828501011115620020c757600080fd5b9250929050565b80356001600160a01b0381168114620020e657600080fd5b919050565b6000806000604084860312156200210157600080fd5b83356001600160401b038111156200211857600080fd5b620021268682870162002083565b90945092506200213b905060208501620020ce565b90509250925092565b634e487b7160e01b600052604160045260246000fd5b604080519081016001600160401b03811182821017156200217f576200217f62002144565b60405290565b604051601f8201601f191681016001600160401b0381118282101715620021b057620021b062002144565b604052919050565b600082601f830112620021ca57600080fd5b81356001600160401b03811115620021e657620021e662002144565b620021fb601f8201601f191660200162002185565b8181528460208386010111156200221157600080fd5b816020850160208301376000918101602001919091529392505050565b6000602082840312156200224157600080fd5b81356001600160401b038111156200225857600080fd5b6200226684828501620021b8565b949350505050565b60008083601f8401126200228157600080fd5b5081356001600160401b038111156200229957600080fd5b6020830191508360208260051b8501011115620020c757600080fd5b80151581146200163457600080fd5b8035620020e681620022b5565b600080600080600060808688031215620022ea57600080fd5b620022f586620020ce565b94506001600160401b0380602088013511156200231157600080fd5b6020870135870188601f8201126200232857600080fd5b81813511156200233c576200233c62002144565b6200234e6020823560051b0162002185565b81358082526020808301929160051b8401018b10156200236d57600080fd5b602083015b6020843560051b850101811015620024085784813511156200239357600080fd5b803584016040818e03601f19011215620023ac57600080fd5b620023b66200215a565b8660208301351115620023c857600080fd5b620023dc8e602080850135850101620021b8565b8152620023ec60408301620020ce565b6020820152808552505060208301925060208101905062002372565b509650505060408701358110156200241f57600080fd5b506200243287604088013588016200226e565b90935091506200244560608701620022c4565b90509295509295909350565b60005b838110156200246e57818101518382015260200162002454565b50506000910152565b600081518084526200249181602086016020860162002451565b601f01601f19169290920160200192915050565b600060208083016020845280855180835260408601915060408160051b87010192506020870160005b828110156200250057603f19888603018452620024ed85835162002477565b94509285019290850190600101620024ce565b5092979650505050505050565b6000602082840312156200252057600080fd5b6200252b82620020ce565b9392505050565b600080600080604085870312156200254957600080fd5b84356001600160401b03808211156200256157600080fd5b6200256f8883890162002083565b909650945060208701359150808211156200258957600080fd5b50620025988782880162002083565b95989497509550505050565b600060208083018184528085518083526040925060408601915060408160051b87010184880160005b838110156200261b57888303603f1901855281518051878552620025f48886018262002477565b918901516001600160a01b03169489019490945294870194925090860190600101620025cd565b509098975050505050505050565b600080602083850312156200263d57600080fd5b82356001600160401b038111156200265457600080fd5b62002662858286016200226e565b90969095509350505050565b6020808252825182820181905260009190848201906040850190845b81811015620026b15783516001600160a01b0316835292840192918401916001016200268a565b50909695505050505050565b600060208284031215620026d057600080fd5b5035919050565b6020815260006200252b602083018462002477565b8183823760009101908152919050565b600181811c908216806200271157607f821691505b6020821081036200273257634e487b7160e01b600052602260045260246000fd5b50919050565b601f82111562001937576000816000526020600020601f850160051c81016020861015620027635750805b601f850160051c820191505b8181101562002784578281556001016200276f565b505050505050565b6001600160401b03831115620027a657620027a662002144565b620027be83620027b78354620026fc565b8362002738565b6000601f841160018114620027f55760008515620027dc5750838201355b600019600387901b1c1916600186901b17835562002852565b600083815260209020601f19861690835b8281101562002828578685013582556020948501946001909201910162002806565b5086821015620028465760001960f88860031b161c19848701351681555b505060018560011b0183555b5050505050565b81835281816020850137506000828201602090810191909152601f909101601f19169091010190565b6040815260006200289860408301858762002859565b905060018060a01b0383166020830152949350505050565b634e487b7160e01b600052603260045260246000fd5b6000808354620028d681620026fc565b60018281168015620028f15760018114620029075762002938565b60ff198416875282151583028701945062002938565b8760005260208060002060005b858110156200292f5781548a82015290840190820162002914565b50505082870194505b50929695505050505050565b6000602082840312156200295757600080fd5b81516200252b81620022b5565b60208082526037908201527f43616c6c6572206973206e6f7420616e206f776e657220616e6420636f6e747260408201527f616374206973206e6f7420696e697469616c697a696e67000000000000000000606082015260800190565b60208082526033908201527f426f6172644f664469726563746f7273206d757374206265206465706c6f796560408201527264207468726f75676820456c656374696f6e7360681b606082015260800190565b6001600160a01b038416815260406020820181905260009062002a3b908301848662002859565b95945050505050565b81516001600160401b0381111562002a605762002a6062002144565b62002a788162002a718454620026fc565b8462002738565b602080601f83116001811462002ab0576000841562002a975750858301515b600019600386901b1c1916600185901b17855562002784565b600085815260208120601f198616915b8281101562002ae15788860151825594840194600190910190840162002ac0565b508582101562002b005787850151600019600388901b60f8161c191681555b5050505050600190811b01905550565b6001600160a01b0383168152604060208201819052600090620022669083018462002477565b60008235603e1983360301811262002b4d57600080fd5b9190910192915050565b6000808335601e1984360301811262002b6f57600080fd5b8301803591506001600160401b0382111562002b8a57600080fd5b602001915036819003821315620020c757600080fd5b7f4d697373696e6720696e697469616c697a6572206461746120666f722000000081528183601d83013760009101601d01908152919050565b7f426561636f6e206e6f7420636f6e6669677572656420666f722000000000000081528183601a83013760009101601a01908152919050565b60006020828403121562002c2557600080fd5b815161ffff811681146200252b57600080fd5b6000825162002b4d81846020870162002451565b60408152600062002c61604083018562002477565b905060018060a01b03831660208301529392505050565b60006020828403121562002c8b57600080fd5b505191905056fe60a06040526040516105bf3803806105bf83398101604081905261002291610387565b61002c828261003e565b506001600160a01b031660805261047e565b610047826100fe565b6040516001600160a01b038316907f1cf3b03a6cf19fa2baba4df148e9dcabedea7f8a5c07840e207e5c089be95d3e90600090a28051156100f2576100ed826001600160a01b0316635c60da1b6040518163ffffffff1660e01b8152600401602060405180830381865afa1580156100c3573d6000803e3d6000fd5b505050506040513d601f19601f820116820180604052508101906100e79190610447565b82610211565b505050565b6100fa610288565b5050565b806001600160a01b03163b60000361013957604051631933b43b60e21b81526001600160a01b03821660048201526024015b60405180910390fd5b807fa3f0ad74e5423aebfd80d3ef4346578335a9a72aeaee59ff6cb3582b35133d5080546001600160a01b0319166001600160a01b0392831617905560408051635c60da1b60e01b81529051600092841691635c60da1b9160048083019260209291908290030181865afa1580156101b5573d6000803e3d6000fd5b505050506040513d601f19601f820116820180604052508101906101d99190610447565b9050806001600160a01b03163b6000036100fa57604051634c9c8ce360e01b81526001600160a01b0382166004820152602401610130565b6060600080846001600160a01b03168460405161022e9190610462565b600060405180830381855af49150503d8060008114610269576040519150601f19603f3d011682016040523d82523d6000602084013e61026e565b606091505b50909250905061027f8583836102a9565b95945050505050565b34156102a75760405163b398979f60e01b815260040160405180910390fd5b565b6060826102be576102b982610308565b610301565b81511580156102d557506001600160a01b0384163b155b156102fe57604051639996b31560e01b81526001600160a01b0385166004820152602401610130565b50805b9392505050565b8051156103185780518082602001fd5b60405163d6bda27560e01b815260040160405180910390fd5b80516001600160a01b038116811461034857600080fd5b919050565b634e487b7160e01b600052604160045260246000fd5b60005b8381101561037e578181015183820152602001610366565b50506000910152565b6000806040838503121561039a57600080fd5b6103a383610331565b60208401519092506001600160401b03808211156103c057600080fd5b818501915085601f8301126103d457600080fd5b8151818111156103e6576103e661034d565b604051601f8201601f19908116603f0116810190838211818310171561040e5761040e61034d565b8160405282815288602084870101111561042757600080fd5b610438836020830160208801610363565b80955050505050509250929050565b60006020828403121561045957600080fd5b61030182610331565b60008251610474818460208701610363565b9190910192915050565b6080516101276104986000396000601e01526101276000f3fe6080604052600a600c565b005b60186014601a565b60a0565b565b60007f00000000000000000000000000000000000000000000000000000000000000006001600160a01b0316635c60da1b6040518163ffffffff1660e01b8152600401602060405180830381865afa1580156079573d6000803e3d6000fd5b505050506040513d601f19601f82011682018060405250810190609b919060c3565b905090565b3660008037600080366000845af43d6000803e80801560be573d6000f35b3d6000fd5b60006020828403121560d457600080fd5b81516001600160a01b038116811460ea57600080fd5b939250505056fea26469706673582212200b958117c11058dcd9f2a5b7bc8f74bb0c167bdf3f2c9517af8cd5fbe6487db964736f6c63430008180033cd5ed15c6e187e77e9aee88184c21f4f2182ab5827cb3b7e07fbedcd63f03300a264697066735822122070ed7011d6d252b76af9d493e1b2b78509b84074ccfe2062e4d7f4ba82aaca2264736f6c63430008180033",
  "linkReferences": {},
  "deployedLinkReferences": {}
}