{
  "_format": "hh-sol-artifact-1",
  "contractName": "Officer",
  "sourceName": "contracts/Officer.sol",
  "abi": [
    {
      "inputs": [],
      "name": "EnforcedPause",
      "type": "error"
    },
    {
      "inputs": [],
      "name": "ExpectedPause",
      "type": "error"
    },
    {
      "inputs": [],
      "name": "InvalidInitialization",
      "type": "error"
    },
    {
      "inputs": [],
      "name": "NotInitializing",
      "type": "error"
    },
    {
      "inputs": [
        {
          "internalType": "address",
          "name": "owner",
          "type": "address"
        }
      ],
      "name": "OwnableInvalidOwner",
      "type": "error"
    },
    {
      "inputs": [
        {
          "internalType": "address",
          "name": "account",
          "type": "address"
        }
      ],
      "name": "OwnableUnauthorizedAccount",
      "type": "error"
    },
    {
      "inputs": [],
      "name": "ReentrancyGuardReentrantCall",
      "type": "error"
    },
    {
      "anonymous": false,
      "inputs": [
        {
          "indexed": false,
          "internalType": "string",
          "name": "contractType",
          "type": "string"
        },
        {
          "indexed": false,
          "internalType": "address",
          "name": "contractAddress",
          "type": "address"
        }
      ],
      "name": "ContractDeployed",
      "type": "event"
    },
    {
      "anonymous": false,
      "inputs": [
        {
          "indexed": false,
          "internalType": "uint64",
          "name": "version",
          "type": "uint64"
        }
      ],
      "name": "Initialized",
      "type": "event"
    },
    {
      "anonymous": false,
      "inputs": [
        {
          "indexed": true,
          "internalType": "address",
          "name": "previousOwner",
          "type": "address"
        },
        {
          "indexed": true,
          "internalType": "address",
          "name": "newOwner",
          "type": "address"
        }
      ],
      "name": "OwnershipTransferred",
      "type": "event"
    },
    {
      "anonymous": false,
      "inputs": [
        {
          "indexed": false,
          "internalType": "address",
          "name": "account",
          "type": "address"
        }
      ],
      "name": "Paused",
      "type": "event"
    },
    {
      "anonymous": false,
      "inputs": [
        {
          "indexed": false,
          "internalType": "address[]",
          "name": "founders",
          "type": "address[]"
        },
        {
          "indexed": false,
          "internalType": "address[]",
          "name": "members",
          "type": "address[]"
        }
      ],
      "name": "TeamCreated",
      "type": "event"
    },
    {
      "anonymous": false,
      "inputs": [
        {
          "indexed": false,
          "internalType": "address",
          "name": "account",
          "type": "address"
        }
      ],
      "name": "Unpaused",
      "type": "event"
    },
    {
      "inputs": [],
      "name": "bankAccountBeacon",
      "outputs": [
        {
          "internalType": "address",
          "name": "",
          "type": "address"
        }
      ],
      "stateMutability": "view",
      "type": "function"
    },
    {
      "inputs": [],
      "name": "bodContractBeacon",
      "outputs": [
        {
          "internalType": "address",
          "name": "",
          "type": "address"
        }
      ],
      "stateMutability": "view",
      "type": "function"
    },
    {
      "inputs": [
        {
          "internalType": "address[]",
          "name": "_founders",
          "type": "address[]"
        },
        {
          "internalType": "address[]",
          "name": "_members",
          "type": "address[]"
        }
      ],
      "name": "createTeam",
      "outputs": [],
      "stateMutability": "nonpayable",
      "type": "function"
    },
    {
      "inputs": [
        {
          "internalType": "address",
          "name": "tipsAddress",
          "type": "address"
        }
      ],
      "name": "deployBankAccount",
      "outputs": [],
      "stateMutability": "nonpayable",
      "type": "function"
    },
    {
      "inputs": [],
      "name": "deployExpenseAccount",
      "outputs": [],
      "stateMutability": "nonpayable",
      "type": "function"
    },
    {
      "inputs": [],
      "name": "deployVotingContract",
      "outputs": [],
      "stateMutability": "nonpayable",
      "type": "function"
    },
    {
      "inputs": [],
      "name": "expenseAccountBeacon",
      "outputs": [
        {
          "internalType": "address",
          "name": "",
          "type": "address"
        }
      ],
      "stateMutability": "view",
      "type": "function"
    },
    {
      "inputs": [],
      "name": "getTeam",
      "outputs": [
        {
          "internalType": "address[]",
          "name": "",
          "type": "address[]"
        },
        {
          "internalType": "address[]",
          "name": "",
          "type": "address[]"
        },
        {
          "internalType": "address",
          "name": "",
          "type": "address"
        },
        {
          "internalType": "address",
          "name": "",
          "type": "address"
        },
        {
          "internalType": "address",
          "name": "",
          "type": "address"
        },
        {
          "internalType": "address",
          "name": "",
          "type": "address"
        }
      ],
      "stateMutability": "view",
      "type": "function"
    },
    {
      "inputs": [
        {
          "internalType": "address",
          "name": "owner",
          "type": "address"
        },
        {
          "internalType": "address",
          "name": "_bankAccountBeacon",
          "type": "address"
        },
        {
          "internalType": "address",
          "name": "_votingContractBeacon",
          "type": "address"
        },
        {
          "internalType": "address",
          "name": "_bodContractBeacon",
          "type": "address"
        },
        {
          "internalType": "address",
          "name": "_expenseAccountBeacon",
          "type": "address"
        }
      ],
      "name": "initialize",
      "outputs": [],
      "stateMutability": "nonpayable",
      "type": "function"
    },
    {
      "inputs": [],
      "name": "owner",
      "outputs": [
        {
          "internalType": "address",
          "name": "",
          "type": "address"
        }
      ],
      "stateMutability": "view",
      "type": "function"
    },
    {
      "inputs": [],
      "name": "pause",
      "outputs": [],
      "stateMutability": "nonpayable",
      "type": "function"
    },
    {
      "inputs": [],
      "name": "paused",
      "outputs": [
        {
          "internalType": "bool",
          "name": "",
          "type": "bool"
        }
      ],
      "stateMutability": "view",
      "type": "function"
    },
    {
      "inputs": [],
      "name": "renounceOwnership",
      "outputs": [],
      "stateMutability": "nonpayable",
      "type": "function"
    },
    {
      "inputs": [
        {
          "internalType": "address",
          "name": "newOwner",
          "type": "address"
        }
      ],
      "name": "transferOwnership",
      "outputs": [],
      "stateMutability": "nonpayable",
      "type": "function"
    },
    {
      "inputs": [
        {
          "internalType": "address",
          "name": "newOwner",
          "type": "address"
        }
      ],
      "name": "transferOwnershipToBOD",
      "outputs": [],
      "stateMutability": "nonpayable",
      "type": "function"
    },
    {
      "inputs": [],
      "name": "unpause",
      "outputs": [],
      "stateMutability": "nonpayable",
      "type": "function"
    },
    {
      "inputs": [],
      "name": "votingContractBeacon",
      "outputs": [
        {
          "internalType": "address",
          "name": "",
          "type": "address"
        }
      ],
      "stateMutability": "view",
      "type": "function"
    }
  ],
  "bytecode": "0x608060405234801561001057600080fd5b506120c6806100206000396000f3fe60806040523480156200001157600080fd5b5060043610620001215760003560e01c80638456cb5911620000af578063d2d7b54a116200007a578063d2d7b54a1462000224578063ec12649a146200023b578063eec7285c146200024f578063f2fde38b1462000259578063f37606b5146200027057600080fd5b80638456cb5914620001de5780638bce6edd14620001e85780638da5cb5b1462000206578063abbb9720146200021057600080fd5b80635c975abb11620000f05780635c975abb146200018e5780636324bef214620001b3578063658e515514620001ca578063715018a614620001d457600080fd5b80630346a03c14620001265780631459457a146200015757806316e0e94e14620001705780633f4ba83a1462000184575b600080fd5b6007546200013a906001600160a01b031681565b6040516001600160a01b0390911681526020015b60405180910390f35b6200016e6200016836600462001644565b62000287565b005b6009546200013a906001600160a01b031681565b6200016e62000401565b600080516020620020718339815191525460ff1660405190151581526020016200014e565b6200016e620001c4366004620016b4565b620004e1565b6200016e62000542565b6200016e62000a90565b6200016e62000aa6565b620001f262000b1d565b6040516200014e9695949392919062001720565b6200013a62000c20565b6008546200013a906001600160a01b031681565b6200016e6200023536600462001844565b62000c4e565b6006546200013a906001600160a01b031681565b6200016e62000eb9565b6200016e6200026a366004620016b4565b620010c1565b6200016e62000281366004620016b4565b62001102565b7ff0c57e16840df040f15088dc2f81fe391c3923bec73e23a9662efc9c229c6a008054600160401b810460ff16159067ffffffffffffffff16600081158015620002ce5750825b905060008267ffffffffffffffff166001148015620002ec5750303b155b905081158015620002fb575080155b156200031a5760405163f92ee8a960e01b815260040160405180910390fd5b845467ffffffffffffffff1916600117855583156200034557845460ff60401b1916600160401b1785555b620003508a6200137d565b6200035a62001392565b62000364620013a6565b600680546001600160a01b03808c166001600160a01b031992831617909255600780548b8416908316179055600880548a841690831617905560098054928916929091169190911790558315620003f557845460ff60401b19168555604051600181527fc7f505b2f371ae2175ee4913f4499e1f2633a7b5936321eed1cdaeb6115181d29060200160405180910390a15b50505050505050505050565b6200040b62000c20565b6001600160a01b03163303620004275762000425620013ba565b565b60005b6000548110156200047d57600081815481106200044b576200044b620018af565b6000918252602090912001546001600160a01b03163303620004745762000471620013ba565b50565b6001016200042a565b5060405162461bcd60e51b815260206004820152602d60248201527f596f7520617265206e6f7420617574686f72697a656420746f20706572666f7260448201526c36903a3434b99030b1ba34b7b760991b60648201526084015b60405180910390fd5b620004eb62001418565b620004f681620010c1565b806001600160a01b03166200050a62000c20565b6001600160a01b03167f8be0079c531659141344cd1fd0a4f28419497f9722a3daafe3b4186f6b6457e060405160405180910390a350565b6200054c62000c20565b6001600160a01b03163303620007d1576200056662001418565b600754604080513360248083019190915282518083039091018152604490910182526020810180516001600160e01b031663189acdbd60e31b17905290516000926001600160a01b03169190620005bd9062001619565b620005ca929190620018c5565b604051809103906000f080158015620005e7573d6000803e3d6000fd5b50600380546001600160a01b0319166001600160a01b038316908117909155604051919250600080516020620020518339815191529162000629919062001926565b60405180910390a160408051600180825281830190925260009160208083019080368337505060035482519293506001600160a01b031691839150600090620006765762000676620018af565b6001600160a01b039283166020918202929092010152600854604051600092919091169063a224cee760e01b90620006b39085906024016200195f565b60408051601f198184030181529181526020820180516001600160e01b03166001600160e01b0319909416939093179092529051620006f29062001619565b620006ff929190620018c5565b604051809103906000f0801580156200071c573d6000803e3d6000fd5b50600480546001600160a01b0319166001600160a01b03838116918217835560035460405163ec17219360e01b8152938401929092529293509091169063ec17219390602401600060405180830381600087803b1580156200077d57600080fd5b505af115801562000792573d6000803e3d6000fd5b5050600454604051600080516020620020518339815191529350620007c492506001600160a01b039091169062001974565b60405180910390a1505050565b60005b6000548110156200047d5760008181548110620007f557620007f5620018af565b6000918252602090912001546001600160a01b0316330362000a87576200081b62001418565b600754604080513360248083019190915282518083039091018152604490910182526020810180516001600160e01b031663189acdbd60e31b17905290516000926001600160a01b03169190620008729062001619565b6200087f929190620018c5565b604051809103906000f0801580156200089c573d6000803e3d6000fd5b50600380546001600160a01b0319166001600160a01b0383169081179091556040519192506000805160206200205183398151915291620008de919062001926565b60405180910390a160408051600180825281830190925260009160208083019080368337505060035482519293506001600160a01b0316918391506000906200092b576200092b620018af565b6001600160a01b039283166020918202929092010152600854604051600092919091169063a224cee760e01b90620009689085906024016200195f565b60408051601f198184030181529181526020820180516001600160e01b03166001600160e01b0319909416939093179092529051620009a79062001619565b620009b4929190620018c5565b604051809103906000f080158015620009d1573d6000803e3d6000fd5b50600480546001600160a01b0319166001600160a01b03838116918217835560035460405163ec17219360e01b8152938401929092529293509091169063ec17219390602401600060405180830381600087803b15801562000a3257600080fd5b505af115801562000a47573d6000803e3d6000fd5b505060045460405160008051602062002051833981519152935062000a7992506001600160a01b039091169062001974565b60405180910390a150505050565b600101620007d4565b62000a9a6200144b565b62000425600062001481565b62000ab062000c20565b6001600160a01b0316330362000aca5762000425620014f2565b60005b6000548110156200047d576000818154811062000aee5762000aee620018af565b6000918252602090912001546001600160a01b0316330362000b145762000471620014f2565b60010162000acd565b60025460035460045460055460008054604080516020808402820181019092528281526060978897949687968796879687966001966001600160a01b0396871696938416958416949093169291889183018282801562000ba757602002820191906000526020600020905b81546001600160a01b0316815260019091019060200180831162000b88575b505050505095508480548060200260200160405190810160405280929190818152602001828054801562000c0557602002820191906000526020600020905b81546001600160a01b0316815260019091019060200180831162000be6575b50505050509450955095509550955095509550909192939495565b7f9016d09d72d40fdae2fd8ceac6b6234c7706214fd39c1cd1e609a0528c199300546001600160a01b031690565b62000c5862001418565b600082511162000cab5760405162461bcd60e51b815260206004820152601e60248201527f4d7573742068617665206174206c65617374206f6e6520666f756e64657200006044820152606401620004d8565b60005b825181101562000d955760006001600160a01b031683828151811062000cd85762000cd8620018af565b60200260200101516001600160a01b03160362000d385760405162461bcd60e51b815260206004820152601760248201527f496e76616c696420666f756e64657220616464726573730000000000000000006044820152606401620004d8565b600083828151811062000d4f5762000d4f620018af565b60209081029190910181015182546001808201855560009485529290932090920180546001600160a01b0319166001600160a01b03909316929092179091550162000cae565b5060005b815181101562000e795760006001600160a01b031682828151811062000dc35762000dc3620018af565b60200260200101516001600160a01b03160362000e1c5760405162461bcd60e51b8152602060048201526016602482015275496e76616c6964206d656d626572206164647265737360501b6044820152606401620004d8565b600182828151811062000e335762000e33620018af565b60209081029190910181015182546001808201855560009485529290932090920180546001600160a01b0319166001600160a01b03909316929092179091550162000d99565b507f14bbcd93381ec042bd0247a11fa75d4fef24b31e785ca44971c6fc162c4f05af828260405162000ead929190620019aa565b60405180910390a15050565b62000ec362000c20565b6001600160a01b0316330362000fab5762000edd62001418565b600954604080513360248083019190915282518083039091018152604490910182526020810180516001600160e01b031663189acdbd60e31b17905290516000926001600160a01b0316919062000f349062001619565b62000f41929190620018c5565b604051809103906000f08015801562000f5e573d6000803e3d6000fd5b50600580546001600160a01b0319166001600160a01b038316908117909155604051919250600080516020620020518339815191529162000fa09190620019dc565b60405180910390a150565b60005b6000548110156200047d576000818154811062000fcf5762000fcf620018af565b6000918252602090912001546001600160a01b03163303620010b85762000ff562001418565b600954604080513360248083019190915282518083039091018152604490910182526020810180516001600160e01b031663189acdbd60e31b17905290516000926001600160a01b031691906200104c9062001619565b62001059929190620018c5565b604051809103906000f08015801562001076573d6000803e3d6000fd5b50600580546001600160a01b0319166001600160a01b038316908117909155604051919250600080516020620020518339815191529162000ead9190620019dc565b60010162000fae565b620010cb6200144b565b6001600160a01b038116620010f757604051631e4fbdf760e01b815260006004820152602401620004d8565b620004718162001481565b6200110c62000c20565b6001600160a01b0316330362001228576200112662001418565b6002546001600160a01b031615620011525760405162461bcd60e51b8152600401620004d89062001a15565b6006546040516001600160a01b038381166024830152336044830152600092169063485cc95560e01b9060640160408051601f198184030181529181526020820180516001600160e01b03166001600160e01b0319909416939093179092529051620011be9062001619565b620011cb929190620018c5565b604051809103906000f080158015620011e8573d6000803e3d6000fd5b50600280546001600160a01b0319166001600160a01b038316179055604051909150600080516020620020518339815191529062000ead90839062001a5b565b60005b6000548110156200047d57600081815481106200124c576200124c620018af565b6000918252602090912001546001600160a01b0316330362001374576200127262001418565b6002546001600160a01b0316156200129e5760405162461bcd60e51b8152600401620004d89062001a15565b6006546040516001600160a01b038481166024830152336044830152600092169063485cc95560e01b9060640160408051601f198184030181529181526020820180516001600160e01b03166001600160e01b03199094169390931790925290516200130a9062001619565b62001317929190620018c5565b604051809103906000f08015801562001334573d6000803e3d6000fd5b50600280546001600160a01b0319166001600160a01b0383161790556040519091506000805160206200205183398151915290620007c490839062001a5b565b6001016200122b565b620013876200153f565b620004718162001589565b6200139c6200153f565b6200042562001593565b620013b06200153f565b62000425620015c3565b620013c4620015e7565b60008051602062002071833981519152805460ff191681557f5db9ee0a495bf2e6ff9c91a7834c1ba4fdd244a5e8aa4e537bd38aeae4b073aa335b6040516001600160a01b03909116815260200162000fa0565b600080516020620020718339815191525460ff1615620004255760405163d93c066560e01b815260040160405180910390fd5b336200145662000c20565b6001600160a01b031614620004255760405163118cdaa760e01b8152336004820152602401620004d8565b7f9016d09d72d40fdae2fd8ceac6b6234c7706214fd39c1cd1e609a0528c19930080546001600160a01b031981166001600160a01b03848116918217845560405192169182907f8be0079c531659141344cd1fd0a4f28419497f9722a3daafe3b4186f6b6457e090600090a3505050565b620014fc62001418565b60008051602062002071833981519152805460ff191660011781557f62e78cea01bee320cd4e420270b5ea74000d11b0c9f74754ebdbfc544b05a25833620013ff565b7ff0c57e16840df040f15088dc2f81fe391c3923bec73e23a9662efc9c229c6a0054600160401b900460ff166200042557604051631afcd79f60e31b815260040160405180910390fd5b620010cb6200153f565b6200159d6200153f565b60017f9b779b17422d0df92223018b32b4d1fa46e071723d6817e2486d003becc55f0055565b620015cd6200153f565b60008051602062002071833981519152805460ff19169055565b600080516020620020718339815191525460ff166200042557604051638dfc202b60e01b815260040160405180910390fd5b6105bf8062001a9283390190565b80356001600160a01b03811681146200163f57600080fd5b919050565b600080600080600060a086880312156200165d57600080fd5b620016688662001627565b9450620016786020870162001627565b9350620016886040870162001627565b9250620016986060870162001627565b9150620016a86080870162001627565b90509295509295909350565b600060208284031215620016c757600080fd5b620016d28262001627565b9392505050565b60008151808452602080850194506020840160005b83811015620017155781516001600160a01b031687529582019590820190600101620016ee565b509495945050505050565b60c0815260006200173560c0830189620016d9565b8281036020840152620017498189620016d9565b6001600160a01b03978816604085015295871660608401525050918416608083015290921660a09092019190915292915050565b634e487b7160e01b600052604160045260246000fd5b600082601f830112620017a557600080fd5b8135602067ffffffffffffffff80831115620017c557620017c56200177d565b8260051b604051601f19603f83011681018181108482111715620017ed57620017ed6200177d565b60405293845260208187018101949081019250878511156200180e57600080fd5b6020870191505b848210156200183957620018298262001627565b8352918301919083019062001815565b979650505050505050565b600080604083850312156200185857600080fd5b823567ffffffffffffffff808211156200187157600080fd5b6200187f8683870162001793565b935060208501359150808211156200189657600080fd5b50620018a58582860162001793565b9150509250929050565b634e487b7160e01b600052603260045260246000fd5b60018060a01b03831681526000602060406020840152835180604085015260005b818110156200190457858101830151858201606001528201620018e6565b506000606082860101526060601f19601f830116850101925050509392505050565b6040808252600e908201526d159bdd1a5b99d0dbdb9d1c9858dd60921b60608201526001600160a01b0391909116602082015260800190565b602081526000620016d26020830184620016d9565b6040808252600b908201526a109bd110dbdb9d1c9858dd60aa1b60608201526001600160a01b0391909116602082015260800190565b604081526000620019bf6040830185620016d9565b8281036020840152620019d38185620016d9565b95945050505050565b6040808252600e908201526d115e1c195b9cd95058d8dbdd5b9d60921b60608201526001600160a01b0391909116602082015260800190565b60208082526026908201527f42616e6b206163636f756e7420636f6e747261637420616c72656164792064656040820152651c1b1bde595960d21b606082015260800190565b6040808252600b908201526a10985b9ad058d8dbdd5b9d60aa1b60608201526001600160a01b039190911660208201526080019056fe60a06040526040516105bf3803806105bf83398101604081905261002291610387565b61002c828261003e565b506001600160a01b031660805261047e565b610047826100fe565b6040516001600160a01b038316907f1cf3b03a6cf19fa2baba4df148e9dcabedea7f8a5c07840e207e5c089be95d3e90600090a28051156100f2576100ed826001600160a01b0316635c60da1b6040518163ffffffff1660e01b8152600401602060405180830381865afa1580156100c3573d6000803e3d6000fd5b505050506040513d601f19601f820116820180604052508101906100e79190610447565b82610211565b505050565b6100fa610288565b5050565b806001600160a01b03163b60000361013957604051631933b43b60e21b81526001600160a01b03821660048201526024015b60405180910390fd5b807fa3f0ad74e5423aebfd80d3ef4346578335a9a72aeaee59ff6cb3582b35133d5080546001600160a01b0319166001600160a01b0392831617905560408051635c60da1b60e01b81529051600092841691635c60da1b9160048083019260209291908290030181865afa1580156101b5573d6000803e3d6000fd5b505050506040513d601f19601f820116820180604052508101906101d99190610447565b9050806001600160a01b03163b6000036100fa57604051634c9c8ce360e01b81526001600160a01b0382166004820152602401610130565b6060600080846001600160a01b03168460405161022e9190610462565b600060405180830381855af49150503d8060008114610269576040519150601f19603f3d011682016040523d82523d6000602084013e61026e565b606091505b50909250905061027f8583836102a9565b95945050505050565b34156102a75760405163b398979f60e01b815260040160405180910390fd5b565b6060826102be576102b982610308565b610301565b81511580156102d557506001600160a01b0384163b155b156102fe57604051639996b31560e01b81526001600160a01b0385166004820152602401610130565b50805b9392505050565b8051156103185780518082602001fd5b604051630a12f52160e11b815260040160405180910390fd5b80516001600160a01b038116811461034857600080fd5b919050565b634e487b7160e01b600052604160045260246000fd5b60005b8381101561037e578181015183820152602001610366565b50506000910152565b6000806040838503121561039a57600080fd5b6103a383610331565b60208401519092506001600160401b03808211156103c057600080fd5b818501915085601f8301126103d457600080fd5b8151818111156103e6576103e661034d565b604051601f8201601f19908116603f0116810190838211818310171561040e5761040e61034d565b8160405282815288602084870101111561042757600080fd5b610438836020830160208801610363565b80955050505050509250929050565b60006020828403121561045957600080fd5b61030182610331565b60008251610474818460208701610363565b9190910192915050565b6080516101276104986000396000601e01526101276000f3fe6080604052600a600c565b005b60186014601a565b60a0565b565b60007f00000000000000000000000000000000000000000000000000000000000000006001600160a01b0316635c60da1b6040518163ffffffff1660e01b8152600401602060405180830381865afa1580156079573d6000803e3d6000fd5b505050506040513d601f19601f82011682018060405250810190609b919060c3565b905090565b3660008037600080366000845af43d6000803e80801560be573d6000f35b3d6000fd5b60006020828403121560d457600080fd5b81516001600160a01b038116811460ea57600080fd5b939250505056fea264697066735822122038063abf0acf0012aa106601a36fadbbf1a7604cc3cbd26cfa83a39a16756e2164736f6c634300081800334da8c8e82a6cdcd021dddec73a637b429d2b0a9b303638f1258ff8a35c3e5d86cd5ed15c6e187e77e9aee88184c21f4f2182ab5827cb3b7e07fbedcd63f03300a26469706673582212202b1a5c9b4739c3900220dd7b7173eda0280190293bdc8ecfb99421c8f498365564736f6c63430008180033",
  "linkReferences": {},
  "deployedLinkReferences": {}
}