{
  "_format": "hh-sol-artifact-1",
  "contractName": "Officer",
  "sourceName": "contracts/Officer.sol",
  "abi": [
    {
      "inputs": [],
      "name": "EnforcedPause",
      "type": "error"
    },
    {
      "inputs": [],
      "name": "ExpectedPause",
      "type": "error"
    },
    {
      "inputs": [],
      "name": "InvalidInitialization",
      "type": "error"
    },
    {
      "inputs": [],
      "name": "NotInitializing",
      "type": "error"
    },
    {
      "inputs": [
        {
          "internalType": "address",
          "name": "owner",
          "type": "address"
        }
      ],
      "name": "OwnableInvalidOwner",
      "type": "error"
    },
    {
      "inputs": [
        {
          "internalType": "address",
          "name": "account",
          "type": "address"
        }
      ],
      "name": "OwnableUnauthorizedAccount",
      "type": "error"
    },
    {
      "inputs": [],
      "name": "ReentrancyGuardReentrantCall",
      "type": "error"
    },
    {
      "anonymous": false,
      "inputs": [
        {
          "indexed": false,
          "internalType": "string",
          "name": "contractType",
          "type": "string"
        },
        {
          "indexed": false,
          "internalType": "address",
          "name": "beaconAddress",
          "type": "address"
        }
      ],
      "name": "BeaconConfigured",
      "type": "event"
    },
    {
      "anonymous": false,
      "inputs": [
        {
          "indexed": false,
          "internalType": "address[]",
          "name": "beaconProxies",
          "type": "address[]"
        }
      ],
      "name": "BeaconProxiesDeployed",
      "type": "event"
    },
    {
      "anonymous": false,
      "inputs": [
        {
          "indexed": false,
          "internalType": "string",
          "name": "contractType",
          "type": "string"
        },
        {
          "indexed": false,
          "internalType": "address",
          "name": "deployedAddress",
          "type": "address"
        }
      ],
      "name": "ContractDeployed",
      "type": "event"
    },
    {
      "anonymous": false,
      "inputs": [
        {
          "indexed": false,
          "internalType": "uint64",
          "name": "version",
          "type": "uint64"
        }
      ],
      "name": "Initialized",
      "type": "event"
    },
    {
      "anonymous": false,
      "inputs": [
        {
          "indexed": true,
          "internalType": "address",
          "name": "previousOwner",
          "type": "address"
        },
        {
          "indexed": true,
          "internalType": "address",
          "name": "newOwner",
          "type": "address"
        }
      ],
      "name": "OwnershipTransferred",
      "type": "event"
    },
    {
      "anonymous": false,
      "inputs": [
        {
          "indexed": false,
          "internalType": "address",
          "name": "account",
          "type": "address"
        }
      ],
      "name": "Paused",
      "type": "event"
    },
    {
      "anonymous": false,
      "inputs": [
        {
          "indexed": false,
          "internalType": "address",
          "name": "account",
          "type": "address"
        }
      ],
      "name": "Unpaused",
      "type": "event"
    },
    {
      "inputs": [
        {
          "internalType": "string",
          "name": "contractType",
          "type": "string"
        },
        {
          "internalType": "address",
          "name": "beaconAddress",
          "type": "address"
        }
      ],
      "name": "configureBeacon",
      "outputs": [],
      "stateMutability": "nonpayable",
      "type": "function"
    },
    {
      "inputs": [
        {
          "internalType": "string",
          "name": "",
          "type": "string"
        }
      ],
      "name": "contractBeacons",
      "outputs": [
        {
          "internalType": "address",
          "name": "",
          "type": "address"
        }
      ],
      "stateMutability": "view",
      "type": "function"
    },
    {
      "inputs": [
        {
          "internalType": "uint256",
          "name": "",
          "type": "uint256"
        }
      ],
      "name": "contractTypes",
      "outputs": [
        {
          "internalType": "string",
          "name": "",
          "type": "string"
        }
      ],
      "stateMutability": "view",
      "type": "function"
    },
    {
      "inputs": [
        {
          "components": [
            {
              "internalType": "string",
              "name": "contractType",
              "type": "string"
            },
            {
              "internalType": "bytes",
              "name": "initializerData",
              "type": "bytes"
            }
          ],
          "internalType": "struct DeploymentData[]",
          "name": "deployments",
          "type": "tuple[]"
        }
      ],
      "name": "deployAllContracts",
      "outputs": [
        {
          "internalType": "address[]",
          "name": "",
          "type": "address[]"
        }
      ],
      "stateMutability": "nonpayable",
      "type": "function"
    },
    {
      "inputs": [
        {
          "internalType": "string",
          "name": "contractType",
          "type": "string"
        },
        {
          "internalType": "bytes",
          "name": "initializerData",
          "type": "bytes"
        }
      ],
      "name": "deployBeaconProxy",
      "outputs": [
        {
          "internalType": "address",
          "name": "",
          "type": "address"
        }
      ],
      "stateMutability": "nonpayable",
      "type": "function"
    },
    {
      "inputs": [
        {
          "internalType": "string",
          "name": "contractType",
          "type": "string"
        }
      ],
      "name": "findDeployedContract",
      "outputs": [
        {
          "internalType": "address",
          "name": "",
          "type": "address"
        }
      ],
      "stateMutability": "view",
      "type": "function"
    },
    {
      "inputs": [],
      "name": "getConfiguredContractTypes",
      "outputs": [
        {
          "internalType": "string[]",
          "name": "",
          "type": "string[]"
        }
      ],
      "stateMutability": "view",
      "type": "function"
    },
    {
      "inputs": [],
      "name": "getDeployedContracts",
      "outputs": [
        {
          "components": [
            {
              "internalType": "string",
              "name": "contractType",
              "type": "string"
            },
            {
              "internalType": "address",
              "name": "contractAddress",
              "type": "address"
            }
          ],
          "internalType": "struct Officer.DeployedContract[]",
          "name": "",
          "type": "tuple[]"
        }
      ],
      "stateMutability": "view",
      "type": "function"
    },
    {
      "inputs": [],
      "name": "getTeam",
      "outputs": [
        {
          "components": [
            {
              "internalType": "string",
              "name": "contractType",
              "type": "string"
            },
            {
              "internalType": "address",
              "name": "contractAddress",
              "type": "address"
            }
          ],
          "internalType": "struct Officer.DeployedContract[]",
          "name": "",
          "type": "tuple[]"
        }
      ],
      "stateMutability": "view",
      "type": "function"
    },
    {
      "inputs": [
        {
          "internalType": "address",
          "name": "_owner",
          "type": "address"
        },
        {
          "components": [
            {
              "internalType": "string",
              "name": "beaconType",
              "type": "string"
            },
            {
              "internalType": "address",
              "name": "beaconAddress",
              "type": "address"
            }
          ],
          "internalType": "struct Officer.BeaconConfig[]",
          "name": "beaconConfigs",
          "type": "tuple[]"
        },
        {
          "components": [
            {
              "internalType": "string",
              "name": "contractType",
              "type": "string"
            },
            {
              "internalType": "bytes",
              "name": "initializerData",
              "type": "bytes"
            }
          ],
          "internalType": "struct DeploymentData[]",
          "name": "_deployments",
          "type": "tuple[]"
        },
        {
          "internalType": "bool",
          "name": "_isDeployAllContracts",
          "type": "bool"
        }
      ],
      "name": "initialize",
      "outputs": [],
      "stateMutability": "nonpayable",
      "type": "function"
    },
    {
      "inputs": [],
      "name": "owner",
      "outputs": [
        {
          "internalType": "address",
          "name": "",
          "type": "address"
        }
      ],
      "stateMutability": "view",
      "type": "function"
    },
    {
      "inputs": [],
      "name": "pause",
      "outputs": [],
      "stateMutability": "nonpayable",
      "type": "function"
    },
    {
      "inputs": [],
      "name": "paused",
      "outputs": [
        {
          "internalType": "bool",
          "name": "",
          "type": "bool"
        }
      ],
      "stateMutability": "view",
      "type": "function"
    },
    {
      "inputs": [],
      "name": "renounceOwnership",
      "outputs": [],
      "stateMutability": "nonpayable",
      "type": "function"
    },
    {
      "inputs": [
        {
          "internalType": "address",
          "name": "newOwner",
          "type": "address"
        }
      ],
      "name": "transferOwnership",
      "outputs": [],
      "stateMutability": "nonpayable",
      "type": "function"
    },
    {
      "inputs": [],
      "name": "unpause",
      "outputs": [],
      "stateMutability": "nonpayable",
      "type": "function"
    }
  ],
  "bytecode": "0x608060405234801561001057600080fd5b506132aa806100206000396000f3fe60806040523480156200001157600080fd5b5060043610620001155760003560e01c80638934332d11620000a3578063aa9a068f116200006e578063aa9a068f146200023a578063bda8beab1462000244578063e99548a5146200027b578063f2fde38b14620002a157600080fd5b80638934332d14620001da5780638bce6edd14620001f15780638da5cb5b146200020a57806395373b77146200021457600080fd5b80635c975abb11620000e45780635c975abb1462000188578063715018a614620001ad578063799391f614620001b75780638456cb5914620001d057600080fd5b8063028316c6146200011a578063102933941462000133578063237be9cb14620001675780633f4ba83a146200017e575b600080fd5b620001316200012b3660046200213f565b620002b8565b005b6200014a6200014436600462002282565b62000438565b6040516001600160a01b0390911681526020015b60405180910390f35b62000131620001783660046200231a565b620004df565b620001316200062c565b600080516020620032558339815191525460ff1660405190151581526020016200015e565b6200013162000652565b620001c162000668565b6040516200015e9190620024ee565b620001316200074b565b6200014a620001eb36600462002556565b6200076f565b620001fb62000fff565b6040516200015e9190620025c8565b6200014a62001104565b6200022b620002253660046200264d565b62001132565b6040516200015e919062002692565b620001fb62001594565b6200014a6200025536600462002282565b80516020818301810180516000825292820191909301209152546001600160a01b031681565b620002926200028c366004620026e1565b62001699565b6040516200015e9190620026fb565b62000131620002b236600462002717565b6200174e565b620002c262001104565b6001600160a01b03163303620003d55760006001600160a01b031660008484604051620002f192919062002735565b908152604051908190036020019020546001600160a01b03160362000350576001805480820182556000919091527fb10e2d527612073b26eecdfd717e6a320cf44b4afac2b0732d9fcbe2b7fa0cf6016200034e838583620027d6565b505b80600084846040516200036592919062002735565b90815260405190819003602001812080546001600160a01b03939093166001600160a01b0319909316929092179091557f2881466ae3b4402eb0e3d707416581efa9ce464c26cca0b40d5b290f48a94e2290620003c890859085908590620028cb565b60405180910390a1505050565b60405162461bcd60e51b815260206004820152602d60248201527f596f7520617265206e6f7420617574686f72697a656420746f20706572666f7260448201526c36903a3434b99030b1ba34b7b760991b60648201526084015b60405180910390fd5b6000805b600254811015620004d657828051906020012060028281548110620004655762000465620028f9565b90600052602060002090600202016000016040516200048591906200290f565b604051809103902003620004cd5760028181548110620004a957620004a9620028f9565b60009182526020909120600160029092020101546001600160a01b03169392505050565b6001016200043c565b50600092915050565b7ff0c57e16840df040f15088dc2f81fe391c3923bec73e23a9662efc9c229c6a008054600160401b810460ff1615906001600160401b0316600081158015620005255750825b90506000826001600160401b03166001148015620005425750303b155b90508115801562000551575080155b15620005705760405163f92ee8a960e01b815260040160405180910390fd5b845467ffffffffffffffff1916600117855583156200059b57845460ff60401b1916600160401b1785555b620005a68a62001792565b620005b0620017a7565b620005ba620017bb565b620005c589620017cf565b8515620005d957620005d988888c62001a7a565b83156200062057845460ff60401b19168555604051600181527fc7f505b2f371ae2175ee4913f4499e1f2633a7b5936321eed1cdaeb6115181d29060200160405180910390a15b50505050505050505050565b6200063662001104565b6001600160a01b03163303620003d5576200065062001b30565b565b6200065c62001b93565b62000650600062001bc9565b60606001805480602002602001604051908101604052809291908181526020016000905b8282101562000742578382906000526020600020018054620006ae9062002745565b80601f0160208091040260200160405190810160405280929190818152602001828054620006dc9062002745565b80156200072d5780601f1062000701576101008083540402835291602001916200072d565b820191906000526020600020905b8154815290600101906020018083116200070f57829003601f168201915b5050505050815260200190600101906200068c565b50505050905090565b6200075562001104565b6001600160a01b03163303620003d5576200065062001c3a565b60006200077b62001c87565b6200078562001cba565b80620007a25750336200079762001104565b6001600160a01b0316145b620007c15760405162461bcd60e51b81526004016200042f906200298d565b60006001600160a01b031660008686604051620007e092919062002735565b908152604051908190036020019020546001600160a01b0316036200085d5760405162461bcd60e51b815260206004820152602c60248201527f426561636f6e206e6f7420636f6e6669677572656420666f722074686973206360448201526b6f6e7472616374207479706560a01b60648201526084016200042f565b604080518082018252601081526f426f6172644f664469726563746f727360801b602090910152517ff1a08d73ffcd13e8240c82e3e89399af5f14314ed5d20cf2ad0e1edb868887c790620008b6908790879062002735565b604051809103902003620008de5760405162461bcd60e51b81526004016200042f90620029ea565b6000808686604051620008f392919062002735565b908152604051908190036020018120546001600160a01b031690859085906200091c90620020c9565b6200092a9392919062002a3d565b604051809103906000f08015801562000947573d6000803e3d6000fd5b506040805160606020601f8a018190040282018101835291810188815292935083926002928291908b908b908190850183828082843760009201829052509385525050506001600160a01b0385166020928301528354600181018555938152208151919260020201908190620009be908262002a6d565b5060209190910151600190910180546001600160a01b0319166001600160a01b039092169190911790556040517f4da8c8e82a6cdcd021dddec73a637b429d2b0a9b303638f1258ff8a35c3e5d869062000a1e90899089908590620028cb565b60405180910390a16040805180820182526009815268456c656374696f6e7360b81b602090910152517f7b73761da36b4cebe2053accba689012c2b87107cf729ae0feb5a5039e9a651a9062000a78908990899062002735565b60405180910390200362000d315760008060405162000aad906f426f6172644f664469726563746f727360801b815260100190565b9081526040805191829003602090810183205460018085528484019093526001600160a01b0316935060009291908083019080368337019050509050828160008151811062000b005762000b00620028f9565b60200260200101906001600160a01b031690816001600160a01b0316815250508163a224cee760e01b8260405160240162000b3c919062002692565b60408051601f198184030181529181526020820180516001600160e01b03166001600160e01b031990941693909317909252905162000b7b90620020c9565b62000b8892919062002b39565b604051809103906000f08015801562000ba5573d6000803e3d6000fd5b50600380546001600160a01b03929092166001600160a01b0319909216821790556040805160808101825260109181019182526f426f6172644f664469726563746f727360801b60608201529081526020810191909152600280546001810182556000829052825191027f405787fa12a823e0f2b7631cc41b3ba8828b3321ca811111fa75cd3aa3bb5ace0190819062000c40908262002a6d565b50602091820151600190910180546001600160a01b0319166001600160a01b03928316179055600354604080518181526010918101919091526f426f6172644f664469726563746f727360801b60608201529116918101919091527f4da8c8e82a6cdcd021dddec73a637b429d2b0a9b303638f1258ff8a35c3e5d869060800160405180910390a160035460405163ec17219360e01b81526001600160a01b0391821660048201529084169063ec17219390602401600060405180830381600087803b15801562000d1057600080fd5b505af115801562000d25573d6000803e3d6000fd5b50505050505062000ff5565b604080518082018252600981526850726f706f73616c7360b81b602090910152517f6c70dab6b74662678d543199490709cc5f39e1c1ec2129fc70b370c6ea8b85da9062000d83908990899062002735565b60405180910390200362000df85760035460405163ec17219360e01b81526001600160a01b0391821660048201529082169063ec17219390602401600060405180830381600087803b15801562000dd957600080fd5b505af115801562000dee573d6000803e3d6000fd5b5050505062000ff5565b604080518082018252600481526342616e6b60e01b602090910152517fcd775f2396f9f13f12bcf8ca32e21df66559a8adc3944d0591127e7731f7ab859062000e45908990899062002735565b60405180910390200362000ef957600062000e826040518060400160405280600a815260200169496e766573746f72563160b01b81525062000438565b90506001600160a01b0381161562000ef257604051632130178f60e11b81526001600160a01b0382811660048301528316906342602f1e90602401600060405180830381600087803b15801562000ed857600080fd5b505af115801562000eed573d6000803e3d6000fd5b505050505b5062000ff5565b604080518082018252600a815269496e766573746f72563160b01b602090910152517fec2baf16bceb07d4a4231b3c9daf055277a30e12cf6f7faeafa9f6e56299da089062000f4c908990899062002735565b60405180910390200362000ff557600062000f836040518060400160405280600481526020016342616e6b60e01b81525062000438565b90506001600160a01b0381161562000ff357604051632130178f60e11b81526001600160a01b0383811660048301528216906342602f1e90602401600060405180830381600087803b15801562000fd957600080fd5b505af115801562000fee573d6000803e3d6000fd5b505050505b505b9695505050505050565b60606002805480602002602001604051908101604052809291908181526020016000905b82821015620007425783829060005260206000209060020201604051806040016040529081600082018054620010599062002745565b80601f0160208091040260200160405190810160405280929190818152602001828054620010879062002745565b8015620010d85780601f10620010ac57610100808354040283529160200191620010d8565b820191906000526020600020905b815481529060010190602001808311620010ba57829003601f168201915b50505091835250506001918201546001600160a01b031660209182015291835292909201910162001023565b7f9016d09d72d40fdae2fd8ceac6b6234c7706214fd39c1cd1e609a0528c199300546001600160a01b031690565b60606200113e62001c87565b6200114862001cba565b80620011655750336200115a62001104565b6001600160a01b0316145b620011845760405162461bcd60e51b81526004016200042f906200298d565b6000826001600160401b03811115620011a157620011a162002198565b604051908082528060200260200182016040528015620011cb578160200160208202803683370190505b50905060005b8381101562001553576000858583818110620011f157620011f1620028f9565b905060200281019062001205919062002b5f565b62001211908062002b80565b905011620012625760405162461bcd60e51b815260206004820152601d60248201527f436f6e747261637420747970652063616e6e6f7420626520656d70747900000060448201526064016200042f565b6000858583818110620012795762001279620028f9565b90506020028101906200128d919062002b5f565b6200129d90602081019062002b80565b905011858583818110620012b557620012b5620028f9565b9050602002810190620012c9919062002b5f565b620012d5908062002b80565b604051602001620012e892919062002bc9565b60405160208183030381529060405290620013185760405162461bcd60e51b81526004016200042f9190620026fb565b50600080868684818110620013315762001331620028f9565b905060200281019062001345919062002b5f565b62001351908062002b80565b6040516200136192919062002735565b908152604051908190036020019020546001600160a01b03161415858583818110620013915762001391620028f9565b9050602002810190620013a5919062002b5f565b620013b1908062002b80565b604051602001620013c492919062002c02565b60405160208183030381529060405290620013f45760405162461bcd60e51b81526004016200042f9190620026fb565b5060408051808201909152601081526f426f6172644f664469726563746f727360801b6020909101527ff1a08d73ffcd13e8240c82e3e89399af5f14314ed5d20cf2ad0e1edb868887c7858583818110620014535762001453620028f9565b905060200281019062001467919062002b5f565b62001473908062002b80565b6040516200148392919062002735565b604051809103902003620014ab5760405162461bcd60e51b81526004016200042f90620029ea565b6200151d858583818110620014c457620014c4620028f9565b9050602002810190620014d8919062002b5f565b620014e4908062002b80565b878785818110620014f957620014f9620028f9565b90506020028101906200150d919062002b5f565b620001eb90602081019062002b80565b828281518110620015325762001532620028f9565b6001600160a01b0390921660209283029190910190910152600101620011d1565b507f72453f0cc824cbf9235c18779fbe40c5cfaaae4856d71c7364fc89250ef6695c8160405162001585919062002692565b60405180910390a19392505050565b60606002805480602002602001604051908101604052809291908181526020016000905b82821015620007425783829060005260206000209060020201604051806040016040529081600082018054620015ee9062002745565b80601f01602080910402602001604051908101604052809291908181526020018280546200161c9062002745565b80156200166d5780601f1062001641576101008083540402835291602001916200166d565b820191906000526020600020905b8154815290600101906020018083116200164f57829003601f168201915b50505091835250506001918201546001600160a01b0316602091820152918352929092019101620015b8565b60018181548110620016aa57600080fd5b906000526020600020016000915090508054620016c79062002745565b80601f0160208091040260200160405190810160405280929190818152602001828054620016f59062002745565b8015620017465780601f106200171a5761010080835404028352916020019162001746565b820191906000526020600020905b8154815290600101906020018083116200172857829003601f168201915b505050505081565b6200175862001b93565b6001600160a01b0381166200178457604051631e4fbdf760e01b8152600060048201526024016200042f565b6200178f8162001bc9565b50565b6200179c62001ce9565b6200178f8162001d11565b620017b162001ce9565b6200065062001d1b565b620017c562001ce9565b6200065062001d4b565b60005b815181101562001a765760006001600160a01b0316828281518110620017fc57620017fc620028f9565b6020026020010151602001516001600160a01b031603620018595760405162461bcd60e51b8152602060048201526016602482015275496e76616c696420626561636f6e206164647265737360501b60448201526064016200042f565b6000828281518110620018705762001870620028f9565b6020026020010151600001515111620018c05760405162461bcd60e51b8152602060048201526011602482015270456d70747920626561636f6e207479706560781b60448201526064016200042f565b60005b818110156200196c57828181518110620018e157620018e1620028f9565b60200260200101516000015180519060200120838381518110620019095762001909620028f9565b6020026020010151600001518051906020012003620019635760405162461bcd60e51b81526020600482015260156024820152744475706c696361746520626561636f6e207479706560581b60448201526064016200042f565b600101620018c3565b50818181518110620019825762001982620028f9565b6020026020010151602001516000838381518110620019a557620019a5620028f9565b602002602001015160000151604051620019c0919062002c3b565b908152602001604051809103902060006101000a8154816001600160a01b0302191690836001600160a01b031602179055507f2881466ae3b4402eb0e3d707416581efa9ce464c26cca0b40d5b290f48a94e2282828151811062001a285762001a28620028f9565b60200260200101516000015183838151811062001a495762001a49620028f9565b60200260200101516020015160405162001a6592919062002c4f565b60405180910390a1600101620017d2565b5050565b62001a86838362001132565b50600062001ac26040518060400160405280601681526020017521b0b9b42932b6bab732b930ba34b7b722a4a81b989960511b81525062000438565b9050600062001af36040518060400160405280600a815260200169496e766573746f72563160b01b81525062000438565b90506001600160a01b0382161580159062001b1657506001600160a01b03811615155b1562001b295762001b2982828562001d6f565b5050505050565b62001b3a62002097565b60008051602062003255833981519152805460ff191681557f5db9ee0a495bf2e6ff9c91a7834c1ba4fdd244a5e8aa4e537bd38aeae4b073aa335b6040516001600160a01b03909116815260200160405180910390a150565b3362001b9e62001104565b6001600160a01b031614620006505760405163118cdaa760e01b81523360048201526024016200042f565b7f9016d09d72d40fdae2fd8ceac6b6234c7706214fd39c1cd1e609a0528c19930080546001600160a01b031981166001600160a01b03848116918217845560405192169182907f8be0079c531659141344cd1fd0a4f28419497f9722a3daafe3b4186f6b6457e090600090a3505050565b62001c4462001c87565b60008051602062003255833981519152805460ff191660011781557f62e78cea01bee320cd4e420270b5ea74000d11b0c9f74754ebdbfc544b05a2583362001b75565b600080516020620032558339815191525460ff1615620006505760405163d93c066560e01b815260040160405180910390fd5b7ff0c57e16840df040f15088dc2f81fe391c3923bec73e23a9662efc9c229c6a0054600160401b900460ff1690565b62001cf362001cba565b6200065057604051631afcd79f60e31b815260040160405180910390fd5b6200175862001ce9565b62001d2562001ce9565b60017f9b779b17422d0df92223018b32b4d1fa46e071723d6817e2486d003becc55f0055565b62001d5562001ce9565b60008051602062003255833981519152805460ff19169055565b60405163733c237d60e01b81526001600160a01b03838116600483015284919082169063733c237d90602401600060405180830381600087803b15801562001db657600080fd5b505af115801562001dcb573d6000803e3d6000fd5b505060405163f2fde38b60e01b81526001600160a01b0385811660048301528416925063f2fde38b9150602401600060405180830381600087803b15801562001e1357600080fd5b505af115801562001e28573d6000803e3d6000fd5b5050505060008390506000816001600160a01b031663d53913936040518163ffffffff1660e01b8152600401602060405180830381865afa15801562001e72573d6000803e3d6000fd5b505050506040513d601f19601f8201168201806040525081019062001e98919062002c7b565b90506000826001600160a01b031663a217fddf6040518163ffffffff1660e01b8152600401602060405180830381865afa15801562001edb573d6000803e3d6000fd5b505050506040513d601f19601f8201168201806040525081019062001f01919062002c7b565b604051632f2ff15d60e01b8152600481018490526001600160a01b03898116602483015291925090841690632f2ff15d90604401600060405180830381600087803b15801562001f5057600080fd5b505af115801562001f65573d6000803e3d6000fd5b5050604051632f2ff15d60e01b8152600481018590526001600160a01b03888116602483015286169250632f2ff15d9150604401600060405180830381600087803b15801562001fb457600080fd5b505af115801562001fc9573d6000803e3d6000fd5b5050604051632f2ff15d60e01b8152600481018490526001600160a01b03888116602483015286169250632f2ff15d9150604401600060405180830381600087803b1580156200201857600080fd5b505af11580156200202d573d6000803e3d6000fd5b505060405163f2fde38b60e01b81526001600160a01b0388811660048301528616925063f2fde38b9150602401600060405180830381600087803b1580156200207557600080fd5b505af11580156200208a573d6000803e3d6000fd5b5050505050505050505050565b600080516020620032558339815191525460ff166200065057604051638dfc202b60e01b815260040160405180910390fd5b6105bf8062002c9683390190565b60008083601f840112620020ea57600080fd5b5081356001600160401b038111156200210257600080fd5b6020830191508360208285010111156200211b57600080fd5b9250929050565b80356001600160a01b03811681146200213a57600080fd5b919050565b6000806000604084860312156200215557600080fd5b83356001600160401b038111156200216c57600080fd5b6200217a86828701620020d7565b90945092506200218f90506020850162002122565b90509250925092565b634e487b7160e01b600052604160045260246000fd5b604080519081016001600160401b0381118282101715620021d357620021d362002198565b60405290565b604051601f8201601f191681016001600160401b038111828210171562002204576200220462002198565b604052919050565b600082601f8301126200221e57600080fd5b81356001600160401b038111156200223a576200223a62002198565b6200224f601f8201601f1916602001620021d9565b8181528460208386010111156200226557600080fd5b816020850160208301376000918101602001919091529392505050565b6000602082840312156200229557600080fd5b81356001600160401b03811115620022ac57600080fd5b620022ba848285016200220c565b949350505050565b60008083601f840112620022d557600080fd5b5081356001600160401b03811115620022ed57600080fd5b6020830191508360208260051b85010111156200211b57600080fd5b803580151581146200213a57600080fd5b6000806000806000608086880312156200233357600080fd5b6200233e8662002122565b94506001600160401b0380602088013511156200235a57600080fd5b6020870135870188601f8201126200237157600080fd5b818135111562002385576200238562002198565b620023976020823560051b01620021d9565b81358082526020808301929160051b8401018b1015620023b657600080fd5b602083015b6020843560051b85010181101562002451578481351115620023dc57600080fd5b803584016040818e03601f19011215620023f557600080fd5b620023ff620021ae565b86602083013511156200241157600080fd5b620024258e6020808501358501016200220c565b8152620024356040830162002122565b60208201528085525050602083019250602081019050620023bb565b509650505060408701358110156200246857600080fd5b506200247b8760408801358801620022c2565b90935091506200248e6060870162002309565b90509295509295909350565b60005b83811015620024b75781810151838201526020016200249d565b50506000910152565b60008151808452620024da8160208601602086016200249a565b601f01601f19169290920160200192915050565b600060208083016020845280855180835260408601915060408160051b87010192506020870160005b828110156200254957603f1988860301845262002536858351620024c0565b9450928501929085019060010162002517565b5092979650505050505050565b600080600080604085870312156200256d57600080fd5b84356001600160401b03808211156200258557600080fd5b6200259388838901620020d7565b90965094506020870135915080821115620025ad57600080fd5b50620025bc87828801620020d7565b95989497509550505050565b600060208083018184528085518083526040925060408601915060408160051b87010184880160005b838110156200263f57888303603f19018552815180518785526200261888860182620024c0565b918901516001600160a01b03169489019490945294870194925090860190600101620025f1565b509098975050505050505050565b600080602083850312156200266157600080fd5b82356001600160401b038111156200267857600080fd5b6200268685828601620022c2565b90969095509350505050565b6020808252825182820181905260009190848201906040850190845b81811015620026d55783516001600160a01b031683529284019291840191600101620026ae565b50909695505050505050565b600060208284031215620026f457600080fd5b5035919050565b602081526000620027106020830184620024c0565b9392505050565b6000602082840312156200272a57600080fd5b620027108262002122565b8183823760009101908152919050565b600181811c908216806200275a57607f821691505b6020821081036200277b57634e487b7160e01b600052602260045260246000fd5b50919050565b601f821115620027d1576000816000526020600020601f850160051c81016020861015620027ac5750805b601f850160051c820191505b81811015620027cd57828155600101620027b8565b5050505b505050565b6001600160401b03831115620027f057620027f062002198565b620028088362002801835462002745565b8362002781565b6000601f8411600181146200283f5760008515620028265750838201355b600019600387901b1c1916600186901b17835562001b29565b600083815260209020601f19861690835b8281101562002872578685013582556020948501946001909201910162002850565b5086821015620028905760001960f88860031b161c19848701351681555b505060018560011b0183555050505050565b81835281816020850137506000828201602090810191909152601f909101601f19169091010190565b604081526000620028e1604083018587620028a2565b905060018060a01b0383166020830152949350505050565b634e487b7160e01b600052603260045260246000fd5b60008083546200291f8162002745565b600182811680156200293a5760018114620029505762002981565b60ff198416875282151583028701945062002981565b8760005260208060002060005b85811015620029785781548a8201529084019082016200295d565b50505082870194505b50929695505050505050565b60208082526037908201527f43616c6c6572206973206e6f7420616e206f776e657220616e6420636f6e747260408201527f616374206973206e6f7420696e697469616c697a696e67000000000000000000606082015260800190565b60208082526033908201527f426f6172644f664469726563746f7273206d757374206265206465706c6f796560408201527264207468726f75676820456c656374696f6e7360681b606082015260800190565b6001600160a01b038416815260406020820181905260009062002a649083018486620028a2565b95945050505050565b81516001600160401b0381111562002a895762002a8962002198565b62002aa18162002a9a845462002745565b8462002781565b602080601f83116001811462002ad9576000841562002ac05750858301515b600019600386901b1c1916600185901b178555620027cd565b600085815260208120601f198616915b8281101562002b0a5788860151825594840194600190910190840162002ae9565b508582101562002b295787850151600019600388901b60f8161c191681555b5050505050600190811b01905550565b6001600160a01b0383168152604060208201819052600090620022ba90830184620024c0565b60008235603e1983360301811262002b7657600080fd5b9190910192915050565b6000808335601e1984360301811262002b9857600080fd5b8301803591506001600160401b0382111562002bb357600080fd5b6020019150368190038213156200211b57600080fd5b7f4d697373696e6720696e697469616c697a6572206461746120666f722000000081528183601d83013760009101601d01908152919050565b7f426561636f6e206e6f7420636f6e6669677572656420666f722000000000000081528183601a83013760009101601a01908152919050565b6000825162002b768184602087016200249a565b60408152600062002c646040830185620024c0565b905060018060a01b03831660208301529392505050565b60006020828403121562002c8e57600080fd5b505191905056fe60a06040526040516105bf3803806105bf83398101604081905261002291610387565b61002c828261003e565b506001600160a01b031660805261047e565b610047826100fe565b6040516001600160a01b038316907f1cf3b03a6cf19fa2baba4df148e9dcabedea7f8a5c07840e207e5c089be95d3e90600090a28051156100f2576100ed826001600160a01b0316635c60da1b6040518163ffffffff1660e01b8152600401602060405180830381865afa1580156100c3573d6000803e3d6000fd5b505050506040513d601f19601f820116820180604052508101906100e79190610447565b82610211565b505050565b6100fa610288565b5050565b806001600160a01b03163b60000361013957604051631933b43b60e21b81526001600160a01b03821660048201526024015b60405180910390fd5b807fa3f0ad74e5423aebfd80d3ef4346578335a9a72aeaee59ff6cb3582b35133d5080546001600160a01b0319166001600160a01b0392831617905560408051635c60da1b60e01b81529051600092841691635c60da1b9160048083019260209291908290030181865afa1580156101b5573d6000803e3d6000fd5b505050506040513d601f19601f820116820180604052508101906101d99190610447565b9050806001600160a01b03163b6000036100fa57604051634c9c8ce360e01b81526001600160a01b0382166004820152602401610130565b6060600080846001600160a01b03168460405161022e9190610462565b600060405180830381855af49150503d8060008114610269576040519150601f19603f3d011682016040523d82523d6000602084013e61026e565b606091505b50909250905061027f8583836102a9565b95945050505050565b34156102a75760405163b398979f60e01b815260040160405180910390fd5b565b6060826102be576102b982610308565b610301565b81511580156102d557506001600160a01b0384163b155b156102fe57604051639996b31560e01b81526001600160a01b0385166004820152602401610130565b50805b9392505050565b8051156103185780518082602001fd5b60405163d6bda27560e01b815260040160405180910390fd5b80516001600160a01b038116811461034857600080fd5b919050565b634e487b7160e01b600052604160045260246000fd5b60005b8381101561037e578181015183820152602001610366565b50506000910152565b6000806040838503121561039a57600080fd5b6103a383610331565b60208401519092506001600160401b03808211156103c057600080fd5b818501915085601f8301126103d457600080fd5b8151818111156103e6576103e661034d565b604051601f8201601f19908116603f0116810190838211818310171561040e5761040e61034d565b8160405282815288602084870101111561042757600080fd5b610438836020830160208801610363565b80955050505050509250929050565b60006020828403121561045957600080fd5b61030182610331565b60008251610474818460208701610363565b9190910192915050565b6080516101276104986000396000601e01526101276000f3fe6080604052600a600c565b005b60186014601a565b60a0565b565b60007f00000000000000000000000000000000000000000000000000000000000000006001600160a01b0316635c60da1b6040518163ffffffff1660e01b8152600401602060405180830381865afa1580156079573d6000803e3d6000fd5b505050506040513d601f19601f82011682018060405250810190609b919060c3565b905090565b3660008037600080366000845af43d6000803e80801560be573d6000f35b3d6000fd5b60006020828403121560d457600080fd5b81516001600160a01b038116811460ea57600080fd5b939250505056fea26469706673582212200b958117c11058dcd9f2a5b7bc8f74bb0c167bdf3f2c9517af8cd5fbe6487db964736f6c63430008180033cd5ed15c6e187e77e9aee88184c21f4f2182ab5827cb3b7e07fbedcd63f03300a264697066735822122087561a66a32be79408f260f0dc3b6223bb9b7a39964c03199a325cf3355354d664736f6c63430008180033",
  "linkReferences": {},
  "deployedLinkReferences": {}
}