{
  "_format": "hh-sol-artifact-1",
  "contractName": "Officer",
  "sourceName": "contracts/Officer.sol",
  "abi": [
    {
      "inputs": [],
      "name": "EnforcedPause",
      "type": "error"
    },
    {
      "inputs": [],
      "name": "ExpectedPause",
      "type": "error"
    },
    {
      "inputs": [],
      "name": "InvalidInitialization",
      "type": "error"
    },
    {
      "inputs": [],
      "name": "NotInitializing",
      "type": "error"
    },
    {
      "inputs": [
        {
          "internalType": "address",
          "name": "owner",
          "type": "address"
        }
      ],
      "name": "OwnableInvalidOwner",
      "type": "error"
    },
    {
      "inputs": [
        {
          "internalType": "address",
          "name": "account",
          "type": "address"
        }
      ],
      "name": "OwnableUnauthorizedAccount",
      "type": "error"
    },
    {
      "inputs": [],
      "name": "ReentrancyGuardReentrantCall",
      "type": "error"
    },
    {
      "anonymous": false,
      "inputs": [
        {
          "indexed": false,
          "internalType": "string",
          "name": "contractType",
          "type": "string"
        },
        {
          "indexed": false,
          "internalType": "address",
          "name": "beaconAddress",
          "type": "address"
        }
      ],
      "name": "BeaconConfigured",
      "type": "event"
    },
    {
      "anonymous": false,
      "inputs": [
        {
          "indexed": false,
          "internalType": "address[]",
          "name": "beaconProxies",
          "type": "address[]"
        }
      ],
      "name": "BeaconProxiesDeployed",
      "type": "event"
    },
    {
      "anonymous": false,
      "inputs": [
        {
          "indexed": false,
          "internalType": "string",
          "name": "contractType",
          "type": "string"
        },
        {
          "indexed": false,
          "internalType": "address",
          "name": "deployedAddress",
          "type": "address"
        }
      ],
      "name": "ContractDeployed",
      "type": "event"
    },
    {
      "anonymous": false,
      "inputs": [
        {
          "indexed": false,
          "internalType": "uint64",
          "name": "version",
          "type": "uint64"
        }
      ],
      "name": "Initialized",
      "type": "event"
    },
    {
      "anonymous": false,
      "inputs": [
        {
          "indexed": true,
          "internalType": "address",
          "name": "previousOwner",
          "type": "address"
        },
        {
          "indexed": true,
          "internalType": "address",
          "name": "newOwner",
          "type": "address"
        }
      ],
      "name": "OwnershipTransferred",
      "type": "event"
    },
    {
      "anonymous": false,
      "inputs": [
        {
          "indexed": false,
          "internalType": "address",
          "name": "account",
          "type": "address"
        }
      ],
      "name": "Paused",
      "type": "event"
    },
    {
      "anonymous": false,
      "inputs": [
        {
          "indexed": false,
          "internalType": "address",
          "name": "account",
          "type": "address"
        }
      ],
      "name": "Unpaused",
      "type": "event"
    },
    {
      "inputs": [
        {
          "internalType": "string",
          "name": "contractType",
          "type": "string"
        },
        {
          "internalType": "address",
          "name": "beaconAddress",
          "type": "address"
        }
      ],
      "name": "configureBeacon",
      "outputs": [],
      "stateMutability": "nonpayable",
      "type": "function"
    },
    {
      "inputs": [
        {
          "internalType": "string",
          "name": "",
          "type": "string"
        }
      ],
      "name": "contractBeacons",
      "outputs": [
        {
          "internalType": "address",
          "name": "",
          "type": "address"
        }
      ],
      "stateMutability": "view",
      "type": "function"
    },
    {
      "inputs": [
        {
          "internalType": "uint256",
          "name": "",
          "type": "uint256"
        }
      ],
      "name": "contractTypes",
      "outputs": [
        {
          "internalType": "string",
          "name": "",
          "type": "string"
        }
      ],
      "stateMutability": "view",
      "type": "function"
    },
    {
      "inputs": [
        {
          "components": [
            {
              "internalType": "string",
              "name": "contractType",
              "type": "string"
            },
            {
              "internalType": "bytes",
              "name": "initializerData",
              "type": "bytes"
            }
          ],
          "internalType": "struct DeploymentData[]",
          "name": "deployments",
          "type": "tuple[]"
        }
      ],
      "name": "deployAllContracts",
      "outputs": [
        {
          "internalType": "address[]",
          "name": "",
          "type": "address[]"
        }
      ],
      "stateMutability": "nonpayable",
      "type": "function"
    },
    {
      "inputs": [
        {
          "internalType": "string",
          "name": "contractType",
          "type": "string"
        },
        {
          "internalType": "bytes",
          "name": "initializerData",
          "type": "bytes"
        }
      ],
      "name": "deployBeaconProxy",
      "outputs": [
        {
          "internalType": "address",
          "name": "",
          "type": "address"
        }
      ],
      "stateMutability": "nonpayable",
      "type": "function"
    },
    {
      "inputs": [],
      "name": "getConfiguredContractTypes",
      "outputs": [
        {
          "internalType": "string[]",
          "name": "",
          "type": "string[]"
        }
      ],
      "stateMutability": "view",
      "type": "function"
    },
    {
      "inputs": [],
      "name": "getDeployedContracts",
      "outputs": [
        {
          "components": [
            {
              "internalType": "string",
              "name": "contractType",
              "type": "string"
            },
            {
              "internalType": "address",
              "name": "contractAddress",
              "type": "address"
            }
          ],
          "internalType": "struct Officer.DeployedContract[]",
          "name": "",
          "type": "tuple[]"
        }
      ],
      "stateMutability": "view",
      "type": "function"
    },
    {
      "inputs": [],
      "name": "getTeam",
      "outputs": [
        {
          "components": [
            {
              "internalType": "string",
              "name": "contractType",
              "type": "string"
            },
            {
              "internalType": "address",
              "name": "contractAddress",
              "type": "address"
            }
          ],
          "internalType": "struct Officer.DeployedContract[]",
          "name": "",
          "type": "tuple[]"
        }
      ],
      "stateMutability": "view",
      "type": "function"
    },
    {
      "inputs": [
        {
          "internalType": "address",
          "name": "_owner",
          "type": "address"
        },
        {
          "components": [
            {
              "internalType": "string",
              "name": "beaconType",
              "type": "string"
            },
            {
              "internalType": "address",
              "name": "beaconAddress",
              "type": "address"
            }
          ],
          "internalType": "struct Officer.BeaconConfig[]",
          "name": "beaconConfigs",
          "type": "tuple[]"
        },
        {
          "components": [
            {
              "internalType": "string",
              "name": "contractType",
              "type": "string"
            },
            {
              "internalType": "bytes",
              "name": "initializerData",
              "type": "bytes"
            }
          ],
          "internalType": "struct DeploymentData[]",
          "name": "_deployments",
          "type": "tuple[]"
        },
        {
          "internalType": "bool",
          "name": "_isDeployAllContracts",
          "type": "bool"
        }
      ],
      "name": "initialize",
      "outputs": [],
      "stateMutability": "nonpayable",
      "type": "function"
    },
    {
      "inputs": [],
      "name": "owner",
      "outputs": [
        {
          "internalType": "address",
          "name": "",
          "type": "address"
        }
      ],
      "stateMutability": "view",
      "type": "function"
    },
    {
      "inputs": [],
      "name": "pause",
      "outputs": [],
      "stateMutability": "nonpayable",
      "type": "function"
    },
    {
      "inputs": [],
      "name": "paused",
      "outputs": [
        {
          "internalType": "bool",
          "name": "",
          "type": "bool"
        }
      ],
      "stateMutability": "view",
      "type": "function"
    },
    {
      "inputs": [],
      "name": "renounceOwnership",
      "outputs": [],
      "stateMutability": "nonpayable",
      "type": "function"
    },
    {
      "inputs": [
        {
          "internalType": "address",
          "name": "newOwner",
          "type": "address"
        }
      ],
      "name": "transferOwnership",
      "outputs": [],
      "stateMutability": "nonpayable",
      "type": "function"
    },
    {
      "inputs": [],
      "name": "unpause",
      "outputs": [],
      "stateMutability": "nonpayable",
      "type": "function"
    }
  ],
  "bytecode": "0x608060405234801561001057600080fd5b50612e83806100206000396000f3fe60806040523480156200001157600080fd5b5060043610620001095760003560e01c80638934332d11620000a3578063aa9a068f116200006e578063aa9a068f1462000217578063bda8beab1462000221578063e99548a51462000258578063f2fde38b146200027e57600080fd5b80638934332d146200019e5780638bce6edd14620001ce5780638da5cb5b14620001e757806395373b7714620001f157600080fd5b80635c975abb11620000e45780635c975abb1462000148578063715018a61462000171578063799391f6146200017b5780638456cb59146200019457600080fd5b8063028316c6146200010e578063237be9cb14620001275780633f4ba83a146200013e575b600080fd5b620001256200011f36600462001d31565b62000295565b005b620001256200013836600462001ecc565b62000415565b6200012562000800565b60008051602062002e2e8339815191525460ff1660405190151581526020015b60405180910390f35b6200012562000826565b620001856200083c565b604051620001689190620020a0565b620001256200091f565b620001b5620001af36600462002108565b62000943565b6040516001600160a01b03909116815260200162000168565b620001d8620011d3565b6040516200016891906200217a565b620001b5620012d8565b6200020862000202366004620021ff565b62001306565b60405162000168919062002244565b620001d862001768565b620001b56200023236600462002293565b80516020818301810180516000825292820191909301209152546001600160a01b031681565b6200026f62000269366004620022d3565b6200186d565b604051620001689190620022ed565b620001256200028f36600462002309565b62001922565b6200029f620012d8565b6001600160a01b03163303620003b25760006001600160a01b031660008484604051620002ce92919062002327565b908152604051908190036020019020546001600160a01b0316036200032d576001805480820182556000919091527fb10e2d527612073b26eecdfd717e6a320cf44b4afac2b0732d9fcbe2b7fa0cf6016200032b838583620023c8565b505b80600084846040516200034292919062002327565b90815260405190819003602001812080546001600160a01b03939093166001600160a01b0319909316929092179091557f2881466ae3b4402eb0e3d707416581efa9ce464c26cca0b40d5b290f48a94e2290620003a590859085908590620024be565b60405180910390a1505050565b60405162461bcd60e51b815260206004820152602d60248201527f596f7520617265206e6f7420617574686f72697a656420746f20706572666f7260448201526c36903a3434b99030b1ba34b7b760991b60648201526084015b60405180910390fd5b7ff0c57e16840df040f15088dc2f81fe391c3923bec73e23a9662efc9c229c6a008054600160401b810460ff1615906001600160401b03166000811580156200045b5750825b90506000826001600160401b03166001148015620004785750303b155b90508115801562000487575080155b15620004a65760405163f92ee8a960e01b815260040160405180910390fd5b845467ffffffffffffffff191660011785558315620004d157845460ff60401b1916600160401b1785555b620004dc8a62001966565b620004e66200197b565b620004f06200198f565b60005b8951811015620007975760006001600160a01b03168a82815181106200051d576200051d620024ec565b6020026020010151602001516001600160a01b0316036200057a5760405162461bcd60e51b8152602060048201526016602482015275496e76616c696420626561636f6e206164647265737360501b60448201526064016200040c565b60008a8281518110620005915762000591620024ec565b6020026020010151600001515111620005e15760405162461bcd60e51b8152602060048201526011602482015270456d70747920626561636f6e207479706560781b60448201526064016200040c565b60005b818110156200068d578a8181518110620006025762000602620024ec565b602002602001015160000151805190602001208b83815181106200062a576200062a620024ec565b6020026020010151600001518051906020012003620006845760405162461bcd60e51b81526020600482015260156024820152744475706c696361746520626561636f6e207479706560581b60448201526064016200040c565b600101620005e4565b50898181518110620006a357620006a3620024ec565b60200260200101516020015160008b8381518110620006c657620006c6620024ec565b602002602001015160000151604051620006e1919062002502565b908152602001604051809103902060006101000a8154816001600160a01b0302191690836001600160a01b031602179055507f2881466ae3b4402eb0e3d707416581efa9ce464c26cca0b40d5b290f48a94e228a8281518110620007495762000749620024ec565b6020026020010151600001518b83815181106200076a576200076a620024ec565b6020026020010151602001516040516200078692919062002520565b60405180910390a1600101620004f3565b508515620007ad57620007ab888862001306565b505b8315620007f457845460ff60401b19168555604051600181527fc7f505b2f371ae2175ee4913f4499e1f2633a7b5936321eed1cdaeb6115181d29060200160405180910390a15b50505050505050505050565b6200080a620012d8565b6001600160a01b03163303620003b25762000824620019a3565b565b6200083062001a06565b62000824600062001a3c565b60606001805480602002602001604051908101604052809291908181526020016000905b8282101562000916578382906000526020600020018054620008829062002337565b80601f0160208091040260200160405190810160405280929190818152602001828054620008b09062002337565b8015620009015780601f10620008d55761010080835404028352916020019162000901565b820191906000526020600020905b815481529060010190602001808311620008e357829003601f168201915b50505050508152602001906001019062000860565b50505050905090565b62000929620012d8565b6001600160a01b03163303620003b2576200082462001aad565b60006200094f62001afa565b6200095962001b2d565b80620009765750336200096b620012d8565b6001600160a01b0316145b620009955760405162461bcd60e51b81526004016200040c906200254c565b60006001600160a01b031660008686604051620009b492919062002327565b908152604051908190036020019020546001600160a01b03160362000a315760405162461bcd60e51b815260206004820152602c60248201527f426561636f6e206e6f7420636f6e6669677572656420666f722074686973206360448201526b6f6e7472616374207479706560a01b60648201526084016200040c565b604080518082018252601081526f426f6172644f664469726563746f727360801b602090910152517ff1a08d73ffcd13e8240c82e3e89399af5f14314ed5d20cf2ad0e1edb868887c79062000a8a908790879062002327565b60405180910390200362000ab25760405162461bcd60e51b81526004016200040c90620025a9565b600080868660405162000ac792919062002327565b908152604051908190036020018120546001600160a01b0316908590859062000af09062001cbb565b62000afe93929190620025fc565b604051809103906000f08015801562000b1b573d6000803e3d6000fd5b506040805160606020601f8a018190040282018101835291810188815292935083926002928291908b908b908190850183828082843760009201829052509385525050506001600160a01b038516602092830152835460018101855593815220815191926002020190819062000b9290826200262c565b5060209190910151600190910180546001600160a01b0319166001600160a01b039092169190911790556040517f4da8c8e82a6cdcd021dddec73a637b429d2b0a9b303638f1258ff8a35c3e5d869062000bf290899089908590620024be565b60405180910390a16040805180820182526009815268456c656374696f6e7360b81b602090910152517f7b73761da36b4cebe2053accba689012c2b87107cf729ae0feb5a5039e9a651a9062000c4c908990899062002327565b60405180910390200362000f055760008060405162000c81906f426f6172644f664469726563746f727360801b815260100190565b9081526040805191829003602090810183205460018085528484019093526001600160a01b0316935060009291908083019080368337019050509050828160008151811062000cd45762000cd4620024ec565b60200260200101906001600160a01b031690816001600160a01b0316815250508163a224cee760e01b8260405160240162000d10919062002244565b60408051601f198184030181529181526020820180516001600160e01b03166001600160e01b031990941693909317909252905162000d4f9062001cbb565b62000d5c929190620026f8565b604051809103906000f08015801562000d79573d6000803e3d6000fd5b50600380546001600160a01b03929092166001600160a01b0319909216821790556040805160808101825260109181019182526f426f6172644f664469726563746f727360801b60608201529081526020810191909152600280546001810182556000829052825191027f405787fa12a823e0f2b7631cc41b3ba8828b3321ca811111fa75cd3aa3bb5ace0190819062000e1490826200262c565b50602091820151600190910180546001600160a01b0319166001600160a01b03928316179055600354604080518181526010918101919091526f426f6172644f664469726563746f727360801b60608201529116918101919091527f4da8c8e82a6cdcd021dddec73a637b429d2b0a9b303638f1258ff8a35c3e5d869060800160405180910390a160035460405163ec17219360e01b81526001600160a01b0391821660048201529084169063ec17219390602401600060405180830381600087803b15801562000ee457600080fd5b505af115801562000ef9573d6000803e3d6000fd5b505050505050620011c9565b604080518082018252600981526850726f706f73616c7360b81b602090910152517f6c70dab6b74662678d543199490709cc5f39e1c1ec2129fc70b370c6ea8b85da9062000f57908990899062002327565b60405180910390200362000fcc5760035460405163ec17219360e01b81526001600160a01b0391821660048201529082169063ec17219390602401600060405180830381600087803b15801562000fad57600080fd5b505af115801562000fc2573d6000803e3d6000fd5b50505050620011c9565b604080518082018252600481526342616e6b60e01b602090910152517fcd775f2396f9f13f12bcf8ca32e21df66559a8adc3944d0591127e7731f7ab859062001019908990899062002327565b604051809103902003620010cd576000620010566040518060400160405280600a815260200169496e766573746f72563160b01b81525062001b5c565b90506001600160a01b03811615620010c657604051632130178f60e11b81526001600160a01b0382811660048301528316906342602f1e90602401600060405180830381600087803b158015620010ac57600080fd5b505af1158015620010c1573d6000803e3d6000fd5b505050505b50620011c9565b604080518082018252600a815269496e766573746f72563160b01b602090910152517fec2baf16bceb07d4a4231b3c9daf055277a30e12cf6f7faeafa9f6e56299da089062001120908990899062002327565b604051809103902003620011c9576000620011576040518060400160405280600481526020016342616e6b60e01b81525062001b5c565b90506001600160a01b03811615620011c757604051632130178f60e11b81526001600160a01b0383811660048301528216906342602f1e90602401600060405180830381600087803b158015620011ad57600080fd5b505af1158015620011c2573d6000803e3d6000fd5b505050505b505b9695505050505050565b60606002805480602002602001604051908101604052809291908181526020016000905b828210156200091657838290600052602060002090600202016040518060400160405290816000820180546200122d9062002337565b80601f01602080910402602001604051908101604052809291908181526020018280546200125b9062002337565b8015620012ac5780601f106200128057610100808354040283529160200191620012ac565b820191906000526020600020905b8154815290600101906020018083116200128e57829003601f168201915b50505091835250506001918201546001600160a01b0316602091820152918352929092019101620011f7565b7f9016d09d72d40fdae2fd8ceac6b6234c7706214fd39c1cd1e609a0528c199300546001600160a01b031690565b60606200131262001afa565b6200131c62001b2d565b80620013395750336200132e620012d8565b6001600160a01b0316145b620013585760405162461bcd60e51b81526004016200040c906200254c565b6000826001600160401b0381111562001375576200137562001d8a565b6040519080825280602002602001820160405280156200139f578160200160208202803683370190505b50905060005b8381101562001727576000858583818110620013c557620013c5620024ec565b9050602002810190620013d991906200271e565b620013e5908062002735565b905011620014365760405162461bcd60e51b815260206004820152601d60248201527f436f6e747261637420747970652063616e6e6f7420626520656d70747900000060448201526064016200040c565b60008585838181106200144d576200144d620024ec565b90506020028101906200146191906200271e565b6200147190602081019062002735565b905011858583818110620014895762001489620024ec565b90506020028101906200149d91906200271e565b620014a9908062002735565b604051602001620014bc9291906200277e565b60405160208183030381529060405290620014ec5760405162461bcd60e51b81526004016200040c9190620022ed565b50600080868684818110620015055762001505620024ec565b90506020028101906200151991906200271e565b62001525908062002735565b6040516200153592919062002327565b908152604051908190036020019020546001600160a01b03161415858583818110620015655762001565620024ec565b90506020028101906200157991906200271e565b62001585908062002735565b60405160200162001598929190620027b7565b60405160208183030381529060405290620015c85760405162461bcd60e51b81526004016200040c9190620022ed565b5060408051808201909152601081526f426f6172644f664469726563746f727360801b6020909101527ff1a08d73ffcd13e8240c82e3e89399af5f14314ed5d20cf2ad0e1edb868887c7858583818110620016275762001627620024ec565b90506020028101906200163b91906200271e565b62001647908062002735565b6040516200165792919062002327565b6040518091039020036200167f5760405162461bcd60e51b81526004016200040c90620025a9565b620016f1858583818110620016985762001698620024ec565b9050602002810190620016ac91906200271e565b620016b8908062002735565b878785818110620016cd57620016cd620024ec565b9050602002810190620016e191906200271e565b620001af90602081019062002735565b828281518110620017065762001706620024ec565b6001600160a01b0390921660209283029190910190910152600101620013a5565b507f72453f0cc824cbf9235c18779fbe40c5cfaaae4856d71c7364fc89250ef6695c8160405162001759919062002244565b60405180910390a19392505050565b60606002805480602002602001604051908101604052809291908181526020016000905b82821015620009165783829060005260206000209060020201604051806040016040529081600082018054620017c29062002337565b80601f0160208091040260200160405190810160405280929190818152602001828054620017f09062002337565b8015620018415780601f10620018155761010080835404028352916020019162001841565b820191906000526020600020905b8154815290600101906020018083116200182357829003601f168201915b50505091835250506001918201546001600160a01b03166020918201529183529290920191016200178c565b600181815481106200187e57600080fd5b9060005260206000200160009150905080546200189b9062002337565b80601f0160208091040260200160405190810160405280929190818152602001828054620018c99062002337565b80156200191a5780601f10620018ee576101008083540402835291602001916200191a565b820191906000526020600020905b815481529060010190602001808311620018fc57829003601f168201915b505050505081565b6200192c62001a06565b6001600160a01b0381166200195857604051631e4fbdf760e01b8152600060048201526024016200040c565b620019638162001a3c565b50565b6200197062001c03565b620019638162001c2b565b6200198562001c03565b6200082462001c35565b6200199962001c03565b6200082462001c65565b620019ad62001c89565b60008051602062002e2e833981519152805460ff191681557f5db9ee0a495bf2e6ff9c91a7834c1ba4fdd244a5e8aa4e537bd38aeae4b073aa335b6040516001600160a01b03909116815260200160405180910390a150565b3362001a11620012d8565b6001600160a01b031614620008245760405163118cdaa760e01b81523360048201526024016200040c565b7f9016d09d72d40fdae2fd8ceac6b6234c7706214fd39c1cd1e609a0528c19930080546001600160a01b031981166001600160a01b03848116918217845560405192169182907f8be0079c531659141344cd1fd0a4f28419497f9722a3daafe3b4186f6b6457e090600090a3505050565b62001ab762001afa565b60008051602062002e2e833981519152805460ff191660011781557f62e78cea01bee320cd4e420270b5ea74000d11b0c9f74754ebdbfc544b05a25833620019e8565b60008051602062002e2e8339815191525460ff1615620008245760405163d93c066560e01b815260040160405180910390fd5b7ff0c57e16840df040f15088dc2f81fe391c3923bec73e23a9662efc9c229c6a0054600160401b900460ff1690565b6000805b60025481101562001bfa5782805190602001206002828154811062001b895762001b89620024ec565b906000526020600020906002020160000160405162001ba99190620027f0565b60405180910390200362001bf1576002818154811062001bcd5762001bcd620024ec565b60009182526020909120600160029092020101546001600160a01b03169392505050565b60010162001b60565b50600092915050565b62001c0d62001b2d565b6200082457604051631afcd79f60e31b815260040160405180910390fd5b6200192c62001c03565b62001c3f62001c03565b60017f9b779b17422d0df92223018b32b4d1fa46e071723d6817e2486d003becc55f0055565b62001c6f62001c03565b60008051602062002e2e833981519152805460ff19169055565b60008051602062002e2e8339815191525460ff166200082457604051638dfc202b60e01b815260040160405180910390fd5b6105bf806200286f83390190565b60008083601f84011262001cdc57600080fd5b5081356001600160401b0381111562001cf457600080fd5b60208301915083602082850101111562001d0d57600080fd5b9250929050565b80356001600160a01b038116811462001d2c57600080fd5b919050565b60008060006040848603121562001d4757600080fd5b83356001600160401b0381111562001d5e57600080fd5b62001d6c8682870162001cc9565b909450925062001d8190506020850162001d14565b90509250925092565b634e487b7160e01b600052604160045260246000fd5b604080519081016001600160401b038111828210171562001dc55762001dc562001d8a565b60405290565b604051601f8201601f191681016001600160401b038111828210171562001df65762001df662001d8a565b604052919050565b600082601f83011262001e1057600080fd5b81356001600160401b0381111562001e2c5762001e2c62001d8a565b62001e41601f8201601f191660200162001dcb565b81815284602083860101111562001e5757600080fd5b816020850160208301376000918101602001919091529392505050565b60008083601f84011262001e8757600080fd5b5081356001600160401b0381111562001e9f57600080fd5b6020830191508360208260051b850101111562001d0d57600080fd5b8035801515811462001d2c57600080fd5b60008060008060006080868803121562001ee557600080fd5b62001ef08662001d14565b94506001600160401b03806020880135111562001f0c57600080fd5b6020870135870188601f82011262001f2357600080fd5b818135111562001f375762001f3762001d8a565b62001f496020823560051b0162001dcb565b81358082526020808301929160051b8401018b101562001f6857600080fd5b602083015b6020843560051b8501018110156200200357848135111562001f8e57600080fd5b803584016040818e03601f1901121562001fa757600080fd5b62001fb162001da0565b866020830135111562001fc357600080fd5b62001fd78e60208085013585010162001dfe565b815262001fe76040830162001d14565b6020820152808552505060208301925060208101905062001f6d565b509650505060408701358110156200201a57600080fd5b506200202d876040880135880162001e74565b9093509150620020406060870162001ebb565b90509295509295909350565b60005b83811015620020695781810151838201526020016200204f565b50506000910152565b600081518084526200208c8160208601602086016200204c565b601f01601f19169290920160200192915050565b600060208083016020845280855180835260408601915060408160051b87010192506020870160005b82811015620020fb57603f19888603018452620020e885835162002072565b94509285019290850190600101620020c9565b5092979650505050505050565b600080600080604085870312156200211f57600080fd5b84356001600160401b03808211156200213757600080fd5b620021458883890162001cc9565b909650945060208701359150808211156200215f57600080fd5b506200216e8782880162001cc9565b95989497509550505050565b600060208083018184528085518083526040925060408601915060408160051b87010184880160005b83811015620021f157888303603f1901855281518051878552620021ca8886018262002072565b918901516001600160a01b03169489019490945294870194925090860190600101620021a3565b509098975050505050505050565b600080602083850312156200221357600080fd5b82356001600160401b038111156200222a57600080fd5b620022388582860162001e74565b90969095509350505050565b6020808252825182820181905260009190848201906040850190845b81811015620022875783516001600160a01b03168352928401929184019160010162002260565b50909695505050505050565b600060208284031215620022a657600080fd5b81356001600160401b03811115620022bd57600080fd5b620022cb8482850162001dfe565b949350505050565b600060208284031215620022e657600080fd5b5035919050565b60208152600062002302602083018462002072565b9392505050565b6000602082840312156200231c57600080fd5b620023028262001d14565b8183823760009101908152919050565b600181811c908216806200234c57607f821691505b6020821081036200236d57634e487b7160e01b600052602260045260246000fd5b50919050565b601f821115620023c3576000816000526020600020601f850160051c810160208610156200239e5750805b601f850160051c820191505b81811015620023bf57828155600101620023aa565b5050505b505050565b6001600160401b03831115620023e257620023e262001d8a565b620023fa83620023f3835462002337565b8362002373565b6000601f841160018114620024315760008515620024185750838201355b600019600387901b1c1916600186901b1783556200248e565b600083815260209020601f19861690835b8281101562002464578685013582556020948501946001909201910162002442565b5086821015620024825760001960f88860031b161c19848701351681555b505060018560011b0183555b5050505050565b81835281816020850137506000828201602090810191909152601f909101601f19169091010190565b604081526000620024d460408301858762002495565b905060018060a01b0383166020830152949350505050565b634e487b7160e01b600052603260045260246000fd5b60008251620025168184602087016200204c565b9190910192915050565b60408152600062002535604083018562002072565b905060018060a01b03831660208301529392505050565b60208082526037908201527f43616c6c6572206973206e6f7420616e206f776e657220616e6420636f6e747260408201527f616374206973206e6f7420696e697469616c697a696e67000000000000000000606082015260800190565b60208082526033908201527f426f6172644f664469726563746f7273206d757374206265206465706c6f796560408201527264207468726f75676820456c656374696f6e7360681b606082015260800190565b6001600160a01b038416815260406020820181905260009062002623908301848662002495565b95945050505050565b81516001600160401b0381111562002648576200264862001d8a565b620026608162002659845462002337565b8462002373565b602080601f8311600181146200269857600084156200267f5750858301515b600019600386901b1c1916600185901b178555620023bf565b600085815260208120601f198616915b82811015620026c957888601518255948401946001909101908401620026a8565b5085821015620026e85787850151600019600388901b60f8161c191681555b5050505050600190811b01905550565b6001600160a01b0383168152604060208201819052600090620022cb9083018462002072565b60008235603e198336030181126200251657600080fd5b6000808335601e198436030181126200274d57600080fd5b8301803591506001600160401b038211156200276857600080fd5b60200191503681900382131562001d0d57600080fd5b7f4d697373696e6720696e697469616c697a6572206461746120666f722000000081528183601d83013760009101601d01908152919050565b7f426561636f6e206e6f7420636f6e6669677572656420666f722000000000000081528183601a83013760009101601a01908152919050565b6000808354620028008162002337565b600182811680156200281b5760018114620028315762002862565b60ff198416875282151583028701945062002862565b8760005260208060002060005b85811015620028595781548a8201529084019082016200283e565b50505082870194505b5092969550505050505056fe60a06040526040516105bf3803806105bf83398101604081905261002291610387565b61002c828261003e565b506001600160a01b031660805261047e565b610047826100fe565b6040516001600160a01b038316907f1cf3b03a6cf19fa2baba4df148e9dcabedea7f8a5c07840e207e5c089be95d3e90600090a28051156100f2576100ed826001600160a01b0316635c60da1b6040518163ffffffff1660e01b8152600401602060405180830381865afa1580156100c3573d6000803e3d6000fd5b505050506040513d601f19601f820116820180604052508101906100e79190610447565b82610211565b505050565b6100fa610288565b5050565b806001600160a01b03163b60000361013957604051631933b43b60e21b81526001600160a01b03821660048201526024015b60405180910390fd5b807fa3f0ad74e5423aebfd80d3ef4346578335a9a72aeaee59ff6cb3582b35133d5080546001600160a01b0319166001600160a01b0392831617905560408051635c60da1b60e01b81529051600092841691635c60da1b9160048083019260209291908290030181865afa1580156101b5573d6000803e3d6000fd5b505050506040513d601f19601f820116820180604052508101906101d99190610447565b9050806001600160a01b03163b6000036100fa57604051634c9c8ce360e01b81526001600160a01b0382166004820152602401610130565b6060600080846001600160a01b03168460405161022e9190610462565b600060405180830381855af49150503d8060008114610269576040519150601f19603f3d011682016040523d82523d6000602084013e61026e565b606091505b50909250905061027f8583836102a9565b95945050505050565b34156102a75760405163b398979f60e01b815260040160405180910390fd5b565b6060826102be576102b982610308565b610301565b81511580156102d557506001600160a01b0384163b155b156102fe57604051639996b31560e01b81526001600160a01b0385166004820152602401610130565b50805b9392505050565b8051156103185780518082602001fd5b60405163d6bda27560e01b815260040160405180910390fd5b80516001600160a01b038116811461034857600080fd5b919050565b634e487b7160e01b600052604160045260246000fd5b60005b8381101561037e578181015183820152602001610366565b50506000910152565b6000806040838503121561039a57600080fd5b6103a383610331565b60208401519092506001600160401b03808211156103c057600080fd5b818501915085601f8301126103d457600080fd5b8151818111156103e6576103e661034d565b604051601f8201601f19908116603f0116810190838211818310171561040e5761040e61034d565b8160405282815288602084870101111561042757600080fd5b610438836020830160208801610363565b80955050505050509250929050565b60006020828403121561045957600080fd5b61030182610331565b60008251610474818460208701610363565b9190910192915050565b6080516101276104986000396000601e01526101276000f3fe6080604052600a600c565b005b60186014601a565b60a0565b565b60007f00000000000000000000000000000000000000000000000000000000000000006001600160a01b0316635c60da1b6040518163ffffffff1660e01b8152600401602060405180830381865afa1580156079573d6000803e3d6000fd5b505050506040513d601f19601f82011682018060405250810190609b919060c3565b905090565b3660008037600080366000845af43d6000803e80801560be573d6000f35b3d6000fd5b60006020828403121560d457600080fd5b81516001600160a01b038116811460ea57600080fd5b939250505056fea26469706673582212200b958117c11058dcd9f2a5b7bc8f74bb0c167bdf3f2c9517af8cd5fbe6487db964736f6c63430008180033cd5ed15c6e187e77e9aee88184c21f4f2182ab5827cb3b7e07fbedcd63f03300a264697066735822122012bd6d2cf5d566cdf2de6ec1f752add638858d9d98f2215f4298ba67a0091f5e64736f6c63430008180033",
  "linkReferences": {},
  "deployedLinkReferences": {}
}