{
  "_format": "hh-sol-artifact-1",
  "contractName": "FactoryBeacon",
  "sourceName": "contracts/beacons/FactoryBeacon.sol",
  "abi": [
    {
      "inputs": [
        {
          "internalType": "address",
          "name": "implementationAddress",
          "type": "address"
        }
      ],
      "stateMutability": "nonpayable",
      "type": "constructor"
    },
    {
      "inputs": [
        {
          "internalType": "address",
          "name": "implementation",
          "type": "address"
        }
      ],
      "name": "BeaconInvalidImplementation",
      "type": "error"
    },
    {
      "inputs": [
        {
          "internalType": "address",
          "name": "owner",
          "type": "address"
        }
      ],
      "name": "OwnableInvalidOwner",
      "type": "error"
    },
    {
      "inputs": [
        {
          "internalType": "address",
          "name": "account",
          "type": "address"
        }
      ],
      "name": "OwnableUnauthorizedAccount",
      "type": "error"
    },
    {
      "anonymous": false,
      "inputs": [
        {
          "indexed": true,
          "internalType": "address",
          "name": "proxy",
          "type": "address"
        },
        {
          "indexed": true,
          "internalType": "address",
          "name": "deployer",
          "type": "address"
        }
      ],
      "name": "BeaconProxyCreated",
      "type": "event"
    },
    {
      "anonymous": false,
      "inputs": [
        {
          "indexed": true,
          "internalType": "address",
          "name": "previousOwner",
          "type": "address"
        },
        {
          "indexed": true,
          "internalType": "address",
          "name": "newOwner",
          "type": "address"
        }
      ],
      "name": "OwnershipTransferred",
      "type": "event"
    },
    {
      "anonymous": false,
      "inputs": [
        {
          "indexed": true,
          "internalType": "address",
          "name": "implementation",
          "type": "address"
        }
      ],
      "name": "Upgraded",
      "type": "event"
    },
    {
      "inputs": [
        {
          "internalType": "bytes",
          "name": "data",
          "type": "bytes"
        }
      ],
      "name": "createBeaconProxy",
      "outputs": [],
      "stateMutability": "nonpayable",
      "type": "function"
    },
    {
      "inputs": [],
      "name": "implementation",
      "outputs": [
        {
          "internalType": "address",
          "name": "",
          "type": "address"
        }
      ],
      "stateMutability": "view",
      "type": "function"
    },
    {
      "inputs": [],
      "name": "owner",
      "outputs": [
        {
          "internalType": "address",
          "name": "",
          "type": "address"
        }
      ],
      "stateMutability": "view",
      "type": "function"
    },
    {
      "inputs": [],
      "name": "renounceOwnership",
      "outputs": [],
      "stateMutability": "nonpayable",
      "type": "function"
    },
    {
      "inputs": [
        {
          "internalType": "address",
          "name": "newOwner",
          "type": "address"
        }
      ],
      "name": "transferOwnership",
      "outputs": [],
      "stateMutability": "nonpayable",
      "type": "function"
    },
    {
      "inputs": [
        {
          "internalType": "address",
          "name": "newImplementation",
          "type": "address"
        }
      ],
      "name": "upgradeTo",
      "outputs": [],
      "stateMutability": "nonpayable",
      "type": "function"
    }
  ],
  "bytecode": "0x608060405234801561001057600080fd5b50604051610be6380380610be683398101604081905261002f91610143565b8033808061005857604051631e4fbdf760e01b8152600060048201526024015b60405180910390fd5b61006181610073565b5061006b826100c3565b505050610173565b600080546001600160a01b038381166001600160a01b0319831681178455604051919092169283917f8be0079c531659141344cd1fd0a4f28419497f9722a3daafe3b4186f6b6457e09190a35050565b806001600160a01b03163b6000036100f95760405163211eb15960e21b81526001600160a01b038216600482015260240161004f565b600180546001600160a01b0319166001600160a01b0383169081179091556040517fbc7cd75a20ee27fd9adebab32041f755214dbc6bffa90cc0225b39da2e5c2d3b90600090a250565b60006020828403121561015557600080fd5b81516001600160a01b038116811461016c57600080fd5b9392505050565b610a64806101826000396000f3fe60806040523480156200001157600080fd5b50600436106200006a5760003560e01c80633659cfe6146200006f5780635c60da1b1462000088578063715018a614620000b15780638da5cb5b14620000bb578063d0b74ad414620000cd578063f2fde38b14620000e4575b600080fd5b6200008662000080366004620002f9565b620000fb565b005b6001546001600160a01b03165b6040516001600160a01b03909116815260200160405180910390f35b6200008662000113565b6000546001600160a01b031662000095565b62000086620000de36600462000341565b6200012b565b62000086620000f5366004620002f9565b620001a5565b62000105620001ea565b620001108162000219565b50565b6200011d620001ea565b6200012960006200029b565b565b600030826040516200013d90620002eb565b6200014a929190620003fc565b604051809103906000f08015801562000167573d6000803e3d6000fd5b5060405190915033906001600160a01b038316907fae2292667db92e6da511010072f5a5e0804f89f8d78418b077abb4893849ff8790600090a35050565b620001af620001ea565b6001600160a01b038116620001df57604051631e4fbdf760e01b8152600060048201526024015b60405180910390fd5b62000110816200029b565b6000546001600160a01b03163314620001295760405163118cdaa760e01b8152336004820152602401620001d6565b806001600160a01b03163b600003620002515760405163211eb15960e21b81526001600160a01b0382166004820152602401620001d6565b600180546001600160a01b0319166001600160a01b0383169081179091556040517fbc7cd75a20ee27fd9adebab32041f755214dbc6bffa90cc0225b39da2e5c2d3b90600090a250565b600080546001600160a01b038381166001600160a01b0319831681178455604051919092169283917f8be0079c531659141344cd1fd0a4f28419497f9722a3daafe3b4186f6b6457e09190a35050565b6105d1806200045e83390190565b6000602082840312156200030c57600080fd5b81356001600160a01b03811681146200032457600080fd5b9392505050565b634e487b7160e01b600052604160045260246000fd5b6000602082840312156200035457600080fd5b813567ffffffffffffffff808211156200036d57600080fd5b818401915084601f8301126200038257600080fd5b8135818111156200039757620003976200032b565b604051601f8201601f19908116603f01168101908382118183101715620003c257620003c26200032b565b81604052828152876020848701011115620003dc57600080fd5b826020860160208301376000928101602001929092525095945050505050565b60018060a01b03831681526000602060406020840152835180604085015260005b818110156200043b578581018301518582016060015282016200041d565b506000606082860101526060601f19601f83011685010192505050939250505056fe60a060405234801561001057600080fd5b506040516105d13803806105d183398101604081905261002f91610399565b818161003b8282610050565b506001600160a01b0316608052506104909050565b61005982610110565b6040516001600160a01b038316907f1cf3b03a6cf19fa2baba4df148e9dcabedea7f8a5c07840e207e5c089be95d3e90600090a2805115610104576100ff826001600160a01b0316635c60da1b6040518163ffffffff1660e01b8152600401602060405180830381865afa1580156100d5573d6000803e3d6000fd5b505050506040513d601f19601f820116820180604052508101906100f99190610459565b82610223565b505050565b61010c61029a565b5050565b806001600160a01b03163b60000361014b57604051631933b43b60e21b81526001600160a01b03821660048201526024015b60405180910390fd5b807fa3f0ad74e5423aebfd80d3ef4346578335a9a72aeaee59ff6cb3582b35133d5080546001600160a01b0319166001600160a01b0392831617905560408051635c60da1b60e01b81529051600092841691635c60da1b9160048083019260209291908290030181865afa1580156101c7573d6000803e3d6000fd5b505050506040513d601f19601f820116820180604052508101906101eb9190610459565b9050806001600160a01b03163b60000361010c57604051634c9c8ce360e01b81526001600160a01b0382166004820152602401610142565b6060600080846001600160a01b0316846040516102409190610474565b600060405180830381855af49150503d806000811461027b576040519150601f19603f3d011682016040523d82523d6000602084013e610280565b606091505b5090925090506102918583836102bb565b95945050505050565b34156102b95760405163b398979f60e01b815260040160405180910390fd5b565b6060826102d0576102cb8261031a565b610313565b81511580156102e757506001600160a01b0384163b155b1561031057604051639996b31560e01b81526001600160a01b0385166004820152602401610142565b50805b9392505050565b80511561032a5780518082602001fd5b60405163d6bda27560e01b815260040160405180910390fd5b80516001600160a01b038116811461035a57600080fd5b919050565b634e487b7160e01b600052604160045260246000fd5b60005b83811015610390578181015183820152602001610378565b50506000910152565b600080604083850312156103ac57600080fd5b6103b583610343565b60208401519092506001600160401b03808211156103d257600080fd5b818501915085601f8301126103e657600080fd5b8151818111156103f8576103f861035f565b604051601f8201601f19908116603f011681019083821181831017156104205761042061035f565b8160405282815288602084870101111561043957600080fd5b61044a836020830160208801610375565b80955050505050509250929050565b60006020828403121561046b57600080fd5b61031382610343565b60008251610486818460208701610375565b9190910192915050565b6080516101276104aa6000396000601e01526101276000f3fe6080604052600a600c565b005b60186014601a565b60a0565b565b60007f00000000000000000000000000000000000000000000000000000000000000006001600160a01b0316635c60da1b6040518163ffffffff1660e01b8152600401602060405180830381865afa1580156079573d6000803e3d6000fd5b505050506040513d601f19601f82011682018060405250810190609b919060c3565b905090565b3660008037600080366000845af43d6000803e80801560be573d6000f35b3d6000fd5b60006020828403121560d457600080fd5b81516001600160a01b038116811460ea57600080fd5b939250505056fea26469706673582212207db045cfbb564eb2046b8310d73b7ea68a13583ab68b31927f0ef0b084f07a6964736f6c63430008180033a2646970667358221220fe43ada98a97e4b4b3461c3dee28fb08d75339f4b9850787e634157a1acb78e964736f6c63430008180033",
  "linkReferences": {},
  "deployedLinkReferences": {}
}