{
  "_format": "hh-sol-artifact-1",
  "contractName": "Officer",
  "sourceName": "contracts/Officer.sol",
  "abi": [
    {
      "inputs": [],
      "name": "EnforcedPause",
      "type": "error"
    },
    {
      "inputs": [],
      "name": "ExpectedPause",
      "type": "error"
    },
    {
      "inputs": [],
      "name": "InvalidInitialization",
      "type": "error"
    },
    {
      "inputs": [],
      "name": "NotInitializing",
      "type": "error"
    },
    {
      "inputs": [
        {
          "internalType": "address",
          "name": "owner",
          "type": "address"
        }
      ],
      "name": "OwnableInvalidOwner",
      "type": "error"
    },
    {
      "inputs": [
        {
          "internalType": "address",
          "name": "account",
          "type": "address"
        }
      ],
      "name": "OwnableUnauthorizedAccount",
      "type": "error"
    },
    {
      "inputs": [],
      "name": "ReentrancyGuardReentrantCall",
      "type": "error"
    },
    {
      "anonymous": false,
      "inputs": [
        {
          "indexed": false,
          "internalType": "string",
          "name": "contractType",
          "type": "string"
        },
        {
          "indexed": false,
          "internalType": "address",
          "name": "contractAddress",
          "type": "address"
        }
      ],
      "name": "ContractDeployed",
      "type": "event"
    },
    {
      "anonymous": false,
      "inputs": [
        {
          "indexed": false,
          "internalType": "uint64",
          "name": "version",
          "type": "uint64"
        }
      ],
      "name": "Initialized",
      "type": "event"
    },
    {
      "anonymous": false,
      "inputs": [
        {
          "indexed": true,
          "internalType": "address",
          "name": "previousOwner",
          "type": "address"
        },
        {
          "indexed": true,
          "internalType": "address",
          "name": "newOwner",
          "type": "address"
        }
      ],
      "name": "OwnershipTransferred",
      "type": "event"
    },
    {
      "anonymous": false,
      "inputs": [
        {
          "indexed": false,
          "internalType": "address",
          "name": "account",
          "type": "address"
        }
      ],
      "name": "Paused",
      "type": "event"
    },
    {
      "anonymous": false,
      "inputs": [
        {
          "indexed": false,
          "internalType": "address[]",
          "name": "founders",
          "type": "address[]"
        },
        {
          "indexed": false,
          "internalType": "address[]",
          "name": "members",
          "type": "address[]"
        }
      ],
      "name": "TeamCreated",
      "type": "event"
    },
    {
      "anonymous": false,
      "inputs": [
        {
          "indexed": false,
          "internalType": "address",
          "name": "account",
          "type": "address"
        }
      ],
      "name": "Unpaused",
      "type": "event"
    },
    {
      "inputs": [],
      "name": "bankAccountBeacon",
      "outputs": [
        {
          "internalType": "address",
          "name": "",
          "type": "address"
        }
      ],
      "stateMutability": "view",
      "type": "function"
    },
    {
      "inputs": [
        {
          "internalType": "address[]",
          "name": "_founders",
          "type": "address[]"
        },
        {
          "internalType": "address[]",
          "name": "_members",
          "type": "address[]"
        }
      ],
      "name": "createTeam",
      "outputs": [],
      "stateMutability": "nonpayable",
      "type": "function"
    },
    {
      "inputs": [
        {
          "internalType": "address",
          "name": "tipsAddress",
          "type": "address"
        }
      ],
      "name": "deployBankAccount",
      "outputs": [],
      "stateMutability": "nonpayable",
      "type": "function"
    },
    {
      "inputs": [],
      "name": "deployVotingContract",
      "outputs": [],
      "stateMutability": "nonpayable",
      "type": "function"
    },
    {
      "inputs": [],
      "name": "employeeContractBeacon",
      "outputs": [
        {
          "internalType": "address",
          "name": "",
          "type": "address"
        }
      ],
      "stateMutability": "view",
      "type": "function"
    },
    {
      "inputs": [],
      "name": "getTeam",
      "outputs": [
        {
          "internalType": "address[]",
          "name": "",
          "type": "address[]"
        },
        {
          "internalType": "address[]",
          "name": "",
          "type": "address[]"
        },
        {
          "internalType": "address",
          "name": "",
          "type": "address"
        },
        {
          "internalType": "address",
          "name": "",
          "type": "address"
        }
      ],
      "stateMutability": "view",
      "type": "function"
    },
    {
      "inputs": [
        {
          "internalType": "address",
          "name": "_bankAccountBeacon",
          "type": "address"
        },
        {
          "internalType": "address",
          "name": "_votingContractBeacon",
          "type": "address"
        }
      ],
      "name": "initialize",
      "outputs": [],
      "stateMutability": "nonpayable",
      "type": "function"
    },
    {
      "inputs": [],
      "name": "owner",
      "outputs": [
        {
          "internalType": "address",
          "name": "",
          "type": "address"
        }
      ],
      "stateMutability": "view",
      "type": "function"
    },
    {
      "inputs": [],
      "name": "pause",
      "outputs": [],
      "stateMutability": "nonpayable",
      "type": "function"
    },
    {
      "inputs": [],
      "name": "paused",
      "outputs": [
        {
          "internalType": "bool",
          "name": "",
          "type": "bool"
        }
      ],
      "stateMutability": "view",
      "type": "function"
    },
    {
      "inputs": [],
      "name": "renounceOwnership",
      "outputs": [],
      "stateMutability": "nonpayable",
      "type": "function"
    },
    {
      "inputs": [
        {
          "internalType": "address",
          "name": "newOwner",
          "type": "address"
        }
      ],
      "name": "transferOwnership",
      "outputs": [],
      "stateMutability": "nonpayable",
      "type": "function"
    },
    {
      "inputs": [
        {
          "internalType": "address",
          "name": "newOwner",
          "type": "address"
        }
      ],
      "name": "transferOwnershipToBOD",
      "outputs": [],
      "stateMutability": "nonpayable",
      "type": "function"
    },
    {
      "inputs": [],
      "name": "unpause",
      "outputs": [],
      "stateMutability": "nonpayable",
      "type": "function"
    },
    {
      "inputs": [],
      "name": "votingContractBeacon",
      "outputs": [
        {
          "internalType": "address",
          "name": "",
          "type": "address"
        }
      ],
      "stateMutability": "view",
      "type": "function"
    }
  ],
  "bytecode": "0x608060405234801561001057600080fd5b50611aba806100206000396000f3fe60806040523480156200001157600080fd5b5060043610620001095760003560e01c80638456cb5911620000a3578063d2d7b54a116200006e578063d2d7b54a14620001f6578063ec12649a146200020d578063f2fde38b1462000221578063f37606b5146200023857600080fd5b80638456cb5914620001b25780638bce6edd14620001bc5780638da5cb5b14620001d8578063bc11665f14620001e257600080fd5b80635c975abb11620000e45780635c975abb14620001625780636324bef21462000187578063658e5155146200019e578063715018a614620001a857600080fd5b80630346a03c146200010e5780633f4ba83a146200013f578063485cc955146200014b575b600080fd5b60065462000122906001600160a01b031681565b6040516001600160a01b0390911681526020015b60405180910390f35b620001496200024f565b005b620001496200015c366004620010bf565b6200032f565b60008051602062001a658339815191525460ff16604051901515815260200162000136565b6200014962000198366004620010f7565b6200048c565b62000149620004ed565b6200014962000737565b620001496200074d565b620001c6620007c4565b60405162000136949392919062001163565b62000122620008ae565b60055462000122906001600160a01b031681565b620001496200020736600462001278565b620008dc565b60045462000122906001600160a01b031681565b6200014962000232366004620010f7565b62000b3b565b6200014962000249366004620010f7565b62000b7c565b62000259620008ae565b6001600160a01b0316330362000275576200027362000df8565b565b60005b600054811015620002cb5760008181548110620002995762000299620012e3565b6000918252602090912001546001600160a01b03163303620002c257620002bf62000df8565b50565b60010162000278565b5060405162461bcd60e51b815260206004820152602d60248201527f596f7520617265206e6f7420617574686f72697a656420746f20706572666f7260448201526c36903a3434b99030b1ba34b7b760991b60648201526084015b60405180910390fd5b7ff0c57e16840df040f15088dc2f81fe391c3923bec73e23a9662efc9c229c6a008054600160401b810460ff16159067ffffffffffffffff16600081158015620003765750825b905060008267ffffffffffffffff166001148015620003945750303b155b905081158015620003a3575080155b15620003c25760405163f92ee8a960e01b815260040160405180910390fd5b845467ffffffffffffffff191660011785558315620003ed57845460ff60401b1916600160401b1785555b620003f83362000e56565b6200040262000e6b565b6200040c62000e7f565b600480546001600160a01b03808a166001600160a01b031992831617909255600680549289169290911691909117905583156200048357845460ff60401b19168555604051600181527fc7f505b2f371ae2175ee4913f4499e1f2633a7b5936321eed1cdaeb6115181d29060200160405180910390a15b50505050505050565b6200049662000e93565b620004a18162000b3b565b806001600160a01b0316620004b5620008ae565b6001600160a01b03167f8be0079c531659141344cd1fd0a4f28419497f9722a3daafe3b4186f6b6457e060405160405180910390a350565b620004f7620008ae565b6001600160a01b03163303620005fa576200051162000e93565b6003546001600160a01b0316156200053d5760405162461bcd60e51b81526004016200032690620012f9565b60065460408051600481526024810182526020810180516001600160e01b031663204a7f0760e21b17905290516000926001600160a01b03169190620005839062001094565b620005909291906200133d565b604051809103906000f080158015620005ad573d6000803e3d6000fd5b50600380546001600160a01b0319166001600160a01b03831690811790915560405191925060008051602062001a4583398151915291620005ef91906200139e565b60405180910390a150565b60005b600054811015620002cb57600081815481106200061e576200061e620012e3565b6000918252602090912001546001600160a01b031633036200072e576200064462000e93565b6003546001600160a01b031615620006705760405162461bcd60e51b81526004016200032690620012f9565b60065460408051600481526024810182526020810180516001600160e01b031663204a7f0760e21b17905290516000926001600160a01b03169190620006b69062001094565b620006c39291906200133d565b604051809103906000f080158015620006e0573d6000803e3d6000fd5b50600380546001600160a01b0319166001600160a01b03831690811790915560405191925060008051602062001a45833981519152916200072291906200139e565b60405180910390a15050565b600101620005fd565b6200074162000ec6565b62000273600062000efc565b62000757620008ae565b6001600160a01b0316330362000771576200027362000f6d565b60005b600054811015620002cb5760008181548110620007955762000795620012e3565b6000918252602090912001546001600160a01b03163303620007bb57620002bf62000f6d565b60010162000774565b60025460035460008054604080516020808402820181019092528281526060958695859485946001946001600160a01b0394851694909316929186918301828280156200083b57602002820191906000526020600020905b81546001600160a01b031681526001909101906020018083116200081c575b50505050509350828054806020026020016040519081016040528092919081815260200182805480156200089957602002820191906000526020600020905b81546001600160a01b031681526001909101906020018083116200087a575b50505050509250935093509350935090919293565b7f9016d09d72d40fdae2fd8ceac6b6234c7706214fd39c1cd1e609a0528c199300546001600160a01b031690565b620008e662000e93565b6000825111620009395760405162461bcd60e51b815260206004820152601e60248201527f4d7573742068617665206174206c65617374206f6e6520666f756e6465720000604482015260640162000326565b60005b825181101562000a235760006001600160a01b0316838281518110620009665762000966620012e3565b60200260200101516001600160a01b031603620009c65760405162461bcd60e51b815260206004820152601760248201527f496e76616c696420666f756e6465722061646472657373000000000000000000604482015260640162000326565b6000838281518110620009dd57620009dd620012e3565b60209081029190910181015182546001808201855560009485529290932090920180546001600160a01b0319166001600160a01b0390931692909217909155016200093c565b5060005b815181101562000b075760006001600160a01b031682828151811062000a515762000a51620012e3565b60200260200101516001600160a01b03160362000aaa5760405162461bcd60e51b8152602060048201526016602482015275496e76616c6964206d656d626572206164647265737360501b604482015260640162000326565b600182828151811062000ac15762000ac1620012e3565b60209081029190910181015182546001808201855560009485529290932090920180546001600160a01b0319166001600160a01b03909316929092179091550162000a27565b507f14bbcd93381ec042bd0247a11fa75d4fef24b31e785ca44971c6fc162c4f05af828260405162000722929190620013d7565b62000b4562000ec6565b6001600160a01b03811662000b7157604051631e4fbdf760e01b81526000600482015260240162000326565b620002bf8162000efc565b62000b86620008ae565b6001600160a01b0316330362000c9c5762000ba062000e93565b6002546001600160a01b03161562000bcc5760405162461bcd60e51b8152600401620003269062001409565b6004546040516001600160a01b038381166024830152600092169063189acdbd60e31b9060440160408051601f198184030181529181526020820180516001600160e01b03166001600160e01b031990941693909317909252905162000c329062001094565b62000c3f9291906200133d565b604051809103906000f08015801562000c5c573d6000803e3d6000fd5b50600280546001600160a01b0319166001600160a01b03831617905560405190915060008051602062001a4583398151915290620007229083906200144f565b60005b600054811015620002cb576000818154811062000cc05762000cc0620012e3565b6000918252602090912001546001600160a01b0316330362000def5762000ce662000e93565b6002546001600160a01b03161562000d125760405162461bcd60e51b8152600401620003269062001409565b6004546040516001600160a01b038481166024830152600092169063189acdbd60e31b9060440160408051601f198184030181529181526020820180516001600160e01b03166001600160e01b031990941693909317909252905162000d789062001094565b62000d859291906200133d565b604051809103906000f08015801562000da2573d6000803e3d6000fd5b50600280546001600160a01b0319166001600160a01b03831617905560405190915060008051602062001a458339815191529062000de29083906200144f565b60405180910390a1505050565b60010162000c9f565b62000e0262000fba565b60008051602062001a65833981519152805460ff191681557f5db9ee0a495bf2e6ff9c91a7834c1ba4fdd244a5e8aa4e537bd38aeae4b073aa335b6040516001600160a01b039091168152602001620005ef565b62000e6062000fec565b620002bf8162001036565b62000e7562000fec565b6200027362001040565b62000e8962000fec565b6200027362001070565b60008051602062001a658339815191525460ff1615620002735760405163d93c066560e01b815260040160405180910390fd5b3362000ed1620008ae565b6001600160a01b031614620002735760405163118cdaa760e01b815233600482015260240162000326565b7f9016d09d72d40fdae2fd8ceac6b6234c7706214fd39c1cd1e609a0528c19930080546001600160a01b031981166001600160a01b03848116918217845560405192169182907f8be0079c531659141344cd1fd0a4f28419497f9722a3daafe3b4186f6b6457e090600090a3505050565b62000f7762000e93565b60008051602062001a65833981519152805460ff191660011781557f62e78cea01bee320cd4e420270b5ea74000d11b0c9f74754ebdbfc544b05a2583362000e3d565b60008051602062001a658339815191525460ff166200027357604051638dfc202b60e01b815260040160405180910390fd5b7ff0c57e16840df040f15088dc2f81fe391c3923bec73e23a9662efc9c229c6a0054600160401b900460ff166200027357604051631afcd79f60e31b815260040160405180910390fd5b62000b4562000fec565b6200104a62000fec565b60017f9b779b17422d0df92223018b32b4d1fa46e071723d6817e2486d003becc55f0055565b6200107a62000fec565b60008051602062001a65833981519152805460ff19169055565b6105bf806200148683390190565b80356001600160a01b0381168114620010ba57600080fd5b919050565b60008060408385031215620010d357600080fd5b620010de83620010a2565b9150620010ee60208401620010a2565b90509250929050565b6000602082840312156200110a57600080fd5b6200111582620010a2565b9392505050565b60008151808452602080850194506020840160005b83811015620011585781516001600160a01b03168752958201959082019060010162001131565b509495945050505050565b6080815260006200117860808301876200111c565b82810360208401526200118c81876200111c565b6001600160a01b03958616604085015293909416606090920191909152509392505050565b634e487b7160e01b600052604160045260246000fd5b600082601f830112620011d957600080fd5b8135602067ffffffffffffffff80831115620011f957620011f9620011b1565b8260051b604051601f19603f83011681018181108482111715620012215762001221620011b1565b60405293845260208187018101949081019250878511156200124257600080fd5b6020870191505b848210156200126d576200125d82620010a2565b8352918301919083019062001249565b979650505050505050565b600080604083850312156200128c57600080fd5b823567ffffffffffffffff80821115620012a557600080fd5b620012b386838701620011c7565b93506020850135915080821115620012ca57600080fd5b50620012d985828601620011c7565b9150509250929050565b634e487b7160e01b600052603260045260246000fd5b60208082526024908201527f476f7665726e616e636520636f6e747261637420616c7265616479206465706c6040820152631bde595960e21b606082015260800190565b60018060a01b03831681526000602060406020840152835180604085015260005b818110156200137c578581018301518582016060015282016200135e565b506000606082860101526060601f19601f830116850101925050509392505050565b6040808252600e908201526d159bdd1a5b99d0dbdb9d1c9858dd60921b60608201526001600160a01b0391909116602082015260800190565b604081526000620013ec60408301856200111c565b82810360208401526200140081856200111c565b95945050505050565b60208082526026908201527f42616e6b206163636f756e7420636f6e747261637420616c72656164792064656040820152651c1b1bde595960d21b606082015260800190565b6040808252600b908201526a10985b9ad058d8dbdd5b9d60aa1b60608201526001600160a01b039190911660208201526080019056fe60a06040526040516105bf3803806105bf83398101604081905261002291610387565b61002c828261003e565b506001600160a01b031660805261047e565b610047826100fe565b6040516001600160a01b038316907f1cf3b03a6cf19fa2baba4df148e9dcabedea7f8a5c07840e207e5c089be95d3e90600090a28051156100f2576100ed826001600160a01b0316635c60da1b6040518163ffffffff1660e01b8152600401602060405180830381865afa1580156100c3573d6000803e3d6000fd5b505050506040513d601f19601f820116820180604052508101906100e79190610447565b82610211565b505050565b6100fa610288565b5050565b806001600160a01b03163b60000361013957604051631933b43b60e21b81526001600160a01b03821660048201526024015b60405180910390fd5b807fa3f0ad74e5423aebfd80d3ef4346578335a9a72aeaee59ff6cb3582b35133d5080546001600160a01b0319166001600160a01b0392831617905560408051635c60da1b60e01b81529051600092841691635c60da1b9160048083019260209291908290030181865afa1580156101b5573d6000803e3d6000fd5b505050506040513d601f19601f820116820180604052508101906101d99190610447565b9050806001600160a01b03163b6000036100fa57604051634c9c8ce360e01b81526001600160a01b0382166004820152602401610130565b6060600080846001600160a01b03168460405161022e9190610462565b600060405180830381855af49150503d8060008114610269576040519150601f19603f3d011682016040523d82523d6000602084013e61026e565b606091505b50909250905061027f8583836102a9565b95945050505050565b34156102a75760405163b398979f60e01b815260040160405180910390fd5b565b6060826102be576102b982610308565b610301565b81511580156102d557506001600160a01b0384163b155b156102fe57604051639996b31560e01b81526001600160a01b0385166004820152602401610130565b50805b9392505050565b8051156103185780518082602001fd5b604051630a12f52160e11b815260040160405180910390fd5b80516001600160a01b038116811461034857600080fd5b919050565b634e487b7160e01b600052604160045260246000fd5b60005b8381101561037e578181015183820152602001610366565b50506000910152565b6000806040838503121561039a57600080fd5b6103a383610331565b60208401519092506001600160401b03808211156103c057600080fd5b818501915085601f8301126103d457600080fd5b8151818111156103e6576103e661034d565b604051601f8201601f19908116603f0116810190838211818310171561040e5761040e61034d565b8160405282815288602084870101111561042757600080fd5b610438836020830160208801610363565b80955050505050509250929050565b60006020828403121561045957600080fd5b61030182610331565b60008251610474818460208701610363565b9190910192915050565b6080516101276104986000396000601e01526101276000f3fe6080604052600a600c565b005b60186014601a565b60a0565b565b60007f00000000000000000000000000000000000000000000000000000000000000006001600160a01b0316635c60da1b6040518163ffffffff1660e01b8152600401602060405180830381865afa1580156079573d6000803e3d6000fd5b505050506040513d601f19601f82011682018060405250810190609b919060c3565b905090565b3660008037600080366000845af43d6000803e80801560be573d6000f35b3d6000fd5b60006020828403121560d457600080fd5b81516001600160a01b038116811460ea57600080fd5b939250505056fea264697066735822122038063abf0acf0012aa106601a36fadbbf1a7604cc3cbd26cfa83a39a16756e2164736f6c634300081800334da8c8e82a6cdcd021dddec73a637b429d2b0a9b303638f1258ff8a35c3e5d86cd5ed15c6e187e77e9aee88184c21f4f2182ab5827cb3b7e07fbedcd63f03300a26469706673582212202463b0b058a7690c2b4ecb608e18e837c5b06e1da5147c40ff66c0668e81a1ab64736f6c63430008180033",
  "linkReferences": {},
  "deployedLinkReferences": {}
}