{
  "_format": "hh-sol-artifact-1",
  "contractName": "Proposals",
  "sourceName": "contracts/Proposals/Proposals.sol",
  "abi": [
    {
      "inputs": [],
      "name": "BoardOfDirectorAddressNotSet",
      "type": "error"
    },
    {
      "inputs": [],
      "name": "EnforcedPause",
      "type": "error"
    },
    {
      "inputs": [],
      "name": "ExpectedPause",
      "type": "error"
    },
    {
      "inputs": [],
      "name": "InvalidInitialization",
      "type": "error"
    },
    {
      "inputs": [],
      "name": "InvalidProposalContent",
      "type": "error"
    },
    {
      "inputs": [],
      "name": "InvalidProposalDates",
      "type": "error"
    },
    {
      "inputs": [],
      "name": "InvalidVote",
      "type": "error"
    },
    {
      "inputs": [],
      "name": "NoBoardMembers",
      "type": "error"
    },
    {
      "inputs": [],
      "name": "NotAllowed",
      "type": "error"
    },
    {
      "inputs": [],
      "name": "NotInitializing",
      "type": "error"
    },
    {
      "inputs": [],
      "name": "OnlyBoardMember",
      "type": "error"
    },
    {
      "inputs": [
        {
          "internalType": "address",
          "name": "owner",
          "type": "address"
        }
      ],
      "name": "OwnableInvalidOwner",
      "type": "error"
    },
    {
      "inputs": [
        {
          "internalType": "address",
          "name": "account",
          "type": "address"
        }
      ],
      "name": "OwnableUnauthorizedAccount",
      "type": "error"
    },
    {
      "inputs": [],
      "name": "ProposalAlreadyVoted",
      "type": "error"
    },
    {
      "inputs": [],
      "name": "ProposalNotFound",
      "type": "error"
    },
    {
      "inputs": [],
      "name": "ProposalVotingEnded",
      "type": "error"
    },
    {
      "inputs": [],
      "name": "ProposalVotingNotStarted",
      "type": "error"
    },
    {
      "inputs": [],
      "name": "ReentrancyGuardReentrantCall",
      "type": "error"
    },
    {
      "anonymous": false,
      "inputs": [
        {
          "indexed": false,
          "internalType": "uint64",
          "name": "version",
          "type": "uint64"
        }
      ],
      "name": "Initialized",
      "type": "event"
    },
    {
      "anonymous": false,
      "inputs": [
        {
          "indexed": true,
          "internalType": "address",
          "name": "previousOwner",
          "type": "address"
        },
        {
          "indexed": true,
          "internalType": "address",
          "name": "newOwner",
          "type": "address"
        }
      ],
      "name": "OwnershipTransferred",
      "type": "event"
    },
    {
      "anonymous": false,
      "inputs": [
        {
          "indexed": false,
          "internalType": "address",
          "name": "account",
          "type": "address"
        }
      ],
      "name": "Paused",
      "type": "event"
    },
    {
      "anonymous": false,
      "inputs": [
        {
          "indexed": true,
          "internalType": "uint256",
          "name": "proposalId",
          "type": "uint256"
        },
        {
          "indexed": false,
          "internalType": "string",
          "name": "title",
          "type": "string"
        },
        {
          "indexed": true,
          "internalType": "address",
          "name": "creator",
          "type": "address"
        },
        {
          "indexed": false,
          "internalType": "uint256",
          "name": "startDate",
          "type": "uint256"
        },
        {
          "indexed": false,
          "internalType": "uint256",
          "name": "endDate",
          "type": "uint256"
        }
      ],
      "name": "ProposalCreated",
      "type": "event"
    },
    {
      "anonymous": false,
      "inputs": [
        {
          "indexed": true,
          "internalType": "uint256",
          "name": "proposalId",
          "type": "uint256"
        },
        {
          "indexed": false,
          "internalType": "enum Proposals.ProposalState",
          "name": "state",
          "type": "uint8"
        },
        {
          "indexed": false,
          "internalType": "uint256",
          "name": "yesCount",
          "type": "uint256"
        },
        {
          "indexed": false,
          "internalType": "uint256",
          "name": "noCount",
          "type": "uint256"
        },
        {
          "indexed": false,
          "internalType": "uint256",
          "name": "abstainCount",
          "type": "uint256"
        }
      ],
      "name": "ProposalTallyResults",
      "type": "event"
    },
    {
      "anonymous": false,
      "inputs": [
        {
          "indexed": true,
          "internalType": "uint256",
          "name": "proposalId",
          "type": "uint256"
        },
        {
          "indexed": true,
          "internalType": "address",
          "name": "voter",
          "type": "address"
        },
        {
          "indexed": false,
          "internalType": "enum Proposals.VoteOption",
          "name": "vote",
          "type": "uint8"
        },
        {
          "indexed": false,
          "internalType": "uint256",
          "name": "timestamp",
          "type": "uint256"
        }
      ],
      "name": "ProposalVoted",
      "type": "event"
    },
    {
      "anonymous": false,
      "inputs": [
        {
          "indexed": false,
          "internalType": "address",
          "name": "account",
          "type": "address"
        }
      ],
      "name": "Unpaused",
      "type": "event"
    },
    {
      "inputs": [
        {
          "internalType": "uint256",
          "name": "proposalId",
          "type": "uint256"
        },
        {
          "internalType": "enum Proposals.VoteOption",
          "name": "vote",
          "type": "uint8"
        }
      ],
      "name": "castVote",
      "outputs": [],
      "stateMutability": "nonpayable",
      "type": "function"
    },
    {
      "inputs": [
        {
          "internalType": "string",
          "name": "title",
          "type": "string"
        },
        {
          "internalType": "string",
          "name": "description",
          "type": "string"
        },
        {
          "internalType": "string",
          "name": "proposalType",
          "type": "string"
        },
        {
          "internalType": "uint256",
          "name": "startDate",
          "type": "uint256"
        },
        {
          "internalType": "uint256",
          "name": "endDate",
          "type": "uint256"
        }
      ],
      "name": "createProposal",
      "outputs": [],
      "stateMutability": "nonpayable",
      "type": "function"
    },
    {
      "inputs": [],
      "name": "getBoardOfDirectors",
      "outputs": [
        {
          "internalType": "address[]",
          "name": "",
          "type": "address[]"
        }
      ],
      "stateMutability": "view",
      "type": "function"
    },
    {
      "inputs": [
        {
          "internalType": "uint256",
          "name": "proposalId",
          "type": "uint256"
        }
      ],
      "name": "getProposal",
      "outputs": [
        {
          "components": [
            {
              "internalType": "uint256",
              "name": "id",
              "type": "uint256"
            },
            {
              "internalType": "string",
              "name": "title",
              "type": "string"
            },
            {
              "internalType": "string",
              "name": "description",
              "type": "string"
            },
            {
              "internalType": "string",
              "name": "proposalType",
              "type": "string"
            },
            {
              "internalType": "uint256",
              "name": "startDate",
              "type": "uint256"
            },
            {
              "internalType": "uint256",
              "name": "endDate",
              "type": "uint256"
            },
            {
              "internalType": "address",
              "name": "creator",
              "type": "address"
            },
            {
              "internalType": "uint256",
              "name": "voteCount",
              "type": "uint256"
            },
            {
              "internalType": "uint256",
              "name": "totalVoters",
              "type": "uint256"
            },
            {
              "internalType": "uint256",
              "name": "yesCount",
              "type": "uint256"
            },
            {
              "internalType": "uint256",
              "name": "noCount",
              "type": "uint256"
            },
            {
              "internalType": "uint256",
              "name": "abstainCount",
              "type": "uint256"
            },
            {
              "internalType": "enum Proposals.ProposalState",
              "name": "state",
              "type": "uint8"
            }
          ],
          "internalType": "struct Proposals.ProposalView",
          "name": "",
          "type": "tuple"
        }
      ],
      "stateMutability": "view",
      "type": "function"
    },
    {
      "inputs": [
        {
          "internalType": "uint256",
          "name": "proposalId",
          "type": "uint256"
        },
        {
          "internalType": "address",
          "name": "voter",
          "type": "address"
        }
      ],
      "name": "hasVoted",
      "outputs": [
        {
          "internalType": "bool",
          "name": "",
          "type": "bool"
        }
      ],
      "stateMutability": "view",
      "type": "function"
    },
    {
      "inputs": [
        {
          "internalType": "address",
          "name": "_owner",
          "type": "address"
        }
      ],
      "name": "initialize",
      "outputs": [],
      "stateMutability": "nonpayable",
      "type": "function"
    },
    {
      "inputs": [],
      "name": "owner",
      "outputs": [
        {
          "internalType": "address",
          "name": "",
          "type": "address"
        }
      ],
      "stateMutability": "view",
      "type": "function"
    },
    {
      "inputs": [],
      "name": "paused",
      "outputs": [
        {
          "internalType": "bool",
          "name": "",
          "type": "bool"
        }
      ],
      "stateMutability": "view",
      "type": "function"
    },
    {
      "inputs": [],
      "name": "renounceOwnership",
      "outputs": [],
      "stateMutability": "nonpayable",
      "type": "function"
    },
    {
      "inputs": [
        {
          "internalType": "address",
          "name": "_boardOfDirectorsContractAddress",
          "type": "address"
        }
      ],
      "name": "setBoardOfDirectorsContractAddress",
      "outputs": [],
      "stateMutability": "nonpayable",
      "type": "function"
    },
    {
      "inputs": [
        {
          "internalType": "uint256",
          "name": "proposalId",
          "type": "uint256"
        }
      ],
      "name": "tallyResults",
      "outputs": [],
      "stateMutability": "nonpayable",
      "type": "function"
    },
    {
      "inputs": [
        {
          "internalType": "address",
          "name": "newOwner",
          "type": "address"
        }
      ],
      "name": "transferOwnership",
      "outputs": [],
      "stateMutability": "nonpayable",
      "type": "function"
    }
  ],
  "bytecode": "0x608060405234801561001057600080fd5b50611790806100206000396000f3fe608060405234801561001057600080fd5b50600436106100b45760003560e01c80638e295bda116100715780638e295bda1461016157806393ec604f14610174578063c4d66de814610187578063c7f758a81461019a578063ec172193146101ba578063f2fde38b146101cd57600080fd5b80632fb3d0af146100b957806343859632146100d757806356781388146100fa5780635c975abb1461010f578063715018a6146101395780638da5cb5b14610141575b600080fd5b6100c16101e0565b6040516100ce9190611100565b60405180910390f35b6100ea6100e5366004611162565b610285565b60405190151581526020016100ce565b61010d610108366004611192565b6102db565b005b7fcd5ed15c6e187e77e9aee88184c21f4f2182ab5827cb3b7e07fbedcd63f033005460ff166100ea565b61010d61058f565b6101496105a3565b6040516001600160a01b0390911681526020016100ce565b61010d61016f366004611272565b6105d1565b61010d61018236600461130c565b610809565b61010d610195366004611325565b6109a0565b6101ad6101a836600461130c565b610ac4565b6040516100ce91906113b9565b61010d6101c8366004611325565b610d49565b61010d6101db366004611325565b610dbc565b6002546060906001600160a01b031661020c57604051631edff1ab60e31b815260040160405180910390fd5b60025460408051632fb3d0af60e01b815290516001600160a01b03909216918291632fb3d0af9160048083019260009291908290030181865afa158015610257573d6000803e3d6000fd5b505050506040513d6000823e601f3d908101601f1916820160405261027f91908101906114ac565b91505090565b6000828152602081905260408120805482036102b45760405163635e873760e01b815260040160405180910390fd5b6001600160a01b0383166000908152600d909101602052604090205460ff16905092915050565b6002546001600160a01b031661030457604051631edff1ab60e31b815260040160405180910390fd5b60025460405163288c314960e21b81523360048201526001600160a01b039091169063a230c52490602401602060405180830381865afa15801561034c573d6000803e3d6000fd5b505050506040513d601f19601f82011682018060405250810190610370919061155e565b61038d57604051635eeccf8760e11b815260040160405180910390fd5b610395610dff565b600082815260208190526040812080549091036103c55760405163635e873760e01b815260040160405180910390fd5b80600401544210156103ea57604051630820cb6d60e21b815260040160405180910390fd5b806005015442111561040f576040516376bf388f60e01b815260040160405180910390fd5b336000908152600d8201602052604090205460ff161561044257604051633dc416fb60e01b815260040160405180910390fd5b336000908152600d820160205260408120805460ff191660011790556007820180549161046e83611580565b90915550600090508260028111156104885761048861138f565b036104a95760098101805490600061049f83611580565b9190505550610505565b60018260028111156104bd576104bd61138f565b036104d457600a8101805490600061049f83611580565b60028260028111156104e8576104e861138f565b0361050557600b810180549060006104ff83611580565b91905055505b336001600160a01b0316837f5e1602e38ecc9ec3e587f14a5449e8f50d4e01badffb209bb275e3400571cb7a84426040516105419291906115a7565b60405180910390a380600801548160070154036105615761056183610809565b5061058b60017f9b779b17422d0df92223018b32b4d1fa46e071723d6817e2486d003becc55f0055565b5050565b610597610e6f565b6105a16000610ea1565b565b7f9016d09d72d40fdae2fd8ceac6b6234c7706214fd39c1cd1e609a0528c199300546001600160a01b031690565b6002546001600160a01b03166105fa57604051631edff1ab60e31b815260040160405180910390fd5b6106048282610f12565b61060e8585610f67565b60025460408051632fb3d0af60e01b815290516000926001600160a01b031691632fb3d0af91600480830192869291908290030181865afa158015610657573d6000803e3d6000fd5b505050506040513d6000823e601f3d908101601f1916820160405261067f91908101906114ac565b519050806000036106a35760405163dbb954e360e01b815260040160405180910390fd5b60025460405163288c314960e21b81523360048201526001600160a01b039091169063a230c52490602401602060405180830381865afa1580156106eb573d6000803e3d6000fd5b505050506040513d601f19601f8201168201806040525081019061070f919061155e565b61072c57604051635eeccf8760e11b815260040160405180910390fd5b60018054600081815260208190526040902090815590810161074e888261164c565b506002810161075d878261164c565b506003810161076c868261164c565b5060048101849055600581018390556006810180546001600160a01b031916339081179091556000600783015560088201839055600c8201805460ff191690556001546040517f331b791e5a0526c6d6f17a46c1d4139542c8579c245d9f8082d0b1462942f4fa906107e3908b908990899061170c565b60405180910390a3600180549060006107fb83611580565b919050555050505050505050565b60025460405163288c314960e21b81523360048201526001600160a01b039091169063a230c52490602401602060405180830381865afa158015610851573d6000803e3d6000fd5b505050506040513d601f19601f82011682018060405250810190610875919061155e565b61089257604051635eeccf8760e11b815260040160405180910390fd5b600081815260208190526040812080549091036108c25760405163635e873760e01b815260040160405180910390fd5b80600401544210156108e757604051630820cb6d60e21b815260040160405180910390fd5b80600a01548160090154111561091257600c810180546001919060ff191682805b0217905550610948565b806009015481600a0154111561093857600c810180546002919060ff1916600183610908565b600c8101805460ff191660031790555b600c8101546009820154600a830154600b84015460405186947f95d1c09aa397fded76333b7d520a049a1b97a597942fb53bca3a9f070062935f946109949460ff909216939092611731565b60405180910390a25050565b7ff0c57e16840df040f15088dc2f81fe391c3923bec73e23a9662efc9c229c6a008054600160401b810460ff16159067ffffffffffffffff166000811580156109e65750825b905060008267ffffffffffffffff166001148015610a035750303b155b905081158015610a11575080155b15610a2f5760405163f92ee8a960e01b815260040160405180910390fd5b845467ffffffffffffffff191660011785558315610a5957845460ff60401b1916600160401b1785555b610a6286610fc2565b610a6a610fd3565b610a72610fe3565b600180558315610abc57845460ff60401b19168555604051600181527fc7f505b2f371ae2175ee4913f4499e1f2633a7b5936321eed1cdaeb6115181d29060200160405180910390a15b505050505050565b610acc61107f565b60008281526020819052604081208054909103610afc5760405163635e873760e01b815260040160405180910390fd5b604051806101a0016040528082600001548152602001826001018054610b21906115c5565b80601f0160208091040260200160405190810160405280929190818152602001828054610b4d906115c5565b8015610b9a5780601f10610b6f57610100808354040283529160200191610b9a565b820191906000526020600020905b815481529060010190602001808311610b7d57829003601f168201915b50505050508152602001826002018054610bb3906115c5565b80601f0160208091040260200160405190810160405280929190818152602001828054610bdf906115c5565b8015610c2c5780601f10610c0157610100808354040283529160200191610c2c565b820191906000526020600020905b815481529060010190602001808311610c0f57829003601f168201915b50505050508152602001826003018054610c45906115c5565b80601f0160208091040260200160405190810160405280929190818152602001828054610c71906115c5565b8015610cbe5780601f10610c9357610100808354040283529160200191610cbe565b820191906000526020600020905b815481529060010190602001808311610ca157829003601f168201915b5050509183525050600483015460208201526005830154604082015260068301546001600160a01b0316606082015260078301546080820152600883015460a0820152600983015460c0820152600a83015460e0820152600b830154610100820152600c8301546101209091019060ff166003811115610d4057610d4061138f565b90529392505050565b610d516105a3565b6001600160a01b0316336001600160a01b031614158015610d7c57506002546001600160a01b031615155b15610d9a57604051631eb49d6d60e11b815260040160405180910390fd5b600280546001600160a01b0319166001600160a01b0392909216919091179055565b610dc4610e6f565b6001600160a01b038116610df357604051631e4fbdf760e01b8152600060048201526024015b60405180910390fd5b610dfc81610ea1565b50565b7f9b779b17422d0df92223018b32b4d1fa46e071723d6817e2486d003becc55f00805460011901610e4357604051633ee5aeb560e01b815260040160405180910390fd5b60029055565b60017f9b779b17422d0df92223018b32b4d1fa46e071723d6817e2486d003becc55f0055565b33610e786105a3565b6001600160a01b0316146105a15760405163118cdaa760e01b8152336004820152602401610dea565b7f9016d09d72d40fdae2fd8ceac6b6234c7706214fd39c1cd1e609a0528c19930080546001600160a01b031981166001600160a01b03848116918217845560405192169182907f8be0079c531659141344cd1fd0a4f28419497f9722a3daafe3b4186f6b6457e090600090a3505050565b811580610f1d575080155b80610f285750808210155b15610f4657604051637de4ac2360e01b815260040160405180910390fd5b4282101561058b57604051637de4ac2360e01b815260040160405180910390fd5b81511580610f7457508051155b15610f92576040516303d4129b60e01b815260040160405180910390fd5b606482511180610fa457506101f48151115b1561058b576040516303d4129b60e01b815260040160405180910390fd5b610fca610ff3565b610dfc8161103c565b610fdb610ff3565b6105a1611044565b610feb610ff3565b6105a1611077565b7ff0c57e16840df040f15088dc2f81fe391c3923bec73e23a9662efc9c229c6a0054600160401b900460ff166105a157604051631afcd79f60e31b815260040160405180910390fd5b610dc4610ff3565b61104c610ff3565b7fcd5ed15c6e187e77e9aee88184c21f4f2182ab5827cb3b7e07fbedcd63f03300805460ff19169055565b610e49610ff3565b604051806101a0016040528060008152602001606081526020016060815260200160608152602001600081526020016000815260200160006001600160a01b031681526020016000815260200160008152602001600081526020016000815260200160008152602001600060038111156110fb576110fb61138f565b905290565b6020808252825182820181905260009190848201906040850190845b818110156111415783516001600160a01b03168352928401929184019160010161111c565b50909695505050505050565b6001600160a01b0381168114610dfc57600080fd5b6000806040838503121561117557600080fd5b8235915060208301356111878161114d565b809150509250929050565b600080604083850312156111a557600080fd5b8235915060208301356003811061118757600080fd5b634e487b7160e01b600052604160045260246000fd5b604051601f8201601f1916810167ffffffffffffffff811182821017156111fa576111fa6111bb565b604052919050565b600082601f83011261121357600080fd5b813567ffffffffffffffff81111561122d5761122d6111bb565b611240601f8201601f19166020016111d1565b81815284602083860101111561125557600080fd5b816020850160208301376000918101602001919091529392505050565b600080600080600060a0868803121561128a57600080fd5b853567ffffffffffffffff808211156112a257600080fd5b6112ae89838a01611202565b965060208801359150808211156112c457600080fd5b6112d089838a01611202565b955060408801359150808211156112e657600080fd5b506112f388828901611202565b9598949750949560608101359550608001359392505050565b60006020828403121561131e57600080fd5b5035919050565b60006020828403121561133757600080fd5b81356113428161114d565b9392505050565b6000815180845260005b8181101561136f57602081850181015186830182015201611353565b506000602082860101526020601f19601f83011685010191505092915050565b634e487b7160e01b600052602160045260246000fd5b600481106113b5576113b561138f565b9052565b6020815281516020820152600060208301516101a08060408501526113e26101c0850183611349565b91506040850151601f19808685030160608701526114008483611349565b935060608701519150808685030160808701525061141e8382611349565b925050608085015160a085015260a085015160c085015260c085015161144f60e08601826001600160a01b03169052565b5060e085015161010085810191909152850151610120808601919091528501516101408086019190915285015161016080860191909152850151610180808601919091528501516114a2828601826113a5565b5090949350505050565b600060208083850312156114bf57600080fd5b825167ffffffffffffffff808211156114d757600080fd5b818501915085601f8301126114eb57600080fd5b8151818111156114fd576114fd6111bb565b8060051b915061150e8483016111d1565b818152918301840191848101908884111561152857600080fd5b938501935b8385101561155257845192506115428361114d565b828252938501939085019061152d565b98975050505050505050565b60006020828403121561157057600080fd5b8151801515811461134257600080fd5b6000600182016115a057634e487b7160e01b600052601160045260246000fd5b5060010190565b60408101600384106115bb576115bb61138f565b9281526020015290565b600181811c908216806115d957607f821691505b6020821081036115f957634e487b7160e01b600052602260045260246000fd5b50919050565b601f821115611647576000816000526020600020601f850160051c810160208610156116285750805b601f850160051c820191505b81811015610abc57828155600101611634565b505050565b815167ffffffffffffffff811115611666576116666111bb565b61167a8161167484546115c5565b846115ff565b602080601f8311600181146116af57600084156116975750858301515b600019600386901b1c1916600185901b178555610abc565b600085815260208120601f198616915b828110156116de578886015182559484019460019091019084016116bf565b50858210156116fc5787850151600019600388901b60f8161c191681555b5050505050600190811b01905550565b60608152600061171f6060830186611349565b60208301949094525060400152919050565b6080810161173f82876113a5565b8460208301528360408301528260608301529594505050505056fea264697066735822122079570303681783b0f3b29181ff12e96ab6dfe8401a36e40c51e9d681203d9bb264736f6c63430008180033",
  "linkReferences": {},
  "deployedLinkReferences": {}
}