{
  "_format": "hh-sol-artifact-1",
  "contractName": "Proposals",
  "sourceName": "contracts/Proposals/Proposals.sol",
  "abi": [
    {
      "inputs": [],
      "name": "BoardOfDirectorAddressNotSet",
      "type": "error"
    },
    {
      "inputs": [],
      "name": "EnforcedPause",
      "type": "error"
    },
    {
      "inputs": [],
      "name": "ExpectedPause",
      "type": "error"
    },
    {
      "inputs": [],
      "name": "InvalidInitialization",
      "type": "error"
    },
    {
      "inputs": [],
      "name": "InvalidProposalContent",
      "type": "error"
    },
    {
      "inputs": [],
      "name": "InvalidProposalDates",
      "type": "error"
    },
    {
      "inputs": [],
      "name": "InvalidVote",
      "type": "error"
    },
    {
      "inputs": [],
      "name": "NoBoardMembers",
      "type": "error"
    },
    {
      "inputs": [],
      "name": "NotAllowed",
      "type": "error"
    },
    {
      "inputs": [],
      "name": "NotInitializing",
      "type": "error"
    },
    {
      "inputs": [],
      "name": "OnlyBoardMember",
      "type": "error"
    },
    {
      "inputs": [
        {
          "internalType": "address",
          "name": "owner",
          "type": "address"
        }
      ],
      "name": "OwnableInvalidOwner",
      "type": "error"
    },
    {
      "inputs": [
        {
          "internalType": "address",
          "name": "account",
          "type": "address"
        }
      ],
      "name": "OwnableUnauthorizedAccount",
      "type": "error"
    },
    {
      "inputs": [],
      "name": "ProposalAlreadyVoted",
      "type": "error"
    },
    {
      "inputs": [],
      "name": "ProposalNotFound",
      "type": "error"
    },
    {
      "inputs": [],
      "name": "ProposalVotingEnded",
      "type": "error"
    },
    {
      "inputs": [],
      "name": "ProposalVotingNotStarted",
      "type": "error"
    },
    {
      "inputs": [],
      "name": "ReentrancyGuardReentrantCall",
      "type": "error"
    },
    {
      "anonymous": false,
      "inputs": [
        {
          "indexed": false,
          "internalType": "uint64",
          "name": "version",
          "type": "uint64"
        }
      ],
      "name": "Initialized",
      "type": "event"
    },
    {
      "anonymous": false,
      "inputs": [
        {
          "indexed": true,
          "internalType": "address",
          "name": "previousOwner",
          "type": "address"
        },
        {
          "indexed": true,
          "internalType": "address",
          "name": "newOwner",
          "type": "address"
        }
      ],
      "name": "OwnershipTransferred",
      "type": "event"
    },
    {
      "anonymous": false,
      "inputs": [
        {
          "indexed": false,
          "internalType": "address",
          "name": "account",
          "type": "address"
        }
      ],
      "name": "Paused",
      "type": "event"
    },
    {
      "anonymous": false,
      "inputs": [
        {
          "indexed": true,
          "internalType": "uint256",
          "name": "proposalId",
          "type": "uint256"
        },
        {
          "indexed": false,
          "internalType": "string",
          "name": "title",
          "type": "string"
        },
        {
          "indexed": true,
          "internalType": "address",
          "name": "creator",
          "type": "address"
        },
        {
          "indexed": false,
          "internalType": "uint256",
          "name": "startDate",
          "type": "uint256"
        },
        {
          "indexed": false,
          "internalType": "uint256",
          "name": "endDate",
          "type": "uint256"
        }
      ],
      "name": "ProposalCreated",
      "type": "event"
    },
    {
      "anonymous": false,
      "inputs": [
        {
          "indexed": true,
          "internalType": "uint256",
          "name": "proposalId",
          "type": "uint256"
        },
        {
          "indexed": false,
          "internalType": "enum Proposals.ProposalState",
          "name": "state",
          "type": "uint8"
        },
        {
          "indexed": false,
          "internalType": "uint256",
          "name": "yesCount",
          "type": "uint256"
        },
        {
          "indexed": false,
          "internalType": "uint256",
          "name": "noCount",
          "type": "uint256"
        },
        {
          "indexed": false,
          "internalType": "uint256",
          "name": "abstainCount",
          "type": "uint256"
        }
      ],
      "name": "ProposalTallyResults",
      "type": "event"
    },
    {
      "anonymous": false,
      "inputs": [
        {
          "indexed": true,
          "internalType": "uint256",
          "name": "proposalId",
          "type": "uint256"
        },
        {
          "indexed": true,
          "internalType": "address",
          "name": "voter",
          "type": "address"
        },
        {
          "indexed": false,
          "internalType": "enum Proposals.VoteOption",
          "name": "vote",
          "type": "uint8"
        },
        {
          "indexed": false,
          "internalType": "uint256",
          "name": "timestamp",
          "type": "uint256"
        }
      ],
      "name": "ProposalVoted",
      "type": "event"
    },
    {
      "anonymous": false,
      "inputs": [
        {
          "indexed": false,
          "internalType": "address",
          "name": "account",
          "type": "address"
        }
      ],
      "name": "Unpaused",
      "type": "event"
    },
    {
      "inputs": [
        {
          "internalType": "uint256",
          "name": "proposalId",
          "type": "uint256"
        },
        {
          "internalType": "enum Proposals.VoteOption",
          "name": "vote",
          "type": "uint8"
        }
      ],
      "name": "castVote",
      "outputs": [],
      "stateMutability": "nonpayable",
      "type": "function"
    },
    {
      "inputs": [
        {
          "internalType": "string",
          "name": "title",
          "type": "string"
        },
        {
          "internalType": "string",
          "name": "description",
          "type": "string"
        },
        {
          "internalType": "string",
          "name": "proposalType",
          "type": "string"
        },
        {
          "internalType": "uint256",
          "name": "startDate",
          "type": "uint256"
        },
        {
          "internalType": "uint256",
          "name": "endDate",
          "type": "uint256"
        }
      ],
      "name": "createProposal",
      "outputs": [],
      "stateMutability": "nonpayable",
      "type": "function"
    },
    {
      "inputs": [],
      "name": "getBoardOfDirectors",
      "outputs": [
        {
          "internalType": "address[]",
          "name": "",
          "type": "address[]"
        }
      ],
      "stateMutability": "view",
      "type": "function"
    },
    {
      "inputs": [
        {
          "internalType": "uint256",
          "name": "proposalId",
          "type": "uint256"
        }
      ],
      "name": "getProposal",
      "outputs": [
        {
          "components": [
            {
              "internalType": "uint256",
              "name": "id",
              "type": "uint256"
            },
            {
              "internalType": "string",
              "name": "title",
              "type": "string"
            },
            {
              "internalType": "string",
              "name": "description",
              "type": "string"
            },
            {
              "internalType": "string",
              "name": "proposalType",
              "type": "string"
            },
            {
              "internalType": "uint256",
              "name": "startDate",
              "type": "uint256"
            },
            {
              "internalType": "uint256",
              "name": "endDate",
              "type": "uint256"
            },
            {
              "internalType": "address",
              "name": "creator",
              "type": "address"
            },
            {
              "internalType": "uint256",
              "name": "voteCount",
              "type": "uint256"
            },
            {
              "internalType": "uint256",
              "name": "totalVoters",
              "type": "uint256"
            },
            {
              "internalType": "uint256",
              "name": "yesCount",
              "type": "uint256"
            },
            {
              "internalType": "uint256",
              "name": "noCount",
              "type": "uint256"
            },
            {
              "internalType": "uint256",
              "name": "abstainCount",
              "type": "uint256"
            },
            {
              "internalType": "enum Proposals.ProposalState",
              "name": "state",
              "type": "uint8"
            }
          ],
          "internalType": "struct Proposals.ProposalView",
          "name": "",
          "type": "tuple"
        }
      ],
      "stateMutability": "view",
      "type": "function"
    },
    {
      "inputs": [
        {
          "internalType": "uint256",
          "name": "proposalId",
          "type": "uint256"
        },
        {
          "internalType": "address",
          "name": "voter",
          "type": "address"
        }
      ],
      "name": "hasVoted",
      "outputs": [
        {
          "internalType": "bool",
          "name": "",
          "type": "bool"
        }
      ],
      "stateMutability": "view",
      "type": "function"
    },
    {
      "inputs": [
        {
          "internalType": "address",
          "name": "_owner",
          "type": "address"
        }
      ],
      "name": "initialize",
      "outputs": [],
      "stateMutability": "nonpayable",
      "type": "function"
    },
    {
      "inputs": [],
      "name": "owner",
      "outputs": [
        {
          "internalType": "address",
          "name": "",
          "type": "address"
        }
      ],
      "stateMutability": "view",
      "type": "function"
    },
    {
      "inputs": [],
      "name": "paused",
      "outputs": [
        {
          "internalType": "bool",
          "name": "",
          "type": "bool"
        }
      ],
      "stateMutability": "view",
      "type": "function"
    },
    {
      "inputs": [],
      "name": "renounceOwnership",
      "outputs": [],
      "stateMutability": "nonpayable",
      "type": "function"
    },
    {
      "inputs": [
        {
          "internalType": "address",
          "name": "_boardOfDirectorsContractAddress",
          "type": "address"
        }
      ],
      "name": "setBoardOfDirectorsContractAddress",
      "outputs": [],
      "stateMutability": "nonpayable",
      "type": "function"
    },
    {
      "inputs": [
        {
          "internalType": "uint256",
          "name": "proposalId",
          "type": "uint256"
        }
      ],
      "name": "tallyResults",
      "outputs": [],
      "stateMutability": "nonpayable",
      "type": "function"
    },
    {
      "inputs": [
        {
          "internalType": "address",
          "name": "newOwner",
          "type": "address"
        }
      ],
      "name": "transferOwnership",
      "outputs": [],
      "stateMutability": "nonpayable",
      "type": "function"
    }
  ],
  "bytecode": "0x608060405234801561001057600080fd5b50611755806100206000396000f3fe608060405234801561001057600080fd5b50600436106100b45760003560e01c80638e295bda116100715780638e295bda1461016157806393ec604f14610174578063c4d66de814610187578063c7f758a81461019a578063ec172193146101ba578063f2fde38b146101cd57600080fd5b80632fb3d0af146100b957806343859632146100d757806356781388146100fa5780635c975abb1461010f578063715018a6146101395780638da5cb5b14610141575b600080fd5b6100c16101e0565b6040516100ce91906110c5565b60405180910390f35b6100ea6100e5366004611127565b610285565b60405190151581526020016100ce565b61010d610108366004611157565b6102db565b005b7fcd5ed15c6e187e77e9aee88184c21f4f2182ab5827cb3b7e07fbedcd63f033005460ff166100ea565b61010d61058f565b6101496105a3565b6040516001600160a01b0390911681526020016100ce565b61010d61016f366004611237565b6105d1565b61010d6101823660046112d1565b610809565b61010d6101953660046112ea565b6109a0565b6101ad6101a83660046112d1565b610ac4565b6040516100ce919061137e565b61010d6101c83660046112ea565b610d49565b61010d6101db3660046112ea565b610dbc565b6002546060906001600160a01b031661020c57604051631edff1ab60e31b815260040160405180910390fd5b60025460408051632fb3d0af60e01b815290516001600160a01b03909216918291632fb3d0af9160048083019260009291908290030181865afa158015610257573d6000803e3d6000fd5b505050506040513d6000823e601f3d908101601f1916820160405261027f9190810190611471565b91505090565b6000828152602081905260408120805482036102b45760405163635e873760e01b815260040160405180910390fd5b6001600160a01b0383166000908152600d909101602052604090205460ff16905092915050565b6002546001600160a01b031661030457604051631edff1ab60e31b815260040160405180910390fd5b60025460405163288c314960e21b81523360048201526001600160a01b039091169063a230c52490602401602060405180830381865afa15801561034c573d6000803e3d6000fd5b505050506040513d601f19601f820116820180604052508101906103709190611523565b61038d57604051635eeccf8760e11b815260040160405180910390fd5b610395610dff565b600082815260208190526040812080549091036103c55760405163635e873760e01b815260040160405180910390fd5b80600401544210156103ea57604051630820cb6d60e21b815260040160405180910390fd5b806005015442111561040f576040516376bf388f60e01b815260040160405180910390fd5b336000908152600d8201602052604090205460ff161561044257604051633dc416fb60e01b815260040160405180910390fd5b336000908152600d820160205260408120805460ff191660011790556007820180549161046e83611545565b909155506000905082600281111561048857610488611354565b036104a95760098101805490600061049f83611545565b9190505550610505565b60018260028111156104bd576104bd611354565b036104d457600a8101805490600061049f83611545565b60028260028111156104e8576104e8611354565b0361050557600b810180549060006104ff83611545565b91905055505b336001600160a01b0316837f5e1602e38ecc9ec3e587f14a5449e8f50d4e01badffb209bb275e3400571cb7a844260405161054192919061156c565b60405180910390a380600801548160070154036105615761056183610809565b5061058b60017f9b779b17422d0df92223018b32b4d1fa46e071723d6817e2486d003becc55f0055565b5050565b610597610e6f565b6105a16000610ea1565b565b7f9016d09d72d40fdae2fd8ceac6b6234c7706214fd39c1cd1e609a0528c199300546001600160a01b031690565b6002546001600160a01b03166105fa57604051631edff1ab60e31b815260040160405180910390fd5b6106048282610f12565b61060e8585610f67565b60025460408051632fb3d0af60e01b815290516000926001600160a01b031691632fb3d0af91600480830192869291908290030181865afa158015610657573d6000803e3d6000fd5b505050506040513d6000823e601f3d908101601f1916820160405261067f9190810190611471565b519050806000036106a35760405163dbb954e360e01b815260040160405180910390fd5b60025460405163288c314960e21b81523360048201526001600160a01b039091169063a230c52490602401602060405180830381865afa1580156106eb573d6000803e3d6000fd5b505050506040513d601f19601f8201168201806040525081019061070f9190611523565b61072c57604051635eeccf8760e11b815260040160405180910390fd5b60018054600081815260208190526040902090815590810161074e8882611611565b506002810161075d8782611611565b506003810161076c8682611611565b5060048101849055600581018390556006810180546001600160a01b031916339081179091556000600783015560088201839055600c8201805460ff191690556001546040517f331b791e5a0526c6d6f17a46c1d4139542c8579c245d9f8082d0b1462942f4fa906107e3908b90899089906116d1565b60405180910390a3600180549060006107fb83611545565b919050555050505050505050565b60025460405163288c314960e21b81523360048201526001600160a01b039091169063a230c52490602401602060405180830381865afa158015610851573d6000803e3d6000fd5b505050506040513d601f19601f820116820180604052508101906108759190611523565b61089257604051635eeccf8760e11b815260040160405180910390fd5b600081815260208190526040812080549091036108c25760405163635e873760e01b815260040160405180910390fd5b80600401544210156108e757604051630820cb6d60e21b815260040160405180910390fd5b80600a01548160090154111561091257600c810180546001919060ff191682805b0217905550610948565b806009015481600a0154111561093857600c810180546002919060ff1916600183610908565b600c8101805460ff191660031790555b600c8101546009820154600a830154600b84015460405186947f95d1c09aa397fded76333b7d520a049a1b97a597942fb53bca3a9f070062935f946109949460ff9092169390926116f6565b60405180910390a25050565b7ff0c57e16840df040f15088dc2f81fe391c3923bec73e23a9662efc9c229c6a008054600160401b810460ff16159067ffffffffffffffff166000811580156109e65750825b905060008267ffffffffffffffff166001148015610a035750303b155b905081158015610a11575080155b15610a2f5760405163f92ee8a960e01b815260040160405180910390fd5b845467ffffffffffffffff191660011785558315610a5957845460ff60401b1916600160401b1785555b610a6286610fc2565b610a6a610fd3565b610a72610fdb565b600180558315610abc57845460ff60401b19168555604051600181527fc7f505b2f371ae2175ee4913f4499e1f2633a7b5936321eed1cdaeb6115181d29060200160405180910390a15b505050505050565b610acc611044565b60008281526020819052604081208054909103610afc5760405163635e873760e01b815260040160405180910390fd5b604051806101a0016040528082600001548152602001826001018054610b219061158a565b80601f0160208091040260200160405190810160405280929190818152602001828054610b4d9061158a565b8015610b9a5780601f10610b6f57610100808354040283529160200191610b9a565b820191906000526020600020905b815481529060010190602001808311610b7d57829003601f168201915b50505050508152602001826002018054610bb39061158a565b80601f0160208091040260200160405190810160405280929190818152602001828054610bdf9061158a565b8015610c2c5780601f10610c0157610100808354040283529160200191610c2c565b820191906000526020600020905b815481529060010190602001808311610c0f57829003601f168201915b50505050508152602001826003018054610c459061158a565b80601f0160208091040260200160405190810160405280929190818152602001828054610c719061158a565b8015610cbe5780601f10610c9357610100808354040283529160200191610cbe565b820191906000526020600020905b815481529060010190602001808311610ca157829003601f168201915b5050509183525050600483015460208201526005830154604082015260068301546001600160a01b0316606082015260078301546080820152600883015460a0820152600983015460c0820152600a83015460e0820152600b830154610100820152600c8301546101209091019060ff166003811115610d4057610d40611354565b90529392505050565b610d516105a3565b6001600160a01b0316336001600160a01b031614158015610d7c57506002546001600160a01b031615155b15610d9a57604051631eb49d6d60e11b815260040160405180910390fd5b600280546001600160a01b0319166001600160a01b0392909216919091179055565b610dc4610e6f565b6001600160a01b038116610df357604051631e4fbdf760e01b8152600060048201526024015b60405180910390fd5b610dfc81610ea1565b50565b7f9b779b17422d0df92223018b32b4d1fa46e071723d6817e2486d003becc55f00805460011901610e4357604051633ee5aeb560e01b815260040160405180910390fd5b60029055565b60017f9b779b17422d0df92223018b32b4d1fa46e071723d6817e2486d003becc55f0055565b33610e786105a3565b6001600160a01b0316146105a15760405163118cdaa760e01b8152336004820152602401610dea565b7f9016d09d72d40fdae2fd8ceac6b6234c7706214fd39c1cd1e609a0528c19930080546001600160a01b031981166001600160a01b03848116918217845560405192169182907f8be0079c531659141344cd1fd0a4f28419497f9722a3daafe3b4186f6b6457e090600090a3505050565b811580610f1d575080155b80610f285750808210155b15610f4657604051637de4ac2360e01b815260040160405180910390fd5b4282101561058b57604051637de4ac2360e01b815260040160405180910390fd5b81511580610f7457508051155b15610f92576040516303d4129b60e01b815260040160405180910390fd5b606482511180610fa457506101f48151115b1561058b576040516303d4129b60e01b815260040160405180910390fd5b610fca610feb565b610dfc81611034565b6105a1610feb565b610fe3610feb565b6105a161103c565b7ff0c57e16840df040f15088dc2f81fe391c3923bec73e23a9662efc9c229c6a0054600160401b900460ff166105a157604051631afcd79f60e31b815260040160405180910390fd5b610dc4610feb565b610e49610feb565b604051806101a0016040528060008152602001606081526020016060815260200160608152602001600081526020016000815260200160006001600160a01b031681526020016000815260200160008152602001600081526020016000815260200160008152602001600060038111156110c0576110c0611354565b905290565b6020808252825182820181905260009190848201906040850190845b818110156111065783516001600160a01b0316835292840192918401916001016110e1565b50909695505050505050565b6001600160a01b0381168114610dfc57600080fd5b6000806040838503121561113a57600080fd5b82359150602083013561114c81611112565b809150509250929050565b6000806040838503121561116a57600080fd5b8235915060208301356003811061114c57600080fd5b634e487b7160e01b600052604160045260246000fd5b604051601f8201601f1916810167ffffffffffffffff811182821017156111bf576111bf611180565b604052919050565b600082601f8301126111d857600080fd5b813567ffffffffffffffff8111156111f2576111f2611180565b611205601f8201601f1916602001611196565b81815284602083860101111561121a57600080fd5b816020850160208301376000918101602001919091529392505050565b600080600080600060a0868803121561124f57600080fd5b853567ffffffffffffffff8082111561126757600080fd5b61127389838a016111c7565b9650602088013591508082111561128957600080fd5b61129589838a016111c7565b955060408801359150808211156112ab57600080fd5b506112b8888289016111c7565b9598949750949560608101359550608001359392505050565b6000602082840312156112e357600080fd5b5035919050565b6000602082840312156112fc57600080fd5b813561130781611112565b9392505050565b6000815180845260005b8181101561133457602081850181015186830182015201611318565b506000602082860101526020601f19601f83011685010191505092915050565b634e487b7160e01b600052602160045260246000fd5b6004811061137a5761137a611354565b9052565b6020815281516020820152600060208301516101a08060408501526113a76101c085018361130e565b91506040850151601f19808685030160608701526113c5848361130e565b93506060870151915080868503016080870152506113e3838261130e565b925050608085015160a085015260a085015160c085015260c085015161141460e08601826001600160a01b03169052565b5060e085015161010085810191909152850151610120808601919091528501516101408086019190915285015161016080860191909152850151610180808601919091528501516114678286018261136a565b5090949350505050565b6000602080838503121561148457600080fd5b825167ffffffffffffffff8082111561149c57600080fd5b818501915085601f8301126114b057600080fd5b8151818111156114c2576114c2611180565b8060051b91506114d3848301611196565b81815291830184019184810190888411156114ed57600080fd5b938501935b83851015611517578451925061150783611112565b82825293850193908501906114f2565b98975050505050505050565b60006020828403121561153557600080fd5b8151801515811461130757600080fd5b60006001820161156557634e487b7160e01b600052601160045260246000fd5b5060010190565b604081016003841061158057611580611354565b9281526020015290565b600181811c9082168061159e57607f821691505b6020821081036115be57634e487b7160e01b600052602260045260246000fd5b50919050565b601f82111561160c576000816000526020600020601f850160051c810160208610156115ed5750805b601f850160051c820191505b81811015610abc578281556001016115f9565b505050565b815167ffffffffffffffff81111561162b5761162b611180565b61163f81611639845461158a565b846115c4565b602080601f831160018114611674576000841561165c5750858301515b600019600386901b1c1916600185901b178555610abc565b600085815260208120601f198616915b828110156116a357888601518255948401946001909101908401611684565b50858210156116c15787850151600019600388901b60f8161c191681555b5050505050600190811b01905550565b6060815260006116e4606083018661130e565b60208301949094525060400152919050565b60808101611704828761136a565b8460208301528360408301528260608301529594505050505056fea264697066735822122070d5563aa3394a044b4796c4b45f27a7158e60065d65ed5bc04f62f5cf5ef21864736f6c63430008180033",
  "linkReferences": {},
  "deployedLinkReferences": {}
}