{
  "_format": "hh-sol-artifact-1",
  "contractName": "Proposals",
  "sourceName": "contracts/Proposals/Proposals.sol",
  "abi": [
    {
      "inputs": [],
      "stateMutability": "nonpayable",
      "type": "constructor"
    },
    {
      "inputs": [],
      "name": "BoardOfDirectorAddressNotSet",
      "type": "error"
    },
    {
      "inputs": [],
      "name": "BoardOfDirectorsNotFound",
      "type": "error"
    },
    {
      "inputs": [],
      "name": "EnforcedPause",
      "type": "error"
    },
    {
      "inputs": [],
      "name": "ExpectedPause",
      "type": "error"
    },
    {
      "inputs": [],
      "name": "InvalidInitialization",
      "type": "error"
    },
    {
      "inputs": [],
      "name": "InvalidProposalContent",
      "type": "error"
    },
    {
      "inputs": [],
      "name": "InvalidProposalDates",
      "type": "error"
    },
    {
      "inputs": [],
      "name": "InvalidVote",
      "type": "error"
    },
    {
      "inputs": [],
      "name": "NoBoardMembers",
      "type": "error"
    },
    {
      "inputs": [],
      "name": "NotAllowed",
      "type": "error"
    },
    {
      "inputs": [],
      "name": "NotInitializing",
      "type": "error"
    },
    {
      "inputs": [],
      "name": "OfficerAddressNotSet",
      "type": "error"
    },
    {
      "inputs": [],
      "name": "OnlyBoardMember",
      "type": "error"
    },
    {
      "inputs": [
        {
          "internalType": "address",
          "name": "owner",
          "type": "address"
        }
      ],
      "name": "OwnableInvalidOwner",
      "type": "error"
    },
    {
      "inputs": [
        {
          "internalType": "address",
          "name": "account",
          "type": "address"
        }
      ],
      "name": "OwnableUnauthorizedAccount",
      "type": "error"
    },
    {
      "inputs": [],
      "name": "ProposalAlreadyVoted",
      "type": "error"
    },
    {
      "inputs": [],
      "name": "ProposalNotFound",
      "type": "error"
    },
    {
      "inputs": [],
      "name": "ProposalVotingEnded",
      "type": "error"
    },
    {
      "inputs": [],
      "name": "ProposalVotingNotStarted",
      "type": "error"
    },
    {
      "inputs": [],
      "name": "ReentrancyGuardReentrantCall",
      "type": "error"
    },
    {
      "inputs": [],
      "name": "ZeroSender",
      "type": "error"
    },
    {
      "anonymous": false,
      "inputs": [
        {
          "indexed": false,
          "internalType": "uint64",
          "name": "version",
          "type": "uint64"
        }
      ],
      "name": "Initialized",
      "type": "event"
    },
    {
      "anonymous": false,
      "inputs": [
        {
          "indexed": true,
          "internalType": "address",
          "name": "previousOwner",
          "type": "address"
        },
        {
          "indexed": true,
          "internalType": "address",
          "name": "newOwner",
          "type": "address"
        }
      ],
      "name": "OwnershipTransferred",
      "type": "event"
    },
    {
      "anonymous": false,
      "inputs": [
        {
          "indexed": false,
          "internalType": "address",
          "name": "account",
          "type": "address"
        }
      ],
      "name": "Paused",
      "type": "event"
    },
    {
      "anonymous": false,
      "inputs": [
        {
          "indexed": true,
          "internalType": "uint256",
          "name": "proposalId",
          "type": "uint256"
        },
        {
          "indexed": false,
          "internalType": "string",
          "name": "title",
          "type": "string"
        },
        {
          "indexed": true,
          "internalType": "address",
          "name": "creator",
          "type": "address"
        },
        {
          "indexed": false,
          "internalType": "uint256",
          "name": "startDate",
          "type": "uint256"
        },
        {
          "indexed": false,
          "internalType": "uint256",
          "name": "endDate",
          "type": "uint256"
        }
      ],
      "name": "ProposalCreated",
      "type": "event"
    },
    {
      "anonymous": false,
      "inputs": [
        {
          "indexed": true,
          "internalType": "uint256",
          "name": "proposalId",
          "type": "uint256"
        },
        {
          "indexed": false,
          "internalType": "enum Proposals.ProposalState",
          "name": "state",
          "type": "uint8"
        },
        {
          "indexed": false,
          "internalType": "uint256",
          "name": "yesCount",
          "type": "uint256"
        },
        {
          "indexed": false,
          "internalType": "uint256",
          "name": "noCount",
          "type": "uint256"
        },
        {
          "indexed": false,
          "internalType": "uint256",
          "name": "abstainCount",
          "type": "uint256"
        }
      ],
      "name": "ProposalTallyResults",
      "type": "event"
    },
    {
      "anonymous": false,
      "inputs": [
        {
          "indexed": true,
          "internalType": "uint256",
          "name": "proposalId",
          "type": "uint256"
        },
        {
          "indexed": true,
          "internalType": "address",
          "name": "voter",
          "type": "address"
        },
        {
          "indexed": false,
          "internalType": "enum Proposals.VoteOption",
          "name": "vote",
          "type": "uint8"
        },
        {
          "indexed": false,
          "internalType": "uint256",
          "name": "timestamp",
          "type": "uint256"
        }
      ],
      "name": "ProposalVoted",
      "type": "event"
    },
    {
      "anonymous": false,
      "inputs": [
        {
          "indexed": false,
          "internalType": "address",
          "name": "account",
          "type": "address"
        }
      ],
      "name": "Unpaused",
      "type": "event"
    },
    {
      "inputs": [
        {
          "internalType": "uint256",
          "name": "proposalId",
          "type": "uint256"
        },
        {
          "internalType": "enum Proposals.VoteOption",
          "name": "vote",
          "type": "uint8"
        }
      ],
      "name": "castVote",
      "outputs": [],
      "stateMutability": "nonpayable",
      "type": "function"
    },
    {
      "inputs": [
        {
          "internalType": "string",
          "name": "title",
          "type": "string"
        },
        {
          "internalType": "string",
          "name": "description",
          "type": "string"
        },
        {
          "internalType": "string",
          "name": "proposalType",
          "type": "string"
        },
        {
          "internalType": "uint256",
          "name": "startDate",
          "type": "uint256"
        },
        {
          "internalType": "uint256",
          "name": "endDate",
          "type": "uint256"
        }
      ],
      "name": "createProposal",
      "outputs": [],
      "stateMutability": "nonpayable",
      "type": "function"
    },
    {
      "inputs": [],
      "name": "getBoardOfDirectors",
      "outputs": [
        {
          "internalType": "address[]",
          "name": "",
          "type": "address[]"
        }
      ],
      "stateMutability": "view",
      "type": "function"
    },
    {
      "inputs": [
        {
          "internalType": "uint256",
          "name": "proposalId",
          "type": "uint256"
        }
      ],
      "name": "getProposal",
      "outputs": [
        {
          "components": [
            {
              "internalType": "uint256",
              "name": "id",
              "type": "uint256"
            },
            {
              "internalType": "string",
              "name": "title",
              "type": "string"
            },
            {
              "internalType": "string",
              "name": "description",
              "type": "string"
            },
            {
              "internalType": "string",
              "name": "proposalType",
              "type": "string"
            },
            {
              "internalType": "uint256",
              "name": "startDate",
              "type": "uint256"
            },
            {
              "internalType": "uint256",
              "name": "endDate",
              "type": "uint256"
            },
            {
              "internalType": "address",
              "name": "creator",
              "type": "address"
            },
            {
              "internalType": "uint256",
              "name": "voteCount",
              "type": "uint256"
            },
            {
              "internalType": "uint256",
              "name": "totalVoters",
              "type": "uint256"
            },
            {
              "internalType": "uint256",
              "name": "yesCount",
              "type": "uint256"
            },
            {
              "internalType": "uint256",
              "name": "noCount",
              "type": "uint256"
            },
            {
              "internalType": "uint256",
              "name": "abstainCount",
              "type": "uint256"
            },
            {
              "internalType": "enum Proposals.ProposalState",
              "name": "state",
              "type": "uint8"
            }
          ],
          "internalType": "struct Proposals.ProposalView",
          "name": "",
          "type": "tuple"
        }
      ],
      "stateMutability": "view",
      "type": "function"
    },
    {
      "inputs": [
        {
          "internalType": "uint256",
          "name": "proposalId",
          "type": "uint256"
        },
        {
          "internalType": "address",
          "name": "voter",
          "type": "address"
        }
      ],
      "name": "hasVoted",
      "outputs": [
        {
          "internalType": "bool",
          "name": "",
          "type": "bool"
        }
      ],
      "stateMutability": "view",
      "type": "function"
    },
    {
      "inputs": [
        {
          "internalType": "address",
          "name": "_owner",
          "type": "address"
        }
      ],
      "name": "initialize",
      "outputs": [],
      "stateMutability": "nonpayable",
      "type": "function"
    },
    {
      "inputs": [],
      "name": "officerAddress",
      "outputs": [
        {
          "internalType": "address",
          "name": "",
          "type": "address"
        }
      ],
      "stateMutability": "view",
      "type": "function"
    },
    {
      "inputs": [],
      "name": "owner",
      "outputs": [
        {
          "internalType": "address",
          "name": "",
          "type": "address"
        }
      ],
      "stateMutability": "view",
      "type": "function"
    },
    {
      "inputs": [],
      "name": "paused",
      "outputs": [
        {
          "internalType": "bool",
          "name": "",
          "type": "bool"
        }
      ],
      "stateMutability": "view",
      "type": "function"
    },
    {
      "inputs": [],
      "name": "renounceOwnership",
      "outputs": [],
      "stateMutability": "nonpayable",
      "type": "function"
    },
    {
      "inputs": [
        {
          "internalType": "uint256",
          "name": "proposalId",
          "type": "uint256"
        }
      ],
      "name": "tallyResults",
      "outputs": [],
      "stateMutability": "nonpayable",
      "type": "function"
    },
    {
      "inputs": [
        {
          "internalType": "address",
          "name": "newOwner",
          "type": "address"
        }
      ],
      "name": "transferOwnership",
      "outputs": [],
      "stateMutability": "nonpayable",
      "type": "function"
    }
  ],
  "bytecode": "0x608060405234801561001057600080fd5b5061001961001e565b6100d0565b7ff0c57e16840df040f15088dc2f81fe391c3923bec73e23a9662efc9c229c6a00805468010000000000000000900460ff161561006e5760405163f92ee8a960e01b815260040160405180910390fd5b80546001600160401b03908116146100cd5780546001600160401b0319166001600160401b0390811782556040519081527fc7f505b2f371ae2175ee4913f4499e1f2633a7b5936321eed1cdaeb6115181d29060200160405180910390a15b50565b61182c806100df6000396000f3fe608060405234801561001057600080fd5b50600436106100b45760003560e01c80638da5cb5b116100715780638da5cb5b1461016c5780638e295bda1461019c57806393ec604f146101af578063c4d66de8146101c2578063c7f758a8146101d5578063f2fde38b146101f557600080fd5b80632fb3d0af146100b9578063315f77ef146100d7578063438596321461010257806356781388146101255780635c975abb1461013a578063715018a614610164575b600080fd5b6100c1610208565b6040516100ce9190611184565b60405180910390f35b6002546100ea906001600160a01b031681565b6040516001600160a01b0390911681526020016100ce565b6101156101103660046111e6565b610291565b60405190151581526020016100ce565b610138610133366004611216565b6102e7565b005b7fcd5ed15c6e187e77e9aee88184c21f4f2182ab5827cb3b7e07fbedcd63f033005460ff16610115565b610138610585565b7f9016d09d72d40fdae2fd8ceac6b6234c7706214fd39c1cd1e609a0528c199300546001600160a01b03166100ea565b6101386101aa3660046112f6565b610599565b6101386101bd366004611390565b6107b1565b6101386101d03660046113a9565b610952565b6101e86101e3366004611390565b610aa6565b6040516100ce919061143d565b6101386102033660046113a9565b610d2b565b6060610212610d6e565b50600061021d610d6e565b90506000819050806001600160a01b0316632fb3d0af6040518163ffffffff1660e01b8152600401600060405180830381865afa158015610262573d6000803e3d6000fd5b505050506040513d6000823e601f3d908101601f1916820160405261028a9190810190611530565b9250505090565b6000828152602081905260408120805482036102c05760405163635e873760e01b815260040160405180910390fd5b6001600160a01b0383166000908152600d909101602052604090205460ff16905092915050565b6102ef610d6e565b5060006102fa610d6e565b60405163288c314960e21b81523360048201529091506001600160a01b0382169063a230c52490602401602060405180830381865afa158015610341573d6000803e3d6000fd5b505050506040513d601f19601f8201168201806040525081019061036591906115e2565b61038257604051635eeccf8760e11b815260040160405180910390fd5b61038a610e56565b600083815260208190526040812080549091036103ba5760405163635e873760e01b815260040160405180910390fd5b80600401544210156103df57604051630820cb6d60e21b815260040160405180910390fd5b8060050154421115610404576040516376bf388f60e01b815260040160405180910390fd5b336000908152600d8201602052604090205460ff161561043757604051633dc416fb60e01b815260040160405180910390fd5b336000908152600d820160205260408120805460ff191660011790556007820180549161046383611604565b909155506000905083600281111561047d5761047d611413565b0361049e5760098101805490600061049483611604565b91905055506104fa565b60018360028111156104b2576104b2611413565b036104c957600a8101805490600061049483611604565b60028360028111156104dd576104dd611413565b036104fa57600b810180549060006104f483611604565b91905055505b336001600160a01b0316847f5e1602e38ecc9ec3e587f14a5449e8f50d4e01badffb209bb275e3400571cb7a854260405161053692919061162b565b60405180910390a3806008015481600701540361055657610556846107b1565b5061058060017f9b779b17422d0df92223018b32b4d1fa46e071723d6817e2486d003becc55f0055565b505050565b61058d610ec6565b6105976000610f21565b565b6105a1610d6e565b506105ac8282610f92565b6105b68585610feb565b60006105c0610d6e565b90506000816001600160a01b0316632fb3d0af6040518163ffffffff1660e01b8152600401600060405180830381865afa158015610602573d6000803e3d6000fd5b505050506040513d6000823e601f3d908101601f1916820160405261062a9190810190611530565b5190508060000361064e5760405163dbb954e360e01b815260040160405180910390fd5b60405163288c314960e21b81523360048201526001600160a01b0383169063a230c52490602401602060405180830381865afa158015610692573d6000803e3d6000fd5b505050506040513d601f19601f820116820180604052508101906106b691906115e2565b6106d357604051635eeccf8760e11b815260040160405180910390fd5b6001805460008181526020819052604090209081559081016106f589826116cb565b506002810161070488826116cb565b506003810161071387826116cb565b5060048101859055600581018490556006810180546001600160a01b031916339081179091556000600783015560088201839055600c8201805460ff191690556001546040517f331b791e5a0526c6d6f17a46c1d4139542c8579c245d9f8082d0b1462942f4fa9061078a908c908a908a9061178b565b60405180910390a3600180549060006107a283611604565b91905055505050505050505050565b60006107bb610d6e565b60405163288c314960e21b81523360048201529091506001600160a01b0382169063a230c52490602401602060405180830381865afa158015610802573d6000803e3d6000fd5b505050506040513d601f19601f8201168201806040525081019061082691906115e2565b61084357604051635eeccf8760e11b815260040160405180910390fd5b600082815260208190526040812080549091036108735760405163635e873760e01b815260040160405180910390fd5b806004015442101561089857604051630820cb6d60e21b815260040160405180910390fd5b80600a0154816009015411156108c357600c810180546001919060ff191682805b02179055506108f9565b806009015481600a015411156108e957600c810180546002919060ff19166001836108b9565b600c8101805460ff191660031790555b600c8101546009820154600a830154600b84015460405187947f95d1c09aa397fded76333b7d520a049a1b97a597942fb53bca3a9f070062935f946109459460ff9092169390926117b0565b60405180910390a2505050565b7ff0c57e16840df040f15088dc2f81fe391c3923bec73e23a9662efc9c229c6a008054600160401b810460ff16159067ffffffffffffffff166000811580156109985750825b905060008267ffffffffffffffff1660011480156109b55750303b155b9050811580156109c3575080155b156109e15760405163f92ee8a960e01b815260040160405180910390fd5b845467ffffffffffffffff191660011785558315610a0b57845460ff60401b1916600160401b1785555b610a1486611046565b610a1c611057565b610a24611067565b6001805533610a465760405163581fa8e360e11b815260040160405180910390fd5b600280546001600160a01b031916331790558315610a9e57845460ff60401b19168555604051600181527fc7f505b2f371ae2175ee4913f4499e1f2633a7b5936321eed1cdaeb6115181d29060200160405180910390a15b505050505050565b610aae611103565b60008281526020819052604081208054909103610ade5760405163635e873760e01b815260040160405180910390fd5b604051806101a0016040528082600001548152602001826001018054610b0390611649565b80601f0160208091040260200160405190810160405280929190818152602001828054610b2f90611649565b8015610b7c5780601f10610b5157610100808354040283529160200191610b7c565b820191906000526020600020905b815481529060010190602001808311610b5f57829003601f168201915b50505050508152602001826002018054610b9590611649565b80601f0160208091040260200160405190810160405280929190818152602001828054610bc190611649565b8015610c0e5780601f10610be357610100808354040283529160200191610c0e565b820191906000526020600020905b815481529060010190602001808311610bf157829003601f168201915b50505050508152602001826003018054610c2790611649565b80601f0160208091040260200160405190810160405280929190818152602001828054610c5390611649565b8015610ca05780601f10610c7557610100808354040283529160200191610ca0565b820191906000526020600020905b815481529060010190602001808311610c8357829003601f168201915b5050509183525050600483015460208201526005830154604082015260068301546001600160a01b0316606082015260078301546080820152600883015460a0820152600983015460c0820152600a83015460e0820152600b830154610100820152600c8301546101209091019060ff166003811115610d2257610d22611413565b90529392505050565b610d33610ec6565b6001600160a01b038116610d6257604051631e4fbdf760e01b8152600060048201526024015b60405180910390fd5b610d6b81610f21565b50565b6002546000906001600160a01b0316610d9a57604051632000098360e11b815260040160405180910390fd5b60025460405163040a4ce560e21b815260206004820152601060248201526f426f6172644f664469726563746f727360801b60448201526000916001600160a01b031690631029339490606401602060405180830381865afa158015610e04573d6000803e3d6000fd5b505050506040513d601f19601f82011682018060405250810190610e2891906117d9565b90506001600160a01b038116610e515760405163da74de8760e01b815260040160405180910390fd5b919050565b7f9b779b17422d0df92223018b32b4d1fa46e071723d6817e2486d003becc55f00805460011901610e9a57604051633ee5aeb560e01b815260040160405180910390fd5b60029055565b60017f9b779b17422d0df92223018b32b4d1fa46e071723d6817e2486d003becc55f0055565b33610ef87f9016d09d72d40fdae2fd8ceac6b6234c7706214fd39c1cd1e609a0528c199300546001600160a01b031690565b6001600160a01b0316146105975760405163118cdaa760e01b8152336004820152602401610d59565b7f9016d09d72d40fdae2fd8ceac6b6234c7706214fd39c1cd1e609a0528c19930080546001600160a01b031981166001600160a01b03848116918217845560405192169182907f8be0079c531659141344cd1fd0a4f28419497f9722a3daafe3b4186f6b6457e090600090a3505050565b811580610f9d575080155b80610fa85750808210155b15610fc657604051637de4ac2360e01b815260040160405180910390fd5b42821015610fe757604051637de4ac2360e01b815260040160405180910390fd5b5050565b81511580610ff857508051155b15611016576040516303d4129b60e01b815260040160405180910390fd5b60648251118061102857506101f48151115b15610fe7576040516303d4129b60e01b815260040160405180910390fd5b61104e611077565b610d6b816110c0565b61105f611077565b6105976110c8565b61106f611077565b6105976110fb565b7ff0c57e16840df040f15088dc2f81fe391c3923bec73e23a9662efc9c229c6a0054600160401b900460ff1661059757604051631afcd79f60e31b815260040160405180910390fd5b610d33611077565b6110d0611077565b7fcd5ed15c6e187e77e9aee88184c21f4f2182ab5827cb3b7e07fbedcd63f03300805460ff19169055565b610ea0611077565b604051806101a0016040528060008152602001606081526020016060815260200160608152602001600081526020016000815260200160006001600160a01b0316815260200160008152602001600081526020016000815260200160008152602001600081526020016000600381111561117f5761117f611413565b905290565b6020808252825182820181905260009190848201906040850190845b818110156111c55783516001600160a01b0316835292840192918401916001016111a0565b50909695505050505050565b6001600160a01b0381168114610d6b57600080fd5b600080604083850312156111f957600080fd5b82359150602083013561120b816111d1565b809150509250929050565b6000806040838503121561122957600080fd5b8235915060208301356003811061120b57600080fd5b634e487b7160e01b600052604160045260246000fd5b604051601f8201601f1916810167ffffffffffffffff8111828210171561127e5761127e61123f565b604052919050565b600082601f83011261129757600080fd5b813567ffffffffffffffff8111156112b1576112b161123f565b6112c4601f8201601f1916602001611255565b8181528460208386010111156112d957600080fd5b816020850160208301376000918101602001919091529392505050565b600080600080600060a0868803121561130e57600080fd5b853567ffffffffffffffff8082111561132657600080fd5b61133289838a01611286565b9650602088013591508082111561134857600080fd5b61135489838a01611286565b9550604088013591508082111561136a57600080fd5b5061137788828901611286565b9598949750949560608101359550608001359392505050565b6000602082840312156113a257600080fd5b5035919050565b6000602082840312156113bb57600080fd5b81356113c6816111d1565b9392505050565b6000815180845260005b818110156113f3576020818501810151868301820152016113d7565b506000602082860101526020601f19601f83011685010191505092915050565b634e487b7160e01b600052602160045260246000fd5b6004811061143957611439611413565b9052565b6020815281516020820152600060208301516101a08060408501526114666101c08501836113cd565b91506040850151601f198086850301606087015261148484836113cd565b93506060870151915080868503016080870152506114a283826113cd565b925050608085015160a085015260a085015160c085015260c08501516114d360e08601826001600160a01b03169052565b5060e0850151610100858101919091528501516101208086019190915285015161014080860191909152850151610160808601919091528501516101808086019190915285015161152682860182611429565b5090949350505050565b6000602080838503121561154357600080fd5b825167ffffffffffffffff8082111561155b57600080fd5b818501915085601f83011261156f57600080fd5b8151818111156115815761158161123f565b8060051b9150611592848301611255565b81815291830184019184810190888411156115ac57600080fd5b938501935b838510156115d657845192506115c6836111d1565b82825293850193908501906115b1565b98975050505050505050565b6000602082840312156115f457600080fd5b815180151581146113c657600080fd5b60006001820161162457634e487b7160e01b600052601160045260246000fd5b5060010190565b604081016003841061163f5761163f611413565b9281526020015290565b600181811c9082168061165d57607f821691505b60208210810361167d57634e487b7160e01b600052602260045260246000fd5b50919050565b601f821115610580576000816000526020600020601f850160051c810160208610156116ac5750805b601f850160051c820191505b81811015610a9e578281556001016116b8565b815167ffffffffffffffff8111156116e5576116e561123f565b6116f9816116f38454611649565b84611683565b602080601f83116001811461172e57600084156117165750858301515b600019600386901b1c1916600185901b178555610a9e565b600085815260208120601f198616915b8281101561175d5788860151825594840194600190910190840161173e565b508582101561177b5787850151600019600388901b60f8161c191681555b5050505050600190811b01905550565b60608152600061179e60608301866113cd565b60208301949094525060400152919050565b608081016117be8287611429565b84602083015283604083015282606083015295945050505050565b6000602082840312156117eb57600080fd5b81516113c6816111d156fea264697066735822122012fc511cde9e4edbcb5b938bb37162cc069005eb0992723df8f073bd5dcb69d164736f6c63430008180033",
  "linkReferences": {},
  "deployedLinkReferences": {}
}