{
  "_format": "hh-sol-artifact-1",
  "contractName": "Tips",
  "sourceName": "contracts/Tips.sol",
  "abi": [
    {
      "inputs": [],
      "name": "EnforcedPause",
      "type": "error"
    },
    {
      "inputs": [],
      "name": "ExpectedPause",
      "type": "error"
    },
    {
      "inputs": [],
      "name": "InvalidInitialization",
      "type": "error"
    },
    {
      "inputs": [],
      "name": "NotInitializing",
      "type": "error"
    },
    {
      "inputs": [
        {
          "internalType": "address",
          "name": "owner",
          "type": "address"
        }
      ],
      "name": "OwnableInvalidOwner",
      "type": "error"
    },
    {
      "inputs": [
        {
          "internalType": "address",
          "name": "account",
          "type": "address"
        }
      ],
      "name": "OwnableUnauthorizedAccount",
      "type": "error"
    },
    {
      "inputs": [],
      "name": "ReentrancyGuardReentrantCall",
      "type": "error"
    },
    {
      "anonymous": false,
      "inputs": [
        {
          "indexed": false,
          "internalType": "uint64",
          "name": "version",
          "type": "uint64"
        }
      ],
      "name": "Initialized",
      "type": "event"
    },
    {
      "anonymous": false,
      "inputs": [
        {
          "indexed": true,
          "internalType": "address",
          "name": "previousOwner",
          "type": "address"
        },
        {
          "indexed": true,
          "internalType": "address",
          "name": "newOwner",
          "type": "address"
        }
      ],
      "name": "OwnershipTransferred",
      "type": "event"
    },
    {
      "anonymous": false,
      "inputs": [
        {
          "indexed": false,
          "internalType": "address",
          "name": "account",
          "type": "address"
        }
      ],
      "name": "Paused",
      "type": "event"
    },
    {
      "anonymous": false,
      "inputs": [
        {
          "indexed": false,
          "internalType": "address",
          "name": "from",
          "type": "address"
        },
        {
          "indexed": false,
          "internalType": "address[]",
          "name": "teamMembers",
          "type": "address[]"
        },
        {
          "indexed": false,
          "internalType": "uint256",
          "name": "totalAmount",
          "type": "uint256"
        },
        {
          "indexed": false,
          "internalType": "uint256",
          "name": "amountPerAddress",
          "type": "uint256"
        }
      ],
      "name": "PushTip",
      "type": "event"
    },
    {
      "anonymous": false,
      "inputs": [
        {
          "indexed": false,
          "internalType": "address",
          "name": "from",
          "type": "address"
        },
        {
          "indexed": false,
          "internalType": "address[]",
          "name": "teamMembers",
          "type": "address[]"
        },
        {
          "indexed": false,
          "internalType": "uint256",
          "name": "totalAmount",
          "type": "uint256"
        },
        {
          "indexed": false,
          "internalType": "uint256",
          "name": "amountPerAddress",
          "type": "uint256"
        }
      ],
      "name": "SendTip",
      "type": "event"
    },
    {
      "anonymous": false,
      "inputs": [
        {
          "indexed": false,
          "internalType": "address",
          "name": "to",
          "type": "address"
        },
        {
          "indexed": false,
          "internalType": "uint256",
          "name": "amount",
          "type": "uint256"
        }
      ],
      "name": "TipWithdrawal",
      "type": "event"
    },
    {
      "anonymous": false,
      "inputs": [
        {
          "indexed": false,
          "internalType": "address",
          "name": "account",
          "type": "address"
        }
      ],
      "name": "Unpaused",
      "type": "event"
    },
    {
      "inputs": [],
      "name": "MAX_PUSH_LIMIT",
      "outputs": [
        {
          "internalType": "uint8",
          "name": "",
          "type": "uint8"
        }
      ],
      "stateMutability": "view",
      "type": "function"
    },
    {
      "inputs": [
        {
          "internalType": "address",
          "name": "_address",
          "type": "address"
        }
      ],
      "name": "getBalance",
      "outputs": [
        {
          "internalType": "uint256",
          "name": "",
          "type": "uint256"
        }
      ],
      "stateMutability": "view",
      "type": "function"
    },
    {
      "inputs": [],
      "name": "getContractBalance",
      "outputs": [
        {
          "internalType": "uint256",
          "name": "",
          "type": "uint256"
        }
      ],
      "stateMutability": "view",
      "type": "function"
    },
    {
      "inputs": [],
      "name": "initialize",
      "outputs": [],
      "stateMutability": "nonpayable",
      "type": "function"
    },
    {
      "inputs": [],
      "name": "owner",
      "outputs": [
        {
          "internalType": "address",
          "name": "",
          "type": "address"
        }
      ],
      "stateMutability": "view",
      "type": "function"
    },
    {
      "inputs": [],
      "name": "pause",
      "outputs": [],
      "stateMutability": "nonpayable",
      "type": "function"
    },
    {
      "inputs": [],
      "name": "paused",
      "outputs": [
        {
          "internalType": "bool",
          "name": "",
          "type": "bool"
        }
      ],
      "stateMutability": "view",
      "type": "function"
    },
    {
      "inputs": [],
      "name": "pushLimit",
      "outputs": [
        {
          "internalType": "uint8",
          "name": "",
          "type": "uint8"
        }
      ],
      "stateMutability": "view",
      "type": "function"
    },
    {
      "inputs": [
        {
          "internalType": "address[]",
          "name": "_teamMembersAddresses",
          "type": "address[]"
        }
      ],
      "name": "pushTip",
      "outputs": [],
      "stateMutability": "payable",
      "type": "function"
    },
    {
      "inputs": [],
      "name": "renounceOwnership",
      "outputs": [],
      "stateMutability": "nonpayable",
      "type": "function"
    },
    {
      "inputs": [
        {
          "internalType": "address[]",
          "name": "_teamMembersAddresses",
          "type": "address[]"
        }
      ],
      "name": "sendTip",
      "outputs": [],
      "stateMutability": "payable",
      "type": "function"
    },
    {
      "inputs": [
        {
          "internalType": "address",
          "name": "newOwner",
          "type": "address"
        }
      ],
      "name": "transferOwnership",
      "outputs": [],
      "stateMutability": "nonpayable",
      "type": "function"
    },
    {
      "inputs": [],
      "name": "unpause",
      "outputs": [],
      "stateMutability": "nonpayable",
      "type": "function"
    },
    {
      "inputs": [
        {
          "internalType": "uint8",
          "name": "value",
          "type": "uint8"
        }
      ],
      "name": "updatePushLimit",
      "outputs": [],
      "stateMutability": "nonpayable",
      "type": "function"
    },
    {
      "inputs": [],
      "name": "withdraw",
      "outputs": [],
      "stateMutability": "nonpayable",
      "type": "function"
    }
  ],
  "bytecode": "0x608060405234801561001057600080fd5b5061103c806100206000396000f3fe6080604052600436106100e85760003560e01c80638129fc1c1161008a578063b7da400211610059578063b7da400214610256578063f2fde38b14610269578063f3846f3c14610289578063f8b2cb4f1461029e57600080fd5b80638129fc1c146101b95780638456cb59146101ce5780638da5cb5b146101e35780638ecd69d61461022a57600080fd5b80635afa31cb116100c65780635afa31cb146101395780635c975abb1461014c5780636f9fb98a14610181578063715018a6146101a457600080fd5b80632efce967146100ed5780633ccfd60b1461010f5780633f4ba83a14610124575b600080fd5b3480156100f957600080fd5b5061010d610108366004610df4565b6102d4565b005b34801561011b57600080fd5b5061010d6103cc565b34801561013057600080fd5b5061010d61053e565b61010d610147366004610e1e565b61054e565b34801561015857600080fd5b50600080516020610fe78339815191525460ff1660405190151581526020015b60405180910390f35b34801561018d57600080fd5b5061019661081d565b604051908152602001610178565b3480156101b057600080fd5b5061010d61082c565b3480156101c557600080fd5b5061010d61083e565b3480156101da57600080fd5b5061010d610946565b3480156101ef57600080fd5b507f9016d09d72d40fdae2fd8ceac6b6234c7706214fd39c1cd1e609a0528c199300546040516001600160a01b039091168152602001610178565b34801561023657600080fd5b506001546102449060ff1681565b60405160ff9091168152602001610178565b61010d610264366004610e1e565b610956565b34801561027557600080fd5b5061010d610284366004610eaf565b610b13565b34801561029557600080fd5b50610244606481565b3480156102aa57600080fd5b506101966102b9366004610eaf565b6001600160a01b031660009081526020819052604090205490565b6102dc610b51565b60015460ff908116908216036103455760405162461bcd60e51b8152602060048201526024808201527f4e6577206c696d6974206973207468652073616d6520617320746865206f6c64604482015263206f6e6560e01b60648201526084015b60405180910390fd5b606460ff821611156103b65760405162461bcd60e51b815260206004820152603460248201527f50757368206c696d697420697320746f6f20686967682c206d7573742062652060448201527306c657373206f7220657175616c20746f203130360641b606482015260840161033c565b6001805460ff191660ff92909216919091179055565b6103d4610bac565b6103dc610bf6565b33600090815260208190526040902054806104305760405162461bcd60e51b81526020600482015260146024820152732737903a34b839903a37903bb4ba34323930bb9760611b604482015260640161033c565b604051600090339083908381818185875af1925050503d8060008114610472576040519150601f19603f3d011682016040523d82523d6000602084013e610477565b606091505b50509050806104c85760405162461bcd60e51b815260206004820152601860248201527f4661696c656420746f20776974686472617720746970732e0000000000000000604482015260640161033c565b3360009081526020819052604081205560408051338152602081018490527fa461edd651ade6de5f7ed6f480ce21bf39835bd38c7af46b1061d4eeda6ffb1c910160405180910390a1505061053c60017f9b779b17422d0df92223018b32b4d1fa46e071723d6817e2486d003becc55f0055565b565b610546610b51565b61053c610c27565b6000341161059e5760405162461bcd60e51b815260206004820152601c60248201527f4d7573742073656e64206120706f73697469766520616d6f756e742e00000000604482015260640161033c565b6105a6610bf6565b806105c35760405162461bcd60e51b815260040161033c90610eca565b60015460ff168111156106185760405162461bcd60e51b815260206004820152601e60248201527f596f75206861766520746f6f206d756368207465616d206d656d626572730000604482015260640161033c565b6000600254346106289190610f0c565b905060006106368383610f43565b90506106428383610f57565b60025560005b838110156107d857600085858381811061066457610664610f6b565b90506020020160208101906106799190610eaf565b6001600160a01b0316036106c15760405162461bcd60e51b815260206004820152600f60248201526e496e76616c6964206164647265737360881b604482015260640161033c565b814710156107115760405162461bcd60e51b815260206004820152601d60248201527f496e73756666696369656e7420636f6e74726163742062616c616e6365000000604482015260640161033c565b600085858381811061072557610725610f6b565b905060200201602081019061073a9190610eaf565b6001600160a01b03168360405160006040518083038185875af1925050503d8060008114610784576040519150601f19603f3d011682016040523d82523d6000602084013e610789565b606091505b50509050806107cf5760405162461bcd60e51b815260206004820152601260248201527108cc2d2d8cac840e8de40e6cadcc8408aa8960731b604482015260640161033c565b50600101610648565b507edaae18e5f308b4349acd79a108c6c728c8cba8ea59ad6fc30fc841c2395c42338585348560405161080f959493929190610f81565b60405180910390a150505050565b6000610827610b51565b504790565b610834610b51565b61053c6000610c87565b6000610848610cf8565b805490915060ff600160401b820416159067ffffffffffffffff166000811580156108705750825b905060008267ffffffffffffffff16600114801561088d5750303b155b90508115801561089b575080155b156108b95760405163f92ee8a960e01b815260040160405180910390fd5b845467ffffffffffffffff1916600117855583156108e357845460ff60401b1916600160401b1785555b6108ec33610d23565b6001805460ff1916600a179055831561093f57845460ff60401b19168555604051600181527fc7f505b2f371ae2175ee4913f4499e1f2633a7b5936321eed1cdaeb6115181d29060200160405180910390a15b5050505050565b61094e610b51565b61053c610d34565b600034116109a65760405162461bcd60e51b815260206004820152601c60248201527f4d7573742073656e64206120706f73697469766520616d6f756e742e00000000604482015260640161033c565b6109ae610bf6565b806109cb5760405162461bcd60e51b815260040161033c90610eca565b6000600254346109db9190610f0c565b905060006109e98383610f43565b90506109f58383610f57565b60025560005b83811015610adb576000858583818110610a1757610a17610f6b565b9050602002016020810190610a2c9190610eaf565b6001600160a01b031603610a745760405162461bcd60e51b815260206004820152600f60248201526e496e76616c6964206164647265737360881b604482015260640161033c565b81600080878785818110610a8a57610a8a610f6b565b9050602002016020810190610a9f9190610eaf565b6001600160a01b03166001600160a01b031681526020019081526020016000206000828254610ace9190610f0c565b90915550506001016109fb565b507f732fa408ec23a6c91630ffc7331283a2d3d3af9758d4829b62014c5cda48107b338585348560405161080f959493929190610f81565b610b1b610b51565b6001600160a01b038116610b4557604051631e4fbdf760e01b81526000600482015260240161033c565b610b4e81610c87565b50565b33610b837f9016d09d72d40fdae2fd8ceac6b6234c7706214fd39c1cd1e609a0528c199300546001600160a01b031690565b6001600160a01b03161461053c5760405163118cdaa760e01b815233600482015260240161033c565b7f9b779b17422d0df92223018b32b4d1fa46e071723d6817e2486d003becc55f00805460011901610bf057604051633ee5aeb560e01b815260040160405180910390fd5b60029055565b600080516020610fe78339815191525460ff161561053c5760405163d93c066560e01b815260040160405180910390fd5b610c2f610d7d565b600080516020610fe7833981519152805460ff191681557f5db9ee0a495bf2e6ff9c91a7834c1ba4fdd244a5e8aa4e537bd38aeae4b073aa335b6040516001600160a01b03909116815260200160405180910390a150565b7f9016d09d72d40fdae2fd8ceac6b6234c7706214fd39c1cd1e609a0528c19930080546001600160a01b031981166001600160a01b03848116918217845560405192169182907f8be0079c531659141344cd1fd0a4f28419497f9722a3daafe3b4186f6b6457e090600090a3505050565b6000807ff0c57e16840df040f15088dc2f81fe391c3923bec73e23a9662efc9c229c6a005b92915050565b610d2b610dad565b610b4e81610dd2565b610d3c610bf6565b600080516020610fe7833981519152805460ff191660011781557f62e78cea01bee320cd4e420270b5ea74000d11b0c9f74754ebdbfc544b05a25833610c69565b600080516020610fe78339815191525460ff1661053c57604051638dfc202b60e01b815260040160405180910390fd5b610db5610dda565b61053c57604051631afcd79f60e31b815260040160405180910390fd5b610b1b610dad565b6000610de4610cf8565b54600160401b900460ff16919050565b600060208284031215610e0657600080fd5b813560ff81168114610e1757600080fd5b9392505050565b60008060208385031215610e3157600080fd5b823567ffffffffffffffff80821115610e4957600080fd5b818501915085601f830112610e5d57600080fd5b813581811115610e6c57600080fd5b8660208260051b8501011115610e8157600080fd5b60209290920196919550909350505050565b80356001600160a01b0381168114610eaa57600080fd5b919050565b600060208284031215610ec157600080fd5b610e1782610e93565b60208082526022908201527f4d7573742068617665206174206c65617374206f6e65207465616d206d656d6260408201526132b960f11b606082015260800190565b80820180821115610d1d57634e487b7160e01b600052601160045260246000fd5b634e487b7160e01b600052601260045260246000fd5b600082610f5257610f52610f2d565b500490565b600082610f6657610f66610f2d565b500690565b634e487b7160e01b600052603260045260246000fd5b6001600160a01b03868116825260806020808401829052908301869052600091879160a08501845b89811015610fce5783610fbb86610e93565b1682529382019390820190600101610fa9565b5060408601979097525050505060600152939250505056fecd5ed15c6e187e77e9aee88184c21f4f2182ab5827cb3b7e07fbedcd63f03300a2646970667358221220e33fdf0b25521e0cf00d8b3ff78e109be6791001d6ad408660904d467c341be464736f6c63430008180033",
  "linkReferences": {},
  "deployedLinkReferences": {}
}