{
  "_format": "hh-sol-artifact-1",
  "contractName": "SafeDepositRouter",
  "sourceName": "contracts/SafeDepositRouter.sol",
  "abi": [
    {
      "inputs": [],
      "stateMutability": "nonpayable",
      "type": "constructor"
    },
    {
      "inputs": [],
      "name": "DepositsNotEnabled",
      "type": "error"
    },
    {
      "inputs": [],
      "name": "EnforcedPause",
      "type": "error"
    },
    {
      "inputs": [],
      "name": "ExpectedPause",
      "type": "error"
    },
    {
      "inputs": [],
      "name": "InsufficientMinterRole",
      "type": "error"
    },
    {
      "inputs": [],
      "name": "InvalidInitialization",
      "type": "error"
    },
    {
      "inputs": [],
      "name": "InvalidInvestorAddress",
      "type": "error"
    },
    {
      "inputs": [],
      "name": "InvalidOwner",
      "type": "error"
    },
    {
      "inputs": [],
      "name": "InvalidSafeAddress",
      "type": "error"
    },
    {
      "inputs": [],
      "name": "InvalidTokenAddress",
      "type": "error"
    },
    {
      "inputs": [],
      "name": "InvalidTokenDecimals",
      "type": "error"
    },
    {
      "inputs": [],
      "name": "MultiplierTooLow",
      "type": "error"
    },
    {
      "inputs": [],
      "name": "NotInitializing",
      "type": "error"
    },
    {
      "inputs": [
        {
          "internalType": "address",
          "name": "owner",
          "type": "address"
        }
      ],
      "name": "OwnableInvalidOwner",
      "type": "error"
    },
    {
      "inputs": [
        {
          "internalType": "address",
          "name": "account",
          "type": "address"
        }
      ],
      "name": "OwnableUnauthorizedAccount",
      "type": "error"
    },
    {
      "inputs": [],
      "name": "ReentrancyGuardReentrantCall",
      "type": "error"
    },
    {
      "inputs": [
        {
          "internalType": "address",
          "name": "token",
          "type": "address"
        }
      ],
      "name": "SafeERC20FailedOperation",
      "type": "error"
    },
    {
      "inputs": [
        {
          "internalType": "uint256",
          "name": "expected",
          "type": "uint256"
        },
        {
          "internalType": "uint256",
          "name": "actual",
          "type": "uint256"
        }
      ],
      "name": "SlippageExceeded",
      "type": "error"
    },
    {
      "inputs": [],
      "name": "TokenAlreadySupported",
      "type": "error"
    },
    {
      "inputs": [],
      "name": "TokenNotSupported",
      "type": "error"
    },
    {
      "inputs": [],
      "name": "ZeroAmount",
      "type": "error"
    },
    {
      "anonymous": false,
      "inputs": [
        {
          "indexed": true,
          "internalType": "address",
          "name": "depositor",
          "type": "address"
        },
        {
          "indexed": true,
          "internalType": "address",
          "name": "token",
          "type": "address"
        },
        {
          "indexed": false,
          "internalType": "uint256",
          "name": "tokenAmount",
          "type": "uint256"
        },
        {
          "indexed": false,
          "internalType": "uint256",
          "name": "sherAmount",
          "type": "uint256"
        },
        {
          "indexed": false,
          "internalType": "uint256",
          "name": "timestamp",
          "type": "uint256"
        }
      ],
      "name": "Deposited",
      "type": "event"
    },
    {
      "anonymous": false,
      "inputs": [
        {
          "indexed": true,
          "internalType": "address",
          "name": "disabledBy",
          "type": "address"
        }
      ],
      "name": "DepositsDisabled",
      "type": "event"
    },
    {
      "anonymous": false,
      "inputs": [
        {
          "indexed": true,
          "internalType": "address",
          "name": "enabledBy",
          "type": "address"
        }
      ],
      "name": "DepositsEnabled",
      "type": "event"
    },
    {
      "anonymous": false,
      "inputs": [
        {
          "indexed": false,
          "internalType": "uint64",
          "name": "version",
          "type": "uint64"
        }
      ],
      "name": "Initialized",
      "type": "event"
    },
    {
      "anonymous": false,
      "inputs": [
        {
          "indexed": false,
          "internalType": "uint256",
          "name": "oldMultiplier",
          "type": "uint256"
        },
        {
          "indexed": false,
          "internalType": "uint256",
          "name": "newMultiplier",
          "type": "uint256"
        }
      ],
      "name": "MultiplierUpdated",
      "type": "event"
    },
    {
      "anonymous": false,
      "inputs": [
        {
          "indexed": true,
          "internalType": "address",
          "name": "previousOwner",
          "type": "address"
        },
        {
          "indexed": true,
          "internalType": "address",
          "name": "newOwner",
          "type": "address"
        }
      ],
      "name": "OwnershipTransferred",
      "type": "event"
    },
    {
      "anonymous": false,
      "inputs": [
        {
          "indexed": false,
          "internalType": "address",
          "name": "account",
          "type": "address"
        }
      ],
      "name": "Paused",
      "type": "event"
    },
    {
      "anonymous": false,
      "inputs": [
        {
          "indexed": true,
          "internalType": "address",
          "name": "oldSafe",
          "type": "address"
        },
        {
          "indexed": true,
          "internalType": "address",
          "name": "newSafe",
          "type": "address"
        }
      ],
      "name": "SafeAddressUpdated",
      "type": "event"
    },
    {
      "anonymous": false,
      "inputs": [
        {
          "indexed": true,
          "internalType": "address",
          "name": "tokenAddress",
          "type": "address"
        },
        {
          "indexed": false,
          "internalType": "uint8",
          "name": "decimals",
          "type": "uint8"
        }
      ],
      "name": "TokenSupportAdded",
      "type": "event"
    },
    {
      "anonymous": false,
      "inputs": [
        {
          "indexed": true,
          "internalType": "address",
          "name": "tokenAddress",
          "type": "address"
        }
      ],
      "name": "TokenSupportAdded",
      "type": "event"
    },
    {
      "anonymous": false,
      "inputs": [
        {
          "indexed": true,
          "internalType": "address",
          "name": "tokenAddress",
          "type": "address"
        }
      ],
      "name": "TokenSupportRemoved",
      "type": "event"
    },
    {
      "anonymous": false,
      "inputs": [
        {
          "indexed": true,
          "internalType": "address",
          "name": "token",
          "type": "address"
        },
        {
          "indexed": true,
          "internalType": "address",
          "name": "to",
          "type": "address"
        },
        {
          "indexed": false,
          "internalType": "uint256",
          "name": "amount",
          "type": "uint256"
        }
      ],
      "name": "TokensRecovered",
      "type": "event"
    },
    {
      "anonymous": false,
      "inputs": [
        {
          "indexed": false,
          "internalType": "address",
          "name": "account",
          "type": "address"
        }
      ],
      "name": "Unpaused",
      "type": "event"
    },
    {
      "inputs": [],
      "name": "MIN_MULTIPLIER",
      "outputs": [
        {
          "internalType": "uint256",
          "name": "",
          "type": "uint256"
        }
      ],
      "stateMutability": "view",
      "type": "function"
    },
    {
      "inputs": [
        {
          "internalType": "address",
          "name": "tokenAddress",
          "type": "address"
        }
      ],
      "name": "addTokenSupport",
      "outputs": [],
      "stateMutability": "nonpayable",
      "type": "function"
    },
    {
      "inputs": [
        {
          "internalType": "address",
          "name": "tokenAddress",
          "type": "address"
        },
        {
          "internalType": "uint256",
          "name": "tokenAmount",
          "type": "uint256"
        }
      ],
      "name": "calculateCompensation",
      "outputs": [
        {
          "internalType": "uint256",
          "name": "",
          "type": "uint256"
        }
      ],
      "stateMutability": "view",
      "type": "function"
    },
    {
      "inputs": [
        {
          "internalType": "address",
          "name": "tokenAddress",
          "type": "address"
        },
        {
          "internalType": "uint256",
          "name": "amount",
          "type": "uint256"
        }
      ],
      "name": "deposit",
      "outputs": [],
      "stateMutability": "nonpayable",
      "type": "function"
    },
    {
      "inputs": [
        {
          "internalType": "address",
          "name": "tokenAddress",
          "type": "address"
        },
        {
          "internalType": "uint256",
          "name": "amount",
          "type": "uint256"
        },
        {
          "internalType": "uint256",
          "name": "minSherOut",
          "type": "uint256"
        }
      ],
      "name": "depositWithSlippage",
      "outputs": [],
      "stateMutability": "nonpayable",
      "type": "function"
    },
    {
      "inputs": [],
      "name": "depositsEnabled",
      "outputs": [
        {
          "internalType": "bool",
          "name": "",
          "type": "bool"
        }
      ],
      "stateMutability": "view",
      "type": "function"
    },
    {
      "inputs": [],
      "name": "disableDeposits",
      "outputs": [],
      "stateMutability": "nonpayable",
      "type": "function"
    },
    {
      "inputs": [],
      "name": "enableDeposits",
      "outputs": [],
      "stateMutability": "nonpayable",
      "type": "function"
    },
    {
      "inputs": [],
      "name": "getSupportedTokenCount",
      "outputs": [
        {
          "internalType": "uint256",
          "name": "",
          "type": "uint256"
        }
      ],
      "stateMutability": "view",
      "type": "function"
    },
    {
      "inputs": [],
      "name": "getSupportedTokens",
      "outputs": [
        {
          "internalType": "address[]",
          "name": "",
          "type": "address[]"
        }
      ],
      "stateMutability": "view",
      "type": "function"
    },
    {
      "inputs": [
        {
          "internalType": "address",
          "name": "_safeAddress",
          "type": "address"
        },
        {
          "internalType": "address[]",
          "name": "_tokenAddresses",
          "type": "address[]"
        },
        {
          "internalType": "uint256",
          "name": "_multiplier",
          "type": "uint256"
        }
      ],
      "name": "initialize",
      "outputs": [],
      "stateMutability": "nonpayable",
      "type": "function"
    },
    {
      "inputs": [
        {
          "internalType": "address",
          "name": "_token",
          "type": "address"
        }
      ],
      "name": "isTokenSupported",
      "outputs": [
        {
          "internalType": "bool",
          "name": "",
          "type": "bool"
        }
      ],
      "stateMutability": "view",
      "type": "function"
    },
    {
      "inputs": [],
      "name": "multiplier",
      "outputs": [
        {
          "internalType": "uint256",
          "name": "",
          "type": "uint256"
        }
      ],
      "stateMutability": "view",
      "type": "function"
    },
    {
      "inputs": [],
      "name": "officerAddress",
      "outputs": [
        {
          "internalType": "address",
          "name": "",
          "type": "address"
        }
      ],
      "stateMutability": "view",
      "type": "function"
    },
    {
      "inputs": [],
      "name": "owner",
      "outputs": [
        {
          "internalType": "address",
          "name": "",
          "type": "address"
        }
      ],
      "stateMutability": "view",
      "type": "function"
    },
    {
      "inputs": [],
      "name": "pause",
      "outputs": [],
      "stateMutability": "nonpayable",
      "type": "function"
    },
    {
      "inputs": [],
      "name": "paused",
      "outputs": [
        {
          "internalType": "bool",
          "name": "",
          "type": "bool"
        }
      ],
      "stateMutability": "view",
      "type": "function"
    },
    {
      "inputs": [
        {
          "internalType": "address",
          "name": "token",
          "type": "address"
        },
        {
          "internalType": "uint256",
          "name": "amount",
          "type": "uint256"
        }
      ],
      "name": "recoverERC20",
      "outputs": [],
      "stateMutability": "nonpayable",
      "type": "function"
    },
    {
      "inputs": [
        {
          "internalType": "address",
          "name": "tokenAddress",
          "type": "address"
        }
      ],
      "name": "removeTokenSupport",
      "outputs": [],
      "stateMutability": "nonpayable",
      "type": "function"
    },
    {
      "inputs": [],
      "name": "renounceOwnership",
      "outputs": [],
      "stateMutability": "nonpayable",
      "type": "function"
    },
    {
      "inputs": [],
      "name": "safeAddress",
      "outputs": [
        {
          "internalType": "address",
          "name": "",
          "type": "address"
        }
      ],
      "stateMutability": "view",
      "type": "function"
    },
    {
      "inputs": [
        {
          "internalType": "uint256",
          "name": "_newMultiplier",
          "type": "uint256"
        }
      ],
      "name": "setMultiplier",
      "outputs": [],
      "stateMutability": "nonpayable",
      "type": "function"
    },
    {
      "inputs": [
        {
          "internalType": "address",
          "name": "_newSafe",
          "type": "address"
        }
      ],
      "name": "setSafeAddress",
      "outputs": [],
      "stateMutability": "nonpayable",
      "type": "function"
    },
    {
      "inputs": [
        {
          "internalType": "address",
          "name": "",
          "type": "address"
        }
      ],
      "name": "tokenDecimals",
      "outputs": [
        {
          "internalType": "uint8",
          "name": "",
          "type": "uint8"
        }
      ],
      "stateMutability": "view",
      "type": "function"
    },
    {
      "inputs": [
        {
          "internalType": "address",
          "name": "newOwner",
          "type": "address"
        }
      ],
      "name": "transferOwnership",
      "outputs": [],
      "stateMutability": "nonpayable",
      "type": "function"
    },
    {
      "inputs": [],
      "name": "unpause",
      "outputs": [],
      "stateMutability": "nonpayable",
      "type": "function"
    }
  ],
  "bytecode": "0x608060405234801561001057600080fd5b5061001961001e565b6100d0565b7ff0c57e16840df040f15088dc2f81fe391c3923bec73e23a9662efc9c229c6a00805468010000000000000000900460ff161561006e5760405163f92ee8a960e01b815260040160405180910390fd5b80546001600160401b03908116146100cd5780546001600160401b0319166001600160401b0390811782556040519081527fc7f505b2f371ae2175ee4913f4499e1f2633a7b5936321eed1cdaeb6115181d29060200160405180910390a15b50565b611da1806100df6000396000f3fe608060405234801561001057600080fd5b506004361061018e5760003560e01c8063641579a6116100de5780638da5cb5b11610097578063ce67be2611610071578063ce67be261461036f578063d3c7c2c714610377578063ed03e78c1461038c578063f2fde38b1461039457600080fd5b80638da5cb5b146103025780638ee573ac14610332578063ac67e1af1461036757600080fd5b8063641579a6146102a6578063715018a6146102b9578063733c237d146102c157806375151b63146102d45780638456cb59146102e75780638980f11f146102ef57600080fd5b80633f4ba83a1161014b5780635578110c116101255780635578110c146102605780635c975abb146102735780635e4c57a41461028b5780635ec13b781461029357600080fd5b80633f4ba83a1461022857806347e7ef24146102305780635392fd1c1461024357600080fd5b80631b3ed722146101935780631ec49909146101af5780631fe6e55a146101c45780632ba8d939146101d7578063315f77ef146101ea5780633ede50c614610215575b600080fd5b61019c60045481565b6040519081526020015b60405180910390f35b6101c26101bd3660046119a4565b6103a7565b005b61019c6101d23660046119c1565b610432565b6101c26101e53660046119a4565b610548565b6003546101fd906001600160a01b031681565b6040516001600160a01b0390911681526020016101a6565b6101c26102233660046119ed565b6105dd565b6101c261092f565b6101c261023e3660046119c1565b610941565b6005546102509060ff1681565b60405190151581526020016101a6565b6002546101fd906001600160a01b031681565b600080516020611d2c8339815191525460ff16610250565b6101c261099b565b6101c26102a1366004611a7b565b6109dd565b6101c26102b4366004611ab0565b610a37565b6101c2610b55565b6101c26102cf3660046119a4565b610b67565b6102506102e23660046119a4565b610cb1565b6101c2610cbd565b6101c26102fd3660046119c1565b610ccd565b7f9016d09d72d40fdae2fd8ceac6b6234c7706214fd39c1cd1e609a0528c199300546001600160a01b03166101fd565b6103556103403660046119a4565b60066020526000908152604090205460ff1681565b60405160ff90911681526020016101a6565b6101c2610d80565b61019c610dbf565b61037f610dd0565b6040516101a69190611ac9565b61019c600181565b6101c26103a23660046119a4565b610ddc565b6103af610e1a565b6001600160a01b0381166103d65760405163474ebe2f60e11b815260040160405180910390fd5b6002546040516001600160a01b038084169216907fa128590826c0b60efcbff1c96fae1451205b52d6478fbf9d88602a4e48e43d9990600090a3600280546001600160a01b0319166001600160a01b0392909216919091179055565b600061043d83610cb1565b61045a57604051633dd1b30560e01b815260040160405180910390fd5b8160000361047b57604051631f2a200560e01b815260040160405180910390fd5b6000610485610e75565b6001600160a01b03808616600090815260066020908152604080832054815163313ce56760e01b8152915195965060ff1694929386169263313ce567926004808401939192918290030181865afa1580156104e4573d6000803e3d6000fd5b505050506040513d601f19601f820116820180604052508101906105089190611b16565b90506000610517868484610fb5565b905061052482600a611c33565b6004546105319083611c42565b61053b9190611c59565b9450505050505b92915050565b610550610e1a565b6001600160a01b03811661057757604051630f58058360e11b815260040160405180910390fd5b61058081610cb1565b61059d57604051633dd1b30560e01b815260040160405180910390fd5b6105a681611025565b6040516001600160a01b038216907f1cef54ca6e1745ad87fa3077491d9fc42257e9f1a2d7cad58a4e52bd14dfc62690600090a250565b7ff0c57e16840df040f15088dc2f81fe391c3923bec73e23a9662efc9c229c6a008054600160401b810460ff16159067ffffffffffffffff166000811580156106235750825b905060008267ffffffffffffffff1660011480156106405750303b155b90508115801561064e575080155b1561066c5760405163f92ee8a960e01b815260040160405180910390fd5b845467ffffffffffffffff19166001178555831561069657845460ff60401b1916600160401b1785555b6001600160a01b0389166106bd5760405163474ebe2f60e11b815260040160405180910390fd5b60018610156106df57604051630997be8760e21b815260040160405180910390fd5b6106e8336110c8565b6106f06110d9565b6106f86110e9565b600280546001600160a01b0319166001600160a01b038b16179055336107655760405162461bcd60e51b815260206004820152601960248201527f6d73672e73656e6465722063616e6e6f74206265207a65726f0000000000000060448201526064015b60405180910390fd5b600380546001600160a01b0319163317905560048690556005805460ff1916905560005b878110156108dd5760008989838181106107a5576107a5611c7b565b90506020020160208101906107ba91906119a4565b90506001600160a01b0381166107e357604051630f58058360e11b815260040160405180910390fd5b6000816001600160a01b031663313ce5676040518163ffffffff1660e01b8152600401602060405180830381865afa158015610823573d6000803e3d6000fd5b505050506040513d601f19601f820116820180604052508101906108479190611b16565b905060128160ff16111561086e5760405163686d360760e01b815260040160405180910390fd5b610877826110f9565b6001600160a01b038216600081815260066020908152604091829020805460ff191660ff861690811790915591519182527fa8a08725d8dd04f6d25026b451e264ce9c9b8cc4e6d10f31eca9a55fe49c09f5910160405180910390a25050600101610789565b50831561092457845460ff60401b19168555604051600181527fc7f505b2f371ae2175ee4913f4499e1f2633a7b5936321eed1cdaeb6115181d29060200160405180910390a15b505050505050505050565b610937610e1a565b61093f6111dd565b565b61094961123d565b60055460ff1661096c5760405163a25d99b160e01b815260040160405180910390fd5b610974611275565b610980828260006112a6565b6109976001600080516020611d4c83398151915255565b5050565b6109a3610e1a565b6005805460ff1916600117905560405133907fc36a428b063177e3f28b3b5d340c08f77827847b2ee30114ccf0c40e519c420a90600090a2565b6109e561123d565b60055460ff16610a085760405163a25d99b160e01b815260040160405180910390fd5b610a10611275565b610a1b8383836112a6565b610a326001600080516020611d4c83398151915255565b505050565b610a3f610e1a565b6000610a49610e75565b90506000816001600160a01b031663313ce5676040518163ffffffff1660e01b8152600401602060405180830381865afa158015610a8b573d6000803e3d6000fd5b505050506040513d601f19601f82011682018060405250810190610aaf9190611b16565b905060068160ff161015610ad65760405163686d360760e01b815260040160405180910390fd5b6000610ae3600683611c91565b610aee90600a611c33565b905080841015610b1157604051630997be8760e21b815260040160405180910390fd5b60045460408051918252602082018690527f3c02d7351af6053255d947ce3f7b457726360edc933c441e9b1ad724f8ce5c7f910160405180910390a1505050600455565b610b5d610e1a565b61093f600061151b565b610b6f610e1a565b6001600160a01b038116610b9657604051630f58058360e11b815260040160405180910390fd5b610b9f81610cb1565b15610bbd5760405163c78e82ad60e01b815260040160405180910390fd5b6000816001600160a01b031663313ce5676040518163ffffffff1660e01b8152600401602060405180830381865afa158015610bfd573d6000803e3d6000fd5b505050506040513d601f19601f82011682018060405250810190610c219190611b16565b905060128160ff161115610c485760405163686d360760e01b815260040160405180910390fd5b610c51826110f9565b6001600160a01b038216600081815260066020908152604091829020805460ff191660ff861690811790915591519182527fa8a08725d8dd04f6d25026b451e264ce9c9b8cc4e6d10f31eca9a55fe49c09f5910160405180910390a25050565b6000610542818361158c565b610cc5610e1a565b61093f6115ae565b610cd5610e1a565b6001600160a01b038216610cfc57604051630f58058360e11b815260040160405180910390fd5b80600003610d1d57604051631f2a200560e01b815260040160405180910390fd5b600254610d37906001600160a01b038481169116836115f7565b6002546040518281526001600160a01b03918216918416907f401f439d865a766757ec78675925bd67198d5e78805aa41691b34b5d6a6cbbe69060200160405180910390a35050565b610d88610e1a565b6005805460ff1916905560405133907f9ca4d309bbfd23c65db3dc38c1712862f5812c7139937e2655de86e803f73bb990600090a2565b6000610dcb6000611656565b905090565b6060610dcb6000611660565b610de4610e1a565b6001600160a01b038116610e0e57604051631e4fbdf760e01b81526000600482015260240161075c565b610e178161151b565b50565b33610e4c7f9016d09d72d40fdae2fd8ceac6b6234c7706214fd39c1cd1e609a0528c199300546001600160a01b031690565b6001600160a01b03161461093f5760405163118cdaa760e01b815233600482015260240161075c565b6003546000906001600160a01b0316610ed05760405162461bcd60e51b815260206004820152601e60248201527f4f6666696365722061646472657373206e6f7420636f6e666967757265640000604482015260640161075c565b60035460405163040a4ce560e21b815260206004820152600a602482015269496e766573746f72563160b01b60448201526000916001600160a01b031690631029339490606401602060405180830381865afa158015610f34573d6000803e3d6000fd5b505050506040513d601f19601f82011682018060405250810190610f589190611caa565b90506001600160a01b038116610fb05760405162461bcd60e51b815260206004820152601d60248201527f496e766573746f72563120636f6e7472616374206e6f7420666f756e64000000604482015260640161075c565b919050565b60008160ff168360ff1603610fcb57508261101e565b8160ff168360ff161015610fff57610fe38383611c91565b610fee90600a611c33565b610ff89085611c42565b905061101e565b6110098284611c91565b61101490600a611c33565b610ff89085611c59565b9392505050565b6001600160a01b03811661107b5760405162461bcd60e51b815260206004820152601c60248201527f546f6b656e20616464726573732063616e6e6f74206265207a65726f00000000604482015260640161075c565b61108660008261166d565b6105a65760405162461bcd60e51b8152602060048201526013602482015272151bdad95b881b9bdd081cdd5c1c1bdc9d1959606a1b604482015260640161075c565b6110d0611682565b610e17816116cb565b6110e1611682565b61093f6116d3565b6110f1611682565b61093f6116db565b6001600160a01b03811661114f5760405162461bcd60e51b815260206004820152601c60248201527f546f6b656e20616464726573732063616e6e6f74206265207a65726f00000000604482015260640161075c565b61115a6000826116fc565b6111a65760405162461bcd60e51b815260206004820152601760248201527f546f6b656e20616c726561647920737570706f72746564000000000000000000604482015260640161075c565b6040516001600160a01b038216907f8f50fda9bf5d3b403c53b7e91646abd507f8cebf2577655d55d7de3926168b1790600090a250565b6111e5611711565b600080516020611d2c833981519152805460ff191681557f5db9ee0a495bf2e6ff9c91a7834c1ba4fdd244a5e8aa4e537bd38aeae4b073aa335b6040516001600160a01b03909116815260200160405180910390a150565b600080516020611d4c83398151915280546001190161126f57604051633ee5aeb560e01b815260040160405180910390fd5b60029055565b600080516020611d2c8339815191525460ff161561093f5760405163d93c066560e01b815260040160405180910390fd5b6112af83610cb1565b6112cc57604051633dd1b30560e01b815260040160405180910390fd5b816000036112ed57604051631f2a200560e01b815260040160405180910390fd5b60006112f7610e75565b90506000819050806001600160a01b03166391d14854826001600160a01b031663d53913936040518163ffffffff1660e01b8152600401602060405180830381865afa15801561134b573d6000803e3d6000fd5b505050506040513d601f19601f8201168201806040525081019061136f9190611cc7565b6040516001600160e01b031960e084901b1681526004810191909152306024820152604401602060405180830381865afa1580156113b1573d6000803e3d6000fd5b505050506040513d601f19601f820116820180604052508101906113d59190611ce0565b6113f2576040516309a26af960e31b815260040160405180910390fd5b60006113fe8686610432565b905060008411801561140f57508381105b15611437576040516371c4efed60e01b8152600481018590526024810182905260440161075c565b600254611453906001600160a01b038881169133911688611741565b604051636b7747b360e01b8152336004820152602481018290526001600160a01b03831690636b7747b390604401600060405180830381600087803b15801561149b57600080fd5b505af11580156114af573d6000803e3d6000fd5b50506040805188815260208101859052438183015290516001600160a01b038a1693503392507f8bab6aed5a508937051a144e61d6e61336834a66aaee250a00613ae6f744c4229181900360600190a3505050505050565b6001600080516020611d4c83398151915255565b7f9016d09d72d40fdae2fd8ceac6b6234c7706214fd39c1cd1e609a0528c19930080546001600160a01b031981166001600160a01b03848116918217845560405192169182907f8be0079c531659141344cd1fd0a4f28419497f9722a3daafe3b4186f6b6457e090600090a3505050565b6001600160a01b0381166000908152600183016020526040812054151561101e565b6115b6611275565b600080516020611d2c833981519152805460ff191660011781557f62e78cea01bee320cd4e420270b5ea74000d11b0c9f74754ebdbfc544b05a2583361121f565b6040516001600160a01b03838116602483015260448201839052610a3291859182169063a9059cbb906064015b604051602081830303815290604052915060e01b6020820180516001600160e01b038381831617835250505050611780565b6000610542825490565b6060600061101e836117f1565b600061101e836001600160a01b03841661184d565b7ff0c57e16840df040f15088dc2f81fe391c3923bec73e23a9662efc9c229c6a0054600160401b900460ff1661093f57604051631afcd79f60e31b815260040160405180910390fd5b610de4611682565b611507611682565b6116e3611682565b600080516020611d2c833981519152805460ff19169055565b600061101e836001600160a01b038416611940565b600080516020611d2c8339815191525460ff1661093f57604051638dfc202b60e01b815260040160405180910390fd5b6040516001600160a01b03848116602483015283811660448301526064820183905261177a9186918216906323b872dd90608401611624565b50505050565b600080602060008451602086016000885af1806117a3576040513d6000823e3d81fd5b50506000513d915081156117bb5780600114156117c8565b6001600160a01b0384163b155b1561177a57604051635274afe760e01b81526001600160a01b038516600482015260240161075c565b60608160000180548060200260200160405190810160405280929190818152602001828054801561184157602002820191906000526020600020905b81548152602001906001019080831161182d575b50505050509050919050565b60008181526001830160205260408120548015611936576000611871600183611d02565b855490915060009061188590600190611d02565b90508082146118ea5760008660000182815481106118a5576118a5611c7b565b90600052602060002001549050808760000184815481106118c8576118c8611c7b565b6000918252602080832090910192909255918252600188019052604090208390555b85548690806118fb576118fb611d15565b600190038181906000526020600020016000905590558560010160008681526020019081526020016000206000905560019350505050610542565b6000915050610542565b600081815260018301602052604081205461198757508154600181810184556000848152602080822090930184905584548482528286019093526040902091909155610542565b506000610542565b6001600160a01b0381168114610e1757600080fd5b6000602082840312156119b657600080fd5b813561101e8161198f565b600080604083850312156119d457600080fd5b82356119df8161198f565b946020939093013593505050565b60008060008060608587031215611a0357600080fd5b8435611a0e8161198f565b9350602085013567ffffffffffffffff80821115611a2b57600080fd5b818701915087601f830112611a3f57600080fd5b813581811115611a4e57600080fd5b8860208260051b8501011115611a6357600080fd5b95986020929092019750949560400135945092505050565b600080600060608486031215611a9057600080fd5b8335611a9b8161198f565b95602085013595506040909401359392505050565b600060208284031215611ac257600080fd5b5035919050565b6020808252825182820181905260009190848201906040850190845b81811015611b0a5783516001600160a01b031683529284019291840191600101611ae5565b50909695505050505050565b600060208284031215611b2857600080fd5b815160ff8116811461101e57600080fd5b634e487b7160e01b600052601160045260246000fd5b600181815b80851115611b8a578160001904821115611b7057611b70611b39565b80851615611b7d57918102915b93841c9390800290611b54565b509250929050565b600082611ba157506001610542565b81611bae57506000610542565b8160018114611bc45760028114611bce57611bea565b6001915050610542565b60ff841115611bdf57611bdf611b39565b50506001821b610542565b5060208310610133831016604e8410600b8410161715611c0d575081810a610542565b611c178383611b4f565b8060001904821115611c2b57611c2b611b39565b029392505050565b600061101e60ff841683611b92565b808202811582820484141761054257610542611b39565b600082611c7657634e487b7160e01b600052601260045260246000fd5b500490565b634e487b7160e01b600052603260045260246000fd5b60ff828116828216039081111561054257610542611b39565b600060208284031215611cbc57600080fd5b815161101e8161198f565b600060208284031215611cd957600080fd5b5051919050565b600060208284031215611cf257600080fd5b8151801515811461101e57600080fd5b8181038181111561054257610542611b39565b634e487b7160e01b600052603160045260246000fdfecd5ed15c6e187e77e9aee88184c21f4f2182ab5827cb3b7e07fbedcd63f033009b779b17422d0df92223018b32b4d1fa46e071723d6817e2486d003becc55f00a26469706673582212205311292fa4db35a6e2cdd2d602b6baada20c60742f54a9f1612f9885382e0f0e64736f6c63430008180033",
  "linkReferences": {},
  "deployedLinkReferences": {}
}