{
  "_format": "hh-sol-artifact-1",
  "contractName": "SafeDepositRouter",
  "sourceName": "contracts/SafeDepositRouter.sol",
  "abi": [
    {
      "inputs": [],
      "stateMutability": "nonpayable",
      "type": "constructor"
    },
    {
      "inputs": [],
      "name": "DepositsNotEnabled",
      "type": "error"
    },
    {
      "inputs": [],
      "name": "EnforcedPause",
      "type": "error"
    },
    {
      "inputs": [],
      "name": "ExpectedPause",
      "type": "error"
    },
    {
      "inputs": [],
      "name": "InsufficientMinterRole",
      "type": "error"
    },
    {
      "inputs": [],
      "name": "InvalidInitialization",
      "type": "error"
    },
    {
      "inputs": [],
      "name": "InvalidInvestorAddress",
      "type": "error"
    },
    {
      "inputs": [],
      "name": "InvalidOwner",
      "type": "error"
    },
    {
      "inputs": [],
      "name": "InvalidSafeAddress",
      "type": "error"
    },
    {
      "inputs": [],
      "name": "InvalidTokenAddress",
      "type": "error"
    },
    {
      "inputs": [],
      "name": "InvalidTokenDecimals",
      "type": "error"
    },
    {
      "inputs": [],
      "name": "InvestorContractNotFound",
      "type": "error"
    },
    {
      "inputs": [],
      "name": "MultiplierTooLow",
      "type": "error"
    },
    {
      "inputs": [],
      "name": "NotInitializing",
      "type": "error"
    },
    {
      "inputs": [],
      "name": "OfficerAddressNotSet",
      "type": "error"
    },
    {
      "inputs": [
        {
          "internalType": "address",
          "name": "owner",
          "type": "address"
        }
      ],
      "name": "OwnableInvalidOwner",
      "type": "error"
    },
    {
      "inputs": [
        {
          "internalType": "address",
          "name": "account",
          "type": "address"
        }
      ],
      "name": "OwnableUnauthorizedAccount",
      "type": "error"
    },
    {
      "inputs": [],
      "name": "ReentrancyGuardReentrantCall",
      "type": "error"
    },
    {
      "inputs": [
        {
          "internalType": "address",
          "name": "token",
          "type": "address"
        }
      ],
      "name": "SafeERC20FailedOperation",
      "type": "error"
    },
    {
      "inputs": [
        {
          "internalType": "uint256",
          "name": "expected",
          "type": "uint256"
        },
        {
          "internalType": "uint256",
          "name": "actual",
          "type": "uint256"
        }
      ],
      "name": "SlippageExceeded",
      "type": "error"
    },
    {
      "inputs": [],
      "name": "TokenAlreadySupported",
      "type": "error"
    },
    {
      "inputs": [],
      "name": "TokenNotSupported",
      "type": "error"
    },
    {
      "inputs": [
        {
          "internalType": "address",
          "name": "token",
          "type": "address"
        }
      ],
      "name": "TokenSupportAlreadyAdded",
      "type": "error"
    },
    {
      "inputs": [
        {
          "internalType": "address",
          "name": "token",
          "type": "address"
        }
      ],
      "name": "TokenSupportNotFound",
      "type": "error"
    },
    {
      "inputs": [],
      "name": "TokenSupportZeroAddress",
      "type": "error"
    },
    {
      "inputs": [],
      "name": "ZeroAmount",
      "type": "error"
    },
    {
      "inputs": [],
      "name": "ZeroSender",
      "type": "error"
    },
    {
      "anonymous": false,
      "inputs": [
        {
          "indexed": true,
          "internalType": "address",
          "name": "depositor",
          "type": "address"
        },
        {
          "indexed": true,
          "internalType": "address",
          "name": "token",
          "type": "address"
        },
        {
          "indexed": false,
          "internalType": "uint256",
          "name": "tokenAmount",
          "type": "uint256"
        },
        {
          "indexed": false,
          "internalType": "uint256",
          "name": "sherAmount",
          "type": "uint256"
        },
        {
          "indexed": false,
          "internalType": "uint256",
          "name": "timestamp",
          "type": "uint256"
        }
      ],
      "name": "Deposited",
      "type": "event"
    },
    {
      "anonymous": false,
      "inputs": [
        {
          "indexed": true,
          "internalType": "address",
          "name": "disabledBy",
          "type": "address"
        }
      ],
      "name": "DepositsDisabled",
      "type": "event"
    },
    {
      "anonymous": false,
      "inputs": [
        {
          "indexed": true,
          "internalType": "address",
          "name": "enabledBy",
          "type": "address"
        }
      ],
      "name": "DepositsEnabled",
      "type": "event"
    },
    {
      "anonymous": false,
      "inputs": [
        {
          "indexed": false,
          "internalType": "uint64",
          "name": "version",
          "type": "uint64"
        }
      ],
      "name": "Initialized",
      "type": "event"
    },
    {
      "anonymous": false,
      "inputs": [
        {
          "indexed": false,
          "internalType": "uint256",
          "name": "oldMultiplier",
          "type": "uint256"
        },
        {
          "indexed": false,
          "internalType": "uint256",
          "name": "newMultiplier",
          "type": "uint256"
        }
      ],
      "name": "MultiplierUpdated",
      "type": "event"
    },
    {
      "anonymous": false,
      "inputs": [
        {
          "indexed": true,
          "internalType": "address",
          "name": "previousOwner",
          "type": "address"
        },
        {
          "indexed": true,
          "internalType": "address",
          "name": "newOwner",
          "type": "address"
        }
      ],
      "name": "OwnershipTransferred",
      "type": "event"
    },
    {
      "anonymous": false,
      "inputs": [
        {
          "indexed": false,
          "internalType": "address",
          "name": "account",
          "type": "address"
        }
      ],
      "name": "Paused",
      "type": "event"
    },
    {
      "anonymous": false,
      "inputs": [
        {
          "indexed": true,
          "internalType": "address",
          "name": "oldSafe",
          "type": "address"
        },
        {
          "indexed": true,
          "internalType": "address",
          "name": "newSafe",
          "type": "address"
        }
      ],
      "name": "SafeAddressUpdated",
      "type": "event"
    },
    {
      "anonymous": false,
      "inputs": [
        {
          "indexed": true,
          "internalType": "address",
          "name": "tokenAddress",
          "type": "address"
        },
        {
          "indexed": false,
          "internalType": "uint8",
          "name": "decimals",
          "type": "uint8"
        }
      ],
      "name": "TokenSupportAdded",
      "type": "event"
    },
    {
      "anonymous": false,
      "inputs": [
        {
          "indexed": true,
          "internalType": "address",
          "name": "tokenAddress",
          "type": "address"
        }
      ],
      "name": "TokenSupportAdded",
      "type": "event"
    },
    {
      "anonymous": false,
      "inputs": [
        {
          "indexed": true,
          "internalType": "address",
          "name": "tokenAddress",
          "type": "address"
        }
      ],
      "name": "TokenSupportRemoved",
      "type": "event"
    },
    {
      "anonymous": false,
      "inputs": [
        {
          "indexed": true,
          "internalType": "address",
          "name": "token",
          "type": "address"
        },
        {
          "indexed": true,
          "internalType": "address",
          "name": "to",
          "type": "address"
        },
        {
          "indexed": false,
          "internalType": "uint256",
          "name": "amount",
          "type": "uint256"
        }
      ],
      "name": "TokensRecovered",
      "type": "event"
    },
    {
      "anonymous": false,
      "inputs": [
        {
          "indexed": false,
          "internalType": "address",
          "name": "account",
          "type": "address"
        }
      ],
      "name": "Unpaused",
      "type": "event"
    },
    {
      "inputs": [],
      "name": "MIN_MULTIPLIER",
      "outputs": [
        {
          "internalType": "uint256",
          "name": "",
          "type": "uint256"
        }
      ],
      "stateMutability": "view",
      "type": "function"
    },
    {
      "inputs": [
        {
          "internalType": "address",
          "name": "tokenAddress",
          "type": "address"
        }
      ],
      "name": "addTokenSupport",
      "outputs": [],
      "stateMutability": "nonpayable",
      "type": "function"
    },
    {
      "inputs": [
        {
          "internalType": "address",
          "name": "tokenAddress",
          "type": "address"
        },
        {
          "internalType": "uint256",
          "name": "tokenAmount",
          "type": "uint256"
        }
      ],
      "name": "calculateCompensation",
      "outputs": [
        {
          "internalType": "uint256",
          "name": "",
          "type": "uint256"
        }
      ],
      "stateMutability": "view",
      "type": "function"
    },
    {
      "inputs": [
        {
          "internalType": "address",
          "name": "tokenAddress",
          "type": "address"
        },
        {
          "internalType": "uint256",
          "name": "amount",
          "type": "uint256"
        }
      ],
      "name": "deposit",
      "outputs": [],
      "stateMutability": "nonpayable",
      "type": "function"
    },
    {
      "inputs": [
        {
          "internalType": "address",
          "name": "tokenAddress",
          "type": "address"
        },
        {
          "internalType": "uint256",
          "name": "amount",
          "type": "uint256"
        },
        {
          "internalType": "uint256",
          "name": "minSherOut",
          "type": "uint256"
        }
      ],
      "name": "depositWithSlippage",
      "outputs": [],
      "stateMutability": "nonpayable",
      "type": "function"
    },
    {
      "inputs": [],
      "name": "depositsEnabled",
      "outputs": [
        {
          "internalType": "bool",
          "name": "",
          "type": "bool"
        }
      ],
      "stateMutability": "view",
      "type": "function"
    },
    {
      "inputs": [],
      "name": "disableDeposits",
      "outputs": [],
      "stateMutability": "nonpayable",
      "type": "function"
    },
    {
      "inputs": [],
      "name": "enableDeposits",
      "outputs": [],
      "stateMutability": "nonpayable",
      "type": "function"
    },
    {
      "inputs": [],
      "name": "getSupportedTokenCount",
      "outputs": [
        {
          "internalType": "uint256",
          "name": "",
          "type": "uint256"
        }
      ],
      "stateMutability": "view",
      "type": "function"
    },
    {
      "inputs": [],
      "name": "getSupportedTokens",
      "outputs": [
        {
          "internalType": "address[]",
          "name": "",
          "type": "address[]"
        }
      ],
      "stateMutability": "view",
      "type": "function"
    },
    {
      "inputs": [
        {
          "internalType": "address",
          "name": "_safeAddress",
          "type": "address"
        },
        {
          "internalType": "address[]",
          "name": "_tokenAddresses",
          "type": "address[]"
        },
        {
          "internalType": "uint256",
          "name": "_multiplier",
          "type": "uint256"
        }
      ],
      "name": "initialize",
      "outputs": [],
      "stateMutability": "nonpayable",
      "type": "function"
    },
    {
      "inputs": [
        {
          "internalType": "address",
          "name": "_token",
          "type": "address"
        }
      ],
      "name": "isTokenSupported",
      "outputs": [
        {
          "internalType": "bool",
          "name": "",
          "type": "bool"
        }
      ],
      "stateMutability": "view",
      "type": "function"
    },
    {
      "inputs": [],
      "name": "multiplier",
      "outputs": [
        {
          "internalType": "uint256",
          "name": "",
          "type": "uint256"
        }
      ],
      "stateMutability": "view",
      "type": "function"
    },
    {
      "inputs": [],
      "name": "officerAddress",
      "outputs": [
        {
          "internalType": "address",
          "name": "",
          "type": "address"
        }
      ],
      "stateMutability": "view",
      "type": "function"
    },
    {
      "inputs": [],
      "name": "owner",
      "outputs": [
        {
          "internalType": "address",
          "name": "",
          "type": "address"
        }
      ],
      "stateMutability": "view",
      "type": "function"
    },
    {
      "inputs": [],
      "name": "pause",
      "outputs": [],
      "stateMutability": "nonpayable",
      "type": "function"
    },
    {
      "inputs": [],
      "name": "paused",
      "outputs": [
        {
          "internalType": "bool",
          "name": "",
          "type": "bool"
        }
      ],
      "stateMutability": "view",
      "type": "function"
    },
    {
      "inputs": [
        {
          "internalType": "address",
          "name": "token",
          "type": "address"
        },
        {
          "internalType": "uint256",
          "name": "amount",
          "type": "uint256"
        }
      ],
      "name": "recoverERC20",
      "outputs": [],
      "stateMutability": "nonpayable",
      "type": "function"
    },
    {
      "inputs": [
        {
          "internalType": "address",
          "name": "tokenAddress",
          "type": "address"
        }
      ],
      "name": "removeTokenSupport",
      "outputs": [],
      "stateMutability": "nonpayable",
      "type": "function"
    },
    {
      "inputs": [],
      "name": "renounceOwnership",
      "outputs": [],
      "stateMutability": "nonpayable",
      "type": "function"
    },
    {
      "inputs": [],
      "name": "safeAddress",
      "outputs": [
        {
          "internalType": "address",
          "name": "",
          "type": "address"
        }
      ],
      "stateMutability": "view",
      "type": "function"
    },
    {
      "inputs": [
        {
          "internalType": "uint256",
          "name": "_newMultiplier",
          "type": "uint256"
        }
      ],
      "name": "setMultiplier",
      "outputs": [],
      "stateMutability": "nonpayable",
      "type": "function"
    },
    {
      "inputs": [
        {
          "internalType": "address",
          "name": "_newSafe",
          "type": "address"
        }
      ],
      "name": "setSafeAddress",
      "outputs": [],
      "stateMutability": "nonpayable",
      "type": "function"
    },
    {
      "inputs": [
        {
          "internalType": "address",
          "name": "",
          "type": "address"
        }
      ],
      "name": "tokenDecimals",
      "outputs": [
        {
          "internalType": "uint8",
          "name": "",
          "type": "uint8"
        }
      ],
      "stateMutability": "view",
      "type": "function"
    },
    {
      "inputs": [
        {
          "internalType": "address",
          "name": "newOwner",
          "type": "address"
        }
      ],
      "name": "transferOwnership",
      "outputs": [],
      "stateMutability": "nonpayable",
      "type": "function"
    },
    {
      "inputs": [],
      "name": "unpause",
      "outputs": [],
      "stateMutability": "nonpayable",
      "type": "function"
    }
  ],
  "bytecode": "0x608060405234801561001057600080fd5b5061001961001e565b6100d0565b7ff0c57e16840df040f15088dc2f81fe391c3923bec73e23a9662efc9c229c6a00805468010000000000000000900460ff161561006e5760405163f92ee8a960e01b815260040160405180910390fd5b80546001600160401b03908116146100cd5780546001600160401b0319166001600160401b0390811782556040519081527fc7f505b2f371ae2175ee4913f4499e1f2633a7b5936321eed1cdaeb6115181d29060200160405180910390a15b50565b611c78806100df6000396000f3fe608060405234801561001057600080fd5b506004361061018e5760003560e01c8063641579a6116100de5780638da5cb5b11610097578063ce67be2611610071578063ce67be261461036f578063d3c7c2c714610377578063ed03e78c1461038c578063f2fde38b1461039457600080fd5b80638da5cb5b146103025780638ee573ac14610332578063ac67e1af1461036757600080fd5b8063641579a6146102a6578063715018a6146102b9578063733c237d146102c157806375151b63146102d45780638456cb59146102e75780638980f11f146102ef57600080fd5b80633f4ba83a1161014b5780635578110c116101255780635578110c146102605780635c975abb146102735780635e4c57a41461028b5780635ec13b781461029357600080fd5b80633f4ba83a1461022857806347e7ef24146102305780635392fd1c1461024357600080fd5b80631b3ed722146101935780631ec49909146101af5780631fe6e55a146101c45780632ba8d939146101d7578063315f77ef146101ea5780633ede50c614610215575b600080fd5b61019c60045481565b6040519081526020015b60405180910390f35b6101c26101bd36600461187b565b6103a7565b005b61019c6101d2366004611898565b610432565b6101c26101e536600461187b565b610548565b6003546101fd906001600160a01b031681565b6040516001600160a01b0390911681526020016101a6565b6101c26102233660046118c4565b6105dd565b6101c26108fb565b6101c261023e366004611898565b61090d565b6005546102509060ff1681565b60405190151581526020016101a6565b6002546101fd906001600160a01b031681565b600080516020611c038339815191525460ff16610250565b6101c2610967565b6101c26102a1366004611952565b6109a9565b6101c26102b4366004611987565b610a03565b6101c2610b21565b6101c26102cf36600461187b565b610b33565b6102506102e236600461187b565b610c7d565b6101c2610c89565b6101c26102fd366004611898565b610c99565b7f9016d09d72d40fdae2fd8ceac6b6234c7706214fd39c1cd1e609a0528c199300546001600160a01b03166101fd565b61035561034036600461187b565b60066020526000908152604090205460ff1681565b60405160ff90911681526020016101a6565b6101c2610d4c565b61019c610d8b565b61037f610d9c565b6040516101a691906119a0565b61019c600181565b6101c26103a236600461187b565b610da8565b6103af610deb565b6001600160a01b0381166103d65760405163474ebe2f60e11b815260040160405180910390fd5b6002546040516001600160a01b038084169216907fa128590826c0b60efcbff1c96fae1451205b52d6478fbf9d88602a4e48e43d9990600090a3600280546001600160a01b0319166001600160a01b0392909216919091179055565b600061043d83610c7d565b61045a57604051633dd1b30560e01b815260040160405180910390fd5b8160000361047b57604051631f2a200560e01b815260040160405180910390fd5b6000610485610e46565b6001600160a01b03808616600090815260066020908152604080832054815163313ce56760e01b8152915195965060ff1694929386169263313ce567926004808401939192918290030181865afa1580156104e4573d6000803e3d6000fd5b505050506040513d601f19601f8201168201806040525081019061050891906119ed565b90506000610517868484610f28565b905061052482600a611b0a565b6004546105319083611b19565b61053b9190611b30565b9450505050505b92915050565b610550610deb565b6001600160a01b03811661057757604051630f58058360e11b815260040160405180910390fd5b61058081610c7d565b61059d57604051633dd1b30560e01b815260040160405180910390fd5b6105a681610f98565b6040516001600160a01b038216907f1cef54ca6e1745ad87fa3077491d9fc42257e9f1a2d7cad58a4e52bd14dfc62690600090a250565b7ff0c57e16840df040f15088dc2f81fe391c3923bec73e23a9662efc9c229c6a008054600160401b810460ff16159067ffffffffffffffff166000811580156106235750825b905060008267ffffffffffffffff1660011480156106405750303b155b90508115801561064e575080155b1561066c5760405163f92ee8a960e01b815260040160405180910390fd5b845467ffffffffffffffff19166001178555831561069657845460ff60401b1916600160401b1785555b6001600160a01b0389166106bd5760405163474ebe2f60e11b815260040160405180910390fd5b60018610156106df57604051630997be8760e21b815260040160405180910390fd5b6106e833610ff2565b6106f0611003565b6106f8611013565b600280546001600160a01b0319166001600160a01b038b16179055336107315760405163581fa8e360e11b815260040160405180910390fd5b600380546001600160a01b0319163317905560048690556005805460ff1916905560005b878110156108a957600089898381811061077157610771611b52565b9050602002016020810190610786919061187b565b90506001600160a01b0381166107af57604051630f58058360e11b815260040160405180910390fd5b6000816001600160a01b031663313ce5676040518163ffffffff1660e01b8152600401602060405180830381865afa1580156107ef573d6000803e3d6000fd5b505050506040513d601f19601f8201168201806040525081019061081391906119ed565b905060128160ff16111561083a5760405163686d360760e01b815260040160405180910390fd5b61084382611023565b6001600160a01b038216600081815260066020908152604091829020805460ff191660ff861690811790915591519182527fa8a08725d8dd04f6d25026b451e264ce9c9b8cc4e6d10f31eca9a55fe49c09f5910160405180910390a25050600101610755565b5083156108f057845460ff60401b19168555604051600181527fc7f505b2f371ae2175ee4913f4499e1f2633a7b5936321eed1cdaeb6115181d29060200160405180910390a15b505050505050505050565b610903610deb565b61090b6110b4565b565b610915611114565b60055460ff166109385760405163a25d99b160e01b815260040160405180910390fd5b61094061114c565b61094c8282600061117d565b6109636001600080516020611c2383398151915255565b5050565b61096f610deb565b6005805460ff1916600117905560405133907fc36a428b063177e3f28b3b5d340c08f77827847b2ee30114ccf0c40e519c420a90600090a2565b6109b1611114565b60055460ff166109d45760405163a25d99b160e01b815260040160405180910390fd5b6109dc61114c565b6109e783838361117d565b6109fe6001600080516020611c2383398151915255565b505050565b610a0b610deb565b6000610a15610e46565b90506000816001600160a01b031663313ce5676040518163ffffffff1660e01b8152600401602060405180830381865afa158015610a57573d6000803e3d6000fd5b505050506040513d601f19601f82011682018060405250810190610a7b91906119ed565b905060068160ff161015610aa25760405163686d360760e01b815260040160405180910390fd5b6000610aaf600683611b68565b610aba90600a611b0a565b905080841015610add57604051630997be8760e21b815260040160405180910390fd5b60045460408051918252602082018690527f3c02d7351af6053255d947ce3f7b457726360edc933c441e9b1ad724f8ce5c7f910160405180910390a1505050600455565b610b29610deb565b61090b60006113f2565b610b3b610deb565b6001600160a01b038116610b6257604051630f58058360e11b815260040160405180910390fd5b610b6b81610c7d565b15610b895760405163c78e82ad60e01b815260040160405180910390fd5b6000816001600160a01b031663313ce5676040518163ffffffff1660e01b8152600401602060405180830381865afa158015610bc9573d6000803e3d6000fd5b505050506040513d601f19601f82011682018060405250810190610bed91906119ed565b905060128160ff161115610c145760405163686d360760e01b815260040160405180910390fd5b610c1d82611023565b6001600160a01b038216600081815260066020908152604091829020805460ff191660ff861690811790915591519182527fa8a08725d8dd04f6d25026b451e264ce9c9b8cc4e6d10f31eca9a55fe49c09f5910160405180910390a25050565b60006105428183611463565b610c91610deb565b61090b611485565b610ca1610deb565b6001600160a01b038216610cc857604051630f58058360e11b815260040160405180910390fd5b80600003610ce957604051631f2a200560e01b815260040160405180910390fd5b600254610d03906001600160a01b038481169116836114ce565b6002546040518281526001600160a01b03918216918416907f401f439d865a766757ec78675925bd67198d5e78805aa41691b34b5d6a6cbbe69060200160405180910390a35050565b610d54610deb565b6005805460ff1916905560405133907f9ca4d309bbfd23c65db3dc38c1712862f5812c7139937e2655de86e803f73bb990600090a2565b6000610d97600061152d565b905090565b6060610d976000611537565b610db0610deb565b6001600160a01b038116610ddf57604051631e4fbdf760e01b8152600060048201526024015b60405180910390fd5b610de8816113f2565b50565b33610e1d7f9016d09d72d40fdae2fd8ceac6b6234c7706214fd39c1cd1e609a0528c199300546001600160a01b031690565b6001600160a01b03161461090b5760405163118cdaa760e01b8152336004820152602401610dd6565b6003546000906001600160a01b0316610e7257604051632000098360e11b815260040160405180910390fd5b60035460405163040a4ce560e21b815260206004820152600a602482015269496e766573746f72563160b01b60448201526000916001600160a01b031690631029339490606401602060405180830381865afa158015610ed6573d6000803e3d6000fd5b505050506040513d601f19601f82011682018060405250810190610efa9190611b81565b90506001600160a01b038116610f2357604051630be0f7ed60e21b815260040160405180910390fd5b919050565b60008160ff168360ff1603610f3e575082610f91565b8160ff168360ff161015610f7257610f568383611b68565b610f6190600a611b0a565b610f6b9085611b19565b9050610f91565b610f7c8284611b68565b610f8790600a611b0a565b610f6b9085611b30565b9392505050565b6001600160a01b038116610fbf57604051634b082a2d60e11b815260040160405180910390fd5b610fca600082611544565b6105a6576040516344eb3dc360e11b81526001600160a01b0382166004820152602401610dd6565b610ffa611559565b610de8816115a2565b61100b611559565b61090b6115aa565b61101b611559565b61090b6115b2565b6001600160a01b03811661104a57604051634b082a2d60e11b815260040160405180910390fd5b6110556000826115d3565b61107d57604051635484216160e01b81526001600160a01b0382166004820152602401610dd6565b6040516001600160a01b038216907f8f50fda9bf5d3b403c53b7e91646abd507f8cebf2577655d55d7de3926168b1790600090a250565b6110bc6115e8565b600080516020611c03833981519152805460ff191681557f5db9ee0a495bf2e6ff9c91a7834c1ba4fdd244a5e8aa4e537bd38aeae4b073aa335b6040516001600160a01b03909116815260200160405180910390a150565b600080516020611c2383398151915280546001190161114657604051633ee5aeb560e01b815260040160405180910390fd5b60029055565b600080516020611c038339815191525460ff161561090b5760405163d93c066560e01b815260040160405180910390fd5b61118683610c7d565b6111a357604051633dd1b30560e01b815260040160405180910390fd5b816000036111c457604051631f2a200560e01b815260040160405180910390fd5b60006111ce610e46565b90506000819050806001600160a01b03166391d14854826001600160a01b031663d53913936040518163ffffffff1660e01b8152600401602060405180830381865afa158015611222573d6000803e3d6000fd5b505050506040513d601f19601f820116820180604052508101906112469190611b9e565b6040516001600160e01b031960e084901b1681526004810191909152306024820152604401602060405180830381865afa158015611288573d6000803e3d6000fd5b505050506040513d601f19601f820116820180604052508101906112ac9190611bb7565b6112c9576040516309a26af960e31b815260040160405180910390fd5b60006112d58686610432565b90506000841180156112e657508381105b1561130e576040516371c4efed60e01b81526004810185905260248101829052604401610dd6565b60025461132a906001600160a01b038881169133911688611618565b604051636b7747b360e01b8152336004820152602481018290526001600160a01b03831690636b7747b390604401600060405180830381600087803b15801561137257600080fd5b505af1158015611386573d6000803e3d6000fd5b50506040805188815260208101859052438183015290516001600160a01b038a1693503392507f8bab6aed5a508937051a144e61d6e61336834a66aaee250a00613ae6f744c4229181900360600190a3505050505050565b6001600080516020611c2383398151915255565b7f9016d09d72d40fdae2fd8ceac6b6234c7706214fd39c1cd1e609a0528c19930080546001600160a01b031981166001600160a01b03848116918217845560405192169182907f8be0079c531659141344cd1fd0a4f28419497f9722a3daafe3b4186f6b6457e090600090a3505050565b6001600160a01b03811660009081526001830160205260408120541515610f91565b61148d61114c565b600080516020611c03833981519152805460ff191660011781557f62e78cea01bee320cd4e420270b5ea74000d11b0c9f74754ebdbfc544b05a258336110f6565b6040516001600160a01b038381166024830152604482018390526109fe91859182169063a9059cbb906064015b604051602081830303815290604052915060e01b6020820180516001600160e01b038381831617835250505050611657565b6000610542825490565b60606000610f91836116c8565b6000610f91836001600160a01b038416611724565b7ff0c57e16840df040f15088dc2f81fe391c3923bec73e23a9662efc9c229c6a0054600160401b900460ff1661090b57604051631afcd79f60e31b815260040160405180910390fd5b610db0611559565b6113de611559565b6115ba611559565b600080516020611c03833981519152805460ff19169055565b6000610f91836001600160a01b038416611817565b600080516020611c038339815191525460ff1661090b57604051638dfc202b60e01b815260040160405180910390fd5b6040516001600160a01b0384811660248301528381166044830152606482018390526116519186918216906323b872dd906084016114fb565b50505050565b600080602060008451602086016000885af18061167a576040513d6000823e3d81fd5b50506000513d9150811561169257806001141561169f565b6001600160a01b0384163b155b1561165157604051635274afe760e01b81526001600160a01b0385166004820152602401610dd6565b60608160000180548060200260200160405190810160405280929190818152602001828054801561171857602002820191906000526020600020905b815481526020019060010190808311611704575b50505050509050919050565b6000818152600183016020526040812054801561180d576000611748600183611bd9565b855490915060009061175c90600190611bd9565b90508082146117c157600086600001828154811061177c5761177c611b52565b906000526020600020015490508087600001848154811061179f5761179f611b52565b6000918252602080832090910192909255918252600188019052604090208390555b85548690806117d2576117d2611bec565b600190038181906000526020600020016000905590558560010160008681526020019081526020016000206000905560019350505050610542565b6000915050610542565b600081815260018301602052604081205461185e57508154600181810184556000848152602080822090930184905584548482528286019093526040902091909155610542565b506000610542565b6001600160a01b0381168114610de857600080fd5b60006020828403121561188d57600080fd5b8135610f9181611866565b600080604083850312156118ab57600080fd5b82356118b681611866565b946020939093013593505050565b600080600080606085870312156118da57600080fd5b84356118e581611866565b9350602085013567ffffffffffffffff8082111561190257600080fd5b818701915087601f83011261191657600080fd5b81358181111561192557600080fd5b8860208260051b850101111561193a57600080fd5b95986020929092019750949560400135945092505050565b60008060006060848603121561196757600080fd5b833561197281611866565b95602085013595506040909401359392505050565b60006020828403121561199957600080fd5b5035919050565b6020808252825182820181905260009190848201906040850190845b818110156119e15783516001600160a01b0316835292840192918401916001016119bc565b50909695505050505050565b6000602082840312156119ff57600080fd5b815160ff81168114610f9157600080fd5b634e487b7160e01b600052601160045260246000fd5b600181815b80851115611a61578160001904821115611a4757611a47611a10565b80851615611a5457918102915b93841c9390800290611a2b565b509250929050565b600082611a7857506001610542565b81611a8557506000610542565b8160018114611a9b5760028114611aa557611ac1565b6001915050610542565b60ff841115611ab657611ab6611a10565b50506001821b610542565b5060208310610133831016604e8410600b8410161715611ae4575081810a610542565b611aee8383611a26565b8060001904821115611b0257611b02611a10565b029392505050565b6000610f9160ff841683611a69565b808202811582820484141761054257610542611a10565b600082611b4d57634e487b7160e01b600052601260045260246000fd5b500490565b634e487b7160e01b600052603260045260246000fd5b60ff828116828216039081111561054257610542611a10565b600060208284031215611b9357600080fd5b8151610f9181611866565b600060208284031215611bb057600080fd5b5051919050565b600060208284031215611bc957600080fd5b81518015158114610f9157600080fd5b8181038181111561054257610542611a10565b634e487b7160e01b600052603160045260246000fdfecd5ed15c6e187e77e9aee88184c21f4f2182ab5827cb3b7e07fbedcd63f033009b779b17422d0df92223018b32b4d1fa46e071723d6817e2486d003becc55f00a2646970667358221220f312bd8685e7418abfc926b77ddb9fbdb20a0caf4bff214df6c7bb78c782b11264736f6c63430008180033",
  "linkReferences": {},
  "deployedLinkReferences": {}
}