{
  "_format": "hh-sol-artifact-1",
  "contractName": "Vesting",
  "sourceName": "contracts/Vesting.sol",
  "abi": [
    {
      "inputs": [],
      "name": "EnforcedPause",
      "type": "error"
    },
    {
      "inputs": [],
      "name": "ExpectedPause",
      "type": "error"
    },
    {
      "inputs": [],
      "name": "InvalidInitialization",
      "type": "error"
    },
    {
      "inputs": [],
      "name": "NotInitializing",
      "type": "error"
    },
    {
      "inputs": [
        {
          "internalType": "address",
          "name": "owner",
          "type": "address"
        }
      ],
      "name": "OwnableInvalidOwner",
      "type": "error"
    },
    {
      "inputs": [
        {
          "internalType": "address",
          "name": "account",
          "type": "address"
        }
      ],
      "name": "OwnableUnauthorizedAccount",
      "type": "error"
    },
    {
      "inputs": [],
      "name": "ReentrancyGuardReentrantCall",
      "type": "error"
    },
    {
      "inputs": [
        {
          "internalType": "address",
          "name": "token",
          "type": "address"
        }
      ],
      "name": "SafeERC20FailedOperation",
      "type": "error"
    },
    {
      "anonymous": false,
      "inputs": [
        {
          "indexed": false,
          "internalType": "uint64",
          "name": "version",
          "type": "uint64"
        }
      ],
      "name": "Initialized",
      "type": "event"
    },
    {
      "anonymous": false,
      "inputs": [
        {
          "indexed": true,
          "internalType": "address",
          "name": "previousOwner",
          "type": "address"
        },
        {
          "indexed": true,
          "internalType": "address",
          "name": "newOwner",
          "type": "address"
        }
      ],
      "name": "OwnershipTransferred",
      "type": "event"
    },
    {
      "anonymous": false,
      "inputs": [
        {
          "indexed": false,
          "internalType": "address",
          "name": "account",
          "type": "address"
        }
      ],
      "name": "Paused",
      "type": "event"
    },
    {
      "anonymous": false,
      "inputs": [
        {
          "indexed": true,
          "internalType": "address",
          "name": "member",
          "type": "address"
        },
        {
          "indexed": true,
          "internalType": "uint256",
          "name": "teamId",
          "type": "uint256"
        },
        {
          "indexed": false,
          "internalType": "uint256",
          "name": "amount",
          "type": "uint256"
        }
      ],
      "name": "TokensReleased",
      "type": "event"
    },
    {
      "anonymous": false,
      "inputs": [
        {
          "indexed": false,
          "internalType": "address",
          "name": "account",
          "type": "address"
        }
      ],
      "name": "Unpaused",
      "type": "event"
    },
    {
      "anonymous": false,
      "inputs": [
        {
          "indexed": true,
          "internalType": "address",
          "name": "member",
          "type": "address"
        },
        {
          "indexed": true,
          "internalType": "uint256",
          "name": "teamId",
          "type": "uint256"
        },
        {
          "indexed": false,
          "internalType": "uint256",
          "name": "amount",
          "type": "uint256"
        }
      ],
      "name": "UnvestedWithdrawn",
      "type": "event"
    },
    {
      "anonymous": false,
      "inputs": [
        {
          "indexed": true,
          "internalType": "address",
          "name": "member",
          "type": "address"
        },
        {
          "indexed": true,
          "internalType": "uint256",
          "name": "teamId",
          "type": "uint256"
        },
        {
          "indexed": false,
          "internalType": "uint256",
          "name": "amount",
          "type": "uint256"
        }
      ],
      "name": "VestingCreated",
      "type": "event"
    },
    {
      "anonymous": false,
      "inputs": [
        {
          "indexed": true,
          "internalType": "address",
          "name": "member",
          "type": "address"
        },
        {
          "indexed": true,
          "internalType": "uint256",
          "name": "teamId",
          "type": "uint256"
        }
      ],
      "name": "VestingStopped",
      "type": "event"
    },
    {
      "inputs": [
        {
          "internalType": "uint256",
          "name": "teamId",
          "type": "uint256"
        },
        {
          "internalType": "address",
          "name": "member",
          "type": "address"
        },
        {
          "internalType": "uint64",
          "name": "start",
          "type": "uint64"
        },
        {
          "internalType": "uint64",
          "name": "duration",
          "type": "uint64"
        },
        {
          "internalType": "uint64",
          "name": "cliff",
          "type": "uint64"
        },
        {
          "internalType": "uint256",
          "name": "totalAmount",
          "type": "uint256"
        },
        {
          "internalType": "address",
          "name": "tokenAddress",
          "type": "address"
        }
      ],
      "name": "addVesting",
      "outputs": [],
      "stateMutability": "nonpayable",
      "type": "function"
    },
    {
      "inputs": [
        {
          "internalType": "address",
          "name": "",
          "type": "address"
        },
        {
          "internalType": "uint256",
          "name": "",
          "type": "uint256"
        },
        {
          "internalType": "uint256",
          "name": "",
          "type": "uint256"
        }
      ],
      "name": "archivedVestings",
      "outputs": [
        {
          "internalType": "uint64",
          "name": "start",
          "type": "uint64"
        },
        {
          "internalType": "uint64",
          "name": "duration",
          "type": "uint64"
        },
        {
          "internalType": "uint64",
          "name": "cliff",
          "type": "uint64"
        },
        {
          "internalType": "uint256",
          "name": "totalAmount",
          "type": "uint256"
        },
        {
          "internalType": "uint256",
          "name": "released",
          "type": "uint256"
        },
        {
          "internalType": "bool",
          "name": "active",
          "type": "bool"
        }
      ],
      "stateMutability": "view",
      "type": "function"
    },
    {
      "inputs": [
        {
          "internalType": "uint256",
          "name": "teamId",
          "type": "uint256"
        },
        {
          "internalType": "address",
          "name": "teamOwner",
          "type": "address"
        },
        {
          "internalType": "address",
          "name": "tokenAddress",
          "type": "address"
        }
      ],
      "name": "createTeam",
      "outputs": [],
      "stateMutability": "nonpayable",
      "type": "function"
    },
    {
      "inputs": [],
      "name": "getCurrentTimestamp",
      "outputs": [
        {
          "internalType": "uint256",
          "name": "",
          "type": "uint256"
        }
      ],
      "stateMutability": "view",
      "type": "function"
    },
    {
      "inputs": [
        {
          "internalType": "uint256",
          "name": "teamId",
          "type": "uint256"
        }
      ],
      "name": "getTeamAllArchivedVestingsFlat",
      "outputs": [
        {
          "internalType": "address[]",
          "name": "members",
          "type": "address[]"
        },
        {
          "components": [
            {
              "internalType": "uint64",
              "name": "start",
              "type": "uint64"
            },
            {
              "internalType": "uint64",
              "name": "duration",
              "type": "uint64"
            },
            {
              "internalType": "uint64",
              "name": "cliff",
              "type": "uint64"
            },
            {
              "internalType": "uint256",
              "name": "totalAmount",
              "type": "uint256"
            },
            {
              "internalType": "uint256",
              "name": "released",
              "type": "uint256"
            },
            {
              "internalType": "bool",
              "name": "active",
              "type": "bool"
            }
          ],
          "internalType": "struct Vesting.VestingInfo[]",
          "name": "archivedInfos",
          "type": "tuple[]"
        }
      ],
      "stateMutability": "view",
      "type": "function"
    },
    {
      "inputs": [
        {
          "internalType": "uint256",
          "name": "teamId",
          "type": "uint256"
        }
      ],
      "name": "getTeamMembers",
      "outputs": [
        {
          "internalType": "address[]",
          "name": "",
          "type": "address[]"
        }
      ],
      "stateMutability": "view",
      "type": "function"
    },
    {
      "inputs": [
        {
          "internalType": "uint256",
          "name": "teamId",
          "type": "uint256"
        }
      ],
      "name": "getTeamVestingsWithMembers",
      "outputs": [
        {
          "internalType": "address[]",
          "name": "",
          "type": "address[]"
        },
        {
          "components": [
            {
              "internalType": "uint64",
              "name": "start",
              "type": "uint64"
            },
            {
              "internalType": "uint64",
              "name": "duration",
              "type": "uint64"
            },
            {
              "internalType": "uint64",
              "name": "cliff",
              "type": "uint64"
            },
            {
              "internalType": "uint256",
              "name": "totalAmount",
              "type": "uint256"
            },
            {
              "internalType": "uint256",
              "name": "released",
              "type": "uint256"
            },
            {
              "internalType": "bool",
              "name": "active",
              "type": "bool"
            }
          ],
          "internalType": "struct Vesting.VestingInfo[]",
          "name": "",
          "type": "tuple[]"
        }
      ],
      "stateMutability": "view",
      "type": "function"
    },
    {
      "inputs": [
        {
          "internalType": "address",
          "name": "user",
          "type": "address"
        }
      ],
      "name": "getUserTeams",
      "outputs": [
        {
          "internalType": "uint256[]",
          "name": "",
          "type": "uint256[]"
        }
      ],
      "stateMutability": "view",
      "type": "function"
    },
    {
      "inputs": [],
      "name": "initialize",
      "outputs": [],
      "stateMutability": "nonpayable",
      "type": "function"
    },
    {
      "inputs": [
        {
          "internalType": "address",
          "name": "",
          "type": "address"
        },
        {
          "internalType": "uint256",
          "name": "",
          "type": "uint256"
        }
      ],
      "name": "isUserInTeam",
      "outputs": [
        {
          "internalType": "bool",
          "name": "",
          "type": "bool"
        }
      ],
      "stateMutability": "view",
      "type": "function"
    },
    {
      "inputs": [],
      "name": "owner",
      "outputs": [
        {
          "internalType": "address",
          "name": "",
          "type": "address"
        }
      ],
      "stateMutability": "view",
      "type": "function"
    },
    {
      "inputs": [],
      "name": "pause",
      "outputs": [],
      "stateMutability": "nonpayable",
      "type": "function"
    },
    {
      "inputs": [],
      "name": "paused",
      "outputs": [
        {
          "internalType": "bool",
          "name": "",
          "type": "bool"
        }
      ],
      "stateMutability": "view",
      "type": "function"
    },
    {
      "inputs": [
        {
          "internalType": "address",
          "name": "member",
          "type": "address"
        },
        {
          "internalType": "uint256",
          "name": "teamId",
          "type": "uint256"
        }
      ],
      "name": "releasable",
      "outputs": [
        {
          "internalType": "uint256",
          "name": "",
          "type": "uint256"
        }
      ],
      "stateMutability": "view",
      "type": "function"
    },
    {
      "inputs": [
        {
          "internalType": "uint256",
          "name": "teamId",
          "type": "uint256"
        }
      ],
      "name": "release",
      "outputs": [],
      "stateMutability": "nonpayable",
      "type": "function"
    },
    {
      "inputs": [],
      "name": "renounceOwnership",
      "outputs": [],
      "stateMutability": "nonpayable",
      "type": "function"
    },
    {
      "inputs": [
        {
          "internalType": "address",
          "name": "member",
          "type": "address"
        },
        {
          "internalType": "uint256",
          "name": "teamId",
          "type": "uint256"
        }
      ],
      "name": "stopVesting",
      "outputs": [],
      "stateMutability": "nonpayable",
      "type": "function"
    },
    {
      "inputs": [
        {
          "internalType": "uint256",
          "name": "",
          "type": "uint256"
        }
      ],
      "name": "teams",
      "outputs": [
        {
          "internalType": "address",
          "name": "owner",
          "type": "address"
        },
        {
          "internalType": "address",
          "name": "token",
          "type": "address"
        }
      ],
      "stateMutability": "view",
      "type": "function"
    },
    {
      "inputs": [
        {
          "internalType": "address",
          "name": "newOwner",
          "type": "address"
        }
      ],
      "name": "transferOwnership",
      "outputs": [],
      "stateMutability": "nonpayable",
      "type": "function"
    },
    {
      "inputs": [],
      "name": "unpause",
      "outputs": [],
      "stateMutability": "nonpayable",
      "type": "function"
    },
    {
      "inputs": [
        {
          "internalType": "address",
          "name": "",
          "type": "address"
        },
        {
          "internalType": "uint256",
          "name": "",
          "type": "uint256"
        }
      ],
      "name": "userTeams",
      "outputs": [
        {
          "internalType": "uint256",
          "name": "",
          "type": "uint256"
        }
      ],
      "stateMutability": "view",
      "type": "function"
    },
    {
      "inputs": [
        {
          "internalType": "address",
          "name": "member",
          "type": "address"
        },
        {
          "internalType": "uint256",
          "name": "teamId",
          "type": "uint256"
        }
      ],
      "name": "vestedAmount",
      "outputs": [
        {
          "internalType": "uint256",
          "name": "",
          "type": "uint256"
        }
      ],
      "stateMutability": "view",
      "type": "function"
    },
    {
      "inputs": [
        {
          "internalType": "address",
          "name": "",
          "type": "address"
        },
        {
          "internalType": "uint256",
          "name": "",
          "type": "uint256"
        }
      ],
      "name": "vestings",
      "outputs": [
        {
          "internalType": "uint64",
          "name": "start",
          "type": "uint64"
        },
        {
          "internalType": "uint64",
          "name": "duration",
          "type": "uint64"
        },
        {
          "internalType": "uint64",
          "name": "cliff",
          "type": "uint64"
        },
        {
          "internalType": "uint256",
          "name": "totalAmount",
          "type": "uint256"
        },
        {
          "internalType": "uint256",
          "name": "released",
          "type": "uint256"
        },
        {
          "internalType": "bool",
          "name": "active",
          "type": "bool"
        }
      ],
      "stateMutability": "view",
      "type": "function"
    }
  ],
  "bytecode": "0x608060405234801561001057600080fd5b506124b3806100206000396000f3fe608060405234801561001057600080fd5b506004361061014d5760003560e01c8063715018a6116100c3578063b0d8d3271161007c578063b0d8d32714610320578063b52cfad814610333578063bd84477d14610353578063ebd981d4146103f3578063ef5fcd5614610406578063f2fde38b1461041957600080fd5b8063715018a61461028057806380b357e9146102885780638129fc1c146102b65780638456cb59146102be5780638d758f90146102c65780638da5cb5b146102e657600080fd5b806338943fbc1161011557806338943fbc146101c65780633ed2b77a146101d95780633f4ba83a1461022d5780635c975abb146102355780636b8d846d146102595780636c9230db1461027a57600080fd5b806317cf5391146101525780631b697793146101785780632081d6311461018d57806323d26f80146101a057806337bdc99b146101b3575b600080fd5b610165610160366004612087565b61042c565b6040519081526020015b60405180910390f35b61018b6101863660046120b1565b610505565b005b61016561019b366004612087565b610687565b6101656101ae366004612087565b6106c7565b61018b6101c13660046120ed565b6106f8565b61018b6101d4366004612087565b610850565b61020d6101e73660046120ed565b600060208190529081526040902080546001909101546001600160a01b03918216911682565b604080516001600160a01b0393841681529290911660208301520161016f565b61018b610ba0565b60008051602061243e8339815191525460ff165b604051901515815260200161016f565b61026c6102673660046120ed565b610bb2565b60405161016f92919061214b565b42610165565b61018b610ed4565b610249610296366004612087565b600460209081526000928352604080842090915290825290205460ff1681565b61018b610ee6565b61018b610fef565b6102d96102d43660046120ed565b610fff565b60405161016f91906121e6565b7f9016d09d72d40fdae2fd8ceac6b6234c7706214fd39c1cd1e609a0528c199300546040516001600160a01b03909116815260200161016f565b61018b61032e366004612217565b61106c565b61034661034136600461228f565b6117a5565b60405161016f91906122aa565b6103b5610361366004612087565b6002602081815260009384526040808520909152918352912080546001820154928201546003909201546001600160401b0380831694600160401b8404821694600160801b90940490911692909160ff1686565b604080516001600160401b039788168152958716602087015293909516928401929092526060830152608082015290151560a082015260c00161016f565b6103b56104013660046122ee565b611810565b61026c6104143660046120ed565b611887565b61018b61042736600461228f565b611bcd565b6001600160a01b03821660009081526002602081815260408084208585528252808420815160c08101835281546001600160401b038082168352600160401b8204811695830195909552600160801b9004909316918301919091526001810154606083015291820154608082015260039091015460ff16151560a082018190526104ba5760009150506104ff565b6104fb816060015182600001516001600160401b031683604001516001600160401b031684602001516001600160401b0316426001600160401b0316611c08565b9150505b92915050565b61050d611c65565b6001600160a01b0382166105585760405162461bcd60e51b815260206004820152600d60248201526c24b73b30b634b21037bbb732b960991b60448201526064015b60405180910390fd5b6001600160a01b03811661057e5760405162461bcd60e51b815260040161054f90612321565b6000838152602081905260409020546001600160a01b0316156105d95760405162461bcd60e51b81526020600482015260136024820152725465616d20616c72656164792065786973747360681b604482015260640161054f565b604080516060810182526001600160a01b038085168252831660208201529081016000604051908082528060200260200182016040528015610625578160200160208202803683370190505b50905260008481526020818152604091829020835181546001600160a01b039182166001600160a01b03199182161783558584015160018401805491909316911617905591830151805161067f9260028501920190611ff1565b505050505050565b600080610694848461042c565b6001600160a01b038516600090815260026020818152604080842088855290915290912001549091506104fb9082612374565b600160205281600052604060002081815481106106e357600080fd5b90600052602060002001600091509150505481565b610700611cc0565b610708611cf8565b3360009081526002602090815260408083208484529091529020600381015460ff1661076b5760405162461bcd60e51b815260206004820152601260248201527156657374696e67206e6f742061637469766560701b604482015260640161054f565b60006107773384610687565b9050600081116107be5760405162461bcd60e51b81526020600482015260126024820152714e6f7468696e6720746f2072656c6561736560701b604482015260640161054f565b808260020160008282546107d29190612387565b90915550506000838152602081905260409020600101546107fd906001600160a01b03163383611d29565b604051818152839033907fc5c52c2a9175470464d5ea4429889e7df2ea88630a3d32f4d0d3d2d4486562109060200160405180910390a3505061084d600160008051602061245e83398151915255565b50565b60008181526020819052604090205481906001600160a01b031633146108a95760405162461bcd60e51b815260206004820152600e60248201526d2737ba103a32b0b69037bbb732b960911b604482015260640161054f565b6108b1611cc0565b6108b9611cf8565b6001600160a01b03831660009081526002602090815260408083208584529091529020600381015460ff166109225760405162461bcd60e51b815260206004820152600f60248201526e105b1c9958591e481cdd1bdc1c1959608a1b604482015260640161054f565b600061092e8585610687565b9050600081836002015484600101546109479190612374565b6109519190612374565b6000868152602081905260409020600101549091506001600160a01b031682156109e857828460020160008282546109899190612387565b909155506109a390506001600160a01b0382168885611d29565b85876001600160a01b03167fc5c52c2a9175470464d5ea4429889e7df2ea88630a3d32f4d0d3d2d448656210856040516109df91815260200190565b60405180910390a35b8115610a4757610a026001600160a01b0382163384611d29565b85876001600160a01b03167f71b2cd01c17288f6dbd8b9b2e37988a5c06cd7293e5da9f1679b3213323223f484604051610a3e91815260200190565b60405180910390a35b6003848101805460ff1990811682556001600160a01b038a166000818152602085815260408083208d845282528083208054600181810183559185528385208d5460049092020180546001600160401b0392831667ffffffffffffffff198216811783558f546fffffffffffffffffffffffffffffffff1990921617600160401b918290048416909102178082558e5467ffffffffffffffff60801b19909116600160801b9182900490931602919091178155818d0154818301556002808e01548183015597549089018054881660ff90921615159190911790558484528683528184208e855290925280832080546001600160c01b03191681559182018390559481018290559094018054909216909155905188927f92f734198ab8020ad404b3d192ea362244166e65951e3fdfecd80058264b4c6f91a350505050610b9b600160008051602061245e83398151915255565b505050565b610ba8611c65565b610bb0611d8f565b565b600081815260208181526040808320600201805482518185028101850190935280835260609485949093929190830182828015610c1857602002820191906000526020600020905b81546001600160a01b03168152600190910190602001808311610bfa575b505050505090506000805b8251811015610c945760036000848381518110610c4257610c4261239a565b60200260200101516001600160a01b03166001600160a01b0316815260200190815260200160002060008781526020019081526020016000208054905082610c8a9190612387565b9150600101610c23565b50806001600160401b03811115610cad57610cad612348565b604051908082528060200260200182016040528015610cd6578160200160208202803683370190505b509350806001600160401b03811115610cf157610cf1612348565b604051908082528060200260200182016040528015610d5157816020015b6040805160c08101825260008082526020808301829052928201819052606082018190526080820181905260a08201528252600019909201910181610d0f5790505b5092506000805b8351811015610ecb57600060036000868481518110610d7957610d7961239a565b60200260200101516001600160a01b03166001600160a01b031681526020019081526020016000206000898152602001908152602001600020905060005b8154811015610ec157858381518110610dd257610dd261239a565b6020026020010151888581518110610dec57610dec61239a565b60200260200101906001600160a01b031690816001600160a01b031681525050818181548110610e1e57610e1e61239a565b60009182526020918290206040805160c081018252600490930290910180546001600160401b038082168552600160401b8204811695850195909552600160801b900490931690820152600182015460608201526002820154608082015260039091015460ff16151560a08201528751889086908110610ea057610ea061239a565b60200260200101819052508380610eb6906123b0565b945050600101610db7565b5050600101610d58565b50505050915091565b610edc611c65565b610bb06000611def565b6000610ef0611e60565b805490915060ff600160401b82041615906001600160401b0316600081158015610f175750825b90506000826001600160401b03166001148015610f335750303b155b905081158015610f41575080155b15610f5f5760405163f92ee8a960e01b815260040160405180910390fd5b845467ffffffffffffffff191660011785558315610f8957845460ff60401b1916600160401b1785555b610f9233611e89565b610f9a611e9a565b610fa2611eaa565b8315610fe857845460ff60401b19168555604051600181527fc7f505b2f371ae2175ee4913f4499e1f2633a7b5936321eed1cdaeb6115181d29060200160405180910390a15b5050505050565b610ff7611c65565b610bb0611eb2565b6000818152602081815260409182902060020180548351818402810184019094528084526060939283018282801561106057602002820191906000526020600020905b81546001600160a01b03168152600190910190602001808311611042575b50505050509050919050565b611074611cc0565b61107c611cf8565b6001600160a01b0386166110c35760405162461bcd60e51b815260206004820152600e60248201526d24b73b30b634b21036b2b6b132b960911b604482015260640161054f565b826001600160401b0316846001600160401b0316101561111e5760405162461bcd60e51b815260206004820152601660248201527521b634b3331032bc31b2b2b23990323ab930ba34b7b760511b604482015260640161054f565b6001600160a01b0381166111445760405162461bcd60e51b815260040161054f90612321565b6000878152602081905260409020546001600160a01b031661120d57604080516060810182523381526001600160a01b038316602082015290810160006040519080825280602002602001820160405280156111aa578160200160208202803683370190505b50905260008881526020818152604091829020835181546001600160a01b039182166001600160a01b0319918216178355858401516001840180549190931691161790559183015180516112049260028501920190611ff1565b50905050611264565b6000878152602081905260409020546001600160a01b031633146112645760405162461bcd60e51b815260206004820152600e60248201526d2737ba103a32b0b69037bbb732b960911b604482015260640161054f565b6000878152602081905260409020600101546001600160a01b031661129b5760405162461bcd60e51b815260040161054f90612321565b6001600160a01b03861660009081526002602090815260408083208a845290915290206003015460ff161561130b5760405162461bcd60e51b815260206004820152601660248201527556657374696e6720616c72656164792065786973747360501b604482015260640161054f565b600087815260208190526040808220600101549051636eb1769f60e11b81523360048201523060248201526001600160a01b039091169190829063dd62ed3e90604401602060405180830381865afa15801561136b573d6000803e3d6000fd5b505050506040513d601f19601f8201168201806040525081019061138f91906123c9565b9050838110156113d85760405162461bcd60e51b81526020600482015260146024820152734e6f7420656e6f75676820616c6c6f77616e636560601b604482015260640161054f565b6040516370a0823160e01b815233600482015284906001600160a01b038416906370a0823190602401602060405180830381865afa15801561141e573d6000803e3d6000fd5b505050506040513d601f19601f8201168201806040525081019061144291906123c9565b10156114875760405162461bcd60e51b8152602060048201526014602482015273496e73756666696369656e742062616c616e636560601b604482015260640161054f565b6040516323b872dd60e01b8152336004820152306024820152604481018590526000906001600160a01b038416906323b872dd906064016020604051808303816000875af11580156114dd573d6000803e3d6000fd5b505050506040513d601f19601f8201168201806040525081019061150191906123e2565b9050806115425760405162461bcd60e51b815260206004820152600f60248201526e151c985b9cd9995c8819985a5b1959608a1b604482015260640161054f565b6040518060c00160405280896001600160401b03168152602001886001600160401b03168152602001876001600160401b031681526020018681526020016000815260200160011515815250600260008b6001600160a01b03166001600160a01b0316815260200190815260200160002060008c815260200190815260200160002060008201518160000160006101000a8154816001600160401b0302191690836001600160401b0316021790555060208201518160000160086101000a8154816001600160401b0302191690836001600160401b0316021790555060408201518160000160106101000a8154816001600160401b0302191690836001600160401b03160217905550606082015181600101556080820151816002015560a08201518160030160006101000a81548160ff021916908315150217905550905050600460008a6001600160a01b03166001600160a01b0316815260200190815260200160002060008b815260200190815260200160002060009054906101000a900460ff1661173e576001600160a01b038916600081815260016020818152604080842080548085018255908552828520018f90558e8452838252808420600201805480850182559085528285200180546001600160a01b03191686179055938352600481528383208e84529052919020805460ff191690911790555b89896001600160a01b03167f9ade76f4385de306666dfb21a52b27d52db0fde8ad0f515fa261f532cac60d218760405161177a91815260200190565b60405180910390a350505061179c600160008051602061245e83398151915255565b50505050505050565b6001600160a01b03811660009081526001602090815260409182902080548351818402810184019094528084526060939283018282801561106057602002820191906000526020600020905b8154815260200190600101908083116117f15750505050509050919050565b6003602052826000526040600020602052816000526040600020818154811061183857600080fd5b600091825260209091206004909102018054600182015460028301546003909301546001600160401b038084169750600160401b840481169650600160801b9093049092169350919060ff1686565b6000818152602081815260408083206002018054825181850281018501909352808352606094859490939291908301828280156118ed57602002820191906000526020600020905b81546001600160a01b031681526001909101906020018083116118cf575b505050505090506000805b82518110156119c2576000600260008584815181106119195761191961239a565b6020908102919091018101516001600160a01b0316825281810192909252604090810160009081208a82528352819020815160c08101835281546001600160401b038082168352600160401b8204811695830195909552600160801b90049093169183019190915260018101546060830152600281015460808301526003015460ff1615801560a08301529091506119b957826119b5816123b0565b9350505b506001016118f8565b506000816001600160401b038111156119dd576119dd612348565b604051908082528060200260200182016040528015611a06578160200160208202803683370190505b5090506000826001600160401b03811115611a2357611a23612348565b604051908082528060200260200182016040528015611a8357816020015b6040805160c08101825260008082526020808301829052928201819052606082018190526080820181905260a08201528252600019909201910181611a415790505b5090506000805b8551811015611bbf57600060026000888481518110611aab57611aab61239a565b6020908102919091018101516001600160a01b0316825281810192909252604090810160009081208d82528352819020815160c08101835281546001600160401b038082168352600160401b8204811695830195909552600160801b90049093169183019190915260018101546060830152600281015460808301526003015460ff1615801560a0830152909150611bb657868281518110611b4f57611b4f61239a565b6020026020010151858481518110611b6957611b6961239a565b60200260200101906001600160a01b031690816001600160a01b03168152505080848481518110611b9c57611b9c61239a565b60200260200101819052508280611bb2906123b0565b9350505b50600101611a8a565b509197909650945050505050565b611bd5611c65565b6001600160a01b038116611bff57604051631e4fbdf760e01b81526000600482015260240161054f565b61084d81611def565b6000611c148486612387565b821015611c2357506000611c5c565b611c2d8386612387565b8210611c3a575084611c5c565b82611c458684612374565b611c4f9088612404565b611c59919061241b565b90505b95945050505050565b33611c977f9016d09d72d40fdae2fd8ceac6b6234c7706214fd39c1cd1e609a0528c199300546001600160a01b031690565b6001600160a01b031614610bb05760405163118cdaa760e01b815233600482015260240161054f565b60008051602061245e833981519152805460011901611cf257604051633ee5aeb560e01b815260040160405180910390fd5b60029055565b60008051602061243e8339815191525460ff1615610bb05760405163d93c066560e01b815260040160405180910390fd5b604080516001600160a01b038416602482015260448082018490528251808303909101815260649091019091526020810180516001600160e01b031663a9059cbb60e01b179052610b9b908490611efb565b600160008051602061245e83398151915255565b611d97611f72565b60008051602061243e833981519152805460ff191681557f5db9ee0a495bf2e6ff9c91a7834c1ba4fdd244a5e8aa4e537bd38aeae4b073aa335b6040516001600160a01b03909116815260200160405180910390a150565b7f9016d09d72d40fdae2fd8ceac6b6234c7706214fd39c1cd1e609a0528c19930080546001600160a01b031981166001600160a01b03848116918217845560405192169182907f8be0079c531659141344cd1fd0a4f28419497f9722a3daafe3b4186f6b6457e090600090a3505050565b6000807ff0c57e16840df040f15088dc2f81fe391c3923bec73e23a9662efc9c229c6a006104ff565b611e91611fa2565b61084d81611fc7565b611ea2611fa2565b610bb0611fcf565b610bb0611fa2565b611eba611cf8565b60008051602061243e833981519152805460ff191660011781557f62e78cea01bee320cd4e420270b5ea74000d11b0c9f74754ebdbfc544b05a25833611dd1565b600080602060008451602086016000885af180611f1e576040513d6000823e3d81fd5b50506000513d91508115611f36578060011415611f43565b6001600160a01b0384163b155b15611f6c57604051635274afe760e01b81526001600160a01b038516600482015260240161054f565b50505050565b60008051602061243e8339815191525460ff16610bb057604051638dfc202b60e01b815260040160405180910390fd5b611faa611fd7565b610bb057604051631afcd79f60e31b815260040160405180910390fd5b611bd5611fa2565b611d7b611fa2565b6000611fe1611e60565b54600160401b900460ff16919050565b828054828255906000526020600020908101928215612046579160200282015b8281111561204657825182546001600160a01b0319166001600160a01b03909116178255602090920191600190910190612011565b50612052929150612056565b5090565b5b808211156120525760008155600101612057565b80356001600160a01b038116811461208257600080fd5b919050565b6000806040838503121561209a57600080fd5b6120a38361206b565b946020939093013593505050565b6000806000606084860312156120c657600080fd5b833592506120d66020850161206b565b91506120e46040850161206b565b90509250925092565b6000602082840312156120ff57600080fd5b5035919050565b60008151808452602080850194506020840160005b838110156121405781516001600160a01b03168752958201959082019060010161211b565b509495945050505050565b6000604080835261215f6040840186612106565b83810360208581019190915285518083528682019282019060005b818110156121d857845180516001600160401b03908116855285820151811686860152878201511687850152606080820151908501526080808201519085015260a0908101511515908401529383019360c09092019160010161217a565b509098975050505050505050565b6020815260006121f96020830184612106565b9392505050565b80356001600160401b038116811461208257600080fd5b600080600080600080600060e0888a03121561223257600080fd5b873596506122426020890161206b565b955061225060408901612200565b945061225e60608901612200565b935061226c60808901612200565b925060a0880135915061228160c0890161206b565b905092959891949750929550565b6000602082840312156122a157600080fd5b6121f98261206b565b6020808252825182820181905260009190848201906040850190845b818110156122e2578351835292840192918401916001016122c6565b50909695505050505050565b60008060006060848603121561230357600080fd5b61230c8461206b565b95602085013595506040909401359392505050565b6020808252600d908201526c24b73b30b634b2103a37b5b2b760991b604082015260600190565b634e487b7160e01b600052604160045260246000fd5b634e487b7160e01b600052601160045260246000fd5b818103818111156104ff576104ff61235e565b808201808211156104ff576104ff61235e565b634e487b7160e01b600052603260045260246000fd5b6000600182016123c2576123c261235e565b5060010190565b6000602082840312156123db57600080fd5b5051919050565b6000602082840312156123f457600080fd5b815180151581146121f957600080fd5b80820281158282048414176104ff576104ff61235e565b60008261243857634e487b7160e01b600052601260045260246000fd5b50049056fecd5ed15c6e187e77e9aee88184c21f4f2182ab5827cb3b7e07fbedcd63f033009b779b17422d0df92223018b32b4d1fa46e071723d6817e2486d003becc55f00a26469706673582212208dab6c2da0e182d0731aaa3061e69e865b0e7f1a4f084d60c0ac988a1f637dca64736f6c63430008180033",
  "linkReferences": {},
  "deployedLinkReferences": {}
}