{
  "_format": "hh-sol-artifact-1",
  "contractName": "Voting",
  "sourceName": "contracts/Voting/Voting.sol",
  "abi": [
    {
      "inputs": [],
      "name": "EnforcedPause",
      "type": "error"
    },
    {
      "inputs": [],
      "name": "ExpectedPause",
      "type": "error"
    },
    {
      "inputs": [],
      "name": "InvalidInitialization",
      "type": "error"
    },
    {
      "inputs": [],
      "name": "NotInitializing",
      "type": "error"
    },
    {
      "inputs": [
        {
          "internalType": "address",
          "name": "owner",
          "type": "address"
        }
      ],
      "name": "OwnableInvalidOwner",
      "type": "error"
    },
    {
      "inputs": [
        {
          "internalType": "address",
          "name": "account",
          "type": "address"
        }
      ],
      "name": "OwnableUnauthorizedAccount",
      "type": "error"
    },
    {
      "inputs": [],
      "name": "ReentrancyGuardReentrantCall",
      "type": "error"
    },
    {
      "anonymous": false,
      "inputs": [
        {
          "indexed": false,
          "internalType": "address[]",
          "name": "boardOfDirectors",
          "type": "address[]"
        }
      ],
      "name": "BoardOfDirectorsSet",
      "type": "event"
    },
    {
      "anonymous": false,
      "inputs": [
        {
          "indexed": true,
          "internalType": "address",
          "name": "voter",
          "type": "address"
        },
        {
          "indexed": true,
          "internalType": "uint256",
          "name": "proposalId",
          "type": "uint256"
        },
        {
          "indexed": false,
          "internalType": "uint256",
          "name": "vote",
          "type": "uint256"
        }
      ],
      "name": "DirectiveVoted",
      "type": "event"
    },
    {
      "anonymous": false,
      "inputs": [
        {
          "indexed": true,
          "internalType": "address",
          "name": "voter",
          "type": "address"
        },
        {
          "indexed": true,
          "internalType": "uint256",
          "name": "proposalId",
          "type": "uint256"
        },
        {
          "indexed": true,
          "internalType": "address",
          "name": "candidateAddress",
          "type": "address"
        }
      ],
      "name": "ElectionVoted",
      "type": "event"
    },
    {
      "anonymous": false,
      "inputs": [
        {
          "indexed": false,
          "internalType": "uint64",
          "name": "version",
          "type": "uint64"
        }
      ],
      "name": "Initialized",
      "type": "event"
    },
    {
      "anonymous": false,
      "inputs": [
        {
          "indexed": true,
          "internalType": "address",
          "name": "previousOwner",
          "type": "address"
        },
        {
          "indexed": true,
          "internalType": "address",
          "name": "newOwner",
          "type": "address"
        }
      ],
      "name": "OwnershipTransferred",
      "type": "event"
    },
    {
      "anonymous": false,
      "inputs": [
        {
          "indexed": false,
          "internalType": "address",
          "name": "account",
          "type": "address"
        }
      ],
      "name": "Paused",
      "type": "event"
    },
    {
      "anonymous": false,
      "inputs": [
        {
          "indexed": true,
          "internalType": "uint256",
          "name": "proposalId",
          "type": "uint256"
        },
        {
          "indexed": false,
          "internalType": "string",
          "name": "title",
          "type": "string"
        },
        {
          "indexed": false,
          "internalType": "string",
          "name": "description",
          "type": "string"
        }
      ],
      "name": "ProposalAdded",
      "type": "event"
    },
    {
      "anonymous": false,
      "inputs": [
        {
          "indexed": true,
          "internalType": "uint256",
          "name": "proposalId",
          "type": "uint256"
        },
        {
          "indexed": false,
          "internalType": "bool",
          "name": "isActive",
          "type": "bool"
        }
      ],
      "name": "ProposalConcluded",
      "type": "event"
    },
    {
      "anonymous": false,
      "inputs": [
        {
          "indexed": false,
          "internalType": "address",
          "name": "account",
          "type": "address"
        }
      ],
      "name": "Unpaused",
      "type": "event"
    },
    {
      "inputs": [
        {
          "internalType": "string",
          "name": "_title",
          "type": "string"
        },
        {
          "internalType": "string",
          "name": "_description",
          "type": "string"
        },
        {
          "internalType": "bool",
          "name": "_isElection",
          "type": "bool"
        },
        {
          "internalType": "uint256",
          "name": "_winnerCount",
          "type": "uint256"
        },
        {
          "internalType": "address[]",
          "name": "_voters",
          "type": "address[]"
        },
        {
          "internalType": "address[]",
          "name": "_candidates",
          "type": "address[]"
        }
      ],
      "name": "addProposal",
      "outputs": [],
      "stateMutability": "nonpayable",
      "type": "function"
    },
    {
      "inputs": [],
      "name": "boardOfDirectorsContractAddress",
      "outputs": [
        {
          "internalType": "address",
          "name": "",
          "type": "address"
        }
      ],
      "stateMutability": "view",
      "type": "function"
    },
    {
      "inputs": [
        {
          "internalType": "uint256",
          "name": "proposalId",
          "type": "uint256"
        }
      ],
      "name": "concludeProposal",
      "outputs": [],
      "stateMutability": "nonpayable",
      "type": "function"
    },
    {
      "inputs": [
        {
          "internalType": "uint256",
          "name": "proposalId",
          "type": "uint256"
        }
      ],
      "name": "getProposalById",
      "outputs": [
        {
          "components": [
            {
              "internalType": "uint256",
              "name": "id",
              "type": "uint256"
            },
            {
              "internalType": "string",
              "name": "title",
              "type": "string"
            },
            {
              "internalType": "string",
              "name": "description",
              "type": "string"
            },
            {
              "internalType": "address",
              "name": "draftedBy",
              "type": "address"
            },
            {
              "internalType": "bool",
              "name": "isElection",
              "type": "bool"
            },
            {
              "internalType": "bool",
              "name": "isActive",
              "type": "bool"
            },
            {
              "internalType": "uint256",
              "name": "winnerCount",
              "type": "uint256"
            },
            {
              "components": [
                {
                  "internalType": "uint256",
                  "name": "yes",
                  "type": "uint256"
                },
                {
                  "internalType": "uint256",
                  "name": "no",
                  "type": "uint256"
                },
                {
                  "internalType": "uint256",
                  "name": "abstain",
                  "type": "uint256"
                }
              ],
              "internalType": "struct Types.DirectiveVotes",
              "name": "votes",
              "type": "tuple"
            },
            {
              "components": [
                {
                  "internalType": "address",
                  "name": "candidateAddress",
                  "type": "address"
                },
                {
                  "internalType": "uint256",
                  "name": "votes",
                  "type": "uint256"
                }
              ],
              "internalType": "struct Types.Candidate[]",
              "name": "candidates",
              "type": "tuple[]"
            },
            {
              "components": [
                {
                  "internalType": "bool",
                  "name": "isEligible",
                  "type": "bool"
                },
                {
                  "internalType": "bool",
                  "name": "isVoted",
                  "type": "bool"
                },
                {
                  "internalType": "address",
                  "name": "memberAddress",
                  "type": "address"
                }
              ],
              "internalType": "struct Types.Member[]",
              "name": "voters",
              "type": "tuple[]"
            }
          ],
          "internalType": "struct Types.Proposal",
          "name": "",
          "type": "tuple"
        }
      ],
      "stateMutability": "view",
      "type": "function"
    },
    {
      "inputs": [],
      "name": "initialize",
      "outputs": [],
      "stateMutability": "nonpayable",
      "type": "function"
    },
    {
      "inputs": [],
      "name": "owner",
      "outputs": [
        {
          "internalType": "address",
          "name": "",
          "type": "address"
        }
      ],
      "stateMutability": "view",
      "type": "function"
    },
    {
      "inputs": [],
      "name": "paused",
      "outputs": [
        {
          "internalType": "bool",
          "name": "",
          "type": "bool"
        }
      ],
      "stateMutability": "view",
      "type": "function"
    },
    {
      "inputs": [],
      "name": "proposalCount",
      "outputs": [
        {
          "internalType": "uint256",
          "name": "",
          "type": "uint256"
        }
      ],
      "stateMutability": "view",
      "type": "function"
    },
    {
      "inputs": [
        {
          "internalType": "uint256",
          "name": "",
          "type": "uint256"
        }
      ],
      "name": "proposalsById",
      "outputs": [
        {
          "internalType": "uint256",
          "name": "id",
          "type": "uint256"
        },
        {
          "internalType": "string",
          "name": "title",
          "type": "string"
        },
        {
          "internalType": "string",
          "name": "description",
          "type": "string"
        },
        {
          "internalType": "address",
          "name": "draftedBy",
          "type": "address"
        },
        {
          "internalType": "bool",
          "name": "isElection",
          "type": "bool"
        },
        {
          "internalType": "bool",
          "name": "isActive",
          "type": "bool"
        },
        {
          "internalType": "uint256",
          "name": "winnerCount",
          "type": "uint256"
        },
        {
          "components": [
            {
              "internalType": "uint256",
              "name": "yes",
              "type": "uint256"
            },
            {
              "internalType": "uint256",
              "name": "no",
              "type": "uint256"
            },
            {
              "internalType": "uint256",
              "name": "abstain",
              "type": "uint256"
            }
          ],
          "internalType": "struct Types.DirectiveVotes",
          "name": "votes",
          "type": "tuple"
        }
      ],
      "stateMutability": "view",
      "type": "function"
    },
    {
      "inputs": [],
      "name": "renounceOwnership",
      "outputs": [],
      "stateMutability": "nonpayable",
      "type": "function"
    },
    {
      "inputs": [
        {
          "internalType": "address[]",
          "name": "_boardOfDirectors",
          "type": "address[]"
        }
      ],
      "name": "setBoardOfDirectors",
      "outputs": [],
      "stateMutability": "nonpayable",
      "type": "function"
    },
    {
      "inputs": [
        {
          "internalType": "address",
          "name": "_boardOfDirectorsContractAddress",
          "type": "address"
        }
      ],
      "name": "setBoardOfDirectorsContractAddress",
      "outputs": [],
      "stateMutability": "nonpayable",
      "type": "function"
    },
    {
      "inputs": [
        {
          "internalType": "address",
          "name": "newOwner",
          "type": "address"
        }
      ],
      "name": "transferOwnership",
      "outputs": [],
      "stateMutability": "nonpayable",
      "type": "function"
    },
    {
      "inputs": [
        {
          "internalType": "uint256",
          "name": "proposalId",
          "type": "uint256"
        },
        {
          "internalType": "uint256",
          "name": "vote",
          "type": "uint256"
        }
      ],
      "name": "voteDirective",
      "outputs": [],
      "stateMutability": "nonpayable",
      "type": "function"
    },
    {
      "inputs": [
        {
          "internalType": "uint256",
          "name": "proposalId",
          "type": "uint256"
        },
        {
          "internalType": "address",
          "name": "candidateAddress",
          "type": "address"
        }
      ],
      "name": "voteElection",
      "outputs": [],
      "stateMutability": "nonpayable",
      "type": "function"
    }
  ],
  "bytecode": "0x608060405234801561001057600080fd5b506122ee806100206000396000f3fe608060405234801561001057600080fd5b50600436106100f55760003560e01c80638129fc1c11610097578063da35c66411610066578063da35c66414610234578063ec1721931461024b578063ee473c7a1461025e578063f2fde38b1461027157600080fd5b80638129fc1c146101c25780638da5cb5b146101ca57806397b3418e1461020e578063bd68d6e71461022157600080fd5b80635c975abb116100d35780635c975abb1461015f578063715018a61461019457806371a5c5721461019c57806376e9f102146101af57600080fd5b80631b7864c1146100fa5780633656de211461010f5780634f950c1a14610138575b600080fd5b61010d610108366004611a06565b610284565b005b61012261011d366004611a06565b610678565b60405161012f9190611b09565b60405180910390f35b61014b610146366004611a06565b610954565b60405161012f989796959493929190611c02565b7fcd5ed15c6e187e77e9aee88184c21f4f2182ab5827cb3b7e07fbedcd63f033005460ff16604051901515815260200161012f565b61010d610ad9565b61010d6101aa366004611d73565b610aed565b61010d6101bd366004611e30565b610b5a565b61010d610f15565b7f9016d09d72d40fdae2fd8ceac6b6234c7706214fd39c1cd1e609a0528c199300546001600160a01b03165b6040516001600160a01b03909116815260200161012f565b61010d61021c366004611ef6565b611033565b6002546101f6906001600160a01b031681565b61023d60015481565b60405190815260200161012f565b61010d610259366004611f18565b6111c1565b61010d61026c366004611f3a565b6111eb565b61010d61027f366004611f18565b61144f565b60015481106102ae5760405162461bcd60e51b81526004016102a590611f66565b60405180910390fd5b600081815260208190526040902060038101805460ff600160a81b8083048216150260ff60a81b199092169190911791829055600160a01b909104161561062e57600081600401549050600082600801805480602002602001604051908101604052809291908181526020016000905b82821015610366576000848152602090819020604080518082019091526002850290910180546001600160a01b0316825260019081015482840152908352909201910161031e565b50505050905060005b8151811015610459576000610385826001611fb3565b90505b8251811015610450578281815181106103a3576103a3611fc6565b6020026020010151602001518383815181106103c1576103c1611fc6565b60200260200101516020015110156104485760008383815181106103e7576103e7611fc6565b6020026020010151905083828151811061040357610403611fc6565b602002602001015184848151811061041d5761041d611fc6565b60200260200101819052508084838151811061043b5761043b611fc6565b6020026020010181905250505b600101610388565b5060010161036f565b5060008267ffffffffffffffff81111561047557610475611c89565b60405190808252806020026020018201604052801561049e578160200160208202803683370190505b50905060005b83811015610547578281815181106104be576104be611fc6565b6020026020010151600001518282815181106104dc576104dc611fc6565b60200260200101906001600160a01b031690816001600160a01b03168152505061053f6040518060400160405280600881526020016702bb4b73732b91d160c51b81525083838151811061053257610532611fc6565b602002602001015161148d565b6001016104a4565b506002546040516338d2e2b960e11b81526001600160a01b03909116906371a5c57290610578908490600401611fdc565b600060405180830381600087803b15801561059257600080fd5b505af11580156105a6573d6000803e3d6000fd5b505050507f48fcc37190f2613c3ad004cac1fc4ed1d270d7453ce1523fac376a70e5fb36ca816040516105d99190611fdc565b60405180910390a16003840154604051600160a81b90910460ff161515815285907f628c5b5fb646e7f6c763f5e3b6fdcbee619fe1c1bc595643a1c70415a6f113499060200160405180910390a25050505050565b6003810154604051600160a81b90910460ff161515815282907f628c5b5fb646e7f6c763f5e3b6fdcbee619fe1c1bc595643a1c70415a6f113499060200160405180910390a25050565b610680611822565b60015482106106a15760405162461bcd60e51b81526004016102a590611f66565b60008281526020818152604091829020825161014081019093528054835260018101805491928401916106d390612029565b80601f01602080910402602001604051908101604052809291908181526020018280546106ff90612029565b801561074c5780601f106107215761010080835404028352916020019161074c565b820191906000526020600020905b81548152906001019060200180831161072f57829003601f168201915b5050505050815260200160028201805461076590612029565b80601f016020809104026020016040519081016040528092919081815260200182805461079190612029565b80156107de5780601f106107b3576101008083540402835291602001916107de565b820191906000526020600020905b8154815290600101906020018083116107c157829003601f168201915b505050918352505060038201546001600160a01b03811660208084019190915260ff600160a01b830481161515604080860191909152600160a81b90930416151560608085019190915260048501546080850152825190810183526005850154815260068501548183015260078501548184015260a084015260088401805483518184028101840190945280845260c090940193909160009084015b828210156108c2576000848152602090819020604080518082019091526002850290910180546001600160a01b0316825260019081015482840152908352909201910161087a565b50505050815260200160098201805480602002602001604051908101604052809291908181526020016000905b82821015610946576000848152602090819020604080516060810182529185015460ff808216151584526101008204161515838501526201000090046001600160a01b0316908201528252600190920191016108ef565b505050915250909392505050565b6000602081905290815260409020805460018201805491929161097690612029565b80601f01602080910402602001604051908101604052809291908181526020018280546109a290612029565b80156109ef5780601f106109c4576101008083540402835291602001916109ef565b820191906000526020600020905b8154815290600101906020018083116109d257829003601f168201915b505050505090806002018054610a0490612029565b80601f0160208091040260200160405190810160405280929190818152602001828054610a3090612029565b8015610a7d5780601f10610a5257610100808354040283529160200191610a7d565b820191906000526020600020905b815481529060010190602001808311610a6057829003601f168201915b505050600384015460048501546040805160608101825260058801548152600688015460208201526007909701549087015293946001600160a01b0382169460ff600160a01b840481169550600160a81b909304909216925088565b610ae16114d6565b610aeb6000611531565b565b610af56114d6565b6002546040516338d2e2b960e11b81526001600160a01b03909116906371a5c57290610b25908490600401611fdc565b600060405180830381600087803b158015610b3f57600080fd5b505af1158015610b53573d6000803e3d6000fd5b5050505050565b6000865111610ba35760405162461bcd60e51b81526020600482015260156024820152745469746c652063616e6e6f7420626520656d70747960581b60448201526064016102a5565b600180546000818152602081905260409020908155908101610bc588826120b4565b5060028101610bd487826120b4565b50600381018054600160a81b6001600160a81b03199091163360ff60a01b191617600160a01b881515021760ff60a81b19161790556004810184905560005b8351811015610cd05760006040518060600160405280600115158152602001600015158152602001868481518110610c4d57610c4d611fc6565b6020908102919091018101516001600160a01b039081169092526009860180546001818101835560009283529183902085519101805493860151604090960151909416620100000262010000600160b01b03199515156101000261ff00199215159290921661ffff19909416939093171793909316179055919091019050610c13565b508415610dbd576000825111610d285760405162461bcd60e51b815260206004820152601a60248201527f43616e646964617465732063616e6e6f7420626520656d70747900000000000060448201526064016102a5565b60005b8251811015610dbb5760006040518060400160405280858481518110610d5357610d53611fc6565b6020908102919091018101516001600160a01b03908116835260009282018390526008870180546001808201835591855293839020855160029095020180546001600160a01b0319169490921693909317815592015191810191909155919091019050610d2b565b505b60018054600090815260208190526040902082548155829181810190610de590840182612174565b50600281810190610df890840182612174565b506003828101805491830180546001600160a01b031981166001600160a01b039094169384178255825460ff600160a01b91829004811615159091026001600160a81b0319909216909417178082559154600160a81b90819004909316151590920260ff60a81b199091161790556004808301549082015560058083015490820155600680830154908201556007808301549082015560088083018054610ea292840191906118a4565b5060098281018054610eb7928401919061191c565b509050506001547f2da739368218397c1f8267a798bce5722bae1a51d2855fb923312edf27460c608888604051610eef929190612247565b60405180910390a260018054906000610f0783612275565b919050555050505050505050565b7ff0c57e16840df040f15088dc2f81fe391c3923bec73e23a9662efc9c229c6a008054600160401b810460ff16159067ffffffffffffffff16600081158015610f5b5750825b905060008267ffffffffffffffff166001148015610f785750303b155b905081158015610f86575080155b15610fa45760405163f92ee8a960e01b815260040160405180910390fd5b845467ffffffffffffffff191660011785558315610fce57845460ff60401b1916600160401b1785555b610fd7336115a2565b610fdf6115b3565b610fe76115c3565b8315610b5357845460ff60401b19168555604051600181527fc7f505b2f371ae2175ee4913f4499e1f2633a7b5936321eed1cdaeb6115181d29060200160405180910390a15050505050565b60015482106110545760405162461bcd60e51b81526004016102a590611f66565b60008281526020819052604090206003810154600160a81b900460ff166110b65760405162461bcd60e51b815260206004820152601660248201527550726f706f73616c206973206e6f742061637469766560501b60448201526064016102a5565b60006110c282336115d3565b805490915060ff166111165760405162461bcd60e51b815260206004820152601c60248201527f596f7520617265206e6f7420656c696769626c6520746f20766f74650000000060448201526064016102a5565b8054610100900460ff16156111665760405162461bcd60e51b8152602060048201526016602482015275165bdd481a185d9948185b1c9958591e481d9bdd195960521b60448201526064016102a5565b61117082846116b8565b805461ff001916610100178155604051849033907fabe5d78d7c4aff0ea01d11f7334d89bf989faef45af0c780acf4ccff6bd5c8db906111b39087815260200190565b60405180910390a350505050565b6111c96114d6565b600280546001600160a01b0319166001600160a01b0392909216919091179055565b600154821061120c5760405162461bcd60e51b81526004016102a590611f66565b60008281526020819052604090206003810154600160a81b900460ff1661126e5760405162461bcd60e51b815260206004820152601660248201527550726f706f73616c206973206e6f742061637469766560501b60448201526064016102a5565b600061127a82336115d3565b805490915060ff166112ce5760405162461bcd60e51b815260206004820152601c60248201527f596f7520617265206e6f7420656c696769626c6520746f20766f74650000000060448201526064016102a5565b8054610100900460ff161561131e5760405162461bcd60e51b8152602060048201526016602482015275165bdd481a185d9948185b1c9958591e481d9bdd195960521b60448201526064016102a5565b6000805b60088401548110156113b557846001600160a01b031684600801828154811061134d5761134d611fc6565b60009182526020909120600290910201546001600160a01b0316036113ad5783600801818154811061138157611381611fc6565b60009182526020822060016002909202010180549161139f83612275565b9190505550600191506113b5565b600101611322565b50806114035760405162461bcd60e51b815260206004820152601860248201527f43616e64696461746520646f6573206e6f74206578697374000000000000000060448201526064016102a5565b815461ff0019166101001782556040516001600160a01b03851690869033907fe8db14efb3e399b32db39dd2829b3af23451747dba46368ce6a3d5ccefebf88290600090a45050505050565b6114576114d6565b6001600160a01b03811661148157604051631e4fbdf760e01b8152600060048201526024016102a5565b61148a81611531565b50565b6114d282826040516024016114a392919061228e565b60408051601f198184030181529190526020810180516001600160e01b031663319af33360e01b179052611746565b5050565b336115087f9016d09d72d40fdae2fd8ceac6b6234c7706214fd39c1cd1e609a0528c199300546001600160a01b031690565b6001600160a01b031614610aeb5760405163118cdaa760e01b81523360048201526024016102a5565b7f9016d09d72d40fdae2fd8ceac6b6234c7706214fd39c1cd1e609a0528c19930080546001600160a01b031981166001600160a01b03848116918217845560405192169182907f8be0079c531659141344cd1fd0a4f28419497f9722a3daafe3b4186f6b6457e090600090a3505050565b6115aa61174f565b61148a81611798565b6115bb61174f565b610aeb6117a0565b6115cb61174f565b610aeb6117ce565b6000805b600984015481101561165157826001600160a01b031684600901828154811061160257611602611fc6565b6000918252602090912001546201000090046001600160a01b0316036116495783600901818154811061163757611637611fc6565b906000526020600020019150506116b2565b6001016115d7565b5060405162461bcd60e51b815260206004820152602f60248201527f596f7520617265206e6f74207265676973746572656420746f20766f7465206960448201526e1b881d1a1a5cc81c1c9bdc1bdcd85b608a1b60648201526084016102a5565b92915050565b806000036116db576006820180549060006116d283612275565b91905055505050565b806001036116f5576005820180549060006116d283612275565b8060020361170f576007820180549060006116d283612275565b60405162461bcd60e51b815260206004820152600c60248201526b496e76616c696420766f746560a01b60448201526064016102a5565b61148a81611801565b7ff0c57e16840df040f15088dc2f81fe391c3923bec73e23a9662efc9c229c6a0054600160401b900460ff16610aeb57604051631afcd79f60e31b815260040160405180910390fd5b61145761174f565b6117a861174f565b60017f9b779b17422d0df92223018b32b4d1fa46e071723d6817e2486d003becc55f0055565b6117d661174f565b7fcd5ed15c6e187e77e9aee88184c21f4f2182ab5827cb3b7e07fbedcd63f03300805460ff19169055565b60006a636f6e736f6c652e6c6f679050600080835160208501845afa505050565b60405180610140016040528060008152602001606081526020016060815260200160006001600160a01b031681526020016000151581526020016000151581526020016000815260200161189060405180606001604052806000815260200160008152602001600081525090565b815260200160608152602001606081525090565b82805482825590600052602060002090600202810192821561190c5760005260206000209160020282015b8281111561190c57825482546001600160a01b0319166001600160a01b0390911617825560018084015490830155600292830192909101906118cf565b506119189291506119c1565b5090565b8280548282559060005260206000209081019282156119b55760005260206000209182015b828111156119b5578254825460ff918216151560ff19821681178555855461010090819004909316151590920261ff001990921661ffff19909116171780835583546001600160a01b036201000091829004160262010000600160b01b031990911617825560019283019290910190611941565b506119189291506119e7565b5b808211156119185780546001600160a01b0319168155600060018201556002016119c2565b5b808211156119185780546001600160b01b03191681556001016119e8565b600060208284031215611a1857600080fd5b5035919050565b6000815180845260005b81811015611a4557602081850181015186830182015201611a29565b506000602082860101526020601f19601f83011685010191505092915050565b60008151808452602080850194506020840160005b83811015611aaa57815180516001600160a01b031688528301518388015260409096019590820190600101611a7a565b509495945050505050565b60008151808452602080850194506020840160005b83811015611aaa578151805115158852838101511515848901526040908101516001600160a01b03169088015260609096019590820190600101611aca565b602081528151602082015260006020830151610180806040850152611b326101a0850183611a1f565b91506040850151601f1980868503016060870152611b508483611a1f565b935060608701519150611b6e60808701836001600160a01b03169052565b608087015180151560a0880152915060a087015180151560c0880152915060c087015160e087015260e08701519150610100611bc0818801848051825260208082015190830152604090810151910152565b87015186850382016101608801529150611bda8483611a65565b9350610120870151915080868503018387015250611bf88382611ab5565b9695505050505050565b60006101408a8352806020840152611c1c8184018b611a1f565b90508281036040840152611c30818a611a1f565b6001600160a01b0389166060850152871515608085015286151560a085015260c08401869052845160e0850152602085015161010085015260408501516101208501529150611c7c9050565b9998505050505050505050565b634e487b7160e01b600052604160045260246000fd5b604051601f8201601f1916810167ffffffffffffffff81118282101715611cc857611cc8611c89565b604052919050565b80356001600160a01b0381168114611ce757600080fd5b919050565b600082601f830112611cfd57600080fd5b8135602067ffffffffffffffff821115611d1957611d19611c89565b8160051b611d28828201611c9f565b9283528481018201928281019087851115611d4257600080fd5b83870192505b84831015611d6857611d5983611cd0565b82529183019190830190611d48565b979650505050505050565b600060208284031215611d8557600080fd5b813567ffffffffffffffff811115611d9c57600080fd5b611da884828501611cec565b949350505050565b600082601f830112611dc157600080fd5b813567ffffffffffffffff811115611ddb57611ddb611c89565b611dee601f8201601f1916602001611c9f565b818152846020838601011115611e0357600080fd5b816020850160208301376000918101602001919091529392505050565b80358015158114611ce757600080fd5b60008060008060008060c08789031215611e4957600080fd5b863567ffffffffffffffff80821115611e6157600080fd5b611e6d8a838b01611db0565b97506020890135915080821115611e8357600080fd5b611e8f8a838b01611db0565b9650611e9d60408a01611e20565b9550606089013594506080890135915080821115611eba57600080fd5b611ec68a838b01611cec565b935060a0890135915080821115611edc57600080fd5b50611ee989828a01611cec565b9150509295509295509295565b60008060408385031215611f0957600080fd5b50508035926020909101359150565b600060208284031215611f2a57600080fd5b611f3382611cd0565b9392505050565b60008060408385031215611f4d57600080fd5b82359150611f5d60208401611cd0565b90509250929050565b60208082526017908201527f50726f706f73616c20646f6573206e6f74206578697374000000000000000000604082015260600190565b634e487b7160e01b600052601160045260246000fd5b808201808211156116b2576116b2611f9d565b634e487b7160e01b600052603260045260246000fd5b6020808252825182820181905260009190848201906040850190845b8181101561201d5783516001600160a01b031683529284019291840191600101611ff8565b50909695505050505050565b600181811c9082168061203d57607f821691505b60208210810361205d57634e487b7160e01b600052602260045260246000fd5b50919050565b601f8211156120af576000816000526020600020601f850160051c8101602086101561208c5750805b601f850160051c820191505b818110156120ab57828155600101612098565b5050505b505050565b815167ffffffffffffffff8111156120ce576120ce611c89565b6120e2816120dc8454612029565b84612063565b602080601f83116001811461211757600084156120ff5750858301515b600019600386901b1c1916600185901b1785556120ab565b600085815260208120601f198616915b8281101561214657888601518255948401946001909101908401612127565b50858210156121645787850151600019600388901b60f8161c191681555b5050505050600190811b01905550565b81810361217f575050565b6121898254612029565b67ffffffffffffffff8111156121a1576121a1611c89565b6121af816120dc8454612029565b6000601f8211600181146121e357600083156121cb5750848201545b600019600385901b1c1916600184901b178455610b53565b600085815260209020601f19841690600086815260209020845b8381101561221d57828601548255600195860195909101906020016121fd565b50858310156121645793015460001960f8600387901b161c19169092555050600190811b01905550565b60408152600061225a6040830185611a1f565b828103602084015261226c8185611a1f565b95945050505050565b60006001820161228757612287611f9d565b5060010190565b6040815260006122a16040830185611a1f565b905060018060a01b0383166020830152939250505056fea2646970667358221220229a1fc1fa2213937187bcb8b1b0bd9cfe87fb564826c42abd7351577520f79264736f6c63430008180033",
  "linkReferences": {},
  "deployedLinkReferences": {}
}